{
	"contracts/LicenseManager.sol": {
		"LicenseManager": {
			"abi": [
				{
					"inputs": [
						{
							"internalType": "address",
							"name": "owner",
							"type": "address"
						}
					],
					"stateMutability": "nonpayable",
					"type": "constructor"
				},
				{
					"inputs": [
						{
							"internalType": "string",
							"name": "message",
							"type": "string"
						},
						{
							"internalType": "bytes",
							"name": "sig",
							"type": "bytes"
						}
					],
					"name": "_recoverSigner",
					"outputs": [
						{
							"internalType": "address",
							"name": "",
							"type": "address"
						}
					],
					"stateMutability": "pure",
					"type": "function"
				},
				{
					"inputs": [
						{
							"internalType": "string",
							"name": "vid",
							"type": "string"
						},
						{
							"internalType": "address",
							"name": "template",
							"type": "address"
						},
						{
							"internalType": "uint256",
							"name": "price",
							"type": "uint256"
						},
						{
							"internalType": "LID",
							"name": "licenseId",
							"type": "uint256"
						}
					],
					"name": "addLicense",
					"outputs": [],
					"stateMutability": "nonpayable",
					"type": "function"
				},
				{
					"inputs": [
						{
							"internalType": "address",
							"name": "template",
							"type": "address"
						}
					],
					"name": "addTemplate",
					"outputs": [],
					"stateMutability": "nonpayable",
					"type": "function"
				},
				{
					"inputs": [
						{
							"internalType": "string",
							"name": "vid",
							"type": "string"
						},
						{
							"internalType": "address payable",
							"name": "licensor",
							"type": "address"
						},
						{
							"internalType": "bytes",
							"name": "signature",
							"type": "bytes"
						}
					],
					"name": "addVideo",
					"outputs": [],
					"stateMutability": "nonpayable",
					"type": "function"
				},
				{
					"inputs": [
						{
							"internalType": "string",
							"name": "vid",
							"type": "string"
						},
						{
							"internalType": "address payable",
							"name": "licensor",
							"type": "address"
						},
						{
							"internalType": "bytes",
							"name": "signature",
							"type": "bytes"
						},
						{
							"internalType": "address",
							"name": "template",
							"type": "address"
						},
						{
							"internalType": "uint256",
							"name": "price",
							"type": "uint256"
						},
						{
							"internalType": "LID",
							"name": "licenseId",
							"type": "uint256"
						}
					],
					"name": "addVideoWithLicense",
					"outputs": [],
					"stateMutability": "nonpayable",
					"type": "function"
				},
				{
					"inputs": [
						{
							"internalType": "LID",
							"name": "licenseId",
							"type": "uint256"
						},
						{
							"internalType": "bytes",
							"name": "signature",
							"type": "bytes"
						}
					],
					"name": "buyLicense",
					"outputs": [],
					"stateMutability": "payable",
					"type": "function"
				},
				{
					"inputs": [
						{
							"internalType": "LID",
							"name": "licenseId",
							"type": "uint256"
						},
						{
							"internalType": "address",
							"name": "licensee",
							"type": "address"
						}
					],
					"name": "composeLicense",
					"outputs": [
						{
							"internalType": "string",
							"name": "",
							"type": "string"
						}
					],
					"stateMutability": "view",
					"type": "function"
				},
				{
					"inputs": [
						{
							"internalType": "LID",
							"name": "licenseId",
							"type": "uint256"
						}
					],
					"name": "getLicenseOwner",
					"outputs": [
						{
							"internalType": "address payable",
							"name": "",
							"type": "address"
						}
					],
					"stateMutability": "view",
					"type": "function"
				},
				{
					"inputs": [
						{
							"internalType": "LID",
							"name": "licenseId",
							"type": "uint256"
						}
					],
					"name": "getLicensePrice",
					"outputs": [
						{
							"internalType": "uint256",
							"name": "",
							"type": "uint256"
						}
					],
					"stateMutability": "view",
					"type": "function"
				},
				{
					"inputs": [
						{
							"internalType": "LID",
							"name": "licenseId",
							"type": "uint256"
						}
					],
					"name": "getLicenseTemplate",
					"outputs": [
						{
							"internalType": "address",
							"name": "",
							"type": "address"
						}
					],
					"stateMutability": "view",
					"type": "function"
				},
				{
					"inputs": [
						{
							"internalType": "LID",
							"name": "licenseId",
							"type": "uint256"
						}
					],
					"name": "getLicenseVideo",
					"outputs": [
						{
							"internalType": "string",
							"name": "",
							"type": "string"
						}
					],
					"stateMutability": "view",
					"type": "function"
				},
				{
					"inputs": [
						{
							"internalType": "string",
							"name": "vid",
							"type": "string"
						},
						{
							"internalType": "address",
							"name": "licensee",
							"type": "address"
						}
					],
					"name": "getLicensesOfVideoAndLicensee",
					"outputs": [
						{
							"internalType": "LID[]",
							"name": "",
							"type": "uint256[]"
						}
					],
					"stateMutability": "view",
					"type": "function"
				},
				{
					"inputs": [
						{
							"internalType": "LID",
							"name": "licenseId",
							"type": "uint256"
						},
						{
							"internalType": "address",
							"name": "licensee",
							"type": "address"
						}
					],
					"name": "getPurchaseTime",
					"outputs": [
						{
							"internalType": "uint256",
							"name": "",
							"type": "uint256"
						}
					],
					"stateMutability": "view",
					"type": "function"
				},
				{
					"inputs": [
						{
							"internalType": "string",
							"name": "vid",
							"type": "string"
						}
					],
					"name": "getVideoLicenses",
					"outputs": [
						{
							"internalType": "LID[]",
							"name": "",
							"type": "uint256[]"
						}
					],
					"stateMutability": "view",
					"type": "function"
				},
				{
					"inputs": [
						{
							"internalType": "string",
							"name": "vid",
							"type": "string"
						}
					],
					"name": "getVideoOwner",
					"outputs": [
						{
							"internalType": "address payable",
							"name": "",
							"type": "address"
						}
					],
					"stateMutability": "view",
					"type": "function"
				},
				{
					"inputs": [],
					"name": "licenseeAgreement",
					"outputs": [
						{
							"internalType": "string",
							"name": "",
							"type": "string"
						}
					],
					"stateMutability": "view",
					"type": "function"
				},
				{
					"inputs": [],
					"name": "licensorAgreement",
					"outputs": [
						{
							"internalType": "string",
							"name": "",
							"type": "string"
						}
					],
					"stateMutability": "view",
					"type": "function"
				},
				{
					"inputs": [
						{
							"internalType": "LID",
							"name": "licenseId",
							"type": "uint256"
						}
					],
					"name": "removeLicense",
					"outputs": [],
					"stateMutability": "nonpayable",
					"type": "function"
				},
				{
					"inputs": [
						{
							"internalType": "address",
							"name": "template",
							"type": "address"
						}
					],
					"name": "removeTemplate",
					"outputs": [],
					"stateMutability": "nonpayable",
					"type": "function"
				},
				{
					"inputs": [
						{
							"internalType": "address",
							"name": "owner",
							"type": "address"
						}
					],
					"name": "transferOwnership",
					"outputs": [],
					"stateMutability": "nonpayable",
					"type": "function"
				},
				{
					"inputs": [
						{
							"internalType": "address",
							"name": "signer",
							"type": "address"
						},
						{
							"internalType": "string",
							"name": "message",
							"type": "string"
						},
						{
							"internalType": "bytes",
							"name": "signature",
							"type": "bytes"
						}
					],
					"name": "verifySigner",
					"outputs": [
						{
							"internalType": "bool",
							"name": "",
							"type": "bool"
						}
					],
					"stateMutability": "view",
					"type": "function"
				}
			],
			"devdoc": {
				"kind": "dev",
				"methods": {},
				"version": 1
			},
			"evm": {
				"assembly": "    /* \"contracts/LicenseManager.sol\":926:11294  contract LicenseManager {... */\n  mstore(0x40, 0x80)\n    /* \"contracts/LicenseManager.sol\":985:1124  constructor(address owner) {... */\n  callvalue\n  dup1\n  iszero\n  tag_1\n  jumpi\n  0x00\n  dup1\n  revert\ntag_1:\n  pop\n  mload(0x40)\n  sub(codesize, bytecodeSize)\n  dup1\n  bytecodeSize\n  dup4\n  codecopy\n  dup2\n  dup2\n  add\n  0x40\n  mstore\n  dup2\n  add\n  swap1\n  tag_2\n  swap2\n  swap1\n  tag_3\n  jump\t// in\ntag_2:\n    /* \"contracts/LicenseManager.sol\":1031:1036  owner */\n  dup1\n    /* \"contracts/LicenseManager.sol\":1022:1028  _owner */\n  0x00\n  dup1\n    /* \"contracts/LicenseManager.sol\":1022:1036  _owner = owner */\n  0x0100\n  exp\n  dup2\n  sload\n  dup2\n  0xffffffffffffffffffffffffffffffffffffffff\n  mul\n  not\n  and\n  swap1\n  dup4\n  0xffffffffffffffffffffffffffffffffffffffff\n  and\n  mul\n  or\n  swap1\n  sstore\n  pop\n    /* \"contracts/LicenseManager.sol\":1077:1081  true */\n  0x01\n    /* \"contracts/LicenseManager.sol\":1046:1061  _licenseCreated */\n  0x05\n    /* \"contracts/LicenseManager.sol\":1046:1074  _licenseCreated[LID.wrap(0)] */\n  0x00\n    /* \"contracts/LicenseManager.sol\":1071:1072  0 */\n  dup1\n    /* \"contracts/LicenseManager.sol\":1046:1074  _licenseCreated[LID.wrap(0)] */\n  dup2\n  mstore\n  0x20\n  add\n  swap1\n  dup2\n  mstore\n  0x20\n  add\n  0x00\n  keccak256\n  0x00\n    /* \"contracts/LicenseManager.sol\":1046:1081  _licenseCreated[LID.wrap(0)] = true */\n  0x0100\n  exp\n  dup2\n  sload\n  dup2\n  0xff\n  mul\n  not\n  and\n  swap1\n  dup4\n  iszero\n  iszero\n  mul\n  or\n  swap1\n  sstore\n  pop\n    /* \"contracts/LicenseManager.sol\":985:1124  constructor(address owner) {... */\n  pop\n    /* \"contracts/LicenseManager.sol\":926:11294  contract LicenseManager {... */\n  jump(tag_6)\n    /* \"#utility.yul\":88:205   */\ntag_8:\n    /* \"#utility.yul\":197:198   */\n  0x00\n    /* \"#utility.yul\":194:195   */\n  dup1\n    /* \"#utility.yul\":187:199   */\n  revert\n    /* \"#utility.yul\":334:460   */\ntag_10:\n    /* \"#utility.yul\":371:378   */\n  0x00\n    /* \"#utility.yul\":411:453   */\n  0xffffffffffffffffffffffffffffffffffffffff\n    /* \"#utility.yul\":404:409   */\n  dup3\n    /* \"#utility.yul\":400:454   */\n  and\n    /* \"#utility.yul\":389:454   */\n  swap1\n  pop\n    /* \"#utility.yul\":334:460   */\n  swap2\n  swap1\n  pop\n  jump\t// out\n    /* \"#utility.yul\":466:562   */\ntag_11:\n    /* \"#utility.yul\":503:510   */\n  0x00\n    /* \"#utility.yul\":532:556   */\n  tag_20\n    /* \"#utility.yul\":550:555   */\n  dup3\n    /* \"#utility.yul\":532:556   */\n  tag_10\n  jump\t// in\ntag_20:\n    /* \"#utility.yul\":521:556   */\n  swap1\n  pop\n    /* \"#utility.yul\":466:562   */\n  swap2\n  swap1\n  pop\n  jump\t// out\n    /* \"#utility.yul\":568:690   */\ntag_12:\n    /* \"#utility.yul\":641:665   */\n  tag_22\n    /* \"#utility.yul\":659:664   */\n  dup2\n    /* \"#utility.yul\":641:665   */\n  tag_11\n  jump\t// in\ntag_22:\n    /* \"#utility.yul\":634:639   */\n  dup2\n    /* \"#utility.yul\":631:666   */\n  eq\n    /* \"#utility.yul\":621:684   */\n  tag_23\n  jumpi\n    /* \"#utility.yul\":680:681   */\n  0x00\n    /* \"#utility.yul\":677:678   */\n  dup1\n    /* \"#utility.yul\":670:682   */\n  revert\n    /* \"#utility.yul\":621:684   */\ntag_23:\n    /* \"#utility.yul\":568:690   */\n  pop\n  jump\t// out\n    /* \"#utility.yul\":696:839   */\ntag_13:\n    /* \"#utility.yul\":753:758   */\n  0x00\n    /* \"#utility.yul\":784:790   */\n  dup2\n    /* \"#utility.yul\":778:791   */\n  mload\n    /* \"#utility.yul\":769:791   */\n  swap1\n  pop\n    /* \"#utility.yul\":800:833   */\n  tag_25\n    /* \"#utility.yul\":827:832   */\n  dup2\n    /* \"#utility.yul\":800:833   */\n  tag_12\n  jump\t// in\ntag_25:\n    /* \"#utility.yul\":696:839   */\n  swap3\n  swap2\n  pop\n  pop\n  jump\t// out\n    /* \"#utility.yul\":845:1196   */\ntag_3:\n    /* \"#utility.yul\":915:921   */\n  0x00\n    /* \"#utility.yul\":964:966   */\n  0x20\n    /* \"#utility.yul\":952:961   */\n  dup3\n    /* \"#utility.yul\":943:950   */\n  dup5\n    /* \"#utility.yul\":939:962   */\n  sub\n    /* \"#utility.yul\":935:967   */\n  slt\n    /* \"#utility.yul\":932:1051   */\n  iszero\n  tag_27\n  jumpi\n    /* \"#utility.yul\":970:1049   */\n  tag_28\n  tag_8\n  jump\t// in\ntag_28:\n    /* \"#utility.yul\":932:1051   */\ntag_27:\n    /* \"#utility.yul\":1090:1091   */\n  0x00\n    /* \"#utility.yul\":1115:1179   */\n  tag_29\n    /* \"#utility.yul\":1171:1178   */\n  dup5\n    /* \"#utility.yul\":1162:1168   */\n  dup3\n    /* \"#utility.yul\":1151:1160   */\n  dup6\n    /* \"#utility.yul\":1147:1169   */\n  add\n    /* \"#utility.yul\":1115:1179   */\n  tag_13\n  jump\t// in\ntag_29:\n    /* \"#utility.yul\":1105:1179   */\n  swap2\n  pop\n    /* \"#utility.yul\":1061:1189   */\n  pop\n    /* \"#utility.yul\":845:1196   */\n  swap3\n  swap2\n  pop\n  pop\n  jump\t// out\n    /* \"contracts/LicenseManager.sol\":926:11294  contract LicenseManager {... */\ntag_6:\n  dataSize(sub_0)\n  dup1\n  dataOffset(sub_0)\n  0x00\n  codecopy\n  0x00\n  return\nstop\n\nsub_0: assembly {\n        /* \"contracts/LicenseManager.sol\":926:11294  contract LicenseManager {... */\n      mstore(0x40, 0x80)\n      jumpi(tag_1, lt(calldatasize, 0x04))\n      shr(0xe0, calldataload(0x00))\n      dup1\n      0x976662b0\n      gt\n      tag_23\n      jumpi\n      dup1\n      0xd947650a\n      gt\n      tag_24\n      jumpi\n      dup1\n      0xd947650a\n      eq\n      tag_17\n      jumpi\n      dup1\n      0xe946af59\n      eq\n      tag_18\n      jumpi\n      dup1\n      0xea80a847\n      eq\n      tag_19\n      jumpi\n      dup1\n      0xeeb9509b\n      eq\n      tag_20\n      jumpi\n      dup1\n      0xf1197969\n      eq\n      tag_21\n      jumpi\n      dup1\n      0xf2fde38b\n      eq\n      tag_22\n      jumpi\n      jump(tag_1)\n    tag_24:\n      dup1\n      0x976662b0\n      eq\n      tag_12\n      jumpi\n      dup1\n      0x99911abe\n      eq\n      tag_13\n      jumpi\n      dup1\n      0xb033c13a\n      eq\n      tag_14\n      jumpi\n      dup1\n      0xb0508a83\n      eq\n      tag_15\n      jumpi\n      dup1\n      0xb6c00a82\n      eq\n      tag_16\n      jumpi\n      jump(tag_1)\n    tag_23:\n      dup1\n      0x55b30266\n      gt\n      tag_25\n      jumpi\n      dup1\n      0x55b30266\n      eq\n      tag_7\n      jumpi\n      dup1\n      0x66527f1c\n      eq\n      tag_8\n      jumpi\n      dup1\n      0x705d5c76\n      eq\n      tag_9\n      jumpi\n      dup1\n      0x70d8677f\n      eq\n      tag_10\n      jumpi\n      dup1\n      0x74f630dc\n      eq\n      tag_11\n      jumpi\n      jump(tag_1)\n    tag_25:\n      dup1\n      0x0e15c62a\n      eq\n      tag_2\n      jumpi\n      dup1\n      0x1e7fd268\n      eq\n      tag_3\n      jumpi\n      dup1\n      0x2b35d062\n      eq\n      tag_4\n      jumpi\n      dup1\n      0x3e340e2d\n      eq\n      tag_5\n      jumpi\n      dup1\n      0x41befbd1\n      eq\n      tag_6\n      jumpi\n    tag_1:\n      0x00\n      dup1\n      revert\n        /* \"contracts/LicenseManager.sol\":6244:6401  string public constant licenseeAgreement =... */\n    tag_2:\n      callvalue\n      dup1\n      iszero\n      tag_26\n      jumpi\n      0x00\n      dup1\n      revert\n    tag_26:\n      pop\n      tag_27\n      tag_28\n      jump\t// in\n    tag_27:\n      mload(0x40)\n      tag_29\n      swap2\n      swap1\n      tag_30\n      jump\t// in\n    tag_29:\n      mload(0x40)\n      dup1\n      swap2\n      sub\n      swap1\n      return\n        /* \"contracts/LicenseManager.sol\":5641:5843  function getLicenseOwner(LID licenseId)... */\n    tag_3:\n      callvalue\n      dup1\n      iszero\n      tag_31\n      jumpi\n      0x00\n      dup1\n      revert\n    tag_31:\n      pop\n      tag_32\n      0x04\n      dup1\n      calldatasize\n      sub\n      dup2\n      add\n      swap1\n      tag_33\n      swap2\n      swap1\n      tag_34\n      jump\t// in\n    tag_33:\n      tag_35\n      jump\t// in\n    tag_32:\n      mload(0x40)\n      tag_36\n      swap2\n      swap1\n      tag_37\n      jump\t// in\n    tag_36:\n      mload(0x40)\n      dup1\n      swap2\n      sub\n      swap1\n      return\n        /* \"contracts/LicenseManager.sol\":2808:3292  function addVideo(... */\n    tag_4:\n      callvalue\n      dup1\n      iszero\n      tag_38\n      jumpi\n      0x00\n      dup1\n      revert\n    tag_38:\n      pop\n      tag_39\n      0x04\n      dup1\n      calldatasize\n      sub\n      dup2\n      add\n      swap1\n      tag_40\n      swap2\n      swap1\n      tag_41\n      jump\t// in\n    tag_40:\n      tag_42\n      jump\t// in\n    tag_39:\n      stop\n        /* \"contracts/LicenseManager.sol\":2681:2802  function getVideoOwner(string memory vid) public view returns (address payable) {... */\n    tag_5:\n      callvalue\n      dup1\n      iszero\n      tag_43\n      jumpi\n      0x00\n      dup1\n      revert\n    tag_43:\n      pop\n      tag_44\n      0x04\n      dup1\n      calldatasize\n      sub\n      dup2\n      add\n      swap1\n      tag_45\n      swap2\n      swap1\n      tag_46\n      jump\t// in\n    tag_45:\n      tag_47\n      jump\t// in\n    tag_44:\n      mload(0x40)\n      tag_48\n      swap2\n      swap1\n      tag_37\n      jump\t// in\n    tag_48:\n      mload(0x40)\n      dup1\n      swap2\n      sub\n      swap1\n      return\n        /* \"contracts/LicenseManager.sol\":5449:5635  function getLicenseVideo(LID licenseId)... */\n    tag_6:\n      callvalue\n      dup1\n      iszero\n      tag_49\n      jumpi\n      0x00\n      dup1\n      revert\n    tag_49:\n      pop\n      tag_50\n      0x04\n      dup1\n      calldatasize\n      sub\n      dup2\n      add\n      swap1\n      tag_51\n      swap2\n      swap1\n      tag_34\n      jump\t// in\n    tag_51:\n      tag_52\n      jump\t// in\n    tag_50:\n      mload(0x40)\n      tag_53\n      swap2\n      swap1\n      tag_30\n      jump\t// in\n    tag_53:\n      mload(0x40)\n      dup1\n      swap2\n      sub\n      swap1\n      return\n        /* \"contracts/LicenseManager.sol\":1542:1642  function addTemplate(address template) public onlyOwner {... */\n    tag_7:\n      callvalue\n      dup1\n      iszero\n      tag_54\n      jumpi\n      0x00\n      dup1\n      revert\n    tag_54:\n      pop\n      tag_55\n      0x04\n      dup1\n      calldatasize\n      sub\n      dup2\n      add\n      swap1\n      tag_56\n      swap2\n      swap1\n      tag_57\n      jump\t// in\n    tag_56:\n      tag_58\n      jump\t// in\n    tag_55:\n      stop\n        /* \"contracts/LicenseManager.sol\":1758:1915  string public constant licensorAgreement =... */\n    tag_8:\n      callvalue\n      dup1\n      iszero\n      tag_59\n      jumpi\n      0x00\n      dup1\n      revert\n    tag_59:\n      pop\n      tag_60\n      tag_61\n      jump\t// in\n    tag_60:\n      mload(0x40)\n      tag_62\n      swap2\n      swap1\n      tag_30\n      jump\t// in\n    tag_62:\n      mload(0x40)\n      dup1\n      swap2\n      sub\n      swap1\n      return\n        /* \"contracts/LicenseManager.sol\":7685:7863  function getPurchaseTime(LID licenseId, address licensee)... */\n    tag_9:\n      callvalue\n      dup1\n      iszero\n      tag_63\n      jumpi\n      0x00\n      dup1\n      revert\n    tag_63:\n      pop\n      tag_64\n      0x04\n      dup1\n      calldatasize\n      sub\n      dup2\n      add\n      swap1\n      tag_65\n      swap2\n      swap1\n      tag_66\n      jump\t// in\n    tag_65:\n      tag_67\n      jump\t// in\n    tag_64:\n      mload(0x40)\n      tag_68\n      swap2\n      swap1\n      tag_69\n      jump\t// in\n    tag_68:\n      mload(0x40)\n      dup1\n      swap2\n      sub\n      swap1\n      return\n        /* \"contracts/LicenseManager.sol\":3889:4268  function addLicense(... */\n    tag_10:\n      callvalue\n      dup1\n      iszero\n      tag_70\n      jumpi\n      0x00\n      dup1\n      revert\n    tag_70:\n      pop\n      tag_71\n      0x04\n      dup1\n      calldatasize\n      sub\n      dup2\n      add\n      swap1\n      tag_72\n      swap2\n      swap1\n      tag_73\n      jump\t// in\n    tag_72:\n      tag_74\n      jump\t// in\n    tag_71:\n      stop\n        /* \"contracts/LicenseManager.sol\":4975:5443  function getVideoLicenses(string memory vid)... */\n    tag_11:\n      callvalue\n      dup1\n      iszero\n      tag_75\n      jumpi\n      0x00\n      dup1\n      revert\n    tag_75:\n      pop\n      tag_76\n      0x04\n      dup1\n      calldatasize\n      sub\n      dup2\n      add\n      swap1\n      tag_77\n      swap2\n      swap1\n      tag_46\n      jump\t// in\n    tag_77:\n      tag_78\n      jump\t// in\n    tag_76:\n      mload(0x40)\n      tag_79\n      swap2\n      swap1\n      tag_80\n      jump\t// in\n    tag_79:\n      mload(0x40)\n      dup1\n      swap2\n      sub\n      swap1\n      return\n        /* \"contracts/LicenseManager.sol\":7869:8548  function composeLicense(LID licenseId, address licensee)... */\n    tag_12:\n      callvalue\n      dup1\n      iszero\n      tag_81\n      jumpi\n      0x00\n      dup1\n      revert\n    tag_81:\n      pop\n      tag_82\n      0x04\n      dup1\n      calldatasize\n      sub\n      dup2\n      add\n      swap1\n      tag_83\n      swap2\n      swap1\n      tag_66\n      jump\t// in\n    tag_83:\n      tag_84\n      jump\t// in\n    tag_82:\n      mload(0x40)\n      tag_85\n      swap2\n      swap1\n      tag_30\n      jump\t// in\n    tag_85:\n      mload(0x40)\n      dup1\n      swap2\n      sub\n      swap1\n      return\n        /* \"contracts/LicenseManager.sol\":4704:4945  function removeLicense(LID licenseId) public licenseActive(licenseId) {... */\n    tag_13:\n      callvalue\n      dup1\n      iszero\n      tag_86\n      jumpi\n      0x00\n      dup1\n      revert\n    tag_86:\n      pop\n      tag_87\n      0x04\n      dup1\n      calldatasize\n      sub\n      dup2\n      add\n      swap1\n      tag_88\n      swap2\n      swap1\n      tag_34\n      jump\t// in\n    tag_88:\n      tag_89\n      jump\t// in\n    tag_87:\n      stop\n        /* \"contracts/LicenseManager.sol\":6035:6221  function getLicenseTemplate(LID licenseId)... */\n    tag_14:\n      callvalue\n      dup1\n      iszero\n      tag_90\n      jumpi\n      0x00\n      dup1\n      revert\n    tag_90:\n      pop\n      tag_91\n      0x04\n      dup1\n      calldatasize\n      sub\n      dup2\n      add\n      swap1\n      tag_92\n      swap2\n      swap1\n      tag_34\n      jump\t// in\n    tag_92:\n      tag_93\n      jump\t// in\n    tag_91:\n      mload(0x40)\n      tag_94\n      swap2\n      swap1\n      tag_95\n      jump\t// in\n    tag_94:\n      mload(0x40)\n      dup1\n      swap2\n      sub\n      swap1\n      return\n        /* \"contracts/LicenseManager.sol\":9316:9901  function _recoverSigner(string memory message, bytes calldata sig)... */\n    tag_15:\n      callvalue\n      dup1\n      iszero\n      tag_96\n      jumpi\n      0x00\n      dup1\n      revert\n    tag_96:\n      pop\n      tag_97\n      0x04\n      dup1\n      calldatasize\n      sub\n      dup2\n      add\n      swap1\n      tag_98\n      swap2\n      swap1\n      tag_99\n      jump\t// in\n    tag_98:\n      tag_100\n      jump\t// in\n    tag_97:\n      mload(0x40)\n      tag_101\n      swap2\n      swap1\n      tag_95\n      jump\t// in\n    tag_101:\n      mload(0x40)\n      dup1\n      swap2\n      sub\n      swap1\n      return\n        /* \"contracts/LicenseManager.sol\":5849:6029  function getLicensePrice(LID licenseId)... */\n    tag_16:\n      callvalue\n      dup1\n      iszero\n      tag_102\n      jumpi\n      0x00\n      dup1\n      revert\n    tag_102:\n      pop\n      tag_103\n      0x04\n      dup1\n      calldatasize\n      sub\n      dup2\n      add\n      swap1\n      tag_104\n      swap2\n      swap1\n      tag_34\n      jump\t// in\n    tag_104:\n      tag_105\n      jump\t// in\n    tag_103:\n      mload(0x40)\n      tag_106\n      swap2\n      swap1\n      tag_69\n      jump\t// in\n    tag_106:\n      mload(0x40)\n      dup1\n      swap2\n      sub\n      swap1\n      return\n        /* \"contracts/LicenseManager.sol\":7162:7679  function getLicensesOfVideoAndLicensee(string memory vid, address licensee)... */\n    tag_17:\n      callvalue\n      dup1\n      iszero\n      tag_107\n      jumpi\n      0x00\n      dup1\n      revert\n    tag_107:\n      pop\n      tag_108\n      0x04\n      dup1\n      calldatasize\n      sub\n      dup2\n      add\n      swap1\n      tag_109\n      swap2\n      swap1\n      tag_110\n      jump\t// in\n    tag_109:\n      tag_111\n      jump\t// in\n    tag_108:\n      mload(0x40)\n      tag_112\n      swap2\n      swap1\n      tag_80\n      jump\t// in\n    tag_112:\n      mload(0x40)\n      dup1\n      swap2\n      sub\n      swap1\n      return\n        /* \"contracts/LicenseManager.sol\":1648:1752  function removeTemplate(address template) public onlyOwner {... */\n    tag_18:\n      callvalue\n      dup1\n      iszero\n      tag_113\n      jumpi\n      0x00\n      dup1\n      revert\n    tag_113:\n      pop\n      tag_114\n      0x04\n      dup1\n      calldatasize\n      sub\n      dup2\n      add\n      swap1\n      tag_115\n      swap2\n      swap1\n      tag_57\n      jump\t// in\n    tag_115:\n      tag_116\n      jump\t// in\n    tag_114:\n      stop\n        /* \"contracts/LicenseManager.sol\":6484:7156  function buyLicense(LID licenseId, bytes calldata signature)... */\n    tag_19:\n      tag_117\n      0x04\n      dup1\n      calldatasize\n      sub\n      dup2\n      add\n      swap1\n      tag_118\n      swap2\n      swap1\n      tag_119\n      jump\t// in\n    tag_118:\n      tag_120\n      jump\t// in\n    tag_117:\n      stop\n        /* \"contracts/LicenseManager.sol\":4274:4698  function addVideoWithLicense(... */\n    tag_20:\n      callvalue\n      dup1\n      iszero\n      tag_121\n      jumpi\n      0x00\n      dup1\n      revert\n    tag_121:\n      pop\n      tag_122\n      0x04\n      dup1\n      calldatasize\n      sub\n      dup2\n      add\n      swap1\n      tag_123\n      swap2\n      swap1\n      tag_124\n      jump\t// in\n    tag_123:\n      tag_125\n      jump\t// in\n    tag_122:\n      stop\n        /* \"contracts/LicenseManager.sol\":9907:10838  function verifySigner(... */\n    tag_21:\n      callvalue\n      dup1\n      iszero\n      tag_126\n      jumpi\n      0x00\n      dup1\n      revert\n    tag_126:\n      pop\n      tag_127\n      0x04\n      dup1\n      calldatasize\n      sub\n      dup2\n      add\n      swap1\n      tag_128\n      swap2\n      swap1\n      tag_129\n      jump\t// in\n    tag_128:\n      tag_130\n      jump\t// in\n    tag_127:\n      mload(0x40)\n      tag_131\n      swap2\n      swap1\n      tag_132\n      jump\t// in\n    tag_131:\n      mload(0x40)\n      dup1\n      swap2\n      sub\n      swap1\n      return\n        /* \"contracts/LicenseManager.sol\":1236:1326  function transferOwnership(address owner) public onlyOwner {... */\n    tag_22:\n      callvalue\n      dup1\n      iszero\n      tag_133\n      jumpi\n      0x00\n      dup1\n      revert\n    tag_133:\n      pop\n      tag_134\n      0x04\n      dup1\n      calldatasize\n      sub\n      dup2\n      add\n      swap1\n      tag_135\n      swap2\n      swap1\n      tag_57\n      jump\t// in\n    tag_135:\n      tag_136\n      jump\t// in\n    tag_134:\n      stop\n        /* \"contracts/LicenseManager.sol\":6244:6401  string public constant licenseeAgreement =... */\n    tag_28:\n      mload(0x40)\n      dup1\n      0xa0\n      add\n      0x40\n      mstore\n      dup1\n      0x68\n      dup2\n      mstore\n      0x20\n      add\n      data_947495800a19c75b349554c37b44e0820cfe4e72bb09a80ed436e10673d6e5c6\n      0x68\n      swap2\n      codecopy\n      dup2\n      jump\t// out\n        /* \"contracts/LicenseManager.sol\":5641:5843  function getLicenseOwner(LID licenseId)... */\n    tag_35:\n        /* \"contracts/LicenseManager.sol\":5759:5774  address payable */\n      0x00\n        /* \"contracts/LicenseManager.sol\":5731:5740  licenseId */\n      dup2\n        /* \"contracts/LicenseManager.sol\":2602:2619  _licenseActivated */\n      0x06\n        /* \"contracts/LicenseManager.sol\":2602:2630  _licenseActivated[licenseId] */\n      0x00\n        /* \"contracts/LicenseManager.sol\":2620:2629  licenseId */\n      dup3\n        /* \"contracts/LicenseManager.sol\":2602:2630  _licenseActivated[licenseId] */\n      dup2\n      mstore\n      0x20\n      add\n      swap1\n      dup2\n      mstore\n      0x20\n      add\n      0x00\n      keccak256\n      0x00\n      swap1\n      sload\n      swap1\n      0x0100\n      exp\n      swap1\n      div\n      0xff\n      and\n        /* \"contracts/LicenseManager.sol\":2594:2656  require(_licenseActivated[licenseId], \"license doesn't exist\") */\n      tag_138\n      jumpi\n      mload(0x40)\n      0x08c379a000000000000000000000000000000000000000000000000000000000\n      dup2\n      mstore\n      0x04\n      add\n      tag_139\n      swap1\n      tag_140\n      jump\t// in\n    tag_139:\n      mload(0x40)\n      dup1\n      swap2\n      sub\n      swap1\n      revert\n    tag_138:\n        /* \"contracts/LicenseManager.sol\":5797:5809  _videoOwners */\n      0x02\n        /* \"contracts/LicenseManager.sol\":5810:5824  _licenseVideos */\n      0x07\n        /* \"contracts/LicenseManager.sol\":5810:5835  _licenseVideos[licenseId] */\n      0x00\n        /* \"contracts/LicenseManager.sol\":5825:5834  licenseId */\n      dup6\n        /* \"contracts/LicenseManager.sol\":5810:5835  _licenseVideos[licenseId] */\n      dup2\n      mstore\n      0x20\n      add\n      swap1\n      dup2\n      mstore\n      0x20\n      add\n      0x00\n      keccak256\n        /* \"contracts/LicenseManager.sol\":5797:5836  _videoOwners[_licenseVideos[licenseId]] */\n      mload(0x40)\n      tag_142\n      swap2\n      swap1\n      tag_143\n      jump\t// in\n    tag_142:\n      swap1\n      dup2\n      mstore\n      0x20\n      add\n      mload(0x40)\n      dup1\n      swap2\n      sub\n      swap1\n      keccak256\n      0x00\n      swap1\n      sload\n      swap1\n      0x0100\n      exp\n      swap1\n      div\n      0xffffffffffffffffffffffffffffffffffffffff\n      and\n        /* \"contracts/LicenseManager.sol\":5790:5836  return _videoOwners[_licenseVideos[licenseId]] */\n      swap2\n      pop\n        /* \"contracts/LicenseManager.sol\":5641:5843  function getLicenseOwner(LID licenseId)... */\n      pop\n      swap2\n      swap1\n      pop\n      jump\t// out\n        /* \"contracts/LicenseManager.sol\":2808:3292  function addVideo(... */\n    tag_42:\n        /* \"contracts/LicenseManager.sol\":1179:1189  msg.sender */\n      caller\n        /* \"contracts/LicenseManager.sol\":1169:1189  _owner == msg.sender */\n      0xffffffffffffffffffffffffffffffffffffffff\n      and\n        /* \"contracts/LicenseManager.sol\":1169:1175  _owner */\n      0x00\n      dup1\n      sload\n      swap1\n      0x0100\n      exp\n      swap1\n      div\n      0xffffffffffffffffffffffffffffffffffffffff\n      and\n        /* \"contracts/LicenseManager.sol\":1169:1189  _owner == msg.sender */\n      0xffffffffffffffffffffffffffffffffffffffff\n      and\n      eq\n        /* \"contracts/LicenseManager.sol\":1161:1211  require(_owner == msg.sender, \"owner access only\") */\n      tag_145\n      jumpi\n      mload(0x40)\n      0x08c379a000000000000000000000000000000000000000000000000000000000\n      dup2\n      mstore\n      0x04\n      add\n      tag_146\n      swap1\n      tag_147\n      jump\t// in\n    tag_146:\n      mload(0x40)\n      dup1\n      swap2\n      sub\n      swap1\n      revert\n    tag_145:\n        /* \"contracts/LicenseManager.sol\":2954:2975  bytes memory vidBytes */\n      0x00\n        /* \"contracts/LicenseManager.sol\":2984:2987  vid */\n      dup5\n        /* \"contracts/LicenseManager.sol\":2954:2988  bytes memory vidBytes = bytes(vid) */\n      swap1\n      pop\n        /* \"contracts/LicenseManager.sol\":3039:3040  0 */\n      0x00\n        /* \"contracts/LicenseManager.sol\":3021:3029  vidBytes */\n      dup2\n        /* \"contracts/LicenseManager.sol\":3021:3036  vidBytes.length */\n      mload\n        /* \"contracts/LicenseManager.sol\":3021:3040  vidBytes.length > 0 */\n      gt\n        /* \"contracts/LicenseManager.sol\":3013:3061  require(vidBytes.length > 0, \"invalid video id\") */\n      tag_149\n      jumpi\n      mload(0x40)\n      0x08c379a000000000000000000000000000000000000000000000000000000000\n      dup2\n      mstore\n      0x04\n      add\n      tag_150\n      swap1\n      tag_151\n      jump\t// in\n    tag_150:\n      mload(0x40)\n      dup1\n      swap2\n      sub\n      swap1\n      revert\n    tag_149:\n        /* \"contracts/LicenseManager.sol\":3092:3133  _verifyLicensor(licensor, vid, signature) */\n      tag_152\n        /* \"contracts/LicenseManager.sol\":3108:3116  licensor */\n      dup5\n        /* \"contracts/LicenseManager.sol\":3118:3121  vid */\n      dup7\n        /* \"contracts/LicenseManager.sol\":3123:3132  signature */\n      dup6\n      dup6\n        /* \"contracts/LicenseManager.sol\":3092:3107  _verifyLicensor */\n      tag_153\n        /* \"contracts/LicenseManager.sol\":3092:3133  _verifyLicensor(licensor, vid, signature) */\n      jump\t// in\n    tag_152:\n        /* \"contracts/LicenseManager.sol\":3071:3185  require(... */\n      tag_154\n      jumpi\n      mload(0x40)\n      0x08c379a000000000000000000000000000000000000000000000000000000000\n      dup2\n      mstore\n      0x04\n      add\n      tag_155\n      swap1\n      tag_156\n      jump\t// in\n    tag_155:\n      mload(0x40)\n      dup1\n      swap2\n      sub\n      swap1\n      revert\n    tag_154:\n        /* \"contracts/LicenseManager.sol\":3229:3230  0 */\n      0x00\n        /* \"contracts/LicenseManager.sol\":3200:3231  _videoOwners[vid] == address(0) */\n      0xffffffffffffffffffffffffffffffffffffffff\n      and\n        /* \"contracts/LicenseManager.sol\":3200:3212  _videoOwners */\n      0x02\n        /* \"contracts/LicenseManager.sol\":3213:3216  vid */\n      dup7\n        /* \"contracts/LicenseManager.sol\":3200:3217  _videoOwners[vid] */\n      mload(0x40)\n      tag_157\n      swap2\n      swap1\n      tag_158\n      jump\t// in\n    tag_157:\n      swap1\n      dup2\n      mstore\n      0x20\n      add\n      mload(0x40)\n      dup1\n      swap2\n      sub\n      swap1\n      keccak256\n      0x00\n      swap1\n      sload\n      swap1\n      0x0100\n      exp\n      swap1\n      div\n      0xffffffffffffffffffffffffffffffffffffffff\n      and\n        /* \"contracts/LicenseManager.sol\":3200:3231  _videoOwners[vid] == address(0) */\n      0xffffffffffffffffffffffffffffffffffffffff\n      and\n      sub\n        /* \"contracts/LicenseManager.sol\":3196:3286  if (_videoOwners[vid] == address(0)) {... */\n      tag_159\n      jumpi\n        /* \"contracts/LicenseManager.sol\":3267:3275  licensor */\n      dup4\n        /* \"contracts/LicenseManager.sol\":3247:3259  _videoOwners */\n      0x02\n        /* \"contracts/LicenseManager.sol\":3260:3263  vid */\n      dup7\n        /* \"contracts/LicenseManager.sol\":3247:3264  _videoOwners[vid] */\n      mload(0x40)\n      tag_160\n      swap2\n      swap1\n      tag_158\n      jump\t// in\n    tag_160:\n      swap1\n      dup2\n      mstore\n      0x20\n      add\n      mload(0x40)\n      dup1\n      swap2\n      sub\n      swap1\n      keccak256\n      0x00\n        /* \"contracts/LicenseManager.sol\":3247:3275  _videoOwners[vid] = licensor */\n      0x0100\n      exp\n      dup2\n      sload\n      dup2\n      0xffffffffffffffffffffffffffffffffffffffff\n      mul\n      not\n      and\n      swap1\n      dup4\n      0xffffffffffffffffffffffffffffffffffffffff\n      and\n      mul\n      or\n      swap1\n      sstore\n      pop\n        /* \"contracts/LicenseManager.sol\":3196:3286  if (_videoOwners[vid] == address(0)) {... */\n    tag_159:\n        /* \"contracts/LicenseManager.sol\":2944:3292  {... */\n      pop\n        /* \"contracts/LicenseManager.sol\":2808:3292  function addVideo(... */\n      pop\n      pop\n      pop\n      pop\n      jump\t// out\n        /* \"contracts/LicenseManager.sol\":2681:2802  function getVideoOwner(string memory vid) public view returns (address payable) {... */\n    tag_47:\n        /* \"contracts/LicenseManager.sol\":2744:2759  address payable */\n      0x00\n        /* \"contracts/LicenseManager.sol\":2778:2790  _videoOwners */\n      0x02\n        /* \"contracts/LicenseManager.sol\":2791:2794  vid */\n      dup3\n        /* \"contracts/LicenseManager.sol\":2778:2795  _videoOwners[vid] */\n      mload(0x40)\n      tag_162\n      swap2\n      swap1\n      tag_158\n      jump\t// in\n    tag_162:\n      swap1\n      dup2\n      mstore\n      0x20\n      add\n      mload(0x40)\n      dup1\n      swap2\n      sub\n      swap1\n      keccak256\n      0x00\n      swap1\n      sload\n      swap1\n      0x0100\n      exp\n      swap1\n      div\n      0xffffffffffffffffffffffffffffffffffffffff\n      and\n        /* \"contracts/LicenseManager.sol\":2771:2795  return _videoOwners[vid] */\n      swap1\n      pop\n        /* \"contracts/LicenseManager.sol\":2681:2802  function getVideoOwner(string memory vid) public view returns (address payable) {... */\n      swap2\n      swap1\n      pop\n      jump\t// out\n        /* \"contracts/LicenseManager.sol\":5449:5635  function getLicenseVideo(LID licenseId)... */\n    tag_52:\n        /* \"contracts/LicenseManager.sol\":5567:5580  string memory */\n      0x60\n        /* \"contracts/LicenseManager.sol\":5539:5548  licenseId */\n      dup2\n        /* \"contracts/LicenseManager.sol\":2602:2619  _licenseActivated */\n      0x06\n        /* \"contracts/LicenseManager.sol\":2602:2630  _licenseActivated[licenseId] */\n      0x00\n        /* \"contracts/LicenseManager.sol\":2620:2629  licenseId */\n      dup3\n        /* \"contracts/LicenseManager.sol\":2602:2630  _licenseActivated[licenseId] */\n      dup2\n      mstore\n      0x20\n      add\n      swap1\n      dup2\n      mstore\n      0x20\n      add\n      0x00\n      keccak256\n      0x00\n      swap1\n      sload\n      swap1\n      0x0100\n      exp\n      swap1\n      div\n      0xff\n      and\n        /* \"contracts/LicenseManager.sol\":2594:2656  require(_licenseActivated[licenseId], \"license doesn't exist\") */\n      tag_164\n      jumpi\n      mload(0x40)\n      0x08c379a000000000000000000000000000000000000000000000000000000000\n      dup2\n      mstore\n      0x04\n      add\n      tag_165\n      swap1\n      tag_140\n      jump\t// in\n    tag_165:\n      mload(0x40)\n      dup1\n      swap2\n      sub\n      swap1\n      revert\n    tag_164:\n        /* \"contracts/LicenseManager.sol\":5603:5617  _licenseVideos */\n      0x07\n        /* \"contracts/LicenseManager.sol\":5603:5628  _licenseVideos[licenseId] */\n      0x00\n        /* \"contracts/LicenseManager.sol\":5618:5627  licenseId */\n      dup5\n        /* \"contracts/LicenseManager.sol\":5603:5628  _licenseVideos[licenseId] */\n      dup2\n      mstore\n      0x20\n      add\n      swap1\n      dup2\n      mstore\n      0x20\n      add\n      0x00\n      keccak256\n        /* \"contracts/LicenseManager.sol\":5596:5628  return _licenseVideos[licenseId] */\n      dup1\n      sload\n      tag_167\n      swap1\n      tag_168\n      jump\t// in\n    tag_167:\n      dup1\n      0x1f\n      add\n      0x20\n      dup1\n      swap2\n      div\n      mul\n      0x20\n      add\n      mload(0x40)\n      swap1\n      dup2\n      add\n      0x40\n      mstore\n      dup1\n      swap3\n      swap2\n      swap1\n      dup2\n      dup2\n      mstore\n      0x20\n      add\n      dup3\n      dup1\n      sload\n      tag_169\n      swap1\n      tag_168\n      jump\t// in\n    tag_169:\n      dup1\n      iszero\n      tag_170\n      jumpi\n      dup1\n      0x1f\n      lt\n      tag_171\n      jumpi\n      0x0100\n      dup1\n      dup4\n      sload\n      div\n      mul\n      dup4\n      mstore\n      swap2\n      0x20\n      add\n      swap2\n      jump(tag_170)\n    tag_171:\n      dup3\n      add\n      swap2\n      swap1\n      0x00\n      mstore\n      keccak256(0x00, 0x20)\n      swap1\n    tag_172:\n      dup2\n      sload\n      dup2\n      mstore\n      swap1\n      0x01\n      add\n      swap1\n      0x20\n      add\n      dup1\n      dup4\n      gt\n      tag_172\n      jumpi\n      dup3\n      swap1\n      sub\n      0x1f\n      and\n      dup3\n      add\n      swap2\n    tag_170:\n      pop\n      pop\n      pop\n      pop\n      pop\n      swap2\n      pop\n        /* \"contracts/LicenseManager.sol\":5449:5635  function getLicenseVideo(LID licenseId)... */\n      pop\n      swap2\n      swap1\n      pop\n      jump\t// out\n        /* \"contracts/LicenseManager.sol\":1542:1642  function addTemplate(address template) public onlyOwner {... */\n    tag_58:\n        /* \"contracts/LicenseManager.sol\":1179:1189  msg.sender */\n      caller\n        /* \"contracts/LicenseManager.sol\":1169:1189  _owner == msg.sender */\n      0xffffffffffffffffffffffffffffffffffffffff\n      and\n        /* \"contracts/LicenseManager.sol\":1169:1175  _owner */\n      0x00\n      dup1\n      sload\n      swap1\n      0x0100\n      exp\n      swap1\n      div\n      0xffffffffffffffffffffffffffffffffffffffff\n      and\n        /* \"contracts/LicenseManager.sol\":1169:1189  _owner == msg.sender */\n      0xffffffffffffffffffffffffffffffffffffffff\n      and\n      eq\n        /* \"contracts/LicenseManager.sol\":1161:1211  require(_owner == msg.sender, \"owner access only\") */\n      tag_174\n      jumpi\n      mload(0x40)\n      0x08c379a000000000000000000000000000000000000000000000000000000000\n      dup2\n      mstore\n      0x04\n      add\n      tag_175\n      swap1\n      tag_147\n      jump\t// in\n    tag_175:\n      mload(0x40)\n      dup1\n      swap2\n      sub\n      swap1\n      revert\n    tag_174:\n        /* \"contracts/LicenseManager.sol\":1631:1635  true */\n      0x01\n        /* \"contracts/LicenseManager.sol\":1608:1618  _templates */\n      dup1\n        /* \"contracts/LicenseManager.sol\":1608:1628  _templates[template] */\n      0x00\n        /* \"contracts/LicenseManager.sol\":1619:1627  template */\n      dup4\n        /* \"contracts/LicenseManager.sol\":1608:1628  _templates[template] */\n      0xffffffffffffffffffffffffffffffffffffffff\n      and\n      0xffffffffffffffffffffffffffffffffffffffff\n      and\n      dup2\n      mstore\n      0x20\n      add\n      swap1\n      dup2\n      mstore\n      0x20\n      add\n      0x00\n      keccak256\n      0x00\n        /* \"contracts/LicenseManager.sol\":1608:1635  _templates[template] = true */\n      0x0100\n      exp\n      dup2\n      sload\n      dup2\n      0xff\n      mul\n      not\n      and\n      swap1\n      dup4\n      iszero\n      iszero\n      mul\n      or\n      swap1\n      sstore\n      pop\n        /* \"contracts/LicenseManager.sol\":1542:1642  function addTemplate(address template) public onlyOwner {... */\n      pop\n      jump\t// out\n        /* \"contracts/LicenseManager.sol\":1758:1915  string public constant licensorAgreement =... */\n    tag_61:\n      mload(0x40)\n      dup1\n      0xa0\n      add\n      0x40\n      mstore\n      dup1\n      0x68\n      dup2\n      mstore\n      0x20\n      add\n      data_0cd1ae3e4dc389c213191dc2019beca568e06b7e2e62f57ac23af9c3de086300\n      0x68\n      swap2\n      codecopy\n      dup2\n      jump\t// out\n        /* \"contracts/LicenseManager.sol\":7685:7863  function getPurchaseTime(LID licenseId, address licensee)... */\n    tag_67:\n        /* \"contracts/LicenseManager.sol\":7788:7795  uint256 */\n      0x00\n        /* \"contracts/LicenseManager.sol\":7818:7835  _licenseLicensees */\n      0x0a\n        /* \"contracts/LicenseManager.sol\":7818:7846  _licenseLicensees[licenseId] */\n      0x00\n        /* \"contracts/LicenseManager.sol\":7836:7845  licenseId */\n      dup5\n        /* \"contracts/LicenseManager.sol\":7818:7846  _licenseLicensees[licenseId] */\n      dup2\n      mstore\n      0x20\n      add\n      swap1\n      dup2\n      mstore\n      0x20\n      add\n      0x00\n      keccak256\n        /* \"contracts/LicenseManager.sol\":7818:7856  _licenseLicensees[licenseId][licensee] */\n      0x00\n        /* \"contracts/LicenseManager.sol\":7847:7855  licensee */\n      dup4\n        /* \"contracts/LicenseManager.sol\":7818:7856  _licenseLicensees[licenseId][licensee] */\n      0xffffffffffffffffffffffffffffffffffffffff\n      and\n      0xffffffffffffffffffffffffffffffffffffffff\n      and\n      dup2\n      mstore\n      0x20\n      add\n      swap1\n      dup2\n      mstore\n      0x20\n      add\n      0x00\n      keccak256\n      sload\n        /* \"contracts/LicenseManager.sol\":7811:7856  return _licenseLicensees[licenseId][licensee] */\n      swap1\n      pop\n        /* \"contracts/LicenseManager.sol\":7685:7863  function getPurchaseTime(LID licenseId, address licensee)... */\n      swap3\n      swap2\n      pop\n      pop\n      jump\t// out\n        /* \"contracts/LicenseManager.sol\":3889:4268  function addLicense(... */\n    tag_74:\n        /* \"contracts/LicenseManager.sol\":4032:4035  vid */\n      dup4\n        /* \"contracts/LicenseManager.sol\":2495:2496  0 */\n      0x00\n        /* \"contracts/LicenseManager.sol\":2466:2497  _videoOwners[vid] != address(0) */\n      0xffffffffffffffffffffffffffffffffffffffff\n      and\n        /* \"contracts/LicenseManager.sol\":2466:2478  _videoOwners */\n      0x02\n        /* \"contracts/LicenseManager.sol\":2479:2482  vid */\n      dup3\n        /* \"contracts/LicenseManager.sol\":2466:2483  _videoOwners[vid] */\n      mload(0x40)\n      tag_179\n      swap2\n      swap1\n      tag_158\n      jump\t// in\n    tag_179:\n      swap1\n      dup2\n      mstore\n      0x20\n      add\n      mload(0x40)\n      dup1\n      swap2\n      sub\n      swap1\n      keccak256\n      0x00\n      swap1\n      sload\n      swap1\n      0x0100\n      exp\n      swap1\n      div\n      0xffffffffffffffffffffffffffffffffffffffff\n      and\n        /* \"contracts/LicenseManager.sol\":2466:2497  _videoOwners[vid] != address(0) */\n      0xffffffffffffffffffffffffffffffffffffffff\n      and\n      sub\n        /* \"contracts/LicenseManager.sol\":2458:2521  require(_videoOwners[vid] != address(0), \"video doesn't exist\") */\n      tag_180\n      jumpi\n      mload(0x40)\n      0x08c379a000000000000000000000000000000000000000000000000000000000\n      dup2\n      mstore\n      0x04\n      add\n      tag_181\n      swap1\n      tag_182\n      jump\t// in\n    tag_181:\n      mload(0x40)\n      dup1\n      swap2\n      sub\n      swap1\n      revert\n    tag_180:\n        /* \"contracts/LicenseManager.sol\":4052:4060  template */\n      dup4\n        /* \"contracts/LicenseManager.sol\":1471:1481  _templates */\n      0x01\n        /* \"contracts/LicenseManager.sol\":1471:1491  _templates[template] */\n      0x00\n        /* \"contracts/LicenseManager.sol\":1482:1490  template */\n      dup3\n        /* \"contracts/LicenseManager.sol\":1471:1491  _templates[template] */\n      0xffffffffffffffffffffffffffffffffffffffff\n      and\n      0xffffffffffffffffffffffffffffffffffffffff\n      and\n      dup2\n      mstore\n      0x20\n      add\n      swap1\n      dup2\n      mstore\n      0x20\n      add\n      0x00\n      keccak256\n      0x00\n      swap1\n      sload\n      swap1\n      0x0100\n      exp\n      swap1\n      div\n      0xff\n      and\n        /* \"contracts/LicenseManager.sol\":1463:1517  require(_templates[template], \"license doesn't exist\") */\n      tag_184\n      jumpi\n      mload(0x40)\n      0x08c379a000000000000000000000000000000000000000000000000000000000\n      dup2\n      mstore\n      0x04\n      add\n      tag_185\n      swap1\n      tag_140\n      jump\t// in\n    tag_185:\n      mload(0x40)\n      dup1\n      swap2\n      sub\n      swap1\n      revert\n    tag_184:\n        /* \"contracts/LicenseManager.sol\":4101:4111  msg.sender */\n      caller\n        /* \"contracts/LicenseManager.sol\":4080:4111  _videoOwners[vid] == msg.sender */\n      0xffffffffffffffffffffffffffffffffffffffff\n      and\n        /* \"contracts/LicenseManager.sol\":4080:4092  _videoOwners */\n      0x02\n        /* \"contracts/LicenseManager.sol\":4093:4096  vid */\n      dup8\n        /* \"contracts/LicenseManager.sol\":4080:4097  _videoOwners[vid] */\n      mload(0x40)\n      tag_187\n      swap2\n      swap1\n      tag_158\n      jump\t// in\n    tag_187:\n      swap1\n      dup2\n      mstore\n      0x20\n      add\n      mload(0x40)\n      dup1\n      swap2\n      sub\n      swap1\n      keccak256\n      0x00\n      swap1\n      sload\n      swap1\n      0x0100\n      exp\n      swap1\n      div\n      0xffffffffffffffffffffffffffffffffffffffff\n      and\n        /* \"contracts/LicenseManager.sol\":4080:4111  _videoOwners[vid] == msg.sender */\n      0xffffffffffffffffffffffffffffffffffffffff\n      and\n      eq\n        /* \"contracts/LicenseManager.sol\":4072:4132  require(_videoOwners[vid] == msg.sender, \"invalid licensor\") */\n      tag_188\n      jumpi\n      mload(0x40)\n      0x08c379a000000000000000000000000000000000000000000000000000000000\n      dup2\n      mstore\n      0x04\n      add\n      tag_189\n      swap1\n      tag_190\n      jump\t// in\n    tag_189:\n      mload(0x40)\n      dup1\n      swap2\n      sub\n      swap1\n      revert\n    tag_188:\n        /* \"contracts/LicenseManager.sol\":4151:4166  _licenseCreated */\n      0x05\n        /* \"contracts/LicenseManager.sol\":4151:4177  _licenseCreated[licenseId] */\n      0x00\n        /* \"contracts/LicenseManager.sol\":4167:4176  licenseId */\n      dup5\n        /* \"contracts/LicenseManager.sol\":4151:4177  _licenseCreated[licenseId] */\n      dup2\n      mstore\n      0x20\n      add\n      swap1\n      dup2\n      mstore\n      0x20\n      add\n      0x00\n      keccak256\n      0x00\n      swap1\n      sload\n      swap1\n      0x0100\n      exp\n      swap1\n      div\n      0xff\n      and\n        /* \"contracts/LicenseManager.sol\":4150:4177  !_licenseCreated[licenseId] */\n      iszero\n        /* \"contracts/LicenseManager.sol\":4142:4204  require(!_licenseCreated[licenseId], \"unavailable license id\") */\n      tag_191\n      jumpi\n      mload(0x40)\n      0x08c379a000000000000000000000000000000000000000000000000000000000\n      dup2\n      mstore\n      0x04\n      add\n      tag_192\n      swap1\n      tag_193\n      jump\t// in\n    tag_192:\n      mload(0x40)\n      dup1\n      swap2\n      sub\n      swap1\n      revert\n    tag_191:\n        /* \"contracts/LicenseManager.sol\":4215:4261  createLicense(vid, template, price, licenseId) */\n      tag_194\n        /* \"contracts/LicenseManager.sol\":4229:4232  vid */\n      dup7\n        /* \"contracts/LicenseManager.sol\":4234:4242  template */\n      dup7\n        /* \"contracts/LicenseManager.sol\":4244:4249  price */\n      dup7\n        /* \"contracts/LicenseManager.sol\":4251:4260  licenseId */\n      dup7\n        /* \"contracts/LicenseManager.sol\":4215:4228  createLicense */\n      tag_195\n        /* \"contracts/LicenseManager.sol\":4215:4261  createLicense(vid, template, price, licenseId) */\n      jump\t// in\n    tag_194:\n        /* \"contracts/LicenseManager.sol\":2532:2533  _ */\n      pop\n        /* \"contracts/LicenseManager.sol\":3889:4268  function addLicense(... */\n      pop\n      pop\n      pop\n      pop\n      pop\n      jump\t// out\n        /* \"contracts/LicenseManager.sol\":4975:5443  function getVideoLicenses(string memory vid)... */\n    tag_78:\n        /* \"contracts/LicenseManager.sol\":5089:5101  LID[] memory */\n      0x60\n        /* \"contracts/LicenseManager.sol\":5067:5070  vid */\n      dup2\n        /* \"contracts/LicenseManager.sol\":2495:2496  0 */\n      0x00\n        /* \"contracts/LicenseManager.sol\":2466:2497  _videoOwners[vid] != address(0) */\n      0xffffffffffffffffffffffffffffffffffffffff\n      and\n        /* \"contracts/LicenseManager.sol\":2466:2478  _videoOwners */\n      0x02\n        /* \"contracts/LicenseManager.sol\":2479:2482  vid */\n      dup3\n        /* \"contracts/LicenseManager.sol\":2466:2483  _videoOwners[vid] */\n      mload(0x40)\n      tag_197\n      swap2\n      swap1\n      tag_158\n      jump\t// in\n    tag_197:\n      swap1\n      dup2\n      mstore\n      0x20\n      add\n      mload(0x40)\n      dup1\n      swap2\n      sub\n      swap1\n      keccak256\n      0x00\n      swap1\n      sload\n      swap1\n      0x0100\n      exp\n      swap1\n      div\n      0xffffffffffffffffffffffffffffffffffffffff\n      and\n        /* \"contracts/LicenseManager.sol\":2466:2497  _videoOwners[vid] != address(0) */\n      0xffffffffffffffffffffffffffffffffffffffff\n      and\n      sub\n        /* \"contracts/LicenseManager.sol\":2458:2521  require(_videoOwners[vid] != address(0), \"video doesn't exist\") */\n      tag_198\n      jumpi\n      mload(0x40)\n      0x08c379a000000000000000000000000000000000000000000000000000000000\n      dup2\n      mstore\n      0x04\n      add\n      tag_199\n      swap1\n      tag_182\n      jump\t// in\n    tag_199:\n      mload(0x40)\n      dup1\n      swap2\n      sub\n      swap1\n      revert\n    tag_198:\n        /* \"contracts/LicenseManager.sol\":5117:5138  LID[] memory licenses */\n      0x00\n        /* \"contracts/LicenseManager.sol\":5151:5170  _videoLicenseCounts */\n      0x03\n        /* \"contracts/LicenseManager.sol\":5171:5174  vid */\n      dup5\n        /* \"contracts/LicenseManager.sol\":5151:5175  _videoLicenseCounts[vid] */\n      mload(0x40)\n      tag_201\n      swap2\n      swap1\n      tag_158\n      jump\t// in\n    tag_201:\n      swap1\n      dup2\n      mstore\n      0x20\n      add\n      mload(0x40)\n      dup1\n      swap2\n      sub\n      swap1\n      keccak256\n      sload\n        /* \"contracts/LicenseManager.sol\":5141:5176  new LID[](_videoLicenseCounts[vid]) */\n      0xffffffffffffffff\n      dup2\n      gt\n      iszero\n      tag_202\n      jumpi\n      tag_203\n      tag_204\n      jump\t// in\n    tag_203:\n    tag_202:\n      mload(0x40)\n      swap1\n      dup1\n      dup3\n      mstore\n      dup1\n      0x20\n      mul\n      0x20\n      add\n      dup3\n      add\n      0x40\n      mstore\n      dup1\n      iszero\n      tag_205\n      jumpi\n      dup2\n      0x20\n      add\n      0x20\n      dup3\n      mul\n      dup1\n      calldatasize\n      dup4\n      calldatacopy\n      dup1\n      dup3\n      add\n      swap2\n      pop\n      pop\n      swap1\n      pop\n    tag_205:\n      pop\n        /* \"contracts/LicenseManager.sol\":5117:5176  LID[] memory licenses = new LID[](_videoLicenseCounts[vid]) */\n      swap1\n      pop\n        /* \"contracts/LicenseManager.sol\":5192:5201  uint256 i */\n      0x00\n        /* \"contracts/LicenseManager.sol\":5187:5411  for (uint256 i = 0; i < _videoLicenseCounts[vid]; i++) {... */\n    tag_206:\n        /* \"contracts/LicenseManager.sol\":5211:5230  _videoLicenseCounts */\n      0x03\n        /* \"contracts/LicenseManager.sol\":5231:5234  vid */\n      dup6\n        /* \"contracts/LicenseManager.sol\":5211:5235  _videoLicenseCounts[vid] */\n      mload(0x40)\n      tag_209\n      swap2\n      swap1\n      tag_158\n      jump\t// in\n    tag_209:\n      swap1\n      dup2\n      mstore\n      0x20\n      add\n      mload(0x40)\n      dup1\n      swap2\n      sub\n      swap1\n      keccak256\n      sload\n        /* \"contracts/LicenseManager.sol\":5207:5208  i */\n      dup2\n        /* \"contracts/LicenseManager.sol\":5207:5235  i < _videoLicenseCounts[vid] */\n      lt\n        /* \"contracts/LicenseManager.sol\":5187:5411  for (uint256 i = 0; i < _videoLicenseCounts[vid]; i++) {... */\n      iszero\n      tag_207\n      jumpi\n        /* \"contracts/LicenseManager.sol\":5256:5269  LID licenseId */\n      0x00\n        /* \"contracts/LicenseManager.sol\":5272:5288  _videoLicenseIDs */\n      0x04\n        /* \"contracts/LicenseManager.sol\":5289:5292  vid */\n      dup7\n        /* \"contracts/LicenseManager.sol\":5272:5293  _videoLicenseIDs[vid] */\n      mload(0x40)\n      tag_210\n      swap2\n      swap1\n      tag_158\n      jump\t// in\n    tag_210:\n      swap1\n      dup2\n      mstore\n      0x20\n      add\n      mload(0x40)\n      dup1\n      swap2\n      sub\n      swap1\n      keccak256\n        /* \"contracts/LicenseManager.sol\":5272:5296  _videoLicenseIDs[vid][i] */\n      0x00\n        /* \"contracts/LicenseManager.sol\":5294:5295  i */\n      dup4\n        /* \"contracts/LicenseManager.sol\":5272:5296  _videoLicenseIDs[vid][i] */\n      dup2\n      mstore\n      0x20\n      add\n      swap1\n      dup2\n      mstore\n      0x20\n      add\n      0x00\n      keccak256\n      sload\n        /* \"contracts/LicenseManager.sol\":5256:5296  LID licenseId = _videoLicenseIDs[vid][i] */\n      swap1\n      pop\n        /* \"contracts/LicenseManager.sol\":5315:5332  _licenseActivated */\n      0x06\n        /* \"contracts/LicenseManager.sol\":5315:5343  _licenseActivated[licenseId] */\n      0x00\n        /* \"contracts/LicenseManager.sol\":5333:5342  licenseId */\n      dup3\n        /* \"contracts/LicenseManager.sol\":5315:5343  _licenseActivated[licenseId] */\n      dup2\n      mstore\n      0x20\n      add\n      swap1\n      dup2\n      mstore\n      0x20\n      add\n      0x00\n      keccak256\n      0x00\n      swap1\n      sload\n      swap1\n      0x0100\n      exp\n      swap1\n      div\n      0xff\n      and\n        /* \"contracts/LicenseManager.sol\":5311:5401  if (_licenseActivated[licenseId]) {... */\n      iszero\n      tag_211\n      jumpi\n        /* \"contracts/LicenseManager.sol\":5377:5386  licenseId */\n      dup1\n        /* \"contracts/LicenseManager.sol\":5363:5371  licenses */\n      dup4\n        /* \"contracts/LicenseManager.sol\":5372:5373  i */\n      dup4\n        /* \"contracts/LicenseManager.sol\":5363:5374  licenses[i] */\n      dup2\n      mload\n      dup2\n      lt\n      tag_212\n      jumpi\n      tag_213\n      tag_214\n      jump\t// in\n    tag_213:\n    tag_212:\n      0x20\n      mul\n      0x20\n      add\n      add\n        /* \"contracts/LicenseManager.sol\":5363:5386  licenses[i] = licenseId */\n      dup2\n      dup2\n      mstore\n      pop\n      pop\n        /* \"contracts/LicenseManager.sol\":5311:5401  if (_licenseActivated[licenseId]) {... */\n    tag_211:\n        /* \"contracts/LicenseManager.sol\":5242:5411  {... */\n      pop\n        /* \"contracts/LicenseManager.sol\":5237:5240  i++ */\n      dup1\n      dup1\n      0x01\n      add\n      swap2\n      pop\n      pop\n        /* \"contracts/LicenseManager.sol\":5187:5411  for (uint256 i = 0; i < _videoLicenseCounts[vid]; i++) {... */\n      jump(tag_206)\n    tag_207:\n      pop\n        /* \"contracts/LicenseManager.sol\":5428:5436  licenses */\n      dup1\n        /* \"contracts/LicenseManager.sol\":5421:5436  return licenses */\n      swap3\n      pop\n      pop\n        /* \"contracts/LicenseManager.sol\":4975:5443  function getVideoLicenses(string memory vid)... */\n      pop\n      swap2\n      swap1\n      pop\n      jump\t// out\n        /* \"contracts/LicenseManager.sol\":7869:8548  function composeLicense(LID licenseId, address licensee)... */\n    tag_84:\n        /* \"contracts/LicenseManager.sol\":8004:8017  string memory */\n      0x60\n        /* \"contracts/LicenseManager.sol\":7976:7985  licenseId */\n      dup3\n        /* \"contracts/LicenseManager.sol\":2602:2619  _licenseActivated */\n      0x06\n        /* \"contracts/LicenseManager.sol\":2602:2630  _licenseActivated[licenseId] */\n      0x00\n        /* \"contracts/LicenseManager.sol\":2620:2629  licenseId */\n      dup3\n        /* \"contracts/LicenseManager.sol\":2602:2630  _licenseActivated[licenseId] */\n      dup2\n      mstore\n      0x20\n      add\n      swap1\n      dup2\n      mstore\n      0x20\n      add\n      0x00\n      keccak256\n      0x00\n      swap1\n      sload\n      swap1\n      0x0100\n      exp\n      swap1\n      div\n      0xff\n      and\n        /* \"contracts/LicenseManager.sol\":2594:2656  require(_licenseActivated[licenseId], \"license doesn't exist\") */\n      tag_216\n      jumpi\n      mload(0x40)\n      0x08c379a000000000000000000000000000000000000000000000000000000000\n      dup2\n      mstore\n      0x04\n      add\n      tag_217\n      swap1\n      tag_140\n      jump\t// in\n    tag_217:\n      mload(0x40)\n      dup1\n      swap2\n      sub\n      swap1\n      revert\n    tag_216:\n        /* \"contracts/LicenseManager.sol\":8096:8097  0 */\n      0x00\n        /* \"contracts/LicenseManager.sol\":8054:8071  _licenseLicensees */\n      0x0a\n        /* \"contracts/LicenseManager.sol\":8054:8082  _licenseLicensees[licenseId] */\n      0x00\n        /* \"contracts/LicenseManager.sol\":8072:8081  licenseId */\n      dup7\n        /* \"contracts/LicenseManager.sol\":8054:8082  _licenseLicensees[licenseId] */\n      dup2\n      mstore\n      0x20\n      add\n      swap1\n      dup2\n      mstore\n      0x20\n      add\n      0x00\n      keccak256\n        /* \"contracts/LicenseManager.sol\":8054:8092  _licenseLicensees[licenseId][licensee] */\n      0x00\n        /* \"contracts/LicenseManager.sol\":8083:8091  licensee */\n      dup6\n        /* \"contracts/LicenseManager.sol\":8054:8092  _licenseLicensees[licenseId][licensee] */\n      0xffffffffffffffffffffffffffffffffffffffff\n      and\n      0xffffffffffffffffffffffffffffffffffffffff\n      and\n      dup2\n      mstore\n      0x20\n      add\n      swap1\n      dup2\n      mstore\n      0x20\n      add\n      0x00\n      keccak256\n      sload\n        /* \"contracts/LicenseManager.sol\":8054:8097  _licenseLicensees[licenseId][licensee] != 0 */\n      sub\n        /* \"contracts/LicenseManager.sol\":8033:8139  require(... */\n      tag_219\n      jumpi\n      mload(0x40)\n      0x08c379a000000000000000000000000000000000000000000000000000000000\n      dup2\n      mstore\n      0x04\n      add\n      tag_220\n      swap1\n      tag_221\n      jump\t// in\n    tag_220:\n      mload(0x40)\n      dup1\n      swap2\n      sub\n      swap1\n      revert\n    tag_219:\n        /* \"contracts/LicenseManager.sol\":8150:8167  string memory vid */\n      0x00\n        /* \"contracts/LicenseManager.sol\":8170:8184  _licenseVideos */\n      0x07\n        /* \"contracts/LicenseManager.sol\":8170:8195  _licenseVideos[licenseId] */\n      0x00\n        /* \"contracts/LicenseManager.sol\":8185:8194  licenseId */\n      dup7\n        /* \"contracts/LicenseManager.sol\":8170:8195  _licenseVideos[licenseId] */\n      dup2\n      mstore\n      0x20\n      add\n      swap1\n      dup2\n      mstore\n      0x20\n      add\n      0x00\n      keccak256\n        /* \"contracts/LicenseManager.sol\":8150:8195  string memory vid = _licenseVideos[licenseId] */\n      dup1\n      sload\n      tag_222\n      swap1\n      tag_168\n      jump\t// in\n    tag_222:\n      dup1\n      0x1f\n      add\n      0x20\n      dup1\n      swap2\n      div\n      mul\n      0x20\n      add\n      mload(0x40)\n      swap1\n      dup2\n      add\n      0x40\n      mstore\n      dup1\n      swap3\n      swap2\n      swap1\n      dup2\n      dup2\n      mstore\n      0x20\n      add\n      dup3\n      dup1\n      sload\n      tag_223\n      swap1\n      tag_168\n      jump\t// in\n    tag_223:\n      dup1\n      iszero\n      tag_224\n      jumpi\n      dup1\n      0x1f\n      lt\n      tag_225\n      jumpi\n      0x0100\n      dup1\n      dup4\n      sload\n      div\n      mul\n      dup4\n      mstore\n      swap2\n      0x20\n      add\n      swap2\n      jump(tag_224)\n    tag_225:\n      dup3\n      add\n      swap2\n      swap1\n      0x00\n      mstore\n      keccak256(0x00, 0x20)\n      swap1\n    tag_226:\n      dup2\n      sload\n      dup2\n      mstore\n      swap1\n      0x01\n      add\n      swap1\n      0x20\n      add\n      dup1\n      dup4\n      gt\n      tag_226\n      jumpi\n      dup3\n      swap1\n      sub\n      0x1f\n      and\n      dup3\n      add\n      swap2\n    tag_224:\n      pop\n      pop\n      pop\n      pop\n      pop\n      swap1\n      pop\n        /* \"contracts/LicenseManager.sol\":8205:8221  address licensor */\n      0x00\n        /* \"contracts/LicenseManager.sol\":8224:8236  _videoOwners */\n      0x02\n        /* \"contracts/LicenseManager.sol\":8237:8240  vid */\n      dup3\n        /* \"contracts/LicenseManager.sol\":8224:8241  _videoOwners[vid] */\n      mload(0x40)\n      tag_227\n      swap2\n      swap1\n      tag_158\n      jump\t// in\n    tag_227:\n      swap1\n      dup2\n      mstore\n      0x20\n      add\n      mload(0x40)\n      dup1\n      swap2\n      sub\n      swap1\n      keccak256\n      0x00\n      swap1\n      sload\n      swap1\n      0x0100\n      exp\n      swap1\n      div\n      0xffffffffffffffffffffffffffffffffffffffff\n      and\n        /* \"contracts/LicenseManager.sol\":8205:8241  address licensor = _videoOwners[vid] */\n      swap1\n      pop\n        /* \"contracts/LicenseManager.sol\":8251:8267  address template */\n      0x00\n        /* \"contracts/LicenseManager.sol\":8270:8287  _licenseTemplates */\n      0x09\n        /* \"contracts/LicenseManager.sol\":8270:8298  _licenseTemplates[licenseId] */\n      0x00\n        /* \"contracts/LicenseManager.sol\":8288:8297  licenseId */\n      dup9\n        /* \"contracts/LicenseManager.sol\":8270:8298  _licenseTemplates[licenseId] */\n      dup2\n      mstore\n      0x20\n      add\n      swap1\n      dup2\n      mstore\n      0x20\n      add\n      0x00\n      keccak256\n      0x00\n      swap1\n      sload\n      swap1\n      0x0100\n      exp\n      swap1\n      div\n      0xffffffffffffffffffffffffffffffffffffffff\n      and\n        /* \"contracts/LicenseManager.sol\":8251:8298  address template = _licenseTemplates[licenseId] */\n      swap1\n      pop\n        /* \"contracts/LicenseManager.sol\":8309:8322  uint256 price */\n      0x00\n        /* \"contracts/LicenseManager.sol\":8325:8339  _licensePrices */\n      0x08\n        /* \"contracts/LicenseManager.sol\":8325:8350  _licensePrices[licenseId] */\n      0x00\n        /* \"contracts/LicenseManager.sol\":8340:8349  licenseId */\n      dup10\n        /* \"contracts/LicenseManager.sol\":8325:8350  _licensePrices[licenseId] */\n      dup2\n      mstore\n      0x20\n      add\n      swap1\n      dup2\n      mstore\n      0x20\n      add\n      0x00\n      keccak256\n      sload\n        /* \"contracts/LicenseManager.sol\":8309:8350  uint256 price = _licensePrices[licenseId] */\n      swap1\n      pop\n        /* \"contracts/LicenseManager.sol\":8360:8377  uint256 timestamp */\n      0x00\n        /* \"contracts/LicenseManager.sol\":8380:8397  _licenseLicensees */\n      0x0a\n        /* \"contracts/LicenseManager.sol\":8380:8408  _licenseLicensees[licenseId] */\n      0x00\n        /* \"contracts/LicenseManager.sol\":8398:8407  licenseId */\n      dup11\n        /* \"contracts/LicenseManager.sol\":8380:8408  _licenseLicensees[licenseId] */\n      dup2\n      mstore\n      0x20\n      add\n      swap1\n      dup2\n      mstore\n      0x20\n      add\n      0x00\n      keccak256\n        /* \"contracts/LicenseManager.sol\":8380:8418  _licenseLicensees[licenseId][licensee] */\n      0x00\n        /* \"contracts/LicenseManager.sol\":8409:8417  licensee */\n      dup10\n        /* \"contracts/LicenseManager.sol\":8380:8418  _licenseLicensees[licenseId][licensee] */\n      0xffffffffffffffffffffffffffffffffffffffff\n      and\n      0xffffffffffffffffffffffffffffffffffffffff\n      and\n      dup2\n      mstore\n      0x20\n      add\n      swap1\n      dup2\n      mstore\n      0x20\n      add\n      0x00\n      keccak256\n      sload\n        /* \"contracts/LicenseManager.sol\":8360:8418  uint256 timestamp = _licenseLicensees[licenseId][licensee] */\n      swap1\n      pop\n        /* \"contracts/LicenseManager.sol\":8429:8445  ILicense license */\n      0x00\n        /* \"contracts/LicenseManager.sol\":8457:8465  template */\n      dup4\n        /* \"contracts/LicenseManager.sol\":8429:8466  ILicense license = ILicense(template) */\n      swap1\n      pop\n        /* \"contracts/LicenseManager.sol\":8483:8490  license */\n      dup1\n        /* \"contracts/LicenseManager.sol\":8483:8498  license.compose */\n      0xffffffffffffffffffffffffffffffffffffffff\n      and\n      0x483ced98\n        /* \"contracts/LicenseManager.sol\":8499:8502  vid */\n      dup8\n        /* \"contracts/LicenseManager.sol\":8504:8512  licensor */\n      dup8\n        /* \"contracts/LicenseManager.sol\":8514:8522  licensee */\n      dup13\n        /* \"contracts/LicenseManager.sol\":8524:8529  price */\n      dup8\n        /* \"contracts/LicenseManager.sol\":8531:8540  timestamp */\n      dup8\n        /* \"contracts/LicenseManager.sol\":8483:8541  license.compose(vid, licensor, licensee, price, timestamp) */\n      mload(0x40)\n      dup7\n      0xffffffff\n      and\n      0xe0\n      shl\n      dup2\n      mstore\n      0x04\n      add\n      tag_228\n      swap6\n      swap5\n      swap4\n      swap3\n      swap2\n      swap1\n      tag_229\n      jump\t// in\n    tag_228:\n      0x00\n      mload(0x40)\n      dup1\n      dup4\n      sub\n      dup2\n      dup7\n      gas\n      staticcall\n      iszero\n      dup1\n      iszero\n      tag_231\n      jumpi\n      returndatasize\n      0x00\n      dup1\n      returndatacopy\n      revert(0x00, returndatasize)\n    tag_231:\n      pop\n      pop\n      pop\n      pop\n      mload(0x40)\n      returndatasize\n      0x00\n      dup3\n      returndatacopy\n      returndatasize\n      not(0x1f)\n      0x1f\n      dup3\n      add\n      and\n      dup3\n      add\n      dup1\n      0x40\n      mstore\n      pop\n      dup2\n      add\n      swap1\n      tag_232\n      swap2\n      swap1\n      tag_233\n      jump\t// in\n    tag_232:\n        /* \"contracts/LicenseManager.sol\":8476:8541  return license.compose(vid, licensor, licensee, price, timestamp) */\n      swap8\n      pop\n      pop\n      pop\n      pop\n      pop\n      pop\n      pop\n        /* \"contracts/LicenseManager.sol\":7869:8548  function composeLicense(LID licenseId, address licensee)... */\n      pop\n      swap3\n      swap2\n      pop\n      pop\n      jump\t// out\n        /* \"contracts/LicenseManager.sol\":4704:4945  function removeLicense(LID licenseId) public licenseActive(licenseId) {... */\n    tag_89:\n        /* \"contracts/LicenseManager.sol\":4763:4772  licenseId */\n      dup1\n        /* \"contracts/LicenseManager.sol\":2602:2619  _licenseActivated */\n      0x06\n        /* \"contracts/LicenseManager.sol\":2602:2630  _licenseActivated[licenseId] */\n      0x00\n        /* \"contracts/LicenseManager.sol\":2620:2629  licenseId */\n      dup3\n        /* \"contracts/LicenseManager.sol\":2602:2630  _licenseActivated[licenseId] */\n      dup2\n      mstore\n      0x20\n      add\n      swap1\n      dup2\n      mstore\n      0x20\n      add\n      0x00\n      keccak256\n      0x00\n      swap1\n      sload\n      swap1\n      0x0100\n      exp\n      swap1\n      div\n      0xff\n      and\n        /* \"contracts/LicenseManager.sol\":2594:2656  require(_licenseActivated[licenseId], \"license doesn't exist\") */\n      tag_235\n      jumpi\n      mload(0x40)\n      0x08c379a000000000000000000000000000000000000000000000000000000000\n      dup2\n      mstore\n      0x04\n      add\n      tag_236\n      swap1\n      tag_140\n      jump\t// in\n    tag_236:\n      mload(0x40)\n      dup1\n      swap2\n      sub\n      swap1\n      revert\n    tag_235:\n        /* \"contracts/LicenseManager.sol\":4840:4850  msg.sender */\n      caller\n        /* \"contracts/LicenseManager.sol\":4805:4850  this.getLicenseOwner(licenseId) == msg.sender */\n      0xffffffffffffffffffffffffffffffffffffffff\n      and\n        /* \"contracts/LicenseManager.sol\":4805:4809  this */\n      address\n        /* \"contracts/LicenseManager.sol\":4805:4825  this.getLicenseOwner */\n      0xffffffffffffffffffffffffffffffffffffffff\n      and\n      0x1e7fd268\n        /* \"contracts/LicenseManager.sol\":4826:4835  licenseId */\n      dup5\n        /* \"contracts/LicenseManager.sol\":4805:4836  this.getLicenseOwner(licenseId) */\n      mload(0x40)\n      dup3\n      0xffffffff\n      and\n      0xe0\n      shl\n      dup2\n      mstore\n      0x04\n      add\n      tag_238\n      swap2\n      swap1\n      tag_239\n      jump\t// in\n    tag_238:\n      0x20\n      mload(0x40)\n      dup1\n      dup4\n      sub\n      dup2\n      dup7\n      gas\n      staticcall\n      iszero\n      dup1\n      iszero\n      tag_241\n      jumpi\n      returndatasize\n      0x00\n      dup1\n      returndatacopy\n      revert(0x00, returndatasize)\n    tag_241:\n      pop\n      pop\n      pop\n      pop\n      mload(0x40)\n      returndatasize\n      not(0x1f)\n      0x1f\n      dup3\n      add\n      and\n      dup3\n      add\n      dup1\n      0x40\n      mstore\n      pop\n      dup2\n      add\n      swap1\n      tag_242\n      swap2\n      swap1\n      tag_243\n      jump\t// in\n    tag_242:\n        /* \"contracts/LicenseManager.sol\":4805:4850  this.getLicenseOwner(licenseId) == msg.sender */\n      0xffffffffffffffffffffffffffffffffffffffff\n      and\n      eq\n        /* \"contracts/LicenseManager.sol\":4784:4892  require(... */\n      tag_244\n      jumpi\n      mload(0x40)\n      0x08c379a000000000000000000000000000000000000000000000000000000000\n      dup2\n      mstore\n      0x04\n      add\n      tag_245\n      swap1\n      tag_190\n      jump\t// in\n    tag_245:\n      mload(0x40)\n      dup1\n      swap2\n      sub\n      swap1\n      revert\n    tag_244:\n        /* \"contracts/LicenseManager.sol\":4933:4938  false */\n      0x00\n        /* \"contracts/LicenseManager.sol\":4902:4919  _licenseActivated */\n      0x06\n        /* \"contracts/LicenseManager.sol\":4902:4930  _licenseActivated[licenseId] */\n      0x00\n        /* \"contracts/LicenseManager.sol\":4920:4929  licenseId */\n      dup5\n        /* \"contracts/LicenseManager.sol\":4902:4930  _licenseActivated[licenseId] */\n      dup2\n      mstore\n      0x20\n      add\n      swap1\n      dup2\n      mstore\n      0x20\n      add\n      0x00\n      keccak256\n      0x00\n        /* \"contracts/LicenseManager.sol\":4902:4938  _licenseActivated[licenseId] = false */\n      0x0100\n      exp\n      dup2\n      sload\n      dup2\n      0xff\n      mul\n      not\n      and\n      swap1\n      dup4\n      iszero\n      iszero\n      mul\n      or\n      swap1\n      sstore\n      pop\n        /* \"contracts/LicenseManager.sol\":4704:4945  function removeLicense(LID licenseId) public licenseActive(licenseId) {... */\n      pop\n      pop\n      jump\t// out\n        /* \"contracts/LicenseManager.sol\":6035:6221  function getLicenseTemplate(LID licenseId)... */\n    tag_93:\n        /* \"contracts/LicenseManager.sol\":6156:6163  address */\n      0x00\n        /* \"contracts/LicenseManager.sol\":6128:6137  licenseId */\n      dup2\n        /* \"contracts/LicenseManager.sol\":2602:2619  _licenseActivated */\n      0x06\n        /* \"contracts/LicenseManager.sol\":2602:2630  _licenseActivated[licenseId] */\n      0x00\n        /* \"contracts/LicenseManager.sol\":2620:2629  licenseId */\n      dup3\n        /* \"contracts/LicenseManager.sol\":2602:2630  _licenseActivated[licenseId] */\n      dup2\n      mstore\n      0x20\n      add\n      swap1\n      dup2\n      mstore\n      0x20\n      add\n      0x00\n      keccak256\n      0x00\n      swap1\n      sload\n      swap1\n      0x0100\n      exp\n      swap1\n      div\n      0xff\n      and\n        /* \"contracts/LicenseManager.sol\":2594:2656  require(_licenseActivated[licenseId], \"license doesn't exist\") */\n      tag_247\n      jumpi\n      mload(0x40)\n      0x08c379a000000000000000000000000000000000000000000000000000000000\n      dup2\n      mstore\n      0x04\n      add\n      tag_248\n      swap1\n      tag_140\n      jump\t// in\n    tag_248:\n      mload(0x40)\n      dup1\n      swap2\n      sub\n      swap1\n      revert\n    tag_247:\n        /* \"contracts/LicenseManager.sol\":6186:6203  _licenseTemplates */\n      0x09\n        /* \"contracts/LicenseManager.sol\":6186:6214  _licenseTemplates[licenseId] */\n      0x00\n        /* \"contracts/LicenseManager.sol\":6204:6213  licenseId */\n      dup5\n        /* \"contracts/LicenseManager.sol\":6186:6214  _licenseTemplates[licenseId] */\n      dup2\n      mstore\n      0x20\n      add\n      swap1\n      dup2\n      mstore\n      0x20\n      add\n      0x00\n      keccak256\n      0x00\n      swap1\n      sload\n      swap1\n      0x0100\n      exp\n      swap1\n      div\n      0xffffffffffffffffffffffffffffffffffffffff\n      and\n        /* \"contracts/LicenseManager.sol\":6179:6214  return _licenseTemplates[licenseId] */\n      swap2\n      pop\n        /* \"contracts/LicenseManager.sol\":6035:6221  function getLicenseTemplate(LID licenseId)... */\n      pop\n      swap2\n      swap1\n      pop\n      jump\t// out\n        /* \"contracts/LicenseManager.sol\":9316:9901  function _recoverSigner(string memory message, bytes calldata sig)... */\n    tag_100:\n        /* \"contracts/LicenseManager.sol\":9428:9435  address */\n      0x00\n        /* \"contracts/LicenseManager.sol\":9519:9521  65 */\n      0x41\n        /* \"contracts/LicenseManager.sol\":9505:9508  sig */\n      dup4\n      dup4\n        /* \"contracts/LicenseManager.sol\":9505:9515  sig.length */\n      swap1\n      pop\n        /* \"contracts/LicenseManager.sol\":9505:9521  sig.length == 65 */\n      eq\n        /* \"contracts/LicenseManager.sol\":9497:9543  require(sig.length == 65, \"invalid signature\") */\n      tag_251\n      jumpi\n      mload(0x40)\n      0x08c379a000000000000000000000000000000000000000000000000000000000\n      dup2\n      mstore\n      0x04\n      add\n      tag_252\n      swap1\n      tag_253\n      jump\t// in\n    tag_252:\n      mload(0x40)\n      dup1\n      swap2\n      sub\n      swap1\n      revert\n    tag_251:\n        /* \"contracts/LicenseManager.sol\":9626:9633  uint8 v */\n      0x00\n        /* \"contracts/LicenseManager.sol\":9643:9652  bytes32 r */\n      dup1\n        /* \"contracts/LicenseManager.sol\":9662:9671  bytes32 s */\n      0x00\n        /* \"contracts/LicenseManager.sol\":9722:9732  sig.offset */\n      dup6\n        /* \"contracts/LicenseManager.sol\":9709:9733  calldataload(sig.offset) */\n      calldataload\n        /* \"contracts/LicenseManager.sol\":9704:9733  r := calldataload(sig.offset) */\n      swap2\n      pop\n        /* \"contracts/LicenseManager.sol\":9780:9784  0x20 */\n      0x20\n        /* \"contracts/LicenseManager.sol\":9768:9778  sig.offset */\n      dup7\n        /* \"contracts/LicenseManager.sol\":9764:9785  add(sig.offset, 0x20) */\n      add\n        /* \"contracts/LicenseManager.sol\":9751:9786  calldataload(add(sig.offset, 0x20)) */\n      calldataload\n        /* \"contracts/LicenseManager.sol\":9746:9786  s := calldataload(add(sig.offset, 0x20)) */\n      swap1\n      pop\n        /* \"contracts/LicenseManager.sol\":9833:9837  0x21 */\n      0x21\n        /* \"contracts/LicenseManager.sol\":9821:9831  sig.offset */\n      dup7\n        /* \"contracts/LicenseManager.sol\":9817:9838  add(sig.offset, 0x21) */\n      add\n        /* \"contracts/LicenseManager.sol\":9804:9839  calldataload(add(sig.offset, 0x21)) */\n      calldataload\n        /* \"contracts/LicenseManager.sol\":9799:9839  v := calldataload(add(sig.offset, 0x21)) */\n      swap3\n      pop\n        /* \"contracts/LicenseManager.sol\":9866:9894  _ecrecover(message, v, r, s) */\n      tag_254\n        /* \"contracts/LicenseManager.sol\":9877:9884  message */\n      dup8\n        /* \"contracts/LicenseManager.sol\":9886:9887  v */\n      dup5\n        /* \"contracts/LicenseManager.sol\":9889:9890  r */\n      dup5\n        /* \"contracts/LicenseManager.sol\":9892:9893  s */\n      dup5\n        /* \"contracts/LicenseManager.sol\":9866:9876  _ecrecover */\n      tag_255\n        /* \"contracts/LicenseManager.sol\":9866:9894  _ecrecover(message, v, r, s) */\n      jump\t// in\n    tag_254:\n        /* \"contracts/LicenseManager.sol\":9859:9894  return _ecrecover(message, v, r, s) */\n      swap4\n      pop\n      pop\n      pop\n      pop\n        /* \"contracts/LicenseManager.sol\":9316:9901  function _recoverSigner(string memory message, bytes calldata sig)... */\n      swap4\n      swap3\n      pop\n      pop\n      pop\n      jump\t// out\n        /* \"contracts/LicenseManager.sol\":5849:6029  function getLicensePrice(LID licenseId)... */\n    tag_105:\n        /* \"contracts/LicenseManager.sol\":5967:5974  uint256 */\n      0x00\n        /* \"contracts/LicenseManager.sol\":5939:5948  licenseId */\n      dup2\n        /* \"contracts/LicenseManager.sol\":2602:2619  _licenseActivated */\n      0x06\n        /* \"contracts/LicenseManager.sol\":2602:2630  _licenseActivated[licenseId] */\n      0x00\n        /* \"contracts/LicenseManager.sol\":2620:2629  licenseId */\n      dup3\n        /* \"contracts/LicenseManager.sol\":2602:2630  _licenseActivated[licenseId] */\n      dup2\n      mstore\n      0x20\n      add\n      swap1\n      dup2\n      mstore\n      0x20\n      add\n      0x00\n      keccak256\n      0x00\n      swap1\n      sload\n      swap1\n      0x0100\n      exp\n      swap1\n      div\n      0xff\n      and\n        /* \"contracts/LicenseManager.sol\":2594:2656  require(_licenseActivated[licenseId], \"license doesn't exist\") */\n      tag_257\n      jumpi\n      mload(0x40)\n      0x08c379a000000000000000000000000000000000000000000000000000000000\n      dup2\n      mstore\n      0x04\n      add\n      tag_258\n      swap1\n      tag_140\n      jump\t// in\n    tag_258:\n      mload(0x40)\n      dup1\n      swap2\n      sub\n      swap1\n      revert\n    tag_257:\n        /* \"contracts/LicenseManager.sol\":5997:6011  _licensePrices */\n      0x08\n        /* \"contracts/LicenseManager.sol\":5997:6022  _licensePrices[licenseId] */\n      0x00\n        /* \"contracts/LicenseManager.sol\":6012:6021  licenseId */\n      dup5\n        /* \"contracts/LicenseManager.sol\":5997:6022  _licensePrices[licenseId] */\n      dup2\n      mstore\n      0x20\n      add\n      swap1\n      dup2\n      mstore\n      0x20\n      add\n      0x00\n      keccak256\n      sload\n        /* \"contracts/LicenseManager.sol\":5990:6022  return _licensePrices[licenseId] */\n      swap2\n      pop\n        /* \"contracts/LicenseManager.sol\":5849:6029  function getLicensePrice(LID licenseId)... */\n      pop\n      swap2\n      swap1\n      pop\n      jump\t// out\n        /* \"contracts/LicenseManager.sol\":7162:7679  function getLicensesOfVideoAndLicensee(string memory vid, address licensee)... */\n    tag_111:\n        /* \"contracts/LicenseManager.sol\":7307:7319  LID[] memory */\n      0x60\n        /* \"contracts/LicenseManager.sol\":7285:7288  vid */\n      dup3\n        /* \"contracts/LicenseManager.sol\":2495:2496  0 */\n      0x00\n        /* \"contracts/LicenseManager.sol\":2466:2497  _videoOwners[vid] != address(0) */\n      0xffffffffffffffffffffffffffffffffffffffff\n      and\n        /* \"contracts/LicenseManager.sol\":2466:2478  _videoOwners */\n      0x02\n        /* \"contracts/LicenseManager.sol\":2479:2482  vid */\n      dup3\n        /* \"contracts/LicenseManager.sol\":2466:2483  _videoOwners[vid] */\n      mload(0x40)\n      tag_261\n      swap2\n      swap1\n      tag_158\n      jump\t// in\n    tag_261:\n      swap1\n      dup2\n      mstore\n      0x20\n      add\n      mload(0x40)\n      dup1\n      swap2\n      sub\n      swap1\n      keccak256\n      0x00\n      swap1\n      sload\n      swap1\n      0x0100\n      exp\n      swap1\n      div\n      0xffffffffffffffffffffffffffffffffffffffff\n      and\n        /* \"contracts/LicenseManager.sol\":2466:2497  _videoOwners[vid] != address(0) */\n      0xffffffffffffffffffffffffffffffffffffffff\n      and\n      sub\n        /* \"contracts/LicenseManager.sol\":2458:2521  require(_videoOwners[vid] != address(0), \"video doesn't exist\") */\n      tag_262\n      jumpi\n      mload(0x40)\n      0x08c379a000000000000000000000000000000000000000000000000000000000\n      dup2\n      mstore\n      0x04\n      add\n      tag_263\n      swap1\n      tag_182\n      jump\t// in\n    tag_263:\n      mload(0x40)\n      dup1\n      swap2\n      sub\n      swap1\n      revert\n    tag_262:\n        /* \"contracts/LicenseManager.sol\":7335:7357  LID[] memory purchased */\n      0x00\n        /* \"contracts/LicenseManager.sol\":7370:7389  _videoLicenseCounts */\n      0x03\n        /* \"contracts/LicenseManager.sol\":7390:7393  vid */\n      dup6\n        /* \"contracts/LicenseManager.sol\":7370:7394  _videoLicenseCounts[vid] */\n      mload(0x40)\n      tag_265\n      swap2\n      swap1\n      tag_158\n      jump\t// in\n    tag_265:\n      swap1\n      dup2\n      mstore\n      0x20\n      add\n      mload(0x40)\n      dup1\n      swap2\n      sub\n      swap1\n      keccak256\n      sload\n        /* \"contracts/LicenseManager.sol\":7360:7395  new LID[](_videoLicenseCounts[vid]) */\n      0xffffffffffffffff\n      dup2\n      gt\n      iszero\n      tag_266\n      jumpi\n      tag_267\n      tag_204\n      jump\t// in\n    tag_267:\n    tag_266:\n      mload(0x40)\n      swap1\n      dup1\n      dup3\n      mstore\n      dup1\n      0x20\n      mul\n      0x20\n      add\n      dup3\n      add\n      0x40\n      mstore\n      dup1\n      iszero\n      tag_268\n      jumpi\n      dup2\n      0x20\n      add\n      0x20\n      dup3\n      mul\n      dup1\n      calldatasize\n      dup4\n      calldatacopy\n      dup1\n      dup3\n      add\n      swap2\n      pop\n      pop\n      swap1\n      pop\n    tag_268:\n      pop\n        /* \"contracts/LicenseManager.sol\":7335:7395  LID[] memory purchased = new LID[](_videoLicenseCounts[vid]) */\n      swap1\n      pop\n        /* \"contracts/LicenseManager.sol\":7411:7420  uint256 i */\n      0x00\n        /* \"contracts/LicenseManager.sol\":7406:7646  for (uint256 i = 0; i < _videoLicenseCounts[vid]; i++) {... */\n    tag_269:\n        /* \"contracts/LicenseManager.sol\":7430:7449  _videoLicenseCounts */\n      0x03\n        /* \"contracts/LicenseManager.sol\":7450:7453  vid */\n      dup7\n        /* \"contracts/LicenseManager.sol\":7430:7454  _videoLicenseCounts[vid] */\n      mload(0x40)\n      tag_272\n      swap2\n      swap1\n      tag_158\n      jump\t// in\n    tag_272:\n      swap1\n      dup2\n      mstore\n      0x20\n      add\n      mload(0x40)\n      dup1\n      swap2\n      sub\n      swap1\n      keccak256\n      sload\n        /* \"contracts/LicenseManager.sol\":7426:7427  i */\n      dup2\n        /* \"contracts/LicenseManager.sol\":7426:7454  i < _videoLicenseCounts[vid] */\n      lt\n        /* \"contracts/LicenseManager.sol\":7406:7646  for (uint256 i = 0; i < _videoLicenseCounts[vid]; i++) {... */\n      iszero\n      tag_270\n      jumpi\n        /* \"contracts/LicenseManager.sol\":7475:7488  LID licenseId */\n      0x00\n        /* \"contracts/LicenseManager.sol\":7491:7507  _videoLicenseIDs */\n      0x04\n        /* \"contracts/LicenseManager.sol\":7508:7511  vid */\n      dup8\n        /* \"contracts/LicenseManager.sol\":7491:7512  _videoLicenseIDs[vid] */\n      mload(0x40)\n      tag_273\n      swap2\n      swap1\n      tag_158\n      jump\t// in\n    tag_273:\n      swap1\n      dup2\n      mstore\n      0x20\n      add\n      mload(0x40)\n      dup1\n      swap2\n      sub\n      swap1\n      keccak256\n        /* \"contracts/LicenseManager.sol\":7491:7515  _videoLicenseIDs[vid][i] */\n      0x00\n        /* \"contracts/LicenseManager.sol\":7513:7514  i */\n      dup4\n        /* \"contracts/LicenseManager.sol\":7491:7515  _videoLicenseIDs[vid][i] */\n      dup2\n      mstore\n      0x20\n      add\n      swap1\n      dup2\n      mstore\n      0x20\n      add\n      0x00\n      keccak256\n      sload\n        /* \"contracts/LicenseManager.sol\":7475:7515  LID licenseId = _videoLicenseIDs[vid][i] */\n      swap1\n      pop\n        /* \"contracts/LicenseManager.sol\":7576:7577  0 */\n      0x00\n        /* \"contracts/LicenseManager.sol\":7534:7551  _licenseLicensees */\n      0x0a\n        /* \"contracts/LicenseManager.sol\":7534:7562  _licenseLicensees[licenseId] */\n      0x00\n        /* \"contracts/LicenseManager.sol\":7552:7561  licenseId */\n      dup4\n        /* \"contracts/LicenseManager.sol\":7534:7562  _licenseLicensees[licenseId] */\n      dup2\n      mstore\n      0x20\n      add\n      swap1\n      dup2\n      mstore\n      0x20\n      add\n      0x00\n      keccak256\n        /* \"contracts/LicenseManager.sol\":7534:7572  _licenseLicensees[licenseId][licensee] */\n      0x00\n        /* \"contracts/LicenseManager.sol\":7563:7571  licensee */\n      dup9\n        /* \"contracts/LicenseManager.sol\":7534:7572  _licenseLicensees[licenseId][licensee] */\n      0xffffffffffffffffffffffffffffffffffffffff\n      and\n      0xffffffffffffffffffffffffffffffffffffffff\n      and\n      dup2\n      mstore\n      0x20\n      add\n      swap1\n      dup2\n      mstore\n      0x20\n      add\n      0x00\n      keccak256\n      sload\n        /* \"contracts/LicenseManager.sol\":7534:7577  _licenseLicensees[licenseId][licensee] != 0 */\n      eq\n        /* \"contracts/LicenseManager.sol\":7530:7636  if (_licenseLicensees[licenseId][licensee] != 0) {... */\n      tag_274\n      jumpi\n        /* \"contracts/LicenseManager.sol\":7612:7621  licenseId */\n      dup1\n        /* \"contracts/LicenseManager.sol\":7597:7606  purchased */\n      dup4\n        /* \"contracts/LicenseManager.sol\":7607:7608  i */\n      dup4\n        /* \"contracts/LicenseManager.sol\":7597:7609  purchased[i] */\n      dup2\n      mload\n      dup2\n      lt\n      tag_275\n      jumpi\n      tag_276\n      tag_214\n      jump\t// in\n    tag_276:\n    tag_275:\n      0x20\n      mul\n      0x20\n      add\n      add\n        /* \"contracts/LicenseManager.sol\":7597:7621  purchased[i] = licenseId */\n      dup2\n      dup2\n      mstore\n      pop\n      pop\n        /* \"contracts/LicenseManager.sol\":7530:7636  if (_licenseLicensees[licenseId][licensee] != 0) {... */\n    tag_274:\n        /* \"contracts/LicenseManager.sol\":7461:7646  {... */\n      pop\n        /* \"contracts/LicenseManager.sol\":7456:7459  i++ */\n      dup1\n      dup1\n      0x01\n      add\n      swap2\n      pop\n      pop\n        /* \"contracts/LicenseManager.sol\":7406:7646  for (uint256 i = 0; i < _videoLicenseCounts[vid]; i++) {... */\n      jump(tag_269)\n    tag_270:\n      pop\n        /* \"contracts/LicenseManager.sol\":7663:7672  purchased */\n      dup1\n        /* \"contracts/LicenseManager.sol\":7656:7672  return purchased */\n      swap3\n      pop\n      pop\n        /* \"contracts/LicenseManager.sol\":7162:7679  function getLicensesOfVideoAndLicensee(string memory vid, address licensee)... */\n      pop\n      swap3\n      swap2\n      pop\n      pop\n      jump\t// out\n        /* \"contracts/LicenseManager.sol\":1648:1752  function removeTemplate(address template) public onlyOwner {... */\n    tag_116:\n        /* \"contracts/LicenseManager.sol\":1179:1189  msg.sender */\n      caller\n        /* \"contracts/LicenseManager.sol\":1169:1189  _owner == msg.sender */\n      0xffffffffffffffffffffffffffffffffffffffff\n      and\n        /* \"contracts/LicenseManager.sol\":1169:1175  _owner */\n      0x00\n      dup1\n      sload\n      swap1\n      0x0100\n      exp\n      swap1\n      div\n      0xffffffffffffffffffffffffffffffffffffffff\n      and\n        /* \"contracts/LicenseManager.sol\":1169:1189  _owner == msg.sender */\n      0xffffffffffffffffffffffffffffffffffffffff\n      and\n      eq\n        /* \"contracts/LicenseManager.sol\":1161:1211  require(_owner == msg.sender, \"owner access only\") */\n      tag_278\n      jumpi\n      mload(0x40)\n      0x08c379a000000000000000000000000000000000000000000000000000000000\n      dup2\n      mstore\n      0x04\n      add\n      tag_279\n      swap1\n      tag_147\n      jump\t// in\n    tag_279:\n      mload(0x40)\n      dup1\n      swap2\n      sub\n      swap1\n      revert\n    tag_278:\n        /* \"contracts/LicenseManager.sol\":1740:1745  false */\n      0x00\n        /* \"contracts/LicenseManager.sol\":1717:1727  _templates */\n      0x01\n        /* \"contracts/LicenseManager.sol\":1717:1737  _templates[template] */\n      0x00\n        /* \"contracts/LicenseManager.sol\":1728:1736  template */\n      dup4\n        /* \"contracts/LicenseManager.sol\":1717:1737  _templates[template] */\n      0xffffffffffffffffffffffffffffffffffffffff\n      and\n      0xffffffffffffffffffffffffffffffffffffffff\n      and\n      dup2\n      mstore\n      0x20\n      add\n      swap1\n      dup2\n      mstore\n      0x20\n      add\n      0x00\n      keccak256\n      0x00\n        /* \"contracts/LicenseManager.sol\":1717:1745  _templates[template] = false */\n      0x0100\n      exp\n      dup2\n      sload\n      dup2\n      0xff\n      mul\n      not\n      and\n      swap1\n      dup4\n      iszero\n      iszero\n      mul\n      or\n      swap1\n      sstore\n      pop\n        /* \"contracts/LicenseManager.sol\":1648:1752  function removeTemplate(address template) public onlyOwner {... */\n      pop\n      jump\t// out\n        /* \"contracts/LicenseManager.sol\":6484:7156  function buyLicense(LID licenseId, bytes calldata signature)... */\n    tag_120:\n        /* \"contracts/LicenseManager.sol\":6598:6607  licenseId */\n      dup3\n        /* \"contracts/LicenseManager.sol\":2602:2619  _licenseActivated */\n      0x06\n        /* \"contracts/LicenseManager.sol\":2602:2630  _licenseActivated[licenseId] */\n      0x00\n        /* \"contracts/LicenseManager.sol\":2620:2629  licenseId */\n      dup3\n        /* \"contracts/LicenseManager.sol\":2602:2630  _licenseActivated[licenseId] */\n      dup2\n      mstore\n      0x20\n      add\n      swap1\n      dup2\n      mstore\n      0x20\n      add\n      0x00\n      keccak256\n      0x00\n      swap1\n      sload\n      swap1\n      0x0100\n      exp\n      swap1\n      div\n      0xff\n      and\n        /* \"contracts/LicenseManager.sol\":2594:2656  require(_licenseActivated[licenseId], \"license doesn't exist\") */\n      tag_282\n      jumpi\n      mload(0x40)\n      0x08c379a000000000000000000000000000000000000000000000000000000000\n      dup2\n      mstore\n      0x04\n      add\n      tag_283\n      swap1\n      tag_140\n      jump\t// in\n    tag_283:\n      mload(0x40)\n      dup1\n      swap2\n      sub\n      swap1\n      revert\n    tag_282:\n        /* \"contracts/LicenseManager.sol\":6657:6661  this */\n      address\n        /* \"contracts/LicenseManager.sol\":6657:6677  this.getLicensePrice */\n      0xffffffffffffffffffffffffffffffffffffffff\n      and\n      0xb6c00a82\n        /* \"contracts/LicenseManager.sol\":6678:6687  licenseId */\n      dup6\n        /* \"contracts/LicenseManager.sol\":6657:6688  this.getLicensePrice(licenseId) */\n      mload(0x40)\n      dup3\n      0xffffffff\n      and\n      0xe0\n      shl\n      dup2\n      mstore\n      0x04\n      add\n      tag_285\n      swap2\n      swap1\n      tag_239\n      jump\t// in\n    tag_285:\n      0x20\n      mload(0x40)\n      dup1\n      dup4\n      sub\n      dup2\n      dup7\n      gas\n      staticcall\n      iszero\n      dup1\n      iszero\n      tag_287\n      jumpi\n      returndatasize\n      0x00\n      dup1\n      returndatacopy\n      revert(0x00, returndatasize)\n    tag_287:\n      pop\n      pop\n      pop\n      pop\n      mload(0x40)\n      returndatasize\n      not(0x1f)\n      0x1f\n      dup3\n      add\n      and\n      dup3\n      add\n      dup1\n      0x40\n      mstore\n      pop\n      dup2\n      add\n      swap1\n      tag_288\n      swap2\n      swap1\n      tag_289\n      jump\t// in\n    tag_288:\n        /* \"contracts/LicenseManager.sol\":6644:6653  msg.value */\n      callvalue\n        /* \"contracts/LicenseManager.sol\":6644:6688  msg.value >= this.getLicensePrice(licenseId) */\n      lt\n      iszero\n        /* \"contracts/LicenseManager.sol\":6623:6730  require(... */\n      tag_290\n      jumpi\n      mload(0x40)\n      0x08c379a000000000000000000000000000000000000000000000000000000000\n      dup2\n      mstore\n      0x04\n      add\n      tag_291\n      swap1\n      tag_292\n      jump\t// in\n    tag_291:\n      mload(0x40)\n      dup1\n      swap2\n      sub\n      swap1\n      revert\n    tag_290:\n        /* \"contracts/LicenseManager.sol\":6761:6810  _verifyLicensee(msg.sender, licenseId, signature) */\n      tag_293\n        /* \"contracts/LicenseManager.sol\":6777:6787  msg.sender */\n      caller\n        /* \"contracts/LicenseManager.sol\":6789:6798  licenseId */\n      dup6\n        /* \"contracts/LicenseManager.sol\":6800:6809  signature */\n      dup6\n      dup6\n        /* \"contracts/LicenseManager.sol\":6761:6776  _verifyLicensee */\n      tag_294\n        /* \"contracts/LicenseManager.sol\":6761:6810  _verifyLicensee(msg.sender, licenseId, signature) */\n      jump\t// in\n    tag_293:\n        /* \"contracts/LicenseManager.sol\":6740:6862  require(... */\n      tag_295\n      jumpi\n      mload(0x40)\n      0x08c379a000000000000000000000000000000000000000000000000000000000\n      dup2\n      mstore\n      0x04\n      add\n      tag_296\n      swap1\n      tag_297\n      jump\t// in\n    tag_296:\n      mload(0x40)\n      dup1\n      swap2\n      sub\n      swap1\n      revert\n    tag_295:\n        /* \"contracts/LicenseManager.sol\":6873:6886  uint256 price */\n      0x00\n        /* \"contracts/LicenseManager.sol\":6889:6893  this */\n      address\n        /* \"contracts/LicenseManager.sol\":6889:6909  this.getLicensePrice */\n      0xffffffffffffffffffffffffffffffffffffffff\n      and\n      0xb6c00a82\n        /* \"contracts/LicenseManager.sol\":6910:6919  licenseId */\n      dup7\n        /* \"contracts/LicenseManager.sol\":6889:6920  this.getLicensePrice(licenseId) */\n      mload(0x40)\n      dup3\n      0xffffffff\n      and\n      0xe0\n      shl\n      dup2\n      mstore\n      0x04\n      add\n      tag_298\n      swap2\n      swap1\n      tag_239\n      jump\t// in\n    tag_298:\n      0x20\n      mload(0x40)\n      dup1\n      dup4\n      sub\n      dup2\n      dup7\n      gas\n      staticcall\n      iszero\n      dup1\n      iszero\n      tag_300\n      jumpi\n      returndatasize\n      0x00\n      dup1\n      returndatacopy\n      revert(0x00, returndatasize)\n    tag_300:\n      pop\n      pop\n      pop\n      pop\n      mload(0x40)\n      returndatasize\n      not(0x1f)\n      0x1f\n      dup3\n      add\n      and\n      dup3\n      add\n      dup1\n      0x40\n      mstore\n      pop\n      dup2\n      add\n      swap1\n      tag_301\n      swap2\n      swap1\n      tag_289\n      jump\t// in\n    tag_301:\n        /* \"contracts/LicenseManager.sol\":6873:6920  uint256 price = this.getLicensePrice(licenseId) */\n      swap1\n      pop\n        /* \"contracts/LicenseManager.sol\":6930:6948  address payable to */\n      0x00\n        /* \"contracts/LicenseManager.sol\":6951:6955  this */\n      address\n        /* \"contracts/LicenseManager.sol\":6951:6971  this.getLicenseOwner */\n      0xffffffffffffffffffffffffffffffffffffffff\n      and\n      0x1e7fd268\n        /* \"contracts/LicenseManager.sol\":6972:6981  licenseId */\n      dup8\n        /* \"contracts/LicenseManager.sol\":6951:6982  this.getLicenseOwner(licenseId) */\n      mload(0x40)\n      dup3\n      0xffffffff\n      and\n      0xe0\n      shl\n      dup2\n      mstore\n      0x04\n      add\n      tag_302\n      swap2\n      swap1\n      tag_239\n      jump\t// in\n    tag_302:\n      0x20\n      mload(0x40)\n      dup1\n      dup4\n      sub\n      dup2\n      dup7\n      gas\n      staticcall\n      iszero\n      dup1\n      iszero\n      tag_304\n      jumpi\n      returndatasize\n      0x00\n      dup1\n      returndatacopy\n      revert(0x00, returndatasize)\n    tag_304:\n      pop\n      pop\n      pop\n      pop\n      mload(0x40)\n      returndatasize\n      not(0x1f)\n      0x1f\n      dup3\n      add\n      and\n      dup3\n      add\n      dup1\n      0x40\n      mstore\n      pop\n      dup2\n      add\n      swap1\n      tag_305\n      swap2\n      swap1\n      tag_243\n      jump\t// in\n    tag_305:\n        /* \"contracts/LicenseManager.sol\":6930:6982  address payable to = this.getLicenseOwner(licenseId) */\n      swap1\n      pop\n        /* \"contracts/LicenseManager.sol\":6993:7002  bool sent */\n      0x00\n        /* \"contracts/LicenseManager.sol\":7008:7010  to */\n      dup2\n        /* \"contracts/LicenseManager.sol\":7008:7015  to.call */\n      0xffffffffffffffffffffffffffffffffffffffff\n      and\n        /* \"contracts/LicenseManager.sol\":7023:7028  price */\n      dup4\n        /* \"contracts/LicenseManager.sol\":7008:7033  to.call{value: price}(\"\") */\n      mload(0x40)\n      tag_306\n      swap1\n      tag_307\n      jump\t// in\n    tag_306:\n      0x00\n      mload(0x40)\n      dup1\n      dup4\n      sub\n      dup2\n      dup6\n      dup8\n      gas\n      call\n      swap3\n      pop\n      pop\n      pop\n      returndatasize\n      dup1\n      0x00\n      dup2\n      eq\n      tag_310\n      jumpi\n      mload(0x40)\n      swap2\n      pop\n      and(add(returndatasize, 0x3f), not(0x1f))\n      dup3\n      add\n      0x40\n      mstore\n      returndatasize\n      dup3\n      mstore\n      returndatasize\n      0x00\n      0x20\n      dup5\n      add\n      returndatacopy\n      jump(tag_309)\n    tag_310:\n      0x60\n      swap2\n      pop\n    tag_309:\n      pop\n        /* \"contracts/LicenseManager.sol\":6992:7033  (bool sent, ) = to.call{value: price}(\"\") */\n      pop\n      swap1\n      pop\n        /* \"contracts/LicenseManager.sol\":7051:7055  sent */\n      dup1\n        /* \"contracts/LicenseManager.sol\":7043:7080  require(sent, \"failed to send ether\") */\n      tag_311\n      jumpi\n      mload(0x40)\n      0x08c379a000000000000000000000000000000000000000000000000000000000\n      dup2\n      mstore\n      0x04\n      add\n      tag_312\n      swap1\n      tag_313\n      jump\t// in\n    tag_312:\n      mload(0x40)\n      dup1\n      swap2\n      sub\n      swap1\n      revert\n    tag_311:\n        /* \"contracts/LicenseManager.sol\":7134:7149  block.timestamp */\n      timestamp\n        /* \"contracts/LicenseManager.sol\":7091:7108  _licenseLicensees */\n      0x0a\n        /* \"contracts/LicenseManager.sol\":7091:7119  _licenseLicensees[licenseId] */\n      0x00\n        /* \"contracts/LicenseManager.sol\":7109:7118  licenseId */\n      dup10\n        /* \"contracts/LicenseManager.sol\":7091:7119  _licenseLicensees[licenseId] */\n      dup2\n      mstore\n      0x20\n      add\n      swap1\n      dup2\n      mstore\n      0x20\n      add\n      0x00\n      keccak256\n        /* \"contracts/LicenseManager.sol\":7091:7131  _licenseLicensees[licenseId][msg.sender] */\n      0x00\n        /* \"contracts/LicenseManager.sol\":7120:7130  msg.sender */\n      caller\n        /* \"contracts/LicenseManager.sol\":7091:7131  _licenseLicensees[licenseId][msg.sender] */\n      0xffffffffffffffffffffffffffffffffffffffff\n      and\n      0xffffffffffffffffffffffffffffffffffffffff\n      and\n      dup2\n      mstore\n      0x20\n      add\n      swap1\n      dup2\n      mstore\n      0x20\n      add\n      0x00\n      keccak256\n        /* \"contracts/LicenseManager.sol\":7091:7149  _licenseLicensees[licenseId][msg.sender] = block.timestamp */\n      dup2\n      swap1\n      sstore\n      pop\n        /* \"contracts/LicenseManager.sol\":6613:7156  {... */\n      pop\n      pop\n      pop\n        /* \"contracts/LicenseManager.sol\":6484:7156  function buyLicense(LID licenseId, bytes calldata signature)... */\n      pop\n      pop\n      pop\n      pop\n      jump\t// out\n        /* \"contracts/LicenseManager.sol\":4274:4698  function addVideoWithLicense(... */\n    tag_125:\n        /* \"contracts/LicenseManager.sol\":1179:1189  msg.sender */\n      caller\n        /* \"contracts/LicenseManager.sol\":1169:1189  _owner == msg.sender */\n      0xffffffffffffffffffffffffffffffffffffffff\n      and\n        /* \"contracts/LicenseManager.sol\":1169:1175  _owner */\n      0x00\n      dup1\n      sload\n      swap1\n      0x0100\n      exp\n      swap1\n      div\n      0xffffffffffffffffffffffffffffffffffffffff\n      and\n        /* \"contracts/LicenseManager.sol\":1169:1189  _owner == msg.sender */\n      0xffffffffffffffffffffffffffffffffffffffff\n      and\n      eq\n        /* \"contracts/LicenseManager.sol\":1161:1211  require(_owner == msg.sender, \"owner access only\") */\n      tag_315\n      jumpi\n      mload(0x40)\n      0x08c379a000000000000000000000000000000000000000000000000000000000\n      dup2\n      mstore\n      0x04\n      add\n      tag_316\n      swap1\n      tag_147\n      jump\t// in\n    tag_316:\n      mload(0x40)\n      dup1\n      swap2\n      sub\n      swap1\n      revert\n    tag_315:\n        /* \"contracts/LicenseManager.sol\":4508:4516  template */\n      dup3\n        /* \"contracts/LicenseManager.sol\":1471:1481  _templates */\n      0x01\n        /* \"contracts/LicenseManager.sol\":1471:1491  _templates[template] */\n      0x00\n        /* \"contracts/LicenseManager.sol\":1482:1490  template */\n      dup3\n        /* \"contracts/LicenseManager.sol\":1471:1491  _templates[template] */\n      0xffffffffffffffffffffffffffffffffffffffff\n      and\n      0xffffffffffffffffffffffffffffffffffffffff\n      and\n      dup2\n      mstore\n      0x20\n      add\n      swap1\n      dup2\n      mstore\n      0x20\n      add\n      0x00\n      keccak256\n      0x00\n      swap1\n      sload\n      swap1\n      0x0100\n      exp\n      swap1\n      div\n      0xff\n      and\n        /* \"contracts/LicenseManager.sol\":1463:1517  require(_templates[template], \"license doesn't exist\") */\n      tag_318\n      jumpi\n      mload(0x40)\n      0x08c379a000000000000000000000000000000000000000000000000000000000\n      dup2\n      mstore\n      0x04\n      add\n      tag_319\n      swap1\n      tag_140\n      jump\t// in\n    tag_319:\n      mload(0x40)\n      dup1\n      swap2\n      sub\n      swap1\n      revert\n    tag_318:\n        /* \"contracts/LicenseManager.sol\":4537:4552  _licenseCreated */\n      0x05\n        /* \"contracts/LicenseManager.sol\":4537:4563  _licenseCreated[licenseId] */\n      0x00\n        /* \"contracts/LicenseManager.sol\":4553:4562  licenseId */\n      dup4\n        /* \"contracts/LicenseManager.sol\":4537:4563  _licenseCreated[licenseId] */\n      dup2\n      mstore\n      0x20\n      add\n      swap1\n      dup2\n      mstore\n      0x20\n      add\n      0x00\n      keccak256\n      0x00\n      swap1\n      sload\n      swap1\n      0x0100\n      exp\n      swap1\n      div\n      0xff\n      and\n        /* \"contracts/LicenseManager.sol\":4536:4563  !_licenseCreated[licenseId] */\n      iszero\n        /* \"contracts/LicenseManager.sol\":4528:4590  require(!_licenseCreated[licenseId], \"unavailable license id\") */\n      tag_321\n      jumpi\n      mload(0x40)\n      0x08c379a000000000000000000000000000000000000000000000000000000000\n      dup2\n      mstore\n      0x04\n      add\n      tag_322\n      swap1\n      tag_193\n      jump\t// in\n    tag_322:\n      mload(0x40)\n      dup1\n      swap2\n      sub\n      swap1\n      revert\n    tag_321:\n        /* \"contracts/LicenseManager.sol\":4601:4635  addVideo(vid, licensor, signature) */\n      tag_323\n        /* \"contracts/LicenseManager.sol\":4610:4613  vid */\n      dup9\n        /* \"contracts/LicenseManager.sol\":4615:4623  licensor */\n      dup9\n        /* \"contracts/LicenseManager.sol\":4625:4634  signature */\n      dup9\n      dup9\n        /* \"contracts/LicenseManager.sol\":4601:4609  addVideo */\n      tag_42\n        /* \"contracts/LicenseManager.sol\":4601:4635  addVideo(vid, licensor, signature) */\n      jump\t// in\n    tag_323:\n        /* \"contracts/LicenseManager.sol\":4645:4691  createLicense(vid, template, price, licenseId) */\n      tag_324\n        /* \"contracts/LicenseManager.sol\":4659:4662  vid */\n      dup9\n        /* \"contracts/LicenseManager.sol\":4664:4672  template */\n      dup6\n        /* \"contracts/LicenseManager.sol\":4674:4679  price */\n      dup6\n        /* \"contracts/LicenseManager.sol\":4681:4690  licenseId */\n      dup6\n        /* \"contracts/LicenseManager.sol\":4645:4658  createLicense */\n      tag_195\n        /* \"contracts/LicenseManager.sol\":4645:4691  createLicense(vid, template, price, licenseId) */\n      jump\t// in\n    tag_324:\n        /* \"contracts/LicenseManager.sol\":1222:1223  _ */\n      pop\n        /* \"contracts/LicenseManager.sol\":4274:4698  function addVideoWithLicense(... */\n      pop\n      pop\n      pop\n      pop\n      pop\n      pop\n      pop\n      jump\t// out\n        /* \"contracts/LicenseManager.sol\":9907:10838  function verifySigner(... */\n    tag_130:\n        /* \"contracts/LicenseManager.sol\":10045:10049  bool */\n      0x00\n        /* \"contracts/LicenseManager.sol\":10093:10110  address eoaSigner */\n      dup1\n        /* \"contracts/LicenseManager.sol\":10113:10147  _recoverSigner(message, signature) */\n      tag_326\n        /* \"contracts/LicenseManager.sol\":10128:10135  message */\n      dup6\n        /* \"contracts/LicenseManager.sol\":10137:10146  signature */\n      dup6\n      dup6\n        /* \"contracts/LicenseManager.sol\":10113:10127  _recoverSigner */\n      tag_100\n        /* \"contracts/LicenseManager.sol\":10113:10147  _recoverSigner(message, signature) */\n      jump\t// in\n    tag_326:\n        /* \"contracts/LicenseManager.sol\":10093:10147  address eoaSigner = _recoverSigner(message, signature) */\n      swap1\n      pop\n        /* \"contracts/LicenseManager.sol\":10175:10181  signer */\n      dup6\n        /* \"contracts/LicenseManager.sol\":10162:10181  eoaSigner == signer */\n      0xffffffffffffffffffffffffffffffffffffffff\n      and\n        /* \"contracts/LicenseManager.sol\":10162:10171  eoaSigner */\n      dup2\n        /* \"contracts/LicenseManager.sol\":10162:10181  eoaSigner == signer */\n      0xffffffffffffffffffffffffffffffffffffffff\n      and\n      sub\n        /* \"contracts/LicenseManager.sol\":10158:10219  if (eoaSigner == signer) {... */\n      tag_327\n      jumpi\n        /* \"contracts/LicenseManager.sol\":10204:10208  true */\n      0x01\n        /* \"contracts/LicenseManager.sol\":10197:10208  return true */\n      swap2\n      pop\n      pop\n      jump(tag_325)\n        /* \"contracts/LicenseManager.sol\":10158:10219  if (eoaSigner == signer) {... */\n    tag_327:\n        /* \"contracts/LicenseManager.sol\":10265:10279  bytes32 digest */\n      0x00\n        /* \"contracts/LicenseManager.sol\":10282:10306  _getMessageHash(message) */\n      tag_328\n        /* \"contracts/LicenseManager.sol\":10298:10305  message */\n      dup7\n        /* \"contracts/LicenseManager.sol\":10282:10297  _getMessageHash */\n      tag_329\n        /* \"contracts/LicenseManager.sol\":10282:10306  _getMessageHash(message) */\n      jump\t// in\n    tag_328:\n        /* \"contracts/LicenseManager.sol\":10265:10306  bytes32 digest = _getMessageHash(message) */\n      swap1\n      pop\n        /* \"contracts/LicenseManager.sol\":10380:10392  bool success */\n      0x00\n        /* \"contracts/LicenseManager.sol\":10394:10413  bytes memory result */\n      dup1\n        /* \"contracts/LicenseManager.sol\":10417:10423  signer */\n      dup9\n        /* \"contracts/LicenseManager.sol\":10417:10434  signer.staticcall */\n      0xffffffffffffffffffffffffffffffffffffffff\n      and\n        /* \"contracts/LicenseManager.sol\":10471:10505  IERC1271.isValidSignature.selector */\n      shl(0xe0, 0x1626ba7e)\n        /* \"contracts/LicenseManager.sol\":10507:10513  digest */\n      dup5\n        /* \"contracts/LicenseManager.sol\":10515:10524  signature */\n      dup10\n      dup10\n        /* \"contracts/LicenseManager.sol\":10448:10525  abi.encodeWithSelector(IERC1271.isValidSignature.selector, digest, signature) */\n      add(0x24, mload(0x40))\n      tag_330\n      swap4\n      swap3\n      swap2\n      swap1\n      tag_331\n      jump\t// in\n    tag_330:\n      mload(0x40)\n      0x20\n      dup2\n      dup4\n      sub\n      sub\n      dup2\n      mstore\n      swap1\n      0x40\n      mstore\n      swap1\n      not(0xffffffffffffffffffffffffffffffffffffffffffffffffffffffff)\n      and\n      0x20\n      dup3\n      add\n      dup1\n      mload\n      0xffffffffffffffffffffffffffffffffffffffffffffffffffffffff\n      dup4\n      dup2\n      dup4\n      and\n      or\n      dup4\n      mstore\n      pop\n      pop\n      pop\n      pop\n        /* \"contracts/LicenseManager.sol\":10417:10535  signer.staticcall(... */\n      mload(0x40)\n      tag_332\n      swap2\n      swap1\n      tag_333\n      jump\t// in\n    tag_332:\n      0x00\n      mload(0x40)\n      dup1\n      dup4\n      sub\n      dup2\n      dup6\n      gas\n      staticcall\n      swap2\n      pop\n      pop\n      returndatasize\n      dup1\n      0x00\n      dup2\n      eq\n      tag_336\n      jumpi\n      mload(0x40)\n      swap2\n      pop\n      and(add(returndatasize, 0x3f), not(0x1f))\n      dup3\n      add\n      0x40\n      mstore\n      returndatasize\n      dup3\n      mstore\n      returndatasize\n      0x00\n      0x20\n      dup5\n      add\n      returndatacopy\n      jump(tag_335)\n    tag_336:\n      0x60\n      swap2\n      pop\n    tag_335:\n      pop\n        /* \"contracts/LicenseManager.sol\":10379:10535  (bool success, bytes memory result) = signer.staticcall(... */\n      swap2\n      pop\n      swap2\n      pop\n        /* \"contracts/LicenseManager.sol\":10579:10586  success */\n      dup2\n        /* \"contracts/LicenseManager.sol\":10579:10609  success && result.length == 32 */\n      dup1\n      iszero\n      tag_337\n      jumpi\n      pop\n        /* \"contracts/LicenseManager.sol\":10607:10609  32 */\n      0x20\n        /* \"contracts/LicenseManager.sol\":10590:10596  result */\n      dup2\n        /* \"contracts/LicenseManager.sol\":10590:10603  result.length */\n      mload\n        /* \"contracts/LicenseManager.sol\":10590:10609  result.length == 32 */\n      eq\n        /* \"contracts/LicenseManager.sol\":10579:10609  success && result.length == 32 */\n    tag_337:\n        /* \"contracts/LicenseManager.sol\":10575:10770  if (success && result.length == 32) {... */\n      iszero\n      tag_338\n      jumpi\n        /* \"contracts/LicenseManager.sol\":10625:10642  bytes4 magicValue */\n      0x00\n        /* \"contracts/LicenseManager.sol\":10656:10662  result */\n      dup2\n        /* \"contracts/LicenseManager.sol\":10645:10673  abi.decode(result, (bytes4)) */\n      dup1\n      0x20\n      add\n      swap1\n      mload\n      dup2\n      add\n      swap1\n      tag_339\n      swap2\n      swap1\n      tag_340\n      jump\t// in\n    tag_339:\n        /* \"contracts/LicenseManager.sol\":10625:10673  bytes4 magicValue = abi.decode(result, (bytes4)) */\n      swap1\n      pop\n        /* \"contracts/LicenseManager.sol\":10708:10718  0x1626ba7e */\n      0x1626ba7e\n        /* \"contracts/LicenseManager.sol\":10694:10718  magicValue == 0x1626ba7e */\n      0xe0\n      shl\n        /* \"contracts/LicenseManager.sol\":10694:10704  magicValue */\n      dup2\n        /* \"contracts/LicenseManager.sol\":10694:10718  magicValue == 0x1626ba7e */\n      not(0xffffffffffffffffffffffffffffffffffffffffffffffffffffffff)\n      and\n      eq\n        /* \"contracts/LicenseManager.sol\":10687:10718  return magicValue == 0x1626ba7e */\n      swap6\n      pop\n      pop\n      pop\n      pop\n      pop\n      pop\n      jump(tag_325)\n        /* \"contracts/LicenseManager.sol\":10575:10770  if (success && result.length == 32) {... */\n    tag_338:\n        /* \"contracts/LicenseManager.sol\":10787:10792  false */\n      0x00\n        /* \"contracts/LicenseManager.sol\":10780:10792  return false */\n      swap5\n      pop\n      pop\n      pop\n      pop\n      pop\n        /* \"contracts/LicenseManager.sol\":9907:10838  function verifySigner(... */\n    tag_325:\n      swap5\n      swap4\n      pop\n      pop\n      pop\n      pop\n      jump\t// out\n        /* \"contracts/LicenseManager.sol\":1236:1326  function transferOwnership(address owner) public onlyOwner {... */\n    tag_136:\n        /* \"contracts/LicenseManager.sol\":1179:1189  msg.sender */\n      caller\n        /* \"contracts/LicenseManager.sol\":1169:1189  _owner == msg.sender */\n      0xffffffffffffffffffffffffffffffffffffffff\n      and\n        /* \"contracts/LicenseManager.sol\":1169:1175  _owner */\n      0x00\n      dup1\n      sload\n      swap1\n      0x0100\n      exp\n      swap1\n      div\n      0xffffffffffffffffffffffffffffffffffffffff\n      and\n        /* \"contracts/LicenseManager.sol\":1169:1189  _owner == msg.sender */\n      0xffffffffffffffffffffffffffffffffffffffff\n      and\n      eq\n        /* \"contracts/LicenseManager.sol\":1161:1211  require(_owner == msg.sender, \"owner access only\") */\n      tag_342\n      jumpi\n      mload(0x40)\n      0x08c379a000000000000000000000000000000000000000000000000000000000\n      dup2\n      mstore\n      0x04\n      add\n      tag_343\n      swap1\n      tag_147\n      jump\t// in\n    tag_343:\n      mload(0x40)\n      dup1\n      swap2\n      sub\n      swap1\n      revert\n    tag_342:\n        /* \"contracts/LicenseManager.sol\":1314:1319  owner */\n      dup1\n        /* \"contracts/LicenseManager.sol\":1305:1311  _owner */\n      0x00\n      dup1\n        /* \"contracts/LicenseManager.sol\":1305:1319  _owner = owner */\n      0x0100\n      exp\n      dup2\n      sload\n      dup2\n      0xffffffffffffffffffffffffffffffffffffffff\n      mul\n      not\n      and\n      swap1\n      dup4\n      0xffffffffffffffffffffffffffffffffffffffff\n      and\n      mul\n      or\n      swap1\n      sstore\n      pop\n        /* \"contracts/LicenseManager.sol\":1236:1326  function transferOwnership(address owner) public onlyOwner {... */\n      pop\n      jump\t// out\n        /* \"contracts/LicenseManager.sol\":10844:11049  function _verifyLicensor(... */\n    tag_153:\n        /* \"contracts/LicenseManager.sol\":10983:10987  bool */\n      0x00\n        /* \"contracts/LicenseManager.sol\":11006:11042  verifySigner(signer, vid, signature) */\n      tag_346\n        /* \"contracts/LicenseManager.sol\":11019:11025  signer */\n      dup6\n        /* \"contracts/LicenseManager.sol\":11027:11030  vid */\n      dup6\n        /* \"contracts/LicenseManager.sol\":11032:11041  signature */\n      dup6\n      dup6\n        /* \"contracts/LicenseManager.sol\":11006:11018  verifySigner */\n      tag_130\n        /* \"contracts/LicenseManager.sol\":11006:11042  verifySigner(signer, vid, signature) */\n      jump\t// in\n    tag_346:\n        /* \"contracts/LicenseManager.sol\":10999:11042  return verifySigner(signer, vid, signature) */\n      swap1\n      pop\n        /* \"contracts/LicenseManager.sol\":10844:11049  function _verifyLicensor(... */\n      swap5\n      swap4\n      pop\n      pop\n      pop\n      pop\n      jump\t// out\n        /* \"contracts/LicenseManager.sol\":3298:3883  function createLicense(... */\n    tag_195:\n        /* \"contracts/LicenseManager.sol\":3473:3477  true */\n      0x01\n        /* \"contracts/LicenseManager.sol\":3444:3459  _licenseCreated */\n      0x05\n        /* \"contracts/LicenseManager.sol\":3444:3470  _licenseCreated[licenseId] */\n      0x00\n        /* \"contracts/LicenseManager.sol\":3460:3469  licenseId */\n      dup4\n        /* \"contracts/LicenseManager.sol\":3444:3470  _licenseCreated[licenseId] */\n      dup2\n      mstore\n      0x20\n      add\n      swap1\n      dup2\n      mstore\n      0x20\n      add\n      0x00\n      keccak256\n      0x00\n        /* \"contracts/LicenseManager.sol\":3444:3477  _licenseCreated[licenseId] = true */\n      0x0100\n      exp\n      dup2\n      sload\n      dup2\n      0xff\n      mul\n      not\n      and\n      swap1\n      dup4\n      iszero\n      iszero\n      mul\n      or\n      swap1\n      sstore\n      pop\n        /* \"contracts/LicenseManager.sol\":3518:3522  true */\n      0x01\n        /* \"contracts/LicenseManager.sol\":3487:3504  _licenseActivated */\n      0x06\n        /* \"contracts/LicenseManager.sol\":3487:3515  _licenseActivated[licenseId] */\n      0x00\n        /* \"contracts/LicenseManager.sol\":3505:3514  licenseId */\n      dup4\n        /* \"contracts/LicenseManager.sol\":3487:3515  _licenseActivated[licenseId] */\n      dup2\n      mstore\n      0x20\n      add\n      swap1\n      dup2\n      mstore\n      0x20\n      add\n      0x00\n      keccak256\n      0x00\n        /* \"contracts/LicenseManager.sol\":3487:3522  _licenseActivated[licenseId] = true */\n      0x0100\n      exp\n      dup2\n      sload\n      dup2\n      0xff\n      mul\n      not\n      and\n      swap1\n      dup4\n      iszero\n      iszero\n      mul\n      or\n      swap1\n      sstore\n      pop\n        /* \"contracts/LicenseManager.sol\":3576:3589  uint256 count */\n      0x00\n        /* \"contracts/LicenseManager.sol\":3592:3611  _videoLicenseCounts */\n      0x03\n        /* \"contracts/LicenseManager.sol\":3612:3615  vid */\n      dup6\n        /* \"contracts/LicenseManager.sol\":3592:3616  _videoLicenseCounts[vid] */\n      mload(0x40)\n      tag_348\n      swap2\n      swap1\n      tag_158\n      jump\t// in\n    tag_348:\n      swap1\n      dup2\n      mstore\n      0x20\n      add\n      mload(0x40)\n      dup1\n      swap2\n      sub\n      swap1\n      keccak256\n      sload\n        /* \"contracts/LicenseManager.sol\":3576:3616  uint256 count = _videoLicenseCounts[vid] */\n      swap1\n      pop\n        /* \"contracts/LicenseManager.sol\":3657:3666  licenseId */\n      dup2\n        /* \"contracts/LicenseManager.sol\":3626:3642  _videoLicenseIDs */\n      0x04\n        /* \"contracts/LicenseManager.sol\":3643:3646  vid */\n      dup7\n        /* \"contracts/LicenseManager.sol\":3626:3647  _videoLicenseIDs[vid] */\n      mload(0x40)\n      tag_349\n      swap2\n      swap1\n      tag_158\n      jump\t// in\n    tag_349:\n      swap1\n      dup2\n      mstore\n      0x20\n      add\n      mload(0x40)\n      dup1\n      swap2\n      sub\n      swap1\n      keccak256\n        /* \"contracts/LicenseManager.sol\":3626:3654  _videoLicenseIDs[vid][count] */\n      0x00\n        /* \"contracts/LicenseManager.sol\":3648:3653  count */\n      dup4\n        /* \"contracts/LicenseManager.sol\":3626:3654  _videoLicenseIDs[vid][count] */\n      dup2\n      mstore\n      0x20\n      add\n      swap1\n      dup2\n      mstore\n      0x20\n      add\n      0x00\n      keccak256\n        /* \"contracts/LicenseManager.sol\":3626:3666  _videoLicenseIDs[vid][count] = licenseId */\n      dup2\n      swap1\n      sstore\n      pop\n        /* \"contracts/LicenseManager.sol\":3711:3712  1 */\n      0x01\n        /* \"contracts/LicenseManager.sol\":3703:3708  count */\n      dup2\n        /* \"contracts/LicenseManager.sol\":3703:3712  count + 1 */\n      tag_350\n      swap2\n      swap1\n      tag_351\n      jump\t// in\n    tag_350:\n        /* \"contracts/LicenseManager.sol\":3676:3695  _videoLicenseCounts */\n      0x03\n        /* \"contracts/LicenseManager.sol\":3696:3699  vid */\n      dup7\n        /* \"contracts/LicenseManager.sol\":3676:3700  _videoLicenseCounts[vid] */\n      mload(0x40)\n      tag_352\n      swap2\n      swap1\n      tag_158\n      jump\t// in\n    tag_352:\n      swap1\n      dup2\n      mstore\n      0x20\n      add\n      mload(0x40)\n      dup1\n      swap2\n      sub\n      swap1\n      keccak256\n        /* \"contracts/LicenseManager.sol\":3676:3712  _videoLicenseCounts[vid] = count + 1 */\n      dup2\n      swap1\n      sstore\n      pop\n        /* \"contracts/LicenseManager.sol\":3781:3784  vid */\n      dup5\n        /* \"contracts/LicenseManager.sol\":3753:3767  _licenseVideos */\n      0x07\n        /* \"contracts/LicenseManager.sol\":3753:3778  _licenseVideos[licenseId] */\n      0x00\n        /* \"contracts/LicenseManager.sol\":3768:3777  licenseId */\n      dup5\n        /* \"contracts/LicenseManager.sol\":3753:3778  _licenseVideos[licenseId] */\n      dup2\n      mstore\n      0x20\n      add\n      swap1\n      dup2\n      mstore\n      0x20\n      add\n      0x00\n      keccak256\n        /* \"contracts/LicenseManager.sol\":3753:3784  _licenseVideos[licenseId] = vid */\n      swap1\n      dup2\n      tag_353\n      swap2\n      swap1\n      tag_354\n      jump\t// in\n    tag_353:\n      pop\n        /* \"contracts/LicenseManager.sol\":3822:3827  price */\n      dup3\n        /* \"contracts/LicenseManager.sol\":3794:3808  _licensePrices */\n      0x08\n        /* \"contracts/LicenseManager.sol\":3794:3819  _licensePrices[licenseId] */\n      0x00\n        /* \"contracts/LicenseManager.sol\":3809:3818  licenseId */\n      dup5\n        /* \"contracts/LicenseManager.sol\":3794:3819  _licensePrices[licenseId] */\n      dup2\n      mstore\n      0x20\n      add\n      swap1\n      dup2\n      mstore\n      0x20\n      add\n      0x00\n      keccak256\n        /* \"contracts/LicenseManager.sol\":3794:3827  _licensePrices[licenseId] = price */\n      dup2\n      swap1\n      sstore\n      pop\n        /* \"contracts/LicenseManager.sol\":3868:3876  template */\n      dup4\n        /* \"contracts/LicenseManager.sol\":3837:3854  _licenseTemplates */\n      0x09\n        /* \"contracts/LicenseManager.sol\":3837:3865  _licenseTemplates[licenseId] */\n      0x00\n        /* \"contracts/LicenseManager.sol\":3855:3864  licenseId */\n      dup5\n        /* \"contracts/LicenseManager.sol\":3837:3865  _licenseTemplates[licenseId] */\n      dup2\n      mstore\n      0x20\n      add\n      swap1\n      dup2\n      mstore\n      0x20\n      add\n      0x00\n      keccak256\n      0x00\n        /* \"contracts/LicenseManager.sol\":3837:3876  _licenseTemplates[licenseId] = template */\n      0x0100\n      exp\n      dup2\n      sload\n      dup2\n      0xffffffffffffffffffffffffffffffffffffffff\n      mul\n      not\n      and\n      swap1\n      dup4\n      0xffffffffffffffffffffffffffffffffffffffff\n      and\n      mul\n      or\n      swap1\n      sstore\n      pop\n        /* \"contracts/LicenseManager.sol\":3434:3883  {... */\n      pop\n        /* \"contracts/LicenseManager.sol\":3298:3883  function createLicense(... */\n      pop\n      pop\n      pop\n      pop\n      jump\t// out\n        /* \"contracts/LicenseManager.sol\":9008:9310  function _ecrecover(... */\n    tag_255:\n        /* \"contracts/LicenseManager.sol\":9143:9150  address */\n      0x00\n        /* \"contracts/LicenseManager.sol\":9162:9176  bytes32 digest */\n      dup1\n        /* \"contracts/LicenseManager.sol\":9179:9203  _getMessageHash(message) */\n      tag_356\n        /* \"contracts/LicenseManager.sol\":9195:9202  message */\n      dup7\n        /* \"contracts/LicenseManager.sol\":9179:9194  _getMessageHash */\n      tag_329\n        /* \"contracts/LicenseManager.sol\":9179:9203  _getMessageHash(message) */\n      jump\t// in\n    tag_356:\n        /* \"contracts/LicenseManager.sol\":9162:9203  bytes32 digest = _getMessageHash(message) */\n      swap1\n      pop\n        /* \"contracts/LicenseManager.sol\":9277:9303  ecrecover(digest, v, r, s) */\n      0x01\n        /* \"contracts/LicenseManager.sol\":9287:9293  digest */\n      dup2\n        /* \"contracts/LicenseManager.sol\":9295:9296  v */\n      dup7\n        /* \"contracts/LicenseManager.sol\":9298:9299  r */\n      dup7\n        /* \"contracts/LicenseManager.sol\":9301:9302  s */\n      dup7\n        /* \"contracts/LicenseManager.sol\":9277:9303  ecrecover(digest, v, r, s) */\n      mload(0x40)\n      0x00\n      dup2\n      mstore\n      0x20\n      add\n      0x40\n      mstore\n      mload(0x40)\n      tag_357\n      swap5\n      swap4\n      swap3\n      swap2\n      swap1\n      tag_358\n      jump\t// in\n    tag_357:\n      0x20\n      mload(0x40)\n      0x20\n      dup2\n      sub\n      swap1\n      dup1\n      dup5\n      sub\n      swap1\n      dup6\n      gas\n      staticcall\n      iszero\n      dup1\n      iszero\n      tag_360\n      jumpi\n      returndatasize\n      0x00\n      dup1\n      returndatacopy\n      revert(0x00, returndatasize)\n    tag_360:\n      pop\n      pop\n      pop\n      mload(sub(mload(0x40), 0x20))\n        /* \"contracts/LicenseManager.sol\":9270:9303  return ecrecover(digest, v, r, s) */\n      swap2\n      pop\n      pop\n        /* \"contracts/LicenseManager.sol\":9008:9310  function _ecrecover(... */\n      swap5\n      swap4\n      pop\n      pop\n      pop\n      pop\n      jump\t// out\n        /* \"contracts/LicenseManager.sol\":11055:11292  function _verifyLicensee(... */\n    tag_294:\n        /* \"contracts/LicenseManager.sol\":11190:11194  bool */\n      0x00\n        /* \"contracts/LicenseManager.sol\":11213:11285  verifySigner(signer, Strings.toString(LID.unwrap(licenseId)), signature) */\n      tag_362\n        /* \"contracts/LicenseManager.sol\":11226:11232  signer */\n      dup6\n        /* \"contracts/LicenseManager.sol\":11234:11273  Strings.toString(LID.unwrap(licenseId)) */\n      tag_363\n        /* \"contracts/LicenseManager.sol\":11262:11271  licenseId */\n      dup7\n        /* \"contracts/LicenseManager.sol\":11234:11250  Strings.toString */\n      tag_364\n        /* \"contracts/LicenseManager.sol\":11234:11273  Strings.toString(LID.unwrap(licenseId)) */\n      jump\t// in\n    tag_363:\n        /* \"contracts/LicenseManager.sol\":11275:11284  signature */\n      dup6\n      dup6\n        /* \"contracts/LicenseManager.sol\":11213:11225  verifySigner */\n      tag_130\n        /* \"contracts/LicenseManager.sol\":11213:11285  verifySigner(signer, Strings.toString(LID.unwrap(licenseId)), signature) */\n      jump\t// in\n    tag_362:\n        /* \"contracts/LicenseManager.sol\":11206:11285  return verifySigner(signer, Strings.toString(LID.unwrap(licenseId)), signature) */\n      swap1\n      pop\n        /* \"contracts/LicenseManager.sol\":11055:11292  function _verifyLicensee(... */\n      swap5\n      swap4\n      pop\n      pop\n      pop\n      pop\n      jump\t// out\n        /* \"contracts/LicenseManager.sol\":8553:8979  function _getMessageHash(string memory message) internal pure returns (bytes32) {... */\n    tag_329:\n        /* \"contracts/LicenseManager.sol\":8624:8631  bytes32 */\n      0x00\n        /* \"contracts/LicenseManager.sol\":8691:8719  bytes memory prefixedMessage */\n      dup1\n        /* \"contracts/LicenseManager.sol\":8798:8825  itoa(bytes(message).length) */\n      tag_366\n        /* \"contracts/LicenseManager.sol\":8809:8816  message */\n      dup4\n        /* \"contracts/LicenseManager.sol\":8803:8824  bytes(message).length */\n      mload\n        /* \"contracts/LicenseManager.sol\":8798:8802  itoa */\n      tag_367\n        /* \"contracts/LicenseManager.sol\":8798:8825  itoa(bytes(message).length) */\n      jump\t// in\n    tag_366:\n        /* \"contracts/LicenseManager.sol\":8839:8846  message */\n      dup4\n        /* \"contracts/LicenseManager.sol\":8722:8856  abi.encodePacked(... */\n      add(0x20, mload(0x40))\n      tag_368\n      swap3\n      swap2\n      swap1\n      tag_369\n      jump\t// in\n    tag_368:\n      mload(0x40)\n      0x20\n      dup2\n      dup4\n      sub\n      sub\n      dup2\n      mstore\n      swap1\n      0x40\n      mstore\n        /* \"contracts/LicenseManager.sol\":8691:8856  bytes memory prefixedMessage = abi.encodePacked(... */\n      swap1\n      pop\n        /* \"contracts/LicenseManager.sol\":8905:8919  bytes32 digest */\n      0x00\n        /* \"contracts/LicenseManager.sol\":8932:8947  prefixedMessage */\n      dup2\n        /* \"contracts/LicenseManager.sol\":8922:8948  keccak256(prefixedMessage) */\n      dup1\n      mload\n      swap1\n      0x20\n      add\n      keccak256\n        /* \"contracts/LicenseManager.sol\":8905:8948  bytes32 digest = keccak256(prefixedMessage) */\n      swap1\n      pop\n        /* \"contracts/LicenseManager.sol\":8966:8972  digest */\n      dup1\n        /* \"contracts/LicenseManager.sol\":8959:8972  return digest */\n      swap3\n      pop\n      pop\n      pop\n        /* \"contracts/LicenseManager.sol\":8553:8979  function _getMessageHash(string memory message) internal pure returns (bytes32) {... */\n      swap2\n      swap1\n      pop\n      jump\t// out\n        /* \"@openzeppelin/contracts/utils/Strings.sol\":637:1335  function toString(uint256 value) internal pure returns (string memory) {... */\n    tag_364:\n        /* \"@openzeppelin/contracts/utils/Strings.sol\":693:706  string memory */\n      0x60\n        /* \"@openzeppelin/contracts/utils/Strings.sol\":742:756  uint256 length */\n      0x00\n        /* \"@openzeppelin/contracts/utils/Strings.sol\":779:780  1 */\n      0x01\n        /* \"@openzeppelin/contracts/utils/Strings.sol\":759:776  Math.log10(value) */\n      tag_371\n        /* \"@openzeppelin/contracts/utils/Strings.sol\":770:775  value */\n      dup5\n        /* \"@openzeppelin/contracts/utils/Strings.sol\":759:769  Math.log10 */\n      tag_372\n        /* \"@openzeppelin/contracts/utils/Strings.sol\":759:776  Math.log10(value) */\n      jump\t// in\n    tag_371:\n        /* \"@openzeppelin/contracts/utils/Strings.sol\":759:780  Math.log10(value) + 1 */\n      add\n        /* \"@openzeppelin/contracts/utils/Strings.sol\":742:780  uint256 length = Math.log10(value) + 1 */\n      swap1\n      pop\n        /* \"@openzeppelin/contracts/utils/Strings.sol\":794:814  string memory buffer */\n      0x00\n        /* \"@openzeppelin/contracts/utils/Strings.sol\":828:834  length */\n      dup2\n        /* \"@openzeppelin/contracts/utils/Strings.sol\":817:835  new string(length) */\n      0xffffffffffffffff\n      dup2\n      gt\n      iszero\n      tag_373\n      jumpi\n      tag_374\n      tag_204\n      jump\t// in\n    tag_374:\n    tag_373:\n      mload(0x40)\n      swap1\n      dup1\n      dup3\n      mstore\n      dup1\n      0x1f\n      add\n      not(0x1f)\n      and\n      0x20\n      add\n      dup3\n      add\n      0x40\n      mstore\n      dup1\n      iszero\n      tag_375\n      jumpi\n      dup2\n      0x20\n      add\n      0x01\n      dup3\n      mul\n      dup1\n      calldatasize\n      dup4\n      calldatacopy\n      dup1\n      dup3\n      add\n      swap2\n      pop\n      pop\n      swap1\n      pop\n    tag_375:\n      pop\n        /* \"@openzeppelin/contracts/utils/Strings.sol\":794:835  string memory buffer = new string(length) */\n      swap1\n      pop\n        /* \"@openzeppelin/contracts/utils/Strings.sol\":849:860  uint256 ptr */\n      0x00\n        /* \"@openzeppelin/contracts/utils/Strings.sol\":975:981  length */\n      dup3\n        /* \"@openzeppelin/contracts/utils/Strings.sol\":971:973  32 */\n      0x20\n        /* \"@openzeppelin/contracts/utils/Strings.sol\":967:982  add(32, length) */\n      add\n        /* \"@openzeppelin/contracts/utils/Strings.sol\":959:965  buffer */\n      dup3\n        /* \"@openzeppelin/contracts/utils/Strings.sol\":955:983  add(buffer, add(32, length)) */\n      add\n        /* \"@openzeppelin/contracts/utils/Strings.sol\":948:983  ptr := add(buffer, add(32, length)) */\n      swap1\n      pop\n        /* \"@openzeppelin/contracts/utils/Strings.sol\":1010:1292  while (true) {... */\n    tag_376:\n        /* \"@openzeppelin/contracts/utils/Strings.sol\":1017:1021  true */\n      0x01\n        /* \"@openzeppelin/contracts/utils/Strings.sol\":1010:1292  while (true) {... */\n      iszero\n      tag_377\n      jumpi\n        /* \"@openzeppelin/contracts/utils/Strings.sol\":1041:1046  ptr-- */\n      dup1\n      dup1\n      0x01\n      swap1\n      sub\n      swap2\n      pop\n      pop\n        /* \"@openzeppelin/contracts/utils/Strings.sol\":1180:1190  HEX_DIGITS */\n      0x3031323334353637383961626364656600000000000000000000000000000000\n        /* \"@openzeppelin/contracts/utils/Strings.sol\":1175:1177  10 */\n      0x0a\n        /* \"@openzeppelin/contracts/utils/Strings.sol\":1168:1173  value */\n      dup7\n        /* \"@openzeppelin/contracts/utils/Strings.sol\":1164:1178  mod(value, 10) */\n      mod\n        /* \"@openzeppelin/contracts/utils/Strings.sol\":1159:1191  byte(mod(value, 10), HEX_DIGITS) */\n      byte\n        /* \"@openzeppelin/contracts/utils/Strings.sol\":1154:1157  ptr */\n      dup2\n        /* \"@openzeppelin/contracts/utils/Strings.sol\":1146:1192  mstore8(ptr, byte(mod(value, 10), HEX_DIGITS)) */\n      mstore8\n        /* \"@openzeppelin/contracts/utils/Strings.sol\":1236:1238  10 */\n      0x0a\n        /* \"@openzeppelin/contracts/utils/Strings.sol\":1227:1238  value /= 10 */\n      dup6\n      dup2\n      tag_378\n      jumpi\n      tag_379\n      tag_380\n      jump\t// in\n    tag_379:\n    tag_378:\n      div\n      swap5\n      pop\n        /* \"@openzeppelin/contracts/utils/Strings.sol\":1269:1270  0 */\n      0x00\n        /* \"@openzeppelin/contracts/utils/Strings.sol\":1260:1265  value */\n      dup6\n        /* \"@openzeppelin/contracts/utils/Strings.sol\":1260:1270  value == 0 */\n      sub\n        /* \"@openzeppelin/contracts/utils/Strings.sol\":1010:1292  while (true) {... */\n      tag_376\n        /* \"@openzeppelin/contracts/utils/Strings.sol\":1256:1277  if (value == 0) break */\n      jumpi\n        /* \"@openzeppelin/contracts/utils/Strings.sol\":1010:1292  while (true) {... */\n    tag_377:\n        /* \"@openzeppelin/contracts/utils/Strings.sol\":1312:1318  buffer */\n      dup2\n        /* \"@openzeppelin/contracts/utils/Strings.sol\":1305:1318  return buffer */\n      swap4\n      pop\n      pop\n      pop\n      pop\n        /* \"@openzeppelin/contracts/utils/Strings.sol\":637:1335  function toString(uint256 value) internal pure returns (string memory) {... */\n      swap2\n      swap1\n      pop\n      jump\t// out\n        /* \"contracts/LicenseManager.sol\":264:902  function itoa(uint256 value) pure returns (string memory) {... */\n    tag_367:\n        /* \"contracts/LicenseManager.sol\":307:320  string memory */\n      0x60\n        /* \"contracts/LicenseManager.sol\":389:403  uint256 length */\n      0x00\n        /* \"contracts/LicenseManager.sol\":406:407  1 */\n      0x01\n        /* \"contracts/LicenseManager.sol\":389:407  uint256 length = 1 */\n      swap1\n      pop\n        /* \"contracts/LicenseManager.sol\":413:422  uint256 v */\n      0x00\n        /* \"contracts/LicenseManager.sol\":425:430  value */\n      dup4\n        /* \"contracts/LicenseManager.sol\":413:430  uint256 v = value */\n      swap1\n      pop\n        /* \"contracts/LicenseManager.sol\":436:484  while ((v /= 10) != 0) {... */\n    tag_383:\n        /* \"contracts/LicenseManager.sol\":456:457  0 */\n      0x00\n        /* \"contracts/LicenseManager.sol\":449:451  10 */\n      0x0a\n        /* \"contracts/LicenseManager.sol\":444:451  v /= 10 */\n      dup3\n      tag_385\n      swap2\n      swap1\n      tag_386\n      jump\t// in\n    tag_385:\n      swap2\n      pop\n      dup2\n        /* \"contracts/LicenseManager.sol\":443:457  (v /= 10) != 0 */\n      eq\n        /* \"contracts/LicenseManager.sol\":436:484  while ((v /= 10) != 0) {... */\n      tag_384\n      jumpi\n        /* \"contracts/LicenseManager.sol\":469:477  length++ */\n      dup2\n      dup1\n      tag_387\n      swap1\n      tag_388\n      jump\t// in\n    tag_387:\n      swap3\n      pop\n      pop\n        /* \"contracts/LicenseManager.sol\":436:484  while ((v /= 10) != 0) {... */\n      jump(tag_383)\n    tag_384:\n        /* \"contracts/LicenseManager.sol\":520:539  bytes memory result */\n      0x00\n        /* \"contracts/LicenseManager.sol\":552:558  length */\n      dup3\n        /* \"contracts/LicenseManager.sol\":542:559  new bytes(length) */\n      0xffffffffffffffff\n      dup2\n      gt\n      iszero\n      tag_389\n      jumpi\n      tag_390\n      tag_204\n      jump\t// in\n    tag_390:\n    tag_389:\n      mload(0x40)\n      swap1\n      dup1\n      dup3\n      mstore\n      dup1\n      0x1f\n      add\n      not(0x1f)\n      and\n      0x20\n      add\n      dup3\n      add\n      0x40\n      mstore\n      dup1\n      iszero\n      tag_391\n      jumpi\n      dup2\n      0x20\n      add\n      0x01\n      dup3\n      mul\n      dup1\n      calldatasize\n      dup4\n      calldatacopy\n      dup1\n      dup3\n      add\n      swap2\n      pop\n      pop\n      swap1\n      pop\n    tag_391:\n      pop\n        /* \"contracts/LicenseManager.sol\":520:559  bytes memory result = new bytes(length) */\n      swap1\n      pop\n        /* \"contracts/LicenseManager.sol\":643:872  while (true) {... */\n    tag_392:\n        /* \"contracts/LicenseManager.sol\":650:654  true */\n      0x01\n        /* \"contracts/LicenseManager.sol\":643:872  while (true) {... */\n      iszero\n      tag_393\n      jumpi\n        /* \"contracts/LicenseManager.sol\":666:674  length-- */\n      dup3\n      dup1\n      tag_394\n      swap1\n      tag_395\n      jump\t// in\n    tag_394:\n      swap4\n      pop\n      pop\n        /* \"contracts/LicenseManager.sol\":781:783  10 */\n      0x0a\n        /* \"contracts/LicenseManager.sol\":773:778  value */\n      dup6\n        /* \"contracts/LicenseManager.sol\":773:783  value % 10 */\n      tag_396\n      swap2\n      swap1\n      tag_397\n      jump\t// in\n    tag_396:\n        /* \"contracts/LicenseManager.sol\":765:769  0x30 */\n      0x30\n        /* \"contracts/LicenseManager.sol\":765:784  0x30 + (value % 10) */\n      tag_398\n      swap2\n      swap1\n      tag_351\n      jump\t// in\n    tag_398:\n        /* \"contracts/LicenseManager.sol\":752:786  bytes1(uint8(0x30 + (value % 10))) */\n      0xf8\n      shl\n        /* \"contracts/LicenseManager.sol\":735:741  result */\n      dup2\n        /* \"contracts/LicenseManager.sol\":742:748  length */\n      dup5\n        /* \"contracts/LicenseManager.sol\":735:749  result[length] */\n      dup2\n      mload\n      dup2\n      lt\n      tag_399\n      jumpi\n      tag_400\n      tag_214\n      jump\t// in\n    tag_400:\n    tag_399:\n      0x20\n      add\n      add\n        /* \"contracts/LicenseManager.sol\":735:786  result[length] = bytes1(uint8(0x30 + (value % 10))) */\n      swap1\n      not(0xffffffffffffffffffffffffffffffffffffffffffffffffffffffffffffff)\n      and\n      swap1\n      dup2\n      0x00\n      byte\n      swap1\n      mstore8\n      pop\n        /* \"contracts/LicenseManager.sol\":806:808  10 */\n      0x0a\n        /* \"contracts/LicenseManager.sol\":797:808  value /= 10 */\n      dup6\n      tag_401\n      swap2\n      swap1\n      tag_386\n      jump\t// in\n    tag_401:\n      swap5\n      pop\n        /* \"contracts/LicenseManager.sol\":833:834  0 */\n      0x00\n        /* \"contracts/LicenseManager.sol\":823:829  length */\n      dup4\n        /* \"contracts/LicenseManager.sol\":823:834  length == 0 */\n      sub\n        /* \"contracts/LicenseManager.sol\":643:872  while (true) {... */\n      tag_392\n        /* \"contracts/LicenseManager.sol\":819:866  if (length == 0) {... */\n      jumpi\n        /* \"contracts/LicenseManager.sol\":643:872  while (true) {... */\n    tag_393:\n        /* \"contracts/LicenseManager.sol\":892:898  result */\n      dup1\n        /* \"contracts/LicenseManager.sol\":878:899  return string(result) */\n      swap4\n      pop\n      pop\n      pop\n      pop\n        /* \"contracts/LicenseManager.sol\":264:902  function itoa(uint256 value) pure returns (string memory) {... */\n      swap2\n      swap1\n      pop\n      jump\t// out\n        /* \"@openzeppelin/contracts/utils/math/Math.sol\":12214:13130  function log10(uint256 value) internal pure returns (uint256) {... */\n    tag_372:\n        /* \"@openzeppelin/contracts/utils/math/Math.sol\":12267:12274  uint256 */\n      0x00\n        /* \"@openzeppelin/contracts/utils/math/Math.sol\":12286:12300  uint256 result */\n      dup1\n        /* \"@openzeppelin/contracts/utils/math/Math.sol\":12303:12304  0 */\n      0x00\n        /* \"@openzeppelin/contracts/utils/math/Math.sol\":12286:12304  uint256 result = 0 */\n      swap1\n      pop\n        /* \"@openzeppelin/contracts/utils/math/Math.sol\":12351:12359  10 ** 64 */\n      0x184f03e93ff9f4daa797ed6e38ed64bf6a1f010000000000000000\n        /* \"@openzeppelin/contracts/utils/math/Math.sol\":12342:12347  value */\n      dup4\n        /* \"@openzeppelin/contracts/utils/math/Math.sol\":12342:12359  value >= 10 ** 64 */\n      lt\n        /* \"@openzeppelin/contracts/utils/math/Math.sol\":12338:12441  if (value >= 10 ** 64) {... */\n      tag_404\n      jumpi\n        /* \"@openzeppelin/contracts/utils/math/Math.sol\":12388:12396  10 ** 64 */\n      0x184f03e93ff9f4daa797ed6e38ed64bf6a1f010000000000000000\n        /* \"@openzeppelin/contracts/utils/math/Math.sol\":12379:12396  value /= 10 ** 64 */\n      dup4\n      dup2\n      tag_405\n      jumpi\n      tag_406\n      tag_380\n      jump\t// in\n    tag_406:\n    tag_405:\n      div\n      swap3\n      pop\n        /* \"@openzeppelin/contracts/utils/math/Math.sol\":12424:12426  64 */\n      0x40\n        /* \"@openzeppelin/contracts/utils/math/Math.sol\":12414:12426  result += 64 */\n      dup2\n      add\n      swap1\n      pop\n        /* \"@openzeppelin/contracts/utils/math/Math.sol\":12338:12441  if (value >= 10 ** 64) {... */\n    tag_404:\n        /* \"@openzeppelin/contracts/utils/math/Math.sol\":12467:12475  10 ** 32 */\n      0x04ee2d6d415b85acef8100000000\n        /* \"@openzeppelin/contracts/utils/math/Math.sol\":12458:12463  value */\n      dup4\n        /* \"@openzeppelin/contracts/utils/math/Math.sol\":12458:12475  value >= 10 ** 32 */\n      lt\n        /* \"@openzeppelin/contracts/utils/math/Math.sol\":12454:12557  if (value >= 10 ** 32) {... */\n      tag_407\n      jumpi\n        /* \"@openzeppelin/contracts/utils/math/Math.sol\":12504:12512  10 ** 32 */\n      0x04ee2d6d415b85acef8100000000\n        /* \"@openzeppelin/contracts/utils/math/Math.sol\":12495:12512  value /= 10 ** 32 */\n      dup4\n      dup2\n      tag_408\n      jumpi\n      tag_409\n      tag_380\n      jump\t// in\n    tag_409:\n    tag_408:\n      div\n      swap3\n      pop\n        /* \"@openzeppelin/contracts/utils/math/Math.sol\":12540:12542  32 */\n      0x20\n        /* \"@openzeppelin/contracts/utils/math/Math.sol\":12530:12542  result += 32 */\n      dup2\n      add\n      swap1\n      pop\n        /* \"@openzeppelin/contracts/utils/math/Math.sol\":12454:12557  if (value >= 10 ** 32) {... */\n    tag_407:\n        /* \"@openzeppelin/contracts/utils/math/Math.sol\":12583:12591  10 ** 16 */\n      0x2386f26fc10000\n        /* \"@openzeppelin/contracts/utils/math/Math.sol\":12574:12579  value */\n      dup4\n        /* \"@openzeppelin/contracts/utils/math/Math.sol\":12574:12591  value >= 10 ** 16 */\n      lt\n        /* \"@openzeppelin/contracts/utils/math/Math.sol\":12570:12673  if (value >= 10 ** 16) {... */\n      tag_410\n      jumpi\n        /* \"@openzeppelin/contracts/utils/math/Math.sol\":12620:12628  10 ** 16 */\n      0x2386f26fc10000\n        /* \"@openzeppelin/contracts/utils/math/Math.sol\":12611:12628  value /= 10 ** 16 */\n      dup4\n      dup2\n      tag_411\n      jumpi\n      tag_412\n      tag_380\n      jump\t// in\n    tag_412:\n    tag_411:\n      div\n      swap3\n      pop\n        /* \"@openzeppelin/contracts/utils/math/Math.sol\":12656:12658  16 */\n      0x10\n        /* \"@openzeppelin/contracts/utils/math/Math.sol\":12646:12658  result += 16 */\n      dup2\n      add\n      swap1\n      pop\n        /* \"@openzeppelin/contracts/utils/math/Math.sol\":12570:12673  if (value >= 10 ** 16) {... */\n    tag_410:\n        /* \"@openzeppelin/contracts/utils/math/Math.sol\":12699:12706  10 ** 8 */\n      0x05f5e100\n        /* \"@openzeppelin/contracts/utils/math/Math.sol\":12690:12695  value */\n      dup4\n        /* \"@openzeppelin/contracts/utils/math/Math.sol\":12690:12706  value >= 10 ** 8 */\n      lt\n        /* \"@openzeppelin/contracts/utils/math/Math.sol\":12686:12786  if (value >= 10 ** 8) {... */\n      tag_413\n      jumpi\n        /* \"@openzeppelin/contracts/utils/math/Math.sol\":12735:12742  10 ** 8 */\n      0x05f5e100\n        /* \"@openzeppelin/contracts/utils/math/Math.sol\":12726:12742  value /= 10 ** 8 */\n      dup4\n      dup2\n      tag_414\n      jumpi\n      tag_415\n      tag_380\n      jump\t// in\n    tag_415:\n    tag_414:\n      div\n      swap3\n      pop\n        /* \"@openzeppelin/contracts/utils/math/Math.sol\":12770:12771  8 */\n      0x08\n        /* \"@openzeppelin/contracts/utils/math/Math.sol\":12760:12771  result += 8 */\n      dup2\n      add\n      swap1\n      pop\n        /* \"@openzeppelin/contracts/utils/math/Math.sol\":12686:12786  if (value >= 10 ** 8) {... */\n    tag_413:\n        /* \"@openzeppelin/contracts/utils/math/Math.sol\":12812:12819  10 ** 4 */\n      0x2710\n        /* \"@openzeppelin/contracts/utils/math/Math.sol\":12803:12808  value */\n      dup4\n        /* \"@openzeppelin/contracts/utils/math/Math.sol\":12803:12819  value >= 10 ** 4 */\n      lt\n        /* \"@openzeppelin/contracts/utils/math/Math.sol\":12799:12899  if (value >= 10 ** 4) {... */\n      tag_416\n      jumpi\n        /* \"@openzeppelin/contracts/utils/math/Math.sol\":12848:12855  10 ** 4 */\n      0x2710\n        /* \"@openzeppelin/contracts/utils/math/Math.sol\":12839:12855  value /= 10 ** 4 */\n      dup4\n      dup2\n      tag_417\n      jumpi\n      tag_418\n      tag_380\n      jump\t// in\n    tag_418:\n    tag_417:\n      div\n      swap3\n      pop\n        /* \"@openzeppelin/contracts/utils/math/Math.sol\":12883:12884  4 */\n      0x04\n        /* \"@openzeppelin/contracts/utils/math/Math.sol\":12873:12884  result += 4 */\n      dup2\n      add\n      swap1\n      pop\n        /* \"@openzeppelin/contracts/utils/math/Math.sol\":12799:12899  if (value >= 10 ** 4) {... */\n    tag_416:\n        /* \"@openzeppelin/contracts/utils/math/Math.sol\":12925:12932  10 ** 2 */\n      0x64\n        /* \"@openzeppelin/contracts/utils/math/Math.sol\":12916:12921  value */\n      dup4\n        /* \"@openzeppelin/contracts/utils/math/Math.sol\":12916:12932  value >= 10 ** 2 */\n      lt\n        /* \"@openzeppelin/contracts/utils/math/Math.sol\":12912:13012  if (value >= 10 ** 2) {... */\n      tag_419\n      jumpi\n        /* \"@openzeppelin/contracts/utils/math/Math.sol\":12961:12968  10 ** 2 */\n      0x64\n        /* \"@openzeppelin/contracts/utils/math/Math.sol\":12952:12968  value /= 10 ** 2 */\n      dup4\n      dup2\n      tag_420\n      jumpi\n      tag_421\n      tag_380\n      jump\t// in\n    tag_421:\n    tag_420:\n      div\n      swap3\n      pop\n        /* \"@openzeppelin/contracts/utils/math/Math.sol\":12996:12997  2 */\n      0x02\n        /* \"@openzeppelin/contracts/utils/math/Math.sol\":12986:12997  result += 2 */\n      dup2\n      add\n      swap1\n      pop\n        /* \"@openzeppelin/contracts/utils/math/Math.sol\":12912:13012  if (value >= 10 ** 2) {... */\n    tag_419:\n        /* \"@openzeppelin/contracts/utils/math/Math.sol\":13038:13045  10 ** 1 */\n      0x0a\n        /* \"@openzeppelin/contracts/utils/math/Math.sol\":13029:13034  value */\n      dup4\n        /* \"@openzeppelin/contracts/utils/math/Math.sol\":13029:13045  value >= 10 ** 1 */\n      lt\n        /* \"@openzeppelin/contracts/utils/math/Math.sol\":13025:13091  if (value >= 10 ** 1) {... */\n      tag_422\n      jumpi\n        /* \"@openzeppelin/contracts/utils/math/Math.sol\":13075:13076  1 */\n      0x01\n        /* \"@openzeppelin/contracts/utils/math/Math.sol\":13065:13076  result += 1 */\n      dup2\n      add\n      swap1\n      pop\n        /* \"@openzeppelin/contracts/utils/math/Math.sol\":13025:13091  if (value >= 10 ** 1) {... */\n    tag_422:\n        /* \"@openzeppelin/contracts/utils/math/Math.sol\":13117:13123  result */\n      dup1\n        /* \"@openzeppelin/contracts/utils/math/Math.sol\":13110:13123  return result */\n      swap2\n      pop\n      pop\n        /* \"@openzeppelin/contracts/utils/math/Math.sol\":12214:13130  function log10(uint256 value) internal pure returns (uint256) {... */\n      swap2\n      swap1\n      pop\n      jump\t// out\n        /* \"#utility.yul\":7:106   */\n    tag_423:\n        /* \"#utility.yul\":59:65   */\n      0x00\n        /* \"#utility.yul\":93:98   */\n      dup2\n        /* \"#utility.yul\":87:99   */\n      mload\n        /* \"#utility.yul\":77:99   */\n      swap1\n      pop\n        /* \"#utility.yul\":7:106   */\n      swap2\n      swap1\n      pop\n      jump\t// out\n        /* \"#utility.yul\":112:281   */\n    tag_424:\n        /* \"#utility.yul\":196:207   */\n      0x00\n        /* \"#utility.yul\":230:236   */\n      dup3\n        /* \"#utility.yul\":225:228   */\n      dup3\n        /* \"#utility.yul\":218:237   */\n      mstore\n        /* \"#utility.yul\":270:274   */\n      0x20\n        /* \"#utility.yul\":265:268   */\n      dup3\n        /* \"#utility.yul\":261:275   */\n      add\n        /* \"#utility.yul\":246:275   */\n      swap1\n      pop\n        /* \"#utility.yul\":112:281   */\n      swap3\n      swap2\n      pop\n      pop\n      jump\t// out\n        /* \"#utility.yul\":287:426   */\n    tag_425:\n        /* \"#utility.yul\":376:382   */\n      dup3\n        /* \"#utility.yul\":371:374   */\n      dup2\n        /* \"#utility.yul\":366:369   */\n      dup4\n        /* \"#utility.yul\":360:383   */\n      mcopy\n        /* \"#utility.yul\":417:418   */\n      0x00\n        /* \"#utility.yul\":408:414   */\n      dup4\n        /* \"#utility.yul\":403:406   */\n      dup4\n        /* \"#utility.yul\":399:415   */\n      add\n        /* \"#utility.yul\":392:419   */\n      mstore\n        /* \"#utility.yul\":287:426   */\n      pop\n      pop\n      pop\n      jump\t// out\n        /* \"#utility.yul\":432:534   */\n    tag_426:\n        /* \"#utility.yul\":473:479   */\n      0x00\n        /* \"#utility.yul\":524:526   */\n      0x1f\n        /* \"#utility.yul\":520:527   */\n      not\n        /* \"#utility.yul\":515:517   */\n      0x1f\n        /* \"#utility.yul\":508:513   */\n      dup4\n        /* \"#utility.yul\":504:518   */\n      add\n        /* \"#utility.yul\":500:528   */\n      and\n        /* \"#utility.yul\":490:528   */\n      swap1\n      pop\n        /* \"#utility.yul\":432:534   */\n      swap2\n      swap1\n      pop\n      jump\t// out\n        /* \"#utility.yul\":540:917   */\n    tag_427:\n        /* \"#utility.yul\":628:631   */\n      0x00\n        /* \"#utility.yul\":656:695   */\n      tag_537\n        /* \"#utility.yul\":689:694   */\n      dup3\n        /* \"#utility.yul\":656:695   */\n      tag_423\n      jump\t// in\n    tag_537:\n        /* \"#utility.yul\":711:782   */\n      tag_538\n        /* \"#utility.yul\":775:781   */\n      dup2\n        /* \"#utility.yul\":770:773   */\n      dup6\n        /* \"#utility.yul\":711:782   */\n      tag_424\n      jump\t// in\n    tag_538:\n        /* \"#utility.yul\":704:782   */\n      swap4\n      pop\n        /* \"#utility.yul\":791:856   */\n      tag_539\n        /* \"#utility.yul\":849:855   */\n      dup2\n        /* \"#utility.yul\":844:847   */\n      dup6\n        /* \"#utility.yul\":837:841   */\n      0x20\n        /* \"#utility.yul\":830:835   */\n      dup7\n        /* \"#utility.yul\":826:842   */\n      add\n        /* \"#utility.yul\":791:856   */\n      tag_425\n      jump\t// in\n    tag_539:\n        /* \"#utility.yul\":881:910   */\n      tag_540\n        /* \"#utility.yul\":903:909   */\n      dup2\n        /* \"#utility.yul\":881:910   */\n      tag_426\n      jump\t// in\n    tag_540:\n        /* \"#utility.yul\":876:879   */\n      dup5\n        /* \"#utility.yul\":872:911   */\n      add\n        /* \"#utility.yul\":865:911   */\n      swap2\n      pop\n        /* \"#utility.yul\":632:917   */\n      pop\n        /* \"#utility.yul\":540:917   */\n      swap3\n      swap2\n      pop\n      pop\n      jump\t// out\n        /* \"#utility.yul\":923:1236   */\n    tag_30:\n        /* \"#utility.yul\":1036:1040   */\n      0x00\n        /* \"#utility.yul\":1074:1076   */\n      0x20\n        /* \"#utility.yul\":1063:1072   */\n      dup3\n        /* \"#utility.yul\":1059:1077   */\n      add\n        /* \"#utility.yul\":1051:1077   */\n      swap1\n      pop\n        /* \"#utility.yul\":1123:1132   */\n      dup2\n        /* \"#utility.yul\":1117:1121   */\n      dup2\n        /* \"#utility.yul\":1113:1133   */\n      sub\n        /* \"#utility.yul\":1109:1110   */\n      0x00\n        /* \"#utility.yul\":1098:1107   */\n      dup4\n        /* \"#utility.yul\":1094:1111   */\n      add\n        /* \"#utility.yul\":1087:1134   */\n      mstore\n        /* \"#utility.yul\":1151:1229   */\n      tag_542\n        /* \"#utility.yul\":1224:1228   */\n      dup2\n        /* \"#utility.yul\":1215:1221   */\n      dup5\n        /* \"#utility.yul\":1151:1229   */\n      tag_427\n      jump\t// in\n    tag_542:\n        /* \"#utility.yul\":1143:1229   */\n      swap1\n      pop\n        /* \"#utility.yul\":923:1236   */\n      swap3\n      swap2\n      pop\n      pop\n      jump\t// out\n        /* \"#utility.yul\":1242:1317   */\n    tag_428:\n        /* \"#utility.yul\":1275:1281   */\n      0x00\n        /* \"#utility.yul\":1308:1310   */\n      0x40\n        /* \"#utility.yul\":1302:1311   */\n      mload\n        /* \"#utility.yul\":1292:1311   */\n      swap1\n      pop\n        /* \"#utility.yul\":1242:1317   */\n      swap1\n      jump\t// out\n        /* \"#utility.yul\":1323:1440   */\n    tag_429:\n        /* \"#utility.yul\":1432:1433   */\n      0x00\n        /* \"#utility.yul\":1429:1430   */\n      dup1\n        /* \"#utility.yul\":1422:1434   */\n      revert\n        /* \"#utility.yul\":1446:1563   */\n    tag_430:\n        /* \"#utility.yul\":1555:1556   */\n      0x00\n        /* \"#utility.yul\":1552:1553   */\n      dup1\n        /* \"#utility.yul\":1545:1557   */\n      revert\n        /* \"#utility.yul\":1569:1646   */\n    tag_431:\n        /* \"#utility.yul\":1606:1613   */\n      0x00\n        /* \"#utility.yul\":1635:1640   */\n      dup2\n        /* \"#utility.yul\":1624:1640   */\n      swap1\n      pop\n        /* \"#utility.yul\":1569:1646   */\n      swap2\n      swap1\n      pop\n      jump\t// out\n        /* \"#utility.yul\":1652:1798   */\n    tag_432:\n        /* \"#utility.yul\":1749:1773   */\n      tag_548\n        /* \"#utility.yul\":1767:1772   */\n      dup2\n        /* \"#utility.yul\":1749:1773   */\n      tag_431\n      jump\t// in\n    tag_548:\n        /* \"#utility.yul\":1742:1747   */\n      dup2\n        /* \"#utility.yul\":1739:1774   */\n      eq\n        /* \"#utility.yul\":1729:1792   */\n      tag_549\n      jumpi\n        /* \"#utility.yul\":1788:1789   */\n      0x00\n        /* \"#utility.yul\":1785:1786   */\n      dup1\n        /* \"#utility.yul\":1778:1790   */\n      revert\n        /* \"#utility.yul\":1729:1792   */\n    tag_549:\n        /* \"#utility.yul\":1652:1798   */\n      pop\n      jump\t// out\n        /* \"#utility.yul\":1804:1991   */\n    tag_433:\n        /* \"#utility.yul\":1874:1879   */\n      0x00\n        /* \"#utility.yul\":1912:1918   */\n      dup2\n        /* \"#utility.yul\":1899:1919   */\n      calldataload\n        /* \"#utility.yul\":1890:1919   */\n      swap1\n      pop\n        /* \"#utility.yul\":1928:1985   */\n      tag_551\n        /* \"#utility.yul\":1979:1984   */\n      dup2\n        /* \"#utility.yul\":1928:1985   */\n      tag_432\n      jump\t// in\n    tag_551:\n        /* \"#utility.yul\":1804:1991   */\n      swap3\n      swap2\n      pop\n      pop\n      jump\t// out\n        /* \"#utility.yul\":1997:2374   */\n    tag_34:\n        /* \"#utility.yul\":2080:2086   */\n      0x00\n        /* \"#utility.yul\":2129:2131   */\n      0x20\n        /* \"#utility.yul\":2117:2126   */\n      dup3\n        /* \"#utility.yul\":2108:2115   */\n      dup5\n        /* \"#utility.yul\":2104:2127   */\n      sub\n        /* \"#utility.yul\":2100:2132   */\n      slt\n        /* \"#utility.yul\":2097:2216   */\n      iszero\n      tag_553\n      jumpi\n        /* \"#utility.yul\":2135:2214   */\n      tag_554\n      tag_429\n      jump\t// in\n    tag_554:\n        /* \"#utility.yul\":2097:2216   */\n    tag_553:\n        /* \"#utility.yul\":2255:2256   */\n      0x00\n        /* \"#utility.yul\":2280:2357   */\n      tag_555\n        /* \"#utility.yul\":2349:2356   */\n      dup5\n        /* \"#utility.yul\":2340:2346   */\n      dup3\n        /* \"#utility.yul\":2329:2338   */\n      dup6\n        /* \"#utility.yul\":2325:2347   */\n      add\n        /* \"#utility.yul\":2280:2357   */\n      tag_433\n      jump\t// in\n    tag_555:\n        /* \"#utility.yul\":2270:2357   */\n      swap2\n      pop\n        /* \"#utility.yul\":2226:2367   */\n      pop\n        /* \"#utility.yul\":1997:2374   */\n      swap3\n      swap2\n      pop\n      pop\n      jump\t// out\n        /* \"#utility.yul\":2380:2506   */\n    tag_434:\n        /* \"#utility.yul\":2417:2424   */\n      0x00\n        /* \"#utility.yul\":2457:2499   */\n      0xffffffffffffffffffffffffffffffffffffffff\n        /* \"#utility.yul\":2450:2455   */\n      dup3\n        /* \"#utility.yul\":2446:2500   */\n      and\n        /* \"#utility.yul\":2435:2500   */\n      swap1\n      pop\n        /* \"#utility.yul\":2380:2506   */\n      swap2\n      swap1\n      pop\n      jump\t// out\n        /* \"#utility.yul\":2512:2616   */\n    tag_435:\n        /* \"#utility.yul\":2557:2564   */\n      0x00\n        /* \"#utility.yul\":2586:2610   */\n      tag_558\n        /* \"#utility.yul\":2604:2609   */\n      dup3\n        /* \"#utility.yul\":2586:2610   */\n      tag_434\n      jump\t// in\n    tag_558:\n        /* \"#utility.yul\":2575:2610   */\n      swap1\n      pop\n        /* \"#utility.yul\":2512:2616   */\n      swap2\n      swap1\n      pop\n      jump\t// out\n        /* \"#utility.yul\":2622:2764   */\n    tag_436:\n        /* \"#utility.yul\":2725:2757   */\n      tag_560\n        /* \"#utility.yul\":2751:2756   */\n      dup2\n        /* \"#utility.yul\":2725:2757   */\n      tag_435\n      jump\t// in\n    tag_560:\n        /* \"#utility.yul\":2720:2723   */\n      dup3\n        /* \"#utility.yul\":2713:2758   */\n      mstore\n        /* \"#utility.yul\":2622:2764   */\n      pop\n      pop\n      jump\t// out\n        /* \"#utility.yul\":2770:3024   */\n    tag_37:\n        /* \"#utility.yul\":2879:2883   */\n      0x00\n        /* \"#utility.yul\":2917:2919   */\n      0x20\n        /* \"#utility.yul\":2906:2915   */\n      dup3\n        /* \"#utility.yul\":2902:2920   */\n      add\n        /* \"#utility.yul\":2894:2920   */\n      swap1\n      pop\n        /* \"#utility.yul\":2930:3017   */\n      tag_562\n        /* \"#utility.yul\":3014:3015   */\n      0x00\n        /* \"#utility.yul\":3003:3012   */\n      dup4\n        /* \"#utility.yul\":2999:3016   */\n      add\n        /* \"#utility.yul\":2990:2996   */\n      dup5\n        /* \"#utility.yul\":2930:3017   */\n      tag_436\n      jump\t// in\n    tag_562:\n        /* \"#utility.yul\":2770:3024   */\n      swap3\n      swap2\n      pop\n      pop\n      jump\t// out\n        /* \"#utility.yul\":3030:3147   */\n    tag_437:\n        /* \"#utility.yul\":3139:3140   */\n      0x00\n        /* \"#utility.yul\":3136:3137   */\n      dup1\n        /* \"#utility.yul\":3129:3141   */\n      revert\n        /* \"#utility.yul\":3153:3270   */\n    tag_438:\n        /* \"#utility.yul\":3262:3263   */\n      0x00\n        /* \"#utility.yul\":3259:3260   */\n      dup1\n        /* \"#utility.yul\":3252:3264   */\n      revert\n        /* \"#utility.yul\":3276:3456   */\n    tag_204:\n        /* \"#utility.yul\":3324:3401   */\n      0x4e487b7100000000000000000000000000000000000000000000000000000000\n        /* \"#utility.yul\":3321:3322   */\n      0x00\n        /* \"#utility.yul\":3314:3402   */\n      mstore\n        /* \"#utility.yul\":3421:3425   */\n      0x41\n        /* \"#utility.yul\":3418:3419   */\n      0x04\n        /* \"#utility.yul\":3411:3426   */\n      mstore\n        /* \"#utility.yul\":3445:3449   */\n      0x24\n        /* \"#utility.yul\":3442:3443   */\n      0x00\n        /* \"#utility.yul\":3435:3450   */\n      revert\n        /* \"#utility.yul\":3462:3743   */\n    tag_439:\n        /* \"#utility.yul\":3545:3572   */\n      tag_567\n        /* \"#utility.yul\":3567:3571   */\n      dup3\n        /* \"#utility.yul\":3545:3572   */\n      tag_426\n      jump\t// in\n    tag_567:\n        /* \"#utility.yul\":3537:3543   */\n      dup2\n        /* \"#utility.yul\":3533:3573   */\n      add\n        /* \"#utility.yul\":3675:3681   */\n      dup2\n        /* \"#utility.yul\":3663:3673   */\n      dup2\n        /* \"#utility.yul\":3660:3682   */\n      lt\n        /* \"#utility.yul\":3639:3657   */\n      0xffffffffffffffff\n        /* \"#utility.yul\":3627:3637   */\n      dup3\n        /* \"#utility.yul\":3624:3658   */\n      gt\n        /* \"#utility.yul\":3621:3683   */\n      or\n        /* \"#utility.yul\":3618:3706   */\n      iszero\n      tag_568\n      jumpi\n        /* \"#utility.yul\":3686:3704   */\n      tag_569\n      tag_204\n      jump\t// in\n    tag_569:\n        /* \"#utility.yul\":3618:3706   */\n    tag_568:\n        /* \"#utility.yul\":3726:3736   */\n      dup1\n        /* \"#utility.yul\":3722:3724   */\n      0x40\n        /* \"#utility.yul\":3715:3737   */\n      mstore\n        /* \"#utility.yul\":3505:3743   */\n      pop\n        /* \"#utility.yul\":3462:3743   */\n      pop\n      pop\n      jump\t// out\n        /* \"#utility.yul\":3749:3878   */\n    tag_440:\n        /* \"#utility.yul\":3783:3789   */\n      0x00\n        /* \"#utility.yul\":3810:3830   */\n      tag_571\n      tag_428\n      jump\t// in\n    tag_571:\n        /* \"#utility.yul\":3800:3830   */\n      swap1\n      pop\n        /* \"#utility.yul\":3839:3872   */\n      tag_572\n        /* \"#utility.yul\":3867:3871   */\n      dup3\n        /* \"#utility.yul\":3859:3865   */\n      dup3\n        /* \"#utility.yul\":3839:3872   */\n      tag_439\n      jump\t// in\n    tag_572:\n        /* \"#utility.yul\":3749:3878   */\n      swap2\n      swap1\n      pop\n      jump\t// out\n        /* \"#utility.yul\":3884:4192   */\n    tag_441:\n        /* \"#utility.yul\":3946:3950   */\n      0x00\n        /* \"#utility.yul\":4036:4054   */\n      0xffffffffffffffff\n        /* \"#utility.yul\":4028:4034   */\n      dup3\n        /* \"#utility.yul\":4025:4055   */\n      gt\n        /* \"#utility.yul\":4022:4078   */\n      iszero\n      tag_574\n      jumpi\n        /* \"#utility.yul\":4058:4076   */\n      tag_575\n      tag_204\n      jump\t// in\n    tag_575:\n        /* \"#utility.yul\":4022:4078   */\n    tag_574:\n        /* \"#utility.yul\":4096:4125   */\n      tag_576\n        /* \"#utility.yul\":4118:4124   */\n      dup3\n        /* \"#utility.yul\":4096:4125   */\n      tag_426\n      jump\t// in\n    tag_576:\n        /* \"#utility.yul\":4088:4125   */\n      swap1\n      pop\n        /* \"#utility.yul\":4180:4184   */\n      0x20\n        /* \"#utility.yul\":4174:4178   */\n      dup2\n        /* \"#utility.yul\":4170:4185   */\n      add\n        /* \"#utility.yul\":4162:4185   */\n      swap1\n      pop\n        /* \"#utility.yul\":3884:4192   */\n      swap2\n      swap1\n      pop\n      jump\t// out\n        /* \"#utility.yul\":4198:4346   */\n    tag_442:\n        /* \"#utility.yul\":4296:4302   */\n      dup3\n        /* \"#utility.yul\":4291:4294   */\n      dup2\n        /* \"#utility.yul\":4286:4289   */\n      dup4\n        /* \"#utility.yul\":4273:4303   */\n      calldatacopy\n        /* \"#utility.yul\":4337:4338   */\n      0x00\n        /* \"#utility.yul\":4328:4334   */\n      dup4\n        /* \"#utility.yul\":4323:4326   */\n      dup4\n        /* \"#utility.yul\":4319:4335   */\n      add\n        /* \"#utility.yul\":4312:4339   */\n      mstore\n        /* \"#utility.yul\":4198:4346   */\n      pop\n      pop\n      pop\n      jump\t// out\n        /* \"#utility.yul\":4352:4777   */\n    tag_443:\n        /* \"#utility.yul\":4430:4435   */\n      0x00\n        /* \"#utility.yul\":4455:4521   */\n      tag_579\n        /* \"#utility.yul\":4471:4520   */\n      tag_580\n        /* \"#utility.yul\":4513:4519   */\n      dup5\n        /* \"#utility.yul\":4471:4520   */\n      tag_441\n      jump\t// in\n    tag_580:\n        /* \"#utility.yul\":4455:4521   */\n      tag_440\n      jump\t// in\n    tag_579:\n        /* \"#utility.yul\":4446:4521   */\n      swap1\n      pop\n        /* \"#utility.yul\":4544:4550   */\n      dup3\n        /* \"#utility.yul\":4537:4542   */\n      dup2\n        /* \"#utility.yul\":4530:4551   */\n      mstore\n        /* \"#utility.yul\":4582:4586   */\n      0x20\n        /* \"#utility.yul\":4575:4580   */\n      dup2\n        /* \"#utility.yul\":4571:4587   */\n      add\n        /* \"#utility.yul\":4620:4623   */\n      dup5\n        /* \"#utility.yul\":4611:4617   */\n      dup5\n        /* \"#utility.yul\":4606:4609   */\n      dup5\n        /* \"#utility.yul\":4602:4618   */\n      add\n        /* \"#utility.yul\":4599:4624   */\n      gt\n        /* \"#utility.yul\":4596:4708   */\n      iszero\n      tag_581\n      jumpi\n        /* \"#utility.yul\":4627:4706   */\n      tag_582\n      tag_438\n      jump\t// in\n    tag_582:\n        /* \"#utility.yul\":4596:4708   */\n    tag_581:\n        /* \"#utility.yul\":4717:4771   */\n      tag_583\n        /* \"#utility.yul\":4764:4770   */\n      dup5\n        /* \"#utility.yul\":4759:4762   */\n      dup3\n        /* \"#utility.yul\":4754:4757   */\n      dup6\n        /* \"#utility.yul\":4717:4771   */\n      tag_442\n      jump\t// in\n    tag_583:\n        /* \"#utility.yul\":4436:4777   */\n      pop\n        /* \"#utility.yul\":4352:4777   */\n      swap4\n      swap3\n      pop\n      pop\n      pop\n      jump\t// out\n        /* \"#utility.yul\":4797:5137   */\n    tag_444:\n        /* \"#utility.yul\":4853:4858   */\n      0x00\n        /* \"#utility.yul\":4902:4905   */\n      dup3\n        /* \"#utility.yul\":4895:4899   */\n      0x1f\n        /* \"#utility.yul\":4887:4893   */\n      dup4\n        /* \"#utility.yul\":4883:4900   */\n      add\n        /* \"#utility.yul\":4879:4906   */\n      slt\n        /* \"#utility.yul\":4869:4991   */\n      tag_585\n      jumpi\n        /* \"#utility.yul\":4910:4989   */\n      tag_586\n      tag_437\n      jump\t// in\n    tag_586:\n        /* \"#utility.yul\":4869:4991   */\n    tag_585:\n        /* \"#utility.yul\":5027:5033   */\n      dup2\n        /* \"#utility.yul\":5014:5034   */\n      calldataload\n        /* \"#utility.yul\":5052:5131   */\n      tag_587\n        /* \"#utility.yul\":5127:5130   */\n      dup5\n        /* \"#utility.yul\":5119:5125   */\n      dup3\n        /* \"#utility.yul\":5112:5116   */\n      0x20\n        /* \"#utility.yul\":5104:5110   */\n      dup7\n        /* \"#utility.yul\":5100:5117   */\n      add\n        /* \"#utility.yul\":5052:5131   */\n      tag_443\n      jump\t// in\n    tag_587:\n        /* \"#utility.yul\":5043:5131   */\n      swap2\n      pop\n        /* \"#utility.yul\":4859:5137   */\n      pop\n        /* \"#utility.yul\":4797:5137   */\n      swap3\n      swap2\n      pop\n      pop\n      jump\t// out\n        /* \"#utility.yul\":5143:5281   */\n    tag_445:\n        /* \"#utility.yul\":5224:5256   */\n      tag_589\n        /* \"#utility.yul\":5250:5255   */\n      dup2\n        /* \"#utility.yul\":5224:5256   */\n      tag_435\n      jump\t// in\n    tag_589:\n        /* \"#utility.yul\":5217:5222   */\n      dup2\n        /* \"#utility.yul\":5214:5257   */\n      eq\n        /* \"#utility.yul\":5204:5275   */\n      tag_590\n      jumpi\n        /* \"#utility.yul\":5271:5272   */\n      0x00\n        /* \"#utility.yul\":5268:5269   */\n      dup1\n        /* \"#utility.yul\":5261:5273   */\n      revert\n        /* \"#utility.yul\":5204:5275   */\n    tag_590:\n        /* \"#utility.yul\":5143:5281   */\n      pop\n      jump\t// out\n        /* \"#utility.yul\":5287:5442   */\n    tag_446:\n        /* \"#utility.yul\":5341:5346   */\n      0x00\n        /* \"#utility.yul\":5379:5385   */\n      dup2\n        /* \"#utility.yul\":5366:5386   */\n      calldataload\n        /* \"#utility.yul\":5357:5386   */\n      swap1\n      pop\n        /* \"#utility.yul\":5395:5436   */\n      tag_592\n        /* \"#utility.yul\":5430:5435   */\n      dup2\n        /* \"#utility.yul\":5395:5436   */\n      tag_445\n      jump\t// in\n    tag_592:\n        /* \"#utility.yul\":5287:5442   */\n      swap3\n      swap2\n      pop\n      pop\n      jump\t// out\n        /* \"#utility.yul\":5448:5565   */\n    tag_447:\n        /* \"#utility.yul\":5557:5558   */\n      0x00\n        /* \"#utility.yul\":5554:5555   */\n      dup1\n        /* \"#utility.yul\":5547:5559   */\n      revert\n        /* \"#utility.yul\":5571:5688   */\n    tag_448:\n        /* \"#utility.yul\":5680:5681   */\n      0x00\n        /* \"#utility.yul\":5677:5678   */\n      dup1\n        /* \"#utility.yul\":5670:5682   */\n      revert\n        /* \"#utility.yul\":5707:6259   */\n    tag_449:\n        /* \"#utility.yul\":5764:5772   */\n      0x00\n        /* \"#utility.yul\":5774:5780   */\n      dup1\n        /* \"#utility.yul\":5824:5827   */\n      dup4\n        /* \"#utility.yul\":5817:5821   */\n      0x1f\n        /* \"#utility.yul\":5809:5815   */\n      dup5\n        /* \"#utility.yul\":5805:5822   */\n      add\n        /* \"#utility.yul\":5801:5828   */\n      slt\n        /* \"#utility.yul\":5791:5913   */\n      tag_596\n      jumpi\n        /* \"#utility.yul\":5832:5911   */\n      tag_597\n      tag_437\n      jump\t// in\n    tag_597:\n        /* \"#utility.yul\":5791:5913   */\n    tag_596:\n        /* \"#utility.yul\":5945:5951   */\n      dup3\n        /* \"#utility.yul\":5932:5952   */\n      calldataload\n        /* \"#utility.yul\":5922:5952   */\n      swap1\n      pop\n        /* \"#utility.yul\":5975:5993   */\n      0xffffffffffffffff\n        /* \"#utility.yul\":5967:5973   */\n      dup2\n        /* \"#utility.yul\":5964:5994   */\n      gt\n        /* \"#utility.yul\":5961:6078   */\n      iszero\n      tag_598\n      jumpi\n        /* \"#utility.yul\":5997:6076   */\n      tag_599\n      tag_447\n      jump\t// in\n    tag_599:\n        /* \"#utility.yul\":5961:6078   */\n    tag_598:\n        /* \"#utility.yul\":6111:6115   */\n      0x20\n        /* \"#utility.yul\":6103:6109   */\n      dup4\n        /* \"#utility.yul\":6099:6116   */\n      add\n        /* \"#utility.yul\":6087:6116   */\n      swap2\n      pop\n        /* \"#utility.yul\":6165:6168   */\n      dup4\n        /* \"#utility.yul\":6157:6161   */\n      0x01\n        /* \"#utility.yul\":6149:6155   */\n      dup3\n        /* \"#utility.yul\":6145:6162   */\n      mul\n        /* \"#utility.yul\":6135:6143   */\n      dup4\n        /* \"#utility.yul\":6131:6163   */\n      add\n        /* \"#utility.yul\":6128:6169   */\n      gt\n        /* \"#utility.yul\":6125:6253   */\n      iszero\n      tag_600\n      jumpi\n        /* \"#utility.yul\":6172:6251   */\n      tag_601\n      tag_448\n      jump\t// in\n    tag_601:\n        /* \"#utility.yul\":6125:6253   */\n    tag_600:\n        /* \"#utility.yul\":5707:6259   */\n      swap3\n      pop\n      swap3\n      swap1\n      pop\n      jump\t// out\n        /* \"#utility.yul\":6265:7278   */\n    tag_41:\n        /* \"#utility.yul\":6371:6377   */\n      0x00\n        /* \"#utility.yul\":6379:6385   */\n      dup1\n        /* \"#utility.yul\":6387:6393   */\n      0x00\n        /* \"#utility.yul\":6395:6401   */\n      dup1\n        /* \"#utility.yul\":6444:6446   */\n      0x60\n        /* \"#utility.yul\":6432:6441   */\n      dup6\n        /* \"#utility.yul\":6423:6430   */\n      dup8\n        /* \"#utility.yul\":6419:6442   */\n      sub\n        /* \"#utility.yul\":6415:6447   */\n      slt\n        /* \"#utility.yul\":6412:6531   */\n      iszero\n      tag_603\n      jumpi\n        /* \"#utility.yul\":6450:6529   */\n      tag_604\n      tag_429\n      jump\t// in\n    tag_604:\n        /* \"#utility.yul\":6412:6531   */\n    tag_603:\n        /* \"#utility.yul\":6598:6599   */\n      0x00\n        /* \"#utility.yul\":6587:6596   */\n      dup6\n        /* \"#utility.yul\":6583:6600   */\n      add\n        /* \"#utility.yul\":6570:6601   */\n      calldataload\n        /* \"#utility.yul\":6628:6646   */\n      0xffffffffffffffff\n        /* \"#utility.yul\":6620:6626   */\n      dup2\n        /* \"#utility.yul\":6617:6647   */\n      gt\n        /* \"#utility.yul\":6614:6731   */\n      iszero\n      tag_605\n      jumpi\n        /* \"#utility.yul\":6650:6729   */\n      tag_606\n      tag_430\n      jump\t// in\n    tag_606:\n        /* \"#utility.yul\":6614:6731   */\n    tag_605:\n        /* \"#utility.yul\":6755:6818   */\n      tag_607\n        /* \"#utility.yul\":6810:6817   */\n      dup8\n        /* \"#utility.yul\":6801:6807   */\n      dup3\n        /* \"#utility.yul\":6790:6799   */\n      dup9\n        /* \"#utility.yul\":6786:6808   */\n      add\n        /* \"#utility.yul\":6755:6818   */\n      tag_444\n      jump\t// in\n    tag_607:\n        /* \"#utility.yul\":6745:6818   */\n      swap5\n      pop\n        /* \"#utility.yul\":6541:6828   */\n      pop\n        /* \"#utility.yul\":6867:6869   */\n      0x20\n        /* \"#utility.yul\":6893:6954   */\n      tag_608\n        /* \"#utility.yul\":6946:6953   */\n      dup8\n        /* \"#utility.yul\":6937:6943   */\n      dup3\n        /* \"#utility.yul\":6926:6935   */\n      dup9\n        /* \"#utility.yul\":6922:6944   */\n      add\n        /* \"#utility.yul\":6893:6954   */\n      tag_446\n      jump\t// in\n    tag_608:\n        /* \"#utility.yul\":6883:6954   */\n      swap4\n      pop\n        /* \"#utility.yul\":6838:6964   */\n      pop\n        /* \"#utility.yul\":7031:7033   */\n      0x40\n        /* \"#utility.yul\":7020:7029   */\n      dup6\n        /* \"#utility.yul\":7016:7034   */\n      add\n        /* \"#utility.yul\":7003:7035   */\n      calldataload\n        /* \"#utility.yul\":7062:7080   */\n      0xffffffffffffffff\n        /* \"#utility.yul\":7054:7060   */\n      dup2\n        /* \"#utility.yul\":7051:7081   */\n      gt\n        /* \"#utility.yul\":7048:7165   */\n      iszero\n      tag_609\n      jumpi\n        /* \"#utility.yul\":7084:7163   */\n      tag_610\n      tag_430\n      jump\t// in\n    tag_610:\n        /* \"#utility.yul\":7048:7165   */\n    tag_609:\n        /* \"#utility.yul\":7197:7261   */\n      tag_611\n        /* \"#utility.yul\":7253:7260   */\n      dup8\n        /* \"#utility.yul\":7244:7250   */\n      dup3\n        /* \"#utility.yul\":7233:7242   */\n      dup9\n        /* \"#utility.yul\":7229:7251   */\n      add\n        /* \"#utility.yul\":7197:7261   */\n      tag_449\n      jump\t// in\n    tag_611:\n        /* \"#utility.yul\":7179:7261   */\n      swap3\n      pop\n      swap3\n      pop\n        /* \"#utility.yul\":6974:7271   */\n      pop\n        /* \"#utility.yul\":6265:7278   */\n      swap3\n      swap6\n      swap2\n      swap5\n      pop\n      swap3\n      pop\n      jump\t// out\n        /* \"#utility.yul\":7284:7793   */\n    tag_46:\n        /* \"#utility.yul\":7353:7359   */\n      0x00\n        /* \"#utility.yul\":7402:7404   */\n      0x20\n        /* \"#utility.yul\":7390:7399   */\n      dup3\n        /* \"#utility.yul\":7381:7388   */\n      dup5\n        /* \"#utility.yul\":7377:7400   */\n      sub\n        /* \"#utility.yul\":7373:7405   */\n      slt\n        /* \"#utility.yul\":7370:7489   */\n      iszero\n      tag_613\n      jumpi\n        /* \"#utility.yul\":7408:7487   */\n      tag_614\n      tag_429\n      jump\t// in\n    tag_614:\n        /* \"#utility.yul\":7370:7489   */\n    tag_613:\n        /* \"#utility.yul\":7556:7557   */\n      0x00\n        /* \"#utility.yul\":7545:7554   */\n      dup3\n        /* \"#utility.yul\":7541:7558   */\n      add\n        /* \"#utility.yul\":7528:7559   */\n      calldataload\n        /* \"#utility.yul\":7586:7604   */\n      0xffffffffffffffff\n        /* \"#utility.yul\":7578:7584   */\n      dup2\n        /* \"#utility.yul\":7575:7605   */\n      gt\n        /* \"#utility.yul\":7572:7689   */\n      iszero\n      tag_615\n      jumpi\n        /* \"#utility.yul\":7608:7687   */\n      tag_616\n      tag_430\n      jump\t// in\n    tag_616:\n        /* \"#utility.yul\":7572:7689   */\n    tag_615:\n        /* \"#utility.yul\":7713:7776   */\n      tag_617\n        /* \"#utility.yul\":7768:7775   */\n      dup5\n        /* \"#utility.yul\":7759:7765   */\n      dup3\n        /* \"#utility.yul\":7748:7757   */\n      dup6\n        /* \"#utility.yul\":7744:7766   */\n      add\n        /* \"#utility.yul\":7713:7776   */\n      tag_444\n      jump\t// in\n    tag_617:\n        /* \"#utility.yul\":7703:7776   */\n      swap2\n      pop\n        /* \"#utility.yul\":7499:7786   */\n      pop\n        /* \"#utility.yul\":7284:7793   */\n      swap3\n      swap2\n      pop\n      pop\n      jump\t// out\n        /* \"#utility.yul\":7799:7895   */\n    tag_450:\n        /* \"#utility.yul\":7836:7843   */\n      0x00\n        /* \"#utility.yul\":7865:7889   */\n      tag_619\n        /* \"#utility.yul\":7883:7888   */\n      dup3\n        /* \"#utility.yul\":7865:7889   */\n      tag_434\n      jump\t// in\n    tag_619:\n        /* \"#utility.yul\":7854:7889   */\n      swap1\n      pop\n        /* \"#utility.yul\":7799:7895   */\n      swap2\n      swap1\n      pop\n      jump\t// out\n        /* \"#utility.yul\":7901:8023   */\n    tag_451:\n        /* \"#utility.yul\":7974:7998   */\n      tag_621\n        /* \"#utility.yul\":7992:7997   */\n      dup2\n        /* \"#utility.yul\":7974:7998   */\n      tag_450\n      jump\t// in\n    tag_621:\n        /* \"#utility.yul\":7967:7972   */\n      dup2\n        /* \"#utility.yul\":7964:7999   */\n      eq\n        /* \"#utility.yul\":7954:8017   */\n      tag_622\n      jumpi\n        /* \"#utility.yul\":8013:8014   */\n      0x00\n        /* \"#utility.yul\":8010:8011   */\n      dup1\n        /* \"#utility.yul\":8003:8015   */\n      revert\n        /* \"#utility.yul\":7954:8017   */\n    tag_622:\n        /* \"#utility.yul\":7901:8023   */\n      pop\n      jump\t// out\n        /* \"#utility.yul\":8029:8168   */\n    tag_452:\n        /* \"#utility.yul\":8075:8080   */\n      0x00\n        /* \"#utility.yul\":8113:8119   */\n      dup2\n        /* \"#utility.yul\":8100:8120   */\n      calldataload\n        /* \"#utility.yul\":8091:8120   */\n      swap1\n      pop\n        /* \"#utility.yul\":8129:8162   */\n      tag_624\n        /* \"#utility.yul\":8156:8161   */\n      dup2\n        /* \"#utility.yul\":8129:8162   */\n      tag_451\n      jump\t// in\n    tag_624:\n        /* \"#utility.yul\":8029:8168   */\n      swap3\n      swap2\n      pop\n      pop\n      jump\t// out\n        /* \"#utility.yul\":8174:8503   */\n    tag_57:\n        /* \"#utility.yul\":8233:8239   */\n      0x00\n        /* \"#utility.yul\":8282:8284   */\n      0x20\n        /* \"#utility.yul\":8270:8279   */\n      dup3\n        /* \"#utility.yul\":8261:8268   */\n      dup5\n        /* \"#utility.yul\":8257:8280   */\n      sub\n        /* \"#utility.yul\":8253:8285   */\n      slt\n        /* \"#utility.yul\":8250:8369   */\n      iszero\n      tag_626\n      jumpi\n        /* \"#utility.yul\":8288:8367   */\n      tag_627\n      tag_429\n      jump\t// in\n    tag_627:\n        /* \"#utility.yul\":8250:8369   */\n    tag_626:\n        /* \"#utility.yul\":8408:8409   */\n      0x00\n        /* \"#utility.yul\":8433:8486   */\n      tag_628\n        /* \"#utility.yul\":8478:8485   */\n      dup5\n        /* \"#utility.yul\":8469:8475   */\n      dup3\n        /* \"#utility.yul\":8458:8467   */\n      dup6\n        /* \"#utility.yul\":8454:8476   */\n      add\n        /* \"#utility.yul\":8433:8486   */\n      tag_452\n      jump\t// in\n    tag_628:\n        /* \"#utility.yul\":8423:8486   */\n      swap2\n      pop\n        /* \"#utility.yul\":8379:8496   */\n      pop\n        /* \"#utility.yul\":8174:8503   */\n      swap3\n      swap2\n      pop\n      pop\n      jump\t// out\n        /* \"#utility.yul\":8509:9031   */\n    tag_66:\n        /* \"#utility.yul\":8601:8607   */\n      0x00\n        /* \"#utility.yul\":8609:8615   */\n      dup1\n        /* \"#utility.yul\":8658:8660   */\n      0x40\n        /* \"#utility.yul\":8646:8655   */\n      dup4\n        /* \"#utility.yul\":8637:8644   */\n      dup6\n        /* \"#utility.yul\":8633:8656   */\n      sub\n        /* \"#utility.yul\":8629:8661   */\n      slt\n        /* \"#utility.yul\":8626:8745   */\n      iszero\n      tag_630\n      jumpi\n        /* \"#utility.yul\":8664:8743   */\n      tag_631\n      tag_429\n      jump\t// in\n    tag_631:\n        /* \"#utility.yul\":8626:8745   */\n    tag_630:\n        /* \"#utility.yul\":8784:8785   */\n      0x00\n        /* \"#utility.yul\":8809:8886   */\n      tag_632\n        /* \"#utility.yul\":8878:8885   */\n      dup6\n        /* \"#utility.yul\":8869:8875   */\n      dup3\n        /* \"#utility.yul\":8858:8867   */\n      dup7\n        /* \"#utility.yul\":8854:8876   */\n      add\n        /* \"#utility.yul\":8809:8886   */\n      tag_433\n      jump\t// in\n    tag_632:\n        /* \"#utility.yul\":8799:8886   */\n      swap3\n      pop\n        /* \"#utility.yul\":8755:8896   */\n      pop\n        /* \"#utility.yul\":8935:8937   */\n      0x20\n        /* \"#utility.yul\":8961:9014   */\n      tag_633\n        /* \"#utility.yul\":9006:9013   */\n      dup6\n        /* \"#utility.yul\":8997:9003   */\n      dup3\n        /* \"#utility.yul\":8986:8995   */\n      dup7\n        /* \"#utility.yul\":8982:9004   */\n      add\n        /* \"#utility.yul\":8961:9014   */\n      tag_452\n      jump\t// in\n    tag_633:\n        /* \"#utility.yul\":8951:9014   */\n      swap2\n      pop\n        /* \"#utility.yul\":8906:9024   */\n      pop\n        /* \"#utility.yul\":8509:9031   */\n      swap3\n      pop\n      swap3\n      swap1\n      pop\n      jump\t// out\n        /* \"#utility.yul\":9037:9155   */\n    tag_453:\n        /* \"#utility.yul\":9124:9148   */\n      tag_635\n        /* \"#utility.yul\":9142:9147   */\n      dup2\n        /* \"#utility.yul\":9124:9148   */\n      tag_431\n      jump\t// in\n    tag_635:\n        /* \"#utility.yul\":9119:9122   */\n      dup3\n        /* \"#utility.yul\":9112:9149   */\n      mstore\n        /* \"#utility.yul\":9037:9155   */\n      pop\n      pop\n      jump\t// out\n        /* \"#utility.yul\":9161:9383   */\n    tag_69:\n        /* \"#utility.yul\":9254:9258   */\n      0x00\n        /* \"#utility.yul\":9292:9294   */\n      0x20\n        /* \"#utility.yul\":9281:9290   */\n      dup3\n        /* \"#utility.yul\":9277:9295   */\n      add\n        /* \"#utility.yul\":9269:9295   */\n      swap1\n      pop\n        /* \"#utility.yul\":9305:9376   */\n      tag_637\n        /* \"#utility.yul\":9373:9374   */\n      0x00\n        /* \"#utility.yul\":9362:9371   */\n      dup4\n        /* \"#utility.yul\":9358:9375   */\n      add\n        /* \"#utility.yul\":9349:9355   */\n      dup5\n        /* \"#utility.yul\":9305:9376   */\n      tag_453\n      jump\t// in\n    tag_637:\n        /* \"#utility.yul\":9161:9383   */\n      swap3\n      swap2\n      pop\n      pop\n      jump\t// out\n        /* \"#utility.yul\":9389:9511   */\n    tag_454:\n        /* \"#utility.yul\":9462:9486   */\n      tag_639\n        /* \"#utility.yul\":9480:9485   */\n      dup2\n        /* \"#utility.yul\":9462:9486   */\n      tag_431\n      jump\t// in\n    tag_639:\n        /* \"#utility.yul\":9455:9460   */\n      dup2\n        /* \"#utility.yul\":9452:9487   */\n      eq\n        /* \"#utility.yul\":9442:9505   */\n      tag_640\n      jumpi\n        /* \"#utility.yul\":9501:9502   */\n      0x00\n        /* \"#utility.yul\":9498:9499   */\n      dup1\n        /* \"#utility.yul\":9491:9503   */\n      revert\n        /* \"#utility.yul\":9442:9505   */\n    tag_640:\n        /* \"#utility.yul\":9389:9511   */\n      pop\n      jump\t// out\n        /* \"#utility.yul\":9517:9656   */\n    tag_455:\n        /* \"#utility.yul\":9563:9568   */\n      0x00\n        /* \"#utility.yul\":9601:9607   */\n      dup2\n        /* \"#utility.yul\":9588:9608   */\n      calldataload\n        /* \"#utility.yul\":9579:9608   */\n      swap1\n      pop\n        /* \"#utility.yul\":9617:9650   */\n      tag_642\n        /* \"#utility.yul\":9644:9649   */\n      dup2\n        /* \"#utility.yul\":9617:9650   */\n      tag_454\n      jump\t// in\n    tag_642:\n        /* \"#utility.yul\":9517:9656   */\n      swap3\n      swap2\n      pop\n      pop\n      jump\t// out\n        /* \"#utility.yul\":9662:10655   */\n    tag_73:\n        /* \"#utility.yul\":9782:9788   */\n      0x00\n        /* \"#utility.yul\":9790:9796   */\n      dup1\n        /* \"#utility.yul\":9798:9804   */\n      0x00\n        /* \"#utility.yul\":9806:9812   */\n      dup1\n        /* \"#utility.yul\":9855:9858   */\n      0x80\n        /* \"#utility.yul\":9843:9852   */\n      dup6\n        /* \"#utility.yul\":9834:9841   */\n      dup8\n        /* \"#utility.yul\":9830:9853   */\n      sub\n        /* \"#utility.yul\":9826:9859   */\n      slt\n        /* \"#utility.yul\":9823:9943   */\n      iszero\n      tag_644\n      jumpi\n        /* \"#utility.yul\":9862:9941   */\n      tag_645\n      tag_429\n      jump\t// in\n    tag_645:\n        /* \"#utility.yul\":9823:9943   */\n    tag_644:\n        /* \"#utility.yul\":10010:10011   */\n      0x00\n        /* \"#utility.yul\":9999:10008   */\n      dup6\n        /* \"#utility.yul\":9995:10012   */\n      add\n        /* \"#utility.yul\":9982:10013   */\n      calldataload\n        /* \"#utility.yul\":10040:10058   */\n      0xffffffffffffffff\n        /* \"#utility.yul\":10032:10038   */\n      dup2\n        /* \"#utility.yul\":10029:10059   */\n      gt\n        /* \"#utility.yul\":10026:10143   */\n      iszero\n      tag_646\n      jumpi\n        /* \"#utility.yul\":10062:10141   */\n      tag_647\n      tag_430\n      jump\t// in\n    tag_647:\n        /* \"#utility.yul\":10026:10143   */\n    tag_646:\n        /* \"#utility.yul\":10167:10230   */\n      tag_648\n        /* \"#utility.yul\":10222:10229   */\n      dup8\n        /* \"#utility.yul\":10213:10219   */\n      dup3\n        /* \"#utility.yul\":10202:10211   */\n      dup9\n        /* \"#utility.yul\":10198:10220   */\n      add\n        /* \"#utility.yul\":10167:10230   */\n      tag_444\n      jump\t// in\n    tag_648:\n        /* \"#utility.yul\":10157:10230   */\n      swap5\n      pop\n        /* \"#utility.yul\":9953:10240   */\n      pop\n        /* \"#utility.yul\":10279:10281   */\n      0x20\n        /* \"#utility.yul\":10305:10358   */\n      tag_649\n        /* \"#utility.yul\":10350:10357   */\n      dup8\n        /* \"#utility.yul\":10341:10347   */\n      dup3\n        /* \"#utility.yul\":10330:10339   */\n      dup9\n        /* \"#utility.yul\":10326:10348   */\n      add\n        /* \"#utility.yul\":10305:10358   */\n      tag_452\n      jump\t// in\n    tag_649:\n        /* \"#utility.yul\":10295:10358   */\n      swap4\n      pop\n        /* \"#utility.yul\":10250:10368   */\n      pop\n        /* \"#utility.yul\":10407:10409   */\n      0x40\n        /* \"#utility.yul\":10433:10486   */\n      tag_650\n        /* \"#utility.yul\":10478:10485   */\n      dup8\n        /* \"#utility.yul\":10469:10475   */\n      dup3\n        /* \"#utility.yul\":10458:10467   */\n      dup9\n        /* \"#utility.yul\":10454:10476   */\n      add\n        /* \"#utility.yul\":10433:10486   */\n      tag_455\n      jump\t// in\n    tag_650:\n        /* \"#utility.yul\":10423:10486   */\n      swap3\n      pop\n        /* \"#utility.yul\":10378:10496   */\n      pop\n        /* \"#utility.yul\":10535:10537   */\n      0x60\n        /* \"#utility.yul\":10561:10638   */\n      tag_651\n        /* \"#utility.yul\":10630:10637   */\n      dup8\n        /* \"#utility.yul\":10621:10627   */\n      dup3\n        /* \"#utility.yul\":10610:10619   */\n      dup9\n        /* \"#utility.yul\":10606:10628   */\n      add\n        /* \"#utility.yul\":10561:10638   */\n      tag_433\n      jump\t// in\n    tag_651:\n        /* \"#utility.yul\":10551:10638   */\n      swap2\n      pop\n        /* \"#utility.yul\":10506:10648   */\n      pop\n        /* \"#utility.yul\":9662:10655   */\n      swap3\n      swap6\n      swap2\n      swap5\n      pop\n      swap3\n      pop\n      jump\t// out\n        /* \"#utility.yul\":10661:10799   */\n    tag_456:\n        /* \"#utility.yul\":10752:10758   */\n      0x00\n        /* \"#utility.yul\":10786:10791   */\n      dup2\n        /* \"#utility.yul\":10780:10792   */\n      mload\n        /* \"#utility.yul\":10770:10792   */\n      swap1\n      pop\n        /* \"#utility.yul\":10661:10799   */\n      swap2\n      swap1\n      pop\n      jump\t// out\n        /* \"#utility.yul\":10805:10989   */\n    tag_457:\n        /* \"#utility.yul\":10904:10915   */\n      0x00\n        /* \"#utility.yul\":10938:10944   */\n      dup3\n        /* \"#utility.yul\":10933:10936   */\n      dup3\n        /* \"#utility.yul\":10926:10945   */\n      mstore\n        /* \"#utility.yul\":10978:10982   */\n      0x20\n        /* \"#utility.yul\":10973:10976   */\n      dup3\n        /* \"#utility.yul\":10969:10983   */\n      add\n        /* \"#utility.yul\":10954:10983   */\n      swap1\n      pop\n        /* \"#utility.yul\":10805:10989   */\n      swap3\n      swap2\n      pop\n      pop\n      jump\t// out\n        /* \"#utility.yul\":10995:11151   */\n    tag_458:\n        /* \"#utility.yul\":11086:11090   */\n      0x00\n        /* \"#utility.yul\":11109:11112   */\n      dup2\n        /* \"#utility.yul\":11101:11112   */\n      swap1\n      pop\n        /* \"#utility.yul\":11139:11143   */\n      0x20\n        /* \"#utility.yul\":11134:11137   */\n      dup3\n        /* \"#utility.yul\":11130:11144   */\n      add\n        /* \"#utility.yul\":11122:11144   */\n      swap1\n      pop\n        /* \"#utility.yul\":10995:11151   */\n      swap2\n      swap1\n      pop\n      jump\t// out\n        /* \"#utility.yul\":11157:11217   */\n    tag_459:\n        /* \"#utility.yul\":11185:11188   */\n      0x00\n        /* \"#utility.yul\":11206:11211   */\n      dup2\n        /* \"#utility.yul\":11199:11211   */\n      swap1\n      pop\n        /* \"#utility.yul\":11157:11217   */\n      swap2\n      swap1\n      pop\n      jump\t// out\n        /* \"#utility.yul\":11223:11365   */\n    tag_460:\n        /* \"#utility.yul\":11273:11282   */\n      0x00\n        /* \"#utility.yul\":11306:11359   */\n      tag_657\n        /* \"#utility.yul\":11324:11358   */\n      tag_658\n        /* \"#utility.yul\":11333:11357   */\n      tag_659\n        /* \"#utility.yul\":11351:11356   */\n      dup5\n        /* \"#utility.yul\":11333:11357   */\n      tag_431\n      jump\t// in\n    tag_659:\n        /* \"#utility.yul\":11324:11358   */\n      tag_459\n      jump\t// in\n    tag_658:\n        /* \"#utility.yul\":11306:11359   */\n      tag_431\n      jump\t// in\n    tag_657:\n        /* \"#utility.yul\":11293:11359   */\n      swap1\n      pop\n        /* \"#utility.yul\":11223:11365   */\n      swap2\n      swap1\n      pop\n      jump\t// out\n        /* \"#utility.yul\":11371:11516   */\n    tag_461:\n        /* \"#utility.yul\":11472:11509   */\n      tag_661\n        /* \"#utility.yul\":11503:11508   */\n      dup2\n        /* \"#utility.yul\":11472:11509   */\n      tag_460\n      jump\t// in\n    tag_661:\n        /* \"#utility.yul\":11467:11470   */\n      dup3\n        /* \"#utility.yul\":11460:11510   */\n      mstore\n        /* \"#utility.yul\":11371:11516   */\n      pop\n      pop\n      jump\t// out\n        /* \"#utility.yul\":11522:11749   */\n    tag_462:\n        /* \"#utility.yul\":11615:11625   */\n      0x00\n        /* \"#utility.yul\":11636:11706   */\n      tag_663\n        /* \"#utility.yul\":11702:11705   */\n      dup4\n        /* \"#utility.yul\":11694:11700   */\n      dup4\n        /* \"#utility.yul\":11636:11706   */\n      tag_461\n      jump\t// in\n    tag_663:\n        /* \"#utility.yul\":11738:11742   */\n      0x20\n        /* \"#utility.yul\":11733:11736   */\n      dup4\n        /* \"#utility.yul\":11729:11743   */\n      add\n        /* \"#utility.yul\":11715:11743   */\n      swap1\n      pop\n        /* \"#utility.yul\":11522:11749   */\n      swap3\n      swap2\n      pop\n      pop\n      jump\t// out\n        /* \"#utility.yul\":11755:11892   */\n    tag_463:\n        /* \"#utility.yul\":11849:11853   */\n      0x00\n        /* \"#utility.yul\":11881:11885   */\n      0x20\n        /* \"#utility.yul\":11876:11879   */\n      dup3\n        /* \"#utility.yul\":11872:11886   */\n      add\n        /* \"#utility.yul\":11864:11886   */\n      swap1\n      pop\n        /* \"#utility.yul\":11755:11892   */\n      swap2\n      swap1\n      pop\n      jump\t// out\n        /* \"#utility.yul\":11924:12776   */\n    tag_464:\n        /* \"#utility.yul\":12067:12070   */\n      0x00\n        /* \"#utility.yul\":12096:12174   */\n      tag_666\n        /* \"#utility.yul\":12168:12173   */\n      dup3\n        /* \"#utility.yul\":12096:12174   */\n      tag_456\n      jump\t// in\n    tag_666:\n        /* \"#utility.yul\":12190:12276   */\n      tag_667\n        /* \"#utility.yul\":12269:12275   */\n      dup2\n        /* \"#utility.yul\":12264:12267   */\n      dup6\n        /* \"#utility.yul\":12190:12276   */\n      tag_457\n      jump\t// in\n    tag_667:\n        /* \"#utility.yul\":12183:12276   */\n      swap4\n      pop\n        /* \"#utility.yul\":12300:12380   */\n      tag_668\n        /* \"#utility.yul\":12374:12379   */\n      dup4\n        /* \"#utility.yul\":12300:12380   */\n      tag_458\n      jump\t// in\n    tag_668:\n        /* \"#utility.yul\":12403:12410   */\n      dup1\n        /* \"#utility.yul\":12434:12435   */\n      0x00\n        /* \"#utility.yul\":12419:12751   */\n    tag_669:\n        /* \"#utility.yul\":12444:12450   */\n      dup4\n        /* \"#utility.yul\":12441:12442   */\n      dup2\n        /* \"#utility.yul\":12438:12451   */\n      lt\n        /* \"#utility.yul\":12419:12751   */\n      iszero\n      tag_671\n      jumpi\n        /* \"#utility.yul\":12520:12526   */\n      dup2\n        /* \"#utility.yul\":12514:12527   */\n      mload\n        /* \"#utility.yul\":12547:12634   */\n      tag_672\n        /* \"#utility.yul\":12630:12633   */\n      dup9\n        /* \"#utility.yul\":12615:12628   */\n      dup3\n        /* \"#utility.yul\":12547:12634   */\n      tag_462\n      jump\t// in\n    tag_672:\n        /* \"#utility.yul\":12540:12634   */\n      swap8\n      pop\n        /* \"#utility.yul\":12657:12741   */\n      tag_673\n        /* \"#utility.yul\":12734:12740   */\n      dup4\n        /* \"#utility.yul\":12657:12741   */\n      tag_463\n      jump\t// in\n    tag_673:\n        /* \"#utility.yul\":12647:12741   */\n      swap3\n      pop\n        /* \"#utility.yul\":12479:12751   */\n      pop\n        /* \"#utility.yul\":12466:12467   */\n      0x01\n        /* \"#utility.yul\":12463:12464   */\n      dup2\n        /* \"#utility.yul\":12459:12468   */\n      add\n        /* \"#utility.yul\":12454:12468   */\n      swap1\n      pop\n        /* \"#utility.yul\":12419:12751   */\n      jump(tag_669)\n    tag_671:\n        /* \"#utility.yul\":12423:12437   */\n      pop\n        /* \"#utility.yul\":12767:12770   */\n      dup6\n        /* \"#utility.yul\":12760:12770   */\n      swap4\n      pop\n        /* \"#utility.yul\":12072:12776   */\n      pop\n      pop\n      pop\n        /* \"#utility.yul\":11924:12776   */\n      swap3\n      swap2\n      pop\n      pop\n      jump\t// out\n        /* \"#utility.yul\":12782:13203   */\n    tag_80:\n        /* \"#utility.yul\":12949:12953   */\n      0x00\n        /* \"#utility.yul\":12987:12989   */\n      0x20\n        /* \"#utility.yul\":12976:12985   */\n      dup3\n        /* \"#utility.yul\":12972:12990   */\n      add\n        /* \"#utility.yul\":12964:12990   */\n      swap1\n      pop\n        /* \"#utility.yul\":13036:13045   */\n      dup2\n        /* \"#utility.yul\":13030:13034   */\n      dup2\n        /* \"#utility.yul\":13026:13046   */\n      sub\n        /* \"#utility.yul\":13022:13023   */\n      0x00\n        /* \"#utility.yul\":13011:13020   */\n      dup4\n        /* \"#utility.yul\":13007:13024   */\n      add\n        /* \"#utility.yul\":13000:13047   */\n      mstore\n        /* \"#utility.yul\":13064:13196   */\n      tag_675\n        /* \"#utility.yul\":13191:13195   */\n      dup2\n        /* \"#utility.yul\":13182:13188   */\n      dup5\n        /* \"#utility.yul\":13064:13196   */\n      tag_464\n      jump\t// in\n    tag_675:\n        /* \"#utility.yul\":13056:13196   */\n      swap1\n      pop\n        /* \"#utility.yul\":12782:13203   */\n      swap3\n      swap2\n      pop\n      pop\n      jump\t// out\n        /* \"#utility.yul\":13209:13327   */\n    tag_465:\n        /* \"#utility.yul\":13296:13320   */\n      tag_677\n        /* \"#utility.yul\":13314:13319   */\n      dup2\n        /* \"#utility.yul\":13296:13320   */\n      tag_450\n      jump\t// in\n    tag_677:\n        /* \"#utility.yul\":13291:13294   */\n      dup3\n        /* \"#utility.yul\":13284:13321   */\n      mstore\n        /* \"#utility.yul\":13209:13327   */\n      pop\n      pop\n      jump\t// out\n        /* \"#utility.yul\":13333:13555   */\n    tag_95:\n        /* \"#utility.yul\":13426:13430   */\n      0x00\n        /* \"#utility.yul\":13464:13466   */\n      0x20\n        /* \"#utility.yul\":13453:13462   */\n      dup3\n        /* \"#utility.yul\":13449:13467   */\n      add\n        /* \"#utility.yul\":13441:13467   */\n      swap1\n      pop\n        /* \"#utility.yul\":13477:13548   */\n      tag_679\n        /* \"#utility.yul\":13545:13546   */\n      0x00\n        /* \"#utility.yul\":13534:13543   */\n      dup4\n        /* \"#utility.yul\":13530:13547   */\n      add\n        /* \"#utility.yul\":13521:13527   */\n      dup5\n        /* \"#utility.yul\":13477:13548   */\n      tag_465\n      jump\t// in\n    tag_679:\n        /* \"#utility.yul\":13333:13555   */\n      swap3\n      swap2\n      pop\n      pop\n      jump\t// out\n        /* \"#utility.yul\":13561:14413   */\n    tag_99:\n        /* \"#utility.yul\":13650:13656   */\n      0x00\n        /* \"#utility.yul\":13658:13664   */\n      dup1\n        /* \"#utility.yul\":13666:13672   */\n      0x00\n        /* \"#utility.yul\":13715:13717   */\n      0x40\n        /* \"#utility.yul\":13703:13712   */\n      dup5\n        /* \"#utility.yul\":13694:13701   */\n      dup7\n        /* \"#utility.yul\":13690:13713   */\n      sub\n        /* \"#utility.yul\":13686:13718   */\n      slt\n        /* \"#utility.yul\":13683:13802   */\n      iszero\n      tag_681\n      jumpi\n        /* \"#utility.yul\":13721:13800   */\n      tag_682\n      tag_429\n      jump\t// in\n    tag_682:\n        /* \"#utility.yul\":13683:13802   */\n    tag_681:\n        /* \"#utility.yul\":13869:13870   */\n      0x00\n        /* \"#utility.yul\":13858:13867   */\n      dup5\n        /* \"#utility.yul\":13854:13871   */\n      add\n        /* \"#utility.yul\":13841:13872   */\n      calldataload\n        /* \"#utility.yul\":13899:13917   */\n      0xffffffffffffffff\n        /* \"#utility.yul\":13891:13897   */\n      dup2\n        /* \"#utility.yul\":13888:13918   */\n      gt\n        /* \"#utility.yul\":13885:14002   */\n      iszero\n      tag_683\n      jumpi\n        /* \"#utility.yul\":13921:14000   */\n      tag_684\n      tag_430\n      jump\t// in\n    tag_684:\n        /* \"#utility.yul\":13885:14002   */\n    tag_683:\n        /* \"#utility.yul\":14026:14089   */\n      tag_685\n        /* \"#utility.yul\":14081:14088   */\n      dup7\n        /* \"#utility.yul\":14072:14078   */\n      dup3\n        /* \"#utility.yul\":14061:14070   */\n      dup8\n        /* \"#utility.yul\":14057:14079   */\n      add\n        /* \"#utility.yul\":14026:14089   */\n      tag_444\n      jump\t// in\n    tag_685:\n        /* \"#utility.yul\":14016:14089   */\n      swap4\n      pop\n        /* \"#utility.yul\":13812:14099   */\n      pop\n        /* \"#utility.yul\":14166:14168   */\n      0x20\n        /* \"#utility.yul\":14155:14164   */\n      dup5\n        /* \"#utility.yul\":14151:14169   */\n      add\n        /* \"#utility.yul\":14138:14170   */\n      calldataload\n        /* \"#utility.yul\":14197:14215   */\n      0xffffffffffffffff\n        /* \"#utility.yul\":14189:14195   */\n      dup2\n        /* \"#utility.yul\":14186:14216   */\n      gt\n        /* \"#utility.yul\":14183:14300   */\n      iszero\n      tag_686\n      jumpi\n        /* \"#utility.yul\":14219:14298   */\n      tag_687\n      tag_430\n      jump\t// in\n    tag_687:\n        /* \"#utility.yul\":14183:14300   */\n    tag_686:\n        /* \"#utility.yul\":14332:14396   */\n      tag_688\n        /* \"#utility.yul\":14388:14395   */\n      dup7\n        /* \"#utility.yul\":14379:14385   */\n      dup3\n        /* \"#utility.yul\":14368:14377   */\n      dup8\n        /* \"#utility.yul\":14364:14386   */\n      add\n        /* \"#utility.yul\":14332:14396   */\n      tag_449\n      jump\t// in\n    tag_688:\n        /* \"#utility.yul\":14314:14396   */\n      swap3\n      pop\n      swap3\n      pop\n        /* \"#utility.yul\":14109:14406   */\n      pop\n        /* \"#utility.yul\":13561:14413   */\n      swap3\n      pop\n      swap3\n      pop\n      swap3\n      jump\t// out\n        /* \"#utility.yul\":14419:15073   */\n    tag_110:\n        /* \"#utility.yul\":14497:14503   */\n      0x00\n        /* \"#utility.yul\":14505:14511   */\n      dup1\n        /* \"#utility.yul\":14554:14556   */\n      0x40\n        /* \"#utility.yul\":14542:14551   */\n      dup4\n        /* \"#utility.yul\":14533:14540   */\n      dup6\n        /* \"#utility.yul\":14529:14552   */\n      sub\n        /* \"#utility.yul\":14525:14557   */\n      slt\n        /* \"#utility.yul\":14522:14641   */\n      iszero\n      tag_690\n      jumpi\n        /* \"#utility.yul\":14560:14639   */\n      tag_691\n      tag_429\n      jump\t// in\n    tag_691:\n        /* \"#utility.yul\":14522:14641   */\n    tag_690:\n        /* \"#utility.yul\":14708:14709   */\n      0x00\n        /* \"#utility.yul\":14697:14706   */\n      dup4\n        /* \"#utility.yul\":14693:14710   */\n      add\n        /* \"#utility.yul\":14680:14711   */\n      calldataload\n        /* \"#utility.yul\":14738:14756   */\n      0xffffffffffffffff\n        /* \"#utility.yul\":14730:14736   */\n      dup2\n        /* \"#utility.yul\":14727:14757   */\n      gt\n        /* \"#utility.yul\":14724:14841   */\n      iszero\n      tag_692\n      jumpi\n        /* \"#utility.yul\":14760:14839   */\n      tag_693\n      tag_430\n      jump\t// in\n    tag_693:\n        /* \"#utility.yul\":14724:14841   */\n    tag_692:\n        /* \"#utility.yul\":14865:14928   */\n      tag_694\n        /* \"#utility.yul\":14920:14927   */\n      dup6\n        /* \"#utility.yul\":14911:14917   */\n      dup3\n        /* \"#utility.yul\":14900:14909   */\n      dup7\n        /* \"#utility.yul\":14896:14918   */\n      add\n        /* \"#utility.yul\":14865:14928   */\n      tag_444\n      jump\t// in\n    tag_694:\n        /* \"#utility.yul\":14855:14928   */\n      swap3\n      pop\n        /* \"#utility.yul\":14651:14938   */\n      pop\n        /* \"#utility.yul\":14977:14979   */\n      0x20\n        /* \"#utility.yul\":15003:15056   */\n      tag_695\n        /* \"#utility.yul\":15048:15055   */\n      dup6\n        /* \"#utility.yul\":15039:15045   */\n      dup3\n        /* \"#utility.yul\":15028:15037   */\n      dup7\n        /* \"#utility.yul\":15024:15046   */\n      add\n        /* \"#utility.yul\":15003:15056   */\n      tag_452\n      jump\t// in\n    tag_695:\n        /* \"#utility.yul\":14993:15056   */\n      swap2\n      pop\n        /* \"#utility.yul\":14948:15066   */\n      pop\n        /* \"#utility.yul\":14419:15073   */\n      swap3\n      pop\n      swap3\n      swap1\n      pop\n      jump\t// out\n        /* \"#utility.yul\":15079:15799   */\n    tag_119:\n        /* \"#utility.yul\":15182:15188   */\n      0x00\n        /* \"#utility.yul\":15190:15196   */\n      dup1\n        /* \"#utility.yul\":15198:15204   */\n      0x00\n        /* \"#utility.yul\":15247:15249   */\n      0x40\n        /* \"#utility.yul\":15235:15244   */\n      dup5\n        /* \"#utility.yul\":15226:15233   */\n      dup7\n        /* \"#utility.yul\":15222:15245   */\n      sub\n        /* \"#utility.yul\":15218:15250   */\n      slt\n        /* \"#utility.yul\":15215:15334   */\n      iszero\n      tag_697\n      jumpi\n        /* \"#utility.yul\":15253:15332   */\n      tag_698\n      tag_429\n      jump\t// in\n    tag_698:\n        /* \"#utility.yul\":15215:15334   */\n    tag_697:\n        /* \"#utility.yul\":15373:15374   */\n      0x00\n        /* \"#utility.yul\":15398:15475   */\n      tag_699\n        /* \"#utility.yul\":15467:15474   */\n      dup7\n        /* \"#utility.yul\":15458:15464   */\n      dup3\n        /* \"#utility.yul\":15447:15456   */\n      dup8\n        /* \"#utility.yul\":15443:15465   */\n      add\n        /* \"#utility.yul\":15398:15475   */\n      tag_433\n      jump\t// in\n    tag_699:\n        /* \"#utility.yul\":15388:15475   */\n      swap4\n      pop\n        /* \"#utility.yul\":15344:15485   */\n      pop\n        /* \"#utility.yul\":15552:15554   */\n      0x20\n        /* \"#utility.yul\":15541:15550   */\n      dup5\n        /* \"#utility.yul\":15537:15555   */\n      add\n        /* \"#utility.yul\":15524:15556   */\n      calldataload\n        /* \"#utility.yul\":15583:15601   */\n      0xffffffffffffffff\n        /* \"#utility.yul\":15575:15581   */\n      dup2\n        /* \"#utility.yul\":15572:15602   */\n      gt\n        /* \"#utility.yul\":15569:15686   */\n      iszero\n      tag_700\n      jumpi\n        /* \"#utility.yul\":15605:15684   */\n      tag_701\n      tag_430\n      jump\t// in\n    tag_701:\n        /* \"#utility.yul\":15569:15686   */\n    tag_700:\n        /* \"#utility.yul\":15718:15782   */\n      tag_702\n        /* \"#utility.yul\":15774:15781   */\n      dup7\n        /* \"#utility.yul\":15765:15771   */\n      dup3\n        /* \"#utility.yul\":15754:15763   */\n      dup8\n        /* \"#utility.yul\":15750:15772   */\n      add\n        /* \"#utility.yul\":15718:15782   */\n      tag_449\n      jump\t// in\n    tag_702:\n        /* \"#utility.yul\":15700:15782   */\n      swap3\n      pop\n      swap3\n      pop\n        /* \"#utility.yul\":15495:15792   */\n      pop\n        /* \"#utility.yul\":15079:15799   */\n      swap3\n      pop\n      swap3\n      pop\n      swap3\n      jump\t// out\n        /* \"#utility.yul\":15805:17304   */\n    tag_124:\n        /* \"#utility.yul\":15962:15968   */\n      0x00\n        /* \"#utility.yul\":15970:15976   */\n      dup1\n        /* \"#utility.yul\":15978:15984   */\n      0x00\n        /* \"#utility.yul\":15986:15992   */\n      dup1\n        /* \"#utility.yul\":15994:16000   */\n      0x00\n        /* \"#utility.yul\":16002:16008   */\n      dup1\n        /* \"#utility.yul\":16010:16016   */\n      0x00\n        /* \"#utility.yul\":16059:16062   */\n      0xc0\n        /* \"#utility.yul\":16047:16056   */\n      dup9\n        /* \"#utility.yul\":16038:16045   */\n      dup11\n        /* \"#utility.yul\":16034:16057   */\n      sub\n        /* \"#utility.yul\":16030:16063   */\n      slt\n        /* \"#utility.yul\":16027:16147   */\n      iszero\n      tag_704\n      jumpi\n        /* \"#utility.yul\":16066:16145   */\n      tag_705\n      tag_429\n      jump\t// in\n    tag_705:\n        /* \"#utility.yul\":16027:16147   */\n    tag_704:\n        /* \"#utility.yul\":16214:16215   */\n      0x00\n        /* \"#utility.yul\":16203:16212   */\n      dup9\n        /* \"#utility.yul\":16199:16216   */\n      add\n        /* \"#utility.yul\":16186:16217   */\n      calldataload\n        /* \"#utility.yul\":16244:16262   */\n      0xffffffffffffffff\n        /* \"#utility.yul\":16236:16242   */\n      dup2\n        /* \"#utility.yul\":16233:16263   */\n      gt\n        /* \"#utility.yul\":16230:16347   */\n      iszero\n      tag_706\n      jumpi\n        /* \"#utility.yul\":16266:16345   */\n      tag_707\n      tag_430\n      jump\t// in\n    tag_707:\n        /* \"#utility.yul\":16230:16347   */\n    tag_706:\n        /* \"#utility.yul\":16371:16434   */\n      tag_708\n        /* \"#utility.yul\":16426:16433   */\n      dup11\n        /* \"#utility.yul\":16417:16423   */\n      dup3\n        /* \"#utility.yul\":16406:16415   */\n      dup12\n        /* \"#utility.yul\":16402:16424   */\n      add\n        /* \"#utility.yul\":16371:16434   */\n      tag_444\n      jump\t// in\n    tag_708:\n        /* \"#utility.yul\":16361:16434   */\n      swap8\n      pop\n        /* \"#utility.yul\":16157:16444   */\n      pop\n        /* \"#utility.yul\":16483:16485   */\n      0x20\n        /* \"#utility.yul\":16509:16570   */\n      tag_709\n        /* \"#utility.yul\":16562:16569   */\n      dup11\n        /* \"#utility.yul\":16553:16559   */\n      dup3\n        /* \"#utility.yul\":16542:16551   */\n      dup12\n        /* \"#utility.yul\":16538:16560   */\n      add\n        /* \"#utility.yul\":16509:16570   */\n      tag_446\n      jump\t// in\n    tag_709:\n        /* \"#utility.yul\":16499:16570   */\n      swap7\n      pop\n        /* \"#utility.yul\":16454:16580   */\n      pop\n        /* \"#utility.yul\":16647:16649   */\n      0x40\n        /* \"#utility.yul\":16636:16645   */\n      dup9\n        /* \"#utility.yul\":16632:16650   */\n      add\n        /* \"#utility.yul\":16619:16651   */\n      calldataload\n        /* \"#utility.yul\":16678:16696   */\n      0xffffffffffffffff\n        /* \"#utility.yul\":16670:16676   */\n      dup2\n        /* \"#utility.yul\":16667:16697   */\n      gt\n        /* \"#utility.yul\":16664:16781   */\n      iszero\n      tag_710\n      jumpi\n        /* \"#utility.yul\":16700:16779   */\n      tag_711\n      tag_430\n      jump\t// in\n    tag_711:\n        /* \"#utility.yul\":16664:16781   */\n    tag_710:\n        /* \"#utility.yul\":16813:16877   */\n      tag_712\n        /* \"#utility.yul\":16869:16876   */\n      dup11\n        /* \"#utility.yul\":16860:16866   */\n      dup3\n        /* \"#utility.yul\":16849:16858   */\n      dup12\n        /* \"#utility.yul\":16845:16867   */\n      add\n        /* \"#utility.yul\":16813:16877   */\n      tag_449\n      jump\t// in\n    tag_712:\n        /* \"#utility.yul\":16795:16877   */\n      swap6\n      pop\n      swap6\n      pop\n        /* \"#utility.yul\":16590:16887   */\n      pop\n        /* \"#utility.yul\":16926:16928   */\n      0x60\n        /* \"#utility.yul\":16952:17005   */\n      tag_713\n        /* \"#utility.yul\":16997:17004   */\n      dup11\n        /* \"#utility.yul\":16988:16994   */\n      dup3\n        /* \"#utility.yul\":16977:16986   */\n      dup12\n        /* \"#utility.yul\":16973:16995   */\n      add\n        /* \"#utility.yul\":16952:17005   */\n      tag_452\n      jump\t// in\n    tag_713:\n        /* \"#utility.yul\":16942:17005   */\n      swap4\n      pop\n        /* \"#utility.yul\":16897:17015   */\n      pop\n        /* \"#utility.yul\":17054:17057   */\n      0x80\n        /* \"#utility.yul\":17081:17134   */\n      tag_714\n        /* \"#utility.yul\":17126:17133   */\n      dup11\n        /* \"#utility.yul\":17117:17123   */\n      dup3\n        /* \"#utility.yul\":17106:17115   */\n      dup12\n        /* \"#utility.yul\":17102:17124   */\n      add\n        /* \"#utility.yul\":17081:17134   */\n      tag_455\n      jump\t// in\n    tag_714:\n        /* \"#utility.yul\":17071:17134   */\n      swap3\n      pop\n        /* \"#utility.yul\":17025:17144   */\n      pop\n        /* \"#utility.yul\":17183:17186   */\n      0xa0\n        /* \"#utility.yul\":17210:17287   */\n      tag_715\n        /* \"#utility.yul\":17279:17286   */\n      dup11\n        /* \"#utility.yul\":17270:17276   */\n      dup3\n        /* \"#utility.yul\":17259:17268   */\n      dup12\n        /* \"#utility.yul\":17255:17277   */\n      add\n        /* \"#utility.yul\":17210:17287   */\n      tag_433\n      jump\t// in\n    tag_715:\n        /* \"#utility.yul\":17200:17287   */\n      swap2\n      pop\n        /* \"#utility.yul\":17154:17297   */\n      pop\n        /* \"#utility.yul\":15805:17304   */\n      swap3\n      swap6\n      swap9\n      swap2\n      swap5\n      swap8\n      pop\n      swap3\n      swap6\n      pop\n      jump\t// out\n        /* \"#utility.yul\":17310:18307   */\n    tag_129:\n        /* \"#utility.yul\":17408:17414   */\n      0x00\n        /* \"#utility.yul\":17416:17422   */\n      dup1\n        /* \"#utility.yul\":17424:17430   */\n      0x00\n        /* \"#utility.yul\":17432:17438   */\n      dup1\n        /* \"#utility.yul\":17481:17483   */\n      0x60\n        /* \"#utility.yul\":17469:17478   */\n      dup6\n        /* \"#utility.yul\":17460:17467   */\n      dup8\n        /* \"#utility.yul\":17456:17479   */\n      sub\n        /* \"#utility.yul\":17452:17484   */\n      slt\n        /* \"#utility.yul\":17449:17568   */\n      iszero\n      tag_717\n      jumpi\n        /* \"#utility.yul\":17487:17566   */\n      tag_718\n      tag_429\n      jump\t// in\n    tag_718:\n        /* \"#utility.yul\":17449:17568   */\n    tag_717:\n        /* \"#utility.yul\":17607:17608   */\n      0x00\n        /* \"#utility.yul\":17632:17685   */\n      tag_719\n        /* \"#utility.yul\":17677:17684   */\n      dup8\n        /* \"#utility.yul\":17668:17674   */\n      dup3\n        /* \"#utility.yul\":17657:17666   */\n      dup9\n        /* \"#utility.yul\":17653:17675   */\n      add\n        /* \"#utility.yul\":17632:17685   */\n      tag_452\n      jump\t// in\n    tag_719:\n        /* \"#utility.yul\":17622:17685   */\n      swap5\n      pop\n        /* \"#utility.yul\":17578:17695   */\n      pop\n        /* \"#utility.yul\":17762:17764   */\n      0x20\n        /* \"#utility.yul\":17751:17760   */\n      dup6\n        /* \"#utility.yul\":17747:17765   */\n      add\n        /* \"#utility.yul\":17734:17766   */\n      calldataload\n        /* \"#utility.yul\":17793:17811   */\n      0xffffffffffffffff\n        /* \"#utility.yul\":17785:17791   */\n      dup2\n        /* \"#utility.yul\":17782:17812   */\n      gt\n        /* \"#utility.yul\":17779:17896   */\n      iszero\n      tag_720\n      jumpi\n        /* \"#utility.yul\":17815:17894   */\n      tag_721\n      tag_430\n      jump\t// in\n    tag_721:\n        /* \"#utility.yul\":17779:17896   */\n    tag_720:\n        /* \"#utility.yul\":17920:17983   */\n      tag_722\n        /* \"#utility.yul\":17975:17982   */\n      dup8\n        /* \"#utility.yul\":17966:17972   */\n      dup3\n        /* \"#utility.yul\":17955:17964   */\n      dup9\n        /* \"#utility.yul\":17951:17973   */\n      add\n        /* \"#utility.yul\":17920:17983   */\n      tag_444\n      jump\t// in\n    tag_722:\n        /* \"#utility.yul\":17910:17983   */\n      swap4\n      pop\n        /* \"#utility.yul\":17705:17993   */\n      pop\n        /* \"#utility.yul\":18060:18062   */\n      0x40\n        /* \"#utility.yul\":18049:18058   */\n      dup6\n        /* \"#utility.yul\":18045:18063   */\n      add\n        /* \"#utility.yul\":18032:18064   */\n      calldataload\n        /* \"#utility.yul\":18091:18109   */\n      0xffffffffffffffff\n        /* \"#utility.yul\":18083:18089   */\n      dup2\n        /* \"#utility.yul\":18080:18110   */\n      gt\n        /* \"#utility.yul\":18077:18194   */\n      iszero\n      tag_723\n      jumpi\n        /* \"#utility.yul\":18113:18192   */\n      tag_724\n      tag_430\n      jump\t// in\n    tag_724:\n        /* \"#utility.yul\":18077:18194   */\n    tag_723:\n        /* \"#utility.yul\":18226:18290   */\n      tag_725\n        /* \"#utility.yul\":18282:18289   */\n      dup8\n        /* \"#utility.yul\":18273:18279   */\n      dup3\n        /* \"#utility.yul\":18262:18271   */\n      dup9\n        /* \"#utility.yul\":18258:18280   */\n      add\n        /* \"#utility.yul\":18226:18290   */\n      tag_449\n      jump\t// in\n    tag_725:\n        /* \"#utility.yul\":18208:18290   */\n      swap3\n      pop\n      swap3\n      pop\n        /* \"#utility.yul\":18003:18300   */\n      pop\n        /* \"#utility.yul\":17310:18307   */\n      swap3\n      swap6\n      swap2\n      swap5\n      pop\n      swap3\n      pop\n      jump\t// out\n        /* \"#utility.yul\":18313:18403   */\n    tag_466:\n        /* \"#utility.yul\":18347:18354   */\n      0x00\n        /* \"#utility.yul\":18390:18395   */\n      dup2\n        /* \"#utility.yul\":18383:18396   */\n      iszero\n        /* \"#utility.yul\":18376:18397   */\n      iszero\n        /* \"#utility.yul\":18365:18397   */\n      swap1\n      pop\n        /* \"#utility.yul\":18313:18403   */\n      swap2\n      swap1\n      pop\n      jump\t// out\n        /* \"#utility.yul\":18409:18518   */\n    tag_467:\n        /* \"#utility.yul\":18490:18511   */\n      tag_728\n        /* \"#utility.yul\":18505:18510   */\n      dup2\n        /* \"#utility.yul\":18490:18511   */\n      tag_466\n      jump\t// in\n    tag_728:\n        /* \"#utility.yul\":18485:18488   */\n      dup3\n        /* \"#utility.yul\":18478:18512   */\n      mstore\n        /* \"#utility.yul\":18409:18518   */\n      pop\n      pop\n      jump\t// out\n        /* \"#utility.yul\":18524:18734   */\n    tag_132:\n        /* \"#utility.yul\":18611:18615   */\n      0x00\n        /* \"#utility.yul\":18649:18651   */\n      0x20\n        /* \"#utility.yul\":18638:18647   */\n      dup3\n        /* \"#utility.yul\":18634:18652   */\n      add\n        /* \"#utility.yul\":18626:18652   */\n      swap1\n      pop\n        /* \"#utility.yul\":18662:18727   */\n      tag_730\n        /* \"#utility.yul\":18724:18725   */\n      0x00\n        /* \"#utility.yul\":18713:18722   */\n      dup4\n        /* \"#utility.yul\":18709:18726   */\n      add\n        /* \"#utility.yul\":18700:18706   */\n      dup5\n        /* \"#utility.yul\":18662:18727   */\n      tag_467\n      jump\t// in\n    tag_730:\n        /* \"#utility.yul\":18524:18734   */\n      swap3\n      swap2\n      pop\n      pop\n      jump\t// out\n        /* \"#utility.yul\":18740:18911   */\n    tag_468:\n        /* \"#utility.yul\":18880:18903   */\n      0x6c6963656e736520646f65736e27742065786973740000000000000000000000\n        /* \"#utility.yul\":18876:18877   */\n      0x00\n        /* \"#utility.yul\":18868:18874   */\n      dup3\n        /* \"#utility.yul\":18864:18878   */\n      add\n        /* \"#utility.yul\":18857:18904   */\n      mstore\n        /* \"#utility.yul\":18740:18911   */\n      pop\n      jump\t// out\n        /* \"#utility.yul\":18917:19283   */\n    tag_469:\n        /* \"#utility.yul\":19059:19062   */\n      0x00\n        /* \"#utility.yul\":19080:19147   */\n      tag_733\n        /* \"#utility.yul\":19144:19146   */\n      0x15\n        /* \"#utility.yul\":19139:19142   */\n      dup4\n        /* \"#utility.yul\":19080:19147   */\n      tag_424\n      jump\t// in\n    tag_733:\n        /* \"#utility.yul\":19073:19147   */\n      swap2\n      pop\n        /* \"#utility.yul\":19156:19249   */\n      tag_734\n        /* \"#utility.yul\":19245:19248   */\n      dup3\n        /* \"#utility.yul\":19156:19249   */\n      tag_468\n      jump\t// in\n    tag_734:\n        /* \"#utility.yul\":19274:19276   */\n      0x20\n        /* \"#utility.yul\":19269:19272   */\n      dup3\n        /* \"#utility.yul\":19265:19277   */\n      add\n        /* \"#utility.yul\":19258:19277   */\n      swap1\n      pop\n        /* \"#utility.yul\":18917:19283   */\n      swap2\n      swap1\n      pop\n      jump\t// out\n        /* \"#utility.yul\":19289:19708   */\n    tag_140:\n        /* \"#utility.yul\":19455:19459   */\n      0x00\n        /* \"#utility.yul\":19493:19495   */\n      0x20\n        /* \"#utility.yul\":19482:19491   */\n      dup3\n        /* \"#utility.yul\":19478:19496   */\n      add\n        /* \"#utility.yul\":19470:19496   */\n      swap1\n      pop\n        /* \"#utility.yul\":19542:19551   */\n      dup2\n        /* \"#utility.yul\":19536:19540   */\n      dup2\n        /* \"#utility.yul\":19532:19552   */\n      sub\n        /* \"#utility.yul\":19528:19529   */\n      0x00\n        /* \"#utility.yul\":19517:19526   */\n      dup4\n        /* \"#utility.yul\":19513:19530   */\n      add\n        /* \"#utility.yul\":19506:19553   */\n      mstore\n        /* \"#utility.yul\":19570:19701   */\n      tag_736\n        /* \"#utility.yul\":19696:19700   */\n      dup2\n        /* \"#utility.yul\":19570:19701   */\n      tag_469\n      jump\t// in\n    tag_736:\n        /* \"#utility.yul\":19562:19701   */\n      swap1\n      pop\n        /* \"#utility.yul\":19289:19708   */\n      swap2\n      swap1\n      pop\n      jump\t// out\n        /* \"#utility.yul\":19714:19894   */\n    tag_470:\n        /* \"#utility.yul\":19762:19839   */\n      0x4e487b7100000000000000000000000000000000000000000000000000000000\n        /* \"#utility.yul\":19759:19760   */\n      0x00\n        /* \"#utility.yul\":19752:19840   */\n      mstore\n        /* \"#utility.yul\":19859:19863   */\n      0x22\n        /* \"#utility.yul\":19856:19857   */\n      0x04\n        /* \"#utility.yul\":19849:19864   */\n      mstore\n        /* \"#utility.yul\":19883:19887   */\n      0x24\n        /* \"#utility.yul\":19880:19881   */\n      0x00\n        /* \"#utility.yul\":19873:19888   */\n      revert\n        /* \"#utility.yul\":19900:20220   */\n    tag_168:\n        /* \"#utility.yul\":19944:19950   */\n      0x00\n        /* \"#utility.yul\":19981:19982   */\n      0x02\n        /* \"#utility.yul\":19975:19979   */\n      dup3\n        /* \"#utility.yul\":19971:19983   */\n      div\n        /* \"#utility.yul\":19961:19983   */\n      swap1\n      pop\n        /* \"#utility.yul\":20028:20029   */\n      0x01\n        /* \"#utility.yul\":20022:20026   */\n      dup3\n        /* \"#utility.yul\":20018:20030   */\n      and\n        /* \"#utility.yul\":20049:20067   */\n      dup1\n        /* \"#utility.yul\":20039:20120   */\n      tag_739\n      jumpi\n        /* \"#utility.yul\":20105:20109   */\n      0x7f\n        /* \"#utility.yul\":20097:20103   */\n      dup3\n        /* \"#utility.yul\":20093:20110   */\n      and\n        /* \"#utility.yul\":20083:20110   */\n      swap2\n      pop\n        /* \"#utility.yul\":20039:20120   */\n    tag_739:\n        /* \"#utility.yul\":20167:20169   */\n      0x20\n        /* \"#utility.yul\":20159:20165   */\n      dup3\n        /* \"#utility.yul\":20156:20170   */\n      lt\n        /* \"#utility.yul\":20136:20154   */\n      dup2\n        /* \"#utility.yul\":20133:20171   */\n      sub\n        /* \"#utility.yul\":20130:20214   */\n      tag_740\n      jumpi\n        /* \"#utility.yul\":20186:20204   */\n      tag_741\n      tag_470\n      jump\t// in\n    tag_741:\n        /* \"#utility.yul\":20130:20214   */\n    tag_740:\n        /* \"#utility.yul\":19951:20220   */\n      pop\n        /* \"#utility.yul\":19900:20220   */\n      swap2\n      swap1\n      pop\n      jump\t// out\n        /* \"#utility.yul\":20226:20374   */\n    tag_471:\n        /* \"#utility.yul\":20328:20339   */\n      0x00\n        /* \"#utility.yul\":20365:20368   */\n      dup2\n        /* \"#utility.yul\":20350:20368   */\n      swap1\n      pop\n        /* \"#utility.yul\":20226:20374   */\n      swap3\n      swap2\n      pop\n      pop\n      jump\t// out\n        /* \"#utility.yul\":20380:20521   */\n    tag_472:\n        /* \"#utility.yul\":20429:20433   */\n      0x00\n        /* \"#utility.yul\":20452:20455   */\n      dup2\n        /* \"#utility.yul\":20444:20455   */\n      swap1\n      pop\n        /* \"#utility.yul\":20475:20478   */\n      dup2\n        /* \"#utility.yul\":20472:20473   */\n      0x00\n        /* \"#utility.yul\":20465:20479   */\n      mstore\n        /* \"#utility.yul\":20509:20513   */\n      0x20\n        /* \"#utility.yul\":20506:20507   */\n      0x00\n        /* \"#utility.yul\":20496:20514   */\n      keccak256\n        /* \"#utility.yul\":20488:20514   */\n      swap1\n      pop\n        /* \"#utility.yul\":20380:20521   */\n      swap2\n      swap1\n      pop\n      jump\t// out\n        /* \"#utility.yul\":20551:21425   */\n    tag_473:\n        /* \"#utility.yul\":20654:20657   */\n      0x00\n        /* \"#utility.yul\":20691:20696   */\n      dup2\n        /* \"#utility.yul\":20685:20697   */\n      sload\n        /* \"#utility.yul\":20720:20756   */\n      tag_745\n        /* \"#utility.yul\":20746:20755   */\n      dup2\n        /* \"#utility.yul\":20720:20756   */\n      tag_168\n      jump\t// in\n    tag_745:\n        /* \"#utility.yul\":20772:20861   */\n      tag_746\n        /* \"#utility.yul\":20854:20860   */\n      dup2\n        /* \"#utility.yul\":20849:20852   */\n      dup7\n        /* \"#utility.yul\":20772:20861   */\n      tag_471\n      jump\t// in\n    tag_746:\n        /* \"#utility.yul\":20765:20861   */\n      swap5\n      pop\n        /* \"#utility.yul\":20892:20893   */\n      0x01\n        /* \"#utility.yul\":20881:20890   */\n      dup3\n        /* \"#utility.yul\":20877:20894   */\n      and\n        /* \"#utility.yul\":20908:20909   */\n      0x00\n        /* \"#utility.yul\":20903:21069   */\n      dup2\n      eq\n      tag_748\n      jumpi\n        /* \"#utility.yul\":21083:21084   */\n      0x01\n        /* \"#utility.yul\":21078:21419   */\n      dup2\n      eq\n      tag_749\n      jumpi\n        /* \"#utility.yul\":20870:21419   */\n      jump(tag_747)\n        /* \"#utility.yul\":20903:21069   */\n    tag_748:\n        /* \"#utility.yul\":20987:20991   */\n      0xff\n        /* \"#utility.yul\":20983:20992   */\n      not\n        /* \"#utility.yul\":20972:20981   */\n      dup4\n        /* \"#utility.yul\":20968:20993   */\n      and\n        /* \"#utility.yul\":20963:20966   */\n      dup7\n        /* \"#utility.yul\":20956:20994   */\n      mstore\n        /* \"#utility.yul\":21049:21055   */\n      dup2\n        /* \"#utility.yul\":21042:21056   */\n      iszero\n        /* \"#utility.yul\":21035:21057   */\n      iszero\n        /* \"#utility.yul\":21027:21033   */\n      dup3\n        /* \"#utility.yul\":21023:21058   */\n      mul\n        /* \"#utility.yul\":21018:21021   */\n      dup7\n        /* \"#utility.yul\":21014:21059   */\n      add\n        /* \"#utility.yul\":21007:21059   */\n      swap4\n      pop\n        /* \"#utility.yul\":20903:21069   */\n      jump(tag_747)\n        /* \"#utility.yul\":21078:21419   */\n    tag_749:\n        /* \"#utility.yul\":21145:21183   */\n      tag_750\n        /* \"#utility.yul\":21177:21182   */\n      dup6\n        /* \"#utility.yul\":21145:21183   */\n      tag_472\n      jump\t// in\n    tag_750:\n        /* \"#utility.yul\":21205:21206   */\n      0x00\n        /* \"#utility.yul\":21219:21373   */\n    tag_751:\n        /* \"#utility.yul\":21233:21239   */\n      dup4\n        /* \"#utility.yul\":21230:21231   */\n      dup2\n        /* \"#utility.yul\":21227:21240   */\n      lt\n        /* \"#utility.yul\":21219:21373   */\n      iszero\n      tag_753\n      jumpi\n        /* \"#utility.yul\":21307:21314   */\n      dup2\n        /* \"#utility.yul\":21301:21315   */\n      sload\n        /* \"#utility.yul\":21297:21298   */\n      dup2\n        /* \"#utility.yul\":21292:21295   */\n      dup10\n        /* \"#utility.yul\":21288:21299   */\n      add\n        /* \"#utility.yul\":21281:21316   */\n      mstore\n        /* \"#utility.yul\":21357:21358   */\n      0x01\n        /* \"#utility.yul\":21348:21355   */\n      dup3\n        /* \"#utility.yul\":21344:21359   */\n      add\n        /* \"#utility.yul\":21333:21359   */\n      swap2\n      pop\n        /* \"#utility.yul\":21255:21259   */\n      0x20\n        /* \"#utility.yul\":21252:21253   */\n      dup2\n        /* \"#utility.yul\":21248:21260   */\n      add\n        /* \"#utility.yul\":21243:21260   */\n      swap1\n      pop\n        /* \"#utility.yul\":21219:21373   */\n      jump(tag_751)\n    tag_753:\n        /* \"#utility.yul\":21402:21408   */\n      dup4\n        /* \"#utility.yul\":21397:21400   */\n      dup9\n        /* \"#utility.yul\":21393:21409   */\n      add\n        /* \"#utility.yul\":21386:21409   */\n      swap6\n      pop\n        /* \"#utility.yul\":21085:21419   */\n      pop\n      pop\n        /* \"#utility.yul\":20870:21419   */\n    tag_747:\n      pop\n        /* \"#utility.yul\":20658:21425   */\n      pop\n      pop\n        /* \"#utility.yul\":20551:21425   */\n      swap3\n      swap2\n      pop\n      pop\n      jump\t// out\n        /* \"#utility.yul\":21431:21700   */\n    tag_143:\n        /* \"#utility.yul\":21560:21563   */\n      0x00\n        /* \"#utility.yul\":21582:21674   */\n      tag_755\n        /* \"#utility.yul\":21670:21673   */\n      dup3\n        /* \"#utility.yul\":21661:21667   */\n      dup5\n        /* \"#utility.yul\":21582:21674   */\n      tag_473\n      jump\t// in\n    tag_755:\n        /* \"#utility.yul\":21575:21674   */\n      swap2\n      pop\n        /* \"#utility.yul\":21691:21694   */\n      dup2\n        /* \"#utility.yul\":21684:21694   */\n      swap1\n      pop\n        /* \"#utility.yul\":21431:21700   */\n      swap3\n      swap2\n      pop\n      pop\n      jump\t// out\n        /* \"#utility.yul\":21706:21873   */\n    tag_474:\n        /* \"#utility.yul\":21846:21865   */\n      0x6f776e657220616363657373206f6e6c79000000000000000000000000000000\n        /* \"#utility.yul\":21842:21843   */\n      0x00\n        /* \"#utility.yul\":21834:21840   */\n      dup3\n        /* \"#utility.yul\":21830:21844   */\n      add\n        /* \"#utility.yul\":21823:21866   */\n      mstore\n        /* \"#utility.yul\":21706:21873   */\n      pop\n      jump\t// out\n        /* \"#utility.yul\":21879:22245   */\n    tag_475:\n        /* \"#utility.yul\":22021:22024   */\n      0x00\n        /* \"#utility.yul\":22042:22109   */\n      tag_758\n        /* \"#utility.yul\":22106:22108   */\n      0x11\n        /* \"#utility.yul\":22101:22104   */\n      dup4\n        /* \"#utility.yul\":22042:22109   */\n      tag_424\n      jump\t// in\n    tag_758:\n        /* \"#utility.yul\":22035:22109   */\n      swap2\n      pop\n        /* \"#utility.yul\":22118:22211   */\n      tag_759\n        /* \"#utility.yul\":22207:22210   */\n      dup3\n        /* \"#utility.yul\":22118:22211   */\n      tag_474\n      jump\t// in\n    tag_759:\n        /* \"#utility.yul\":22236:22238   */\n      0x20\n        /* \"#utility.yul\":22231:22234   */\n      dup3\n        /* \"#utility.yul\":22227:22239   */\n      add\n        /* \"#utility.yul\":22220:22239   */\n      swap1\n      pop\n        /* \"#utility.yul\":21879:22245   */\n      swap2\n      swap1\n      pop\n      jump\t// out\n        /* \"#utility.yul\":22251:22670   */\n    tag_147:\n        /* \"#utility.yul\":22417:22421   */\n      0x00\n        /* \"#utility.yul\":22455:22457   */\n      0x20\n        /* \"#utility.yul\":22444:22453   */\n      dup3\n        /* \"#utility.yul\":22440:22458   */\n      add\n        /* \"#utility.yul\":22432:22458   */\n      swap1\n      pop\n        /* \"#utility.yul\":22504:22513   */\n      dup2\n        /* \"#utility.yul\":22498:22502   */\n      dup2\n        /* \"#utility.yul\":22494:22514   */\n      sub\n        /* \"#utility.yul\":22490:22491   */\n      0x00\n        /* \"#utility.yul\":22479:22488   */\n      dup4\n        /* \"#utility.yul\":22475:22492   */\n      add\n        /* \"#utility.yul\":22468:22515   */\n      mstore\n        /* \"#utility.yul\":22532:22663   */\n      tag_761\n        /* \"#utility.yul\":22658:22662   */\n      dup2\n        /* \"#utility.yul\":22532:22663   */\n      tag_475\n      jump\t// in\n    tag_761:\n        /* \"#utility.yul\":22524:22663   */\n      swap1\n      pop\n        /* \"#utility.yul\":22251:22670   */\n      swap2\n      swap1\n      pop\n      jump\t// out\n        /* \"#utility.yul\":22676:22842   */\n    tag_476:\n        /* \"#utility.yul\":22816:22834   */\n      0x696e76616c696420766964656f20696400000000000000000000000000000000\n        /* \"#utility.yul\":22812:22813   */\n      0x00\n        /* \"#utility.yul\":22804:22810   */\n      dup3\n        /* \"#utility.yul\":22800:22814   */\n      add\n        /* \"#utility.yul\":22793:22835   */\n      mstore\n        /* \"#utility.yul\":22676:22842   */\n      pop\n      jump\t// out\n        /* \"#utility.yul\":22848:23214   */\n    tag_477:\n        /* \"#utility.yul\":22990:22993   */\n      0x00\n        /* \"#utility.yul\":23011:23078   */\n      tag_764\n        /* \"#utility.yul\":23075:23077   */\n      0x10\n        /* \"#utility.yul\":23070:23073   */\n      dup4\n        /* \"#utility.yul\":23011:23078   */\n      tag_424\n      jump\t// in\n    tag_764:\n        /* \"#utility.yul\":23004:23078   */\n      swap2\n      pop\n        /* \"#utility.yul\":23087:23180   */\n      tag_765\n        /* \"#utility.yul\":23176:23179   */\n      dup3\n        /* \"#utility.yul\":23087:23180   */\n      tag_476\n      jump\t// in\n    tag_765:\n        /* \"#utility.yul\":23205:23207   */\n      0x20\n        /* \"#utility.yul\":23200:23203   */\n      dup3\n        /* \"#utility.yul\":23196:23208   */\n      add\n        /* \"#utility.yul\":23189:23208   */\n      swap1\n      pop\n        /* \"#utility.yul\":22848:23214   */\n      swap2\n      swap1\n      pop\n      jump\t// out\n        /* \"#utility.yul\":23220:23639   */\n    tag_151:\n        /* \"#utility.yul\":23386:23390   */\n      0x00\n        /* \"#utility.yul\":23424:23426   */\n      0x20\n        /* \"#utility.yul\":23413:23422   */\n      dup3\n        /* \"#utility.yul\":23409:23427   */\n      add\n        /* \"#utility.yul\":23401:23427   */\n      swap1\n      pop\n        /* \"#utility.yul\":23473:23482   */\n      dup2\n        /* \"#utility.yul\":23467:23471   */\n      dup2\n        /* \"#utility.yul\":23463:23483   */\n      sub\n        /* \"#utility.yul\":23459:23460   */\n      0x00\n        /* \"#utility.yul\":23448:23457   */\n      dup4\n        /* \"#utility.yul\":23444:23461   */\n      add\n        /* \"#utility.yul\":23437:23484   */\n      mstore\n        /* \"#utility.yul\":23501:23632   */\n      tag_767\n        /* \"#utility.yul\":23627:23631   */\n      dup2\n        /* \"#utility.yul\":23501:23632   */\n      tag_477\n      jump\t// in\n    tag_767:\n        /* \"#utility.yul\":23493:23632   */\n      swap1\n      pop\n        /* \"#utility.yul\":23220:23639   */\n      swap2\n      swap1\n      pop\n      jump\t// out\n        /* \"#utility.yul\":23645:23821   */\n    tag_478:\n        /* \"#utility.yul\":23785:23813   */\n      0x696e76616c6964206c6963656e736f72207369676e6174757265000000000000\n        /* \"#utility.yul\":23781:23782   */\n      0x00\n        /* \"#utility.yul\":23773:23779   */\n      dup3\n        /* \"#utility.yul\":23769:23783   */\n      add\n        /* \"#utility.yul\":23762:23814   */\n      mstore\n        /* \"#utility.yul\":23645:23821   */\n      pop\n      jump\t// out\n        /* \"#utility.yul\":23827:24193   */\n    tag_479:\n        /* \"#utility.yul\":23969:23972   */\n      0x00\n        /* \"#utility.yul\":23990:24057   */\n      tag_770\n        /* \"#utility.yul\":24054:24056   */\n      0x1a\n        /* \"#utility.yul\":24049:24052   */\n      dup4\n        /* \"#utility.yul\":23990:24057   */\n      tag_424\n      jump\t// in\n    tag_770:\n        /* \"#utility.yul\":23983:24057   */\n      swap2\n      pop\n        /* \"#utility.yul\":24066:24159   */\n      tag_771\n        /* \"#utility.yul\":24155:24158   */\n      dup3\n        /* \"#utility.yul\":24066:24159   */\n      tag_478\n      jump\t// in\n    tag_771:\n        /* \"#utility.yul\":24184:24186   */\n      0x20\n        /* \"#utility.yul\":24179:24182   */\n      dup3\n        /* \"#utility.yul\":24175:24187   */\n      add\n        /* \"#utility.yul\":24168:24187   */\n      swap1\n      pop\n        /* \"#utility.yul\":23827:24193   */\n      swap2\n      swap1\n      pop\n      jump\t// out\n        /* \"#utility.yul\":24199:24618   */\n    tag_156:\n        /* \"#utility.yul\":24365:24369   */\n      0x00\n        /* \"#utility.yul\":24403:24405   */\n      0x20\n        /* \"#utility.yul\":24392:24401   */\n      dup3\n        /* \"#utility.yul\":24388:24406   */\n      add\n        /* \"#utility.yul\":24380:24406   */\n      swap1\n      pop\n        /* \"#utility.yul\":24452:24461   */\n      dup2\n        /* \"#utility.yul\":24446:24450   */\n      dup2\n        /* \"#utility.yul\":24442:24462   */\n      sub\n        /* \"#utility.yul\":24438:24439   */\n      0x00\n        /* \"#utility.yul\":24427:24436   */\n      dup4\n        /* \"#utility.yul\":24423:24440   */\n      add\n        /* \"#utility.yul\":24416:24463   */\n      mstore\n        /* \"#utility.yul\":24480:24611   */\n      tag_773\n        /* \"#utility.yul\":24606:24610   */\n      dup2\n        /* \"#utility.yul\":24480:24611   */\n      tag_479\n      jump\t// in\n    tag_773:\n        /* \"#utility.yul\":24472:24611   */\n      swap1\n      pop\n        /* \"#utility.yul\":24199:24618   */\n      swap2\n      swap1\n      pop\n      jump\t// out\n        /* \"#utility.yul\":24624:25014   */\n    tag_480:\n        /* \"#utility.yul\":24730:24733   */\n      0x00\n        /* \"#utility.yul\":24758:24797   */\n      tag_775\n        /* \"#utility.yul\":24791:24796   */\n      dup3\n        /* \"#utility.yul\":24758:24797   */\n      tag_423\n      jump\t// in\n    tag_775:\n        /* \"#utility.yul\":24813:24902   */\n      tag_776\n        /* \"#utility.yul\":24895:24901   */\n      dup2\n        /* \"#utility.yul\":24890:24893   */\n      dup6\n        /* \"#utility.yul\":24813:24902   */\n      tag_471\n      jump\t// in\n    tag_776:\n        /* \"#utility.yul\":24806:24902   */\n      swap4\n      pop\n        /* \"#utility.yul\":24911:24976   */\n      tag_777\n        /* \"#utility.yul\":24969:24975   */\n      dup2\n        /* \"#utility.yul\":24964:24967   */\n      dup6\n        /* \"#utility.yul\":24957:24961   */\n      0x20\n        /* \"#utility.yul\":24950:24955   */\n      dup7\n        /* \"#utility.yul\":24946:24962   */\n      add\n        /* \"#utility.yul\":24911:24976   */\n      tag_425\n      jump\t// in\n    tag_777:\n        /* \"#utility.yul\":25001:25007   */\n      dup1\n        /* \"#utility.yul\":24996:24999   */\n      dup5\n        /* \"#utility.yul\":24992:25008   */\n      add\n        /* \"#utility.yul\":24985:25008   */\n      swap2\n      pop\n        /* \"#utility.yul\":24734:25014   */\n      pop\n        /* \"#utility.yul\":24624:25014   */\n      swap3\n      swap2\n      pop\n      pop\n      jump\t// out\n        /* \"#utility.yul\":25020:25295   */\n    tag_158:\n        /* \"#utility.yul\":25152:25155   */\n      0x00\n        /* \"#utility.yul\":25174:25269   */\n      tag_779\n        /* \"#utility.yul\":25265:25268   */\n      dup3\n        /* \"#utility.yul\":25256:25262   */\n      dup5\n        /* \"#utility.yul\":25174:25269   */\n      tag_480\n      jump\t// in\n    tag_779:\n        /* \"#utility.yul\":25167:25269   */\n      swap2\n      pop\n        /* \"#utility.yul\":25286:25289   */\n      dup2\n        /* \"#utility.yul\":25279:25289   */\n      swap1\n      pop\n        /* \"#utility.yul\":25020:25295   */\n      swap3\n      swap2\n      pop\n      pop\n      jump\t// out\n        /* \"#utility.yul\":25301:25470   */\n    tag_481:\n        /* \"#utility.yul\":25441:25462   */\n      0x766964656f20646f65736e277420657869737400000000000000000000000000\n        /* \"#utility.yul\":25437:25438   */\n      0x00\n        /* \"#utility.yul\":25429:25435   */\n      dup3\n        /* \"#utility.yul\":25425:25439   */\n      add\n        /* \"#utility.yul\":25418:25463   */\n      mstore\n        /* \"#utility.yul\":25301:25470   */\n      pop\n      jump\t// out\n        /* \"#utility.yul\":25476:25842   */\n    tag_482:\n        /* \"#utility.yul\":25618:25621   */\n      0x00\n        /* \"#utility.yul\":25639:25706   */\n      tag_782\n        /* \"#utility.yul\":25703:25705   */\n      0x13\n        /* \"#utility.yul\":25698:25701   */\n      dup4\n        /* \"#utility.yul\":25639:25706   */\n      tag_424\n      jump\t// in\n    tag_782:\n        /* \"#utility.yul\":25632:25706   */\n      swap2\n      pop\n        /* \"#utility.yul\":25715:25808   */\n      tag_783\n        /* \"#utility.yul\":25804:25807   */\n      dup3\n        /* \"#utility.yul\":25715:25808   */\n      tag_481\n      jump\t// in\n    tag_783:\n        /* \"#utility.yul\":25833:25835   */\n      0x20\n        /* \"#utility.yul\":25828:25831   */\n      dup3\n        /* \"#utility.yul\":25824:25836   */\n      add\n        /* \"#utility.yul\":25817:25836   */\n      swap1\n      pop\n        /* \"#utility.yul\":25476:25842   */\n      swap2\n      swap1\n      pop\n      jump\t// out\n        /* \"#utility.yul\":25848:26267   */\n    tag_182:\n        /* \"#utility.yul\":26014:26018   */\n      0x00\n        /* \"#utility.yul\":26052:26054   */\n      0x20\n        /* \"#utility.yul\":26041:26050   */\n      dup3\n        /* \"#utility.yul\":26037:26055   */\n      add\n        /* \"#utility.yul\":26029:26055   */\n      swap1\n      pop\n        /* \"#utility.yul\":26101:26110   */\n      dup2\n        /* \"#utility.yul\":26095:26099   */\n      dup2\n        /* \"#utility.yul\":26091:26111   */\n      sub\n        /* \"#utility.yul\":26087:26088   */\n      0x00\n        /* \"#utility.yul\":26076:26085   */\n      dup4\n        /* \"#utility.yul\":26072:26089   */\n      add\n        /* \"#utility.yul\":26065:26112   */\n      mstore\n        /* \"#utility.yul\":26129:26260   */\n      tag_785\n        /* \"#utility.yul\":26255:26259   */\n      dup2\n        /* \"#utility.yul\":26129:26260   */\n      tag_482\n      jump\t// in\n    tag_785:\n        /* \"#utility.yul\":26121:26260   */\n      swap1\n      pop\n        /* \"#utility.yul\":25848:26267   */\n      swap2\n      swap1\n      pop\n      jump\t// out\n        /* \"#utility.yul\":26273:26439   */\n    tag_483:\n        /* \"#utility.yul\":26413:26431   */\n      0x696e76616c6964206c6963656e736f7200000000000000000000000000000000\n        /* \"#utility.yul\":26409:26410   */\n      0x00\n        /* \"#utility.yul\":26401:26407   */\n      dup3\n        /* \"#utility.yul\":26397:26411   */\n      add\n        /* \"#utility.yul\":26390:26432   */\n      mstore\n        /* \"#utility.yul\":26273:26439   */\n      pop\n      jump\t// out\n        /* \"#utility.yul\":26445:26811   */\n    tag_484:\n        /* \"#utility.yul\":26587:26590   */\n      0x00\n        /* \"#utility.yul\":26608:26675   */\n      tag_788\n        /* \"#utility.yul\":26672:26674   */\n      0x10\n        /* \"#utility.yul\":26667:26670   */\n      dup4\n        /* \"#utility.yul\":26608:26675   */\n      tag_424\n      jump\t// in\n    tag_788:\n        /* \"#utility.yul\":26601:26675   */\n      swap2\n      pop\n        /* \"#utility.yul\":26684:26777   */\n      tag_789\n        /* \"#utility.yul\":26773:26776   */\n      dup3\n        /* \"#utility.yul\":26684:26777   */\n      tag_483\n      jump\t// in\n    tag_789:\n        /* \"#utility.yul\":26802:26804   */\n      0x20\n        /* \"#utility.yul\":26797:26800   */\n      dup3\n        /* \"#utility.yul\":26793:26805   */\n      add\n        /* \"#utility.yul\":26786:26805   */\n      swap1\n      pop\n        /* \"#utility.yul\":26445:26811   */\n      swap2\n      swap1\n      pop\n      jump\t// out\n        /* \"#utility.yul\":26817:27236   */\n    tag_190:\n        /* \"#utility.yul\":26983:26987   */\n      0x00\n        /* \"#utility.yul\":27021:27023   */\n      0x20\n        /* \"#utility.yul\":27010:27019   */\n      dup3\n        /* \"#utility.yul\":27006:27024   */\n      add\n        /* \"#utility.yul\":26998:27024   */\n      swap1\n      pop\n        /* \"#utility.yul\":27070:27079   */\n      dup2\n        /* \"#utility.yul\":27064:27068   */\n      dup2\n        /* \"#utility.yul\":27060:27080   */\n      sub\n        /* \"#utility.yul\":27056:27057   */\n      0x00\n        /* \"#utility.yul\":27045:27054   */\n      dup4\n        /* \"#utility.yul\":27041:27058   */\n      add\n        /* \"#utility.yul\":27034:27081   */\n      mstore\n        /* \"#utility.yul\":27098:27229   */\n      tag_791\n        /* \"#utility.yul\":27224:27228   */\n      dup2\n        /* \"#utility.yul\":27098:27229   */\n      tag_484\n      jump\t// in\n    tag_791:\n        /* \"#utility.yul\":27090:27229   */\n      swap1\n      pop\n        /* \"#utility.yul\":26817:27236   */\n      swap2\n      swap1\n      pop\n      jump\t// out\n        /* \"#utility.yul\":27242:27414   */\n    tag_485:\n        /* \"#utility.yul\":27382:27406   */\n      0x756e617661696c61626c65206c6963656e736520696400000000000000000000\n        /* \"#utility.yul\":27378:27379   */\n      0x00\n        /* \"#utility.yul\":27370:27376   */\n      dup3\n        /* \"#utility.yul\":27366:27380   */\n      add\n        /* \"#utility.yul\":27359:27407   */\n      mstore\n        /* \"#utility.yul\":27242:27414   */\n      pop\n      jump\t// out\n        /* \"#utility.yul\":27420:27786   */\n    tag_486:\n        /* \"#utility.yul\":27562:27565   */\n      0x00\n        /* \"#utility.yul\":27583:27650   */\n      tag_794\n        /* \"#utility.yul\":27647:27649   */\n      0x16\n        /* \"#utility.yul\":27642:27645   */\n      dup4\n        /* \"#utility.yul\":27583:27650   */\n      tag_424\n      jump\t// in\n    tag_794:\n        /* \"#utility.yul\":27576:27650   */\n      swap2\n      pop\n        /* \"#utility.yul\":27659:27752   */\n      tag_795\n        /* \"#utility.yul\":27748:27751   */\n      dup3\n        /* \"#utility.yul\":27659:27752   */\n      tag_485\n      jump\t// in\n    tag_795:\n        /* \"#utility.yul\":27777:27779   */\n      0x20\n        /* \"#utility.yul\":27772:27775   */\n      dup3\n        /* \"#utility.yul\":27768:27780   */\n      add\n        /* \"#utility.yul\":27761:27780   */\n      swap1\n      pop\n        /* \"#utility.yul\":27420:27786   */\n      swap2\n      swap1\n      pop\n      jump\t// out\n        /* \"#utility.yul\":27792:28211   */\n    tag_193:\n        /* \"#utility.yul\":27958:27962   */\n      0x00\n        /* \"#utility.yul\":27996:27998   */\n      0x20\n        /* \"#utility.yul\":27985:27994   */\n      dup3\n        /* \"#utility.yul\":27981:27999   */\n      add\n        /* \"#utility.yul\":27973:27999   */\n      swap1\n      pop\n        /* \"#utility.yul\":28045:28054   */\n      dup2\n        /* \"#utility.yul\":28039:28043   */\n      dup2\n        /* \"#utility.yul\":28035:28055   */\n      sub\n        /* \"#utility.yul\":28031:28032   */\n      0x00\n        /* \"#utility.yul\":28020:28029   */\n      dup4\n        /* \"#utility.yul\":28016:28033   */\n      add\n        /* \"#utility.yul\":28009:28056   */\n      mstore\n        /* \"#utility.yul\":28073:28204   */\n      tag_797\n        /* \"#utility.yul\":28199:28203   */\n      dup2\n        /* \"#utility.yul\":28073:28204   */\n      tag_486\n      jump\t// in\n    tag_797:\n        /* \"#utility.yul\":28065:28204   */\n      swap1\n      pop\n        /* \"#utility.yul\":27792:28211   */\n      swap2\n      swap1\n      pop\n      jump\t// out\n        /* \"#utility.yul\":28217:28397   */\n    tag_214:\n        /* \"#utility.yul\":28265:28342   */\n      0x4e487b7100000000000000000000000000000000000000000000000000000000\n        /* \"#utility.yul\":28262:28263   */\n      0x00\n        /* \"#utility.yul\":28255:28343   */\n      mstore\n        /* \"#utility.yul\":28362:28366   */\n      0x32\n        /* \"#utility.yul\":28359:28360   */\n      0x04\n        /* \"#utility.yul\":28352:28367   */\n      mstore\n        /* \"#utility.yul\":28386:28390   */\n      0x24\n        /* \"#utility.yul\":28383:28384   */\n      0x00\n        /* \"#utility.yul\":28376:28391   */\n      revert\n        /* \"#utility.yul\":28403:28569   */\n    tag_487:\n        /* \"#utility.yul\":28543:28561   */\n      0x696e76616c6964206c6963656e73656500000000000000000000000000000000\n        /* \"#utility.yul\":28539:28540   */\n      0x00\n        /* \"#utility.yul\":28531:28537   */\n      dup3\n        /* \"#utility.yul\":28527:28541   */\n      add\n        /* \"#utility.yul\":28520:28562   */\n      mstore\n        /* \"#utility.yul\":28403:28569   */\n      pop\n      jump\t// out\n        /* \"#utility.yul\":28575:28941   */\n    tag_488:\n        /* \"#utility.yul\":28717:28720   */\n      0x00\n        /* \"#utility.yul\":28738:28805   */\n      tag_801\n        /* \"#utility.yul\":28802:28804   */\n      0x10\n        /* \"#utility.yul\":28797:28800   */\n      dup4\n        /* \"#utility.yul\":28738:28805   */\n      tag_424\n      jump\t// in\n    tag_801:\n        /* \"#utility.yul\":28731:28805   */\n      swap2\n      pop\n        /* \"#utility.yul\":28814:28907   */\n      tag_802\n        /* \"#utility.yul\":28903:28906   */\n      dup3\n        /* \"#utility.yul\":28814:28907   */\n      tag_487\n      jump\t// in\n    tag_802:\n        /* \"#utility.yul\":28932:28934   */\n      0x20\n        /* \"#utility.yul\":28927:28930   */\n      dup3\n        /* \"#utility.yul\":28923:28935   */\n      add\n        /* \"#utility.yul\":28916:28935   */\n      swap1\n      pop\n        /* \"#utility.yul\":28575:28941   */\n      swap2\n      swap1\n      pop\n      jump\t// out\n        /* \"#utility.yul\":28947:29366   */\n    tag_221:\n        /* \"#utility.yul\":29113:29117   */\n      0x00\n        /* \"#utility.yul\":29151:29153   */\n      0x20\n        /* \"#utility.yul\":29140:29149   */\n      dup3\n        /* \"#utility.yul\":29136:29154   */\n      add\n        /* \"#utility.yul\":29128:29154   */\n      swap1\n      pop\n        /* \"#utility.yul\":29200:29209   */\n      dup2\n        /* \"#utility.yul\":29194:29198   */\n      dup2\n        /* \"#utility.yul\":29190:29210   */\n      sub\n        /* \"#utility.yul\":29186:29187   */\n      0x00\n        /* \"#utility.yul\":29175:29184   */\n      dup4\n        /* \"#utility.yul\":29171:29188   */\n      add\n        /* \"#utility.yul\":29164:29211   */\n      mstore\n        /* \"#utility.yul\":29228:29359   */\n      tag_804\n        /* \"#utility.yul\":29354:29358   */\n      dup2\n        /* \"#utility.yul\":29228:29359   */\n      tag_488\n      jump\t// in\n    tag_804:\n        /* \"#utility.yul\":29220:29359   */\n      swap1\n      pop\n        /* \"#utility.yul\":28947:29366   */\n      swap2\n      swap1\n      pop\n      jump\t// out\n        /* \"#utility.yul\":29372:30127   */\n    tag_229:\n        /* \"#utility.yul\":29597:29601   */\n      0x00\n        /* \"#utility.yul\":29635:29638   */\n      0xa0\n        /* \"#utility.yul\":29624:29633   */\n      dup3\n        /* \"#utility.yul\":29620:29639   */\n      add\n        /* \"#utility.yul\":29612:29639   */\n      swap1\n      pop\n        /* \"#utility.yul\":29685:29694   */\n      dup2\n        /* \"#utility.yul\":29679:29683   */\n      dup2\n        /* \"#utility.yul\":29675:29695   */\n      sub\n        /* \"#utility.yul\":29671:29672   */\n      0x00\n        /* \"#utility.yul\":29660:29669   */\n      dup4\n        /* \"#utility.yul\":29656:29673   */\n      add\n        /* \"#utility.yul\":29649:29696   */\n      mstore\n        /* \"#utility.yul\":29713:29791   */\n      tag_806\n        /* \"#utility.yul\":29786:29790   */\n      dup2\n        /* \"#utility.yul\":29777:29783   */\n      dup9\n        /* \"#utility.yul\":29713:29791   */\n      tag_427\n      jump\t// in\n    tag_806:\n        /* \"#utility.yul\":29705:29791   */\n      swap1\n      pop\n        /* \"#utility.yul\":29801:29873   */\n      tag_807\n        /* \"#utility.yul\":29869:29871   */\n      0x20\n        /* \"#utility.yul\":29858:29867   */\n      dup4\n        /* \"#utility.yul\":29854:29872   */\n      add\n        /* \"#utility.yul\":29845:29851   */\n      dup8\n        /* \"#utility.yul\":29801:29873   */\n      tag_465\n      jump\t// in\n    tag_807:\n        /* \"#utility.yul\":29883:29955   */\n      tag_808\n        /* \"#utility.yul\":29951:29953   */\n      0x40\n        /* \"#utility.yul\":29940:29949   */\n      dup4\n        /* \"#utility.yul\":29936:29954   */\n      add\n        /* \"#utility.yul\":29927:29933   */\n      dup7\n        /* \"#utility.yul\":29883:29955   */\n      tag_465\n      jump\t// in\n    tag_808:\n        /* \"#utility.yul\":29965:30037   */\n      tag_809\n        /* \"#utility.yul\":30033:30035   */\n      0x60\n        /* \"#utility.yul\":30022:30031   */\n      dup4\n        /* \"#utility.yul\":30018:30036   */\n      add\n        /* \"#utility.yul\":30009:30015   */\n      dup6\n        /* \"#utility.yul\":29965:30037   */\n      tag_453\n      jump\t// in\n    tag_809:\n        /* \"#utility.yul\":30047:30120   */\n      tag_810\n        /* \"#utility.yul\":30115:30118   */\n      0x80\n        /* \"#utility.yul\":30104:30113   */\n      dup4\n        /* \"#utility.yul\":30100:30119   */\n      add\n        /* \"#utility.yul\":30091:30097   */\n      dup5\n        /* \"#utility.yul\":30047:30120   */\n      tag_453\n      jump\t// in\n    tag_810:\n        /* \"#utility.yul\":29372:30127   */\n      swap7\n      swap6\n      pop\n      pop\n      pop\n      pop\n      pop\n      pop\n      jump\t// out\n        /* \"#utility.yul\":30133:30567   */\n    tag_489:\n        /* \"#utility.yul\":30222:30227   */\n      0x00\n        /* \"#utility.yul\":30247:30313   */\n      tag_812\n        /* \"#utility.yul\":30263:30312   */\n      tag_813\n        /* \"#utility.yul\":30305:30311   */\n      dup5\n        /* \"#utility.yul\":30263:30312   */\n      tag_441\n      jump\t// in\n    tag_813:\n        /* \"#utility.yul\":30247:30313   */\n      tag_440\n      jump\t// in\n    tag_812:\n        /* \"#utility.yul\":30238:30313   */\n      swap1\n      pop\n        /* \"#utility.yul\":30336:30342   */\n      dup3\n        /* \"#utility.yul\":30329:30334   */\n      dup2\n        /* \"#utility.yul\":30322:30343   */\n      mstore\n        /* \"#utility.yul\":30374:30378   */\n      0x20\n        /* \"#utility.yul\":30367:30372   */\n      dup2\n        /* \"#utility.yul\":30363:30379   */\n      add\n        /* \"#utility.yul\":30412:30415   */\n      dup5\n        /* \"#utility.yul\":30403:30409   */\n      dup5\n        /* \"#utility.yul\":30398:30401   */\n      dup5\n        /* \"#utility.yul\":30394:30410   */\n      add\n        /* \"#utility.yul\":30391:30416   */\n      gt\n        /* \"#utility.yul\":30388:30500   */\n      iszero\n      tag_814\n      jumpi\n        /* \"#utility.yul\":30419:30498   */\n      tag_815\n      tag_438\n      jump\t// in\n    tag_815:\n        /* \"#utility.yul\":30388:30500   */\n    tag_814:\n        /* \"#utility.yul\":30509:30561   */\n      tag_816\n        /* \"#utility.yul\":30554:30560   */\n      dup5\n        /* \"#utility.yul\":30549:30552   */\n      dup3\n        /* \"#utility.yul\":30544:30547   */\n      dup6\n        /* \"#utility.yul\":30509:30561   */\n      tag_425\n      jump\t// in\n    tag_816:\n        /* \"#utility.yul\":30228:30567   */\n      pop\n        /* \"#utility.yul\":30133:30567   */\n      swap4\n      swap3\n      pop\n      pop\n      pop\n      jump\t// out\n        /* \"#utility.yul\":30587:30942   */\n    tag_490:\n        /* \"#utility.yul\":30654:30659   */\n      0x00\n        /* \"#utility.yul\":30703:30706   */\n      dup3\n        /* \"#utility.yul\":30696:30700   */\n      0x1f\n        /* \"#utility.yul\":30688:30694   */\n      dup4\n        /* \"#utility.yul\":30684:30701   */\n      add\n        /* \"#utility.yul\":30680:30707   */\n      slt\n        /* \"#utility.yul\":30670:30792   */\n      tag_818\n      jumpi\n        /* \"#utility.yul\":30711:30790   */\n      tag_819\n      tag_437\n      jump\t// in\n    tag_819:\n        /* \"#utility.yul\":30670:30792   */\n    tag_818:\n        /* \"#utility.yul\":30821:30827   */\n      dup2\n        /* \"#utility.yul\":30815:30828   */\n      mload\n        /* \"#utility.yul\":30846:30936   */\n      tag_820\n        /* \"#utility.yul\":30932:30935   */\n      dup5\n        /* \"#utility.yul\":30924:30930   */\n      dup3\n        /* \"#utility.yul\":30917:30921   */\n      0x20\n        /* \"#utility.yul\":30909:30915   */\n      dup7\n        /* \"#utility.yul\":30905:30922   */\n      add\n        /* \"#utility.yul\":30846:30936   */\n      tag_489\n      jump\t// in\n    tag_820:\n        /* \"#utility.yul\":30837:30936   */\n      swap2\n      pop\n        /* \"#utility.yul\":30660:30942   */\n      pop\n        /* \"#utility.yul\":30587:30942   */\n      swap3\n      swap2\n      pop\n      pop\n      jump\t// out\n        /* \"#utility.yul\":30948:31472   */\n    tag_233:\n        /* \"#utility.yul\":31028:31034   */\n      0x00\n        /* \"#utility.yul\":31077:31079   */\n      0x20\n        /* \"#utility.yul\":31065:31074   */\n      dup3\n        /* \"#utility.yul\":31056:31063   */\n      dup5\n        /* \"#utility.yul\":31052:31075   */\n      sub\n        /* \"#utility.yul\":31048:31080   */\n      slt\n        /* \"#utility.yul\":31045:31164   */\n      iszero\n      tag_822\n      jumpi\n        /* \"#utility.yul\":31083:31162   */\n      tag_823\n      tag_429\n      jump\t// in\n    tag_823:\n        /* \"#utility.yul\":31045:31164   */\n    tag_822:\n        /* \"#utility.yul\":31224:31225   */\n      0x00\n        /* \"#utility.yul\":31213:31222   */\n      dup3\n        /* \"#utility.yul\":31209:31226   */\n      add\n        /* \"#utility.yul\":31203:31227   */\n      mload\n        /* \"#utility.yul\":31254:31272   */\n      0xffffffffffffffff\n        /* \"#utility.yul\":31246:31252   */\n      dup2\n        /* \"#utility.yul\":31243:31273   */\n      gt\n        /* \"#utility.yul\":31240:31357   */\n      iszero\n      tag_824\n      jumpi\n        /* \"#utility.yul\":31276:31355   */\n      tag_825\n      tag_430\n      jump\t// in\n    tag_825:\n        /* \"#utility.yul\":31240:31357   */\n    tag_824:\n        /* \"#utility.yul\":31381:31455   */\n      tag_826\n        /* \"#utility.yul\":31447:31454   */\n      dup5\n        /* \"#utility.yul\":31438:31444   */\n      dup3\n        /* \"#utility.yul\":31427:31436   */\n      dup6\n        /* \"#utility.yul\":31423:31445   */\n      add\n        /* \"#utility.yul\":31381:31455   */\n      tag_490\n      jump\t// in\n    tag_826:\n        /* \"#utility.yul\":31371:31455   */\n      swap2\n      pop\n        /* \"#utility.yul\":31174:31465   */\n      pop\n        /* \"#utility.yul\":30948:31472   */\n      swap3\n      swap2\n      pop\n      pop\n      jump\t// out\n        /* \"#utility.yul\":31478:31633   */\n    tag_491:\n        /* \"#utility.yul\":31589:31626   */\n      tag_828\n        /* \"#utility.yul\":31620:31625   */\n      dup2\n        /* \"#utility.yul\":31589:31626   */\n      tag_460\n      jump\t// in\n    tag_828:\n        /* \"#utility.yul\":31584:31587   */\n      dup3\n        /* \"#utility.yul\":31577:31627   */\n      mstore\n        /* \"#utility.yul\":31478:31633   */\n      pop\n      pop\n      jump\t// out\n        /* \"#utility.yul\":31639:31909   */\n    tag_239:\n        /* \"#utility.yul\":31756:31760   */\n      0x00\n        /* \"#utility.yul\":31794:31796   */\n      0x20\n        /* \"#utility.yul\":31783:31792   */\n      dup3\n        /* \"#utility.yul\":31779:31797   */\n      add\n        /* \"#utility.yul\":31771:31797   */\n      swap1\n      pop\n        /* \"#utility.yul\":31807:31902   */\n      tag_830\n        /* \"#utility.yul\":31899:31900   */\n      0x00\n        /* \"#utility.yul\":31888:31897   */\n      dup4\n        /* \"#utility.yul\":31884:31901   */\n      add\n        /* \"#utility.yul\":31875:31881   */\n      dup5\n        /* \"#utility.yul\":31807:31902   */\n      tag_491\n      jump\t// in\n    tag_830:\n        /* \"#utility.yul\":31639:31909   */\n      swap3\n      swap2\n      pop\n      pop\n      jump\t// out\n        /* \"#utility.yul\":31915:32074   */\n    tag_492:\n        /* \"#utility.yul\":31980:31985   */\n      0x00\n        /* \"#utility.yul\":32011:32017   */\n      dup2\n        /* \"#utility.yul\":32005:32018   */\n      mload\n        /* \"#utility.yul\":31996:32018   */\n      swap1\n      pop\n        /* \"#utility.yul\":32027:32068   */\n      tag_832\n        /* \"#utility.yul\":32062:32067   */\n      dup2\n        /* \"#utility.yul\":32027:32068   */\n      tag_445\n      jump\t// in\n    tag_832:\n        /* \"#utility.yul\":31915:32074   */\n      swap3\n      swap2\n      pop\n      pop\n      jump\t// out\n        /* \"#utility.yul\":32080:32447   */\n    tag_243:\n        /* \"#utility.yul\":32158:32164   */\n      0x00\n        /* \"#utility.yul\":32207:32209   */\n      0x20\n        /* \"#utility.yul\":32195:32204   */\n      dup3\n        /* \"#utility.yul\":32186:32193   */\n      dup5\n        /* \"#utility.yul\":32182:32205   */\n      sub\n        /* \"#utility.yul\":32178:32210   */\n      slt\n        /* \"#utility.yul\":32175:32294   */\n      iszero\n      tag_834\n      jumpi\n        /* \"#utility.yul\":32213:32292   */\n      tag_835\n      tag_429\n      jump\t// in\n    tag_835:\n        /* \"#utility.yul\":32175:32294   */\n    tag_834:\n        /* \"#utility.yul\":32333:32334   */\n      0x00\n        /* \"#utility.yul\":32358:32430   */\n      tag_836\n        /* \"#utility.yul\":32422:32429   */\n      dup5\n        /* \"#utility.yul\":32413:32419   */\n      dup3\n        /* \"#utility.yul\":32402:32411   */\n      dup6\n        /* \"#utility.yul\":32398:32420   */\n      add\n        /* \"#utility.yul\":32358:32430   */\n      tag_492\n      jump\t// in\n    tag_836:\n        /* \"#utility.yul\":32348:32430   */\n      swap2\n      pop\n        /* \"#utility.yul\":32304:32440   */\n      pop\n        /* \"#utility.yul\":32080:32447   */\n      swap3\n      swap2\n      pop\n      pop\n      jump\t// out\n        /* \"#utility.yul\":32453:32620   */\n    tag_493:\n        /* \"#utility.yul\":32593:32612   */\n      0x696e76616c6964207369676e6174757265000000000000000000000000000000\n        /* \"#utility.yul\":32589:32590   */\n      0x00\n        /* \"#utility.yul\":32581:32587   */\n      dup3\n        /* \"#utility.yul\":32577:32591   */\n      add\n        /* \"#utility.yul\":32570:32613   */\n      mstore\n        /* \"#utility.yul\":32453:32620   */\n      pop\n      jump\t// out\n        /* \"#utility.yul\":32626:32992   */\n    tag_494:\n        /* \"#utility.yul\":32768:32771   */\n      0x00\n        /* \"#utility.yul\":32789:32856   */\n      tag_839\n        /* \"#utility.yul\":32853:32855   */\n      0x11\n        /* \"#utility.yul\":32848:32851   */\n      dup4\n        /* \"#utility.yul\":32789:32856   */\n      tag_424\n      jump\t// in\n    tag_839:\n        /* \"#utility.yul\":32782:32856   */\n      swap2\n      pop\n        /* \"#utility.yul\":32865:32958   */\n      tag_840\n        /* \"#utility.yul\":32954:32957   */\n      dup3\n        /* \"#utility.yul\":32865:32958   */\n      tag_493\n      jump\t// in\n    tag_840:\n        /* \"#utility.yul\":32983:32985   */\n      0x20\n        /* \"#utility.yul\":32978:32981   */\n      dup3\n        /* \"#utility.yul\":32974:32986   */\n      add\n        /* \"#utility.yul\":32967:32986   */\n      swap1\n      pop\n        /* \"#utility.yul\":32626:32992   */\n      swap2\n      swap1\n      pop\n      jump\t// out\n        /* \"#utility.yul\":32998:33417   */\n    tag_253:\n        /* \"#utility.yul\":33164:33168   */\n      0x00\n        /* \"#utility.yul\":33202:33204   */\n      0x20\n        /* \"#utility.yul\":33191:33200   */\n      dup3\n        /* \"#utility.yul\":33187:33205   */\n      add\n        /* \"#utility.yul\":33179:33205   */\n      swap1\n      pop\n        /* \"#utility.yul\":33251:33260   */\n      dup2\n        /* \"#utility.yul\":33245:33249   */\n      dup2\n        /* \"#utility.yul\":33241:33261   */\n      sub\n        /* \"#utility.yul\":33237:33238   */\n      0x00\n        /* \"#utility.yul\":33226:33235   */\n      dup4\n        /* \"#utility.yul\":33222:33239   */\n      add\n        /* \"#utility.yul\":33215:33262   */\n      mstore\n        /* \"#utility.yul\":33279:33410   */\n      tag_842\n        /* \"#utility.yul\":33405:33409   */\n      dup2\n        /* \"#utility.yul\":33279:33410   */\n      tag_494\n      jump\t// in\n    tag_842:\n        /* \"#utility.yul\":33271:33410   */\n      swap1\n      pop\n        /* \"#utility.yul\":32998:33417   */\n      swap2\n      swap1\n      pop\n      jump\t// out\n        /* \"#utility.yul\":33423:33566   */\n    tag_495:\n        /* \"#utility.yul\":33480:33485   */\n      0x00\n        /* \"#utility.yul\":33511:33517   */\n      dup2\n        /* \"#utility.yul\":33505:33518   */\n      mload\n        /* \"#utility.yul\":33496:33518   */\n      swap1\n      pop\n        /* \"#utility.yul\":33527:33560   */\n      tag_844\n        /* \"#utility.yul\":33554:33559   */\n      dup2\n        /* \"#utility.yul\":33527:33560   */\n      tag_454\n      jump\t// in\n    tag_844:\n        /* \"#utility.yul\":33423:33566   */\n      swap3\n      swap2\n      pop\n      pop\n      jump\t// out\n        /* \"#utility.yul\":33572:33923   */\n    tag_289:\n        /* \"#utility.yul\":33642:33648   */\n      0x00\n        /* \"#utility.yul\":33691:33693   */\n      0x20\n        /* \"#utility.yul\":33679:33688   */\n      dup3\n        /* \"#utility.yul\":33670:33677   */\n      dup5\n        /* \"#utility.yul\":33666:33689   */\n      sub\n        /* \"#utility.yul\":33662:33694   */\n      slt\n        /* \"#utility.yul\":33659:33778   */\n      iszero\n      tag_846\n      jumpi\n        /* \"#utility.yul\":33697:33776   */\n      tag_847\n      tag_429\n      jump\t// in\n    tag_847:\n        /* \"#utility.yul\":33659:33778   */\n    tag_846:\n        /* \"#utility.yul\":33817:33818   */\n      0x00\n        /* \"#utility.yul\":33842:33906   */\n      tag_848\n        /* \"#utility.yul\":33898:33905   */\n      dup5\n        /* \"#utility.yul\":33889:33895   */\n      dup3\n        /* \"#utility.yul\":33878:33887   */\n      dup6\n        /* \"#utility.yul\":33874:33896   */\n      add\n        /* \"#utility.yul\":33842:33906   */\n      tag_495\n      jump\t// in\n    tag_848:\n        /* \"#utility.yul\":33832:33906   */\n      swap2\n      pop\n        /* \"#utility.yul\":33788:33916   */\n      pop\n        /* \"#utility.yul\":33572:33923   */\n      swap3\n      swap2\n      pop\n      pop\n      jump\t// out\n        /* \"#utility.yul\":33929:34095   */\n    tag_496:\n        /* \"#utility.yul\":34069:34087   */\n      0x6e6f7420656e6f75676820657468657200000000000000000000000000000000\n        /* \"#utility.yul\":34065:34066   */\n      0x00\n        /* \"#utility.yul\":34057:34063   */\n      dup3\n        /* \"#utility.yul\":34053:34067   */\n      add\n        /* \"#utility.yul\":34046:34088   */\n      mstore\n        /* \"#utility.yul\":33929:34095   */\n      pop\n      jump\t// out\n        /* \"#utility.yul\":34101:34467   */\n    tag_497:\n        /* \"#utility.yul\":34243:34246   */\n      0x00\n        /* \"#utility.yul\":34264:34331   */\n      tag_851\n        /* \"#utility.yul\":34328:34330   */\n      0x10\n        /* \"#utility.yul\":34323:34326   */\n      dup4\n        /* \"#utility.yul\":34264:34331   */\n      tag_424\n      jump\t// in\n    tag_851:\n        /* \"#utility.yul\":34257:34331   */\n      swap2\n      pop\n        /* \"#utility.yul\":34340:34433   */\n      tag_852\n        /* \"#utility.yul\":34429:34432   */\n      dup3\n        /* \"#utility.yul\":34340:34433   */\n      tag_496\n      jump\t// in\n    tag_852:\n        /* \"#utility.yul\":34458:34460   */\n      0x20\n        /* \"#utility.yul\":34453:34456   */\n      dup3\n        /* \"#utility.yul\":34449:34461   */\n      add\n        /* \"#utility.yul\":34442:34461   */\n      swap1\n      pop\n        /* \"#utility.yul\":34101:34467   */\n      swap2\n      swap1\n      pop\n      jump\t// out\n        /* \"#utility.yul\":34473:34892   */\n    tag_292:\n        /* \"#utility.yul\":34639:34643   */\n      0x00\n        /* \"#utility.yul\":34677:34679   */\n      0x20\n        /* \"#utility.yul\":34666:34675   */\n      dup3\n        /* \"#utility.yul\":34662:34680   */\n      add\n        /* \"#utility.yul\":34654:34680   */\n      swap1\n      pop\n        /* \"#utility.yul\":34726:34735   */\n      dup2\n        /* \"#utility.yul\":34720:34724   */\n      dup2\n        /* \"#utility.yul\":34716:34736   */\n      sub\n        /* \"#utility.yul\":34712:34713   */\n      0x00\n        /* \"#utility.yul\":34701:34710   */\n      dup4\n        /* \"#utility.yul\":34697:34714   */\n      add\n        /* \"#utility.yul\":34690:34737   */\n      mstore\n        /* \"#utility.yul\":34754:34885   */\n      tag_854\n        /* \"#utility.yul\":34880:34884   */\n      dup2\n        /* \"#utility.yul\":34754:34885   */\n      tag_497\n      jump\t// in\n    tag_854:\n        /* \"#utility.yul\":34746:34885   */\n      swap1\n      pop\n        /* \"#utility.yul\":34473:34892   */\n      swap2\n      swap1\n      pop\n      jump\t// out\n        /* \"#utility.yul\":34898:35074   */\n    tag_498:\n        /* \"#utility.yul\":35038:35066   */\n      0x696e76616c6964206c6963656e736565207369676e6174757265000000000000\n        /* \"#utility.yul\":35034:35035   */\n      0x00\n        /* \"#utility.yul\":35026:35032   */\n      dup3\n        /* \"#utility.yul\":35022:35036   */\n      add\n        /* \"#utility.yul\":35015:35067   */\n      mstore\n        /* \"#utility.yul\":34898:35074   */\n      pop\n      jump\t// out\n        /* \"#utility.yul\":35080:35446   */\n    tag_499:\n        /* \"#utility.yul\":35222:35225   */\n      0x00\n        /* \"#utility.yul\":35243:35310   */\n      tag_857\n        /* \"#utility.yul\":35307:35309   */\n      0x1a\n        /* \"#utility.yul\":35302:35305   */\n      dup4\n        /* \"#utility.yul\":35243:35310   */\n      tag_424\n      jump\t// in\n    tag_857:\n        /* \"#utility.yul\":35236:35310   */\n      swap2\n      pop\n        /* \"#utility.yul\":35319:35412   */\n      tag_858\n        /* \"#utility.yul\":35408:35411   */\n      dup3\n        /* \"#utility.yul\":35319:35412   */\n      tag_498\n      jump\t// in\n    tag_858:\n        /* \"#utility.yul\":35437:35439   */\n      0x20\n        /* \"#utility.yul\":35432:35435   */\n      dup3\n        /* \"#utility.yul\":35428:35440   */\n      add\n        /* \"#utility.yul\":35421:35440   */\n      swap1\n      pop\n        /* \"#utility.yul\":35080:35446   */\n      swap2\n      swap1\n      pop\n      jump\t// out\n        /* \"#utility.yul\":35452:35871   */\n    tag_297:\n        /* \"#utility.yul\":35618:35622   */\n      0x00\n        /* \"#utility.yul\":35656:35658   */\n      0x20\n        /* \"#utility.yul\":35645:35654   */\n      dup3\n        /* \"#utility.yul\":35641:35659   */\n      add\n        /* \"#utility.yul\":35633:35659   */\n      swap1\n      pop\n        /* \"#utility.yul\":35705:35714   */\n      dup2\n        /* \"#utility.yul\":35699:35703   */\n      dup2\n        /* \"#utility.yul\":35695:35715   */\n      sub\n        /* \"#utility.yul\":35691:35692   */\n      0x00\n        /* \"#utility.yul\":35680:35689   */\n      dup4\n        /* \"#utility.yul\":35676:35693   */\n      add\n        /* \"#utility.yul\":35669:35716   */\n      mstore\n        /* \"#utility.yul\":35733:35864   */\n      tag_860\n        /* \"#utility.yul\":35859:35863   */\n      dup2\n        /* \"#utility.yul\":35733:35864   */\n      tag_499\n      jump\t// in\n    tag_860:\n        /* \"#utility.yul\":35725:35864   */\n      swap1\n      pop\n        /* \"#utility.yul\":35452:35871   */\n      swap2\n      swap1\n      pop\n      jump\t// out\n        /* \"#utility.yul\":35877:36024   */\n    tag_500:\n        /* \"#utility.yul\":35978:35989   */\n      0x00\n        /* \"#utility.yul\":36015:36018   */\n      dup2\n        /* \"#utility.yul\":36000:36018   */\n      swap1\n      pop\n        /* \"#utility.yul\":35877:36024   */\n      swap3\n      swap2\n      pop\n      pop\n      jump\t// out\n        /* \"#utility.yul\":36030:36144   */\n    tag_501:\n      pop\n      jump\t// out\n        /* \"#utility.yul\":36150:36548   */\n    tag_502:\n        /* \"#utility.yul\":36309:36312   */\n      0x00\n        /* \"#utility.yul\":36330:36413   */\n      tag_864\n        /* \"#utility.yul\":36411:36412   */\n      0x00\n        /* \"#utility.yul\":36406:36409   */\n      dup4\n        /* \"#utility.yul\":36330:36413   */\n      tag_500\n      jump\t// in\n    tag_864:\n        /* \"#utility.yul\":36323:36413   */\n      swap2\n      pop\n        /* \"#utility.yul\":36422:36515   */\n      tag_865\n        /* \"#utility.yul\":36511:36514   */\n      dup3\n        /* \"#utility.yul\":36422:36515   */\n      tag_501\n      jump\t// in\n    tag_865:\n        /* \"#utility.yul\":36540:36541   */\n      0x00\n        /* \"#utility.yul\":36535:36538   */\n      dup3\n        /* \"#utility.yul\":36531:36542   */\n      add\n        /* \"#utility.yul\":36524:36542   */\n      swap1\n      pop\n        /* \"#utility.yul\":36150:36548   */\n      swap2\n      swap1\n      pop\n      jump\t// out\n        /* \"#utility.yul\":36554:36933   */\n    tag_307:\n        /* \"#utility.yul\":36738:36741   */\n      0x00\n        /* \"#utility.yul\":36760:36907   */\n      tag_867\n        /* \"#utility.yul\":36903:36906   */\n      dup3\n        /* \"#utility.yul\":36760:36907   */\n      tag_502\n      jump\t// in\n    tag_867:\n        /* \"#utility.yul\":36753:36907   */\n      swap2\n      pop\n        /* \"#utility.yul\":36924:36927   */\n      dup2\n        /* \"#utility.yul\":36917:36927   */\n      swap1\n      pop\n        /* \"#utility.yul\":36554:36933   */\n      swap2\n      swap1\n      pop\n      jump\t// out\n        /* \"#utility.yul\":36939:37109   */\n    tag_503:\n        /* \"#utility.yul\":37079:37101   */\n      0x6661696c656420746f2073656e64206574686572000000000000000000000000\n        /* \"#utility.yul\":37075:37076   */\n      0x00\n        /* \"#utility.yul\":37067:37073   */\n      dup3\n        /* \"#utility.yul\":37063:37077   */\n      add\n        /* \"#utility.yul\":37056:37102   */\n      mstore\n        /* \"#utility.yul\":36939:37109   */\n      pop\n      jump\t// out\n        /* \"#utility.yul\":37115:37481   */\n    tag_504:\n        /* \"#utility.yul\":37257:37260   */\n      0x00\n        /* \"#utility.yul\":37278:37345   */\n      tag_870\n        /* \"#utility.yul\":37342:37344   */\n      0x14\n        /* \"#utility.yul\":37337:37340   */\n      dup4\n        /* \"#utility.yul\":37278:37345   */\n      tag_424\n      jump\t// in\n    tag_870:\n        /* \"#utility.yul\":37271:37345   */\n      swap2\n      pop\n        /* \"#utility.yul\":37354:37447   */\n      tag_871\n        /* \"#utility.yul\":37443:37446   */\n      dup3\n        /* \"#utility.yul\":37354:37447   */\n      tag_503\n      jump\t// in\n    tag_871:\n        /* \"#utility.yul\":37472:37474   */\n      0x20\n        /* \"#utility.yul\":37467:37470   */\n      dup3\n        /* \"#utility.yul\":37463:37475   */\n      add\n        /* \"#utility.yul\":37456:37475   */\n      swap1\n      pop\n        /* \"#utility.yul\":37115:37481   */\n      swap2\n      swap1\n      pop\n      jump\t// out\n        /* \"#utility.yul\":37487:37906   */\n    tag_313:\n        /* \"#utility.yul\":37653:37657   */\n      0x00\n        /* \"#utility.yul\":37691:37693   */\n      0x20\n        /* \"#utility.yul\":37680:37689   */\n      dup3\n        /* \"#utility.yul\":37676:37694   */\n      add\n        /* \"#utility.yul\":37668:37694   */\n      swap1\n      pop\n        /* \"#utility.yul\":37740:37749   */\n      dup2\n        /* \"#utility.yul\":37734:37738   */\n      dup2\n        /* \"#utility.yul\":37730:37750   */\n      sub\n        /* \"#utility.yul\":37726:37727   */\n      0x00\n        /* \"#utility.yul\":37715:37724   */\n      dup4\n        /* \"#utility.yul\":37711:37728   */\n      add\n        /* \"#utility.yul\":37704:37751   */\n      mstore\n        /* \"#utility.yul\":37768:37899   */\n      tag_873\n        /* \"#utility.yul\":37894:37898   */\n      dup2\n        /* \"#utility.yul\":37768:37899   */\n      tag_504\n      jump\t// in\n    tag_873:\n        /* \"#utility.yul\":37760:37899   */\n      swap1\n      pop\n        /* \"#utility.yul\":37487:37906   */\n      swap2\n      swap1\n      pop\n      jump\t// out\n        /* \"#utility.yul\":37912:37989   */\n    tag_505:\n        /* \"#utility.yul\":37949:37956   */\n      0x00\n        /* \"#utility.yul\":37978:37983   */\n      dup2\n        /* \"#utility.yul\":37967:37983   */\n      swap1\n      pop\n        /* \"#utility.yul\":37912:37989   */\n      swap2\n      swap1\n      pop\n      jump\t// out\n        /* \"#utility.yul\":37995:38113   */\n    tag_506:\n        /* \"#utility.yul\":38082:38106   */\n      tag_876\n        /* \"#utility.yul\":38100:38105   */\n      dup2\n        /* \"#utility.yul\":38082:38106   */\n      tag_505\n      jump\t// in\n    tag_876:\n        /* \"#utility.yul\":38077:38080   */\n      dup3\n        /* \"#utility.yul\":38070:38107   */\n      mstore\n        /* \"#utility.yul\":37995:38113   */\n      pop\n      pop\n      jump\t// out\n        /* \"#utility.yul\":38119:38287   */\n    tag_507:\n        /* \"#utility.yul\":38202:38213   */\n      0x00\n        /* \"#utility.yul\":38236:38242   */\n      dup3\n        /* \"#utility.yul\":38231:38234   */\n      dup3\n        /* \"#utility.yul\":38224:38243   */\n      mstore\n        /* \"#utility.yul\":38276:38280   */\n      0x20\n        /* \"#utility.yul\":38271:38274   */\n      dup3\n        /* \"#utility.yul\":38267:38281   */\n      add\n        /* \"#utility.yul\":38252:38281   */\n      swap1\n      pop\n        /* \"#utility.yul\":38119:38287   */\n      swap3\n      swap2\n      pop\n      pop\n      jump\t// out\n        /* \"#utility.yul\":38315:38629   */\n    tag_508:\n        /* \"#utility.yul\":38411:38414   */\n      0x00\n        /* \"#utility.yul\":38432:38502   */\n      tag_879\n        /* \"#utility.yul\":38495:38501   */\n      dup4\n        /* \"#utility.yul\":38490:38493   */\n      dup6\n        /* \"#utility.yul\":38432:38502   */\n      tag_507\n      jump\t// in\n    tag_879:\n        /* \"#utility.yul\":38425:38502   */\n      swap4\n      pop\n        /* \"#utility.yul\":38512:38568   */\n      tag_880\n        /* \"#utility.yul\":38561:38567   */\n      dup4\n        /* \"#utility.yul\":38556:38559   */\n      dup6\n        /* \"#utility.yul\":38549:38554   */\n      dup5\n        /* \"#utility.yul\":38512:38568   */\n      tag_442\n      jump\t// in\n    tag_880:\n        /* \"#utility.yul\":38593:38622   */\n      tag_881\n        /* \"#utility.yul\":38615:38621   */\n      dup4\n        /* \"#utility.yul\":38593:38622   */\n      tag_426\n      jump\t// in\n    tag_881:\n        /* \"#utility.yul\":38588:38591   */\n      dup5\n        /* \"#utility.yul\":38584:38623   */\n      add\n        /* \"#utility.yul\":38577:38623   */\n      swap1\n      pop\n        /* \"#utility.yul\":38315:38629   */\n      swap4\n      swap3\n      pop\n      pop\n      pop\n      jump\t// out\n        /* \"#utility.yul\":38635:39074   */\n    tag_331:\n        /* \"#utility.yul\":38784:38788   */\n      0x00\n        /* \"#utility.yul\":38822:38824   */\n      0x40\n        /* \"#utility.yul\":38811:38820   */\n      dup3\n        /* \"#utility.yul\":38807:38825   */\n      add\n        /* \"#utility.yul\":38799:38825   */\n      swap1\n      pop\n        /* \"#utility.yul\":38835:38906   */\n      tag_883\n        /* \"#utility.yul\":38903:38904   */\n      0x00\n        /* \"#utility.yul\":38892:38901   */\n      dup4\n        /* \"#utility.yul\":38888:38905   */\n      add\n        /* \"#utility.yul\":38879:38885   */\n      dup7\n        /* \"#utility.yul\":38835:38906   */\n      tag_506\n      jump\t// in\n    tag_883:\n        /* \"#utility.yul\":38953:38962   */\n      dup2\n        /* \"#utility.yul\":38947:38951   */\n      dup2\n        /* \"#utility.yul\":38943:38963   */\n      sub\n        /* \"#utility.yul\":38938:38940   */\n      0x20\n        /* \"#utility.yul\":38927:38936   */\n      dup4\n        /* \"#utility.yul\":38923:38941   */\n      add\n        /* \"#utility.yul\":38916:38964   */\n      mstore\n        /* \"#utility.yul\":38981:39067   */\n      tag_884\n        /* \"#utility.yul\":39062:39066   */\n      dup2\n        /* \"#utility.yul\":39053:39059   */\n      dup5\n        /* \"#utility.yul\":39045:39051   */\n      dup7\n        /* \"#utility.yul\":38981:39067   */\n      tag_508\n      jump\t// in\n    tag_884:\n        /* \"#utility.yul\":38973:39067   */\n      swap1\n      pop\n        /* \"#utility.yul\":38635:39074   */\n      swap5\n      swap4\n      pop\n      pop\n      pop\n      pop\n      jump\t// out\n        /* \"#utility.yul\":39080:39178   */\n    tag_509:\n        /* \"#utility.yul\":39131:39137   */\n      0x00\n        /* \"#utility.yul\":39165:39170   */\n      dup2\n        /* \"#utility.yul\":39159:39171   */\n      mload\n        /* \"#utility.yul\":39149:39171   */\n      swap1\n      pop\n        /* \"#utility.yul\":39080:39178   */\n      swap2\n      swap1\n      pop\n      jump\t// out\n        /* \"#utility.yul\":39184:39570   */\n    tag_510:\n        /* \"#utility.yul\":39288:39291   */\n      0x00\n        /* \"#utility.yul\":39316:39354   */\n      tag_887\n        /* \"#utility.yul\":39348:39353   */\n      dup3\n        /* \"#utility.yul\":39316:39354   */\n      tag_509\n      jump\t// in\n    tag_887:\n        /* \"#utility.yul\":39370:39458   */\n      tag_888\n        /* \"#utility.yul\":39451:39457   */\n      dup2\n        /* \"#utility.yul\":39446:39449   */\n      dup6\n        /* \"#utility.yul\":39370:39458   */\n      tag_500\n      jump\t// in\n    tag_888:\n        /* \"#utility.yul\":39363:39458   */\n      swap4\n      pop\n        /* \"#utility.yul\":39467:39532   */\n      tag_889\n        /* \"#utility.yul\":39525:39531   */\n      dup2\n        /* \"#utility.yul\":39520:39523   */\n      dup6\n        /* \"#utility.yul\":39513:39517   */\n      0x20\n        /* \"#utility.yul\":39506:39511   */\n      dup7\n        /* \"#utility.yul\":39502:39518   */\n      add\n        /* \"#utility.yul\":39467:39532   */\n      tag_425\n      jump\t// in\n    tag_889:\n        /* \"#utility.yul\":39557:39563   */\n      dup1\n        /* \"#utility.yul\":39552:39555   */\n      dup5\n        /* \"#utility.yul\":39548:39564   */\n      add\n        /* \"#utility.yul\":39541:39564   */\n      swap2\n      pop\n        /* \"#utility.yul\":39292:39570   */\n      pop\n        /* \"#utility.yul\":39184:39570   */\n      swap3\n      swap2\n      pop\n      pop\n      jump\t// out\n        /* \"#utility.yul\":39576:39847   */\n    tag_333:\n        /* \"#utility.yul\":39706:39709   */\n      0x00\n        /* \"#utility.yul\":39728:39821   */\n      tag_891\n        /* \"#utility.yul\":39817:39820   */\n      dup3\n        /* \"#utility.yul\":39808:39814   */\n      dup5\n        /* \"#utility.yul\":39728:39821   */\n      tag_510\n      jump\t// in\n    tag_891:\n        /* \"#utility.yul\":39721:39821   */\n      swap2\n      pop\n        /* \"#utility.yul\":39838:39841   */\n      dup2\n        /* \"#utility.yul\":39831:39841   */\n      swap1\n      pop\n        /* \"#utility.yul\":39576:39847   */\n      swap3\n      swap2\n      pop\n      pop\n      jump\t// out\n        /* \"#utility.yul\":39853:40002   */\n    tag_511:\n        /* \"#utility.yul\":39889:39896   */\n      0x00\n        /* \"#utility.yul\":39929:39995   */\n      0xffffffff00000000000000000000000000000000000000000000000000000000\n        /* \"#utility.yul\":39922:39927   */\n      dup3\n        /* \"#utility.yul\":39918:39996   */\n      and\n        /* \"#utility.yul\":39907:39996   */\n      swap1\n      pop\n        /* \"#utility.yul\":39853:40002   */\n      swap2\n      swap1\n      pop\n      jump\t// out\n        /* \"#utility.yul\":40008:40128   */\n    tag_512:\n        /* \"#utility.yul\":40080:40103   */\n      tag_894\n        /* \"#utility.yul\":40097:40102   */\n      dup2\n        /* \"#utility.yul\":40080:40103   */\n      tag_511\n      jump\t// in\n    tag_894:\n        /* \"#utility.yul\":40073:40078   */\n      dup2\n        /* \"#utility.yul\":40070:40104   */\n      eq\n        /* \"#utility.yul\":40060:40122   */\n      tag_895\n      jumpi\n        /* \"#utility.yul\":40118:40119   */\n      0x00\n        /* \"#utility.yul\":40115:40116   */\n      dup1\n        /* \"#utility.yul\":40108:40120   */\n      revert\n        /* \"#utility.yul\":40060:40122   */\n    tag_895:\n        /* \"#utility.yul\":40008:40128   */\n      pop\n      jump\t// out\n        /* \"#utility.yul\":40134:40275   */\n    tag_513:\n        /* \"#utility.yul\":40190:40195   */\n      0x00\n        /* \"#utility.yul\":40221:40227   */\n      dup2\n        /* \"#utility.yul\":40215:40228   */\n      mload\n        /* \"#utility.yul\":40206:40228   */\n      swap1\n      pop\n        /* \"#utility.yul\":40237:40269   */\n      tag_897\n        /* \"#utility.yul\":40263:40268   */\n      dup2\n        /* \"#utility.yul\":40237:40269   */\n      tag_512\n      jump\t// in\n    tag_897:\n        /* \"#utility.yul\":40134:40275   */\n      swap3\n      swap2\n      pop\n      pop\n      jump\t// out\n        /* \"#utility.yul\":40281:40630   */\n    tag_340:\n        /* \"#utility.yul\":40350:40356   */\n      0x00\n        /* \"#utility.yul\":40399:40401   */\n      0x20\n        /* \"#utility.yul\":40387:40396   */\n      dup3\n        /* \"#utility.yul\":40378:40385   */\n      dup5\n        /* \"#utility.yul\":40374:40397   */\n      sub\n        /* \"#utility.yul\":40370:40402   */\n      slt\n        /* \"#utility.yul\":40367:40486   */\n      iszero\n      tag_899\n      jumpi\n        /* \"#utility.yul\":40405:40484   */\n      tag_900\n      tag_429\n      jump\t// in\n    tag_900:\n        /* \"#utility.yul\":40367:40486   */\n    tag_899:\n        /* \"#utility.yul\":40525:40526   */\n      0x00\n        /* \"#utility.yul\":40550:40613   */\n      tag_901\n        /* \"#utility.yul\":40605:40612   */\n      dup5\n        /* \"#utility.yul\":40596:40602   */\n      dup3\n        /* \"#utility.yul\":40585:40594   */\n      dup6\n        /* \"#utility.yul\":40581:40603   */\n      add\n        /* \"#utility.yul\":40550:40613   */\n      tag_513\n      jump\t// in\n    tag_901:\n        /* \"#utility.yul\":40540:40613   */\n      swap2\n      pop\n        /* \"#utility.yul\":40496:40623   */\n      pop\n        /* \"#utility.yul\":40281:40630   */\n      swap3\n      swap2\n      pop\n      pop\n      jump\t// out\n        /* \"#utility.yul\":40636:40816   */\n    tag_514:\n        /* \"#utility.yul\":40684:40761   */\n      0x4e487b7100000000000000000000000000000000000000000000000000000000\n        /* \"#utility.yul\":40681:40682   */\n      0x00\n        /* \"#utility.yul\":40674:40762   */\n      mstore\n        /* \"#utility.yul\":40781:40785   */\n      0x11\n        /* \"#utility.yul\":40778:40779   */\n      0x04\n        /* \"#utility.yul\":40771:40786   */\n      mstore\n        /* \"#utility.yul\":40805:40809   */\n      0x24\n        /* \"#utility.yul\":40802:40803   */\n      0x00\n        /* \"#utility.yul\":40795:40810   */\n      revert\n        /* \"#utility.yul\":40822:41013   */\n    tag_351:\n        /* \"#utility.yul\":40862:40865   */\n      0x00\n        /* \"#utility.yul\":40881:40901   */\n      tag_904\n        /* \"#utility.yul\":40899:40900   */\n      dup3\n        /* \"#utility.yul\":40881:40901   */\n      tag_431\n      jump\t// in\n    tag_904:\n        /* \"#utility.yul\":40876:40901   */\n      swap2\n      pop\n        /* \"#utility.yul\":40915:40935   */\n      tag_905\n        /* \"#utility.yul\":40933:40934   */\n      dup4\n        /* \"#utility.yul\":40915:40935   */\n      tag_431\n      jump\t// in\n    tag_905:\n        /* \"#utility.yul\":40910:40935   */\n      swap3\n      pop\n        /* \"#utility.yul\":40958:40959   */\n      dup3\n        /* \"#utility.yul\":40955:40956   */\n      dup3\n        /* \"#utility.yul\":40951:40960   */\n      add\n        /* \"#utility.yul\":40944:40960   */\n      swap1\n      pop\n        /* \"#utility.yul\":40979:40982   */\n      dup1\n        /* \"#utility.yul\":40976:40977   */\n      dup3\n        /* \"#utility.yul\":40973:40983   */\n      gt\n        /* \"#utility.yul\":40970:41006   */\n      iszero\n      tag_906\n      jumpi\n        /* \"#utility.yul\":40986:41004   */\n      tag_907\n      tag_514\n      jump\t// in\n    tag_907:\n        /* \"#utility.yul\":40970:41006   */\n    tag_906:\n        /* \"#utility.yul\":40822:41013   */\n      swap3\n      swap2\n      pop\n      pop\n      jump\t// out\n        /* \"#utility.yul\":41019:41112   */\n    tag_515:\n        /* \"#utility.yul\":41056:41062   */\n      0x00\n        /* \"#utility.yul\":41103:41105   */\n      0x20\n        /* \"#utility.yul\":41098:41100   */\n      0x1f\n        /* \"#utility.yul\":41091:41096   */\n      dup4\n        /* \"#utility.yul\":41087:41101   */\n      add\n        /* \"#utility.yul\":41083:41106   */\n      div\n        /* \"#utility.yul\":41073:41106   */\n      swap1\n      pop\n        /* \"#utility.yul\":41019:41112   */\n      swap2\n      swap1\n      pop\n      jump\t// out\n        /* \"#utility.yul\":41118:41225   */\n    tag_516:\n        /* \"#utility.yul\":41162:41170   */\n      0x00\n        /* \"#utility.yul\":41212:41217   */\n      dup3\n        /* \"#utility.yul\":41206:41210   */\n      dup3\n        /* \"#utility.yul\":41202:41218   */\n      shl\n        /* \"#utility.yul\":41181:41218   */\n      swap1\n      pop\n        /* \"#utility.yul\":41118:41225   */\n      swap3\n      swap2\n      pop\n      pop\n      jump\t// out\n        /* \"#utility.yul\":41231:41624   */\n    tag_517:\n        /* \"#utility.yul\":41300:41306   */\n      0x00\n        /* \"#utility.yul\":41350:41351   */\n      0x08\n        /* \"#utility.yul\":41338:41348   */\n      dup4\n        /* \"#utility.yul\":41334:41352   */\n      mul\n        /* \"#utility.yul\":41373:41470   */\n      tag_911\n        /* \"#utility.yul\":41403:41469   */\n      0xffffffffffffffffffffffffffffffffffffffffffffffffffffffffffffffff\n        /* \"#utility.yul\":41392:41401   */\n      dup3\n        /* \"#utility.yul\":41373:41470   */\n      tag_516\n      jump\t// in\n    tag_911:\n        /* \"#utility.yul\":41491:41530   */\n      tag_912\n        /* \"#utility.yul\":41521:41529   */\n      dup7\n        /* \"#utility.yul\":41510:41519   */\n      dup4\n        /* \"#utility.yul\":41491:41530   */\n      tag_516\n      jump\t// in\n    tag_912:\n        /* \"#utility.yul\":41479:41530   */\n      swap6\n      pop\n        /* \"#utility.yul\":41563:41567   */\n      dup1\n        /* \"#utility.yul\":41559:41568   */\n      not\n        /* \"#utility.yul\":41552:41557   */\n      dup5\n        /* \"#utility.yul\":41548:41569   */\n      and\n        /* \"#utility.yul\":41539:41569   */\n      swap4\n      pop\n        /* \"#utility.yul\":41612:41616   */\n      dup1\n        /* \"#utility.yul\":41602:41610   */\n      dup7\n        /* \"#utility.yul\":41598:41617   */\n      and\n        /* \"#utility.yul\":41591:41596   */\n      dup5\n        /* \"#utility.yul\":41588:41618   */\n      or\n        /* \"#utility.yul\":41578:41618   */\n      swap3\n      pop\n        /* \"#utility.yul\":41307:41624   */\n      pop\n      pop\n        /* \"#utility.yul\":41231:41624   */\n      swap4\n      swap3\n      pop\n      pop\n      pop\n      jump\t// out\n        /* \"#utility.yul\":41630:41705   */\n    tag_518:\n        /* \"#utility.yul\":41673:41676   */\n      0x00\n        /* \"#utility.yul\":41694:41699   */\n      dup2\n        /* \"#utility.yul\":41687:41699   */\n      swap1\n      pop\n        /* \"#utility.yul\":41630:41705   */\n      swap2\n      swap1\n      pop\n      jump\t// out\n        /* \"#utility.yul\":41711:41980   */\n    tag_519:\n        /* \"#utility.yul\":41821:41860   */\n      tag_915\n        /* \"#utility.yul\":41852:41859   */\n      dup4\n        /* \"#utility.yul\":41821:41860   */\n      tag_460\n      jump\t// in\n    tag_915:\n        /* \"#utility.yul\":41882:41973   */\n      tag_916\n        /* \"#utility.yul\":41931:41972   */\n      tag_917\n        /* \"#utility.yul\":41955:41971   */\n      dup3\n        /* \"#utility.yul\":41931:41972   */\n      tag_518\n      jump\t// in\n    tag_917:\n        /* \"#utility.yul\":41923:41929   */\n      dup5\n        /* \"#utility.yul\":41916:41920   */\n      dup5\n        /* \"#utility.yul\":41910:41921   */\n      sload\n        /* \"#utility.yul\":41882:41973   */\n      tag_517\n      jump\t// in\n    tag_916:\n        /* \"#utility.yul\":41876:41880   */\n      dup3\n        /* \"#utility.yul\":41869:41974   */\n      sstore\n        /* \"#utility.yul\":41787:41980   */\n      pop\n        /* \"#utility.yul\":41711:41980   */\n      pop\n      pop\n      pop\n      jump\t// out\n        /* \"#utility.yul\":41986:42059   */\n    tag_520:\n        /* \"#utility.yul\":42031:42034   */\n      0x00\n        /* \"#utility.yul\":41986:42059   */\n      swap1\n      jump\t// out\n        /* \"#utility.yul\":42065:42254   */\n    tag_521:\n        /* \"#utility.yul\":42142:42174   */\n      tag_920\n      tag_520\n      jump\t// in\n    tag_920:\n        /* \"#utility.yul\":42183:42248   */\n      tag_921\n        /* \"#utility.yul\":42241:42247   */\n      dup2\n        /* \"#utility.yul\":42233:42239   */\n      dup5\n        /* \"#utility.yul\":42227:42231   */\n      dup5\n        /* \"#utility.yul\":42183:42248   */\n      tag_519\n      jump\t// in\n    tag_921:\n        /* \"#utility.yul\":42118:42254   */\n      pop\n        /* \"#utility.yul\":42065:42254   */\n      pop\n      pop\n      jump\t// out\n        /* \"#utility.yul\":42260:42446   */\n    tag_522:\n        /* \"#utility.yul\":42320:42440   */\n    tag_923:\n        /* \"#utility.yul\":42337:42340   */\n      dup2\n        /* \"#utility.yul\":42330:42335   */\n      dup2\n        /* \"#utility.yul\":42327:42341   */\n      lt\n        /* \"#utility.yul\":42320:42440   */\n      iszero\n      tag_925\n      jumpi\n        /* \"#utility.yul\":42391:42430   */\n      tag_926\n        /* \"#utility.yul\":42428:42429   */\n      0x00\n        /* \"#utility.yul\":42421:42426   */\n      dup3\n        /* \"#utility.yul\":42391:42430   */\n      tag_521\n      jump\t// in\n    tag_926:\n        /* \"#utility.yul\":42364:42365   */\n      0x01\n        /* \"#utility.yul\":42357:42362   */\n      dup2\n        /* \"#utility.yul\":42353:42366   */\n      add\n        /* \"#utility.yul\":42344:42366   */\n      swap1\n      pop\n        /* \"#utility.yul\":42320:42440   */\n      jump(tag_923)\n    tag_925:\n        /* \"#utility.yul\":42260:42446   */\n      pop\n      pop\n      jump\t// out\n        /* \"#utility.yul\":42452:42995   */\n    tag_523:\n        /* \"#utility.yul\":42553:42555   */\n      0x1f\n        /* \"#utility.yul\":42548:42551   */\n      dup3\n        /* \"#utility.yul\":42545:42556   */\n      gt\n        /* \"#utility.yul\":42542:42988   */\n      iszero\n      tag_928\n      jumpi\n        /* \"#utility.yul\":42587:42625   */\n      tag_929\n        /* \"#utility.yul\":42619:42624   */\n      dup2\n        /* \"#utility.yul\":42587:42625   */\n      tag_472\n      jump\t// in\n    tag_929:\n        /* \"#utility.yul\":42671:42700   */\n      tag_930\n        /* \"#utility.yul\":42689:42699   */\n      dup5\n        /* \"#utility.yul\":42671:42700   */\n      tag_515\n      jump\t// in\n    tag_930:\n        /* \"#utility.yul\":42661:42669   */\n      dup2\n        /* \"#utility.yul\":42657:42701   */\n      add\n        /* \"#utility.yul\":42854:42856   */\n      0x20\n        /* \"#utility.yul\":42842:42852   */\n      dup6\n        /* \"#utility.yul\":42839:42857   */\n      lt\n        /* \"#utility.yul\":42836:42885   */\n      iszero\n      tag_931\n      jumpi\n        /* \"#utility.yul\":42875:42883   */\n      dup2\n        /* \"#utility.yul\":42860:42883   */\n      swap1\n      pop\n        /* \"#utility.yul\":42836:42885   */\n    tag_931:\n        /* \"#utility.yul\":42898:42978   */\n      tag_932\n        /* \"#utility.yul\":42954:42976   */\n      tag_933\n        /* \"#utility.yul\":42972:42975   */\n      dup6\n        /* \"#utility.yul\":42954:42976   */\n      tag_515\n      jump\t// in\n    tag_933:\n        /* \"#utility.yul\":42944:42952   */\n      dup4\n        /* \"#utility.yul\":42940:42977   */\n      add\n        /* \"#utility.yul\":42927:42938   */\n      dup3\n        /* \"#utility.yul\":42898:42978   */\n      tag_522\n      jump\t// in\n    tag_932:\n        /* \"#utility.yul\":42557:42988   */\n      pop\n      pop\n        /* \"#utility.yul\":42542:42988   */\n    tag_928:\n        /* \"#utility.yul\":42452:42995   */\n      pop\n      pop\n      pop\n      jump\t// out\n        /* \"#utility.yul\":43001:43118   */\n    tag_524:\n        /* \"#utility.yul\":43055:43063   */\n      0x00\n        /* \"#utility.yul\":43105:43110   */\n      dup3\n        /* \"#utility.yul\":43099:43103   */\n      dup3\n        /* \"#utility.yul\":43095:43111   */\n      shr\n        /* \"#utility.yul\":43074:43111   */\n      swap1\n      pop\n        /* \"#utility.yul\":43001:43118   */\n      swap3\n      swap2\n      pop\n      pop\n      jump\t// out\n        /* \"#utility.yul\":43124:43293   */\n    tag_525:\n        /* \"#utility.yul\":43168:43174   */\n      0x00\n        /* \"#utility.yul\":43201:43252   */\n      tag_936\n        /* \"#utility.yul\":43249:43250   */\n      0x00\n        /* \"#utility.yul\":43245:43251   */\n      not\n        /* \"#utility.yul\":43237:43242   */\n      dup5\n        /* \"#utility.yul\":43234:43235   */\n      0x08\n        /* \"#utility.yul\":43230:43243   */\n      mul\n        /* \"#utility.yul\":43201:43252   */\n      tag_524\n      jump\t// in\n    tag_936:\n        /* \"#utility.yul\":43197:43253   */\n      not\n        /* \"#utility.yul\":43282:43286   */\n      dup1\n        /* \"#utility.yul\":43276:43280   */\n      dup4\n        /* \"#utility.yul\":43272:43287   */\n      and\n        /* \"#utility.yul\":43262:43287   */\n      swap2\n      pop\n        /* \"#utility.yul\":43175:43293   */\n      pop\n        /* \"#utility.yul\":43124:43293   */\n      swap3\n      swap2\n      pop\n      pop\n      jump\t// out\n        /* \"#utility.yul\":43298:43593   */\n    tag_526:\n        /* \"#utility.yul\":43374:43378   */\n      0x00\n        /* \"#utility.yul\":43520:43549   */\n      tag_938\n        /* \"#utility.yul\":43545:43548   */\n      dup4\n        /* \"#utility.yul\":43539:43543   */\n      dup4\n        /* \"#utility.yul\":43520:43549   */\n      tag_525\n      jump\t// in\n    tag_938:\n        /* \"#utility.yul\":43512:43549   */\n      swap2\n      pop\n        /* \"#utility.yul\":43582:43585   */\n      dup3\n        /* \"#utility.yul\":43579:43580   */\n      0x02\n        /* \"#utility.yul\":43575:43586   */\n      mul\n        /* \"#utility.yul\":43569:43573   */\n      dup3\n        /* \"#utility.yul\":43566:43587   */\n      or\n        /* \"#utility.yul\":43558:43587   */\n      swap1\n      pop\n        /* \"#utility.yul\":43298:43593   */\n      swap3\n      swap2\n      pop\n      pop\n      jump\t// out\n        /* \"#utility.yul\":43598:44993   */\n    tag_354:\n        /* \"#utility.yul\":43715:43752   */\n      tag_940\n        /* \"#utility.yul\":43748:43751   */\n      dup3\n        /* \"#utility.yul\":43715:43752   */\n      tag_423\n      jump\t// in\n    tag_940:\n        /* \"#utility.yul\":43817:43835   */\n      0xffffffffffffffff\n        /* \"#utility.yul\":43809:43815   */\n      dup2\n        /* \"#utility.yul\":43806:43836   */\n      gt\n        /* \"#utility.yul\":43803:43859   */\n      iszero\n      tag_941\n      jumpi\n        /* \"#utility.yul\":43839:43857   */\n      tag_942\n      tag_204\n      jump\t// in\n    tag_942:\n        /* \"#utility.yul\":43803:43859   */\n    tag_941:\n        /* \"#utility.yul\":43883:43921   */\n      tag_943\n        /* \"#utility.yul\":43915:43919   */\n      dup3\n        /* \"#utility.yul\":43909:43920   */\n      sload\n        /* \"#utility.yul\":43883:43921   */\n      tag_168\n      jump\t// in\n    tag_943:\n        /* \"#utility.yul\":43968:44035   */\n      tag_944\n        /* \"#utility.yul\":44028:44034   */\n      dup3\n        /* \"#utility.yul\":44020:44026   */\n      dup3\n        /* \"#utility.yul\":44014:44018   */\n      dup6\n        /* \"#utility.yul\":43968:44035   */\n      tag_523\n      jump\t// in\n    tag_944:\n        /* \"#utility.yul\":44062:44063   */\n      0x00\n        /* \"#utility.yul\":44086:44090   */\n      0x20\n        /* \"#utility.yul\":44073:44090   */\n      swap1\n      pop\n        /* \"#utility.yul\":44118:44120   */\n      0x1f\n        /* \"#utility.yul\":44110:44116   */\n      dup4\n        /* \"#utility.yul\":44107:44121   */\n      gt\n        /* \"#utility.yul\":44135:44136   */\n      0x01\n        /* \"#utility.yul\":44130:44748   */\n      dup2\n      eq\n      tag_946\n      jumpi\n        /* \"#utility.yul\":44792:44793   */\n      0x00\n        /* \"#utility.yul\":44809:44815   */\n      dup5\n        /* \"#utility.yul\":44806:44883   */\n      iszero\n      tag_947\n      jumpi\n        /* \"#utility.yul\":44858:44867   */\n      dup3\n        /* \"#utility.yul\":44853:44856   */\n      dup8\n        /* \"#utility.yul\":44849:44868   */\n      add\n        /* \"#utility.yul\":44843:44869   */\n      mload\n        /* \"#utility.yul\":44834:44869   */\n      swap1\n      pop\n        /* \"#utility.yul\":44806:44883   */\n    tag_947:\n        /* \"#utility.yul\":44909:44976   */\n      tag_948\n        /* \"#utility.yul\":44969:44975   */\n      dup6\n        /* \"#utility.yul\":44962:44967   */\n      dup3\n        /* \"#utility.yul\":44909:44976   */\n      tag_526\n      jump\t// in\n    tag_948:\n        /* \"#utility.yul\":44903:44907   */\n      dup7\n        /* \"#utility.yul\":44896:44977   */\n      sstore\n        /* \"#utility.yul\":44765:44987   */\n      pop\n        /* \"#utility.yul\":44100:44987   */\n      jump(tag_945)\n        /* \"#utility.yul\":44130:44748   */\n    tag_946:\n        /* \"#utility.yul\":44182:44186   */\n      0x1f\n        /* \"#utility.yul\":44178:44187   */\n      not\n        /* \"#utility.yul\":44170:44176   */\n      dup5\n        /* \"#utility.yul\":44166:44188   */\n      and\n        /* \"#utility.yul\":44216:44253   */\n      tag_949\n        /* \"#utility.yul\":44248:44252   */\n      dup7\n        /* \"#utility.yul\":44216:44253   */\n      tag_472\n      jump\t// in\n    tag_949:\n        /* \"#utility.yul\":44275:44276   */\n      0x00\n        /* \"#utility.yul\":44289:44497   */\n    tag_950:\n        /* \"#utility.yul\":44303:44310   */\n      dup3\n        /* \"#utility.yul\":44300:44301   */\n      dup2\n        /* \"#utility.yul\":44297:44311   */\n      lt\n        /* \"#utility.yul\":44289:44497   */\n      iszero\n      tag_952\n      jumpi\n        /* \"#utility.yul\":44382:44391   */\n      dup5\n        /* \"#utility.yul\":44377:44380   */\n      dup10\n        /* \"#utility.yul\":44373:44392   */\n      add\n        /* \"#utility.yul\":44367:44393   */\n      mload\n        /* \"#utility.yul\":44359:44365   */\n      dup3\n        /* \"#utility.yul\":44352:44394   */\n      sstore\n        /* \"#utility.yul\":44433:44434   */\n      0x01\n        /* \"#utility.yul\":44425:44431   */\n      dup3\n        /* \"#utility.yul\":44421:44435   */\n      add\n        /* \"#utility.yul\":44411:44435   */\n      swap2\n      pop\n        /* \"#utility.yul\":44480:44482   */\n      0x20\n        /* \"#utility.yul\":44469:44478   */\n      dup6\n        /* \"#utility.yul\":44465:44483   */\n      add\n        /* \"#utility.yul\":44452:44483   */\n      swap5\n      pop\n        /* \"#utility.yul\":44326:44330   */\n      0x20\n        /* \"#utility.yul\":44323:44324   */\n      dup2\n        /* \"#utility.yul\":44319:44331   */\n      add\n        /* \"#utility.yul\":44314:44331   */\n      swap1\n      pop\n        /* \"#utility.yul\":44289:44497   */\n      jump(tag_950)\n    tag_952:\n        /* \"#utility.yul\":44525:44531   */\n      dup7\n        /* \"#utility.yul\":44516:44523   */\n      dup4\n        /* \"#utility.yul\":44513:44532   */\n      lt\n        /* \"#utility.yul\":44510:44689   */\n      iszero\n      tag_953\n      jumpi\n        /* \"#utility.yul\":44583:44592   */\n      dup5\n        /* \"#utility.yul\":44578:44581   */\n      dup10\n        /* \"#utility.yul\":44574:44593   */\n      add\n        /* \"#utility.yul\":44568:44594   */\n      mload\n        /* \"#utility.yul\":44626:44674   */\n      tag_954\n        /* \"#utility.yul\":44668:44672   */\n      0x1f\n        /* \"#utility.yul\":44660:44666   */\n      dup10\n        /* \"#utility.yul\":44656:44673   */\n      and\n        /* \"#utility.yul\":44645:44654   */\n      dup3\n        /* \"#utility.yul\":44626:44674   */\n      tag_525\n      jump\t// in\n    tag_954:\n        /* \"#utility.yul\":44618:44624   */\n      dup4\n        /* \"#utility.yul\":44611:44675   */\n      sstore\n        /* \"#utility.yul\":44533:44689   */\n      pop\n        /* \"#utility.yul\":44510:44689   */\n    tag_953:\n        /* \"#utility.yul\":44735:44736   */\n      0x01\n        /* \"#utility.yul\":44731:44732   */\n      0x02\n        /* \"#utility.yul\":44723:44729   */\n      dup9\n        /* \"#utility.yul\":44719:44733   */\n      mul\n        /* \"#utility.yul\":44715:44737   */\n      add\n        /* \"#utility.yul\":44709:44713   */\n      dup9\n        /* \"#utility.yul\":44702:44738   */\n      sstore\n        /* \"#utility.yul\":44137:44748   */\n      pop\n      pop\n      pop\n        /* \"#utility.yul\":44100:44987   */\n    tag_945:\n      pop\n        /* \"#utility.yul\":43690:44993   */\n      pop\n      pop\n      pop\n        /* \"#utility.yul\":43598:44993   */\n      pop\n      pop\n      jump\t// out\n        /* \"#utility.yul\":44999:45085   */\n    tag_527:\n        /* \"#utility.yul\":45034:45041   */\n      0x00\n        /* \"#utility.yul\":45074:45078   */\n      0xff\n        /* \"#utility.yul\":45067:45072   */\n      dup3\n        /* \"#utility.yul\":45063:45079   */\n      and\n        /* \"#utility.yul\":45052:45079   */\n      swap1\n      pop\n        /* \"#utility.yul\":44999:45085   */\n      swap2\n      swap1\n      pop\n      jump\t// out\n        /* \"#utility.yul\":45091:45203   */\n    tag_528:\n        /* \"#utility.yul\":45174:45196   */\n      tag_957\n        /* \"#utility.yul\":45190:45195   */\n      dup2\n        /* \"#utility.yul\":45174:45196   */\n      tag_527\n      jump\t// in\n    tag_957:\n        /* \"#utility.yul\":45169:45172   */\n      dup3\n        /* \"#utility.yul\":45162:45197   */\n      mstore\n        /* \"#utility.yul\":45091:45203   */\n      pop\n      pop\n      jump\t// out\n        /* \"#utility.yul\":45209:45754   */\n    tag_358:\n        /* \"#utility.yul\":45382:45386   */\n      0x00\n        /* \"#utility.yul\":45420:45423   */\n      0x80\n        /* \"#utility.yul\":45409:45418   */\n      dup3\n        /* \"#utility.yul\":45405:45424   */\n      add\n        /* \"#utility.yul\":45397:45424   */\n      swap1\n      pop\n        /* \"#utility.yul\":45434:45505   */\n      tag_959\n        /* \"#utility.yul\":45502:45503   */\n      0x00\n        /* \"#utility.yul\":45491:45500   */\n      dup4\n        /* \"#utility.yul\":45487:45504   */\n      add\n        /* \"#utility.yul\":45478:45484   */\n      dup8\n        /* \"#utility.yul\":45434:45505   */\n      tag_506\n      jump\t// in\n    tag_959:\n        /* \"#utility.yul\":45515:45583   */\n      tag_960\n        /* \"#utility.yul\":45579:45581   */\n      0x20\n        /* \"#utility.yul\":45568:45577   */\n      dup4\n        /* \"#utility.yul\":45564:45582   */\n      add\n        /* \"#utility.yul\":45555:45561   */\n      dup7\n        /* \"#utility.yul\":45515:45583   */\n      tag_528\n      jump\t// in\n    tag_960:\n        /* \"#utility.yul\":45593:45665   */\n      tag_961\n        /* \"#utility.yul\":45661:45663   */\n      0x40\n        /* \"#utility.yul\":45650:45659   */\n      dup4\n        /* \"#utility.yul\":45646:45664   */\n      add\n        /* \"#utility.yul\":45637:45643   */\n      dup6\n        /* \"#utility.yul\":45593:45665   */\n      tag_506\n      jump\t// in\n    tag_961:\n        /* \"#utility.yul\":45675:45747   */\n      tag_962\n        /* \"#utility.yul\":45743:45745   */\n      0x60\n        /* \"#utility.yul\":45732:45741   */\n      dup4\n        /* \"#utility.yul\":45728:45746   */\n      add\n        /* \"#utility.yul\":45719:45725   */\n      dup5\n        /* \"#utility.yul\":45675:45747   */\n      tag_506\n      jump\t// in\n    tag_962:\n        /* \"#utility.yul\":45209:45754   */\n      swap6\n      swap5\n      pop\n      pop\n      pop\n      pop\n      pop\n      jump\t// out\n        /* \"#utility.yul\":45760:45974   */\n    tag_529:\n        /* \"#utility.yul\":45900:45966   */\n      0x19457468657265756d205369676e6564204d6573736167653a0a000000000000\n        /* \"#utility.yul\":45896:45897   */\n      0x00\n        /* \"#utility.yul\":45888:45894   */\n      dup3\n        /* \"#utility.yul\":45884:45898   */\n      add\n        /* \"#utility.yul\":45877:45967   */\n      mstore\n        /* \"#utility.yul\":45760:45974   */\n      pop\n      jump\t// out\n        /* \"#utility.yul\":45980:46382   */\n    tag_530:\n        /* \"#utility.yul\":46140:46143   */\n      0x00\n        /* \"#utility.yul\":46161:46246   */\n      tag_965\n        /* \"#utility.yul\":46243:46245   */\n      0x1a\n        /* \"#utility.yul\":46238:46241   */\n      dup4\n        /* \"#utility.yul\":46161:46246   */\n      tag_471\n      jump\t// in\n    tag_965:\n        /* \"#utility.yul\":46154:46246   */\n      swap2\n      pop\n        /* \"#utility.yul\":46255:46348   */\n      tag_966\n        /* \"#utility.yul\":46344:46347   */\n      dup3\n        /* \"#utility.yul\":46255:46348   */\n      tag_529\n      jump\t// in\n    tag_966:\n        /* \"#utility.yul\":46373:46375   */\n      0x1a\n        /* \"#utility.yul\":46368:46371   */\n      dup3\n        /* \"#utility.yul\":46364:46376   */\n      add\n        /* \"#utility.yul\":46357:46376   */\n      swap1\n      pop\n        /* \"#utility.yul\":45980:46382   */\n      swap2\n      swap1\n      pop\n      jump\t// out\n        /* \"#utility.yul\":46388:47089   */\n    tag_369:\n        /* \"#utility.yul\":46669:46672   */\n      0x00\n        /* \"#utility.yul\":46691:46839   */\n      tag_968\n        /* \"#utility.yul\":46835:46838   */\n      dup3\n        /* \"#utility.yul\":46691:46839   */\n      tag_530\n      jump\t// in\n    tag_968:\n        /* \"#utility.yul\":46684:46839   */\n      swap2\n      pop\n        /* \"#utility.yul\":46856:46951   */\n      tag_969\n        /* \"#utility.yul\":46947:46950   */\n      dup3\n        /* \"#utility.yul\":46938:46944   */\n      dup6\n        /* \"#utility.yul\":46856:46951   */\n      tag_480\n      jump\t// in\n    tag_969:\n        /* \"#utility.yul\":46849:46951   */\n      swap2\n      pop\n        /* \"#utility.yul\":46968:47063   */\n      tag_970\n        /* \"#utility.yul\":47059:47062   */\n      dup3\n        /* \"#utility.yul\":47050:47056   */\n      dup5\n        /* \"#utility.yul\":46968:47063   */\n      tag_480\n      jump\t// in\n    tag_970:\n        /* \"#utility.yul\":46961:47063   */\n      swap2\n      pop\n        /* \"#utility.yul\":47080:47083   */\n      dup2\n        /* \"#utility.yul\":47073:47083   */\n      swap1\n      pop\n        /* \"#utility.yul\":46388:47089   */\n      swap4\n      swap3\n      pop\n      pop\n      pop\n      jump\t// out\n        /* \"#utility.yul\":47095:47275   */\n    tag_380:\n        /* \"#utility.yul\":47143:47220   */\n      0x4e487b7100000000000000000000000000000000000000000000000000000000\n        /* \"#utility.yul\":47140:47141   */\n      0x00\n        /* \"#utility.yul\":47133:47221   */\n      mstore\n        /* \"#utility.yul\":47240:47244   */\n      0x12\n        /* \"#utility.yul\":47237:47238   */\n      0x04\n        /* \"#utility.yul\":47230:47245   */\n      mstore\n        /* \"#utility.yul\":47264:47268   */\n      0x24\n        /* \"#utility.yul\":47261:47262   */\n      0x00\n        /* \"#utility.yul\":47254:47269   */\n      revert\n        /* \"#utility.yul\":47281:47466   */\n    tag_386:\n        /* \"#utility.yul\":47321:47322   */\n      0x00\n        /* \"#utility.yul\":47338:47358   */\n      tag_973\n        /* \"#utility.yul\":47356:47357   */\n      dup3\n        /* \"#utility.yul\":47338:47358   */\n      tag_431\n      jump\t// in\n    tag_973:\n        /* \"#utility.yul\":47333:47358   */\n      swap2\n      pop\n        /* \"#utility.yul\":47372:47392   */\n      tag_974\n        /* \"#utility.yul\":47390:47391   */\n      dup4\n        /* \"#utility.yul\":47372:47392   */\n      tag_431\n      jump\t// in\n    tag_974:\n        /* \"#utility.yul\":47367:47392   */\n      swap3\n      pop\n        /* \"#utility.yul\":47411:47412   */\n      dup3\n        /* \"#utility.yul\":47401:47436   */\n      tag_975\n      jumpi\n        /* \"#utility.yul\":47416:47434   */\n      tag_976\n      tag_380\n      jump\t// in\n    tag_976:\n        /* \"#utility.yul\":47401:47436   */\n    tag_975:\n        /* \"#utility.yul\":47458:47459   */\n      dup3\n        /* \"#utility.yul\":47455:47456   */\n      dup3\n        /* \"#utility.yul\":47451:47460   */\n      div\n        /* \"#utility.yul\":47446:47460   */\n      swap1\n      pop\n        /* \"#utility.yul\":47281:47466   */\n      swap3\n      swap2\n      pop\n      pop\n      jump\t// out\n        /* \"#utility.yul\":47472:47705   */\n    tag_388:\n        /* \"#utility.yul\":47511:47514   */\n      0x00\n        /* \"#utility.yul\":47534:47558   */\n      tag_978\n        /* \"#utility.yul\":47552:47557   */\n      dup3\n        /* \"#utility.yul\":47534:47558   */\n      tag_431\n      jump\t// in\n    tag_978:\n        /* \"#utility.yul\":47525:47558   */\n      swap2\n      pop\n        /* \"#utility.yul\":47580:47646   */\n      0xffffffffffffffffffffffffffffffffffffffffffffffffffffffffffffffff\n        /* \"#utility.yul\":47573:47578   */\n      dup3\n        /* \"#utility.yul\":47570:47647   */\n      sub\n        /* \"#utility.yul\":47567:47670   */\n      tag_979\n      jumpi\n        /* \"#utility.yul\":47650:47668   */\n      tag_980\n      tag_514\n      jump\t// in\n    tag_980:\n        /* \"#utility.yul\":47567:47670   */\n    tag_979:\n        /* \"#utility.yul\":47697:47698   */\n      0x01\n        /* \"#utility.yul\":47690:47695   */\n      dup3\n        /* \"#utility.yul\":47686:47699   */\n      add\n        /* \"#utility.yul\":47679:47699   */\n      swap1\n      pop\n        /* \"#utility.yul\":47472:47705   */\n      swap2\n      swap1\n      pop\n      jump\t// out\n        /* \"#utility.yul\":47711:47882   */\n    tag_395:\n        /* \"#utility.yul\":47750:47753   */\n      0x00\n        /* \"#utility.yul\":47773:47797   */\n      tag_982\n        /* \"#utility.yul\":47791:47796   */\n      dup3\n        /* \"#utility.yul\":47773:47797   */\n      tag_431\n      jump\t// in\n    tag_982:\n        /* \"#utility.yul\":47764:47797   */\n      swap2\n      pop\n        /* \"#utility.yul\":47819:47823   */\n      0x00\n        /* \"#utility.yul\":47812:47817   */\n      dup3\n        /* \"#utility.yul\":47809:47824   */\n      sub\n        /* \"#utility.yul\":47806:47847   */\n      tag_983\n      jumpi\n        /* \"#utility.yul\":47827:47845   */\n      tag_984\n      tag_514\n      jump\t// in\n    tag_984:\n        /* \"#utility.yul\":47806:47847   */\n    tag_983:\n        /* \"#utility.yul\":47874:47875   */\n      0x01\n        /* \"#utility.yul\":47867:47872   */\n      dup3\n        /* \"#utility.yul\":47863:47876   */\n      sub\n        /* \"#utility.yul\":47856:47876   */\n      swap1\n      pop\n        /* \"#utility.yul\":47711:47882   */\n      swap2\n      swap1\n      pop\n      jump\t// out\n        /* \"#utility.yul\":47888:48064   */\n    tag_397:\n        /* \"#utility.yul\":47920:47921   */\n      0x00\n        /* \"#utility.yul\":47937:47957   */\n      tag_986\n        /* \"#utility.yul\":47955:47956   */\n      dup3\n        /* \"#utility.yul\":47937:47957   */\n      tag_431\n      jump\t// in\n    tag_986:\n        /* \"#utility.yul\":47932:47957   */\n      swap2\n      pop\n        /* \"#utility.yul\":47971:47991   */\n      tag_987\n        /* \"#utility.yul\":47989:47990   */\n      dup4\n        /* \"#utility.yul\":47971:47991   */\n      tag_431\n      jump\t// in\n    tag_987:\n        /* \"#utility.yul\":47966:47991   */\n      swap3\n      pop\n        /* \"#utility.yul\":48010:48011   */\n      dup3\n        /* \"#utility.yul\":48000:48035   */\n      tag_988\n      jumpi\n        /* \"#utility.yul\":48015:48033   */\n      tag_989\n      tag_380\n      jump\t// in\n    tag_989:\n        /* \"#utility.yul\":48000:48035   */\n    tag_988:\n        /* \"#utility.yul\":48056:48057   */\n      dup3\n        /* \"#utility.yul\":48053:48054   */\n      dup3\n        /* \"#utility.yul\":48049:48058   */\n      mod\n        /* \"#utility.yul\":48044:48058   */\n      swap1\n      pop\n        /* \"#utility.yul\":47888:48064   */\n      swap3\n      swap2\n      pop\n      pop\n      jump\t// out\n    stop\n    data_0cd1ae3e4dc389c213191dc2019beca568e06b7e2e62f57ac23af9c3de086300 4920636572746966792074686174204920616d20746865206c6963656e736f72206f662074686520766964656f2061677265656d656e7420616e6420616772656520746f20616c6c207465726d7320646566696e656420696e207468652061677265656d656e742e\n    data_947495800a19c75b349554c37b44e0820cfe4e72bb09a80ed436e10673d6e5c6 4920636572746966792074686174204920616d20746865206c6963656e736565206f662074686520766964656f2061677265656d656e7420616e6420616772656520746f20616c6c207465726d7320646566696e656420696e207468652061677265656d656e742e\n\n    auxdata: 0xa26469706673582212208f5f5312656c1deb226648494f20df74daa838a4c529dc6f41ce7e260c79814b64736f6c63430008190033\n}\n",
				"bytecode": {
					"linkReferences": {},
					"object": "608060405234801561000f575f80fd5b50604051613df0380380613df0833981810160405281019061003191906100fd565b805f806101000a81548173ffffffffffffffffffffffffffffffffffffffff021916908373ffffffffffffffffffffffffffffffffffffffff160217905550600160055f8081526020019081526020015f205f6101000a81548160ff02191690831515021790555050610128565b5f80fd5b5f73ffffffffffffffffffffffffffffffffffffffff82169050919050565b5f6100cc826100a3565b9050919050565b6100dc816100c2565b81146100e6575f80fd5b50565b5f815190506100f7816100d3565b92915050565b5f602082840312156101125761011161009f565b5b5f61011f848285016100e9565b91505092915050565b613cbb806101355f395ff3fe608060405260043610610129575f3560e01c8063976662b0116100aa578063d947650a1161006e578063d947650a1461043d578063e946af5914610479578063ea80a847146104a1578063eeb9509b146104bd578063f1197969146104e5578063f2fde38b1461052157610129565b8063976662b01461032557806399911abe14610361578063b033c13a14610389578063b0508a83146103c5578063b6c00a821461040157610129565b806355b30266116100f157806355b302661461023357806366527f1c1461025b578063705d5c761461028557806370d8677f146102c157806374f630dc146102e957610129565b80630e15c62a1461012d5780631e7fd268146101575780632b35d062146101935780633e340e2d146101bb57806341befbd1146101f7575b5f80fd5b348015610138575f80fd5b50610141610549565b60405161014e91906124e7565b60405180910390f35b348015610162575f80fd5b5061017d6004803603810190610178919061254b565b610565565b60405161018a91906125b5565b60405180910390f35b34801561019e575f80fd5b506101b960048036038101906101b49190612781565b61061a565b005b3480156101c6575f80fd5b506101e160048036038101906101dc919061280e565b61080d565b6040516101ee91906125b5565b60405180910390f35b348015610202575f80fd5b5061021d6004803603810190610218919061254b565b610853565b60405161022a91906124e7565b60405180910390f35b34801561023e575f80fd5b5061025960048036038101906102549190612890565b610953565b005b348015610266575f80fd5b5061026f610a37565b60405161027c91906124e7565b60405180910390f35b348015610290575f80fd5b506102ab60048036038101906102a691906128bb565b610a53565b6040516102b89190612908565b60405180910390f35b3480156102cc575f80fd5b506102e760048036038101906102e2919061294b565b610aa9565b005b3480156102f4575f80fd5b5061030f600480360381019061030a919061280e565b610cfc565b60405161031c9190612aac565b60405180910390f35b348015610330575f80fd5b5061034b600480360381019061034691906128bb565b610eca565b60405161035891906124e7565b60405180910390f35b34801561036c575f80fd5b506103876004803603810190610382919061254b565b6111c3565b005b348015610394575f80fd5b506103af60048036038101906103aa919061254b565b611332565b6040516103bc9190612adb565b60405180910390f35b3480156103d0575f80fd5b506103eb60048036038101906103e69190612af4565b6113ca565b6040516103f89190612adb565b60405180910390f35b34801561040c575f80fd5b506104276004803603810190610422919061254b565b61143e565b6040516104349190612908565b60405180910390f35b348015610448575f80fd5b50610463600480360381019061045e9190612b6d565b6114b7565b6040516104709190612aac565b60405180910390f35b348015610484575f80fd5b5061049f600480360381019061049a9190612890565b6116b6565b005b6104bb60048036038101906104b69190612bc7565b61179a565b005b3480156104c8575f80fd5b506104e360048036038101906104de9190612c24565b611af5565b005b3480156104f0575f80fd5b5061050b60048036038101906105069190612cea565b611c8c565b6040516105189190612d91565b60405180910390f35b34801561052c575f80fd5b5061054760048036038101906105429190612890565b611e35565b005b6040518060a0016040528060688152602001613c1e6068913981565b5f8160065f8281526020019081526020015f205f9054906101000a900460ff166105c4576040517f08c379a00000000000000000000000000000000000000000000000000000000081526004016105bb90612df4565b60405180910390fd5b600260075f8581526020019081526020015f206040516105e49190612f0b565b90815260200160405180910390205f9054906101000a900473ffffffffffffffffffffffffffffffffffffffff16915050919050565b3373ffffffffffffffffffffffffffffffffffffffff165f8054906101000a900473ffffffffffffffffffffffffffffffffffffffff1673ffffffffffffffffffffffffffffffffffffffff16146106a7576040517f08c379a000000000000000000000000000000000000000000000000000000000815260040161069e90612f6b565b60405180910390fd5b5f8490505f8151116106ee576040517f08c379a00000000000000000000000000000000000000000000000000000000081526004016106e590612fd3565b60405180910390fd5b6106fa84868585611f04565b610739576040517f08c379a00000000000000000000000000000000000000000000000000000000081526004016107309061303b565b60405180910390fd5b5f73ffffffffffffffffffffffffffffffffffffffff166002866040516107609190613089565b90815260200160405180910390205f9054906101000a900473ffffffffffffffffffffffffffffffffffffffff1673ffffffffffffffffffffffffffffffffffffffff160361080657836002866040516107ba9190613089565b90815260200160405180910390205f6101000a81548173ffffffffffffffffffffffffffffffffffffffff021916908373ffffffffffffffffffffffffffffffffffffffff1602179055505b5050505050565b5f60028260405161081e9190613089565b90815260200160405180910390205f9054906101000a900473ffffffffffffffffffffffffffffffffffffffff169050919050565b60608160065f8281526020019081526020015f205f9054906101000a900460ff166108b3576040517f08c379a00000000000000000000000000000000000000000000000000000000081526004016108aa90612df4565b60405180910390fd5b60075f8481526020019081526020015f2080546108cf90612e3f565b80601f01602080910402602001604051908101604052809291908181526020018280546108fb90612e3f565b80156109465780601f1061091d57610100808354040283529160200191610946565b820191905f5260205f20905b81548152906001019060200180831161092957829003601f168201915b5050505050915050919050565b3373ffffffffffffffffffffffffffffffffffffffff165f8054906101000a900473ffffffffffffffffffffffffffffffffffffffff1673ffffffffffffffffffffffffffffffffffffffff16146109e0576040517f08c379a00000000000000000000000000000000000000000000000000000000081526004016109d790612f6b565b60405180910390fd5b6001805f8373ffffffffffffffffffffffffffffffffffffffff1673ffffffffffffffffffffffffffffffffffffffff1681526020019081526020015f205f6101000a81548160ff02191690831515021790555050565b6040518060a0016040528060688152602001613bb66068913981565b5f600a5f8481526020019081526020015f205f8373ffffffffffffffffffffffffffffffffffffffff1673ffffffffffffffffffffffffffffffffffffffff1681526020019081526020015f2054905092915050565b835f73ffffffffffffffffffffffffffffffffffffffff16600282604051610ad19190613089565b90815260200160405180910390205f9054906101000a900473ffffffffffffffffffffffffffffffffffffffff1673ffffffffffffffffffffffffffffffffffffffff1603610b55576040517f08c379a0000000000000000000000000000000000000000000000000000000008152600401610b4c906130e9565b60405180910390fd5b8360015f8273ffffffffffffffffffffffffffffffffffffffff1673ffffffffffffffffffffffffffffffffffffffff1681526020019081526020015f205f9054906101000a900460ff16610bdf576040517f08c379a0000000000000000000000000000000000000000000000000000000008152600401610bd690612df4565b60405180910390fd5b3373ffffffffffffffffffffffffffffffffffffffff16600287604051610c069190613089565b90815260200160405180910390205f9054906101000a900473ffffffffffffffffffffffffffffffffffffffff1673ffffffffffffffffffffffffffffffffffffffff1614610c8a576040517f08c379a0000000000000000000000000000000000000000000000000000000008152600401610c8190613151565b60405180910390fd5b60055f8481526020019081526020015f205f9054906101000a900460ff1615610ce8576040517f08c379a0000000000000000000000000000000000000000000000000000000008152600401610cdf906131b9565b60405180910390fd5b610cf486868686611f1b565b505050505050565b6060815f73ffffffffffffffffffffffffffffffffffffffff16600282604051610d269190613089565b90815260200160405180910390205f9054906101000a900473ffffffffffffffffffffffffffffffffffffffff1673ffffffffffffffffffffffffffffffffffffffff1603610daa576040517f08c379a0000000000000000000000000000000000000000000000000000000008152600401610da1906130e9565b60405180910390fd5b5f600384604051610dbb9190613089565b90815260200160405180910390205467ffffffffffffffff811115610de357610de26125d6565b5b604051908082528060200260200182016040528015610e115781602001602082028036833780820191505090505b5090505f5b600385604051610e269190613089565b908152602001604051809103902054811015610ebf575f600486604051610e4d9190613089565b90815260200160405180910390205f8381526020019081526020015f2054905060065f8281526020019081526020015f205f9054906101000a900460ff1615610eb15780838381518110610ea457610ea36131d7565b5b6020026020010181815250505b508080600101915050610e16565b508092505050919050565b60608260065f8281526020019081526020015f205f9054906101000a900460ff16610f2a576040517f08c379a0000000000000000000000000000000000000000000000000000000008152600401610f2190612df4565b60405180910390fd5b5f600a5f8681526020019081526020015f205f8573ffffffffffffffffffffffffffffffffffffffff1673ffffffffffffffffffffffffffffffffffffffff1681526020019081526020015f205403610fb8576040517f08c379a0000000000000000000000000000000000000000000000000000000008152600401610faf9061324e565b60405180910390fd5b5f60075f8681526020019081526020015f208054610fd590612e3f565b80601f016020809104026020016040519081016040528092919081815260200182805461100190612e3f565b801561104c5780601f106110235761010080835404028352916020019161104c565b820191905f5260205f20905b81548152906001019060200180831161102f57829003601f168201915b505050505090505f6002826040516110649190613089565b90815260200160405180910390205f9054906101000a900473ffffffffffffffffffffffffffffffffffffffff1690505f60095f8881526020019081526020015f205f9054906101000a900473ffffffffffffffffffffffffffffffffffffffff1690505f60085f8981526020019081526020015f205490505f600a5f8a81526020019081526020015f205f8973ffffffffffffffffffffffffffffffffffffffff1673ffffffffffffffffffffffffffffffffffffffff1681526020019081526020015f205490505f8390508073ffffffffffffffffffffffffffffffffffffffff1663483ced9887878c87876040518663ffffffff1660e01b815260040161117295949392919061326c565b5f60405180830381865afa15801561118c573d5f803e3d5ffd5b505050506040513d5f823e3d601f19601f820116820180604052508101906111b49190613332565b97505050505050505092915050565b8060065f8281526020019081526020015f205f9054906101000a900460ff16611221576040517f08c379a000000000000000000000000000000000000000000000000000000000815260040161121890612df4565b60405180910390fd5b3373ffffffffffffffffffffffffffffffffffffffff163073ffffffffffffffffffffffffffffffffffffffff16631e7fd268846040518263ffffffff1660e01b81526004016112719190613388565b602060405180830381865afa15801561128c573d5f803e3d5ffd5b505050506040513d601f19601f820116820180604052508101906112b091906133b5565b73ffffffffffffffffffffffffffffffffffffffff1614611306576040517f08c379a00000000000000000000000000000000000000000000000000000000081526004016112fd90613151565b60405180910390fd5b5f60065f8481526020019081526020015f205f6101000a81548160ff0219169083151502179055505050565b5f8160065f8281526020019081526020015f205f9054906101000a900460ff16611391576040517f08c379a000000000000000000000000000000000000000000000000000000000815260040161138890612df4565b60405180910390fd5b60095f8481526020019081526020015f205f9054906101000a900473ffffffffffffffffffffffffffffffffffffffff16915050919050565b5f60418383905014611411576040517f08c379a00000000000000000000000000000000000000000000000000000000081526004016114089061342a565b60405180910390fd5b5f805f8535915060208601359050602186013592506114328784848461207b565b93505050509392505050565b5f8160065f8281526020019081526020015f205f9054906101000a900460ff1661149d576040517f08c379a000000000000000000000000000000000000000000000000000000000815260040161149490612df4565b60405180910390fd5b60085f8481526020019081526020015f2054915050919050565b6060825f73ffffffffffffffffffffffffffffffffffffffff166002826040516114e19190613089565b90815260200160405180910390205f9054906101000a900473ffffffffffffffffffffffffffffffffffffffff1673ffffffffffffffffffffffffffffffffffffffff1603611565576040517f08c379a000000000000000000000000000000000000000000000000000000000815260040161155c906130e9565b60405180910390fd5b5f6003856040516115769190613089565b90815260200160405180910390205467ffffffffffffffff81111561159e5761159d6125d6565b5b6040519080825280602002602001820160405280156115cc5781602001602082028036833780820191505090505b5090505f5b6003866040516115e19190613089565b9081526020016040518091039020548110156116aa575f6004876040516116089190613089565b90815260200160405180910390205f8381526020019081526020015f205490505f600a5f8381526020019081526020015f205f8873ffffffffffffffffffffffffffffffffffffffff1673ffffffffffffffffffffffffffffffffffffffff1681526020019081526020015f20541461169c578083838151811061168f5761168e6131d7565b5b6020026020010181815250505b5080806001019150506115d1565b50809250505092915050565b3373ffffffffffffffffffffffffffffffffffffffff165f8054906101000a900473ffffffffffffffffffffffffffffffffffffffff1673ffffffffffffffffffffffffffffffffffffffff1614611743576040517f08c379a000000000000000000000000000000000000000000000000000000000815260040161173a90612f6b565b60405180910390fd5b5f60015f8373ffffffffffffffffffffffffffffffffffffffff1673ffffffffffffffffffffffffffffffffffffffff1681526020019081526020015f205f6101000a81548160ff02191690831515021790555050565b8260065f8281526020019081526020015f205f9054906101000a900460ff166117f8576040517f08c379a00000000000000000000000000000000000000000000000000000000081526004016117ef90612df4565b60405180910390fd5b3073ffffffffffffffffffffffffffffffffffffffff1663b6c00a82856040518263ffffffff1660e01b81526004016118319190613388565b602060405180830381865afa15801561184c573d5f803e3d5ffd5b505050506040513d601f19601f82011682018060405250810190611870919061345c565b3410156118b2576040517f08c379a00000000000000000000000000000000000000000000000000000000081526004016118a9906134d1565b60405180910390fd5b6118be338585856120df565b6118fd576040517f08c379a00000000000000000000000000000000000000000000000000000000081526004016118f490613539565b60405180910390fd5b5f3073ffffffffffffffffffffffffffffffffffffffff1663b6c00a82866040518263ffffffff1660e01b81526004016119379190613388565b602060405180830381865afa158015611952573d5f803e3d5ffd5b505050506040513d601f19601f82011682018060405250810190611976919061345c565b90505f3073ffffffffffffffffffffffffffffffffffffffff16631e7fd268876040518263ffffffff1660e01b81526004016119b29190613388565b602060405180830381865afa1580156119cd573d5f803e3d5ffd5b505050506040513d601f19601f820116820180604052508101906119f191906133b5565b90505f8173ffffffffffffffffffffffffffffffffffffffff1683604051611a1890613584565b5f6040518083038185875af1925050503d805f8114611a52576040519150601f19603f3d011682016040523d82523d5f602084013e611a57565b606091505b5050905080611a9b576040517f08c379a0000000000000000000000000000000000000000000000000000000008152600401611a92906135e2565b60405180910390fd5b42600a5f8981526020019081526020015f205f3373ffffffffffffffffffffffffffffffffffffffff1673ffffffffffffffffffffffffffffffffffffffff1681526020019081526020015f208190555050505050505050565b3373ffffffffffffffffffffffffffffffffffffffff165f8054906101000a900473ffffffffffffffffffffffffffffffffffffffff1673ffffffffffffffffffffffffffffffffffffffff1614611b82576040517f08c379a0000000000000000000000000000000000000000000000000000000008152600401611b7990612f6b565b60405180910390fd5b8260015f8273ffffffffffffffffffffffffffffffffffffffff1673ffffffffffffffffffffffffffffffffffffffff1681526020019081526020015f205f9054906101000a900460ff16611c0c576040517f08c379a0000000000000000000000000000000000000000000000000000000008152600401611c0390612df4565b60405180910390fd5b60055f8381526020019081526020015f205f9054906101000a900460ff1615611c6a576040517f08c379a0000000000000000000000000000000000000000000000000000000008152600401611c61906131b9565b60405180910390fd5b611c768888888861061a565b611c8288858585611f1b565b5050505050505050565b5f80611c998585856113ca565b90508573ffffffffffffffffffffffffffffffffffffffff168173ffffffffffffffffffffffffffffffffffffffff1603611cd8576001915050611e2d565b5f611ce2866120fe565b90505f808873ffffffffffffffffffffffffffffffffffffffff16631626ba7e60e01b848989604051602401611d1a93929190613654565b604051602081830303815290604052907bffffffffffffffffffffffffffffffffffffffffffffffffffffffff19166020820180517bffffffffffffffffffffffffffffffffffffffffffffffffffffffff8381831617835250505050604051611d8491906136be565b5f60405180830381855afa9150503d805f8114611dbc576040519150601f19603f3d011682016040523d82523d5f602084013e611dc1565b606091505b5091509150818015611dd4575060208151145b15611e25575f81806020019051810190611dee9190613729565b9050631626ba7e60e01b817bffffffffffffffffffffffffffffffffffffffffffffffffffffffff19161495505050505050611e2d565b5f9450505050505b949350505050565b3373ffffffffffffffffffffffffffffffffffffffff165f8054906101000a900473ffffffffffffffffffffffffffffffffffffffff1673ffffffffffffffffffffffffffffffffffffffff1614611ec2576040517f08c379a0000000000000000000000000000000000000000000000000000000008152600401611eb990612f6b565b60405180910390fd5b805f806101000a81548173ffffffffffffffffffffffffffffffffffffffff021916908373ffffffffffffffffffffffffffffffffffffffff16021790555050565b5f611f1185858585611c8c565b9050949350505050565b600160055f8381526020019081526020015f205f6101000a81548160ff021916908315150217905550600160065f8381526020019081526020015f205f6101000a81548160ff0219169083151502179055505f600385604051611f7e9190613089565b908152602001604051809103902054905081600486604051611fa09190613089565b90815260200160405180910390205f8381526020019081526020015f2081905550600181611fce9190613781565b600386604051611fde9190613089565b9081526020016040518091039020819055508460075f8481526020019081526020015f20908161200e9190613915565b508260085f8481526020019081526020015f20819055508360095f8481526020019081526020015f205f6101000a81548173ffffffffffffffffffffffffffffffffffffffff021916908373ffffffffffffffffffffffffffffffffffffffff1602179055505050505050565b5f80612086866120fe565b90506001818686866040515f81526020016040526040516120aa94939291906139ff565b6020604051602081039080840390855afa1580156120ca573d5f803e3d5ffd5b50505060206040510351915050949350505050565b5f6120f4856120ed86612142565b8585611c8c565b9050949350505050565b5f8061210a835161220c565b8360405160200161211c929190613a8c565b60405160208183030381529060405290505f818051906020012090508092505050919050565b60605f600161215084612326565b0190505f8167ffffffffffffffff81111561216e5761216d6125d6565b5b6040519080825280601f01601f1916602001820160405280156121a05781602001600182028036833780820191505090505b5090505f82602001820190505b600115612201578080600190039150507f3031323334353637383961626364656600000000000000000000000000000000600a86061a8153600a85816121f6576121f5613aba565b5b0494505f85036121ad575b819350505050919050565b60605f600190505f8390505b5f600a826122269190613ae7565b9150811461224157818061223990613b17565b925050612218565b5f8267ffffffffffffffff81111561225c5761225b6125d6565b5b6040519080825280601f01601f19166020018201604052801561228e5781602001600182028036833780820191505090505b5090505b60011561231b5782806122a490613b5e565b935050600a856122b49190613b85565b60306122c09190613781565b60f81b8184815181106122d6576122d56131d7565b5b60200101907effffffffffffffffffffffffffffffffffffffffffffffffffffffffffffff191690815f1a905350600a856123119190613ae7565b94505f8303612292575b809350505050919050565b5f805f90507a184f03e93ff9f4daa797ed6e38ed64bf6a1f0100000000000000008310612382577a184f03e93ff9f4daa797ed6e38ed64bf6a1f010000000000000000838161237857612377613aba565b5b0492506040810190505b6d04ee2d6d415b85acef810000000083106123bf576d04ee2d6d415b85acef810000000083816123b5576123b4613aba565b5b0492506020810190505b662386f26fc1000083106123ee57662386f26fc1000083816123e4576123e3613aba565b5b0492506010810190505b6305f5e1008310612417576305f5e100838161240d5761240c613aba565b5b0492506008810190505b612710831061243c57612710838161243257612431613aba565b5b0492506004810190505b6064831061245f576064838161245557612454613aba565b5b0492506002810190505b600a831061246e576001810190505b80915050919050565b5f81519050919050565b5f82825260208201905092915050565b8281835e5f83830152505050565b5f601f19601f8301169050919050565b5f6124b982612477565b6124c38185612481565b93506124d3818560208601612491565b6124dc8161249f565b840191505092915050565b5f6020820190508181035f8301526124ff81846124af565b905092915050565b5f604051905090565b5f80fd5b5f80fd5b5f819050919050565b61252a81612518565b8114612534575f80fd5b50565b5f8135905061254581612521565b92915050565b5f602082840312156125605761255f612510565b5b5f61256d84828501612537565b91505092915050565b5f73ffffffffffffffffffffffffffffffffffffffff82169050919050565b5f61259f82612576565b9050919050565b6125af81612595565b82525050565b5f6020820190506125c85f8301846125a6565b92915050565b5f80fd5b5f80fd5b7f4e487b71000000000000000000000000000000000000000000000000000000005f52604160045260245ffd5b61260c8261249f565b810181811067ffffffffffffffff8211171561262b5761262a6125d6565b5b80604052505050565b5f61263d612507565b90506126498282612603565b919050565b5f67ffffffffffffffff821115612668576126676125d6565b5b6126718261249f565b9050602081019050919050565b828183375f83830152505050565b5f61269e6126998461264e565b612634565b9050828152602081018484840111156126ba576126b96125d2565b5b6126c584828561267e565b509392505050565b5f82601f8301126126e1576126e06125ce565b5b81356126f184826020860161268c565b91505092915050565b61270381612595565b811461270d575f80fd5b50565b5f8135905061271e816126fa565b92915050565b5f80fd5b5f80fd5b5f8083601f840112612741576127406125ce565b5b8235905067ffffffffffffffff81111561275e5761275d612724565b5b60208301915083600182028301111561277a57612779612728565b5b9250929050565b5f805f806060858703121561279957612798612510565b5b5f85013567ffffffffffffffff8111156127b6576127b5612514565b5b6127c2878288016126cd565b94505060206127d387828801612710565b935050604085013567ffffffffffffffff8111156127f4576127f3612514565b5b6128008782880161272c565b925092505092959194509250565b5f6020828403121561282357612822612510565b5b5f82013567ffffffffffffffff8111156128405761283f612514565b5b61284c848285016126cd565b91505092915050565b5f61285f82612576565b9050919050565b61286f81612855565b8114612879575f80fd5b50565b5f8135905061288a81612866565b92915050565b5f602082840312156128a5576128a4612510565b5b5f6128b28482850161287c565b91505092915050565b5f80604083850312156128d1576128d0612510565b5b5f6128de85828601612537565b92505060206128ef8582860161287c565b9150509250929050565b61290281612518565b82525050565b5f60208201905061291b5f8301846128f9565b92915050565b61292a81612518565b8114612934575f80fd5b50565b5f8135905061294581612921565b92915050565b5f805f806080858703121561296357612962612510565b5b5f85013567ffffffffffffffff8111156129805761297f612514565b5b61298c878288016126cd565b945050602061299d8782880161287c565b93505060406129ae87828801612937565b92505060606129bf87828801612537565b91505092959194509250565b5f81519050919050565b5f82825260208201905092915050565b5f819050602082019050919050565b5f819050919050565b5f612a17612a12612a0d84612518565b6129f4565b612518565b9050919050565b612a27816129fd565b82525050565b5f612a388383612a1e565b60208301905092915050565b5f602082019050919050565b5f612a5a826129cb565b612a6481856129d5565b9350612a6f836129e5565b805f5b83811015612a9f578151612a868882612a2d565b9750612a9183612a44565b925050600181019050612a72565b5085935050505092915050565b5f6020820190508181035f830152612ac48184612a50565b905092915050565b612ad581612855565b82525050565b5f602082019050612aee5f830184612acc565b92915050565b5f805f60408486031215612b0b57612b0a612510565b5b5f84013567ffffffffffffffff811115612b2857612b27612514565b5b612b34868287016126cd565b935050602084013567ffffffffffffffff811115612b5557612b54612514565b5b612b618682870161272c565b92509250509250925092565b5f8060408385031215612b8357612b82612510565b5b5f83013567ffffffffffffffff811115612ba057612b9f612514565b5b612bac858286016126cd565b9250506020612bbd8582860161287c565b9150509250929050565b5f805f60408486031215612bde57612bdd612510565b5b5f612beb86828701612537565b935050602084013567ffffffffffffffff811115612c0c57612c0b612514565b5b612c188682870161272c565b92509250509250925092565b5f805f805f805f60c0888a031215612c3f57612c3e612510565b5b5f88013567ffffffffffffffff811115612c5c57612c5b612514565b5b612c688a828b016126cd565b9750506020612c798a828b01612710565b965050604088013567ffffffffffffffff811115612c9a57612c99612514565b5b612ca68a828b0161272c565b95509550506060612cb98a828b0161287c565b9350506080612cca8a828b01612937565b92505060a0612cdb8a828b01612537565b91505092959891949750929550565b5f805f8060608587031215612d0257612d01612510565b5b5f612d0f8782880161287c565b945050602085013567ffffffffffffffff811115612d3057612d2f612514565b5b612d3c878288016126cd565b935050604085013567ffffffffffffffff811115612d5d57612d5c612514565b5b612d698782880161272c565b925092505092959194509250565b5f8115159050919050565b612d8b81612d77565b82525050565b5f602082019050612da45f830184612d82565b92915050565b7f6c6963656e736520646f65736e277420657869737400000000000000000000005f82015250565b5f612dde601583612481565b9150612de982612daa565b602082019050919050565b5f6020820190508181035f830152612e0b81612dd2565b9050919050565b7f4e487b71000000000000000000000000000000000000000000000000000000005f52602260045260245ffd5b5f6002820490506001821680612e5657607f821691505b602082108103612e6957612e68612e12565b5b50919050565b5f81905092915050565b5f819050815f5260205f209050919050565b5f8154612e9781612e3f565b612ea18186612e6f565b9450600182165f8114612ebb5760018114612ed057612f02565b60ff1983168652811515820286019350612f02565b612ed985612e79565b5f5b83811015612efa57815481890152600182019150602081019050612edb565b838801955050505b50505092915050565b5f612f168284612e8b565b915081905092915050565b7f6f776e657220616363657373206f6e6c790000000000000000000000000000005f82015250565b5f612f55601183612481565b9150612f6082612f21565b602082019050919050565b5f6020820190508181035f830152612f8281612f49565b9050919050565b7f696e76616c696420766964656f206964000000000000000000000000000000005f82015250565b5f612fbd601083612481565b9150612fc882612f89565b602082019050919050565b5f6020820190508181035f830152612fea81612fb1565b9050919050565b7f696e76616c6964206c6963656e736f72207369676e61747572650000000000005f82015250565b5f613025601a83612481565b915061303082612ff1565b602082019050919050565b5f6020820190508181035f83015261305281613019565b9050919050565b5f61306382612477565b61306d8185612e6f565b935061307d818560208601612491565b80840191505092915050565b5f6130948284613059565b915081905092915050565b7f766964656f20646f65736e2774206578697374000000000000000000000000005f82015250565b5f6130d3601383612481565b91506130de8261309f565b602082019050919050565b5f6020820190508181035f830152613100816130c7565b9050919050565b7f696e76616c6964206c6963656e736f72000000000000000000000000000000005f82015250565b5f61313b601083612481565b915061314682613107565b602082019050919050565b5f6020820190508181035f8301526131688161312f565b9050919050565b7f756e617661696c61626c65206c6963656e7365206964000000000000000000005f82015250565b5f6131a3601683612481565b91506131ae8261316f565b602082019050919050565b5f6020820190508181035f8301526131d081613197565b9050919050565b7f4e487b71000000000000000000000000000000000000000000000000000000005f52603260045260245ffd5b7f696e76616c6964206c6963656e736565000000000000000000000000000000005f82015250565b5f613238601083612481565b915061324382613204565b602082019050919050565b5f6020820190508181035f8301526132658161322c565b9050919050565b5f60a0820190508181035f83015261328481886124af565b90506132936020830187612acc565b6132a06040830186612acc565b6132ad60608301856128f9565b6132ba60808301846128f9565b9695505050505050565b5f6132d66132d18461264e565b612634565b9050828152602081018484840111156132f2576132f16125d2565b5b6132fd848285612491565b509392505050565b5f82601f830112613319576133186125ce565b5b81516133298482602086016132c4565b91505092915050565b5f6020828403121561334757613346612510565b5b5f82015167ffffffffffffffff81111561336457613363612514565b5b61337084828501613305565b91505092915050565b613382816129fd565b82525050565b5f60208201905061339b5f830184613379565b92915050565b5f815190506133af816126fa565b92915050565b5f602082840312156133ca576133c9612510565b5b5f6133d7848285016133a1565b91505092915050565b7f696e76616c6964207369676e61747572650000000000000000000000000000005f82015250565b5f613414601183612481565b915061341f826133e0565b602082019050919050565b5f6020820190508181035f83015261344181613408565b9050919050565b5f8151905061345681612921565b92915050565b5f6020828403121561347157613470612510565b5b5f61347e84828501613448565b91505092915050565b7f6e6f7420656e6f756768206574686572000000000000000000000000000000005f82015250565b5f6134bb601083612481565b91506134c682613487565b602082019050919050565b5f6020820190508181035f8301526134e8816134af565b9050919050565b7f696e76616c6964206c6963656e736565207369676e61747572650000000000005f82015250565b5f613523601a83612481565b915061352e826134ef565b602082019050919050565b5f6020820190508181035f83015261355081613517565b9050919050565b5f81905092915050565b50565b5f61356f5f83613557565b915061357a82613561565b5f82019050919050565b5f61358e82613564565b9150819050919050565b7f6661696c656420746f2073656e642065746865720000000000000000000000005f82015250565b5f6135cc601483612481565b91506135d782613598565b602082019050919050565b5f6020820190508181035f8301526135f9816135c0565b9050919050565b5f819050919050565b61361281613600565b82525050565b5f82825260208201905092915050565b5f6136338385613618565b935061364083858461267e565b6136498361249f565b840190509392505050565b5f6040820190506136675f830186613609565b818103602083015261367a818486613628565b9050949350505050565b5f81519050919050565b5f61369882613684565b6136a28185613557565b93506136b2818560208601612491565b80840191505092915050565b5f6136c9828461368e565b915081905092915050565b5f7fffffffff0000000000000000000000000000000000000000000000000000000082169050919050565b613708816136d4565b8114613712575f80fd5b50565b5f81519050613723816136ff565b92915050565b5f6020828403121561373e5761373d612510565b5b5f61374b84828501613715565b91505092915050565b7f4e487b71000000000000000000000000000000000000000000000000000000005f52601160045260245ffd5b5f61378b82612518565b915061379683612518565b92508282019050808211156137ae576137ad613754565b5b92915050565b5f6020601f8301049050919050565b5f82821b905092915050565b5f600883026137fe7fffffffffffffffffffffffffffffffffffffffffffffffffffffffffffffffff826137c3565b61380886836137c3565b95508019841693508086168417925050509392505050565b5f819050919050565b613832836129fd565b61384661383e82613820565b8484546137cf565b825550505050565b5f90565b61385a61384e565b613865818484613829565b505050565b5b818110156138885761387d5f82613852565b60018101905061386b565b5050565b601f8211156138cd5761389e81612e79565b6138a7846137b4565b810160208510156138b6578190505b6138ca6138c2856137b4565b83018261386a565b50505b505050565b5f82821c905092915050565b5f6138ed5f19846008026138d2565b1980831691505092915050565b5f61390583836138de565b9150826002028217905092915050565b61391e82612477565b67ffffffffffffffff811115613937576139366125d6565b5b6139418254612e3f565b61394c82828561388c565b5f60209050601f83116001811461397d575f841561396b578287015190505b61397585826138fa565b8655506139dc565b601f19841661398b86612e79565b5f5b828110156139b25784890151825560018201915060208501945060208101905061398d565b868310156139cf57848901516139cb601f8916826138de565b8355505b6001600288020188555050505b505050505050565b5f60ff82169050919050565b6139f9816139e4565b82525050565b5f608082019050613a125f830187613609565b613a1f60208301866139f0565b613a2c6040830185613609565b613a396060830184613609565b95945050505050565b7f19457468657265756d205369676e6564204d6573736167653a0a0000000000005f82015250565b5f613a76601a83612e6f565b9150613a8182613a42565b601a82019050919050565b5f613a9682613a6a565b9150613aa28285613059565b9150613aae8284613059565b91508190509392505050565b7f4e487b71000000000000000000000000000000000000000000000000000000005f52601260045260245ffd5b5f613af182612518565b9150613afc83612518565b925082613b0c57613b0b613aba565b5b828204905092915050565b5f613b2182612518565b91507fffffffffffffffffffffffffffffffffffffffffffffffffffffffffffffffff8203613b5357613b52613754565b5b600182019050919050565b5f613b6882612518565b91505f8203613b7a57613b79613754565b5b600182039050919050565b5f613b8f82612518565b9150613b9a83612518565b925082613baa57613ba9613aba565b5b82820690509291505056fe4920636572746966792074686174204920616d20746865206c6963656e736f72206f662074686520766964656f2061677265656d656e7420616e6420616772656520746f20616c6c207465726d7320646566696e656420696e207468652061677265656d656e742e4920636572746966792074686174204920616d20746865206c6963656e736565206f662074686520766964656f2061677265656d656e7420616e6420616772656520746f20616c6c207465726d7320646566696e656420696e207468652061677265656d656e742ea26469706673582212208f5f5312656c1deb226648494f20df74daa838a4c529dc6f41ce7e260c79814b64736f6c63430008190033",
					"opcodes": "PUSH1 0x80 PUSH1 0x40 MSTORE CALLVALUE DUP1 ISZERO PUSH2 0xF JUMPI PUSH0 DUP1 REVERT JUMPDEST POP PUSH1 0x40 MLOAD PUSH2 0x3DF0 CODESIZE SUB DUP1 PUSH2 0x3DF0 DUP4 CODECOPY DUP2 DUP2 ADD PUSH1 0x40 MSTORE DUP2 ADD SWAP1 PUSH2 0x31 SWAP2 SWAP1 PUSH2 0xFD JUMP JUMPDEST DUP1 PUSH0 DUP1 PUSH2 0x100 EXP DUP2 SLOAD DUP2 PUSH20 0xFFFFFFFFFFFFFFFFFFFFFFFFFFFFFFFFFFFFFFFF MUL NOT AND SWAP1 DUP4 PUSH20 0xFFFFFFFFFFFFFFFFFFFFFFFFFFFFFFFFFFFFFFFF AND MUL OR SWAP1 SSTORE POP PUSH1 0x1 PUSH1 0x5 PUSH0 DUP1 DUP2 MSTORE PUSH1 0x20 ADD SWAP1 DUP2 MSTORE PUSH1 0x20 ADD PUSH0 KECCAK256 PUSH0 PUSH2 0x100 EXP DUP2 SLOAD DUP2 PUSH1 0xFF MUL NOT AND SWAP1 DUP4 ISZERO ISZERO MUL OR SWAP1 SSTORE POP POP PUSH2 0x128 JUMP JUMPDEST PUSH0 DUP1 REVERT JUMPDEST PUSH0 PUSH20 0xFFFFFFFFFFFFFFFFFFFFFFFFFFFFFFFFFFFFFFFF DUP3 AND SWAP1 POP SWAP2 SWAP1 POP JUMP JUMPDEST PUSH0 PUSH2 0xCC DUP3 PUSH2 0xA3 JUMP JUMPDEST SWAP1 POP SWAP2 SWAP1 POP JUMP JUMPDEST PUSH2 0xDC DUP2 PUSH2 0xC2 JUMP JUMPDEST DUP2 EQ PUSH2 0xE6 JUMPI PUSH0 DUP1 REVERT JUMPDEST POP JUMP JUMPDEST PUSH0 DUP2 MLOAD SWAP1 POP PUSH2 0xF7 DUP2 PUSH2 0xD3 JUMP JUMPDEST SWAP3 SWAP2 POP POP JUMP JUMPDEST PUSH0 PUSH1 0x20 DUP3 DUP5 SUB SLT ISZERO PUSH2 0x112 JUMPI PUSH2 0x111 PUSH2 0x9F JUMP JUMPDEST JUMPDEST PUSH0 PUSH2 0x11F DUP5 DUP3 DUP6 ADD PUSH2 0xE9 JUMP JUMPDEST SWAP2 POP POP SWAP3 SWAP2 POP POP JUMP JUMPDEST PUSH2 0x3CBB DUP1 PUSH2 0x135 PUSH0 CODECOPY PUSH0 RETURN INVALID PUSH1 0x80 PUSH1 0x40 MSTORE PUSH1 0x4 CALLDATASIZE LT PUSH2 0x129 JUMPI PUSH0 CALLDATALOAD PUSH1 0xE0 SHR DUP1 PUSH4 0x976662B0 GT PUSH2 0xAA JUMPI DUP1 PUSH4 0xD947650A GT PUSH2 0x6E JUMPI DUP1 PUSH4 0xD947650A EQ PUSH2 0x43D JUMPI DUP1 PUSH4 0xE946AF59 EQ PUSH2 0x479 JUMPI DUP1 PUSH4 0xEA80A847 EQ PUSH2 0x4A1 JUMPI DUP1 PUSH4 0xEEB9509B EQ PUSH2 0x4BD JUMPI DUP1 PUSH4 0xF1197969 EQ PUSH2 0x4E5 JUMPI DUP1 PUSH4 0xF2FDE38B EQ PUSH2 0x521 JUMPI PUSH2 0x129 JUMP JUMPDEST DUP1 PUSH4 0x976662B0 EQ PUSH2 0x325 JUMPI DUP1 PUSH4 0x99911ABE EQ PUSH2 0x361 JUMPI DUP1 PUSH4 0xB033C13A EQ PUSH2 0x389 JUMPI DUP1 PUSH4 0xB0508A83 EQ PUSH2 0x3C5 JUMPI DUP1 PUSH4 0xB6C00A82 EQ PUSH2 0x401 JUMPI PUSH2 0x129 JUMP JUMPDEST DUP1 PUSH4 0x55B30266 GT PUSH2 0xF1 JUMPI DUP1 PUSH4 0x55B30266 EQ PUSH2 0x233 JUMPI DUP1 PUSH4 0x66527F1C EQ PUSH2 0x25B JUMPI DUP1 PUSH4 0x705D5C76 EQ PUSH2 0x285 JUMPI DUP1 PUSH4 0x70D8677F EQ PUSH2 0x2C1 JUMPI DUP1 PUSH4 0x74F630DC EQ PUSH2 0x2E9 JUMPI PUSH2 0x129 JUMP JUMPDEST DUP1 PUSH4 0xE15C62A EQ PUSH2 0x12D JUMPI DUP1 PUSH4 0x1E7FD268 EQ PUSH2 0x157 JUMPI DUP1 PUSH4 0x2B35D062 EQ PUSH2 0x193 JUMPI DUP1 PUSH4 0x3E340E2D EQ PUSH2 0x1BB JUMPI DUP1 PUSH4 0x41BEFBD1 EQ PUSH2 0x1F7 JUMPI JUMPDEST PUSH0 DUP1 REVERT JUMPDEST CALLVALUE DUP1 ISZERO PUSH2 0x138 JUMPI PUSH0 DUP1 REVERT JUMPDEST POP PUSH2 0x141 PUSH2 0x549 JUMP JUMPDEST PUSH1 0x40 MLOAD PUSH2 0x14E SWAP2 SWAP1 PUSH2 0x24E7 JUMP JUMPDEST PUSH1 0x40 MLOAD DUP1 SWAP2 SUB SWAP1 RETURN JUMPDEST CALLVALUE DUP1 ISZERO PUSH2 0x162 JUMPI PUSH0 DUP1 REVERT JUMPDEST POP PUSH2 0x17D PUSH1 0x4 DUP1 CALLDATASIZE SUB DUP2 ADD SWAP1 PUSH2 0x178 SWAP2 SWAP1 PUSH2 0x254B JUMP JUMPDEST PUSH2 0x565 JUMP JUMPDEST PUSH1 0x40 MLOAD PUSH2 0x18A SWAP2 SWAP1 PUSH2 0x25B5 JUMP JUMPDEST PUSH1 0x40 MLOAD DUP1 SWAP2 SUB SWAP1 RETURN JUMPDEST CALLVALUE DUP1 ISZERO PUSH2 0x19E JUMPI PUSH0 DUP1 REVERT JUMPDEST POP PUSH2 0x1B9 PUSH1 0x4 DUP1 CALLDATASIZE SUB DUP2 ADD SWAP1 PUSH2 0x1B4 SWAP2 SWAP1 PUSH2 0x2781 JUMP JUMPDEST PUSH2 0x61A JUMP JUMPDEST STOP JUMPDEST CALLVALUE DUP1 ISZERO PUSH2 0x1C6 JUMPI PUSH0 DUP1 REVERT JUMPDEST POP PUSH2 0x1E1 PUSH1 0x4 DUP1 CALLDATASIZE SUB DUP2 ADD SWAP1 PUSH2 0x1DC SWAP2 SWAP1 PUSH2 0x280E JUMP JUMPDEST PUSH2 0x80D JUMP JUMPDEST PUSH1 0x40 MLOAD PUSH2 0x1EE SWAP2 SWAP1 PUSH2 0x25B5 JUMP JUMPDEST PUSH1 0x40 MLOAD DUP1 SWAP2 SUB SWAP1 RETURN JUMPDEST CALLVALUE DUP1 ISZERO PUSH2 0x202 JUMPI PUSH0 DUP1 REVERT JUMPDEST POP PUSH2 0x21D PUSH1 0x4 DUP1 CALLDATASIZE SUB DUP2 ADD SWAP1 PUSH2 0x218 SWAP2 SWAP1 PUSH2 0x254B JUMP JUMPDEST PUSH2 0x853 JUMP JUMPDEST PUSH1 0x40 MLOAD PUSH2 0x22A SWAP2 SWAP1 PUSH2 0x24E7 JUMP JUMPDEST PUSH1 0x40 MLOAD DUP1 SWAP2 SUB SWAP1 RETURN JUMPDEST CALLVALUE DUP1 ISZERO PUSH2 0x23E JUMPI PUSH0 DUP1 REVERT JUMPDEST POP PUSH2 0x259 PUSH1 0x4 DUP1 CALLDATASIZE SUB DUP2 ADD SWAP1 PUSH2 0x254 SWAP2 SWAP1 PUSH2 0x2890 JUMP JUMPDEST PUSH2 0x953 JUMP JUMPDEST STOP JUMPDEST CALLVALUE DUP1 ISZERO PUSH2 0x266 JUMPI PUSH0 DUP1 REVERT JUMPDEST POP PUSH2 0x26F PUSH2 0xA37 JUMP JUMPDEST PUSH1 0x40 MLOAD PUSH2 0x27C SWAP2 SWAP1 PUSH2 0x24E7 JUMP JUMPDEST PUSH1 0x40 MLOAD DUP1 SWAP2 SUB SWAP1 RETURN JUMPDEST CALLVALUE DUP1 ISZERO PUSH2 0x290 JUMPI PUSH0 DUP1 REVERT JUMPDEST POP PUSH2 0x2AB PUSH1 0x4 DUP1 CALLDATASIZE SUB DUP2 ADD SWAP1 PUSH2 0x2A6 SWAP2 SWAP1 PUSH2 0x28BB JUMP JUMPDEST PUSH2 0xA53 JUMP JUMPDEST PUSH1 0x40 MLOAD PUSH2 0x2B8 SWAP2 SWAP1 PUSH2 0x2908 JUMP JUMPDEST PUSH1 0x40 MLOAD DUP1 SWAP2 SUB SWAP1 RETURN JUMPDEST CALLVALUE DUP1 ISZERO PUSH2 0x2CC JUMPI PUSH0 DUP1 REVERT JUMPDEST POP PUSH2 0x2E7 PUSH1 0x4 DUP1 CALLDATASIZE SUB DUP2 ADD SWAP1 PUSH2 0x2E2 SWAP2 SWAP1 PUSH2 0x294B JUMP JUMPDEST PUSH2 0xAA9 JUMP JUMPDEST STOP JUMPDEST CALLVALUE DUP1 ISZERO PUSH2 0x2F4 JUMPI PUSH0 DUP1 REVERT JUMPDEST POP PUSH2 0x30F PUSH1 0x4 DUP1 CALLDATASIZE SUB DUP2 ADD SWAP1 PUSH2 0x30A SWAP2 SWAP1 PUSH2 0x280E JUMP JUMPDEST PUSH2 0xCFC JUMP JUMPDEST PUSH1 0x40 MLOAD PUSH2 0x31C SWAP2 SWAP1 PUSH2 0x2AAC JUMP JUMPDEST PUSH1 0x40 MLOAD DUP1 SWAP2 SUB SWAP1 RETURN JUMPDEST CALLVALUE DUP1 ISZERO PUSH2 0x330 JUMPI PUSH0 DUP1 REVERT JUMPDEST POP PUSH2 0x34B PUSH1 0x4 DUP1 CALLDATASIZE SUB DUP2 ADD SWAP1 PUSH2 0x346 SWAP2 SWAP1 PUSH2 0x28BB JUMP JUMPDEST PUSH2 0xECA JUMP JUMPDEST PUSH1 0x40 MLOAD PUSH2 0x358 SWAP2 SWAP1 PUSH2 0x24E7 JUMP JUMPDEST PUSH1 0x40 MLOAD DUP1 SWAP2 SUB SWAP1 RETURN JUMPDEST CALLVALUE DUP1 ISZERO PUSH2 0x36C JUMPI PUSH0 DUP1 REVERT JUMPDEST POP PUSH2 0x387 PUSH1 0x4 DUP1 CALLDATASIZE SUB DUP2 ADD SWAP1 PUSH2 0x382 SWAP2 SWAP1 PUSH2 0x254B JUMP JUMPDEST PUSH2 0x11C3 JUMP JUMPDEST STOP JUMPDEST CALLVALUE DUP1 ISZERO PUSH2 0x394 JUMPI PUSH0 DUP1 REVERT JUMPDEST POP PUSH2 0x3AF PUSH1 0x4 DUP1 CALLDATASIZE SUB DUP2 ADD SWAP1 PUSH2 0x3AA SWAP2 SWAP1 PUSH2 0x254B JUMP JUMPDEST PUSH2 0x1332 JUMP JUMPDEST PUSH1 0x40 MLOAD PUSH2 0x3BC SWAP2 SWAP1 PUSH2 0x2ADB JUMP JUMPDEST PUSH1 0x40 MLOAD DUP1 SWAP2 SUB SWAP1 RETURN JUMPDEST CALLVALUE DUP1 ISZERO PUSH2 0x3D0 JUMPI PUSH0 DUP1 REVERT JUMPDEST POP PUSH2 0x3EB PUSH1 0x4 DUP1 CALLDATASIZE SUB DUP2 ADD SWAP1 PUSH2 0x3E6 SWAP2 SWAP1 PUSH2 0x2AF4 JUMP JUMPDEST PUSH2 0x13CA JUMP JUMPDEST PUSH1 0x40 MLOAD PUSH2 0x3F8 SWAP2 SWAP1 PUSH2 0x2ADB JUMP JUMPDEST PUSH1 0x40 MLOAD DUP1 SWAP2 SUB SWAP1 RETURN JUMPDEST CALLVALUE DUP1 ISZERO PUSH2 0x40C JUMPI PUSH0 DUP1 REVERT JUMPDEST POP PUSH2 0x427 PUSH1 0x4 DUP1 CALLDATASIZE SUB DUP2 ADD SWAP1 PUSH2 0x422 SWAP2 SWAP1 PUSH2 0x254B JUMP JUMPDEST PUSH2 0x143E JUMP JUMPDEST PUSH1 0x40 MLOAD PUSH2 0x434 SWAP2 SWAP1 PUSH2 0x2908 JUMP JUMPDEST PUSH1 0x40 MLOAD DUP1 SWAP2 SUB SWAP1 RETURN JUMPDEST CALLVALUE DUP1 ISZERO PUSH2 0x448 JUMPI PUSH0 DUP1 REVERT JUMPDEST POP PUSH2 0x463 PUSH1 0x4 DUP1 CALLDATASIZE SUB DUP2 ADD SWAP1 PUSH2 0x45E SWAP2 SWAP1 PUSH2 0x2B6D JUMP JUMPDEST PUSH2 0x14B7 JUMP JUMPDEST PUSH1 0x40 MLOAD PUSH2 0x470 SWAP2 SWAP1 PUSH2 0x2AAC JUMP JUMPDEST PUSH1 0x40 MLOAD DUP1 SWAP2 SUB SWAP1 RETURN JUMPDEST CALLVALUE DUP1 ISZERO PUSH2 0x484 JUMPI PUSH0 DUP1 REVERT JUMPDEST POP PUSH2 0x49F PUSH1 0x4 DUP1 CALLDATASIZE SUB DUP2 ADD SWAP1 PUSH2 0x49A SWAP2 SWAP1 PUSH2 0x2890 JUMP JUMPDEST PUSH2 0x16B6 JUMP JUMPDEST STOP JUMPDEST PUSH2 0x4BB PUSH1 0x4 DUP1 CALLDATASIZE SUB DUP2 ADD SWAP1 PUSH2 0x4B6 SWAP2 SWAP1 PUSH2 0x2BC7 JUMP JUMPDEST PUSH2 0x179A JUMP JUMPDEST STOP JUMPDEST CALLVALUE DUP1 ISZERO PUSH2 0x4C8 JUMPI PUSH0 DUP1 REVERT JUMPDEST POP PUSH2 0x4E3 PUSH1 0x4 DUP1 CALLDATASIZE SUB DUP2 ADD SWAP1 PUSH2 0x4DE SWAP2 SWAP1 PUSH2 0x2C24 JUMP JUMPDEST PUSH2 0x1AF5 JUMP JUMPDEST STOP JUMPDEST CALLVALUE DUP1 ISZERO PUSH2 0x4F0 JUMPI PUSH0 DUP1 REVERT JUMPDEST POP PUSH2 0x50B PUSH1 0x4 DUP1 CALLDATASIZE SUB DUP2 ADD SWAP1 PUSH2 0x506 SWAP2 SWAP1 PUSH2 0x2CEA JUMP JUMPDEST PUSH2 0x1C8C JUMP JUMPDEST PUSH1 0x40 MLOAD PUSH2 0x518 SWAP2 SWAP1 PUSH2 0x2D91 JUMP JUMPDEST PUSH1 0x40 MLOAD DUP1 SWAP2 SUB SWAP1 RETURN JUMPDEST CALLVALUE DUP1 ISZERO PUSH2 0x52C JUMPI PUSH0 DUP1 REVERT JUMPDEST POP PUSH2 0x547 PUSH1 0x4 DUP1 CALLDATASIZE SUB DUP2 ADD SWAP1 PUSH2 0x542 SWAP2 SWAP1 PUSH2 0x2890 JUMP JUMPDEST PUSH2 0x1E35 JUMP JUMPDEST STOP JUMPDEST PUSH1 0x40 MLOAD DUP1 PUSH1 0xA0 ADD PUSH1 0x40 MSTORE DUP1 PUSH1 0x68 DUP2 MSTORE PUSH1 0x20 ADD PUSH2 0x3C1E PUSH1 0x68 SWAP2 CODECOPY DUP2 JUMP JUMPDEST PUSH0 DUP2 PUSH1 0x6 PUSH0 DUP3 DUP2 MSTORE PUSH1 0x20 ADD SWAP1 DUP2 MSTORE PUSH1 0x20 ADD PUSH0 KECCAK256 PUSH0 SWAP1 SLOAD SWAP1 PUSH2 0x100 EXP SWAP1 DIV PUSH1 0xFF AND PUSH2 0x5C4 JUMPI PUSH1 0x40 MLOAD PUSH32 0x8C379A000000000000000000000000000000000000000000000000000000000 DUP2 MSTORE PUSH1 0x4 ADD PUSH2 0x5BB SWAP1 PUSH2 0x2DF4 JUMP JUMPDEST PUSH1 0x40 MLOAD DUP1 SWAP2 SUB SWAP1 REVERT JUMPDEST PUSH1 0x2 PUSH1 0x7 PUSH0 DUP6 DUP2 MSTORE PUSH1 0x20 ADD SWAP1 DUP2 MSTORE PUSH1 0x20 ADD PUSH0 KECCAK256 PUSH1 0x40 MLOAD PUSH2 0x5E4 SWAP2 SWAP1 PUSH2 0x2F0B JUMP JUMPDEST SWAP1 DUP2 MSTORE PUSH1 0x20 ADD PUSH1 0x40 MLOAD DUP1 SWAP2 SUB SWAP1 KECCAK256 PUSH0 SWAP1 SLOAD SWAP1 PUSH2 0x100 EXP SWAP1 DIV PUSH20 0xFFFFFFFFFFFFFFFFFFFFFFFFFFFFFFFFFFFFFFFF AND SWAP2 POP POP SWAP2 SWAP1 POP JUMP JUMPDEST CALLER PUSH20 0xFFFFFFFFFFFFFFFFFFFFFFFFFFFFFFFFFFFFFFFF AND PUSH0 DUP1 SLOAD SWAP1 PUSH2 0x100 EXP SWAP1 DIV PUSH20 0xFFFFFFFFFFFFFFFFFFFFFFFFFFFFFFFFFFFFFFFF AND PUSH20 0xFFFFFFFFFFFFFFFFFFFFFFFFFFFFFFFFFFFFFFFF AND EQ PUSH2 0x6A7 JUMPI PUSH1 0x40 MLOAD PUSH32 0x8C379A000000000000000000000000000000000000000000000000000000000 DUP2 MSTORE PUSH1 0x4 ADD PUSH2 0x69E SWAP1 PUSH2 0x2F6B JUMP JUMPDEST PUSH1 0x40 MLOAD DUP1 SWAP2 SUB SWAP1 REVERT JUMPDEST PUSH0 DUP5 SWAP1 POP PUSH0 DUP2 MLOAD GT PUSH2 0x6EE JUMPI PUSH1 0x40 MLOAD PUSH32 0x8C379A000000000000000000000000000000000000000000000000000000000 DUP2 MSTORE PUSH1 0x4 ADD PUSH2 0x6E5 SWAP1 PUSH2 0x2FD3 JUMP JUMPDEST PUSH1 0x40 MLOAD DUP1 SWAP2 SUB SWAP1 REVERT JUMPDEST PUSH2 0x6FA DUP5 DUP7 DUP6 DUP6 PUSH2 0x1F04 JUMP JUMPDEST PUSH2 0x739 JUMPI PUSH1 0x40 MLOAD PUSH32 0x8C379A000000000000000000000000000000000000000000000000000000000 DUP2 MSTORE PUSH1 0x4 ADD PUSH2 0x730 SWAP1 PUSH2 0x303B JUMP JUMPDEST PUSH1 0x40 MLOAD DUP1 SWAP2 SUB SWAP1 REVERT JUMPDEST PUSH0 PUSH20 0xFFFFFFFFFFFFFFFFFFFFFFFFFFFFFFFFFFFFFFFF AND PUSH1 0x2 DUP7 PUSH1 0x40 MLOAD PUSH2 0x760 SWAP2 SWAP1 PUSH2 0x3089 JUMP JUMPDEST SWAP1 DUP2 MSTORE PUSH1 0x20 ADD PUSH1 0x40 MLOAD DUP1 SWAP2 SUB SWAP1 KECCAK256 PUSH0 SWAP1 SLOAD SWAP1 PUSH2 0x100 EXP SWAP1 DIV PUSH20 0xFFFFFFFFFFFFFFFFFFFFFFFFFFFFFFFFFFFFFFFF AND PUSH20 0xFFFFFFFFFFFFFFFFFFFFFFFFFFFFFFFFFFFFFFFF AND SUB PUSH2 0x806 JUMPI DUP4 PUSH1 0x2 DUP7 PUSH1 0x40 MLOAD PUSH2 0x7BA SWAP2 SWAP1 PUSH2 0x3089 JUMP JUMPDEST SWAP1 DUP2 MSTORE PUSH1 0x20 ADD PUSH1 0x40 MLOAD DUP1 SWAP2 SUB SWAP1 KECCAK256 PUSH0 PUSH2 0x100 EXP DUP2 SLOAD DUP2 PUSH20 0xFFFFFFFFFFFFFFFFFFFFFFFFFFFFFFFFFFFFFFFF MUL NOT AND SWAP1 DUP4 PUSH20 0xFFFFFFFFFFFFFFFFFFFFFFFFFFFFFFFFFFFFFFFF AND MUL OR SWAP1 SSTORE POP JUMPDEST POP POP POP POP POP JUMP JUMPDEST PUSH0 PUSH1 0x2 DUP3 PUSH1 0x40 MLOAD PUSH2 0x81E SWAP2 SWAP1 PUSH2 0x3089 JUMP JUMPDEST SWAP1 DUP2 MSTORE PUSH1 0x20 ADD PUSH1 0x40 MLOAD DUP1 SWAP2 SUB SWAP1 KECCAK256 PUSH0 SWAP1 SLOAD SWAP1 PUSH2 0x100 EXP SWAP1 DIV PUSH20 0xFFFFFFFFFFFFFFFFFFFFFFFFFFFFFFFFFFFFFFFF AND SWAP1 POP SWAP2 SWAP1 POP JUMP JUMPDEST PUSH1 0x60 DUP2 PUSH1 0x6 PUSH0 DUP3 DUP2 MSTORE PUSH1 0x20 ADD SWAP1 DUP2 MSTORE PUSH1 0x20 ADD PUSH0 KECCAK256 PUSH0 SWAP1 SLOAD SWAP1 PUSH2 0x100 EXP SWAP1 DIV PUSH1 0xFF AND PUSH2 0x8B3 JUMPI PUSH1 0x40 MLOAD PUSH32 0x8C379A000000000000000000000000000000000000000000000000000000000 DUP2 MSTORE PUSH1 0x4 ADD PUSH2 0x8AA SWAP1 PUSH2 0x2DF4 JUMP JUMPDEST PUSH1 0x40 MLOAD DUP1 SWAP2 SUB SWAP1 REVERT JUMPDEST PUSH1 0x7 PUSH0 DUP5 DUP2 MSTORE PUSH1 0x20 ADD SWAP1 DUP2 MSTORE PUSH1 0x20 ADD PUSH0 KECCAK256 DUP1 SLOAD PUSH2 0x8CF SWAP1 PUSH2 0x2E3F JUMP JUMPDEST DUP1 PUSH1 0x1F ADD PUSH1 0x20 DUP1 SWAP2 DIV MUL PUSH1 0x20 ADD PUSH1 0x40 MLOAD SWAP1 DUP2 ADD PUSH1 0x40 MSTORE DUP1 SWAP3 SWAP2 SWAP1 DUP2 DUP2 MSTORE PUSH1 0x20 ADD DUP3 DUP1 SLOAD PUSH2 0x8FB SWAP1 PUSH2 0x2E3F JUMP JUMPDEST DUP1 ISZERO PUSH2 0x946 JUMPI DUP1 PUSH1 0x1F LT PUSH2 0x91D JUMPI PUSH2 0x100 DUP1 DUP4 SLOAD DIV MUL DUP4 MSTORE SWAP2 PUSH1 0x20 ADD SWAP2 PUSH2 0x946 JUMP JUMPDEST DUP3 ADD SWAP2 SWAP1 PUSH0 MSTORE PUSH1 0x20 PUSH0 KECCAK256 SWAP1 JUMPDEST DUP2 SLOAD DUP2 MSTORE SWAP1 PUSH1 0x1 ADD SWAP1 PUSH1 0x20 ADD DUP1 DUP4 GT PUSH2 0x929 JUMPI DUP3 SWAP1 SUB PUSH1 0x1F AND DUP3 ADD SWAP2 JUMPDEST POP POP POP POP POP SWAP2 POP POP SWAP2 SWAP1 POP JUMP JUMPDEST CALLER PUSH20 0xFFFFFFFFFFFFFFFFFFFFFFFFFFFFFFFFFFFFFFFF AND PUSH0 DUP1 SLOAD SWAP1 PUSH2 0x100 EXP SWAP1 DIV PUSH20 0xFFFFFFFFFFFFFFFFFFFFFFFFFFFFFFFFFFFFFFFF AND PUSH20 0xFFFFFFFFFFFFFFFFFFFFFFFFFFFFFFFFFFFFFFFF AND EQ PUSH2 0x9E0 JUMPI PUSH1 0x40 MLOAD PUSH32 0x8C379A000000000000000000000000000000000000000000000000000000000 DUP2 MSTORE PUSH1 0x4 ADD PUSH2 0x9D7 SWAP1 PUSH2 0x2F6B JUMP JUMPDEST PUSH1 0x40 MLOAD DUP1 SWAP2 SUB SWAP1 REVERT JUMPDEST PUSH1 0x1 DUP1 PUSH0 DUP4 PUSH20 0xFFFFFFFFFFFFFFFFFFFFFFFFFFFFFFFFFFFFFFFF AND PUSH20 0xFFFFFFFFFFFFFFFFFFFFFFFFFFFFFFFFFFFFFFFF AND DUP2 MSTORE PUSH1 0x20 ADD SWAP1 DUP2 MSTORE PUSH1 0x20 ADD PUSH0 KECCAK256 PUSH0 PUSH2 0x100 EXP DUP2 SLOAD DUP2 PUSH1 0xFF MUL NOT AND SWAP1 DUP4 ISZERO ISZERO MUL OR SWAP1 SSTORE POP POP JUMP JUMPDEST PUSH1 0x40 MLOAD DUP1 PUSH1 0xA0 ADD PUSH1 0x40 MSTORE DUP1 PUSH1 0x68 DUP2 MSTORE PUSH1 0x20 ADD PUSH2 0x3BB6 PUSH1 0x68 SWAP2 CODECOPY DUP2 JUMP JUMPDEST PUSH0 PUSH1 0xA PUSH0 DUP5 DUP2 MSTORE PUSH1 0x20 ADD SWAP1 DUP2 MSTORE PUSH1 0x20 ADD PUSH0 KECCAK256 PUSH0 DUP4 PUSH20 0xFFFFFFFFFFFFFFFFFFFFFFFFFFFFFFFFFFFFFFFF AND PUSH20 0xFFFFFFFFFFFFFFFFFFFFFFFFFFFFFFFFFFFFFFFF AND DUP2 MSTORE PUSH1 0x20 ADD SWAP1 DUP2 MSTORE PUSH1 0x20 ADD PUSH0 KECCAK256 SLOAD SWAP1 POP SWAP3 SWAP2 POP POP JUMP JUMPDEST DUP4 PUSH0 PUSH20 0xFFFFFFFFFFFFFFFFFFFFFFFFFFFFFFFFFFFFFFFF AND PUSH1 0x2 DUP3 PUSH1 0x40 MLOAD PUSH2 0xAD1 SWAP2 SWAP1 PUSH2 0x3089 JUMP JUMPDEST SWAP1 DUP2 MSTORE PUSH1 0x20 ADD PUSH1 0x40 MLOAD DUP1 SWAP2 SUB SWAP1 KECCAK256 PUSH0 SWAP1 SLOAD SWAP1 PUSH2 0x100 EXP SWAP1 DIV PUSH20 0xFFFFFFFFFFFFFFFFFFFFFFFFFFFFFFFFFFFFFFFF AND PUSH20 0xFFFFFFFFFFFFFFFFFFFFFFFFFFFFFFFFFFFFFFFF AND SUB PUSH2 0xB55 JUMPI PUSH1 0x40 MLOAD PUSH32 0x8C379A000000000000000000000000000000000000000000000000000000000 DUP2 MSTORE PUSH1 0x4 ADD PUSH2 0xB4C SWAP1 PUSH2 0x30E9 JUMP JUMPDEST PUSH1 0x40 MLOAD DUP1 SWAP2 SUB SWAP1 REVERT JUMPDEST DUP4 PUSH1 0x1 PUSH0 DUP3 PUSH20 0xFFFFFFFFFFFFFFFFFFFFFFFFFFFFFFFFFFFFFFFF AND PUSH20 0xFFFFFFFFFFFFFFFFFFFFFFFFFFFFFFFFFFFFFFFF AND DUP2 MSTORE PUSH1 0x20 ADD SWAP1 DUP2 MSTORE PUSH1 0x20 ADD PUSH0 KECCAK256 PUSH0 SWAP1 SLOAD SWAP1 PUSH2 0x100 EXP SWAP1 DIV PUSH1 0xFF AND PUSH2 0xBDF JUMPI PUSH1 0x40 MLOAD PUSH32 0x8C379A000000000000000000000000000000000000000000000000000000000 DUP2 MSTORE PUSH1 0x4 ADD PUSH2 0xBD6 SWAP1 PUSH2 0x2DF4 JUMP JUMPDEST PUSH1 0x40 MLOAD DUP1 SWAP2 SUB SWAP1 REVERT JUMPDEST CALLER PUSH20 0xFFFFFFFFFFFFFFFFFFFFFFFFFFFFFFFFFFFFFFFF AND PUSH1 0x2 DUP8 PUSH1 0x40 MLOAD PUSH2 0xC06 SWAP2 SWAP1 PUSH2 0x3089 JUMP JUMPDEST SWAP1 DUP2 MSTORE PUSH1 0x20 ADD PUSH1 0x40 MLOAD DUP1 SWAP2 SUB SWAP1 KECCAK256 PUSH0 SWAP1 SLOAD SWAP1 PUSH2 0x100 EXP SWAP1 DIV PUSH20 0xFFFFFFFFFFFFFFFFFFFFFFFFFFFFFFFFFFFFFFFF AND PUSH20 0xFFFFFFFFFFFFFFFFFFFFFFFFFFFFFFFFFFFFFFFF AND EQ PUSH2 0xC8A JUMPI PUSH1 0x40 MLOAD PUSH32 0x8C379A000000000000000000000000000000000000000000000000000000000 DUP2 MSTORE PUSH1 0x4 ADD PUSH2 0xC81 SWAP1 PUSH2 0x3151 JUMP JUMPDEST PUSH1 0x40 MLOAD DUP1 SWAP2 SUB SWAP1 REVERT JUMPDEST PUSH1 0x5 PUSH0 DUP5 DUP2 MSTORE PUSH1 0x20 ADD SWAP1 DUP2 MSTORE PUSH1 0x20 ADD PUSH0 KECCAK256 PUSH0 SWAP1 SLOAD SWAP1 PUSH2 0x100 EXP SWAP1 DIV PUSH1 0xFF AND ISZERO PUSH2 0xCE8 JUMPI PUSH1 0x40 MLOAD PUSH32 0x8C379A000000000000000000000000000000000000000000000000000000000 DUP2 MSTORE PUSH1 0x4 ADD PUSH2 0xCDF SWAP1 PUSH2 0x31B9 JUMP JUMPDEST PUSH1 0x40 MLOAD DUP1 SWAP2 SUB SWAP1 REVERT JUMPDEST PUSH2 0xCF4 DUP7 DUP7 DUP7 DUP7 PUSH2 0x1F1B JUMP JUMPDEST POP POP POP POP POP POP JUMP JUMPDEST PUSH1 0x60 DUP2 PUSH0 PUSH20 0xFFFFFFFFFFFFFFFFFFFFFFFFFFFFFFFFFFFFFFFF AND PUSH1 0x2 DUP3 PUSH1 0x40 MLOAD PUSH2 0xD26 SWAP2 SWAP1 PUSH2 0x3089 JUMP JUMPDEST SWAP1 DUP2 MSTORE PUSH1 0x20 ADD PUSH1 0x40 MLOAD DUP1 SWAP2 SUB SWAP1 KECCAK256 PUSH0 SWAP1 SLOAD SWAP1 PUSH2 0x100 EXP SWAP1 DIV PUSH20 0xFFFFFFFFFFFFFFFFFFFFFFFFFFFFFFFFFFFFFFFF AND PUSH20 0xFFFFFFFFFFFFFFFFFFFFFFFFFFFFFFFFFFFFFFFF AND SUB PUSH2 0xDAA JUMPI PUSH1 0x40 MLOAD PUSH32 0x8C379A000000000000000000000000000000000000000000000000000000000 DUP2 MSTORE PUSH1 0x4 ADD PUSH2 0xDA1 SWAP1 PUSH2 0x30E9 JUMP JUMPDEST PUSH1 0x40 MLOAD DUP1 SWAP2 SUB SWAP1 REVERT JUMPDEST PUSH0 PUSH1 0x3 DUP5 PUSH1 0x40 MLOAD PUSH2 0xDBB SWAP2 SWAP1 PUSH2 0x3089 JUMP JUMPDEST SWAP1 DUP2 MSTORE PUSH1 0x20 ADD PUSH1 0x40 MLOAD DUP1 SWAP2 SUB SWAP1 KECCAK256 SLOAD PUSH8 0xFFFFFFFFFFFFFFFF DUP2 GT ISZERO PUSH2 0xDE3 JUMPI PUSH2 0xDE2 PUSH2 0x25D6 JUMP JUMPDEST JUMPDEST PUSH1 0x40 MLOAD SWAP1 DUP1 DUP3 MSTORE DUP1 PUSH1 0x20 MUL PUSH1 0x20 ADD DUP3 ADD PUSH1 0x40 MSTORE DUP1 ISZERO PUSH2 0xE11 JUMPI DUP2 PUSH1 0x20 ADD PUSH1 0x20 DUP3 MUL DUP1 CALLDATASIZE DUP4 CALLDATACOPY DUP1 DUP3 ADD SWAP2 POP POP SWAP1 POP JUMPDEST POP SWAP1 POP PUSH0 JUMPDEST PUSH1 0x3 DUP6 PUSH1 0x40 MLOAD PUSH2 0xE26 SWAP2 SWAP1 PUSH2 0x3089 JUMP JUMPDEST SWAP1 DUP2 MSTORE PUSH1 0x20 ADD PUSH1 0x40 MLOAD DUP1 SWAP2 SUB SWAP1 KECCAK256 SLOAD DUP2 LT ISZERO PUSH2 0xEBF JUMPI PUSH0 PUSH1 0x4 DUP7 PUSH1 0x40 MLOAD PUSH2 0xE4D SWAP2 SWAP1 PUSH2 0x3089 JUMP JUMPDEST SWAP1 DUP2 MSTORE PUSH1 0x20 ADD PUSH1 0x40 MLOAD DUP1 SWAP2 SUB SWAP1 KECCAK256 PUSH0 DUP4 DUP2 MSTORE PUSH1 0x20 ADD SWAP1 DUP2 MSTORE PUSH1 0x20 ADD PUSH0 KECCAK256 SLOAD SWAP1 POP PUSH1 0x6 PUSH0 DUP3 DUP2 MSTORE PUSH1 0x20 ADD SWAP1 DUP2 MSTORE PUSH1 0x20 ADD PUSH0 KECCAK256 PUSH0 SWAP1 SLOAD SWAP1 PUSH2 0x100 EXP SWAP1 DIV PUSH1 0xFF AND ISZERO PUSH2 0xEB1 JUMPI DUP1 DUP4 DUP4 DUP2 MLOAD DUP2 LT PUSH2 0xEA4 JUMPI PUSH2 0xEA3 PUSH2 0x31D7 JUMP JUMPDEST JUMPDEST PUSH1 0x20 MUL PUSH1 0x20 ADD ADD DUP2 DUP2 MSTORE POP POP JUMPDEST POP DUP1 DUP1 PUSH1 0x1 ADD SWAP2 POP POP PUSH2 0xE16 JUMP JUMPDEST POP DUP1 SWAP3 POP POP POP SWAP2 SWAP1 POP JUMP JUMPDEST PUSH1 0x60 DUP3 PUSH1 0x6 PUSH0 DUP3 DUP2 MSTORE PUSH1 0x20 ADD SWAP1 DUP2 MSTORE PUSH1 0x20 ADD PUSH0 KECCAK256 PUSH0 SWAP1 SLOAD SWAP1 PUSH2 0x100 EXP SWAP1 DIV PUSH1 0xFF AND PUSH2 0xF2A JUMPI PUSH1 0x40 MLOAD PUSH32 0x8C379A000000000000000000000000000000000000000000000000000000000 DUP2 MSTORE PUSH1 0x4 ADD PUSH2 0xF21 SWAP1 PUSH2 0x2DF4 JUMP JUMPDEST PUSH1 0x40 MLOAD DUP1 SWAP2 SUB SWAP1 REVERT JUMPDEST PUSH0 PUSH1 0xA PUSH0 DUP7 DUP2 MSTORE PUSH1 0x20 ADD SWAP1 DUP2 MSTORE PUSH1 0x20 ADD PUSH0 KECCAK256 PUSH0 DUP6 PUSH20 0xFFFFFFFFFFFFFFFFFFFFFFFFFFFFFFFFFFFFFFFF AND PUSH20 0xFFFFFFFFFFFFFFFFFFFFFFFFFFFFFFFFFFFFFFFF AND DUP2 MSTORE PUSH1 0x20 ADD SWAP1 DUP2 MSTORE PUSH1 0x20 ADD PUSH0 KECCAK256 SLOAD SUB PUSH2 0xFB8 JUMPI PUSH1 0x40 MLOAD PUSH32 0x8C379A000000000000000000000000000000000000000000000000000000000 DUP2 MSTORE PUSH1 0x4 ADD PUSH2 0xFAF SWAP1 PUSH2 0x324E JUMP JUMPDEST PUSH1 0x40 MLOAD DUP1 SWAP2 SUB SWAP1 REVERT JUMPDEST PUSH0 PUSH1 0x7 PUSH0 DUP7 DUP2 MSTORE PUSH1 0x20 ADD SWAP1 DUP2 MSTORE PUSH1 0x20 ADD PUSH0 KECCAK256 DUP1 SLOAD PUSH2 0xFD5 SWAP1 PUSH2 0x2E3F JUMP JUMPDEST DUP1 PUSH1 0x1F ADD PUSH1 0x20 DUP1 SWAP2 DIV MUL PUSH1 0x20 ADD PUSH1 0x40 MLOAD SWAP1 DUP2 ADD PUSH1 0x40 MSTORE DUP1 SWAP3 SWAP2 SWAP1 DUP2 DUP2 MSTORE PUSH1 0x20 ADD DUP3 DUP1 SLOAD PUSH2 0x1001 SWAP1 PUSH2 0x2E3F JUMP JUMPDEST DUP1 ISZERO PUSH2 0x104C JUMPI DUP1 PUSH1 0x1F LT PUSH2 0x1023 JUMPI PUSH2 0x100 DUP1 DUP4 SLOAD DIV MUL DUP4 MSTORE SWAP2 PUSH1 0x20 ADD SWAP2 PUSH2 0x104C JUMP JUMPDEST DUP3 ADD SWAP2 SWAP1 PUSH0 MSTORE PUSH1 0x20 PUSH0 KECCAK256 SWAP1 JUMPDEST DUP2 SLOAD DUP2 MSTORE SWAP1 PUSH1 0x1 ADD SWAP1 PUSH1 0x20 ADD DUP1 DUP4 GT PUSH2 0x102F JUMPI DUP3 SWAP1 SUB PUSH1 0x1F AND DUP3 ADD SWAP2 JUMPDEST POP POP POP POP POP SWAP1 POP PUSH0 PUSH1 0x2 DUP3 PUSH1 0x40 MLOAD PUSH2 0x1064 SWAP2 SWAP1 PUSH2 0x3089 JUMP JUMPDEST SWAP1 DUP2 MSTORE PUSH1 0x20 ADD PUSH1 0x40 MLOAD DUP1 SWAP2 SUB SWAP1 KECCAK256 PUSH0 SWAP1 SLOAD SWAP1 PUSH2 0x100 EXP SWAP1 DIV PUSH20 0xFFFFFFFFFFFFFFFFFFFFFFFFFFFFFFFFFFFFFFFF AND SWAP1 POP PUSH0 PUSH1 0x9 PUSH0 DUP9 DUP2 MSTORE PUSH1 0x20 ADD SWAP1 DUP2 MSTORE PUSH1 0x20 ADD PUSH0 KECCAK256 PUSH0 SWAP1 SLOAD SWAP1 PUSH2 0x100 EXP SWAP1 DIV PUSH20 0xFFFFFFFFFFFFFFFFFFFFFFFFFFFFFFFFFFFFFFFF AND SWAP1 POP PUSH0 PUSH1 0x8 PUSH0 DUP10 DUP2 MSTORE PUSH1 0x20 ADD SWAP1 DUP2 MSTORE PUSH1 0x20 ADD PUSH0 KECCAK256 SLOAD SWAP1 POP PUSH0 PUSH1 0xA PUSH0 DUP11 DUP2 MSTORE PUSH1 0x20 ADD SWAP1 DUP2 MSTORE PUSH1 0x20 ADD PUSH0 KECCAK256 PUSH0 DUP10 PUSH20 0xFFFFFFFFFFFFFFFFFFFFFFFFFFFFFFFFFFFFFFFF AND PUSH20 0xFFFFFFFFFFFFFFFFFFFFFFFFFFFFFFFFFFFFFFFF AND DUP2 MSTORE PUSH1 0x20 ADD SWAP1 DUP2 MSTORE PUSH1 0x20 ADD PUSH0 KECCAK256 SLOAD SWAP1 POP PUSH0 DUP4 SWAP1 POP DUP1 PUSH20 0xFFFFFFFFFFFFFFFFFFFFFFFFFFFFFFFFFFFFFFFF AND PUSH4 0x483CED98 DUP8 DUP8 DUP13 DUP8 DUP8 PUSH1 0x40 MLOAD DUP7 PUSH4 0xFFFFFFFF AND PUSH1 0xE0 SHL DUP2 MSTORE PUSH1 0x4 ADD PUSH2 0x1172 SWAP6 SWAP5 SWAP4 SWAP3 SWAP2 SWAP1 PUSH2 0x326C JUMP JUMPDEST PUSH0 PUSH1 0x40 MLOAD DUP1 DUP4 SUB DUP2 DUP7 GAS STATICCALL ISZERO DUP1 ISZERO PUSH2 0x118C JUMPI RETURNDATASIZE PUSH0 DUP1 RETURNDATACOPY RETURNDATASIZE PUSH0 REVERT JUMPDEST POP POP POP POP PUSH1 0x40 MLOAD RETURNDATASIZE PUSH0 DUP3 RETURNDATACOPY RETURNDATASIZE PUSH1 0x1F NOT PUSH1 0x1F DUP3 ADD AND DUP3 ADD DUP1 PUSH1 0x40 MSTORE POP DUP2 ADD SWAP1 PUSH2 0x11B4 SWAP2 SWAP1 PUSH2 0x3332 JUMP JUMPDEST SWAP8 POP POP POP POP POP POP POP POP SWAP3 SWAP2 POP POP JUMP JUMPDEST DUP1 PUSH1 0x6 PUSH0 DUP3 DUP2 MSTORE PUSH1 0x20 ADD SWAP1 DUP2 MSTORE PUSH1 0x20 ADD PUSH0 KECCAK256 PUSH0 SWAP1 SLOAD SWAP1 PUSH2 0x100 EXP SWAP1 DIV PUSH1 0xFF AND PUSH2 0x1221 JUMPI PUSH1 0x40 MLOAD PUSH32 0x8C379A000000000000000000000000000000000000000000000000000000000 DUP2 MSTORE PUSH1 0x4 ADD PUSH2 0x1218 SWAP1 PUSH2 0x2DF4 JUMP JUMPDEST PUSH1 0x40 MLOAD DUP1 SWAP2 SUB SWAP1 REVERT JUMPDEST CALLER PUSH20 0xFFFFFFFFFFFFFFFFFFFFFFFFFFFFFFFFFFFFFFFF AND ADDRESS PUSH20 0xFFFFFFFFFFFFFFFFFFFFFFFFFFFFFFFFFFFFFFFF AND PUSH4 0x1E7FD268 DUP5 PUSH1 0x40 MLOAD DUP3 PUSH4 0xFFFFFFFF AND PUSH1 0xE0 SHL DUP2 MSTORE PUSH1 0x4 ADD PUSH2 0x1271 SWAP2 SWAP1 PUSH2 0x3388 JUMP JUMPDEST PUSH1 0x20 PUSH1 0x40 MLOAD DUP1 DUP4 SUB DUP2 DUP7 GAS STATICCALL ISZERO DUP1 ISZERO PUSH2 0x128C JUMPI RETURNDATASIZE PUSH0 DUP1 RETURNDATACOPY RETURNDATASIZE PUSH0 REVERT JUMPDEST POP POP POP POP PUSH1 0x40 MLOAD RETURNDATASIZE PUSH1 0x1F NOT PUSH1 0x1F DUP3 ADD AND DUP3 ADD DUP1 PUSH1 0x40 MSTORE POP DUP2 ADD SWAP1 PUSH2 0x12B0 SWAP2 SWAP1 PUSH2 0x33B5 JUMP JUMPDEST PUSH20 0xFFFFFFFFFFFFFFFFFFFFFFFFFFFFFFFFFFFFFFFF AND EQ PUSH2 0x1306 JUMPI PUSH1 0x40 MLOAD PUSH32 0x8C379A000000000000000000000000000000000000000000000000000000000 DUP2 MSTORE PUSH1 0x4 ADD PUSH2 0x12FD SWAP1 PUSH2 0x3151 JUMP JUMPDEST PUSH1 0x40 MLOAD DUP1 SWAP2 SUB SWAP1 REVERT JUMPDEST PUSH0 PUSH1 0x6 PUSH0 DUP5 DUP2 MSTORE PUSH1 0x20 ADD SWAP1 DUP2 MSTORE PUSH1 0x20 ADD PUSH0 KECCAK256 PUSH0 PUSH2 0x100 EXP DUP2 SLOAD DUP2 PUSH1 0xFF MUL NOT AND SWAP1 DUP4 ISZERO ISZERO MUL OR SWAP1 SSTORE POP POP POP JUMP JUMPDEST PUSH0 DUP2 PUSH1 0x6 PUSH0 DUP3 DUP2 MSTORE PUSH1 0x20 ADD SWAP1 DUP2 MSTORE PUSH1 0x20 ADD PUSH0 KECCAK256 PUSH0 SWAP1 SLOAD SWAP1 PUSH2 0x100 EXP SWAP1 DIV PUSH1 0xFF AND PUSH2 0x1391 JUMPI PUSH1 0x40 MLOAD PUSH32 0x8C379A000000000000000000000000000000000000000000000000000000000 DUP2 MSTORE PUSH1 0x4 ADD PUSH2 0x1388 SWAP1 PUSH2 0x2DF4 JUMP JUMPDEST PUSH1 0x40 MLOAD DUP1 SWAP2 SUB SWAP1 REVERT JUMPDEST PUSH1 0x9 PUSH0 DUP5 DUP2 MSTORE PUSH1 0x20 ADD SWAP1 DUP2 MSTORE PUSH1 0x20 ADD PUSH0 KECCAK256 PUSH0 SWAP1 SLOAD SWAP1 PUSH2 0x100 EXP SWAP1 DIV PUSH20 0xFFFFFFFFFFFFFFFFFFFFFFFFFFFFFFFFFFFFFFFF AND SWAP2 POP POP SWAP2 SWAP1 POP JUMP JUMPDEST PUSH0 PUSH1 0x41 DUP4 DUP4 SWAP1 POP EQ PUSH2 0x1411 JUMPI PUSH1 0x40 MLOAD PUSH32 0x8C379A000000000000000000000000000000000000000000000000000000000 DUP2 MSTORE PUSH1 0x4 ADD PUSH2 0x1408 SWAP1 PUSH2 0x342A JUMP JUMPDEST PUSH1 0x40 MLOAD DUP1 SWAP2 SUB SWAP1 REVERT JUMPDEST PUSH0 DUP1 PUSH0 DUP6 CALLDATALOAD SWAP2 POP PUSH1 0x20 DUP7 ADD CALLDATALOAD SWAP1 POP PUSH1 0x21 DUP7 ADD CALLDATALOAD SWAP3 POP PUSH2 0x1432 DUP8 DUP5 DUP5 DUP5 PUSH2 0x207B JUMP JUMPDEST SWAP4 POP POP POP POP SWAP4 SWAP3 POP POP POP JUMP JUMPDEST PUSH0 DUP2 PUSH1 0x6 PUSH0 DUP3 DUP2 MSTORE PUSH1 0x20 ADD SWAP1 DUP2 MSTORE PUSH1 0x20 ADD PUSH0 KECCAK256 PUSH0 SWAP1 SLOAD SWAP1 PUSH2 0x100 EXP SWAP1 DIV PUSH1 0xFF AND PUSH2 0x149D JUMPI PUSH1 0x40 MLOAD PUSH32 0x8C379A000000000000000000000000000000000000000000000000000000000 DUP2 MSTORE PUSH1 0x4 ADD PUSH2 0x1494 SWAP1 PUSH2 0x2DF4 JUMP JUMPDEST PUSH1 0x40 MLOAD DUP1 SWAP2 SUB SWAP1 REVERT JUMPDEST PUSH1 0x8 PUSH0 DUP5 DUP2 MSTORE PUSH1 0x20 ADD SWAP1 DUP2 MSTORE PUSH1 0x20 ADD PUSH0 KECCAK256 SLOAD SWAP2 POP POP SWAP2 SWAP1 POP JUMP JUMPDEST PUSH1 0x60 DUP3 PUSH0 PUSH20 0xFFFFFFFFFFFFFFFFFFFFFFFFFFFFFFFFFFFFFFFF AND PUSH1 0x2 DUP3 PUSH1 0x40 MLOAD PUSH2 0x14E1 SWAP2 SWAP1 PUSH2 0x3089 JUMP JUMPDEST SWAP1 DUP2 MSTORE PUSH1 0x20 ADD PUSH1 0x40 MLOAD DUP1 SWAP2 SUB SWAP1 KECCAK256 PUSH0 SWAP1 SLOAD SWAP1 PUSH2 0x100 EXP SWAP1 DIV PUSH20 0xFFFFFFFFFFFFFFFFFFFFFFFFFFFFFFFFFFFFFFFF AND PUSH20 0xFFFFFFFFFFFFFFFFFFFFFFFFFFFFFFFFFFFFFFFF AND SUB PUSH2 0x1565 JUMPI PUSH1 0x40 MLOAD PUSH32 0x8C379A000000000000000000000000000000000000000000000000000000000 DUP2 MSTORE PUSH1 0x4 ADD PUSH2 0x155C SWAP1 PUSH2 0x30E9 JUMP JUMPDEST PUSH1 0x40 MLOAD DUP1 SWAP2 SUB SWAP1 REVERT JUMPDEST PUSH0 PUSH1 0x3 DUP6 PUSH1 0x40 MLOAD PUSH2 0x1576 SWAP2 SWAP1 PUSH2 0x3089 JUMP JUMPDEST SWAP1 DUP2 MSTORE PUSH1 0x20 ADD PUSH1 0x40 MLOAD DUP1 SWAP2 SUB SWAP1 KECCAK256 SLOAD PUSH8 0xFFFFFFFFFFFFFFFF DUP2 GT ISZERO PUSH2 0x159E JUMPI PUSH2 0x159D PUSH2 0x25D6 JUMP JUMPDEST JUMPDEST PUSH1 0x40 MLOAD SWAP1 DUP1 DUP3 MSTORE DUP1 PUSH1 0x20 MUL PUSH1 0x20 ADD DUP3 ADD PUSH1 0x40 MSTORE DUP1 ISZERO PUSH2 0x15CC JUMPI DUP2 PUSH1 0x20 ADD PUSH1 0x20 DUP3 MUL DUP1 CALLDATASIZE DUP4 CALLDATACOPY DUP1 DUP3 ADD SWAP2 POP POP SWAP1 POP JUMPDEST POP SWAP1 POP PUSH0 JUMPDEST PUSH1 0x3 DUP7 PUSH1 0x40 MLOAD PUSH2 0x15E1 SWAP2 SWAP1 PUSH2 0x3089 JUMP JUMPDEST SWAP1 DUP2 MSTORE PUSH1 0x20 ADD PUSH1 0x40 MLOAD DUP1 SWAP2 SUB SWAP1 KECCAK256 SLOAD DUP2 LT ISZERO PUSH2 0x16AA JUMPI PUSH0 PUSH1 0x4 DUP8 PUSH1 0x40 MLOAD PUSH2 0x1608 SWAP2 SWAP1 PUSH2 0x3089 JUMP JUMPDEST SWAP1 DUP2 MSTORE PUSH1 0x20 ADD PUSH1 0x40 MLOAD DUP1 SWAP2 SUB SWAP1 KECCAK256 PUSH0 DUP4 DUP2 MSTORE PUSH1 0x20 ADD SWAP1 DUP2 MSTORE PUSH1 0x20 ADD PUSH0 KECCAK256 SLOAD SWAP1 POP PUSH0 PUSH1 0xA PUSH0 DUP4 DUP2 MSTORE PUSH1 0x20 ADD SWAP1 DUP2 MSTORE PUSH1 0x20 ADD PUSH0 KECCAK256 PUSH0 DUP9 PUSH20 0xFFFFFFFFFFFFFFFFFFFFFFFFFFFFFFFFFFFFFFFF AND PUSH20 0xFFFFFFFFFFFFFFFFFFFFFFFFFFFFFFFFFFFFFFFF AND DUP2 MSTORE PUSH1 0x20 ADD SWAP1 DUP2 MSTORE PUSH1 0x20 ADD PUSH0 KECCAK256 SLOAD EQ PUSH2 0x169C JUMPI DUP1 DUP4 DUP4 DUP2 MLOAD DUP2 LT PUSH2 0x168F JUMPI PUSH2 0x168E PUSH2 0x31D7 JUMP JUMPDEST JUMPDEST PUSH1 0x20 MUL PUSH1 0x20 ADD ADD DUP2 DUP2 MSTORE POP POP JUMPDEST POP DUP1 DUP1 PUSH1 0x1 ADD SWAP2 POP POP PUSH2 0x15D1 JUMP JUMPDEST POP DUP1 SWAP3 POP POP POP SWAP3 SWAP2 POP POP JUMP JUMPDEST CALLER PUSH20 0xFFFFFFFFFFFFFFFFFFFFFFFFFFFFFFFFFFFFFFFF AND PUSH0 DUP1 SLOAD SWAP1 PUSH2 0x100 EXP SWAP1 DIV PUSH20 0xFFFFFFFFFFFFFFFFFFFFFFFFFFFFFFFFFFFFFFFF AND PUSH20 0xFFFFFFFFFFFFFFFFFFFFFFFFFFFFFFFFFFFFFFFF AND EQ PUSH2 0x1743 JUMPI PUSH1 0x40 MLOAD PUSH32 0x8C379A000000000000000000000000000000000000000000000000000000000 DUP2 MSTORE PUSH1 0x4 ADD PUSH2 0x173A SWAP1 PUSH2 0x2F6B JUMP JUMPDEST PUSH1 0x40 MLOAD DUP1 SWAP2 SUB SWAP1 REVERT JUMPDEST PUSH0 PUSH1 0x1 PUSH0 DUP4 PUSH20 0xFFFFFFFFFFFFFFFFFFFFFFFFFFFFFFFFFFFFFFFF AND PUSH20 0xFFFFFFFFFFFFFFFFFFFFFFFFFFFFFFFFFFFFFFFF AND DUP2 MSTORE PUSH1 0x20 ADD SWAP1 DUP2 MSTORE PUSH1 0x20 ADD PUSH0 KECCAK256 PUSH0 PUSH2 0x100 EXP DUP2 SLOAD DUP2 PUSH1 0xFF MUL NOT AND SWAP1 DUP4 ISZERO ISZERO MUL OR SWAP1 SSTORE POP POP JUMP JUMPDEST DUP3 PUSH1 0x6 PUSH0 DUP3 DUP2 MSTORE PUSH1 0x20 ADD SWAP1 DUP2 MSTORE PUSH1 0x20 ADD PUSH0 KECCAK256 PUSH0 SWAP1 SLOAD SWAP1 PUSH2 0x100 EXP SWAP1 DIV PUSH1 0xFF AND PUSH2 0x17F8 JUMPI PUSH1 0x40 MLOAD PUSH32 0x8C379A000000000000000000000000000000000000000000000000000000000 DUP2 MSTORE PUSH1 0x4 ADD PUSH2 0x17EF SWAP1 PUSH2 0x2DF4 JUMP JUMPDEST PUSH1 0x40 MLOAD DUP1 SWAP2 SUB SWAP1 REVERT JUMPDEST ADDRESS PUSH20 0xFFFFFFFFFFFFFFFFFFFFFFFFFFFFFFFFFFFFFFFF AND PUSH4 0xB6C00A82 DUP6 PUSH1 0x40 MLOAD DUP3 PUSH4 0xFFFFFFFF AND PUSH1 0xE0 SHL DUP2 MSTORE PUSH1 0x4 ADD PUSH2 0x1831 SWAP2 SWAP1 PUSH2 0x3388 JUMP JUMPDEST PUSH1 0x20 PUSH1 0x40 MLOAD DUP1 DUP4 SUB DUP2 DUP7 GAS STATICCALL ISZERO DUP1 ISZERO PUSH2 0x184C JUMPI RETURNDATASIZE PUSH0 DUP1 RETURNDATACOPY RETURNDATASIZE PUSH0 REVERT JUMPDEST POP POP POP POP PUSH1 0x40 MLOAD RETURNDATASIZE PUSH1 0x1F NOT PUSH1 0x1F DUP3 ADD AND DUP3 ADD DUP1 PUSH1 0x40 MSTORE POP DUP2 ADD SWAP1 PUSH2 0x1870 SWAP2 SWAP1 PUSH2 0x345C JUMP JUMPDEST CALLVALUE LT ISZERO PUSH2 0x18B2 JUMPI PUSH1 0x40 MLOAD PUSH32 0x8C379A000000000000000000000000000000000000000000000000000000000 DUP2 MSTORE PUSH1 0x4 ADD PUSH2 0x18A9 SWAP1 PUSH2 0x34D1 JUMP JUMPDEST PUSH1 0x40 MLOAD DUP1 SWAP2 SUB SWAP1 REVERT JUMPDEST PUSH2 0x18BE CALLER DUP6 DUP6 DUP6 PUSH2 0x20DF JUMP JUMPDEST PUSH2 0x18FD JUMPI PUSH1 0x40 MLOAD PUSH32 0x8C379A000000000000000000000000000000000000000000000000000000000 DUP2 MSTORE PUSH1 0x4 ADD PUSH2 0x18F4 SWAP1 PUSH2 0x3539 JUMP JUMPDEST PUSH1 0x40 MLOAD DUP1 SWAP2 SUB SWAP1 REVERT JUMPDEST PUSH0 ADDRESS PUSH20 0xFFFFFFFFFFFFFFFFFFFFFFFFFFFFFFFFFFFFFFFF AND PUSH4 0xB6C00A82 DUP7 PUSH1 0x40 MLOAD DUP3 PUSH4 0xFFFFFFFF AND PUSH1 0xE0 SHL DUP2 MSTORE PUSH1 0x4 ADD PUSH2 0x1937 SWAP2 SWAP1 PUSH2 0x3388 JUMP JUMPDEST PUSH1 0x20 PUSH1 0x40 MLOAD DUP1 DUP4 SUB DUP2 DUP7 GAS STATICCALL ISZERO DUP1 ISZERO PUSH2 0x1952 JUMPI RETURNDATASIZE PUSH0 DUP1 RETURNDATACOPY RETURNDATASIZE PUSH0 REVERT JUMPDEST POP POP POP POP PUSH1 0x40 MLOAD RETURNDATASIZE PUSH1 0x1F NOT PUSH1 0x1F DUP3 ADD AND DUP3 ADD DUP1 PUSH1 0x40 MSTORE POP DUP2 ADD SWAP1 PUSH2 0x1976 SWAP2 SWAP1 PUSH2 0x345C JUMP JUMPDEST SWAP1 POP PUSH0 ADDRESS PUSH20 0xFFFFFFFFFFFFFFFFFFFFFFFFFFFFFFFFFFFFFFFF AND PUSH4 0x1E7FD268 DUP8 PUSH1 0x40 MLOAD DUP3 PUSH4 0xFFFFFFFF AND PUSH1 0xE0 SHL DUP2 MSTORE PUSH1 0x4 ADD PUSH2 0x19B2 SWAP2 SWAP1 PUSH2 0x3388 JUMP JUMPDEST PUSH1 0x20 PUSH1 0x40 MLOAD DUP1 DUP4 SUB DUP2 DUP7 GAS STATICCALL ISZERO DUP1 ISZERO PUSH2 0x19CD JUMPI RETURNDATASIZE PUSH0 DUP1 RETURNDATACOPY RETURNDATASIZE PUSH0 REVERT JUMPDEST POP POP POP POP PUSH1 0x40 MLOAD RETURNDATASIZE PUSH1 0x1F NOT PUSH1 0x1F DUP3 ADD AND DUP3 ADD DUP1 PUSH1 0x40 MSTORE POP DUP2 ADD SWAP1 PUSH2 0x19F1 SWAP2 SWAP1 PUSH2 0x33B5 JUMP JUMPDEST SWAP1 POP PUSH0 DUP2 PUSH20 0xFFFFFFFFFFFFFFFFFFFFFFFFFFFFFFFFFFFFFFFF AND DUP4 PUSH1 0x40 MLOAD PUSH2 0x1A18 SWAP1 PUSH2 0x3584 JUMP JUMPDEST PUSH0 PUSH1 0x40 MLOAD DUP1 DUP4 SUB DUP2 DUP6 DUP8 GAS CALL SWAP3 POP POP POP RETURNDATASIZE DUP1 PUSH0 DUP2 EQ PUSH2 0x1A52 JUMPI PUSH1 0x40 MLOAD SWAP2 POP PUSH1 0x1F NOT PUSH1 0x3F RETURNDATASIZE ADD AND DUP3 ADD PUSH1 0x40 MSTORE RETURNDATASIZE DUP3 MSTORE RETURNDATASIZE PUSH0 PUSH1 0x20 DUP5 ADD RETURNDATACOPY PUSH2 0x1A57 JUMP JUMPDEST PUSH1 0x60 SWAP2 POP JUMPDEST POP POP SWAP1 POP DUP1 PUSH2 0x1A9B JUMPI PUSH1 0x40 MLOAD PUSH32 0x8C379A000000000000000000000000000000000000000000000000000000000 DUP2 MSTORE PUSH1 0x4 ADD PUSH2 0x1A92 SWAP1 PUSH2 0x35E2 JUMP JUMPDEST PUSH1 0x40 MLOAD DUP1 SWAP2 SUB SWAP1 REVERT JUMPDEST TIMESTAMP PUSH1 0xA PUSH0 DUP10 DUP2 MSTORE PUSH1 0x20 ADD SWAP1 DUP2 MSTORE PUSH1 0x20 ADD PUSH0 KECCAK256 PUSH0 CALLER PUSH20 0xFFFFFFFFFFFFFFFFFFFFFFFFFFFFFFFFFFFFFFFF AND PUSH20 0xFFFFFFFFFFFFFFFFFFFFFFFFFFFFFFFFFFFFFFFF AND DUP2 MSTORE PUSH1 0x20 ADD SWAP1 DUP2 MSTORE PUSH1 0x20 ADD PUSH0 KECCAK256 DUP2 SWAP1 SSTORE POP POP POP POP POP POP POP POP JUMP JUMPDEST CALLER PUSH20 0xFFFFFFFFFFFFFFFFFFFFFFFFFFFFFFFFFFFFFFFF AND PUSH0 DUP1 SLOAD SWAP1 PUSH2 0x100 EXP SWAP1 DIV PUSH20 0xFFFFFFFFFFFFFFFFFFFFFFFFFFFFFFFFFFFFFFFF AND PUSH20 0xFFFFFFFFFFFFFFFFFFFFFFFFFFFFFFFFFFFFFFFF AND EQ PUSH2 0x1B82 JUMPI PUSH1 0x40 MLOAD PUSH32 0x8C379A000000000000000000000000000000000000000000000000000000000 DUP2 MSTORE PUSH1 0x4 ADD PUSH2 0x1B79 SWAP1 PUSH2 0x2F6B JUMP JUMPDEST PUSH1 0x40 MLOAD DUP1 SWAP2 SUB SWAP1 REVERT JUMPDEST DUP3 PUSH1 0x1 PUSH0 DUP3 PUSH20 0xFFFFFFFFFFFFFFFFFFFFFFFFFFFFFFFFFFFFFFFF AND PUSH20 0xFFFFFFFFFFFFFFFFFFFFFFFFFFFFFFFFFFFFFFFF AND DUP2 MSTORE PUSH1 0x20 ADD SWAP1 DUP2 MSTORE PUSH1 0x20 ADD PUSH0 KECCAK256 PUSH0 SWAP1 SLOAD SWAP1 PUSH2 0x100 EXP SWAP1 DIV PUSH1 0xFF AND PUSH2 0x1C0C JUMPI PUSH1 0x40 MLOAD PUSH32 0x8C379A000000000000000000000000000000000000000000000000000000000 DUP2 MSTORE PUSH1 0x4 ADD PUSH2 0x1C03 SWAP1 PUSH2 0x2DF4 JUMP JUMPDEST PUSH1 0x40 MLOAD DUP1 SWAP2 SUB SWAP1 REVERT JUMPDEST PUSH1 0x5 PUSH0 DUP4 DUP2 MSTORE PUSH1 0x20 ADD SWAP1 DUP2 MSTORE PUSH1 0x20 ADD PUSH0 KECCAK256 PUSH0 SWAP1 SLOAD SWAP1 PUSH2 0x100 EXP SWAP1 DIV PUSH1 0xFF AND ISZERO PUSH2 0x1C6A JUMPI PUSH1 0x40 MLOAD PUSH32 0x8C379A000000000000000000000000000000000000000000000000000000000 DUP2 MSTORE PUSH1 0x4 ADD PUSH2 0x1C61 SWAP1 PUSH2 0x31B9 JUMP JUMPDEST PUSH1 0x40 MLOAD DUP1 SWAP2 SUB SWAP1 REVERT JUMPDEST PUSH2 0x1C76 DUP9 DUP9 DUP9 DUP9 PUSH2 0x61A JUMP JUMPDEST PUSH2 0x1C82 DUP9 DUP6 DUP6 DUP6 PUSH2 0x1F1B JUMP JUMPDEST POP POP POP POP POP POP POP POP JUMP JUMPDEST PUSH0 DUP1 PUSH2 0x1C99 DUP6 DUP6 DUP6 PUSH2 0x13CA JUMP JUMPDEST SWAP1 POP DUP6 PUSH20 0xFFFFFFFFFFFFFFFFFFFFFFFFFFFFFFFFFFFFFFFF AND DUP2 PUSH20 0xFFFFFFFFFFFFFFFFFFFFFFFFFFFFFFFFFFFFFFFF AND SUB PUSH2 0x1CD8 JUMPI PUSH1 0x1 SWAP2 POP POP PUSH2 0x1E2D JUMP JUMPDEST PUSH0 PUSH2 0x1CE2 DUP7 PUSH2 0x20FE JUMP JUMPDEST SWAP1 POP PUSH0 DUP1 DUP9 PUSH20 0xFFFFFFFFFFFFFFFFFFFFFFFFFFFFFFFFFFFFFFFF AND PUSH4 0x1626BA7E PUSH1 0xE0 SHL DUP5 DUP10 DUP10 PUSH1 0x40 MLOAD PUSH1 0x24 ADD PUSH2 0x1D1A SWAP4 SWAP3 SWAP2 SWAP1 PUSH2 0x3654 JUMP JUMPDEST PUSH1 0x40 MLOAD PUSH1 0x20 DUP2 DUP4 SUB SUB DUP2 MSTORE SWAP1 PUSH1 0x40 MSTORE SWAP1 PUSH28 0xFFFFFFFFFFFFFFFFFFFFFFFFFFFFFFFFFFFFFFFFFFFFFFFFFFFFFFFF NOT AND PUSH1 0x20 DUP3 ADD DUP1 MLOAD PUSH28 0xFFFFFFFFFFFFFFFFFFFFFFFFFFFFFFFFFFFFFFFFFFFFFFFFFFFFFFFF DUP4 DUP2 DUP4 AND OR DUP4 MSTORE POP POP POP POP PUSH1 0x40 MLOAD PUSH2 0x1D84 SWAP2 SWAP1 PUSH2 0x36BE JUMP JUMPDEST PUSH0 PUSH1 0x40 MLOAD DUP1 DUP4 SUB DUP2 DUP6 GAS STATICCALL SWAP2 POP POP RETURNDATASIZE DUP1 PUSH0 DUP2 EQ PUSH2 0x1DBC JUMPI PUSH1 0x40 MLOAD SWAP2 POP PUSH1 0x1F NOT PUSH1 0x3F RETURNDATASIZE ADD AND DUP3 ADD PUSH1 0x40 MSTORE RETURNDATASIZE DUP3 MSTORE RETURNDATASIZE PUSH0 PUSH1 0x20 DUP5 ADD RETURNDATACOPY PUSH2 0x1DC1 JUMP JUMPDEST PUSH1 0x60 SWAP2 POP JUMPDEST POP SWAP2 POP SWAP2 POP DUP2 DUP1 ISZERO PUSH2 0x1DD4 JUMPI POP PUSH1 0x20 DUP2 MLOAD EQ JUMPDEST ISZERO PUSH2 0x1E25 JUMPI PUSH0 DUP2 DUP1 PUSH1 0x20 ADD SWAP1 MLOAD DUP2 ADD SWAP1 PUSH2 0x1DEE SWAP2 SWAP1 PUSH2 0x3729 JUMP JUMPDEST SWAP1 POP PUSH4 0x1626BA7E PUSH1 0xE0 SHL DUP2 PUSH28 0xFFFFFFFFFFFFFFFFFFFFFFFFFFFFFFFFFFFFFFFFFFFFFFFFFFFFFFFF NOT AND EQ SWAP6 POP POP POP POP POP POP PUSH2 0x1E2D JUMP JUMPDEST PUSH0 SWAP5 POP POP POP POP POP JUMPDEST SWAP5 SWAP4 POP POP POP POP JUMP JUMPDEST CALLER PUSH20 0xFFFFFFFFFFFFFFFFFFFFFFFFFFFFFFFFFFFFFFFF AND PUSH0 DUP1 SLOAD SWAP1 PUSH2 0x100 EXP SWAP1 DIV PUSH20 0xFFFFFFFFFFFFFFFFFFFFFFFFFFFFFFFFFFFFFFFF AND PUSH20 0xFFFFFFFFFFFFFFFFFFFFFFFFFFFFFFFFFFFFFFFF AND EQ PUSH2 0x1EC2 JUMPI PUSH1 0x40 MLOAD PUSH32 0x8C379A000000000000000000000000000000000000000000000000000000000 DUP2 MSTORE PUSH1 0x4 ADD PUSH2 0x1EB9 SWAP1 PUSH2 0x2F6B JUMP JUMPDEST PUSH1 0x40 MLOAD DUP1 SWAP2 SUB SWAP1 REVERT JUMPDEST DUP1 PUSH0 DUP1 PUSH2 0x100 EXP DUP2 SLOAD DUP2 PUSH20 0xFFFFFFFFFFFFFFFFFFFFFFFFFFFFFFFFFFFFFFFF MUL NOT AND SWAP1 DUP4 PUSH20 0xFFFFFFFFFFFFFFFFFFFFFFFFFFFFFFFFFFFFFFFF AND MUL OR SWAP1 SSTORE POP POP JUMP JUMPDEST PUSH0 PUSH2 0x1F11 DUP6 DUP6 DUP6 DUP6 PUSH2 0x1C8C JUMP JUMPDEST SWAP1 POP SWAP5 SWAP4 POP POP POP POP JUMP JUMPDEST PUSH1 0x1 PUSH1 0x5 PUSH0 DUP4 DUP2 MSTORE PUSH1 0x20 ADD SWAP1 DUP2 MSTORE PUSH1 0x20 ADD PUSH0 KECCAK256 PUSH0 PUSH2 0x100 EXP DUP2 SLOAD DUP2 PUSH1 0xFF MUL NOT AND SWAP1 DUP4 ISZERO ISZERO MUL OR SWAP1 SSTORE POP PUSH1 0x1 PUSH1 0x6 PUSH0 DUP4 DUP2 MSTORE PUSH1 0x20 ADD SWAP1 DUP2 MSTORE PUSH1 0x20 ADD PUSH0 KECCAK256 PUSH0 PUSH2 0x100 EXP DUP2 SLOAD DUP2 PUSH1 0xFF MUL NOT AND SWAP1 DUP4 ISZERO ISZERO MUL OR SWAP1 SSTORE POP PUSH0 PUSH1 0x3 DUP6 PUSH1 0x40 MLOAD PUSH2 0x1F7E SWAP2 SWAP1 PUSH2 0x3089 JUMP JUMPDEST SWAP1 DUP2 MSTORE PUSH1 0x20 ADD PUSH1 0x40 MLOAD DUP1 SWAP2 SUB SWAP1 KECCAK256 SLOAD SWAP1 POP DUP2 PUSH1 0x4 DUP7 PUSH1 0x40 MLOAD PUSH2 0x1FA0 SWAP2 SWAP1 PUSH2 0x3089 JUMP JUMPDEST SWAP1 DUP2 MSTORE PUSH1 0x20 ADD PUSH1 0x40 MLOAD DUP1 SWAP2 SUB SWAP1 KECCAK256 PUSH0 DUP4 DUP2 MSTORE PUSH1 0x20 ADD SWAP1 DUP2 MSTORE PUSH1 0x20 ADD PUSH0 KECCAK256 DUP2 SWAP1 SSTORE POP PUSH1 0x1 DUP2 PUSH2 0x1FCE SWAP2 SWAP1 PUSH2 0x3781 JUMP JUMPDEST PUSH1 0x3 DUP7 PUSH1 0x40 MLOAD PUSH2 0x1FDE SWAP2 SWAP1 PUSH2 0x3089 JUMP JUMPDEST SWAP1 DUP2 MSTORE PUSH1 0x20 ADD PUSH1 0x40 MLOAD DUP1 SWAP2 SUB SWAP1 KECCAK256 DUP2 SWAP1 SSTORE POP DUP5 PUSH1 0x7 PUSH0 DUP5 DUP2 MSTORE PUSH1 0x20 ADD SWAP1 DUP2 MSTORE PUSH1 0x20 ADD PUSH0 KECCAK256 SWAP1 DUP2 PUSH2 0x200E SWAP2 SWAP1 PUSH2 0x3915 JUMP JUMPDEST POP DUP3 PUSH1 0x8 PUSH0 DUP5 DUP2 MSTORE PUSH1 0x20 ADD SWAP1 DUP2 MSTORE PUSH1 0x20 ADD PUSH0 KECCAK256 DUP2 SWAP1 SSTORE POP DUP4 PUSH1 0x9 PUSH0 DUP5 DUP2 MSTORE PUSH1 0x20 ADD SWAP1 DUP2 MSTORE PUSH1 0x20 ADD PUSH0 KECCAK256 PUSH0 PUSH2 0x100 EXP DUP2 SLOAD DUP2 PUSH20 0xFFFFFFFFFFFFFFFFFFFFFFFFFFFFFFFFFFFFFFFF MUL NOT AND SWAP1 DUP4 PUSH20 0xFFFFFFFFFFFFFFFFFFFFFFFFFFFFFFFFFFFFFFFF AND MUL OR SWAP1 SSTORE POP POP POP POP POP POP JUMP JUMPDEST PUSH0 DUP1 PUSH2 0x2086 DUP7 PUSH2 0x20FE JUMP JUMPDEST SWAP1 POP PUSH1 0x1 DUP2 DUP7 DUP7 DUP7 PUSH1 0x40 MLOAD PUSH0 DUP2 MSTORE PUSH1 0x20 ADD PUSH1 0x40 MSTORE PUSH1 0x40 MLOAD PUSH2 0x20AA SWAP5 SWAP4 SWAP3 SWAP2 SWAP1 PUSH2 0x39FF JUMP JUMPDEST PUSH1 0x20 PUSH1 0x40 MLOAD PUSH1 0x20 DUP2 SUB SWAP1 DUP1 DUP5 SUB SWAP1 DUP6 GAS STATICCALL ISZERO DUP1 ISZERO PUSH2 0x20CA JUMPI RETURNDATASIZE PUSH0 DUP1 RETURNDATACOPY RETURNDATASIZE PUSH0 REVERT JUMPDEST POP POP POP PUSH1 0x20 PUSH1 0x40 MLOAD SUB MLOAD SWAP2 POP POP SWAP5 SWAP4 POP POP POP POP JUMP JUMPDEST PUSH0 PUSH2 0x20F4 DUP6 PUSH2 0x20ED DUP7 PUSH2 0x2142 JUMP JUMPDEST DUP6 DUP6 PUSH2 0x1C8C JUMP JUMPDEST SWAP1 POP SWAP5 SWAP4 POP POP POP POP JUMP JUMPDEST PUSH0 DUP1 PUSH2 0x210A DUP4 MLOAD PUSH2 0x220C JUMP JUMPDEST DUP4 PUSH1 0x40 MLOAD PUSH1 0x20 ADD PUSH2 0x211C SWAP3 SWAP2 SWAP1 PUSH2 0x3A8C JUMP JUMPDEST PUSH1 0x40 MLOAD PUSH1 0x20 DUP2 DUP4 SUB SUB DUP2 MSTORE SWAP1 PUSH1 0x40 MSTORE SWAP1 POP PUSH0 DUP2 DUP1 MLOAD SWAP1 PUSH1 0x20 ADD KECCAK256 SWAP1 POP DUP1 SWAP3 POP POP POP SWAP2 SWAP1 POP JUMP JUMPDEST PUSH1 0x60 PUSH0 PUSH1 0x1 PUSH2 0x2150 DUP5 PUSH2 0x2326 JUMP JUMPDEST ADD SWAP1 POP PUSH0 DUP2 PUSH8 0xFFFFFFFFFFFFFFFF DUP2 GT ISZERO PUSH2 0x216E JUMPI PUSH2 0x216D PUSH2 0x25D6 JUMP JUMPDEST JUMPDEST PUSH1 0x40 MLOAD SWAP1 DUP1 DUP3 MSTORE DUP1 PUSH1 0x1F ADD PUSH1 0x1F NOT AND PUSH1 0x20 ADD DUP3 ADD PUSH1 0x40 MSTORE DUP1 ISZERO PUSH2 0x21A0 JUMPI DUP2 PUSH1 0x20 ADD PUSH1 0x1 DUP3 MUL DUP1 CALLDATASIZE DUP4 CALLDATACOPY DUP1 DUP3 ADD SWAP2 POP POP SWAP1 POP JUMPDEST POP SWAP1 POP PUSH0 DUP3 PUSH1 0x20 ADD DUP3 ADD SWAP1 POP JUMPDEST PUSH1 0x1 ISZERO PUSH2 0x2201 JUMPI DUP1 DUP1 PUSH1 0x1 SWAP1 SUB SWAP2 POP POP PUSH32 0x3031323334353637383961626364656600000000000000000000000000000000 PUSH1 0xA DUP7 MOD BYTE DUP2 MSTORE8 PUSH1 0xA DUP6 DUP2 PUSH2 0x21F6 JUMPI PUSH2 0x21F5 PUSH2 0x3ABA JUMP JUMPDEST JUMPDEST DIV SWAP5 POP PUSH0 DUP6 SUB PUSH2 0x21AD JUMPI JUMPDEST DUP2 SWAP4 POP POP POP POP SWAP2 SWAP1 POP JUMP JUMPDEST PUSH1 0x60 PUSH0 PUSH1 0x1 SWAP1 POP PUSH0 DUP4 SWAP1 POP JUMPDEST PUSH0 PUSH1 0xA DUP3 PUSH2 0x2226 SWAP2 SWAP1 PUSH2 0x3AE7 JUMP JUMPDEST SWAP2 POP DUP2 EQ PUSH2 0x2241 JUMPI DUP2 DUP1 PUSH2 0x2239 SWAP1 PUSH2 0x3B17 JUMP JUMPDEST SWAP3 POP POP PUSH2 0x2218 JUMP JUMPDEST PUSH0 DUP3 PUSH8 0xFFFFFFFFFFFFFFFF DUP2 GT ISZERO PUSH2 0x225C JUMPI PUSH2 0x225B PUSH2 0x25D6 JUMP JUMPDEST JUMPDEST PUSH1 0x40 MLOAD SWAP1 DUP1 DUP3 MSTORE DUP1 PUSH1 0x1F ADD PUSH1 0x1F NOT AND PUSH1 0x20 ADD DUP3 ADD PUSH1 0x40 MSTORE DUP1 ISZERO PUSH2 0x228E JUMPI DUP2 PUSH1 0x20 ADD PUSH1 0x1 DUP3 MUL DUP1 CALLDATASIZE DUP4 CALLDATACOPY DUP1 DUP3 ADD SWAP2 POP POP SWAP1 POP JUMPDEST POP SWAP1 POP JUMPDEST PUSH1 0x1 ISZERO PUSH2 0x231B JUMPI DUP3 DUP1 PUSH2 0x22A4 SWAP1 PUSH2 0x3B5E JUMP JUMPDEST SWAP4 POP POP PUSH1 0xA DUP6 PUSH2 0x22B4 SWAP2 SWAP1 PUSH2 0x3B85 JUMP JUMPDEST PUSH1 0x30 PUSH2 0x22C0 SWAP2 SWAP1 PUSH2 0x3781 JUMP JUMPDEST PUSH1 0xF8 SHL DUP2 DUP5 DUP2 MLOAD DUP2 LT PUSH2 0x22D6 JUMPI PUSH2 0x22D5 PUSH2 0x31D7 JUMP JUMPDEST JUMPDEST PUSH1 0x20 ADD ADD SWAP1 PUSH31 0xFFFFFFFFFFFFFFFFFFFFFFFFFFFFFFFFFFFFFFFFFFFFFFFFFFFFFFFFFFFFFF NOT AND SWAP1 DUP2 PUSH0 BYTE SWAP1 MSTORE8 POP PUSH1 0xA DUP6 PUSH2 0x2311 SWAP2 SWAP1 PUSH2 0x3AE7 JUMP JUMPDEST SWAP5 POP PUSH0 DUP4 SUB PUSH2 0x2292 JUMPI JUMPDEST DUP1 SWAP4 POP POP POP POP SWAP2 SWAP1 POP JUMP JUMPDEST PUSH0 DUP1 PUSH0 SWAP1 POP PUSH27 0x184F03E93FF9F4DAA797ED6E38ED64BF6A1F010000000000000000 DUP4 LT PUSH2 0x2382 JUMPI PUSH27 0x184F03E93FF9F4DAA797ED6E38ED64BF6A1F010000000000000000 DUP4 DUP2 PUSH2 0x2378 JUMPI PUSH2 0x2377 PUSH2 0x3ABA JUMP JUMPDEST JUMPDEST DIV SWAP3 POP PUSH1 0x40 DUP2 ADD SWAP1 POP JUMPDEST PUSH14 0x4EE2D6D415B85ACEF8100000000 DUP4 LT PUSH2 0x23BF JUMPI PUSH14 0x4EE2D6D415B85ACEF8100000000 DUP4 DUP2 PUSH2 0x23B5 JUMPI PUSH2 0x23B4 PUSH2 0x3ABA JUMP JUMPDEST JUMPDEST DIV SWAP3 POP PUSH1 0x20 DUP2 ADD SWAP1 POP JUMPDEST PUSH7 0x2386F26FC10000 DUP4 LT PUSH2 0x23EE JUMPI PUSH7 0x2386F26FC10000 DUP4 DUP2 PUSH2 0x23E4 JUMPI PUSH2 0x23E3 PUSH2 0x3ABA JUMP JUMPDEST JUMPDEST DIV SWAP3 POP PUSH1 0x10 DUP2 ADD SWAP1 POP JUMPDEST PUSH4 0x5F5E100 DUP4 LT PUSH2 0x2417 JUMPI PUSH4 0x5F5E100 DUP4 DUP2 PUSH2 0x240D JUMPI PUSH2 0x240C PUSH2 0x3ABA JUMP JUMPDEST JUMPDEST DIV SWAP3 POP PUSH1 0x8 DUP2 ADD SWAP1 POP JUMPDEST PUSH2 0x2710 DUP4 LT PUSH2 0x243C JUMPI PUSH2 0x2710 DUP4 DUP2 PUSH2 0x2432 JUMPI PUSH2 0x2431 PUSH2 0x3ABA JUMP JUMPDEST JUMPDEST DIV SWAP3 POP PUSH1 0x4 DUP2 ADD SWAP1 POP JUMPDEST PUSH1 0x64 DUP4 LT PUSH2 0x245F JUMPI PUSH1 0x64 DUP4 DUP2 PUSH2 0x2455 JUMPI PUSH2 0x2454 PUSH2 0x3ABA JUMP JUMPDEST JUMPDEST DIV SWAP3 POP PUSH1 0x2 DUP2 ADD SWAP1 POP JUMPDEST PUSH1 0xA DUP4 LT PUSH2 0x246E JUMPI PUSH1 0x1 DUP2 ADD SWAP1 POP JUMPDEST DUP1 SWAP2 POP POP SWAP2 SWAP1 POP JUMP JUMPDEST PUSH0 DUP2 MLOAD SWAP1 POP SWAP2 SWAP1 POP JUMP JUMPDEST PUSH0 DUP3 DUP3 MSTORE PUSH1 0x20 DUP3 ADD SWAP1 POP SWAP3 SWAP2 POP POP JUMP JUMPDEST DUP3 DUP2 DUP4 MCOPY PUSH0 DUP4 DUP4 ADD MSTORE POP POP POP JUMP JUMPDEST PUSH0 PUSH1 0x1F NOT PUSH1 0x1F DUP4 ADD AND SWAP1 POP SWAP2 SWAP1 POP JUMP JUMPDEST PUSH0 PUSH2 0x24B9 DUP3 PUSH2 0x2477 JUMP JUMPDEST PUSH2 0x24C3 DUP2 DUP6 PUSH2 0x2481 JUMP JUMPDEST SWAP4 POP PUSH2 0x24D3 DUP2 DUP6 PUSH1 0x20 DUP7 ADD PUSH2 0x2491 JUMP JUMPDEST PUSH2 0x24DC DUP2 PUSH2 0x249F JUMP JUMPDEST DUP5 ADD SWAP2 POP POP SWAP3 SWAP2 POP POP JUMP JUMPDEST PUSH0 PUSH1 0x20 DUP3 ADD SWAP1 POP DUP2 DUP2 SUB PUSH0 DUP4 ADD MSTORE PUSH2 0x24FF DUP2 DUP5 PUSH2 0x24AF JUMP JUMPDEST SWAP1 POP SWAP3 SWAP2 POP POP JUMP JUMPDEST PUSH0 PUSH1 0x40 MLOAD SWAP1 POP SWAP1 JUMP JUMPDEST PUSH0 DUP1 REVERT JUMPDEST PUSH0 DUP1 REVERT JUMPDEST PUSH0 DUP2 SWAP1 POP SWAP2 SWAP1 POP JUMP JUMPDEST PUSH2 0x252A DUP2 PUSH2 0x2518 JUMP JUMPDEST DUP2 EQ PUSH2 0x2534 JUMPI PUSH0 DUP1 REVERT JUMPDEST POP JUMP JUMPDEST PUSH0 DUP2 CALLDATALOAD SWAP1 POP PUSH2 0x2545 DUP2 PUSH2 0x2521 JUMP JUMPDEST SWAP3 SWAP2 POP POP JUMP JUMPDEST PUSH0 PUSH1 0x20 DUP3 DUP5 SUB SLT ISZERO PUSH2 0x2560 JUMPI PUSH2 0x255F PUSH2 0x2510 JUMP JUMPDEST JUMPDEST PUSH0 PUSH2 0x256D DUP5 DUP3 DUP6 ADD PUSH2 0x2537 JUMP JUMPDEST SWAP2 POP POP SWAP3 SWAP2 POP POP JUMP JUMPDEST PUSH0 PUSH20 0xFFFFFFFFFFFFFFFFFFFFFFFFFFFFFFFFFFFFFFFF DUP3 AND SWAP1 POP SWAP2 SWAP1 POP JUMP JUMPDEST PUSH0 PUSH2 0x259F DUP3 PUSH2 0x2576 JUMP JUMPDEST SWAP1 POP SWAP2 SWAP1 POP JUMP JUMPDEST PUSH2 0x25AF DUP2 PUSH2 0x2595 JUMP JUMPDEST DUP3 MSTORE POP POP JUMP JUMPDEST PUSH0 PUSH1 0x20 DUP3 ADD SWAP1 POP PUSH2 0x25C8 PUSH0 DUP4 ADD DUP5 PUSH2 0x25A6 JUMP JUMPDEST SWAP3 SWAP2 POP POP JUMP JUMPDEST PUSH0 DUP1 REVERT JUMPDEST PUSH0 DUP1 REVERT JUMPDEST PUSH32 0x4E487B7100000000000000000000000000000000000000000000000000000000 PUSH0 MSTORE PUSH1 0x41 PUSH1 0x4 MSTORE PUSH1 0x24 PUSH0 REVERT JUMPDEST PUSH2 0x260C DUP3 PUSH2 0x249F JUMP JUMPDEST DUP2 ADD DUP2 DUP2 LT PUSH8 0xFFFFFFFFFFFFFFFF DUP3 GT OR ISZERO PUSH2 0x262B JUMPI PUSH2 0x262A PUSH2 0x25D6 JUMP JUMPDEST JUMPDEST DUP1 PUSH1 0x40 MSTORE POP POP POP JUMP JUMPDEST PUSH0 PUSH2 0x263D PUSH2 0x2507 JUMP JUMPDEST SWAP1 POP PUSH2 0x2649 DUP3 DUP3 PUSH2 0x2603 JUMP JUMPDEST SWAP2 SWAP1 POP JUMP JUMPDEST PUSH0 PUSH8 0xFFFFFFFFFFFFFFFF DUP3 GT ISZERO PUSH2 0x2668 JUMPI PUSH2 0x2667 PUSH2 0x25D6 JUMP JUMPDEST JUMPDEST PUSH2 0x2671 DUP3 PUSH2 0x249F JUMP JUMPDEST SWAP1 POP PUSH1 0x20 DUP2 ADD SWAP1 POP SWAP2 SWAP1 POP JUMP JUMPDEST DUP3 DUP2 DUP4 CALLDATACOPY PUSH0 DUP4 DUP4 ADD MSTORE POP POP POP JUMP JUMPDEST PUSH0 PUSH2 0x269E PUSH2 0x2699 DUP5 PUSH2 0x264E JUMP JUMPDEST PUSH2 0x2634 JUMP JUMPDEST SWAP1 POP DUP3 DUP2 MSTORE PUSH1 0x20 DUP2 ADD DUP5 DUP5 DUP5 ADD GT ISZERO PUSH2 0x26BA JUMPI PUSH2 0x26B9 PUSH2 0x25D2 JUMP JUMPDEST JUMPDEST PUSH2 0x26C5 DUP5 DUP3 DUP6 PUSH2 0x267E JUMP JUMPDEST POP SWAP4 SWAP3 POP POP POP JUMP JUMPDEST PUSH0 DUP3 PUSH1 0x1F DUP4 ADD SLT PUSH2 0x26E1 JUMPI PUSH2 0x26E0 PUSH2 0x25CE JUMP JUMPDEST JUMPDEST DUP2 CALLDATALOAD PUSH2 0x26F1 DUP5 DUP3 PUSH1 0x20 DUP7 ADD PUSH2 0x268C JUMP JUMPDEST SWAP2 POP POP SWAP3 SWAP2 POP POP JUMP JUMPDEST PUSH2 0x2703 DUP2 PUSH2 0x2595 JUMP JUMPDEST DUP2 EQ PUSH2 0x270D JUMPI PUSH0 DUP1 REVERT JUMPDEST POP JUMP JUMPDEST PUSH0 DUP2 CALLDATALOAD SWAP1 POP PUSH2 0x271E DUP2 PUSH2 0x26FA JUMP JUMPDEST SWAP3 SWAP2 POP POP JUMP JUMPDEST PUSH0 DUP1 REVERT JUMPDEST PUSH0 DUP1 REVERT JUMPDEST PUSH0 DUP1 DUP4 PUSH1 0x1F DUP5 ADD SLT PUSH2 0x2741 JUMPI PUSH2 0x2740 PUSH2 0x25CE JUMP JUMPDEST JUMPDEST DUP3 CALLDATALOAD SWAP1 POP PUSH8 0xFFFFFFFFFFFFFFFF DUP2 GT ISZERO PUSH2 0x275E JUMPI PUSH2 0x275D PUSH2 0x2724 JUMP JUMPDEST JUMPDEST PUSH1 0x20 DUP4 ADD SWAP2 POP DUP4 PUSH1 0x1 DUP3 MUL DUP4 ADD GT ISZERO PUSH2 0x277A JUMPI PUSH2 0x2779 PUSH2 0x2728 JUMP JUMPDEST JUMPDEST SWAP3 POP SWAP3 SWAP1 POP JUMP JUMPDEST PUSH0 DUP1 PUSH0 DUP1 PUSH1 0x60 DUP6 DUP8 SUB SLT ISZERO PUSH2 0x2799 JUMPI PUSH2 0x2798 PUSH2 0x2510 JUMP JUMPDEST JUMPDEST PUSH0 DUP6 ADD CALLDATALOAD PUSH8 0xFFFFFFFFFFFFFFFF DUP2 GT ISZERO PUSH2 0x27B6 JUMPI PUSH2 0x27B5 PUSH2 0x2514 JUMP JUMPDEST JUMPDEST PUSH2 0x27C2 DUP8 DUP3 DUP9 ADD PUSH2 0x26CD JUMP JUMPDEST SWAP5 POP POP PUSH1 0x20 PUSH2 0x27D3 DUP8 DUP3 DUP9 ADD PUSH2 0x2710 JUMP JUMPDEST SWAP4 POP POP PUSH1 0x40 DUP6 ADD CALLDATALOAD PUSH8 0xFFFFFFFFFFFFFFFF DUP2 GT ISZERO PUSH2 0x27F4 JUMPI PUSH2 0x27F3 PUSH2 0x2514 JUMP JUMPDEST JUMPDEST PUSH2 0x2800 DUP8 DUP3 DUP9 ADD PUSH2 0x272C JUMP JUMPDEST SWAP3 POP SWAP3 POP POP SWAP3 SWAP6 SWAP2 SWAP5 POP SWAP3 POP JUMP JUMPDEST PUSH0 PUSH1 0x20 DUP3 DUP5 SUB SLT ISZERO PUSH2 0x2823 JUMPI PUSH2 0x2822 PUSH2 0x2510 JUMP JUMPDEST JUMPDEST PUSH0 DUP3 ADD CALLDATALOAD PUSH8 0xFFFFFFFFFFFFFFFF DUP2 GT ISZERO PUSH2 0x2840 JUMPI PUSH2 0x283F PUSH2 0x2514 JUMP JUMPDEST JUMPDEST PUSH2 0x284C DUP5 DUP3 DUP6 ADD PUSH2 0x26CD JUMP JUMPDEST SWAP2 POP POP SWAP3 SWAP2 POP POP JUMP JUMPDEST PUSH0 PUSH2 0x285F DUP3 PUSH2 0x2576 JUMP JUMPDEST SWAP1 POP SWAP2 SWAP1 POP JUMP JUMPDEST PUSH2 0x286F DUP2 PUSH2 0x2855 JUMP JUMPDEST DUP2 EQ PUSH2 0x2879 JUMPI PUSH0 DUP1 REVERT JUMPDEST POP JUMP JUMPDEST PUSH0 DUP2 CALLDATALOAD SWAP1 POP PUSH2 0x288A DUP2 PUSH2 0x2866 JUMP JUMPDEST SWAP3 SWAP2 POP POP JUMP JUMPDEST PUSH0 PUSH1 0x20 DUP3 DUP5 SUB SLT ISZERO PUSH2 0x28A5 JUMPI PUSH2 0x28A4 PUSH2 0x2510 JUMP JUMPDEST JUMPDEST PUSH0 PUSH2 0x28B2 DUP5 DUP3 DUP6 ADD PUSH2 0x287C JUMP JUMPDEST SWAP2 POP POP SWAP3 SWAP2 POP POP JUMP JUMPDEST PUSH0 DUP1 PUSH1 0x40 DUP4 DUP6 SUB SLT ISZERO PUSH2 0x28D1 JUMPI PUSH2 0x28D0 PUSH2 0x2510 JUMP JUMPDEST JUMPDEST PUSH0 PUSH2 0x28DE DUP6 DUP3 DUP7 ADD PUSH2 0x2537 JUMP JUMPDEST SWAP3 POP POP PUSH1 0x20 PUSH2 0x28EF DUP6 DUP3 DUP7 ADD PUSH2 0x287C JUMP JUMPDEST SWAP2 POP POP SWAP3 POP SWAP3 SWAP1 POP JUMP JUMPDEST PUSH2 0x2902 DUP2 PUSH2 0x2518 JUMP JUMPDEST DUP3 MSTORE POP POP JUMP JUMPDEST PUSH0 PUSH1 0x20 DUP3 ADD SWAP1 POP PUSH2 0x291B PUSH0 DUP4 ADD DUP5 PUSH2 0x28F9 JUMP JUMPDEST SWAP3 SWAP2 POP POP JUMP JUMPDEST PUSH2 0x292A DUP2 PUSH2 0x2518 JUMP JUMPDEST DUP2 EQ PUSH2 0x2934 JUMPI PUSH0 DUP1 REVERT JUMPDEST POP JUMP JUMPDEST PUSH0 DUP2 CALLDATALOAD SWAP1 POP PUSH2 0x2945 DUP2 PUSH2 0x2921 JUMP JUMPDEST SWAP3 SWAP2 POP POP JUMP JUMPDEST PUSH0 DUP1 PUSH0 DUP1 PUSH1 0x80 DUP6 DUP8 SUB SLT ISZERO PUSH2 0x2963 JUMPI PUSH2 0x2962 PUSH2 0x2510 JUMP JUMPDEST JUMPDEST PUSH0 DUP6 ADD CALLDATALOAD PUSH8 0xFFFFFFFFFFFFFFFF DUP2 GT ISZERO PUSH2 0x2980 JUMPI PUSH2 0x297F PUSH2 0x2514 JUMP JUMPDEST JUMPDEST PUSH2 0x298C DUP8 DUP3 DUP9 ADD PUSH2 0x26CD JUMP JUMPDEST SWAP5 POP POP PUSH1 0x20 PUSH2 0x299D DUP8 DUP3 DUP9 ADD PUSH2 0x287C JUMP JUMPDEST SWAP4 POP POP PUSH1 0x40 PUSH2 0x29AE DUP8 DUP3 DUP9 ADD PUSH2 0x2937 JUMP JUMPDEST SWAP3 POP POP PUSH1 0x60 PUSH2 0x29BF DUP8 DUP3 DUP9 ADD PUSH2 0x2537 JUMP JUMPDEST SWAP2 POP POP SWAP3 SWAP6 SWAP2 SWAP5 POP SWAP3 POP JUMP JUMPDEST PUSH0 DUP2 MLOAD SWAP1 POP SWAP2 SWAP1 POP JUMP JUMPDEST PUSH0 DUP3 DUP3 MSTORE PUSH1 0x20 DUP3 ADD SWAP1 POP SWAP3 SWAP2 POP POP JUMP JUMPDEST PUSH0 DUP2 SWAP1 POP PUSH1 0x20 DUP3 ADD SWAP1 POP SWAP2 SWAP1 POP JUMP JUMPDEST PUSH0 DUP2 SWAP1 POP SWAP2 SWAP1 POP JUMP JUMPDEST PUSH0 PUSH2 0x2A17 PUSH2 0x2A12 PUSH2 0x2A0D DUP5 PUSH2 0x2518 JUMP JUMPDEST PUSH2 0x29F4 JUMP JUMPDEST PUSH2 0x2518 JUMP JUMPDEST SWAP1 POP SWAP2 SWAP1 POP JUMP JUMPDEST PUSH2 0x2A27 DUP2 PUSH2 0x29FD JUMP JUMPDEST DUP3 MSTORE POP POP JUMP JUMPDEST PUSH0 PUSH2 0x2A38 DUP4 DUP4 PUSH2 0x2A1E JUMP JUMPDEST PUSH1 0x20 DUP4 ADD SWAP1 POP SWAP3 SWAP2 POP POP JUMP JUMPDEST PUSH0 PUSH1 0x20 DUP3 ADD SWAP1 POP SWAP2 SWAP1 POP JUMP JUMPDEST PUSH0 PUSH2 0x2A5A DUP3 PUSH2 0x29CB JUMP JUMPDEST PUSH2 0x2A64 DUP2 DUP6 PUSH2 0x29D5 JUMP JUMPDEST SWAP4 POP PUSH2 0x2A6F DUP4 PUSH2 0x29E5 JUMP JUMPDEST DUP1 PUSH0 JUMPDEST DUP4 DUP2 LT ISZERO PUSH2 0x2A9F JUMPI DUP2 MLOAD PUSH2 0x2A86 DUP9 DUP3 PUSH2 0x2A2D JUMP JUMPDEST SWAP8 POP PUSH2 0x2A91 DUP4 PUSH2 0x2A44 JUMP JUMPDEST SWAP3 POP POP PUSH1 0x1 DUP2 ADD SWAP1 POP PUSH2 0x2A72 JUMP JUMPDEST POP DUP6 SWAP4 POP POP POP POP SWAP3 SWAP2 POP POP JUMP JUMPDEST PUSH0 PUSH1 0x20 DUP3 ADD SWAP1 POP DUP2 DUP2 SUB PUSH0 DUP4 ADD MSTORE PUSH2 0x2AC4 DUP2 DUP5 PUSH2 0x2A50 JUMP JUMPDEST SWAP1 POP SWAP3 SWAP2 POP POP JUMP JUMPDEST PUSH2 0x2AD5 DUP2 PUSH2 0x2855 JUMP JUMPDEST DUP3 MSTORE POP POP JUMP JUMPDEST PUSH0 PUSH1 0x20 DUP3 ADD SWAP1 POP PUSH2 0x2AEE PUSH0 DUP4 ADD DUP5 PUSH2 0x2ACC JUMP JUMPDEST SWAP3 SWAP2 POP POP JUMP JUMPDEST PUSH0 DUP1 PUSH0 PUSH1 0x40 DUP5 DUP7 SUB SLT ISZERO PUSH2 0x2B0B JUMPI PUSH2 0x2B0A PUSH2 0x2510 JUMP JUMPDEST JUMPDEST PUSH0 DUP5 ADD CALLDATALOAD PUSH8 0xFFFFFFFFFFFFFFFF DUP2 GT ISZERO PUSH2 0x2B28 JUMPI PUSH2 0x2B27 PUSH2 0x2514 JUMP JUMPDEST JUMPDEST PUSH2 0x2B34 DUP7 DUP3 DUP8 ADD PUSH2 0x26CD JUMP JUMPDEST SWAP4 POP POP PUSH1 0x20 DUP5 ADD CALLDATALOAD PUSH8 0xFFFFFFFFFFFFFFFF DUP2 GT ISZERO PUSH2 0x2B55 JUMPI PUSH2 0x2B54 PUSH2 0x2514 JUMP JUMPDEST JUMPDEST PUSH2 0x2B61 DUP7 DUP3 DUP8 ADD PUSH2 0x272C JUMP JUMPDEST SWAP3 POP SWAP3 POP POP SWAP3 POP SWAP3 POP SWAP3 JUMP JUMPDEST PUSH0 DUP1 PUSH1 0x40 DUP4 DUP6 SUB SLT ISZERO PUSH2 0x2B83 JUMPI PUSH2 0x2B82 PUSH2 0x2510 JUMP JUMPDEST JUMPDEST PUSH0 DUP4 ADD CALLDATALOAD PUSH8 0xFFFFFFFFFFFFFFFF DUP2 GT ISZERO PUSH2 0x2BA0 JUMPI PUSH2 0x2B9F PUSH2 0x2514 JUMP JUMPDEST JUMPDEST PUSH2 0x2BAC DUP6 DUP3 DUP7 ADD PUSH2 0x26CD JUMP JUMPDEST SWAP3 POP POP PUSH1 0x20 PUSH2 0x2BBD DUP6 DUP3 DUP7 ADD PUSH2 0x287C JUMP JUMPDEST SWAP2 POP POP SWAP3 POP SWAP3 SWAP1 POP JUMP JUMPDEST PUSH0 DUP1 PUSH0 PUSH1 0x40 DUP5 DUP7 SUB SLT ISZERO PUSH2 0x2BDE JUMPI PUSH2 0x2BDD PUSH2 0x2510 JUMP JUMPDEST JUMPDEST PUSH0 PUSH2 0x2BEB DUP7 DUP3 DUP8 ADD PUSH2 0x2537 JUMP JUMPDEST SWAP4 POP POP PUSH1 0x20 DUP5 ADD CALLDATALOAD PUSH8 0xFFFFFFFFFFFFFFFF DUP2 GT ISZERO PUSH2 0x2C0C JUMPI PUSH2 0x2C0B PUSH2 0x2514 JUMP JUMPDEST JUMPDEST PUSH2 0x2C18 DUP7 DUP3 DUP8 ADD PUSH2 0x272C JUMP JUMPDEST SWAP3 POP SWAP3 POP POP SWAP3 POP SWAP3 POP SWAP3 JUMP JUMPDEST PUSH0 DUP1 PUSH0 DUP1 PUSH0 DUP1 PUSH0 PUSH1 0xC0 DUP9 DUP11 SUB SLT ISZERO PUSH2 0x2C3F JUMPI PUSH2 0x2C3E PUSH2 0x2510 JUMP JUMPDEST JUMPDEST PUSH0 DUP9 ADD CALLDATALOAD PUSH8 0xFFFFFFFFFFFFFFFF DUP2 GT ISZERO PUSH2 0x2C5C JUMPI PUSH2 0x2C5B PUSH2 0x2514 JUMP JUMPDEST JUMPDEST PUSH2 0x2C68 DUP11 DUP3 DUP12 ADD PUSH2 0x26CD JUMP JUMPDEST SWAP8 POP POP PUSH1 0x20 PUSH2 0x2C79 DUP11 DUP3 DUP12 ADD PUSH2 0x2710 JUMP JUMPDEST SWAP7 POP POP PUSH1 0x40 DUP9 ADD CALLDATALOAD PUSH8 0xFFFFFFFFFFFFFFFF DUP2 GT ISZERO PUSH2 0x2C9A JUMPI PUSH2 0x2C99 PUSH2 0x2514 JUMP JUMPDEST JUMPDEST PUSH2 0x2CA6 DUP11 DUP3 DUP12 ADD PUSH2 0x272C JUMP JUMPDEST SWAP6 POP SWAP6 POP POP PUSH1 0x60 PUSH2 0x2CB9 DUP11 DUP3 DUP12 ADD PUSH2 0x287C JUMP JUMPDEST SWAP4 POP POP PUSH1 0x80 PUSH2 0x2CCA DUP11 DUP3 DUP12 ADD PUSH2 0x2937 JUMP JUMPDEST SWAP3 POP POP PUSH1 0xA0 PUSH2 0x2CDB DUP11 DUP3 DUP12 ADD PUSH2 0x2537 JUMP JUMPDEST SWAP2 POP POP SWAP3 SWAP6 SWAP9 SWAP2 SWAP5 SWAP8 POP SWAP3 SWAP6 POP JUMP JUMPDEST PUSH0 DUP1 PUSH0 DUP1 PUSH1 0x60 DUP6 DUP8 SUB SLT ISZERO PUSH2 0x2D02 JUMPI PUSH2 0x2D01 PUSH2 0x2510 JUMP JUMPDEST JUMPDEST PUSH0 PUSH2 0x2D0F DUP8 DUP3 DUP9 ADD PUSH2 0x287C JUMP JUMPDEST SWAP5 POP POP PUSH1 0x20 DUP6 ADD CALLDATALOAD PUSH8 0xFFFFFFFFFFFFFFFF DUP2 GT ISZERO PUSH2 0x2D30 JUMPI PUSH2 0x2D2F PUSH2 0x2514 JUMP JUMPDEST JUMPDEST PUSH2 0x2D3C DUP8 DUP3 DUP9 ADD PUSH2 0x26CD JUMP JUMPDEST SWAP4 POP POP PUSH1 0x40 DUP6 ADD CALLDATALOAD PUSH8 0xFFFFFFFFFFFFFFFF DUP2 GT ISZERO PUSH2 0x2D5D JUMPI PUSH2 0x2D5C PUSH2 0x2514 JUMP JUMPDEST JUMPDEST PUSH2 0x2D69 DUP8 DUP3 DUP9 ADD PUSH2 0x272C JUMP JUMPDEST SWAP3 POP SWAP3 POP POP SWAP3 SWAP6 SWAP2 SWAP5 POP SWAP3 POP JUMP JUMPDEST PUSH0 DUP2 ISZERO ISZERO SWAP1 POP SWAP2 SWAP1 POP JUMP JUMPDEST PUSH2 0x2D8B DUP2 PUSH2 0x2D77 JUMP JUMPDEST DUP3 MSTORE POP POP JUMP JUMPDEST PUSH0 PUSH1 0x20 DUP3 ADD SWAP1 POP PUSH2 0x2DA4 PUSH0 DUP4 ADD DUP5 PUSH2 0x2D82 JUMP JUMPDEST SWAP3 SWAP2 POP POP JUMP JUMPDEST PUSH32 0x6C6963656E736520646F65736E27742065786973740000000000000000000000 PUSH0 DUP3 ADD MSTORE POP JUMP JUMPDEST PUSH0 PUSH2 0x2DDE PUSH1 0x15 DUP4 PUSH2 0x2481 JUMP JUMPDEST SWAP2 POP PUSH2 0x2DE9 DUP3 PUSH2 0x2DAA JUMP JUMPDEST PUSH1 0x20 DUP3 ADD SWAP1 POP SWAP2 SWAP1 POP JUMP JUMPDEST PUSH0 PUSH1 0x20 DUP3 ADD SWAP1 POP DUP2 DUP2 SUB PUSH0 DUP4 ADD MSTORE PUSH2 0x2E0B DUP2 PUSH2 0x2DD2 JUMP JUMPDEST SWAP1 POP SWAP2 SWAP1 POP JUMP JUMPDEST PUSH32 0x4E487B7100000000000000000000000000000000000000000000000000000000 PUSH0 MSTORE PUSH1 0x22 PUSH1 0x4 MSTORE PUSH1 0x24 PUSH0 REVERT JUMPDEST PUSH0 PUSH1 0x2 DUP3 DIV SWAP1 POP PUSH1 0x1 DUP3 AND DUP1 PUSH2 0x2E56 JUMPI PUSH1 0x7F DUP3 AND SWAP2 POP JUMPDEST PUSH1 0x20 DUP3 LT DUP2 SUB PUSH2 0x2E69 JUMPI PUSH2 0x2E68 PUSH2 0x2E12 JUMP JUMPDEST JUMPDEST POP SWAP2 SWAP1 POP JUMP JUMPDEST PUSH0 DUP2 SWAP1 POP SWAP3 SWAP2 POP POP JUMP JUMPDEST PUSH0 DUP2 SWAP1 POP DUP2 PUSH0 MSTORE PUSH1 0x20 PUSH0 KECCAK256 SWAP1 POP SWAP2 SWAP1 POP JUMP JUMPDEST PUSH0 DUP2 SLOAD PUSH2 0x2E97 DUP2 PUSH2 0x2E3F JUMP JUMPDEST PUSH2 0x2EA1 DUP2 DUP7 PUSH2 0x2E6F JUMP JUMPDEST SWAP5 POP PUSH1 0x1 DUP3 AND PUSH0 DUP2 EQ PUSH2 0x2EBB JUMPI PUSH1 0x1 DUP2 EQ PUSH2 0x2ED0 JUMPI PUSH2 0x2F02 JUMP JUMPDEST PUSH1 0xFF NOT DUP4 AND DUP7 MSTORE DUP2 ISZERO ISZERO DUP3 MUL DUP7 ADD SWAP4 POP PUSH2 0x2F02 JUMP JUMPDEST PUSH2 0x2ED9 DUP6 PUSH2 0x2E79 JUMP JUMPDEST PUSH0 JUMPDEST DUP4 DUP2 LT ISZERO PUSH2 0x2EFA JUMPI DUP2 SLOAD DUP2 DUP10 ADD MSTORE PUSH1 0x1 DUP3 ADD SWAP2 POP PUSH1 0x20 DUP2 ADD SWAP1 POP PUSH2 0x2EDB JUMP JUMPDEST DUP4 DUP9 ADD SWAP6 POP POP POP JUMPDEST POP POP POP SWAP3 SWAP2 POP POP JUMP JUMPDEST PUSH0 PUSH2 0x2F16 DUP3 DUP5 PUSH2 0x2E8B JUMP JUMPDEST SWAP2 POP DUP2 SWAP1 POP SWAP3 SWAP2 POP POP JUMP JUMPDEST PUSH32 0x6F776E657220616363657373206F6E6C79000000000000000000000000000000 PUSH0 DUP3 ADD MSTORE POP JUMP JUMPDEST PUSH0 PUSH2 0x2F55 PUSH1 0x11 DUP4 PUSH2 0x2481 JUMP JUMPDEST SWAP2 POP PUSH2 0x2F60 DUP3 PUSH2 0x2F21 JUMP JUMPDEST PUSH1 0x20 DUP3 ADD SWAP1 POP SWAP2 SWAP1 POP JUMP JUMPDEST PUSH0 PUSH1 0x20 DUP3 ADD SWAP1 POP DUP2 DUP2 SUB PUSH0 DUP4 ADD MSTORE PUSH2 0x2F82 DUP2 PUSH2 0x2F49 JUMP JUMPDEST SWAP1 POP SWAP2 SWAP1 POP JUMP JUMPDEST PUSH32 0x696E76616C696420766964656F20696400000000000000000000000000000000 PUSH0 DUP3 ADD MSTORE POP JUMP JUMPDEST PUSH0 PUSH2 0x2FBD PUSH1 0x10 DUP4 PUSH2 0x2481 JUMP JUMPDEST SWAP2 POP PUSH2 0x2FC8 DUP3 PUSH2 0x2F89 JUMP JUMPDEST PUSH1 0x20 DUP3 ADD SWAP1 POP SWAP2 SWAP1 POP JUMP JUMPDEST PUSH0 PUSH1 0x20 DUP3 ADD SWAP1 POP DUP2 DUP2 SUB PUSH0 DUP4 ADD MSTORE PUSH2 0x2FEA DUP2 PUSH2 0x2FB1 JUMP JUMPDEST SWAP1 POP SWAP2 SWAP1 POP JUMP JUMPDEST PUSH32 0x696E76616C6964206C6963656E736F72207369676E6174757265000000000000 PUSH0 DUP3 ADD MSTORE POP JUMP JUMPDEST PUSH0 PUSH2 0x3025 PUSH1 0x1A DUP4 PUSH2 0x2481 JUMP JUMPDEST SWAP2 POP PUSH2 0x3030 DUP3 PUSH2 0x2FF1 JUMP JUMPDEST PUSH1 0x20 DUP3 ADD SWAP1 POP SWAP2 SWAP1 POP JUMP JUMPDEST PUSH0 PUSH1 0x20 DUP3 ADD SWAP1 POP DUP2 DUP2 SUB PUSH0 DUP4 ADD MSTORE PUSH2 0x3052 DUP2 PUSH2 0x3019 JUMP JUMPDEST SWAP1 POP SWAP2 SWAP1 POP JUMP JUMPDEST PUSH0 PUSH2 0x3063 DUP3 PUSH2 0x2477 JUMP JUMPDEST PUSH2 0x306D DUP2 DUP6 PUSH2 0x2E6F JUMP JUMPDEST SWAP4 POP PUSH2 0x307D DUP2 DUP6 PUSH1 0x20 DUP7 ADD PUSH2 0x2491 JUMP JUMPDEST DUP1 DUP5 ADD SWAP2 POP POP SWAP3 SWAP2 POP POP JUMP JUMPDEST PUSH0 PUSH2 0x3094 DUP3 DUP5 PUSH2 0x3059 JUMP JUMPDEST SWAP2 POP DUP2 SWAP1 POP SWAP3 SWAP2 POP POP JUMP JUMPDEST PUSH32 0x766964656F20646F65736E277420657869737400000000000000000000000000 PUSH0 DUP3 ADD MSTORE POP JUMP JUMPDEST PUSH0 PUSH2 0x30D3 PUSH1 0x13 DUP4 PUSH2 0x2481 JUMP JUMPDEST SWAP2 POP PUSH2 0x30DE DUP3 PUSH2 0x309F JUMP JUMPDEST PUSH1 0x20 DUP3 ADD SWAP1 POP SWAP2 SWAP1 POP JUMP JUMPDEST PUSH0 PUSH1 0x20 DUP3 ADD SWAP1 POP DUP2 DUP2 SUB PUSH0 DUP4 ADD MSTORE PUSH2 0x3100 DUP2 PUSH2 0x30C7 JUMP JUMPDEST SWAP1 POP SWAP2 SWAP1 POP JUMP JUMPDEST PUSH32 0x696E76616C6964206C6963656E736F7200000000000000000000000000000000 PUSH0 DUP3 ADD MSTORE POP JUMP JUMPDEST PUSH0 PUSH2 0x313B PUSH1 0x10 DUP4 PUSH2 0x2481 JUMP JUMPDEST SWAP2 POP PUSH2 0x3146 DUP3 PUSH2 0x3107 JUMP JUMPDEST PUSH1 0x20 DUP3 ADD SWAP1 POP SWAP2 SWAP1 POP JUMP JUMPDEST PUSH0 PUSH1 0x20 DUP3 ADD SWAP1 POP DUP2 DUP2 SUB PUSH0 DUP4 ADD MSTORE PUSH2 0x3168 DUP2 PUSH2 0x312F JUMP JUMPDEST SWAP1 POP SWAP2 SWAP1 POP JUMP JUMPDEST PUSH32 0x756E617661696C61626C65206C6963656E736520696400000000000000000000 PUSH0 DUP3 ADD MSTORE POP JUMP JUMPDEST PUSH0 PUSH2 0x31A3 PUSH1 0x16 DUP4 PUSH2 0x2481 JUMP JUMPDEST SWAP2 POP PUSH2 0x31AE DUP3 PUSH2 0x316F JUMP JUMPDEST PUSH1 0x20 DUP3 ADD SWAP1 POP SWAP2 SWAP1 POP JUMP JUMPDEST PUSH0 PUSH1 0x20 DUP3 ADD SWAP1 POP DUP2 DUP2 SUB PUSH0 DUP4 ADD MSTORE PUSH2 0x31D0 DUP2 PUSH2 0x3197 JUMP JUMPDEST SWAP1 POP SWAP2 SWAP1 POP JUMP JUMPDEST PUSH32 0x4E487B7100000000000000000000000000000000000000000000000000000000 PUSH0 MSTORE PUSH1 0x32 PUSH1 0x4 MSTORE PUSH1 0x24 PUSH0 REVERT JUMPDEST PUSH32 0x696E76616C6964206C6963656E73656500000000000000000000000000000000 PUSH0 DUP3 ADD MSTORE POP JUMP JUMPDEST PUSH0 PUSH2 0x3238 PUSH1 0x10 DUP4 PUSH2 0x2481 JUMP JUMPDEST SWAP2 POP PUSH2 0x3243 DUP3 PUSH2 0x3204 JUMP JUMPDEST PUSH1 0x20 DUP3 ADD SWAP1 POP SWAP2 SWAP1 POP JUMP JUMPDEST PUSH0 PUSH1 0x20 DUP3 ADD SWAP1 POP DUP2 DUP2 SUB PUSH0 DUP4 ADD MSTORE PUSH2 0x3265 DUP2 PUSH2 0x322C JUMP JUMPDEST SWAP1 POP SWAP2 SWAP1 POP JUMP JUMPDEST PUSH0 PUSH1 0xA0 DUP3 ADD SWAP1 POP DUP2 DUP2 SUB PUSH0 DUP4 ADD MSTORE PUSH2 0x3284 DUP2 DUP9 PUSH2 0x24AF JUMP JUMPDEST SWAP1 POP PUSH2 0x3293 PUSH1 0x20 DUP4 ADD DUP8 PUSH2 0x2ACC JUMP JUMPDEST PUSH2 0x32A0 PUSH1 0x40 DUP4 ADD DUP7 PUSH2 0x2ACC JUMP JUMPDEST PUSH2 0x32AD PUSH1 0x60 DUP4 ADD DUP6 PUSH2 0x28F9 JUMP JUMPDEST PUSH2 0x32BA PUSH1 0x80 DUP4 ADD DUP5 PUSH2 0x28F9 JUMP JUMPDEST SWAP7 SWAP6 POP POP POP POP POP POP JUMP JUMPDEST PUSH0 PUSH2 0x32D6 PUSH2 0x32D1 DUP5 PUSH2 0x264E JUMP JUMPDEST PUSH2 0x2634 JUMP JUMPDEST SWAP1 POP DUP3 DUP2 MSTORE PUSH1 0x20 DUP2 ADD DUP5 DUP5 DUP5 ADD GT ISZERO PUSH2 0x32F2 JUMPI PUSH2 0x32F1 PUSH2 0x25D2 JUMP JUMPDEST JUMPDEST PUSH2 0x32FD DUP5 DUP3 DUP6 PUSH2 0x2491 JUMP JUMPDEST POP SWAP4 SWAP3 POP POP POP JUMP JUMPDEST PUSH0 DUP3 PUSH1 0x1F DUP4 ADD SLT PUSH2 0x3319 JUMPI PUSH2 0x3318 PUSH2 0x25CE JUMP JUMPDEST JUMPDEST DUP2 MLOAD PUSH2 0x3329 DUP5 DUP3 PUSH1 0x20 DUP7 ADD PUSH2 0x32C4 JUMP JUMPDEST SWAP2 POP POP SWAP3 SWAP2 POP POP JUMP JUMPDEST PUSH0 PUSH1 0x20 DUP3 DUP5 SUB SLT ISZERO PUSH2 0x3347 JUMPI PUSH2 0x3346 PUSH2 0x2510 JUMP JUMPDEST JUMPDEST PUSH0 DUP3 ADD MLOAD PUSH8 0xFFFFFFFFFFFFFFFF DUP2 GT ISZERO PUSH2 0x3364 JUMPI PUSH2 0x3363 PUSH2 0x2514 JUMP JUMPDEST JUMPDEST PUSH2 0x3370 DUP5 DUP3 DUP6 ADD PUSH2 0x3305 JUMP JUMPDEST SWAP2 POP POP SWAP3 SWAP2 POP POP JUMP JUMPDEST PUSH2 0x3382 DUP2 PUSH2 0x29FD JUMP JUMPDEST DUP3 MSTORE POP POP JUMP JUMPDEST PUSH0 PUSH1 0x20 DUP3 ADD SWAP1 POP PUSH2 0x339B PUSH0 DUP4 ADD DUP5 PUSH2 0x3379 JUMP JUMPDEST SWAP3 SWAP2 POP POP JUMP JUMPDEST PUSH0 DUP2 MLOAD SWAP1 POP PUSH2 0x33AF DUP2 PUSH2 0x26FA JUMP JUMPDEST SWAP3 SWAP2 POP POP JUMP JUMPDEST PUSH0 PUSH1 0x20 DUP3 DUP5 SUB SLT ISZERO PUSH2 0x33CA JUMPI PUSH2 0x33C9 PUSH2 0x2510 JUMP JUMPDEST JUMPDEST PUSH0 PUSH2 0x33D7 DUP5 DUP3 DUP6 ADD PUSH2 0x33A1 JUMP JUMPDEST SWAP2 POP POP SWAP3 SWAP2 POP POP JUMP JUMPDEST PUSH32 0x696E76616C6964207369676E6174757265000000000000000000000000000000 PUSH0 DUP3 ADD MSTORE POP JUMP JUMPDEST PUSH0 PUSH2 0x3414 PUSH1 0x11 DUP4 PUSH2 0x2481 JUMP JUMPDEST SWAP2 POP PUSH2 0x341F DUP3 PUSH2 0x33E0 JUMP JUMPDEST PUSH1 0x20 DUP3 ADD SWAP1 POP SWAP2 SWAP1 POP JUMP JUMPDEST PUSH0 PUSH1 0x20 DUP3 ADD SWAP1 POP DUP2 DUP2 SUB PUSH0 DUP4 ADD MSTORE PUSH2 0x3441 DUP2 PUSH2 0x3408 JUMP JUMPDEST SWAP1 POP SWAP2 SWAP1 POP JUMP JUMPDEST PUSH0 DUP2 MLOAD SWAP1 POP PUSH2 0x3456 DUP2 PUSH2 0x2921 JUMP JUMPDEST SWAP3 SWAP2 POP POP JUMP JUMPDEST PUSH0 PUSH1 0x20 DUP3 DUP5 SUB SLT ISZERO PUSH2 0x3471 JUMPI PUSH2 0x3470 PUSH2 0x2510 JUMP JUMPDEST JUMPDEST PUSH0 PUSH2 0x347E DUP5 DUP3 DUP6 ADD PUSH2 0x3448 JUMP JUMPDEST SWAP2 POP POP SWAP3 SWAP2 POP POP JUMP JUMPDEST PUSH32 0x6E6F7420656E6F75676820657468657200000000000000000000000000000000 PUSH0 DUP3 ADD MSTORE POP JUMP JUMPDEST PUSH0 PUSH2 0x34BB PUSH1 0x10 DUP4 PUSH2 0x2481 JUMP JUMPDEST SWAP2 POP PUSH2 0x34C6 DUP3 PUSH2 0x3487 JUMP JUMPDEST PUSH1 0x20 DUP3 ADD SWAP1 POP SWAP2 SWAP1 POP JUMP JUMPDEST PUSH0 PUSH1 0x20 DUP3 ADD SWAP1 POP DUP2 DUP2 SUB PUSH0 DUP4 ADD MSTORE PUSH2 0x34E8 DUP2 PUSH2 0x34AF JUMP JUMPDEST SWAP1 POP SWAP2 SWAP1 POP JUMP JUMPDEST PUSH32 0x696E76616C6964206C6963656E736565207369676E6174757265000000000000 PUSH0 DUP3 ADD MSTORE POP JUMP JUMPDEST PUSH0 PUSH2 0x3523 PUSH1 0x1A DUP4 PUSH2 0x2481 JUMP JUMPDEST SWAP2 POP PUSH2 0x352E DUP3 PUSH2 0x34EF JUMP JUMPDEST PUSH1 0x20 DUP3 ADD SWAP1 POP SWAP2 SWAP1 POP JUMP JUMPDEST PUSH0 PUSH1 0x20 DUP3 ADD SWAP1 POP DUP2 DUP2 SUB PUSH0 DUP4 ADD MSTORE PUSH2 0x3550 DUP2 PUSH2 0x3517 JUMP JUMPDEST SWAP1 POP SWAP2 SWAP1 POP JUMP JUMPDEST PUSH0 DUP2 SWAP1 POP SWAP3 SWAP2 POP POP JUMP JUMPDEST POP JUMP JUMPDEST PUSH0 PUSH2 0x356F PUSH0 DUP4 PUSH2 0x3557 JUMP JUMPDEST SWAP2 POP PUSH2 0x357A DUP3 PUSH2 0x3561 JUMP JUMPDEST PUSH0 DUP3 ADD SWAP1 POP SWAP2 SWAP1 POP JUMP JUMPDEST PUSH0 PUSH2 0x358E DUP3 PUSH2 0x3564 JUMP JUMPDEST SWAP2 POP DUP2 SWAP1 POP SWAP2 SWAP1 POP JUMP JUMPDEST PUSH32 0x6661696C656420746F2073656E64206574686572000000000000000000000000 PUSH0 DUP3 ADD MSTORE POP JUMP JUMPDEST PUSH0 PUSH2 0x35CC PUSH1 0x14 DUP4 PUSH2 0x2481 JUMP JUMPDEST SWAP2 POP PUSH2 0x35D7 DUP3 PUSH2 0x3598 JUMP JUMPDEST PUSH1 0x20 DUP3 ADD SWAP1 POP SWAP2 SWAP1 POP JUMP JUMPDEST PUSH0 PUSH1 0x20 DUP3 ADD SWAP1 POP DUP2 DUP2 SUB PUSH0 DUP4 ADD MSTORE PUSH2 0x35F9 DUP2 PUSH2 0x35C0 JUMP JUMPDEST SWAP1 POP SWAP2 SWAP1 POP JUMP JUMPDEST PUSH0 DUP2 SWAP1 POP SWAP2 SWAP1 POP JUMP JUMPDEST PUSH2 0x3612 DUP2 PUSH2 0x3600 JUMP JUMPDEST DUP3 MSTORE POP POP JUMP JUMPDEST PUSH0 DUP3 DUP3 MSTORE PUSH1 0x20 DUP3 ADD SWAP1 POP SWAP3 SWAP2 POP POP JUMP JUMPDEST PUSH0 PUSH2 0x3633 DUP4 DUP6 PUSH2 0x3618 JUMP JUMPDEST SWAP4 POP PUSH2 0x3640 DUP4 DUP6 DUP5 PUSH2 0x267E JUMP JUMPDEST PUSH2 0x3649 DUP4 PUSH2 0x249F JUMP JUMPDEST DUP5 ADD SWAP1 POP SWAP4 SWAP3 POP POP POP JUMP JUMPDEST PUSH0 PUSH1 0x40 DUP3 ADD SWAP1 POP PUSH2 0x3667 PUSH0 DUP4 ADD DUP7 PUSH2 0x3609 JUMP JUMPDEST DUP2 DUP2 SUB PUSH1 0x20 DUP4 ADD MSTORE PUSH2 0x367A DUP2 DUP5 DUP7 PUSH2 0x3628 JUMP JUMPDEST SWAP1 POP SWAP5 SWAP4 POP POP POP POP JUMP JUMPDEST PUSH0 DUP2 MLOAD SWAP1 POP SWAP2 SWAP1 POP JUMP JUMPDEST PUSH0 PUSH2 0x3698 DUP3 PUSH2 0x3684 JUMP JUMPDEST PUSH2 0x36A2 DUP2 DUP6 PUSH2 0x3557 JUMP JUMPDEST SWAP4 POP PUSH2 0x36B2 DUP2 DUP6 PUSH1 0x20 DUP7 ADD PUSH2 0x2491 JUMP JUMPDEST DUP1 DUP5 ADD SWAP2 POP POP SWAP3 SWAP2 POP POP JUMP JUMPDEST PUSH0 PUSH2 0x36C9 DUP3 DUP5 PUSH2 0x368E JUMP JUMPDEST SWAP2 POP DUP2 SWAP1 POP SWAP3 SWAP2 POP POP JUMP JUMPDEST PUSH0 PUSH32 0xFFFFFFFF00000000000000000000000000000000000000000000000000000000 DUP3 AND SWAP1 POP SWAP2 SWAP1 POP JUMP JUMPDEST PUSH2 0x3708 DUP2 PUSH2 0x36D4 JUMP JUMPDEST DUP2 EQ PUSH2 0x3712 JUMPI PUSH0 DUP1 REVERT JUMPDEST POP JUMP JUMPDEST PUSH0 DUP2 MLOAD SWAP1 POP PUSH2 0x3723 DUP2 PUSH2 0x36FF JUMP JUMPDEST SWAP3 SWAP2 POP POP JUMP JUMPDEST PUSH0 PUSH1 0x20 DUP3 DUP5 SUB SLT ISZERO PUSH2 0x373E JUMPI PUSH2 0x373D PUSH2 0x2510 JUMP JUMPDEST JUMPDEST PUSH0 PUSH2 0x374B DUP5 DUP3 DUP6 ADD PUSH2 0x3715 JUMP JUMPDEST SWAP2 POP POP SWAP3 SWAP2 POP POP JUMP JUMPDEST PUSH32 0x4E487B7100000000000000000000000000000000000000000000000000000000 PUSH0 MSTORE PUSH1 0x11 PUSH1 0x4 MSTORE PUSH1 0x24 PUSH0 REVERT JUMPDEST PUSH0 PUSH2 0x378B DUP3 PUSH2 0x2518 JUMP JUMPDEST SWAP2 POP PUSH2 0x3796 DUP4 PUSH2 0x2518 JUMP JUMPDEST SWAP3 POP DUP3 DUP3 ADD SWAP1 POP DUP1 DUP3 GT ISZERO PUSH2 0x37AE JUMPI PUSH2 0x37AD PUSH2 0x3754 JUMP JUMPDEST JUMPDEST SWAP3 SWAP2 POP POP JUMP JUMPDEST PUSH0 PUSH1 0x20 PUSH1 0x1F DUP4 ADD DIV SWAP1 POP SWAP2 SWAP1 POP JUMP JUMPDEST PUSH0 DUP3 DUP3 SHL SWAP1 POP SWAP3 SWAP2 POP POP JUMP JUMPDEST PUSH0 PUSH1 0x8 DUP4 MUL PUSH2 0x37FE PUSH32 0xFFFFFFFFFFFFFFFFFFFFFFFFFFFFFFFFFFFFFFFFFFFFFFFFFFFFFFFFFFFFFFFF DUP3 PUSH2 0x37C3 JUMP JUMPDEST PUSH2 0x3808 DUP7 DUP4 PUSH2 0x37C3 JUMP JUMPDEST SWAP6 POP DUP1 NOT DUP5 AND SWAP4 POP DUP1 DUP7 AND DUP5 OR SWAP3 POP POP POP SWAP4 SWAP3 POP POP POP JUMP JUMPDEST PUSH0 DUP2 SWAP1 POP SWAP2 SWAP1 POP JUMP JUMPDEST PUSH2 0x3832 DUP4 PUSH2 0x29FD JUMP JUMPDEST PUSH2 0x3846 PUSH2 0x383E DUP3 PUSH2 0x3820 JUMP JUMPDEST DUP5 DUP5 SLOAD PUSH2 0x37CF JUMP JUMPDEST DUP3 SSTORE POP POP POP POP JUMP JUMPDEST PUSH0 SWAP1 JUMP JUMPDEST PUSH2 0x385A PUSH2 0x384E JUMP JUMPDEST PUSH2 0x3865 DUP2 DUP5 DUP5 PUSH2 0x3829 JUMP JUMPDEST POP POP POP JUMP JUMPDEST JUMPDEST DUP2 DUP2 LT ISZERO PUSH2 0x3888 JUMPI PUSH2 0x387D PUSH0 DUP3 PUSH2 0x3852 JUMP JUMPDEST PUSH1 0x1 DUP2 ADD SWAP1 POP PUSH2 0x386B JUMP JUMPDEST POP POP JUMP JUMPDEST PUSH1 0x1F DUP3 GT ISZERO PUSH2 0x38CD JUMPI PUSH2 0x389E DUP2 PUSH2 0x2E79 JUMP JUMPDEST PUSH2 0x38A7 DUP5 PUSH2 0x37B4 JUMP JUMPDEST DUP2 ADD PUSH1 0x20 DUP6 LT ISZERO PUSH2 0x38B6 JUMPI DUP2 SWAP1 POP JUMPDEST PUSH2 0x38CA PUSH2 0x38C2 DUP6 PUSH2 0x37B4 JUMP JUMPDEST DUP4 ADD DUP3 PUSH2 0x386A JUMP JUMPDEST POP POP JUMPDEST POP POP POP JUMP JUMPDEST PUSH0 DUP3 DUP3 SHR SWAP1 POP SWAP3 SWAP2 POP POP JUMP JUMPDEST PUSH0 PUSH2 0x38ED PUSH0 NOT DUP5 PUSH1 0x8 MUL PUSH2 0x38D2 JUMP JUMPDEST NOT DUP1 DUP4 AND SWAP2 POP POP SWAP3 SWAP2 POP POP JUMP JUMPDEST PUSH0 PUSH2 0x3905 DUP4 DUP4 PUSH2 0x38DE JUMP JUMPDEST SWAP2 POP DUP3 PUSH1 0x2 MUL DUP3 OR SWAP1 POP SWAP3 SWAP2 POP POP JUMP JUMPDEST PUSH2 0x391E DUP3 PUSH2 0x2477 JUMP JUMPDEST PUSH8 0xFFFFFFFFFFFFFFFF DUP2 GT ISZERO PUSH2 0x3937 JUMPI PUSH2 0x3936 PUSH2 0x25D6 JUMP JUMPDEST JUMPDEST PUSH2 0x3941 DUP3 SLOAD PUSH2 0x2E3F JUMP JUMPDEST PUSH2 0x394C DUP3 DUP3 DUP6 PUSH2 0x388C JUMP JUMPDEST PUSH0 PUSH1 0x20 SWAP1 POP PUSH1 0x1F DUP4 GT PUSH1 0x1 DUP2 EQ PUSH2 0x397D JUMPI PUSH0 DUP5 ISZERO PUSH2 0x396B JUMPI DUP3 DUP8 ADD MLOAD SWAP1 POP JUMPDEST PUSH2 0x3975 DUP6 DUP3 PUSH2 0x38FA JUMP JUMPDEST DUP7 SSTORE POP PUSH2 0x39DC JUMP JUMPDEST PUSH1 0x1F NOT DUP5 AND PUSH2 0x398B DUP7 PUSH2 0x2E79 JUMP JUMPDEST PUSH0 JUMPDEST DUP3 DUP2 LT ISZERO PUSH2 0x39B2 JUMPI DUP5 DUP10 ADD MLOAD DUP3 SSTORE PUSH1 0x1 DUP3 ADD SWAP2 POP PUSH1 0x20 DUP6 ADD SWAP5 POP PUSH1 0x20 DUP2 ADD SWAP1 POP PUSH2 0x398D JUMP JUMPDEST DUP7 DUP4 LT ISZERO PUSH2 0x39CF JUMPI DUP5 DUP10 ADD MLOAD PUSH2 0x39CB PUSH1 0x1F DUP10 AND DUP3 PUSH2 0x38DE JUMP JUMPDEST DUP4 SSTORE POP JUMPDEST PUSH1 0x1 PUSH1 0x2 DUP9 MUL ADD DUP9 SSTORE POP POP POP JUMPDEST POP POP POP POP POP POP JUMP JUMPDEST PUSH0 PUSH1 0xFF DUP3 AND SWAP1 POP SWAP2 SWAP1 POP JUMP JUMPDEST PUSH2 0x39F9 DUP2 PUSH2 0x39E4 JUMP JUMPDEST DUP3 MSTORE POP POP JUMP JUMPDEST PUSH0 PUSH1 0x80 DUP3 ADD SWAP1 POP PUSH2 0x3A12 PUSH0 DUP4 ADD DUP8 PUSH2 0x3609 JUMP JUMPDEST PUSH2 0x3A1F PUSH1 0x20 DUP4 ADD DUP7 PUSH2 0x39F0 JUMP JUMPDEST PUSH2 0x3A2C PUSH1 0x40 DUP4 ADD DUP6 PUSH2 0x3609 JUMP JUMPDEST PUSH2 0x3A39 PUSH1 0x60 DUP4 ADD DUP5 PUSH2 0x3609 JUMP JUMPDEST SWAP6 SWAP5 POP POP POP POP POP JUMP JUMPDEST PUSH32 0x19457468657265756D205369676E6564204D6573736167653A0A000000000000 PUSH0 DUP3 ADD MSTORE POP JUMP JUMPDEST PUSH0 PUSH2 0x3A76 PUSH1 0x1A DUP4 PUSH2 0x2E6F JUMP JUMPDEST SWAP2 POP PUSH2 0x3A81 DUP3 PUSH2 0x3A42 JUMP JUMPDEST PUSH1 0x1A DUP3 ADD SWAP1 POP SWAP2 SWAP1 POP JUMP JUMPDEST PUSH0 PUSH2 0x3A96 DUP3 PUSH2 0x3A6A JUMP JUMPDEST SWAP2 POP PUSH2 0x3AA2 DUP3 DUP6 PUSH2 0x3059 JUMP JUMPDEST SWAP2 POP PUSH2 0x3AAE DUP3 DUP5 PUSH2 0x3059 JUMP JUMPDEST SWAP2 POP DUP2 SWAP1 POP SWAP4 SWAP3 POP POP POP JUMP JUMPDEST PUSH32 0x4E487B7100000000000000000000000000000000000000000000000000000000 PUSH0 MSTORE PUSH1 0x12 PUSH1 0x4 MSTORE PUSH1 0x24 PUSH0 REVERT JUMPDEST PUSH0 PUSH2 0x3AF1 DUP3 PUSH2 0x2518 JUMP JUMPDEST SWAP2 POP PUSH2 0x3AFC DUP4 PUSH2 0x2518 JUMP JUMPDEST SWAP3 POP DUP3 PUSH2 0x3B0C JUMPI PUSH2 0x3B0B PUSH2 0x3ABA JUMP JUMPDEST JUMPDEST DUP3 DUP3 DIV SWAP1 POP SWAP3 SWAP2 POP POP JUMP JUMPDEST PUSH0 PUSH2 0x3B21 DUP3 PUSH2 0x2518 JUMP JUMPDEST SWAP2 POP PUSH32 0xFFFFFFFFFFFFFFFFFFFFFFFFFFFFFFFFFFFFFFFFFFFFFFFFFFFFFFFFFFFFFFFF DUP3 SUB PUSH2 0x3B53 JUMPI PUSH2 0x3B52 PUSH2 0x3754 JUMP JUMPDEST JUMPDEST PUSH1 0x1 DUP3 ADD SWAP1 POP SWAP2 SWAP1 POP JUMP JUMPDEST PUSH0 PUSH2 0x3B68 DUP3 PUSH2 0x2518 JUMP JUMPDEST SWAP2 POP PUSH0 DUP3 SUB PUSH2 0x3B7A JUMPI PUSH2 0x3B79 PUSH2 0x3754 JUMP JUMPDEST JUMPDEST PUSH1 0x1 DUP3 SUB SWAP1 POP SWAP2 SWAP1 POP JUMP JUMPDEST PUSH0 PUSH2 0x3B8F DUP3 PUSH2 0x2518 JUMP JUMPDEST SWAP2 POP PUSH2 0x3B9A DUP4 PUSH2 0x2518 JUMP JUMPDEST SWAP3 POP DUP3 PUSH2 0x3BAA JUMPI PUSH2 0x3BA9 PUSH2 0x3ABA JUMP JUMPDEST JUMPDEST DUP3 DUP3 MOD SWAP1 POP SWAP3 SWAP2 POP POP JUMP INVALID BLOBHASH KECCAK256 PUSH4 0x65727469 PUSH7 0x79207468617420 BLOBHASH KECCAK256 PUSH2 0x6D20 PUSH21 0x6865206C6963656E736F72206F6620746865207669 PUSH5 0x656F206167 PUSH19 0x65656D656E7420616E6420616772656520746F KECCAK256 PUSH2 0x6C6C KECCAK256 PUSH21 0x65726D7320646566696E656420696E207468652061 PUSH8 0x7265656D656E742E BLOBHASH KECCAK256 PUSH4 0x65727469 PUSH7 0x79207468617420 BLOBHASH KECCAK256 PUSH2 0x6D20 PUSH21 0x6865206C6963656E736565206F6620746865207669 PUSH5 0x656F206167 PUSH19 0x65656D656E7420616E6420616772656520746F KECCAK256 PUSH2 0x6C6C KECCAK256 PUSH21 0x65726D7320646566696E656420696E207468652061 PUSH8 0x7265656D656E742E LOG2 PUSH5 0x6970667358 0x22 SLT KECCAK256 DUP16 PUSH0 MSTORE8 SLT PUSH6 0x6C1DEB226648 BLOBHASH 0x4F KECCAK256 0xDF PUSH21 0xDAA838A4C529DC6F41CE7E260C79814B64736F6C63 NUMBER STOP ADDMOD NOT STOP CALLER "
				},
				"gasEstimates": {
					"creation": {
						"codeDepositCost": "3109400",
						"executionCost": "infinite",
						"totalCost": "infinite"
					},
					"external": {
						"_recoverSigner(string,bytes)": "infinite",
						"addLicense(string,address,uint256,uint256)": "infinite",
						"addTemplate(address)": "26992",
						"addVideo(string,address,bytes)": "infinite",
						"addVideoWithLicense(string,address,bytes,address,uint256,uint256)": "infinite",
						"buyLicense(uint256,bytes)": "infinite",
						"composeLicense(uint256,address)": "infinite",
						"getLicenseOwner(uint256)": "infinite",
						"getLicensePrice(uint256)": "infinite",
						"getLicenseTemplate(uint256)": "5152",
						"getLicenseVideo(uint256)": "infinite",
						"getLicensesOfVideoAndLicensee(string,address)": "infinite",
						"getPurchaseTime(uint256,address)": "infinite",
						"getVideoLicenses(string)": "infinite",
						"getVideoOwner(string)": "infinite",
						"licenseeAgreement()": "infinite",
						"licensorAgreement()": "infinite",
						"removeLicense(uint256)": "infinite",
						"removeTemplate(address)": "27012",
						"transferOwnership(address)": "27013",
						"verifySigner(address,string,bytes)": "infinite"
					},
					"internal": {
						"_ecrecover(string memory,uint8,bytes32,bytes32)": "infinite",
						"_getMessageHash(string memory)": "infinite",
						"_verifyLicensee(address,LID,bytes calldata)": "infinite",
						"_verifyLicensor(address,string memory,bytes calldata)": "infinite",
						"createLicense(string memory,address,uint256,LID)": "infinite"
					}
				},
				"methodIdentifiers": {
					"_recoverSigner(string,bytes)": "b0508a83",
					"addLicense(string,address,uint256,uint256)": "70d8677f",
					"addTemplate(address)": "55b30266",
					"addVideo(string,address,bytes)": "2b35d062",
					"addVideoWithLicense(string,address,bytes,address,uint256,uint256)": "eeb9509b",
					"buyLicense(uint256,bytes)": "ea80a847",
					"composeLicense(uint256,address)": "976662b0",
					"getLicenseOwner(uint256)": "1e7fd268",
					"getLicensePrice(uint256)": "b6c00a82",
					"getLicenseTemplate(uint256)": "b033c13a",
					"getLicenseVideo(uint256)": "41befbd1",
					"getLicensesOfVideoAndLicensee(string,address)": "d947650a",
					"getPurchaseTime(uint256,address)": "705d5c76",
					"getVideoLicenses(string)": "74f630dc",
					"getVideoOwner(string)": "3e340e2d",
					"licenseeAgreement()": "0e15c62a",
					"licensorAgreement()": "66527f1c",
					"removeLicense(uint256)": "99911abe",
					"removeTemplate(address)": "e946af59",
					"transferOwnership(address)": "f2fde38b",
					"verifySigner(address,string,bytes)": "f1197969"
				}
			},
			"storageLayout": {
				"storage": [
					{
						"astId": 1542,
						"contract": "contracts/LicenseManager.sol:LicenseManager",
						"label": "_owner",
						"offset": 0,
						"slot": "0",
						"type": "t_address"
					},
					{
						"astId": 1589,
						"contract": "contracts/LicenseManager.sol:LicenseManager",
						"label": "_templates",
						"offset": 0,
						"slot": "1",
						"type": "t_mapping(t_address,t_bool)"
					},
					{
						"astId": 1637,
						"contract": "contracts/LicenseManager.sol:LicenseManager",
						"label": "_videoOwners",
						"offset": 0,
						"slot": "2",
						"type": "t_mapping(t_string_memory_ptr,t_address_payable)"
					},
					{
						"astId": 1641,
						"contract": "contracts/LicenseManager.sol:LicenseManager",
						"label": "_videoLicenseCounts",
						"offset": 0,
						"slot": "3",
						"type": "t_mapping(t_string_memory_ptr,t_uint256)"
					},
					{
						"astId": 1648,
						"contract": "contracts/LicenseManager.sol:LicenseManager",
						"label": "_videoLicenseIDs",
						"offset": 0,
						"slot": "4",
						"type": "t_mapping(t_string_memory_ptr,t_mapping(t_uint256,t_userDefinedValueType(LID)1540))"
					},
					{
						"astId": 1653,
						"contract": "contracts/LicenseManager.sol:LicenseManager",
						"label": "_licenseCreated",
						"offset": 0,
						"slot": "5",
						"type": "t_mapping(t_userDefinedValueType(LID)1540,t_bool)"
					},
					{
						"astId": 1658,
						"contract": "contracts/LicenseManager.sol:LicenseManager",
						"label": "_licenseActivated",
						"offset": 0,
						"slot": "6",
						"type": "t_mapping(t_userDefinedValueType(LID)1540,t_bool)"
					},
					{
						"astId": 1663,
						"contract": "contracts/LicenseManager.sol:LicenseManager",
						"label": "_licenseVideos",
						"offset": 0,
						"slot": "7",
						"type": "t_mapping(t_userDefinedValueType(LID)1540,t_string_storage)"
					},
					{
						"astId": 1668,
						"contract": "contracts/LicenseManager.sol:LicenseManager",
						"label": "_licensePrices",
						"offset": 0,
						"slot": "8",
						"type": "t_mapping(t_userDefinedValueType(LID)1540,t_uint256)"
					},
					{
						"astId": 1673,
						"contract": "contracts/LicenseManager.sol:LicenseManager",
						"label": "_licenseTemplates",
						"offset": 0,
						"slot": "9",
						"type": "t_mapping(t_userDefinedValueType(LID)1540,t_address)"
					},
					{
						"astId": 2087,
						"contract": "contracts/LicenseManager.sol:LicenseManager",
						"label": "_licenseLicensees",
						"offset": 0,
						"slot": "10",
						"type": "t_mapping(t_userDefinedValueType(LID)1540,t_mapping(t_address,t_uint256))"
					}
				],
				"types": {
					"t_address": {
						"encoding": "inplace",
						"label": "address",
						"numberOfBytes": "20"
					},
					"t_address_payable": {
						"encoding": "inplace",
						"label": "address payable",
						"numberOfBytes": "20"
					},
					"t_bool": {
						"encoding": "inplace",
						"label": "bool",
						"numberOfBytes": "1"
					},
					"t_mapping(t_address,t_bool)": {
						"encoding": "mapping",
						"key": "t_address",
						"label": "mapping(address => bool)",
						"numberOfBytes": "32",
						"value": "t_bool"
					},
					"t_mapping(t_address,t_uint256)": {
						"encoding": "mapping",
						"key": "t_address",
						"label": "mapping(address => uint256)",
						"numberOfBytes": "32",
						"value": "t_uint256"
					},
					"t_mapping(t_string_memory_ptr,t_address_payable)": {
						"encoding": "mapping",
						"key": "t_string_memory_ptr",
						"label": "mapping(string => address payable)",
						"numberOfBytes": "32",
						"value": "t_address_payable"
					},
					"t_mapping(t_string_memory_ptr,t_mapping(t_uint256,t_userDefinedValueType(LID)1540))": {
						"encoding": "mapping",
						"key": "t_string_memory_ptr",
						"label": "mapping(string => mapping(uint256 => LID))",
						"numberOfBytes": "32",
						"value": "t_mapping(t_uint256,t_userDefinedValueType(LID)1540)"
					},
					"t_mapping(t_string_memory_ptr,t_uint256)": {
						"encoding": "mapping",
						"key": "t_string_memory_ptr",
						"label": "mapping(string => uint256)",
						"numberOfBytes": "32",
						"value": "t_uint256"
					},
					"t_mapping(t_uint256,t_userDefinedValueType(LID)1540)": {
						"encoding": "mapping",
						"key": "t_uint256",
						"label": "mapping(uint256 => LID)",
						"numberOfBytes": "32",
						"value": "t_userDefinedValueType(LID)1540"
					},
					"t_mapping(t_userDefinedValueType(LID)1540,t_address)": {
						"encoding": "mapping",
						"key": "t_userDefinedValueType(LID)1540",
						"label": "mapping(LID => address)",
						"numberOfBytes": "32",
						"value": "t_address"
					},
					"t_mapping(t_userDefinedValueType(LID)1540,t_bool)": {
						"encoding": "mapping",
						"key": "t_userDefinedValueType(LID)1540",
						"label": "mapping(LID => bool)",
						"numberOfBytes": "32",
						"value": "t_bool"
					},
					"t_mapping(t_userDefinedValueType(LID)1540,t_mapping(t_address,t_uint256))": {
						"encoding": "mapping",
						"key": "t_userDefinedValueType(LID)1540",
						"label": "mapping(LID => mapping(address => uint256))",
						"numberOfBytes": "32",
						"value": "t_mapping(t_address,t_uint256)"
					},
					"t_mapping(t_userDefinedValueType(LID)1540,t_string_storage)": {
						"encoding": "mapping",
						"key": "t_userDefinedValueType(LID)1540",
						"label": "mapping(LID => string)",
						"numberOfBytes": "32",
						"value": "t_string_storage"
					},
					"t_mapping(t_userDefinedValueType(LID)1540,t_uint256)": {
						"encoding": "mapping",
						"key": "t_userDefinedValueType(LID)1540",
						"label": "mapping(LID => uint256)",
						"numberOfBytes": "32",
						"value": "t_uint256"
					},
					"t_string_memory_ptr": {
						"encoding": "bytes",
						"label": "string",
						"numberOfBytes": "32"
					},
					"t_string_storage": {
						"encoding": "bytes",
						"label": "string",
						"numberOfBytes": "32"
					},
					"t_uint256": {
						"encoding": "inplace",
						"label": "uint256",
						"numberOfBytes": "32"
					},
					"t_userDefinedValueType(LID)1540": {
						"encoding": "inplace",
						"label": "LID",
						"numberOfBytes": "32"
					}
				}
			},
			"userdoc": {
				"kind": "user",
				"methods": {},
				"version": 1
			}
		}
	}
}