{
	"contracts/MyToken.sol": {
		"MyToken": {
			"abi": [
				{
					"inputs": [],
					"stateMutability": "nonpayable",
					"type": "constructor"
				},
				{
					"inputs": [
						{
							"internalType": "string",
							"name": "vid",
							"type": "string"
						},
						{
							"internalType": "address payable",
							"name": "creator",
							"type": "address"
						},
						{
							"internalType": "uint256",
							"name": "price",
							"type": "uint256"
						}
					],
					"name": "addVideo",
					"outputs": [],
					"stateMutability": "nonpayable",
					"type": "function"
				},
				{
					"inputs": [],
					"name": "agreement",
					"outputs": [
						{
							"internalType": "string",
							"name": "",
							"type": "string"
						}
					],
					"stateMutability": "view",
					"type": "function"
				},
				{
					"inputs": [
						{
							"internalType": "string",
							"name": "vid",
							"type": "string"
						}
					],
					"name": "buyVideo",
					"outputs": [],
					"stateMutability": "payable",
					"type": "function"
				},
				{
					"inputs": [
						{
							"internalType": "string",
							"name": "vid",
							"type": "string"
						},
						{
							"internalType": "address",
							"name": "payer",
							"type": "address"
						}
					],
					"name": "checkApproval",
					"outputs": [
						{
							"internalType": "bool",
							"name": "",
							"type": "bool"
						}
					],
					"stateMutability": "view",
					"type": "function"
				},
				{
					"inputs": [
						{
							"internalType": "bytes32",
							"name": "_messageHash",
							"type": "bytes32"
						}
					],
					"name": "getEthSignedMessageHash",
					"outputs": [
						{
							"internalType": "bytes32",
							"name": "",
							"type": "bytes32"
						}
					],
					"stateMutability": "pure",
					"type": "function"
				},
				{
					"inputs": [
						{
							"internalType": "string",
							"name": "vid",
							"type": "string"
						},
						{
							"internalType": "uint256",
							"name": "price",
							"type": "uint256"
						},
						{
							"internalType": "uint256",
							"name": "nonce",
							"type": "uint256"
						}
					],
					"name": "getMessageHash",
					"outputs": [
						{
							"internalType": "bytes32",
							"name": "",
							"type": "bytes32"
						}
					],
					"stateMutability": "pure",
					"type": "function"
				},
				{
					"inputs": [
						{
							"internalType": "string",
							"name": "vid",
							"type": "string"
						}
					],
					"name": "getOwner",
					"outputs": [
						{
							"internalType": "address",
							"name": "",
							"type": "address"
						}
					],
					"stateMutability": "view",
					"type": "function"
				},
				{
					"inputs": [
						{
							"internalType": "string",
							"name": "vid",
							"type": "string"
						}
					],
					"name": "getPrice",
					"outputs": [
						{
							"internalType": "uint256",
							"name": "",
							"type": "uint256"
						}
					],
					"stateMutability": "view",
					"type": "function"
				},
				{
					"inputs": [
						{
							"internalType": "bytes32",
							"name": "_ethSignedMessageHash",
							"type": "bytes32"
						},
						{
							"internalType": "bytes",
							"name": "_signature",
							"type": "bytes"
						}
					],
					"name": "recoverSigner",
					"outputs": [
						{
							"internalType": "address",
							"name": "",
							"type": "address"
						}
					],
					"stateMutability": "pure",
					"type": "function"
				},
				{
					"inputs": [
						{
							"internalType": "bytes",
							"name": "sig",
							"type": "bytes"
						}
					],
					"name": "splitSignature",
					"outputs": [
						{
							"internalType": "bytes32",
							"name": "r",
							"type": "bytes32"
						},
						{
							"internalType": "bytes32",
							"name": "s",
							"type": "bytes32"
						},
						{
							"internalType": "uint8",
							"name": "v",
							"type": "uint8"
						}
					],
					"stateMutability": "pure",
					"type": "function"
				},
				{
					"inputs": [
						{
							"internalType": "address",
							"name": "signer",
							"type": "address"
						},
						{
							"internalType": "string",
							"name": "vid",
							"type": "string"
						},
						{
							"internalType": "uint256",
							"name": "price",
							"type": "uint256"
						},
						{
							"internalType": "uint256",
							"name": "nonce",
							"type": "uint256"
						},
						{
							"internalType": "bytes",
							"name": "signature",
							"type": "bytes"
						}
					],
					"name": "verify",
					"outputs": [
						{
							"internalType": "bool",
							"name": "",
							"type": "bool"
						}
					],
					"stateMutability": "pure",
					"type": "function"
				}
			],
			"devdoc": {
				"kind": "dev",
				"methods": {},
				"version": 1
			},
			"evm": {
				"assembly": "    /* \"contracts/MyToken.sol\":58:3914  contract MyToken {... */\n  mstore(0x40, 0x80)\n    /* \"contracts/MyToken.sol\":287:337  constructor() {... */\n  callvalue\n  dup1\n  iszero\n  tag_1\n  jumpi\n  0x00\n  dup1\n  revert\ntag_1:\n  pop\n    /* \"contracts/MyToken.sol\":320:330  msg.sender */\n  caller\n    /* \"contracts/MyToken.sol\":311:317  _owner */\n  0x00\n  dup1\n    /* \"contracts/MyToken.sol\":311:330  _owner = msg.sender */\n  0x0100\n  exp\n  dup2\n  sload\n  dup2\n  0xffffffffffffffffffffffffffffffffffffffff\n  mul\n  not\n  and\n  swap1\n  dup4\n  0xffffffffffffffffffffffffffffffffffffffff\n  and\n  mul\n  or\n  swap1\n  sstore\n  pop\n    /* \"contracts/MyToken.sol\":58:3914  contract MyToken {... */\n  dataSize(sub_0)\n  dup1\n  dataOffset(sub_0)\n  0x00\n  codecopy\n  0x00\n  return\nstop\n\nsub_0: assembly {\n        /* \"contracts/MyToken.sol\":58:3914  contract MyToken {... */\n      mstore(0x40, 0x80)\n      jumpi(tag_1, lt(calldatasize, 0x04))\n      shr(0xe0, calldataload(0x00))\n      dup1\n      0x97aba7f9\n      gt\n      tag_13\n      jumpi\n      dup1\n      0x97aba7f9\n      eq\n      tag_7\n      jumpi\n      dup1\n      0xa41c51ac\n      eq\n      tag_8\n      jumpi\n      dup1\n      0xa7bb5803\n      eq\n      tag_9\n      jumpi\n      dup1\n      0xb3a63b20\n      eq\n      tag_10\n      jumpi\n      dup1\n      0xbc7a4a1a\n      eq\n      tag_11\n      jumpi\n      dup1\n      0xfa540801\n      eq\n      tag_12\n      jumpi\n      jump(tag_1)\n    tag_13:\n      dup1\n      0x4aaf4a12\n      eq\n      tag_2\n      jumpi\n      dup1\n      0x524f3889\n      eq\n      tag_3\n      jumpi\n      dup1\n      0x58b77985\n      eq\n      tag_4\n      jumpi\n      dup1\n      0x7003ea1c\n      eq\n      tag_5\n      jumpi\n      dup1\n      0x7db3a946\n      eq\n      tag_6\n      jumpi\n    tag_1:\n      0x00\n      dup1\n      revert\n        /* \"contracts/MyToken.sol\":1036:1154  function getOwner(string memory vid) public view videoExist(vid) returns(address) {... */\n    tag_2:\n      callvalue\n      dup1\n      iszero\n      tag_14\n      jumpi\n      0x00\n      dup1\n      revert\n    tag_14:\n      pop\n      tag_15\n      0x04\n      dup1\n      calldatasize\n      sub\n      dup2\n      add\n      swap1\n      tag_16\n      swap2\n      swap1\n      tag_17\n      jump\t// in\n    tag_16:\n      tag_18\n      jump\t// in\n    tag_15:\n      mload(0x40)\n      tag_19\n      swap2\n      swap1\n      tag_20\n      jump\t// in\n    tag_19:\n      mload(0x40)\n      dup1\n      swap2\n      sub\n      swap1\n      return\n        /* \"contracts/MyToken.sol\":912:1030  function getPrice(string memory vid) public view videoExist(vid) returns(uint256) {... */\n    tag_3:\n      callvalue\n      dup1\n      iszero\n      tag_21\n      jumpi\n      0x00\n      dup1\n      revert\n    tag_21:\n      pop\n      tag_22\n      0x04\n      dup1\n      calldatasize\n      sub\n      dup2\n      add\n      swap1\n      tag_23\n      swap2\n      swap1\n      tag_17\n      jump\t// in\n    tag_23:\n      tag_24\n      jump\t// in\n    tag_22:\n      mload(0x40)\n      tag_25\n      swap2\n      swap1\n      tag_26\n      jump\t// in\n    tag_25:\n      mload(0x40)\n      dup1\n      swap2\n      sub\n      swap1\n      return\n        /* \"contracts/MyToken.sol\":2417:2818  function verify(... */\n    tag_4:\n      callvalue\n      dup1\n      iszero\n      tag_27\n      jumpi\n      0x00\n      dup1\n      revert\n    tag_27:\n      pop\n      tag_28\n      0x04\n      dup1\n      calldatasize\n      sub\n      dup2\n      add\n      swap1\n      tag_29\n      swap2\n      swap1\n      tag_30\n      jump\t// in\n    tag_29:\n      tag_31\n      jump\t// in\n    tag_28:\n      mload(0x40)\n      tag_32\n      swap2\n      swap1\n      tag_33\n      jump\t// in\n    tag_32:\n      mload(0x40)\n      dup1\n      swap2\n      sub\n      swap1\n      return\n        /* \"contracts/MyToken.sol\":1791:2005  function getMessageHash(... */\n    tag_5:\n      callvalue\n      dup1\n      iszero\n      tag_34\n      jumpi\n      0x00\n      dup1\n      revert\n    tag_34:\n      pop\n      tag_35\n      0x04\n      dup1\n      calldatasize\n      sub\n      dup2\n      add\n      swap1\n      tag_36\n      swap2\n      swap1\n      tag_37\n      jump\t// in\n    tag_36:\n      tag_38\n      jump\t// in\n    tag_35:\n      mload(0x40)\n      tag_39\n      swap2\n      swap1\n      tag_40\n      jump\t// in\n    tag_39:\n      mload(0x40)\n      dup1\n      swap2\n      sub\n      swap1\n      return\n        /* \"contracts/MyToken.sol\":1705:1783  string constant public agreement = \"I agree to sign the contract at [address]\" */\n    tag_6:\n      callvalue\n      dup1\n      iszero\n      tag_41\n      jumpi\n      0x00\n      dup1\n      revert\n    tag_41:\n      pop\n      tag_42\n      tag_43\n      jump\t// in\n    tag_42:\n      mload(0x40)\n      tag_44\n      swap2\n      swap1\n      tag_45\n      jump\t// in\n    tag_44:\n      mload(0x40)\n      dup1\n      swap2\n      sub\n      swap1\n      return\n        /* \"contracts/MyToken.sol\":2824:3091  function recoverSigner(... */\n    tag_7:\n      callvalue\n      dup1\n      iszero\n      tag_46\n      jumpi\n      0x00\n      dup1\n      revert\n    tag_46:\n      pop\n      tag_47\n      0x04\n      dup1\n      calldatasize\n      sub\n      dup2\n      add\n      swap1\n      tag_48\n      swap2\n      swap1\n      tag_49\n      jump\t// in\n    tag_48:\n      tag_50\n      jump\t// in\n    tag_47:\n      mload(0x40)\n      tag_51\n      swap2\n      swap1\n      tag_20\n      jump\t// in\n    tag_51:\n      mload(0x40)\n      dup1\n      swap2\n      sub\n      swap1\n      return\n        /* \"contracts/MyToken.sol\":617:906  function addVideo(string memory vid, address payable creator, uint256 price) public onlyOwner {... */\n    tag_8:\n      callvalue\n      dup1\n      iszero\n      tag_52\n      jumpi\n      0x00\n      dup1\n      revert\n    tag_52:\n      pop\n      tag_53\n      0x04\n      dup1\n      calldatasize\n      sub\n      dup2\n      add\n      swap1\n      tag_54\n      swap2\n      swap1\n      tag_55\n      jump\t// in\n    tag_54:\n      tag_56\n      jump\t// in\n    tag_53:\n      stop\n        /* \"contracts/MyToken.sol\":3097:3912  function splitSignature(bytes memory sig)... */\n    tag_9:\n      callvalue\n      dup1\n      iszero\n      tag_57\n      jumpi\n      0x00\n      dup1\n      revert\n    tag_57:\n      pop\n      tag_58\n      0x04\n      dup1\n      calldatasize\n      sub\n      dup2\n      add\n      swap1\n      tag_59\n      swap2\n      swap1\n      tag_60\n      jump\t// in\n    tag_59:\n      tag_61\n      jump\t// in\n    tag_58:\n      mload(0x40)\n      tag_62\n      swap4\n      swap3\n      swap2\n      swap1\n      tag_63\n      jump\t// in\n    tag_62:\n      mload(0x40)\n      dup1\n      swap2\n      sub\n      swap1\n      return\n        /* \"contracts/MyToken.sol\":1200:1564  function buyVideo(string memory vid) public payable videoExist(vid) {... */\n    tag_10:\n      tag_64\n      0x04\n      dup1\n      calldatasize\n      sub\n      dup2\n      add\n      swap1\n      tag_65\n      swap2\n      swap1\n      tag_17\n      jump\t// in\n    tag_65:\n      tag_66\n      jump\t// in\n    tag_64:\n      stop\n        /* \"contracts/MyToken.sol\":1570:1699  function checkApproval(string memory vid, address payer) public view returns(bool) {... */\n    tag_11:\n      callvalue\n      dup1\n      iszero\n      tag_67\n      jumpi\n      0x00\n      dup1\n      revert\n    tag_67:\n      pop\n      tag_68\n      0x04\n      dup1\n      calldatasize\n      sub\n      dup2\n      add\n      swap1\n      tag_69\n      swap2\n      swap1\n      tag_70\n      jump\t// in\n    tag_69:\n      tag_71\n      jump\t// in\n    tag_68:\n      mload(0x40)\n      tag_72\n      swap2\n      swap1\n      tag_33\n      jump\t// in\n    tag_72:\n      mload(0x40)\n      dup1\n      swap2\n      sub\n      swap1\n      return\n        /* \"contracts/MyToken.sol\":2011:2411  function getEthSignedMessageHash(bytes32 _messageHash)... */\n    tag_12:\n      callvalue\n      dup1\n      iszero\n      tag_73\n      jumpi\n      0x00\n      dup1\n      revert\n    tag_73:\n      pop\n      tag_74\n      0x04\n      dup1\n      calldatasize\n      sub\n      dup2\n      add\n      swap1\n      tag_75\n      swap2\n      swap1\n      tag_76\n      jump\t// in\n    tag_75:\n      tag_77\n      jump\t// in\n    tag_74:\n      mload(0x40)\n      tag_78\n      swap2\n      swap1\n      tag_40\n      jump\t// in\n    tag_78:\n      mload(0x40)\n      dup1\n      swap2\n      sub\n      swap1\n      return\n        /* \"contracts/MyToken.sol\":1036:1154  function getOwner(string memory vid) public view videoExist(vid) returns(address) {... */\n    tag_18:\n        /* \"contracts/MyToken.sol\":1109:1116  address */\n      0x00\n        /* \"contracts/MyToken.sol\":1096:1099  vid */\n      dup2\n        /* \"contracts/MyToken.sol\":527:528  0 */\n      0x00\n        /* \"contracts/MyToken.sol\":512:519  _prices */\n      0x02\n        /* \"contracts/MyToken.sol\":520:523  vid */\n      dup3\n        /* \"contracts/MyToken.sol\":512:524  _prices[vid] */\n      mload(0x40)\n      tag_80\n      swap2\n      swap1\n      tag_81\n      jump\t// in\n    tag_80:\n      swap1\n      dup2\n      mstore\n      0x20\n      add\n      mload(0x40)\n      dup1\n      swap2\n      sub\n      swap1\n      keccak256\n      sload\n        /* \"contracts/MyToken.sol\":512:528  _prices[vid] > 0 */\n      gt\n        /* \"contracts/MyToken.sol\":504:552  require(_prices[vid] > 0, \"video doesn't exist\") */\n      tag_82\n      jumpi\n      mload(0x40)\n      0x08c379a000000000000000000000000000000000000000000000000000000000\n      dup2\n      mstore\n      0x04\n      add\n      tag_83\n      swap1\n      tag_84\n      jump\t// in\n    tag_83:\n      mload(0x40)\n      dup1\n      swap2\n      sub\n      swap1\n      revert\n    tag_82:\n        /* \"contracts/MyToken.sol\":1135:1142  _owners */\n      0x01\n        /* \"contracts/MyToken.sol\":1143:1146  vid */\n      dup4\n        /* \"contracts/MyToken.sol\":1135:1147  _owners[vid] */\n      mload(0x40)\n      tag_86\n      swap2\n      swap1\n      tag_81\n      jump\t// in\n    tag_86:\n      swap1\n      dup2\n      mstore\n      0x20\n      add\n      mload(0x40)\n      dup1\n      swap2\n      sub\n      swap1\n      keccak256\n      0x00\n      swap1\n      sload\n      swap1\n      0x0100\n      exp\n      swap1\n      div\n      0xffffffffffffffffffffffffffffffffffffffff\n      and\n        /* \"contracts/MyToken.sol\":1128:1147  return _owners[vid] */\n      swap2\n      pop\n        /* \"contracts/MyToken.sol\":1036:1154  function getOwner(string memory vid) public view videoExist(vid) returns(address) {... */\n      pop\n      swap2\n      swap1\n      pop\n      jump\t// out\n        /* \"contracts/MyToken.sol\":912:1030  function getPrice(string memory vid) public view videoExist(vid) returns(uint256) {... */\n    tag_24:\n        /* \"contracts/MyToken.sol\":985:992  uint256 */\n      0x00\n        /* \"contracts/MyToken.sol\":972:975  vid */\n      dup2\n        /* \"contracts/MyToken.sol\":527:528  0 */\n      0x00\n        /* \"contracts/MyToken.sol\":512:519  _prices */\n      0x02\n        /* \"contracts/MyToken.sol\":520:523  vid */\n      dup3\n        /* \"contracts/MyToken.sol\":512:524  _prices[vid] */\n      mload(0x40)\n      tag_88\n      swap2\n      swap1\n      tag_81\n      jump\t// in\n    tag_88:\n      swap1\n      dup2\n      mstore\n      0x20\n      add\n      mload(0x40)\n      dup1\n      swap2\n      sub\n      swap1\n      keccak256\n      sload\n        /* \"contracts/MyToken.sol\":512:528  _prices[vid] > 0 */\n      gt\n        /* \"contracts/MyToken.sol\":504:552  require(_prices[vid] > 0, \"video doesn't exist\") */\n      tag_89\n      jumpi\n      mload(0x40)\n      0x08c379a000000000000000000000000000000000000000000000000000000000\n      dup2\n      mstore\n      0x04\n      add\n      tag_90\n      swap1\n      tag_84\n      jump\t// in\n    tag_90:\n      mload(0x40)\n      dup1\n      swap2\n      sub\n      swap1\n      revert\n    tag_89:\n        /* \"contracts/MyToken.sol\":1011:1018  _prices */\n      0x02\n        /* \"contracts/MyToken.sol\":1019:1022  vid */\n      dup4\n        /* \"contracts/MyToken.sol\":1011:1023  _prices[vid] */\n      mload(0x40)\n      tag_92\n      swap2\n      swap1\n      tag_81\n      jump\t// in\n    tag_92:\n      swap1\n      dup2\n      mstore\n      0x20\n      add\n      mload(0x40)\n      dup1\n      swap2\n      sub\n      swap1\n      keccak256\n      sload\n        /* \"contracts/MyToken.sol\":1004:1023  return _prices[vid] */\n      swap2\n      pop\n        /* \"contracts/MyToken.sol\":912:1030  function getPrice(string memory vid) public view videoExist(vid) returns(uint256) {... */\n      pop\n      swap2\n      swap1\n      pop\n      jump\t// out\n        /* \"contracts/MyToken.sol\":2417:2818  function verify(... */\n    tag_31:\n        /* \"contracts/MyToken.sol\":2589:2593  bool */\n      0x00\n        /* \"contracts/MyToken.sol\":2605:2624  bytes32 messageHash */\n      dup1\n        /* \"contracts/MyToken.sol\":2627:2660  getMessageHash(vid, price, nonce) */\n      tag_94\n        /* \"contracts/MyToken.sol\":2642:2645  vid */\n      dup7\n        /* \"contracts/MyToken.sol\":2647:2652  price */\n      dup7\n        /* \"contracts/MyToken.sol\":2654:2659  nonce */\n      dup7\n        /* \"contracts/MyToken.sol\":2627:2641  getMessageHash */\n      tag_38\n        /* \"contracts/MyToken.sol\":2627:2660  getMessageHash(vid, price, nonce) */\n      jump\t// in\n    tag_94:\n        /* \"contracts/MyToken.sol\":2605:2660  bytes32 messageHash = getMessageHash(vid, price, nonce) */\n      swap1\n      pop\n        /* \"contracts/MyToken.sol\":2670:2698  bytes32 ethSignedMessageHash */\n      0x00\n        /* \"contracts/MyToken.sol\":2701:2737  getEthSignedMessageHash(messageHash) */\n      tag_95\n        /* \"contracts/MyToken.sol\":2725:2736  messageHash */\n      dup3\n        /* \"contracts/MyToken.sol\":2701:2724  getEthSignedMessageHash */\n      tag_77\n        /* \"contracts/MyToken.sol\":2701:2737  getEthSignedMessageHash(messageHash) */\n      jump\t// in\n    tag_95:\n        /* \"contracts/MyToken.sol\":2670:2737  bytes32 ethSignedMessageHash = getEthSignedMessageHash(messageHash) */\n      swap1\n      pop\n        /* \"contracts/MyToken.sol\":2805:2811  signer */\n      dup8\n        /* \"contracts/MyToken.sol\":2755:2811  recoverSigner(ethSignedMessageHash, signature) == signer */\n      0xffffffffffffffffffffffffffffffffffffffff\n      and\n        /* \"contracts/MyToken.sol\":2755:2801  recoverSigner(ethSignedMessageHash, signature) */\n      tag_96\n        /* \"contracts/MyToken.sol\":2769:2789  ethSignedMessageHash */\n      dup3\n        /* \"contracts/MyToken.sol\":2791:2800  signature */\n      dup7\n        /* \"contracts/MyToken.sol\":2755:2768  recoverSigner */\n      tag_50\n        /* \"contracts/MyToken.sol\":2755:2801  recoverSigner(ethSignedMessageHash, signature) */\n      jump\t// in\n    tag_96:\n        /* \"contracts/MyToken.sol\":2755:2811  recoverSigner(ethSignedMessageHash, signature) == signer */\n      0xffffffffffffffffffffffffffffffffffffffff\n      and\n      eq\n        /* \"contracts/MyToken.sol\":2748:2811  return recoverSigner(ethSignedMessageHash, signature) == signer */\n      swap3\n      pop\n      pop\n      pop\n        /* \"contracts/MyToken.sol\":2417:2818  function verify(... */\n      swap6\n      swap5\n      pop\n      pop\n      pop\n      pop\n      pop\n      jump\t// out\n        /* \"contracts/MyToken.sol\":1791:2005  function getMessageHash(... */\n    tag_38:\n        /* \"contracts/MyToken.sol\":1915:1922  bytes32 */\n      0x00\n        /* \"contracts/MyToken.sol\":1968:1971  vid */\n      dup4\n        /* \"contracts/MyToken.sol\":1973:1978  price */\n      dup4\n        /* \"contracts/MyToken.sol\":1980:1989  agreement */\n      mload(0x40)\n      dup1\n      0x60\n      add\n      0x40\n      mstore\n      dup1\n      0x29\n      dup2\n      mstore\n      0x20\n      add\n      data_5e345429bcb605cb5de65533de0a747fab0d925fdd1ff1bf2e9897f50d4ccc9e\n      0x29\n      swap2\n      codecopy\n        /* \"contracts/MyToken.sol\":1991:1996  nonce */\n      dup5\n        /* \"contracts/MyToken.sol\":1951:1997  abi.encodePacked(vid, price, agreement, nonce) */\n      add(0x20, mload(0x40))\n      tag_98\n      swap5\n      swap4\n      swap3\n      swap2\n      swap1\n      tag_99\n      jump\t// in\n    tag_98:\n      mload(0x40)\n      0x20\n      dup2\n      dup4\n      sub\n      sub\n      dup2\n      mstore\n      swap1\n      0x40\n      mstore\n        /* \"contracts/MyToken.sol\":1941:1998  keccak256(abi.encodePacked(vid, price, agreement, nonce)) */\n      dup1\n      mload\n      swap1\n      0x20\n      add\n      keccak256\n        /* \"contracts/MyToken.sol\":1934:1998  return keccak256(abi.encodePacked(vid, price, agreement, nonce)) */\n      swap1\n      pop\n        /* \"contracts/MyToken.sol\":1791:2005  function getMessageHash(... */\n      swap4\n      swap3\n      pop\n      pop\n      pop\n      jump\t// out\n        /* \"contracts/MyToken.sol\":1705:1783  string constant public agreement = \"I agree to sign the contract at [address]\" */\n    tag_43:\n      mload(0x40)\n      dup1\n      0x60\n      add\n      0x40\n      mstore\n      dup1\n      0x29\n      dup2\n      mstore\n      0x20\n      add\n      data_5e345429bcb605cb5de65533de0a747fab0d925fdd1ff1bf2e9897f50d4ccc9e\n      0x29\n      swap2\n      codecopy\n      dup2\n      jump\t// out\n        /* \"contracts/MyToken.sol\":2824:3091  function recoverSigner(... */\n    tag_50:\n        /* \"contracts/MyToken.sol\":2946:2953  address */\n      0x00\n        /* \"contracts/MyToken.sol\":2966:2975  bytes32 r */\n      dup1\n        /* \"contracts/MyToken.sol\":2977:2986  bytes32 s */\n      0x00\n        /* \"contracts/MyToken.sol\":2988:2995  uint8 v */\n      dup1\n        /* \"contracts/MyToken.sol\":2999:3025  splitSignature(_signature) */\n      tag_101\n        /* \"contracts/MyToken.sol\":3014:3024  _signature */\n      dup6\n        /* \"contracts/MyToken.sol\":2999:3013  splitSignature */\n      tag_61\n        /* \"contracts/MyToken.sol\":2999:3025  splitSignature(_signature) */\n      jump\t// in\n    tag_101:\n        /* \"contracts/MyToken.sol\":2965:3025  (bytes32 r, bytes32 s, uint8 v) = splitSignature(_signature) */\n      swap3\n      pop\n      swap3\n      pop\n      swap3\n      pop\n        /* \"contracts/MyToken.sol\":3043:3084  ecrecover(_ethSignedMessageHash, v, r, s) */\n      0x01\n        /* \"contracts/MyToken.sol\":3053:3074  _ethSignedMessageHash */\n      dup7\n        /* \"contracts/MyToken.sol\":3076:3077  v */\n      dup3\n        /* \"contracts/MyToken.sol\":3079:3080  r */\n      dup6\n        /* \"contracts/MyToken.sol\":3082:3083  s */\n      dup6\n        /* \"contracts/MyToken.sol\":3043:3084  ecrecover(_ethSignedMessageHash, v, r, s) */\n      mload(0x40)\n      0x00\n      dup2\n      mstore\n      0x20\n      add\n      0x40\n      mstore\n      mload(0x40)\n      tag_102\n      swap5\n      swap4\n      swap3\n      swap2\n      swap1\n      tag_103\n      jump\t// in\n    tag_102:\n      0x20\n      mload(0x40)\n      0x20\n      dup2\n      sub\n      swap1\n      dup1\n      dup5\n      sub\n      swap1\n      dup6\n      gas\n      staticcall\n      iszero\n      dup1\n      iszero\n      tag_105\n      jumpi\n      returndatasize\n      0x00\n      dup1\n      returndatacopy\n      revert(0x00, returndatasize)\n    tag_105:\n      pop\n      pop\n      pop\n      mload(sub(mload(0x40), 0x20))\n        /* \"contracts/MyToken.sol\":3036:3084  return ecrecover(_ethSignedMessageHash, v, r, s) */\n      swap4\n      pop\n      pop\n      pop\n      pop\n        /* \"contracts/MyToken.sol\":2824:3091  function recoverSigner(... */\n      swap3\n      swap2\n      pop\n      pop\n      jump\t// out\n        /* \"contracts/MyToken.sol\":617:906  function addVideo(string memory vid, address payable creator, uint256 price) public onlyOwner {... */\n    tag_56:\n        /* \"contracts/MyToken.sol\":390:400  msg.sender */\n      caller\n        /* \"contracts/MyToken.sol\":380:400  _owner == msg.sender */\n      0xffffffffffffffffffffffffffffffffffffffff\n      and\n        /* \"contracts/MyToken.sol\":380:386  _owner */\n      0x00\n      dup1\n      sload\n      swap1\n      0x0100\n      exp\n      swap1\n      div\n      0xffffffffffffffffffffffffffffffffffffffff\n      and\n        /* \"contracts/MyToken.sol\":380:400  _owner == msg.sender */\n      0xffffffffffffffffffffffffffffffffffffffff\n      and\n      eq\n        /* \"contracts/MyToken.sol\":372:422  require(_owner == msg.sender, \"owner access only\") */\n      tag_107\n      jumpi\n      mload(0x40)\n      0x08c379a000000000000000000000000000000000000000000000000000000000\n      dup2\n      mstore\n      0x04\n      add\n      tag_108\n      swap1\n      tag_109\n      jump\t// in\n    tag_108:\n      mload(0x40)\n      dup1\n      swap2\n      sub\n      swap1\n      revert\n    tag_107:\n        /* \"contracts/MyToken.sol\":745:746  0 */\n      0x00\n        /* \"contracts/MyToken.sol\":729:736  _prices */\n      0x02\n        /* \"contracts/MyToken.sol\":737:740  vid */\n      dup5\n        /* \"contracts/MyToken.sol\":729:741  _prices[vid] */\n      mload(0x40)\n      tag_111\n      swap2\n      swap1\n      tag_81\n      jump\t// in\n    tag_111:\n      swap1\n      dup2\n      mstore\n      0x20\n      add\n      mload(0x40)\n      dup1\n      swap2\n      sub\n      swap1\n      keccak256\n      sload\n        /* \"contracts/MyToken.sol\":729:746  _prices[vid] == 0 */\n      eq\n        /* \"contracts/MyToken.sol\":721:770  require(_prices[vid] == 0, \"video already exist\") */\n      tag_112\n      jumpi\n      mload(0x40)\n      0x08c379a000000000000000000000000000000000000000000000000000000000\n      dup2\n      mstore\n      0x04\n      add\n      tag_113\n      swap1\n      tag_114\n      jump\t// in\n    tag_113:\n      mload(0x40)\n      dup1\n      swap2\n      sub\n      swap1\n      revert\n    tag_112:\n        /* \"contracts/MyToken.sol\":796:797  0 */\n      0x00\n        /* \"contracts/MyToken.sol\":788:793  price */\n      dup2\n        /* \"contracts/MyToken.sol\":788:797  price > 0 */\n      gt\n        /* \"contracts/MyToken.sol\":780:836  require(price > 0, \"price should be greater than 0 wei\") */\n      tag_115\n      jumpi\n      mload(0x40)\n      0x08c379a000000000000000000000000000000000000000000000000000000000\n      dup2\n      mstore\n      0x04\n      add\n      tag_116\n      swap1\n      tag_117\n      jump\t// in\n    tag_116:\n      mload(0x40)\n      dup1\n      swap2\n      sub\n      swap1\n      revert\n    tag_115:\n        /* \"contracts/MyToken.sol\":862:869  creator */\n      dup2\n        /* \"contracts/MyToken.sol\":847:854  _owners */\n      0x01\n        /* \"contracts/MyToken.sol\":855:858  vid */\n      dup5\n        /* \"contracts/MyToken.sol\":847:859  _owners[vid] */\n      mload(0x40)\n      tag_118\n      swap2\n      swap1\n      tag_81\n      jump\t// in\n    tag_118:\n      swap1\n      dup2\n      mstore\n      0x20\n      add\n      mload(0x40)\n      dup1\n      swap2\n      sub\n      swap1\n      keccak256\n      0x00\n        /* \"contracts/MyToken.sol\":847:869  _owners[vid] = creator */\n      0x0100\n      exp\n      dup2\n      sload\n      dup2\n      0xffffffffffffffffffffffffffffffffffffffff\n      mul\n      not\n      and\n      swap1\n      dup4\n      0xffffffffffffffffffffffffffffffffffffffff\n      and\n      mul\n      or\n      swap1\n      sstore\n      pop\n        /* \"contracts/MyToken.sol\":894:899  price */\n      dup1\n        /* \"contracts/MyToken.sol\":879:886  _prices */\n      0x02\n        /* \"contracts/MyToken.sol\":887:890  vid */\n      dup5\n        /* \"contracts/MyToken.sol\":879:891  _prices[vid] */\n      mload(0x40)\n      tag_119\n      swap2\n      swap1\n      tag_81\n      jump\t// in\n    tag_119:\n      swap1\n      dup2\n      mstore\n      0x20\n      add\n      mload(0x40)\n      dup1\n      swap2\n      sub\n      swap1\n      keccak256\n        /* \"contracts/MyToken.sol\":879:899  _prices[vid] = price */\n      dup2\n      swap1\n      sstore\n      pop\n        /* \"contracts/MyToken.sol\":617:906  function addVideo(string memory vid, address payable creator, uint256 price) public onlyOwner {... */\n      pop\n      pop\n      pop\n      jump\t// out\n        /* \"contracts/MyToken.sol\":3097:3912  function splitSignature(bytes memory sig)... */\n    tag_61:\n        /* \"contracts/MyToken.sol\":3184:3193  bytes32 r */\n      0x00\n        /* \"contracts/MyToken.sol\":3195:3204  bytes32 s */\n      dup1\n        /* \"contracts/MyToken.sol\":3206:3213  uint8 v */\n      0x00\n        /* \"contracts/MyToken.sol\":3251:3253  65 */\n      0x41\n        /* \"contracts/MyToken.sol\":3237:3240  sig */\n      dup5\n        /* \"contracts/MyToken.sol\":3237:3247  sig.length */\n      mload\n        /* \"contracts/MyToken.sol\":3237:3253  sig.length == 65 */\n      eq\n        /* \"contracts/MyToken.sol\":3229:3282  require(sig.length == 65, \"invalid signature length\") */\n      tag_121\n      jumpi\n      mload(0x40)\n      0x08c379a000000000000000000000000000000000000000000000000000000000\n      dup2\n      mstore\n      0x04\n      add\n      tag_122\n      swap1\n      tag_123\n      jump\t// in\n    tag_122:\n      mload(0x40)\n      dup1\n      swap2\n      sub\n      swap1\n      revert\n    tag_121:\n        /* \"contracts/MyToken.sol\":3678:3680  32 */\n      0x20\n        /* \"contracts/MyToken.sol\":3673:3676  sig */\n      dup5\n        /* \"contracts/MyToken.sol\":3669:3681  add(sig, 32) */\n      add\n        /* \"contracts/MyToken.sol\":3663:3682  mload(add(sig, 32)) */\n      mload\n        /* \"contracts/MyToken.sol\":3658:3682  r := mload(add(sig, 32)) */\n      swap3\n      pop\n        /* \"contracts/MyToken.sol\":3746:3748  64 */\n      0x40\n        /* \"contracts/MyToken.sol\":3741:3744  sig */\n      dup5\n        /* \"contracts/MyToken.sol\":3737:3749  add(sig, 64) */\n      add\n        /* \"contracts/MyToken.sol\":3731:3750  mload(add(sig, 64)) */\n      mload\n        /* \"contracts/MyToken.sol\":3726:3750  s := mload(add(sig, 64)) */\n      swap2\n      pop\n        /* \"contracts/MyToken.sol\":3851:3853  96 */\n      0x60\n        /* \"contracts/MyToken.sol\":3846:3849  sig */\n      dup5\n        /* \"contracts/MyToken.sol\":3842:3854  add(sig, 96) */\n      add\n        /* \"contracts/MyToken.sol\":3836:3855  mload(add(sig, 96)) */\n      mload\n        /* \"contracts/MyToken.sol\":3833:3834  0 */\n      0x00\n        /* \"contracts/MyToken.sol\":3828:3856  byte(0, mload(add(sig, 96))) */\n      byte\n        /* \"contracts/MyToken.sol\":3823:3856  v := byte(0, mload(add(sig, 96))) */\n      swap1\n      pop\n        /* \"contracts/MyToken.sol\":3097:3912  function splitSignature(bytes memory sig)... */\n      swap2\n      swap4\n      swap1\n      swap3\n      pop\n      jump\t// out\n        /* \"contracts/MyToken.sol\":1200:1564  function buyVideo(string memory vid) public payable videoExist(vid) {... */\n    tag_66:\n        /* \"contracts/MyToken.sol\":1263:1266  vid */\n      dup1\n        /* \"contracts/MyToken.sol\":527:528  0 */\n      0x00\n        /* \"contracts/MyToken.sol\":512:519  _prices */\n      0x02\n        /* \"contracts/MyToken.sol\":520:523  vid */\n      dup3\n        /* \"contracts/MyToken.sol\":512:524  _prices[vid] */\n      mload(0x40)\n      tag_125\n      swap2\n      swap1\n      tag_81\n      jump\t// in\n    tag_125:\n      swap1\n      dup2\n      mstore\n      0x20\n      add\n      mload(0x40)\n      dup1\n      swap2\n      sub\n      swap1\n      keccak256\n      sload\n        /* \"contracts/MyToken.sol\":512:528  _prices[vid] > 0 */\n      gt\n        /* \"contracts/MyToken.sol\":504:552  require(_prices[vid] > 0, \"video doesn't exist\") */\n      tag_126\n      jumpi\n      mload(0x40)\n      0x08c379a000000000000000000000000000000000000000000000000000000000\n      dup2\n      mstore\n      0x04\n      add\n      tag_127\n      swap1\n      tag_84\n      jump\t// in\n    tag_127:\n      mload(0x40)\n      dup1\n      swap2\n      sub\n      swap1\n      revert\n    tag_126:\n        /* \"contracts/MyToken.sol\":1299:1306  _prices */\n      0x02\n        /* \"contracts/MyToken.sol\":1307:1310  vid */\n      dup3\n        /* \"contracts/MyToken.sol\":1299:1311  _prices[vid] */\n      mload(0x40)\n      tag_129\n      swap2\n      swap1\n      tag_81\n      jump\t// in\n    tag_129:\n      swap1\n      dup2\n      mstore\n      0x20\n      add\n      mload(0x40)\n      dup1\n      swap2\n      sub\n      swap1\n      keccak256\n      sload\n        /* \"contracts/MyToken.sol\":1286:1295  msg.value */\n      callvalue\n        /* \"contracts/MyToken.sol\":1286:1311  msg.value >= _prices[vid] */\n      lt\n      iszero\n        /* \"contracts/MyToken.sol\":1278:1332  require(msg.value >= _prices[vid], \"not enough ether\") */\n      tag_130\n      jumpi\n      mload(0x40)\n      0x08c379a000000000000000000000000000000000000000000000000000000000\n      dup2\n      mstore\n      0x04\n      add\n      tag_131\n      swap1\n      tag_132\n      jump\t// in\n    tag_131:\n      mload(0x40)\n      dup1\n      swap2\n      sub\n      swap1\n      revert\n    tag_130:\n        /* \"contracts/MyToken.sol\":1343:1356  uint256 price */\n      0x00\n        /* \"contracts/MyToken.sol\":1359:1366  _prices */\n      0x02\n        /* \"contracts/MyToken.sol\":1367:1370  vid */\n      dup4\n        /* \"contracts/MyToken.sol\":1359:1371  _prices[vid] */\n      mload(0x40)\n      tag_133\n      swap2\n      swap1\n      tag_81\n      jump\t// in\n    tag_133:\n      swap1\n      dup2\n      mstore\n      0x20\n      add\n      mload(0x40)\n      dup1\n      swap2\n      sub\n      swap1\n      keccak256\n      sload\n        /* \"contracts/MyToken.sol\":1343:1371  uint256 price = _prices[vid] */\n      swap1\n      pop\n        /* \"contracts/MyToken.sol\":1381:1399  address payable to */\n      0x00\n        /* \"contracts/MyToken.sol\":1402:1409  _owners */\n      0x01\n        /* \"contracts/MyToken.sol\":1410:1413  vid */\n      dup5\n        /* \"contracts/MyToken.sol\":1402:1414  _owners[vid] */\n      mload(0x40)\n      tag_134\n      swap2\n      swap1\n      tag_81\n      jump\t// in\n    tag_134:\n      swap1\n      dup2\n      mstore\n      0x20\n      add\n      mload(0x40)\n      dup1\n      swap2\n      sub\n      swap1\n      keccak256\n      0x00\n      swap1\n      sload\n      swap1\n      0x0100\n      exp\n      swap1\n      div\n      0xffffffffffffffffffffffffffffffffffffffff\n      and\n        /* \"contracts/MyToken.sol\":1381:1414  address payable to = _owners[vid] */\n      swap1\n      pop\n        /* \"contracts/MyToken.sol\":1425:1434  bool sent */\n      0x00\n        /* \"contracts/MyToken.sol\":1440:1442  to */\n      dup2\n        /* \"contracts/MyToken.sol\":1440:1447  to.call */\n      0xffffffffffffffffffffffffffffffffffffffff\n      and\n        /* \"contracts/MyToken.sol\":1455:1460  price */\n      dup4\n        /* \"contracts/MyToken.sol\":1440:1465  to.call{value: price}(\"\") */\n      mload(0x40)\n      tag_135\n      swap1\n      tag_136\n      jump\t// in\n    tag_135:\n      0x00\n      mload(0x40)\n      dup1\n      dup4\n      sub\n      dup2\n      dup6\n      dup8\n      gas\n      call\n      swap3\n      pop\n      pop\n      pop\n      returndatasize\n      dup1\n      0x00\n      dup2\n      eq\n      tag_139\n      jumpi\n      mload(0x40)\n      swap2\n      pop\n      and(add(returndatasize, 0x3f), not(0x1f))\n      dup3\n      add\n      0x40\n      mstore\n      returndatasize\n      dup3\n      mstore\n      returndatasize\n      0x00\n      0x20\n      dup5\n      add\n      returndatacopy\n      jump(tag_138)\n    tag_139:\n      0x60\n      swap2\n      pop\n    tag_138:\n      pop\n        /* \"contracts/MyToken.sol\":1424:1465  (bool sent, ) = to.call{value: price}(\"\") */\n      pop\n      swap1\n      pop\n        /* \"contracts/MyToken.sol\":1483:1487  sent */\n      dup1\n        /* \"contracts/MyToken.sol\":1475:1512  require(sent, \"failed to send ether\") */\n      tag_140\n      jumpi\n      mload(0x40)\n      0x08c379a000000000000000000000000000000000000000000000000000000000\n      dup2\n      mstore\n      0x04\n      add\n      tag_141\n      swap1\n      tag_142\n      jump\t// in\n    tag_141:\n      mload(0x40)\n      dup1\n      swap2\n      sub\n      swap1\n      revert\n    tag_140:\n        /* \"contracts/MyToken.sol\":1553:1557  true */\n      0x01\n        /* \"contracts/MyToken.sol\":1523:1533  _approvals */\n      0x03\n        /* \"contracts/MyToken.sol\":1534:1537  vid */\n      dup7\n        /* \"contracts/MyToken.sol\":1523:1538  _approvals[vid] */\n      mload(0x40)\n      tag_143\n      swap2\n      swap1\n      tag_81\n      jump\t// in\n    tag_143:\n      swap1\n      dup2\n      mstore\n      0x20\n      add\n      mload(0x40)\n      dup1\n      swap2\n      sub\n      swap1\n      keccak256\n        /* \"contracts/MyToken.sol\":1523:1550  _approvals[vid][msg.sender] */\n      0x00\n        /* \"contracts/MyToken.sol\":1539:1549  msg.sender */\n      caller\n        /* \"contracts/MyToken.sol\":1523:1550  _approvals[vid][msg.sender] */\n      0xffffffffffffffffffffffffffffffffffffffff\n      and\n      0xffffffffffffffffffffffffffffffffffffffff\n      and\n      dup2\n      mstore\n      0x20\n      add\n      swap1\n      dup2\n      mstore\n      0x20\n      add\n      0x00\n      keccak256\n      0x00\n        /* \"contracts/MyToken.sol\":1523:1557  _approvals[vid][msg.sender] = true */\n      0x0100\n      exp\n      dup2\n      sload\n      dup2\n      0xff\n      mul\n      not\n      and\n      swap1\n      dup4\n      iszero\n      iszero\n      mul\n      or\n      swap1\n      sstore\n      pop\n        /* \"contracts/MyToken.sol\":1268:1564  {... */\n      pop\n      pop\n      pop\n        /* \"contracts/MyToken.sol\":1200:1564  function buyVideo(string memory vid) public payable videoExist(vid) {... */\n      pop\n      pop\n      jump\t// out\n        /* \"contracts/MyToken.sol\":1570:1699  function checkApproval(string memory vid, address payer) public view returns(bool) {... */\n    tag_71:\n        /* \"contracts/MyToken.sol\":1647:1651  bool */\n      0x00\n        /* \"contracts/MyToken.sol\":1670:1680  _approvals */\n      0x03\n        /* \"contracts/MyToken.sol\":1681:1684  vid */\n      dup4\n        /* \"contracts/MyToken.sol\":1670:1685  _approvals[vid] */\n      mload(0x40)\n      tag_145\n      swap2\n      swap1\n      tag_81\n      jump\t// in\n    tag_145:\n      swap1\n      dup2\n      mstore\n      0x20\n      add\n      mload(0x40)\n      dup1\n      swap2\n      sub\n      swap1\n      keccak256\n        /* \"contracts/MyToken.sol\":1670:1692  _approvals[vid][payer] */\n      0x00\n        /* \"contracts/MyToken.sol\":1686:1691  payer */\n      dup4\n        /* \"contracts/MyToken.sol\":1670:1692  _approvals[vid][payer] */\n      0xffffffffffffffffffffffffffffffffffffffff\n      and\n      0xffffffffffffffffffffffffffffffffffffffff\n      and\n      dup2\n      mstore\n      0x20\n      add\n      swap1\n      dup2\n      mstore\n      0x20\n      add\n      0x00\n      keccak256\n      0x00\n      swap1\n      sload\n      swap1\n      0x0100\n      exp\n      swap1\n      div\n      0xff\n      and\n        /* \"contracts/MyToken.sol\":1663:1692  return _approvals[vid][payer] */\n      swap1\n      pop\n        /* \"contracts/MyToken.sol\":1570:1699  function checkApproval(string memory vid, address payer) public view returns(bool) {... */\n      swap3\n      swap2\n      pop\n      pop\n      jump\t// out\n        /* \"contracts/MyToken.sol\":2011:2411  function getEthSignedMessageHash(bytes32 _messageHash)... */\n    tag_77:\n        /* \"contracts/MyToken.sol\":2111:2118  bytes32 */\n      0x00\n        /* \"contracts/MyToken.sol\":2381:2393  _messageHash */\n      dup2\n        /* \"contracts/MyToken.sol\":2328:2394  abi.encodePacked(\"\\x19Ethereum Signed Message:\\n32\", _messageHash) */\n      add(0x20, mload(0x40))\n      tag_147\n      swap2\n      swap1\n      tag_148\n      jump\t// in\n    tag_147:\n      mload(0x40)\n      0x20\n      dup2\n      dup4\n      sub\n      sub\n      dup2\n      mstore\n      swap1\n      0x40\n      mstore\n        /* \"contracts/MyToken.sol\":2305:2404  keccak256(... */\n      dup1\n      mload\n      swap1\n      0x20\n      add\n      keccak256\n        /* \"contracts/MyToken.sol\":2298:2404  return keccak256(... */\n      swap1\n      pop\n        /* \"contracts/MyToken.sol\":2011:2411  function getEthSignedMessageHash(bytes32 _messageHash)... */\n      swap2\n      swap1\n      pop\n      jump\t// out\n        /* \"#utility.yul\":7:82   */\n    tag_149:\n        /* \"#utility.yul\":40:46   */\n      0x00\n        /* \"#utility.yul\":73:75   */\n      0x40\n        /* \"#utility.yul\":67:76   */\n      mload\n        /* \"#utility.yul\":57:76   */\n      swap1\n      pop\n        /* \"#utility.yul\":7:82   */\n      swap1\n      jump\t// out\n        /* \"#utility.yul\":88:205   */\n    tag_150:\n        /* \"#utility.yul\":197:198   */\n      0x00\n        /* \"#utility.yul\":194:195   */\n      dup1\n        /* \"#utility.yul\":187:199   */\n      revert\n        /* \"#utility.yul\":211:328   */\n    tag_151:\n        /* \"#utility.yul\":320:321   */\n      0x00\n        /* \"#utility.yul\":317:318   */\n      dup1\n        /* \"#utility.yul\":310:322   */\n      revert\n        /* \"#utility.yul\":334:451   */\n    tag_152:\n        /* \"#utility.yul\":443:444   */\n      0x00\n        /* \"#utility.yul\":440:441   */\n      dup1\n        /* \"#utility.yul\":433:445   */\n      revert\n        /* \"#utility.yul\":457:574   */\n    tag_153:\n        /* \"#utility.yul\":566:567   */\n      0x00\n        /* \"#utility.yul\":563:564   */\n      dup1\n        /* \"#utility.yul\":556:568   */\n      revert\n        /* \"#utility.yul\":580:682   */\n    tag_154:\n        /* \"#utility.yul\":621:627   */\n      0x00\n        /* \"#utility.yul\":672:674   */\n      0x1f\n        /* \"#utility.yul\":668:675   */\n      not\n        /* \"#utility.yul\":663:665   */\n      0x1f\n        /* \"#utility.yul\":656:661   */\n      dup4\n        /* \"#utility.yul\":652:666   */\n      add\n        /* \"#utility.yul\":648:676   */\n      and\n        /* \"#utility.yul\":638:676   */\n      swap1\n      pop\n        /* \"#utility.yul\":580:682   */\n      swap2\n      swap1\n      pop\n      jump\t// out\n        /* \"#utility.yul\":688:868   */\n    tag_155:\n        /* \"#utility.yul\":736:813   */\n      0x4e487b7100000000000000000000000000000000000000000000000000000000\n        /* \"#utility.yul\":733:734   */\n      0x00\n        /* \"#utility.yul\":726:814   */\n      mstore\n        /* \"#utility.yul\":833:837   */\n      0x41\n        /* \"#utility.yul\":830:831   */\n      0x04\n        /* \"#utility.yul\":823:838   */\n      mstore\n        /* \"#utility.yul\":857:861   */\n      0x24\n        /* \"#utility.yul\":854:855   */\n      0x00\n        /* \"#utility.yul\":847:862   */\n      revert\n        /* \"#utility.yul\":874:1155   */\n    tag_156:\n        /* \"#utility.yul\":957:984   */\n      tag_223\n        /* \"#utility.yul\":979:983   */\n      dup3\n        /* \"#utility.yul\":957:984   */\n      tag_154\n      jump\t// in\n    tag_223:\n        /* \"#utility.yul\":949:955   */\n      dup2\n        /* \"#utility.yul\":945:985   */\n      add\n        /* \"#utility.yul\":1087:1093   */\n      dup2\n        /* \"#utility.yul\":1075:1085   */\n      dup2\n        /* \"#utility.yul\":1072:1094   */\n      lt\n        /* \"#utility.yul\":1051:1069   */\n      0xffffffffffffffff\n        /* \"#utility.yul\":1039:1049   */\n      dup3\n        /* \"#utility.yul\":1036:1070   */\n      gt\n        /* \"#utility.yul\":1033:1095   */\n      or\n        /* \"#utility.yul\":1030:1118   */\n      iszero\n      tag_224\n      jumpi\n        /* \"#utility.yul\":1098:1116   */\n      tag_225\n      tag_155\n      jump\t// in\n    tag_225:\n        /* \"#utility.yul\":1030:1118   */\n    tag_224:\n        /* \"#utility.yul\":1138:1148   */\n      dup1\n        /* \"#utility.yul\":1134:1136   */\n      0x40\n        /* \"#utility.yul\":1127:1149   */\n      mstore\n        /* \"#utility.yul\":917:1155   */\n      pop\n        /* \"#utility.yul\":874:1155   */\n      pop\n      pop\n      jump\t// out\n        /* \"#utility.yul\":1161:1290   */\n    tag_157:\n        /* \"#utility.yul\":1195:1201   */\n      0x00\n        /* \"#utility.yul\":1222:1242   */\n      tag_227\n      tag_149\n      jump\t// in\n    tag_227:\n        /* \"#utility.yul\":1212:1242   */\n      swap1\n      pop\n        /* \"#utility.yul\":1251:1284   */\n      tag_228\n        /* \"#utility.yul\":1279:1283   */\n      dup3\n        /* \"#utility.yul\":1271:1277   */\n      dup3\n        /* \"#utility.yul\":1251:1284   */\n      tag_156\n      jump\t// in\n    tag_228:\n        /* \"#utility.yul\":1161:1290   */\n      swap2\n      swap1\n      pop\n      jump\t// out\n        /* \"#utility.yul\":1296:1604   */\n    tag_158:\n        /* \"#utility.yul\":1358:1362   */\n      0x00\n        /* \"#utility.yul\":1448:1466   */\n      0xffffffffffffffff\n        /* \"#utility.yul\":1440:1446   */\n      dup3\n        /* \"#utility.yul\":1437:1467   */\n      gt\n        /* \"#utility.yul\":1434:1490   */\n      iszero\n      tag_230\n      jumpi\n        /* \"#utility.yul\":1470:1488   */\n      tag_231\n      tag_155\n      jump\t// in\n    tag_231:\n        /* \"#utility.yul\":1434:1490   */\n    tag_230:\n        /* \"#utility.yul\":1508:1537   */\n      tag_232\n        /* \"#utility.yul\":1530:1536   */\n      dup3\n        /* \"#utility.yul\":1508:1537   */\n      tag_154\n      jump\t// in\n    tag_232:\n        /* \"#utility.yul\":1500:1537   */\n      swap1\n      pop\n        /* \"#utility.yul\":1592:1596   */\n      0x20\n        /* \"#utility.yul\":1586:1590   */\n      dup2\n        /* \"#utility.yul\":1582:1597   */\n      add\n        /* \"#utility.yul\":1574:1597   */\n      swap1\n      pop\n        /* \"#utility.yul\":1296:1604   */\n      swap2\n      swap1\n      pop\n      jump\t// out\n        /* \"#utility.yul\":1610:1758   */\n    tag_159:\n        /* \"#utility.yul\":1708:1714   */\n      dup3\n        /* \"#utility.yul\":1703:1706   */\n      dup2\n        /* \"#utility.yul\":1698:1701   */\n      dup4\n        /* \"#utility.yul\":1685:1715   */\n      calldatacopy\n        /* \"#utility.yul\":1749:1750   */\n      0x00\n        /* \"#utility.yul\":1740:1746   */\n      dup4\n        /* \"#utility.yul\":1735:1738   */\n      dup4\n        /* \"#utility.yul\":1731:1747   */\n      add\n        /* \"#utility.yul\":1724:1751   */\n      mstore\n        /* \"#utility.yul\":1610:1758   */\n      pop\n      pop\n      pop\n      jump\t// out\n        /* \"#utility.yul\":1764:2189   */\n    tag_160:\n        /* \"#utility.yul\":1842:1847   */\n      0x00\n        /* \"#utility.yul\":1867:1933   */\n      tag_235\n        /* \"#utility.yul\":1883:1932   */\n      tag_236\n        /* \"#utility.yul\":1925:1931   */\n      dup5\n        /* \"#utility.yul\":1883:1932   */\n      tag_158\n      jump\t// in\n    tag_236:\n        /* \"#utility.yul\":1867:1933   */\n      tag_157\n      jump\t// in\n    tag_235:\n        /* \"#utility.yul\":1858:1933   */\n      swap1\n      pop\n        /* \"#utility.yul\":1956:1962   */\n      dup3\n        /* \"#utility.yul\":1949:1954   */\n      dup2\n        /* \"#utility.yul\":1942:1963   */\n      mstore\n        /* \"#utility.yul\":1994:1998   */\n      0x20\n        /* \"#utility.yul\":1987:1992   */\n      dup2\n        /* \"#utility.yul\":1983:1999   */\n      add\n        /* \"#utility.yul\":2032:2035   */\n      dup5\n        /* \"#utility.yul\":2023:2029   */\n      dup5\n        /* \"#utility.yul\":2018:2021   */\n      dup5\n        /* \"#utility.yul\":2014:2030   */\n      add\n        /* \"#utility.yul\":2011:2036   */\n      gt\n        /* \"#utility.yul\":2008:2120   */\n      iszero\n      tag_237\n      jumpi\n        /* \"#utility.yul\":2039:2118   */\n      tag_238\n      tag_153\n      jump\t// in\n    tag_238:\n        /* \"#utility.yul\":2008:2120   */\n    tag_237:\n        /* \"#utility.yul\":2129:2183   */\n      tag_239\n        /* \"#utility.yul\":2176:2182   */\n      dup5\n        /* \"#utility.yul\":2171:2174   */\n      dup3\n        /* \"#utility.yul\":2166:2169   */\n      dup6\n        /* \"#utility.yul\":2129:2183   */\n      tag_159\n      jump\t// in\n    tag_239:\n        /* \"#utility.yul\":1848:2189   */\n      pop\n        /* \"#utility.yul\":1764:2189   */\n      swap4\n      swap3\n      pop\n      pop\n      pop\n      jump\t// out\n        /* \"#utility.yul\":2209:2549   */\n    tag_161:\n        /* \"#utility.yul\":2265:2270   */\n      0x00\n        /* \"#utility.yul\":2314:2317   */\n      dup3\n        /* \"#utility.yul\":2307:2311   */\n      0x1f\n        /* \"#utility.yul\":2299:2305   */\n      dup4\n        /* \"#utility.yul\":2295:2312   */\n      add\n        /* \"#utility.yul\":2291:2318   */\n      slt\n        /* \"#utility.yul\":2281:2403   */\n      tag_241\n      jumpi\n        /* \"#utility.yul\":2322:2401   */\n      tag_242\n      tag_152\n      jump\t// in\n    tag_242:\n        /* \"#utility.yul\":2281:2403   */\n    tag_241:\n        /* \"#utility.yul\":2439:2445   */\n      dup2\n        /* \"#utility.yul\":2426:2446   */\n      calldataload\n        /* \"#utility.yul\":2464:2543   */\n      tag_243\n        /* \"#utility.yul\":2539:2542   */\n      dup5\n        /* \"#utility.yul\":2531:2537   */\n      dup3\n        /* \"#utility.yul\":2524:2528   */\n      0x20\n        /* \"#utility.yul\":2516:2522   */\n      dup7\n        /* \"#utility.yul\":2512:2529   */\n      add\n        /* \"#utility.yul\":2464:2543   */\n      tag_160\n      jump\t// in\n    tag_243:\n        /* \"#utility.yul\":2455:2543   */\n      swap2\n      pop\n        /* \"#utility.yul\":2271:2549   */\n      pop\n        /* \"#utility.yul\":2209:2549   */\n      swap3\n      swap2\n      pop\n      pop\n      jump\t// out\n        /* \"#utility.yul\":2555:3064   */\n    tag_17:\n        /* \"#utility.yul\":2624:2630   */\n      0x00\n        /* \"#utility.yul\":2673:2675   */\n      0x20\n        /* \"#utility.yul\":2661:2670   */\n      dup3\n        /* \"#utility.yul\":2652:2659   */\n      dup5\n        /* \"#utility.yul\":2648:2671   */\n      sub\n        /* \"#utility.yul\":2644:2676   */\n      slt\n        /* \"#utility.yul\":2641:2760   */\n      iszero\n      tag_245\n      jumpi\n        /* \"#utility.yul\":2679:2758   */\n      tag_246\n      tag_150\n      jump\t// in\n    tag_246:\n        /* \"#utility.yul\":2641:2760   */\n    tag_245:\n        /* \"#utility.yul\":2827:2828   */\n      0x00\n        /* \"#utility.yul\":2816:2825   */\n      dup3\n        /* \"#utility.yul\":2812:2829   */\n      add\n        /* \"#utility.yul\":2799:2830   */\n      calldataload\n        /* \"#utility.yul\":2857:2875   */\n      0xffffffffffffffff\n        /* \"#utility.yul\":2849:2855   */\n      dup2\n        /* \"#utility.yul\":2846:2876   */\n      gt\n        /* \"#utility.yul\":2843:2960   */\n      iszero\n      tag_247\n      jumpi\n        /* \"#utility.yul\":2879:2958   */\n      tag_248\n      tag_151\n      jump\t// in\n    tag_248:\n        /* \"#utility.yul\":2843:2960   */\n    tag_247:\n        /* \"#utility.yul\":2984:3047   */\n      tag_249\n        /* \"#utility.yul\":3039:3046   */\n      dup5\n        /* \"#utility.yul\":3030:3036   */\n      dup3\n        /* \"#utility.yul\":3019:3028   */\n      dup6\n        /* \"#utility.yul\":3015:3037   */\n      add\n        /* \"#utility.yul\":2984:3047   */\n      tag_161\n      jump\t// in\n    tag_249:\n        /* \"#utility.yul\":2974:3047   */\n      swap2\n      pop\n        /* \"#utility.yul\":2770:3057   */\n      pop\n        /* \"#utility.yul\":2555:3064   */\n      swap3\n      swap2\n      pop\n      pop\n      jump\t// out\n        /* \"#utility.yul\":3070:3196   */\n    tag_162:\n        /* \"#utility.yul\":3107:3114   */\n      0x00\n        /* \"#utility.yul\":3147:3189   */\n      0xffffffffffffffffffffffffffffffffffffffff\n        /* \"#utility.yul\":3140:3145   */\n      dup3\n        /* \"#utility.yul\":3136:3190   */\n      and\n        /* \"#utility.yul\":3125:3190   */\n      swap1\n      pop\n        /* \"#utility.yul\":3070:3196   */\n      swap2\n      swap1\n      pop\n      jump\t// out\n        /* \"#utility.yul\":3202:3298   */\n    tag_163:\n        /* \"#utility.yul\":3239:3246   */\n      0x00\n        /* \"#utility.yul\":3268:3292   */\n      tag_252\n        /* \"#utility.yul\":3286:3291   */\n      dup3\n        /* \"#utility.yul\":3268:3292   */\n      tag_162\n      jump\t// in\n    tag_252:\n        /* \"#utility.yul\":3257:3292   */\n      swap1\n      pop\n        /* \"#utility.yul\":3202:3298   */\n      swap2\n      swap1\n      pop\n      jump\t// out\n        /* \"#utility.yul\":3304:3422   */\n    tag_164:\n        /* \"#utility.yul\":3391:3415   */\n      tag_254\n        /* \"#utility.yul\":3409:3414   */\n      dup2\n        /* \"#utility.yul\":3391:3415   */\n      tag_163\n      jump\t// in\n    tag_254:\n        /* \"#utility.yul\":3386:3389   */\n      dup3\n        /* \"#utility.yul\":3379:3416   */\n      mstore\n        /* \"#utility.yul\":3304:3422   */\n      pop\n      pop\n      jump\t// out\n        /* \"#utility.yul\":3428:3650   */\n    tag_20:\n        /* \"#utility.yul\":3521:3525   */\n      0x00\n        /* \"#utility.yul\":3559:3561   */\n      0x20\n        /* \"#utility.yul\":3548:3557   */\n      dup3\n        /* \"#utility.yul\":3544:3562   */\n      add\n        /* \"#utility.yul\":3536:3562   */\n      swap1\n      pop\n        /* \"#utility.yul\":3572:3643   */\n      tag_256\n        /* \"#utility.yul\":3640:3641   */\n      0x00\n        /* \"#utility.yul\":3629:3638   */\n      dup4\n        /* \"#utility.yul\":3625:3642   */\n      add\n        /* \"#utility.yul\":3616:3622   */\n      dup5\n        /* \"#utility.yul\":3572:3643   */\n      tag_164\n      jump\t// in\n    tag_256:\n        /* \"#utility.yul\":3428:3650   */\n      swap3\n      swap2\n      pop\n      pop\n      jump\t// out\n        /* \"#utility.yul\":3656:3733   */\n    tag_165:\n        /* \"#utility.yul\":3693:3700   */\n      0x00\n        /* \"#utility.yul\":3722:3727   */\n      dup2\n        /* \"#utility.yul\":3711:3727   */\n      swap1\n      pop\n        /* \"#utility.yul\":3656:3733   */\n      swap2\n      swap1\n      pop\n      jump\t// out\n        /* \"#utility.yul\":3739:3857   */\n    tag_166:\n        /* \"#utility.yul\":3826:3850   */\n      tag_259\n        /* \"#utility.yul\":3844:3849   */\n      dup2\n        /* \"#utility.yul\":3826:3850   */\n      tag_165\n      jump\t// in\n    tag_259:\n        /* \"#utility.yul\":3821:3824   */\n      dup3\n        /* \"#utility.yul\":3814:3851   */\n      mstore\n        /* \"#utility.yul\":3739:3857   */\n      pop\n      pop\n      jump\t// out\n        /* \"#utility.yul\":3863:4085   */\n    tag_26:\n        /* \"#utility.yul\":3956:3960   */\n      0x00\n        /* \"#utility.yul\":3994:3996   */\n      0x20\n        /* \"#utility.yul\":3983:3992   */\n      dup3\n        /* \"#utility.yul\":3979:3997   */\n      add\n        /* \"#utility.yul\":3971:3997   */\n      swap1\n      pop\n        /* \"#utility.yul\":4007:4078   */\n      tag_261\n        /* \"#utility.yul\":4075:4076   */\n      0x00\n        /* \"#utility.yul\":4064:4073   */\n      dup4\n        /* \"#utility.yul\":4060:4077   */\n      add\n        /* \"#utility.yul\":4051:4057   */\n      dup5\n        /* \"#utility.yul\":4007:4078   */\n      tag_166\n      jump\t// in\n    tag_261:\n        /* \"#utility.yul\":3863:4085   */\n      swap3\n      swap2\n      pop\n      pop\n      jump\t// out\n        /* \"#utility.yul\":4091:4213   */\n    tag_167:\n        /* \"#utility.yul\":4164:4188   */\n      tag_263\n        /* \"#utility.yul\":4182:4187   */\n      dup2\n        /* \"#utility.yul\":4164:4188   */\n      tag_163\n      jump\t// in\n    tag_263:\n        /* \"#utility.yul\":4157:4162   */\n      dup2\n        /* \"#utility.yul\":4154:4189   */\n      eq\n        /* \"#utility.yul\":4144:4207   */\n      tag_264\n      jumpi\n        /* \"#utility.yul\":4203:4204   */\n      0x00\n        /* \"#utility.yul\":4200:4201   */\n      dup1\n        /* \"#utility.yul\":4193:4205   */\n      revert\n        /* \"#utility.yul\":4144:4207   */\n    tag_264:\n        /* \"#utility.yul\":4091:4213   */\n      pop\n      jump\t// out\n        /* \"#utility.yul\":4219:4358   */\n    tag_168:\n        /* \"#utility.yul\":4265:4270   */\n      0x00\n        /* \"#utility.yul\":4303:4309   */\n      dup2\n        /* \"#utility.yul\":4290:4310   */\n      calldataload\n        /* \"#utility.yul\":4281:4310   */\n      swap1\n      pop\n        /* \"#utility.yul\":4319:4352   */\n      tag_266\n        /* \"#utility.yul\":4346:4351   */\n      dup2\n        /* \"#utility.yul\":4319:4352   */\n      tag_167\n      jump\t// in\n    tag_266:\n        /* \"#utility.yul\":4219:4358   */\n      swap3\n      swap2\n      pop\n      pop\n      jump\t// out\n        /* \"#utility.yul\":4364:4486   */\n    tag_169:\n        /* \"#utility.yul\":4437:4461   */\n      tag_268\n        /* \"#utility.yul\":4455:4460   */\n      dup2\n        /* \"#utility.yul\":4437:4461   */\n      tag_165\n      jump\t// in\n    tag_268:\n        /* \"#utility.yul\":4430:4435   */\n      dup2\n        /* \"#utility.yul\":4427:4462   */\n      eq\n        /* \"#utility.yul\":4417:4480   */\n      tag_269\n      jumpi\n        /* \"#utility.yul\":4476:4477   */\n      0x00\n        /* \"#utility.yul\":4473:4474   */\n      dup1\n        /* \"#utility.yul\":4466:4478   */\n      revert\n        /* \"#utility.yul\":4417:4480   */\n    tag_269:\n        /* \"#utility.yul\":4364:4486   */\n      pop\n      jump\t// out\n        /* \"#utility.yul\":4492:4631   */\n    tag_170:\n        /* \"#utility.yul\":4538:4543   */\n      0x00\n        /* \"#utility.yul\":4576:4582   */\n      dup2\n        /* \"#utility.yul\":4563:4583   */\n      calldataload\n        /* \"#utility.yul\":4554:4583   */\n      swap1\n      pop\n        /* \"#utility.yul\":4592:4625   */\n      tag_271\n        /* \"#utility.yul\":4619:4624   */\n      dup2\n        /* \"#utility.yul\":4592:4625   */\n      tag_169\n      jump\t// in\n    tag_271:\n        /* \"#utility.yul\":4492:4631   */\n      swap3\n      swap2\n      pop\n      pop\n      jump\t// out\n        /* \"#utility.yul\":4637:4944   */\n    tag_171:\n        /* \"#utility.yul\":4698:4702   */\n      0x00\n        /* \"#utility.yul\":4788:4806   */\n      0xffffffffffffffff\n        /* \"#utility.yul\":4780:4786   */\n      dup3\n        /* \"#utility.yul\":4777:4807   */\n      gt\n        /* \"#utility.yul\":4774:4830   */\n      iszero\n      tag_273\n      jumpi\n        /* \"#utility.yul\":4810:4828   */\n      tag_274\n      tag_155\n      jump\t// in\n    tag_274:\n        /* \"#utility.yul\":4774:4830   */\n    tag_273:\n        /* \"#utility.yul\":4848:4877   */\n      tag_275\n        /* \"#utility.yul\":4870:4876   */\n      dup3\n        /* \"#utility.yul\":4848:4877   */\n      tag_154\n      jump\t// in\n    tag_275:\n        /* \"#utility.yul\":4840:4877   */\n      swap1\n      pop\n        /* \"#utility.yul\":4932:4936   */\n      0x20\n        /* \"#utility.yul\":4926:4930   */\n      dup2\n        /* \"#utility.yul\":4922:4937   */\n      add\n        /* \"#utility.yul\":4914:4937   */\n      swap1\n      pop\n        /* \"#utility.yul\":4637:4944   */\n      swap2\n      swap1\n      pop\n      jump\t// out\n        /* \"#utility.yul\":4950:5373   */\n    tag_172:\n        /* \"#utility.yul\":5027:5032   */\n      0x00\n        /* \"#utility.yul\":5052:5117   */\n      tag_277\n        /* \"#utility.yul\":5068:5116   */\n      tag_278\n        /* \"#utility.yul\":5109:5115   */\n      dup5\n        /* \"#utility.yul\":5068:5116   */\n      tag_171\n      jump\t// in\n    tag_278:\n        /* \"#utility.yul\":5052:5117   */\n      tag_157\n      jump\t// in\n    tag_277:\n        /* \"#utility.yul\":5043:5117   */\n      swap1\n      pop\n        /* \"#utility.yul\":5140:5146   */\n      dup3\n        /* \"#utility.yul\":5133:5138   */\n      dup2\n        /* \"#utility.yul\":5126:5147   */\n      mstore\n        /* \"#utility.yul\":5178:5182   */\n      0x20\n        /* \"#utility.yul\":5171:5176   */\n      dup2\n        /* \"#utility.yul\":5167:5183   */\n      add\n        /* \"#utility.yul\":5216:5219   */\n      dup5\n        /* \"#utility.yul\":5207:5213   */\n      dup5\n        /* \"#utility.yul\":5202:5205   */\n      dup5\n        /* \"#utility.yul\":5198:5214   */\n      add\n        /* \"#utility.yul\":5195:5220   */\n      gt\n        /* \"#utility.yul\":5192:5304   */\n      iszero\n      tag_279\n      jumpi\n        /* \"#utility.yul\":5223:5302   */\n      tag_280\n      tag_153\n      jump\t// in\n    tag_280:\n        /* \"#utility.yul\":5192:5304   */\n    tag_279:\n        /* \"#utility.yul\":5313:5367   */\n      tag_281\n        /* \"#utility.yul\":5360:5366   */\n      dup5\n        /* \"#utility.yul\":5355:5358   */\n      dup3\n        /* \"#utility.yul\":5350:5353   */\n      dup6\n        /* \"#utility.yul\":5313:5367   */\n      tag_159\n      jump\t// in\n    tag_281:\n        /* \"#utility.yul\":5033:5373   */\n      pop\n        /* \"#utility.yul\":4950:5373   */\n      swap4\n      swap3\n      pop\n      pop\n      pop\n      jump\t// out\n        /* \"#utility.yul\":5392:5730   */\n    tag_173:\n        /* \"#utility.yul\":5447:5452   */\n      0x00\n        /* \"#utility.yul\":5496:5499   */\n      dup3\n        /* \"#utility.yul\":5489:5493   */\n      0x1f\n        /* \"#utility.yul\":5481:5487   */\n      dup4\n        /* \"#utility.yul\":5477:5494   */\n      add\n        /* \"#utility.yul\":5473:5500   */\n      slt\n        /* \"#utility.yul\":5463:5585   */\n      tag_283\n      jumpi\n        /* \"#utility.yul\":5504:5583   */\n      tag_284\n      tag_152\n      jump\t// in\n    tag_284:\n        /* \"#utility.yul\":5463:5585   */\n    tag_283:\n        /* \"#utility.yul\":5621:5627   */\n      dup2\n        /* \"#utility.yul\":5608:5628   */\n      calldataload\n        /* \"#utility.yul\":5646:5724   */\n      tag_285\n        /* \"#utility.yul\":5720:5723   */\n      dup5\n        /* \"#utility.yul\":5712:5718   */\n      dup3\n        /* \"#utility.yul\":5705:5709   */\n      0x20\n        /* \"#utility.yul\":5697:5703   */\n      dup7\n        /* \"#utility.yul\":5693:5710   */\n      add\n        /* \"#utility.yul\":5646:5724   */\n      tag_172\n      jump\t// in\n    tag_285:\n        /* \"#utility.yul\":5637:5724   */\n      swap2\n      pop\n        /* \"#utility.yul\":5453:5730   */\n      pop\n        /* \"#utility.yul\":5392:5730   */\n      swap3\n      swap2\n      pop\n      pop\n      jump\t// out\n        /* \"#utility.yul\":5736:7005   */\n    tag_30:\n        /* \"#utility.yul\":5850:5856   */\n      0x00\n        /* \"#utility.yul\":5858:5864   */\n      dup1\n        /* \"#utility.yul\":5866:5872   */\n      0x00\n        /* \"#utility.yul\":5874:5880   */\n      dup1\n        /* \"#utility.yul\":5882:5888   */\n      0x00\n        /* \"#utility.yul\":5931:5934   */\n      0xa0\n        /* \"#utility.yul\":5919:5928   */\n      dup7\n        /* \"#utility.yul\":5910:5917   */\n      dup9\n        /* \"#utility.yul\":5906:5929   */\n      sub\n        /* \"#utility.yul\":5902:5935   */\n      slt\n        /* \"#utility.yul\":5899:6019   */\n      iszero\n      tag_287\n      jumpi\n        /* \"#utility.yul\":5938:6017   */\n      tag_288\n      tag_150\n      jump\t// in\n    tag_288:\n        /* \"#utility.yul\":5899:6019   */\n    tag_287:\n        /* \"#utility.yul\":6058:6059   */\n      0x00\n        /* \"#utility.yul\":6083:6136   */\n      tag_289\n        /* \"#utility.yul\":6128:6135   */\n      dup9\n        /* \"#utility.yul\":6119:6125   */\n      dup3\n        /* \"#utility.yul\":6108:6117   */\n      dup10\n        /* \"#utility.yul\":6104:6126   */\n      add\n        /* \"#utility.yul\":6083:6136   */\n      tag_168\n      jump\t// in\n    tag_289:\n        /* \"#utility.yul\":6073:6136   */\n      swap6\n      pop\n        /* \"#utility.yul\":6029:6146   */\n      pop\n        /* \"#utility.yul\":6213:6215   */\n      0x20\n        /* \"#utility.yul\":6202:6211   */\n      dup7\n        /* \"#utility.yul\":6198:6216   */\n      add\n        /* \"#utility.yul\":6185:6217   */\n      calldataload\n        /* \"#utility.yul\":6244:6262   */\n      0xffffffffffffffff\n        /* \"#utility.yul\":6236:6242   */\n      dup2\n        /* \"#utility.yul\":6233:6263   */\n      gt\n        /* \"#utility.yul\":6230:6347   */\n      iszero\n      tag_290\n      jumpi\n        /* \"#utility.yul\":6266:6345   */\n      tag_291\n      tag_151\n      jump\t// in\n    tag_291:\n        /* \"#utility.yul\":6230:6347   */\n    tag_290:\n        /* \"#utility.yul\":6371:6434   */\n      tag_292\n        /* \"#utility.yul\":6426:6433   */\n      dup9\n        /* \"#utility.yul\":6417:6423   */\n      dup3\n        /* \"#utility.yul\":6406:6415   */\n      dup10\n        /* \"#utility.yul\":6402:6424   */\n      add\n        /* \"#utility.yul\":6371:6434   */\n      tag_161\n      jump\t// in\n    tag_292:\n        /* \"#utility.yul\":6361:6434   */\n      swap5\n      pop\n        /* \"#utility.yul\":6156:6444   */\n      pop\n        /* \"#utility.yul\":6483:6485   */\n      0x40\n        /* \"#utility.yul\":6509:6562   */\n      tag_293\n        /* \"#utility.yul\":6554:6561   */\n      dup9\n        /* \"#utility.yul\":6545:6551   */\n      dup3\n        /* \"#utility.yul\":6534:6543   */\n      dup10\n        /* \"#utility.yul\":6530:6552   */\n      add\n        /* \"#utility.yul\":6509:6562   */\n      tag_170\n      jump\t// in\n    tag_293:\n        /* \"#utility.yul\":6499:6562   */\n      swap4\n      pop\n        /* \"#utility.yul\":6454:6572   */\n      pop\n        /* \"#utility.yul\":6611:6613   */\n      0x60\n        /* \"#utility.yul\":6637:6690   */\n      tag_294\n        /* \"#utility.yul\":6682:6689   */\n      dup9\n        /* \"#utility.yul\":6673:6679   */\n      dup3\n        /* \"#utility.yul\":6662:6671   */\n      dup10\n        /* \"#utility.yul\":6658:6680   */\n      add\n        /* \"#utility.yul\":6637:6690   */\n      tag_170\n      jump\t// in\n    tag_294:\n        /* \"#utility.yul\":6627:6690   */\n      swap3\n      pop\n        /* \"#utility.yul\":6582:6700   */\n      pop\n        /* \"#utility.yul\":6767:6770   */\n      0x80\n        /* \"#utility.yul\":6756:6765   */\n      dup7\n        /* \"#utility.yul\":6752:6771   */\n      add\n        /* \"#utility.yul\":6739:6772   */\n      calldataload\n        /* \"#utility.yul\":6799:6817   */\n      0xffffffffffffffff\n        /* \"#utility.yul\":6791:6797   */\n      dup2\n        /* \"#utility.yul\":6788:6818   */\n      gt\n        /* \"#utility.yul\":6785:6902   */\n      iszero\n      tag_295\n      jumpi\n        /* \"#utility.yul\":6821:6900   */\n      tag_296\n      tag_151\n      jump\t// in\n    tag_296:\n        /* \"#utility.yul\":6785:6902   */\n    tag_295:\n        /* \"#utility.yul\":6926:6988   */\n      tag_297\n        /* \"#utility.yul\":6980:6987   */\n      dup9\n        /* \"#utility.yul\":6971:6977   */\n      dup3\n        /* \"#utility.yul\":6960:6969   */\n      dup10\n        /* \"#utility.yul\":6956:6978   */\n      add\n        /* \"#utility.yul\":6926:6988   */\n      tag_173\n      jump\t// in\n    tag_297:\n        /* \"#utility.yul\":6916:6988   */\n      swap2\n      pop\n        /* \"#utility.yul\":6710:6998   */\n      pop\n        /* \"#utility.yul\":5736:7005   */\n      swap3\n      swap6\n      pop\n      swap3\n      swap6\n      swap1\n      swap4\n      pop\n      jump\t// out\n        /* \"#utility.yul\":7011:7101   */\n    tag_174:\n        /* \"#utility.yul\":7045:7052   */\n      0x00\n        /* \"#utility.yul\":7088:7093   */\n      dup2\n        /* \"#utility.yul\":7081:7094   */\n      iszero\n        /* \"#utility.yul\":7074:7095   */\n      iszero\n        /* \"#utility.yul\":7063:7095   */\n      swap1\n      pop\n        /* \"#utility.yul\":7011:7101   */\n      swap2\n      swap1\n      pop\n      jump\t// out\n        /* \"#utility.yul\":7107:7216   */\n    tag_175:\n        /* \"#utility.yul\":7188:7209   */\n      tag_300\n        /* \"#utility.yul\":7203:7208   */\n      dup2\n        /* \"#utility.yul\":7188:7209   */\n      tag_174\n      jump\t// in\n    tag_300:\n        /* \"#utility.yul\":7183:7186   */\n      dup3\n        /* \"#utility.yul\":7176:7210   */\n      mstore\n        /* \"#utility.yul\":7107:7216   */\n      pop\n      pop\n      jump\t// out\n        /* \"#utility.yul\":7222:7432   */\n    tag_33:\n        /* \"#utility.yul\":7309:7313   */\n      0x00\n        /* \"#utility.yul\":7347:7349   */\n      0x20\n        /* \"#utility.yul\":7336:7345   */\n      dup3\n        /* \"#utility.yul\":7332:7350   */\n      add\n        /* \"#utility.yul\":7324:7350   */\n      swap1\n      pop\n        /* \"#utility.yul\":7360:7425   */\n      tag_302\n        /* \"#utility.yul\":7422:7423   */\n      0x00\n        /* \"#utility.yul\":7411:7420   */\n      dup4\n        /* \"#utility.yul\":7407:7424   */\n      add\n        /* \"#utility.yul\":7398:7404   */\n      dup5\n        /* \"#utility.yul\":7360:7425   */\n      tag_175\n      jump\t// in\n    tag_302:\n        /* \"#utility.yul\":7222:7432   */\n      swap3\n      swap2\n      pop\n      pop\n      jump\t// out\n        /* \"#utility.yul\":7438:8237   */\n    tag_37:\n        /* \"#utility.yul\":7525:7531   */\n      0x00\n        /* \"#utility.yul\":7533:7539   */\n      dup1\n        /* \"#utility.yul\":7541:7547   */\n      0x00\n        /* \"#utility.yul\":7590:7592   */\n      0x60\n        /* \"#utility.yul\":7578:7587   */\n      dup5\n        /* \"#utility.yul\":7569:7576   */\n      dup7\n        /* \"#utility.yul\":7565:7588   */\n      sub\n        /* \"#utility.yul\":7561:7593   */\n      slt\n        /* \"#utility.yul\":7558:7677   */\n      iszero\n      tag_304\n      jumpi\n        /* \"#utility.yul\":7596:7675   */\n      tag_305\n      tag_150\n      jump\t// in\n    tag_305:\n        /* \"#utility.yul\":7558:7677   */\n    tag_304:\n        /* \"#utility.yul\":7744:7745   */\n      0x00\n        /* \"#utility.yul\":7733:7742   */\n      dup5\n        /* \"#utility.yul\":7729:7746   */\n      add\n        /* \"#utility.yul\":7716:7747   */\n      calldataload\n        /* \"#utility.yul\":7774:7792   */\n      0xffffffffffffffff\n        /* \"#utility.yul\":7766:7772   */\n      dup2\n        /* \"#utility.yul\":7763:7793   */\n      gt\n        /* \"#utility.yul\":7760:7877   */\n      iszero\n      tag_306\n      jumpi\n        /* \"#utility.yul\":7796:7875   */\n      tag_307\n      tag_151\n      jump\t// in\n    tag_307:\n        /* \"#utility.yul\":7760:7877   */\n    tag_306:\n        /* \"#utility.yul\":7901:7964   */\n      tag_308\n        /* \"#utility.yul\":7956:7963   */\n      dup7\n        /* \"#utility.yul\":7947:7953   */\n      dup3\n        /* \"#utility.yul\":7936:7945   */\n      dup8\n        /* \"#utility.yul\":7932:7954   */\n      add\n        /* \"#utility.yul\":7901:7964   */\n      tag_161\n      jump\t// in\n    tag_308:\n        /* \"#utility.yul\":7891:7964   */\n      swap4\n      pop\n        /* \"#utility.yul\":7687:7974   */\n      pop\n        /* \"#utility.yul\":8013:8015   */\n      0x20\n        /* \"#utility.yul\":8039:8092   */\n      tag_309\n        /* \"#utility.yul\":8084:8091   */\n      dup7\n        /* \"#utility.yul\":8075:8081   */\n      dup3\n        /* \"#utility.yul\":8064:8073   */\n      dup8\n        /* \"#utility.yul\":8060:8082   */\n      add\n        /* \"#utility.yul\":8039:8092   */\n      tag_170\n      jump\t// in\n    tag_309:\n        /* \"#utility.yul\":8029:8092   */\n      swap3\n      pop\n        /* \"#utility.yul\":7984:8102   */\n      pop\n        /* \"#utility.yul\":8141:8143   */\n      0x40\n        /* \"#utility.yul\":8167:8220   */\n      tag_310\n        /* \"#utility.yul\":8212:8219   */\n      dup7\n        /* \"#utility.yul\":8203:8209   */\n      dup3\n        /* \"#utility.yul\":8192:8201   */\n      dup8\n        /* \"#utility.yul\":8188:8210   */\n      add\n        /* \"#utility.yul\":8167:8220   */\n      tag_170\n      jump\t// in\n    tag_310:\n        /* \"#utility.yul\":8157:8220   */\n      swap2\n      pop\n        /* \"#utility.yul\":8112:8230   */\n      pop\n        /* \"#utility.yul\":7438:8237   */\n      swap3\n      pop\n      swap3\n      pop\n      swap3\n      jump\t// out\n        /* \"#utility.yul\":8243:8320   */\n    tag_176:\n        /* \"#utility.yul\":8280:8287   */\n      0x00\n        /* \"#utility.yul\":8309:8314   */\n      dup2\n        /* \"#utility.yul\":8298:8314   */\n      swap1\n      pop\n        /* \"#utility.yul\":8243:8320   */\n      swap2\n      swap1\n      pop\n      jump\t// out\n        /* \"#utility.yul\":8326:8444   */\n    tag_177:\n        /* \"#utility.yul\":8413:8437   */\n      tag_313\n        /* \"#utility.yul\":8431:8436   */\n      dup2\n        /* \"#utility.yul\":8413:8437   */\n      tag_176\n      jump\t// in\n    tag_313:\n        /* \"#utility.yul\":8408:8411   */\n      dup3\n        /* \"#utility.yul\":8401:8438   */\n      mstore\n        /* \"#utility.yul\":8326:8444   */\n      pop\n      pop\n      jump\t// out\n        /* \"#utility.yul\":8450:8672   */\n    tag_40:\n        /* \"#utility.yul\":8543:8547   */\n      0x00\n        /* \"#utility.yul\":8581:8583   */\n      0x20\n        /* \"#utility.yul\":8570:8579   */\n      dup3\n        /* \"#utility.yul\":8566:8584   */\n      add\n        /* \"#utility.yul\":8558:8584   */\n      swap1\n      pop\n        /* \"#utility.yul\":8594:8665   */\n      tag_315\n        /* \"#utility.yul\":8662:8663   */\n      0x00\n        /* \"#utility.yul\":8651:8660   */\n      dup4\n        /* \"#utility.yul\":8647:8664   */\n      add\n        /* \"#utility.yul\":8638:8644   */\n      dup5\n        /* \"#utility.yul\":8594:8665   */\n      tag_177\n      jump\t// in\n    tag_315:\n        /* \"#utility.yul\":8450:8672   */\n      swap3\n      swap2\n      pop\n      pop\n      jump\t// out\n        /* \"#utility.yul\":8678:8777   */\n    tag_178:\n        /* \"#utility.yul\":8730:8736   */\n      0x00\n        /* \"#utility.yul\":8764:8769   */\n      dup2\n        /* \"#utility.yul\":8758:8770   */\n      mload\n        /* \"#utility.yul\":8748:8770   */\n      swap1\n      pop\n        /* \"#utility.yul\":8678:8777   */\n      swap2\n      swap1\n      pop\n      jump\t// out\n        /* \"#utility.yul\":8783:8952   */\n    tag_179:\n        /* \"#utility.yul\":8867:8878   */\n      0x00\n        /* \"#utility.yul\":8901:8907   */\n      dup3\n        /* \"#utility.yul\":8896:8899   */\n      dup3\n        /* \"#utility.yul\":8889:8908   */\n      mstore\n        /* \"#utility.yul\":8941:8945   */\n      0x20\n        /* \"#utility.yul\":8936:8939   */\n      dup3\n        /* \"#utility.yul\":8932:8946   */\n      add\n        /* \"#utility.yul\":8917:8946   */\n      swap1\n      pop\n        /* \"#utility.yul\":8783:8952   */\n      swap3\n      swap2\n      pop\n      pop\n      jump\t// out\n        /* \"#utility.yul\":8958:9097   */\n    tag_180:\n        /* \"#utility.yul\":9047:9053   */\n      dup3\n        /* \"#utility.yul\":9042:9045   */\n      dup2\n        /* \"#utility.yul\":9037:9040   */\n      dup4\n        /* \"#utility.yul\":9031:9054   */\n      mcopy\n        /* \"#utility.yul\":9088:9089   */\n      0x00\n        /* \"#utility.yul\":9079:9085   */\n      dup4\n        /* \"#utility.yul\":9074:9077   */\n      dup4\n        /* \"#utility.yul\":9070:9086   */\n      add\n        /* \"#utility.yul\":9063:9090   */\n      mstore\n        /* \"#utility.yul\":8958:9097   */\n      pop\n      pop\n      pop\n      jump\t// out\n        /* \"#utility.yul\":9103:9480   */\n    tag_181:\n        /* \"#utility.yul\":9191:9194   */\n      0x00\n        /* \"#utility.yul\":9219:9258   */\n      tag_320\n        /* \"#utility.yul\":9252:9257   */\n      dup3\n        /* \"#utility.yul\":9219:9258   */\n      tag_178\n      jump\t// in\n    tag_320:\n        /* \"#utility.yul\":9274:9345   */\n      tag_321\n        /* \"#utility.yul\":9338:9344   */\n      dup2\n        /* \"#utility.yul\":9333:9336   */\n      dup6\n        /* \"#utility.yul\":9274:9345   */\n      tag_179\n      jump\t// in\n    tag_321:\n        /* \"#utility.yul\":9267:9345   */\n      swap4\n      pop\n        /* \"#utility.yul\":9354:9419   */\n      tag_322\n        /* \"#utility.yul\":9412:9418   */\n      dup2\n        /* \"#utility.yul\":9407:9410   */\n      dup6\n        /* \"#utility.yul\":9400:9404   */\n      0x20\n        /* \"#utility.yul\":9393:9398   */\n      dup7\n        /* \"#utility.yul\":9389:9405   */\n      add\n        /* \"#utility.yul\":9354:9419   */\n      tag_180\n      jump\t// in\n    tag_322:\n        /* \"#utility.yul\":9444:9473   */\n      tag_323\n        /* \"#utility.yul\":9466:9472   */\n      dup2\n        /* \"#utility.yul\":9444:9473   */\n      tag_154\n      jump\t// in\n    tag_323:\n        /* \"#utility.yul\":9439:9442   */\n      dup5\n        /* \"#utility.yul\":9435:9474   */\n      add\n        /* \"#utility.yul\":9428:9474   */\n      swap2\n      pop\n        /* \"#utility.yul\":9195:9480   */\n      pop\n        /* \"#utility.yul\":9103:9480   */\n      swap3\n      swap2\n      pop\n      pop\n      jump\t// out\n        /* \"#utility.yul\":9486:9799   */\n    tag_45:\n        /* \"#utility.yul\":9599:9603   */\n      0x00\n        /* \"#utility.yul\":9637:9639   */\n      0x20\n        /* \"#utility.yul\":9626:9635   */\n      dup3\n        /* \"#utility.yul\":9622:9640   */\n      add\n        /* \"#utility.yul\":9614:9640   */\n      swap1\n      pop\n        /* \"#utility.yul\":9686:9695   */\n      dup2\n        /* \"#utility.yul\":9680:9684   */\n      dup2\n        /* \"#utility.yul\":9676:9696   */\n      sub\n        /* \"#utility.yul\":9672:9673   */\n      0x00\n        /* \"#utility.yul\":9661:9670   */\n      dup4\n        /* \"#utility.yul\":9657:9674   */\n      add\n        /* \"#utility.yul\":9650:9697   */\n      mstore\n        /* \"#utility.yul\":9714:9792   */\n      tag_325\n        /* \"#utility.yul\":9787:9791   */\n      dup2\n        /* \"#utility.yul\":9778:9784   */\n      dup5\n        /* \"#utility.yul\":9714:9792   */\n      tag_181\n      jump\t// in\n    tag_325:\n        /* \"#utility.yul\":9706:9792   */\n      swap1\n      pop\n        /* \"#utility.yul\":9486:9799   */\n      swap3\n      swap2\n      pop\n      pop\n      jump\t// out\n        /* \"#utility.yul\":9805:9927   */\n    tag_182:\n        /* \"#utility.yul\":9878:9902   */\n      tag_327\n        /* \"#utility.yul\":9896:9901   */\n      dup2\n        /* \"#utility.yul\":9878:9902   */\n      tag_176\n      jump\t// in\n    tag_327:\n        /* \"#utility.yul\":9871:9876   */\n      dup2\n        /* \"#utility.yul\":9868:9903   */\n      eq\n        /* \"#utility.yul\":9858:9921   */\n      tag_328\n      jumpi\n        /* \"#utility.yul\":9917:9918   */\n      0x00\n        /* \"#utility.yul\":9914:9915   */\n      dup1\n        /* \"#utility.yul\":9907:9919   */\n      revert\n        /* \"#utility.yul\":9858:9921   */\n    tag_328:\n        /* \"#utility.yul\":9805:9927   */\n      pop\n      jump\t// out\n        /* \"#utility.yul\":9933:10072   */\n    tag_183:\n        /* \"#utility.yul\":9979:9984   */\n      0x00\n        /* \"#utility.yul\":10017:10023   */\n      dup2\n        /* \"#utility.yul\":10004:10024   */\n      calldataload\n        /* \"#utility.yul\":9995:10024   */\n      swap1\n      pop\n        /* \"#utility.yul\":10033:10066   */\n      tag_330\n        /* \"#utility.yul\":10060:10065   */\n      dup2\n        /* \"#utility.yul\":10033:10066   */\n      tag_182\n      jump\t// in\n    tag_330:\n        /* \"#utility.yul\":9933:10072   */\n      swap3\n      swap2\n      pop\n      pop\n      jump\t// out\n        /* \"#utility.yul\":10078:10730   */\n    tag_49:\n        /* \"#utility.yul\":10155:10161   */\n      0x00\n        /* \"#utility.yul\":10163:10169   */\n      dup1\n        /* \"#utility.yul\":10212:10214   */\n      0x40\n        /* \"#utility.yul\":10200:10209   */\n      dup4\n        /* \"#utility.yul\":10191:10198   */\n      dup6\n        /* \"#utility.yul\":10187:10210   */\n      sub\n        /* \"#utility.yul\":10183:10215   */\n      slt\n        /* \"#utility.yul\":10180:10299   */\n      iszero\n      tag_332\n      jumpi\n        /* \"#utility.yul\":10218:10297   */\n      tag_333\n      tag_150\n      jump\t// in\n    tag_333:\n        /* \"#utility.yul\":10180:10299   */\n    tag_332:\n        /* \"#utility.yul\":10338:10339   */\n      0x00\n        /* \"#utility.yul\":10363:10416   */\n      tag_334\n        /* \"#utility.yul\":10408:10415   */\n      dup6\n        /* \"#utility.yul\":10399:10405   */\n      dup3\n        /* \"#utility.yul\":10388:10397   */\n      dup7\n        /* \"#utility.yul\":10384:10406   */\n      add\n        /* \"#utility.yul\":10363:10416   */\n      tag_183\n      jump\t// in\n    tag_334:\n        /* \"#utility.yul\":10353:10416   */\n      swap3\n      pop\n        /* \"#utility.yul\":10309:10426   */\n      pop\n        /* \"#utility.yul\":10493:10495   */\n      0x20\n        /* \"#utility.yul\":10482:10491   */\n      dup4\n        /* \"#utility.yul\":10478:10496   */\n      add\n        /* \"#utility.yul\":10465:10497   */\n      calldataload\n        /* \"#utility.yul\":10524:10542   */\n      0xffffffffffffffff\n        /* \"#utility.yul\":10516:10522   */\n      dup2\n        /* \"#utility.yul\":10513:10543   */\n      gt\n        /* \"#utility.yul\":10510:10627   */\n      iszero\n      tag_335\n      jumpi\n        /* \"#utility.yul\":10546:10625   */\n      tag_336\n      tag_151\n      jump\t// in\n    tag_336:\n        /* \"#utility.yul\":10510:10627   */\n    tag_335:\n        /* \"#utility.yul\":10651:10713   */\n      tag_337\n        /* \"#utility.yul\":10705:10712   */\n      dup6\n        /* \"#utility.yul\":10696:10702   */\n      dup3\n        /* \"#utility.yul\":10685:10694   */\n      dup7\n        /* \"#utility.yul\":10681:10703   */\n      add\n        /* \"#utility.yul\":10651:10713   */\n      tag_173\n      jump\t// in\n    tag_337:\n        /* \"#utility.yul\":10641:10713   */\n      swap2\n      pop\n        /* \"#utility.yul\":10436:10723   */\n      pop\n        /* \"#utility.yul\":10078:10730   */\n      swap3\n      pop\n      swap3\n      swap1\n      pop\n      jump\t// out\n        /* \"#utility.yul\":10736:10840   */\n    tag_184:\n        /* \"#utility.yul\":10781:10788   */\n      0x00\n        /* \"#utility.yul\":10810:10834   */\n      tag_339\n        /* \"#utility.yul\":10828:10833   */\n      dup3\n        /* \"#utility.yul\":10810:10834   */\n      tag_162\n      jump\t// in\n    tag_339:\n        /* \"#utility.yul\":10799:10834   */\n      swap1\n      pop\n        /* \"#utility.yul\":10736:10840   */\n      swap2\n      swap1\n      pop\n      jump\t// out\n        /* \"#utility.yul\":10846:10984   */\n    tag_185:\n        /* \"#utility.yul\":10927:10959   */\n      tag_341\n        /* \"#utility.yul\":10953:10958   */\n      dup2\n        /* \"#utility.yul\":10927:10959   */\n      tag_184\n      jump\t// in\n    tag_341:\n        /* \"#utility.yul\":10920:10925   */\n      dup2\n        /* \"#utility.yul\":10917:10960   */\n      eq\n        /* \"#utility.yul\":10907:10978   */\n      tag_342\n      jumpi\n        /* \"#utility.yul\":10974:10975   */\n      0x00\n        /* \"#utility.yul\":10971:10972   */\n      dup1\n        /* \"#utility.yul\":10964:10976   */\n      revert\n        /* \"#utility.yul\":10907:10978   */\n    tag_342:\n        /* \"#utility.yul\":10846:10984   */\n      pop\n      jump\t// out\n        /* \"#utility.yul\":10990:11145   */\n    tag_186:\n        /* \"#utility.yul\":11044:11049   */\n      0x00\n        /* \"#utility.yul\":11082:11088   */\n      dup2\n        /* \"#utility.yul\":11069:11089   */\n      calldataload\n        /* \"#utility.yul\":11060:11089   */\n      swap1\n      pop\n        /* \"#utility.yul\":11098:11139   */\n      tag_344\n        /* \"#utility.yul\":11133:11138   */\n      dup2\n        /* \"#utility.yul\":11098:11139   */\n      tag_185\n      jump\t// in\n    tag_344:\n        /* \"#utility.yul\":10990:11145   */\n      swap3\n      swap2\n      pop\n      pop\n      jump\t// out\n        /* \"#utility.yul\":11151:11966   */\n    tag_55:\n        /* \"#utility.yul\":11246:11252   */\n      0x00\n        /* \"#utility.yul\":11254:11260   */\n      dup1\n        /* \"#utility.yul\":11262:11268   */\n      0x00\n        /* \"#utility.yul\":11311:11313   */\n      0x60\n        /* \"#utility.yul\":11299:11308   */\n      dup5\n        /* \"#utility.yul\":11290:11297   */\n      dup7\n        /* \"#utility.yul\":11286:11309   */\n      sub\n        /* \"#utility.yul\":11282:11314   */\n      slt\n        /* \"#utility.yul\":11279:11398   */\n      iszero\n      tag_346\n      jumpi\n        /* \"#utility.yul\":11317:11396   */\n      tag_347\n      tag_150\n      jump\t// in\n    tag_347:\n        /* \"#utility.yul\":11279:11398   */\n    tag_346:\n        /* \"#utility.yul\":11465:11466   */\n      0x00\n        /* \"#utility.yul\":11454:11463   */\n      dup5\n        /* \"#utility.yul\":11450:11467   */\n      add\n        /* \"#utility.yul\":11437:11468   */\n      calldataload\n        /* \"#utility.yul\":11495:11513   */\n      0xffffffffffffffff\n        /* \"#utility.yul\":11487:11493   */\n      dup2\n        /* \"#utility.yul\":11484:11514   */\n      gt\n        /* \"#utility.yul\":11481:11598   */\n      iszero\n      tag_348\n      jumpi\n        /* \"#utility.yul\":11517:11596   */\n      tag_349\n      tag_151\n      jump\t// in\n    tag_349:\n        /* \"#utility.yul\":11481:11598   */\n    tag_348:\n        /* \"#utility.yul\":11622:11685   */\n      tag_350\n        /* \"#utility.yul\":11677:11684   */\n      dup7\n        /* \"#utility.yul\":11668:11674   */\n      dup3\n        /* \"#utility.yul\":11657:11666   */\n      dup8\n        /* \"#utility.yul\":11653:11675   */\n      add\n        /* \"#utility.yul\":11622:11685   */\n      tag_161\n      jump\t// in\n    tag_350:\n        /* \"#utility.yul\":11612:11685   */\n      swap4\n      pop\n        /* \"#utility.yul\":11408:11695   */\n      pop\n        /* \"#utility.yul\":11734:11736   */\n      0x20\n        /* \"#utility.yul\":11760:11821   */\n      tag_351\n        /* \"#utility.yul\":11813:11820   */\n      dup7\n        /* \"#utility.yul\":11804:11810   */\n      dup3\n        /* \"#utility.yul\":11793:11802   */\n      dup8\n        /* \"#utility.yul\":11789:11811   */\n      add\n        /* \"#utility.yul\":11760:11821   */\n      tag_186\n      jump\t// in\n    tag_351:\n        /* \"#utility.yul\":11750:11821   */\n      swap3\n      pop\n        /* \"#utility.yul\":11705:11831   */\n      pop\n        /* \"#utility.yul\":11870:11872   */\n      0x40\n        /* \"#utility.yul\":11896:11949   */\n      tag_352\n        /* \"#utility.yul\":11941:11948   */\n      dup7\n        /* \"#utility.yul\":11932:11938   */\n      dup3\n        /* \"#utility.yul\":11921:11930   */\n      dup8\n        /* \"#utility.yul\":11917:11939   */\n      add\n        /* \"#utility.yul\":11896:11949   */\n      tag_170\n      jump\t// in\n    tag_352:\n        /* \"#utility.yul\":11886:11949   */\n      swap2\n      pop\n        /* \"#utility.yul\":11841:11959   */\n      pop\n        /* \"#utility.yul\":11151:11966   */\n      swap3\n      pop\n      swap3\n      pop\n      swap3\n      jump\t// out\n        /* \"#utility.yul\":11972:12479   */\n    tag_60:\n        /* \"#utility.yul\":12040:12046   */\n      0x00\n        /* \"#utility.yul\":12089:12091   */\n      0x20\n        /* \"#utility.yul\":12077:12086   */\n      dup3\n        /* \"#utility.yul\":12068:12075   */\n      dup5\n        /* \"#utility.yul\":12064:12087   */\n      sub\n        /* \"#utility.yul\":12060:12092   */\n      slt\n        /* \"#utility.yul\":12057:12176   */\n      iszero\n      tag_354\n      jumpi\n        /* \"#utility.yul\":12095:12174   */\n      tag_355\n      tag_150\n      jump\t// in\n    tag_355:\n        /* \"#utility.yul\":12057:12176   */\n    tag_354:\n        /* \"#utility.yul\":12243:12244   */\n      0x00\n        /* \"#utility.yul\":12232:12241   */\n      dup3\n        /* \"#utility.yul\":12228:12245   */\n      add\n        /* \"#utility.yul\":12215:12246   */\n      calldataload\n        /* \"#utility.yul\":12273:12291   */\n      0xffffffffffffffff\n        /* \"#utility.yul\":12265:12271   */\n      dup2\n        /* \"#utility.yul\":12262:12292   */\n      gt\n        /* \"#utility.yul\":12259:12376   */\n      iszero\n      tag_356\n      jumpi\n        /* \"#utility.yul\":12295:12374   */\n      tag_357\n      tag_151\n      jump\t// in\n    tag_357:\n        /* \"#utility.yul\":12259:12376   */\n    tag_356:\n        /* \"#utility.yul\":12400:12462   */\n      tag_358\n        /* \"#utility.yul\":12454:12461   */\n      dup5\n        /* \"#utility.yul\":12445:12451   */\n      dup3\n        /* \"#utility.yul\":12434:12443   */\n      dup6\n        /* \"#utility.yul\":12430:12452   */\n      add\n        /* \"#utility.yul\":12400:12462   */\n      tag_173\n      jump\t// in\n    tag_358:\n        /* \"#utility.yul\":12390:12462   */\n      swap2\n      pop\n        /* \"#utility.yul\":12186:12472   */\n      pop\n        /* \"#utility.yul\":11972:12479   */\n      swap3\n      swap2\n      pop\n      pop\n      jump\t// out\n        /* \"#utility.yul\":12485:12571   */\n    tag_187:\n        /* \"#utility.yul\":12520:12527   */\n      0x00\n        /* \"#utility.yul\":12560:12564   */\n      0xff\n        /* \"#utility.yul\":12553:12558   */\n      dup3\n        /* \"#utility.yul\":12549:12565   */\n      and\n        /* \"#utility.yul\":12538:12565   */\n      swap1\n      pop\n        /* \"#utility.yul\":12485:12571   */\n      swap2\n      swap1\n      pop\n      jump\t// out\n        /* \"#utility.yul\":12577:12689   */\n    tag_188:\n        /* \"#utility.yul\":12660:12682   */\n      tag_361\n        /* \"#utility.yul\":12676:12681   */\n      dup2\n        /* \"#utility.yul\":12660:12682   */\n      tag_187\n      jump\t// in\n    tag_361:\n        /* \"#utility.yul\":12655:12658   */\n      dup3\n        /* \"#utility.yul\":12648:12683   */\n      mstore\n        /* \"#utility.yul\":12577:12689   */\n      pop\n      pop\n      jump\t// out\n        /* \"#utility.yul\":12695:13129   */\n    tag_63:\n        /* \"#utility.yul\":12840:12844   */\n      0x00\n        /* \"#utility.yul\":12878:12880   */\n      0x60\n        /* \"#utility.yul\":12867:12876   */\n      dup3\n        /* \"#utility.yul\":12863:12881   */\n      add\n        /* \"#utility.yul\":12855:12881   */\n      swap1\n      pop\n        /* \"#utility.yul\":12891:12962   */\n      tag_363\n        /* \"#utility.yul\":12959:12960   */\n      0x00\n        /* \"#utility.yul\":12948:12957   */\n      dup4\n        /* \"#utility.yul\":12944:12961   */\n      add\n        /* \"#utility.yul\":12935:12941   */\n      dup7\n        /* \"#utility.yul\":12891:12962   */\n      tag_177\n      jump\t// in\n    tag_363:\n        /* \"#utility.yul\":12972:13044   */\n      tag_364\n        /* \"#utility.yul\":13040:13042   */\n      0x20\n        /* \"#utility.yul\":13029:13038   */\n      dup4\n        /* \"#utility.yul\":13025:13043   */\n      add\n        /* \"#utility.yul\":13016:13022   */\n      dup6\n        /* \"#utility.yul\":12972:13044   */\n      tag_177\n      jump\t// in\n    tag_364:\n        /* \"#utility.yul\":13054:13122   */\n      tag_365\n        /* \"#utility.yul\":13118:13120   */\n      0x40\n        /* \"#utility.yul\":13107:13116   */\n      dup4\n        /* \"#utility.yul\":13103:13121   */\n      add\n        /* \"#utility.yul\":13094:13100   */\n      dup5\n        /* \"#utility.yul\":13054:13122   */\n      tag_188\n      jump\t// in\n    tag_365:\n        /* \"#utility.yul\":12695:13129   */\n      swap5\n      swap4\n      pop\n      pop\n      pop\n      pop\n      jump\t// out\n        /* \"#utility.yul\":13135:13789   */\n    tag_70:\n        /* \"#utility.yul\":13213:13219   */\n      0x00\n        /* \"#utility.yul\":13221:13227   */\n      dup1\n        /* \"#utility.yul\":13270:13272   */\n      0x40\n        /* \"#utility.yul\":13258:13267   */\n      dup4\n        /* \"#utility.yul\":13249:13256   */\n      dup6\n        /* \"#utility.yul\":13245:13268   */\n      sub\n        /* \"#utility.yul\":13241:13273   */\n      slt\n        /* \"#utility.yul\":13238:13357   */\n      iszero\n      tag_367\n      jumpi\n        /* \"#utility.yul\":13276:13355   */\n      tag_368\n      tag_150\n      jump\t// in\n    tag_368:\n        /* \"#utility.yul\":13238:13357   */\n    tag_367:\n        /* \"#utility.yul\":13424:13425   */\n      0x00\n        /* \"#utility.yul\":13413:13422   */\n      dup4\n        /* \"#utility.yul\":13409:13426   */\n      add\n        /* \"#utility.yul\":13396:13427   */\n      calldataload\n        /* \"#utility.yul\":13454:13472   */\n      0xffffffffffffffff\n        /* \"#utility.yul\":13446:13452   */\n      dup2\n        /* \"#utility.yul\":13443:13473   */\n      gt\n        /* \"#utility.yul\":13440:13557   */\n      iszero\n      tag_369\n      jumpi\n        /* \"#utility.yul\":13476:13555   */\n      tag_370\n      tag_151\n      jump\t// in\n    tag_370:\n        /* \"#utility.yul\":13440:13557   */\n    tag_369:\n        /* \"#utility.yul\":13581:13644   */\n      tag_371\n        /* \"#utility.yul\":13636:13643   */\n      dup6\n        /* \"#utility.yul\":13627:13633   */\n      dup3\n        /* \"#utility.yul\":13616:13625   */\n      dup7\n        /* \"#utility.yul\":13612:13634   */\n      add\n        /* \"#utility.yul\":13581:13644   */\n      tag_161\n      jump\t// in\n    tag_371:\n        /* \"#utility.yul\":13571:13644   */\n      swap3\n      pop\n        /* \"#utility.yul\":13367:13654   */\n      pop\n        /* \"#utility.yul\":13693:13695   */\n      0x20\n        /* \"#utility.yul\":13719:13772   */\n      tag_372\n        /* \"#utility.yul\":13764:13771   */\n      dup6\n        /* \"#utility.yul\":13755:13761   */\n      dup3\n        /* \"#utility.yul\":13744:13753   */\n      dup7\n        /* \"#utility.yul\":13740:13762   */\n      add\n        /* \"#utility.yul\":13719:13772   */\n      tag_168\n      jump\t// in\n    tag_372:\n        /* \"#utility.yul\":13709:13772   */\n      swap2\n      pop\n        /* \"#utility.yul\":13664:13782   */\n      pop\n        /* \"#utility.yul\":13135:13789   */\n      swap3\n      pop\n      swap3\n      swap1\n      pop\n      jump\t// out\n        /* \"#utility.yul\":13795:14124   */\n    tag_76:\n        /* \"#utility.yul\":13854:13860   */\n      0x00\n        /* \"#utility.yul\":13903:13905   */\n      0x20\n        /* \"#utility.yul\":13891:13900   */\n      dup3\n        /* \"#utility.yul\":13882:13889   */\n      dup5\n        /* \"#utility.yul\":13878:13901   */\n      sub\n        /* \"#utility.yul\":13874:13906   */\n      slt\n        /* \"#utility.yul\":13871:13990   */\n      iszero\n      tag_374\n      jumpi\n        /* \"#utility.yul\":13909:13988   */\n      tag_375\n      tag_150\n      jump\t// in\n    tag_375:\n        /* \"#utility.yul\":13871:13990   */\n    tag_374:\n        /* \"#utility.yul\":14029:14030   */\n      0x00\n        /* \"#utility.yul\":14054:14107   */\n      tag_376\n        /* \"#utility.yul\":14099:14106   */\n      dup5\n        /* \"#utility.yul\":14090:14096   */\n      dup3\n        /* \"#utility.yul\":14079:14088   */\n      dup6\n        /* \"#utility.yul\":14075:14097   */\n      add\n        /* \"#utility.yul\":14054:14107   */\n      tag_183\n      jump\t// in\n    tag_376:\n        /* \"#utility.yul\":14044:14107   */\n      swap2\n      pop\n        /* \"#utility.yul\":14000:14117   */\n      pop\n        /* \"#utility.yul\":13795:14124   */\n      swap3\n      swap2\n      pop\n      pop\n      jump\t// out\n        /* \"#utility.yul\":14130:14278   */\n    tag_189:\n        /* \"#utility.yul\":14232:14243   */\n      0x00\n        /* \"#utility.yul\":14269:14272   */\n      dup2\n        /* \"#utility.yul\":14254:14272   */\n      swap1\n      pop\n        /* \"#utility.yul\":14130:14278   */\n      swap3\n      swap2\n      pop\n      pop\n      jump\t// out\n        /* \"#utility.yul\":14284:14674   */\n    tag_190:\n        /* \"#utility.yul\":14390:14393   */\n      0x00\n        /* \"#utility.yul\":14418:14457   */\n      tag_379\n        /* \"#utility.yul\":14451:14456   */\n      dup3\n        /* \"#utility.yul\":14418:14457   */\n      tag_178\n      jump\t// in\n    tag_379:\n        /* \"#utility.yul\":14473:14562   */\n      tag_380\n        /* \"#utility.yul\":14555:14561   */\n      dup2\n        /* \"#utility.yul\":14550:14553   */\n      dup6\n        /* \"#utility.yul\":14473:14562   */\n      tag_189\n      jump\t// in\n    tag_380:\n        /* \"#utility.yul\":14466:14562   */\n      swap4\n      pop\n        /* \"#utility.yul\":14571:14636   */\n      tag_381\n        /* \"#utility.yul\":14629:14635   */\n      dup2\n        /* \"#utility.yul\":14624:14627   */\n      dup6\n        /* \"#utility.yul\":14617:14621   */\n      0x20\n        /* \"#utility.yul\":14610:14615   */\n      dup7\n        /* \"#utility.yul\":14606:14622   */\n      add\n        /* \"#utility.yul\":14571:14636   */\n      tag_180\n      jump\t// in\n    tag_381:\n        /* \"#utility.yul\":14661:14667   */\n      dup1\n        /* \"#utility.yul\":14656:14659   */\n      dup5\n        /* \"#utility.yul\":14652:14668   */\n      add\n        /* \"#utility.yul\":14645:14668   */\n      swap2\n      pop\n        /* \"#utility.yul\":14394:14674   */\n      pop\n        /* \"#utility.yul\":14284:14674   */\n      swap3\n      swap2\n      pop\n      pop\n      jump\t// out\n        /* \"#utility.yul\":14680:14955   */\n    tag_81:\n        /* \"#utility.yul\":14812:14815   */\n      0x00\n        /* \"#utility.yul\":14834:14929   */\n      tag_383\n        /* \"#utility.yul\":14925:14928   */\n      dup3\n        /* \"#utility.yul\":14916:14922   */\n      dup5\n        /* \"#utility.yul\":14834:14929   */\n      tag_190\n      jump\t// in\n    tag_383:\n        /* \"#utility.yul\":14827:14929   */\n      swap2\n      pop\n        /* \"#utility.yul\":14946:14949   */\n      dup2\n        /* \"#utility.yul\":14939:14949   */\n      swap1\n      pop\n        /* \"#utility.yul\":14680:14955   */\n      swap3\n      swap2\n      pop\n      pop\n      jump\t// out\n        /* \"#utility.yul\":14961:15130   */\n    tag_191:\n        /* \"#utility.yul\":15101:15122   */\n      0x766964656f20646f65736e277420657869737400000000000000000000000000\n        /* \"#utility.yul\":15097:15098   */\n      0x00\n        /* \"#utility.yul\":15089:15095   */\n      dup3\n        /* \"#utility.yul\":15085:15099   */\n      add\n        /* \"#utility.yul\":15078:15123   */\n      mstore\n        /* \"#utility.yul\":14961:15130   */\n      pop\n      jump\t// out\n        /* \"#utility.yul\":15136:15502   */\n    tag_192:\n        /* \"#utility.yul\":15278:15281   */\n      0x00\n        /* \"#utility.yul\":15299:15366   */\n      tag_386\n        /* \"#utility.yul\":15363:15365   */\n      0x13\n        /* \"#utility.yul\":15358:15361   */\n      dup4\n        /* \"#utility.yul\":15299:15366   */\n      tag_179\n      jump\t// in\n    tag_386:\n        /* \"#utility.yul\":15292:15366   */\n      swap2\n      pop\n        /* \"#utility.yul\":15375:15468   */\n      tag_387\n        /* \"#utility.yul\":15464:15467   */\n      dup3\n        /* \"#utility.yul\":15375:15468   */\n      tag_191\n      jump\t// in\n    tag_387:\n        /* \"#utility.yul\":15493:15495   */\n      0x20\n        /* \"#utility.yul\":15488:15491   */\n      dup3\n        /* \"#utility.yul\":15484:15496   */\n      add\n        /* \"#utility.yul\":15477:15496   */\n      swap1\n      pop\n        /* \"#utility.yul\":15136:15502   */\n      swap2\n      swap1\n      pop\n      jump\t// out\n        /* \"#utility.yul\":15508:15927   */\n    tag_84:\n        /* \"#utility.yul\":15674:15678   */\n      0x00\n        /* \"#utility.yul\":15712:15714   */\n      0x20\n        /* \"#utility.yul\":15701:15710   */\n      dup3\n        /* \"#utility.yul\":15697:15715   */\n      add\n        /* \"#utility.yul\":15689:15715   */\n      swap1\n      pop\n        /* \"#utility.yul\":15761:15770   */\n      dup2\n        /* \"#utility.yul\":15755:15759   */\n      dup2\n        /* \"#utility.yul\":15751:15771   */\n      sub\n        /* \"#utility.yul\":15747:15748   */\n      0x00\n        /* \"#utility.yul\":15736:15745   */\n      dup4\n        /* \"#utility.yul\":15732:15749   */\n      add\n        /* \"#utility.yul\":15725:15772   */\n      mstore\n        /* \"#utility.yul\":15789:15920   */\n      tag_389\n        /* \"#utility.yul\":15915:15919   */\n      dup2\n        /* \"#utility.yul\":15789:15920   */\n      tag_192\n      jump\t// in\n    tag_389:\n        /* \"#utility.yul\":15781:15920   */\n      swap1\n      pop\n        /* \"#utility.yul\":15508:15927   */\n      swap2\n      swap1\n      pop\n      jump\t// out\n        /* \"#utility.yul\":15933:16012   */\n    tag_193:\n        /* \"#utility.yul\":15972:15979   */\n      0x00\n        /* \"#utility.yul\":16001:16006   */\n      dup2\n        /* \"#utility.yul\":15990:16006   */\n      swap1\n      pop\n        /* \"#utility.yul\":15933:16012   */\n      swap2\n      swap1\n      pop\n      jump\t// out\n        /* \"#utility.yul\":16018:16175   */\n    tag_194:\n        /* \"#utility.yul\":16123:16168   */\n      tag_392\n        /* \"#utility.yul\":16143:16167   */\n      tag_393\n        /* \"#utility.yul\":16161:16166   */\n      dup3\n        /* \"#utility.yul\":16143:16167   */\n      tag_165\n      jump\t// in\n    tag_393:\n        /* \"#utility.yul\":16123:16168   */\n      tag_193\n      jump\t// in\n    tag_392:\n        /* \"#utility.yul\":16118:16121   */\n      dup3\n        /* \"#utility.yul\":16111:16169   */\n      mstore\n        /* \"#utility.yul\":16018:16175   */\n      pop\n      pop\n      jump\t// out\n        /* \"#utility.yul\":16181:16898   */\n    tag_99:\n        /* \"#utility.yul\":16417:16420   */\n      0x00\n        /* \"#utility.yul\":16439:16534   */\n      tag_395\n        /* \"#utility.yul\":16530:16533   */\n      dup3\n        /* \"#utility.yul\":16521:16527   */\n      dup8\n        /* \"#utility.yul\":16439:16534   */\n      tag_190\n      jump\t// in\n    tag_395:\n        /* \"#utility.yul\":16432:16534   */\n      swap2\n      pop\n        /* \"#utility.yul\":16544:16619   */\n      tag_396\n        /* \"#utility.yul\":16615:16618   */\n      dup3\n        /* \"#utility.yul\":16606:16612   */\n      dup7\n        /* \"#utility.yul\":16544:16619   */\n      tag_194\n      jump\t// in\n    tag_396:\n        /* \"#utility.yul\":16644:16646   */\n      0x20\n        /* \"#utility.yul\":16639:16642   */\n      dup3\n        /* \"#utility.yul\":16635:16647   */\n      add\n        /* \"#utility.yul\":16628:16647   */\n      swap2\n      pop\n        /* \"#utility.yul\":16664:16759   */\n      tag_397\n        /* \"#utility.yul\":16755:16758   */\n      dup3\n        /* \"#utility.yul\":16746:16752   */\n      dup6\n        /* \"#utility.yul\":16664:16759   */\n      tag_190\n      jump\t// in\n    tag_397:\n        /* \"#utility.yul\":16657:16759   */\n      swap2\n      pop\n        /* \"#utility.yul\":16769:16844   */\n      tag_398\n        /* \"#utility.yul\":16840:16843   */\n      dup3\n        /* \"#utility.yul\":16831:16837   */\n      dup5\n        /* \"#utility.yul\":16769:16844   */\n      tag_194\n      jump\t// in\n    tag_398:\n        /* \"#utility.yul\":16869:16871   */\n      0x20\n        /* \"#utility.yul\":16864:16867   */\n      dup3\n        /* \"#utility.yul\":16860:16872   */\n      add\n        /* \"#utility.yul\":16853:16872   */\n      swap2\n      pop\n        /* \"#utility.yul\":16889:16892   */\n      dup2\n        /* \"#utility.yul\":16882:16892   */\n      swap1\n      pop\n        /* \"#utility.yul\":16181:16898   */\n      swap6\n      swap5\n      pop\n      pop\n      pop\n      pop\n      pop\n      jump\t// out\n        /* \"#utility.yul\":16904:17449   */\n    tag_103:\n        /* \"#utility.yul\":17077:17081   */\n      0x00\n        /* \"#utility.yul\":17115:17118   */\n      0x80\n        /* \"#utility.yul\":17104:17113   */\n      dup3\n        /* \"#utility.yul\":17100:17119   */\n      add\n        /* \"#utility.yul\":17092:17119   */\n      swap1\n      pop\n        /* \"#utility.yul\":17129:17200   */\n      tag_400\n        /* \"#utility.yul\":17197:17198   */\n      0x00\n        /* \"#utility.yul\":17186:17195   */\n      dup4\n        /* \"#utility.yul\":17182:17199   */\n      add\n        /* \"#utility.yul\":17173:17179   */\n      dup8\n        /* \"#utility.yul\":17129:17200   */\n      tag_177\n      jump\t// in\n    tag_400:\n        /* \"#utility.yul\":17210:17278   */\n      tag_401\n        /* \"#utility.yul\":17274:17276   */\n      0x20\n        /* \"#utility.yul\":17263:17272   */\n      dup4\n        /* \"#utility.yul\":17259:17277   */\n      add\n        /* \"#utility.yul\":17250:17256   */\n      dup7\n        /* \"#utility.yul\":17210:17278   */\n      tag_188\n      jump\t// in\n    tag_401:\n        /* \"#utility.yul\":17288:17360   */\n      tag_402\n        /* \"#utility.yul\":17356:17358   */\n      0x40\n        /* \"#utility.yul\":17345:17354   */\n      dup4\n        /* \"#utility.yul\":17341:17359   */\n      add\n        /* \"#utility.yul\":17332:17338   */\n      dup6\n        /* \"#utility.yul\":17288:17360   */\n      tag_177\n      jump\t// in\n    tag_402:\n        /* \"#utility.yul\":17370:17442   */\n      tag_403\n        /* \"#utility.yul\":17438:17440   */\n      0x60\n        /* \"#utility.yul\":17427:17436   */\n      dup4\n        /* \"#utility.yul\":17423:17441   */\n      add\n        /* \"#utility.yul\":17414:17420   */\n      dup5\n        /* \"#utility.yul\":17370:17442   */\n      tag_177\n      jump\t// in\n    tag_403:\n        /* \"#utility.yul\":16904:17449   */\n      swap6\n      swap5\n      pop\n      pop\n      pop\n      pop\n      pop\n      jump\t// out\n        /* \"#utility.yul\":17455:17622   */\n    tag_195:\n        /* \"#utility.yul\":17595:17614   */\n      0x6f776e657220616363657373206f6e6c79000000000000000000000000000000\n        /* \"#utility.yul\":17591:17592   */\n      0x00\n        /* \"#utility.yul\":17583:17589   */\n      dup3\n        /* \"#utility.yul\":17579:17593   */\n      add\n        /* \"#utility.yul\":17572:17615   */\n      mstore\n        /* \"#utility.yul\":17455:17622   */\n      pop\n      jump\t// out\n        /* \"#utility.yul\":17628:17994   */\n    tag_196:\n        /* \"#utility.yul\":17770:17773   */\n      0x00\n        /* \"#utility.yul\":17791:17858   */\n      tag_406\n        /* \"#utility.yul\":17855:17857   */\n      0x11\n        /* \"#utility.yul\":17850:17853   */\n      dup4\n        /* \"#utility.yul\":17791:17858   */\n      tag_179\n      jump\t// in\n    tag_406:\n        /* \"#utility.yul\":17784:17858   */\n      swap2\n      pop\n        /* \"#utility.yul\":17867:17960   */\n      tag_407\n        /* \"#utility.yul\":17956:17959   */\n      dup3\n        /* \"#utility.yul\":17867:17960   */\n      tag_195\n      jump\t// in\n    tag_407:\n        /* \"#utility.yul\":17985:17987   */\n      0x20\n        /* \"#utility.yul\":17980:17983   */\n      dup3\n        /* \"#utility.yul\":17976:17988   */\n      add\n        /* \"#utility.yul\":17969:17988   */\n      swap1\n      pop\n        /* \"#utility.yul\":17628:17994   */\n      swap2\n      swap1\n      pop\n      jump\t// out\n        /* \"#utility.yul\":18000:18419   */\n    tag_109:\n        /* \"#utility.yul\":18166:18170   */\n      0x00\n        /* \"#utility.yul\":18204:18206   */\n      0x20\n        /* \"#utility.yul\":18193:18202   */\n      dup3\n        /* \"#utility.yul\":18189:18207   */\n      add\n        /* \"#utility.yul\":18181:18207   */\n      swap1\n      pop\n        /* \"#utility.yul\":18253:18262   */\n      dup2\n        /* \"#utility.yul\":18247:18251   */\n      dup2\n        /* \"#utility.yul\":18243:18263   */\n      sub\n        /* \"#utility.yul\":18239:18240   */\n      0x00\n        /* \"#utility.yul\":18228:18237   */\n      dup4\n        /* \"#utility.yul\":18224:18241   */\n      add\n        /* \"#utility.yul\":18217:18264   */\n      mstore\n        /* \"#utility.yul\":18281:18412   */\n      tag_409\n        /* \"#utility.yul\":18407:18411   */\n      dup2\n        /* \"#utility.yul\":18281:18412   */\n      tag_196\n      jump\t// in\n    tag_409:\n        /* \"#utility.yul\":18273:18412   */\n      swap1\n      pop\n        /* \"#utility.yul\":18000:18419   */\n      swap2\n      swap1\n      pop\n      jump\t// out\n        /* \"#utility.yul\":18425:18594   */\n    tag_197:\n        /* \"#utility.yul\":18565:18586   */\n      0x766964656f20616c726561647920657869737400000000000000000000000000\n        /* \"#utility.yul\":18561:18562   */\n      0x00\n        /* \"#utility.yul\":18553:18559   */\n      dup3\n        /* \"#utility.yul\":18549:18563   */\n      add\n        /* \"#utility.yul\":18542:18587   */\n      mstore\n        /* \"#utility.yul\":18425:18594   */\n      pop\n      jump\t// out\n        /* \"#utility.yul\":18600:18966   */\n    tag_198:\n        /* \"#utility.yul\":18742:18745   */\n      0x00\n        /* \"#utility.yul\":18763:18830   */\n      tag_412\n        /* \"#utility.yul\":18827:18829   */\n      0x13\n        /* \"#utility.yul\":18822:18825   */\n      dup4\n        /* \"#utility.yul\":18763:18830   */\n      tag_179\n      jump\t// in\n    tag_412:\n        /* \"#utility.yul\":18756:18830   */\n      swap2\n      pop\n        /* \"#utility.yul\":18839:18932   */\n      tag_413\n        /* \"#utility.yul\":18928:18931   */\n      dup3\n        /* \"#utility.yul\":18839:18932   */\n      tag_197\n      jump\t// in\n    tag_413:\n        /* \"#utility.yul\":18957:18959   */\n      0x20\n        /* \"#utility.yul\":18952:18955   */\n      dup3\n        /* \"#utility.yul\":18948:18960   */\n      add\n        /* \"#utility.yul\":18941:18960   */\n      swap1\n      pop\n        /* \"#utility.yul\":18600:18966   */\n      swap2\n      swap1\n      pop\n      jump\t// out\n        /* \"#utility.yul\":18972:19391   */\n    tag_114:\n        /* \"#utility.yul\":19138:19142   */\n      0x00\n        /* \"#utility.yul\":19176:19178   */\n      0x20\n        /* \"#utility.yul\":19165:19174   */\n      dup3\n        /* \"#utility.yul\":19161:19179   */\n      add\n        /* \"#utility.yul\":19153:19179   */\n      swap1\n      pop\n        /* \"#utility.yul\":19225:19234   */\n      dup2\n        /* \"#utility.yul\":19219:19223   */\n      dup2\n        /* \"#utility.yul\":19215:19235   */\n      sub\n        /* \"#utility.yul\":19211:19212   */\n      0x00\n        /* \"#utility.yul\":19200:19209   */\n      dup4\n        /* \"#utility.yul\":19196:19213   */\n      add\n        /* \"#utility.yul\":19189:19236   */\n      mstore\n        /* \"#utility.yul\":19253:19384   */\n      tag_415\n        /* \"#utility.yul\":19379:19383   */\n      dup2\n        /* \"#utility.yul\":19253:19384   */\n      tag_198\n      jump\t// in\n    tag_415:\n        /* \"#utility.yul\":19245:19384   */\n      swap1\n      pop\n        /* \"#utility.yul\":18972:19391   */\n      swap2\n      swap1\n      pop\n      jump\t// out\n        /* \"#utility.yul\":19397:19618   */\n    tag_199:\n        /* \"#utility.yul\":19537:19571   */\n      0x70726963652073686f756c642062652067726561746572207468616e20302077\n        /* \"#utility.yul\":19533:19534   */\n      0x00\n        /* \"#utility.yul\":19525:19531   */\n      dup3\n        /* \"#utility.yul\":19521:19535   */\n      add\n        /* \"#utility.yul\":19514:19572   */\n      mstore\n        /* \"#utility.yul\":19606:19610   */\n      0x6569000000000000000000000000000000000000000000000000000000000000\n        /* \"#utility.yul\":19601:19603   */\n      0x20\n        /* \"#utility.yul\":19593:19599   */\n      dup3\n        /* \"#utility.yul\":19589:19604   */\n      add\n        /* \"#utility.yul\":19582:19611   */\n      mstore\n        /* \"#utility.yul\":19397:19618   */\n      pop\n      jump\t// out\n        /* \"#utility.yul\":19624:19990   */\n    tag_200:\n        /* \"#utility.yul\":19766:19769   */\n      0x00\n        /* \"#utility.yul\":19787:19854   */\n      tag_418\n        /* \"#utility.yul\":19851:19853   */\n      0x22\n        /* \"#utility.yul\":19846:19849   */\n      dup4\n        /* \"#utility.yul\":19787:19854   */\n      tag_179\n      jump\t// in\n    tag_418:\n        /* \"#utility.yul\":19780:19854   */\n      swap2\n      pop\n        /* \"#utility.yul\":19863:19956   */\n      tag_419\n        /* \"#utility.yul\":19952:19955   */\n      dup3\n        /* \"#utility.yul\":19863:19956   */\n      tag_199\n      jump\t// in\n    tag_419:\n        /* \"#utility.yul\":19981:19983   */\n      0x40\n        /* \"#utility.yul\":19976:19979   */\n      dup3\n        /* \"#utility.yul\":19972:19984   */\n      add\n        /* \"#utility.yul\":19965:19984   */\n      swap1\n      pop\n        /* \"#utility.yul\":19624:19990   */\n      swap2\n      swap1\n      pop\n      jump\t// out\n        /* \"#utility.yul\":19996:20415   */\n    tag_117:\n        /* \"#utility.yul\":20162:20166   */\n      0x00\n        /* \"#utility.yul\":20200:20202   */\n      0x20\n        /* \"#utility.yul\":20189:20198   */\n      dup3\n        /* \"#utility.yul\":20185:20203   */\n      add\n        /* \"#utility.yul\":20177:20203   */\n      swap1\n      pop\n        /* \"#utility.yul\":20249:20258   */\n      dup2\n        /* \"#utility.yul\":20243:20247   */\n      dup2\n        /* \"#utility.yul\":20239:20259   */\n      sub\n        /* \"#utility.yul\":20235:20236   */\n      0x00\n        /* \"#utility.yul\":20224:20233   */\n      dup4\n        /* \"#utility.yul\":20220:20237   */\n      add\n        /* \"#utility.yul\":20213:20260   */\n      mstore\n        /* \"#utility.yul\":20277:20408   */\n      tag_421\n        /* \"#utility.yul\":20403:20407   */\n      dup2\n        /* \"#utility.yul\":20277:20408   */\n      tag_200\n      jump\t// in\n    tag_421:\n        /* \"#utility.yul\":20269:20408   */\n      swap1\n      pop\n        /* \"#utility.yul\":19996:20415   */\n      swap2\n      swap1\n      pop\n      jump\t// out\n        /* \"#utility.yul\":20421:20595   */\n    tag_201:\n        /* \"#utility.yul\":20561:20587   */\n      0x696e76616c6964207369676e6174757265206c656e6774680000000000000000\n        /* \"#utility.yul\":20557:20558   */\n      0x00\n        /* \"#utility.yul\":20549:20555   */\n      dup3\n        /* \"#utility.yul\":20545:20559   */\n      add\n        /* \"#utility.yul\":20538:20588   */\n      mstore\n        /* \"#utility.yul\":20421:20595   */\n      pop\n      jump\t// out\n        /* \"#utility.yul\":20601:20967   */\n    tag_202:\n        /* \"#utility.yul\":20743:20746   */\n      0x00\n        /* \"#utility.yul\":20764:20831   */\n      tag_424\n        /* \"#utility.yul\":20828:20830   */\n      0x18\n        /* \"#utility.yul\":20823:20826   */\n      dup4\n        /* \"#utility.yul\":20764:20831   */\n      tag_179\n      jump\t// in\n    tag_424:\n        /* \"#utility.yul\":20757:20831   */\n      swap2\n      pop\n        /* \"#utility.yul\":20840:20933   */\n      tag_425\n        /* \"#utility.yul\":20929:20932   */\n      dup3\n        /* \"#utility.yul\":20840:20933   */\n      tag_201\n      jump\t// in\n    tag_425:\n        /* \"#utility.yul\":20958:20960   */\n      0x20\n        /* \"#utility.yul\":20953:20956   */\n      dup3\n        /* \"#utility.yul\":20949:20961   */\n      add\n        /* \"#utility.yul\":20942:20961   */\n      swap1\n      pop\n        /* \"#utility.yul\":20601:20967   */\n      swap2\n      swap1\n      pop\n      jump\t// out\n        /* \"#utility.yul\":20973:21392   */\n    tag_123:\n        /* \"#utility.yul\":21139:21143   */\n      0x00\n        /* \"#utility.yul\":21177:21179   */\n      0x20\n        /* \"#utility.yul\":21166:21175   */\n      dup3\n        /* \"#utility.yul\":21162:21180   */\n      add\n        /* \"#utility.yul\":21154:21180   */\n      swap1\n      pop\n        /* \"#utility.yul\":21226:21235   */\n      dup2\n        /* \"#utility.yul\":21220:21224   */\n      dup2\n        /* \"#utility.yul\":21216:21236   */\n      sub\n        /* \"#utility.yul\":21212:21213   */\n      0x00\n        /* \"#utility.yul\":21201:21210   */\n      dup4\n        /* \"#utility.yul\":21197:21214   */\n      add\n        /* \"#utility.yul\":21190:21237   */\n      mstore\n        /* \"#utility.yul\":21254:21385   */\n      tag_427\n        /* \"#utility.yul\":21380:21384   */\n      dup2\n        /* \"#utility.yul\":21254:21385   */\n      tag_202\n      jump\t// in\n    tag_427:\n        /* \"#utility.yul\":21246:21385   */\n      swap1\n      pop\n        /* \"#utility.yul\":20973:21392   */\n      swap2\n      swap1\n      pop\n      jump\t// out\n        /* \"#utility.yul\":21398:21564   */\n    tag_203:\n        /* \"#utility.yul\":21538:21556   */\n      0x6e6f7420656e6f75676820657468657200000000000000000000000000000000\n        /* \"#utility.yul\":21534:21535   */\n      0x00\n        /* \"#utility.yul\":21526:21532   */\n      dup3\n        /* \"#utility.yul\":21522:21536   */\n      add\n        /* \"#utility.yul\":21515:21557   */\n      mstore\n        /* \"#utility.yul\":21398:21564   */\n      pop\n      jump\t// out\n        /* \"#utility.yul\":21570:21936   */\n    tag_204:\n        /* \"#utility.yul\":21712:21715   */\n      0x00\n        /* \"#utility.yul\":21733:21800   */\n      tag_430\n        /* \"#utility.yul\":21797:21799   */\n      0x10\n        /* \"#utility.yul\":21792:21795   */\n      dup4\n        /* \"#utility.yul\":21733:21800   */\n      tag_179\n      jump\t// in\n    tag_430:\n        /* \"#utility.yul\":21726:21800   */\n      swap2\n      pop\n        /* \"#utility.yul\":21809:21902   */\n      tag_431\n        /* \"#utility.yul\":21898:21901   */\n      dup3\n        /* \"#utility.yul\":21809:21902   */\n      tag_203\n      jump\t// in\n    tag_431:\n        /* \"#utility.yul\":21927:21929   */\n      0x20\n        /* \"#utility.yul\":21922:21925   */\n      dup3\n        /* \"#utility.yul\":21918:21930   */\n      add\n        /* \"#utility.yul\":21911:21930   */\n      swap1\n      pop\n        /* \"#utility.yul\":21570:21936   */\n      swap2\n      swap1\n      pop\n      jump\t// out\n        /* \"#utility.yul\":21942:22361   */\n    tag_132:\n        /* \"#utility.yul\":22108:22112   */\n      0x00\n        /* \"#utility.yul\":22146:22148   */\n      0x20\n        /* \"#utility.yul\":22135:22144   */\n      dup3\n        /* \"#utility.yul\":22131:22149   */\n      add\n        /* \"#utility.yul\":22123:22149   */\n      swap1\n      pop\n        /* \"#utility.yul\":22195:22204   */\n      dup2\n        /* \"#utility.yul\":22189:22193   */\n      dup2\n        /* \"#utility.yul\":22185:22205   */\n      sub\n        /* \"#utility.yul\":22181:22182   */\n      0x00\n        /* \"#utility.yul\":22170:22179   */\n      dup4\n        /* \"#utility.yul\":22166:22183   */\n      add\n        /* \"#utility.yul\":22159:22206   */\n      mstore\n        /* \"#utility.yul\":22223:22354   */\n      tag_433\n        /* \"#utility.yul\":22349:22353   */\n      dup2\n        /* \"#utility.yul\":22223:22354   */\n      tag_204\n      jump\t// in\n    tag_433:\n        /* \"#utility.yul\":22215:22354   */\n      swap1\n      pop\n        /* \"#utility.yul\":21942:22361   */\n      swap2\n      swap1\n      pop\n      jump\t// out\n        /* \"#utility.yul\":22367:22514   */\n    tag_205:\n        /* \"#utility.yul\":22468:22479   */\n      0x00\n        /* \"#utility.yul\":22505:22508   */\n      dup2\n        /* \"#utility.yul\":22490:22508   */\n      swap1\n      pop\n        /* \"#utility.yul\":22367:22514   */\n      swap3\n      swap2\n      pop\n      pop\n      jump\t// out\n        /* \"#utility.yul\":22520:22634   */\n    tag_206:\n      pop\n      jump\t// out\n        /* \"#utility.yul\":22640:23038   */\n    tag_207:\n        /* \"#utility.yul\":22799:22802   */\n      0x00\n        /* \"#utility.yul\":22820:22903   */\n      tag_437\n        /* \"#utility.yul\":22901:22902   */\n      0x00\n        /* \"#utility.yul\":22896:22899   */\n      dup4\n        /* \"#utility.yul\":22820:22903   */\n      tag_205\n      jump\t// in\n    tag_437:\n        /* \"#utility.yul\":22813:22903   */\n      swap2\n      pop\n        /* \"#utility.yul\":22912:23005   */\n      tag_438\n        /* \"#utility.yul\":23001:23004   */\n      dup3\n        /* \"#utility.yul\":22912:23005   */\n      tag_206\n      jump\t// in\n    tag_438:\n        /* \"#utility.yul\":23030:23031   */\n      0x00\n        /* \"#utility.yul\":23025:23028   */\n      dup3\n        /* \"#utility.yul\":23021:23032   */\n      add\n        /* \"#utility.yul\":23014:23032   */\n      swap1\n      pop\n        /* \"#utility.yul\":22640:23038   */\n      swap2\n      swap1\n      pop\n      jump\t// out\n        /* \"#utility.yul\":23044:23423   */\n    tag_136:\n        /* \"#utility.yul\":23228:23231   */\n      0x00\n        /* \"#utility.yul\":23250:23397   */\n      tag_440\n        /* \"#utility.yul\":23393:23396   */\n      dup3\n        /* \"#utility.yul\":23250:23397   */\n      tag_207\n      jump\t// in\n    tag_440:\n        /* \"#utility.yul\":23243:23397   */\n      swap2\n      pop\n        /* \"#utility.yul\":23414:23417   */\n      dup2\n        /* \"#utility.yul\":23407:23417   */\n      swap1\n      pop\n        /* \"#utility.yul\":23044:23423   */\n      swap2\n      swap1\n      pop\n      jump\t// out\n        /* \"#utility.yul\":23429:23599   */\n    tag_208:\n        /* \"#utility.yul\":23569:23591   */\n      0x6661696c656420746f2073656e64206574686572000000000000000000000000\n        /* \"#utility.yul\":23565:23566   */\n      0x00\n        /* \"#utility.yul\":23557:23563   */\n      dup3\n        /* \"#utility.yul\":23553:23567   */\n      add\n        /* \"#utility.yul\":23546:23592   */\n      mstore\n        /* \"#utility.yul\":23429:23599   */\n      pop\n      jump\t// out\n        /* \"#utility.yul\":23605:23971   */\n    tag_209:\n        /* \"#utility.yul\":23747:23750   */\n      0x00\n        /* \"#utility.yul\":23768:23835   */\n      tag_443\n        /* \"#utility.yul\":23832:23834   */\n      0x14\n        /* \"#utility.yul\":23827:23830   */\n      dup4\n        /* \"#utility.yul\":23768:23835   */\n      tag_179\n      jump\t// in\n    tag_443:\n        /* \"#utility.yul\":23761:23835   */\n      swap2\n      pop\n        /* \"#utility.yul\":23844:23937   */\n      tag_444\n        /* \"#utility.yul\":23933:23936   */\n      dup3\n        /* \"#utility.yul\":23844:23937   */\n      tag_208\n      jump\t// in\n    tag_444:\n        /* \"#utility.yul\":23962:23964   */\n      0x20\n        /* \"#utility.yul\":23957:23960   */\n      dup3\n        /* \"#utility.yul\":23953:23965   */\n      add\n        /* \"#utility.yul\":23946:23965   */\n      swap1\n      pop\n        /* \"#utility.yul\":23605:23971   */\n      swap2\n      swap1\n      pop\n      jump\t// out\n        /* \"#utility.yul\":23977:24396   */\n    tag_142:\n        /* \"#utility.yul\":24143:24147   */\n      0x00\n        /* \"#utility.yul\":24181:24183   */\n      0x20\n        /* \"#utility.yul\":24170:24179   */\n      dup3\n        /* \"#utility.yul\":24166:24184   */\n      add\n        /* \"#utility.yul\":24158:24184   */\n      swap1\n      pop\n        /* \"#utility.yul\":24230:24239   */\n      dup2\n        /* \"#utility.yul\":24224:24228   */\n      dup2\n        /* \"#utility.yul\":24220:24240   */\n      sub\n        /* \"#utility.yul\":24216:24217   */\n      0x00\n        /* \"#utility.yul\":24205:24214   */\n      dup4\n        /* \"#utility.yul\":24201:24218   */\n      add\n        /* \"#utility.yul\":24194:24241   */\n      mstore\n        /* \"#utility.yul\":24258:24389   */\n      tag_446\n        /* \"#utility.yul\":24384:24388   */\n      dup2\n        /* \"#utility.yul\":24258:24389   */\n      tag_209\n      jump\t// in\n    tag_446:\n        /* \"#utility.yul\":24250:24389   */\n      swap1\n      pop\n        /* \"#utility.yul\":23977:24396   */\n      swap2\n      swap1\n      pop\n      jump\t// out\n        /* \"#utility.yul\":24402:24616   */\n    tag_210:\n        /* \"#utility.yul\":24542:24608   */\n      0x19457468657265756d205369676e6564204d6573736167653a0a333200000000\n        /* \"#utility.yul\":24538:24539   */\n      0x00\n        /* \"#utility.yul\":24530:24536   */\n      dup3\n        /* \"#utility.yul\":24526:24540   */\n      add\n        /* \"#utility.yul\":24519:24609   */\n      mstore\n        /* \"#utility.yul\":24402:24616   */\n      pop\n      jump\t// out\n        /* \"#utility.yul\":24622:25024   */\n    tag_211:\n        /* \"#utility.yul\":24782:24785   */\n      0x00\n        /* \"#utility.yul\":24803:24888   */\n      tag_449\n        /* \"#utility.yul\":24885:24887   */\n      0x1c\n        /* \"#utility.yul\":24880:24883   */\n      dup4\n        /* \"#utility.yul\":24803:24888   */\n      tag_189\n      jump\t// in\n    tag_449:\n        /* \"#utility.yul\":24796:24888   */\n      swap2\n      pop\n        /* \"#utility.yul\":24897:24990   */\n      tag_450\n        /* \"#utility.yul\":24986:24989   */\n      dup3\n        /* \"#utility.yul\":24897:24990   */\n      tag_210\n      jump\t// in\n    tag_450:\n        /* \"#utility.yul\":25015:25017   */\n      0x1c\n        /* \"#utility.yul\":25010:25013   */\n      dup3\n        /* \"#utility.yul\":25006:25018   */\n      add\n        /* \"#utility.yul\":24999:25018   */\n      swap1\n      pop\n        /* \"#utility.yul\":24622:25024   */\n      swap2\n      swap1\n      pop\n      jump\t// out\n        /* \"#utility.yul\":25030:25109   */\n    tag_212:\n        /* \"#utility.yul\":25069:25076   */\n      0x00\n        /* \"#utility.yul\":25098:25103   */\n      dup2\n        /* \"#utility.yul\":25087:25103   */\n      swap1\n      pop\n        /* \"#utility.yul\":25030:25109   */\n      swap2\n      swap1\n      pop\n      jump\t// out\n        /* \"#utility.yul\":25115:25272   */\n    tag_213:\n        /* \"#utility.yul\":25220:25265   */\n      tag_453\n        /* \"#utility.yul\":25240:25264   */\n      tag_454\n        /* \"#utility.yul\":25258:25263   */\n      dup3\n        /* \"#utility.yul\":25240:25264   */\n      tag_176\n      jump\t// in\n    tag_454:\n        /* \"#utility.yul\":25220:25265   */\n      tag_212\n      jump\t// in\n    tag_453:\n        /* \"#utility.yul\":25215:25218   */\n      dup3\n        /* \"#utility.yul\":25208:25266   */\n      mstore\n        /* \"#utility.yul\":25115:25272   */\n      pop\n      pop\n      jump\t// out\n        /* \"#utility.yul\":25278:25800   */\n    tag_148:\n        /* \"#utility.yul\":25491:25494   */\n      0x00\n        /* \"#utility.yul\":25513:25661   */\n      tag_456\n        /* \"#utility.yul\":25657:25660   */\n      dup3\n        /* \"#utility.yul\":25513:25661   */\n      tag_211\n      jump\t// in\n    tag_456:\n        /* \"#utility.yul\":25506:25661   */\n      swap2\n      pop\n        /* \"#utility.yul\":25671:25746   */\n      tag_457\n        /* \"#utility.yul\":25742:25745   */\n      dup3\n        /* \"#utility.yul\":25733:25739   */\n      dup5\n        /* \"#utility.yul\":25671:25746   */\n      tag_213\n      jump\t// in\n    tag_457:\n        /* \"#utility.yul\":25771:25773   */\n      0x20\n        /* \"#utility.yul\":25766:25769   */\n      dup3\n        /* \"#utility.yul\":25762:25774   */\n      add\n        /* \"#utility.yul\":25755:25774   */\n      swap2\n      pop\n        /* \"#utility.yul\":25791:25794   */\n      dup2\n        /* \"#utility.yul\":25784:25794   */\n      swap1\n      pop\n        /* \"#utility.yul\":25278:25800   */\n      swap3\n      swap2\n      pop\n      pop\n      jump\t// out\n    stop\n    data_5e345429bcb605cb5de65533de0a747fab0d925fdd1ff1bf2e9897f50d4ccc9e 4920616772656520746f207369676e2074686520636f6e7472616374206174205b616464726573735d\n\n    auxdata: 0xa264697066735822122008b22ccc92faf5e4f450a651bbf535df043cd75f8874a59220ac1ea9898896ed64736f6c63430008190033\n}\n",
				"bytecode": {
					"linkReferences": {},
					"object": "6080604052348015600e575f80fd5b50335f806101000a81548173ffffffffffffffffffffffffffffffffffffffff021916908373ffffffffffffffffffffffffffffffffffffffff1602179055506116ca8061005b5f395ff3fe60806040526004361061009b575f3560e01c806397aba7f91161006357806397aba7f9146101b9578063a41c51ac146101f5578063a7bb58031461021d578063b3a63b201461025b578063bc7a4a1a14610277578063fa540801146102b35761009b565b80634aaf4a121461009f578063524f3889146100db57806358b77985146101175780637003ea1c146101535780637db3a9461461018f575b5f80fd5b3480156100aa575f80fd5b506100c560048036038101906100c09190610b9d565b6102ef565b6040516100d29190610c23565b60405180910390f35b3480156100e6575f80fd5b5061010160048036038101906100fc9190610b9d565b610397565b60405161010e9190610c54565b60405180910390f35b348015610122575f80fd5b5061013d60048036038101906101389190610d5f565b610420565b60405161014a9190610e28565b60405180910390f35b34801561015e575f80fd5b5061017960048036038101906101749190610e41565b610480565b6040516101869190610ec5565b60405180910390f35b34801561019a575f80fd5b506101a36104cf565b6040516101b09190610f3e565b60405180910390f35b3480156101c4575f80fd5b506101df60048036038101906101da9190610f88565b6104eb565b6040516101ec9190610c23565b60405180910390f35b348015610200575f80fd5b5061021b6004803603810190610216919061101d565b610555565b005b348015610228575f80fd5b50610243600480360381019061023e9190611089565b610708565b604051610252939291906110eb565b60405180910390f35b61027560048036038101906102709190610b9d565b61076d565b005b348015610282575f80fd5b5061029d60048036038101906102989190611120565b6109b2565b6040516102aa9190610e28565b60405180910390f35b3480156102be575f80fd5b506102d960048036038101906102d4919061117a565b610a21565b6040516102e69190610ec5565b60405180910390f35b5f815f60028260405161030291906111df565b90815260200160405180910390205411610351576040517f08c379a00000000000000000000000000000000000000000000000000000000081526004016103489061123f565b60405180910390fd5b60018360405161036191906111df565b90815260200160405180910390205f9054906101000a900473ffffffffffffffffffffffffffffffffffffffff16915050919050565b5f815f6002826040516103aa91906111df565b908152602001604051809103902054116103f9576040517f08c379a00000000000000000000000000000000000000000000000000000000081526004016103f09061123f565b60405180910390fd5b60028360405161040991906111df565b908152602001604051809103902054915050919050565b5f8061042d868686610480565b90505f61043982610a21565b90508773ffffffffffffffffffffffffffffffffffffffff1661045c82866104eb565b73ffffffffffffffffffffffffffffffffffffffff16149250505095945050505050565b5f838360405180606001604052806029815260200161166c60299139846040516020016104b0949392919061127d565b6040516020818303038152906040528051906020012090509392505050565b60405180606001604052806029815260200161166c6029913981565b5f805f806104f885610708565b9250925092506001868285856040515f815260200160405260405161052094939291906112c2565b6020604051602081039080840390855afa158015610540573d5f803e3d5ffd5b50505060206040510351935050505092915050565b3373ffffffffffffffffffffffffffffffffffffffff165f8054906101000a900473ffffffffffffffffffffffffffffffffffffffff1673ffffffffffffffffffffffffffffffffffffffff16146105e2576040517f08c379a00000000000000000000000000000000000000000000000000000000081526004016105d99061134f565b60405180910390fd5b5f6002846040516105f391906111df565b90815260200160405180910390205414610642576040517f08c379a0000000000000000000000000000000000000000000000000000000008152600401610639906113b7565b60405180910390fd5b5f8111610684576040517f08c379a000000000000000000000000000000000000000000000000000000000815260040161067b90611445565b60405180910390fd5b8160018460405161069591906111df565b90815260200160405180910390205f6101000a81548173ffffffffffffffffffffffffffffffffffffffff021916908373ffffffffffffffffffffffffffffffffffffffff160217905550806002846040516106f191906111df565b908152602001604051809103902081905550505050565b5f805f604184511461074f576040517f08c379a0000000000000000000000000000000000000000000000000000000008152600401610746906114ad565b60405180910390fd5b602084015192506040840151915060608401515f1a90509193909250565b805f60028260405161077f91906111df565b908152602001604051809103902054116107ce576040517f08c379a00000000000000000000000000000000000000000000000000000000081526004016107c59061123f565b60405180910390fd5b6002826040516107de91906111df565b90815260200160405180910390205434101561082f576040517f08c379a000000000000000000000000000000000000000000000000000000000815260040161082690611515565b60405180910390fd5b5f60028360405161084091906111df565b90815260200160405180910390205490505f60018460405161086291906111df565b90815260200160405180910390205f9054906101000a900473ffffffffffffffffffffffffffffffffffffffff1690505f8173ffffffffffffffffffffffffffffffffffffffff16836040516108b790611560565b5f6040518083038185875af1925050503d805f81146108f1576040519150601f19603f3d011682016040523d82523d5f602084013e6108f6565b606091505b505090508061093a576040517f08c379a0000000000000000000000000000000000000000000000000000000008152600401610931906115be565b60405180910390fd5b600160038660405161094c91906111df565b90815260200160405180910390205f3373ffffffffffffffffffffffffffffffffffffffff1673ffffffffffffffffffffffffffffffffffffffff1681526020019081526020015f205f6101000a81548160ff0219169083151502179055505050505050565b5f6003836040516109c391906111df565b90815260200160405180910390205f8373ffffffffffffffffffffffffffffffffffffffff1673ffffffffffffffffffffffffffffffffffffffff1681526020019081526020015f205f9054906101000a900460ff16905092915050565b5f81604051602001610a339190611646565b604051602081830303815290604052805190602001209050919050565b5f604051905090565b5f80fd5b5f80fd5b5f80fd5b5f80fd5b5f601f19601f8301169050919050565b7f4e487b71000000000000000000000000000000000000000000000000000000005f52604160045260245ffd5b610aaf82610a69565b810181811067ffffffffffffffff82111715610ace57610acd610a79565b5b80604052505050565b5f610ae0610a50565b9050610aec8282610aa6565b919050565b5f67ffffffffffffffff821115610b0b57610b0a610a79565b5b610b1482610a69565b9050602081019050919050565b828183375f83830152505050565b5f610b41610b3c84610af1565b610ad7565b905082815260208101848484011115610b5d57610b5c610a65565b5b610b68848285610b21565b509392505050565b5f82601f830112610b8457610b83610a61565b5b8135610b94848260208601610b2f565b91505092915050565b5f60208284031215610bb257610bb1610a59565b5b5f82013567ffffffffffffffff811115610bcf57610bce610a5d565b5b610bdb84828501610b70565b91505092915050565b5f73ffffffffffffffffffffffffffffffffffffffff82169050919050565b5f610c0d82610be4565b9050919050565b610c1d81610c03565b82525050565b5f602082019050610c365f830184610c14565b92915050565b5f819050919050565b610c4e81610c3c565b82525050565b5f602082019050610c675f830184610c45565b92915050565b610c7681610c03565b8114610c80575f80fd5b50565b5f81359050610c9181610c6d565b92915050565b610ca081610c3c565b8114610caa575f80fd5b50565b5f81359050610cbb81610c97565b92915050565b5f67ffffffffffffffff821115610cdb57610cda610a79565b5b610ce482610a69565b9050602081019050919050565b5f610d03610cfe84610cc1565b610ad7565b905082815260208101848484011115610d1f57610d1e610a65565b5b610d2a848285610b21565b509392505050565b5f82601f830112610d4657610d45610a61565b5b8135610d56848260208601610cf1565b91505092915050565b5f805f805f60a08688031215610d7857610d77610a59565b5b5f610d8588828901610c83565b955050602086013567ffffffffffffffff811115610da657610da5610a5d565b5b610db288828901610b70565b9450506040610dc388828901610cad565b9350506060610dd488828901610cad565b925050608086013567ffffffffffffffff811115610df557610df4610a5d565b5b610e0188828901610d32565b9150509295509295909350565b5f8115159050919050565b610e2281610e0e565b82525050565b5f602082019050610e3b5f830184610e19565b92915050565b5f805f60608486031215610e5857610e57610a59565b5b5f84013567ffffffffffffffff811115610e7557610e74610a5d565b5b610e8186828701610b70565b9350506020610e9286828701610cad565b9250506040610ea386828701610cad565b9150509250925092565b5f819050919050565b610ebf81610ead565b82525050565b5f602082019050610ed85f830184610eb6565b92915050565b5f81519050919050565b5f82825260208201905092915050565b8281835e5f83830152505050565b5f610f1082610ede565b610f1a8185610ee8565b9350610f2a818560208601610ef8565b610f3381610a69565b840191505092915050565b5f6020820190508181035f830152610f568184610f06565b905092915050565b610f6781610ead565b8114610f71575f80fd5b50565b5f81359050610f8281610f5e565b92915050565b5f8060408385031215610f9e57610f9d610a59565b5b5f610fab85828601610f74565b925050602083013567ffffffffffffffff811115610fcc57610fcb610a5d565b5b610fd885828601610d32565b9150509250929050565b5f610fec82610be4565b9050919050565b610ffc81610fe2565b8114611006575f80fd5b50565b5f8135905061101781610ff3565b92915050565b5f805f6060848603121561103457611033610a59565b5b5f84013567ffffffffffffffff81111561105157611050610a5d565b5b61105d86828701610b70565b935050602061106e86828701611009565b925050604061107f86828701610cad565b9150509250925092565b5f6020828403121561109e5761109d610a59565b5b5f82013567ffffffffffffffff8111156110bb576110ba610a5d565b5b6110c784828501610d32565b91505092915050565b5f60ff82169050919050565b6110e5816110d0565b82525050565b5f6060820190506110fe5f830186610eb6565b61110b6020830185610eb6565b61111860408301846110dc565b949350505050565b5f806040838503121561113657611135610a59565b5b5f83013567ffffffffffffffff81111561115357611152610a5d565b5b61115f85828601610b70565b925050602061117085828601610c83565b9150509250929050565b5f6020828403121561118f5761118e610a59565b5b5f61119c84828501610f74565b91505092915050565b5f81905092915050565b5f6111b982610ede565b6111c381856111a5565b93506111d3818560208601610ef8565b80840191505092915050565b5f6111ea82846111af565b915081905092915050565b7f766964656f20646f65736e2774206578697374000000000000000000000000005f82015250565b5f611229601383610ee8565b9150611234826111f5565b602082019050919050565b5f6020820190508181035f8301526112568161121d565b9050919050565b5f819050919050565b61127761127282610c3c565b61125d565b82525050565b5f61128882876111af565b91506112948286611266565b6020820191506112a482856111af565b91506112b08284611266565b60208201915081905095945050505050565b5f6080820190506112d55f830187610eb6565b6112e260208301866110dc565b6112ef6040830185610eb6565b6112fc6060830184610eb6565b95945050505050565b7f6f776e657220616363657373206f6e6c790000000000000000000000000000005f82015250565b5f611339601183610ee8565b915061134482611305565b602082019050919050565b5f6020820190508181035f8301526113668161132d565b9050919050565b7f766964656f20616c7265616479206578697374000000000000000000000000005f82015250565b5f6113a1601383610ee8565b91506113ac8261136d565b602082019050919050565b5f6020820190508181035f8301526113ce81611395565b9050919050565b7f70726963652073686f756c642062652067726561746572207468616e203020775f8201527f6569000000000000000000000000000000000000000000000000000000000000602082015250565b5f61142f602283610ee8565b915061143a826113d5565b604082019050919050565b5f6020820190508181035f83015261145c81611423565b9050919050565b7f696e76616c6964207369676e6174757265206c656e67746800000000000000005f82015250565b5f611497601883610ee8565b91506114a282611463565b602082019050919050565b5f6020820190508181035f8301526114c48161148b565b9050919050565b7f6e6f7420656e6f756768206574686572000000000000000000000000000000005f82015250565b5f6114ff601083610ee8565b915061150a826114cb565b602082019050919050565b5f6020820190508181035f83015261152c816114f3565b9050919050565b5f81905092915050565b50565b5f61154b5f83611533565b91506115568261153d565b5f82019050919050565b5f61156a82611540565b9150819050919050565b7f6661696c656420746f2073656e642065746865720000000000000000000000005f82015250565b5f6115a8601483610ee8565b91506115b382611574565b602082019050919050565b5f6020820190508181035f8301526115d58161159c565b9050919050565b7f19457468657265756d205369676e6564204d6573736167653a0a3332000000005f82015250565b5f611610601c836111a5565b915061161b826115dc565b601c82019050919050565b5f819050919050565b61164061163b82610ead565b611626565b82525050565b5f61165082611604565b915061165c828461162f565b6020820191508190509291505056fe4920616772656520746f207369676e2074686520636f6e7472616374206174205b616464726573735da264697066735822122008b22ccc92faf5e4f450a651bbf535df043cd75f8874a59220ac1ea9898896ed64736f6c63430008190033",
					"opcodes": "PUSH1 0x80 PUSH1 0x40 MSTORE CALLVALUE DUP1 ISZERO PUSH1 0xE JUMPI PUSH0 DUP1 REVERT JUMPDEST POP CALLER PUSH0 DUP1 PUSH2 0x100 EXP DUP2 SLOAD DUP2 PUSH20 0xFFFFFFFFFFFFFFFFFFFFFFFFFFFFFFFFFFFFFFFF MUL NOT AND SWAP1 DUP4 PUSH20 0xFFFFFFFFFFFFFFFFFFFFFFFFFFFFFFFFFFFFFFFF AND MUL OR SWAP1 SSTORE POP PUSH2 0x16CA DUP1 PUSH2 0x5B PUSH0 CODECOPY PUSH0 RETURN INVALID PUSH1 0x80 PUSH1 0x40 MSTORE PUSH1 0x4 CALLDATASIZE LT PUSH2 0x9B JUMPI PUSH0 CALLDATALOAD PUSH1 0xE0 SHR DUP1 PUSH4 0x97ABA7F9 GT PUSH2 0x63 JUMPI DUP1 PUSH4 0x97ABA7F9 EQ PUSH2 0x1B9 JUMPI DUP1 PUSH4 0xA41C51AC EQ PUSH2 0x1F5 JUMPI DUP1 PUSH4 0xA7BB5803 EQ PUSH2 0x21D JUMPI DUP1 PUSH4 0xB3A63B20 EQ PUSH2 0x25B JUMPI DUP1 PUSH4 0xBC7A4A1A EQ PUSH2 0x277 JUMPI DUP1 PUSH4 0xFA540801 EQ PUSH2 0x2B3 JUMPI PUSH2 0x9B JUMP JUMPDEST DUP1 PUSH4 0x4AAF4A12 EQ PUSH2 0x9F JUMPI DUP1 PUSH4 0x524F3889 EQ PUSH2 0xDB JUMPI DUP1 PUSH4 0x58B77985 EQ PUSH2 0x117 JUMPI DUP1 PUSH4 0x7003EA1C EQ PUSH2 0x153 JUMPI DUP1 PUSH4 0x7DB3A946 EQ PUSH2 0x18F JUMPI JUMPDEST PUSH0 DUP1 REVERT JUMPDEST CALLVALUE DUP1 ISZERO PUSH2 0xAA JUMPI PUSH0 DUP1 REVERT JUMPDEST POP PUSH2 0xC5 PUSH1 0x4 DUP1 CALLDATASIZE SUB DUP2 ADD SWAP1 PUSH2 0xC0 SWAP2 SWAP1 PUSH2 0xB9D JUMP JUMPDEST PUSH2 0x2EF JUMP JUMPDEST PUSH1 0x40 MLOAD PUSH2 0xD2 SWAP2 SWAP1 PUSH2 0xC23 JUMP JUMPDEST PUSH1 0x40 MLOAD DUP1 SWAP2 SUB SWAP1 RETURN JUMPDEST CALLVALUE DUP1 ISZERO PUSH2 0xE6 JUMPI PUSH0 DUP1 REVERT JUMPDEST POP PUSH2 0x101 PUSH1 0x4 DUP1 CALLDATASIZE SUB DUP2 ADD SWAP1 PUSH2 0xFC SWAP2 SWAP1 PUSH2 0xB9D JUMP JUMPDEST PUSH2 0x397 JUMP JUMPDEST PUSH1 0x40 MLOAD PUSH2 0x10E SWAP2 SWAP1 PUSH2 0xC54 JUMP JUMPDEST PUSH1 0x40 MLOAD DUP1 SWAP2 SUB SWAP1 RETURN JUMPDEST CALLVALUE DUP1 ISZERO PUSH2 0x122 JUMPI PUSH0 DUP1 REVERT JUMPDEST POP PUSH2 0x13D PUSH1 0x4 DUP1 CALLDATASIZE SUB DUP2 ADD SWAP1 PUSH2 0x138 SWAP2 SWAP1 PUSH2 0xD5F JUMP JUMPDEST PUSH2 0x420 JUMP JUMPDEST PUSH1 0x40 MLOAD PUSH2 0x14A SWAP2 SWAP1 PUSH2 0xE28 JUMP JUMPDEST PUSH1 0x40 MLOAD DUP1 SWAP2 SUB SWAP1 RETURN JUMPDEST CALLVALUE DUP1 ISZERO PUSH2 0x15E JUMPI PUSH0 DUP1 REVERT JUMPDEST POP PUSH2 0x179 PUSH1 0x4 DUP1 CALLDATASIZE SUB DUP2 ADD SWAP1 PUSH2 0x174 SWAP2 SWAP1 PUSH2 0xE41 JUMP JUMPDEST PUSH2 0x480 JUMP JUMPDEST PUSH1 0x40 MLOAD PUSH2 0x186 SWAP2 SWAP1 PUSH2 0xEC5 JUMP JUMPDEST PUSH1 0x40 MLOAD DUP1 SWAP2 SUB SWAP1 RETURN JUMPDEST CALLVALUE DUP1 ISZERO PUSH2 0x19A JUMPI PUSH0 DUP1 REVERT JUMPDEST POP PUSH2 0x1A3 PUSH2 0x4CF JUMP JUMPDEST PUSH1 0x40 MLOAD PUSH2 0x1B0 SWAP2 SWAP1 PUSH2 0xF3E JUMP JUMPDEST PUSH1 0x40 MLOAD DUP1 SWAP2 SUB SWAP1 RETURN JUMPDEST CALLVALUE DUP1 ISZERO PUSH2 0x1C4 JUMPI PUSH0 DUP1 REVERT JUMPDEST POP PUSH2 0x1DF PUSH1 0x4 DUP1 CALLDATASIZE SUB DUP2 ADD SWAP1 PUSH2 0x1DA SWAP2 SWAP1 PUSH2 0xF88 JUMP JUMPDEST PUSH2 0x4EB JUMP JUMPDEST PUSH1 0x40 MLOAD PUSH2 0x1EC SWAP2 SWAP1 PUSH2 0xC23 JUMP JUMPDEST PUSH1 0x40 MLOAD DUP1 SWAP2 SUB SWAP1 RETURN JUMPDEST CALLVALUE DUP1 ISZERO PUSH2 0x200 JUMPI PUSH0 DUP1 REVERT JUMPDEST POP PUSH2 0x21B PUSH1 0x4 DUP1 CALLDATASIZE SUB DUP2 ADD SWAP1 PUSH2 0x216 SWAP2 SWAP1 PUSH2 0x101D JUMP JUMPDEST PUSH2 0x555 JUMP JUMPDEST STOP JUMPDEST CALLVALUE DUP1 ISZERO PUSH2 0x228 JUMPI PUSH0 DUP1 REVERT JUMPDEST POP PUSH2 0x243 PUSH1 0x4 DUP1 CALLDATASIZE SUB DUP2 ADD SWAP1 PUSH2 0x23E SWAP2 SWAP1 PUSH2 0x1089 JUMP JUMPDEST PUSH2 0x708 JUMP JUMPDEST PUSH1 0x40 MLOAD PUSH2 0x252 SWAP4 SWAP3 SWAP2 SWAP1 PUSH2 0x10EB JUMP JUMPDEST PUSH1 0x40 MLOAD DUP1 SWAP2 SUB SWAP1 RETURN JUMPDEST PUSH2 0x275 PUSH1 0x4 DUP1 CALLDATASIZE SUB DUP2 ADD SWAP1 PUSH2 0x270 SWAP2 SWAP1 PUSH2 0xB9D JUMP JUMPDEST PUSH2 0x76D JUMP JUMPDEST STOP JUMPDEST CALLVALUE DUP1 ISZERO PUSH2 0x282 JUMPI PUSH0 DUP1 REVERT JUMPDEST POP PUSH2 0x29D PUSH1 0x4 DUP1 CALLDATASIZE SUB DUP2 ADD SWAP1 PUSH2 0x298 SWAP2 SWAP1 PUSH2 0x1120 JUMP JUMPDEST PUSH2 0x9B2 JUMP JUMPDEST PUSH1 0x40 MLOAD PUSH2 0x2AA SWAP2 SWAP1 PUSH2 0xE28 JUMP JUMPDEST PUSH1 0x40 MLOAD DUP1 SWAP2 SUB SWAP1 RETURN JUMPDEST CALLVALUE DUP1 ISZERO PUSH2 0x2BE JUMPI PUSH0 DUP1 REVERT JUMPDEST POP PUSH2 0x2D9 PUSH1 0x4 DUP1 CALLDATASIZE SUB DUP2 ADD SWAP1 PUSH2 0x2D4 SWAP2 SWAP1 PUSH2 0x117A JUMP JUMPDEST PUSH2 0xA21 JUMP JUMPDEST PUSH1 0x40 MLOAD PUSH2 0x2E6 SWAP2 SWAP1 PUSH2 0xEC5 JUMP JUMPDEST PUSH1 0x40 MLOAD DUP1 SWAP2 SUB SWAP1 RETURN JUMPDEST PUSH0 DUP2 PUSH0 PUSH1 0x2 DUP3 PUSH1 0x40 MLOAD PUSH2 0x302 SWAP2 SWAP1 PUSH2 0x11DF JUMP JUMPDEST SWAP1 DUP2 MSTORE PUSH1 0x20 ADD PUSH1 0x40 MLOAD DUP1 SWAP2 SUB SWAP1 KECCAK256 SLOAD GT PUSH2 0x351 JUMPI PUSH1 0x40 MLOAD PUSH32 0x8C379A000000000000000000000000000000000000000000000000000000000 DUP2 MSTORE PUSH1 0x4 ADD PUSH2 0x348 SWAP1 PUSH2 0x123F JUMP JUMPDEST PUSH1 0x40 MLOAD DUP1 SWAP2 SUB SWAP1 REVERT JUMPDEST PUSH1 0x1 DUP4 PUSH1 0x40 MLOAD PUSH2 0x361 SWAP2 SWAP1 PUSH2 0x11DF JUMP JUMPDEST SWAP1 DUP2 MSTORE PUSH1 0x20 ADD PUSH1 0x40 MLOAD DUP1 SWAP2 SUB SWAP1 KECCAK256 PUSH0 SWAP1 SLOAD SWAP1 PUSH2 0x100 EXP SWAP1 DIV PUSH20 0xFFFFFFFFFFFFFFFFFFFFFFFFFFFFFFFFFFFFFFFF AND SWAP2 POP POP SWAP2 SWAP1 POP JUMP JUMPDEST PUSH0 DUP2 PUSH0 PUSH1 0x2 DUP3 PUSH1 0x40 MLOAD PUSH2 0x3AA SWAP2 SWAP1 PUSH2 0x11DF JUMP JUMPDEST SWAP1 DUP2 MSTORE PUSH1 0x20 ADD PUSH1 0x40 MLOAD DUP1 SWAP2 SUB SWAP1 KECCAK256 SLOAD GT PUSH2 0x3F9 JUMPI PUSH1 0x40 MLOAD PUSH32 0x8C379A000000000000000000000000000000000000000000000000000000000 DUP2 MSTORE PUSH1 0x4 ADD PUSH2 0x3F0 SWAP1 PUSH2 0x123F JUMP JUMPDEST PUSH1 0x40 MLOAD DUP1 SWAP2 SUB SWAP1 REVERT JUMPDEST PUSH1 0x2 DUP4 PUSH1 0x40 MLOAD PUSH2 0x409 SWAP2 SWAP1 PUSH2 0x11DF JUMP JUMPDEST SWAP1 DUP2 MSTORE PUSH1 0x20 ADD PUSH1 0x40 MLOAD DUP1 SWAP2 SUB SWAP1 KECCAK256 SLOAD SWAP2 POP POP SWAP2 SWAP1 POP JUMP JUMPDEST PUSH0 DUP1 PUSH2 0x42D DUP7 DUP7 DUP7 PUSH2 0x480 JUMP JUMPDEST SWAP1 POP PUSH0 PUSH2 0x439 DUP3 PUSH2 0xA21 JUMP JUMPDEST SWAP1 POP DUP8 PUSH20 0xFFFFFFFFFFFFFFFFFFFFFFFFFFFFFFFFFFFFFFFF AND PUSH2 0x45C DUP3 DUP7 PUSH2 0x4EB JUMP JUMPDEST PUSH20 0xFFFFFFFFFFFFFFFFFFFFFFFFFFFFFFFFFFFFFFFF AND EQ SWAP3 POP POP POP SWAP6 SWAP5 POP POP POP POP POP JUMP JUMPDEST PUSH0 DUP4 DUP4 PUSH1 0x40 MLOAD DUP1 PUSH1 0x60 ADD PUSH1 0x40 MSTORE DUP1 PUSH1 0x29 DUP2 MSTORE PUSH1 0x20 ADD PUSH2 0x166C PUSH1 0x29 SWAP2 CODECOPY DUP5 PUSH1 0x40 MLOAD PUSH1 0x20 ADD PUSH2 0x4B0 SWAP5 SWAP4 SWAP3 SWAP2 SWAP1 PUSH2 0x127D JUMP JUMPDEST PUSH1 0x40 MLOAD PUSH1 0x20 DUP2 DUP4 SUB SUB DUP2 MSTORE SWAP1 PUSH1 0x40 MSTORE DUP1 MLOAD SWAP1 PUSH1 0x20 ADD KECCAK256 SWAP1 POP SWAP4 SWAP3 POP POP POP JUMP JUMPDEST PUSH1 0x40 MLOAD DUP1 PUSH1 0x60 ADD PUSH1 0x40 MSTORE DUP1 PUSH1 0x29 DUP2 MSTORE PUSH1 0x20 ADD PUSH2 0x166C PUSH1 0x29 SWAP2 CODECOPY DUP2 JUMP JUMPDEST PUSH0 DUP1 PUSH0 DUP1 PUSH2 0x4F8 DUP6 PUSH2 0x708 JUMP JUMPDEST SWAP3 POP SWAP3 POP SWAP3 POP PUSH1 0x1 DUP7 DUP3 DUP6 DUP6 PUSH1 0x40 MLOAD PUSH0 DUP2 MSTORE PUSH1 0x20 ADD PUSH1 0x40 MSTORE PUSH1 0x40 MLOAD PUSH2 0x520 SWAP5 SWAP4 SWAP3 SWAP2 SWAP1 PUSH2 0x12C2 JUMP JUMPDEST PUSH1 0x20 PUSH1 0x40 MLOAD PUSH1 0x20 DUP2 SUB SWAP1 DUP1 DUP5 SUB SWAP1 DUP6 GAS STATICCALL ISZERO DUP1 ISZERO PUSH2 0x540 JUMPI RETURNDATASIZE PUSH0 DUP1 RETURNDATACOPY RETURNDATASIZE PUSH0 REVERT JUMPDEST POP POP POP PUSH1 0x20 PUSH1 0x40 MLOAD SUB MLOAD SWAP4 POP POP POP POP SWAP3 SWAP2 POP POP JUMP JUMPDEST CALLER PUSH20 0xFFFFFFFFFFFFFFFFFFFFFFFFFFFFFFFFFFFFFFFF AND PUSH0 DUP1 SLOAD SWAP1 PUSH2 0x100 EXP SWAP1 DIV PUSH20 0xFFFFFFFFFFFFFFFFFFFFFFFFFFFFFFFFFFFFFFFF AND PUSH20 0xFFFFFFFFFFFFFFFFFFFFFFFFFFFFFFFFFFFFFFFF AND EQ PUSH2 0x5E2 JUMPI PUSH1 0x40 MLOAD PUSH32 0x8C379A000000000000000000000000000000000000000000000000000000000 DUP2 MSTORE PUSH1 0x4 ADD PUSH2 0x5D9 SWAP1 PUSH2 0x134F JUMP JUMPDEST PUSH1 0x40 MLOAD DUP1 SWAP2 SUB SWAP1 REVERT JUMPDEST PUSH0 PUSH1 0x2 DUP5 PUSH1 0x40 MLOAD PUSH2 0x5F3 SWAP2 SWAP1 PUSH2 0x11DF JUMP JUMPDEST SWAP1 DUP2 MSTORE PUSH1 0x20 ADD PUSH1 0x40 MLOAD DUP1 SWAP2 SUB SWAP1 KECCAK256 SLOAD EQ PUSH2 0x642 JUMPI PUSH1 0x40 MLOAD PUSH32 0x8C379A000000000000000000000000000000000000000000000000000000000 DUP2 MSTORE PUSH1 0x4 ADD PUSH2 0x639 SWAP1 PUSH2 0x13B7 JUMP JUMPDEST PUSH1 0x40 MLOAD DUP1 SWAP2 SUB SWAP1 REVERT JUMPDEST PUSH0 DUP2 GT PUSH2 0x684 JUMPI PUSH1 0x40 MLOAD PUSH32 0x8C379A000000000000000000000000000000000000000000000000000000000 DUP2 MSTORE PUSH1 0x4 ADD PUSH2 0x67B SWAP1 PUSH2 0x1445 JUMP JUMPDEST PUSH1 0x40 MLOAD DUP1 SWAP2 SUB SWAP1 REVERT JUMPDEST DUP2 PUSH1 0x1 DUP5 PUSH1 0x40 MLOAD PUSH2 0x695 SWAP2 SWAP1 PUSH2 0x11DF JUMP JUMPDEST SWAP1 DUP2 MSTORE PUSH1 0x20 ADD PUSH1 0x40 MLOAD DUP1 SWAP2 SUB SWAP1 KECCAK256 PUSH0 PUSH2 0x100 EXP DUP2 SLOAD DUP2 PUSH20 0xFFFFFFFFFFFFFFFFFFFFFFFFFFFFFFFFFFFFFFFF MUL NOT AND SWAP1 DUP4 PUSH20 0xFFFFFFFFFFFFFFFFFFFFFFFFFFFFFFFFFFFFFFFF AND MUL OR SWAP1 SSTORE POP DUP1 PUSH1 0x2 DUP5 PUSH1 0x40 MLOAD PUSH2 0x6F1 SWAP2 SWAP1 PUSH2 0x11DF JUMP JUMPDEST SWAP1 DUP2 MSTORE PUSH1 0x20 ADD PUSH1 0x40 MLOAD DUP1 SWAP2 SUB SWAP1 KECCAK256 DUP2 SWAP1 SSTORE POP POP POP POP JUMP JUMPDEST PUSH0 DUP1 PUSH0 PUSH1 0x41 DUP5 MLOAD EQ PUSH2 0x74F JUMPI PUSH1 0x40 MLOAD PUSH32 0x8C379A000000000000000000000000000000000000000000000000000000000 DUP2 MSTORE PUSH1 0x4 ADD PUSH2 0x746 SWAP1 PUSH2 0x14AD JUMP JUMPDEST PUSH1 0x40 MLOAD DUP1 SWAP2 SUB SWAP1 REVERT JUMPDEST PUSH1 0x20 DUP5 ADD MLOAD SWAP3 POP PUSH1 0x40 DUP5 ADD MLOAD SWAP2 POP PUSH1 0x60 DUP5 ADD MLOAD PUSH0 BYTE SWAP1 POP SWAP2 SWAP4 SWAP1 SWAP3 POP JUMP JUMPDEST DUP1 PUSH0 PUSH1 0x2 DUP3 PUSH1 0x40 MLOAD PUSH2 0x77F SWAP2 SWAP1 PUSH2 0x11DF JUMP JUMPDEST SWAP1 DUP2 MSTORE PUSH1 0x20 ADD PUSH1 0x40 MLOAD DUP1 SWAP2 SUB SWAP1 KECCAK256 SLOAD GT PUSH2 0x7CE JUMPI PUSH1 0x40 MLOAD PUSH32 0x8C379A000000000000000000000000000000000000000000000000000000000 DUP2 MSTORE PUSH1 0x4 ADD PUSH2 0x7C5 SWAP1 PUSH2 0x123F JUMP JUMPDEST PUSH1 0x40 MLOAD DUP1 SWAP2 SUB SWAP1 REVERT JUMPDEST PUSH1 0x2 DUP3 PUSH1 0x40 MLOAD PUSH2 0x7DE SWAP2 SWAP1 PUSH2 0x11DF JUMP JUMPDEST SWAP1 DUP2 MSTORE PUSH1 0x20 ADD PUSH1 0x40 MLOAD DUP1 SWAP2 SUB SWAP1 KECCAK256 SLOAD CALLVALUE LT ISZERO PUSH2 0x82F JUMPI PUSH1 0x40 MLOAD PUSH32 0x8C379A000000000000000000000000000000000000000000000000000000000 DUP2 MSTORE PUSH1 0x4 ADD PUSH2 0x826 SWAP1 PUSH2 0x1515 JUMP JUMPDEST PUSH1 0x40 MLOAD DUP1 SWAP2 SUB SWAP1 REVERT JUMPDEST PUSH0 PUSH1 0x2 DUP4 PUSH1 0x40 MLOAD PUSH2 0x840 SWAP2 SWAP1 PUSH2 0x11DF JUMP JUMPDEST SWAP1 DUP2 MSTORE PUSH1 0x20 ADD PUSH1 0x40 MLOAD DUP1 SWAP2 SUB SWAP1 KECCAK256 SLOAD SWAP1 POP PUSH0 PUSH1 0x1 DUP5 PUSH1 0x40 MLOAD PUSH2 0x862 SWAP2 SWAP1 PUSH2 0x11DF JUMP JUMPDEST SWAP1 DUP2 MSTORE PUSH1 0x20 ADD PUSH1 0x40 MLOAD DUP1 SWAP2 SUB SWAP1 KECCAK256 PUSH0 SWAP1 SLOAD SWAP1 PUSH2 0x100 EXP SWAP1 DIV PUSH20 0xFFFFFFFFFFFFFFFFFFFFFFFFFFFFFFFFFFFFFFFF AND SWAP1 POP PUSH0 DUP2 PUSH20 0xFFFFFFFFFFFFFFFFFFFFFFFFFFFFFFFFFFFFFFFF AND DUP4 PUSH1 0x40 MLOAD PUSH2 0x8B7 SWAP1 PUSH2 0x1560 JUMP JUMPDEST PUSH0 PUSH1 0x40 MLOAD DUP1 DUP4 SUB DUP2 DUP6 DUP8 GAS CALL SWAP3 POP POP POP RETURNDATASIZE DUP1 PUSH0 DUP2 EQ PUSH2 0x8F1 JUMPI PUSH1 0x40 MLOAD SWAP2 POP PUSH1 0x1F NOT PUSH1 0x3F RETURNDATASIZE ADD AND DUP3 ADD PUSH1 0x40 MSTORE RETURNDATASIZE DUP3 MSTORE RETURNDATASIZE PUSH0 PUSH1 0x20 DUP5 ADD RETURNDATACOPY PUSH2 0x8F6 JUMP JUMPDEST PUSH1 0x60 SWAP2 POP JUMPDEST POP POP SWAP1 POP DUP1 PUSH2 0x93A JUMPI PUSH1 0x40 MLOAD PUSH32 0x8C379A000000000000000000000000000000000000000000000000000000000 DUP2 MSTORE PUSH1 0x4 ADD PUSH2 0x931 SWAP1 PUSH2 0x15BE JUMP JUMPDEST PUSH1 0x40 MLOAD DUP1 SWAP2 SUB SWAP1 REVERT JUMPDEST PUSH1 0x1 PUSH1 0x3 DUP7 PUSH1 0x40 MLOAD PUSH2 0x94C SWAP2 SWAP1 PUSH2 0x11DF JUMP JUMPDEST SWAP1 DUP2 MSTORE PUSH1 0x20 ADD PUSH1 0x40 MLOAD DUP1 SWAP2 SUB SWAP1 KECCAK256 PUSH0 CALLER PUSH20 0xFFFFFFFFFFFFFFFFFFFFFFFFFFFFFFFFFFFFFFFF AND PUSH20 0xFFFFFFFFFFFFFFFFFFFFFFFFFFFFFFFFFFFFFFFF AND DUP2 MSTORE PUSH1 0x20 ADD SWAP1 DUP2 MSTORE PUSH1 0x20 ADD PUSH0 KECCAK256 PUSH0 PUSH2 0x100 EXP DUP2 SLOAD DUP2 PUSH1 0xFF MUL NOT AND SWAP1 DUP4 ISZERO ISZERO MUL OR SWAP1 SSTORE POP POP POP POP POP POP JUMP JUMPDEST PUSH0 PUSH1 0x3 DUP4 PUSH1 0x40 MLOAD PUSH2 0x9C3 SWAP2 SWAP1 PUSH2 0x11DF JUMP JUMPDEST SWAP1 DUP2 MSTORE PUSH1 0x20 ADD PUSH1 0x40 MLOAD DUP1 SWAP2 SUB SWAP1 KECCAK256 PUSH0 DUP4 PUSH20 0xFFFFFFFFFFFFFFFFFFFFFFFFFFFFFFFFFFFFFFFF AND PUSH20 0xFFFFFFFFFFFFFFFFFFFFFFFFFFFFFFFFFFFFFFFF AND DUP2 MSTORE PUSH1 0x20 ADD SWAP1 DUP2 MSTORE PUSH1 0x20 ADD PUSH0 KECCAK256 PUSH0 SWAP1 SLOAD SWAP1 PUSH2 0x100 EXP SWAP1 DIV PUSH1 0xFF AND SWAP1 POP SWAP3 SWAP2 POP POP JUMP JUMPDEST PUSH0 DUP2 PUSH1 0x40 MLOAD PUSH1 0x20 ADD PUSH2 0xA33 SWAP2 SWAP1 PUSH2 0x1646 JUMP JUMPDEST PUSH1 0x40 MLOAD PUSH1 0x20 DUP2 DUP4 SUB SUB DUP2 MSTORE SWAP1 PUSH1 0x40 MSTORE DUP1 MLOAD SWAP1 PUSH1 0x20 ADD KECCAK256 SWAP1 POP SWAP2 SWAP1 POP JUMP JUMPDEST PUSH0 PUSH1 0x40 MLOAD SWAP1 POP SWAP1 JUMP JUMPDEST PUSH0 DUP1 REVERT JUMPDEST PUSH0 DUP1 REVERT JUMPDEST PUSH0 DUP1 REVERT JUMPDEST PUSH0 DUP1 REVERT JUMPDEST PUSH0 PUSH1 0x1F NOT PUSH1 0x1F DUP4 ADD AND SWAP1 POP SWAP2 SWAP1 POP JUMP JUMPDEST PUSH32 0x4E487B7100000000000000000000000000000000000000000000000000000000 PUSH0 MSTORE PUSH1 0x41 PUSH1 0x4 MSTORE PUSH1 0x24 PUSH0 REVERT JUMPDEST PUSH2 0xAAF DUP3 PUSH2 0xA69 JUMP JUMPDEST DUP2 ADD DUP2 DUP2 LT PUSH8 0xFFFFFFFFFFFFFFFF DUP3 GT OR ISZERO PUSH2 0xACE JUMPI PUSH2 0xACD PUSH2 0xA79 JUMP JUMPDEST JUMPDEST DUP1 PUSH1 0x40 MSTORE POP POP POP JUMP JUMPDEST PUSH0 PUSH2 0xAE0 PUSH2 0xA50 JUMP JUMPDEST SWAP1 POP PUSH2 0xAEC DUP3 DUP3 PUSH2 0xAA6 JUMP JUMPDEST SWAP2 SWAP1 POP JUMP JUMPDEST PUSH0 PUSH8 0xFFFFFFFFFFFFFFFF DUP3 GT ISZERO PUSH2 0xB0B JUMPI PUSH2 0xB0A PUSH2 0xA79 JUMP JUMPDEST JUMPDEST PUSH2 0xB14 DUP3 PUSH2 0xA69 JUMP JUMPDEST SWAP1 POP PUSH1 0x20 DUP2 ADD SWAP1 POP SWAP2 SWAP1 POP JUMP JUMPDEST DUP3 DUP2 DUP4 CALLDATACOPY PUSH0 DUP4 DUP4 ADD MSTORE POP POP POP JUMP JUMPDEST PUSH0 PUSH2 0xB41 PUSH2 0xB3C DUP5 PUSH2 0xAF1 JUMP JUMPDEST PUSH2 0xAD7 JUMP JUMPDEST SWAP1 POP DUP3 DUP2 MSTORE PUSH1 0x20 DUP2 ADD DUP5 DUP5 DUP5 ADD GT ISZERO PUSH2 0xB5D JUMPI PUSH2 0xB5C PUSH2 0xA65 JUMP JUMPDEST JUMPDEST PUSH2 0xB68 DUP5 DUP3 DUP6 PUSH2 0xB21 JUMP JUMPDEST POP SWAP4 SWAP3 POP POP POP JUMP JUMPDEST PUSH0 DUP3 PUSH1 0x1F DUP4 ADD SLT PUSH2 0xB84 JUMPI PUSH2 0xB83 PUSH2 0xA61 JUMP JUMPDEST JUMPDEST DUP2 CALLDATALOAD PUSH2 0xB94 DUP5 DUP3 PUSH1 0x20 DUP7 ADD PUSH2 0xB2F JUMP JUMPDEST SWAP2 POP POP SWAP3 SWAP2 POP POP JUMP JUMPDEST PUSH0 PUSH1 0x20 DUP3 DUP5 SUB SLT ISZERO PUSH2 0xBB2 JUMPI PUSH2 0xBB1 PUSH2 0xA59 JUMP JUMPDEST JUMPDEST PUSH0 DUP3 ADD CALLDATALOAD PUSH8 0xFFFFFFFFFFFFFFFF DUP2 GT ISZERO PUSH2 0xBCF JUMPI PUSH2 0xBCE PUSH2 0xA5D JUMP JUMPDEST JUMPDEST PUSH2 0xBDB DUP5 DUP3 DUP6 ADD PUSH2 0xB70 JUMP JUMPDEST SWAP2 POP POP SWAP3 SWAP2 POP POP JUMP JUMPDEST PUSH0 PUSH20 0xFFFFFFFFFFFFFFFFFFFFFFFFFFFFFFFFFFFFFFFF DUP3 AND SWAP1 POP SWAP2 SWAP1 POP JUMP JUMPDEST PUSH0 PUSH2 0xC0D DUP3 PUSH2 0xBE4 JUMP JUMPDEST SWAP1 POP SWAP2 SWAP1 POP JUMP JUMPDEST PUSH2 0xC1D DUP2 PUSH2 0xC03 JUMP JUMPDEST DUP3 MSTORE POP POP JUMP JUMPDEST PUSH0 PUSH1 0x20 DUP3 ADD SWAP1 POP PUSH2 0xC36 PUSH0 DUP4 ADD DUP5 PUSH2 0xC14 JUMP JUMPDEST SWAP3 SWAP2 POP POP JUMP JUMPDEST PUSH0 DUP2 SWAP1 POP SWAP2 SWAP1 POP JUMP JUMPDEST PUSH2 0xC4E DUP2 PUSH2 0xC3C JUMP JUMPDEST DUP3 MSTORE POP POP JUMP JUMPDEST PUSH0 PUSH1 0x20 DUP3 ADD SWAP1 POP PUSH2 0xC67 PUSH0 DUP4 ADD DUP5 PUSH2 0xC45 JUMP JUMPDEST SWAP3 SWAP2 POP POP JUMP JUMPDEST PUSH2 0xC76 DUP2 PUSH2 0xC03 JUMP JUMPDEST DUP2 EQ PUSH2 0xC80 JUMPI PUSH0 DUP1 REVERT JUMPDEST POP JUMP JUMPDEST PUSH0 DUP2 CALLDATALOAD SWAP1 POP PUSH2 0xC91 DUP2 PUSH2 0xC6D JUMP JUMPDEST SWAP3 SWAP2 POP POP JUMP JUMPDEST PUSH2 0xCA0 DUP2 PUSH2 0xC3C JUMP JUMPDEST DUP2 EQ PUSH2 0xCAA JUMPI PUSH0 DUP1 REVERT JUMPDEST POP JUMP JUMPDEST PUSH0 DUP2 CALLDATALOAD SWAP1 POP PUSH2 0xCBB DUP2 PUSH2 0xC97 JUMP JUMPDEST SWAP3 SWAP2 POP POP JUMP JUMPDEST PUSH0 PUSH8 0xFFFFFFFFFFFFFFFF DUP3 GT ISZERO PUSH2 0xCDB JUMPI PUSH2 0xCDA PUSH2 0xA79 JUMP JUMPDEST JUMPDEST PUSH2 0xCE4 DUP3 PUSH2 0xA69 JUMP JUMPDEST SWAP1 POP PUSH1 0x20 DUP2 ADD SWAP1 POP SWAP2 SWAP1 POP JUMP JUMPDEST PUSH0 PUSH2 0xD03 PUSH2 0xCFE DUP5 PUSH2 0xCC1 JUMP JUMPDEST PUSH2 0xAD7 JUMP JUMPDEST SWAP1 POP DUP3 DUP2 MSTORE PUSH1 0x20 DUP2 ADD DUP5 DUP5 DUP5 ADD GT ISZERO PUSH2 0xD1F JUMPI PUSH2 0xD1E PUSH2 0xA65 JUMP JUMPDEST JUMPDEST PUSH2 0xD2A DUP5 DUP3 DUP6 PUSH2 0xB21 JUMP JUMPDEST POP SWAP4 SWAP3 POP POP POP JUMP JUMPDEST PUSH0 DUP3 PUSH1 0x1F DUP4 ADD SLT PUSH2 0xD46 JUMPI PUSH2 0xD45 PUSH2 0xA61 JUMP JUMPDEST JUMPDEST DUP2 CALLDATALOAD PUSH2 0xD56 DUP5 DUP3 PUSH1 0x20 DUP7 ADD PUSH2 0xCF1 JUMP JUMPDEST SWAP2 POP POP SWAP3 SWAP2 POP POP JUMP JUMPDEST PUSH0 DUP1 PUSH0 DUP1 PUSH0 PUSH1 0xA0 DUP7 DUP9 SUB SLT ISZERO PUSH2 0xD78 JUMPI PUSH2 0xD77 PUSH2 0xA59 JUMP JUMPDEST JUMPDEST PUSH0 PUSH2 0xD85 DUP9 DUP3 DUP10 ADD PUSH2 0xC83 JUMP JUMPDEST SWAP6 POP POP PUSH1 0x20 DUP7 ADD CALLDATALOAD PUSH8 0xFFFFFFFFFFFFFFFF DUP2 GT ISZERO PUSH2 0xDA6 JUMPI PUSH2 0xDA5 PUSH2 0xA5D JUMP JUMPDEST JUMPDEST PUSH2 0xDB2 DUP9 DUP3 DUP10 ADD PUSH2 0xB70 JUMP JUMPDEST SWAP5 POP POP PUSH1 0x40 PUSH2 0xDC3 DUP9 DUP3 DUP10 ADD PUSH2 0xCAD JUMP JUMPDEST SWAP4 POP POP PUSH1 0x60 PUSH2 0xDD4 DUP9 DUP3 DUP10 ADD PUSH2 0xCAD JUMP JUMPDEST SWAP3 POP POP PUSH1 0x80 DUP7 ADD CALLDATALOAD PUSH8 0xFFFFFFFFFFFFFFFF DUP2 GT ISZERO PUSH2 0xDF5 JUMPI PUSH2 0xDF4 PUSH2 0xA5D JUMP JUMPDEST JUMPDEST PUSH2 0xE01 DUP9 DUP3 DUP10 ADD PUSH2 0xD32 JUMP JUMPDEST SWAP2 POP POP SWAP3 SWAP6 POP SWAP3 SWAP6 SWAP1 SWAP4 POP JUMP JUMPDEST PUSH0 DUP2 ISZERO ISZERO SWAP1 POP SWAP2 SWAP1 POP JUMP JUMPDEST PUSH2 0xE22 DUP2 PUSH2 0xE0E JUMP JUMPDEST DUP3 MSTORE POP POP JUMP JUMPDEST PUSH0 PUSH1 0x20 DUP3 ADD SWAP1 POP PUSH2 0xE3B PUSH0 DUP4 ADD DUP5 PUSH2 0xE19 JUMP JUMPDEST SWAP3 SWAP2 POP POP JUMP JUMPDEST PUSH0 DUP1 PUSH0 PUSH1 0x60 DUP5 DUP7 SUB SLT ISZERO PUSH2 0xE58 JUMPI PUSH2 0xE57 PUSH2 0xA59 JUMP JUMPDEST JUMPDEST PUSH0 DUP5 ADD CALLDATALOAD PUSH8 0xFFFFFFFFFFFFFFFF DUP2 GT ISZERO PUSH2 0xE75 JUMPI PUSH2 0xE74 PUSH2 0xA5D JUMP JUMPDEST JUMPDEST PUSH2 0xE81 DUP7 DUP3 DUP8 ADD PUSH2 0xB70 JUMP JUMPDEST SWAP4 POP POP PUSH1 0x20 PUSH2 0xE92 DUP7 DUP3 DUP8 ADD PUSH2 0xCAD JUMP JUMPDEST SWAP3 POP POP PUSH1 0x40 PUSH2 0xEA3 DUP7 DUP3 DUP8 ADD PUSH2 0xCAD JUMP JUMPDEST SWAP2 POP POP SWAP3 POP SWAP3 POP SWAP3 JUMP JUMPDEST PUSH0 DUP2 SWAP1 POP SWAP2 SWAP1 POP JUMP JUMPDEST PUSH2 0xEBF DUP2 PUSH2 0xEAD JUMP JUMPDEST DUP3 MSTORE POP POP JUMP JUMPDEST PUSH0 PUSH1 0x20 DUP3 ADD SWAP1 POP PUSH2 0xED8 PUSH0 DUP4 ADD DUP5 PUSH2 0xEB6 JUMP JUMPDEST SWAP3 SWAP2 POP POP JUMP JUMPDEST PUSH0 DUP2 MLOAD SWAP1 POP SWAP2 SWAP1 POP JUMP JUMPDEST PUSH0 DUP3 DUP3 MSTORE PUSH1 0x20 DUP3 ADD SWAP1 POP SWAP3 SWAP2 POP POP JUMP JUMPDEST DUP3 DUP2 DUP4 MCOPY PUSH0 DUP4 DUP4 ADD MSTORE POP POP POP JUMP JUMPDEST PUSH0 PUSH2 0xF10 DUP3 PUSH2 0xEDE JUMP JUMPDEST PUSH2 0xF1A DUP2 DUP6 PUSH2 0xEE8 JUMP JUMPDEST SWAP4 POP PUSH2 0xF2A DUP2 DUP6 PUSH1 0x20 DUP7 ADD PUSH2 0xEF8 JUMP JUMPDEST PUSH2 0xF33 DUP2 PUSH2 0xA69 JUMP JUMPDEST DUP5 ADD SWAP2 POP POP SWAP3 SWAP2 POP POP JUMP JUMPDEST PUSH0 PUSH1 0x20 DUP3 ADD SWAP1 POP DUP2 DUP2 SUB PUSH0 DUP4 ADD MSTORE PUSH2 0xF56 DUP2 DUP5 PUSH2 0xF06 JUMP JUMPDEST SWAP1 POP SWAP3 SWAP2 POP POP JUMP JUMPDEST PUSH2 0xF67 DUP2 PUSH2 0xEAD JUMP JUMPDEST DUP2 EQ PUSH2 0xF71 JUMPI PUSH0 DUP1 REVERT JUMPDEST POP JUMP JUMPDEST PUSH0 DUP2 CALLDATALOAD SWAP1 POP PUSH2 0xF82 DUP2 PUSH2 0xF5E JUMP JUMPDEST SWAP3 SWAP2 POP POP JUMP JUMPDEST PUSH0 DUP1 PUSH1 0x40 DUP4 DUP6 SUB SLT ISZERO PUSH2 0xF9E JUMPI PUSH2 0xF9D PUSH2 0xA59 JUMP JUMPDEST JUMPDEST PUSH0 PUSH2 0xFAB DUP6 DUP3 DUP7 ADD PUSH2 0xF74 JUMP JUMPDEST SWAP3 POP POP PUSH1 0x20 DUP4 ADD CALLDATALOAD PUSH8 0xFFFFFFFFFFFFFFFF DUP2 GT ISZERO PUSH2 0xFCC JUMPI PUSH2 0xFCB PUSH2 0xA5D JUMP JUMPDEST JUMPDEST PUSH2 0xFD8 DUP6 DUP3 DUP7 ADD PUSH2 0xD32 JUMP JUMPDEST SWAP2 POP POP SWAP3 POP SWAP3 SWAP1 POP JUMP JUMPDEST PUSH0 PUSH2 0xFEC DUP3 PUSH2 0xBE4 JUMP JUMPDEST SWAP1 POP SWAP2 SWAP1 POP JUMP JUMPDEST PUSH2 0xFFC DUP2 PUSH2 0xFE2 JUMP JUMPDEST DUP2 EQ PUSH2 0x1006 JUMPI PUSH0 DUP1 REVERT JUMPDEST POP JUMP JUMPDEST PUSH0 DUP2 CALLDATALOAD SWAP1 POP PUSH2 0x1017 DUP2 PUSH2 0xFF3 JUMP JUMPDEST SWAP3 SWAP2 POP POP JUMP JUMPDEST PUSH0 DUP1 PUSH0 PUSH1 0x60 DUP5 DUP7 SUB SLT ISZERO PUSH2 0x1034 JUMPI PUSH2 0x1033 PUSH2 0xA59 JUMP JUMPDEST JUMPDEST PUSH0 DUP5 ADD CALLDATALOAD PUSH8 0xFFFFFFFFFFFFFFFF DUP2 GT ISZERO PUSH2 0x1051 JUMPI PUSH2 0x1050 PUSH2 0xA5D JUMP JUMPDEST JUMPDEST PUSH2 0x105D DUP7 DUP3 DUP8 ADD PUSH2 0xB70 JUMP JUMPDEST SWAP4 POP POP PUSH1 0x20 PUSH2 0x106E DUP7 DUP3 DUP8 ADD PUSH2 0x1009 JUMP JUMPDEST SWAP3 POP POP PUSH1 0x40 PUSH2 0x107F DUP7 DUP3 DUP8 ADD PUSH2 0xCAD JUMP JUMPDEST SWAP2 POP POP SWAP3 POP SWAP3 POP SWAP3 JUMP JUMPDEST PUSH0 PUSH1 0x20 DUP3 DUP5 SUB SLT ISZERO PUSH2 0x109E JUMPI PUSH2 0x109D PUSH2 0xA59 JUMP JUMPDEST JUMPDEST PUSH0 DUP3 ADD CALLDATALOAD PUSH8 0xFFFFFFFFFFFFFFFF DUP2 GT ISZERO PUSH2 0x10BB JUMPI PUSH2 0x10BA PUSH2 0xA5D JUMP JUMPDEST JUMPDEST PUSH2 0x10C7 DUP5 DUP3 DUP6 ADD PUSH2 0xD32 JUMP JUMPDEST SWAP2 POP POP SWAP3 SWAP2 POP POP JUMP JUMPDEST PUSH0 PUSH1 0xFF DUP3 AND SWAP1 POP SWAP2 SWAP1 POP JUMP JUMPDEST PUSH2 0x10E5 DUP2 PUSH2 0x10D0 JUMP JUMPDEST DUP3 MSTORE POP POP JUMP JUMPDEST PUSH0 PUSH1 0x60 DUP3 ADD SWAP1 POP PUSH2 0x10FE PUSH0 DUP4 ADD DUP7 PUSH2 0xEB6 JUMP JUMPDEST PUSH2 0x110B PUSH1 0x20 DUP4 ADD DUP6 PUSH2 0xEB6 JUMP JUMPDEST PUSH2 0x1118 PUSH1 0x40 DUP4 ADD DUP5 PUSH2 0x10DC JUMP JUMPDEST SWAP5 SWAP4 POP POP POP POP JUMP JUMPDEST PUSH0 DUP1 PUSH1 0x40 DUP4 DUP6 SUB SLT ISZERO PUSH2 0x1136 JUMPI PUSH2 0x1135 PUSH2 0xA59 JUMP JUMPDEST JUMPDEST PUSH0 DUP4 ADD CALLDATALOAD PUSH8 0xFFFFFFFFFFFFFFFF DUP2 GT ISZERO PUSH2 0x1153 JUMPI PUSH2 0x1152 PUSH2 0xA5D JUMP JUMPDEST JUMPDEST PUSH2 0x115F DUP6 DUP3 DUP7 ADD PUSH2 0xB70 JUMP JUMPDEST SWAP3 POP POP PUSH1 0x20 PUSH2 0x1170 DUP6 DUP3 DUP7 ADD PUSH2 0xC83 JUMP JUMPDEST SWAP2 POP POP SWAP3 POP SWAP3 SWAP1 POP JUMP JUMPDEST PUSH0 PUSH1 0x20 DUP3 DUP5 SUB SLT ISZERO PUSH2 0x118F JUMPI PUSH2 0x118E PUSH2 0xA59 JUMP JUMPDEST JUMPDEST PUSH0 PUSH2 0x119C DUP5 DUP3 DUP6 ADD PUSH2 0xF74 JUMP JUMPDEST SWAP2 POP POP SWAP3 SWAP2 POP POP JUMP JUMPDEST PUSH0 DUP2 SWAP1 POP SWAP3 SWAP2 POP POP JUMP JUMPDEST PUSH0 PUSH2 0x11B9 DUP3 PUSH2 0xEDE JUMP JUMPDEST PUSH2 0x11C3 DUP2 DUP6 PUSH2 0x11A5 JUMP JUMPDEST SWAP4 POP PUSH2 0x11D3 DUP2 DUP6 PUSH1 0x20 DUP7 ADD PUSH2 0xEF8 JUMP JUMPDEST DUP1 DUP5 ADD SWAP2 POP POP SWAP3 SWAP2 POP POP JUMP JUMPDEST PUSH0 PUSH2 0x11EA DUP3 DUP5 PUSH2 0x11AF JUMP JUMPDEST SWAP2 POP DUP2 SWAP1 POP SWAP3 SWAP2 POP POP JUMP JUMPDEST PUSH32 0x766964656F20646F65736E277420657869737400000000000000000000000000 PUSH0 DUP3 ADD MSTORE POP JUMP JUMPDEST PUSH0 PUSH2 0x1229 PUSH1 0x13 DUP4 PUSH2 0xEE8 JUMP JUMPDEST SWAP2 POP PUSH2 0x1234 DUP3 PUSH2 0x11F5 JUMP JUMPDEST PUSH1 0x20 DUP3 ADD SWAP1 POP SWAP2 SWAP1 POP JUMP JUMPDEST PUSH0 PUSH1 0x20 DUP3 ADD SWAP1 POP DUP2 DUP2 SUB PUSH0 DUP4 ADD MSTORE PUSH2 0x1256 DUP2 PUSH2 0x121D JUMP JUMPDEST SWAP1 POP SWAP2 SWAP1 POP JUMP JUMPDEST PUSH0 DUP2 SWAP1 POP SWAP2 SWAP1 POP JUMP JUMPDEST PUSH2 0x1277 PUSH2 0x1272 DUP3 PUSH2 0xC3C JUMP JUMPDEST PUSH2 0x125D JUMP JUMPDEST DUP3 MSTORE POP POP JUMP JUMPDEST PUSH0 PUSH2 0x1288 DUP3 DUP8 PUSH2 0x11AF JUMP JUMPDEST SWAP2 POP PUSH2 0x1294 DUP3 DUP7 PUSH2 0x1266 JUMP JUMPDEST PUSH1 0x20 DUP3 ADD SWAP2 POP PUSH2 0x12A4 DUP3 DUP6 PUSH2 0x11AF JUMP JUMPDEST SWAP2 POP PUSH2 0x12B0 DUP3 DUP5 PUSH2 0x1266 JUMP JUMPDEST PUSH1 0x20 DUP3 ADD SWAP2 POP DUP2 SWAP1 POP SWAP6 SWAP5 POP POP POP POP POP JUMP JUMPDEST PUSH0 PUSH1 0x80 DUP3 ADD SWAP1 POP PUSH2 0x12D5 PUSH0 DUP4 ADD DUP8 PUSH2 0xEB6 JUMP JUMPDEST PUSH2 0x12E2 PUSH1 0x20 DUP4 ADD DUP7 PUSH2 0x10DC JUMP JUMPDEST PUSH2 0x12EF PUSH1 0x40 DUP4 ADD DUP6 PUSH2 0xEB6 JUMP JUMPDEST PUSH2 0x12FC PUSH1 0x60 DUP4 ADD DUP5 PUSH2 0xEB6 JUMP JUMPDEST SWAP6 SWAP5 POP POP POP POP POP JUMP JUMPDEST PUSH32 0x6F776E657220616363657373206F6E6C79000000000000000000000000000000 PUSH0 DUP3 ADD MSTORE POP JUMP JUMPDEST PUSH0 PUSH2 0x1339 PUSH1 0x11 DUP4 PUSH2 0xEE8 JUMP JUMPDEST SWAP2 POP PUSH2 0x1344 DUP3 PUSH2 0x1305 JUMP JUMPDEST PUSH1 0x20 DUP3 ADD SWAP1 POP SWAP2 SWAP1 POP JUMP JUMPDEST PUSH0 PUSH1 0x20 DUP3 ADD SWAP1 POP DUP2 DUP2 SUB PUSH0 DUP4 ADD MSTORE PUSH2 0x1366 DUP2 PUSH2 0x132D JUMP JUMPDEST SWAP1 POP SWAP2 SWAP1 POP JUMP JUMPDEST PUSH32 0x766964656F20616C726561647920657869737400000000000000000000000000 PUSH0 DUP3 ADD MSTORE POP JUMP JUMPDEST PUSH0 PUSH2 0x13A1 PUSH1 0x13 DUP4 PUSH2 0xEE8 JUMP JUMPDEST SWAP2 POP PUSH2 0x13AC DUP3 PUSH2 0x136D JUMP JUMPDEST PUSH1 0x20 DUP3 ADD SWAP1 POP SWAP2 SWAP1 POP JUMP JUMPDEST PUSH0 PUSH1 0x20 DUP3 ADD SWAP1 POP DUP2 DUP2 SUB PUSH0 DUP4 ADD MSTORE PUSH2 0x13CE DUP2 PUSH2 0x1395 JUMP JUMPDEST SWAP1 POP SWAP2 SWAP1 POP JUMP JUMPDEST PUSH32 0x70726963652073686F756C642062652067726561746572207468616E20302077 PUSH0 DUP3 ADD MSTORE PUSH32 0x6569000000000000000000000000000000000000000000000000000000000000 PUSH1 0x20 DUP3 ADD MSTORE POP JUMP JUMPDEST PUSH0 PUSH2 0x142F PUSH1 0x22 DUP4 PUSH2 0xEE8 JUMP JUMPDEST SWAP2 POP PUSH2 0x143A DUP3 PUSH2 0x13D5 JUMP JUMPDEST PUSH1 0x40 DUP3 ADD SWAP1 POP SWAP2 SWAP1 POP JUMP JUMPDEST PUSH0 PUSH1 0x20 DUP3 ADD SWAP1 POP DUP2 DUP2 SUB PUSH0 DUP4 ADD MSTORE PUSH2 0x145C DUP2 PUSH2 0x1423 JUMP JUMPDEST SWAP1 POP SWAP2 SWAP1 POP JUMP JUMPDEST PUSH32 0x696E76616C6964207369676E6174757265206C656E6774680000000000000000 PUSH0 DUP3 ADD MSTORE POP JUMP JUMPDEST PUSH0 PUSH2 0x1497 PUSH1 0x18 DUP4 PUSH2 0xEE8 JUMP JUMPDEST SWAP2 POP PUSH2 0x14A2 DUP3 PUSH2 0x1463 JUMP JUMPDEST PUSH1 0x20 DUP3 ADD SWAP1 POP SWAP2 SWAP1 POP JUMP JUMPDEST PUSH0 PUSH1 0x20 DUP3 ADD SWAP1 POP DUP2 DUP2 SUB PUSH0 DUP4 ADD MSTORE PUSH2 0x14C4 DUP2 PUSH2 0x148B JUMP JUMPDEST SWAP1 POP SWAP2 SWAP1 POP JUMP JUMPDEST PUSH32 0x6E6F7420656E6F75676820657468657200000000000000000000000000000000 PUSH0 DUP3 ADD MSTORE POP JUMP JUMPDEST PUSH0 PUSH2 0x14FF PUSH1 0x10 DUP4 PUSH2 0xEE8 JUMP JUMPDEST SWAP2 POP PUSH2 0x150A DUP3 PUSH2 0x14CB JUMP JUMPDEST PUSH1 0x20 DUP3 ADD SWAP1 POP SWAP2 SWAP1 POP JUMP JUMPDEST PUSH0 PUSH1 0x20 DUP3 ADD SWAP1 POP DUP2 DUP2 SUB PUSH0 DUP4 ADD MSTORE PUSH2 0x152C DUP2 PUSH2 0x14F3 JUMP JUMPDEST SWAP1 POP SWAP2 SWAP1 POP JUMP JUMPDEST PUSH0 DUP2 SWAP1 POP SWAP3 SWAP2 POP POP JUMP JUMPDEST POP JUMP JUMPDEST PUSH0 PUSH2 0x154B PUSH0 DUP4 PUSH2 0x1533 JUMP JUMPDEST SWAP2 POP PUSH2 0x1556 DUP3 PUSH2 0x153D JUMP JUMPDEST PUSH0 DUP3 ADD SWAP1 POP SWAP2 SWAP1 POP JUMP JUMPDEST PUSH0 PUSH2 0x156A DUP3 PUSH2 0x1540 JUMP JUMPDEST SWAP2 POP DUP2 SWAP1 POP SWAP2 SWAP1 POP JUMP JUMPDEST PUSH32 0x6661696C656420746F2073656E64206574686572000000000000000000000000 PUSH0 DUP3 ADD MSTORE POP JUMP JUMPDEST PUSH0 PUSH2 0x15A8 PUSH1 0x14 DUP4 PUSH2 0xEE8 JUMP JUMPDEST SWAP2 POP PUSH2 0x15B3 DUP3 PUSH2 0x1574 JUMP JUMPDEST PUSH1 0x20 DUP3 ADD SWAP1 POP SWAP2 SWAP1 POP JUMP JUMPDEST PUSH0 PUSH1 0x20 DUP3 ADD SWAP1 POP DUP2 DUP2 SUB PUSH0 DUP4 ADD MSTORE PUSH2 0x15D5 DUP2 PUSH2 0x159C JUMP JUMPDEST SWAP1 POP SWAP2 SWAP1 POP JUMP JUMPDEST PUSH32 0x19457468657265756D205369676E6564204D6573736167653A0A333200000000 PUSH0 DUP3 ADD MSTORE POP JUMP JUMPDEST PUSH0 PUSH2 0x1610 PUSH1 0x1C DUP4 PUSH2 0x11A5 JUMP JUMPDEST SWAP2 POP PUSH2 0x161B DUP3 PUSH2 0x15DC JUMP JUMPDEST PUSH1 0x1C DUP3 ADD SWAP1 POP SWAP2 SWAP1 POP JUMP JUMPDEST PUSH0 DUP2 SWAP1 POP SWAP2 SWAP1 POP JUMP JUMPDEST PUSH2 0x1640 PUSH2 0x163B DUP3 PUSH2 0xEAD JUMP JUMPDEST PUSH2 0x1626 JUMP JUMPDEST DUP3 MSTORE POP POP JUMP JUMPDEST PUSH0 PUSH2 0x1650 DUP3 PUSH2 0x1604 JUMP JUMPDEST SWAP2 POP PUSH2 0x165C DUP3 DUP5 PUSH2 0x162F JUMP JUMPDEST PUSH1 0x20 DUP3 ADD SWAP2 POP DUP2 SWAP1 POP SWAP3 SWAP2 POP POP JUMP INVALID BLOBHASH KECCAK256 PUSH2 0x6772 PUSH6 0x6520746F2073 PUSH10 0x676E2074686520636F6E PUSH21 0x72616374206174205B616464726573735DA2646970 PUSH7 0x735822122008B2 0x2C 0xCC SWAP3 STATICCALL CREATE2 0xE4 DELEGATECALL POP 0xA6 MLOAD 0xBB CREATE2 CALLDATALOAD 0xDF DIV EXTCODECOPY 0xD7 PUSH0 DUP9 PUSH21 0xA59220AC1EA9898896ED64736F6C63430008190033 "
				},
				"gasEstimates": {
					"creation": {
						"codeDepositCost": "1166800",
						"executionCost": "25477",
						"totalCost": "1192277"
					},
					"external": {
						"addVideo(string,address,uint256)": "infinite",
						"agreement()": "infinite",
						"buyVideo(string)": "infinite",
						"checkApproval(string,address)": "infinite",
						"getEthSignedMessageHash(bytes32)": "infinite",
						"getMessageHash(string,uint256,uint256)": "infinite",
						"getOwner(string)": "infinite",
						"getPrice(string)": "infinite",
						"recoverSigner(bytes32,bytes)": "infinite",
						"splitSignature(bytes)": "infinite",
						"verify(address,string,uint256,uint256,bytes)": "infinite"
					}
				},
				"methodIdentifiers": {
					"addVideo(string,address,uint256)": "a41c51ac",
					"agreement()": "7db3a946",
					"buyVideo(string)": "b3a63b20",
					"checkApproval(string,address)": "bc7a4a1a",
					"getEthSignedMessageHash(bytes32)": "fa540801",
					"getMessageHash(string,uint256,uint256)": "7003ea1c",
					"getOwner(string)": "4aaf4a12",
					"getPrice(string)": "524f3889",
					"recoverSigner(bytes32,bytes)": "97aba7f9",
					"splitSignature(bytes)": "a7bb5803",
					"verify(address,string,uint256,uint256,bytes)": "58b77985"
				}
			},
			"storageLayout": {
				"storage": [
					{
						"astId": 3,
						"contract": "contracts/MyToken.sol:MyToken",
						"label": "_owner",
						"offset": 0,
						"slot": "0",
						"type": "t_address"
					},
					{
						"astId": 7,
						"contract": "contracts/MyToken.sol:MyToken",
						"label": "_owners",
						"offset": 0,
						"slot": "1",
						"type": "t_mapping(t_string_memory_ptr,t_address_payable)"
					},
					{
						"astId": 11,
						"contract": "contracts/MyToken.sol:MyToken",
						"label": "_prices",
						"offset": 0,
						"slot": "2",
						"type": "t_mapping(t_string_memory_ptr,t_uint256)"
					},
					{
						"astId": 17,
						"contract": "contracts/MyToken.sol:MyToken",
						"label": "_approvals",
						"offset": 0,
						"slot": "3",
						"type": "t_mapping(t_string_memory_ptr,t_mapping(t_address,t_bool))"
					}
				],
				"types": {
					"t_address": {
						"encoding": "inplace",
						"label": "address",
						"numberOfBytes": "20"
					},
					"t_address_payable": {
						"encoding": "inplace",
						"label": "address payable",
						"numberOfBytes": "20"
					},
					"t_bool": {
						"encoding": "inplace",
						"label": "bool",
						"numberOfBytes": "1"
					},
					"t_mapping(t_address,t_bool)": {
						"encoding": "mapping",
						"key": "t_address",
						"label": "mapping(address => bool)",
						"numberOfBytes": "32",
						"value": "t_bool"
					},
					"t_mapping(t_string_memory_ptr,t_address_payable)": {
						"encoding": "mapping",
						"key": "t_string_memory_ptr",
						"label": "mapping(string => address payable)",
						"numberOfBytes": "32",
						"value": "t_address_payable"
					},
					"t_mapping(t_string_memory_ptr,t_mapping(t_address,t_bool))": {
						"encoding": "mapping",
						"key": "t_string_memory_ptr",
						"label": "mapping(string => mapping(address => bool))",
						"numberOfBytes": "32",
						"value": "t_mapping(t_address,t_bool)"
					},
					"t_mapping(t_string_memory_ptr,t_uint256)": {
						"encoding": "mapping",
						"key": "t_string_memory_ptr",
						"label": "mapping(string => uint256)",
						"numberOfBytes": "32",
						"value": "t_uint256"
					},
					"t_string_memory_ptr": {
						"encoding": "bytes",
						"label": "string",
						"numberOfBytes": "32"
					},
					"t_uint256": {
						"encoding": "inplace",
						"label": "uint256",
						"numberOfBytes": "32"
					}
				}
			},
			"userdoc": {
				"kind": "user",
				"methods": {},
				"version": 1
			}
		}
	}
}