{
	"contracts/LicenseAgreeement.sol": {
		"CreativeCommonAttribution4dot0": {
			"abi": [
				{
					"inputs": [],
					"stateMutability": "nonpayable",
					"type": "constructor"
				},
				{
					"inputs": [
						{
							"internalType": "uint256",
							"name": "value",
							"type": "uint256"
						},
						{
							"internalType": "uint256",
							"name": "length",
							"type": "uint256"
						}
					],
					"name": "StringsInsufficientHexLength",
					"type": "error"
				},
				{
					"inputs": [],
					"name": "agreement",
					"outputs": [
						{
							"internalType": "string",
							"name": "",
							"type": "string"
						}
					],
					"stateMutability": "view",
					"type": "function"
				},
				{
					"inputs": [
						{
							"internalType": "string",
							"name": "identifier",
							"type": "string"
						},
						{
							"internalType": "address",
							"name": "licensor",
							"type": "address"
						},
						{
							"internalType": "address",
							"name": "licensee",
							"type": "address"
						},
						{
							"internalType": "uint256",
							"name": "price",
							"type": "uint256"
						},
						{
							"internalType": "uint256",
							"name": "signTimestamp",
							"type": "uint256"
						}
					],
					"name": "compose",
					"outputs": [
						{
							"internalType": "string",
							"name": "",
							"type": "string"
						}
					],
					"stateMutability": "pure",
					"type": "function"
				},
				{
					"inputs": [],
					"name": "getDuration",
					"outputs": [
						{
							"internalType": "uint256",
							"name": "",
							"type": "uint256"
						}
					],
					"stateMutability": "pure",
					"type": "function"
				},
				{
					"inputs": [],
					"name": "getName",
					"outputs": [
						{
							"internalType": "string",
							"name": "",
							"type": "string"
						}
					],
					"stateMutability": "pure",
					"type": "function"
				},
				{
					"inputs": [],
					"name": "getTemplate",
					"outputs": [
						{
							"internalType": "string",
							"name": "",
							"type": "string"
						}
					],
					"stateMutability": "pure",
					"type": "function"
				}
			],
			"devdoc": {
				"errors": {
					"StringsInsufficientHexLength(uint256,uint256)": [
						{
							"details": "The `value` string doesn't fit in the specified `length`."
						}
					]
				},
				"kind": "dev",
				"methods": {},
				"version": 1
			},
			"evm": {
				"assembly": "    /* \"contracts/LicenseAgreeement.sol\":158:6230  contract CreativeCommonAttribution4dot0 is ILicense {... */\n  mstore(0x40, 0x80)\n    /* \"contracts/LicenseAgreeement.sol\":2815:2831  constructor() {} */\n  callvalue\n  dup1\n  iszero\n  tag_1\n  jumpi\n  0x00\n  dup1\n  revert\ntag_1:\n  pop\n    /* \"contracts/LicenseAgreeement.sol\":158:6230  contract CreativeCommonAttribution4dot0 is ILicense {... */\n  dataSize(sub_0)\n  dup1\n  dataOffset(sub_0)\n  0x00\n  codecopy\n  0x00\n  return\nstop\n\nsub_0: assembly {\n        /* \"contracts/LicenseAgreeement.sol\":158:6230  contract CreativeCommonAttribution4dot0 is ILicense {... */\n      mstore(0x40, 0x80)\n      callvalue\n      dup1\n      iszero\n      tag_1\n      jumpi\n      0x00\n      dup1\n      revert\n    tag_1:\n      pop\n      jumpi(tag_2, lt(calldatasize, 0x04))\n      shr(0xe0, calldataload(0x00))\n      dup1\n      0x17d7de7c\n      eq\n      tag_3\n      jumpi\n      dup1\n      0x321c48f2\n      eq\n      tag_4\n      jumpi\n      dup1\n      0x483ced98\n      eq\n      tag_5\n      jumpi\n      dup1\n      0x7db3a946\n      eq\n      tag_6\n      jumpi\n      dup1\n      0xad2e8c9b\n      eq\n      tag_7\n      jumpi\n    tag_2:\n      0x00\n      dup1\n      revert\n        /* \"contracts/LicenseAgreeement.sol\":2839:2990  function getName() external pure returns (string memory) {... */\n    tag_3:\n      tag_8\n      tag_9\n      jump\t// in\n    tag_8:\n      mload(0x40)\n      tag_10\n      swap2\n      swap1\n      tag_11\n      jump\t// in\n    tag_10:\n      mload(0x40)\n      dup1\n      swap2\n      sub\n      swap1\n      return\n        /* \"contracts/LicenseAgreeement.sol\":3088:3184  function getTemplate() external pure returns (string memory) {... */\n    tag_4:\n      tag_12\n      tag_13\n      jump\t// in\n    tag_12:\n      mload(0x40)\n      tag_14\n      swap2\n      swap1\n      tag_11\n      jump\t// in\n    tag_14:\n      mload(0x40)\n      dup1\n      swap2\n      sub\n      swap1\n      return\n        /* \"contracts/LicenseAgreeement.sol\":3192:6227  function compose(... */\n    tag_5:\n      tag_15\n      0x04\n      dup1\n      calldatasize\n      sub\n      dup2\n      add\n      swap1\n      tag_16\n      swap2\n      swap1\n      tag_17\n      jump\t// in\n    tag_16:\n      tag_18\n      jump\t// in\n    tag_15:\n      mload(0x40)\n      tag_19\n      swap2\n      swap1\n      tag_11\n      jump\t// in\n    tag_19:\n      mload(0x40)\n      dup1\n      swap2\n      sub\n      swap1\n      return\n        /* \"contracts/LicenseAgreeement.sol\":217:2806  string constant public agreement = \"\" ... */\n    tag_6:\n      tag_20\n      tag_21\n      jump\t// in\n    tag_20:\n      mload(0x40)\n      tag_22\n      swap2\n      swap1\n      tag_11\n      jump\t// in\n    tag_22:\n      mload(0x40)\n      dup1\n      swap2\n      sub\n      swap1\n      return\n        /* \"contracts/LicenseAgreeement.sol\":2998:3080  function getDuration() external pure returns (uint256) {... */\n    tag_7:\n      tag_23\n      tag_24\n      jump\t// in\n    tag_23:\n      mload(0x40)\n      tag_25\n      swap2\n      swap1\n      tag_26\n      jump\t// in\n    tag_25:\n      mload(0x40)\n      dup1\n      swap2\n      sub\n      swap1\n      return\n        /* \"contracts/LicenseAgreeement.sol\":2839:2990  function getName() external pure returns (string memory) {... */\n    tag_9:\n        /* \"contracts/LicenseAgreeement.sol\":2881:2894  string memory */\n      0x60\n        /* \"contracts/LicenseAgreeement.sol\":2907:2982  return \"Creative Commons Attribution 4.0 International License (CC BY 4.0)\" */\n      mload(0x40)\n      dup1\n      0x80\n      add\n      0x40\n      mstore\n      dup1\n      0x42\n      dup2\n      mstore\n      0x20\n      add\n      data_3dce4ae4b48287a227ab5dee905878fe7ac111065e7c71b6655d9677046d109c\n      0x42\n      swap2\n      codecopy\n      swap1\n      pop\n        /* \"contracts/LicenseAgreeement.sol\":2839:2990  function getName() external pure returns (string memory) {... */\n      swap1\n      jump\t// out\n        /* \"contracts/LicenseAgreeement.sol\":3088:3184  function getTemplate() external pure returns (string memory) {... */\n    tag_13:\n        /* \"contracts/LicenseAgreeement.sol\":3134:3147  string memory */\n      0x60\n        /* \"contracts/LicenseAgreeement.sol\":3167:3176  agreement */\n      mload(0x40)\n      dup1\n      0x0860\n      add\n      0x40\n      mstore\n      dup1\n      0x0830\n      dup2\n      mstore\n      0x20\n      add\n      data_eb502e1e43115de3f2130b04bdee250eb4865bf2bc1316c6ae74a6e4722e780d\n      0x0830\n      swap2\n      codecopy\n        /* \"contracts/LicenseAgreeement.sol\":3160:3176  return agreement */\n      swap1\n      pop\n        /* \"contracts/LicenseAgreeement.sol\":3088:3184  function getTemplate() external pure returns (string memory) {... */\n      swap1\n      jump\t// out\n        /* \"contracts/LicenseAgreeement.sol\":3192:6227  function compose(... */\n    tag_18:\n        /* \"contracts/LicenseAgreeement.sol\":3384:3397  string memory */\n      0x60\n        /* \"contracts/LicenseAgreeement.sol\":3410:3430  string memory part_a */\n      0x00\n        /* \"contracts/LicenseAgreeement.sol\":3410:3875  string memory part_a = \"\" ... */\n      mload(0x40)\n      dup1\n      0x0180\n      add\n      0x40\n      mstore\n      dup1\n      0x0160\n      dup2\n      mstore\n      0x20\n      add\n      data_43fbc79cc25b50bb7bbbd48d5cd062fdad28996d3a1185b390b1e2932c0e8bc9\n      0x0160\n      swap2\n      codecopy\n      swap1\n      pop\n        /* \"contracts/LicenseAgreeement.sol\":3888:3908  string memory part_b */\n      0x00\n        /* \"contracts/LicenseAgreeement.sol\":3888:5904  string memory part_b = \"\\n\"... */\n      mload(0x40)\n      dup1\n      0x06a0\n      add\n      0x40\n      mstore\n      dup1\n      0x0671\n      dup2\n      mstore\n      0x20\n      add\n      data_b609fc3a615f5af5619ed2b11cec9ad925486bc40b21f623ce12d62e8f6c6e5e\n      0x0671\n      swap2\n      codecopy\n      swap1\n      pop\n        /* \"contracts/LicenseAgreeement.sol\":5917:5937  string memory part_c */\n      0x00\n        /* \"contracts/LicenseAgreeement.sol\":5917:5968  string memory part_c = \"\\n\"... */\n      mload(0x40)\n      dup1\n      0x40\n      add\n      0x40\n      mstore\n      dup1\n      0x0d\n      dup2\n      mstore\n      0x20\n      add\n      0x0a2d204c6963656e7365653a2000000000000000000000000000000000000000\n      dup2\n      mstore\n      pop\n      swap1\n      pop\n        /* \"contracts/LicenseAgreeement.sol\":5981:6001  string memory part_d */\n      0x00\n        /* \"contracts/LicenseAgreeement.sol\":5981:6036  string memory part_d = \"\\n\"... */\n      mload(0x40)\n      dup1\n      0x40\n      add\n      0x40\n      mstore\n      dup1\n      0x11\n      dup2\n      mstore\n      0x20\n      add\n      0x0a2d205369676e696e6720446174653a20000000000000000000000000000000\n      dup2\n      mstore\n      pop\n      swap1\n      pop\n        /* \"contracts/LicenseAgreeement.sol\":6080:6086  part_a */\n      dup4\n        /* \"contracts/LicenseAgreeement.sol\":6088:6098  identifier */\n      dup11\n        /* \"contracts/LicenseAgreeement.sol\":6100:6106  part_b */\n      dup5\n        /* \"contracts/LicenseAgreeement.sol\":6108:6137  Strings.toHexString(licensor) */\n      tag_30\n        /* \"contracts/LicenseAgreeement.sol\":6128:6136  licensor */\n      dup13\n        /* \"contracts/LicenseAgreeement.sol\":6108:6127  Strings.toHexString */\n      tag_31\n        /* \"contracts/LicenseAgreeement.sol\":6108:6137  Strings.toHexString(licensor) */\n      jump\t// in\n    tag_30:\n        /* \"contracts/LicenseAgreeement.sol\":6139:6145  part_c */\n      dup6\n        /* \"contracts/LicenseAgreeement.sol\":6147:6176  Strings.toHexString(licensee) */\n      tag_32\n        /* \"contracts/LicenseAgreeement.sol\":6167:6175  licensee */\n      dup14\n        /* \"contracts/LicenseAgreeement.sol\":6147:6166  Strings.toHexString */\n      tag_31\n        /* \"contracts/LicenseAgreeement.sol\":6147:6176  Strings.toHexString(licensee) */\n      jump\t// in\n    tag_32:\n        /* \"contracts/LicenseAgreeement.sol\":6178:6184  part_d */\n      dup7\n        /* \"contracts/LicenseAgreeement.sol\":6186:6217  Strings.toString(signTimestamp) */\n      tag_33\n        /* \"contracts/LicenseAgreeement.sol\":6203:6216  signTimestamp */\n      dup14\n        /* \"contracts/LicenseAgreeement.sol\":6186:6202  Strings.toString */\n      tag_34\n        /* \"contracts/LicenseAgreeement.sol\":6186:6217  Strings.toString(signTimestamp) */\n      jump\t// in\n    tag_33:\n        /* \"contracts/LicenseAgreeement.sol\":6063:6218  abi.encodePacked(part_a, identifier, part_b, Strings.toHexString(licensor), part_c, Strings.toHexString(licensee), part_d, Strings.toString(signTimestamp)) */\n      add(0x20, mload(0x40))\n      tag_35\n      swap9\n      swap8\n      swap7\n      swap6\n      swap5\n      swap4\n      swap3\n      swap2\n      swap1\n      tag_36\n      jump\t// in\n    tag_35:\n      mload(0x40)\n      0x20\n      dup2\n      dup4\n      sub\n      sub\n      dup2\n      mstore\n      swap1\n      0x40\n      mstore\n        /* \"contracts/LicenseAgreeement.sol\":6049:6219  return string(abi.encodePacked(part_a, identifier, part_b, Strings.toHexString(licensor), part_c, Strings.toHexString(licensee), part_d, Strings.toString(signTimestamp))) */\n      swap5\n      pop\n      pop\n      pop\n      pop\n      pop\n        /* \"contracts/LicenseAgreeement.sol\":3192:6227  function compose(... */\n      swap6\n      swap5\n      pop\n      pop\n      pop\n      pop\n      pop\n      jump\t// out\n        /* \"contracts/LicenseAgreeement.sol\":217:2806  string constant public agreement = \"\" ... */\n    tag_21:\n      mload(0x40)\n      dup1\n      0x0860\n      add\n      0x40\n      mstore\n      dup1\n      0x0830\n      dup2\n      mstore\n      0x20\n      add\n      data_eb502e1e43115de3f2130b04bdee250eb4865bf2bc1316c6ae74a6e4722e780d\n      0x0830\n      swap2\n      codecopy\n      dup2\n      jump\t// out\n        /* \"contracts/LicenseAgreeement.sol\":2998:3080  function getDuration() external pure returns (uint256) {... */\n    tag_24:\n        /* \"contracts/LicenseAgreeement.sol\":3044:3051  uint256 */\n      0x00\n        /* \"contracts/LicenseAgreeement.sol\":2998:3080  function getDuration() external pure returns (uint256) {... */\n      swap1\n      jump\t// out\n        /* \"@openzeppelin/contracts/utils/Strings.sol\":2689:2837  function toHexString(address addr) internal pure returns (string memory) {... */\n    tag_31:\n        /* \"@openzeppelin/contracts/utils/Strings.sol\":2747:2760  string memory */\n      0x60\n        /* \"@openzeppelin/contracts/utils/Strings.sol\":2779:2830  toHexString(uint256(uint160(addr)), ADDRESS_LENGTH) */\n      tag_39\n        /* \"@openzeppelin/contracts/utils/Strings.sol\":2807:2811  addr */\n      dup3\n        /* \"@openzeppelin/contracts/utils/Strings.sol\":2791:2813  uint256(uint160(addr)) */\n      0xffffffffffffffffffffffffffffffffffffffff\n      and\n        /* \"@openzeppelin/contracts/utils/Strings.sol\":375:377  20 */\n      0x14\n        /* \"@openzeppelin/contracts/utils/Strings.sol\":2779:2830  toHexString(uint256(uint160(addr)), ADDRESS_LENGTH) */\n      0xff\n      and\n        /* \"@openzeppelin/contracts/utils/Strings.sol\":2779:2790  toHexString */\n      tag_40\n        /* \"@openzeppelin/contracts/utils/Strings.sol\":2779:2830  toHexString(uint256(uint160(addr)), ADDRESS_LENGTH) */\n      jump\t// in\n    tag_39:\n        /* \"@openzeppelin/contracts/utils/Strings.sol\":2772:2830  return toHexString(uint256(uint160(addr)), ADDRESS_LENGTH) */\n      swap1\n      pop\n        /* \"@openzeppelin/contracts/utils/Strings.sol\":2689:2837  function toHexString(address addr) internal pure returns (string memory) {... */\n      swap2\n      swap1\n      pop\n      jump\t// out\n        /* \"@openzeppelin/contracts/utils/Strings.sol\":637:1335  function toString(uint256 value) internal pure returns (string memory) {... */\n    tag_34:\n        /* \"@openzeppelin/contracts/utils/Strings.sol\":693:706  string memory */\n      0x60\n        /* \"@openzeppelin/contracts/utils/Strings.sol\":742:756  uint256 length */\n      0x00\n        /* \"@openzeppelin/contracts/utils/Strings.sol\":779:780  1 */\n      0x01\n        /* \"@openzeppelin/contracts/utils/Strings.sol\":759:776  Math.log10(value) */\n      tag_42\n        /* \"@openzeppelin/contracts/utils/Strings.sol\":770:775  value */\n      dup5\n        /* \"@openzeppelin/contracts/utils/Strings.sol\":759:769  Math.log10 */\n      tag_43\n        /* \"@openzeppelin/contracts/utils/Strings.sol\":759:776  Math.log10(value) */\n      jump\t// in\n    tag_42:\n        /* \"@openzeppelin/contracts/utils/Strings.sol\":759:780  Math.log10(value) + 1 */\n      add\n        /* \"@openzeppelin/contracts/utils/Strings.sol\":742:780  uint256 length = Math.log10(value) + 1 */\n      swap1\n      pop\n        /* \"@openzeppelin/contracts/utils/Strings.sol\":794:814  string memory buffer */\n      0x00\n        /* \"@openzeppelin/contracts/utils/Strings.sol\":828:834  length */\n      dup2\n        /* \"@openzeppelin/contracts/utils/Strings.sol\":817:835  new string(length) */\n      0xffffffffffffffff\n      dup2\n      gt\n      iszero\n      tag_44\n      jumpi\n      tag_45\n      tag_46\n      jump\t// in\n    tag_45:\n    tag_44:\n      mload(0x40)\n      swap1\n      dup1\n      dup3\n      mstore\n      dup1\n      0x1f\n      add\n      not(0x1f)\n      and\n      0x20\n      add\n      dup3\n      add\n      0x40\n      mstore\n      dup1\n      iszero\n      tag_47\n      jumpi\n      dup2\n      0x20\n      add\n      0x01\n      dup3\n      mul\n      dup1\n      calldatasize\n      dup4\n      calldatacopy\n      dup1\n      dup3\n      add\n      swap2\n      pop\n      pop\n      swap1\n      pop\n    tag_47:\n      pop\n        /* \"@openzeppelin/contracts/utils/Strings.sol\":794:835  string memory buffer = new string(length) */\n      swap1\n      pop\n        /* \"@openzeppelin/contracts/utils/Strings.sol\":849:860  uint256 ptr */\n      0x00\n        /* \"@openzeppelin/contracts/utils/Strings.sol\":975:981  length */\n      dup3\n        /* \"@openzeppelin/contracts/utils/Strings.sol\":971:973  32 */\n      0x20\n        /* \"@openzeppelin/contracts/utils/Strings.sol\":967:982  add(32, length) */\n      add\n        /* \"@openzeppelin/contracts/utils/Strings.sol\":959:965  buffer */\n      dup3\n        /* \"@openzeppelin/contracts/utils/Strings.sol\":955:983  add(buffer, add(32, length)) */\n      add\n        /* \"@openzeppelin/contracts/utils/Strings.sol\":948:983  ptr := add(buffer, add(32, length)) */\n      swap1\n      pop\n        /* \"@openzeppelin/contracts/utils/Strings.sol\":1010:1292  while (true) {... */\n    tag_48:\n        /* \"@openzeppelin/contracts/utils/Strings.sol\":1017:1021  true */\n      0x01\n        /* \"@openzeppelin/contracts/utils/Strings.sol\":1010:1292  while (true) {... */\n      iszero\n      tag_49\n      jumpi\n        /* \"@openzeppelin/contracts/utils/Strings.sol\":1041:1046  ptr-- */\n      dup1\n      dup1\n      0x01\n      swap1\n      sub\n      swap2\n      pop\n      pop\n        /* \"@openzeppelin/contracts/utils/Strings.sol\":1180:1190  HEX_DIGITS */\n      0x3031323334353637383961626364656600000000000000000000000000000000\n        /* \"@openzeppelin/contracts/utils/Strings.sol\":1175:1177  10 */\n      0x0a\n        /* \"@openzeppelin/contracts/utils/Strings.sol\":1168:1173  value */\n      dup7\n        /* \"@openzeppelin/contracts/utils/Strings.sol\":1164:1178  mod(value, 10) */\n      mod\n        /* \"@openzeppelin/contracts/utils/Strings.sol\":1159:1191  byte(mod(value, 10), HEX_DIGITS) */\n      byte\n        /* \"@openzeppelin/contracts/utils/Strings.sol\":1154:1157  ptr */\n      dup2\n        /* \"@openzeppelin/contracts/utils/Strings.sol\":1146:1192  mstore8(ptr, byte(mod(value, 10), HEX_DIGITS)) */\n      mstore8\n        /* \"@openzeppelin/contracts/utils/Strings.sol\":1236:1238  10 */\n      0x0a\n        /* \"@openzeppelin/contracts/utils/Strings.sol\":1227:1238  value /= 10 */\n      dup6\n      dup2\n      tag_50\n      jumpi\n      tag_51\n      tag_52\n      jump\t// in\n    tag_51:\n    tag_50:\n      div\n      swap5\n      pop\n        /* \"@openzeppelin/contracts/utils/Strings.sol\":1269:1270  0 */\n      0x00\n        /* \"@openzeppelin/contracts/utils/Strings.sol\":1260:1265  value */\n      dup6\n        /* \"@openzeppelin/contracts/utils/Strings.sol\":1260:1270  value == 0 */\n      sub\n        /* \"@openzeppelin/contracts/utils/Strings.sol\":1010:1292  while (true) {... */\n      tag_48\n        /* \"@openzeppelin/contracts/utils/Strings.sol\":1256:1277  if (value == 0) break */\n      jumpi\n        /* \"@openzeppelin/contracts/utils/Strings.sol\":1010:1292  while (true) {... */\n    tag_49:\n        /* \"@openzeppelin/contracts/utils/Strings.sol\":1312:1318  buffer */\n      dup2\n        /* \"@openzeppelin/contracts/utils/Strings.sol\":1305:1318  return buffer */\n      swap4\n      pop\n      pop\n      pop\n      pop\n        /* \"@openzeppelin/contracts/utils/Strings.sol\":637:1335  function toString(uint256 value) internal pure returns (string memory) {... */\n      swap2\n      swap1\n      pop\n      jump\t// out\n        /* \"@openzeppelin/contracts/utils/Strings.sol\":2005:2530  function toHexString(uint256 value, uint256 length) internal pure returns (string memory) {... */\n    tag_40:\n        /* \"@openzeppelin/contracts/utils/Strings.sol\":2080:2093  string memory */\n      0x60\n        /* \"@openzeppelin/contracts/utils/Strings.sol\":2105:2123  uint256 localValue */\n      0x00\n        /* \"@openzeppelin/contracts/utils/Strings.sol\":2126:2131  value */\n      dup4\n        /* \"@openzeppelin/contracts/utils/Strings.sol\":2105:2131  uint256 localValue = value */\n      swap1\n      pop\n        /* \"@openzeppelin/contracts/utils/Strings.sol\":2141:2160  bytes memory buffer */\n      0x00\n        /* \"@openzeppelin/contracts/utils/Strings.sol\":2186:2187  2 */\n      0x02\n        /* \"@openzeppelin/contracts/utils/Strings.sol\":2177:2183  length */\n      dup5\n        /* \"@openzeppelin/contracts/utils/Strings.sol\":2173:2174  2 */\n      0x02\n        /* \"@openzeppelin/contracts/utils/Strings.sol\":2173:2183  2 * length */\n      tag_55\n      swap2\n      swap1\n      tag_56\n      jump\t// in\n    tag_55:\n        /* \"@openzeppelin/contracts/utils/Strings.sol\":2173:2187  2 * length + 2 */\n      tag_57\n      swap2\n      swap1\n      tag_58\n      jump\t// in\n    tag_57:\n        /* \"@openzeppelin/contracts/utils/Strings.sol\":2163:2188  new bytes(2 * length + 2) */\n      0xffffffffffffffff\n      dup2\n      gt\n      iszero\n      tag_59\n      jumpi\n      tag_60\n      tag_46\n      jump\t// in\n    tag_60:\n    tag_59:\n      mload(0x40)\n      swap1\n      dup1\n      dup3\n      mstore\n      dup1\n      0x1f\n      add\n      not(0x1f)\n      and\n      0x20\n      add\n      dup3\n      add\n      0x40\n      mstore\n      dup1\n      iszero\n      tag_61\n      jumpi\n      dup2\n      0x20\n      add\n      0x01\n      dup3\n      mul\n      dup1\n      calldatasize\n      dup4\n      calldatacopy\n      dup1\n      dup3\n      add\n      swap2\n      pop\n      pop\n      swap1\n      pop\n    tag_61:\n      pop\n        /* \"@openzeppelin/contracts/utils/Strings.sol\":2141:2188  bytes memory buffer = new bytes(2 * length + 2) */\n      swap1\n      pop\n        /* \"@openzeppelin/contracts/utils/Strings.sol\":2198:2213  buffer[0] = \"0\" */\n      0x3000000000000000000000000000000000000000000000000000000000000000\n        /* \"@openzeppelin/contracts/utils/Strings.sol\":2198:2204  buffer */\n      dup2\n        /* \"@openzeppelin/contracts/utils/Strings.sol\":2205:2206  0 */\n      0x00\n        /* \"@openzeppelin/contracts/utils/Strings.sol\":2198:2207  buffer[0] */\n      dup2\n      mload\n      dup2\n      lt\n      tag_62\n      jumpi\n      tag_63\n      tag_64\n      jump\t// in\n    tag_63:\n    tag_62:\n      0x20\n      add\n      add\n        /* \"@openzeppelin/contracts/utils/Strings.sol\":2198:2213  buffer[0] = \"0\" */\n      swap1\n      not(0xffffffffffffffffffffffffffffffffffffffffffffffffffffffffffffff)\n      and\n      swap1\n      dup2\n      0x00\n      byte\n      swap1\n      mstore8\n      pop\n        /* \"@openzeppelin/contracts/utils/Strings.sol\":2223:2238  buffer[1] = \"x\" */\n      0x7800000000000000000000000000000000000000000000000000000000000000\n        /* \"@openzeppelin/contracts/utils/Strings.sol\":2223:2229  buffer */\n      dup2\n        /* \"@openzeppelin/contracts/utils/Strings.sol\":2230:2231  1 */\n      0x01\n        /* \"@openzeppelin/contracts/utils/Strings.sol\":2223:2232  buffer[1] */\n      dup2\n      mload\n      dup2\n      lt\n      tag_65\n      jumpi\n      tag_66\n      tag_64\n      jump\t// in\n    tag_66:\n    tag_65:\n      0x20\n      add\n      add\n        /* \"@openzeppelin/contracts/utils/Strings.sol\":2223:2238  buffer[1] = \"x\" */\n      swap1\n      not(0xffffffffffffffffffffffffffffffffffffffffffffffffffffffffffffff)\n      and\n      swap1\n      dup2\n      0x00\n      byte\n      swap1\n      mstore8\n      pop\n        /* \"@openzeppelin/contracts/utils/Strings.sol\":2253:2262  uint256 i */\n      0x00\n        /* \"@openzeppelin/contracts/utils/Strings.sol\":2278:2279  1 */\n      0x01\n        /* \"@openzeppelin/contracts/utils/Strings.sol\":2269:2275  length */\n      dup6\n        /* \"@openzeppelin/contracts/utils/Strings.sol\":2265:2266  2 */\n      0x02\n        /* \"@openzeppelin/contracts/utils/Strings.sol\":2265:2275  2 * length */\n      tag_70\n      swap2\n      swap1\n      tag_56\n      jump\t// in\n    tag_70:\n        /* \"@openzeppelin/contracts/utils/Strings.sol\":2265:2279  2 * length + 1 */\n      tag_71\n      swap2\n      swap1\n      tag_58\n      jump\t// in\n    tag_71:\n        /* \"@openzeppelin/contracts/utils/Strings.sol\":2253:2279  uint256 i = 2 * length + 1 */\n      swap1\n      pop\n        /* \"@openzeppelin/contracts/utils/Strings.sol\":2248:2388  for (uint256 i = 2 * length + 1; i > 1; --i) {... */\n    tag_67:\n        /* \"@openzeppelin/contracts/utils/Strings.sol\":2285:2286  1 */\n      0x01\n        /* \"@openzeppelin/contracts/utils/Strings.sol\":2281:2282  i */\n      dup2\n        /* \"@openzeppelin/contracts/utils/Strings.sol\":2281:2286  i > 1 */\n      gt\n        /* \"@openzeppelin/contracts/utils/Strings.sol\":2248:2388  for (uint256 i = 2 * length + 1; i > 1; --i) {... */\n      iszero\n      tag_68\n      jumpi\n        /* \"@openzeppelin/contracts/utils/Strings.sol\":2319:2329  HEX_DIGITS */\n      0x3031323334353637383961626364656600000000000000000000000000000000\n        /* \"@openzeppelin/contracts/utils/Strings.sol\":2343:2346  0xf */\n      0x0f\n        /* \"@openzeppelin/contracts/utils/Strings.sol\":2330:2340  localValue */\n      dup5\n        /* \"@openzeppelin/contracts/utils/Strings.sol\":2330:2346  localValue & 0xf */\n      and\n        /* \"@openzeppelin/contracts/utils/Strings.sol\":2319:2347  HEX_DIGITS[localValue & 0xf] */\n      0x10\n      dup2\n      lt\n      tag_72\n      jumpi\n      tag_73\n      tag_64\n      jump\t// in\n    tag_73:\n    tag_72:\n      byte\n      0xf8\n      shl\n        /* \"@openzeppelin/contracts/utils/Strings.sol\":2307:2313  buffer */\n      dup3\n        /* \"@openzeppelin/contracts/utils/Strings.sol\":2314:2315  i */\n      dup3\n        /* \"@openzeppelin/contracts/utils/Strings.sol\":2307:2316  buffer[i] */\n      dup2\n      mload\n      dup2\n      lt\n      tag_74\n      jumpi\n      tag_75\n      tag_64\n      jump\t// in\n    tag_75:\n    tag_74:\n      0x20\n      add\n      add\n        /* \"@openzeppelin/contracts/utils/Strings.sol\":2307:2347  buffer[i] = HEX_DIGITS[localValue & 0xf] */\n      swap1\n      not(0xffffffffffffffffffffffffffffffffffffffffffffffffffffffffffffff)\n      and\n      swap1\n      dup2\n      0x00\n      byte\n      swap1\n      mstore8\n      pop\n        /* \"@openzeppelin/contracts/utils/Strings.sol\":2376:2377  4 */\n      0x04\n        /* \"@openzeppelin/contracts/utils/Strings.sol\":2361:2377  localValue >>= 4 */\n      dup4\n      swap1\n      shr\n      swap3\n      pop\n        /* \"@openzeppelin/contracts/utils/Strings.sol\":2288:2291  --i */\n      dup1\n      tag_76\n      swap1\n      tag_77\n      jump\t// in\n    tag_76:\n      swap1\n      pop\n        /* \"@openzeppelin/contracts/utils/Strings.sol\":2248:2388  for (uint256 i = 2 * length + 1; i > 1; --i) {... */\n      jump(tag_67)\n    tag_68:\n      pop\n        /* \"@openzeppelin/contracts/utils/Strings.sol\":2415:2416  0 */\n      0x00\n        /* \"@openzeppelin/contracts/utils/Strings.sol\":2401:2411  localValue */\n      dup3\n        /* \"@openzeppelin/contracts/utils/Strings.sol\":2401:2416  localValue != 0 */\n      eq\n        /* \"@openzeppelin/contracts/utils/Strings.sol\":2397:2493  if (localValue != 0) {... */\n      tag_78\n      jumpi\n        /* \"@openzeppelin/contracts/utils/Strings.sol\":2468:2473  value */\n      dup5\n        /* \"@openzeppelin/contracts/utils/Strings.sol\":2475:2481  length */\n      dup5\n        /* \"@openzeppelin/contracts/utils/Strings.sol\":2439:2482  StringsInsufficientHexLength(value, length) */\n      mload(0x40)\n      0xe22e27eb00000000000000000000000000000000000000000000000000000000\n      dup2\n      mstore\n      0x04\n      add\n      tag_79\n      swap3\n      swap2\n      swap1\n      tag_80\n      jump\t// in\n    tag_79:\n      mload(0x40)\n      dup1\n      swap2\n      sub\n      swap1\n      revert\n        /* \"@openzeppelin/contracts/utils/Strings.sol\":2397:2493  if (localValue != 0) {... */\n    tag_78:\n        /* \"@openzeppelin/contracts/utils/Strings.sol\":2516:2522  buffer */\n      dup1\n        /* \"@openzeppelin/contracts/utils/Strings.sol\":2502:2523  return string(buffer) */\n      swap3\n      pop\n      pop\n      pop\n        /* \"@openzeppelin/contracts/utils/Strings.sol\":2005:2530  function toHexString(uint256 value, uint256 length) internal pure returns (string memory) {... */\n      swap3\n      swap2\n      pop\n      pop\n      jump\t// out\n        /* \"@openzeppelin/contracts/utils/math/Math.sol\":12214:13130  function log10(uint256 value) internal pure returns (uint256) {... */\n    tag_43:\n        /* \"@openzeppelin/contracts/utils/math/Math.sol\":12267:12274  uint256 */\n      0x00\n        /* \"@openzeppelin/contracts/utils/math/Math.sol\":12286:12300  uint256 result */\n      dup1\n        /* \"@openzeppelin/contracts/utils/math/Math.sol\":12303:12304  0 */\n      0x00\n        /* \"@openzeppelin/contracts/utils/math/Math.sol\":12286:12304  uint256 result = 0 */\n      swap1\n      pop\n        /* \"@openzeppelin/contracts/utils/math/Math.sol\":12351:12359  10 ** 64 */\n      0x184f03e93ff9f4daa797ed6e38ed64bf6a1f010000000000000000\n        /* \"@openzeppelin/contracts/utils/math/Math.sol\":12342:12347  value */\n      dup4\n        /* \"@openzeppelin/contracts/utils/math/Math.sol\":12342:12359  value >= 10 ** 64 */\n      lt\n        /* \"@openzeppelin/contracts/utils/math/Math.sol\":12338:12441  if (value >= 10 ** 64) {... */\n      tag_82\n      jumpi\n        /* \"@openzeppelin/contracts/utils/math/Math.sol\":12388:12396  10 ** 64 */\n      0x184f03e93ff9f4daa797ed6e38ed64bf6a1f010000000000000000\n        /* \"@openzeppelin/contracts/utils/math/Math.sol\":12379:12396  value /= 10 ** 64 */\n      dup4\n      dup2\n      tag_83\n      jumpi\n      tag_84\n      tag_52\n      jump\t// in\n    tag_84:\n    tag_83:\n      div\n      swap3\n      pop\n        /* \"@openzeppelin/contracts/utils/math/Math.sol\":12424:12426  64 */\n      0x40\n        /* \"@openzeppelin/contracts/utils/math/Math.sol\":12414:12426  result += 64 */\n      dup2\n      add\n      swap1\n      pop\n        /* \"@openzeppelin/contracts/utils/math/Math.sol\":12338:12441  if (value >= 10 ** 64) {... */\n    tag_82:\n        /* \"@openzeppelin/contracts/utils/math/Math.sol\":12467:12475  10 ** 32 */\n      0x04ee2d6d415b85acef8100000000\n        /* \"@openzeppelin/contracts/utils/math/Math.sol\":12458:12463  value */\n      dup4\n        /* \"@openzeppelin/contracts/utils/math/Math.sol\":12458:12475  value >= 10 ** 32 */\n      lt\n        /* \"@openzeppelin/contracts/utils/math/Math.sol\":12454:12557  if (value >= 10 ** 32) {... */\n      tag_85\n      jumpi\n        /* \"@openzeppelin/contracts/utils/math/Math.sol\":12504:12512  10 ** 32 */\n      0x04ee2d6d415b85acef8100000000\n        /* \"@openzeppelin/contracts/utils/math/Math.sol\":12495:12512  value /= 10 ** 32 */\n      dup4\n      dup2\n      tag_86\n      jumpi\n      tag_87\n      tag_52\n      jump\t// in\n    tag_87:\n    tag_86:\n      div\n      swap3\n      pop\n        /* \"@openzeppelin/contracts/utils/math/Math.sol\":12540:12542  32 */\n      0x20\n        /* \"@openzeppelin/contracts/utils/math/Math.sol\":12530:12542  result += 32 */\n      dup2\n      add\n      swap1\n      pop\n        /* \"@openzeppelin/contracts/utils/math/Math.sol\":12454:12557  if (value >= 10 ** 32) {... */\n    tag_85:\n        /* \"@openzeppelin/contracts/utils/math/Math.sol\":12583:12591  10 ** 16 */\n      0x2386f26fc10000\n        /* \"@openzeppelin/contracts/utils/math/Math.sol\":12574:12579  value */\n      dup4\n        /* \"@openzeppelin/contracts/utils/math/Math.sol\":12574:12591  value >= 10 ** 16 */\n      lt\n        /* \"@openzeppelin/contracts/utils/math/Math.sol\":12570:12673  if (value >= 10 ** 16) {... */\n      tag_88\n      jumpi\n        /* \"@openzeppelin/contracts/utils/math/Math.sol\":12620:12628  10 ** 16 */\n      0x2386f26fc10000\n        /* \"@openzeppelin/contracts/utils/math/Math.sol\":12611:12628  value /= 10 ** 16 */\n      dup4\n      dup2\n      tag_89\n      jumpi\n      tag_90\n      tag_52\n      jump\t// in\n    tag_90:\n    tag_89:\n      div\n      swap3\n      pop\n        /* \"@openzeppelin/contracts/utils/math/Math.sol\":12656:12658  16 */\n      0x10\n        /* \"@openzeppelin/contracts/utils/math/Math.sol\":12646:12658  result += 16 */\n      dup2\n      add\n      swap1\n      pop\n        /* \"@openzeppelin/contracts/utils/math/Math.sol\":12570:12673  if (value >= 10 ** 16) {... */\n    tag_88:\n        /* \"@openzeppelin/contracts/utils/math/Math.sol\":12699:12706  10 ** 8 */\n      0x05f5e100\n        /* \"@openzeppelin/contracts/utils/math/Math.sol\":12690:12695  value */\n      dup4\n        /* \"@openzeppelin/contracts/utils/math/Math.sol\":12690:12706  value >= 10 ** 8 */\n      lt\n        /* \"@openzeppelin/contracts/utils/math/Math.sol\":12686:12786  if (value >= 10 ** 8) {... */\n      tag_91\n      jumpi\n        /* \"@openzeppelin/contracts/utils/math/Math.sol\":12735:12742  10 ** 8 */\n      0x05f5e100\n        /* \"@openzeppelin/contracts/utils/math/Math.sol\":12726:12742  value /= 10 ** 8 */\n      dup4\n      dup2\n      tag_92\n      jumpi\n      tag_93\n      tag_52\n      jump\t// in\n    tag_93:\n    tag_92:\n      div\n      swap3\n      pop\n        /* \"@openzeppelin/contracts/utils/math/Math.sol\":12770:12771  8 */\n      0x08\n        /* \"@openzeppelin/contracts/utils/math/Math.sol\":12760:12771  result += 8 */\n      dup2\n      add\n      swap1\n      pop\n        /* \"@openzeppelin/contracts/utils/math/Math.sol\":12686:12786  if (value >= 10 ** 8) {... */\n    tag_91:\n        /* \"@openzeppelin/contracts/utils/math/Math.sol\":12812:12819  10 ** 4 */\n      0x2710\n        /* \"@openzeppelin/contracts/utils/math/Math.sol\":12803:12808  value */\n      dup4\n        /* \"@openzeppelin/contracts/utils/math/Math.sol\":12803:12819  value >= 10 ** 4 */\n      lt\n        /* \"@openzeppelin/contracts/utils/math/Math.sol\":12799:12899  if (value >= 10 ** 4) {... */\n      tag_94\n      jumpi\n        /* \"@openzeppelin/contracts/utils/math/Math.sol\":12848:12855  10 ** 4 */\n      0x2710\n        /* \"@openzeppelin/contracts/utils/math/Math.sol\":12839:12855  value /= 10 ** 4 */\n      dup4\n      dup2\n      tag_95\n      jumpi\n      tag_96\n      tag_52\n      jump\t// in\n    tag_96:\n    tag_95:\n      div\n      swap3\n      pop\n        /* \"@openzeppelin/contracts/utils/math/Math.sol\":12883:12884  4 */\n      0x04\n        /* \"@openzeppelin/contracts/utils/math/Math.sol\":12873:12884  result += 4 */\n      dup2\n      add\n      swap1\n      pop\n        /* \"@openzeppelin/contracts/utils/math/Math.sol\":12799:12899  if (value >= 10 ** 4) {... */\n    tag_94:\n        /* \"@openzeppelin/contracts/utils/math/Math.sol\":12925:12932  10 ** 2 */\n      0x64\n        /* \"@openzeppelin/contracts/utils/math/Math.sol\":12916:12921  value */\n      dup4\n        /* \"@openzeppelin/contracts/utils/math/Math.sol\":12916:12932  value >= 10 ** 2 */\n      lt\n        /* \"@openzeppelin/contracts/utils/math/Math.sol\":12912:13012  if (value >= 10 ** 2) {... */\n      tag_97\n      jumpi\n        /* \"@openzeppelin/contracts/utils/math/Math.sol\":12961:12968  10 ** 2 */\n      0x64\n        /* \"@openzeppelin/contracts/utils/math/Math.sol\":12952:12968  value /= 10 ** 2 */\n      dup4\n      dup2\n      tag_98\n      jumpi\n      tag_99\n      tag_52\n      jump\t// in\n    tag_99:\n    tag_98:\n      div\n      swap3\n      pop\n        /* \"@openzeppelin/contracts/utils/math/Math.sol\":12996:12997  2 */\n      0x02\n        /* \"@openzeppelin/contracts/utils/math/Math.sol\":12986:12997  result += 2 */\n      dup2\n      add\n      swap1\n      pop\n        /* \"@openzeppelin/contracts/utils/math/Math.sol\":12912:13012  if (value >= 10 ** 2) {... */\n    tag_97:\n        /* \"@openzeppelin/contracts/utils/math/Math.sol\":13038:13045  10 ** 1 */\n      0x0a\n        /* \"@openzeppelin/contracts/utils/math/Math.sol\":13029:13034  value */\n      dup4\n        /* \"@openzeppelin/contracts/utils/math/Math.sol\":13029:13045  value >= 10 ** 1 */\n      lt\n        /* \"@openzeppelin/contracts/utils/math/Math.sol\":13025:13091  if (value >= 10 ** 1) {... */\n      tag_100\n      jumpi\n        /* \"@openzeppelin/contracts/utils/math/Math.sol\":13075:13076  1 */\n      0x01\n        /* \"@openzeppelin/contracts/utils/math/Math.sol\":13065:13076  result += 1 */\n      dup2\n      add\n      swap1\n      pop\n        /* \"@openzeppelin/contracts/utils/math/Math.sol\":13025:13091  if (value >= 10 ** 1) {... */\n    tag_100:\n        /* \"@openzeppelin/contracts/utils/math/Math.sol\":13117:13123  result */\n      dup1\n        /* \"@openzeppelin/contracts/utils/math/Math.sol\":13110:13123  return result */\n      swap2\n      pop\n      pop\n        /* \"@openzeppelin/contracts/utils/math/Math.sol\":12214:13130  function log10(uint256 value) internal pure returns (uint256) {... */\n      swap2\n      swap1\n      pop\n      jump\t// out\n        /* \"#utility.yul\":7:106   */\n    tag_101:\n        /* \"#utility.yul\":59:65   */\n      0x00\n        /* \"#utility.yul\":93:98   */\n      dup2\n        /* \"#utility.yul\":87:99   */\n      mload\n        /* \"#utility.yul\":77:99   */\n      swap1\n      pop\n        /* \"#utility.yul\":7:106   */\n      swap2\n      swap1\n      pop\n      jump\t// out\n        /* \"#utility.yul\":112:281   */\n    tag_102:\n        /* \"#utility.yul\":196:207   */\n      0x00\n        /* \"#utility.yul\":230:236   */\n      dup3\n        /* \"#utility.yul\":225:228   */\n      dup3\n        /* \"#utility.yul\":218:237   */\n      mstore\n        /* \"#utility.yul\":270:274   */\n      0x20\n        /* \"#utility.yul\":265:268   */\n      dup3\n        /* \"#utility.yul\":261:275   */\n      add\n        /* \"#utility.yul\":246:275   */\n      swap1\n      pop\n        /* \"#utility.yul\":112:281   */\n      swap3\n      swap2\n      pop\n      pop\n      jump\t// out\n        /* \"#utility.yul\":287:426   */\n    tag_103:\n        /* \"#utility.yul\":376:382   */\n      dup3\n        /* \"#utility.yul\":371:374   */\n      dup2\n        /* \"#utility.yul\":366:369   */\n      dup4\n        /* \"#utility.yul\":360:383   */\n      mcopy\n        /* \"#utility.yul\":417:418   */\n      0x00\n        /* \"#utility.yul\":408:414   */\n      dup4\n        /* \"#utility.yul\":403:406   */\n      dup4\n        /* \"#utility.yul\":399:415   */\n      add\n        /* \"#utility.yul\":392:419   */\n      mstore\n        /* \"#utility.yul\":287:426   */\n      pop\n      pop\n      pop\n      jump\t// out\n        /* \"#utility.yul\":432:534   */\n    tag_104:\n        /* \"#utility.yul\":473:479   */\n      0x00\n        /* \"#utility.yul\":524:526   */\n      0x1f\n        /* \"#utility.yul\":520:527   */\n      not\n        /* \"#utility.yul\":515:517   */\n      0x1f\n        /* \"#utility.yul\":508:513   */\n      dup4\n        /* \"#utility.yul\":504:518   */\n      add\n        /* \"#utility.yul\":500:528   */\n      and\n        /* \"#utility.yul\":490:528   */\n      swap1\n      pop\n        /* \"#utility.yul\":432:534   */\n      swap2\n      swap1\n      pop\n      jump\t// out\n        /* \"#utility.yul\":540:917   */\n    tag_105:\n        /* \"#utility.yul\":628:631   */\n      0x00\n        /* \"#utility.yul\":656:695   */\n      tag_134\n        /* \"#utility.yul\":689:694   */\n      dup3\n        /* \"#utility.yul\":656:695   */\n      tag_101\n      jump\t// in\n    tag_134:\n        /* \"#utility.yul\":711:782   */\n      tag_135\n        /* \"#utility.yul\":775:781   */\n      dup2\n        /* \"#utility.yul\":770:773   */\n      dup6\n        /* \"#utility.yul\":711:782   */\n      tag_102\n      jump\t// in\n    tag_135:\n        /* \"#utility.yul\":704:782   */\n      swap4\n      pop\n        /* \"#utility.yul\":791:856   */\n      tag_136\n        /* \"#utility.yul\":849:855   */\n      dup2\n        /* \"#utility.yul\":844:847   */\n      dup6\n        /* \"#utility.yul\":837:841   */\n      0x20\n        /* \"#utility.yul\":830:835   */\n      dup7\n        /* \"#utility.yul\":826:842   */\n      add\n        /* \"#utility.yul\":791:856   */\n      tag_103\n      jump\t// in\n    tag_136:\n        /* \"#utility.yul\":881:910   */\n      tag_137\n        /* \"#utility.yul\":903:909   */\n      dup2\n        /* \"#utility.yul\":881:910   */\n      tag_104\n      jump\t// in\n    tag_137:\n        /* \"#utility.yul\":876:879   */\n      dup5\n        /* \"#utility.yul\":872:911   */\n      add\n        /* \"#utility.yul\":865:911   */\n      swap2\n      pop\n        /* \"#utility.yul\":632:917   */\n      pop\n        /* \"#utility.yul\":540:917   */\n      swap3\n      swap2\n      pop\n      pop\n      jump\t// out\n        /* \"#utility.yul\":923:1236   */\n    tag_11:\n        /* \"#utility.yul\":1036:1040   */\n      0x00\n        /* \"#utility.yul\":1074:1076   */\n      0x20\n        /* \"#utility.yul\":1063:1072   */\n      dup3\n        /* \"#utility.yul\":1059:1077   */\n      add\n        /* \"#utility.yul\":1051:1077   */\n      swap1\n      pop\n        /* \"#utility.yul\":1123:1132   */\n      dup2\n        /* \"#utility.yul\":1117:1121   */\n      dup2\n        /* \"#utility.yul\":1113:1133   */\n      sub\n        /* \"#utility.yul\":1109:1110   */\n      0x00\n        /* \"#utility.yul\":1098:1107   */\n      dup4\n        /* \"#utility.yul\":1094:1111   */\n      add\n        /* \"#utility.yul\":1087:1134   */\n      mstore\n        /* \"#utility.yul\":1151:1229   */\n      tag_139\n        /* \"#utility.yul\":1224:1228   */\n      dup2\n        /* \"#utility.yul\":1215:1221   */\n      dup5\n        /* \"#utility.yul\":1151:1229   */\n      tag_105\n      jump\t// in\n    tag_139:\n        /* \"#utility.yul\":1143:1229   */\n      swap1\n      pop\n        /* \"#utility.yul\":923:1236   */\n      swap3\n      swap2\n      pop\n      pop\n      jump\t// out\n        /* \"#utility.yul\":1242:1317   */\n    tag_106:\n        /* \"#utility.yul\":1275:1281   */\n      0x00\n        /* \"#utility.yul\":1308:1310   */\n      0x40\n        /* \"#utility.yul\":1302:1311   */\n      mload\n        /* \"#utility.yul\":1292:1311   */\n      swap1\n      pop\n        /* \"#utility.yul\":1242:1317   */\n      swap1\n      jump\t// out\n        /* \"#utility.yul\":1323:1440   */\n    tag_107:\n        /* \"#utility.yul\":1432:1433   */\n      0x00\n        /* \"#utility.yul\":1429:1430   */\n      dup1\n        /* \"#utility.yul\":1422:1434   */\n      revert\n        /* \"#utility.yul\":1446:1563   */\n    tag_108:\n        /* \"#utility.yul\":1555:1556   */\n      0x00\n        /* \"#utility.yul\":1552:1553   */\n      dup1\n        /* \"#utility.yul\":1545:1557   */\n      revert\n        /* \"#utility.yul\":1569:1686   */\n    tag_109:\n        /* \"#utility.yul\":1678:1679   */\n      0x00\n        /* \"#utility.yul\":1675:1676   */\n      dup1\n        /* \"#utility.yul\":1668:1680   */\n      revert\n        /* \"#utility.yul\":1692:1809   */\n    tag_110:\n        /* \"#utility.yul\":1801:1802   */\n      0x00\n        /* \"#utility.yul\":1798:1799   */\n      dup1\n        /* \"#utility.yul\":1791:1803   */\n      revert\n        /* \"#utility.yul\":1815:1995   */\n    tag_46:\n        /* \"#utility.yul\":1863:1940   */\n      0x4e487b7100000000000000000000000000000000000000000000000000000000\n        /* \"#utility.yul\":1860:1861   */\n      0x00\n        /* \"#utility.yul\":1853:1941   */\n      mstore\n        /* \"#utility.yul\":1960:1964   */\n      0x41\n        /* \"#utility.yul\":1957:1958   */\n      0x04\n        /* \"#utility.yul\":1950:1965   */\n      mstore\n        /* \"#utility.yul\":1984:1988   */\n      0x24\n        /* \"#utility.yul\":1981:1982   */\n      0x00\n        /* \"#utility.yul\":1974:1989   */\n      revert\n        /* \"#utility.yul\":2001:2282   */\n    tag_111:\n        /* \"#utility.yul\":2084:2111   */\n      tag_147\n        /* \"#utility.yul\":2106:2110   */\n      dup3\n        /* \"#utility.yul\":2084:2111   */\n      tag_104\n      jump\t// in\n    tag_147:\n        /* \"#utility.yul\":2076:2082   */\n      dup2\n        /* \"#utility.yul\":2072:2112   */\n      add\n        /* \"#utility.yul\":2214:2220   */\n      dup2\n        /* \"#utility.yul\":2202:2212   */\n      dup2\n        /* \"#utility.yul\":2199:2221   */\n      lt\n        /* \"#utility.yul\":2178:2196   */\n      0xffffffffffffffff\n        /* \"#utility.yul\":2166:2176   */\n      dup3\n        /* \"#utility.yul\":2163:2197   */\n      gt\n        /* \"#utility.yul\":2160:2222   */\n      or\n        /* \"#utility.yul\":2157:2245   */\n      iszero\n      tag_148\n      jumpi\n        /* \"#utility.yul\":2225:2243   */\n      tag_149\n      tag_46\n      jump\t// in\n    tag_149:\n        /* \"#utility.yul\":2157:2245   */\n    tag_148:\n        /* \"#utility.yul\":2265:2275   */\n      dup1\n        /* \"#utility.yul\":2261:2263   */\n      0x40\n        /* \"#utility.yul\":2254:2276   */\n      mstore\n        /* \"#utility.yul\":2044:2282   */\n      pop\n        /* \"#utility.yul\":2001:2282   */\n      pop\n      pop\n      jump\t// out\n        /* \"#utility.yul\":2288:2417   */\n    tag_112:\n        /* \"#utility.yul\":2322:2328   */\n      0x00\n        /* \"#utility.yul\":2349:2369   */\n      tag_151\n      tag_106\n      jump\t// in\n    tag_151:\n        /* \"#utility.yul\":2339:2369   */\n      swap1\n      pop\n        /* \"#utility.yul\":2378:2411   */\n      tag_152\n        /* \"#utility.yul\":2406:2410   */\n      dup3\n        /* \"#utility.yul\":2398:2404   */\n      dup3\n        /* \"#utility.yul\":2378:2411   */\n      tag_111\n      jump\t// in\n    tag_152:\n        /* \"#utility.yul\":2288:2417   */\n      swap2\n      swap1\n      pop\n      jump\t// out\n        /* \"#utility.yul\":2423:2731   */\n    tag_113:\n        /* \"#utility.yul\":2485:2489   */\n      0x00\n        /* \"#utility.yul\":2575:2593   */\n      0xffffffffffffffff\n        /* \"#utility.yul\":2567:2573   */\n      dup3\n        /* \"#utility.yul\":2564:2594   */\n      gt\n        /* \"#utility.yul\":2561:2617   */\n      iszero\n      tag_154\n      jumpi\n        /* \"#utility.yul\":2597:2615   */\n      tag_155\n      tag_46\n      jump\t// in\n    tag_155:\n        /* \"#utility.yul\":2561:2617   */\n    tag_154:\n        /* \"#utility.yul\":2635:2664   */\n      tag_156\n        /* \"#utility.yul\":2657:2663   */\n      dup3\n        /* \"#utility.yul\":2635:2664   */\n      tag_104\n      jump\t// in\n    tag_156:\n        /* \"#utility.yul\":2627:2664   */\n      swap1\n      pop\n        /* \"#utility.yul\":2719:2723   */\n      0x20\n        /* \"#utility.yul\":2713:2717   */\n      dup2\n        /* \"#utility.yul\":2709:2724   */\n      add\n        /* \"#utility.yul\":2701:2724   */\n      swap1\n      pop\n        /* \"#utility.yul\":2423:2731   */\n      swap2\n      swap1\n      pop\n      jump\t// out\n        /* \"#utility.yul\":2737:2885   */\n    tag_114:\n        /* \"#utility.yul\":2835:2841   */\n      dup3\n        /* \"#utility.yul\":2830:2833   */\n      dup2\n        /* \"#utility.yul\":2825:2828   */\n      dup4\n        /* \"#utility.yul\":2812:2842   */\n      calldatacopy\n        /* \"#utility.yul\":2876:2877   */\n      0x00\n        /* \"#utility.yul\":2867:2873   */\n      dup4\n        /* \"#utility.yul\":2862:2865   */\n      dup4\n        /* \"#utility.yul\":2858:2874   */\n      add\n        /* \"#utility.yul\":2851:2878   */\n      mstore\n        /* \"#utility.yul\":2737:2885   */\n      pop\n      pop\n      pop\n      jump\t// out\n        /* \"#utility.yul\":2891:3316   */\n    tag_115:\n        /* \"#utility.yul\":2969:2974   */\n      0x00\n        /* \"#utility.yul\":2994:3060   */\n      tag_159\n        /* \"#utility.yul\":3010:3059   */\n      tag_160\n        /* \"#utility.yul\":3052:3058   */\n      dup5\n        /* \"#utility.yul\":3010:3059   */\n      tag_113\n      jump\t// in\n    tag_160:\n        /* \"#utility.yul\":2994:3060   */\n      tag_112\n      jump\t// in\n    tag_159:\n        /* \"#utility.yul\":2985:3060   */\n      swap1\n      pop\n        /* \"#utility.yul\":3083:3089   */\n      dup3\n        /* \"#utility.yul\":3076:3081   */\n      dup2\n        /* \"#utility.yul\":3069:3090   */\n      mstore\n        /* \"#utility.yul\":3121:3125   */\n      0x20\n        /* \"#utility.yul\":3114:3119   */\n      dup2\n        /* \"#utility.yul\":3110:3126   */\n      add\n        /* \"#utility.yul\":3159:3162   */\n      dup5\n        /* \"#utility.yul\":3150:3156   */\n      dup5\n        /* \"#utility.yul\":3145:3148   */\n      dup5\n        /* \"#utility.yul\":3141:3157   */\n      add\n        /* \"#utility.yul\":3138:3163   */\n      gt\n        /* \"#utility.yul\":3135:3247   */\n      iszero\n      tag_161\n      jumpi\n        /* \"#utility.yul\":3166:3245   */\n      tag_162\n      tag_110\n      jump\t// in\n    tag_162:\n        /* \"#utility.yul\":3135:3247   */\n    tag_161:\n        /* \"#utility.yul\":3256:3310   */\n      tag_163\n        /* \"#utility.yul\":3303:3309   */\n      dup5\n        /* \"#utility.yul\":3298:3301   */\n      dup3\n        /* \"#utility.yul\":3293:3296   */\n      dup6\n        /* \"#utility.yul\":3256:3310   */\n      tag_114\n      jump\t// in\n    tag_163:\n        /* \"#utility.yul\":2975:3316   */\n      pop\n        /* \"#utility.yul\":2891:3316   */\n      swap4\n      swap3\n      pop\n      pop\n      pop\n      jump\t// out\n        /* \"#utility.yul\":3336:3676   */\n    tag_116:\n        /* \"#utility.yul\":3392:3397   */\n      0x00\n        /* \"#utility.yul\":3441:3444   */\n      dup3\n        /* \"#utility.yul\":3434:3438   */\n      0x1f\n        /* \"#utility.yul\":3426:3432   */\n      dup4\n        /* \"#utility.yul\":3422:3439   */\n      add\n        /* \"#utility.yul\":3418:3445   */\n      slt\n        /* \"#utility.yul\":3408:3530   */\n      tag_165\n      jumpi\n        /* \"#utility.yul\":3449:3528   */\n      tag_166\n      tag_109\n      jump\t// in\n    tag_166:\n        /* \"#utility.yul\":3408:3530   */\n    tag_165:\n        /* \"#utility.yul\":3566:3572   */\n      dup2\n        /* \"#utility.yul\":3553:3573   */\n      calldataload\n        /* \"#utility.yul\":3591:3670   */\n      tag_167\n        /* \"#utility.yul\":3666:3669   */\n      dup5\n        /* \"#utility.yul\":3658:3664   */\n      dup3\n        /* \"#utility.yul\":3651:3655   */\n      0x20\n        /* \"#utility.yul\":3643:3649   */\n      dup7\n        /* \"#utility.yul\":3639:3656   */\n      add\n        /* \"#utility.yul\":3591:3670   */\n      tag_115\n      jump\t// in\n    tag_167:\n        /* \"#utility.yul\":3582:3670   */\n      swap2\n      pop\n        /* \"#utility.yul\":3398:3676   */\n      pop\n        /* \"#utility.yul\":3336:3676   */\n      swap3\n      swap2\n      pop\n      pop\n      jump\t// out\n        /* \"#utility.yul\":3682:3808   */\n    tag_117:\n        /* \"#utility.yul\":3719:3726   */\n      0x00\n        /* \"#utility.yul\":3759:3801   */\n      0xffffffffffffffffffffffffffffffffffffffff\n        /* \"#utility.yul\":3752:3757   */\n      dup3\n        /* \"#utility.yul\":3748:3802   */\n      and\n        /* \"#utility.yul\":3737:3802   */\n      swap1\n      pop\n        /* \"#utility.yul\":3682:3808   */\n      swap2\n      swap1\n      pop\n      jump\t// out\n        /* \"#utility.yul\":3814:3910   */\n    tag_118:\n        /* \"#utility.yul\":3851:3858   */\n      0x00\n        /* \"#utility.yul\":3880:3904   */\n      tag_170\n        /* \"#utility.yul\":3898:3903   */\n      dup3\n        /* \"#utility.yul\":3880:3904   */\n      tag_117\n      jump\t// in\n    tag_170:\n        /* \"#utility.yul\":3869:3904   */\n      swap1\n      pop\n        /* \"#utility.yul\":3814:3910   */\n      swap2\n      swap1\n      pop\n      jump\t// out\n        /* \"#utility.yul\":3916:4038   */\n    tag_119:\n        /* \"#utility.yul\":3989:4013   */\n      tag_172\n        /* \"#utility.yul\":4007:4012   */\n      dup2\n        /* \"#utility.yul\":3989:4013   */\n      tag_118\n      jump\t// in\n    tag_172:\n        /* \"#utility.yul\":3982:3987   */\n      dup2\n        /* \"#utility.yul\":3979:4014   */\n      eq\n        /* \"#utility.yul\":3969:4032   */\n      tag_173\n      jumpi\n        /* \"#utility.yul\":4028:4029   */\n      0x00\n        /* \"#utility.yul\":4025:4026   */\n      dup1\n        /* \"#utility.yul\":4018:4030   */\n      revert\n        /* \"#utility.yul\":3969:4032   */\n    tag_173:\n        /* \"#utility.yul\":3916:4038   */\n      pop\n      jump\t// out\n        /* \"#utility.yul\":4044:4183   */\n    tag_120:\n        /* \"#utility.yul\":4090:4095   */\n      0x00\n        /* \"#utility.yul\":4128:4134   */\n      dup2\n        /* \"#utility.yul\":4115:4135   */\n      calldataload\n        /* \"#utility.yul\":4106:4135   */\n      swap1\n      pop\n        /* \"#utility.yul\":4144:4177   */\n      tag_175\n        /* \"#utility.yul\":4171:4176   */\n      dup2\n        /* \"#utility.yul\":4144:4177   */\n      tag_119\n      jump\t// in\n    tag_175:\n        /* \"#utility.yul\":4044:4183   */\n      swap3\n      swap2\n      pop\n      pop\n      jump\t// out\n        /* \"#utility.yul\":4189:4266   */\n    tag_121:\n        /* \"#utility.yul\":4226:4233   */\n      0x00\n        /* \"#utility.yul\":4255:4260   */\n      dup2\n        /* \"#utility.yul\":4244:4260   */\n      swap1\n      pop\n        /* \"#utility.yul\":4189:4266   */\n      swap2\n      swap1\n      pop\n      jump\t// out\n        /* \"#utility.yul\":4272:4394   */\n    tag_122:\n        /* \"#utility.yul\":4345:4369   */\n      tag_178\n        /* \"#utility.yul\":4363:4368   */\n      dup2\n        /* \"#utility.yul\":4345:4369   */\n      tag_121\n      jump\t// in\n    tag_178:\n        /* \"#utility.yul\":4338:4343   */\n      dup2\n        /* \"#utility.yul\":4335:4370   */\n      eq\n        /* \"#utility.yul\":4325:4388   */\n      tag_179\n      jumpi\n        /* \"#utility.yul\":4384:4385   */\n      0x00\n        /* \"#utility.yul\":4381:4382   */\n      dup1\n        /* \"#utility.yul\":4374:4386   */\n      revert\n        /* \"#utility.yul\":4325:4388   */\n    tag_179:\n        /* \"#utility.yul\":4272:4394   */\n      pop\n      jump\t// out\n        /* \"#utility.yul\":4400:4539   */\n    tag_123:\n        /* \"#utility.yul\":4446:4451   */\n      0x00\n        /* \"#utility.yul\":4484:4490   */\n      dup2\n        /* \"#utility.yul\":4471:4491   */\n      calldataload\n        /* \"#utility.yul\":4462:4491   */\n      swap1\n      pop\n        /* \"#utility.yul\":4500:4533   */\n      tag_181\n        /* \"#utility.yul\":4527:4532   */\n      dup2\n        /* \"#utility.yul\":4500:4533   */\n      tag_122\n      jump\t// in\n    tag_181:\n        /* \"#utility.yul\":4400:4539   */\n      swap3\n      swap2\n      pop\n      pop\n      jump\t// out\n        /* \"#utility.yul\":4545:5636   */\n    tag_17:\n        /* \"#utility.yul\":4650:4656   */\n      0x00\n        /* \"#utility.yul\":4658:4664   */\n      dup1\n        /* \"#utility.yul\":4666:4672   */\n      0x00\n        /* \"#utility.yul\":4674:4680   */\n      dup1\n        /* \"#utility.yul\":4682:4688   */\n      0x00\n        /* \"#utility.yul\":4731:4734   */\n      0xa0\n        /* \"#utility.yul\":4719:4728   */\n      dup7\n        /* \"#utility.yul\":4710:4717   */\n      dup9\n        /* \"#utility.yul\":4706:4729   */\n      sub\n        /* \"#utility.yul\":4702:4735   */\n      slt\n        /* \"#utility.yul\":4699:4819   */\n      iszero\n      tag_183\n      jumpi\n        /* \"#utility.yul\":4738:4817   */\n      tag_184\n      tag_107\n      jump\t// in\n    tag_184:\n        /* \"#utility.yul\":4699:4819   */\n    tag_183:\n        /* \"#utility.yul\":4886:4887   */\n      0x00\n        /* \"#utility.yul\":4875:4884   */\n      dup7\n        /* \"#utility.yul\":4871:4888   */\n      add\n        /* \"#utility.yul\":4858:4889   */\n      calldataload\n        /* \"#utility.yul\":4916:4934   */\n      0xffffffffffffffff\n        /* \"#utility.yul\":4908:4914   */\n      dup2\n        /* \"#utility.yul\":4905:4935   */\n      gt\n        /* \"#utility.yul\":4902:5019   */\n      iszero\n      tag_185\n      jumpi\n        /* \"#utility.yul\":4938:5017   */\n      tag_186\n      tag_108\n      jump\t// in\n    tag_186:\n        /* \"#utility.yul\":4902:5019   */\n    tag_185:\n        /* \"#utility.yul\":5043:5106   */\n      tag_187\n        /* \"#utility.yul\":5098:5105   */\n      dup9\n        /* \"#utility.yul\":5089:5095   */\n      dup3\n        /* \"#utility.yul\":5078:5087   */\n      dup10\n        /* \"#utility.yul\":5074:5096   */\n      add\n        /* \"#utility.yul\":5043:5106   */\n      tag_116\n      jump\t// in\n    tag_187:\n        /* \"#utility.yul\":5033:5106   */\n      swap6\n      pop\n        /* \"#utility.yul\":4829:5116   */\n      pop\n        /* \"#utility.yul\":5155:5157   */\n      0x20\n        /* \"#utility.yul\":5181:5234   */\n      tag_188\n        /* \"#utility.yul\":5226:5233   */\n      dup9\n        /* \"#utility.yul\":5217:5223   */\n      dup3\n        /* \"#utility.yul\":5206:5215   */\n      dup10\n        /* \"#utility.yul\":5202:5224   */\n      add\n        /* \"#utility.yul\":5181:5234   */\n      tag_120\n      jump\t// in\n    tag_188:\n        /* \"#utility.yul\":5171:5234   */\n      swap5\n      pop\n        /* \"#utility.yul\":5126:5244   */\n      pop\n        /* \"#utility.yul\":5283:5285   */\n      0x40\n        /* \"#utility.yul\":5309:5362   */\n      tag_189\n        /* \"#utility.yul\":5354:5361   */\n      dup9\n        /* \"#utility.yul\":5345:5351   */\n      dup3\n        /* \"#utility.yul\":5334:5343   */\n      dup10\n        /* \"#utility.yul\":5330:5352   */\n      add\n        /* \"#utility.yul\":5309:5362   */\n      tag_120\n      jump\t// in\n    tag_189:\n        /* \"#utility.yul\":5299:5362   */\n      swap4\n      pop\n        /* \"#utility.yul\":5254:5372   */\n      pop\n        /* \"#utility.yul\":5411:5413   */\n      0x60\n        /* \"#utility.yul\":5437:5490   */\n      tag_190\n        /* \"#utility.yul\":5482:5489   */\n      dup9\n        /* \"#utility.yul\":5473:5479   */\n      dup3\n        /* \"#utility.yul\":5462:5471   */\n      dup10\n        /* \"#utility.yul\":5458:5480   */\n      add\n        /* \"#utility.yul\":5437:5490   */\n      tag_123\n      jump\t// in\n    tag_190:\n        /* \"#utility.yul\":5427:5490   */\n      swap3\n      pop\n        /* \"#utility.yul\":5382:5500   */\n      pop\n        /* \"#utility.yul\":5539:5542   */\n      0x80\n        /* \"#utility.yul\":5566:5619   */\n      tag_191\n        /* \"#utility.yul\":5611:5618   */\n      dup9\n        /* \"#utility.yul\":5602:5608   */\n      dup3\n        /* \"#utility.yul\":5591:5600   */\n      dup10\n        /* \"#utility.yul\":5587:5609   */\n      add\n        /* \"#utility.yul\":5566:5619   */\n      tag_123\n      jump\t// in\n    tag_191:\n        /* \"#utility.yul\":5556:5619   */\n      swap2\n      pop\n        /* \"#utility.yul\":5510:5629   */\n      pop\n        /* \"#utility.yul\":4545:5636   */\n      swap3\n      swap6\n      pop\n      swap3\n      swap6\n      swap1\n      swap4\n      pop\n      jump\t// out\n        /* \"#utility.yul\":5642:5760   */\n    tag_124:\n        /* \"#utility.yul\":5729:5753   */\n      tag_193\n        /* \"#utility.yul\":5747:5752   */\n      dup2\n        /* \"#utility.yul\":5729:5753   */\n      tag_121\n      jump\t// in\n    tag_193:\n        /* \"#utility.yul\":5724:5727   */\n      dup3\n        /* \"#utility.yul\":5717:5754   */\n      mstore\n        /* \"#utility.yul\":5642:5760   */\n      pop\n      pop\n      jump\t// out\n        /* \"#utility.yul\":5766:5988   */\n    tag_26:\n        /* \"#utility.yul\":5859:5863   */\n      0x00\n        /* \"#utility.yul\":5897:5899   */\n      0x20\n        /* \"#utility.yul\":5886:5895   */\n      dup3\n        /* \"#utility.yul\":5882:5900   */\n      add\n        /* \"#utility.yul\":5874:5900   */\n      swap1\n      pop\n        /* \"#utility.yul\":5910:5981   */\n      tag_195\n        /* \"#utility.yul\":5978:5979   */\n      0x00\n        /* \"#utility.yul\":5967:5976   */\n      dup4\n        /* \"#utility.yul\":5963:5980   */\n      add\n        /* \"#utility.yul\":5954:5960   */\n      dup5\n        /* \"#utility.yul\":5910:5981   */\n      tag_124\n      jump\t// in\n    tag_195:\n        /* \"#utility.yul\":5766:5988   */\n      swap3\n      swap2\n      pop\n      pop\n      jump\t// out\n        /* \"#utility.yul\":5994:6142   */\n    tag_125:\n        /* \"#utility.yul\":6096:6107   */\n      0x00\n        /* \"#utility.yul\":6133:6136   */\n      dup2\n        /* \"#utility.yul\":6118:6136   */\n      swap1\n      pop\n        /* \"#utility.yul\":5994:6142   */\n      swap3\n      swap2\n      pop\n      pop\n      jump\t// out\n        /* \"#utility.yul\":6148:6538   */\n    tag_126:\n        /* \"#utility.yul\":6254:6257   */\n      0x00\n        /* \"#utility.yul\":6282:6321   */\n      tag_198\n        /* \"#utility.yul\":6315:6320   */\n      dup3\n        /* \"#utility.yul\":6282:6321   */\n      tag_101\n      jump\t// in\n    tag_198:\n        /* \"#utility.yul\":6337:6426   */\n      tag_199\n        /* \"#utility.yul\":6419:6425   */\n      dup2\n        /* \"#utility.yul\":6414:6417   */\n      dup6\n        /* \"#utility.yul\":6337:6426   */\n      tag_125\n      jump\t// in\n    tag_199:\n        /* \"#utility.yul\":6330:6426   */\n      swap4\n      pop\n        /* \"#utility.yul\":6435:6500   */\n      tag_200\n        /* \"#utility.yul\":6493:6499   */\n      dup2\n        /* \"#utility.yul\":6488:6491   */\n      dup6\n        /* \"#utility.yul\":6481:6485   */\n      0x20\n        /* \"#utility.yul\":6474:6479   */\n      dup7\n        /* \"#utility.yul\":6470:6486   */\n      add\n        /* \"#utility.yul\":6435:6500   */\n      tag_103\n      jump\t// in\n    tag_200:\n        /* \"#utility.yul\":6525:6531   */\n      dup1\n        /* \"#utility.yul\":6520:6523   */\n      dup5\n        /* \"#utility.yul\":6516:6532   */\n      add\n        /* \"#utility.yul\":6509:6532   */\n      swap2\n      pop\n        /* \"#utility.yul\":6258:6538   */\n      pop\n        /* \"#utility.yul\":6148:6538   */\n      swap3\n      swap2\n      pop\n      pop\n      jump\t// out\n        /* \"#utility.yul\":6544:7939   */\n    tag_36:\n        /* \"#utility.yul\":7012:7015   */\n      0x00\n        /* \"#utility.yul\":7034:7129   */\n      tag_202\n        /* \"#utility.yul\":7125:7128   */\n      dup3\n        /* \"#utility.yul\":7116:7122   */\n      dup12\n        /* \"#utility.yul\":7034:7129   */\n      tag_126\n      jump\t// in\n    tag_202:\n        /* \"#utility.yul\":7027:7129   */\n      swap2\n      pop\n        /* \"#utility.yul\":7146:7241   */\n      tag_203\n        /* \"#utility.yul\":7237:7240   */\n      dup3\n        /* \"#utility.yul\":7228:7234   */\n      dup11\n        /* \"#utility.yul\":7146:7241   */\n      tag_126\n      jump\t// in\n    tag_203:\n        /* \"#utility.yul\":7139:7241   */\n      swap2\n      pop\n        /* \"#utility.yul\":7258:7353   */\n      tag_204\n        /* \"#utility.yul\":7349:7352   */\n      dup3\n        /* \"#utility.yul\":7340:7346   */\n      dup10\n        /* \"#utility.yul\":7258:7353   */\n      tag_126\n      jump\t// in\n    tag_204:\n        /* \"#utility.yul\":7251:7353   */\n      swap2\n      pop\n        /* \"#utility.yul\":7370:7465   */\n      tag_205\n        /* \"#utility.yul\":7461:7464   */\n      dup3\n        /* \"#utility.yul\":7452:7458   */\n      dup9\n        /* \"#utility.yul\":7370:7465   */\n      tag_126\n      jump\t// in\n    tag_205:\n        /* \"#utility.yul\":7363:7465   */\n      swap2\n      pop\n        /* \"#utility.yul\":7482:7577   */\n      tag_206\n        /* \"#utility.yul\":7573:7576   */\n      dup3\n        /* \"#utility.yul\":7564:7570   */\n      dup8\n        /* \"#utility.yul\":7482:7577   */\n      tag_126\n      jump\t// in\n    tag_206:\n        /* \"#utility.yul\":7475:7577   */\n      swap2\n      pop\n        /* \"#utility.yul\":7594:7689   */\n      tag_207\n        /* \"#utility.yul\":7685:7688   */\n      dup3\n        /* \"#utility.yul\":7676:7682   */\n      dup7\n        /* \"#utility.yul\":7594:7689   */\n      tag_126\n      jump\t// in\n    tag_207:\n        /* \"#utility.yul\":7587:7689   */\n      swap2\n      pop\n        /* \"#utility.yul\":7706:7801   */\n      tag_208\n        /* \"#utility.yul\":7797:7800   */\n      dup3\n        /* \"#utility.yul\":7788:7794   */\n      dup6\n        /* \"#utility.yul\":7706:7801   */\n      tag_126\n      jump\t// in\n    tag_208:\n        /* \"#utility.yul\":7699:7801   */\n      swap2\n      pop\n        /* \"#utility.yul\":7818:7913   */\n      tag_209\n        /* \"#utility.yul\":7909:7912   */\n      dup3\n        /* \"#utility.yul\":7900:7906   */\n      dup5\n        /* \"#utility.yul\":7818:7913   */\n      tag_126\n      jump\t// in\n    tag_209:\n        /* \"#utility.yul\":7811:7913   */\n      swap2\n      pop\n        /* \"#utility.yul\":7930:7933   */\n      dup2\n        /* \"#utility.yul\":7923:7933   */\n      swap1\n      pop\n        /* \"#utility.yul\":6544:7939   */\n      swap10\n      swap9\n      pop\n      pop\n      pop\n      pop\n      pop\n      pop\n      pop\n      pop\n      pop\n      jump\t// out\n        /* \"#utility.yul\":7945:8125   */\n    tag_52:\n        /* \"#utility.yul\":7993:8070   */\n      0x4e487b7100000000000000000000000000000000000000000000000000000000\n        /* \"#utility.yul\":7990:7991   */\n      0x00\n        /* \"#utility.yul\":7983:8071   */\n      mstore\n        /* \"#utility.yul\":8090:8094   */\n      0x12\n        /* \"#utility.yul\":8087:8088   */\n      0x04\n        /* \"#utility.yul\":8080:8095   */\n      mstore\n        /* \"#utility.yul\":8114:8118   */\n      0x24\n        /* \"#utility.yul\":8111:8112   */\n      0x00\n        /* \"#utility.yul\":8104:8119   */\n      revert\n        /* \"#utility.yul\":8131:8311   */\n    tag_127:\n        /* \"#utility.yul\":8179:8256   */\n      0x4e487b7100000000000000000000000000000000000000000000000000000000\n        /* \"#utility.yul\":8176:8177   */\n      0x00\n        /* \"#utility.yul\":8169:8257   */\n      mstore\n        /* \"#utility.yul\":8276:8280   */\n      0x11\n        /* \"#utility.yul\":8273:8274   */\n      0x04\n        /* \"#utility.yul\":8266:8281   */\n      mstore\n        /* \"#utility.yul\":8300:8304   */\n      0x24\n        /* \"#utility.yul\":8297:8298   */\n      0x00\n        /* \"#utility.yul\":8290:8305   */\n      revert\n        /* \"#utility.yul\":8317:8727   */\n    tag_56:\n        /* \"#utility.yul\":8357:8364   */\n      0x00\n        /* \"#utility.yul\":8380:8400   */\n      tag_213\n        /* \"#utility.yul\":8398:8399   */\n      dup3\n        /* \"#utility.yul\":8380:8400   */\n      tag_121\n      jump\t// in\n    tag_213:\n        /* \"#utility.yul\":8375:8400   */\n      swap2\n      pop\n        /* \"#utility.yul\":8414:8434   */\n      tag_214\n        /* \"#utility.yul\":8432:8433   */\n      dup4\n        /* \"#utility.yul\":8414:8434   */\n      tag_121\n      jump\t// in\n    tag_214:\n        /* \"#utility.yul\":8409:8434   */\n      swap3\n      pop\n        /* \"#utility.yul\":8469:8470   */\n      dup3\n        /* \"#utility.yul\":8466:8467   */\n      dup3\n        /* \"#utility.yul\":8462:8471   */\n      mul\n        /* \"#utility.yul\":8491:8521   */\n      tag_215\n        /* \"#utility.yul\":8509:8520   */\n      dup2\n        /* \"#utility.yul\":8491:8521   */\n      tag_121\n      jump\t// in\n    tag_215:\n        /* \"#utility.yul\":8480:8521   */\n      swap2\n      pop\n        /* \"#utility.yul\":8670:8671   */\n      dup3\n        /* \"#utility.yul\":8661:8668   */\n      dup3\n        /* \"#utility.yul\":8657:8672   */\n      div\n        /* \"#utility.yul\":8654:8655   */\n      dup5\n        /* \"#utility.yul\":8651:8673   */\n      eq\n        /* \"#utility.yul\":8631:8632   */\n      dup4\n        /* \"#utility.yul\":8624:8633   */\n      iszero\n        /* \"#utility.yul\":8604:8687   */\n      or\n        /* \"#utility.yul\":8581:8720   */\n      tag_216\n      jumpi\n        /* \"#utility.yul\":8700:8718   */\n      tag_217\n      tag_127\n      jump\t// in\n    tag_217:\n        /* \"#utility.yul\":8581:8720   */\n    tag_216:\n        /* \"#utility.yul\":8365:8727   */\n      pop\n        /* \"#utility.yul\":8317:8727   */\n      swap3\n      swap2\n      pop\n      pop\n      jump\t// out\n        /* \"#utility.yul\":8733:8924   */\n    tag_58:\n        /* \"#utility.yul\":8773:8776   */\n      0x00\n        /* \"#utility.yul\":8792:8812   */\n      tag_219\n        /* \"#utility.yul\":8810:8811   */\n      dup3\n        /* \"#utility.yul\":8792:8812   */\n      tag_121\n      jump\t// in\n    tag_219:\n        /* \"#utility.yul\":8787:8812   */\n      swap2\n      pop\n        /* \"#utility.yul\":8826:8846   */\n      tag_220\n        /* \"#utility.yul\":8844:8845   */\n      dup4\n        /* \"#utility.yul\":8826:8846   */\n      tag_121\n      jump\t// in\n    tag_220:\n        /* \"#utility.yul\":8821:8846   */\n      swap3\n      pop\n        /* \"#utility.yul\":8869:8870   */\n      dup3\n        /* \"#utility.yul\":8866:8867   */\n      dup3\n        /* \"#utility.yul\":8862:8871   */\n      add\n        /* \"#utility.yul\":8855:8871   */\n      swap1\n      pop\n        /* \"#utility.yul\":8890:8893   */\n      dup1\n        /* \"#utility.yul\":8887:8888   */\n      dup3\n        /* \"#utility.yul\":8884:8894   */\n      gt\n        /* \"#utility.yul\":8881:8917   */\n      iszero\n      tag_221\n      jumpi\n        /* \"#utility.yul\":8897:8915   */\n      tag_222\n      tag_127\n      jump\t// in\n    tag_222:\n        /* \"#utility.yul\":8881:8917   */\n    tag_221:\n        /* \"#utility.yul\":8733:8924   */\n      swap3\n      swap2\n      pop\n      pop\n      jump\t// out\n        /* \"#utility.yul\":8930:9110   */\n    tag_64:\n        /* \"#utility.yul\":8978:9055   */\n      0x4e487b7100000000000000000000000000000000000000000000000000000000\n        /* \"#utility.yul\":8975:8976   */\n      0x00\n        /* \"#utility.yul\":8968:9056   */\n      mstore\n        /* \"#utility.yul\":9075:9079   */\n      0x32\n        /* \"#utility.yul\":9072:9073   */\n      0x04\n        /* \"#utility.yul\":9065:9080   */\n      mstore\n        /* \"#utility.yul\":9099:9103   */\n      0x24\n        /* \"#utility.yul\":9096:9097   */\n      0x00\n        /* \"#utility.yul\":9089:9104   */\n      revert\n        /* \"#utility.yul\":9116:9287   */\n    tag_77:\n        /* \"#utility.yul\":9155:9158   */\n      0x00\n        /* \"#utility.yul\":9178:9202   */\n      tag_225\n        /* \"#utility.yul\":9196:9201   */\n      dup3\n        /* \"#utility.yul\":9178:9202   */\n      tag_121\n      jump\t// in\n    tag_225:\n        /* \"#utility.yul\":9169:9202   */\n      swap2\n      pop\n        /* \"#utility.yul\":9224:9228   */\n      0x00\n        /* \"#utility.yul\":9217:9222   */\n      dup3\n        /* \"#utility.yul\":9214:9229   */\n      sub\n        /* \"#utility.yul\":9211:9252   */\n      tag_226\n      jumpi\n        /* \"#utility.yul\":9232:9250   */\n      tag_227\n      tag_127\n      jump\t// in\n    tag_227:\n        /* \"#utility.yul\":9211:9252   */\n    tag_226:\n        /* \"#utility.yul\":9279:9280   */\n      0x01\n        /* \"#utility.yul\":9272:9277   */\n      dup3\n        /* \"#utility.yul\":9268:9281   */\n      sub\n        /* \"#utility.yul\":9261:9281   */\n      swap1\n      pop\n        /* \"#utility.yul\":9116:9287   */\n      swap2\n      swap1\n      pop\n      jump\t// out\n        /* \"#utility.yul\":9293:9625   */\n    tag_80:\n        /* \"#utility.yul\":9414:9418   */\n      0x00\n        /* \"#utility.yul\":9452:9454   */\n      0x40\n        /* \"#utility.yul\":9441:9450   */\n      dup3\n        /* \"#utility.yul\":9437:9455   */\n      add\n        /* \"#utility.yul\":9429:9455   */\n      swap1\n      pop\n        /* \"#utility.yul\":9465:9536   */\n      tag_229\n        /* \"#utility.yul\":9533:9534   */\n      0x00\n        /* \"#utility.yul\":9522:9531   */\n      dup4\n        /* \"#utility.yul\":9518:9535   */\n      add\n        /* \"#utility.yul\":9509:9515   */\n      dup6\n        /* \"#utility.yul\":9465:9536   */\n      tag_124\n      jump\t// in\n    tag_229:\n        /* \"#utility.yul\":9546:9618   */\n      tag_230\n        /* \"#utility.yul\":9614:9616   */\n      0x20\n        /* \"#utility.yul\":9603:9612   */\n      dup4\n        /* \"#utility.yul\":9599:9617   */\n      add\n        /* \"#utility.yul\":9590:9596   */\n      dup5\n        /* \"#utility.yul\":9546:9618   */\n      tag_124\n      jump\t// in\n    tag_230:\n        /* \"#utility.yul\":9293:9625   */\n      swap4\n      swap3\n      pop\n      pop\n      pop\n      jump\t// out\n    stop\n    data_3dce4ae4b48287a227ab5dee905878fe7ac111065e7c71b6655d9677046d109c 437265617469766520436f6d6d6f6e73204174747269627574696f6e20342e3020496e7465726e6174696f6e616c204c6963656e73652028434320425920342e3029\n    data_43fbc79cc25b50bb7bbbd48d5cd062fdad28996d3a1185b390b1e2932c0e8bc9 4c6963656e73696e672041677265656d656e740a0a54686973204c6963656e73652041677265656d656e7420282241677265656d656e74222920697320656e746572656420696e746f20627920616e64206265747765656e3a0a2d204c6963656e736f723a2054686520696e646976696475616c206f7220656e74697479207468617420686f6c64732074686520636f7079726967687420666f722074686520766964656f206964656e7469666965642062656c6f772028224c6963656e736f7222292e0a2d204c6963656e7365653a2054686520696e646976696475616c206f7220656e7469747920746861742077696c6c2075736520746865206c6963656e736564206d6174657269616c20756e64657220746865207465726d73206f6620746869732041677265656d656e742028224c6963656e73656522292e0a0a312e204c6963656e736564204d6174657269616c0a2d20566964656f2049443a20\n    data_b609fc3a615f5af5619ed2b11cec9ad925486bc40b21f623ce12d62e8f6c6e5e 0a546869732041677265656d656e74206170706c69657320746f2074686520766964656f206964656e7469666965642062792074686520566964656f204944206c69737465642061626f76652c20617320686f73746564206f6e20596f7554756265206f7220616e79206f7468657220706c6174666f726d2e0a0a322e204c6963656e7365204772616e740a546865204c6963656e736f7220686572656279206772616e747320746865204c6963656e7365652061206e6f6e2d6578636c75736976652c20776f726c64776964652c20726f79616c74792d66726565206c6963656e736520746f3a0a2d2053686172652028636f707920616e642072656469737472696275746520746865206d6174657269616c20696e20616e79206d656469756d206f7220666f726d6174290a2d204164617074202872656d69782c207472616e73666f726d2c20616e64206275696c642075706f6e20746865206d6174657269616c20666f7220616e7920707572706f73652c206576656e20636f6d6d65726369616c6c79290a556e64657220746865207465726d73206f6620746869732041677265656d656e742c2070726f766964656420746861743a0a2d20546865204c6963656e736565206d757374206769766520617070726f7072696174652063726564697420746f20746865204c6963656e736f722c2070726f766964652061206c696e6b20746f20746865206c6963656e73652c20616e6420696e646963617465206966206368616e6765732077657265206d6164652e20546865204c6963656e736565206d617920646f20736f20696e20616e7920726561736f6e61626c65206d616e6e65722c20627574206e6f7420696e20616e7920776179207468617420737567676573747320746865204c6963656e736f7220656e646f7273657320746865204c6963656e736565206f722074686520757365206f6620746865206d6174657269616c2e0a0a332e204c6963656e7365204475726174696f6e0a2d204c6963656e7365204475726174696f6e3a2056616c696420666f722061206c69666574696d650a546869732041677265656d656e742069732065666665637469766520666f7220746865206475726174696f6e207370656369666965642061626f76652c207374617274696e672066726f6d20746865205369676e696e6720446174652e0a0a342e204174747269627574696f6e20526571756972656d656e74730a546865204c6963656e736565206d757374206769766520617070726f7072696174652063726564697420746f20746865204c6963656e736f722c20617320666f6c6c6f77733a0a2d2050726f76696465207468652077616c6c65742061646472657373206f6620746865204c6963656e736f722e0a2d2050726f766964652061206c696e6b20746f2074686520766964656f2e0a2d2050726f766964652061206c696e6b20746f2074686973206c6963656e73652e0a2d20496e646963617465206966206368616e6765732077657265206d61646520746f20746865206f726967696e616c206d6174657269616c2e0a0a352e204e6f204164646974696f6e616c205265737472696374696f6e730a546865204c6963656e736565206d6179206e6f74206170706c79206c6567616c207465726d73206f7220746563686e6f6c6f676963616c206d656173757265732074686174206c6567616c6c79207265737472696374206f74686572732066726f6d20646f696e6720616e797468696e6720746865206c6963656e7365207065726d6974732e0a0a362e205465726d696e6174696f6e0a546869732041677265656d656e742077696c6c206175746f6d61746963616c6c79207465726d696e61746520696620746865204c6963656e736565206661696c7320746f20636f6d706c79207769746820746865207465726d732068657265696e2e20486f77657665722c20746865206c6963656e73652077696c6c206e6f74207465726d696e617465206173206120726573756c74206f66206d696e6f7220616e6420726561736f6e61626c6520646576696174696f6e73207468617420646f206e6f742066756e64616d656e74616c6c792061666665637420746865207465726d73206f66207468652041677265656d656e742e0a0a372e205369676e6174757265730a546869732041677265656d656e742069732065786563757465642062792074686520666f6c6c6f77696e6720706172746965733a0a2d204c6963656e736f723a20\n    data_eb502e1e43115de3f2130b04bdee250eb4865bf2bc1316c6ae74a6e4722e780d 4c6963656e73696e672041677265656d656e740a0a54686973204c6963656e73652041677265656d656e7420282241677265656d656e74222920697320656e746572656420696e746f20627920616e64206265747765656e3a0a2d204c6963656e736f723a2054686520696e646976696475616c206f7220656e74697479207468617420686f6c64732074686520636f7079726967687420666f722074686520766964656f206964656e7469666965642062656c6f772028224c6963656e736f7222292e0a2d204c6963656e7365653a2054686520696e646976696475616c206f7220656e7469747920746861742077696c6c2075736520746865206c6963656e736564206d6174657269616c20756e64657220746865207465726d73206f6620746869732041677265656d656e742028224c6963656e73656522292e0a0a312e204c6963656e736564204d6174657269616c0a2d20566964656f2049443a205b766964656f2069645d0a546869732041677265656d656e74206170706c69657320746f2074686520766964656f206964656e7469666965642062792074686520566964656f204944206c69737465642061626f76652c20617320686f73746564206f6e20596f7554756265206f7220616e79206f7468657220706c6174666f726d2e0a0a322e204c6963656e7365204772616e740a546865204c6963656e736f7220686572656279206772616e747320746865204c6963656e7365652061206e6f6e2d6578636c75736976652c20776f726c64776964652c20726f79616c74792d66726565206c6963656e736520746f3a0a2d2053686172652028636f707920616e642072656469737472696275746520746865206d6174657269616c20696e20616e79206d656469756d206f7220666f726d6174290a2d204164617074202872656d69782c207472616e73666f726d2c20616e64206275696c642075706f6e20746865206d6174657269616c20666f7220616e7920707572706f73652c206576656e20636f6d6d65726369616c6c79290a556e64657220746865207465726d73206f6620746869732041677265656d656e742c2070726f766964656420746861743a0a2d20546865204c6963656e736565206d757374206769766520617070726f7072696174652063726564697420746f20746865204c6963656e736f722c2070726f766964652061206c696e6b20746f20746865206c6963656e73652c20616e6420696e646963617465206966206368616e6765732077657265206d6164652e20546865204c6963656e736565206d617920646f20736f20696e20616e7920726561736f6e61626c65206d616e6e65722c20627574206e6f7420696e20616e7920776179207468617420737567676573747320746865204c6963656e736f7220656e646f7273657320746865204c6963656e736565206f722074686520757365206f6620746865206d6174657269616c2e0a0a332e204c6963656e7365204475726174696f6e0a2d204c6963656e7365204475726174696f6e3a2056616c696420666f722061206c69666574696d650a546869732041677265656d656e742069732065666665637469766520666f7220746865206475726174696f6e207370656369666965642061626f76652c207374617274696e672066726f6d20746865205369676e696e6720446174652e0a0a342e204174747269627574696f6e20526571756972656d656e74730a546865204c6963656e736565206d757374206769766520617070726f7072696174652063726564697420746f20746865204c6963656e736f722c20617320666f6c6c6f77733a0a2d2050726f76696465207468652077616c6c65742061646472657373206f6620746865204c6963656e736f722e0a2d2050726f766964652061206c696e6b20746f2074686520766964656f2e0a2d2050726f766964652061206c696e6b20746f2074686973206c6963656e73652e0a2d20496e646963617465206966206368616e6765732077657265206d61646520746f20746865206f726967696e616c206d6174657269616c2e0a0a352e204e6f204164646974696f6e616c205265737472696374696f6e730a546865204c6963656e736565206d6179206e6f74206170706c79206c6567616c207465726d73206f7220746563686e6f6c6f676963616c206d656173757265732074686174206c6567616c6c79207265737472696374206f74686572732066726f6d20646f696e6720616e797468696e6720746865206c6963656e7365207065726d6974732e0a0a362e205465726d696e6174696f6e0a546869732041677265656d656e742077696c6c206175746f6d61746963616c6c79207465726d696e61746520696620746865204c6963656e736565206661696c7320746f20636f6d706c79207769746820746865207465726d732068657265696e2e20486f77657665722c20746865206c6963656e73652077696c6c206e6f74207465726d696e617465206173206120726573756c74206f66206d696e6f7220616e6420726561736f6e61626c6520646576696174696f6e73207468617420646f206e6f742066756e64616d656e74616c6c792061666665637420746865207465726d73206f66207468652041677265656d656e742e0a0a372e205369676e6174757265730a546869732041677265656d656e742069732065786563757465642062792074686520666f6c6c6f77696e6720706172746965733a0a2d204c6963656e736f723a205b6c6963656e736f7220616464726573735d0a2d204c6963656e7365653a205b6c6963656e73656520616464726573735d0a2d205369676e696e6720446174653a205b7369676e696e672074696d657374616d705d\n\n    auxdata: 0xa264697066735822122065954e728e1a6959c7e980bd8a626cc9cb6ea3947c96ce5cd428241de5f041f264736f6c63430008190033\n}\n",
				"bytecode": {
					"linkReferences": {},
					"object": "6080604052348015600e575f80fd5b50611c768061001c5f395ff3fe608060405234801561000f575f80fd5b5060043610610055575f3560e01c806317d7de7c14610059578063321c48f214610077578063483ced98146100955780637db3a946146100c5578063ad2e8c9b146100e3575b5f80fd5b610061610101565b60405161006e9190610764565b60405180910390f35b61007f610121565b60405161008c9190610764565b60405180910390f35b6100af60048036038101906100aa919061094e565b610144565b6040516100bc9190610764565b60405180910390f35b6100cd61024b565b6040516100da9190610764565b60405180910390f35b6100eb61026a565b6040516100f891906109f0565b60405180910390f35b6060604051806080016040528060428152602001610bfe60429139905090565b606060405180610860016040528061083081526020016114116108309139905090565b60605f6040518061018001604052806101608152602001610c40610160913990505f604051806106a001604052806106718152602001610da0610671913990505f6040518060400160405280600d81526020017f0a2d204c6963656e7365653a200000000000000000000000000000000000000081525090505f6040518060400160405280601181526020017f0a2d205369676e696e6720446174653a200000000000000000000000000000008152509050838a846102028c61026e565b8561020c8d61026e565b866102168d61029b565b60405160200161022d989796959493929190610a43565b60405160208183030381529060405294505050505095945050505050565b6040518061086001604052806108308152602001611411610830913981565b5f90565b60606102948273ffffffffffffffffffffffffffffffffffffffff16601460ff16610365565b9050919050565b60605f60016102a9846105a3565b0190505f8167ffffffffffffffff8111156102c7576102c661079d565b5b6040519080825280601f01601f1916602001820160405280156102f95781602001600182028036833780820191505090505b5090505f82602001820190505b60011561035a578080600190039150507f3031323334353637383961626364656600000000000000000000000000000000600a86061a8153600a858161034f5761034e610ab4565b5b0494505f8503610306575b819350505050919050565b60605f8390505f600284600261037b9190610b0e565b6103859190610b4f565b67ffffffffffffffff81111561039e5761039d61079d565b5b6040519080825280601f01601f1916602001820160405280156103d05781602001600182028036833780820191505090505b5090507f3000000000000000000000000000000000000000000000000000000000000000815f8151811061040757610406610b82565b5b60200101907effffffffffffffffffffffffffffffffffffffffffffffffffffffffffffff191690815f1a9053507f78000000000000000000000000000000000000000000000000000000000000008160018151811061046a57610469610b82565b5b60200101907effffffffffffffffffffffffffffffffffffffffffffffffffffffffffffff191690815f1a9053505f60018560026104a89190610b0e565b6104b29190610b4f565b90505b6001811115610551577f3031323334353637383961626364656600000000000000000000000000000000600f8416601081106104f4576104f3610b82565b5b1a60f81b82828151811061050b5761050a610b82565b5b60200101907effffffffffffffffffffffffffffffffffffffffffffffffffffffffffffff191690815f1a905350600483901c92508061054a90610baf565b90506104b5565b505f82146105985784846040517fe22e27eb00000000000000000000000000000000000000000000000000000000815260040161058f929190610bd6565b60405180910390fd5b809250505092915050565b5f805f90507a184f03e93ff9f4daa797ed6e38ed64bf6a1f01000000000000000083106105ff577a184f03e93ff9f4daa797ed6e38ed64bf6a1f01000000000000000083816105f5576105f4610ab4565b5b0492506040810190505b6d04ee2d6d415b85acef8100000000831061063c576d04ee2d6d415b85acef8100000000838161063257610631610ab4565b5b0492506020810190505b662386f26fc10000831061066b57662386f26fc10000838161066157610660610ab4565b5b0492506010810190505b6305f5e1008310610694576305f5e100838161068a57610689610ab4565b5b0492506008810190505b61271083106106b95761271083816106af576106ae610ab4565b5b0492506004810190505b606483106106dc57606483816106d2576106d1610ab4565b5b0492506002810190505b600a83106106eb576001810190505b80915050919050565b5f81519050919050565b5f82825260208201905092915050565b8281835e5f83830152505050565b5f601f19601f8301169050919050565b5f610736826106f4565b61074081856106fe565b935061075081856020860161070e565b6107598161071c565b840191505092915050565b5f6020820190508181035f83015261077c818461072c565b905092915050565b5f604051905090565b5f80fd5b5f80fd5b5f80fd5b5f80fd5b7f4e487b71000000000000000000000000000000000000000000000000000000005f52604160045260245ffd5b6107d38261071c565b810181811067ffffffffffffffff821117156107f2576107f161079d565b5b80604052505050565b5f610804610784565b905061081082826107ca565b919050565b5f67ffffffffffffffff82111561082f5761082e61079d565b5b6108388261071c565b9050602081019050919050565b828183375f83830152505050565b5f61086561086084610815565b6107fb565b90508281526020810184848401111561088157610880610799565b5b61088c848285610845565b509392505050565b5f82601f8301126108a8576108a7610795565b5b81356108b8848260208601610853565b91505092915050565b5f73ffffffffffffffffffffffffffffffffffffffff82169050919050565b5f6108ea826108c1565b9050919050565b6108fa816108e0565b8114610904575f80fd5b50565b5f81359050610915816108f1565b92915050565b5f819050919050565b61092d8161091b565b8114610937575f80fd5b50565b5f8135905061094881610924565b92915050565b5f805f805f60a086880312156109675761096661078d565b5b5f86013567ffffffffffffffff81111561098457610983610791565b5b61099088828901610894565b95505060206109a188828901610907565b94505060406109b288828901610907565b93505060606109c38882890161093a565b92505060806109d48882890161093a565b9150509295509295909350565b6109ea8161091b565b82525050565b5f602082019050610a035f8301846109e1565b92915050565b5f81905092915050565b5f610a1d826106f4565b610a278185610a09565b9350610a3781856020860161070e565b80840191505092915050565b5f610a4e828b610a13565b9150610a5a828a610a13565b9150610a668289610a13565b9150610a728288610a13565b9150610a7e8287610a13565b9150610a8a8286610a13565b9150610a968285610a13565b9150610aa28284610a13565b91508190509998505050505050505050565b7f4e487b71000000000000000000000000000000000000000000000000000000005f52601260045260245ffd5b7f4e487b71000000000000000000000000000000000000000000000000000000005f52601160045260245ffd5b5f610b188261091b565b9150610b238361091b565b9250828202610b318161091b565b91508282048414831517610b4857610b47610ae1565b5b5092915050565b5f610b598261091b565b9150610b648361091b565b9250828201905080821115610b7c57610b7b610ae1565b5b92915050565b7f4e487b71000000000000000000000000000000000000000000000000000000005f52603260045260245ffd5b5f610bb98261091b565b91505f8203610bcb57610bca610ae1565b5b600182039050919050565b5f604082019050610be95f8301856109e1565b610bf660208301846109e1565b939250505056fe437265617469766520436f6d6d6f6e73204174747269627574696f6e20342e3020496e7465726e6174696f6e616c204c6963656e73652028434320425920342e30294c6963656e73696e672041677265656d656e740a0a54686973204c6963656e73652041677265656d656e7420282241677265656d656e74222920697320656e746572656420696e746f20627920616e64206265747765656e3a0a2d204c6963656e736f723a2054686520696e646976696475616c206f7220656e74697479207468617420686f6c64732074686520636f7079726967687420666f722074686520766964656f206964656e7469666965642062656c6f772028224c6963656e736f7222292e0a2d204c6963656e7365653a2054686520696e646976696475616c206f7220656e7469747920746861742077696c6c2075736520746865206c6963656e736564206d6174657269616c20756e64657220746865207465726d73206f6620746869732041677265656d656e742028224c6963656e73656522292e0a0a312e204c6963656e736564204d6174657269616c0a2d20566964656f2049443a200a546869732041677265656d656e74206170706c69657320746f2074686520766964656f206964656e7469666965642062792074686520566964656f204944206c69737465642061626f76652c20617320686f73746564206f6e20596f7554756265206f7220616e79206f7468657220706c6174666f726d2e0a0a322e204c6963656e7365204772616e740a546865204c6963656e736f7220686572656279206772616e747320746865204c6963656e7365652061206e6f6e2d6578636c75736976652c20776f726c64776964652c20726f79616c74792d66726565206c6963656e736520746f3a0a2d2053686172652028636f707920616e642072656469737472696275746520746865206d6174657269616c20696e20616e79206d656469756d206f7220666f726d6174290a2d204164617074202872656d69782c207472616e73666f726d2c20616e64206275696c642075706f6e20746865206d6174657269616c20666f7220616e7920707572706f73652c206576656e20636f6d6d65726369616c6c79290a556e64657220746865207465726d73206f6620746869732041677265656d656e742c2070726f766964656420746861743a0a2d20546865204c6963656e736565206d757374206769766520617070726f7072696174652063726564697420746f20746865204c6963656e736f722c2070726f766964652061206c696e6b20746f20746865206c6963656e73652c20616e6420696e646963617465206966206368616e6765732077657265206d6164652e20546865204c6963656e736565206d617920646f20736f20696e20616e7920726561736f6e61626c65206d616e6e65722c20627574206e6f7420696e20616e7920776179207468617420737567676573747320746865204c6963656e736f7220656e646f7273657320746865204c6963656e736565206f722074686520757365206f6620746865206d6174657269616c2e0a0a332e204c6963656e7365204475726174696f6e0a2d204c6963656e7365204475726174696f6e3a2056616c696420666f722061206c69666574696d650a546869732041677265656d656e742069732065666665637469766520666f7220746865206475726174696f6e207370656369666965642061626f76652c207374617274696e672066726f6d20746865205369676e696e6720446174652e0a0a342e204174747269627574696f6e20526571756972656d656e74730a546865204c6963656e736565206d757374206769766520617070726f7072696174652063726564697420746f20746865204c6963656e736f722c20617320666f6c6c6f77733a0a2d2050726f76696465207468652077616c6c65742061646472657373206f6620746865204c6963656e736f722e0a2d2050726f766964652061206c696e6b20746f2074686520766964656f2e0a2d2050726f766964652061206c696e6b20746f2074686973206c6963656e73652e0a2d20496e646963617465206966206368616e6765732077657265206d61646520746f20746865206f726967696e616c206d6174657269616c2e0a0a352e204e6f204164646974696f6e616c205265737472696374696f6e730a546865204c6963656e736565206d6179206e6f74206170706c79206c6567616c207465726d73206f7220746563686e6f6c6f676963616c206d656173757265732074686174206c6567616c6c79207265737472696374206f74686572732066726f6d20646f696e6720616e797468696e6720746865206c6963656e7365207065726d6974732e0a0a362e205465726d696e6174696f6e0a546869732041677265656d656e742077696c6c206175746f6d61746963616c6c79207465726d696e61746520696620746865204c6963656e736565206661696c7320746f20636f6d706c79207769746820746865207465726d732068657265696e2e20486f77657665722c20746865206c6963656e73652077696c6c206e6f74207465726d696e617465206173206120726573756c74206f66206d696e6f7220616e6420726561736f6e61626c6520646576696174696f6e73207468617420646f206e6f742066756e64616d656e74616c6c792061666665637420746865207465726d73206f66207468652041677265656d656e742e0a0a372e205369676e6174757265730a546869732041677265656d656e742069732065786563757465642062792074686520666f6c6c6f77696e6720706172746965733a0a2d204c6963656e736f723a204c6963656e73696e672041677265656d656e740a0a54686973204c6963656e73652041677265656d656e7420282241677265656d656e74222920697320656e746572656420696e746f20627920616e64206265747765656e3a0a2d204c6963656e736f723a2054686520696e646976696475616c206f7220656e74697479207468617420686f6c64732074686520636f7079726967687420666f722074686520766964656f206964656e7469666965642062656c6f772028224c6963656e736f7222292e0a2d204c6963656e7365653a2054686520696e646976696475616c206f7220656e7469747920746861742077696c6c2075736520746865206c6963656e736564206d6174657269616c20756e64657220746865207465726d73206f6620746869732041677265656d656e742028224c6963656e73656522292e0a0a312e204c6963656e736564204d6174657269616c0a2d20566964656f2049443a205b766964656f2069645d0a546869732041677265656d656e74206170706c69657320746f2074686520766964656f206964656e7469666965642062792074686520566964656f204944206c69737465642061626f76652c20617320686f73746564206f6e20596f7554756265206f7220616e79206f7468657220706c6174666f726d2e0a0a322e204c6963656e7365204772616e740a546865204c6963656e736f7220686572656279206772616e747320746865204c6963656e7365652061206e6f6e2d6578636c75736976652c20776f726c64776964652c20726f79616c74792d66726565206c6963656e736520746f3a0a2d2053686172652028636f707920616e642072656469737472696275746520746865206d6174657269616c20696e20616e79206d656469756d206f7220666f726d6174290a2d204164617074202872656d69782c207472616e73666f726d2c20616e64206275696c642075706f6e20746865206d6174657269616c20666f7220616e7920707572706f73652c206576656e20636f6d6d65726369616c6c79290a556e64657220746865207465726d73206f6620746869732041677265656d656e742c2070726f766964656420746861743a0a2d20546865204c6963656e736565206d757374206769766520617070726f7072696174652063726564697420746f20746865204c6963656e736f722c2070726f766964652061206c696e6b20746f20746865206c6963656e73652c20616e6420696e646963617465206966206368616e6765732077657265206d6164652e20546865204c6963656e736565206d617920646f20736f20696e20616e7920726561736f6e61626c65206d616e6e65722c20627574206e6f7420696e20616e7920776179207468617420737567676573747320746865204c6963656e736f7220656e646f7273657320746865204c6963656e736565206f722074686520757365206f6620746865206d6174657269616c2e0a0a332e204c6963656e7365204475726174696f6e0a2d204c6963656e7365204475726174696f6e3a2056616c696420666f722061206c69666574696d650a546869732041677265656d656e742069732065666665637469766520666f7220746865206475726174696f6e207370656369666965642061626f76652c207374617274696e672066726f6d20746865205369676e696e6720446174652e0a0a342e204174747269627574696f6e20526571756972656d656e74730a546865204c6963656e736565206d757374206769766520617070726f7072696174652063726564697420746f20746865204c6963656e736f722c20617320666f6c6c6f77733a0a2d2050726f76696465207468652077616c6c65742061646472657373206f6620746865204c6963656e736f722e0a2d2050726f766964652061206c696e6b20746f2074686520766964656f2e0a2d2050726f766964652061206c696e6b20746f2074686973206c6963656e73652e0a2d20496e646963617465206966206368616e6765732077657265206d61646520746f20746865206f726967696e616c206d6174657269616c2e0a0a352e204e6f204164646974696f6e616c205265737472696374696f6e730a546865204c6963656e736565206d6179206e6f74206170706c79206c6567616c207465726d73206f7220746563686e6f6c6f676963616c206d656173757265732074686174206c6567616c6c79207265737472696374206f74686572732066726f6d20646f696e6720616e797468696e6720746865206c6963656e7365207065726d6974732e0a0a362e205465726d696e6174696f6e0a546869732041677265656d656e742077696c6c206175746f6d61746963616c6c79207465726d696e61746520696620746865204c6963656e736565206661696c7320746f20636f6d706c79207769746820746865207465726d732068657265696e2e20486f77657665722c20746865206c6963656e73652077696c6c206e6f74207465726d696e617465206173206120726573756c74206f66206d696e6f7220616e6420726561736f6e61626c6520646576696174696f6e73207468617420646f206e6f742066756e64616d656e74616c6c792061666665637420746865207465726d73206f66207468652041677265656d656e742e0a0a372e205369676e6174757265730a546869732041677265656d656e742069732065786563757465642062792074686520666f6c6c6f77696e6720706172746965733a0a2d204c6963656e736f723a205b6c6963656e736f7220616464726573735d0a2d204c6963656e7365653a205b6c6963656e73656520616464726573735d0a2d205369676e696e6720446174653a205b7369676e696e672074696d657374616d705da264697066735822122065954e728e1a6959c7e980bd8a626cc9cb6ea3947c96ce5cd428241de5f041f264736f6c63430008190033",
					"opcodes": "PUSH1 0x80 PUSH1 0x40 MSTORE CALLVALUE DUP1 ISZERO PUSH1 0xE JUMPI PUSH0 DUP1 REVERT JUMPDEST POP PUSH2 0x1C76 DUP1 PUSH2 0x1C PUSH0 CODECOPY PUSH0 RETURN INVALID PUSH1 0x80 PUSH1 0x40 MSTORE CALLVALUE DUP1 ISZERO PUSH2 0xF JUMPI PUSH0 DUP1 REVERT JUMPDEST POP PUSH1 0x4 CALLDATASIZE LT PUSH2 0x55 JUMPI PUSH0 CALLDATALOAD PUSH1 0xE0 SHR DUP1 PUSH4 0x17D7DE7C EQ PUSH2 0x59 JUMPI DUP1 PUSH4 0x321C48F2 EQ PUSH2 0x77 JUMPI DUP1 PUSH4 0x483CED98 EQ PUSH2 0x95 JUMPI DUP1 PUSH4 0x7DB3A946 EQ PUSH2 0xC5 JUMPI DUP1 PUSH4 0xAD2E8C9B EQ PUSH2 0xE3 JUMPI JUMPDEST PUSH0 DUP1 REVERT JUMPDEST PUSH2 0x61 PUSH2 0x101 JUMP JUMPDEST PUSH1 0x40 MLOAD PUSH2 0x6E SWAP2 SWAP1 PUSH2 0x764 JUMP JUMPDEST PUSH1 0x40 MLOAD DUP1 SWAP2 SUB SWAP1 RETURN JUMPDEST PUSH2 0x7F PUSH2 0x121 JUMP JUMPDEST PUSH1 0x40 MLOAD PUSH2 0x8C SWAP2 SWAP1 PUSH2 0x764 JUMP JUMPDEST PUSH1 0x40 MLOAD DUP1 SWAP2 SUB SWAP1 RETURN JUMPDEST PUSH2 0xAF PUSH1 0x4 DUP1 CALLDATASIZE SUB DUP2 ADD SWAP1 PUSH2 0xAA SWAP2 SWAP1 PUSH2 0x94E JUMP JUMPDEST PUSH2 0x144 JUMP JUMPDEST PUSH1 0x40 MLOAD PUSH2 0xBC SWAP2 SWAP1 PUSH2 0x764 JUMP JUMPDEST PUSH1 0x40 MLOAD DUP1 SWAP2 SUB SWAP1 RETURN JUMPDEST PUSH2 0xCD PUSH2 0x24B JUMP JUMPDEST PUSH1 0x40 MLOAD PUSH2 0xDA SWAP2 SWAP1 PUSH2 0x764 JUMP JUMPDEST PUSH1 0x40 MLOAD DUP1 SWAP2 SUB SWAP1 RETURN JUMPDEST PUSH2 0xEB PUSH2 0x26A JUMP JUMPDEST PUSH1 0x40 MLOAD PUSH2 0xF8 SWAP2 SWAP1 PUSH2 0x9F0 JUMP JUMPDEST PUSH1 0x40 MLOAD DUP1 SWAP2 SUB SWAP1 RETURN JUMPDEST PUSH1 0x60 PUSH1 0x40 MLOAD DUP1 PUSH1 0x80 ADD PUSH1 0x40 MSTORE DUP1 PUSH1 0x42 DUP2 MSTORE PUSH1 0x20 ADD PUSH2 0xBFE PUSH1 0x42 SWAP2 CODECOPY SWAP1 POP SWAP1 JUMP JUMPDEST PUSH1 0x60 PUSH1 0x40 MLOAD DUP1 PUSH2 0x860 ADD PUSH1 0x40 MSTORE DUP1 PUSH2 0x830 DUP2 MSTORE PUSH1 0x20 ADD PUSH2 0x1411 PUSH2 0x830 SWAP2 CODECOPY SWAP1 POP SWAP1 JUMP JUMPDEST PUSH1 0x60 PUSH0 PUSH1 0x40 MLOAD DUP1 PUSH2 0x180 ADD PUSH1 0x40 MSTORE DUP1 PUSH2 0x160 DUP2 MSTORE PUSH1 0x20 ADD PUSH2 0xC40 PUSH2 0x160 SWAP2 CODECOPY SWAP1 POP PUSH0 PUSH1 0x40 MLOAD DUP1 PUSH2 0x6A0 ADD PUSH1 0x40 MSTORE DUP1 PUSH2 0x671 DUP2 MSTORE PUSH1 0x20 ADD PUSH2 0xDA0 PUSH2 0x671 SWAP2 CODECOPY SWAP1 POP PUSH0 PUSH1 0x40 MLOAD DUP1 PUSH1 0x40 ADD PUSH1 0x40 MSTORE DUP1 PUSH1 0xD DUP2 MSTORE PUSH1 0x20 ADD PUSH32 0xA2D204C6963656E7365653A2000000000000000000000000000000000000000 DUP2 MSTORE POP SWAP1 POP PUSH0 PUSH1 0x40 MLOAD DUP1 PUSH1 0x40 ADD PUSH1 0x40 MSTORE DUP1 PUSH1 0x11 DUP2 MSTORE PUSH1 0x20 ADD PUSH32 0xA2D205369676E696E6720446174653A20000000000000000000000000000000 DUP2 MSTORE POP SWAP1 POP DUP4 DUP11 DUP5 PUSH2 0x202 DUP13 PUSH2 0x26E JUMP JUMPDEST DUP6 PUSH2 0x20C DUP14 PUSH2 0x26E JUMP JUMPDEST DUP7 PUSH2 0x216 DUP14 PUSH2 0x29B JUMP JUMPDEST PUSH1 0x40 MLOAD PUSH1 0x20 ADD PUSH2 0x22D SWAP9 SWAP8 SWAP7 SWAP6 SWAP5 SWAP4 SWAP3 SWAP2 SWAP1 PUSH2 0xA43 JUMP JUMPDEST PUSH1 0x40 MLOAD PUSH1 0x20 DUP2 DUP4 SUB SUB DUP2 MSTORE SWAP1 PUSH1 0x40 MSTORE SWAP5 POP POP POP POP POP SWAP6 SWAP5 POP POP POP POP POP JUMP JUMPDEST PUSH1 0x40 MLOAD DUP1 PUSH2 0x860 ADD PUSH1 0x40 MSTORE DUP1 PUSH2 0x830 DUP2 MSTORE PUSH1 0x20 ADD PUSH2 0x1411 PUSH2 0x830 SWAP2 CODECOPY DUP2 JUMP JUMPDEST PUSH0 SWAP1 JUMP JUMPDEST PUSH1 0x60 PUSH2 0x294 DUP3 PUSH20 0xFFFFFFFFFFFFFFFFFFFFFFFFFFFFFFFFFFFFFFFF AND PUSH1 0x14 PUSH1 0xFF AND PUSH2 0x365 JUMP JUMPDEST SWAP1 POP SWAP2 SWAP1 POP JUMP JUMPDEST PUSH1 0x60 PUSH0 PUSH1 0x1 PUSH2 0x2A9 DUP5 PUSH2 0x5A3 JUMP JUMPDEST ADD SWAP1 POP PUSH0 DUP2 PUSH8 0xFFFFFFFFFFFFFFFF DUP2 GT ISZERO PUSH2 0x2C7 JUMPI PUSH2 0x2C6 PUSH2 0x79D JUMP JUMPDEST JUMPDEST PUSH1 0x40 MLOAD SWAP1 DUP1 DUP3 MSTORE DUP1 PUSH1 0x1F ADD PUSH1 0x1F NOT AND PUSH1 0x20 ADD DUP3 ADD PUSH1 0x40 MSTORE DUP1 ISZERO PUSH2 0x2F9 JUMPI DUP2 PUSH1 0x20 ADD PUSH1 0x1 DUP3 MUL DUP1 CALLDATASIZE DUP4 CALLDATACOPY DUP1 DUP3 ADD SWAP2 POP POP SWAP1 POP JUMPDEST POP SWAP1 POP PUSH0 DUP3 PUSH1 0x20 ADD DUP3 ADD SWAP1 POP JUMPDEST PUSH1 0x1 ISZERO PUSH2 0x35A JUMPI DUP1 DUP1 PUSH1 0x1 SWAP1 SUB SWAP2 POP POP PUSH32 0x3031323334353637383961626364656600000000000000000000000000000000 PUSH1 0xA DUP7 MOD BYTE DUP2 MSTORE8 PUSH1 0xA DUP6 DUP2 PUSH2 0x34F JUMPI PUSH2 0x34E PUSH2 0xAB4 JUMP JUMPDEST JUMPDEST DIV SWAP5 POP PUSH0 DUP6 SUB PUSH2 0x306 JUMPI JUMPDEST DUP2 SWAP4 POP POP POP POP SWAP2 SWAP1 POP JUMP JUMPDEST PUSH1 0x60 PUSH0 DUP4 SWAP1 POP PUSH0 PUSH1 0x2 DUP5 PUSH1 0x2 PUSH2 0x37B SWAP2 SWAP1 PUSH2 0xB0E JUMP JUMPDEST PUSH2 0x385 SWAP2 SWAP1 PUSH2 0xB4F JUMP JUMPDEST PUSH8 0xFFFFFFFFFFFFFFFF DUP2 GT ISZERO PUSH2 0x39E JUMPI PUSH2 0x39D PUSH2 0x79D JUMP JUMPDEST JUMPDEST PUSH1 0x40 MLOAD SWAP1 DUP1 DUP3 MSTORE DUP1 PUSH1 0x1F ADD PUSH1 0x1F NOT AND PUSH1 0x20 ADD DUP3 ADD PUSH1 0x40 MSTORE DUP1 ISZERO PUSH2 0x3D0 JUMPI DUP2 PUSH1 0x20 ADD PUSH1 0x1 DUP3 MUL DUP1 CALLDATASIZE DUP4 CALLDATACOPY DUP1 DUP3 ADD SWAP2 POP POP SWAP1 POP JUMPDEST POP SWAP1 POP PUSH32 0x3000000000000000000000000000000000000000000000000000000000000000 DUP2 PUSH0 DUP2 MLOAD DUP2 LT PUSH2 0x407 JUMPI PUSH2 0x406 PUSH2 0xB82 JUMP JUMPDEST JUMPDEST PUSH1 0x20 ADD ADD SWAP1 PUSH31 0xFFFFFFFFFFFFFFFFFFFFFFFFFFFFFFFFFFFFFFFFFFFFFFFFFFFFFFFFFFFFFF NOT AND SWAP1 DUP2 PUSH0 BYTE SWAP1 MSTORE8 POP PUSH32 0x7800000000000000000000000000000000000000000000000000000000000000 DUP2 PUSH1 0x1 DUP2 MLOAD DUP2 LT PUSH2 0x46A JUMPI PUSH2 0x469 PUSH2 0xB82 JUMP JUMPDEST JUMPDEST PUSH1 0x20 ADD ADD SWAP1 PUSH31 0xFFFFFFFFFFFFFFFFFFFFFFFFFFFFFFFFFFFFFFFFFFFFFFFFFFFFFFFFFFFFFF NOT AND SWAP1 DUP2 PUSH0 BYTE SWAP1 MSTORE8 POP PUSH0 PUSH1 0x1 DUP6 PUSH1 0x2 PUSH2 0x4A8 SWAP2 SWAP1 PUSH2 0xB0E JUMP JUMPDEST PUSH2 0x4B2 SWAP2 SWAP1 PUSH2 0xB4F JUMP JUMPDEST SWAP1 POP JUMPDEST PUSH1 0x1 DUP2 GT ISZERO PUSH2 0x551 JUMPI PUSH32 0x3031323334353637383961626364656600000000000000000000000000000000 PUSH1 0xF DUP5 AND PUSH1 0x10 DUP2 LT PUSH2 0x4F4 JUMPI PUSH2 0x4F3 PUSH2 0xB82 JUMP JUMPDEST JUMPDEST BYTE PUSH1 0xF8 SHL DUP3 DUP3 DUP2 MLOAD DUP2 LT PUSH2 0x50B JUMPI PUSH2 0x50A PUSH2 0xB82 JUMP JUMPDEST JUMPDEST PUSH1 0x20 ADD ADD SWAP1 PUSH31 0xFFFFFFFFFFFFFFFFFFFFFFFFFFFFFFFFFFFFFFFFFFFFFFFFFFFFFFFFFFFFFF NOT AND SWAP1 DUP2 PUSH0 BYTE SWAP1 MSTORE8 POP PUSH1 0x4 DUP4 SWAP1 SHR SWAP3 POP DUP1 PUSH2 0x54A SWAP1 PUSH2 0xBAF JUMP JUMPDEST SWAP1 POP PUSH2 0x4B5 JUMP JUMPDEST POP PUSH0 DUP3 EQ PUSH2 0x598 JUMPI DUP5 DUP5 PUSH1 0x40 MLOAD PUSH32 0xE22E27EB00000000000000000000000000000000000000000000000000000000 DUP2 MSTORE PUSH1 0x4 ADD PUSH2 0x58F SWAP3 SWAP2 SWAP1 PUSH2 0xBD6 JUMP JUMPDEST PUSH1 0x40 MLOAD DUP1 SWAP2 SUB SWAP1 REVERT JUMPDEST DUP1 SWAP3 POP POP POP SWAP3 SWAP2 POP POP JUMP JUMPDEST PUSH0 DUP1 PUSH0 SWAP1 POP PUSH27 0x184F03E93FF9F4DAA797ED6E38ED64BF6A1F010000000000000000 DUP4 LT PUSH2 0x5FF JUMPI PUSH27 0x184F03E93FF9F4DAA797ED6E38ED64BF6A1F010000000000000000 DUP4 DUP2 PUSH2 0x5F5 JUMPI PUSH2 0x5F4 PUSH2 0xAB4 JUMP JUMPDEST JUMPDEST DIV SWAP3 POP PUSH1 0x40 DUP2 ADD SWAP1 POP JUMPDEST PUSH14 0x4EE2D6D415B85ACEF8100000000 DUP4 LT PUSH2 0x63C JUMPI PUSH14 0x4EE2D6D415B85ACEF8100000000 DUP4 DUP2 PUSH2 0x632 JUMPI PUSH2 0x631 PUSH2 0xAB4 JUMP JUMPDEST JUMPDEST DIV SWAP3 POP PUSH1 0x20 DUP2 ADD SWAP1 POP JUMPDEST PUSH7 0x2386F26FC10000 DUP4 LT PUSH2 0x66B JUMPI PUSH7 0x2386F26FC10000 DUP4 DUP2 PUSH2 0x661 JUMPI PUSH2 0x660 PUSH2 0xAB4 JUMP JUMPDEST JUMPDEST DIV SWAP3 POP PUSH1 0x10 DUP2 ADD SWAP1 POP JUMPDEST PUSH4 0x5F5E100 DUP4 LT PUSH2 0x694 JUMPI PUSH4 0x5F5E100 DUP4 DUP2 PUSH2 0x68A JUMPI PUSH2 0x689 PUSH2 0xAB4 JUMP JUMPDEST JUMPDEST DIV SWAP3 POP PUSH1 0x8 DUP2 ADD SWAP1 POP JUMPDEST PUSH2 0x2710 DUP4 LT PUSH2 0x6B9 JUMPI PUSH2 0x2710 DUP4 DUP2 PUSH2 0x6AF JUMPI PUSH2 0x6AE PUSH2 0xAB4 JUMP JUMPDEST JUMPDEST DIV SWAP3 POP PUSH1 0x4 DUP2 ADD SWAP1 POP JUMPDEST PUSH1 0x64 DUP4 LT PUSH2 0x6DC JUMPI PUSH1 0x64 DUP4 DUP2 PUSH2 0x6D2 JUMPI PUSH2 0x6D1 PUSH2 0xAB4 JUMP JUMPDEST JUMPDEST DIV SWAP3 POP PUSH1 0x2 DUP2 ADD SWAP1 POP JUMPDEST PUSH1 0xA DUP4 LT PUSH2 0x6EB JUMPI PUSH1 0x1 DUP2 ADD SWAP1 POP JUMPDEST DUP1 SWAP2 POP POP SWAP2 SWAP1 POP JUMP JUMPDEST PUSH0 DUP2 MLOAD SWAP1 POP SWAP2 SWAP1 POP JUMP JUMPDEST PUSH0 DUP3 DUP3 MSTORE PUSH1 0x20 DUP3 ADD SWAP1 POP SWAP3 SWAP2 POP POP JUMP JUMPDEST DUP3 DUP2 DUP4 MCOPY PUSH0 DUP4 DUP4 ADD MSTORE POP POP POP JUMP JUMPDEST PUSH0 PUSH1 0x1F NOT PUSH1 0x1F DUP4 ADD AND SWAP1 POP SWAP2 SWAP1 POP JUMP JUMPDEST PUSH0 PUSH2 0x736 DUP3 PUSH2 0x6F4 JUMP JUMPDEST PUSH2 0x740 DUP2 DUP6 PUSH2 0x6FE JUMP JUMPDEST SWAP4 POP PUSH2 0x750 DUP2 DUP6 PUSH1 0x20 DUP7 ADD PUSH2 0x70E JUMP JUMPDEST PUSH2 0x759 DUP2 PUSH2 0x71C JUMP JUMPDEST DUP5 ADD SWAP2 POP POP SWAP3 SWAP2 POP POP JUMP JUMPDEST PUSH0 PUSH1 0x20 DUP3 ADD SWAP1 POP DUP2 DUP2 SUB PUSH0 DUP4 ADD MSTORE PUSH2 0x77C DUP2 DUP5 PUSH2 0x72C JUMP JUMPDEST SWAP1 POP SWAP3 SWAP2 POP POP JUMP JUMPDEST PUSH0 PUSH1 0x40 MLOAD SWAP1 POP SWAP1 JUMP JUMPDEST PUSH0 DUP1 REVERT JUMPDEST PUSH0 DUP1 REVERT JUMPDEST PUSH0 DUP1 REVERT JUMPDEST PUSH0 DUP1 REVERT JUMPDEST PUSH32 0x4E487B7100000000000000000000000000000000000000000000000000000000 PUSH0 MSTORE PUSH1 0x41 PUSH1 0x4 MSTORE PUSH1 0x24 PUSH0 REVERT JUMPDEST PUSH2 0x7D3 DUP3 PUSH2 0x71C JUMP JUMPDEST DUP2 ADD DUP2 DUP2 LT PUSH8 0xFFFFFFFFFFFFFFFF DUP3 GT OR ISZERO PUSH2 0x7F2 JUMPI PUSH2 0x7F1 PUSH2 0x79D JUMP JUMPDEST JUMPDEST DUP1 PUSH1 0x40 MSTORE POP POP POP JUMP JUMPDEST PUSH0 PUSH2 0x804 PUSH2 0x784 JUMP JUMPDEST SWAP1 POP PUSH2 0x810 DUP3 DUP3 PUSH2 0x7CA JUMP JUMPDEST SWAP2 SWAP1 POP JUMP JUMPDEST PUSH0 PUSH8 0xFFFFFFFFFFFFFFFF DUP3 GT ISZERO PUSH2 0x82F JUMPI PUSH2 0x82E PUSH2 0x79D JUMP JUMPDEST JUMPDEST PUSH2 0x838 DUP3 PUSH2 0x71C JUMP JUMPDEST SWAP1 POP PUSH1 0x20 DUP2 ADD SWAP1 POP SWAP2 SWAP1 POP JUMP JUMPDEST DUP3 DUP2 DUP4 CALLDATACOPY PUSH0 DUP4 DUP4 ADD MSTORE POP POP POP JUMP JUMPDEST PUSH0 PUSH2 0x865 PUSH2 0x860 DUP5 PUSH2 0x815 JUMP JUMPDEST PUSH2 0x7FB JUMP JUMPDEST SWAP1 POP DUP3 DUP2 MSTORE PUSH1 0x20 DUP2 ADD DUP5 DUP5 DUP5 ADD GT ISZERO PUSH2 0x881 JUMPI PUSH2 0x880 PUSH2 0x799 JUMP JUMPDEST JUMPDEST PUSH2 0x88C DUP5 DUP3 DUP6 PUSH2 0x845 JUMP JUMPDEST POP SWAP4 SWAP3 POP POP POP JUMP JUMPDEST PUSH0 DUP3 PUSH1 0x1F DUP4 ADD SLT PUSH2 0x8A8 JUMPI PUSH2 0x8A7 PUSH2 0x795 JUMP JUMPDEST JUMPDEST DUP2 CALLDATALOAD PUSH2 0x8B8 DUP5 DUP3 PUSH1 0x20 DUP7 ADD PUSH2 0x853 JUMP JUMPDEST SWAP2 POP POP SWAP3 SWAP2 POP POP JUMP JUMPDEST PUSH0 PUSH20 0xFFFFFFFFFFFFFFFFFFFFFFFFFFFFFFFFFFFFFFFF DUP3 AND SWAP1 POP SWAP2 SWAP1 POP JUMP JUMPDEST PUSH0 PUSH2 0x8EA DUP3 PUSH2 0x8C1 JUMP JUMPDEST SWAP1 POP SWAP2 SWAP1 POP JUMP JUMPDEST PUSH2 0x8FA DUP2 PUSH2 0x8E0 JUMP JUMPDEST DUP2 EQ PUSH2 0x904 JUMPI PUSH0 DUP1 REVERT JUMPDEST POP JUMP JUMPDEST PUSH0 DUP2 CALLDATALOAD SWAP1 POP PUSH2 0x915 DUP2 PUSH2 0x8F1 JUMP JUMPDEST SWAP3 SWAP2 POP POP JUMP JUMPDEST PUSH0 DUP2 SWAP1 POP SWAP2 SWAP1 POP JUMP JUMPDEST PUSH2 0x92D DUP2 PUSH2 0x91B JUMP JUMPDEST DUP2 EQ PUSH2 0x937 JUMPI PUSH0 DUP1 REVERT JUMPDEST POP JUMP JUMPDEST PUSH0 DUP2 CALLDATALOAD SWAP1 POP PUSH2 0x948 DUP2 PUSH2 0x924 JUMP JUMPDEST SWAP3 SWAP2 POP POP JUMP JUMPDEST PUSH0 DUP1 PUSH0 DUP1 PUSH0 PUSH1 0xA0 DUP7 DUP9 SUB SLT ISZERO PUSH2 0x967 JUMPI PUSH2 0x966 PUSH2 0x78D JUMP JUMPDEST JUMPDEST PUSH0 DUP7 ADD CALLDATALOAD PUSH8 0xFFFFFFFFFFFFFFFF DUP2 GT ISZERO PUSH2 0x984 JUMPI PUSH2 0x983 PUSH2 0x791 JUMP JUMPDEST JUMPDEST PUSH2 0x990 DUP9 DUP3 DUP10 ADD PUSH2 0x894 JUMP JUMPDEST SWAP6 POP POP PUSH1 0x20 PUSH2 0x9A1 DUP9 DUP3 DUP10 ADD PUSH2 0x907 JUMP JUMPDEST SWAP5 POP POP PUSH1 0x40 PUSH2 0x9B2 DUP9 DUP3 DUP10 ADD PUSH2 0x907 JUMP JUMPDEST SWAP4 POP POP PUSH1 0x60 PUSH2 0x9C3 DUP9 DUP3 DUP10 ADD PUSH2 0x93A JUMP JUMPDEST SWAP3 POP POP PUSH1 0x80 PUSH2 0x9D4 DUP9 DUP3 DUP10 ADD PUSH2 0x93A JUMP JUMPDEST SWAP2 POP POP SWAP3 SWAP6 POP SWAP3 SWAP6 SWAP1 SWAP4 POP JUMP JUMPDEST PUSH2 0x9EA DUP2 PUSH2 0x91B JUMP JUMPDEST DUP3 MSTORE POP POP JUMP JUMPDEST PUSH0 PUSH1 0x20 DUP3 ADD SWAP1 POP PUSH2 0xA03 PUSH0 DUP4 ADD DUP5 PUSH2 0x9E1 JUMP JUMPDEST SWAP3 SWAP2 POP POP JUMP JUMPDEST PUSH0 DUP2 SWAP1 POP SWAP3 SWAP2 POP POP JUMP JUMPDEST PUSH0 PUSH2 0xA1D DUP3 PUSH2 0x6F4 JUMP JUMPDEST PUSH2 0xA27 DUP2 DUP6 PUSH2 0xA09 JUMP JUMPDEST SWAP4 POP PUSH2 0xA37 DUP2 DUP6 PUSH1 0x20 DUP7 ADD PUSH2 0x70E JUMP JUMPDEST DUP1 DUP5 ADD SWAP2 POP POP SWAP3 SWAP2 POP POP JUMP JUMPDEST PUSH0 PUSH2 0xA4E DUP3 DUP12 PUSH2 0xA13 JUMP JUMPDEST SWAP2 POP PUSH2 0xA5A DUP3 DUP11 PUSH2 0xA13 JUMP JUMPDEST SWAP2 POP PUSH2 0xA66 DUP3 DUP10 PUSH2 0xA13 JUMP JUMPDEST SWAP2 POP PUSH2 0xA72 DUP3 DUP9 PUSH2 0xA13 JUMP JUMPDEST SWAP2 POP PUSH2 0xA7E DUP3 DUP8 PUSH2 0xA13 JUMP JUMPDEST SWAP2 POP PUSH2 0xA8A DUP3 DUP7 PUSH2 0xA13 JUMP JUMPDEST SWAP2 POP PUSH2 0xA96 DUP3 DUP6 PUSH2 0xA13 JUMP JUMPDEST SWAP2 POP PUSH2 0xAA2 DUP3 DUP5 PUSH2 0xA13 JUMP JUMPDEST SWAP2 POP DUP2 SWAP1 POP SWAP10 SWAP9 POP POP POP POP POP POP POP POP POP JUMP JUMPDEST PUSH32 0x4E487B7100000000000000000000000000000000000000000000000000000000 PUSH0 MSTORE PUSH1 0x12 PUSH1 0x4 MSTORE PUSH1 0x24 PUSH0 REVERT JUMPDEST PUSH32 0x4E487B7100000000000000000000000000000000000000000000000000000000 PUSH0 MSTORE PUSH1 0x11 PUSH1 0x4 MSTORE PUSH1 0x24 PUSH0 REVERT JUMPDEST PUSH0 PUSH2 0xB18 DUP3 PUSH2 0x91B JUMP JUMPDEST SWAP2 POP PUSH2 0xB23 DUP4 PUSH2 0x91B JUMP JUMPDEST SWAP3 POP DUP3 DUP3 MUL PUSH2 0xB31 DUP2 PUSH2 0x91B JUMP JUMPDEST SWAP2 POP DUP3 DUP3 DIV DUP5 EQ DUP4 ISZERO OR PUSH2 0xB48 JUMPI PUSH2 0xB47 PUSH2 0xAE1 JUMP JUMPDEST JUMPDEST POP SWAP3 SWAP2 POP POP JUMP JUMPDEST PUSH0 PUSH2 0xB59 DUP3 PUSH2 0x91B JUMP JUMPDEST SWAP2 POP PUSH2 0xB64 DUP4 PUSH2 0x91B JUMP JUMPDEST SWAP3 POP DUP3 DUP3 ADD SWAP1 POP DUP1 DUP3 GT ISZERO PUSH2 0xB7C JUMPI PUSH2 0xB7B PUSH2 0xAE1 JUMP JUMPDEST JUMPDEST SWAP3 SWAP2 POP POP JUMP JUMPDEST PUSH32 0x4E487B7100000000000000000000000000000000000000000000000000000000 PUSH0 MSTORE PUSH1 0x32 PUSH1 0x4 MSTORE PUSH1 0x24 PUSH0 REVERT JUMPDEST PUSH0 PUSH2 0xBB9 DUP3 PUSH2 0x91B JUMP JUMPDEST SWAP2 POP PUSH0 DUP3 SUB PUSH2 0xBCB JUMPI PUSH2 0xBCA PUSH2 0xAE1 JUMP JUMPDEST JUMPDEST PUSH1 0x1 DUP3 SUB SWAP1 POP SWAP2 SWAP1 POP JUMP JUMPDEST PUSH0 PUSH1 0x40 DUP3 ADD SWAP1 POP PUSH2 0xBE9 PUSH0 DUP4 ADD DUP6 PUSH2 0x9E1 JUMP JUMPDEST PUSH2 0xBF6 PUSH1 0x20 DUP4 ADD DUP5 PUSH2 0x9E1 JUMP JUMPDEST SWAP4 SWAP3 POP POP POP JUMP INVALID NUMBER PUSH19 0x65617469766520436F6D6D6F6E732041747472 PUSH10 0x627574696F6E20342E30 KECCAK256 BLOBHASH PUSH15 0x7465726E6174696F6E616C204C6963 PUSH6 0x6E7365202843 NUMBER KECCAK256 TIMESTAMP MSIZE KECCAK256 CALLVALUE 0x2E ADDRESS 0x29 0x4C PUSH10 0x63656E73696E67204167 PUSH19 0x65656D656E740A0A54686973204C6963656E73 PUSH6 0x204167726565 PUSH14 0x656E7420282241677265656D656E PUSH21 0x222920697320656E746572656420696E746F206279 KECCAK256 PUSH2 0x6E64 KECCAK256 PUSH3 0x657477 PUSH6 0x656E3A0A2D20 0x4C PUSH10 0x63656E736F723A205468 PUSH6 0x20696E646976 PUSH10 0x6475616C206F7220656E PUSH21 0x697479207468617420686F6C64732074686520636F PUSH17 0x79726967687420666F7220746865207669 PUSH5 0x656F206964 PUSH6 0x6E7469666965 PUSH5 0x2062656C6F PUSH24 0x2028224C6963656E736F7222292E0A2D204C6963656E7365 PUSH6 0x3A2054686520 PUSH10 0x6E646976696475616C20 PUSH16 0x7220656E746974792074686174207769 PUSH13 0x6C2075736520746865206C6963 PUSH6 0x6E736564206D PUSH2 0x7465 PUSH19 0x69616C20756E64657220746865207465726D73 KECCAK256 PUSH16 0x6620746869732041677265656D656E74 KECCAK256 0x28 0x22 0x4C PUSH10 0x63656E73656522292E0A EXP BALANCE 0x2E KECCAK256 0x4C PUSH10 0x63656E736564204D6174 PUSH6 0x7269616C0A2D KECCAK256 JUMP PUSH10 0x64656F2049443A200A54 PUSH9 0x69732041677265656D PUSH6 0x6E7420617070 PUSH13 0x69657320746F20746865207669 PUSH5 0x656F206964 PUSH6 0x6E7469666965 PUSH5 0x2062792074 PUSH9 0x6520566964656F2049 PREVRANDAO KECCAK256 PUSH13 0x69737465642061626F76652C20 PUSH2 0x7320 PUSH9 0x6F73746564206F6E20 MSIZE PUSH16 0x7554756265206F7220616E79206F7468 PUSH6 0x7220706C6174 PUSH7 0x6F726D2E0A0A32 0x2E KECCAK256 0x4C PUSH10 0x63656E7365204772616E PUSH21 0xA546865204C6963656E736F722068657265627920 PUSH8 0x72616E7473207468 PUSH6 0x204C6963656E PUSH20 0x65652061206E6F6E2D6578636C75736976652C20 PUSH24 0x6F726C64776964652C20726F79616C74792D66726565206C PUSH10 0x63656E736520746F3A0A 0x2D KECCAK256 MSTORE8 PUSH9 0x6172652028636F7079 KECCAK256 PUSH2 0x6E64 KECCAK256 PUSH19 0x656469737472696275746520746865206D6174 PUSH6 0x7269616C2069 PUSH15 0x20616E79206D656469756D206F7220 PUSH7 0x6F726D6174290A 0x2D KECCAK256 COINBASE PUSH5 0x6170742028 PUSH19 0x656D69782C207472616E73666F726D2C20616E PUSH5 0x206275696C PUSH5 0x2075706F6E KECCAK256 PUSH21 0x6865206D6174657269616C20666F7220616E792070 PUSH22 0x72706F73652C206576656E20636F6D6D65726369616C PUSH13 0x79290A556E6465722074686520 PUSH21 0x65726D73206F6620746869732041677265656D656E PUSH21 0x2C2070726F766964656420746861743A0A2D205468 PUSH6 0x204C6963656E PUSH20 0x6565206D757374206769766520617070726F7072 PUSH10 0x61746520637265646974 KECCAK256 PUSH21 0x6F20746865204C6963656E736F722C2070726F7669 PUSH5 0x652061206C PUSH10 0x6E6B20746F2074686520 PUSH13 0x6963656E73652C20616E642069 PUSH15 0x646963617465206966206368616E67 PUSH6 0x732077657265 KECCAK256 PUSH14 0x6164652E20546865204C6963656E PUSH20 0x6565206D617920646F20736F20696E20616E7920 PUSH19 0x6561736F6E61626C65206D616E6E65722C2062 PUSH22 0x74206E6F7420696E20616E7920776179207468617420 PUSH20 0x7567676573747320746865204C6963656E736F72 KECCAK256 PUSH6 0x6E646F727365 PUSH20 0x20746865204C6963656E736565206F7220746865 KECCAK256 PUSH22 0x7365206F6620746865206D6174657269616C2E0A0A33 0x2E KECCAK256 0x4C PUSH10 0x63656E73652044757261 PUSH21 0x696F6E0A2D204C6963656E7365204475726174696F PUSH15 0x3A2056616C696420666F722061206C PUSH10 0x666574696D650A546869 PUSH20 0x2041677265656D656E7420697320656666656374 PUSH10 0x766520666F7220746865 KECCAK256 PUSH5 0x7572617469 PUSH16 0x6E207370656369666965642061626F76 PUSH6 0x2C2073746172 PUSH21 0x696E672066726F6D20746865205369676E696E6720 PREVRANDAO PUSH2 0x7465 0x2E EXP EXP CALLVALUE 0x2E KECCAK256 COINBASE PUSH21 0x747269627574696F6E20526571756972656D656E74 PUSH20 0xA546865204C6963656E736565206D7573742067 PUSH10 0x766520617070726F7072 PUSH10 0x61746520637265646974 KECCAK256 PUSH21 0x6F20746865204C6963656E736F722C20617320666F PUSH13 0x6C6F77733A0A2D2050726F7669 PUSH5 0x6520746865 KECCAK256 PUSH24 0x616C6C65742061646472657373206F6620746865204C6963 PUSH6 0x6E736F722E0A 0x2D KECCAK256 POP PUSH19 0x6F766964652061206C696E6B20746F20746865 KECCAK256 PUSH23 0x6964656F2E0A2D2050726F766964652061206C696E6B20 PUSH21 0x6F2074686973206C6963656E73652E0A2D20496E64 PUSH10 0x63617465206966206368 PUSH2 0x6E67 PUSH6 0x732077657265 KECCAK256 PUSH14 0x61646520746F20746865206F7269 PUSH8 0x696E616C206D6174 PUSH6 0x7269616C2E0A EXP CALLDATALOAD 0x2E KECCAK256 0x4E PUSH16 0x204164646974696F6E616C2052657374 PUSH19 0x696374696F6E730A546865204C6963656E7365 PUSH6 0x206D6179206E PUSH16 0x74206170706C79206C6567616C207465 PUSH19 0x6D73206F7220746563686E6F6C6F676963616C KECCAK256 PUSH14 0x656173757265732074686174206C PUSH6 0x67616C6C7920 PUSH19 0x65737472696374206F74686572732066726F6D KECCAK256 PUSH5 0x6F696E6720 PUSH2 0x6E79 PUSH21 0x68696E6720746865206C6963656E7365207065726D PUSH10 0x74732E0A0A362E205465 PUSH19 0x6D696E6174696F6E0A54686973204167726565 PUSH14 0x656E742077696C6C206175746F6D PUSH2 0x7469 PUSH4 0x616C6C79 KECCAK256 PUSH21 0x65726D696E61746520696620746865204C6963656E PUSH20 0x6565206661696C7320746F20636F6D706C792077 PUSH10 0x74682074686520746572 PUSH14 0x732068657265696E2E20486F7765 PUSH23 0x65722C20746865206C6963656E73652077696C6C206E6F PUSH21 0x207465726D696E617465206173206120726573756C PUSH21 0x206F66206D696E6F7220616E6420726561736F6E61 PUSH3 0x6C6520 PUSH5 0x6576696174 PUSH10 0x6F6E7320746861742064 PUSH16 0x206E6F742066756E64616D656E74616C PUSH13 0x79206166666563742074686520 PUSH21 0x65726D73206F66207468652041677265656D656E74 0x2E EXP EXP CALLDATACOPY 0x2E KECCAK256 MSTORE8 PUSH10 0x676E6174757265730A54 PUSH9 0x69732041677265656D PUSH6 0x6E7420697320 PUSH6 0x786563757465 PUSH5 0x2062792074 PUSH9 0x6520666F6C6C6F7769 PUSH15 0x6720706172746965733A0A2D204C69 PUSH4 0x656E736F PUSH19 0x3A204C6963656E73696E672041677265656D65 PUSH15 0x740A0A54686973204C6963656E7365 KECCAK256 COINBASE PUSH8 0x7265656D656E7420 0x28 0x22 COINBASE PUSH8 0x7265656D656E7422 0x29 KECCAK256 PUSH10 0x7320656E746572656420 PUSH10 0x6E746F20627920616E64 KECCAK256 PUSH3 0x657477 PUSH6 0x656E3A0A2D20 0x4C PUSH10 0x63656E736F723A205468 PUSH6 0x20696E646976 PUSH10 0x6475616C206F7220656E PUSH21 0x697479207468617420686F6C64732074686520636F PUSH17 0x79726967687420666F7220746865207669 PUSH5 0x656F206964 PUSH6 0x6E7469666965 PUSH5 0x2062656C6F PUSH24 0x2028224C6963656E736F7222292E0A2D204C6963656E7365 PUSH6 0x3A2054686520 PUSH10 0x6E646976696475616C20 PUSH16 0x7220656E746974792074686174207769 PUSH13 0x6C2075736520746865206C6963 PUSH6 0x6E736564206D PUSH2 0x7465 PUSH19 0x69616C20756E64657220746865207465726D73 KECCAK256 PUSH16 0x6620746869732041677265656D656E74 KECCAK256 0x28 0x22 0x4C PUSH10 0x63656E73656522292E0A EXP BALANCE 0x2E KECCAK256 0x4C PUSH10 0x63656E736564204D6174 PUSH6 0x7269616C0A2D KECCAK256 JUMP PUSH10 0x64656F2049443A205B76 PUSH10 0x64656F2069645D0A5468 PUSH10 0x732041677265656D656E PUSH21 0x206170706C69657320746F2074686520766964656F KECCAK256 PUSH10 0x64656E74696669656420 PUSH3 0x792074 PUSH9 0x6520566964656F2049 PREVRANDAO KECCAK256 PUSH13 0x69737465642061626F76652C20 PUSH2 0x7320 PUSH9 0x6F73746564206F6E20 MSIZE PUSH16 0x7554756265206F7220616E79206F7468 PUSH6 0x7220706C6174 PUSH7 0x6F726D2E0A0A32 0x2E KECCAK256 0x4C PUSH10 0x63656E7365204772616E PUSH21 0xA546865204C6963656E736F722068657265627920 PUSH8 0x72616E7473207468 PUSH6 0x204C6963656E PUSH20 0x65652061206E6F6E2D6578636C75736976652C20 PUSH24 0x6F726C64776964652C20726F79616C74792D66726565206C PUSH10 0x63656E736520746F3A0A 0x2D KECCAK256 MSTORE8 PUSH9 0x6172652028636F7079 KECCAK256 PUSH2 0x6E64 KECCAK256 PUSH19 0x656469737472696275746520746865206D6174 PUSH6 0x7269616C2069 PUSH15 0x20616E79206D656469756D206F7220 PUSH7 0x6F726D6174290A 0x2D KECCAK256 COINBASE PUSH5 0x6170742028 PUSH19 0x656D69782C207472616E73666F726D2C20616E PUSH5 0x206275696C PUSH5 0x2075706F6E KECCAK256 PUSH21 0x6865206D6174657269616C20666F7220616E792070 PUSH22 0x72706F73652C206576656E20636F6D6D65726369616C PUSH13 0x79290A556E6465722074686520 PUSH21 0x65726D73206F6620746869732041677265656D656E PUSH21 0x2C2070726F766964656420746861743A0A2D205468 PUSH6 0x204C6963656E PUSH20 0x6565206D757374206769766520617070726F7072 PUSH10 0x61746520637265646974 KECCAK256 PUSH21 0x6F20746865204C6963656E736F722C2070726F7669 PUSH5 0x652061206C PUSH10 0x6E6B20746F2074686520 PUSH13 0x6963656E73652C20616E642069 PUSH15 0x646963617465206966206368616E67 PUSH6 0x732077657265 KECCAK256 PUSH14 0x6164652E20546865204C6963656E PUSH20 0x6565206D617920646F20736F20696E20616E7920 PUSH19 0x6561736F6E61626C65206D616E6E65722C2062 PUSH22 0x74206E6F7420696E20616E7920776179207468617420 PUSH20 0x7567676573747320746865204C6963656E736F72 KECCAK256 PUSH6 0x6E646F727365 PUSH20 0x20746865204C6963656E736565206F7220746865 KECCAK256 PUSH22 0x7365206F6620746865206D6174657269616C2E0A0A33 0x2E KECCAK256 0x4C PUSH10 0x63656E73652044757261 PUSH21 0x696F6E0A2D204C6963656E7365204475726174696F PUSH15 0x3A2056616C696420666F722061206C PUSH10 0x666574696D650A546869 PUSH20 0x2041677265656D656E7420697320656666656374 PUSH10 0x766520666F7220746865 KECCAK256 PUSH5 0x7572617469 PUSH16 0x6E207370656369666965642061626F76 PUSH6 0x2C2073746172 PUSH21 0x696E672066726F6D20746865205369676E696E6720 PREVRANDAO PUSH2 0x7465 0x2E EXP EXP CALLVALUE 0x2E KECCAK256 COINBASE PUSH21 0x747269627574696F6E20526571756972656D656E74 PUSH20 0xA546865204C6963656E736565206D7573742067 PUSH10 0x766520617070726F7072 PUSH10 0x61746520637265646974 KECCAK256 PUSH21 0x6F20746865204C6963656E736F722C20617320666F PUSH13 0x6C6F77733A0A2D2050726F7669 PUSH5 0x6520746865 KECCAK256 PUSH24 0x616C6C65742061646472657373206F6620746865204C6963 PUSH6 0x6E736F722E0A 0x2D KECCAK256 POP PUSH19 0x6F766964652061206C696E6B20746F20746865 KECCAK256 PUSH23 0x6964656F2E0A2D2050726F766964652061206C696E6B20 PUSH21 0x6F2074686973206C6963656E73652E0A2D20496E64 PUSH10 0x63617465206966206368 PUSH2 0x6E67 PUSH6 0x732077657265 KECCAK256 PUSH14 0x61646520746F20746865206F7269 PUSH8 0x696E616C206D6174 PUSH6 0x7269616C2E0A EXP CALLDATALOAD 0x2E KECCAK256 0x4E PUSH16 0x204164646974696F6E616C2052657374 PUSH19 0x696374696F6E730A546865204C6963656E7365 PUSH6 0x206D6179206E PUSH16 0x74206170706C79206C6567616C207465 PUSH19 0x6D73206F7220746563686E6F6C6F676963616C KECCAK256 PUSH14 0x656173757265732074686174206C PUSH6 0x67616C6C7920 PUSH19 0x65737472696374206F74686572732066726F6D KECCAK256 PUSH5 0x6F696E6720 PUSH2 0x6E79 PUSH21 0x68696E6720746865206C6963656E7365207065726D PUSH10 0x74732E0A0A362E205465 PUSH19 0x6D696E6174696F6E0A54686973204167726565 PUSH14 0x656E742077696C6C206175746F6D PUSH2 0x7469 PUSH4 0x616C6C79 KECCAK256 PUSH21 0x65726D696E61746520696620746865204C6963656E PUSH20 0x6565206661696C7320746F20636F6D706C792077 PUSH10 0x74682074686520746572 PUSH14 0x732068657265696E2E20486F7765 PUSH23 0x65722C20746865206C6963656E73652077696C6C206E6F PUSH21 0x207465726D696E617465206173206120726573756C PUSH21 0x206F66206D696E6F7220616E6420726561736F6E61 PUSH3 0x6C6520 PUSH5 0x6576696174 PUSH10 0x6F6E7320746861742064 PUSH16 0x206E6F742066756E64616D656E74616C PUSH13 0x79206166666563742074686520 PUSH21 0x65726D73206F66207468652041677265656D656E74 0x2E EXP EXP CALLDATACOPY 0x2E KECCAK256 MSTORE8 PUSH10 0x676E6174757265730A54 PUSH9 0x69732041677265656D PUSH6 0x6E7420697320 PUSH6 0x786563757465 PUSH5 0x2062792074 PUSH9 0x6520666F6C6C6F7769 PUSH15 0x6720706172746965733A0A2D204C69 PUSH4 0x656E736F PUSH19 0x3A205B6C6963656E736F722061646472657373 TSTORE EXP 0x2D KECCAK256 0x4C PUSH10 0x63656E7365653A205B6C PUSH10 0x63656E73656520616464 PUSH19 0x6573735D0A2D205369676E696E672044617465 GASPRICE KECCAK256 JUMPDEST PUSH20 0x69676E696E672074696D657374616D705DA26469 PUSH17 0x66735822122065954E728E1A6959C7E980 0xBD DUP11 PUSH3 0x6CC9CB PUSH15 0xA3947C96CE5CD428241DE5F041F264 PUSH20 0x6F6C634300081900330000000000000000000000 "
				},
				"gasEstimates": {
					"creation": {
						"codeDepositCost": "1457200",
						"executionCost": "1518",
						"totalCost": "1458718"
					},
					"external": {
						"agreement()": "infinite",
						"compose(string,address,address,uint256,uint256)": "infinite",
						"getDuration()": "390",
						"getName()": "infinite",
						"getTemplate()": "infinite"
					}
				},
				"methodIdentifiers": {
					"agreement()": "7db3a946",
					"compose(string,address,address,uint256,uint256)": "483ced98",
					"getDuration()": "ad2e8c9b",
					"getName()": "17d7de7c",
					"getTemplate()": "321c48f2"
				}
			},
			"storageLayout": {
				"storage": [],
				"types": null
			},
			"userdoc": {
				"kind": "user",
				"methods": {},
				"version": 1
			}
		}
	}
}