{
	"contracts/LicenseManager.sol": {
		"LicenseManager": {
			"abi": [
				{
					"inputs": [
						{
							"internalType": "address",
							"name": "owner",
							"type": "address"
						}
					],
					"stateMutability": "nonpayable",
					"type": "constructor"
				},
				{
					"inputs": [
						{
							"internalType": "string",
							"name": "vid",
							"type": "string"
						},
						{
							"internalType": "address",
							"name": "template",
							"type": "address"
						},
						{
							"internalType": "uint256",
							"name": "price",
							"type": "uint256"
						},
						{
							"internalType": "LID",
							"name": "licenseId",
							"type": "uint256"
						}
					],
					"name": "addLicense",
					"outputs": [],
					"stateMutability": "nonpayable",
					"type": "function"
				},
				{
					"inputs": [
						{
							"internalType": "address",
							"name": "template",
							"type": "address"
						}
					],
					"name": "addTemplate",
					"outputs": [],
					"stateMutability": "nonpayable",
					"type": "function"
				},
				{
					"inputs": [
						{
							"internalType": "string",
							"name": "vid",
							"type": "string"
						},
						{
							"internalType": "address payable",
							"name": "licensor",
							"type": "address"
						},
						{
							"internalType": "uint256",
							"name": "nonce",
							"type": "uint256"
						},
						{
							"internalType": "bytes",
							"name": "signature",
							"type": "bytes"
						}
					],
					"name": "addVideo",
					"outputs": [],
					"stateMutability": "nonpayable",
					"type": "function"
				},
				{
					"inputs": [
						{
							"internalType": "string",
							"name": "vid",
							"type": "string"
						},
						{
							"internalType": "address payable",
							"name": "licensor",
							"type": "address"
						},
						{
							"internalType": "uint256",
							"name": "nonce",
							"type": "uint256"
						},
						{
							"internalType": "bytes",
							"name": "signature",
							"type": "bytes"
						},
						{
							"internalType": "address",
							"name": "template",
							"type": "address"
						},
						{
							"internalType": "uint256",
							"name": "price",
							"type": "uint256"
						},
						{
							"internalType": "LID",
							"name": "licenseId",
							"type": "uint256"
						}
					],
					"name": "addVideoWithLicense",
					"outputs": [],
					"stateMutability": "nonpayable",
					"type": "function"
				},
				{
					"inputs": [
						{
							"internalType": "LID",
							"name": "licenseId",
							"type": "uint256"
						},
						{
							"internalType": "uint256",
							"name": "nonce",
							"type": "uint256"
						},
						{
							"internalType": "bytes",
							"name": "signature",
							"type": "bytes"
						}
					],
					"name": "buyLicense",
					"outputs": [],
					"stateMutability": "payable",
					"type": "function"
				},
				{
					"inputs": [
						{
							"internalType": "LID",
							"name": "licenseId",
							"type": "uint256"
						},
						{
							"internalType": "address",
							"name": "licensee",
							"type": "address"
						}
					],
					"name": "composeLicense",
					"outputs": [
						{
							"internalType": "string",
							"name": "",
							"type": "string"
						}
					],
					"stateMutability": "view",
					"type": "function"
				},
				{
					"inputs": [
						{
							"internalType": "bytes32",
							"name": "_messageHash",
							"type": "bytes32"
						}
					],
					"name": "getEthSignedMessageHash",
					"outputs": [
						{
							"internalType": "bytes32",
							"name": "",
							"type": "bytes32"
						}
					],
					"stateMutability": "pure",
					"type": "function"
				},
				{
					"inputs": [
						{
							"internalType": "LID",
							"name": "licenseId",
							"type": "uint256"
						}
					],
					"name": "getLicenseOwner",
					"outputs": [
						{
							"internalType": "address payable",
							"name": "",
							"type": "address"
						}
					],
					"stateMutability": "view",
					"type": "function"
				},
				{
					"inputs": [
						{
							"internalType": "LID",
							"name": "licenseId",
							"type": "uint256"
						}
					],
					"name": "getLicensePrice",
					"outputs": [
						{
							"internalType": "uint256",
							"name": "",
							"type": "uint256"
						}
					],
					"stateMutability": "view",
					"type": "function"
				},
				{
					"inputs": [
						{
							"internalType": "LID",
							"name": "licenseId",
							"type": "uint256"
						}
					],
					"name": "getLicenseTemplate",
					"outputs": [
						{
							"internalType": "address",
							"name": "",
							"type": "address"
						}
					],
					"stateMutability": "view",
					"type": "function"
				},
				{
					"inputs": [
						{
							"internalType": "LID",
							"name": "licenseId",
							"type": "uint256"
						}
					],
					"name": "getLicenseVideo",
					"outputs": [
						{
							"internalType": "string",
							"name": "",
							"type": "string"
						}
					],
					"stateMutability": "view",
					"type": "function"
				},
				{
					"inputs": [
						{
							"internalType": "string",
							"name": "vid",
							"type": "string"
						},
						{
							"internalType": "address",
							"name": "licensee",
							"type": "address"
						}
					],
					"name": "getLicenseeLicenses",
					"outputs": [
						{
							"internalType": "LID[]",
							"name": "",
							"type": "uint256[]"
						}
					],
					"stateMutability": "view",
					"type": "function"
				},
				{
					"inputs": [
						{
							"internalType": "LID",
							"name": "licenseId",
							"type": "uint256"
						},
						{
							"internalType": "uint256",
							"name": "nonce",
							"type": "uint256"
						}
					],
					"name": "getLicenseeMessageHash",
					"outputs": [
						{
							"internalType": "bytes32",
							"name": "",
							"type": "bytes32"
						}
					],
					"stateMutability": "pure",
					"type": "function"
				},
				{
					"inputs": [
						{
							"internalType": "string",
							"name": "vid",
							"type": "string"
						},
						{
							"internalType": "uint256",
							"name": "nonce",
							"type": "uint256"
						}
					],
					"name": "getLicensorMessageHash",
					"outputs": [
						{
							"internalType": "bytes32",
							"name": "",
							"type": "bytes32"
						}
					],
					"stateMutability": "pure",
					"type": "function"
				},
				{
					"inputs": [
						{
							"internalType": "string",
							"name": "vid",
							"type": "string"
						}
					],
					"name": "getVideoOwner",
					"outputs": [
						{
							"internalType": "address",
							"name": "",
							"type": "address"
						}
					],
					"stateMutability": "view",
					"type": "function"
				},
				{
					"inputs": [],
					"name": "licenseeAgreement",
					"outputs": [
						{
							"internalType": "string",
							"name": "",
							"type": "string"
						}
					],
					"stateMutability": "view",
					"type": "function"
				},
				{
					"inputs": [],
					"name": "licensorAgreement",
					"outputs": [
						{
							"internalType": "string",
							"name": "",
							"type": "string"
						}
					],
					"stateMutability": "view",
					"type": "function"
				},
				{
					"inputs": [
						{
							"internalType": "bytes32",
							"name": "_ethSignedMessageHash",
							"type": "bytes32"
						},
						{
							"internalType": "bytes",
							"name": "_signature",
							"type": "bytes"
						}
					],
					"name": "recoverSigner",
					"outputs": [
						{
							"internalType": "address",
							"name": "",
							"type": "address"
						}
					],
					"stateMutability": "pure",
					"type": "function"
				},
				{
					"inputs": [
						{
							"internalType": "LID",
							"name": "licenseId",
							"type": "uint256"
						}
					],
					"name": "removeLicense",
					"outputs": [],
					"stateMutability": "nonpayable",
					"type": "function"
				},
				{
					"inputs": [
						{
							"internalType": "address",
							"name": "template",
							"type": "address"
						}
					],
					"name": "removeTemplate",
					"outputs": [],
					"stateMutability": "nonpayable",
					"type": "function"
				},
				{
					"inputs": [
						{
							"internalType": "bytes",
							"name": "sig",
							"type": "bytes"
						}
					],
					"name": "splitSignature",
					"outputs": [
						{
							"internalType": "bytes32",
							"name": "r",
							"type": "bytes32"
						},
						{
							"internalType": "bytes32",
							"name": "s",
							"type": "bytes32"
						},
						{
							"internalType": "uint8",
							"name": "v",
							"type": "uint8"
						}
					],
					"stateMutability": "pure",
					"type": "function"
				},
				{
					"inputs": [
						{
							"internalType": "address",
							"name": "owner",
							"type": "address"
						}
					],
					"name": "transferOwnership",
					"outputs": [],
					"stateMutability": "nonpayable",
					"type": "function"
				},
				{
					"inputs": [
						{
							"internalType": "address",
							"name": "signer",
							"type": "address"
						},
						{
							"internalType": "LID",
							"name": "licenseId",
							"type": "uint256"
						},
						{
							"internalType": "uint256",
							"name": "nonce",
							"type": "uint256"
						},
						{
							"internalType": "bytes",
							"name": "signature",
							"type": "bytes"
						}
					],
					"name": "verifyLicensee",
					"outputs": [
						{
							"internalType": "bool",
							"name": "",
							"type": "bool"
						}
					],
					"stateMutability": "pure",
					"type": "function"
				},
				{
					"inputs": [
						{
							"internalType": "address",
							"name": "signer",
							"type": "address"
						},
						{
							"internalType": "string",
							"name": "vid",
							"type": "string"
						},
						{
							"internalType": "uint256",
							"name": "nonce",
							"type": "uint256"
						},
						{
							"internalType": "bytes",
							"name": "signature",
							"type": "bytes"
						}
					],
					"name": "verifyLicensor",
					"outputs": [
						{
							"internalType": "bool",
							"name": "",
							"type": "bool"
						}
					],
					"stateMutability": "pure",
					"type": "function"
				}
			],
			"devdoc": {
				"kind": "dev",
				"methods": {},
				"version": 1
			},
			"evm": {
				"assembly": "    /* \"contracts/LicenseManager.sol\":129:9274  contract LicenseManager {... */\n  mstore(0x40, 0x80)\n    /* \"contracts/LicenseManager.sol\":191:251  constructor(address owner) {... */\n  callvalue\n  dup1\n  iszero\n  tag_1\n  jumpi\n  0x00\n  dup1\n  revert\ntag_1:\n  pop\n  mload(0x40)\n  sub(codesize, bytecodeSize)\n  dup1\n  bytecodeSize\n  dup4\n  codecopy\n  dup2\n  dup2\n  add\n  0x40\n  mstore\n  dup2\n  add\n  swap1\n  tag_2\n  swap2\n  swap1\n  tag_3\n  jump\t// in\ntag_2:\n    /* \"contracts/LicenseManager.sol\":238:243  owner */\n  dup1\n    /* \"contracts/LicenseManager.sol\":229:235  _owner */\n  0x00\n  dup1\n    /* \"contracts/LicenseManager.sol\":229:243  _owner = owner */\n  0x0100\n  exp\n  dup2\n  sload\n  dup2\n  0xffffffffffffffffffffffffffffffffffffffff\n  mul\n  not\n  and\n  swap1\n  dup4\n  0xffffffffffffffffffffffffffffffffffffffff\n  and\n  mul\n  or\n  swap1\n  sstore\n  pop\n    /* \"contracts/LicenseManager.sol\":191:251  constructor(address owner) {... */\n  pop\n    /* \"contracts/LicenseManager.sol\":129:9274  contract LicenseManager {... */\n  jump(tag_6)\n    /* \"#utility.yul\":88:205   */\ntag_8:\n    /* \"#utility.yul\":197:198   */\n  0x00\n    /* \"#utility.yul\":194:195   */\n  dup1\n    /* \"#utility.yul\":187:199   */\n  revert\n    /* \"#utility.yul\":334:460   */\ntag_10:\n    /* \"#utility.yul\":371:378   */\n  0x00\n    /* \"#utility.yul\":411:453   */\n  0xffffffffffffffffffffffffffffffffffffffff\n    /* \"#utility.yul\":404:409   */\n  dup3\n    /* \"#utility.yul\":400:454   */\n  and\n    /* \"#utility.yul\":389:454   */\n  swap1\n  pop\n    /* \"#utility.yul\":334:460   */\n  swap2\n  swap1\n  pop\n  jump\t// out\n    /* \"#utility.yul\":466:562   */\ntag_11:\n    /* \"#utility.yul\":503:510   */\n  0x00\n    /* \"#utility.yul\":532:556   */\n  tag_20\n    /* \"#utility.yul\":550:555   */\n  dup3\n    /* \"#utility.yul\":532:556   */\n  tag_10\n  jump\t// in\ntag_20:\n    /* \"#utility.yul\":521:556   */\n  swap1\n  pop\n    /* \"#utility.yul\":466:562   */\n  swap2\n  swap1\n  pop\n  jump\t// out\n    /* \"#utility.yul\":568:690   */\ntag_12:\n    /* \"#utility.yul\":641:665   */\n  tag_22\n    /* \"#utility.yul\":659:664   */\n  dup2\n    /* \"#utility.yul\":641:665   */\n  tag_11\n  jump\t// in\ntag_22:\n    /* \"#utility.yul\":634:639   */\n  dup2\n    /* \"#utility.yul\":631:666   */\n  eq\n    /* \"#utility.yul\":621:684   */\n  tag_23\n  jumpi\n    /* \"#utility.yul\":680:681   */\n  0x00\n    /* \"#utility.yul\":677:678   */\n  dup1\n    /* \"#utility.yul\":670:682   */\n  revert\n    /* \"#utility.yul\":621:684   */\ntag_23:\n    /* \"#utility.yul\":568:690   */\n  pop\n  jump\t// out\n    /* \"#utility.yul\":696:839   */\ntag_13:\n    /* \"#utility.yul\":753:758   */\n  0x00\n    /* \"#utility.yul\":784:790   */\n  dup2\n    /* \"#utility.yul\":778:791   */\n  mload\n    /* \"#utility.yul\":769:791   */\n  swap1\n  pop\n    /* \"#utility.yul\":800:833   */\n  tag_25\n    /* \"#utility.yul\":827:832   */\n  dup2\n    /* \"#utility.yul\":800:833   */\n  tag_12\n  jump\t// in\ntag_25:\n    /* \"#utility.yul\":696:839   */\n  swap3\n  swap2\n  pop\n  pop\n  jump\t// out\n    /* \"#utility.yul\":845:1196   */\ntag_3:\n    /* \"#utility.yul\":915:921   */\n  0x00\n    /* \"#utility.yul\":964:966   */\n  0x20\n    /* \"#utility.yul\":952:961   */\n  dup3\n    /* \"#utility.yul\":943:950   */\n  dup5\n    /* \"#utility.yul\":939:962   */\n  sub\n    /* \"#utility.yul\":935:967   */\n  slt\n    /* \"#utility.yul\":932:1051   */\n  iszero\n  tag_27\n  jumpi\n    /* \"#utility.yul\":970:1049   */\n  tag_28\n  tag_8\n  jump\t// in\ntag_28:\n    /* \"#utility.yul\":932:1051   */\ntag_27:\n    /* \"#utility.yul\":1090:1091   */\n  0x00\n    /* \"#utility.yul\":1115:1179   */\n  tag_29\n    /* \"#utility.yul\":1171:1178   */\n  dup5\n    /* \"#utility.yul\":1162:1168   */\n  dup3\n    /* \"#utility.yul\":1151:1160   */\n  dup6\n    /* \"#utility.yul\":1147:1169   */\n  add\n    /* \"#utility.yul\":1115:1179   */\n  tag_13\n  jump\t// in\ntag_29:\n    /* \"#utility.yul\":1105:1179   */\n  swap2\n  pop\n    /* \"#utility.yul\":1061:1189   */\n  pop\n    /* \"#utility.yul\":845:1196   */\n  swap3\n  swap2\n  pop\n  pop\n  jump\t// out\n    /* \"contracts/LicenseManager.sol\":129:9274  contract LicenseManager {... */\ntag_6:\n  dataSize(sub_0)\n  dup1\n  dataOffset(sub_0)\n  0x00\n  codecopy\n  0x00\n  return\nstop\n\nsub_0: assembly {\n        /* \"contracts/LicenseManager.sol\":129:9274  contract LicenseManager {... */\n      mstore(0x40, 0x80)\n      jumpi(tag_1, lt(calldatasize, 0x04))\n      shr(0xe0, calldataload(0x00))\n      dup1\n      0x76b1d966\n      gt\n      tag_26\n      jumpi\n      dup1\n      0xb033c13a\n      gt\n      tag_27\n      jumpi\n      dup1\n      0xb033c13a\n      eq\n      tag_20\n      jumpi\n      dup1\n      0xb6c00a82\n      eq\n      tag_21\n      jumpi\n      dup1\n      0xe946af59\n      eq\n      tag_22\n      jumpi\n      dup1\n      0xf2fde38b\n      eq\n      tag_23\n      jumpi\n      dup1\n      0xfa540801\n      eq\n      tag_24\n      jumpi\n      dup1\n      0xfe744a39\n      eq\n      tag_25\n      jumpi\n      jump(tag_1)\n    tag_27:\n      dup1\n      0x76b1d966\n      eq\n      tag_14\n      jumpi\n      dup1\n      0x96fcc1ae\n      eq\n      tag_15\n      jumpi\n      dup1\n      0x976662b0\n      eq\n      tag_16\n      jumpi\n      dup1\n      0x97aba7f9\n      eq\n      tag_17\n      jumpi\n      dup1\n      0x99911abe\n      eq\n      tag_18\n      jumpi\n      dup1\n      0xa7bb5803\n      eq\n      tag_19\n      jumpi\n      jump(tag_1)\n    tag_26:\n      dup1\n      0x45402a4d\n      gt\n      tag_28\n      jumpi\n      dup1\n      0x45402a4d\n      eq\n      tag_8\n      jumpi\n      dup1\n      0x55b30266\n      eq\n      tag_9\n      jumpi\n      dup1\n      0x5867f3a8\n      eq\n      tag_10\n      jumpi\n      dup1\n      0x66527f1c\n      eq\n      tag_11\n      jumpi\n      dup1\n      0x70d8677f\n      eq\n      tag_12\n      jumpi\n      dup1\n      0x73451439\n      eq\n      tag_13\n      jumpi\n      jump(tag_1)\n    tag_28:\n      dup1\n      0xf23fc1\n      eq\n      tag_2\n      jumpi\n      dup1\n      0x0e15c62a\n      eq\n      tag_3\n      jumpi\n      dup1\n      0x1e7fd268\n      eq\n      tag_4\n      jumpi\n      dup1\n      0x2437e7eb\n      eq\n      tag_5\n      jumpi\n      dup1\n      0x3e340e2d\n      eq\n      tag_6\n      jumpi\n      dup1\n      0x41befbd1\n      eq\n      tag_7\n      jumpi\n    tag_1:\n      0x00\n      dup1\n      revert\n        /* \"contracts/LicenseManager.sol\":4935:5545  function buyLicense(LID licenseId, uint256 nonce, bytes memory signature) public payable licenseActive(licenseId) {... */\n    tag_2:\n      tag_29\n      0x04\n      dup1\n      calldatasize\n      sub\n      dup2\n      add\n      swap1\n      tag_30\n      swap2\n      swap1\n      tag_31\n      jump\t// in\n    tag_30:\n      tag_32\n      jump\t// in\n    tag_29:\n      stop\n        /* \"contracts/LicenseManager.sol\":4699:4848  string constant public licenseeAgreement = \"I certify that I am the licensee of the video agreement and agree to all terms defined in the agreement.\" */\n    tag_3:\n      callvalue\n      dup1\n      iszero\n      tag_33\n      jumpi\n      0x00\n      dup1\n      revert\n    tag_33:\n      pop\n      tag_34\n      tag_35\n      jump\t// in\n    tag_34:\n      mload(0x40)\n      tag_36\n      swap2\n      swap1\n      tag_37\n      jump\t// in\n    tag_36:\n      mload(0x40)\n      dup1\n      swap2\n      sub\n      swap1\n      return\n        /* \"contracts/LicenseManager.sol\":4193:4361  function getLicenseOwner(LID licenseId) public view licenseActive(licenseId) returns(address payable ) {... */\n    tag_4:\n      callvalue\n      dup1\n      iszero\n      tag_38\n      jumpi\n      0x00\n      dup1\n      revert\n    tag_38:\n      pop\n      tag_39\n      0x04\n      dup1\n      calldatasize\n      sub\n      dup2\n      add\n      swap1\n      tag_40\n      swap2\n      swap1\n      tag_41\n      jump\t// in\n    tag_40:\n      tag_42\n      jump\t// in\n    tag_39:\n      mload(0x40)\n      tag_43\n      swap2\n      swap1\n      tag_44\n      jump\t// in\n    tag_43:\n      mload(0x40)\n      dup1\n      swap2\n      sub\n      swap1\n      return\n        /* \"contracts/LicenseManager.sol\":7097:7277  function getLicensorMessageHash(string memory vid, uint256 nonce) public pure returns (bytes32) {... */\n    tag_5:\n      callvalue\n      dup1\n      iszero\n      tag_45\n      jumpi\n      0x00\n      dup1\n      revert\n    tag_45:\n      pop\n      tag_46\n      0x04\n      dup1\n      calldatasize\n      sub\n      dup2\n      add\n      swap1\n      tag_47\n      swap2\n      swap1\n      tag_48\n      jump\t// in\n    tag_47:\n      tag_49\n      jump\t// in\n    tag_46:\n      mload(0x40)\n      tag_50\n      swap2\n      swap1\n      tag_51\n      jump\t// in\n    tag_50:\n      mload(0x40)\n      dup1\n      swap2\n      sub\n      swap1\n      return\n        /* \"contracts/LicenseManager.sol\":1863:1977  function getVideoOwner(string memory vid) public view returns(address) {... */\n    tag_6:\n      callvalue\n      dup1\n      iszero\n      tag_52\n      jumpi\n      0x00\n      dup1\n      revert\n    tag_52:\n      pop\n      tag_53\n      0x04\n      dup1\n      calldatasize\n      sub\n      dup2\n      add\n      swap1\n      tag_54\n      swap2\n      swap1\n      tag_55\n      jump\t// in\n    tag_54:\n      tag_56\n      jump\t// in\n    tag_53:\n      mload(0x40)\n      tag_57\n      swap2\n      swap1\n      tag_58\n      jump\t// in\n    tag_57:\n      mload(0x40)\n      dup1\n      swap2\n      sub\n      swap1\n      return\n        /* \"contracts/LicenseManager.sol\":4034:4185  function getLicenseVideo(LID licenseId) public view licenseActive(licenseId) returns(string memory) {... */\n    tag_7:\n      callvalue\n      dup1\n      iszero\n      tag_59\n      jumpi\n      0x00\n      dup1\n      revert\n    tag_59:\n      pop\n      tag_60\n      0x04\n      dup1\n      calldatasize\n      sub\n      dup2\n      add\n      swap1\n      tag_61\n      swap2\n      swap1\n      tag_41\n      jump\t// in\n    tag_61:\n      tag_62\n      jump\t// in\n    tag_60:\n      mload(0x40)\n      tag_63\n      swap2\n      swap1\n      tag_37\n      jump\t// in\n    tag_63:\n      mload(0x40)\n      dup1\n      swap2\n      sub\n      swap1\n      return\n        /* \"contracts/LicenseManager.sol\":5553:6047  function getLicenseeLicenses(string memory vid, address licensee) public videoExist(vid) view returns(LID[] memory) {... */\n    tag_8:\n      callvalue\n      dup1\n      iszero\n      tag_64\n      jumpi\n      0x00\n      dup1\n      revert\n    tag_64:\n      pop\n      tag_65\n      0x04\n      dup1\n      calldatasize\n      sub\n      dup2\n      add\n      swap1\n      tag_66\n      swap2\n      swap1\n      tag_67\n      jump\t// in\n    tag_66:\n      tag_68\n      jump\t// in\n    tag_65:\n      mload(0x40)\n      tag_69\n      swap2\n      swap1\n      tag_70\n      jump\t// in\n    tag_69:\n      mload(0x40)\n      dup1\n      swap2\n      sub\n      swap1\n      return\n        /* \"contracts/LicenseManager.sol\":698:800  function addTemplate(address template) public onlyOwner {... */\n    tag_9:\n      callvalue\n      dup1\n      iszero\n      tag_71\n      jumpi\n      0x00\n      dup1\n      revert\n    tag_71:\n      pop\n      tag_72\n      0x04\n      dup1\n      calldatasize\n      sub\n      dup2\n      add\n      swap1\n      tag_73\n      swap2\n      swap1\n      tag_74\n      jump\t// in\n    tag_73:\n      tag_75\n      jump\t// in\n    tag_72:\n      stop\n        /* \"contracts/LicenseManager.sol\":7837:8193  function verifyLicensee(address signer, LID licenseId, uint256 nonce, bytes memory signature) public pure returns (bool) {... */\n    tag_10:\n      callvalue\n      dup1\n      iszero\n      tag_76\n      jumpi\n      0x00\n      dup1\n      revert\n    tag_76:\n      pop\n      tag_77\n      0x04\n      dup1\n      calldatasize\n      sub\n      dup2\n      add\n      swap1\n      tag_78\n      swap2\n      swap1\n      tag_79\n      jump\t// in\n    tag_78:\n      tag_80\n      jump\t// in\n    tag_77:\n      mload(0x40)\n      tag_81\n      swap2\n      swap1\n      tag_82\n      jump\t// in\n    tag_81:\n      mload(0x40)\n      dup1\n      swap2\n      sub\n      swap1\n      return\n        /* \"contracts/LicenseManager.sol\":922:1071  string constant public licensorAgreement = \"I certify that I am the licensor of the video agreement and agree to all terms defined in the agreement.\" */\n    tag_11:\n      callvalue\n      dup1\n      iszero\n      tag_83\n      jumpi\n      0x00\n      dup1\n      revert\n    tag_83:\n      pop\n      tag_84\n      tag_85\n      jump\t// in\n    tag_84:\n      mload(0x40)\n      tag_86\n      swap2\n      swap1\n      tag_37\n      jump\t// in\n    tag_86:\n      mload(0x40)\n      dup1\n      swap2\n      sub\n      swap1\n      return\n        /* \"contracts/LicenseManager.sol\":3021:3375  function addLicense(string memory vid, address template, uint256 price, LID licenseId) public videoExist(vid) templateExists(template) {... */\n    tag_12:\n      callvalue\n      dup1\n      iszero\n      tag_87\n      jumpi\n      0x00\n      dup1\n      revert\n    tag_87:\n      pop\n      tag_88\n      0x04\n      dup1\n      calldatasize\n      sub\n      dup2\n      add\n      swap1\n      tag_89\n      swap2\n      swap1\n      tag_90\n      jump\t// in\n    tag_89:\n      tag_91\n      jump\t// in\n    tag_88:\n      stop\n        /* \"contracts/LicenseManager.sol\":7647:7829  function getLicenseeMessageHash(LID licenseId, uint256 nonce) public pure returns (bytes32) {... */\n    tag_13:\n      callvalue\n      dup1\n      iszero\n      tag_92\n      jumpi\n      0x00\n      dup1\n      revert\n    tag_92:\n      pop\n      tag_93\n      0x04\n      dup1\n      calldatasize\n      sub\n      dup2\n      add\n      swap1\n      tag_94\n      swap2\n      swap1\n      tag_95\n      jump\t// in\n    tag_94:\n      tag_96\n      jump\t// in\n    tag_93:\n      mload(0x40)\n      tag_97\n      swap2\n      swap1\n      tag_51\n      jump\t// in\n    tag_97:\n      mload(0x40)\n      dup1\n      swap2\n      sub\n      swap1\n      return\n        /* \"contracts/LicenseManager.sol\":1985:2437  function addVideo(string memory vid, address payable licensor, uint256 nonce, bytes memory signature) public onlyOwner {... */\n    tag_14:\n      callvalue\n      dup1\n      iszero\n      tag_98\n      jumpi\n      0x00\n      dup1\n      revert\n    tag_98:\n      pop\n      tag_99\n      0x04\n      dup1\n      calldatasize\n      sub\n      dup2\n      add\n      swap1\n      tag_100\n      swap2\n      swap1\n      tag_101\n      jump\t// in\n    tag_100:\n      tag_102\n      jump\t// in\n    tag_99:\n      stop\n        /* \"contracts/LicenseManager.sol\":7285:7639  function verifyLicensor(address signer, string memory vid, uint256 nonce, bytes memory signature) public pure returns (bool) {... */\n    tag_15:\n      callvalue\n      dup1\n      iszero\n      tag_103\n      jumpi\n      0x00\n      dup1\n      revert\n    tag_103:\n      pop\n      tag_104\n      0x04\n      dup1\n      calldatasize\n      sub\n      dup2\n      add\n      swap1\n      tag_105\n      swap2\n      swap1\n      tag_106\n      jump\t// in\n    tag_105:\n      tag_107\n      jump\t// in\n    tag_104:\n      mload(0x40)\n      tag_108\n      swap2\n      swap1\n      tag_82\n      jump\t// in\n    tag_108:\n      mload(0x40)\n      dup1\n      swap2\n      sub\n      swap1\n      return\n        /* \"contracts/LicenseManager.sol\":6055:6675  function composeLicense(LID licenseId, address licensee) public licenseActive(licenseId) view returns(string memory) {... */\n    tag_16:\n      callvalue\n      dup1\n      iszero\n      tag_109\n      jumpi\n      0x00\n      dup1\n      revert\n    tag_109:\n      pop\n      tag_110\n      0x04\n      dup1\n      calldatasize\n      sub\n      dup2\n      add\n      swap1\n      tag_111\n      swap2\n      swap1\n      tag_112\n      jump\t// in\n    tag_111:\n      tag_113\n      jump\t// in\n    tag_110:\n      mload(0x40)\n      tag_114\n      swap2\n      swap1\n      tag_37\n      jump\t// in\n    tag_114:\n      mload(0x40)\n      dup1\n      swap2\n      sub\n      swap1\n      return\n        /* \"contracts/LicenseManager.sol\":8201:8450  function recoverSigner(bytes32 _ethSignedMessageHash, bytes memory _signature) public pure returns (address) {... */\n    tag_17:\n      callvalue\n      dup1\n      iszero\n      tag_115\n      jumpi\n      0x00\n      dup1\n      revert\n    tag_115:\n      pop\n      tag_116\n      0x04\n      dup1\n      calldatasize\n      sub\n      dup2\n      add\n      swap1\n      tag_117\n      swap2\n      swap1\n      tag_118\n      jump\t// in\n    tag_117:\n      tag_119\n      jump\t// in\n    tag_116:\n      mload(0x40)\n      tag_120\n      swap2\n      swap1\n      tag_58\n      jump\t// in\n    tag_120:\n      mload(0x40)\n      dup1\n      swap2\n      sub\n      swap1\n      return\n        /* \"contracts/LicenseManager.sol\":3791:4001  function removeLicense(LID licenseId) public licenseActive(licenseId) {... */\n    tag_18:\n      callvalue\n      dup1\n      iszero\n      tag_121\n      jumpi\n      0x00\n      dup1\n      revert\n    tag_121:\n      pop\n      tag_122\n      0x04\n      dup1\n      calldatasize\n      sub\n      dup2\n      add\n      swap1\n      tag_123\n      swap2\n      swap1\n      tag_41\n      jump\t// in\n    tag_123:\n      tag_124\n      jump\t// in\n    tag_122:\n      stop\n        /* \"contracts/LicenseManager.sol\":8458:9267  function splitSignature(bytes memory sig) public pure returns (bytes32 r, bytes32 s, uint8 v) {... */\n    tag_19:\n      callvalue\n      dup1\n      iszero\n      tag_125\n      jumpi\n      0x00\n      dup1\n      revert\n    tag_125:\n      pop\n      tag_126\n      0x04\n      dup1\n      calldatasize\n      sub\n      dup2\n      add\n      swap1\n      tag_127\n      swap2\n      swap1\n      tag_128\n      jump\t// in\n    tag_127:\n      tag_129\n      jump\t// in\n    tag_126:\n      mload(0x40)\n      tag_130\n      swap4\n      swap3\n      swap2\n      swap1\n      tag_131\n      jump\t// in\n    tag_130:\n      mload(0x40)\n      dup1\n      swap2\n      sub\n      swap1\n      return\n        /* \"contracts/LicenseManager.sol\":4522:4673  function getLicenseTemplate(LID licenseId) public view licenseActive(licenseId) returns(address) {... */\n    tag_20:\n      callvalue\n      dup1\n      iszero\n      tag_132\n      jumpi\n      0x00\n      dup1\n      revert\n    tag_132:\n      pop\n      tag_133\n      0x04\n      dup1\n      calldatasize\n      sub\n      dup2\n      add\n      swap1\n      tag_134\n      swap2\n      swap1\n      tag_41\n      jump\t// in\n    tag_134:\n      tag_135\n      jump\t// in\n    tag_133:\n      mload(0x40)\n      tag_136\n      swap2\n      swap1\n      tag_58\n      jump\t// in\n    tag_136:\n      mload(0x40)\n      dup1\n      swap2\n      sub\n      swap1\n      return\n        /* \"contracts/LicenseManager.sol\":4369:4514  function getLicensePrice(LID licenseId) public view licenseActive(licenseId) returns(uint256) {... */\n    tag_21:\n      callvalue\n      dup1\n      iszero\n      tag_137\n      jumpi\n      0x00\n      dup1\n      revert\n    tag_137:\n      pop\n      tag_138\n      0x04\n      dup1\n      calldatasize\n      sub\n      dup2\n      add\n      swap1\n      tag_139\n      swap2\n      swap1\n      tag_41\n      jump\t// in\n    tag_139:\n      tag_140\n      jump\t// in\n    tag_138:\n      mload(0x40)\n      tag_141\n      swap2\n      swap1\n      tag_142\n      jump\t// in\n    tag_141:\n      mload(0x40)\n      dup1\n      swap2\n      sub\n      swap1\n      return\n        /* \"contracts/LicenseManager.sol\":808:914  function removeTemplate(address template) public onlyOwner {... */\n    tag_22:\n      callvalue\n      dup1\n      iszero\n      tag_143\n      jumpi\n      0x00\n      dup1\n      revert\n    tag_143:\n      pop\n      tag_144\n      0x04\n      dup1\n      calldatasize\n      sub\n      dup2\n      add\n      swap1\n      tag_145\n      swap2\n      swap1\n      tag_74\n      jump\t// in\n    tag_145:\n      tag_146\n      jump\t// in\n    tag_144:\n      stop\n        /* \"contracts/LicenseManager.sol\":377:471  function transferOwnership(address owner) public onlyOwner() {... */\n    tag_23:\n      callvalue\n      dup1\n      iszero\n      tag_147\n      jumpi\n      0x00\n      dup1\n      revert\n    tag_147:\n      pop\n      tag_148\n      0x04\n      dup1\n      calldatasize\n      sub\n      dup2\n      add\n      swap1\n      tag_149\n      swap2\n      swap1\n      tag_74\n      jump\t// in\n    tag_149:\n      tag_150\n      jump\t// in\n    tag_148:\n      stop\n        /* \"contracts/LicenseManager.sol\":6709:7089  function getEthSignedMessageHash(bytes32 _messageHash) public pure returns (bytes32) {... */\n    tag_24:\n      callvalue\n      dup1\n      iszero\n      tag_151\n      jumpi\n      0x00\n      dup1\n      revert\n    tag_151:\n      pop\n      tag_152\n      0x04\n      dup1\n      calldatasize\n      sub\n      dup2\n      add\n      swap1\n      tag_153\n      swap2\n      swap1\n      tag_154\n      jump\t// in\n    tag_153:\n      tag_155\n      jump\t// in\n    tag_152:\n      mload(0x40)\n      tag_156\n      swap2\n      swap1\n      tag_51\n      jump\t// in\n    tag_156:\n      mload(0x40)\n      dup1\n      swap2\n      sub\n      swap1\n      return\n        /* \"contracts/LicenseManager.sol\":3383:3783  function addVideoWithLicense(string memory vid, address payable licensor, uint256 nonce, bytes memory signature, address template, uint256 price, LID licenseId) public onlyOwner templateExists(template) {... */\n    tag_25:\n      callvalue\n      dup1\n      iszero\n      tag_157\n      jumpi\n      0x00\n      dup1\n      revert\n    tag_157:\n      pop\n      tag_158\n      0x04\n      dup1\n      calldatasize\n      sub\n      dup2\n      add\n      swap1\n      tag_159\n      swap2\n      swap1\n      tag_160\n      jump\t// in\n    tag_159:\n      tag_161\n      jump\t// in\n    tag_158:\n      stop\n        /* \"contracts/LicenseManager.sol\":4935:5545  function buyLicense(LID licenseId, uint256 nonce, bytes memory signature) public payable licenseActive(licenseId) {... */\n    tag_32:\n        /* \"contracts/LicenseManager.sol\":5038:5047  licenseId */\n      dup3\n        /* \"contracts/LicenseManager.sol\":1779:1796  _licenseActivated */\n      0x06\n        /* \"contracts/LicenseManager.sol\":1779:1807  _licenseActivated[licenseId] */\n      0x00\n        /* \"contracts/LicenseManager.sol\":1797:1806  licenseId */\n      dup3\n        /* \"contracts/LicenseManager.sol\":1779:1807  _licenseActivated[licenseId] */\n      dup2\n      mstore\n      0x20\n      add\n      swap1\n      dup2\n      mstore\n      0x20\n      add\n      0x00\n      keccak256\n      0x00\n      swap1\n      sload\n      swap1\n      0x0100\n      exp\n      swap1\n      div\n      0xff\n      and\n        /* \"contracts/LicenseManager.sol\":1771:1833  require(_licenseActivated[licenseId], \"license doesn't exist\") */\n      tag_163\n      jumpi\n      mload(0x40)\n      0x08c379a000000000000000000000000000000000000000000000000000000000\n      dup2\n      mstore\n      0x04\n      add\n      tag_164\n      swap1\n      tag_165\n      jump\t// in\n    tag_164:\n      mload(0x40)\n      dup1\n      swap2\n      sub\n      swap1\n      revert\n    tag_163:\n        /* \"contracts/LicenseManager.sol\":5081:5085  this */\n      address\n        /* \"contracts/LicenseManager.sol\":5081:5101  this.getLicensePrice */\n      0xffffffffffffffffffffffffffffffffffffffff\n      and\n      0xb6c00a82\n        /* \"contracts/LicenseManager.sol\":5102:5111  licenseId */\n      dup6\n        /* \"contracts/LicenseManager.sol\":5081:5112  this.getLicensePrice(licenseId) */\n      mload(0x40)\n      dup3\n      0xffffffff\n      and\n      0xe0\n      shl\n      dup2\n      mstore\n      0x04\n      add\n      tag_167\n      swap2\n      swap1\n      tag_168\n      jump\t// in\n    tag_167:\n      0x20\n      mload(0x40)\n      dup1\n      dup4\n      sub\n      dup2\n      dup7\n      gas\n      staticcall\n      iszero\n      dup1\n      iszero\n      tag_170\n      jumpi\n      returndatasize\n      0x00\n      dup1\n      returndatacopy\n      revert(0x00, returndatasize)\n    tag_170:\n      pop\n      pop\n      pop\n      pop\n      mload(0x40)\n      returndatasize\n      not(0x1f)\n      0x1f\n      dup3\n      add\n      and\n      dup3\n      add\n      dup1\n      0x40\n      mstore\n      pop\n      dup2\n      add\n      swap1\n      tag_171\n      swap2\n      swap1\n      tag_172\n      jump\t// in\n    tag_171:\n        /* \"contracts/LicenseManager.sol\":5068:5077  msg.value */\n      callvalue\n        /* \"contracts/LicenseManager.sol\":5068:5112  msg.value >= this.getLicensePrice(licenseId) */\n      lt\n      iszero\n        /* \"contracts/LicenseManager.sol\":5060:5133  require(msg.value >= this.getLicensePrice(licenseId), \"not enough ether\") */\n      tag_173\n      jumpi\n      mload(0x40)\n      0x08c379a000000000000000000000000000000000000000000000000000000000\n      dup2\n      mstore\n      0x04\n      add\n      tag_174\n      swap1\n      tag_175\n      jump\t// in\n    tag_174:\n      mload(0x40)\n      dup1\n      swap2\n      sub\n      swap1\n      revert\n    tag_173:\n        /* \"contracts/LicenseManager.sol\":5152:5156  this */\n      address\n        /* \"contracts/LicenseManager.sol\":5152:5171  this.verifyLicensee */\n      0xffffffffffffffffffffffffffffffffffffffff\n      and\n      0x5867f3a8\n        /* \"contracts/LicenseManager.sol\":5172:5182  msg.sender */\n      caller\n        /* \"contracts/LicenseManager.sol\":5184:5193  licenseId */\n      dup7\n        /* \"contracts/LicenseManager.sol\":5195:5200  nonce */\n      dup7\n        /* \"contracts/LicenseManager.sol\":5202:5211  signature */\n      dup7\n        /* \"contracts/LicenseManager.sol\":5152:5212  this.verifyLicensee(msg.sender, licenseId, nonce, signature) */\n      mload(0x40)\n      dup6\n      0xffffffff\n      and\n      0xe0\n      shl\n      dup2\n      mstore\n      0x04\n      add\n      tag_176\n      swap5\n      swap4\n      swap3\n      swap2\n      swap1\n      tag_177\n      jump\t// in\n    tag_176:\n      0x20\n      mload(0x40)\n      dup1\n      dup4\n      sub\n      dup2\n      dup7\n      gas\n      staticcall\n      iszero\n      dup1\n      iszero\n      tag_179\n      jumpi\n      returndatasize\n      0x00\n      dup1\n      returndatacopy\n      revert(0x00, returndatasize)\n    tag_179:\n      pop\n      pop\n      pop\n      pop\n      mload(0x40)\n      returndatasize\n      not(0x1f)\n      0x1f\n      dup3\n      add\n      and\n      dup3\n      add\n      dup1\n      0x40\n      mstore\n      pop\n      dup2\n      add\n      swap1\n      tag_180\n      swap2\n      swap1\n      tag_181\n      jump\t// in\n    tag_180:\n        /* \"contracts/LicenseManager.sol\":5144:5243  require(this.verifyLicensee(msg.sender, licenseId, nonce, signature), \"invalid licensee signature\") */\n      tag_182\n      jumpi\n      mload(0x40)\n      0x08c379a000000000000000000000000000000000000000000000000000000000\n      dup2\n      mstore\n      0x04\n      add\n      tag_183\n      swap1\n      tag_184\n      jump\t// in\n    tag_183:\n      mload(0x40)\n      dup1\n      swap2\n      sub\n      swap1\n      revert\n    tag_182:\n        /* \"contracts/LicenseManager.sol\":5256:5269  uint256 price */\n      0x00\n        /* \"contracts/LicenseManager.sol\":5272:5276  this */\n      address\n        /* \"contracts/LicenseManager.sol\":5272:5292  this.getLicensePrice */\n      0xffffffffffffffffffffffffffffffffffffffff\n      and\n      0xb6c00a82\n        /* \"contracts/LicenseManager.sol\":5293:5302  licenseId */\n      dup7\n        /* \"contracts/LicenseManager.sol\":5272:5303  this.getLicensePrice(licenseId) */\n      mload(0x40)\n      dup3\n      0xffffffff\n      and\n      0xe0\n      shl\n      dup2\n      mstore\n      0x04\n      add\n      tag_185\n      swap2\n      swap1\n      tag_168\n      jump\t// in\n    tag_185:\n      0x20\n      mload(0x40)\n      dup1\n      dup4\n      sub\n      dup2\n      dup7\n      gas\n      staticcall\n      iszero\n      dup1\n      iszero\n      tag_187\n      jumpi\n      returndatasize\n      0x00\n      dup1\n      returndatacopy\n      revert(0x00, returndatasize)\n    tag_187:\n      pop\n      pop\n      pop\n      pop\n      mload(0x40)\n      returndatasize\n      not(0x1f)\n      0x1f\n      dup3\n      add\n      and\n      dup3\n      add\n      dup1\n      0x40\n      mstore\n      pop\n      dup2\n      add\n      swap1\n      tag_188\n      swap2\n      swap1\n      tag_172\n      jump\t// in\n    tag_188:\n        /* \"contracts/LicenseManager.sol\":5256:5303  uint256 price = this.getLicensePrice(licenseId) */\n      swap1\n      pop\n        /* \"contracts/LicenseManager.sol\":5314:5332  address payable to */\n      0x00\n        /* \"contracts/LicenseManager.sol\":5335:5339  this */\n      address\n        /* \"contracts/LicenseManager.sol\":5335:5355  this.getLicenseOwner */\n      0xffffffffffffffffffffffffffffffffffffffff\n      and\n      0x1e7fd268\n        /* \"contracts/LicenseManager.sol\":5356:5365  licenseId */\n      dup8\n        /* \"contracts/LicenseManager.sol\":5335:5366  this.getLicenseOwner(licenseId) */\n      mload(0x40)\n      dup3\n      0xffffffff\n      and\n      0xe0\n      shl\n      dup2\n      mstore\n      0x04\n      add\n      tag_189\n      swap2\n      swap1\n      tag_168\n      jump\t// in\n    tag_189:\n      0x20\n      mload(0x40)\n      dup1\n      dup4\n      sub\n      dup2\n      dup7\n      gas\n      staticcall\n      iszero\n      dup1\n      iszero\n      tag_191\n      jumpi\n      returndatasize\n      0x00\n      dup1\n      returndatacopy\n      revert(0x00, returndatasize)\n    tag_191:\n      pop\n      pop\n      pop\n      pop\n      mload(0x40)\n      returndatasize\n      not(0x1f)\n      0x1f\n      dup3\n      add\n      and\n      dup3\n      add\n      dup1\n      0x40\n      mstore\n      pop\n      dup2\n      add\n      swap1\n      tag_192\n      swap2\n      swap1\n      tag_193\n      jump\t// in\n    tag_192:\n        /* \"contracts/LicenseManager.sol\":5314:5366  address payable to = this.getLicenseOwner(licenseId) */\n      swap1\n      pop\n        /* \"contracts/LicenseManager.sol\":5378:5387  bool sent */\n      0x00\n        /* \"contracts/LicenseManager.sol\":5393:5395  to */\n      dup2\n        /* \"contracts/LicenseManager.sol\":5393:5400  to.call */\n      0xffffffffffffffffffffffffffffffffffffffff\n      and\n        /* \"contracts/LicenseManager.sol\":5408:5413  price */\n      dup4\n        /* \"contracts/LicenseManager.sol\":5393:5418  to.call{value: price}(\"\") */\n      mload(0x40)\n      tag_194\n      swap1\n      tag_195\n      jump\t// in\n    tag_194:\n      0x00\n      mload(0x40)\n      dup1\n      dup4\n      sub\n      dup2\n      dup6\n      dup8\n      gas\n      call\n      swap3\n      pop\n      pop\n      pop\n      returndatasize\n      dup1\n      0x00\n      dup2\n      eq\n      tag_198\n      jumpi\n      mload(0x40)\n      swap2\n      pop\n      and(add(returndatasize, 0x3f), not(0x1f))\n      dup3\n      add\n      0x40\n      mstore\n      returndatasize\n      dup3\n      mstore\n      returndatasize\n      0x00\n      0x20\n      dup5\n      add\n      returndatacopy\n      jump(tag_197)\n    tag_198:\n      0x60\n      swap2\n      pop\n    tag_197:\n      pop\n        /* \"contracts/LicenseManager.sol\":5377:5418  (bool sent, ) = to.call{value: price}(\"\") */\n      pop\n      swap1\n      pop\n        /* \"contracts/LicenseManager.sol\":5437:5441  sent */\n      dup1\n        /* \"contracts/LicenseManager.sol\":5429:5466  require(sent, \"failed to send ether\") */\n      tag_199\n      jumpi\n      mload(0x40)\n      0x08c379a000000000000000000000000000000000000000000000000000000000\n      dup2\n      mstore\n      0x04\n      add\n      tag_200\n      swap1\n      tag_201\n      jump\t// in\n    tag_200:\n      mload(0x40)\n      dup1\n      swap2\n      sub\n      swap1\n      revert\n    tag_199:\n        /* \"contracts/LicenseManager.sol\":5522:5537  block.timestamp */\n      timestamp\n        /* \"contracts/LicenseManager.sol\":5479:5496  _licenseLicensees */\n      0x0a\n        /* \"contracts/LicenseManager.sol\":5479:5507  _licenseLicensees[licenseId] */\n      0x00\n        /* \"contracts/LicenseManager.sol\":5497:5506  licenseId */\n      dup10\n        /* \"contracts/LicenseManager.sol\":5479:5507  _licenseLicensees[licenseId] */\n      dup2\n      mstore\n      0x20\n      add\n      swap1\n      dup2\n      mstore\n      0x20\n      add\n      0x00\n      keccak256\n        /* \"contracts/LicenseManager.sol\":5479:5519  _licenseLicensees[licenseId][msg.sender] */\n      0x00\n        /* \"contracts/LicenseManager.sol\":5508:5518  msg.sender */\n      caller\n        /* \"contracts/LicenseManager.sol\":5479:5519  _licenseLicensees[licenseId][msg.sender] */\n      0xffffffffffffffffffffffffffffffffffffffff\n      and\n      0xffffffffffffffffffffffffffffffffffffffff\n      and\n      dup2\n      mstore\n      0x20\n      add\n      swap1\n      dup2\n      mstore\n      0x20\n      add\n      0x00\n      keccak256\n        /* \"contracts/LicenseManager.sol\":5479:5537  _licenseLicensees[licenseId][msg.sender] = block.timestamp */\n      dup2\n      swap1\n      sstore\n      pop\n        /* \"contracts/LicenseManager.sol\":5049:5545  {... */\n      pop\n      pop\n      pop\n        /* \"contracts/LicenseManager.sol\":4935:5545  function buyLicense(LID licenseId, uint256 nonce, bytes memory signature) public payable licenseActive(licenseId) {... */\n      pop\n      pop\n      pop\n      pop\n      jump\t// out\n        /* \"contracts/LicenseManager.sol\":4699:4848  string constant public licenseeAgreement = \"I certify that I am the licensee of the video agreement and agree to all terms defined in the agreement.\" */\n    tag_35:\n      mload(0x40)\n      dup1\n      0xa0\n      add\n      0x40\n      mstore\n      dup1\n      0x68\n      dup2\n      mstore\n      0x20\n      add\n      data_947495800a19c75b349554c37b44e0820cfe4e72bb09a80ed436e10673d6e5c6\n      0x68\n      swap2\n      codecopy\n      dup2\n      jump\t// out\n        /* \"contracts/LicenseManager.sol\":4193:4361  function getLicenseOwner(LID licenseId) public view licenseActive(licenseId) returns(address payable ) {... */\n    tag_42:\n        /* \"contracts/LicenseManager.sol\":4278:4293  address payable */\n      0x00\n        /* \"contracts/LicenseManager.sol\":4259:4268  licenseId */\n      dup2\n        /* \"contracts/LicenseManager.sol\":1779:1796  _licenseActivated */\n      0x06\n        /* \"contracts/LicenseManager.sol\":1779:1807  _licenseActivated[licenseId] */\n      0x00\n        /* \"contracts/LicenseManager.sol\":1797:1806  licenseId */\n      dup3\n        /* \"contracts/LicenseManager.sol\":1779:1807  _licenseActivated[licenseId] */\n      dup2\n      mstore\n      0x20\n      add\n      swap1\n      dup2\n      mstore\n      0x20\n      add\n      0x00\n      keccak256\n      0x00\n      swap1\n      sload\n      swap1\n      0x0100\n      exp\n      swap1\n      div\n      0xff\n      and\n        /* \"contracts/LicenseManager.sol\":1771:1833  require(_licenseActivated[licenseId], \"license doesn't exist\") */\n      tag_203\n      jumpi\n      mload(0x40)\n      0x08c379a000000000000000000000000000000000000000000000000000000000\n      dup2\n      mstore\n      0x04\n      add\n      tag_204\n      swap1\n      tag_165\n      jump\t// in\n    tag_204:\n      mload(0x40)\n      dup1\n      swap2\n      sub\n      swap1\n      revert\n    tag_203:\n        /* \"contracts/LicenseManager.sol\":4314:4326  _videoOwners */\n      0x02\n        /* \"contracts/LicenseManager.sol\":4327:4341  _licenseVideos */\n      0x07\n        /* \"contracts/LicenseManager.sol\":4327:4352  _licenseVideos[licenseId] */\n      0x00\n        /* \"contracts/LicenseManager.sol\":4342:4351  licenseId */\n      dup6\n        /* \"contracts/LicenseManager.sol\":4327:4352  _licenseVideos[licenseId] */\n      dup2\n      mstore\n      0x20\n      add\n      swap1\n      dup2\n      mstore\n      0x20\n      add\n      0x00\n      keccak256\n        /* \"contracts/LicenseManager.sol\":4314:4353  _videoOwners[_licenseVideos[licenseId]] */\n      mload(0x40)\n      tag_206\n      swap2\n      swap1\n      tag_207\n      jump\t// in\n    tag_206:\n      swap1\n      dup2\n      mstore\n      0x20\n      add\n      mload(0x40)\n      dup1\n      swap2\n      sub\n      swap1\n      keccak256\n      0x00\n      swap1\n      sload\n      swap1\n      0x0100\n      exp\n      swap1\n      div\n      0xffffffffffffffffffffffffffffffffffffffff\n      and\n        /* \"contracts/LicenseManager.sol\":4307:4353  return _videoOwners[_licenseVideos[licenseId]] */\n      swap2\n      pop\n        /* \"contracts/LicenseManager.sol\":4193:4361  function getLicenseOwner(LID licenseId) public view licenseActive(licenseId) returns(address payable ) {... */\n      pop\n      swap2\n      swap1\n      pop\n      jump\t// out\n        /* \"contracts/LicenseManager.sol\":7097:7277  function getLicensorMessageHash(string memory vid, uint256 nonce) public pure returns (bytes32) {... */\n    tag_49:\n        /* \"contracts/LicenseManager.sol\":7184:7191  bytes32 */\n      0x00\n        /* \"contracts/LicenseManager.sol\":7238:7241  vid */\n      dup3\n        /* \"contracts/LicenseManager.sol\":7243:7260  licensorAgreement */\n      mload(0x40)\n      dup1\n      0xa0\n      add\n      0x40\n      mstore\n      dup1\n      0x68\n      dup2\n      mstore\n      0x20\n      add\n      data_0cd1ae3e4dc389c213191dc2019beca568e06b7e2e62f57ac23af9c3de086300\n      0x68\n      swap2\n      codecopy\n        /* \"contracts/LicenseManager.sol\":7262:7267  nonce */\n      dup4\n        /* \"contracts/LicenseManager.sol\":7221:7268  abi.encodePacked(vid, licensorAgreement, nonce) */\n      add(0x20, mload(0x40))\n      tag_209\n      swap4\n      swap3\n      swap2\n      swap1\n      tag_210\n      jump\t// in\n    tag_209:\n      mload(0x40)\n      0x20\n      dup2\n      dup4\n      sub\n      sub\n      dup2\n      mstore\n      swap1\n      0x40\n      mstore\n        /* \"contracts/LicenseManager.sol\":7211:7269  keccak256(abi.encodePacked(vid, licensorAgreement, nonce)) */\n      dup1\n      mload\n      swap1\n      0x20\n      add\n      keccak256\n        /* \"contracts/LicenseManager.sol\":7204:7269  return keccak256(abi.encodePacked(vid, licensorAgreement, nonce)) */\n      swap1\n      pop\n        /* \"contracts/LicenseManager.sol\":7097:7277  function getLicensorMessageHash(string memory vid, uint256 nonce) public pure returns (bytes32) {... */\n      swap3\n      swap2\n      pop\n      pop\n      jump\t// out\n        /* \"contracts/LicenseManager.sol\":1863:1977  function getVideoOwner(string memory vid) public view returns(address) {... */\n    tag_56:\n        /* \"contracts/LicenseManager.sol\":1925:1932  address */\n      0x00\n        /* \"contracts/LicenseManager.sol\":1952:1964  _videoOwners */\n      0x02\n        /* \"contracts/LicenseManager.sol\":1965:1968  vid */\n      dup3\n        /* \"contracts/LicenseManager.sol\":1952:1969  _videoOwners[vid] */\n      mload(0x40)\n      tag_212\n      swap2\n      swap1\n      tag_213\n      jump\t// in\n    tag_212:\n      swap1\n      dup2\n      mstore\n      0x20\n      add\n      mload(0x40)\n      dup1\n      swap2\n      sub\n      swap1\n      keccak256\n      0x00\n      swap1\n      sload\n      swap1\n      0x0100\n      exp\n      swap1\n      div\n      0xffffffffffffffffffffffffffffffffffffffff\n      and\n        /* \"contracts/LicenseManager.sol\":1945:1969  return _videoOwners[vid] */\n      swap1\n      pop\n        /* \"contracts/LicenseManager.sol\":1863:1977  function getVideoOwner(string memory vid) public view returns(address) {... */\n      swap2\n      swap1\n      pop\n      jump\t// out\n        /* \"contracts/LicenseManager.sol\":4034:4185  function getLicenseVideo(LID licenseId) public view licenseActive(licenseId) returns(string memory) {... */\n    tag_62:\n        /* \"contracts/LicenseManager.sol\":4119:4132  string memory */\n      0x60\n        /* \"contracts/LicenseManager.sol\":4100:4109  licenseId */\n      dup2\n        /* \"contracts/LicenseManager.sol\":1779:1796  _licenseActivated */\n      0x06\n        /* \"contracts/LicenseManager.sol\":1779:1807  _licenseActivated[licenseId] */\n      0x00\n        /* \"contracts/LicenseManager.sol\":1797:1806  licenseId */\n      dup3\n        /* \"contracts/LicenseManager.sol\":1779:1807  _licenseActivated[licenseId] */\n      dup2\n      mstore\n      0x20\n      add\n      swap1\n      dup2\n      mstore\n      0x20\n      add\n      0x00\n      keccak256\n      0x00\n      swap1\n      sload\n      swap1\n      0x0100\n      exp\n      swap1\n      div\n      0xff\n      and\n        /* \"contracts/LicenseManager.sol\":1771:1833  require(_licenseActivated[licenseId], \"license doesn't exist\") */\n      tag_215\n      jumpi\n      mload(0x40)\n      0x08c379a000000000000000000000000000000000000000000000000000000000\n      dup2\n      mstore\n      0x04\n      add\n      tag_216\n      swap1\n      tag_165\n      jump\t// in\n    tag_216:\n      mload(0x40)\n      dup1\n      swap2\n      sub\n      swap1\n      revert\n    tag_215:\n        /* \"contracts/LicenseManager.sol\":4152:4166  _licenseVideos */\n      0x07\n        /* \"contracts/LicenseManager.sol\":4152:4177  _licenseVideos[licenseId] */\n      0x00\n        /* \"contracts/LicenseManager.sol\":4167:4176  licenseId */\n      dup5\n        /* \"contracts/LicenseManager.sol\":4152:4177  _licenseVideos[licenseId] */\n      dup2\n      mstore\n      0x20\n      add\n      swap1\n      dup2\n      mstore\n      0x20\n      add\n      0x00\n      keccak256\n        /* \"contracts/LicenseManager.sol\":4145:4177  return _licenseVideos[licenseId] */\n      dup1\n      sload\n      tag_218\n      swap1\n      tag_219\n      jump\t// in\n    tag_218:\n      dup1\n      0x1f\n      add\n      0x20\n      dup1\n      swap2\n      div\n      mul\n      0x20\n      add\n      mload(0x40)\n      swap1\n      dup2\n      add\n      0x40\n      mstore\n      dup1\n      swap3\n      swap2\n      swap1\n      dup2\n      dup2\n      mstore\n      0x20\n      add\n      dup3\n      dup1\n      sload\n      tag_220\n      swap1\n      tag_219\n      jump\t// in\n    tag_220:\n      dup1\n      iszero\n      tag_221\n      jumpi\n      dup1\n      0x1f\n      lt\n      tag_222\n      jumpi\n      0x0100\n      dup1\n      dup4\n      sload\n      div\n      mul\n      dup4\n      mstore\n      swap2\n      0x20\n      add\n      swap2\n      jump(tag_221)\n    tag_222:\n      dup3\n      add\n      swap2\n      swap1\n      0x00\n      mstore\n      keccak256(0x00, 0x20)\n      swap1\n    tag_223:\n      dup2\n      sload\n      dup2\n      mstore\n      swap1\n      0x01\n      add\n      swap1\n      0x20\n      add\n      dup1\n      dup4\n      gt\n      tag_223\n      jumpi\n      dup3\n      swap1\n      sub\n      0x1f\n      and\n      dup3\n      add\n      swap2\n    tag_221:\n      pop\n      pop\n      pop\n      pop\n      pop\n      swap2\n      pop\n        /* \"contracts/LicenseManager.sol\":4034:4185  function getLicenseVideo(LID licenseId) public view licenseActive(licenseId) returns(string memory) {... */\n      pop\n      swap2\n      swap1\n      pop\n      jump\t// out\n        /* \"contracts/LicenseManager.sol\":5553:6047  function getLicenseeLicenses(string memory vid, address licensee) public videoExist(vid) view returns(LID[] memory) {... */\n    tag_68:\n        /* \"contracts/LicenseManager.sol\":5655:5667  LID[] memory */\n      0x60\n        /* \"contracts/LicenseManager.sol\":5637:5640  vid */\n      dup3\n        /* \"contracts/LicenseManager.sol\":1666:1667  0 */\n      0x00\n        /* \"contracts/LicenseManager.sol\":1637:1668  _videoOwners[vid] != address(0) */\n      0xffffffffffffffffffffffffffffffffffffffff\n      and\n        /* \"contracts/LicenseManager.sol\":1637:1649  _videoOwners */\n      0x02\n        /* \"contracts/LicenseManager.sol\":1650:1653  vid */\n      dup3\n        /* \"contracts/LicenseManager.sol\":1637:1654  _videoOwners[vid] */\n      mload(0x40)\n      tag_225\n      swap2\n      swap1\n      tag_213\n      jump\t// in\n    tag_225:\n      swap1\n      dup2\n      mstore\n      0x20\n      add\n      mload(0x40)\n      dup1\n      swap2\n      sub\n      swap1\n      keccak256\n      0x00\n      swap1\n      sload\n      swap1\n      0x0100\n      exp\n      swap1\n      div\n      0xffffffffffffffffffffffffffffffffffffffff\n      and\n        /* \"contracts/LicenseManager.sol\":1637:1668  _videoOwners[vid] != address(0) */\n      0xffffffffffffffffffffffffffffffffffffffff\n      and\n      sub\n        /* \"contracts/LicenseManager.sol\":1629:1692  require(_videoOwners[vid] != address(0), \"video doesn't exist\") */\n      tag_226\n      jumpi\n      mload(0x40)\n      0x08c379a000000000000000000000000000000000000000000000000000000000\n      dup2\n      mstore\n      0x04\n      add\n      tag_227\n      swap1\n      tag_228\n      jump\t// in\n    tag_227:\n      mload(0x40)\n      dup1\n      swap2\n      sub\n      swap1\n      revert\n    tag_226:\n        /* \"contracts/LicenseManager.sol\":5680:5702  LID[] memory purchased */\n      0x00\n        /* \"contracts/LicenseManager.sol\":5715:5734  _videoLicenseCounts */\n      0x03\n        /* \"contracts/LicenseManager.sol\":5735:5738  vid */\n      dup6\n        /* \"contracts/LicenseManager.sol\":5715:5739  _videoLicenseCounts[vid] */\n      mload(0x40)\n      tag_230\n      swap2\n      swap1\n      tag_213\n      jump\t// in\n    tag_230:\n      swap1\n      dup2\n      mstore\n      0x20\n      add\n      mload(0x40)\n      dup1\n      swap2\n      sub\n      swap1\n      keccak256\n      sload\n        /* \"contracts/LicenseManager.sol\":5705:5740  new LID[](_videoLicenseCounts[vid]) */\n      0xffffffffffffffff\n      dup2\n      gt\n      iszero\n      tag_231\n      jumpi\n      tag_232\n      tag_233\n      jump\t// in\n    tag_232:\n    tag_231:\n      mload(0x40)\n      swap1\n      dup1\n      dup3\n      mstore\n      dup1\n      0x20\n      mul\n      0x20\n      add\n      dup3\n      add\n      0x40\n      mstore\n      dup1\n      iszero\n      tag_234\n      jumpi\n      dup2\n      0x20\n      add\n      0x20\n      dup3\n      mul\n      dup1\n      calldatasize\n      dup4\n      calldatacopy\n      dup1\n      dup3\n      add\n      swap2\n      pop\n      pop\n      swap1\n      pop\n    tag_234:\n      pop\n        /* \"contracts/LicenseManager.sol\":5680:5740  LID[] memory purchased = new LID[](_videoLicenseCounts[vid]) */\n      swap1\n      pop\n        /* \"contracts/LicenseManager.sol\":5758:5767  uint256 i */\n      0x00\n        /* \"contracts/LicenseManager.sol\":5753:6011  for (uint256 i = 0; i < _videoLicenseCounts[vid]; i++) {... */\n    tag_235:\n        /* \"contracts/LicenseManager.sol\":5777:5796  _videoLicenseCounts */\n      0x03\n        /* \"contracts/LicenseManager.sol\":5797:5800  vid */\n      dup7\n        /* \"contracts/LicenseManager.sol\":5777:5801  _videoLicenseCounts[vid] */\n      mload(0x40)\n      tag_238\n      swap2\n      swap1\n      tag_213\n      jump\t// in\n    tag_238:\n      swap1\n      dup2\n      mstore\n      0x20\n      add\n      mload(0x40)\n      dup1\n      swap2\n      sub\n      swap1\n      keccak256\n      sload\n        /* \"contracts/LicenseManager.sol\":5773:5774  i */\n      dup2\n        /* \"contracts/LicenseManager.sol\":5773:5801  i < _videoLicenseCounts[vid] */\n      lt\n        /* \"contracts/LicenseManager.sol\":5753:6011  for (uint256 i = 0; i < _videoLicenseCounts[vid]; i++) {... */\n      iszero\n      tag_236\n      jumpi\n        /* \"contracts/LicenseManager.sol\":5823:5836  LID licenseId */\n      0x00\n        /* \"contracts/LicenseManager.sol\":5839:5855  _videoLicenseIDs */\n      0x04\n        /* \"contracts/LicenseManager.sol\":5856:5859  vid */\n      dup8\n        /* \"contracts/LicenseManager.sol\":5839:5860  _videoLicenseIDs[vid] */\n      mload(0x40)\n      tag_239\n      swap2\n      swap1\n      tag_213\n      jump\t// in\n    tag_239:\n      swap1\n      dup2\n      mstore\n      0x20\n      add\n      mload(0x40)\n      dup1\n      swap2\n      sub\n      swap1\n      keccak256\n        /* \"contracts/LicenseManager.sol\":5839:5863  _videoLicenseIDs[vid][i] */\n      0x00\n        /* \"contracts/LicenseManager.sol\":5861:5862  i */\n      dup4\n        /* \"contracts/LicenseManager.sol\":5839:5863  _videoLicenseIDs[vid][i] */\n      dup2\n      mstore\n      0x20\n      add\n      swap1\n      dup2\n      mstore\n      0x20\n      add\n      0x00\n      keccak256\n      sload\n        /* \"contracts/LicenseManager.sol\":5823:5863  LID licenseId = _videoLicenseIDs[vid][i] */\n      swap1\n      pop\n        /* \"contracts/LicenseManager.sol\":5938:5939  0 */\n      0x00\n        /* \"contracts/LicenseManager.sol\":5896:5913  _licenseLicensees */\n      0x0a\n        /* \"contracts/LicenseManager.sol\":5896:5924  _licenseLicensees[licenseId] */\n      0x00\n        /* \"contracts/LicenseManager.sol\":5914:5923  licenseId */\n      dup4\n        /* \"contracts/LicenseManager.sol\":5896:5924  _licenseLicensees[licenseId] */\n      dup2\n      mstore\n      0x20\n      add\n      swap1\n      dup2\n      mstore\n      0x20\n      add\n      0x00\n      keccak256\n        /* \"contracts/LicenseManager.sol\":5896:5934  _licenseLicensees[licenseId][licensee] */\n      0x00\n        /* \"contracts/LicenseManager.sol\":5925:5933  licensee */\n      dup9\n        /* \"contracts/LicenseManager.sol\":5896:5934  _licenseLicensees[licenseId][licensee] */\n      0xffffffffffffffffffffffffffffffffffffffff\n      and\n      0xffffffffffffffffffffffffffffffffffffffff\n      and\n      dup2\n      mstore\n      0x20\n      add\n      swap1\n      dup2\n      mstore\n      0x20\n      add\n      0x00\n      keccak256\n      sload\n        /* \"contracts/LicenseManager.sol\":5896:5939  _licenseLicensees[licenseId][licensee] != 0 */\n      eq\n        /* \"contracts/LicenseManager.sol\":5892:6000  if (_licenseLicensees[licenseId][licensee] != 0) {... */\n      tag_240\n      jumpi\n        /* \"contracts/LicenseManager.sol\":5975:5984  licenseId */\n      dup1\n        /* \"contracts/LicenseManager.sol\":5960:5969  purchased */\n      dup4\n        /* \"contracts/LicenseManager.sol\":5970:5971  i */\n      dup4\n        /* \"contracts/LicenseManager.sol\":5960:5972  purchased[i] */\n      dup2\n      mload\n      dup2\n      lt\n      tag_241\n      jumpi\n      tag_242\n      tag_243\n      jump\t// in\n    tag_242:\n    tag_241:\n      0x20\n      mul\n      0x20\n      add\n      add\n        /* \"contracts/LicenseManager.sol\":5960:5984  purchased[i] = licenseId */\n      dup2\n      dup2\n      mstore\n      pop\n      pop\n        /* \"contracts/LicenseManager.sol\":5892:6000  if (_licenseLicensees[licenseId][licensee] != 0) {... */\n    tag_240:\n        /* \"contracts/LicenseManager.sol\":5808:6011  {... */\n      pop\n        /* \"contracts/LicenseManager.sol\":5803:5806  i++ */\n      dup1\n      dup1\n      0x01\n      add\n      swap2\n      pop\n      pop\n        /* \"contracts/LicenseManager.sol\":5753:6011  for (uint256 i = 0; i < _videoLicenseCounts[vid]; i++) {... */\n      jump(tag_235)\n    tag_236:\n      pop\n        /* \"contracts/LicenseManager.sol\":6030:6039  purchased */\n      dup1\n        /* \"contracts/LicenseManager.sol\":6023:6039  return purchased */\n      swap3\n      pop\n      pop\n        /* \"contracts/LicenseManager.sol\":5553:6047  function getLicenseeLicenses(string memory vid, address licensee) public videoExist(vid) view returns(LID[] memory) {... */\n      pop\n      swap3\n      swap2\n      pop\n      pop\n      jump\t// out\n        /* \"contracts/LicenseManager.sol\":698:800  function addTemplate(address template) public onlyOwner {... */\n    tag_75:\n        /* \"contracts/LicenseManager.sol\":307:317  msg.sender */\n      caller\n        /* \"contracts/LicenseManager.sol\":297:317  _owner == msg.sender */\n      0xffffffffffffffffffffffffffffffffffffffff\n      and\n        /* \"contracts/LicenseManager.sol\":297:303  _owner */\n      0x00\n      dup1\n      sload\n      swap1\n      0x0100\n      exp\n      swap1\n      div\n      0xffffffffffffffffffffffffffffffffffffffff\n      and\n        /* \"contracts/LicenseManager.sol\":297:317  _owner == msg.sender */\n      0xffffffffffffffffffffffffffffffffffffffff\n      and\n      eq\n        /* \"contracts/LicenseManager.sol\":289:339  require(_owner == msg.sender, \"owner access only\") */\n      tag_245\n      jumpi\n      mload(0x40)\n      0x08c379a000000000000000000000000000000000000000000000000000000000\n      dup2\n      mstore\n      0x04\n      add\n      tag_246\n      swap1\n      tag_247\n      jump\t// in\n    tag_246:\n      mload(0x40)\n      dup1\n      swap2\n      sub\n      swap1\n      revert\n    tag_245:\n        /* \"contracts/LicenseManager.sol\":788:792  true */\n      0x01\n        /* \"contracts/LicenseManager.sol\":765:775  _templates */\n      dup1\n        /* \"contracts/LicenseManager.sol\":765:785  _templates[template] */\n      0x00\n        /* \"contracts/LicenseManager.sol\":776:784  template */\n      dup4\n        /* \"contracts/LicenseManager.sol\":765:785  _templates[template] */\n      0xffffffffffffffffffffffffffffffffffffffff\n      and\n      0xffffffffffffffffffffffffffffffffffffffff\n      and\n      dup2\n      mstore\n      0x20\n      add\n      swap1\n      dup2\n      mstore\n      0x20\n      add\n      0x00\n      keccak256\n      0x00\n        /* \"contracts/LicenseManager.sol\":765:792  _templates[template] = true */\n      0x0100\n      exp\n      dup2\n      sload\n      dup2\n      0xff\n      mul\n      not\n      and\n      swap1\n      dup4\n      iszero\n      iszero\n      mul\n      or\n      swap1\n      sstore\n      pop\n        /* \"contracts/LicenseManager.sol\":698:800  function addTemplate(address template) public onlyOwner {... */\n      pop\n      jump\t// out\n        /* \"contracts/LicenseManager.sol\":7837:8193  function verifyLicensee(address signer, LID licenseId, uint256 nonce, bytes memory signature) public pure returns (bool) {... */\n    tag_80:\n        /* \"contracts/LicenseManager.sol\":7952:7956  bool */\n      0x00\n        /* \"contracts/LicenseManager.sol\":7969:7988  bytes32 messageHash */\n      dup1\n        /* \"contracts/LicenseManager.sol\":7991:8031  getLicenseeMessageHash(licenseId, nonce) */\n      tag_250\n        /* \"contracts/LicenseManager.sol\":8014:8023  licenseId */\n      dup6\n        /* \"contracts/LicenseManager.sol\":8025:8030  nonce */\n      dup6\n        /* \"contracts/LicenseManager.sol\":7991:8013  getLicenseeMessageHash */\n      tag_96\n        /* \"contracts/LicenseManager.sol\":7991:8031  getLicenseeMessageHash(licenseId, nonce) */\n      jump\t// in\n    tag_250:\n        /* \"contracts/LicenseManager.sol\":7969:8031  bytes32 messageHash = getLicenseeMessageHash(licenseId, nonce) */\n      swap1\n      pop\n        /* \"contracts/LicenseManager.sol\":8042:8070  bytes32 ethSignedMessageHash */\n      0x00\n        /* \"contracts/LicenseManager.sol\":8073:8109  getEthSignedMessageHash(messageHash) */\n      tag_251\n        /* \"contracts/LicenseManager.sol\":8097:8108  messageHash */\n      dup3\n        /* \"contracts/LicenseManager.sol\":8073:8096  getEthSignedMessageHash */\n      tag_155\n        /* \"contracts/LicenseManager.sol\":8073:8109  getEthSignedMessageHash(messageHash) */\n      jump\t// in\n    tag_251:\n        /* \"contracts/LicenseManager.sol\":8042:8109  bytes32 ethSignedMessageHash = getEthSignedMessageHash(messageHash) */\n      swap1\n      pop\n        /* \"contracts/LicenseManager.sol\":8179:8185  signer */\n      dup7\n        /* \"contracts/LicenseManager.sol\":8129:8185  recoverSigner(ethSignedMessageHash, signature) == signer */\n      0xffffffffffffffffffffffffffffffffffffffff\n      and\n        /* \"contracts/LicenseManager.sol\":8129:8175  recoverSigner(ethSignedMessageHash, signature) */\n      tag_252\n        /* \"contracts/LicenseManager.sol\":8143:8163  ethSignedMessageHash */\n      dup3\n        /* \"contracts/LicenseManager.sol\":8165:8174  signature */\n      dup7\n        /* \"contracts/LicenseManager.sol\":8129:8142  recoverSigner */\n      tag_119\n        /* \"contracts/LicenseManager.sol\":8129:8175  recoverSigner(ethSignedMessageHash, signature) */\n      jump\t// in\n    tag_252:\n        /* \"contracts/LicenseManager.sol\":8129:8185  recoverSigner(ethSignedMessageHash, signature) == signer */\n      0xffffffffffffffffffffffffffffffffffffffff\n      and\n      eq\n        /* \"contracts/LicenseManager.sol\":8122:8185  return recoverSigner(ethSignedMessageHash, signature) == signer */\n      swap3\n      pop\n      pop\n      pop\n        /* \"contracts/LicenseManager.sol\":7837:8193  function verifyLicensee(address signer, LID licenseId, uint256 nonce, bytes memory signature) public pure returns (bool) {... */\n      swap5\n      swap4\n      pop\n      pop\n      pop\n      pop\n      jump\t// out\n        /* \"contracts/LicenseManager.sol\":922:1071  string constant public licensorAgreement = \"I certify that I am the licensor of the video agreement and agree to all terms defined in the agreement.\" */\n    tag_85:\n      mload(0x40)\n      dup1\n      0xa0\n      add\n      0x40\n      mstore\n      dup1\n      0x68\n      dup2\n      mstore\n      0x20\n      add\n      data_0cd1ae3e4dc389c213191dc2019beca568e06b7e2e62f57ac23af9c3de086300\n      0x68\n      swap2\n      codecopy\n      dup2\n      jump\t// out\n        /* \"contracts/LicenseManager.sol\":3021:3375  function addLicense(string memory vid, address template, uint256 price, LID licenseId) public videoExist(vid) templateExists(template) {... */\n    tag_91:\n        /* \"contracts/LicenseManager.sol\":3126:3129  vid */\n      dup4\n        /* \"contracts/LicenseManager.sol\":1666:1667  0 */\n      0x00\n        /* \"contracts/LicenseManager.sol\":1637:1668  _videoOwners[vid] != address(0) */\n      0xffffffffffffffffffffffffffffffffffffffff\n      and\n        /* \"contracts/LicenseManager.sol\":1637:1649  _videoOwners */\n      0x02\n        /* \"contracts/LicenseManager.sol\":1650:1653  vid */\n      dup3\n        /* \"contracts/LicenseManager.sol\":1637:1654  _videoOwners[vid] */\n      mload(0x40)\n      tag_254\n      swap2\n      swap1\n      tag_213\n      jump\t// in\n    tag_254:\n      swap1\n      dup2\n      mstore\n      0x20\n      add\n      mload(0x40)\n      dup1\n      swap2\n      sub\n      swap1\n      keccak256\n      0x00\n      swap1\n      sload\n      swap1\n      0x0100\n      exp\n      swap1\n      div\n      0xffffffffffffffffffffffffffffffffffffffff\n      and\n        /* \"contracts/LicenseManager.sol\":1637:1668  _videoOwners[vid] != address(0) */\n      0xffffffffffffffffffffffffffffffffffffffff\n      and\n      sub\n        /* \"contracts/LicenseManager.sol\":1629:1692  require(_videoOwners[vid] != address(0), \"video doesn't exist\") */\n      tag_255\n      jumpi\n      mload(0x40)\n      0x08c379a000000000000000000000000000000000000000000000000000000000\n      dup2\n      mstore\n      0x04\n      add\n      tag_256\n      swap1\n      tag_228\n      jump\t// in\n    tag_256:\n      mload(0x40)\n      dup1\n      swap2\n      sub\n      swap1\n      revert\n    tag_255:\n        /* \"contracts/LicenseManager.sol\":3146:3154  template */\n      dup4\n        /* \"contracts/LicenseManager.sol\":622:632  _templates */\n      0x01\n        /* \"contracts/LicenseManager.sol\":622:642  _templates[template] */\n      0x00\n        /* \"contracts/LicenseManager.sol\":633:641  template */\n      dup3\n        /* \"contracts/LicenseManager.sol\":622:642  _templates[template] */\n      0xffffffffffffffffffffffffffffffffffffffff\n      and\n      0xffffffffffffffffffffffffffffffffffffffff\n      and\n      dup2\n      mstore\n      0x20\n      add\n      swap1\n      dup2\n      mstore\n      0x20\n      add\n      0x00\n      keccak256\n      0x00\n      swap1\n      sload\n      swap1\n      0x0100\n      exp\n      swap1\n      div\n      0xff\n      and\n        /* \"contracts/LicenseManager.sol\":614:668  require(_templates[template], \"license doesn't exist\") */\n      tag_258\n      jumpi\n      mload(0x40)\n      0x08c379a000000000000000000000000000000000000000000000000000000000\n      dup2\n      mstore\n      0x04\n      add\n      tag_259\n      swap1\n      tag_165\n      jump\t// in\n    tag_259:\n      mload(0x40)\n      dup1\n      swap2\n      sub\n      swap1\n      revert\n    tag_258:\n        /* \"contracts/LicenseManager.sol\":3196:3206  msg.sender */\n      caller\n        /* \"contracts/LicenseManager.sol\":3175:3206  _videoOwners[vid] == msg.sender */\n      0xffffffffffffffffffffffffffffffffffffffff\n      and\n        /* \"contracts/LicenseManager.sol\":3175:3187  _videoOwners */\n      0x02\n        /* \"contracts/LicenseManager.sol\":3188:3191  vid */\n      dup8\n        /* \"contracts/LicenseManager.sol\":3175:3192  _videoOwners[vid] */\n      mload(0x40)\n      tag_261\n      swap2\n      swap1\n      tag_213\n      jump\t// in\n    tag_261:\n      swap1\n      dup2\n      mstore\n      0x20\n      add\n      mload(0x40)\n      dup1\n      swap2\n      sub\n      swap1\n      keccak256\n      0x00\n      swap1\n      sload\n      swap1\n      0x0100\n      exp\n      swap1\n      div\n      0xffffffffffffffffffffffffffffffffffffffff\n      and\n        /* \"contracts/LicenseManager.sol\":3175:3206  _videoOwners[vid] == msg.sender */\n      0xffffffffffffffffffffffffffffffffffffffff\n      and\n      eq\n        /* \"contracts/LicenseManager.sol\":3167:3227  require(_videoOwners[vid] == msg.sender, \"invalid licensor\") */\n      tag_262\n      jumpi\n      mload(0x40)\n      0x08c379a000000000000000000000000000000000000000000000000000000000\n      dup2\n      mstore\n      0x04\n      add\n      tag_263\n      swap1\n      tag_264\n      jump\t// in\n    tag_263:\n      mload(0x40)\n      dup1\n      swap2\n      sub\n      swap1\n      revert\n    tag_262:\n        /* \"contracts/LicenseManager.sol\":3247:3262  _licenseCreated */\n      0x05\n        /* \"contracts/LicenseManager.sol\":3247:3273  _licenseCreated[licenseId] */\n      0x00\n        /* \"contracts/LicenseManager.sol\":3263:3272  licenseId */\n      dup5\n        /* \"contracts/LicenseManager.sol\":3247:3273  _licenseCreated[licenseId] */\n      dup2\n      mstore\n      0x20\n      add\n      swap1\n      dup2\n      mstore\n      0x20\n      add\n      0x00\n      keccak256\n      0x00\n      swap1\n      sload\n      swap1\n      0x0100\n      exp\n      swap1\n      div\n      0xff\n      and\n        /* \"contracts/LicenseManager.sol\":3246:3273  !_licenseCreated[licenseId] */\n      iszero\n        /* \"contracts/LicenseManager.sol\":3238:3300  require(!_licenseCreated[licenseId], \"unavailable license id\") */\n      tag_265\n      jumpi\n      mload(0x40)\n      0x08c379a000000000000000000000000000000000000000000000000000000000\n      dup2\n      mstore\n      0x04\n      add\n      tag_266\n      swap1\n      tag_267\n      jump\t// in\n    tag_266:\n      mload(0x40)\n      dup1\n      swap2\n      sub\n      swap1\n      revert\n    tag_265:\n        /* \"contracts/LicenseManager.sol\":3321:3367  createLicense(vid, template, price, licenseId) */\n      tag_268\n        /* \"contracts/LicenseManager.sol\":3335:3338  vid */\n      dup7\n        /* \"contracts/LicenseManager.sol\":3340:3348  template */\n      dup7\n        /* \"contracts/LicenseManager.sol\":3350:3355  price */\n      dup7\n        /* \"contracts/LicenseManager.sol\":3357:3366  licenseId */\n      dup7\n        /* \"contracts/LicenseManager.sol\":3321:3334  createLicense */\n      tag_269\n        /* \"contracts/LicenseManager.sol\":3321:3367  createLicense(vid, template, price, licenseId) */\n      jump\t// in\n    tag_268:\n        /* \"contracts/LicenseManager.sol\":1705:1706  _ */\n      pop\n        /* \"contracts/LicenseManager.sol\":3021:3375  function addLicense(string memory vid, address template, uint256 price, LID licenseId) public videoExist(vid) templateExists(template) {... */\n      pop\n      pop\n      pop\n      pop\n      pop\n      jump\t// out\n        /* \"contracts/LicenseManager.sol\":7647:7829  function getLicenseeMessageHash(LID licenseId, uint256 nonce) public pure returns (bytes32) {... */\n    tag_96:\n        /* \"contracts/LicenseManager.sol\":7730:7737  bytes32 */\n      0x00\n        /* \"contracts/LicenseManager.sol\":7784:7793  licenseId */\n      dup3\n        /* \"contracts/LicenseManager.sol\":7795:7812  licenseeAgreement */\n      mload(0x40)\n      dup1\n      0xa0\n      add\n      0x40\n      mstore\n      dup1\n      0x68\n      dup2\n      mstore\n      0x20\n      add\n      data_947495800a19c75b349554c37b44e0820cfe4e72bb09a80ed436e10673d6e5c6\n      0x68\n      swap2\n      codecopy\n        /* \"contracts/LicenseManager.sol\":7814:7819  nonce */\n      dup4\n        /* \"contracts/LicenseManager.sol\":7767:7820  abi.encodePacked(licenseId, licenseeAgreement, nonce) */\n      add(0x20, mload(0x40))\n      tag_271\n      swap4\n      swap3\n      swap2\n      swap1\n      tag_272\n      jump\t// in\n    tag_271:\n      mload(0x40)\n      0x20\n      dup2\n      dup4\n      sub\n      sub\n      dup2\n      mstore\n      swap1\n      0x40\n      mstore\n        /* \"contracts/LicenseManager.sol\":7757:7821  keccak256(abi.encodePacked(licenseId, licenseeAgreement, nonce)) */\n      dup1\n      mload\n      swap1\n      0x20\n      add\n      keccak256\n        /* \"contracts/LicenseManager.sol\":7750:7821  return keccak256(abi.encodePacked(licenseId, licenseeAgreement, nonce)) */\n      swap1\n      pop\n        /* \"contracts/LicenseManager.sol\":7647:7829  function getLicenseeMessageHash(LID licenseId, uint256 nonce) public pure returns (bytes32) {... */\n      swap3\n      swap2\n      pop\n      pop\n      jump\t// out\n        /* \"contracts/LicenseManager.sol\":1985:2437  function addVideo(string memory vid, address payable licensor, uint256 nonce, bytes memory signature) public onlyOwner {... */\n    tag_102:\n        /* \"contracts/LicenseManager.sol\":307:317  msg.sender */\n      caller\n        /* \"contracts/LicenseManager.sol\":297:317  _owner == msg.sender */\n      0xffffffffffffffffffffffffffffffffffffffff\n      and\n        /* \"contracts/LicenseManager.sol\":297:303  _owner */\n      0x00\n      dup1\n      sload\n      swap1\n      0x0100\n      exp\n      swap1\n      div\n      0xffffffffffffffffffffffffffffffffffffffff\n      and\n        /* \"contracts/LicenseManager.sol\":297:317  _owner == msg.sender */\n      0xffffffffffffffffffffffffffffffffffffffff\n      and\n      eq\n        /* \"contracts/LicenseManager.sol\":289:339  require(_owner == msg.sender, \"owner access only\") */\n      tag_274\n      jumpi\n      mload(0x40)\n      0x08c379a000000000000000000000000000000000000000000000000000000000\n      dup2\n      mstore\n      0x04\n      add\n      tag_275\n      swap1\n      tag_247\n      jump\t// in\n    tag_275:\n      mload(0x40)\n      dup1\n      swap2\n      sub\n      swap1\n      revert\n    tag_274:\n        /* \"contracts/LicenseManager.sol\":2115:2136  bytes memory vidBytes */\n      0x00\n        /* \"contracts/LicenseManager.sol\":2145:2148  vid */\n      dup5\n        /* \"contracts/LicenseManager.sol\":2115:2149  bytes memory vidBytes = bytes(vid) */\n      swap1\n      pop\n        /* \"contracts/LicenseManager.sol\":2201:2202  0 */\n      0x00\n        /* \"contracts/LicenseManager.sol\":2183:2191  vidBytes */\n      dup2\n        /* \"contracts/LicenseManager.sol\":2183:2198  vidBytes.length */\n      mload\n        /* \"contracts/LicenseManager.sol\":2183:2202  vidBytes.length > 0 */\n      gt\n        /* \"contracts/LicenseManager.sol\":2175:2223  require(vidBytes.length > 0, \"invalid video id\") */\n      tag_277\n      jumpi\n      mload(0x40)\n      0x08c379a000000000000000000000000000000000000000000000000000000000\n      dup2\n      mstore\n      0x04\n      add\n      tag_278\n      swap1\n      tag_279\n      jump\t// in\n    tag_278:\n      mload(0x40)\n      dup1\n      swap2\n      sub\n      swap1\n      revert\n    tag_277:\n        /* \"contracts/LicenseManager.sol\":2242:2246  this */\n      address\n        /* \"contracts/LicenseManager.sol\":2242:2261  this.verifyLicensor */\n      0xffffffffffffffffffffffffffffffffffffffff\n      and\n      0x96fcc1ae\n        /* \"contracts/LicenseManager.sol\":2262:2270  licensor */\n      dup6\n        /* \"contracts/LicenseManager.sol\":2272:2275  vid */\n      dup8\n        /* \"contracts/LicenseManager.sol\":2277:2282  nonce */\n      dup7\n        /* \"contracts/LicenseManager.sol\":2284:2293  signature */\n      dup7\n        /* \"contracts/LicenseManager.sol\":2242:2294  this.verifyLicensor(licensor, vid, nonce, signature) */\n      mload(0x40)\n      dup6\n      0xffffffff\n      and\n      0xe0\n      shl\n      dup2\n      mstore\n      0x04\n      add\n      tag_280\n      swap5\n      swap4\n      swap3\n      swap2\n      swap1\n      tag_281\n      jump\t// in\n    tag_280:\n      0x20\n      mload(0x40)\n      dup1\n      dup4\n      sub\n      dup2\n      dup7\n      gas\n      staticcall\n      iszero\n      dup1\n      iszero\n      tag_283\n      jumpi\n      returndatasize\n      0x00\n      dup1\n      returndatacopy\n      revert(0x00, returndatasize)\n    tag_283:\n      pop\n      pop\n      pop\n      pop\n      mload(0x40)\n      returndatasize\n      not(0x1f)\n      0x1f\n      dup3\n      add\n      and\n      dup3\n      add\n      dup1\n      0x40\n      mstore\n      pop\n      dup2\n      add\n      swap1\n      tag_284\n      swap2\n      swap1\n      tag_181\n      jump\t// in\n    tag_284:\n        /* \"contracts/LicenseManager.sol\":2234:2325  require(this.verifyLicensor(licensor, vid, nonce, signature), \"invalid licensor signature\") */\n      tag_285\n      jumpi\n      mload(0x40)\n      0x08c379a000000000000000000000000000000000000000000000000000000000\n      dup2\n      mstore\n      0x04\n      add\n      tag_286\n      swap1\n      tag_287\n      jump\t// in\n    tag_286:\n      mload(0x40)\n      dup1\n      swap2\n      sub\n      swap1\n      revert\n    tag_285:\n        /* \"contracts/LicenseManager.sol\":2371:2372  0 */\n      0x00\n        /* \"contracts/LicenseManager.sol\":2342:2373  _videoOwners[vid] == address(0) */\n      0xffffffffffffffffffffffffffffffffffffffff\n      and\n        /* \"contracts/LicenseManager.sol\":2342:2354  _videoOwners */\n      0x02\n        /* \"contracts/LicenseManager.sol\":2355:2358  vid */\n      dup7\n        /* \"contracts/LicenseManager.sol\":2342:2359  _videoOwners[vid] */\n      mload(0x40)\n      tag_288\n      swap2\n      swap1\n      tag_213\n      jump\t// in\n    tag_288:\n      swap1\n      dup2\n      mstore\n      0x20\n      add\n      mload(0x40)\n      dup1\n      swap2\n      sub\n      swap1\n      keccak256\n      0x00\n      swap1\n      sload\n      swap1\n      0x0100\n      exp\n      swap1\n      div\n      0xffffffffffffffffffffffffffffffffffffffff\n      and\n        /* \"contracts/LicenseManager.sol\":2342:2373  _videoOwners[vid] == address(0) */\n      0xffffffffffffffffffffffffffffffffffffffff\n      and\n      sub\n        /* \"contracts/LicenseManager.sol\":2338:2430  if (_videoOwners[vid] == address(0)) {... */\n      tag_289\n      jumpi\n        /* \"contracts/LicenseManager.sol\":2410:2418  licensor */\n      dup4\n        /* \"contracts/LicenseManager.sol\":2390:2402  _videoOwners */\n      0x02\n        /* \"contracts/LicenseManager.sol\":2403:2406  vid */\n      dup7\n        /* \"contracts/LicenseManager.sol\":2390:2407  _videoOwners[vid] */\n      mload(0x40)\n      tag_290\n      swap2\n      swap1\n      tag_213\n      jump\t// in\n    tag_290:\n      swap1\n      dup2\n      mstore\n      0x20\n      add\n      mload(0x40)\n      dup1\n      swap2\n      sub\n      swap1\n      keccak256\n      0x00\n        /* \"contracts/LicenseManager.sol\":2390:2418  _videoOwners[vid] = licensor */\n      0x0100\n      exp\n      dup2\n      sload\n      dup2\n      0xffffffffffffffffffffffffffffffffffffffff\n      mul\n      not\n      and\n      swap1\n      dup4\n      0xffffffffffffffffffffffffffffffffffffffff\n      and\n      mul\n      or\n      swap1\n      sstore\n      pop\n        /* \"contracts/LicenseManager.sol\":2338:2430  if (_videoOwners[vid] == address(0)) {... */\n    tag_289:\n        /* \"contracts/LicenseManager.sol\":2104:2437  {... */\n      pop\n        /* \"contracts/LicenseManager.sol\":1985:2437  function addVideo(string memory vid, address payable licensor, uint256 nonce, bytes memory signature) public onlyOwner {... */\n      pop\n      pop\n      pop\n      pop\n      jump\t// out\n        /* \"contracts/LicenseManager.sol\":7285:7639  function verifyLicensor(address signer, string memory vid, uint256 nonce, bytes memory signature) public pure returns (bool) {... */\n    tag_107:\n        /* \"contracts/LicenseManager.sol\":7404:7408  bool */\n      0x00\n        /* \"contracts/LicenseManager.sol\":7421:7440  bytes32 messageHash */\n      dup1\n        /* \"contracts/LicenseManager.sol\":7443:7477  getLicensorMessageHash(vid, nonce) */\n      tag_292\n        /* \"contracts/LicenseManager.sol\":7466:7469  vid */\n      dup6\n        /* \"contracts/LicenseManager.sol\":7471:7476  nonce */\n      dup6\n        /* \"contracts/LicenseManager.sol\":7443:7465  getLicensorMessageHash */\n      tag_49\n        /* \"contracts/LicenseManager.sol\":7443:7477  getLicensorMessageHash(vid, nonce) */\n      jump\t// in\n    tag_292:\n        /* \"contracts/LicenseManager.sol\":7421:7477  bytes32 messageHash = getLicensorMessageHash(vid, nonce) */\n      swap1\n      pop\n        /* \"contracts/LicenseManager.sol\":7488:7516  bytes32 ethSignedMessageHash */\n      0x00\n        /* \"contracts/LicenseManager.sol\":7519:7555  getEthSignedMessageHash(messageHash) */\n      tag_293\n        /* \"contracts/LicenseManager.sol\":7543:7554  messageHash */\n      dup3\n        /* \"contracts/LicenseManager.sol\":7519:7542  getEthSignedMessageHash */\n      tag_155\n        /* \"contracts/LicenseManager.sol\":7519:7555  getEthSignedMessageHash(messageHash) */\n      jump\t// in\n    tag_293:\n        /* \"contracts/LicenseManager.sol\":7488:7555  bytes32 ethSignedMessageHash = getEthSignedMessageHash(messageHash) */\n      swap1\n      pop\n        /* \"contracts/LicenseManager.sol\":7625:7631  signer */\n      dup7\n        /* \"contracts/LicenseManager.sol\":7575:7631  recoverSigner(ethSignedMessageHash, signature) == signer */\n      0xffffffffffffffffffffffffffffffffffffffff\n      and\n        /* \"contracts/LicenseManager.sol\":7575:7621  recoverSigner(ethSignedMessageHash, signature) */\n      tag_294\n        /* \"contracts/LicenseManager.sol\":7589:7609  ethSignedMessageHash */\n      dup3\n        /* \"contracts/LicenseManager.sol\":7611:7620  signature */\n      dup7\n        /* \"contracts/LicenseManager.sol\":7575:7588  recoverSigner */\n      tag_119\n        /* \"contracts/LicenseManager.sol\":7575:7621  recoverSigner(ethSignedMessageHash, signature) */\n      jump\t// in\n    tag_294:\n        /* \"contracts/LicenseManager.sol\":7575:7631  recoverSigner(ethSignedMessageHash, signature) == signer */\n      0xffffffffffffffffffffffffffffffffffffffff\n      and\n      eq\n        /* \"contracts/LicenseManager.sol\":7568:7631  return recoverSigner(ethSignedMessageHash, signature) == signer */\n      swap3\n      pop\n      pop\n      pop\n        /* \"contracts/LicenseManager.sol\":7285:7639  function verifyLicensor(address signer, string memory vid, uint256 nonce, bytes memory signature) public pure returns (bool) {... */\n      swap5\n      swap4\n      pop\n      pop\n      pop\n      pop\n      jump\t// out\n        /* \"contracts/LicenseManager.sol\":6055:6675  function composeLicense(LID licenseId, address licensee) public licenseActive(licenseId) view returns(string memory) {... */\n    tag_113:\n        /* \"contracts/LicenseManager.sol\":6157:6170  string memory */\n      0x60\n        /* \"contracts/LicenseManager.sol\":6133:6142  licenseId */\n      dup3\n        /* \"contracts/LicenseManager.sol\":1779:1796  _licenseActivated */\n      0x06\n        /* \"contracts/LicenseManager.sol\":1779:1807  _licenseActivated[licenseId] */\n      0x00\n        /* \"contracts/LicenseManager.sol\":1797:1806  licenseId */\n      dup3\n        /* \"contracts/LicenseManager.sol\":1779:1807  _licenseActivated[licenseId] */\n      dup2\n      mstore\n      0x20\n      add\n      swap1\n      dup2\n      mstore\n      0x20\n      add\n      0x00\n      keccak256\n      0x00\n      swap1\n      sload\n      swap1\n      0x0100\n      exp\n      swap1\n      div\n      0xff\n      and\n        /* \"contracts/LicenseManager.sol\":1771:1833  require(_licenseActivated[licenseId], \"license doesn't exist\") */\n      tag_296\n      jumpi\n      mload(0x40)\n      0x08c379a000000000000000000000000000000000000000000000000000000000\n      dup2\n      mstore\n      0x04\n      add\n      tag_297\n      swap1\n      tag_165\n      jump\t// in\n    tag_297:\n      mload(0x40)\n      dup1\n      swap2\n      sub\n      swap1\n      revert\n    tag_296:\n        /* \"contracts/LicenseManager.sol\":6233:6234  0 */\n      0x00\n        /* \"contracts/LicenseManager.sol\":6191:6208  _licenseLicensees */\n      0x0a\n        /* \"contracts/LicenseManager.sol\":6191:6219  _licenseLicensees[licenseId] */\n      0x00\n        /* \"contracts/LicenseManager.sol\":6209:6218  licenseId */\n      dup7\n        /* \"contracts/LicenseManager.sol\":6191:6219  _licenseLicensees[licenseId] */\n      dup2\n      mstore\n      0x20\n      add\n      swap1\n      dup2\n      mstore\n      0x20\n      add\n      0x00\n      keccak256\n        /* \"contracts/LicenseManager.sol\":6191:6229  _licenseLicensees[licenseId][licensee] */\n      0x00\n        /* \"contracts/LicenseManager.sol\":6220:6228  licensee */\n      dup6\n        /* \"contracts/LicenseManager.sol\":6191:6229  _licenseLicensees[licenseId][licensee] */\n      0xffffffffffffffffffffffffffffffffffffffff\n      and\n      0xffffffffffffffffffffffffffffffffffffffff\n      and\n      dup2\n      mstore\n      0x20\n      add\n      swap1\n      dup2\n      mstore\n      0x20\n      add\n      0x00\n      keccak256\n      sload\n        /* \"contracts/LicenseManager.sol\":6191:6234  _licenseLicensees[licenseId][licensee] != 0 */\n      sub\n        /* \"contracts/LicenseManager.sol\":6183:6255  require(_licenseLicensees[licenseId][licensee] != 0, \"invalid licensee\") */\n      tag_299\n      jumpi\n      mload(0x40)\n      0x08c379a000000000000000000000000000000000000000000000000000000000\n      dup2\n      mstore\n      0x04\n      add\n      tag_300\n      swap1\n      tag_301\n      jump\t// in\n    tag_300:\n      mload(0x40)\n      dup1\n      swap2\n      sub\n      swap1\n      revert\n    tag_299:\n        /* \"contracts/LicenseManager.sol\":6268:6285  string memory vid */\n      0x00\n        /* \"contracts/LicenseManager.sol\":6288:6302  _licenseVideos */\n      0x07\n        /* \"contracts/LicenseManager.sol\":6288:6313  _licenseVideos[licenseId] */\n      0x00\n        /* \"contracts/LicenseManager.sol\":6303:6312  licenseId */\n      dup7\n        /* \"contracts/LicenseManager.sol\":6288:6313  _licenseVideos[licenseId] */\n      dup2\n      mstore\n      0x20\n      add\n      swap1\n      dup2\n      mstore\n      0x20\n      add\n      0x00\n      keccak256\n        /* \"contracts/LicenseManager.sol\":6268:6313  string memory vid = _licenseVideos[licenseId] */\n      dup1\n      sload\n      tag_302\n      swap1\n      tag_219\n      jump\t// in\n    tag_302:\n      dup1\n      0x1f\n      add\n      0x20\n      dup1\n      swap2\n      div\n      mul\n      0x20\n      add\n      mload(0x40)\n      swap1\n      dup2\n      add\n      0x40\n      mstore\n      dup1\n      swap3\n      swap2\n      swap1\n      dup2\n      dup2\n      mstore\n      0x20\n      add\n      dup3\n      dup1\n      sload\n      tag_303\n      swap1\n      tag_219\n      jump\t// in\n    tag_303:\n      dup1\n      iszero\n      tag_304\n      jumpi\n      dup1\n      0x1f\n      lt\n      tag_305\n      jumpi\n      0x0100\n      dup1\n      dup4\n      sload\n      div\n      mul\n      dup4\n      mstore\n      swap2\n      0x20\n      add\n      swap2\n      jump(tag_304)\n    tag_305:\n      dup3\n      add\n      swap2\n      swap1\n      0x00\n      mstore\n      keccak256(0x00, 0x20)\n      swap1\n    tag_306:\n      dup2\n      sload\n      dup2\n      mstore\n      swap1\n      0x01\n      add\n      swap1\n      0x20\n      add\n      dup1\n      dup4\n      gt\n      tag_306\n      jumpi\n      dup3\n      swap1\n      sub\n      0x1f\n      and\n      dup3\n      add\n      swap2\n    tag_304:\n      pop\n      pop\n      pop\n      pop\n      pop\n      swap1\n      pop\n        /* \"contracts/LicenseManager.sol\":6324:6340  address licensor */\n      0x00\n        /* \"contracts/LicenseManager.sol\":6343:6355  _videoOwners */\n      0x02\n        /* \"contracts/LicenseManager.sol\":6356:6359  vid */\n      dup3\n        /* \"contracts/LicenseManager.sol\":6343:6360  _videoOwners[vid] */\n      mload(0x40)\n      tag_307\n      swap2\n      swap1\n      tag_213\n      jump\t// in\n    tag_307:\n      swap1\n      dup2\n      mstore\n      0x20\n      add\n      mload(0x40)\n      dup1\n      swap2\n      sub\n      swap1\n      keccak256\n      0x00\n      swap1\n      sload\n      swap1\n      0x0100\n      exp\n      swap1\n      div\n      0xffffffffffffffffffffffffffffffffffffffff\n      and\n        /* \"contracts/LicenseManager.sol\":6324:6360  address licensor = _videoOwners[vid] */\n      swap1\n      pop\n        /* \"contracts/LicenseManager.sol\":6371:6387  address template */\n      0x00\n        /* \"contracts/LicenseManager.sol\":6390:6407  _licenseTemplates */\n      0x09\n        /* \"contracts/LicenseManager.sol\":6390:6418  _licenseTemplates[licenseId] */\n      0x00\n        /* \"contracts/LicenseManager.sol\":6408:6417  licenseId */\n      dup9\n        /* \"contracts/LicenseManager.sol\":6390:6418  _licenseTemplates[licenseId] */\n      dup2\n      mstore\n      0x20\n      add\n      swap1\n      dup2\n      mstore\n      0x20\n      add\n      0x00\n      keccak256\n      0x00\n      swap1\n      sload\n      swap1\n      0x0100\n      exp\n      swap1\n      div\n      0xffffffffffffffffffffffffffffffffffffffff\n      and\n        /* \"contracts/LicenseManager.sol\":6371:6418  address template = _licenseTemplates[licenseId] */\n      swap1\n      pop\n        /* \"contracts/LicenseManager.sol\":6431:6444  uint256 price */\n      0x00\n        /* \"contracts/LicenseManager.sol\":6447:6461  _licensePrices */\n      0x08\n        /* \"contracts/LicenseManager.sol\":6447:6472  _licensePrices[licenseId] */\n      0x00\n        /* \"contracts/LicenseManager.sol\":6462:6471  licenseId */\n      dup10\n        /* \"contracts/LicenseManager.sol\":6447:6472  _licensePrices[licenseId] */\n      dup2\n      mstore\n      0x20\n      add\n      swap1\n      dup2\n      mstore\n      0x20\n      add\n      0x00\n      keccak256\n      sload\n        /* \"contracts/LicenseManager.sol\":6431:6472  uint256 price = _licensePrices[licenseId] */\n      swap1\n      pop\n        /* \"contracts/LicenseManager.sol\":6483:6500  uint256 timestamp */\n      0x00\n        /* \"contracts/LicenseManager.sol\":6503:6520  _licenseLicensees */\n      0x0a\n        /* \"contracts/LicenseManager.sol\":6503:6531  _licenseLicensees[licenseId] */\n      0x00\n        /* \"contracts/LicenseManager.sol\":6521:6530  licenseId */\n      dup11\n        /* \"contracts/LicenseManager.sol\":6503:6531  _licenseLicensees[licenseId] */\n      dup2\n      mstore\n      0x20\n      add\n      swap1\n      dup2\n      mstore\n      0x20\n      add\n      0x00\n      keccak256\n        /* \"contracts/LicenseManager.sol\":6503:6541  _licenseLicensees[licenseId][licensee] */\n      0x00\n        /* \"contracts/LicenseManager.sol\":6532:6540  licensee */\n      dup10\n        /* \"contracts/LicenseManager.sol\":6503:6541  _licenseLicensees[licenseId][licensee] */\n      0xffffffffffffffffffffffffffffffffffffffff\n      and\n      0xffffffffffffffffffffffffffffffffffffffff\n      and\n      dup2\n      mstore\n      0x20\n      add\n      swap1\n      dup2\n      mstore\n      0x20\n      add\n      0x00\n      keccak256\n      sload\n        /* \"contracts/LicenseManager.sol\":6483:6541  uint256 timestamp = _licenseLicensees[licenseId][licensee] */\n      swap1\n      pop\n        /* \"contracts/LicenseManager.sol\":6554:6570  ILicense license */\n      0x00\n        /* \"contracts/LicenseManager.sol\":6582:6590  template */\n      dup4\n        /* \"contracts/LicenseManager.sol\":6554:6591  ILicense license = ILicense(template) */\n      swap1\n      pop\n        /* \"contracts/LicenseManager.sol\":6609:6616  license */\n      dup1\n        /* \"contracts/LicenseManager.sol\":6609:6624  license.compose */\n      0xffffffffffffffffffffffffffffffffffffffff\n      and\n      0x483ced98\n        /* \"contracts/LicenseManager.sol\":6625:6628  vid */\n      dup8\n        /* \"contracts/LicenseManager.sol\":6630:6638  licensor */\n      dup8\n        /* \"contracts/LicenseManager.sol\":6640:6648  licensee */\n      dup13\n        /* \"contracts/LicenseManager.sol\":6650:6655  price */\n      dup8\n        /* \"contracts/LicenseManager.sol\":6657:6666  timestamp */\n      dup8\n        /* \"contracts/LicenseManager.sol\":6609:6667  license.compose(vid, licensor, licensee, price, timestamp) */\n      mload(0x40)\n      dup7\n      0xffffffff\n      and\n      0xe0\n      shl\n      dup2\n      mstore\n      0x04\n      add\n      tag_308\n      swap6\n      swap5\n      swap4\n      swap3\n      swap2\n      swap1\n      tag_309\n      jump\t// in\n    tag_308:\n      0x00\n      mload(0x40)\n      dup1\n      dup4\n      sub\n      dup2\n      dup7\n      gas\n      staticcall\n      iszero\n      dup1\n      iszero\n      tag_311\n      jumpi\n      returndatasize\n      0x00\n      dup1\n      returndatacopy\n      revert(0x00, returndatasize)\n    tag_311:\n      pop\n      pop\n      pop\n      pop\n      mload(0x40)\n      returndatasize\n      0x00\n      dup3\n      returndatacopy\n      returndatasize\n      not(0x1f)\n      0x1f\n      dup3\n      add\n      and\n      dup3\n      add\n      dup1\n      0x40\n      mstore\n      pop\n      dup2\n      add\n      swap1\n      tag_312\n      swap2\n      swap1\n      tag_313\n      jump\t// in\n    tag_312:\n        /* \"contracts/LicenseManager.sol\":6602:6667  return license.compose(vid, licensor, licensee, price, timestamp) */\n      swap8\n      pop\n      pop\n      pop\n      pop\n      pop\n      pop\n      pop\n        /* \"contracts/LicenseManager.sol\":6055:6675  function composeLicense(LID licenseId, address licensee) public licenseActive(licenseId) view returns(string memory) {... */\n      pop\n      swap3\n      swap2\n      pop\n      pop\n      jump\t// out\n        /* \"contracts/LicenseManager.sol\":8201:8450  function recoverSigner(bytes32 _ethSignedMessageHash, bytes memory _signature) public pure returns (address) {... */\n    tag_119:\n        /* \"contracts/LicenseManager.sol\":8301:8308  address */\n      0x00\n        /* \"contracts/LicenseManager.sol\":8322:8331  bytes32 r */\n      dup1\n        /* \"contracts/LicenseManager.sol\":8333:8342  bytes32 s */\n      0x00\n        /* \"contracts/LicenseManager.sol\":8344:8351  uint8 v */\n      dup1\n        /* \"contracts/LicenseManager.sol\":8355:8381  splitSignature(_signature) */\n      tag_315\n        /* \"contracts/LicenseManager.sol\":8370:8380  _signature */\n      dup6\n        /* \"contracts/LicenseManager.sol\":8355:8369  splitSignature */\n      tag_129\n        /* \"contracts/LicenseManager.sol\":8355:8381  splitSignature(_signature) */\n      jump\t// in\n    tag_315:\n        /* \"contracts/LicenseManager.sol\":8321:8381  (bytes32 r, bytes32 s, uint8 v) = splitSignature(_signature) */\n      swap3\n      pop\n      swap3\n      pop\n      swap3\n      pop\n        /* \"contracts/LicenseManager.sol\":8401:8442  ecrecover(_ethSignedMessageHash, v, r, s) */\n      0x01\n        /* \"contracts/LicenseManager.sol\":8411:8432  _ethSignedMessageHash */\n      dup7\n        /* \"contracts/LicenseManager.sol\":8434:8435  v */\n      dup3\n        /* \"contracts/LicenseManager.sol\":8437:8438  r */\n      dup6\n        /* \"contracts/LicenseManager.sol\":8440:8441  s */\n      dup6\n        /* \"contracts/LicenseManager.sol\":8401:8442  ecrecover(_ethSignedMessageHash, v, r, s) */\n      mload(0x40)\n      0x00\n      dup2\n      mstore\n      0x20\n      add\n      0x40\n      mstore\n      mload(0x40)\n      tag_316\n      swap5\n      swap4\n      swap3\n      swap2\n      swap1\n      tag_317\n      jump\t// in\n    tag_316:\n      0x20\n      mload(0x40)\n      0x20\n      dup2\n      sub\n      swap1\n      dup1\n      dup5\n      sub\n      swap1\n      dup6\n      gas\n      staticcall\n      iszero\n      dup1\n      iszero\n      tag_319\n      jumpi\n      returndatasize\n      0x00\n      dup1\n      returndatacopy\n      revert(0x00, returndatasize)\n    tag_319:\n      pop\n      pop\n      pop\n      mload(sub(mload(0x40), 0x20))\n        /* \"contracts/LicenseManager.sol\":8394:8442  return ecrecover(_ethSignedMessageHash, v, r, s) */\n      swap4\n      pop\n      pop\n      pop\n      pop\n        /* \"contracts/LicenseManager.sol\":8201:8450  function recoverSigner(bytes32 _ethSignedMessageHash, bytes memory _signature) public pure returns (address) {... */\n      swap3\n      swap2\n      pop\n      pop\n      jump\t// out\n        /* \"contracts/LicenseManager.sol\":3791:4001  function removeLicense(LID licenseId) public licenseActive(licenseId) {... */\n    tag_124:\n        /* \"contracts/LicenseManager.sol\":3850:3859  licenseId */\n      dup1\n        /* \"contracts/LicenseManager.sol\":1779:1796  _licenseActivated */\n      0x06\n        /* \"contracts/LicenseManager.sol\":1779:1807  _licenseActivated[licenseId] */\n      0x00\n        /* \"contracts/LicenseManager.sol\":1797:1806  licenseId */\n      dup3\n        /* \"contracts/LicenseManager.sol\":1779:1807  _licenseActivated[licenseId] */\n      dup2\n      mstore\n      0x20\n      add\n      swap1\n      dup2\n      mstore\n      0x20\n      add\n      0x00\n      keccak256\n      0x00\n      swap1\n      sload\n      swap1\n      0x0100\n      exp\n      swap1\n      div\n      0xff\n      and\n        /* \"contracts/LicenseManager.sol\":1771:1833  require(_licenseActivated[licenseId], \"license doesn't exist\") */\n      tag_321\n      jumpi\n      mload(0x40)\n      0x08c379a000000000000000000000000000000000000000000000000000000000\n      dup2\n      mstore\n      0x04\n      add\n      tag_322\n      swap1\n      tag_165\n      jump\t// in\n    tag_322:\n      mload(0x40)\n      dup1\n      swap2\n      sub\n      swap1\n      revert\n    tag_321:\n        /* \"contracts/LicenseManager.sol\":3915:3925  msg.sender */\n      caller\n        /* \"contracts/LicenseManager.sol\":3880:3925  this.getLicenseOwner(licenseId) == msg.sender */\n      0xffffffffffffffffffffffffffffffffffffffff\n      and\n        /* \"contracts/LicenseManager.sol\":3880:3884  this */\n      address\n        /* \"contracts/LicenseManager.sol\":3880:3900  this.getLicenseOwner */\n      0xffffffffffffffffffffffffffffffffffffffff\n      and\n      0x1e7fd268\n        /* \"contracts/LicenseManager.sol\":3901:3910  licenseId */\n      dup5\n        /* \"contracts/LicenseManager.sol\":3880:3911  this.getLicenseOwner(licenseId) */\n      mload(0x40)\n      dup3\n      0xffffffff\n      and\n      0xe0\n      shl\n      dup2\n      mstore\n      0x04\n      add\n      tag_324\n      swap2\n      swap1\n      tag_168\n      jump\t// in\n    tag_324:\n      0x20\n      mload(0x40)\n      dup1\n      dup4\n      sub\n      dup2\n      dup7\n      gas\n      staticcall\n      iszero\n      dup1\n      iszero\n      tag_326\n      jumpi\n      returndatasize\n      0x00\n      dup1\n      returndatacopy\n      revert(0x00, returndatasize)\n    tag_326:\n      pop\n      pop\n      pop\n      pop\n      mload(0x40)\n      returndatasize\n      not(0x1f)\n      0x1f\n      dup3\n      add\n      and\n      dup3\n      add\n      dup1\n      0x40\n      mstore\n      pop\n      dup2\n      add\n      swap1\n      tag_327\n      swap2\n      swap1\n      tag_193\n      jump\t// in\n    tag_327:\n        /* \"contracts/LicenseManager.sol\":3880:3925  this.getLicenseOwner(licenseId) == msg.sender */\n      0xffffffffffffffffffffffffffffffffffffffff\n      and\n      eq\n        /* \"contracts/LicenseManager.sol\":3872:3946  require(this.getLicenseOwner(licenseId) == msg.sender, \"invalid licensor\") */\n      tag_328\n      jumpi\n      mload(0x40)\n      0x08c379a000000000000000000000000000000000000000000000000000000000\n      dup2\n      mstore\n      0x04\n      add\n      tag_329\n      swap1\n      tag_264\n      jump\t// in\n    tag_329:\n      mload(0x40)\n      dup1\n      swap2\n      sub\n      swap1\n      revert\n    tag_328:\n        /* \"contracts/LicenseManager.sol\":3988:3993  false */\n      0x00\n        /* \"contracts/LicenseManager.sol\":3957:3974  _licenseActivated */\n      0x06\n        /* \"contracts/LicenseManager.sol\":3957:3985  _licenseActivated[licenseId] */\n      0x00\n        /* \"contracts/LicenseManager.sol\":3975:3984  licenseId */\n      dup5\n        /* \"contracts/LicenseManager.sol\":3957:3985  _licenseActivated[licenseId] */\n      dup2\n      mstore\n      0x20\n      add\n      swap1\n      dup2\n      mstore\n      0x20\n      add\n      0x00\n      keccak256\n      0x00\n        /* \"contracts/LicenseManager.sol\":3957:3993  _licenseActivated[licenseId] = false */\n      0x0100\n      exp\n      dup2\n      sload\n      dup2\n      0xff\n      mul\n      not\n      and\n      swap1\n      dup4\n      iszero\n      iszero\n      mul\n      or\n      swap1\n      sstore\n      pop\n        /* \"contracts/LicenseManager.sol\":3791:4001  function removeLicense(LID licenseId) public licenseActive(licenseId) {... */\n      pop\n      pop\n      jump\t// out\n        /* \"contracts/LicenseManager.sol\":8458:9267  function splitSignature(bytes memory sig) public pure returns (bytes32 r, bytes32 s, uint8 v) {... */\n    tag_129:\n        /* \"contracts/LicenseManager.sol\":8521:8530  bytes32 r */\n      0x00\n        /* \"contracts/LicenseManager.sol\":8532:8541  bytes32 s */\n      dup1\n        /* \"contracts/LicenseManager.sol\":8543:8550  uint8 v */\n      0x00\n        /* \"contracts/LicenseManager.sol\":8585:8587  65 */\n      0x41\n        /* \"contracts/LicenseManager.sol\":8571:8574  sig */\n      dup5\n        /* \"contracts/LicenseManager.sol\":8571:8581  sig.length */\n      mload\n        /* \"contracts/LicenseManager.sol\":8571:8587  sig.length == 65 */\n      eq\n        /* \"contracts/LicenseManager.sol\":8563:8616  require(sig.length == 65, \"invalid signature length\") */\n      tag_331\n      jumpi\n      mload(0x40)\n      0x08c379a000000000000000000000000000000000000000000000000000000000\n      dup2\n      mstore\n      0x04\n      add\n      tag_332\n      swap1\n      tag_333\n      jump\t// in\n    tag_332:\n      mload(0x40)\n      dup1\n      swap2\n      sub\n      swap1\n      revert\n    tag_331:\n        /* \"contracts/LicenseManager.sol\":9025:9027  32 */\n      0x20\n        /* \"contracts/LicenseManager.sol\":9020:9023  sig */\n      dup5\n        /* \"contracts/LicenseManager.sol\":9016:9028  add(sig, 32) */\n      add\n        /* \"contracts/LicenseManager.sol\":9010:9029  mload(add(sig, 32)) */\n      mload\n        /* \"contracts/LicenseManager.sol\":9005:9029  r := mload(add(sig, 32)) */\n      swap3\n      pop\n        /* \"contracts/LicenseManager.sol\":9095:9097  64 */\n      0x40\n        /* \"contracts/LicenseManager.sol\":9090:9093  sig */\n      dup5\n        /* \"contracts/LicenseManager.sol\":9086:9098  add(sig, 64) */\n      add\n        /* \"contracts/LicenseManager.sol\":9080:9099  mload(add(sig, 64)) */\n      mload\n        /* \"contracts/LicenseManager.sol\":9075:9099  s := mload(add(sig, 64)) */\n      swap2\n      pop\n        /* \"contracts/LicenseManager.sol\":9202:9204  96 */\n      0x60\n        /* \"contracts/LicenseManager.sol\":9197:9200  sig */\n      dup5\n        /* \"contracts/LicenseManager.sol\":9193:9205  add(sig, 96) */\n      add\n        /* \"contracts/LicenseManager.sol\":9187:9206  mload(add(sig, 96)) */\n      mload\n        /* \"contracts/LicenseManager.sol\":9184:9185  0 */\n      0x00\n        /* \"contracts/LicenseManager.sol\":9179:9207  byte(0, mload(add(sig, 96))) */\n      byte\n        /* \"contracts/LicenseManager.sol\":9174:9207  v := byte(0, mload(add(sig, 96))) */\n      swap1\n      pop\n        /* \"contracts/LicenseManager.sol\":8458:9267  function splitSignature(bytes memory sig) public pure returns (bytes32 r, bytes32 s, uint8 v) {... */\n      swap2\n      swap4\n      swap1\n      swap3\n      pop\n      jump\t// out\n        /* \"contracts/LicenseManager.sol\":4522:4673  function getLicenseTemplate(LID licenseId) public view licenseActive(licenseId) returns(address) {... */\n    tag_135:\n        /* \"contracts/LicenseManager.sol\":4610:4617  address */\n      0x00\n        /* \"contracts/LicenseManager.sol\":4591:4600  licenseId */\n      dup2\n        /* \"contracts/LicenseManager.sol\":1779:1796  _licenseActivated */\n      0x06\n        /* \"contracts/LicenseManager.sol\":1779:1807  _licenseActivated[licenseId] */\n      0x00\n        /* \"contracts/LicenseManager.sol\":1797:1806  licenseId */\n      dup3\n        /* \"contracts/LicenseManager.sol\":1779:1807  _licenseActivated[licenseId] */\n      dup2\n      mstore\n      0x20\n      add\n      swap1\n      dup2\n      mstore\n      0x20\n      add\n      0x00\n      keccak256\n      0x00\n      swap1\n      sload\n      swap1\n      0x0100\n      exp\n      swap1\n      div\n      0xff\n      and\n        /* \"contracts/LicenseManager.sol\":1771:1833  require(_licenseActivated[licenseId], \"license doesn't exist\") */\n      tag_335\n      jumpi\n      mload(0x40)\n      0x08c379a000000000000000000000000000000000000000000000000000000000\n      dup2\n      mstore\n      0x04\n      add\n      tag_336\n      swap1\n      tag_165\n      jump\t// in\n    tag_336:\n      mload(0x40)\n      dup1\n      swap2\n      sub\n      swap1\n      revert\n    tag_335:\n        /* \"contracts/LicenseManager.sol\":4637:4654  _licenseTemplates */\n      0x09\n        /* \"contracts/LicenseManager.sol\":4637:4665  _licenseTemplates[licenseId] */\n      0x00\n        /* \"contracts/LicenseManager.sol\":4655:4664  licenseId */\n      dup5\n        /* \"contracts/LicenseManager.sol\":4637:4665  _licenseTemplates[licenseId] */\n      dup2\n      mstore\n      0x20\n      add\n      swap1\n      dup2\n      mstore\n      0x20\n      add\n      0x00\n      keccak256\n      0x00\n      swap1\n      sload\n      swap1\n      0x0100\n      exp\n      swap1\n      div\n      0xffffffffffffffffffffffffffffffffffffffff\n      and\n        /* \"contracts/LicenseManager.sol\":4630:4665  return _licenseTemplates[licenseId] */\n      swap2\n      pop\n        /* \"contracts/LicenseManager.sol\":4522:4673  function getLicenseTemplate(LID licenseId) public view licenseActive(licenseId) returns(address) {... */\n      pop\n      swap2\n      swap1\n      pop\n      jump\t// out\n        /* \"contracts/LicenseManager.sol\":4369:4514  function getLicensePrice(LID licenseId) public view licenseActive(licenseId) returns(uint256) {... */\n    tag_140:\n        /* \"contracts/LicenseManager.sol\":4454:4461  uint256 */\n      0x00\n        /* \"contracts/LicenseManager.sol\":4435:4444  licenseId */\n      dup2\n        /* \"contracts/LicenseManager.sol\":1779:1796  _licenseActivated */\n      0x06\n        /* \"contracts/LicenseManager.sol\":1779:1807  _licenseActivated[licenseId] */\n      0x00\n        /* \"contracts/LicenseManager.sol\":1797:1806  licenseId */\n      dup3\n        /* \"contracts/LicenseManager.sol\":1779:1807  _licenseActivated[licenseId] */\n      dup2\n      mstore\n      0x20\n      add\n      swap1\n      dup2\n      mstore\n      0x20\n      add\n      0x00\n      keccak256\n      0x00\n      swap1\n      sload\n      swap1\n      0x0100\n      exp\n      swap1\n      div\n      0xff\n      and\n        /* \"contracts/LicenseManager.sol\":1771:1833  require(_licenseActivated[licenseId], \"license doesn't exist\") */\n      tag_339\n      jumpi\n      mload(0x40)\n      0x08c379a000000000000000000000000000000000000000000000000000000000\n      dup2\n      mstore\n      0x04\n      add\n      tag_340\n      swap1\n      tag_165\n      jump\t// in\n    tag_340:\n      mload(0x40)\n      dup1\n      swap2\n      sub\n      swap1\n      revert\n    tag_339:\n        /* \"contracts/LicenseManager.sol\":4481:4495  _licensePrices */\n      0x08\n        /* \"contracts/LicenseManager.sol\":4481:4506  _licensePrices[licenseId] */\n      0x00\n        /* \"contracts/LicenseManager.sol\":4496:4505  licenseId */\n      dup5\n        /* \"contracts/LicenseManager.sol\":4481:4506  _licensePrices[licenseId] */\n      dup2\n      mstore\n      0x20\n      add\n      swap1\n      dup2\n      mstore\n      0x20\n      add\n      0x00\n      keccak256\n      sload\n        /* \"contracts/LicenseManager.sol\":4474:4506  return _licensePrices[licenseId] */\n      swap2\n      pop\n        /* \"contracts/LicenseManager.sol\":4369:4514  function getLicensePrice(LID licenseId) public view licenseActive(licenseId) returns(uint256) {... */\n      pop\n      swap2\n      swap1\n      pop\n      jump\t// out\n        /* \"contracts/LicenseManager.sol\":808:914  function removeTemplate(address template) public onlyOwner {... */\n    tag_146:\n        /* \"contracts/LicenseManager.sol\":307:317  msg.sender */\n      caller\n        /* \"contracts/LicenseManager.sol\":297:317  _owner == msg.sender */\n      0xffffffffffffffffffffffffffffffffffffffff\n      and\n        /* \"contracts/LicenseManager.sol\":297:303  _owner */\n      0x00\n      dup1\n      sload\n      swap1\n      0x0100\n      exp\n      swap1\n      div\n      0xffffffffffffffffffffffffffffffffffffffff\n      and\n        /* \"contracts/LicenseManager.sol\":297:317  _owner == msg.sender */\n      0xffffffffffffffffffffffffffffffffffffffff\n      and\n      eq\n        /* \"contracts/LicenseManager.sol\":289:339  require(_owner == msg.sender, \"owner access only\") */\n      tag_343\n      jumpi\n      mload(0x40)\n      0x08c379a000000000000000000000000000000000000000000000000000000000\n      dup2\n      mstore\n      0x04\n      add\n      tag_344\n      swap1\n      tag_247\n      jump\t// in\n    tag_344:\n      mload(0x40)\n      dup1\n      swap2\n      sub\n      swap1\n      revert\n    tag_343:\n        /* \"contracts/LicenseManager.sol\":901:906  false */\n      0x00\n        /* \"contracts/LicenseManager.sol\":878:888  _templates */\n      0x01\n        /* \"contracts/LicenseManager.sol\":878:898  _templates[template] */\n      0x00\n        /* \"contracts/LicenseManager.sol\":889:897  template */\n      dup4\n        /* \"contracts/LicenseManager.sol\":878:898  _templates[template] */\n      0xffffffffffffffffffffffffffffffffffffffff\n      and\n      0xffffffffffffffffffffffffffffffffffffffff\n      and\n      dup2\n      mstore\n      0x20\n      add\n      swap1\n      dup2\n      mstore\n      0x20\n      add\n      0x00\n      keccak256\n      0x00\n        /* \"contracts/LicenseManager.sol\":878:906  _templates[template] = false */\n      0x0100\n      exp\n      dup2\n      sload\n      dup2\n      0xff\n      mul\n      not\n      and\n      swap1\n      dup4\n      iszero\n      iszero\n      mul\n      or\n      swap1\n      sstore\n      pop\n        /* \"contracts/LicenseManager.sol\":808:914  function removeTemplate(address template) public onlyOwner {... */\n      pop\n      jump\t// out\n        /* \"contracts/LicenseManager.sol\":377:471  function transferOwnership(address owner) public onlyOwner() {... */\n    tag_150:\n        /* \"contracts/LicenseManager.sol\":307:317  msg.sender */\n      caller\n        /* \"contracts/LicenseManager.sol\":297:317  _owner == msg.sender */\n      0xffffffffffffffffffffffffffffffffffffffff\n      and\n        /* \"contracts/LicenseManager.sol\":297:303  _owner */\n      0x00\n      dup1\n      sload\n      swap1\n      0x0100\n      exp\n      swap1\n      div\n      0xffffffffffffffffffffffffffffffffffffffff\n      and\n        /* \"contracts/LicenseManager.sol\":297:317  _owner == msg.sender */\n      0xffffffffffffffffffffffffffffffffffffffff\n      and\n      eq\n        /* \"contracts/LicenseManager.sol\":289:339  require(_owner == msg.sender, \"owner access only\") */\n      tag_347\n      jumpi\n      mload(0x40)\n      0x08c379a000000000000000000000000000000000000000000000000000000000\n      dup2\n      mstore\n      0x04\n      add\n      tag_348\n      swap1\n      tag_247\n      jump\t// in\n    tag_348:\n      mload(0x40)\n      dup1\n      swap2\n      sub\n      swap1\n      revert\n    tag_347:\n        /* \"contracts/LicenseManager.sol\":458:463  owner */\n      dup1\n        /* \"contracts/LicenseManager.sol\":449:455  _owner */\n      0x00\n      dup1\n        /* \"contracts/LicenseManager.sol\":449:463  _owner = owner */\n      0x0100\n      exp\n      dup2\n      sload\n      dup2\n      0xffffffffffffffffffffffffffffffffffffffff\n      mul\n      not\n      and\n      swap1\n      dup4\n      0xffffffffffffffffffffffffffffffffffffffff\n      and\n      mul\n      or\n      swap1\n      sstore\n      pop\n        /* \"contracts/LicenseManager.sol\":377:471  function transferOwnership(address owner) public onlyOwner() {... */\n      pop\n      jump\t// out\n        /* \"contracts/LicenseManager.sol\":6709:7089  function getEthSignedMessageHash(bytes32 _messageHash) public pure returns (bytes32) {... */\n    tag_155:\n        /* \"contracts/LicenseManager.sol\":6785:6792  bytes32 */\n      0x00\n        /* \"contracts/LicenseManager.sol\":7057:7069  _messageHash */\n      dup2\n        /* \"contracts/LicenseManager.sol\":7004:7070  abi.encodePacked(\"\\x19Ethereum Signed Message:\\n32\", _messageHash) */\n      add(0x20, mload(0x40))\n      tag_351\n      swap2\n      swap1\n      tag_352\n      jump\t// in\n    tag_351:\n      mload(0x40)\n      0x20\n      dup2\n      dup4\n      sub\n      sub\n      dup2\n      mstore\n      swap1\n      0x40\n      mstore\n        /* \"contracts/LicenseManager.sol\":6980:7081  keccak256(... */\n      dup1\n      mload\n      swap1\n      0x20\n      add\n      keccak256\n        /* \"contracts/LicenseManager.sol\":6973:7081  return keccak256(... */\n      swap1\n      pop\n        /* \"contracts/LicenseManager.sol\":6709:7089  function getEthSignedMessageHash(bytes32 _messageHash) public pure returns (bytes32) {... */\n      swap2\n      swap1\n      pop\n      jump\t// out\n        /* \"contracts/LicenseManager.sol\":3383:3783  function addVideoWithLicense(string memory vid, address payable licensor, uint256 nonce, bytes memory signature, address template, uint256 price, LID licenseId) public onlyOwner templateExists(template) {... */\n    tag_161:\n        /* \"contracts/LicenseManager.sol\":307:317  msg.sender */\n      caller\n        /* \"contracts/LicenseManager.sol\":297:317  _owner == msg.sender */\n      0xffffffffffffffffffffffffffffffffffffffff\n      and\n        /* \"contracts/LicenseManager.sol\":297:303  _owner */\n      0x00\n      dup1\n      sload\n      swap1\n      0x0100\n      exp\n      swap1\n      div\n      0xffffffffffffffffffffffffffffffffffffffff\n      and\n        /* \"contracts/LicenseManager.sol\":297:317  _owner == msg.sender */\n      0xffffffffffffffffffffffffffffffffffffffff\n      and\n      eq\n        /* \"contracts/LicenseManager.sol\":289:339  require(_owner == msg.sender, \"owner access only\") */\n      tag_354\n      jumpi\n      mload(0x40)\n      0x08c379a000000000000000000000000000000000000000000000000000000000\n      dup2\n      mstore\n      0x04\n      add\n      tag_355\n      swap1\n      tag_247\n      jump\t// in\n    tag_355:\n      mload(0x40)\n      dup1\n      swap2\n      sub\n      swap1\n      revert\n    tag_354:\n        /* \"contracts/LicenseManager.sol\":3576:3584  template */\n      dup3\n        /* \"contracts/LicenseManager.sol\":622:632  _templates */\n      0x01\n        /* \"contracts/LicenseManager.sol\":622:642  _templates[template] */\n      0x00\n        /* \"contracts/LicenseManager.sol\":633:641  template */\n      dup3\n        /* \"contracts/LicenseManager.sol\":622:642  _templates[template] */\n      0xffffffffffffffffffffffffffffffffffffffff\n      and\n      0xffffffffffffffffffffffffffffffffffffffff\n      and\n      dup2\n      mstore\n      0x20\n      add\n      swap1\n      dup2\n      mstore\n      0x20\n      add\n      0x00\n      keccak256\n      0x00\n      swap1\n      sload\n      swap1\n      0x0100\n      exp\n      swap1\n      div\n      0xff\n      and\n        /* \"contracts/LicenseManager.sol\":614:668  require(_templates[template], \"license doesn't exist\") */\n      tag_357\n      jumpi\n      mload(0x40)\n      0x08c379a000000000000000000000000000000000000000000000000000000000\n      dup2\n      mstore\n      0x04\n      add\n      tag_358\n      swap1\n      tag_165\n      jump\t// in\n    tag_358:\n      mload(0x40)\n      dup1\n      swap2\n      sub\n      swap1\n      revert\n    tag_357:\n        /* \"contracts/LicenseManager.sol\":3606:3621  _licenseCreated */\n      0x05\n        /* \"contracts/LicenseManager.sol\":3606:3632  _licenseCreated[licenseId] */\n      0x00\n        /* \"contracts/LicenseManager.sol\":3622:3631  licenseId */\n      dup4\n        /* \"contracts/LicenseManager.sol\":3606:3632  _licenseCreated[licenseId] */\n      dup2\n      mstore\n      0x20\n      add\n      swap1\n      dup2\n      mstore\n      0x20\n      add\n      0x00\n      keccak256\n      0x00\n      swap1\n      sload\n      swap1\n      0x0100\n      exp\n      swap1\n      div\n      0xff\n      and\n        /* \"contracts/LicenseManager.sol\":3605:3632  !_licenseCreated[licenseId] */\n      iszero\n        /* \"contracts/LicenseManager.sol\":3597:3659  require(!_licenseCreated[licenseId], \"unavailable license id\") */\n      tag_360\n      jumpi\n      mload(0x40)\n      0x08c379a000000000000000000000000000000000000000000000000000000000\n      dup2\n      mstore\n      0x04\n      add\n      tag_361\n      swap1\n      tag_267\n      jump\t// in\n    tag_361:\n      mload(0x40)\n      dup1\n      swap2\n      sub\n      swap1\n      revert\n    tag_360:\n        /* \"contracts/LicenseManager.sol\":3672:3676  this */\n      address\n        /* \"contracts/LicenseManager.sol\":3672:3685  this.addVideo */\n      0xffffffffffffffffffffffffffffffffffffffff\n      and\n      0x76b1d966\n        /* \"contracts/LicenseManager.sol\":3686:3689  vid */\n      dup10\n        /* \"contracts/LicenseManager.sol\":3691:3699  licensor */\n      dup10\n        /* \"contracts/LicenseManager.sol\":3701:3706  nonce */\n      dup10\n        /* \"contracts/LicenseManager.sol\":3708:3717  signature */\n      dup10\n        /* \"contracts/LicenseManager.sol\":3672:3718  this.addVideo(vid, licensor, nonce, signature) */\n      mload(0x40)\n      dup6\n      0xffffffff\n      and\n      0xe0\n      shl\n      dup2\n      mstore\n      0x04\n      add\n      tag_362\n      swap5\n      swap4\n      swap3\n      swap2\n      swap1\n      tag_363\n      jump\t// in\n    tag_362:\n      0x00\n      mload(0x40)\n      dup1\n      dup4\n      sub\n      dup2\n      0x00\n      dup8\n      dup1\n      extcodesize\n      iszero\n      dup1\n      iszero\n      tag_364\n      jumpi\n      0x00\n      dup1\n      revert\n    tag_364:\n      pop\n      gas\n      call\n      iszero\n      dup1\n      iszero\n      tag_366\n      jumpi\n      returndatasize\n      0x00\n      dup1\n      returndatacopy\n      revert(0x00, returndatasize)\n    tag_366:\n      pop\n      pop\n      pop\n      pop\n        /* \"contracts/LicenseManager.sol\":3729:3775  createLicense(vid, template, price, licenseId) */\n      tag_367\n        /* \"contracts/LicenseManager.sol\":3743:3746  vid */\n      dup9\n        /* \"contracts/LicenseManager.sol\":3748:3756  template */\n      dup6\n        /* \"contracts/LicenseManager.sol\":3758:3763  price */\n      dup6\n        /* \"contracts/LicenseManager.sol\":3765:3774  licenseId */\n      dup6\n        /* \"contracts/LicenseManager.sol\":3729:3742  createLicense */\n      tag_269\n        /* \"contracts/LicenseManager.sol\":3729:3775  createLicense(vid, template, price, licenseId) */\n      jump\t// in\n    tag_367:\n        /* \"contracts/LicenseManager.sol\":360:361  _ */\n      pop\n        /* \"contracts/LicenseManager.sol\":3383:3783  function addVideoWithLicense(string memory vid, address payable licensor, uint256 nonce, bytes memory signature, address template, uint256 price, LID licenseId) public onlyOwner templateExists(template) {... */\n      pop\n      pop\n      pop\n      pop\n      pop\n      pop\n      pop\n      jump\t// out\n        /* \"contracts/LicenseManager.sol\":2445:3013  function createLicense(string memory vid, address template, uint256 price, LID licenseId) private {... */\n    tag_269:\n        /* \"contracts/LicenseManager.sol\":2583:2587  true */\n      0x01\n        /* \"contracts/LicenseManager.sol\":2554:2569  _licenseCreated */\n      0x05\n        /* \"contracts/LicenseManager.sol\":2554:2580  _licenseCreated[licenseId] */\n      0x00\n        /* \"contracts/LicenseManager.sol\":2570:2579  licenseId */\n      dup4\n        /* \"contracts/LicenseManager.sol\":2554:2580  _licenseCreated[licenseId] */\n      dup2\n      mstore\n      0x20\n      add\n      swap1\n      dup2\n      mstore\n      0x20\n      add\n      0x00\n      keccak256\n      0x00\n        /* \"contracts/LicenseManager.sol\":2554:2587  _licenseCreated[licenseId] = true */\n      0x0100\n      exp\n      dup2\n      sload\n      dup2\n      0xff\n      mul\n      not\n      and\n      swap1\n      dup4\n      iszero\n      iszero\n      mul\n      or\n      swap1\n      sstore\n      pop\n        /* \"contracts/LicenseManager.sol\":2629:2633  true */\n      0x01\n        /* \"contracts/LicenseManager.sol\":2598:2615  _licenseActivated */\n      0x06\n        /* \"contracts/LicenseManager.sol\":2598:2626  _licenseActivated[licenseId] */\n      0x00\n        /* \"contracts/LicenseManager.sol\":2616:2625  licenseId */\n      dup4\n        /* \"contracts/LicenseManager.sol\":2598:2626  _licenseActivated[licenseId] */\n      dup2\n      mstore\n      0x20\n      add\n      swap1\n      dup2\n      mstore\n      0x20\n      add\n      0x00\n      keccak256\n      0x00\n        /* \"contracts/LicenseManager.sol\":2598:2633  _licenseActivated[licenseId] = true */\n      0x0100\n      exp\n      dup2\n      sload\n      dup2\n      0xff\n      mul\n      not\n      and\n      swap1\n      dup4\n      iszero\n      iszero\n      mul\n      or\n      swap1\n      sstore\n      pop\n        /* \"contracts/LicenseManager.sol\":2690:2703  uint256 count */\n      0x00\n        /* \"contracts/LicenseManager.sol\":2706:2725  _videoLicenseCounts */\n      0x03\n        /* \"contracts/LicenseManager.sol\":2726:2729  vid */\n      dup6\n        /* \"contracts/LicenseManager.sol\":2706:2730  _videoLicenseCounts[vid] */\n      mload(0x40)\n      tag_369\n      swap2\n      swap1\n      tag_213\n      jump\t// in\n    tag_369:\n      swap1\n      dup2\n      mstore\n      0x20\n      add\n      mload(0x40)\n      dup1\n      swap2\n      sub\n      swap1\n      keccak256\n      sload\n        /* \"contracts/LicenseManager.sol\":2690:2730  uint256 count = _videoLicenseCounts[vid] */\n      swap1\n      pop\n        /* \"contracts/LicenseManager.sol\":2772:2781  licenseId */\n      dup2\n        /* \"contracts/LicenseManager.sol\":2741:2757  _videoLicenseIDs */\n      0x04\n        /* \"contracts/LicenseManager.sol\":2758:2761  vid */\n      dup7\n        /* \"contracts/LicenseManager.sol\":2741:2762  _videoLicenseIDs[vid] */\n      mload(0x40)\n      tag_370\n      swap2\n      swap1\n      tag_213\n      jump\t// in\n    tag_370:\n      swap1\n      dup2\n      mstore\n      0x20\n      add\n      mload(0x40)\n      dup1\n      swap2\n      sub\n      swap1\n      keccak256\n        /* \"contracts/LicenseManager.sol\":2741:2769  _videoLicenseIDs[vid][count] */\n      0x00\n        /* \"contracts/LicenseManager.sol\":2763:2768  count */\n      dup4\n        /* \"contracts/LicenseManager.sol\":2741:2769  _videoLicenseIDs[vid][count] */\n      dup2\n      mstore\n      0x20\n      add\n      swap1\n      dup2\n      mstore\n      0x20\n      add\n      0x00\n      keccak256\n        /* \"contracts/LicenseManager.sol\":2741:2781  _videoLicenseIDs[vid][count] = licenseId */\n      dup2\n      swap1\n      sstore\n      pop\n        /* \"contracts/LicenseManager.sol\":2827:2828  1 */\n      0x01\n        /* \"contracts/LicenseManager.sol\":2819:2824  count */\n      dup2\n        /* \"contracts/LicenseManager.sol\":2819:2828  count + 1 */\n      tag_371\n      swap2\n      swap1\n      tag_372\n      jump\t// in\n    tag_371:\n        /* \"contracts/LicenseManager.sol\":2792:2811  _videoLicenseCounts */\n      0x03\n        /* \"contracts/LicenseManager.sol\":2812:2815  vid */\n      dup7\n        /* \"contracts/LicenseManager.sol\":2792:2816  _videoLicenseCounts[vid] */\n      mload(0x40)\n      tag_373\n      swap2\n      swap1\n      tag_213\n      jump\t// in\n    tag_373:\n      swap1\n      dup2\n      mstore\n      0x20\n      add\n      mload(0x40)\n      dup1\n      swap2\n      sub\n      swap1\n      keccak256\n        /* \"contracts/LicenseManager.sol\":2792:2828  _videoLicenseCounts[vid] = count + 1 */\n      dup2\n      swap1\n      sstore\n      pop\n        /* \"contracts/LicenseManager.sol\":2908:2911  vid */\n      dup5\n        /* \"contracts/LicenseManager.sol\":2880:2894  _licenseVideos */\n      0x07\n        /* \"contracts/LicenseManager.sol\":2880:2905  _licenseVideos[licenseId] */\n      0x00\n        /* \"contracts/LicenseManager.sol\":2895:2904  licenseId */\n      dup5\n        /* \"contracts/LicenseManager.sol\":2880:2905  _licenseVideos[licenseId] */\n      dup2\n      mstore\n      0x20\n      add\n      swap1\n      dup2\n      mstore\n      0x20\n      add\n      0x00\n      keccak256\n        /* \"contracts/LicenseManager.sol\":2880:2911  _licenseVideos[licenseId] = vid */\n      swap1\n      dup2\n      tag_374\n      swap2\n      swap1\n      tag_375\n      jump\t// in\n    tag_374:\n      pop\n        /* \"contracts/LicenseManager.sol\":2950:2955  price */\n      dup3\n        /* \"contracts/LicenseManager.sol\":2922:2936  _licensePrices */\n      0x08\n        /* \"contracts/LicenseManager.sol\":2922:2947  _licensePrices[licenseId] */\n      0x00\n        /* \"contracts/LicenseManager.sol\":2937:2946  licenseId */\n      dup5\n        /* \"contracts/LicenseManager.sol\":2922:2947  _licensePrices[licenseId] */\n      dup2\n      mstore\n      0x20\n      add\n      swap1\n      dup2\n      mstore\n      0x20\n      add\n      0x00\n      keccak256\n        /* \"contracts/LicenseManager.sol\":2922:2955  _licensePrices[licenseId] = price */\n      dup2\n      swap1\n      sstore\n      pop\n        /* \"contracts/LicenseManager.sol\":2997:3005  template */\n      dup4\n        /* \"contracts/LicenseManager.sol\":2966:2983  _licenseTemplates */\n      0x09\n        /* \"contracts/LicenseManager.sol\":2966:2994  _licenseTemplates[licenseId] */\n      0x00\n        /* \"contracts/LicenseManager.sol\":2984:2993  licenseId */\n      dup5\n        /* \"contracts/LicenseManager.sol\":2966:2994  _licenseTemplates[licenseId] */\n      dup2\n      mstore\n      0x20\n      add\n      swap1\n      dup2\n      mstore\n      0x20\n      add\n      0x00\n      keccak256\n      0x00\n        /* \"contracts/LicenseManager.sol\":2966:3005  _licenseTemplates[licenseId] = template */\n      0x0100\n      exp\n      dup2\n      sload\n      dup2\n      0xffffffffffffffffffffffffffffffffffffffff\n      mul\n      not\n      and\n      swap1\n      dup4\n      0xffffffffffffffffffffffffffffffffffffffff\n      and\n      mul\n      or\n      swap1\n      sstore\n      pop\n        /* \"contracts/LicenseManager.sol\":2543:3013  {... */\n      pop\n        /* \"contracts/LicenseManager.sol\":2445:3013  function createLicense(string memory vid, address template, uint256 price, LID licenseId) private {... */\n      pop\n      pop\n      pop\n      pop\n      jump\t// out\n        /* \"#utility.yul\":7:82   */\n    tag_376:\n        /* \"#utility.yul\":40:46   */\n      0x00\n        /* \"#utility.yul\":73:75   */\n      0x40\n        /* \"#utility.yul\":67:76   */\n      mload\n        /* \"#utility.yul\":57:76   */\n      swap1\n      pop\n        /* \"#utility.yul\":7:82   */\n      swap1\n      jump\t// out\n        /* \"#utility.yul\":88:205   */\n    tag_377:\n        /* \"#utility.yul\":197:198   */\n      0x00\n        /* \"#utility.yul\":194:195   */\n      dup1\n        /* \"#utility.yul\":187:199   */\n      revert\n        /* \"#utility.yul\":211:328   */\n    tag_378:\n        /* \"#utility.yul\":320:321   */\n      0x00\n        /* \"#utility.yul\":317:318   */\n      dup1\n        /* \"#utility.yul\":310:322   */\n      revert\n        /* \"#utility.yul\":334:411   */\n    tag_379:\n        /* \"#utility.yul\":371:378   */\n      0x00\n        /* \"#utility.yul\":400:405   */\n      dup2\n        /* \"#utility.yul\":389:405   */\n      swap1\n      pop\n        /* \"#utility.yul\":334:411   */\n      swap2\n      swap1\n      pop\n      jump\t// out\n        /* \"#utility.yul\":417:561   */\n    tag_380:\n        /* \"#utility.yul\":512:536   */\n      tag_499\n        /* \"#utility.yul\":530:535   */\n      dup2\n        /* \"#utility.yul\":512:536   */\n      tag_379\n      jump\t// in\n    tag_499:\n        /* \"#utility.yul\":505:510   */\n      dup2\n        /* \"#utility.yul\":502:537   */\n      eq\n        /* \"#utility.yul\":492:555   */\n      tag_500\n      jumpi\n        /* \"#utility.yul\":551:552   */\n      0x00\n        /* \"#utility.yul\":548:549   */\n      dup1\n        /* \"#utility.yul\":541:553   */\n      revert\n        /* \"#utility.yul\":492:555   */\n    tag_500:\n        /* \"#utility.yul\":417:561   */\n      pop\n      jump\t// out\n        /* \"#utility.yul\":567:750   */\n    tag_381:\n        /* \"#utility.yul\":635:640   */\n      0x00\n        /* \"#utility.yul\":673:679   */\n      dup2\n        /* \"#utility.yul\":660:680   */\n      calldataload\n        /* \"#utility.yul\":651:680   */\n      swap1\n      pop\n        /* \"#utility.yul\":689:744   */\n      tag_502\n        /* \"#utility.yul\":738:743   */\n      dup2\n        /* \"#utility.yul\":689:744   */\n      tag_380\n      jump\t// in\n    tag_502:\n        /* \"#utility.yul\":567:750   */\n      swap3\n      swap2\n      pop\n      pop\n      jump\t// out\n        /* \"#utility.yul\":756:878   */\n    tag_382:\n        /* \"#utility.yul\":829:853   */\n      tag_504\n        /* \"#utility.yul\":847:852   */\n      dup2\n        /* \"#utility.yul\":829:853   */\n      tag_379\n      jump\t// in\n    tag_504:\n        /* \"#utility.yul\":822:827   */\n      dup2\n        /* \"#utility.yul\":819:854   */\n      eq\n        /* \"#utility.yul\":809:872   */\n      tag_505\n      jumpi\n        /* \"#utility.yul\":868:869   */\n      0x00\n        /* \"#utility.yul\":865:866   */\n      dup1\n        /* \"#utility.yul\":858:870   */\n      revert\n        /* \"#utility.yul\":809:872   */\n    tag_505:\n        /* \"#utility.yul\":756:878   */\n      pop\n      jump\t// out\n        /* \"#utility.yul\":884:1023   */\n    tag_383:\n        /* \"#utility.yul\":930:935   */\n      0x00\n        /* \"#utility.yul\":968:974   */\n      dup2\n        /* \"#utility.yul\":955:975   */\n      calldataload\n        /* \"#utility.yul\":946:975   */\n      swap1\n      pop\n        /* \"#utility.yul\":984:1017   */\n      tag_507\n        /* \"#utility.yul\":1011:1016   */\n      dup2\n        /* \"#utility.yul\":984:1017   */\n      tag_382\n      jump\t// in\n    tag_507:\n        /* \"#utility.yul\":884:1023   */\n      swap3\n      swap2\n      pop\n      pop\n      jump\t// out\n        /* \"#utility.yul\":1029:1146   */\n    tag_384:\n        /* \"#utility.yul\":1138:1139   */\n      0x00\n        /* \"#utility.yul\":1135:1136   */\n      dup1\n        /* \"#utility.yul\":1128:1140   */\n      revert\n        /* \"#utility.yul\":1152:1269   */\n    tag_385:\n        /* \"#utility.yul\":1261:1262   */\n      0x00\n        /* \"#utility.yul\":1258:1259   */\n      dup1\n        /* \"#utility.yul\":1251:1263   */\n      revert\n        /* \"#utility.yul\":1275:1377   */\n    tag_386:\n        /* \"#utility.yul\":1316:1322   */\n      0x00\n        /* \"#utility.yul\":1367:1369   */\n      0x1f\n        /* \"#utility.yul\":1363:1370   */\n      not\n        /* \"#utility.yul\":1358:1360   */\n      0x1f\n        /* \"#utility.yul\":1351:1356   */\n      dup4\n        /* \"#utility.yul\":1347:1361   */\n      add\n        /* \"#utility.yul\":1343:1371   */\n      and\n        /* \"#utility.yul\":1333:1371   */\n      swap1\n      pop\n        /* \"#utility.yul\":1275:1377   */\n      swap2\n      swap1\n      pop\n      jump\t// out\n        /* \"#utility.yul\":1383:1563   */\n    tag_233:\n        /* \"#utility.yul\":1431:1508   */\n      0x4e487b7100000000000000000000000000000000000000000000000000000000\n        /* \"#utility.yul\":1428:1429   */\n      0x00\n        /* \"#utility.yul\":1421:1509   */\n      mstore\n        /* \"#utility.yul\":1528:1532   */\n      0x41\n        /* \"#utility.yul\":1525:1526   */\n      0x04\n        /* \"#utility.yul\":1518:1533   */\n      mstore\n        /* \"#utility.yul\":1552:1556   */\n      0x24\n        /* \"#utility.yul\":1549:1550   */\n      0x00\n        /* \"#utility.yul\":1542:1557   */\n      revert\n        /* \"#utility.yul\":1569:1850   */\n    tag_387:\n        /* \"#utility.yul\":1652:1679   */\n      tag_513\n        /* \"#utility.yul\":1674:1678   */\n      dup3\n        /* \"#utility.yul\":1652:1679   */\n      tag_386\n      jump\t// in\n    tag_513:\n        /* \"#utility.yul\":1644:1650   */\n      dup2\n        /* \"#utility.yul\":1640:1680   */\n      add\n        /* \"#utility.yul\":1782:1788   */\n      dup2\n        /* \"#utility.yul\":1770:1780   */\n      dup2\n        /* \"#utility.yul\":1767:1789   */\n      lt\n        /* \"#utility.yul\":1746:1764   */\n      0xffffffffffffffff\n        /* \"#utility.yul\":1734:1744   */\n      dup3\n        /* \"#utility.yul\":1731:1765   */\n      gt\n        /* \"#utility.yul\":1728:1790   */\n      or\n        /* \"#utility.yul\":1725:1813   */\n      iszero\n      tag_514\n      jumpi\n        /* \"#utility.yul\":1793:1811   */\n      tag_515\n      tag_233\n      jump\t// in\n    tag_515:\n        /* \"#utility.yul\":1725:1813   */\n    tag_514:\n        /* \"#utility.yul\":1833:1843   */\n      dup1\n        /* \"#utility.yul\":1829:1831   */\n      0x40\n        /* \"#utility.yul\":1822:1844   */\n      mstore\n        /* \"#utility.yul\":1612:1850   */\n      pop\n        /* \"#utility.yul\":1569:1850   */\n      pop\n      pop\n      jump\t// out\n        /* \"#utility.yul\":1856:1985   */\n    tag_388:\n        /* \"#utility.yul\":1890:1896   */\n      0x00\n        /* \"#utility.yul\":1917:1937   */\n      tag_517\n      tag_376\n      jump\t// in\n    tag_517:\n        /* \"#utility.yul\":1907:1937   */\n      swap1\n      pop\n        /* \"#utility.yul\":1946:1979   */\n      tag_518\n        /* \"#utility.yul\":1974:1978   */\n      dup3\n        /* \"#utility.yul\":1966:1972   */\n      dup3\n        /* \"#utility.yul\":1946:1979   */\n      tag_387\n      jump\t// in\n    tag_518:\n        /* \"#utility.yul\":1856:1985   */\n      swap2\n      swap1\n      pop\n      jump\t// out\n        /* \"#utility.yul\":1991:2298   */\n    tag_389:\n        /* \"#utility.yul\":2052:2056   */\n      0x00\n        /* \"#utility.yul\":2142:2160   */\n      0xffffffffffffffff\n        /* \"#utility.yul\":2134:2140   */\n      dup3\n        /* \"#utility.yul\":2131:2161   */\n      gt\n        /* \"#utility.yul\":2128:2184   */\n      iszero\n      tag_520\n      jumpi\n        /* \"#utility.yul\":2164:2182   */\n      tag_521\n      tag_233\n      jump\t// in\n    tag_521:\n        /* \"#utility.yul\":2128:2184   */\n    tag_520:\n        /* \"#utility.yul\":2202:2231   */\n      tag_522\n        /* \"#utility.yul\":2224:2230   */\n      dup3\n        /* \"#utility.yul\":2202:2231   */\n      tag_386\n      jump\t// in\n    tag_522:\n        /* \"#utility.yul\":2194:2231   */\n      swap1\n      pop\n        /* \"#utility.yul\":2286:2290   */\n      0x20\n        /* \"#utility.yul\":2280:2284   */\n      dup2\n        /* \"#utility.yul\":2276:2291   */\n      add\n        /* \"#utility.yul\":2268:2291   */\n      swap1\n      pop\n        /* \"#utility.yul\":1991:2298   */\n      swap2\n      swap1\n      pop\n      jump\t// out\n        /* \"#utility.yul\":2304:2452   */\n    tag_390:\n        /* \"#utility.yul\":2402:2408   */\n      dup3\n        /* \"#utility.yul\":2397:2400   */\n      dup2\n        /* \"#utility.yul\":2392:2395   */\n      dup4\n        /* \"#utility.yul\":2379:2409   */\n      calldatacopy\n        /* \"#utility.yul\":2443:2444   */\n      0x00\n        /* \"#utility.yul\":2434:2440   */\n      dup4\n        /* \"#utility.yul\":2429:2432   */\n      dup4\n        /* \"#utility.yul\":2425:2441   */\n      add\n        /* \"#utility.yul\":2418:2445   */\n      mstore\n        /* \"#utility.yul\":2304:2452   */\n      pop\n      pop\n      pop\n      jump\t// out\n        /* \"#utility.yul\":2458:2881   */\n    tag_391:\n        /* \"#utility.yul\":2535:2540   */\n      0x00\n        /* \"#utility.yul\":2560:2625   */\n      tag_525\n        /* \"#utility.yul\":2576:2624   */\n      tag_526\n        /* \"#utility.yul\":2617:2623   */\n      dup5\n        /* \"#utility.yul\":2576:2624   */\n      tag_389\n      jump\t// in\n    tag_526:\n        /* \"#utility.yul\":2560:2625   */\n      tag_388\n      jump\t// in\n    tag_525:\n        /* \"#utility.yul\":2551:2625   */\n      swap1\n      pop\n        /* \"#utility.yul\":2648:2654   */\n      dup3\n        /* \"#utility.yul\":2641:2646   */\n      dup2\n        /* \"#utility.yul\":2634:2655   */\n      mstore\n        /* \"#utility.yul\":2686:2690   */\n      0x20\n        /* \"#utility.yul\":2679:2684   */\n      dup2\n        /* \"#utility.yul\":2675:2691   */\n      add\n        /* \"#utility.yul\":2724:2727   */\n      dup5\n        /* \"#utility.yul\":2715:2721   */\n      dup5\n        /* \"#utility.yul\":2710:2713   */\n      dup5\n        /* \"#utility.yul\":2706:2722   */\n      add\n        /* \"#utility.yul\":2703:2728   */\n      gt\n        /* \"#utility.yul\":2700:2812   */\n      iszero\n      tag_527\n      jumpi\n        /* \"#utility.yul\":2731:2810   */\n      tag_528\n      tag_385\n      jump\t// in\n    tag_528:\n        /* \"#utility.yul\":2700:2812   */\n    tag_527:\n        /* \"#utility.yul\":2821:2875   */\n      tag_529\n        /* \"#utility.yul\":2868:2874   */\n      dup5\n        /* \"#utility.yul\":2863:2866   */\n      dup3\n        /* \"#utility.yul\":2858:2861   */\n      dup6\n        /* \"#utility.yul\":2821:2875   */\n      tag_390\n      jump\t// in\n    tag_529:\n        /* \"#utility.yul\":2541:2881   */\n      pop\n        /* \"#utility.yul\":2458:2881   */\n      swap4\n      swap3\n      pop\n      pop\n      pop\n      jump\t// out\n        /* \"#utility.yul\":2900:3238   */\n    tag_392:\n        /* \"#utility.yul\":2955:2960   */\n      0x00\n        /* \"#utility.yul\":3004:3007   */\n      dup3\n        /* \"#utility.yul\":2997:3001   */\n      0x1f\n        /* \"#utility.yul\":2989:2995   */\n      dup4\n        /* \"#utility.yul\":2985:3002   */\n      add\n        /* \"#utility.yul\":2981:3008   */\n      slt\n        /* \"#utility.yul\":2971:3093   */\n      tag_531\n      jumpi\n        /* \"#utility.yul\":3012:3091   */\n      tag_532\n      tag_384\n      jump\t// in\n    tag_532:\n        /* \"#utility.yul\":2971:3093   */\n    tag_531:\n        /* \"#utility.yul\":3129:3135   */\n      dup2\n        /* \"#utility.yul\":3116:3136   */\n      calldataload\n        /* \"#utility.yul\":3154:3232   */\n      tag_533\n        /* \"#utility.yul\":3228:3231   */\n      dup5\n        /* \"#utility.yul\":3220:3226   */\n      dup3\n        /* \"#utility.yul\":3213:3217   */\n      0x20\n        /* \"#utility.yul\":3205:3211   */\n      dup7\n        /* \"#utility.yul\":3201:3218   */\n      add\n        /* \"#utility.yul\":3154:3232   */\n      tag_391\n      jump\t// in\n    tag_533:\n        /* \"#utility.yul\":3145:3232   */\n      swap2\n      pop\n        /* \"#utility.yul\":2961:3238   */\n      pop\n        /* \"#utility.yul\":2900:3238   */\n      swap3\n      swap2\n      pop\n      pop\n      jump\t// out\n        /* \"#utility.yul\":3244:4085   */\n    tag_31:\n        /* \"#utility.yul\":3352:3358   */\n      0x00\n        /* \"#utility.yul\":3360:3366   */\n      dup1\n        /* \"#utility.yul\":3368:3374   */\n      0x00\n        /* \"#utility.yul\":3417:3419   */\n      0x60\n        /* \"#utility.yul\":3405:3414   */\n      dup5\n        /* \"#utility.yul\":3396:3403   */\n      dup7\n        /* \"#utility.yul\":3392:3415   */\n      sub\n        /* \"#utility.yul\":3388:3420   */\n      slt\n        /* \"#utility.yul\":3385:3504   */\n      iszero\n      tag_535\n      jumpi\n        /* \"#utility.yul\":3423:3502   */\n      tag_536\n      tag_377\n      jump\t// in\n    tag_536:\n        /* \"#utility.yul\":3385:3504   */\n    tag_535:\n        /* \"#utility.yul\":3543:3544   */\n      0x00\n        /* \"#utility.yul\":3568:3643   */\n      tag_537\n        /* \"#utility.yul\":3635:3642   */\n      dup7\n        /* \"#utility.yul\":3626:3632   */\n      dup3\n        /* \"#utility.yul\":3615:3624   */\n      dup8\n        /* \"#utility.yul\":3611:3633   */\n      add\n        /* \"#utility.yul\":3568:3643   */\n      tag_381\n      jump\t// in\n    tag_537:\n        /* \"#utility.yul\":3558:3643   */\n      swap4\n      pop\n        /* \"#utility.yul\":3514:3653   */\n      pop\n        /* \"#utility.yul\":3692:3694   */\n      0x20\n        /* \"#utility.yul\":3718:3771   */\n      tag_538\n        /* \"#utility.yul\":3763:3770   */\n      dup7\n        /* \"#utility.yul\":3754:3760   */\n      dup3\n        /* \"#utility.yul\":3743:3752   */\n      dup8\n        /* \"#utility.yul\":3739:3761   */\n      add\n        /* \"#utility.yul\":3718:3771   */\n      tag_383\n      jump\t// in\n    tag_538:\n        /* \"#utility.yul\":3708:3771   */\n      swap3\n      pop\n        /* \"#utility.yul\":3663:3781   */\n      pop\n        /* \"#utility.yul\":3848:3850   */\n      0x40\n        /* \"#utility.yul\":3837:3846   */\n      dup5\n        /* \"#utility.yul\":3833:3851   */\n      add\n        /* \"#utility.yul\":3820:3852   */\n      calldataload\n        /* \"#utility.yul\":3879:3897   */\n      0xffffffffffffffff\n        /* \"#utility.yul\":3871:3877   */\n      dup2\n        /* \"#utility.yul\":3868:3898   */\n      gt\n        /* \"#utility.yul\":3865:3982   */\n      iszero\n      tag_539\n      jumpi\n        /* \"#utility.yul\":3901:3980   */\n      tag_540\n      tag_378\n      jump\t// in\n    tag_540:\n        /* \"#utility.yul\":3865:3982   */\n    tag_539:\n        /* \"#utility.yul\":4006:4068   */\n      tag_541\n        /* \"#utility.yul\":4060:4067   */\n      dup7\n        /* \"#utility.yul\":4051:4057   */\n      dup3\n        /* \"#utility.yul\":4040:4049   */\n      dup8\n        /* \"#utility.yul\":4036:4058   */\n      add\n        /* \"#utility.yul\":4006:4068   */\n      tag_392\n      jump\t// in\n    tag_541:\n        /* \"#utility.yul\":3996:4068   */\n      swap2\n      pop\n        /* \"#utility.yul\":3791:4078   */\n      pop\n        /* \"#utility.yul\":3244:4085   */\n      swap3\n      pop\n      swap3\n      pop\n      swap3\n      jump\t// out\n        /* \"#utility.yul\":4091:4190   */\n    tag_393:\n        /* \"#utility.yul\":4143:4149   */\n      0x00\n        /* \"#utility.yul\":4177:4182   */\n      dup2\n        /* \"#utility.yul\":4171:4183   */\n      mload\n        /* \"#utility.yul\":4161:4183   */\n      swap1\n      pop\n        /* \"#utility.yul\":4091:4190   */\n      swap2\n      swap1\n      pop\n      jump\t// out\n        /* \"#utility.yul\":4196:4365   */\n    tag_394:\n        /* \"#utility.yul\":4280:4291   */\n      0x00\n        /* \"#utility.yul\":4314:4320   */\n      dup3\n        /* \"#utility.yul\":4309:4312   */\n      dup3\n        /* \"#utility.yul\":4302:4321   */\n      mstore\n        /* \"#utility.yul\":4354:4358   */\n      0x20\n        /* \"#utility.yul\":4349:4352   */\n      dup3\n        /* \"#utility.yul\":4345:4359   */\n      add\n        /* \"#utility.yul\":4330:4359   */\n      swap1\n      pop\n        /* \"#utility.yul\":4196:4365   */\n      swap3\n      swap2\n      pop\n      pop\n      jump\t// out\n        /* \"#utility.yul\":4371:4510   */\n    tag_395:\n        /* \"#utility.yul\":4460:4466   */\n      dup3\n        /* \"#utility.yul\":4455:4458   */\n      dup2\n        /* \"#utility.yul\":4450:4453   */\n      dup4\n        /* \"#utility.yul\":4444:4467   */\n      mcopy\n        /* \"#utility.yul\":4501:4502   */\n      0x00\n        /* \"#utility.yul\":4492:4498   */\n      dup4\n        /* \"#utility.yul\":4487:4490   */\n      dup4\n        /* \"#utility.yul\":4483:4499   */\n      add\n        /* \"#utility.yul\":4476:4503   */\n      mstore\n        /* \"#utility.yul\":4371:4510   */\n      pop\n      pop\n      pop\n      jump\t// out\n        /* \"#utility.yul\":4516:4893   */\n    tag_396:\n        /* \"#utility.yul\":4604:4607   */\n      0x00\n        /* \"#utility.yul\":4632:4671   */\n      tag_546\n        /* \"#utility.yul\":4665:4670   */\n      dup3\n        /* \"#utility.yul\":4632:4671   */\n      tag_393\n      jump\t// in\n    tag_546:\n        /* \"#utility.yul\":4687:4758   */\n      tag_547\n        /* \"#utility.yul\":4751:4757   */\n      dup2\n        /* \"#utility.yul\":4746:4749   */\n      dup6\n        /* \"#utility.yul\":4687:4758   */\n      tag_394\n      jump\t// in\n    tag_547:\n        /* \"#utility.yul\":4680:4758   */\n      swap4\n      pop\n        /* \"#utility.yul\":4767:4832   */\n      tag_548\n        /* \"#utility.yul\":4825:4831   */\n      dup2\n        /* \"#utility.yul\":4820:4823   */\n      dup6\n        /* \"#utility.yul\":4813:4817   */\n      0x20\n        /* \"#utility.yul\":4806:4811   */\n      dup7\n        /* \"#utility.yul\":4802:4818   */\n      add\n        /* \"#utility.yul\":4767:4832   */\n      tag_395\n      jump\t// in\n    tag_548:\n        /* \"#utility.yul\":4857:4886   */\n      tag_549\n        /* \"#utility.yul\":4879:4885   */\n      dup2\n        /* \"#utility.yul\":4857:4886   */\n      tag_386\n      jump\t// in\n    tag_549:\n        /* \"#utility.yul\":4852:4855   */\n      dup5\n        /* \"#utility.yul\":4848:4887   */\n      add\n        /* \"#utility.yul\":4841:4887   */\n      swap2\n      pop\n        /* \"#utility.yul\":4608:4893   */\n      pop\n        /* \"#utility.yul\":4516:4893   */\n      swap3\n      swap2\n      pop\n      pop\n      jump\t// out\n        /* \"#utility.yul\":4899:5212   */\n    tag_37:\n        /* \"#utility.yul\":5012:5016   */\n      0x00\n        /* \"#utility.yul\":5050:5052   */\n      0x20\n        /* \"#utility.yul\":5039:5048   */\n      dup3\n        /* \"#utility.yul\":5035:5053   */\n      add\n        /* \"#utility.yul\":5027:5053   */\n      swap1\n      pop\n        /* \"#utility.yul\":5099:5108   */\n      dup2\n        /* \"#utility.yul\":5093:5097   */\n      dup2\n        /* \"#utility.yul\":5089:5109   */\n      sub\n        /* \"#utility.yul\":5085:5086   */\n      0x00\n        /* \"#utility.yul\":5074:5083   */\n      dup4\n        /* \"#utility.yul\":5070:5087   */\n      add\n        /* \"#utility.yul\":5063:5110   */\n      mstore\n        /* \"#utility.yul\":5127:5205   */\n      tag_551\n        /* \"#utility.yul\":5200:5204   */\n      dup2\n        /* \"#utility.yul\":5191:5197   */\n      dup5\n        /* \"#utility.yul\":5127:5205   */\n      tag_396\n      jump\t// in\n    tag_551:\n        /* \"#utility.yul\":5119:5205   */\n      swap1\n      pop\n        /* \"#utility.yul\":4899:5212   */\n      swap3\n      swap2\n      pop\n      pop\n      jump\t// out\n        /* \"#utility.yul\":5218:5591   */\n    tag_41:\n        /* \"#utility.yul\":5299:5305   */\n      0x00\n        /* \"#utility.yul\":5348:5350   */\n      0x20\n        /* \"#utility.yul\":5336:5345   */\n      dup3\n        /* \"#utility.yul\":5327:5334   */\n      dup5\n        /* \"#utility.yul\":5323:5346   */\n      sub\n        /* \"#utility.yul\":5319:5351   */\n      slt\n        /* \"#utility.yul\":5316:5435   */\n      iszero\n      tag_553\n      jumpi\n        /* \"#utility.yul\":5354:5433   */\n      tag_554\n      tag_377\n      jump\t// in\n    tag_554:\n        /* \"#utility.yul\":5316:5435   */\n    tag_553:\n        /* \"#utility.yul\":5474:5475   */\n      0x00\n        /* \"#utility.yul\":5499:5574   */\n      tag_555\n        /* \"#utility.yul\":5566:5573   */\n      dup5\n        /* \"#utility.yul\":5557:5563   */\n      dup3\n        /* \"#utility.yul\":5546:5555   */\n      dup6\n        /* \"#utility.yul\":5542:5564   */\n      add\n        /* \"#utility.yul\":5499:5574   */\n      tag_381\n      jump\t// in\n    tag_555:\n        /* \"#utility.yul\":5489:5574   */\n      swap2\n      pop\n        /* \"#utility.yul\":5445:5584   */\n      pop\n        /* \"#utility.yul\":5218:5591   */\n      swap3\n      swap2\n      pop\n      pop\n      jump\t// out\n        /* \"#utility.yul\":5597:5723   */\n    tag_397:\n        /* \"#utility.yul\":5634:5641   */\n      0x00\n        /* \"#utility.yul\":5674:5716   */\n      0xffffffffffffffffffffffffffffffffffffffff\n        /* \"#utility.yul\":5667:5672   */\n      dup3\n        /* \"#utility.yul\":5663:5717   */\n      and\n        /* \"#utility.yul\":5652:5717   */\n      swap1\n      pop\n        /* \"#utility.yul\":5597:5723   */\n      swap2\n      swap1\n      pop\n      jump\t// out\n        /* \"#utility.yul\":5729:5833   */\n    tag_398:\n        /* \"#utility.yul\":5774:5781   */\n      0x00\n        /* \"#utility.yul\":5803:5827   */\n      tag_558\n        /* \"#utility.yul\":5821:5826   */\n      dup3\n        /* \"#utility.yul\":5803:5827   */\n      tag_397\n      jump\t// in\n    tag_558:\n        /* \"#utility.yul\":5792:5827   */\n      swap1\n      pop\n        /* \"#utility.yul\":5729:5833   */\n      swap2\n      swap1\n      pop\n      jump\t// out\n        /* \"#utility.yul\":5839:5981   */\n    tag_399:\n        /* \"#utility.yul\":5942:5974   */\n      tag_560\n        /* \"#utility.yul\":5968:5973   */\n      dup2\n        /* \"#utility.yul\":5942:5974   */\n      tag_398\n      jump\t// in\n    tag_560:\n        /* \"#utility.yul\":5937:5940   */\n      dup3\n        /* \"#utility.yul\":5930:5975   */\n      mstore\n        /* \"#utility.yul\":5839:5981   */\n      pop\n      pop\n      jump\t// out\n        /* \"#utility.yul\":5987:6241   */\n    tag_44:\n        /* \"#utility.yul\":6096:6100   */\n      0x00\n        /* \"#utility.yul\":6134:6136   */\n      0x20\n        /* \"#utility.yul\":6123:6132   */\n      dup3\n        /* \"#utility.yul\":6119:6137   */\n      add\n        /* \"#utility.yul\":6111:6137   */\n      swap1\n      pop\n        /* \"#utility.yul\":6147:6234   */\n      tag_562\n        /* \"#utility.yul\":6231:6232   */\n      0x00\n        /* \"#utility.yul\":6220:6229   */\n      dup4\n        /* \"#utility.yul\":6216:6233   */\n      add\n        /* \"#utility.yul\":6207:6213   */\n      dup5\n        /* \"#utility.yul\":6147:6234   */\n      tag_399\n      jump\t// in\n    tag_562:\n        /* \"#utility.yul\":5987:6241   */\n      swap3\n      swap2\n      pop\n      pop\n      jump\t// out\n        /* \"#utility.yul\":6247:6555   */\n    tag_400:\n        /* \"#utility.yul\":6309:6313   */\n      0x00\n        /* \"#utility.yul\":6399:6417   */\n      0xffffffffffffffff\n        /* \"#utility.yul\":6391:6397   */\n      dup3\n        /* \"#utility.yul\":6388:6418   */\n      gt\n        /* \"#utility.yul\":6385:6441   */\n      iszero\n      tag_564\n      jumpi\n        /* \"#utility.yul\":6421:6439   */\n      tag_565\n      tag_233\n      jump\t// in\n    tag_565:\n        /* \"#utility.yul\":6385:6441   */\n    tag_564:\n        /* \"#utility.yul\":6459:6488   */\n      tag_566\n        /* \"#utility.yul\":6481:6487   */\n      dup3\n        /* \"#utility.yul\":6459:6488   */\n      tag_386\n      jump\t// in\n    tag_566:\n        /* \"#utility.yul\":6451:6488   */\n      swap1\n      pop\n        /* \"#utility.yul\":6543:6547   */\n      0x20\n        /* \"#utility.yul\":6537:6541   */\n      dup2\n        /* \"#utility.yul\":6533:6548   */\n      add\n        /* \"#utility.yul\":6525:6548   */\n      swap1\n      pop\n        /* \"#utility.yul\":6247:6555   */\n      swap2\n      swap1\n      pop\n      jump\t// out\n        /* \"#utility.yul\":6561:6986   */\n    tag_401:\n        /* \"#utility.yul\":6639:6644   */\n      0x00\n        /* \"#utility.yul\":6664:6730   */\n      tag_568\n        /* \"#utility.yul\":6680:6729   */\n      tag_569\n        /* \"#utility.yul\":6722:6728   */\n      dup5\n        /* \"#utility.yul\":6680:6729   */\n      tag_400\n      jump\t// in\n    tag_569:\n        /* \"#utility.yul\":6664:6730   */\n      tag_388\n      jump\t// in\n    tag_568:\n        /* \"#utility.yul\":6655:6730   */\n      swap1\n      pop\n        /* \"#utility.yul\":6753:6759   */\n      dup3\n        /* \"#utility.yul\":6746:6751   */\n      dup2\n        /* \"#utility.yul\":6739:6760   */\n      mstore\n        /* \"#utility.yul\":6791:6795   */\n      0x20\n        /* \"#utility.yul\":6784:6789   */\n      dup2\n        /* \"#utility.yul\":6780:6796   */\n      add\n        /* \"#utility.yul\":6829:6832   */\n      dup5\n        /* \"#utility.yul\":6820:6826   */\n      dup5\n        /* \"#utility.yul\":6815:6818   */\n      dup5\n        /* \"#utility.yul\":6811:6827   */\n      add\n        /* \"#utility.yul\":6808:6833   */\n      gt\n        /* \"#utility.yul\":6805:6917   */\n      iszero\n      tag_570\n      jumpi\n        /* \"#utility.yul\":6836:6915   */\n      tag_571\n      tag_385\n      jump\t// in\n    tag_571:\n        /* \"#utility.yul\":6805:6917   */\n    tag_570:\n        /* \"#utility.yul\":6926:6980   */\n      tag_572\n        /* \"#utility.yul\":6973:6979   */\n      dup5\n        /* \"#utility.yul\":6968:6971   */\n      dup3\n        /* \"#utility.yul\":6963:6966   */\n      dup6\n        /* \"#utility.yul\":6926:6980   */\n      tag_390\n      jump\t// in\n    tag_572:\n        /* \"#utility.yul\":6645:6986   */\n      pop\n        /* \"#utility.yul\":6561:6986   */\n      swap4\n      swap3\n      pop\n      pop\n      pop\n      jump\t// out\n        /* \"#utility.yul\":7006:7346   */\n    tag_402:\n        /* \"#utility.yul\":7062:7067   */\n      0x00\n        /* \"#utility.yul\":7111:7114   */\n      dup3\n        /* \"#utility.yul\":7104:7108   */\n      0x1f\n        /* \"#utility.yul\":7096:7102   */\n      dup4\n        /* \"#utility.yul\":7092:7109   */\n      add\n        /* \"#utility.yul\":7088:7115   */\n      slt\n        /* \"#utility.yul\":7078:7200   */\n      tag_574\n      jumpi\n        /* \"#utility.yul\":7119:7198   */\n      tag_575\n      tag_384\n      jump\t// in\n    tag_575:\n        /* \"#utility.yul\":7078:7200   */\n    tag_574:\n        /* \"#utility.yul\":7236:7242   */\n      dup2\n        /* \"#utility.yul\":7223:7243   */\n      calldataload\n        /* \"#utility.yul\":7261:7340   */\n      tag_576\n        /* \"#utility.yul\":7336:7339   */\n      dup5\n        /* \"#utility.yul\":7328:7334   */\n      dup3\n        /* \"#utility.yul\":7321:7325   */\n      0x20\n        /* \"#utility.yul\":7313:7319   */\n      dup7\n        /* \"#utility.yul\":7309:7326   */\n      add\n        /* \"#utility.yul\":7261:7340   */\n      tag_401\n      jump\t// in\n    tag_576:\n        /* \"#utility.yul\":7252:7340   */\n      swap2\n      pop\n        /* \"#utility.yul\":7068:7346   */\n      pop\n        /* \"#utility.yul\":7006:7346   */\n      swap3\n      swap2\n      pop\n      pop\n      jump\t// out\n        /* \"#utility.yul\":7352:8006   */\n    tag_48:\n        /* \"#utility.yul\":7430:7436   */\n      0x00\n        /* \"#utility.yul\":7438:7444   */\n      dup1\n        /* \"#utility.yul\":7487:7489   */\n      0x40\n        /* \"#utility.yul\":7475:7484   */\n      dup4\n        /* \"#utility.yul\":7466:7473   */\n      dup6\n        /* \"#utility.yul\":7462:7485   */\n      sub\n        /* \"#utility.yul\":7458:7490   */\n      slt\n        /* \"#utility.yul\":7455:7574   */\n      iszero\n      tag_578\n      jumpi\n        /* \"#utility.yul\":7493:7572   */\n      tag_579\n      tag_377\n      jump\t// in\n    tag_579:\n        /* \"#utility.yul\":7455:7574   */\n    tag_578:\n        /* \"#utility.yul\":7641:7642   */\n      0x00\n        /* \"#utility.yul\":7630:7639   */\n      dup4\n        /* \"#utility.yul\":7626:7643   */\n      add\n        /* \"#utility.yul\":7613:7644   */\n      calldataload\n        /* \"#utility.yul\":7671:7689   */\n      0xffffffffffffffff\n        /* \"#utility.yul\":7663:7669   */\n      dup2\n        /* \"#utility.yul\":7660:7690   */\n      gt\n        /* \"#utility.yul\":7657:7774   */\n      iszero\n      tag_580\n      jumpi\n        /* \"#utility.yul\":7693:7772   */\n      tag_581\n      tag_378\n      jump\t// in\n    tag_581:\n        /* \"#utility.yul\":7657:7774   */\n    tag_580:\n        /* \"#utility.yul\":7798:7861   */\n      tag_582\n        /* \"#utility.yul\":7853:7860   */\n      dup6\n        /* \"#utility.yul\":7844:7850   */\n      dup3\n        /* \"#utility.yul\":7833:7842   */\n      dup7\n        /* \"#utility.yul\":7829:7851   */\n      add\n        /* \"#utility.yul\":7798:7861   */\n      tag_402\n      jump\t// in\n    tag_582:\n        /* \"#utility.yul\":7788:7861   */\n      swap3\n      pop\n        /* \"#utility.yul\":7584:7871   */\n      pop\n        /* \"#utility.yul\":7910:7912   */\n      0x20\n        /* \"#utility.yul\":7936:7989   */\n      tag_583\n        /* \"#utility.yul\":7981:7988   */\n      dup6\n        /* \"#utility.yul\":7972:7978   */\n      dup3\n        /* \"#utility.yul\":7961:7970   */\n      dup7\n        /* \"#utility.yul\":7957:7979   */\n      add\n        /* \"#utility.yul\":7936:7989   */\n      tag_383\n      jump\t// in\n    tag_583:\n        /* \"#utility.yul\":7926:7989   */\n      swap2\n      pop\n        /* \"#utility.yul\":7881:7999   */\n      pop\n        /* \"#utility.yul\":7352:8006   */\n      swap3\n      pop\n      swap3\n      swap1\n      pop\n      jump\t// out\n        /* \"#utility.yul\":8012:8089   */\n    tag_403:\n        /* \"#utility.yul\":8049:8056   */\n      0x00\n        /* \"#utility.yul\":8078:8083   */\n      dup2\n        /* \"#utility.yul\":8067:8083   */\n      swap1\n      pop\n        /* \"#utility.yul\":8012:8089   */\n      swap2\n      swap1\n      pop\n      jump\t// out\n        /* \"#utility.yul\":8095:8213   */\n    tag_404:\n        /* \"#utility.yul\":8182:8206   */\n      tag_586\n        /* \"#utility.yul\":8200:8205   */\n      dup2\n        /* \"#utility.yul\":8182:8206   */\n      tag_403\n      jump\t// in\n    tag_586:\n        /* \"#utility.yul\":8177:8180   */\n      dup3\n        /* \"#utility.yul\":8170:8207   */\n      mstore\n        /* \"#utility.yul\":8095:8213   */\n      pop\n      pop\n      jump\t// out\n        /* \"#utility.yul\":8219:8441   */\n    tag_51:\n        /* \"#utility.yul\":8312:8316   */\n      0x00\n        /* \"#utility.yul\":8350:8352   */\n      0x20\n        /* \"#utility.yul\":8339:8348   */\n      dup3\n        /* \"#utility.yul\":8335:8353   */\n      add\n        /* \"#utility.yul\":8327:8353   */\n      swap1\n      pop\n        /* \"#utility.yul\":8363:8434   */\n      tag_588\n        /* \"#utility.yul\":8431:8432   */\n      0x00\n        /* \"#utility.yul\":8420:8429   */\n      dup4\n        /* \"#utility.yul\":8416:8433   */\n      add\n        /* \"#utility.yul\":8407:8413   */\n      dup5\n        /* \"#utility.yul\":8363:8434   */\n      tag_404\n      jump\t// in\n    tag_588:\n        /* \"#utility.yul\":8219:8441   */\n      swap3\n      swap2\n      pop\n      pop\n      jump\t// out\n        /* \"#utility.yul\":8447:8956   */\n    tag_55:\n        /* \"#utility.yul\":8516:8522   */\n      0x00\n        /* \"#utility.yul\":8565:8567   */\n      0x20\n        /* \"#utility.yul\":8553:8562   */\n      dup3\n        /* \"#utility.yul\":8544:8551   */\n      dup5\n        /* \"#utility.yul\":8540:8563   */\n      sub\n        /* \"#utility.yul\":8536:8568   */\n      slt\n        /* \"#utility.yul\":8533:8652   */\n      iszero\n      tag_590\n      jumpi\n        /* \"#utility.yul\":8571:8650   */\n      tag_591\n      tag_377\n      jump\t// in\n    tag_591:\n        /* \"#utility.yul\":8533:8652   */\n    tag_590:\n        /* \"#utility.yul\":8719:8720   */\n      0x00\n        /* \"#utility.yul\":8708:8717   */\n      dup3\n        /* \"#utility.yul\":8704:8721   */\n      add\n        /* \"#utility.yul\":8691:8722   */\n      calldataload\n        /* \"#utility.yul\":8749:8767   */\n      0xffffffffffffffff\n        /* \"#utility.yul\":8741:8747   */\n      dup2\n        /* \"#utility.yul\":8738:8768   */\n      gt\n        /* \"#utility.yul\":8735:8852   */\n      iszero\n      tag_592\n      jumpi\n        /* \"#utility.yul\":8771:8850   */\n      tag_593\n      tag_378\n      jump\t// in\n    tag_593:\n        /* \"#utility.yul\":8735:8852   */\n    tag_592:\n        /* \"#utility.yul\":8876:8939   */\n      tag_594\n        /* \"#utility.yul\":8931:8938   */\n      dup5\n        /* \"#utility.yul\":8922:8928   */\n      dup3\n        /* \"#utility.yul\":8911:8920   */\n      dup6\n        /* \"#utility.yul\":8907:8929   */\n      add\n        /* \"#utility.yul\":8876:8939   */\n      tag_402\n      jump\t// in\n    tag_594:\n        /* \"#utility.yul\":8866:8939   */\n      swap2\n      pop\n        /* \"#utility.yul\":8662:8949   */\n      pop\n        /* \"#utility.yul\":8447:8956   */\n      swap3\n      swap2\n      pop\n      pop\n      jump\t// out\n        /* \"#utility.yul\":8962:9058   */\n    tag_405:\n        /* \"#utility.yul\":8999:9006   */\n      0x00\n        /* \"#utility.yul\":9028:9052   */\n      tag_596\n        /* \"#utility.yul\":9046:9051   */\n      dup3\n        /* \"#utility.yul\":9028:9052   */\n      tag_397\n      jump\t// in\n    tag_596:\n        /* \"#utility.yul\":9017:9052   */\n      swap1\n      pop\n        /* \"#utility.yul\":8962:9058   */\n      swap2\n      swap1\n      pop\n      jump\t// out\n        /* \"#utility.yul\":9064:9182   */\n    tag_406:\n        /* \"#utility.yul\":9151:9175   */\n      tag_598\n        /* \"#utility.yul\":9169:9174   */\n      dup2\n        /* \"#utility.yul\":9151:9175   */\n      tag_405\n      jump\t// in\n    tag_598:\n        /* \"#utility.yul\":9146:9149   */\n      dup3\n        /* \"#utility.yul\":9139:9176   */\n      mstore\n        /* \"#utility.yul\":9064:9182   */\n      pop\n      pop\n      jump\t// out\n        /* \"#utility.yul\":9188:9410   */\n    tag_58:\n        /* \"#utility.yul\":9281:9285   */\n      0x00\n        /* \"#utility.yul\":9319:9321   */\n      0x20\n        /* \"#utility.yul\":9308:9317   */\n      dup3\n        /* \"#utility.yul\":9304:9322   */\n      add\n        /* \"#utility.yul\":9296:9322   */\n      swap1\n      pop\n        /* \"#utility.yul\":9332:9403   */\n      tag_600\n        /* \"#utility.yul\":9400:9401   */\n      0x00\n        /* \"#utility.yul\":9389:9398   */\n      dup4\n        /* \"#utility.yul\":9385:9402   */\n      add\n        /* \"#utility.yul\":9376:9382   */\n      dup5\n        /* \"#utility.yul\":9332:9403   */\n      tag_406\n      jump\t// in\n    tag_600:\n        /* \"#utility.yul\":9188:9410   */\n      swap3\n      swap2\n      pop\n      pop\n      jump\t// out\n        /* \"#utility.yul\":9416:9538   */\n    tag_407:\n        /* \"#utility.yul\":9489:9513   */\n      tag_602\n        /* \"#utility.yul\":9507:9512   */\n      dup2\n        /* \"#utility.yul\":9489:9513   */\n      tag_405\n      jump\t// in\n    tag_602:\n        /* \"#utility.yul\":9482:9487   */\n      dup2\n        /* \"#utility.yul\":9479:9514   */\n      eq\n        /* \"#utility.yul\":9469:9532   */\n      tag_603\n      jumpi\n        /* \"#utility.yul\":9528:9529   */\n      0x00\n        /* \"#utility.yul\":9525:9526   */\n      dup1\n        /* \"#utility.yul\":9518:9530   */\n      revert\n        /* \"#utility.yul\":9469:9532   */\n    tag_603:\n        /* \"#utility.yul\":9416:9538   */\n      pop\n      jump\t// out\n        /* \"#utility.yul\":9544:9683   */\n    tag_408:\n        /* \"#utility.yul\":9590:9595   */\n      0x00\n        /* \"#utility.yul\":9628:9634   */\n      dup2\n        /* \"#utility.yul\":9615:9635   */\n      calldataload\n        /* \"#utility.yul\":9606:9635   */\n      swap1\n      pop\n        /* \"#utility.yul\":9644:9677   */\n      tag_605\n        /* \"#utility.yul\":9671:9676   */\n      dup2\n        /* \"#utility.yul\":9644:9677   */\n      tag_407\n      jump\t// in\n    tag_605:\n        /* \"#utility.yul\":9544:9683   */\n      swap3\n      swap2\n      pop\n      pop\n      jump\t// out\n        /* \"#utility.yul\":9689:10343   */\n    tag_67:\n        /* \"#utility.yul\":9767:9773   */\n      0x00\n        /* \"#utility.yul\":9775:9781   */\n      dup1\n        /* \"#utility.yul\":9824:9826   */\n      0x40\n        /* \"#utility.yul\":9812:9821   */\n      dup4\n        /* \"#utility.yul\":9803:9810   */\n      dup6\n        /* \"#utility.yul\":9799:9822   */\n      sub\n        /* \"#utility.yul\":9795:9827   */\n      slt\n        /* \"#utility.yul\":9792:9911   */\n      iszero\n      tag_607\n      jumpi\n        /* \"#utility.yul\":9830:9909   */\n      tag_608\n      tag_377\n      jump\t// in\n    tag_608:\n        /* \"#utility.yul\":9792:9911   */\n    tag_607:\n        /* \"#utility.yul\":9978:9979   */\n      0x00\n        /* \"#utility.yul\":9967:9976   */\n      dup4\n        /* \"#utility.yul\":9963:9980   */\n      add\n        /* \"#utility.yul\":9950:9981   */\n      calldataload\n        /* \"#utility.yul\":10008:10026   */\n      0xffffffffffffffff\n        /* \"#utility.yul\":10000:10006   */\n      dup2\n        /* \"#utility.yul\":9997:10027   */\n      gt\n        /* \"#utility.yul\":9994:10111   */\n      iszero\n      tag_609\n      jumpi\n        /* \"#utility.yul\":10030:10109   */\n      tag_610\n      tag_378\n      jump\t// in\n    tag_610:\n        /* \"#utility.yul\":9994:10111   */\n    tag_609:\n        /* \"#utility.yul\":10135:10198   */\n      tag_611\n        /* \"#utility.yul\":10190:10197   */\n      dup6\n        /* \"#utility.yul\":10181:10187   */\n      dup3\n        /* \"#utility.yul\":10170:10179   */\n      dup7\n        /* \"#utility.yul\":10166:10188   */\n      add\n        /* \"#utility.yul\":10135:10198   */\n      tag_402\n      jump\t// in\n    tag_611:\n        /* \"#utility.yul\":10125:10198   */\n      swap3\n      pop\n        /* \"#utility.yul\":9921:10208   */\n      pop\n        /* \"#utility.yul\":10247:10249   */\n      0x20\n        /* \"#utility.yul\":10273:10326   */\n      tag_612\n        /* \"#utility.yul\":10318:10325   */\n      dup6\n        /* \"#utility.yul\":10309:10315   */\n      dup3\n        /* \"#utility.yul\":10298:10307   */\n      dup7\n        /* \"#utility.yul\":10294:10316   */\n      add\n        /* \"#utility.yul\":10273:10326   */\n      tag_408\n      jump\t// in\n    tag_612:\n        /* \"#utility.yul\":10263:10326   */\n      swap2\n      pop\n        /* \"#utility.yul\":10218:10336   */\n      pop\n        /* \"#utility.yul\":9689:10343   */\n      swap3\n      pop\n      swap3\n      swap1\n      pop\n      jump\t// out\n        /* \"#utility.yul\":10349:10485   */\n    tag_409:\n        /* \"#utility.yul\":10438:10444   */\n      0x00\n        /* \"#utility.yul\":10472:10477   */\n      dup2\n        /* \"#utility.yul\":10466:10478   */\n      mload\n        /* \"#utility.yul\":10456:10478   */\n      swap1\n      pop\n        /* \"#utility.yul\":10349:10485   */\n      swap2\n      swap1\n      pop\n      jump\t// out\n        /* \"#utility.yul\":10491:10675   */\n    tag_410:\n        /* \"#utility.yul\":10590:10601   */\n      0x00\n        /* \"#utility.yul\":10624:10630   */\n      dup3\n        /* \"#utility.yul\":10619:10622   */\n      dup3\n        /* \"#utility.yul\":10612:10631   */\n      mstore\n        /* \"#utility.yul\":10664:10668   */\n      0x20\n        /* \"#utility.yul\":10659:10662   */\n      dup3\n        /* \"#utility.yul\":10655:10669   */\n      add\n        /* \"#utility.yul\":10640:10669   */\n      swap1\n      pop\n        /* \"#utility.yul\":10491:10675   */\n      swap3\n      swap2\n      pop\n      pop\n      jump\t// out\n        /* \"#utility.yul\":10681:10835   */\n    tag_411:\n        /* \"#utility.yul\":10770:10774   */\n      0x00\n        /* \"#utility.yul\":10793:10796   */\n      dup2\n        /* \"#utility.yul\":10785:10796   */\n      swap1\n      pop\n        /* \"#utility.yul\":10823:10827   */\n      0x20\n        /* \"#utility.yul\":10818:10821   */\n      dup3\n        /* \"#utility.yul\":10814:10828   */\n      add\n        /* \"#utility.yul\":10806:10828   */\n      swap1\n      pop\n        /* \"#utility.yul\":10681:10835   */\n      swap2\n      swap1\n      pop\n      jump\t// out\n        /* \"#utility.yul\":10841:10901   */\n    tag_412:\n        /* \"#utility.yul\":10869:10872   */\n      0x00\n        /* \"#utility.yul\":10890:10895   */\n      dup2\n        /* \"#utility.yul\":10883:10895   */\n      swap1\n      pop\n        /* \"#utility.yul\":10841:10901   */\n      swap2\n      swap1\n      pop\n      jump\t// out\n        /* \"#utility.yul\":10907:11049   */\n    tag_413:\n        /* \"#utility.yul\":10957:10966   */\n      0x00\n        /* \"#utility.yul\":10990:11043   */\n      tag_618\n        /* \"#utility.yul\":11008:11042   */\n      tag_619\n        /* \"#utility.yul\":11017:11041   */\n      tag_620\n        /* \"#utility.yul\":11035:11040   */\n      dup5\n        /* \"#utility.yul\":11017:11041   */\n      tag_379\n      jump\t// in\n    tag_620:\n        /* \"#utility.yul\":11008:11042   */\n      tag_412\n      jump\t// in\n    tag_619:\n        /* \"#utility.yul\":10990:11043   */\n      tag_379\n      jump\t// in\n    tag_618:\n        /* \"#utility.yul\":10977:11043   */\n      swap1\n      pop\n        /* \"#utility.yul\":10907:11049   */\n      swap2\n      swap1\n      pop\n      jump\t// out\n        /* \"#utility.yul\":11055:11198   */\n    tag_414:\n        /* \"#utility.yul\":11154:11191   */\n      tag_622\n        /* \"#utility.yul\":11185:11190   */\n      dup2\n        /* \"#utility.yul\":11154:11191   */\n      tag_413\n      jump\t// in\n    tag_622:\n        /* \"#utility.yul\":11149:11152   */\n      dup3\n        /* \"#utility.yul\":11142:11192   */\n      mstore\n        /* \"#utility.yul\":11055:11198   */\n      pop\n      pop\n      jump\t// out\n        /* \"#utility.yul\":11204:11427   */\n    tag_415:\n        /* \"#utility.yul\":11295:11305   */\n      0x00\n        /* \"#utility.yul\":11316:11384   */\n      tag_624\n        /* \"#utility.yul\":11380:11383   */\n      dup4\n        /* \"#utility.yul\":11372:11378   */\n      dup4\n        /* \"#utility.yul\":11316:11384   */\n      tag_414\n      jump\t// in\n    tag_624:\n        /* \"#utility.yul\":11416:11420   */\n      0x20\n        /* \"#utility.yul\":11411:11414   */\n      dup4\n        /* \"#utility.yul\":11407:11421   */\n      add\n        /* \"#utility.yul\":11393:11421   */\n      swap1\n      pop\n        /* \"#utility.yul\":11204:11427   */\n      swap3\n      swap2\n      pop\n      pop\n      jump\t// out\n        /* \"#utility.yul\":11433:11568   */\n    tag_416:\n        /* \"#utility.yul\":11525:11529   */\n      0x00\n        /* \"#utility.yul\":11557:11561   */\n      0x20\n        /* \"#utility.yul\":11552:11555   */\n      dup3\n        /* \"#utility.yul\":11548:11562   */\n      add\n        /* \"#utility.yul\":11540:11562   */\n      swap1\n      pop\n        /* \"#utility.yul\":11433:11568   */\n      swap2\n      swap1\n      pop\n      jump\t// out\n        /* \"#utility.yul\":11600:12442   */\n    tag_417:\n        /* \"#utility.yul\":11741:11744   */\n      0x00\n        /* \"#utility.yul\":11770:11846   */\n      tag_627\n        /* \"#utility.yul\":11840:11845   */\n      dup3\n        /* \"#utility.yul\":11770:11846   */\n      tag_409\n      jump\t// in\n    tag_627:\n        /* \"#utility.yul\":11862:11948   */\n      tag_628\n        /* \"#utility.yul\":11941:11947   */\n      dup2\n        /* \"#utility.yul\":11936:11939   */\n      dup6\n        /* \"#utility.yul\":11862:11948   */\n      tag_410\n      jump\t// in\n    tag_628:\n        /* \"#utility.yul\":11855:11948   */\n      swap4\n      pop\n        /* \"#utility.yul\":11972:12050   */\n      tag_629\n        /* \"#utility.yul\":12044:12049   */\n      dup4\n        /* \"#utility.yul\":11972:12050   */\n      tag_411\n      jump\t// in\n    tag_629:\n        /* \"#utility.yul\":12073:12080   */\n      dup1\n        /* \"#utility.yul\":12104:12105   */\n      0x00\n        /* \"#utility.yul\":12089:12417   */\n    tag_630:\n        /* \"#utility.yul\":12114:12120   */\n      dup4\n        /* \"#utility.yul\":12111:12112   */\n      dup2\n        /* \"#utility.yul\":12108:12121   */\n      lt\n        /* \"#utility.yul\":12089:12417   */\n      iszero\n      tag_632\n      jumpi\n        /* \"#utility.yul\":12190:12196   */\n      dup2\n        /* \"#utility.yul\":12184:12197   */\n      mload\n        /* \"#utility.yul\":12217:12302   */\n      tag_633\n        /* \"#utility.yul\":12298:12301   */\n      dup9\n        /* \"#utility.yul\":12283:12296   */\n      dup3\n        /* \"#utility.yul\":12217:12302   */\n      tag_415\n      jump\t// in\n    tag_633:\n        /* \"#utility.yul\":12210:12302   */\n      swap8\n      pop\n        /* \"#utility.yul\":12325:12407   */\n      tag_634\n        /* \"#utility.yul\":12400:12406   */\n      dup4\n        /* \"#utility.yul\":12325:12407   */\n      tag_416\n      jump\t// in\n    tag_634:\n        /* \"#utility.yul\":12315:12407   */\n      swap3\n      pop\n        /* \"#utility.yul\":12149:12417   */\n      pop\n        /* \"#utility.yul\":12136:12137   */\n      0x01\n        /* \"#utility.yul\":12133:12134   */\n      dup2\n        /* \"#utility.yul\":12129:12138   */\n      add\n        /* \"#utility.yul\":12124:12138   */\n      swap1\n      pop\n        /* \"#utility.yul\":12089:12417   */\n      jump(tag_630)\n    tag_632:\n        /* \"#utility.yul\":12093:12107   */\n      pop\n        /* \"#utility.yul\":12433:12436   */\n      dup6\n        /* \"#utility.yul\":12426:12436   */\n      swap4\n      pop\n        /* \"#utility.yul\":11746:12442   */\n      pop\n      pop\n      pop\n        /* \"#utility.yul\":11600:12442   */\n      swap3\n      swap2\n      pop\n      pop\n      jump\t// out\n        /* \"#utility.yul\":12448:12865   */\n    tag_70:\n        /* \"#utility.yul\":12613:12617   */\n      0x00\n        /* \"#utility.yul\":12651:12653   */\n      0x20\n        /* \"#utility.yul\":12640:12649   */\n      dup3\n        /* \"#utility.yul\":12636:12654   */\n      add\n        /* \"#utility.yul\":12628:12654   */\n      swap1\n      pop\n        /* \"#utility.yul\":12700:12709   */\n      dup2\n        /* \"#utility.yul\":12694:12698   */\n      dup2\n        /* \"#utility.yul\":12690:12710   */\n      sub\n        /* \"#utility.yul\":12686:12687   */\n      0x00\n        /* \"#utility.yul\":12675:12684   */\n      dup4\n        /* \"#utility.yul\":12671:12688   */\n      add\n        /* \"#utility.yul\":12664:12711   */\n      mstore\n        /* \"#utility.yul\":12728:12858   */\n      tag_636\n        /* \"#utility.yul\":12853:12857   */\n      dup2\n        /* \"#utility.yul\":12844:12850   */\n      dup5\n        /* \"#utility.yul\":12728:12858   */\n      tag_417\n      jump\t// in\n    tag_636:\n        /* \"#utility.yul\":12720:12858   */\n      swap1\n      pop\n        /* \"#utility.yul\":12448:12865   */\n      swap3\n      swap2\n      pop\n      pop\n      jump\t// out\n        /* \"#utility.yul\":12871:13200   */\n    tag_74:\n        /* \"#utility.yul\":12930:12936   */\n      0x00\n        /* \"#utility.yul\":12979:12981   */\n      0x20\n        /* \"#utility.yul\":12967:12976   */\n      dup3\n        /* \"#utility.yul\":12958:12965   */\n      dup5\n        /* \"#utility.yul\":12954:12977   */\n      sub\n        /* \"#utility.yul\":12950:12982   */\n      slt\n        /* \"#utility.yul\":12947:13066   */\n      iszero\n      tag_638\n      jumpi\n        /* \"#utility.yul\":12985:13064   */\n      tag_639\n      tag_377\n      jump\t// in\n    tag_639:\n        /* \"#utility.yul\":12947:13066   */\n    tag_638:\n        /* \"#utility.yul\":13105:13106   */\n      0x00\n        /* \"#utility.yul\":13130:13183   */\n      tag_640\n        /* \"#utility.yul\":13175:13182   */\n      dup5\n        /* \"#utility.yul\":13166:13172   */\n      dup3\n        /* \"#utility.yul\":13155:13164   */\n      dup6\n        /* \"#utility.yul\":13151:13173   */\n      add\n        /* \"#utility.yul\":13130:13183   */\n      tag_408\n      jump\t// in\n    tag_640:\n        /* \"#utility.yul\":13120:13183   */\n      swap2\n      pop\n        /* \"#utility.yul\":13076:13193   */\n      pop\n        /* \"#utility.yul\":12871:13200   */\n      swap3\n      swap2\n      pop\n      pop\n      jump\t// out\n        /* \"#utility.yul\":13206:14193   */\n    tag_79:\n        /* \"#utility.yul\":13323:13329   */\n      0x00\n        /* \"#utility.yul\":13331:13337   */\n      dup1\n        /* \"#utility.yul\":13339:13345   */\n      0x00\n        /* \"#utility.yul\":13347:13353   */\n      dup1\n        /* \"#utility.yul\":13396:13399   */\n      0x80\n        /* \"#utility.yul\":13384:13393   */\n      dup6\n        /* \"#utility.yul\":13375:13382   */\n      dup8\n        /* \"#utility.yul\":13371:13394   */\n      sub\n        /* \"#utility.yul\":13367:13400   */\n      slt\n        /* \"#utility.yul\":13364:13484   */\n      iszero\n      tag_642\n      jumpi\n        /* \"#utility.yul\":13403:13482   */\n      tag_643\n      tag_377\n      jump\t// in\n    tag_643:\n        /* \"#utility.yul\":13364:13484   */\n    tag_642:\n        /* \"#utility.yul\":13523:13524   */\n      0x00\n        /* \"#utility.yul\":13548:13601   */\n      tag_644\n        /* \"#utility.yul\":13593:13600   */\n      dup8\n        /* \"#utility.yul\":13584:13590   */\n      dup3\n        /* \"#utility.yul\":13573:13582   */\n      dup9\n        /* \"#utility.yul\":13569:13591   */\n      add\n        /* \"#utility.yul\":13548:13601   */\n      tag_408\n      jump\t// in\n    tag_644:\n        /* \"#utility.yul\":13538:13601   */\n      swap5\n      pop\n        /* \"#utility.yul\":13494:13611   */\n      pop\n        /* \"#utility.yul\":13650:13652   */\n      0x20\n        /* \"#utility.yul\":13676:13751   */\n      tag_645\n        /* \"#utility.yul\":13743:13750   */\n      dup8\n        /* \"#utility.yul\":13734:13740   */\n      dup3\n        /* \"#utility.yul\":13723:13732   */\n      dup9\n        /* \"#utility.yul\":13719:13741   */\n      add\n        /* \"#utility.yul\":13676:13751   */\n      tag_381\n      jump\t// in\n    tag_645:\n        /* \"#utility.yul\":13666:13751   */\n      swap4\n      pop\n        /* \"#utility.yul\":13621:13761   */\n      pop\n        /* \"#utility.yul\":13800:13802   */\n      0x40\n        /* \"#utility.yul\":13826:13879   */\n      tag_646\n        /* \"#utility.yul\":13871:13878   */\n      dup8\n        /* \"#utility.yul\":13862:13868   */\n      dup3\n        /* \"#utility.yul\":13851:13860   */\n      dup9\n        /* \"#utility.yul\":13847:13869   */\n      add\n        /* \"#utility.yul\":13826:13879   */\n      tag_383\n      jump\t// in\n    tag_646:\n        /* \"#utility.yul\":13816:13879   */\n      swap3\n      pop\n        /* \"#utility.yul\":13771:13889   */\n      pop\n        /* \"#utility.yul\":13956:13958   */\n      0x60\n        /* \"#utility.yul\":13945:13954   */\n      dup6\n        /* \"#utility.yul\":13941:13959   */\n      add\n        /* \"#utility.yul\":13928:13960   */\n      calldataload\n        /* \"#utility.yul\":13987:14005   */\n      0xffffffffffffffff\n        /* \"#utility.yul\":13979:13985   */\n      dup2\n        /* \"#utility.yul\":13976:14006   */\n      gt\n        /* \"#utility.yul\":13973:14090   */\n      iszero\n      tag_647\n      jumpi\n        /* \"#utility.yul\":14009:14088   */\n      tag_648\n      tag_378\n      jump\t// in\n    tag_648:\n        /* \"#utility.yul\":13973:14090   */\n    tag_647:\n        /* \"#utility.yul\":14114:14176   */\n      tag_649\n        /* \"#utility.yul\":14168:14175   */\n      dup8\n        /* \"#utility.yul\":14159:14165   */\n      dup3\n        /* \"#utility.yul\":14148:14157   */\n      dup9\n        /* \"#utility.yul\":14144:14166   */\n      add\n        /* \"#utility.yul\":14114:14176   */\n      tag_392\n      jump\t// in\n    tag_649:\n        /* \"#utility.yul\":14104:14176   */\n      swap2\n      pop\n        /* \"#utility.yul\":13899:14186   */\n      pop\n        /* \"#utility.yul\":13206:14193   */\n      swap3\n      swap6\n      swap2\n      swap5\n      pop\n      swap3\n      pop\n      jump\t// out\n        /* \"#utility.yul\":14199:14289   */\n    tag_418:\n        /* \"#utility.yul\":14233:14240   */\n      0x00\n        /* \"#utility.yul\":14276:14281   */\n      dup2\n        /* \"#utility.yul\":14269:14282   */\n      iszero\n        /* \"#utility.yul\":14262:14283   */\n      iszero\n        /* \"#utility.yul\":14251:14283   */\n      swap1\n      pop\n        /* \"#utility.yul\":14199:14289   */\n      swap2\n      swap1\n      pop\n      jump\t// out\n        /* \"#utility.yul\":14295:14404   */\n    tag_419:\n        /* \"#utility.yul\":14376:14397   */\n      tag_652\n        /* \"#utility.yul\":14391:14396   */\n      dup2\n        /* \"#utility.yul\":14376:14397   */\n      tag_418\n      jump\t// in\n    tag_652:\n        /* \"#utility.yul\":14371:14374   */\n      dup3\n        /* \"#utility.yul\":14364:14398   */\n      mstore\n        /* \"#utility.yul\":14295:14404   */\n      pop\n      pop\n      jump\t// out\n        /* \"#utility.yul\":14410:14620   */\n    tag_82:\n        /* \"#utility.yul\":14497:14501   */\n      0x00\n        /* \"#utility.yul\":14535:14537   */\n      0x20\n        /* \"#utility.yul\":14524:14533   */\n      dup3\n        /* \"#utility.yul\":14520:14538   */\n      add\n        /* \"#utility.yul\":14512:14538   */\n      swap1\n      pop\n        /* \"#utility.yul\":14548:14613   */\n      tag_654\n        /* \"#utility.yul\":14610:14611   */\n      0x00\n        /* \"#utility.yul\":14599:14608   */\n      dup4\n        /* \"#utility.yul\":14595:14612   */\n      add\n        /* \"#utility.yul\":14586:14592   */\n      dup5\n        /* \"#utility.yul\":14548:14613   */\n      tag_419\n      jump\t// in\n    tag_654:\n        /* \"#utility.yul\":14410:14620   */\n      swap3\n      swap2\n      pop\n      pop\n      jump\t// out\n        /* \"#utility.yul\":14626:15615   */\n    tag_90:\n        /* \"#utility.yul\":14744:14750   */\n      0x00\n        /* \"#utility.yul\":14752:14758   */\n      dup1\n        /* \"#utility.yul\":14760:14766   */\n      0x00\n        /* \"#utility.yul\":14768:14774   */\n      dup1\n        /* \"#utility.yul\":14817:14820   */\n      0x80\n        /* \"#utility.yul\":14805:14814   */\n      dup6\n        /* \"#utility.yul\":14796:14803   */\n      dup8\n        /* \"#utility.yul\":14792:14815   */\n      sub\n        /* \"#utility.yul\":14788:14821   */\n      slt\n        /* \"#utility.yul\":14785:14905   */\n      iszero\n      tag_656\n      jumpi\n        /* \"#utility.yul\":14824:14903   */\n      tag_657\n      tag_377\n      jump\t// in\n    tag_657:\n        /* \"#utility.yul\":14785:14905   */\n    tag_656:\n        /* \"#utility.yul\":14972:14973   */\n      0x00\n        /* \"#utility.yul\":14961:14970   */\n      dup6\n        /* \"#utility.yul\":14957:14974   */\n      add\n        /* \"#utility.yul\":14944:14975   */\n      calldataload\n        /* \"#utility.yul\":15002:15020   */\n      0xffffffffffffffff\n        /* \"#utility.yul\":14994:15000   */\n      dup2\n        /* \"#utility.yul\":14991:15021   */\n      gt\n        /* \"#utility.yul\":14988:15105   */\n      iszero\n      tag_658\n      jumpi\n        /* \"#utility.yul\":15024:15103   */\n      tag_659\n      tag_378\n      jump\t// in\n    tag_659:\n        /* \"#utility.yul\":14988:15105   */\n    tag_658:\n        /* \"#utility.yul\":15129:15192   */\n      tag_660\n        /* \"#utility.yul\":15184:15191   */\n      dup8\n        /* \"#utility.yul\":15175:15181   */\n      dup3\n        /* \"#utility.yul\":15164:15173   */\n      dup9\n        /* \"#utility.yul\":15160:15182   */\n      add\n        /* \"#utility.yul\":15129:15192   */\n      tag_402\n      jump\t// in\n    tag_660:\n        /* \"#utility.yul\":15119:15192   */\n      swap5\n      pop\n        /* \"#utility.yul\":14915:15202   */\n      pop\n        /* \"#utility.yul\":15241:15243   */\n      0x20\n        /* \"#utility.yul\":15267:15320   */\n      tag_661\n        /* \"#utility.yul\":15312:15319   */\n      dup8\n        /* \"#utility.yul\":15303:15309   */\n      dup3\n        /* \"#utility.yul\":15292:15301   */\n      dup9\n        /* \"#utility.yul\":15288:15310   */\n      add\n        /* \"#utility.yul\":15267:15320   */\n      tag_408\n      jump\t// in\n    tag_661:\n        /* \"#utility.yul\":15257:15320   */\n      swap4\n      pop\n        /* \"#utility.yul\":15212:15330   */\n      pop\n        /* \"#utility.yul\":15369:15371   */\n      0x40\n        /* \"#utility.yul\":15395:15448   */\n      tag_662\n        /* \"#utility.yul\":15440:15447   */\n      dup8\n        /* \"#utility.yul\":15431:15437   */\n      dup3\n        /* \"#utility.yul\":15420:15429   */\n      dup9\n        /* \"#utility.yul\":15416:15438   */\n      add\n        /* \"#utility.yul\":15395:15448   */\n      tag_383\n      jump\t// in\n    tag_662:\n        /* \"#utility.yul\":15385:15448   */\n      swap3\n      pop\n        /* \"#utility.yul\":15340:15458   */\n      pop\n        /* \"#utility.yul\":15497:15499   */\n      0x60\n        /* \"#utility.yul\":15523:15598   */\n      tag_663\n        /* \"#utility.yul\":15590:15597   */\n      dup8\n        /* \"#utility.yul\":15581:15587   */\n      dup3\n        /* \"#utility.yul\":15570:15579   */\n      dup9\n        /* \"#utility.yul\":15566:15588   */\n      add\n        /* \"#utility.yul\":15523:15598   */\n      tag_381\n      jump\t// in\n    tag_663:\n        /* \"#utility.yul\":15513:15598   */\n      swap2\n      pop\n        /* \"#utility.yul\":15468:15608   */\n      pop\n        /* \"#utility.yul\":14626:15615   */\n      swap3\n      swap6\n      swap2\n      swap5\n      pop\n      swap3\n      pop\n      jump\t// out\n        /* \"#utility.yul\":15621:16139   */\n    tag_95:\n        /* \"#utility.yul\":15711:15717   */\n      0x00\n        /* \"#utility.yul\":15719:15725   */\n      dup1\n        /* \"#utility.yul\":15768:15770   */\n      0x40\n        /* \"#utility.yul\":15756:15765   */\n      dup4\n        /* \"#utility.yul\":15747:15754   */\n      dup6\n        /* \"#utility.yul\":15743:15766   */\n      sub\n        /* \"#utility.yul\":15739:15771   */\n      slt\n        /* \"#utility.yul\":15736:15855   */\n      iszero\n      tag_665\n      jumpi\n        /* \"#utility.yul\":15774:15853   */\n      tag_666\n      tag_377\n      jump\t// in\n    tag_666:\n        /* \"#utility.yul\":15736:15855   */\n    tag_665:\n        /* \"#utility.yul\":15894:15895   */\n      0x00\n        /* \"#utility.yul\":15919:15994   */\n      tag_667\n        /* \"#utility.yul\":15986:15993   */\n      dup6\n        /* \"#utility.yul\":15977:15983   */\n      dup3\n        /* \"#utility.yul\":15966:15975   */\n      dup7\n        /* \"#utility.yul\":15962:15984   */\n      add\n        /* \"#utility.yul\":15919:15994   */\n      tag_381\n      jump\t// in\n    tag_667:\n        /* \"#utility.yul\":15909:15994   */\n      swap3\n      pop\n        /* \"#utility.yul\":15865:16004   */\n      pop\n        /* \"#utility.yul\":16043:16045   */\n      0x20\n        /* \"#utility.yul\":16069:16122   */\n      tag_668\n        /* \"#utility.yul\":16114:16121   */\n      dup6\n        /* \"#utility.yul\":16105:16111   */\n      dup3\n        /* \"#utility.yul\":16094:16103   */\n      dup7\n        /* \"#utility.yul\":16090:16112   */\n      add\n        /* \"#utility.yul\":16069:16122   */\n      tag_383\n      jump\t// in\n    tag_668:\n        /* \"#utility.yul\":16059:16122   */\n      swap2\n      pop\n        /* \"#utility.yul\":16014:16132   */\n      pop\n        /* \"#utility.yul\":15621:16139   */\n      swap3\n      pop\n      swap3\n      swap1\n      pop\n      jump\t// out\n        /* \"#utility.yul\":16145:16283   */\n    tag_420:\n        /* \"#utility.yul\":16226:16258   */\n      tag_670\n        /* \"#utility.yul\":16252:16257   */\n      dup2\n        /* \"#utility.yul\":16226:16258   */\n      tag_398\n      jump\t// in\n    tag_670:\n        /* \"#utility.yul\":16219:16224   */\n      dup2\n        /* \"#utility.yul\":16216:16259   */\n      eq\n        /* \"#utility.yul\":16206:16277   */\n      tag_671\n      jumpi\n        /* \"#utility.yul\":16273:16274   */\n      0x00\n        /* \"#utility.yul\":16270:16271   */\n      dup1\n        /* \"#utility.yul\":16263:16275   */\n      revert\n        /* \"#utility.yul\":16206:16277   */\n    tag_671:\n        /* \"#utility.yul\":16145:16283   */\n      pop\n      jump\t// out\n        /* \"#utility.yul\":16289:16444   */\n    tag_421:\n        /* \"#utility.yul\":16343:16348   */\n      0x00\n        /* \"#utility.yul\":16381:16387   */\n      dup2\n        /* \"#utility.yul\":16368:16388   */\n      calldataload\n        /* \"#utility.yul\":16359:16388   */\n      swap1\n      pop\n        /* \"#utility.yul\":16397:16438   */\n      tag_673\n        /* \"#utility.yul\":16432:16437   */\n      dup2\n        /* \"#utility.yul\":16397:16438   */\n      tag_420\n      jump\t// in\n    tag_673:\n        /* \"#utility.yul\":16289:16444   */\n      swap3\n      swap2\n      pop\n      pop\n      jump\t// out\n        /* \"#utility.yul\":16450:17589   */\n    tag_101:\n        /* \"#utility.yul\":16563:16569   */\n      0x00\n        /* \"#utility.yul\":16571:16577   */\n      dup1\n        /* \"#utility.yul\":16579:16585   */\n      0x00\n        /* \"#utility.yul\":16587:16593   */\n      dup1\n        /* \"#utility.yul\":16636:16639   */\n      0x80\n        /* \"#utility.yul\":16624:16633   */\n      dup6\n        /* \"#utility.yul\":16615:16622   */\n      dup8\n        /* \"#utility.yul\":16611:16634   */\n      sub\n        /* \"#utility.yul\":16607:16640   */\n      slt\n        /* \"#utility.yul\":16604:16724   */\n      iszero\n      tag_675\n      jumpi\n        /* \"#utility.yul\":16643:16722   */\n      tag_676\n      tag_377\n      jump\t// in\n    tag_676:\n        /* \"#utility.yul\":16604:16724   */\n    tag_675:\n        /* \"#utility.yul\":16791:16792   */\n      0x00\n        /* \"#utility.yul\":16780:16789   */\n      dup6\n        /* \"#utility.yul\":16776:16793   */\n      add\n        /* \"#utility.yul\":16763:16794   */\n      calldataload\n        /* \"#utility.yul\":16821:16839   */\n      0xffffffffffffffff\n        /* \"#utility.yul\":16813:16819   */\n      dup2\n        /* \"#utility.yul\":16810:16840   */\n      gt\n        /* \"#utility.yul\":16807:16924   */\n      iszero\n      tag_677\n      jumpi\n        /* \"#utility.yul\":16843:16922   */\n      tag_678\n      tag_378\n      jump\t// in\n    tag_678:\n        /* \"#utility.yul\":16807:16924   */\n    tag_677:\n        /* \"#utility.yul\":16948:17011   */\n      tag_679\n        /* \"#utility.yul\":17003:17010   */\n      dup8\n        /* \"#utility.yul\":16994:17000   */\n      dup3\n        /* \"#utility.yul\":16983:16992   */\n      dup9\n        /* \"#utility.yul\":16979:17001   */\n      add\n        /* \"#utility.yul\":16948:17011   */\n      tag_402\n      jump\t// in\n    tag_679:\n        /* \"#utility.yul\":16938:17011   */\n      swap5\n      pop\n        /* \"#utility.yul\":16734:17021   */\n      pop\n        /* \"#utility.yul\":17060:17062   */\n      0x20\n        /* \"#utility.yul\":17086:17147   */\n      tag_680\n        /* \"#utility.yul\":17139:17146   */\n      dup8\n        /* \"#utility.yul\":17130:17136   */\n      dup3\n        /* \"#utility.yul\":17119:17128   */\n      dup9\n        /* \"#utility.yul\":17115:17137   */\n      add\n        /* \"#utility.yul\":17086:17147   */\n      tag_421\n      jump\t// in\n    tag_680:\n        /* \"#utility.yul\":17076:17147   */\n      swap4\n      pop\n        /* \"#utility.yul\":17031:17157   */\n      pop\n        /* \"#utility.yul\":17196:17198   */\n      0x40\n        /* \"#utility.yul\":17222:17275   */\n      tag_681\n        /* \"#utility.yul\":17267:17274   */\n      dup8\n        /* \"#utility.yul\":17258:17264   */\n      dup3\n        /* \"#utility.yul\":17247:17256   */\n      dup9\n        /* \"#utility.yul\":17243:17265   */\n      add\n        /* \"#utility.yul\":17222:17275   */\n      tag_383\n      jump\t// in\n    tag_681:\n        /* \"#utility.yul\":17212:17275   */\n      swap3\n      pop\n        /* \"#utility.yul\":17167:17285   */\n      pop\n        /* \"#utility.yul\":17352:17354   */\n      0x60\n        /* \"#utility.yul\":17341:17350   */\n      dup6\n        /* \"#utility.yul\":17337:17355   */\n      add\n        /* \"#utility.yul\":17324:17356   */\n      calldataload\n        /* \"#utility.yul\":17383:17401   */\n      0xffffffffffffffff\n        /* \"#utility.yul\":17375:17381   */\n      dup2\n        /* \"#utility.yul\":17372:17402   */\n      gt\n        /* \"#utility.yul\":17369:17486   */\n      iszero\n      tag_682\n      jumpi\n        /* \"#utility.yul\":17405:17484   */\n      tag_683\n      tag_378\n      jump\t// in\n    tag_683:\n        /* \"#utility.yul\":17369:17486   */\n    tag_682:\n        /* \"#utility.yul\":17510:17572   */\n      tag_684\n        /* \"#utility.yul\":17564:17571   */\n      dup8\n        /* \"#utility.yul\":17555:17561   */\n      dup3\n        /* \"#utility.yul\":17544:17553   */\n      dup9\n        /* \"#utility.yul\":17540:17562   */\n      add\n        /* \"#utility.yul\":17510:17572   */\n      tag_392\n      jump\t// in\n    tag_684:\n        /* \"#utility.yul\":17500:17572   */\n      swap2\n      pop\n        /* \"#utility.yul\":17295:17582   */\n      pop\n        /* \"#utility.yul\":16450:17589   */\n      swap3\n      swap6\n      swap2\n      swap5\n      pop\n      swap3\n      pop\n      jump\t// out\n        /* \"#utility.yul\":17595:18718   */\n    tag_106:\n        /* \"#utility.yul\":17700:17706   */\n      0x00\n        /* \"#utility.yul\":17708:17714   */\n      dup1\n        /* \"#utility.yul\":17716:17722   */\n      0x00\n        /* \"#utility.yul\":17724:17730   */\n      dup1\n        /* \"#utility.yul\":17773:17776   */\n      0x80\n        /* \"#utility.yul\":17761:17770   */\n      dup6\n        /* \"#utility.yul\":17752:17759   */\n      dup8\n        /* \"#utility.yul\":17748:17771   */\n      sub\n        /* \"#utility.yul\":17744:17777   */\n      slt\n        /* \"#utility.yul\":17741:17861   */\n      iszero\n      tag_686\n      jumpi\n        /* \"#utility.yul\":17780:17859   */\n      tag_687\n      tag_377\n      jump\t// in\n    tag_687:\n        /* \"#utility.yul\":17741:17861   */\n    tag_686:\n        /* \"#utility.yul\":17900:17901   */\n      0x00\n        /* \"#utility.yul\":17925:17978   */\n      tag_688\n        /* \"#utility.yul\":17970:17977   */\n      dup8\n        /* \"#utility.yul\":17961:17967   */\n      dup3\n        /* \"#utility.yul\":17950:17959   */\n      dup9\n        /* \"#utility.yul\":17946:17968   */\n      add\n        /* \"#utility.yul\":17925:17978   */\n      tag_408\n      jump\t// in\n    tag_688:\n        /* \"#utility.yul\":17915:17978   */\n      swap5\n      pop\n        /* \"#utility.yul\":17871:17988   */\n      pop\n        /* \"#utility.yul\":18055:18057   */\n      0x20\n        /* \"#utility.yul\":18044:18053   */\n      dup6\n        /* \"#utility.yul\":18040:18058   */\n      add\n        /* \"#utility.yul\":18027:18059   */\n      calldataload\n        /* \"#utility.yul\":18086:18104   */\n      0xffffffffffffffff\n        /* \"#utility.yul\":18078:18084   */\n      dup2\n        /* \"#utility.yul\":18075:18105   */\n      gt\n        /* \"#utility.yul\":18072:18189   */\n      iszero\n      tag_689\n      jumpi\n        /* \"#utility.yul\":18108:18187   */\n      tag_690\n      tag_378\n      jump\t// in\n    tag_690:\n        /* \"#utility.yul\":18072:18189   */\n    tag_689:\n        /* \"#utility.yul\":18213:18276   */\n      tag_691\n        /* \"#utility.yul\":18268:18275   */\n      dup8\n        /* \"#utility.yul\":18259:18265   */\n      dup3\n        /* \"#utility.yul\":18248:18257   */\n      dup9\n        /* \"#utility.yul\":18244:18266   */\n      add\n        /* \"#utility.yul\":18213:18276   */\n      tag_402\n      jump\t// in\n    tag_691:\n        /* \"#utility.yul\":18203:18276   */\n      swap4\n      pop\n        /* \"#utility.yul\":17998:18286   */\n      pop\n        /* \"#utility.yul\":18325:18327   */\n      0x40\n        /* \"#utility.yul\":18351:18404   */\n      tag_692\n        /* \"#utility.yul\":18396:18403   */\n      dup8\n        /* \"#utility.yul\":18387:18393   */\n      dup3\n        /* \"#utility.yul\":18376:18385   */\n      dup9\n        /* \"#utility.yul\":18372:18394   */\n      add\n        /* \"#utility.yul\":18351:18404   */\n      tag_383\n      jump\t// in\n    tag_692:\n        /* \"#utility.yul\":18341:18404   */\n      swap3\n      pop\n        /* \"#utility.yul\":18296:18414   */\n      pop\n        /* \"#utility.yul\":18481:18483   */\n      0x60\n        /* \"#utility.yul\":18470:18479   */\n      dup6\n        /* \"#utility.yul\":18466:18484   */\n      add\n        /* \"#utility.yul\":18453:18485   */\n      calldataload\n        /* \"#utility.yul\":18512:18530   */\n      0xffffffffffffffff\n        /* \"#utility.yul\":18504:18510   */\n      dup2\n        /* \"#utility.yul\":18501:18531   */\n      gt\n        /* \"#utility.yul\":18498:18615   */\n      iszero\n      tag_693\n      jumpi\n        /* \"#utility.yul\":18534:18613   */\n      tag_694\n      tag_378\n      jump\t// in\n    tag_694:\n        /* \"#utility.yul\":18498:18615   */\n    tag_693:\n        /* \"#utility.yul\":18639:18701   */\n      tag_695\n        /* \"#utility.yul\":18693:18700   */\n      dup8\n        /* \"#utility.yul\":18684:18690   */\n      dup3\n        /* \"#utility.yul\":18673:18682   */\n      dup9\n        /* \"#utility.yul\":18669:18691   */\n      add\n        /* \"#utility.yul\":18639:18701   */\n      tag_392\n      jump\t// in\n    tag_695:\n        /* \"#utility.yul\":18629:18701   */\n      swap2\n      pop\n        /* \"#utility.yul\":18424:18711   */\n      pop\n        /* \"#utility.yul\":17595:18718   */\n      swap3\n      swap6\n      swap2\n      swap5\n      pop\n      swap3\n      pop\n      jump\t// out\n        /* \"#utility.yul\":18724:19242   */\n    tag_112:\n        /* \"#utility.yul\":18814:18820   */\n      0x00\n        /* \"#utility.yul\":18822:18828   */\n      dup1\n        /* \"#utility.yul\":18871:18873   */\n      0x40\n        /* \"#utility.yul\":18859:18868   */\n      dup4\n        /* \"#utility.yul\":18850:18857   */\n      dup6\n        /* \"#utility.yul\":18846:18869   */\n      sub\n        /* \"#utility.yul\":18842:18874   */\n      slt\n        /* \"#utility.yul\":18839:18958   */\n      iszero\n      tag_697\n      jumpi\n        /* \"#utility.yul\":18877:18956   */\n      tag_698\n      tag_377\n      jump\t// in\n    tag_698:\n        /* \"#utility.yul\":18839:18958   */\n    tag_697:\n        /* \"#utility.yul\":18997:18998   */\n      0x00\n        /* \"#utility.yul\":19022:19097   */\n      tag_699\n        /* \"#utility.yul\":19089:19096   */\n      dup6\n        /* \"#utility.yul\":19080:19086   */\n      dup3\n        /* \"#utility.yul\":19069:19078   */\n      dup7\n        /* \"#utility.yul\":19065:19087   */\n      add\n        /* \"#utility.yul\":19022:19097   */\n      tag_381\n      jump\t// in\n    tag_699:\n        /* \"#utility.yul\":19012:19097   */\n      swap3\n      pop\n        /* \"#utility.yul\":18968:19107   */\n      pop\n        /* \"#utility.yul\":19146:19148   */\n      0x20\n        /* \"#utility.yul\":19172:19225   */\n      tag_700\n        /* \"#utility.yul\":19217:19224   */\n      dup6\n        /* \"#utility.yul\":19208:19214   */\n      dup3\n        /* \"#utility.yul\":19197:19206   */\n      dup7\n        /* \"#utility.yul\":19193:19215   */\n      add\n        /* \"#utility.yul\":19172:19225   */\n      tag_408\n      jump\t// in\n    tag_700:\n        /* \"#utility.yul\":19162:19225   */\n      swap2\n      pop\n        /* \"#utility.yul\":19117:19235   */\n      pop\n        /* \"#utility.yul\":18724:19242   */\n      swap3\n      pop\n      swap3\n      swap1\n      pop\n      jump\t// out\n        /* \"#utility.yul\":19248:19370   */\n    tag_422:\n        /* \"#utility.yul\":19321:19345   */\n      tag_702\n        /* \"#utility.yul\":19339:19344   */\n      dup2\n        /* \"#utility.yul\":19321:19345   */\n      tag_403\n      jump\t// in\n    tag_702:\n        /* \"#utility.yul\":19314:19319   */\n      dup2\n        /* \"#utility.yul\":19311:19346   */\n      eq\n        /* \"#utility.yul\":19301:19364   */\n      tag_703\n      jumpi\n        /* \"#utility.yul\":19360:19361   */\n      0x00\n        /* \"#utility.yul\":19357:19358   */\n      dup1\n        /* \"#utility.yul\":19350:19362   */\n      revert\n        /* \"#utility.yul\":19301:19364   */\n    tag_703:\n        /* \"#utility.yul\":19248:19370   */\n      pop\n      jump\t// out\n        /* \"#utility.yul\":19376:19515   */\n    tag_423:\n        /* \"#utility.yul\":19422:19427   */\n      0x00\n        /* \"#utility.yul\":19460:19466   */\n      dup2\n        /* \"#utility.yul\":19447:19467   */\n      calldataload\n        /* \"#utility.yul\":19438:19467   */\n      swap1\n      pop\n        /* \"#utility.yul\":19476:19509   */\n      tag_705\n        /* \"#utility.yul\":19503:19508   */\n      dup2\n        /* \"#utility.yul\":19476:19509   */\n      tag_422\n      jump\t// in\n    tag_705:\n        /* \"#utility.yul\":19376:19515   */\n      swap3\n      swap2\n      pop\n      pop\n      jump\t// out\n        /* \"#utility.yul\":19521:20173   */\n    tag_118:\n        /* \"#utility.yul\":19598:19604   */\n      0x00\n        /* \"#utility.yul\":19606:19612   */\n      dup1\n        /* \"#utility.yul\":19655:19657   */\n      0x40\n        /* \"#utility.yul\":19643:19652   */\n      dup4\n        /* \"#utility.yul\":19634:19641   */\n      dup6\n        /* \"#utility.yul\":19630:19653   */\n      sub\n        /* \"#utility.yul\":19626:19658   */\n      slt\n        /* \"#utility.yul\":19623:19742   */\n      iszero\n      tag_707\n      jumpi\n        /* \"#utility.yul\":19661:19740   */\n      tag_708\n      tag_377\n      jump\t// in\n    tag_708:\n        /* \"#utility.yul\":19623:19742   */\n    tag_707:\n        /* \"#utility.yul\":19781:19782   */\n      0x00\n        /* \"#utility.yul\":19806:19859   */\n      tag_709\n        /* \"#utility.yul\":19851:19858   */\n      dup6\n        /* \"#utility.yul\":19842:19848   */\n      dup3\n        /* \"#utility.yul\":19831:19840   */\n      dup7\n        /* \"#utility.yul\":19827:19849   */\n      add\n        /* \"#utility.yul\":19806:19859   */\n      tag_423\n      jump\t// in\n    tag_709:\n        /* \"#utility.yul\":19796:19859   */\n      swap3\n      pop\n        /* \"#utility.yul\":19752:19869   */\n      pop\n        /* \"#utility.yul\":19936:19938   */\n      0x20\n        /* \"#utility.yul\":19925:19934   */\n      dup4\n        /* \"#utility.yul\":19921:19939   */\n      add\n        /* \"#utility.yul\":19908:19940   */\n      calldataload\n        /* \"#utility.yul\":19967:19985   */\n      0xffffffffffffffff\n        /* \"#utility.yul\":19959:19965   */\n      dup2\n        /* \"#utility.yul\":19956:19986   */\n      gt\n        /* \"#utility.yul\":19953:20070   */\n      iszero\n      tag_710\n      jumpi\n        /* \"#utility.yul\":19989:20068   */\n      tag_711\n      tag_378\n      jump\t// in\n    tag_711:\n        /* \"#utility.yul\":19953:20070   */\n    tag_710:\n        /* \"#utility.yul\":20094:20156   */\n      tag_712\n        /* \"#utility.yul\":20148:20155   */\n      dup6\n        /* \"#utility.yul\":20139:20145   */\n      dup3\n        /* \"#utility.yul\":20128:20137   */\n      dup7\n        /* \"#utility.yul\":20124:20146   */\n      add\n        /* \"#utility.yul\":20094:20156   */\n      tag_392\n      jump\t// in\n    tag_712:\n        /* \"#utility.yul\":20084:20156   */\n      swap2\n      pop\n        /* \"#utility.yul\":19879:20166   */\n      pop\n        /* \"#utility.yul\":19521:20173   */\n      swap3\n      pop\n      swap3\n      swap1\n      pop\n      jump\t// out\n        /* \"#utility.yul\":20179:20686   */\n    tag_128:\n        /* \"#utility.yul\":20247:20253   */\n      0x00\n        /* \"#utility.yul\":20296:20298   */\n      0x20\n        /* \"#utility.yul\":20284:20293   */\n      dup3\n        /* \"#utility.yul\":20275:20282   */\n      dup5\n        /* \"#utility.yul\":20271:20294   */\n      sub\n        /* \"#utility.yul\":20267:20299   */\n      slt\n        /* \"#utility.yul\":20264:20383   */\n      iszero\n      tag_714\n      jumpi\n        /* \"#utility.yul\":20302:20381   */\n      tag_715\n      tag_377\n      jump\t// in\n    tag_715:\n        /* \"#utility.yul\":20264:20383   */\n    tag_714:\n        /* \"#utility.yul\":20450:20451   */\n      0x00\n        /* \"#utility.yul\":20439:20448   */\n      dup3\n        /* \"#utility.yul\":20435:20452   */\n      add\n        /* \"#utility.yul\":20422:20453   */\n      calldataload\n        /* \"#utility.yul\":20480:20498   */\n      0xffffffffffffffff\n        /* \"#utility.yul\":20472:20478   */\n      dup2\n        /* \"#utility.yul\":20469:20499   */\n      gt\n        /* \"#utility.yul\":20466:20583   */\n      iszero\n      tag_716\n      jumpi\n        /* \"#utility.yul\":20502:20581   */\n      tag_717\n      tag_378\n      jump\t// in\n    tag_717:\n        /* \"#utility.yul\":20466:20583   */\n    tag_716:\n        /* \"#utility.yul\":20607:20669   */\n      tag_718\n        /* \"#utility.yul\":20661:20668   */\n      dup5\n        /* \"#utility.yul\":20652:20658   */\n      dup3\n        /* \"#utility.yul\":20641:20650   */\n      dup6\n        /* \"#utility.yul\":20637:20659   */\n      add\n        /* \"#utility.yul\":20607:20669   */\n      tag_392\n      jump\t// in\n    tag_718:\n        /* \"#utility.yul\":20597:20669   */\n      swap2\n      pop\n        /* \"#utility.yul\":20393:20679   */\n      pop\n        /* \"#utility.yul\":20179:20686   */\n      swap3\n      swap2\n      pop\n      pop\n      jump\t// out\n        /* \"#utility.yul\":20692:20778   */\n    tag_424:\n        /* \"#utility.yul\":20727:20734   */\n      0x00\n        /* \"#utility.yul\":20767:20771   */\n      0xff\n        /* \"#utility.yul\":20760:20765   */\n      dup3\n        /* \"#utility.yul\":20756:20772   */\n      and\n        /* \"#utility.yul\":20745:20772   */\n      swap1\n      pop\n        /* \"#utility.yul\":20692:20778   */\n      swap2\n      swap1\n      pop\n      jump\t// out\n        /* \"#utility.yul\":20784:20896   */\n    tag_425:\n        /* \"#utility.yul\":20867:20889   */\n      tag_721\n        /* \"#utility.yul\":20883:20888   */\n      dup2\n        /* \"#utility.yul\":20867:20889   */\n      tag_424\n      jump\t// in\n    tag_721:\n        /* \"#utility.yul\":20862:20865   */\n      dup3\n        /* \"#utility.yul\":20855:20890   */\n      mstore\n        /* \"#utility.yul\":20784:20896   */\n      pop\n      pop\n      jump\t// out\n        /* \"#utility.yul\":20902:21336   */\n    tag_131:\n        /* \"#utility.yul\":21047:21051   */\n      0x00\n        /* \"#utility.yul\":21085:21087   */\n      0x60\n        /* \"#utility.yul\":21074:21083   */\n      dup3\n        /* \"#utility.yul\":21070:21088   */\n      add\n        /* \"#utility.yul\":21062:21088   */\n      swap1\n      pop\n        /* \"#utility.yul\":21098:21169   */\n      tag_723\n        /* \"#utility.yul\":21166:21167   */\n      0x00\n        /* \"#utility.yul\":21155:21164   */\n      dup4\n        /* \"#utility.yul\":21151:21168   */\n      add\n        /* \"#utility.yul\":21142:21148   */\n      dup7\n        /* \"#utility.yul\":21098:21169   */\n      tag_404\n      jump\t// in\n    tag_723:\n        /* \"#utility.yul\":21179:21251   */\n      tag_724\n        /* \"#utility.yul\":21247:21249   */\n      0x20\n        /* \"#utility.yul\":21236:21245   */\n      dup4\n        /* \"#utility.yul\":21232:21250   */\n      add\n        /* \"#utility.yul\":21223:21229   */\n      dup6\n        /* \"#utility.yul\":21179:21251   */\n      tag_404\n      jump\t// in\n    tag_724:\n        /* \"#utility.yul\":21261:21329   */\n      tag_725\n        /* \"#utility.yul\":21325:21327   */\n      0x40\n        /* \"#utility.yul\":21314:21323   */\n      dup4\n        /* \"#utility.yul\":21310:21328   */\n      add\n        /* \"#utility.yul\":21301:21307   */\n      dup5\n        /* \"#utility.yul\":21261:21329   */\n      tag_425\n      jump\t// in\n    tag_725:\n        /* \"#utility.yul\":20902:21336   */\n      swap5\n      swap4\n      pop\n      pop\n      pop\n      pop\n      jump\t// out\n        /* \"#utility.yul\":21342:21460   */\n    tag_426:\n        /* \"#utility.yul\":21429:21453   */\n      tag_727\n        /* \"#utility.yul\":21447:21452   */\n      dup2\n        /* \"#utility.yul\":21429:21453   */\n      tag_379\n      jump\t// in\n    tag_727:\n        /* \"#utility.yul\":21424:21427   */\n      dup3\n        /* \"#utility.yul\":21417:21454   */\n      mstore\n        /* \"#utility.yul\":21342:21460   */\n      pop\n      pop\n      jump\t// out\n        /* \"#utility.yul\":21466:21688   */\n    tag_142:\n        /* \"#utility.yul\":21559:21563   */\n      0x00\n        /* \"#utility.yul\":21597:21599   */\n      0x20\n        /* \"#utility.yul\":21586:21595   */\n      dup3\n        /* \"#utility.yul\":21582:21600   */\n      add\n        /* \"#utility.yul\":21574:21600   */\n      swap1\n      pop\n        /* \"#utility.yul\":21610:21681   */\n      tag_729\n        /* \"#utility.yul\":21678:21679   */\n      0x00\n        /* \"#utility.yul\":21667:21676   */\n      dup4\n        /* \"#utility.yul\":21663:21680   */\n      add\n        /* \"#utility.yul\":21654:21660   */\n      dup5\n        /* \"#utility.yul\":21610:21681   */\n      tag_426\n      jump\t// in\n    tag_729:\n        /* \"#utility.yul\":21466:21688   */\n      swap3\n      swap2\n      pop\n      pop\n      jump\t// out\n        /* \"#utility.yul\":21694:22023   */\n    tag_154:\n        /* \"#utility.yul\":21753:21759   */\n      0x00\n        /* \"#utility.yul\":21802:21804   */\n      0x20\n        /* \"#utility.yul\":21790:21799   */\n      dup3\n        /* \"#utility.yul\":21781:21788   */\n      dup5\n        /* \"#utility.yul\":21777:21800   */\n      sub\n        /* \"#utility.yul\":21773:21805   */\n      slt\n        /* \"#utility.yul\":21770:21889   */\n      iszero\n      tag_731\n      jumpi\n        /* \"#utility.yul\":21808:21887   */\n      tag_732\n      tag_377\n      jump\t// in\n    tag_732:\n        /* \"#utility.yul\":21770:21889   */\n    tag_731:\n        /* \"#utility.yul\":21928:21929   */\n      0x00\n        /* \"#utility.yul\":21953:22006   */\n      tag_733\n        /* \"#utility.yul\":21998:22005   */\n      dup5\n        /* \"#utility.yul\":21989:21995   */\n      dup3\n        /* \"#utility.yul\":21978:21987   */\n      dup6\n        /* \"#utility.yul\":21974:21996   */\n      add\n        /* \"#utility.yul\":21953:22006   */\n      tag_423\n      jump\t// in\n    tag_733:\n        /* \"#utility.yul\":21943:22006   */\n      swap2\n      pop\n        /* \"#utility.yul\":21899:22016   */\n      pop\n        /* \"#utility.yul\":21694:22023   */\n      swap3\n      swap2\n      pop\n      pop\n      jump\t// out\n        /* \"#utility.yul\":22029:23650   */\n    tag_160:\n        /* \"#utility.yul\":22191:22197   */\n      0x00\n        /* \"#utility.yul\":22199:22205   */\n      dup1\n        /* \"#utility.yul\":22207:22213   */\n      0x00\n        /* \"#utility.yul\":22215:22221   */\n      dup1\n        /* \"#utility.yul\":22223:22229   */\n      0x00\n        /* \"#utility.yul\":22231:22237   */\n      dup1\n        /* \"#utility.yul\":22239:22245   */\n      0x00\n        /* \"#utility.yul\":22288:22291   */\n      0xe0\n        /* \"#utility.yul\":22276:22285   */\n      dup9\n        /* \"#utility.yul\":22267:22274   */\n      dup11\n        /* \"#utility.yul\":22263:22286   */\n      sub\n        /* \"#utility.yul\":22259:22292   */\n      slt\n        /* \"#utility.yul\":22256:22376   */\n      iszero\n      tag_735\n      jumpi\n        /* \"#utility.yul\":22295:22374   */\n      tag_736\n      tag_377\n      jump\t// in\n    tag_736:\n        /* \"#utility.yul\":22256:22376   */\n    tag_735:\n        /* \"#utility.yul\":22443:22444   */\n      0x00\n        /* \"#utility.yul\":22432:22441   */\n      dup9\n        /* \"#utility.yul\":22428:22445   */\n      add\n        /* \"#utility.yul\":22415:22446   */\n      calldataload\n        /* \"#utility.yul\":22473:22491   */\n      0xffffffffffffffff\n        /* \"#utility.yul\":22465:22471   */\n      dup2\n        /* \"#utility.yul\":22462:22492   */\n      gt\n        /* \"#utility.yul\":22459:22576   */\n      iszero\n      tag_737\n      jumpi\n        /* \"#utility.yul\":22495:22574   */\n      tag_738\n      tag_378\n      jump\t// in\n    tag_738:\n        /* \"#utility.yul\":22459:22576   */\n    tag_737:\n        /* \"#utility.yul\":22600:22663   */\n      tag_739\n        /* \"#utility.yul\":22655:22662   */\n      dup11\n        /* \"#utility.yul\":22646:22652   */\n      dup3\n        /* \"#utility.yul\":22635:22644   */\n      dup12\n        /* \"#utility.yul\":22631:22653   */\n      add\n        /* \"#utility.yul\":22600:22663   */\n      tag_402\n      jump\t// in\n    tag_739:\n        /* \"#utility.yul\":22590:22663   */\n      swap8\n      pop\n        /* \"#utility.yul\":22386:22673   */\n      pop\n        /* \"#utility.yul\":22712:22714   */\n      0x20\n        /* \"#utility.yul\":22738:22799   */\n      tag_740\n        /* \"#utility.yul\":22791:22798   */\n      dup11\n        /* \"#utility.yul\":22782:22788   */\n      dup3\n        /* \"#utility.yul\":22771:22780   */\n      dup12\n        /* \"#utility.yul\":22767:22789   */\n      add\n        /* \"#utility.yul\":22738:22799   */\n      tag_421\n      jump\t// in\n    tag_740:\n        /* \"#utility.yul\":22728:22799   */\n      swap7\n      pop\n        /* \"#utility.yul\":22683:22809   */\n      pop\n        /* \"#utility.yul\":22848:22850   */\n      0x40\n        /* \"#utility.yul\":22874:22927   */\n      tag_741\n        /* \"#utility.yul\":22919:22926   */\n      dup11\n        /* \"#utility.yul\":22910:22916   */\n      dup3\n        /* \"#utility.yul\":22899:22908   */\n      dup12\n        /* \"#utility.yul\":22895:22917   */\n      add\n        /* \"#utility.yul\":22874:22927   */\n      tag_383\n      jump\t// in\n    tag_741:\n        /* \"#utility.yul\":22864:22927   */\n      swap6\n      pop\n        /* \"#utility.yul\":22819:22937   */\n      pop\n        /* \"#utility.yul\":23004:23006   */\n      0x60\n        /* \"#utility.yul\":22993:23002   */\n      dup9\n        /* \"#utility.yul\":22989:23007   */\n      add\n        /* \"#utility.yul\":22976:23008   */\n      calldataload\n        /* \"#utility.yul\":23035:23053   */\n      0xffffffffffffffff\n        /* \"#utility.yul\":23027:23033   */\n      dup2\n        /* \"#utility.yul\":23024:23054   */\n      gt\n        /* \"#utility.yul\":23021:23138   */\n      iszero\n      tag_742\n      jumpi\n        /* \"#utility.yul\":23057:23136   */\n      tag_743\n      tag_378\n      jump\t// in\n    tag_743:\n        /* \"#utility.yul\":23021:23138   */\n    tag_742:\n        /* \"#utility.yul\":23162:23224   */\n      tag_744\n        /* \"#utility.yul\":23216:23223   */\n      dup11\n        /* \"#utility.yul\":23207:23213   */\n      dup3\n        /* \"#utility.yul\":23196:23205   */\n      dup12\n        /* \"#utility.yul\":23192:23214   */\n      add\n        /* \"#utility.yul\":23162:23224   */\n      tag_392\n      jump\t// in\n    tag_744:\n        /* \"#utility.yul\":23152:23224   */\n      swap5\n      pop\n        /* \"#utility.yul\":22947:23234   */\n      pop\n        /* \"#utility.yul\":23273:23276   */\n      0x80\n        /* \"#utility.yul\":23300:23353   */\n      tag_745\n        /* \"#utility.yul\":23345:23352   */\n      dup11\n        /* \"#utility.yul\":23336:23342   */\n      dup3\n        /* \"#utility.yul\":23325:23334   */\n      dup12\n        /* \"#utility.yul\":23321:23343   */\n      add\n        /* \"#utility.yul\":23300:23353   */\n      tag_408\n      jump\t// in\n    tag_745:\n        /* \"#utility.yul\":23290:23353   */\n      swap4\n      pop\n        /* \"#utility.yul\":23244:23363   */\n      pop\n        /* \"#utility.yul\":23402:23405   */\n      0xa0\n        /* \"#utility.yul\":23429:23482   */\n      tag_746\n        /* \"#utility.yul\":23474:23481   */\n      dup11\n        /* \"#utility.yul\":23465:23471   */\n      dup3\n        /* \"#utility.yul\":23454:23463   */\n      dup12\n        /* \"#utility.yul\":23450:23472   */\n      add\n        /* \"#utility.yul\":23429:23482   */\n      tag_383\n      jump\t// in\n    tag_746:\n        /* \"#utility.yul\":23419:23482   */\n      swap3\n      pop\n        /* \"#utility.yul\":23373:23492   */\n      pop\n        /* \"#utility.yul\":23531:23534   */\n      0xc0\n        /* \"#utility.yul\":23558:23633   */\n      tag_747\n        /* \"#utility.yul\":23625:23632   */\n      dup11\n        /* \"#utility.yul\":23616:23622   */\n      dup3\n        /* \"#utility.yul\":23605:23614   */\n      dup12\n        /* \"#utility.yul\":23601:23623   */\n      add\n        /* \"#utility.yul\":23558:23633   */\n      tag_381\n      jump\t// in\n    tag_747:\n        /* \"#utility.yul\":23548:23633   */\n      swap2\n      pop\n        /* \"#utility.yul\":23502:23643   */\n      pop\n        /* \"#utility.yul\":22029:23650   */\n      swap3\n      swap6\n      swap9\n      swap2\n      swap5\n      swap8\n      pop\n      swap3\n      swap6\n      pop\n      jump\t// out\n        /* \"#utility.yul\":23656:23827   */\n    tag_427:\n        /* \"#utility.yul\":23796:23819   */\n      0x6c6963656e736520646f65736e27742065786973740000000000000000000000\n        /* \"#utility.yul\":23792:23793   */\n      0x00\n        /* \"#utility.yul\":23784:23790   */\n      dup3\n        /* \"#utility.yul\":23780:23794   */\n      add\n        /* \"#utility.yul\":23773:23820   */\n      mstore\n        /* \"#utility.yul\":23656:23827   */\n      pop\n      jump\t// out\n        /* \"#utility.yul\":23833:24199   */\n    tag_428:\n        /* \"#utility.yul\":23975:23978   */\n      0x00\n        /* \"#utility.yul\":23996:24063   */\n      tag_750\n        /* \"#utility.yul\":24060:24062   */\n      0x15\n        /* \"#utility.yul\":24055:24058   */\n      dup4\n        /* \"#utility.yul\":23996:24063   */\n      tag_394\n      jump\t// in\n    tag_750:\n        /* \"#utility.yul\":23989:24063   */\n      swap2\n      pop\n        /* \"#utility.yul\":24072:24165   */\n      tag_751\n        /* \"#utility.yul\":24161:24164   */\n      dup3\n        /* \"#utility.yul\":24072:24165   */\n      tag_427\n      jump\t// in\n    tag_751:\n        /* \"#utility.yul\":24190:24192   */\n      0x20\n        /* \"#utility.yul\":24185:24188   */\n      dup3\n        /* \"#utility.yul\":24181:24193   */\n      add\n        /* \"#utility.yul\":24174:24193   */\n      swap1\n      pop\n        /* \"#utility.yul\":23833:24199   */\n      swap2\n      swap1\n      pop\n      jump\t// out\n        /* \"#utility.yul\":24205:24624   */\n    tag_165:\n        /* \"#utility.yul\":24371:24375   */\n      0x00\n        /* \"#utility.yul\":24409:24411   */\n      0x20\n        /* \"#utility.yul\":24398:24407   */\n      dup3\n        /* \"#utility.yul\":24394:24412   */\n      add\n        /* \"#utility.yul\":24386:24412   */\n      swap1\n      pop\n        /* \"#utility.yul\":24458:24467   */\n      dup2\n        /* \"#utility.yul\":24452:24456   */\n      dup2\n        /* \"#utility.yul\":24448:24468   */\n      sub\n        /* \"#utility.yul\":24444:24445   */\n      0x00\n        /* \"#utility.yul\":24433:24442   */\n      dup4\n        /* \"#utility.yul\":24429:24446   */\n      add\n        /* \"#utility.yul\":24422:24469   */\n      mstore\n        /* \"#utility.yul\":24486:24617   */\n      tag_753\n        /* \"#utility.yul\":24612:24616   */\n      dup2\n        /* \"#utility.yul\":24486:24617   */\n      tag_428\n      jump\t// in\n    tag_753:\n        /* \"#utility.yul\":24478:24617   */\n      swap1\n      pop\n        /* \"#utility.yul\":24205:24624   */\n      swap2\n      swap1\n      pop\n      jump\t// out\n        /* \"#utility.yul\":24630:24783   */\n    tag_429:\n        /* \"#utility.yul\":24739:24776   */\n      tag_755\n        /* \"#utility.yul\":24770:24775   */\n      dup2\n        /* \"#utility.yul\":24739:24776   */\n      tag_413\n      jump\t// in\n    tag_755:\n        /* \"#utility.yul\":24734:24737   */\n      dup3\n        /* \"#utility.yul\":24727:24777   */\n      mstore\n        /* \"#utility.yul\":24630:24783   */\n      pop\n      pop\n      jump\t// out\n        /* \"#utility.yul\":24789:25055   */\n    tag_168:\n        /* \"#utility.yul\":24904:24908   */\n      0x00\n        /* \"#utility.yul\":24942:24944   */\n      0x20\n        /* \"#utility.yul\":24931:24940   */\n      dup3\n        /* \"#utility.yul\":24927:24945   */\n      add\n        /* \"#utility.yul\":24919:24945   */\n      swap1\n      pop\n        /* \"#utility.yul\":24955:25048   */\n      tag_757\n        /* \"#utility.yul\":25045:25046   */\n      0x00\n        /* \"#utility.yul\":25034:25043   */\n      dup4\n        /* \"#utility.yul\":25030:25047   */\n      add\n        /* \"#utility.yul\":25021:25027   */\n      dup5\n        /* \"#utility.yul\":24955:25048   */\n      tag_429\n      jump\t// in\n    tag_757:\n        /* \"#utility.yul\":24789:25055   */\n      swap3\n      swap2\n      pop\n      pop\n      jump\t// out\n        /* \"#utility.yul\":25061:25204   */\n    tag_430:\n        /* \"#utility.yul\":25118:25123   */\n      0x00\n        /* \"#utility.yul\":25149:25155   */\n      dup2\n        /* \"#utility.yul\":25143:25156   */\n      mload\n        /* \"#utility.yul\":25134:25156   */\n      swap1\n      pop\n        /* \"#utility.yul\":25165:25198   */\n      tag_759\n        /* \"#utility.yul\":25192:25197   */\n      dup2\n        /* \"#utility.yul\":25165:25198   */\n      tag_382\n      jump\t// in\n    tag_759:\n        /* \"#utility.yul\":25061:25204   */\n      swap3\n      swap2\n      pop\n      pop\n      jump\t// out\n        /* \"#utility.yul\":25210:25561   */\n    tag_172:\n        /* \"#utility.yul\":25280:25286   */\n      0x00\n        /* \"#utility.yul\":25329:25331   */\n      0x20\n        /* \"#utility.yul\":25317:25326   */\n      dup3\n        /* \"#utility.yul\":25308:25315   */\n      dup5\n        /* \"#utility.yul\":25304:25327   */\n      sub\n        /* \"#utility.yul\":25300:25332   */\n      slt\n        /* \"#utility.yul\":25297:25416   */\n      iszero\n      tag_761\n      jumpi\n        /* \"#utility.yul\":25335:25414   */\n      tag_762\n      tag_377\n      jump\t// in\n    tag_762:\n        /* \"#utility.yul\":25297:25416   */\n    tag_761:\n        /* \"#utility.yul\":25455:25456   */\n      0x00\n        /* \"#utility.yul\":25480:25544   */\n      tag_763\n        /* \"#utility.yul\":25536:25543   */\n      dup5\n        /* \"#utility.yul\":25527:25533   */\n      dup3\n        /* \"#utility.yul\":25516:25525   */\n      dup6\n        /* \"#utility.yul\":25512:25534   */\n      add\n        /* \"#utility.yul\":25480:25544   */\n      tag_430\n      jump\t// in\n    tag_763:\n        /* \"#utility.yul\":25470:25544   */\n      swap2\n      pop\n        /* \"#utility.yul\":25426:25554   */\n      pop\n        /* \"#utility.yul\":25210:25561   */\n      swap3\n      swap2\n      pop\n      pop\n      jump\t// out\n        /* \"#utility.yul\":25567:25733   */\n    tag_431:\n        /* \"#utility.yul\":25707:25725   */\n      0x6e6f7420656e6f75676820657468657200000000000000000000000000000000\n        /* \"#utility.yul\":25703:25704   */\n      0x00\n        /* \"#utility.yul\":25695:25701   */\n      dup3\n        /* \"#utility.yul\":25691:25705   */\n      add\n        /* \"#utility.yul\":25684:25726   */\n      mstore\n        /* \"#utility.yul\":25567:25733   */\n      pop\n      jump\t// out\n        /* \"#utility.yul\":25739:26105   */\n    tag_432:\n        /* \"#utility.yul\":25881:25884   */\n      0x00\n        /* \"#utility.yul\":25902:25969   */\n      tag_766\n        /* \"#utility.yul\":25966:25968   */\n      0x10\n        /* \"#utility.yul\":25961:25964   */\n      dup4\n        /* \"#utility.yul\":25902:25969   */\n      tag_394\n      jump\t// in\n    tag_766:\n        /* \"#utility.yul\":25895:25969   */\n      swap2\n      pop\n        /* \"#utility.yul\":25978:26071   */\n      tag_767\n        /* \"#utility.yul\":26067:26070   */\n      dup3\n        /* \"#utility.yul\":25978:26071   */\n      tag_431\n      jump\t// in\n    tag_767:\n        /* \"#utility.yul\":26096:26098   */\n      0x20\n        /* \"#utility.yul\":26091:26094   */\n      dup3\n        /* \"#utility.yul\":26087:26099   */\n      add\n        /* \"#utility.yul\":26080:26099   */\n      swap1\n      pop\n        /* \"#utility.yul\":25739:26105   */\n      swap2\n      swap1\n      pop\n      jump\t// out\n        /* \"#utility.yul\":26111:26530   */\n    tag_175:\n        /* \"#utility.yul\":26277:26281   */\n      0x00\n        /* \"#utility.yul\":26315:26317   */\n      0x20\n        /* \"#utility.yul\":26304:26313   */\n      dup3\n        /* \"#utility.yul\":26300:26318   */\n      add\n        /* \"#utility.yul\":26292:26318   */\n      swap1\n      pop\n        /* \"#utility.yul\":26364:26373   */\n      dup2\n        /* \"#utility.yul\":26358:26362   */\n      dup2\n        /* \"#utility.yul\":26354:26374   */\n      sub\n        /* \"#utility.yul\":26350:26351   */\n      0x00\n        /* \"#utility.yul\":26339:26348   */\n      dup4\n        /* \"#utility.yul\":26335:26352   */\n      add\n        /* \"#utility.yul\":26328:26375   */\n      mstore\n        /* \"#utility.yul\":26392:26523   */\n      tag_769\n        /* \"#utility.yul\":26518:26522   */\n      dup2\n        /* \"#utility.yul\":26392:26523   */\n      tag_432\n      jump\t// in\n    tag_769:\n        /* \"#utility.yul\":26384:26523   */\n      swap1\n      pop\n        /* \"#utility.yul\":26111:26530   */\n      swap2\n      swap1\n      pop\n      jump\t// out\n        /* \"#utility.yul\":26536:26634   */\n    tag_433:\n        /* \"#utility.yul\":26587:26593   */\n      0x00\n        /* \"#utility.yul\":26621:26626   */\n      dup2\n        /* \"#utility.yul\":26615:26627   */\n      mload\n        /* \"#utility.yul\":26605:26627   */\n      swap1\n      pop\n        /* \"#utility.yul\":26536:26634   */\n      swap2\n      swap1\n      pop\n      jump\t// out\n        /* \"#utility.yul\":26640:26808   */\n    tag_434:\n        /* \"#utility.yul\":26723:26734   */\n      0x00\n        /* \"#utility.yul\":26757:26763   */\n      dup3\n        /* \"#utility.yul\":26752:26755   */\n      dup3\n        /* \"#utility.yul\":26745:26764   */\n      mstore\n        /* \"#utility.yul\":26797:26801   */\n      0x20\n        /* \"#utility.yul\":26792:26795   */\n      dup3\n        /* \"#utility.yul\":26788:26802   */\n      add\n        /* \"#utility.yul\":26773:26802   */\n      swap1\n      pop\n        /* \"#utility.yul\":26640:26808   */\n      swap3\n      swap2\n      pop\n      pop\n      jump\t// out\n        /* \"#utility.yul\":26814:27187   */\n    tag_435:\n        /* \"#utility.yul\":26900:26903   */\n      0x00\n        /* \"#utility.yul\":26928:26966   */\n      tag_773\n        /* \"#utility.yul\":26960:26965   */\n      dup3\n        /* \"#utility.yul\":26928:26966   */\n      tag_433\n      jump\t// in\n    tag_773:\n        /* \"#utility.yul\":26982:27052   */\n      tag_774\n        /* \"#utility.yul\":27045:27051   */\n      dup2\n        /* \"#utility.yul\":27040:27043   */\n      dup6\n        /* \"#utility.yul\":26982:27052   */\n      tag_434\n      jump\t// in\n    tag_774:\n        /* \"#utility.yul\":26975:27052   */\n      swap4\n      pop\n        /* \"#utility.yul\":27061:27126   */\n      tag_775\n        /* \"#utility.yul\":27119:27125   */\n      dup2\n        /* \"#utility.yul\":27114:27117   */\n      dup6\n        /* \"#utility.yul\":27107:27111   */\n      0x20\n        /* \"#utility.yul\":27100:27105   */\n      dup7\n        /* \"#utility.yul\":27096:27112   */\n      add\n        /* \"#utility.yul\":27061:27126   */\n      tag_395\n      jump\t// in\n    tag_775:\n        /* \"#utility.yul\":27151:27180   */\n      tag_776\n        /* \"#utility.yul\":27173:27179   */\n      dup2\n        /* \"#utility.yul\":27151:27180   */\n      tag_386\n      jump\t// in\n    tag_776:\n        /* \"#utility.yul\":27146:27149   */\n      dup5\n        /* \"#utility.yul\":27142:27181   */\n      add\n        /* \"#utility.yul\":27135:27181   */\n      swap2\n      pop\n        /* \"#utility.yul\":26904:27187   */\n      pop\n        /* \"#utility.yul\":26814:27187   */\n      swap3\n      swap2\n      pop\n      pop\n      jump\t// out\n        /* \"#utility.yul\":27193:27877   */\n    tag_177:\n        /* \"#utility.yul\":27410:27414   */\n      0x00\n        /* \"#utility.yul\":27448:27451   */\n      0x80\n        /* \"#utility.yul\":27437:27446   */\n      dup3\n        /* \"#utility.yul\":27433:27452   */\n      add\n        /* \"#utility.yul\":27425:27452   */\n      swap1\n      pop\n        /* \"#utility.yul\":27462:27533   */\n      tag_778\n        /* \"#utility.yul\":27530:27531   */\n      0x00\n        /* \"#utility.yul\":27519:27528   */\n      dup4\n        /* \"#utility.yul\":27515:27532   */\n      add\n        /* \"#utility.yul\":27506:27512   */\n      dup8\n        /* \"#utility.yul\":27462:27533   */\n      tag_406\n      jump\t// in\n    tag_778:\n        /* \"#utility.yul\":27543:27637   */\n      tag_779\n        /* \"#utility.yul\":27633:27635   */\n      0x20\n        /* \"#utility.yul\":27622:27631   */\n      dup4\n        /* \"#utility.yul\":27618:27636   */\n      add\n        /* \"#utility.yul\":27609:27615   */\n      dup7\n        /* \"#utility.yul\":27543:27637   */\n      tag_429\n      jump\t// in\n    tag_779:\n        /* \"#utility.yul\":27647:27719   */\n      tag_780\n        /* \"#utility.yul\":27715:27717   */\n      0x40\n        /* \"#utility.yul\":27704:27713   */\n      dup4\n        /* \"#utility.yul\":27700:27718   */\n      add\n        /* \"#utility.yul\":27691:27697   */\n      dup6\n        /* \"#utility.yul\":27647:27719   */\n      tag_426\n      jump\t// in\n    tag_780:\n        /* \"#utility.yul\":27766:27775   */\n      dup2\n        /* \"#utility.yul\":27760:27764   */\n      dup2\n        /* \"#utility.yul\":27756:27776   */\n      sub\n        /* \"#utility.yul\":27751:27753   */\n      0x60\n        /* \"#utility.yul\":27740:27749   */\n      dup4\n        /* \"#utility.yul\":27736:27754   */\n      add\n        /* \"#utility.yul\":27729:27777   */\n      mstore\n        /* \"#utility.yul\":27794:27870   */\n      tag_781\n        /* \"#utility.yul\":27865:27869   */\n      dup2\n        /* \"#utility.yul\":27856:27862   */\n      dup5\n        /* \"#utility.yul\":27794:27870   */\n      tag_435\n      jump\t// in\n    tag_781:\n        /* \"#utility.yul\":27786:27870   */\n      swap1\n      pop\n        /* \"#utility.yul\":27193:27877   */\n      swap6\n      swap5\n      pop\n      pop\n      pop\n      pop\n      pop\n      jump\t// out\n        /* \"#utility.yul\":27883:27999   */\n    tag_436:\n        /* \"#utility.yul\":27953:27974   */\n      tag_783\n        /* \"#utility.yul\":27968:27973   */\n      dup2\n        /* \"#utility.yul\":27953:27974   */\n      tag_418\n      jump\t// in\n    tag_783:\n        /* \"#utility.yul\":27946:27951   */\n      dup2\n        /* \"#utility.yul\":27943:27975   */\n      eq\n        /* \"#utility.yul\":27933:27993   */\n      tag_784\n      jumpi\n        /* \"#utility.yul\":27989:27990   */\n      0x00\n        /* \"#utility.yul\":27986:27987   */\n      dup1\n        /* \"#utility.yul\":27979:27991   */\n      revert\n        /* \"#utility.yul\":27933:27993   */\n    tag_784:\n        /* \"#utility.yul\":27883:27999   */\n      pop\n      jump\t// out\n        /* \"#utility.yul\":28005:28142   */\n    tag_437:\n        /* \"#utility.yul\":28059:28064   */\n      0x00\n        /* \"#utility.yul\":28090:28096   */\n      dup2\n        /* \"#utility.yul\":28084:28097   */\n      mload\n        /* \"#utility.yul\":28075:28097   */\n      swap1\n      pop\n        /* \"#utility.yul\":28106:28136   */\n      tag_786\n        /* \"#utility.yul\":28130:28135   */\n      dup2\n        /* \"#utility.yul\":28106:28136   */\n      tag_436\n      jump\t// in\n    tag_786:\n        /* \"#utility.yul\":28005:28142   */\n      swap3\n      swap2\n      pop\n      pop\n      jump\t// out\n        /* \"#utility.yul\":28148:28493   */\n    tag_181:\n        /* \"#utility.yul\":28215:28221   */\n      0x00\n        /* \"#utility.yul\":28264:28266   */\n      0x20\n        /* \"#utility.yul\":28252:28261   */\n      dup3\n        /* \"#utility.yul\":28243:28250   */\n      dup5\n        /* \"#utility.yul\":28239:28262   */\n      sub\n        /* \"#utility.yul\":28235:28267   */\n      slt\n        /* \"#utility.yul\":28232:28351   */\n      iszero\n      tag_788\n      jumpi\n        /* \"#utility.yul\":28270:28349   */\n      tag_789\n      tag_377\n      jump\t// in\n    tag_789:\n        /* \"#utility.yul\":28232:28351   */\n    tag_788:\n        /* \"#utility.yul\":28390:28391   */\n      0x00\n        /* \"#utility.yul\":28415:28476   */\n      tag_790\n        /* \"#utility.yul\":28468:28475   */\n      dup5\n        /* \"#utility.yul\":28459:28465   */\n      dup3\n        /* \"#utility.yul\":28448:28457   */\n      dup6\n        /* \"#utility.yul\":28444:28466   */\n      add\n        /* \"#utility.yul\":28415:28476   */\n      tag_437\n      jump\t// in\n    tag_790:\n        /* \"#utility.yul\":28405:28476   */\n      swap2\n      pop\n        /* \"#utility.yul\":28361:28486   */\n      pop\n        /* \"#utility.yul\":28148:28493   */\n      swap3\n      swap2\n      pop\n      pop\n      jump\t// out\n        /* \"#utility.yul\":28499:28675   */\n    tag_438:\n        /* \"#utility.yul\":28639:28667   */\n      0x696e76616c6964206c6963656e736565207369676e6174757265000000000000\n        /* \"#utility.yul\":28635:28636   */\n      0x00\n        /* \"#utility.yul\":28627:28633   */\n      dup3\n        /* \"#utility.yul\":28623:28637   */\n      add\n        /* \"#utility.yul\":28616:28668   */\n      mstore\n        /* \"#utility.yul\":28499:28675   */\n      pop\n      jump\t// out\n        /* \"#utility.yul\":28681:29047   */\n    tag_439:\n        /* \"#utility.yul\":28823:28826   */\n      0x00\n        /* \"#utility.yul\":28844:28911   */\n      tag_793\n        /* \"#utility.yul\":28908:28910   */\n      0x1a\n        /* \"#utility.yul\":28903:28906   */\n      dup4\n        /* \"#utility.yul\":28844:28911   */\n      tag_394\n      jump\t// in\n    tag_793:\n        /* \"#utility.yul\":28837:28911   */\n      swap2\n      pop\n        /* \"#utility.yul\":28920:29013   */\n      tag_794\n        /* \"#utility.yul\":29009:29012   */\n      dup3\n        /* \"#utility.yul\":28920:29013   */\n      tag_438\n      jump\t// in\n    tag_794:\n        /* \"#utility.yul\":29038:29040   */\n      0x20\n        /* \"#utility.yul\":29033:29036   */\n      dup3\n        /* \"#utility.yul\":29029:29041   */\n      add\n        /* \"#utility.yul\":29022:29041   */\n      swap1\n      pop\n        /* \"#utility.yul\":28681:29047   */\n      swap2\n      swap1\n      pop\n      jump\t// out\n        /* \"#utility.yul\":29053:29472   */\n    tag_184:\n        /* \"#utility.yul\":29219:29223   */\n      0x00\n        /* \"#utility.yul\":29257:29259   */\n      0x20\n        /* \"#utility.yul\":29246:29255   */\n      dup3\n        /* \"#utility.yul\":29242:29260   */\n      add\n        /* \"#utility.yul\":29234:29260   */\n      swap1\n      pop\n        /* \"#utility.yul\":29306:29315   */\n      dup2\n        /* \"#utility.yul\":29300:29304   */\n      dup2\n        /* \"#utility.yul\":29296:29316   */\n      sub\n        /* \"#utility.yul\":29292:29293   */\n      0x00\n        /* \"#utility.yul\":29281:29290   */\n      dup4\n        /* \"#utility.yul\":29277:29294   */\n      add\n        /* \"#utility.yul\":29270:29317   */\n      mstore\n        /* \"#utility.yul\":29334:29465   */\n      tag_796\n        /* \"#utility.yul\":29460:29464   */\n      dup2\n        /* \"#utility.yul\":29334:29465   */\n      tag_439\n      jump\t// in\n    tag_796:\n        /* \"#utility.yul\":29326:29465   */\n      swap1\n      pop\n        /* \"#utility.yul\":29053:29472   */\n      swap2\n      swap1\n      pop\n      jump\t// out\n        /* \"#utility.yul\":29478:29637   */\n    tag_440:\n        /* \"#utility.yul\":29543:29548   */\n      0x00\n        /* \"#utility.yul\":29574:29580   */\n      dup2\n        /* \"#utility.yul\":29568:29581   */\n      mload\n        /* \"#utility.yul\":29559:29581   */\n      swap1\n      pop\n        /* \"#utility.yul\":29590:29631   */\n      tag_798\n        /* \"#utility.yul\":29625:29630   */\n      dup2\n        /* \"#utility.yul\":29590:29631   */\n      tag_420\n      jump\t// in\n    tag_798:\n        /* \"#utility.yul\":29478:29637   */\n      swap3\n      swap2\n      pop\n      pop\n      jump\t// out\n        /* \"#utility.yul\":29643:30010   */\n    tag_193:\n        /* \"#utility.yul\":29721:29727   */\n      0x00\n        /* \"#utility.yul\":29770:29772   */\n      0x20\n        /* \"#utility.yul\":29758:29767   */\n      dup3\n        /* \"#utility.yul\":29749:29756   */\n      dup5\n        /* \"#utility.yul\":29745:29768   */\n      sub\n        /* \"#utility.yul\":29741:29773   */\n      slt\n        /* \"#utility.yul\":29738:29857   */\n      iszero\n      tag_800\n      jumpi\n        /* \"#utility.yul\":29776:29855   */\n      tag_801\n      tag_377\n      jump\t// in\n    tag_801:\n        /* \"#utility.yul\":29738:29857   */\n    tag_800:\n        /* \"#utility.yul\":29896:29897   */\n      0x00\n        /* \"#utility.yul\":29921:29993   */\n      tag_802\n        /* \"#utility.yul\":29985:29992   */\n      dup5\n        /* \"#utility.yul\":29976:29982   */\n      dup3\n        /* \"#utility.yul\":29965:29974   */\n      dup6\n        /* \"#utility.yul\":29961:29983   */\n      add\n        /* \"#utility.yul\":29921:29993   */\n      tag_440\n      jump\t// in\n    tag_802:\n        /* \"#utility.yul\":29911:29993   */\n      swap2\n      pop\n        /* \"#utility.yul\":29867:30003   */\n      pop\n        /* \"#utility.yul\":29643:30010   */\n      swap3\n      swap2\n      pop\n      pop\n      jump\t// out\n        /* \"#utility.yul\":30016:30163   */\n    tag_441:\n        /* \"#utility.yul\":30117:30128   */\n      0x00\n        /* \"#utility.yul\":30154:30157   */\n      dup2\n        /* \"#utility.yul\":30139:30157   */\n      swap1\n      pop\n        /* \"#utility.yul\":30016:30163   */\n      swap3\n      swap2\n      pop\n      pop\n      jump\t// out\n        /* \"#utility.yul\":30169:30283   */\n    tag_442:\n      pop\n      jump\t// out\n        /* \"#utility.yul\":30289:30687   */\n    tag_443:\n        /* \"#utility.yul\":30448:30451   */\n      0x00\n        /* \"#utility.yul\":30469:30552   */\n      tag_806\n        /* \"#utility.yul\":30550:30551   */\n      0x00\n        /* \"#utility.yul\":30545:30548   */\n      dup4\n        /* \"#utility.yul\":30469:30552   */\n      tag_441\n      jump\t// in\n    tag_806:\n        /* \"#utility.yul\":30462:30552   */\n      swap2\n      pop\n        /* \"#utility.yul\":30561:30654   */\n      tag_807\n        /* \"#utility.yul\":30650:30653   */\n      dup3\n        /* \"#utility.yul\":30561:30654   */\n      tag_442\n      jump\t// in\n    tag_807:\n        /* \"#utility.yul\":30679:30680   */\n      0x00\n        /* \"#utility.yul\":30674:30677   */\n      dup3\n        /* \"#utility.yul\":30670:30681   */\n      add\n        /* \"#utility.yul\":30663:30681   */\n      swap1\n      pop\n        /* \"#utility.yul\":30289:30687   */\n      swap2\n      swap1\n      pop\n      jump\t// out\n        /* \"#utility.yul\":30693:31072   */\n    tag_195:\n        /* \"#utility.yul\":30877:30880   */\n      0x00\n        /* \"#utility.yul\":30899:31046   */\n      tag_809\n        /* \"#utility.yul\":31042:31045   */\n      dup3\n        /* \"#utility.yul\":30899:31046   */\n      tag_443\n      jump\t// in\n    tag_809:\n        /* \"#utility.yul\":30892:31046   */\n      swap2\n      pop\n        /* \"#utility.yul\":31063:31066   */\n      dup2\n        /* \"#utility.yul\":31056:31066   */\n      swap1\n      pop\n        /* \"#utility.yul\":30693:31072   */\n      swap2\n      swap1\n      pop\n      jump\t// out\n        /* \"#utility.yul\":31078:31248   */\n    tag_444:\n        /* \"#utility.yul\":31218:31240   */\n      0x6661696c656420746f2073656e64206574686572000000000000000000000000\n        /* \"#utility.yul\":31214:31215   */\n      0x00\n        /* \"#utility.yul\":31206:31212   */\n      dup3\n        /* \"#utility.yul\":31202:31216   */\n      add\n        /* \"#utility.yul\":31195:31241   */\n      mstore\n        /* \"#utility.yul\":31078:31248   */\n      pop\n      jump\t// out\n        /* \"#utility.yul\":31254:31620   */\n    tag_445:\n        /* \"#utility.yul\":31396:31399   */\n      0x00\n        /* \"#utility.yul\":31417:31484   */\n      tag_812\n        /* \"#utility.yul\":31481:31483   */\n      0x14\n        /* \"#utility.yul\":31476:31479   */\n      dup4\n        /* \"#utility.yul\":31417:31484   */\n      tag_394\n      jump\t// in\n    tag_812:\n        /* \"#utility.yul\":31410:31484   */\n      swap2\n      pop\n        /* \"#utility.yul\":31493:31586   */\n      tag_813\n        /* \"#utility.yul\":31582:31585   */\n      dup3\n        /* \"#utility.yul\":31493:31586   */\n      tag_444\n      jump\t// in\n    tag_813:\n        /* \"#utility.yul\":31611:31613   */\n      0x20\n        /* \"#utility.yul\":31606:31609   */\n      dup3\n        /* \"#utility.yul\":31602:31614   */\n      add\n        /* \"#utility.yul\":31595:31614   */\n      swap1\n      pop\n        /* \"#utility.yul\":31254:31620   */\n      swap2\n      swap1\n      pop\n      jump\t// out\n        /* \"#utility.yul\":31626:32045   */\n    tag_201:\n        /* \"#utility.yul\":31792:31796   */\n      0x00\n        /* \"#utility.yul\":31830:31832   */\n      0x20\n        /* \"#utility.yul\":31819:31828   */\n      dup3\n        /* \"#utility.yul\":31815:31833   */\n      add\n        /* \"#utility.yul\":31807:31833   */\n      swap1\n      pop\n        /* \"#utility.yul\":31879:31888   */\n      dup2\n        /* \"#utility.yul\":31873:31877   */\n      dup2\n        /* \"#utility.yul\":31869:31889   */\n      sub\n        /* \"#utility.yul\":31865:31866   */\n      0x00\n        /* \"#utility.yul\":31854:31863   */\n      dup4\n        /* \"#utility.yul\":31850:31867   */\n      add\n        /* \"#utility.yul\":31843:31890   */\n      mstore\n        /* \"#utility.yul\":31907:32038   */\n      tag_815\n        /* \"#utility.yul\":32033:32037   */\n      dup2\n        /* \"#utility.yul\":31907:32038   */\n      tag_445\n      jump\t// in\n    tag_815:\n        /* \"#utility.yul\":31899:32038   */\n      swap1\n      pop\n        /* \"#utility.yul\":31626:32045   */\n      swap2\n      swap1\n      pop\n      jump\t// out\n        /* \"#utility.yul\":32051:32231   */\n    tag_446:\n        /* \"#utility.yul\":32099:32176   */\n      0x4e487b7100000000000000000000000000000000000000000000000000000000\n        /* \"#utility.yul\":32096:32097   */\n      0x00\n        /* \"#utility.yul\":32089:32177   */\n      mstore\n        /* \"#utility.yul\":32196:32200   */\n      0x22\n        /* \"#utility.yul\":32193:32194   */\n      0x04\n        /* \"#utility.yul\":32186:32201   */\n      mstore\n        /* \"#utility.yul\":32220:32224   */\n      0x24\n        /* \"#utility.yul\":32217:32218   */\n      0x00\n        /* \"#utility.yul\":32210:32225   */\n      revert\n        /* \"#utility.yul\":32237:32557   */\n    tag_219:\n        /* \"#utility.yul\":32281:32287   */\n      0x00\n        /* \"#utility.yul\":32318:32319   */\n      0x02\n        /* \"#utility.yul\":32312:32316   */\n      dup3\n        /* \"#utility.yul\":32308:32320   */\n      div\n        /* \"#utility.yul\":32298:32320   */\n      swap1\n      pop\n        /* \"#utility.yul\":32365:32366   */\n      0x01\n        /* \"#utility.yul\":32359:32363   */\n      dup3\n        /* \"#utility.yul\":32355:32367   */\n      and\n        /* \"#utility.yul\":32386:32404   */\n      dup1\n        /* \"#utility.yul\":32376:32457   */\n      tag_818\n      jumpi\n        /* \"#utility.yul\":32442:32446   */\n      0x7f\n        /* \"#utility.yul\":32434:32440   */\n      dup3\n        /* \"#utility.yul\":32430:32447   */\n      and\n        /* \"#utility.yul\":32420:32447   */\n      swap2\n      pop\n        /* \"#utility.yul\":32376:32457   */\n    tag_818:\n        /* \"#utility.yul\":32504:32506   */\n      0x20\n        /* \"#utility.yul\":32496:32502   */\n      dup3\n        /* \"#utility.yul\":32493:32507   */\n      lt\n        /* \"#utility.yul\":32473:32491   */\n      dup2\n        /* \"#utility.yul\":32470:32508   */\n      sub\n        /* \"#utility.yul\":32467:32551   */\n      tag_819\n      jumpi\n        /* \"#utility.yul\":32523:32541   */\n      tag_820\n      tag_446\n      jump\t// in\n    tag_820:\n        /* \"#utility.yul\":32467:32551   */\n    tag_819:\n        /* \"#utility.yul\":32288:32557   */\n      pop\n        /* \"#utility.yul\":32237:32557   */\n      swap2\n      swap1\n      pop\n      jump\t// out\n        /* \"#utility.yul\":32563:32711   */\n    tag_447:\n        /* \"#utility.yul\":32665:32676   */\n      0x00\n        /* \"#utility.yul\":32702:32705   */\n      dup2\n        /* \"#utility.yul\":32687:32705   */\n      swap1\n      pop\n        /* \"#utility.yul\":32563:32711   */\n      swap3\n      swap2\n      pop\n      pop\n      jump\t// out\n        /* \"#utility.yul\":32717:32858   */\n    tag_448:\n        /* \"#utility.yul\":32766:32770   */\n      0x00\n        /* \"#utility.yul\":32789:32792   */\n      dup2\n        /* \"#utility.yul\":32781:32792   */\n      swap1\n      pop\n        /* \"#utility.yul\":32812:32815   */\n      dup2\n        /* \"#utility.yul\":32809:32810   */\n      0x00\n        /* \"#utility.yul\":32802:32816   */\n      mstore\n        /* \"#utility.yul\":32846:32850   */\n      0x20\n        /* \"#utility.yul\":32843:32844   */\n      0x00\n        /* \"#utility.yul\":32833:32851   */\n      keccak256\n        /* \"#utility.yul\":32825:32851   */\n      swap1\n      pop\n        /* \"#utility.yul\":32717:32858   */\n      swap2\n      swap1\n      pop\n      jump\t// out\n        /* \"#utility.yul\":32888:33762   */\n    tag_449:\n        /* \"#utility.yul\":32991:32994   */\n      0x00\n        /* \"#utility.yul\":33028:33033   */\n      dup2\n        /* \"#utility.yul\":33022:33034   */\n      sload\n        /* \"#utility.yul\":33057:33093   */\n      tag_824\n        /* \"#utility.yul\":33083:33092   */\n      dup2\n        /* \"#utility.yul\":33057:33093   */\n      tag_219\n      jump\t// in\n    tag_824:\n        /* \"#utility.yul\":33109:33198   */\n      tag_825\n        /* \"#utility.yul\":33191:33197   */\n      dup2\n        /* \"#utility.yul\":33186:33189   */\n      dup7\n        /* \"#utility.yul\":33109:33198   */\n      tag_447\n      jump\t// in\n    tag_825:\n        /* \"#utility.yul\":33102:33198   */\n      swap5\n      pop\n        /* \"#utility.yul\":33229:33230   */\n      0x01\n        /* \"#utility.yul\":33218:33227   */\n      dup3\n        /* \"#utility.yul\":33214:33231   */\n      and\n        /* \"#utility.yul\":33245:33246   */\n      0x00\n        /* \"#utility.yul\":33240:33406   */\n      dup2\n      eq\n      tag_827\n      jumpi\n        /* \"#utility.yul\":33420:33421   */\n      0x01\n        /* \"#utility.yul\":33415:33756   */\n      dup2\n      eq\n      tag_828\n      jumpi\n        /* \"#utility.yul\":33207:33756   */\n      jump(tag_826)\n        /* \"#utility.yul\":33240:33406   */\n    tag_827:\n        /* \"#utility.yul\":33324:33328   */\n      0xff\n        /* \"#utility.yul\":33320:33329   */\n      not\n        /* \"#utility.yul\":33309:33318   */\n      dup4\n        /* \"#utility.yul\":33305:33330   */\n      and\n        /* \"#utility.yul\":33300:33303   */\n      dup7\n        /* \"#utility.yul\":33293:33331   */\n      mstore\n        /* \"#utility.yul\":33386:33392   */\n      dup2\n        /* \"#utility.yul\":33379:33393   */\n      iszero\n        /* \"#utility.yul\":33372:33394   */\n      iszero\n        /* \"#utility.yul\":33364:33370   */\n      dup3\n        /* \"#utility.yul\":33360:33395   */\n      mul\n        /* \"#utility.yul\":33355:33358   */\n      dup7\n        /* \"#utility.yul\":33351:33396   */\n      add\n        /* \"#utility.yul\":33344:33396   */\n      swap4\n      pop\n        /* \"#utility.yul\":33240:33406   */\n      jump(tag_826)\n        /* \"#utility.yul\":33415:33756   */\n    tag_828:\n        /* \"#utility.yul\":33482:33520   */\n      tag_829\n        /* \"#utility.yul\":33514:33519   */\n      dup6\n        /* \"#utility.yul\":33482:33520   */\n      tag_448\n      jump\t// in\n    tag_829:\n        /* \"#utility.yul\":33542:33543   */\n      0x00\n        /* \"#utility.yul\":33556:33710   */\n    tag_830:\n        /* \"#utility.yul\":33570:33576   */\n      dup4\n        /* \"#utility.yul\":33567:33568   */\n      dup2\n        /* \"#utility.yul\":33564:33577   */\n      lt\n        /* \"#utility.yul\":33556:33710   */\n      iszero\n      tag_832\n      jumpi\n        /* \"#utility.yul\":33644:33651   */\n      dup2\n        /* \"#utility.yul\":33638:33652   */\n      sload\n        /* \"#utility.yul\":33634:33635   */\n      dup2\n        /* \"#utility.yul\":33629:33632   */\n      dup10\n        /* \"#utility.yul\":33625:33636   */\n      add\n        /* \"#utility.yul\":33618:33653   */\n      mstore\n        /* \"#utility.yul\":33694:33695   */\n      0x01\n        /* \"#utility.yul\":33685:33692   */\n      dup3\n        /* \"#utility.yul\":33681:33696   */\n      add\n        /* \"#utility.yul\":33670:33696   */\n      swap2\n      pop\n        /* \"#utility.yul\":33592:33596   */\n      0x20\n        /* \"#utility.yul\":33589:33590   */\n      dup2\n        /* \"#utility.yul\":33585:33597   */\n      add\n        /* \"#utility.yul\":33580:33597   */\n      swap1\n      pop\n        /* \"#utility.yul\":33556:33710   */\n      jump(tag_830)\n    tag_832:\n        /* \"#utility.yul\":33739:33745   */\n      dup4\n        /* \"#utility.yul\":33734:33737   */\n      dup9\n        /* \"#utility.yul\":33730:33746   */\n      add\n        /* \"#utility.yul\":33723:33746   */\n      swap6\n      pop\n        /* \"#utility.yul\":33422:33756   */\n      pop\n      pop\n        /* \"#utility.yul\":33207:33756   */\n    tag_826:\n      pop\n        /* \"#utility.yul\":32995:33762   */\n      pop\n      pop\n        /* \"#utility.yul\":32888:33762   */\n      swap3\n      swap2\n      pop\n      pop\n      jump\t// out\n        /* \"#utility.yul\":33768:34037   */\n    tag_207:\n        /* \"#utility.yul\":33897:33900   */\n      0x00\n        /* \"#utility.yul\":33919:34011   */\n      tag_834\n        /* \"#utility.yul\":34007:34010   */\n      dup3\n        /* \"#utility.yul\":33998:34004   */\n      dup5\n        /* \"#utility.yul\":33919:34011   */\n      tag_449\n      jump\t// in\n    tag_834:\n        /* \"#utility.yul\":33912:34011   */\n      swap2\n      pop\n        /* \"#utility.yul\":34028:34031   */\n      dup2\n        /* \"#utility.yul\":34021:34031   */\n      swap1\n      pop\n        /* \"#utility.yul\":33768:34037   */\n      swap3\n      swap2\n      pop\n      pop\n      jump\t// out\n        /* \"#utility.yul\":34043:34433   */\n    tag_450:\n        /* \"#utility.yul\":34149:34152   */\n      0x00\n        /* \"#utility.yul\":34177:34216   */\n      tag_836\n        /* \"#utility.yul\":34210:34215   */\n      dup3\n        /* \"#utility.yul\":34177:34216   */\n      tag_393\n      jump\t// in\n    tag_836:\n        /* \"#utility.yul\":34232:34321   */\n      tag_837\n        /* \"#utility.yul\":34314:34320   */\n      dup2\n        /* \"#utility.yul\":34309:34312   */\n      dup6\n        /* \"#utility.yul\":34232:34321   */\n      tag_447\n      jump\t// in\n    tag_837:\n        /* \"#utility.yul\":34225:34321   */\n      swap4\n      pop\n        /* \"#utility.yul\":34330:34395   */\n      tag_838\n        /* \"#utility.yul\":34388:34394   */\n      dup2\n        /* \"#utility.yul\":34383:34386   */\n      dup6\n        /* \"#utility.yul\":34376:34380   */\n      0x20\n        /* \"#utility.yul\":34369:34374   */\n      dup7\n        /* \"#utility.yul\":34365:34381   */\n      add\n        /* \"#utility.yul\":34330:34395   */\n      tag_395\n      jump\t// in\n    tag_838:\n        /* \"#utility.yul\":34420:34426   */\n      dup1\n        /* \"#utility.yul\":34415:34418   */\n      dup5\n        /* \"#utility.yul\":34411:34427   */\n      add\n        /* \"#utility.yul\":34404:34427   */\n      swap2\n      pop\n        /* \"#utility.yul\":34153:34433   */\n      pop\n        /* \"#utility.yul\":34043:34433   */\n      swap3\n      swap2\n      pop\n      pop\n      jump\t// out\n        /* \"#utility.yul\":34439:34518   */\n    tag_451:\n        /* \"#utility.yul\":34478:34485   */\n      0x00\n        /* \"#utility.yul\":34507:34512   */\n      dup2\n        /* \"#utility.yul\":34496:34512   */\n      swap1\n      pop\n        /* \"#utility.yul\":34439:34518   */\n      swap2\n      swap1\n      pop\n      jump\t// out\n        /* \"#utility.yul\":34524:34681   */\n    tag_452:\n        /* \"#utility.yul\":34629:34674   */\n      tag_841\n        /* \"#utility.yul\":34649:34673   */\n      tag_842\n        /* \"#utility.yul\":34667:34672   */\n      dup3\n        /* \"#utility.yul\":34649:34673   */\n      tag_379\n      jump\t// in\n    tag_842:\n        /* \"#utility.yul\":34629:34674   */\n      tag_451\n      jump\t// in\n    tag_841:\n        /* \"#utility.yul\":34624:34627   */\n      dup3\n        /* \"#utility.yul\":34617:34675   */\n      mstore\n        /* \"#utility.yul\":34524:34681   */\n      pop\n      pop\n      jump\t// out\n        /* \"#utility.yul\":34687:35263   */\n    tag_210:\n        /* \"#utility.yul\":34895:34898   */\n      0x00\n        /* \"#utility.yul\":34917:35012   */\n      tag_844\n        /* \"#utility.yul\":35008:35011   */\n      dup3\n        /* \"#utility.yul\":34999:35005   */\n      dup7\n        /* \"#utility.yul\":34917:35012   */\n      tag_450\n      jump\t// in\n    tag_844:\n        /* \"#utility.yul\":34910:35012   */\n      swap2\n      pop\n        /* \"#utility.yul\":35029:35124   */\n      tag_845\n        /* \"#utility.yul\":35120:35123   */\n      dup3\n        /* \"#utility.yul\":35111:35117   */\n      dup6\n        /* \"#utility.yul\":35029:35124   */\n      tag_450\n      jump\t// in\n    tag_845:\n        /* \"#utility.yul\":35022:35124   */\n      swap2\n      pop\n        /* \"#utility.yul\":35134:35209   */\n      tag_846\n        /* \"#utility.yul\":35205:35208   */\n      dup3\n        /* \"#utility.yul\":35196:35202   */\n      dup5\n        /* \"#utility.yul\":35134:35209   */\n      tag_452\n      jump\t// in\n    tag_846:\n        /* \"#utility.yul\":35234:35236   */\n      0x20\n        /* \"#utility.yul\":35229:35232   */\n      dup3\n        /* \"#utility.yul\":35225:35237   */\n      add\n        /* \"#utility.yul\":35218:35237   */\n      swap2\n      pop\n        /* \"#utility.yul\":35254:35257   */\n      dup2\n        /* \"#utility.yul\":35247:35257   */\n      swap1\n      pop\n        /* \"#utility.yul\":34687:35263   */\n      swap5\n      swap4\n      pop\n      pop\n      pop\n      pop\n      jump\t// out\n        /* \"#utility.yul\":35269:35544   */\n    tag_213:\n        /* \"#utility.yul\":35401:35404   */\n      0x00\n        /* \"#utility.yul\":35423:35518   */\n      tag_848\n        /* \"#utility.yul\":35514:35517   */\n      dup3\n        /* \"#utility.yul\":35505:35511   */\n      dup5\n        /* \"#utility.yul\":35423:35518   */\n      tag_450\n      jump\t// in\n    tag_848:\n        /* \"#utility.yul\":35416:35518   */\n      swap2\n      pop\n        /* \"#utility.yul\":35535:35538   */\n      dup2\n        /* \"#utility.yul\":35528:35538   */\n      swap1\n      pop\n        /* \"#utility.yul\":35269:35544   */\n      swap3\n      swap2\n      pop\n      pop\n      jump\t// out\n        /* \"#utility.yul\":35550:35719   */\n    tag_453:\n        /* \"#utility.yul\":35690:35711   */\n      0x766964656f20646f65736e277420657869737400000000000000000000000000\n        /* \"#utility.yul\":35686:35687   */\n      0x00\n        /* \"#utility.yul\":35678:35684   */\n      dup3\n        /* \"#utility.yul\":35674:35688   */\n      add\n        /* \"#utility.yul\":35667:35712   */\n      mstore\n        /* \"#utility.yul\":35550:35719   */\n      pop\n      jump\t// out\n        /* \"#utility.yul\":35725:36091   */\n    tag_454:\n        /* \"#utility.yul\":35867:35870   */\n      0x00\n        /* \"#utility.yul\":35888:35955   */\n      tag_851\n        /* \"#utility.yul\":35952:35954   */\n      0x13\n        /* \"#utility.yul\":35947:35950   */\n      dup4\n        /* \"#utility.yul\":35888:35955   */\n      tag_394\n      jump\t// in\n    tag_851:\n        /* \"#utility.yul\":35881:35955   */\n      swap2\n      pop\n        /* \"#utility.yul\":35964:36057   */\n      tag_852\n        /* \"#utility.yul\":36053:36056   */\n      dup3\n        /* \"#utility.yul\":35964:36057   */\n      tag_453\n      jump\t// in\n    tag_852:\n        /* \"#utility.yul\":36082:36084   */\n      0x20\n        /* \"#utility.yul\":36077:36080   */\n      dup3\n        /* \"#utility.yul\":36073:36085   */\n      add\n        /* \"#utility.yul\":36066:36085   */\n      swap1\n      pop\n        /* \"#utility.yul\":35725:36091   */\n      swap2\n      swap1\n      pop\n      jump\t// out\n        /* \"#utility.yul\":36097:36516   */\n    tag_228:\n        /* \"#utility.yul\":36263:36267   */\n      0x00\n        /* \"#utility.yul\":36301:36303   */\n      0x20\n        /* \"#utility.yul\":36290:36299   */\n      dup3\n        /* \"#utility.yul\":36286:36304   */\n      add\n        /* \"#utility.yul\":36278:36304   */\n      swap1\n      pop\n        /* \"#utility.yul\":36350:36359   */\n      dup2\n        /* \"#utility.yul\":36344:36348   */\n      dup2\n        /* \"#utility.yul\":36340:36360   */\n      sub\n        /* \"#utility.yul\":36336:36337   */\n      0x00\n        /* \"#utility.yul\":36325:36334   */\n      dup4\n        /* \"#utility.yul\":36321:36338   */\n      add\n        /* \"#utility.yul\":36314:36361   */\n      mstore\n        /* \"#utility.yul\":36378:36509   */\n      tag_854\n        /* \"#utility.yul\":36504:36508   */\n      dup2\n        /* \"#utility.yul\":36378:36509   */\n      tag_454\n      jump\t// in\n    tag_854:\n        /* \"#utility.yul\":36370:36509   */\n      swap1\n      pop\n        /* \"#utility.yul\":36097:36516   */\n      swap2\n      swap1\n      pop\n      jump\t// out\n        /* \"#utility.yul\":36522:36702   */\n    tag_243:\n        /* \"#utility.yul\":36570:36647   */\n      0x4e487b7100000000000000000000000000000000000000000000000000000000\n        /* \"#utility.yul\":36567:36568   */\n      0x00\n        /* \"#utility.yul\":36560:36648   */\n      mstore\n        /* \"#utility.yul\":36667:36671   */\n      0x32\n        /* \"#utility.yul\":36664:36665   */\n      0x04\n        /* \"#utility.yul\":36657:36672   */\n      mstore\n        /* \"#utility.yul\":36691:36695   */\n      0x24\n        /* \"#utility.yul\":36688:36689   */\n      0x00\n        /* \"#utility.yul\":36681:36696   */\n      revert\n        /* \"#utility.yul\":36708:36875   */\n    tag_455:\n        /* \"#utility.yul\":36848:36867   */\n      0x6f776e657220616363657373206f6e6c79000000000000000000000000000000\n        /* \"#utility.yul\":36844:36845   */\n      0x00\n        /* \"#utility.yul\":36836:36842   */\n      dup3\n        /* \"#utility.yul\":36832:36846   */\n      add\n        /* \"#utility.yul\":36825:36868   */\n      mstore\n        /* \"#utility.yul\":36708:36875   */\n      pop\n      jump\t// out\n        /* \"#utility.yul\":36881:37247   */\n    tag_456:\n        /* \"#utility.yul\":37023:37026   */\n      0x00\n        /* \"#utility.yul\":37044:37111   */\n      tag_858\n        /* \"#utility.yul\":37108:37110   */\n      0x11\n        /* \"#utility.yul\":37103:37106   */\n      dup4\n        /* \"#utility.yul\":37044:37111   */\n      tag_394\n      jump\t// in\n    tag_858:\n        /* \"#utility.yul\":37037:37111   */\n      swap2\n      pop\n        /* \"#utility.yul\":37120:37213   */\n      tag_859\n        /* \"#utility.yul\":37209:37212   */\n      dup3\n        /* \"#utility.yul\":37120:37213   */\n      tag_455\n      jump\t// in\n    tag_859:\n        /* \"#utility.yul\":37238:37240   */\n      0x20\n        /* \"#utility.yul\":37233:37236   */\n      dup3\n        /* \"#utility.yul\":37229:37241   */\n      add\n        /* \"#utility.yul\":37222:37241   */\n      swap1\n      pop\n        /* \"#utility.yul\":36881:37247   */\n      swap2\n      swap1\n      pop\n      jump\t// out\n        /* \"#utility.yul\":37253:37672   */\n    tag_247:\n        /* \"#utility.yul\":37419:37423   */\n      0x00\n        /* \"#utility.yul\":37457:37459   */\n      0x20\n        /* \"#utility.yul\":37446:37455   */\n      dup3\n        /* \"#utility.yul\":37442:37460   */\n      add\n        /* \"#utility.yul\":37434:37460   */\n      swap1\n      pop\n        /* \"#utility.yul\":37506:37515   */\n      dup2\n        /* \"#utility.yul\":37500:37504   */\n      dup2\n        /* \"#utility.yul\":37496:37516   */\n      sub\n        /* \"#utility.yul\":37492:37493   */\n      0x00\n        /* \"#utility.yul\":37481:37490   */\n      dup4\n        /* \"#utility.yul\":37477:37494   */\n      add\n        /* \"#utility.yul\":37470:37517   */\n      mstore\n        /* \"#utility.yul\":37534:37665   */\n      tag_861\n        /* \"#utility.yul\":37660:37664   */\n      dup2\n        /* \"#utility.yul\":37534:37665   */\n      tag_456\n      jump\t// in\n    tag_861:\n        /* \"#utility.yul\":37526:37665   */\n      swap1\n      pop\n        /* \"#utility.yul\":37253:37672   */\n      swap2\n      swap1\n      pop\n      jump\t// out\n        /* \"#utility.yul\":37678:37844   */\n    tag_457:\n        /* \"#utility.yul\":37818:37836   */\n      0x696e76616c6964206c6963656e736f7200000000000000000000000000000000\n        /* \"#utility.yul\":37814:37815   */\n      0x00\n        /* \"#utility.yul\":37806:37812   */\n      dup3\n        /* \"#utility.yul\":37802:37816   */\n      add\n        /* \"#utility.yul\":37795:37837   */\n      mstore\n        /* \"#utility.yul\":37678:37844   */\n      pop\n      jump\t// out\n        /* \"#utility.yul\":37850:38216   */\n    tag_458:\n        /* \"#utility.yul\":37992:37995   */\n      0x00\n        /* \"#utility.yul\":38013:38080   */\n      tag_864\n        /* \"#utility.yul\":38077:38079   */\n      0x10\n        /* \"#utility.yul\":38072:38075   */\n      dup4\n        /* \"#utility.yul\":38013:38080   */\n      tag_394\n      jump\t// in\n    tag_864:\n        /* \"#utility.yul\":38006:38080   */\n      swap2\n      pop\n        /* \"#utility.yul\":38089:38182   */\n      tag_865\n        /* \"#utility.yul\":38178:38181   */\n      dup3\n        /* \"#utility.yul\":38089:38182   */\n      tag_457\n      jump\t// in\n    tag_865:\n        /* \"#utility.yul\":38207:38209   */\n      0x20\n        /* \"#utility.yul\":38202:38205   */\n      dup3\n        /* \"#utility.yul\":38198:38210   */\n      add\n        /* \"#utility.yul\":38191:38210   */\n      swap1\n      pop\n        /* \"#utility.yul\":37850:38216   */\n      swap2\n      swap1\n      pop\n      jump\t// out\n        /* \"#utility.yul\":38222:38641   */\n    tag_264:\n        /* \"#utility.yul\":38388:38392   */\n      0x00\n        /* \"#utility.yul\":38426:38428   */\n      0x20\n        /* \"#utility.yul\":38415:38424   */\n      dup3\n        /* \"#utility.yul\":38411:38429   */\n      add\n        /* \"#utility.yul\":38403:38429   */\n      swap1\n      pop\n        /* \"#utility.yul\":38475:38484   */\n      dup2\n        /* \"#utility.yul\":38469:38473   */\n      dup2\n        /* \"#utility.yul\":38465:38485   */\n      sub\n        /* \"#utility.yul\":38461:38462   */\n      0x00\n        /* \"#utility.yul\":38450:38459   */\n      dup4\n        /* \"#utility.yul\":38446:38463   */\n      add\n        /* \"#utility.yul\":38439:38486   */\n      mstore\n        /* \"#utility.yul\":38503:38634   */\n      tag_867\n        /* \"#utility.yul\":38629:38633   */\n      dup2\n        /* \"#utility.yul\":38503:38634   */\n      tag_458\n      jump\t// in\n    tag_867:\n        /* \"#utility.yul\":38495:38634   */\n      swap1\n      pop\n        /* \"#utility.yul\":38222:38641   */\n      swap2\n      swap1\n      pop\n      jump\t// out\n        /* \"#utility.yul\":38647:38819   */\n    tag_459:\n        /* \"#utility.yul\":38787:38811   */\n      0x756e617661696c61626c65206c6963656e736520696400000000000000000000\n        /* \"#utility.yul\":38783:38784   */\n      0x00\n        /* \"#utility.yul\":38775:38781   */\n      dup3\n        /* \"#utility.yul\":38771:38785   */\n      add\n        /* \"#utility.yul\":38764:38812   */\n      mstore\n        /* \"#utility.yul\":38647:38819   */\n      pop\n      jump\t// out\n        /* \"#utility.yul\":38825:39191   */\n    tag_460:\n        /* \"#utility.yul\":38967:38970   */\n      0x00\n        /* \"#utility.yul\":38988:39055   */\n      tag_870\n        /* \"#utility.yul\":39052:39054   */\n      0x16\n        /* \"#utility.yul\":39047:39050   */\n      dup4\n        /* \"#utility.yul\":38988:39055   */\n      tag_394\n      jump\t// in\n    tag_870:\n        /* \"#utility.yul\":38981:39055   */\n      swap2\n      pop\n        /* \"#utility.yul\":39064:39157   */\n      tag_871\n        /* \"#utility.yul\":39153:39156   */\n      dup3\n        /* \"#utility.yul\":39064:39157   */\n      tag_459\n      jump\t// in\n    tag_871:\n        /* \"#utility.yul\":39182:39184   */\n      0x20\n        /* \"#utility.yul\":39177:39180   */\n      dup3\n        /* \"#utility.yul\":39173:39185   */\n      add\n        /* \"#utility.yul\":39166:39185   */\n      swap1\n      pop\n        /* \"#utility.yul\":38825:39191   */\n      swap2\n      swap1\n      pop\n      jump\t// out\n        /* \"#utility.yul\":39197:39616   */\n    tag_267:\n        /* \"#utility.yul\":39363:39367   */\n      0x00\n        /* \"#utility.yul\":39401:39403   */\n      0x20\n        /* \"#utility.yul\":39390:39399   */\n      dup3\n        /* \"#utility.yul\":39386:39404   */\n      add\n        /* \"#utility.yul\":39378:39404   */\n      swap1\n      pop\n        /* \"#utility.yul\":39450:39459   */\n      dup2\n        /* \"#utility.yul\":39444:39448   */\n      dup2\n        /* \"#utility.yul\":39440:39460   */\n      sub\n        /* \"#utility.yul\":39436:39437   */\n      0x00\n        /* \"#utility.yul\":39425:39434   */\n      dup4\n        /* \"#utility.yul\":39421:39438   */\n      add\n        /* \"#utility.yul\":39414:39461   */\n      mstore\n        /* \"#utility.yul\":39478:39609   */\n      tag_873\n        /* \"#utility.yul\":39604:39608   */\n      dup2\n        /* \"#utility.yul\":39478:39609   */\n      tag_460\n      jump\t// in\n    tag_873:\n        /* \"#utility.yul\":39470:39609   */\n      swap1\n      pop\n        /* \"#utility.yul\":39197:39616   */\n      swap2\n      swap1\n      pop\n      jump\t// out\n        /* \"#utility.yul\":39622:39814   */\n    tag_461:\n        /* \"#utility.yul\":39749:39807   */\n      tag_875\n        /* \"#utility.yul\":39769:39806   */\n      tag_876\n        /* \"#utility.yul\":39800:39805   */\n      dup3\n        /* \"#utility.yul\":39769:39806   */\n      tag_413\n      jump\t// in\n    tag_876:\n        /* \"#utility.yul\":39749:39807   */\n      tag_451\n      jump\t// in\n    tag_875:\n        /* \"#utility.yul\":39744:39747   */\n      dup3\n        /* \"#utility.yul\":39737:39808   */\n      mstore\n        /* \"#utility.yul\":39622:39814   */\n      pop\n      pop\n      jump\t// out\n        /* \"#utility.yul\":39820:40421   */\n    tag_272:\n        /* \"#utility.yul\":40030:40033   */\n      0x00\n        /* \"#utility.yul\":40045:40142   */\n      tag_878\n        /* \"#utility.yul\":40138:40141   */\n      dup3\n        /* \"#utility.yul\":40129:40135   */\n      dup7\n        /* \"#utility.yul\":40045:40142   */\n      tag_461\n      jump\t// in\n    tag_878:\n        /* \"#utility.yul\":40167:40169   */\n      0x20\n        /* \"#utility.yul\":40162:40165   */\n      dup3\n        /* \"#utility.yul\":40158:40170   */\n      add\n        /* \"#utility.yul\":40151:40170   */\n      swap2\n      pop\n        /* \"#utility.yul\":40187:40282   */\n      tag_879\n        /* \"#utility.yul\":40278:40281   */\n      dup3\n        /* \"#utility.yul\":40269:40275   */\n      dup6\n        /* \"#utility.yul\":40187:40282   */\n      tag_450\n      jump\t// in\n    tag_879:\n        /* \"#utility.yul\":40180:40282   */\n      swap2\n      pop\n        /* \"#utility.yul\":40292:40367   */\n      tag_880\n        /* \"#utility.yul\":40363:40366   */\n      dup3\n        /* \"#utility.yul\":40354:40360   */\n      dup5\n        /* \"#utility.yul\":40292:40367   */\n      tag_452\n      jump\t// in\n    tag_880:\n        /* \"#utility.yul\":40392:40394   */\n      0x20\n        /* \"#utility.yul\":40387:40390   */\n      dup3\n        /* \"#utility.yul\":40383:40395   */\n      add\n        /* \"#utility.yul\":40376:40395   */\n      swap2\n      pop\n        /* \"#utility.yul\":40412:40415   */\n      dup2\n        /* \"#utility.yul\":40405:40415   */\n      swap1\n      pop\n        /* \"#utility.yul\":39820:40421   */\n      swap5\n      swap4\n      pop\n      pop\n      pop\n      pop\n      jump\t// out\n        /* \"#utility.yul\":40427:40593   */\n    tag_462:\n        /* \"#utility.yul\":40567:40585   */\n      0x696e76616c696420766964656f20696400000000000000000000000000000000\n        /* \"#utility.yul\":40563:40564   */\n      0x00\n        /* \"#utility.yul\":40555:40561   */\n      dup3\n        /* \"#utility.yul\":40551:40565   */\n      add\n        /* \"#utility.yul\":40544:40586   */\n      mstore\n        /* \"#utility.yul\":40427:40593   */\n      pop\n      jump\t// out\n        /* \"#utility.yul\":40599:40965   */\n    tag_463:\n        /* \"#utility.yul\":40741:40744   */\n      0x00\n        /* \"#utility.yul\":40762:40829   */\n      tag_883\n        /* \"#utility.yul\":40826:40828   */\n      0x10\n        /* \"#utility.yul\":40821:40824   */\n      dup4\n        /* \"#utility.yul\":40762:40829   */\n      tag_394\n      jump\t// in\n    tag_883:\n        /* \"#utility.yul\":40755:40829   */\n      swap2\n      pop\n        /* \"#utility.yul\":40838:40931   */\n      tag_884\n        /* \"#utility.yul\":40927:40930   */\n      dup3\n        /* \"#utility.yul\":40838:40931   */\n      tag_462\n      jump\t// in\n    tag_884:\n        /* \"#utility.yul\":40956:40958   */\n      0x20\n        /* \"#utility.yul\":40951:40954   */\n      dup3\n        /* \"#utility.yul\":40947:40959   */\n      add\n        /* \"#utility.yul\":40940:40959   */\n      swap1\n      pop\n        /* \"#utility.yul\":40599:40965   */\n      swap2\n      swap1\n      pop\n      jump\t// out\n        /* \"#utility.yul\":40971:41390   */\n    tag_279:\n        /* \"#utility.yul\":41137:41141   */\n      0x00\n        /* \"#utility.yul\":41175:41177   */\n      0x20\n        /* \"#utility.yul\":41164:41173   */\n      dup3\n        /* \"#utility.yul\":41160:41178   */\n      add\n        /* \"#utility.yul\":41152:41178   */\n      swap1\n      pop\n        /* \"#utility.yul\":41224:41233   */\n      dup2\n        /* \"#utility.yul\":41218:41222   */\n      dup2\n        /* \"#utility.yul\":41214:41234   */\n      sub\n        /* \"#utility.yul\":41210:41211   */\n      0x00\n        /* \"#utility.yul\":41199:41208   */\n      dup4\n        /* \"#utility.yul\":41195:41212   */\n      add\n        /* \"#utility.yul\":41188:41235   */\n      mstore\n        /* \"#utility.yul\":41252:41383   */\n      tag_886\n        /* \"#utility.yul\":41378:41382   */\n      dup2\n        /* \"#utility.yul\":41252:41383   */\n      tag_463\n      jump\t// in\n    tag_886:\n        /* \"#utility.yul\":41244:41383   */\n      swap1\n      pop\n        /* \"#utility.yul\":40971:41390   */\n      swap2\n      swap1\n      pop\n      jump\t// out\n        /* \"#utility.yul\":41396:41538   */\n    tag_464:\n        /* \"#utility.yul\":41446:41455   */\n      0x00\n        /* \"#utility.yul\":41479:41532   */\n      tag_888\n        /* \"#utility.yul\":41497:41531   */\n      tag_889\n        /* \"#utility.yul\":41506:41530   */\n      tag_890\n        /* \"#utility.yul\":41524:41529   */\n      dup5\n        /* \"#utility.yul\":41506:41530   */\n      tag_397\n      jump\t// in\n    tag_890:\n        /* \"#utility.yul\":41497:41531   */\n      tag_412\n      jump\t// in\n    tag_889:\n        /* \"#utility.yul\":41479:41532   */\n      tag_397\n      jump\t// in\n    tag_888:\n        /* \"#utility.yul\":41466:41532   */\n      swap1\n      pop\n        /* \"#utility.yul\":41396:41538   */\n      swap2\n      swap1\n      pop\n      jump\t// out\n        /* \"#utility.yul\":41544:41670   */\n    tag_465:\n        /* \"#utility.yul\":41594:41603   */\n      0x00\n        /* \"#utility.yul\":41627:41664   */\n      tag_892\n        /* \"#utility.yul\":41658:41663   */\n      dup3\n        /* \"#utility.yul\":41627:41664   */\n      tag_464\n      jump\t// in\n    tag_892:\n        /* \"#utility.yul\":41614:41664   */\n      swap1\n      pop\n        /* \"#utility.yul\":41544:41670   */\n      swap2\n      swap1\n      pop\n      jump\t// out\n        /* \"#utility.yul\":41676:41810   */\n    tag_466:\n        /* \"#utility.yul\":41734:41743   */\n      0x00\n        /* \"#utility.yul\":41767:41804   */\n      tag_894\n        /* \"#utility.yul\":41798:41803   */\n      dup3\n        /* \"#utility.yul\":41767:41804   */\n      tag_465\n      jump\t// in\n    tag_894:\n        /* \"#utility.yul\":41754:41804   */\n      swap1\n      pop\n        /* \"#utility.yul\":41676:41810   */\n      swap2\n      swap1\n      pop\n      jump\t// out\n        /* \"#utility.yul\":41816:41963   */\n    tag_467:\n        /* \"#utility.yul\":41911:41956   */\n      tag_896\n        /* \"#utility.yul\":41950:41955   */\n      dup2\n        /* \"#utility.yul\":41911:41956   */\n      tag_466\n      jump\t// in\n    tag_896:\n        /* \"#utility.yul\":41906:41909   */\n      dup3\n        /* \"#utility.yul\":41899:41957   */\n      mstore\n        /* \"#utility.yul\":41816:41963   */\n      pop\n      pop\n      jump\t// out\n        /* \"#utility.yul\":41969:42716   */\n    tag_281:\n        /* \"#utility.yul\":42192:42196   */\n      0x00\n        /* \"#utility.yul\":42230:42233   */\n      0x80\n        /* \"#utility.yul\":42219:42228   */\n      dup3\n        /* \"#utility.yul\":42215:42234   */\n      add\n        /* \"#utility.yul\":42207:42234   */\n      swap1\n      pop\n        /* \"#utility.yul\":42244:42323   */\n      tag_898\n        /* \"#utility.yul\":42320:42321   */\n      0x00\n        /* \"#utility.yul\":42309:42318   */\n      dup4\n        /* \"#utility.yul\":42305:42322   */\n      add\n        /* \"#utility.yul\":42296:42302   */\n      dup8\n        /* \"#utility.yul\":42244:42323   */\n      tag_467\n      jump\t// in\n    tag_898:\n        /* \"#utility.yul\":42370:42379   */\n      dup2\n        /* \"#utility.yul\":42364:42368   */\n      dup2\n        /* \"#utility.yul\":42360:42380   */\n      sub\n        /* \"#utility.yul\":42355:42357   */\n      0x20\n        /* \"#utility.yul\":42344:42353   */\n      dup4\n        /* \"#utility.yul\":42340:42358   */\n      add\n        /* \"#utility.yul\":42333:42381   */\n      mstore\n        /* \"#utility.yul\":42398:42476   */\n      tag_899\n        /* \"#utility.yul\":42471:42475   */\n      dup2\n        /* \"#utility.yul\":42462:42468   */\n      dup7\n        /* \"#utility.yul\":42398:42476   */\n      tag_396\n      jump\t// in\n    tag_899:\n        /* \"#utility.yul\":42390:42476   */\n      swap1\n      pop\n        /* \"#utility.yul\":42486:42558   */\n      tag_900\n        /* \"#utility.yul\":42554:42556   */\n      0x40\n        /* \"#utility.yul\":42543:42552   */\n      dup4\n        /* \"#utility.yul\":42539:42557   */\n      add\n        /* \"#utility.yul\":42530:42536   */\n      dup6\n        /* \"#utility.yul\":42486:42558   */\n      tag_426\n      jump\t// in\n    tag_900:\n        /* \"#utility.yul\":42605:42614   */\n      dup2\n        /* \"#utility.yul\":42599:42603   */\n      dup2\n        /* \"#utility.yul\":42595:42615   */\n      sub\n        /* \"#utility.yul\":42590:42592   */\n      0x60\n        /* \"#utility.yul\":42579:42588   */\n      dup4\n        /* \"#utility.yul\":42575:42593   */\n      add\n        /* \"#utility.yul\":42568:42616   */\n      mstore\n        /* \"#utility.yul\":42633:42709   */\n      tag_901\n        /* \"#utility.yul\":42704:42708   */\n      dup2\n        /* \"#utility.yul\":42695:42701   */\n      dup5\n        /* \"#utility.yul\":42633:42709   */\n      tag_435\n      jump\t// in\n    tag_901:\n        /* \"#utility.yul\":42625:42709   */\n      swap1\n      pop\n        /* \"#utility.yul\":41969:42716   */\n      swap6\n      swap5\n      pop\n      pop\n      pop\n      pop\n      pop\n      jump\t// out\n        /* \"#utility.yul\":42722:42898   */\n    tag_468:\n        /* \"#utility.yul\":42862:42890   */\n      0x696e76616c6964206c6963656e736f72207369676e6174757265000000000000\n        /* \"#utility.yul\":42858:42859   */\n      0x00\n        /* \"#utility.yul\":42850:42856   */\n      dup3\n        /* \"#utility.yul\":42846:42860   */\n      add\n        /* \"#utility.yul\":42839:42891   */\n      mstore\n        /* \"#utility.yul\":42722:42898   */\n      pop\n      jump\t// out\n        /* \"#utility.yul\":42904:43270   */\n    tag_469:\n        /* \"#utility.yul\":43046:43049   */\n      0x00\n        /* \"#utility.yul\":43067:43134   */\n      tag_904\n        /* \"#utility.yul\":43131:43133   */\n      0x1a\n        /* \"#utility.yul\":43126:43129   */\n      dup4\n        /* \"#utility.yul\":43067:43134   */\n      tag_394\n      jump\t// in\n    tag_904:\n        /* \"#utility.yul\":43060:43134   */\n      swap2\n      pop\n        /* \"#utility.yul\":43143:43236   */\n      tag_905\n        /* \"#utility.yul\":43232:43235   */\n      dup3\n        /* \"#utility.yul\":43143:43236   */\n      tag_468\n      jump\t// in\n    tag_905:\n        /* \"#utility.yul\":43261:43263   */\n      0x20\n        /* \"#utility.yul\":43256:43259   */\n      dup3\n        /* \"#utility.yul\":43252:43264   */\n      add\n        /* \"#utility.yul\":43245:43264   */\n      swap1\n      pop\n        /* \"#utility.yul\":42904:43270   */\n      swap2\n      swap1\n      pop\n      jump\t// out\n        /* \"#utility.yul\":43276:43695   */\n    tag_287:\n        /* \"#utility.yul\":43442:43446   */\n      0x00\n        /* \"#utility.yul\":43480:43482   */\n      0x20\n        /* \"#utility.yul\":43469:43478   */\n      dup3\n        /* \"#utility.yul\":43465:43483   */\n      add\n        /* \"#utility.yul\":43457:43483   */\n      swap1\n      pop\n        /* \"#utility.yul\":43529:43538   */\n      dup2\n        /* \"#utility.yul\":43523:43527   */\n      dup2\n        /* \"#utility.yul\":43519:43539   */\n      sub\n        /* \"#utility.yul\":43515:43516   */\n      0x00\n        /* \"#utility.yul\":43504:43513   */\n      dup4\n        /* \"#utility.yul\":43500:43517   */\n      add\n        /* \"#utility.yul\":43493:43540   */\n      mstore\n        /* \"#utility.yul\":43557:43688   */\n      tag_907\n        /* \"#utility.yul\":43683:43687   */\n      dup2\n        /* \"#utility.yul\":43557:43688   */\n      tag_469\n      jump\t// in\n    tag_907:\n        /* \"#utility.yul\":43549:43688   */\n      swap1\n      pop\n        /* \"#utility.yul\":43276:43695   */\n      swap2\n      swap1\n      pop\n      jump\t// out\n        /* \"#utility.yul\":43701:43867   */\n    tag_470:\n        /* \"#utility.yul\":43841:43859   */\n      0x696e76616c6964206c6963656e73656500000000000000000000000000000000\n        /* \"#utility.yul\":43837:43838   */\n      0x00\n        /* \"#utility.yul\":43829:43835   */\n      dup3\n        /* \"#utility.yul\":43825:43839   */\n      add\n        /* \"#utility.yul\":43818:43860   */\n      mstore\n        /* \"#utility.yul\":43701:43867   */\n      pop\n      jump\t// out\n        /* \"#utility.yul\":43873:44239   */\n    tag_471:\n        /* \"#utility.yul\":44015:44018   */\n      0x00\n        /* \"#utility.yul\":44036:44103   */\n      tag_910\n        /* \"#utility.yul\":44100:44102   */\n      0x10\n        /* \"#utility.yul\":44095:44098   */\n      dup4\n        /* \"#utility.yul\":44036:44103   */\n      tag_394\n      jump\t// in\n    tag_910:\n        /* \"#utility.yul\":44029:44103   */\n      swap2\n      pop\n        /* \"#utility.yul\":44112:44205   */\n      tag_911\n        /* \"#utility.yul\":44201:44204   */\n      dup3\n        /* \"#utility.yul\":44112:44205   */\n      tag_470\n      jump\t// in\n    tag_911:\n        /* \"#utility.yul\":44230:44232   */\n      0x20\n        /* \"#utility.yul\":44225:44228   */\n      dup3\n        /* \"#utility.yul\":44221:44233   */\n      add\n        /* \"#utility.yul\":44214:44233   */\n      swap1\n      pop\n        /* \"#utility.yul\":43873:44239   */\n      swap2\n      swap1\n      pop\n      jump\t// out\n        /* \"#utility.yul\":44245:44664   */\n    tag_301:\n        /* \"#utility.yul\":44411:44415   */\n      0x00\n        /* \"#utility.yul\":44449:44451   */\n      0x20\n        /* \"#utility.yul\":44438:44447   */\n      dup3\n        /* \"#utility.yul\":44434:44452   */\n      add\n        /* \"#utility.yul\":44426:44452   */\n      swap1\n      pop\n        /* \"#utility.yul\":44498:44507   */\n      dup2\n        /* \"#utility.yul\":44492:44496   */\n      dup2\n        /* \"#utility.yul\":44488:44508   */\n      sub\n        /* \"#utility.yul\":44484:44485   */\n      0x00\n        /* \"#utility.yul\":44473:44482   */\n      dup4\n        /* \"#utility.yul\":44469:44486   */\n      add\n        /* \"#utility.yul\":44462:44509   */\n      mstore\n        /* \"#utility.yul\":44526:44657   */\n      tag_913\n        /* \"#utility.yul\":44652:44656   */\n      dup2\n        /* \"#utility.yul\":44526:44657   */\n      tag_471\n      jump\t// in\n    tag_913:\n        /* \"#utility.yul\":44518:44657   */\n      swap1\n      pop\n        /* \"#utility.yul\":44245:44664   */\n      swap2\n      swap1\n      pop\n      jump\t// out\n        /* \"#utility.yul\":44670:45425   */\n    tag_309:\n        /* \"#utility.yul\":44895:44899   */\n      0x00\n        /* \"#utility.yul\":44933:44936   */\n      0xa0\n        /* \"#utility.yul\":44922:44931   */\n      dup3\n        /* \"#utility.yul\":44918:44937   */\n      add\n        /* \"#utility.yul\":44910:44937   */\n      swap1\n      pop\n        /* \"#utility.yul\":44983:44992   */\n      dup2\n        /* \"#utility.yul\":44977:44981   */\n      dup2\n        /* \"#utility.yul\":44973:44993   */\n      sub\n        /* \"#utility.yul\":44969:44970   */\n      0x00\n        /* \"#utility.yul\":44958:44967   */\n      dup4\n        /* \"#utility.yul\":44954:44971   */\n      add\n        /* \"#utility.yul\":44947:44994   */\n      mstore\n        /* \"#utility.yul\":45011:45089   */\n      tag_915\n        /* \"#utility.yul\":45084:45088   */\n      dup2\n        /* \"#utility.yul\":45075:45081   */\n      dup9\n        /* \"#utility.yul\":45011:45089   */\n      tag_396\n      jump\t// in\n    tag_915:\n        /* \"#utility.yul\":45003:45089   */\n      swap1\n      pop\n        /* \"#utility.yul\":45099:45171   */\n      tag_916\n        /* \"#utility.yul\":45167:45169   */\n      0x20\n        /* \"#utility.yul\":45156:45165   */\n      dup4\n        /* \"#utility.yul\":45152:45170   */\n      add\n        /* \"#utility.yul\":45143:45149   */\n      dup8\n        /* \"#utility.yul\":45099:45171   */\n      tag_406\n      jump\t// in\n    tag_916:\n        /* \"#utility.yul\":45181:45253   */\n      tag_917\n        /* \"#utility.yul\":45249:45251   */\n      0x40\n        /* \"#utility.yul\":45238:45247   */\n      dup4\n        /* \"#utility.yul\":45234:45252   */\n      add\n        /* \"#utility.yul\":45225:45231   */\n      dup7\n        /* \"#utility.yul\":45181:45253   */\n      tag_406\n      jump\t// in\n    tag_917:\n        /* \"#utility.yul\":45263:45335   */\n      tag_918\n        /* \"#utility.yul\":45331:45333   */\n      0x60\n        /* \"#utility.yul\":45320:45329   */\n      dup4\n        /* \"#utility.yul\":45316:45334   */\n      add\n        /* \"#utility.yul\":45307:45313   */\n      dup6\n        /* \"#utility.yul\":45263:45335   */\n      tag_426\n      jump\t// in\n    tag_918:\n        /* \"#utility.yul\":45345:45418   */\n      tag_919\n        /* \"#utility.yul\":45413:45416   */\n      0x80\n        /* \"#utility.yul\":45402:45411   */\n      dup4\n        /* \"#utility.yul\":45398:45417   */\n      add\n        /* \"#utility.yul\":45389:45395   */\n      dup5\n        /* \"#utility.yul\":45345:45418   */\n      tag_426\n      jump\t// in\n    tag_919:\n        /* \"#utility.yul\":44670:45425   */\n      swap7\n      swap6\n      pop\n      pop\n      pop\n      pop\n      pop\n      pop\n      jump\t// out\n        /* \"#utility.yul\":45431:45865   */\n    tag_472:\n        /* \"#utility.yul\":45520:45525   */\n      0x00\n        /* \"#utility.yul\":45545:45611   */\n      tag_921\n        /* \"#utility.yul\":45561:45610   */\n      tag_922\n        /* \"#utility.yul\":45603:45609   */\n      dup5\n        /* \"#utility.yul\":45561:45610   */\n      tag_400\n      jump\t// in\n    tag_922:\n        /* \"#utility.yul\":45545:45611   */\n      tag_388\n      jump\t// in\n    tag_921:\n        /* \"#utility.yul\":45536:45611   */\n      swap1\n      pop\n        /* \"#utility.yul\":45634:45640   */\n      dup3\n        /* \"#utility.yul\":45627:45632   */\n      dup2\n        /* \"#utility.yul\":45620:45641   */\n      mstore\n        /* \"#utility.yul\":45672:45676   */\n      0x20\n        /* \"#utility.yul\":45665:45670   */\n      dup2\n        /* \"#utility.yul\":45661:45677   */\n      add\n        /* \"#utility.yul\":45710:45713   */\n      dup5\n        /* \"#utility.yul\":45701:45707   */\n      dup5\n        /* \"#utility.yul\":45696:45699   */\n      dup5\n        /* \"#utility.yul\":45692:45708   */\n      add\n        /* \"#utility.yul\":45689:45714   */\n      gt\n        /* \"#utility.yul\":45686:45798   */\n      iszero\n      tag_923\n      jumpi\n        /* \"#utility.yul\":45717:45796   */\n      tag_924\n      tag_385\n      jump\t// in\n    tag_924:\n        /* \"#utility.yul\":45686:45798   */\n    tag_923:\n        /* \"#utility.yul\":45807:45859   */\n      tag_925\n        /* \"#utility.yul\":45852:45858   */\n      dup5\n        /* \"#utility.yul\":45847:45850   */\n      dup3\n        /* \"#utility.yul\":45842:45845   */\n      dup6\n        /* \"#utility.yul\":45807:45859   */\n      tag_395\n      jump\t// in\n    tag_925:\n        /* \"#utility.yul\":45526:45865   */\n      pop\n        /* \"#utility.yul\":45431:45865   */\n      swap4\n      swap3\n      pop\n      pop\n      pop\n      jump\t// out\n        /* \"#utility.yul\":45885:46240   */\n    tag_473:\n        /* \"#utility.yul\":45952:45957   */\n      0x00\n        /* \"#utility.yul\":46001:46004   */\n      dup3\n        /* \"#utility.yul\":45994:45998   */\n      0x1f\n        /* \"#utility.yul\":45986:45992   */\n      dup4\n        /* \"#utility.yul\":45982:45999   */\n      add\n        /* \"#utility.yul\":45978:46005   */\n      slt\n        /* \"#utility.yul\":45968:46090   */\n      tag_927\n      jumpi\n        /* \"#utility.yul\":46009:46088   */\n      tag_928\n      tag_384\n      jump\t// in\n    tag_928:\n        /* \"#utility.yul\":45968:46090   */\n    tag_927:\n        /* \"#utility.yul\":46119:46125   */\n      dup2\n        /* \"#utility.yul\":46113:46126   */\n      mload\n        /* \"#utility.yul\":46144:46234   */\n      tag_929\n        /* \"#utility.yul\":46230:46233   */\n      dup5\n        /* \"#utility.yul\":46222:46228   */\n      dup3\n        /* \"#utility.yul\":46215:46219   */\n      0x20\n        /* \"#utility.yul\":46207:46213   */\n      dup7\n        /* \"#utility.yul\":46203:46220   */\n      add\n        /* \"#utility.yul\":46144:46234   */\n      tag_472\n      jump\t// in\n    tag_929:\n        /* \"#utility.yul\":46135:46234   */\n      swap2\n      pop\n        /* \"#utility.yul\":45958:46240   */\n      pop\n        /* \"#utility.yul\":45885:46240   */\n      swap3\n      swap2\n      pop\n      pop\n      jump\t// out\n        /* \"#utility.yul\":46246:46770   */\n    tag_313:\n        /* \"#utility.yul\":46326:46332   */\n      0x00\n        /* \"#utility.yul\":46375:46377   */\n      0x20\n        /* \"#utility.yul\":46363:46372   */\n      dup3\n        /* \"#utility.yul\":46354:46361   */\n      dup5\n        /* \"#utility.yul\":46350:46373   */\n      sub\n        /* \"#utility.yul\":46346:46378   */\n      slt\n        /* \"#utility.yul\":46343:46462   */\n      iszero\n      tag_931\n      jumpi\n        /* \"#utility.yul\":46381:46460   */\n      tag_932\n      tag_377\n      jump\t// in\n    tag_932:\n        /* \"#utility.yul\":46343:46462   */\n    tag_931:\n        /* \"#utility.yul\":46522:46523   */\n      0x00\n        /* \"#utility.yul\":46511:46520   */\n      dup3\n        /* \"#utility.yul\":46507:46524   */\n      add\n        /* \"#utility.yul\":46501:46525   */\n      mload\n        /* \"#utility.yul\":46552:46570   */\n      0xffffffffffffffff\n        /* \"#utility.yul\":46544:46550   */\n      dup2\n        /* \"#utility.yul\":46541:46571   */\n      gt\n        /* \"#utility.yul\":46538:46655   */\n      iszero\n      tag_933\n      jumpi\n        /* \"#utility.yul\":46574:46653   */\n      tag_934\n      tag_378\n      jump\t// in\n    tag_934:\n        /* \"#utility.yul\":46538:46655   */\n    tag_933:\n        /* \"#utility.yul\":46679:46753   */\n      tag_935\n        /* \"#utility.yul\":46745:46752   */\n      dup5\n        /* \"#utility.yul\":46736:46742   */\n      dup3\n        /* \"#utility.yul\":46725:46734   */\n      dup6\n        /* \"#utility.yul\":46721:46743   */\n      add\n        /* \"#utility.yul\":46679:46753   */\n      tag_473\n      jump\t// in\n    tag_935:\n        /* \"#utility.yul\":46669:46753   */\n      swap2\n      pop\n        /* \"#utility.yul\":46472:46763   */\n      pop\n        /* \"#utility.yul\":46246:46770   */\n      swap3\n      swap2\n      pop\n      pop\n      jump\t// out\n        /* \"#utility.yul\":46776:47321   */\n    tag_317:\n        /* \"#utility.yul\":46949:46953   */\n      0x00\n        /* \"#utility.yul\":46987:46990   */\n      0x80\n        /* \"#utility.yul\":46976:46985   */\n      dup3\n        /* \"#utility.yul\":46972:46991   */\n      add\n        /* \"#utility.yul\":46964:46991   */\n      swap1\n      pop\n        /* \"#utility.yul\":47001:47072   */\n      tag_937\n        /* \"#utility.yul\":47069:47070   */\n      0x00\n        /* \"#utility.yul\":47058:47067   */\n      dup4\n        /* \"#utility.yul\":47054:47071   */\n      add\n        /* \"#utility.yul\":47045:47051   */\n      dup8\n        /* \"#utility.yul\":47001:47072   */\n      tag_404\n      jump\t// in\n    tag_937:\n        /* \"#utility.yul\":47082:47150   */\n      tag_938\n        /* \"#utility.yul\":47146:47148   */\n      0x20\n        /* \"#utility.yul\":47135:47144   */\n      dup4\n        /* \"#utility.yul\":47131:47149   */\n      add\n        /* \"#utility.yul\":47122:47128   */\n      dup7\n        /* \"#utility.yul\":47082:47150   */\n      tag_425\n      jump\t// in\n    tag_938:\n        /* \"#utility.yul\":47160:47232   */\n      tag_939\n        /* \"#utility.yul\":47228:47230   */\n      0x40\n        /* \"#utility.yul\":47217:47226   */\n      dup4\n        /* \"#utility.yul\":47213:47231   */\n      add\n        /* \"#utility.yul\":47204:47210   */\n      dup6\n        /* \"#utility.yul\":47160:47232   */\n      tag_404\n      jump\t// in\n    tag_939:\n        /* \"#utility.yul\":47242:47314   */\n      tag_940\n        /* \"#utility.yul\":47310:47312   */\n      0x60\n        /* \"#utility.yul\":47299:47308   */\n      dup4\n        /* \"#utility.yul\":47295:47313   */\n      add\n        /* \"#utility.yul\":47286:47292   */\n      dup5\n        /* \"#utility.yul\":47242:47314   */\n      tag_404\n      jump\t// in\n    tag_940:\n        /* \"#utility.yul\":46776:47321   */\n      swap6\n      swap5\n      pop\n      pop\n      pop\n      pop\n      pop\n      jump\t// out\n        /* \"#utility.yul\":47327:47501   */\n    tag_474:\n        /* \"#utility.yul\":47467:47493   */\n      0x696e76616c6964207369676e6174757265206c656e6774680000000000000000\n        /* \"#utility.yul\":47463:47464   */\n      0x00\n        /* \"#utility.yul\":47455:47461   */\n      dup3\n        /* \"#utility.yul\":47451:47465   */\n      add\n        /* \"#utility.yul\":47444:47494   */\n      mstore\n        /* \"#utility.yul\":47327:47501   */\n      pop\n      jump\t// out\n        /* \"#utility.yul\":47507:47873   */\n    tag_475:\n        /* \"#utility.yul\":47649:47652   */\n      0x00\n        /* \"#utility.yul\":47670:47737   */\n      tag_943\n        /* \"#utility.yul\":47734:47736   */\n      0x18\n        /* \"#utility.yul\":47729:47732   */\n      dup4\n        /* \"#utility.yul\":47670:47737   */\n      tag_394\n      jump\t// in\n    tag_943:\n        /* \"#utility.yul\":47663:47737   */\n      swap2\n      pop\n        /* \"#utility.yul\":47746:47839   */\n      tag_944\n        /* \"#utility.yul\":47835:47838   */\n      dup3\n        /* \"#utility.yul\":47746:47839   */\n      tag_474\n      jump\t// in\n    tag_944:\n        /* \"#utility.yul\":47864:47866   */\n      0x20\n        /* \"#utility.yul\":47859:47862   */\n      dup3\n        /* \"#utility.yul\":47855:47867   */\n      add\n        /* \"#utility.yul\":47848:47867   */\n      swap1\n      pop\n        /* \"#utility.yul\":47507:47873   */\n      swap2\n      swap1\n      pop\n      jump\t// out\n        /* \"#utility.yul\":47879:48298   */\n    tag_333:\n        /* \"#utility.yul\":48045:48049   */\n      0x00\n        /* \"#utility.yul\":48083:48085   */\n      0x20\n        /* \"#utility.yul\":48072:48081   */\n      dup3\n        /* \"#utility.yul\":48068:48086   */\n      add\n        /* \"#utility.yul\":48060:48086   */\n      swap1\n      pop\n        /* \"#utility.yul\":48132:48141   */\n      dup2\n        /* \"#utility.yul\":48126:48130   */\n      dup2\n        /* \"#utility.yul\":48122:48142   */\n      sub\n        /* \"#utility.yul\":48118:48119   */\n      0x00\n        /* \"#utility.yul\":48107:48116   */\n      dup4\n        /* \"#utility.yul\":48103:48120   */\n      add\n        /* \"#utility.yul\":48096:48143   */\n      mstore\n        /* \"#utility.yul\":48160:48291   */\n      tag_946\n        /* \"#utility.yul\":48286:48290   */\n      dup2\n        /* \"#utility.yul\":48160:48291   */\n      tag_475\n      jump\t// in\n    tag_946:\n        /* \"#utility.yul\":48152:48291   */\n      swap1\n      pop\n        /* \"#utility.yul\":47879:48298   */\n      swap2\n      swap1\n      pop\n      jump\t// out\n        /* \"#utility.yul\":48304:48518   */\n    tag_476:\n        /* \"#utility.yul\":48444:48510   */\n      0x19457468657265756d205369676e6564204d6573736167653a0a333200000000\n        /* \"#utility.yul\":48440:48441   */\n      0x00\n        /* \"#utility.yul\":48432:48438   */\n      dup3\n        /* \"#utility.yul\":48428:48442   */\n      add\n        /* \"#utility.yul\":48421:48511   */\n      mstore\n        /* \"#utility.yul\":48304:48518   */\n      pop\n      jump\t// out\n        /* \"#utility.yul\":48524:48926   */\n    tag_477:\n        /* \"#utility.yul\":48684:48687   */\n      0x00\n        /* \"#utility.yul\":48705:48790   */\n      tag_949\n        /* \"#utility.yul\":48787:48789   */\n      0x1c\n        /* \"#utility.yul\":48782:48785   */\n      dup4\n        /* \"#utility.yul\":48705:48790   */\n      tag_447\n      jump\t// in\n    tag_949:\n        /* \"#utility.yul\":48698:48790   */\n      swap2\n      pop\n        /* \"#utility.yul\":48799:48892   */\n      tag_950\n        /* \"#utility.yul\":48888:48891   */\n      dup3\n        /* \"#utility.yul\":48799:48892   */\n      tag_476\n      jump\t// in\n    tag_950:\n        /* \"#utility.yul\":48917:48919   */\n      0x1c\n        /* \"#utility.yul\":48912:48915   */\n      dup3\n        /* \"#utility.yul\":48908:48920   */\n      add\n        /* \"#utility.yul\":48901:48920   */\n      swap1\n      pop\n        /* \"#utility.yul\":48524:48926   */\n      swap2\n      swap1\n      pop\n      jump\t// out\n        /* \"#utility.yul\":48932:49011   */\n    tag_478:\n        /* \"#utility.yul\":48971:48978   */\n      0x00\n        /* \"#utility.yul\":49000:49005   */\n      dup2\n        /* \"#utility.yul\":48989:49005   */\n      swap1\n      pop\n        /* \"#utility.yul\":48932:49011   */\n      swap2\n      swap1\n      pop\n      jump\t// out\n        /* \"#utility.yul\":49017:49174   */\n    tag_479:\n        /* \"#utility.yul\":49122:49167   */\n      tag_953\n        /* \"#utility.yul\":49142:49166   */\n      tag_954\n        /* \"#utility.yul\":49160:49165   */\n      dup3\n        /* \"#utility.yul\":49142:49166   */\n      tag_403\n      jump\t// in\n    tag_954:\n        /* \"#utility.yul\":49122:49167   */\n      tag_478\n      jump\t// in\n    tag_953:\n        /* \"#utility.yul\":49117:49120   */\n      dup3\n        /* \"#utility.yul\":49110:49168   */\n      mstore\n        /* \"#utility.yul\":49017:49174   */\n      pop\n      pop\n      jump\t// out\n        /* \"#utility.yul\":49180:49702   */\n    tag_352:\n        /* \"#utility.yul\":49393:49396   */\n      0x00\n        /* \"#utility.yul\":49415:49563   */\n      tag_956\n        /* \"#utility.yul\":49559:49562   */\n      dup3\n        /* \"#utility.yul\":49415:49563   */\n      tag_477\n      jump\t// in\n    tag_956:\n        /* \"#utility.yul\":49408:49563   */\n      swap2\n      pop\n        /* \"#utility.yul\":49573:49648   */\n      tag_957\n        /* \"#utility.yul\":49644:49647   */\n      dup3\n        /* \"#utility.yul\":49635:49641   */\n      dup5\n        /* \"#utility.yul\":49573:49648   */\n      tag_479\n      jump\t// in\n    tag_957:\n        /* \"#utility.yul\":49673:49675   */\n      0x20\n        /* \"#utility.yul\":49668:49671   */\n      dup3\n        /* \"#utility.yul\":49664:49676   */\n      add\n        /* \"#utility.yul\":49657:49676   */\n      swap2\n      pop\n        /* \"#utility.yul\":49693:49696   */\n      dup2\n        /* \"#utility.yul\":49686:49696   */\n      swap1\n      pop\n        /* \"#utility.yul\":49180:49702   */\n      swap3\n      swap2\n      pop\n      pop\n      jump\t// out\n        /* \"#utility.yul\":49708:50471   */\n    tag_363:\n        /* \"#utility.yul\":49939:49943   */\n      0x00\n        /* \"#utility.yul\":49977:49980   */\n      0x80\n        /* \"#utility.yul\":49966:49975   */\n      dup3\n        /* \"#utility.yul\":49962:49981   */\n      add\n        /* \"#utility.yul\":49954:49981   */\n      swap1\n      pop\n        /* \"#utility.yul\":50027:50036   */\n      dup2\n        /* \"#utility.yul\":50021:50025   */\n      dup2\n        /* \"#utility.yul\":50017:50037   */\n      sub\n        /* \"#utility.yul\":50013:50014   */\n      0x00\n        /* \"#utility.yul\":50002:50011   */\n      dup4\n        /* \"#utility.yul\":49998:50015   */\n      add\n        /* \"#utility.yul\":49991:50038   */\n      mstore\n        /* \"#utility.yul\":50055:50133   */\n      tag_959\n        /* \"#utility.yul\":50128:50132   */\n      dup2\n        /* \"#utility.yul\":50119:50125   */\n      dup8\n        /* \"#utility.yul\":50055:50133   */\n      tag_396\n      jump\t// in\n    tag_959:\n        /* \"#utility.yul\":50047:50133   */\n      swap1\n      pop\n        /* \"#utility.yul\":50143:50231   */\n      tag_960\n        /* \"#utility.yul\":50227:50229   */\n      0x20\n        /* \"#utility.yul\":50216:50225   */\n      dup4\n        /* \"#utility.yul\":50212:50230   */\n      add\n        /* \"#utility.yul\":50203:50209   */\n      dup7\n        /* \"#utility.yul\":50143:50231   */\n      tag_399\n      jump\t// in\n    tag_960:\n        /* \"#utility.yul\":50241:50313   */\n      tag_961\n        /* \"#utility.yul\":50309:50311   */\n      0x40\n        /* \"#utility.yul\":50298:50307   */\n      dup4\n        /* \"#utility.yul\":50294:50312   */\n      add\n        /* \"#utility.yul\":50285:50291   */\n      dup6\n        /* \"#utility.yul\":50241:50313   */\n      tag_426\n      jump\t// in\n    tag_961:\n        /* \"#utility.yul\":50360:50369   */\n      dup2\n        /* \"#utility.yul\":50354:50358   */\n      dup2\n        /* \"#utility.yul\":50350:50370   */\n      sub\n        /* \"#utility.yul\":50345:50347   */\n      0x60\n        /* \"#utility.yul\":50334:50343   */\n      dup4\n        /* \"#utility.yul\":50330:50348   */\n      add\n        /* \"#utility.yul\":50323:50371   */\n      mstore\n        /* \"#utility.yul\":50388:50464   */\n      tag_962\n        /* \"#utility.yul\":50459:50463   */\n      dup2\n        /* \"#utility.yul\":50450:50456   */\n      dup5\n        /* \"#utility.yul\":50388:50464   */\n      tag_435\n      jump\t// in\n    tag_962:\n        /* \"#utility.yul\":50380:50464   */\n      swap1\n      pop\n        /* \"#utility.yul\":49708:50471   */\n      swap6\n      swap5\n      pop\n      pop\n      pop\n      pop\n      pop\n      jump\t// out\n        /* \"#utility.yul\":50477:50657   */\n    tag_480:\n        /* \"#utility.yul\":50525:50602   */\n      0x4e487b7100000000000000000000000000000000000000000000000000000000\n        /* \"#utility.yul\":50522:50523   */\n      0x00\n        /* \"#utility.yul\":50515:50603   */\n      mstore\n        /* \"#utility.yul\":50622:50626   */\n      0x11\n        /* \"#utility.yul\":50619:50620   */\n      0x04\n        /* \"#utility.yul\":50612:50627   */\n      mstore\n        /* \"#utility.yul\":50646:50650   */\n      0x24\n        /* \"#utility.yul\":50643:50644   */\n      0x00\n        /* \"#utility.yul\":50636:50651   */\n      revert\n        /* \"#utility.yul\":50663:50854   */\n    tag_372:\n        /* \"#utility.yul\":50703:50706   */\n      0x00\n        /* \"#utility.yul\":50722:50742   */\n      tag_965\n        /* \"#utility.yul\":50740:50741   */\n      dup3\n        /* \"#utility.yul\":50722:50742   */\n      tag_379\n      jump\t// in\n    tag_965:\n        /* \"#utility.yul\":50717:50742   */\n      swap2\n      pop\n        /* \"#utility.yul\":50756:50776   */\n      tag_966\n        /* \"#utility.yul\":50774:50775   */\n      dup4\n        /* \"#utility.yul\":50756:50776   */\n      tag_379\n      jump\t// in\n    tag_966:\n        /* \"#utility.yul\":50751:50776   */\n      swap3\n      pop\n        /* \"#utility.yul\":50799:50800   */\n      dup3\n        /* \"#utility.yul\":50796:50797   */\n      dup3\n        /* \"#utility.yul\":50792:50801   */\n      add\n        /* \"#utility.yul\":50785:50801   */\n      swap1\n      pop\n        /* \"#utility.yul\":50820:50823   */\n      dup1\n        /* \"#utility.yul\":50817:50818   */\n      dup3\n        /* \"#utility.yul\":50814:50824   */\n      gt\n        /* \"#utility.yul\":50811:50847   */\n      iszero\n      tag_967\n      jumpi\n        /* \"#utility.yul\":50827:50845   */\n      tag_968\n      tag_480\n      jump\t// in\n    tag_968:\n        /* \"#utility.yul\":50811:50847   */\n    tag_967:\n        /* \"#utility.yul\":50663:50854   */\n      swap3\n      swap2\n      pop\n      pop\n      jump\t// out\n        /* \"#utility.yul\":50860:50953   */\n    tag_481:\n        /* \"#utility.yul\":50897:50903   */\n      0x00\n        /* \"#utility.yul\":50944:50946   */\n      0x20\n        /* \"#utility.yul\":50939:50941   */\n      0x1f\n        /* \"#utility.yul\":50932:50937   */\n      dup4\n        /* \"#utility.yul\":50928:50942   */\n      add\n        /* \"#utility.yul\":50924:50947   */\n      div\n        /* \"#utility.yul\":50914:50947   */\n      swap1\n      pop\n        /* \"#utility.yul\":50860:50953   */\n      swap2\n      swap1\n      pop\n      jump\t// out\n        /* \"#utility.yul\":50959:51066   */\n    tag_482:\n        /* \"#utility.yul\":51003:51011   */\n      0x00\n        /* \"#utility.yul\":51053:51058   */\n      dup3\n        /* \"#utility.yul\":51047:51051   */\n      dup3\n        /* \"#utility.yul\":51043:51059   */\n      shl\n        /* \"#utility.yul\":51022:51059   */\n      swap1\n      pop\n        /* \"#utility.yul\":50959:51066   */\n      swap3\n      swap2\n      pop\n      pop\n      jump\t// out\n        /* \"#utility.yul\":51072:51465   */\n    tag_483:\n        /* \"#utility.yul\":51141:51147   */\n      0x00\n        /* \"#utility.yul\":51191:51192   */\n      0x08\n        /* \"#utility.yul\":51179:51189   */\n      dup4\n        /* \"#utility.yul\":51175:51193   */\n      mul\n        /* \"#utility.yul\":51214:51311   */\n      tag_972\n        /* \"#utility.yul\":51244:51310   */\n      0xffffffffffffffffffffffffffffffffffffffffffffffffffffffffffffffff\n        /* \"#utility.yul\":51233:51242   */\n      dup3\n        /* \"#utility.yul\":51214:51311   */\n      tag_482\n      jump\t// in\n    tag_972:\n        /* \"#utility.yul\":51332:51371   */\n      tag_973\n        /* \"#utility.yul\":51362:51370   */\n      dup7\n        /* \"#utility.yul\":51351:51360   */\n      dup4\n        /* \"#utility.yul\":51332:51371   */\n      tag_482\n      jump\t// in\n    tag_973:\n        /* \"#utility.yul\":51320:51371   */\n      swap6\n      pop\n        /* \"#utility.yul\":51404:51408   */\n      dup1\n        /* \"#utility.yul\":51400:51409   */\n      not\n        /* \"#utility.yul\":51393:51398   */\n      dup5\n        /* \"#utility.yul\":51389:51410   */\n      and\n        /* \"#utility.yul\":51380:51410   */\n      swap4\n      pop\n        /* \"#utility.yul\":51453:51457   */\n      dup1\n        /* \"#utility.yul\":51443:51451   */\n      dup7\n        /* \"#utility.yul\":51439:51458   */\n      and\n        /* \"#utility.yul\":51432:51437   */\n      dup5\n        /* \"#utility.yul\":51429:51459   */\n      or\n        /* \"#utility.yul\":51419:51459   */\n      swap3\n      pop\n        /* \"#utility.yul\":51148:51465   */\n      pop\n      pop\n        /* \"#utility.yul\":51072:51465   */\n      swap4\n      swap3\n      pop\n      pop\n      pop\n      jump\t// out\n        /* \"#utility.yul\":51471:51546   */\n    tag_484:\n        /* \"#utility.yul\":51514:51517   */\n      0x00\n        /* \"#utility.yul\":51535:51540   */\n      dup2\n        /* \"#utility.yul\":51528:51540   */\n      swap1\n      pop\n        /* \"#utility.yul\":51471:51546   */\n      swap2\n      swap1\n      pop\n      jump\t// out\n        /* \"#utility.yul\":51552:51821   */\n    tag_485:\n        /* \"#utility.yul\":51662:51701   */\n      tag_976\n        /* \"#utility.yul\":51693:51700   */\n      dup4\n        /* \"#utility.yul\":51662:51701   */\n      tag_413\n      jump\t// in\n    tag_976:\n        /* \"#utility.yul\":51723:51814   */\n      tag_977\n        /* \"#utility.yul\":51772:51813   */\n      tag_978\n        /* \"#utility.yul\":51796:51812   */\n      dup3\n        /* \"#utility.yul\":51772:51813   */\n      tag_484\n      jump\t// in\n    tag_978:\n        /* \"#utility.yul\":51764:51770   */\n      dup5\n        /* \"#utility.yul\":51757:51761   */\n      dup5\n        /* \"#utility.yul\":51751:51762   */\n      sload\n        /* \"#utility.yul\":51723:51814   */\n      tag_483\n      jump\t// in\n    tag_977:\n        /* \"#utility.yul\":51717:51721   */\n      dup3\n        /* \"#utility.yul\":51710:51815   */\n      sstore\n        /* \"#utility.yul\":51628:51821   */\n      pop\n        /* \"#utility.yul\":51552:51821   */\n      pop\n      pop\n      pop\n      jump\t// out\n        /* \"#utility.yul\":51827:51900   */\n    tag_486:\n        /* \"#utility.yul\":51872:51875   */\n      0x00\n        /* \"#utility.yul\":51827:51900   */\n      swap1\n      jump\t// out\n        /* \"#utility.yul\":51906:52095   */\n    tag_487:\n        /* \"#utility.yul\":51983:52015   */\n      tag_981\n      tag_486\n      jump\t// in\n    tag_981:\n        /* \"#utility.yul\":52024:52089   */\n      tag_982\n        /* \"#utility.yul\":52082:52088   */\n      dup2\n        /* \"#utility.yul\":52074:52080   */\n      dup5\n        /* \"#utility.yul\":52068:52072   */\n      dup5\n        /* \"#utility.yul\":52024:52089   */\n      tag_485\n      jump\t// in\n    tag_982:\n        /* \"#utility.yul\":51959:52095   */\n      pop\n        /* \"#utility.yul\":51906:52095   */\n      pop\n      pop\n      jump\t// out\n        /* \"#utility.yul\":52101:52287   */\n    tag_488:\n        /* \"#utility.yul\":52161:52281   */\n    tag_984:\n        /* \"#utility.yul\":52178:52181   */\n      dup2\n        /* \"#utility.yul\":52171:52176   */\n      dup2\n        /* \"#utility.yul\":52168:52182   */\n      lt\n        /* \"#utility.yul\":52161:52281   */\n      iszero\n      tag_986\n      jumpi\n        /* \"#utility.yul\":52232:52271   */\n      tag_987\n        /* \"#utility.yul\":52269:52270   */\n      0x00\n        /* \"#utility.yul\":52262:52267   */\n      dup3\n        /* \"#utility.yul\":52232:52271   */\n      tag_487\n      jump\t// in\n    tag_987:\n        /* \"#utility.yul\":52205:52206   */\n      0x01\n        /* \"#utility.yul\":52198:52203   */\n      dup2\n        /* \"#utility.yul\":52194:52207   */\n      add\n        /* \"#utility.yul\":52185:52207   */\n      swap1\n      pop\n        /* \"#utility.yul\":52161:52281   */\n      jump(tag_984)\n    tag_986:\n        /* \"#utility.yul\":52101:52287   */\n      pop\n      pop\n      jump\t// out\n        /* \"#utility.yul\":52293:52836   */\n    tag_489:\n        /* \"#utility.yul\":52394:52396   */\n      0x1f\n        /* \"#utility.yul\":52389:52392   */\n      dup3\n        /* \"#utility.yul\":52386:52397   */\n      gt\n        /* \"#utility.yul\":52383:52829   */\n      iszero\n      tag_989\n      jumpi\n        /* \"#utility.yul\":52428:52466   */\n      tag_990\n        /* \"#utility.yul\":52460:52465   */\n      dup2\n        /* \"#utility.yul\":52428:52466   */\n      tag_448\n      jump\t// in\n    tag_990:\n        /* \"#utility.yul\":52512:52541   */\n      tag_991\n        /* \"#utility.yul\":52530:52540   */\n      dup5\n        /* \"#utility.yul\":52512:52541   */\n      tag_481\n      jump\t// in\n    tag_991:\n        /* \"#utility.yul\":52502:52510   */\n      dup2\n        /* \"#utility.yul\":52498:52542   */\n      add\n        /* \"#utility.yul\":52695:52697   */\n      0x20\n        /* \"#utility.yul\":52683:52693   */\n      dup6\n        /* \"#utility.yul\":52680:52698   */\n      lt\n        /* \"#utility.yul\":52677:52726   */\n      iszero\n      tag_992\n      jumpi\n        /* \"#utility.yul\":52716:52724   */\n      dup2\n        /* \"#utility.yul\":52701:52724   */\n      swap1\n      pop\n        /* \"#utility.yul\":52677:52726   */\n    tag_992:\n        /* \"#utility.yul\":52739:52819   */\n      tag_993\n        /* \"#utility.yul\":52795:52817   */\n      tag_994\n        /* \"#utility.yul\":52813:52816   */\n      dup6\n        /* \"#utility.yul\":52795:52817   */\n      tag_481\n      jump\t// in\n    tag_994:\n        /* \"#utility.yul\":52785:52793   */\n      dup4\n        /* \"#utility.yul\":52781:52818   */\n      add\n        /* \"#utility.yul\":52768:52779   */\n      dup3\n        /* \"#utility.yul\":52739:52819   */\n      tag_488\n      jump\t// in\n    tag_993:\n        /* \"#utility.yul\":52398:52829   */\n      pop\n      pop\n        /* \"#utility.yul\":52383:52829   */\n    tag_989:\n        /* \"#utility.yul\":52293:52836   */\n      pop\n      pop\n      pop\n      jump\t// out\n        /* \"#utility.yul\":52842:52959   */\n    tag_490:\n        /* \"#utility.yul\":52896:52904   */\n      0x00\n        /* \"#utility.yul\":52946:52951   */\n      dup3\n        /* \"#utility.yul\":52940:52944   */\n      dup3\n        /* \"#utility.yul\":52936:52952   */\n      shr\n        /* \"#utility.yul\":52915:52952   */\n      swap1\n      pop\n        /* \"#utility.yul\":52842:52959   */\n      swap3\n      swap2\n      pop\n      pop\n      jump\t// out\n        /* \"#utility.yul\":52965:53134   */\n    tag_491:\n        /* \"#utility.yul\":53009:53015   */\n      0x00\n        /* \"#utility.yul\":53042:53093   */\n      tag_997\n        /* \"#utility.yul\":53090:53091   */\n      0x00\n        /* \"#utility.yul\":53086:53092   */\n      not\n        /* \"#utility.yul\":53078:53083   */\n      dup5\n        /* \"#utility.yul\":53075:53076   */\n      0x08\n        /* \"#utility.yul\":53071:53084   */\n      mul\n        /* \"#utility.yul\":53042:53093   */\n      tag_490\n      jump\t// in\n    tag_997:\n        /* \"#utility.yul\":53038:53094   */\n      not\n        /* \"#utility.yul\":53123:53127   */\n      dup1\n        /* \"#utility.yul\":53117:53121   */\n      dup4\n        /* \"#utility.yul\":53113:53128   */\n      and\n        /* \"#utility.yul\":53103:53128   */\n      swap2\n      pop\n        /* \"#utility.yul\":53016:53134   */\n      pop\n        /* \"#utility.yul\":52965:53134   */\n      swap3\n      swap2\n      pop\n      pop\n      jump\t// out\n        /* \"#utility.yul\":53139:53434   */\n    tag_492:\n        /* \"#utility.yul\":53215:53219   */\n      0x00\n        /* \"#utility.yul\":53361:53390   */\n      tag_999\n        /* \"#utility.yul\":53386:53389   */\n      dup4\n        /* \"#utility.yul\":53380:53384   */\n      dup4\n        /* \"#utility.yul\":53361:53390   */\n      tag_491\n      jump\t// in\n    tag_999:\n        /* \"#utility.yul\":53353:53390   */\n      swap2\n      pop\n        /* \"#utility.yul\":53423:53426   */\n      dup3\n        /* \"#utility.yul\":53420:53421   */\n      0x02\n        /* \"#utility.yul\":53416:53427   */\n      mul\n        /* \"#utility.yul\":53410:53414   */\n      dup3\n        /* \"#utility.yul\":53407:53428   */\n      or\n        /* \"#utility.yul\":53399:53428   */\n      swap1\n      pop\n        /* \"#utility.yul\":53139:53434   */\n      swap3\n      swap2\n      pop\n      pop\n      jump\t// out\n        /* \"#utility.yul\":53439:54834   */\n    tag_375:\n        /* \"#utility.yul\":53556:53593   */\n      tag_1001\n        /* \"#utility.yul\":53589:53592   */\n      dup3\n        /* \"#utility.yul\":53556:53593   */\n      tag_393\n      jump\t// in\n    tag_1001:\n        /* \"#utility.yul\":53658:53676   */\n      0xffffffffffffffff\n        /* \"#utility.yul\":53650:53656   */\n      dup2\n        /* \"#utility.yul\":53647:53677   */\n      gt\n        /* \"#utility.yul\":53644:53700   */\n      iszero\n      tag_1002\n      jumpi\n        /* \"#utility.yul\":53680:53698   */\n      tag_1003\n      tag_233\n      jump\t// in\n    tag_1003:\n        /* \"#utility.yul\":53644:53700   */\n    tag_1002:\n        /* \"#utility.yul\":53724:53762   */\n      tag_1004\n        /* \"#utility.yul\":53756:53760   */\n      dup3\n        /* \"#utility.yul\":53750:53761   */\n      sload\n        /* \"#utility.yul\":53724:53762   */\n      tag_219\n      jump\t// in\n    tag_1004:\n        /* \"#utility.yul\":53809:53876   */\n      tag_1005\n        /* \"#utility.yul\":53869:53875   */\n      dup3\n        /* \"#utility.yul\":53861:53867   */\n      dup3\n        /* \"#utility.yul\":53855:53859   */\n      dup6\n        /* \"#utility.yul\":53809:53876   */\n      tag_489\n      jump\t// in\n    tag_1005:\n        /* \"#utility.yul\":53903:53904   */\n      0x00\n        /* \"#utility.yul\":53927:53931   */\n      0x20\n        /* \"#utility.yul\":53914:53931   */\n      swap1\n      pop\n        /* \"#utility.yul\":53959:53961   */\n      0x1f\n        /* \"#utility.yul\":53951:53957   */\n      dup4\n        /* \"#utility.yul\":53948:53962   */\n      gt\n        /* \"#utility.yul\":53976:53977   */\n      0x01\n        /* \"#utility.yul\":53971:54589   */\n      dup2\n      eq\n      tag_1007\n      jumpi\n        /* \"#utility.yul\":54633:54634   */\n      0x00\n        /* \"#utility.yul\":54650:54656   */\n      dup5\n        /* \"#utility.yul\":54647:54724   */\n      iszero\n      tag_1008\n      jumpi\n        /* \"#utility.yul\":54699:54708   */\n      dup3\n        /* \"#utility.yul\":54694:54697   */\n      dup8\n        /* \"#utility.yul\":54690:54709   */\n      add\n        /* \"#utility.yul\":54684:54710   */\n      mload\n        /* \"#utility.yul\":54675:54710   */\n      swap1\n      pop\n        /* \"#utility.yul\":54647:54724   */\n    tag_1008:\n        /* \"#utility.yul\":54750:54817   */\n      tag_1009\n        /* \"#utility.yul\":54810:54816   */\n      dup6\n        /* \"#utility.yul\":54803:54808   */\n      dup3\n        /* \"#utility.yul\":54750:54817   */\n      tag_492\n      jump\t// in\n    tag_1009:\n        /* \"#utility.yul\":54744:54748   */\n      dup7\n        /* \"#utility.yul\":54737:54818   */\n      sstore\n        /* \"#utility.yul\":54606:54828   */\n      pop\n        /* \"#utility.yul\":53941:54828   */\n      jump(tag_1006)\n        /* \"#utility.yul\":53971:54589   */\n    tag_1007:\n        /* \"#utility.yul\":54023:54027   */\n      0x1f\n        /* \"#utility.yul\":54019:54028   */\n      not\n        /* \"#utility.yul\":54011:54017   */\n      dup5\n        /* \"#utility.yul\":54007:54029   */\n      and\n        /* \"#utility.yul\":54057:54094   */\n      tag_1010\n        /* \"#utility.yul\":54089:54093   */\n      dup7\n        /* \"#utility.yul\":54057:54094   */\n      tag_448\n      jump\t// in\n    tag_1010:\n        /* \"#utility.yul\":54116:54117   */\n      0x00\n        /* \"#utility.yul\":54130:54338   */\n    tag_1011:\n        /* \"#utility.yul\":54144:54151   */\n      dup3\n        /* \"#utility.yul\":54141:54142   */\n      dup2\n        /* \"#utility.yul\":54138:54152   */\n      lt\n        /* \"#utility.yul\":54130:54338   */\n      iszero\n      tag_1013\n      jumpi\n        /* \"#utility.yul\":54223:54232   */\n      dup5\n        /* \"#utility.yul\":54218:54221   */\n      dup10\n        /* \"#utility.yul\":54214:54233   */\n      add\n        /* \"#utility.yul\":54208:54234   */\n      mload\n        /* \"#utility.yul\":54200:54206   */\n      dup3\n        /* \"#utility.yul\":54193:54235   */\n      sstore\n        /* \"#utility.yul\":54274:54275   */\n      0x01\n        /* \"#utility.yul\":54266:54272   */\n      dup3\n        /* \"#utility.yul\":54262:54276   */\n      add\n        /* \"#utility.yul\":54252:54276   */\n      swap2\n      pop\n        /* \"#utility.yul\":54321:54323   */\n      0x20\n        /* \"#utility.yul\":54310:54319   */\n      dup6\n        /* \"#utility.yul\":54306:54324   */\n      add\n        /* \"#utility.yul\":54293:54324   */\n      swap5\n      pop\n        /* \"#utility.yul\":54167:54171   */\n      0x20\n        /* \"#utility.yul\":54164:54165   */\n      dup2\n        /* \"#utility.yul\":54160:54172   */\n      add\n        /* \"#utility.yul\":54155:54172   */\n      swap1\n      pop\n        /* \"#utility.yul\":54130:54338   */\n      jump(tag_1011)\n    tag_1013:\n        /* \"#utility.yul\":54366:54372   */\n      dup7\n        /* \"#utility.yul\":54357:54364   */\n      dup4\n        /* \"#utility.yul\":54354:54373   */\n      lt\n        /* \"#utility.yul\":54351:54530   */\n      iszero\n      tag_1014\n      jumpi\n        /* \"#utility.yul\":54424:54433   */\n      dup5\n        /* \"#utility.yul\":54419:54422   */\n      dup10\n        /* \"#utility.yul\":54415:54434   */\n      add\n        /* \"#utility.yul\":54409:54435   */\n      mload\n        /* \"#utility.yul\":54467:54515   */\n      tag_1015\n        /* \"#utility.yul\":54509:54513   */\n      0x1f\n        /* \"#utility.yul\":54501:54507   */\n      dup10\n        /* \"#utility.yul\":54497:54514   */\n      and\n        /* \"#utility.yul\":54486:54495   */\n      dup3\n        /* \"#utility.yul\":54467:54515   */\n      tag_491\n      jump\t// in\n    tag_1015:\n        /* \"#utility.yul\":54459:54465   */\n      dup4\n        /* \"#utility.yul\":54452:54516   */\n      sstore\n        /* \"#utility.yul\":54374:54530   */\n      pop\n        /* \"#utility.yul\":54351:54530   */\n    tag_1014:\n        /* \"#utility.yul\":54576:54577   */\n      0x01\n        /* \"#utility.yul\":54572:54573   */\n      0x02\n        /* \"#utility.yul\":54564:54570   */\n      dup9\n        /* \"#utility.yul\":54560:54574   */\n      mul\n        /* \"#utility.yul\":54556:54578   */\n      add\n        /* \"#utility.yul\":54550:54554   */\n      dup9\n        /* \"#utility.yul\":54543:54579   */\n      sstore\n        /* \"#utility.yul\":53978:54589   */\n      pop\n      pop\n      pop\n        /* \"#utility.yul\":53941:54828   */\n    tag_1006:\n      pop\n        /* \"#utility.yul\":53531:54834   */\n      pop\n      pop\n      pop\n        /* \"#utility.yul\":53439:54834   */\n      pop\n      pop\n      jump\t// out\n    stop\n    data_0cd1ae3e4dc389c213191dc2019beca568e06b7e2e62f57ac23af9c3de086300 4920636572746966792074686174204920616d20746865206c6963656e736f72206f662074686520766964656f2061677265656d656e7420616e6420616772656520746f20616c6c207465726d7320646566696e656420696e207468652061677265656d656e742e\n    data_947495800a19c75b349554c37b44e0820cfe4e72bb09a80ed436e10673d6e5c6 4920636572746966792074686174204920616d20746865206c6963656e736565206f662074686520766964656f2061677265656d656e7420616e6420616772656520746f20616c6c207465726d7320646566696e656420696e207468652061677265656d656e742e\n\n    auxdata: 0xa26469706673582212205afc77897a1eefee194b9bae7fcb14c9ce6a7eaa16879f0f32a61e41df5b7e3064736f6c63430008190033\n}\n",
				"bytecode": {
					"linkReferences": {},
					"object": "608060405234801561000f575f80fd5b50604051613ca7380380613ca7833981810160405281019061003191906100d4565b805f806101000a81548173ffffffffffffffffffffffffffffffffffffffff021916908373ffffffffffffffffffffffffffffffffffffffff160217905550506100ff565b5f80fd5b5f73ffffffffffffffffffffffffffffffffffffffff82169050919050565b5f6100a38261007a565b9050919050565b6100b381610099565b81146100bd575f80fd5b50565b5f815190506100ce816100aa565b92915050565b5f602082840312156100e9576100e8610076565b5b5f6100f6848285016100c0565b91505092915050565b613b9b8061010c5f395ff3fe608060405260043610610149575f3560e01c806376b1d966116100b5578063b033c13a1161006e578063b033c13a146104f3578063b6c00a821461052f578063e946af591461056b578063f2fde38b14610593578063fa540801146105bb578063fe744a39146105f757610149565b806376b1d966146103b157806396fcc1ae146103d9578063976662b01461041557806397aba7f91461045157806399911abe1461048d578063a7bb5803146104b557610149565b806345402a4d1161010757806345402a4d1461028357806355b30266146102bf5780635867f3a8146102e757806366527f1c1461032357806370d8677f1461034d578063734514391461037557610149565b8062f23fc11461014d5780630e15c62a146101695780631e7fd268146101935780632437e7eb146101cf5780633e340e2d1461020b57806341befbd114610247575b5f80fd5b61016760048036038101906101629190612239565b61061f565b005b348015610174575f80fd5b5061017d6109ec565b60405161018a9190612305565b60405180910390f35b34801561019e575f80fd5b506101b960048036038101906101b49190612325565b610a08565b6040516101c6919061238f565b60405180910390f35b3480156101da575f80fd5b506101f560048036038101906101f09190612446565b610abd565b60405161020291906124b8565b60405180910390f35b348015610216575f80fd5b50610231600480360381019061022c91906124d1565b610b09565b60405161023e9190612538565b60405180910390f35b348015610252575f80fd5b5061026d60048036038101906102689190612325565b610b4f565b60405161027a9190612305565b60405180910390f35b34801561028e575f80fd5b506102a960048036038101906102a4919061257b565b610c4f565b6040516102b691906126b6565b60405180910390f35b3480156102ca575f80fd5b506102e560048036038101906102e091906126d6565b610e4e565b005b3480156102f2575f80fd5b5061030d60048036038101906103089190612701565b610f32565b60405161031a919061279b565b60405180910390f35b34801561032e575f80fd5b50610337610f90565b6040516103449190612305565b60405180910390f35b348015610358575f80fd5b50610373600480360381019061036e91906127b4565b610fac565b005b348015610380575f80fd5b5061039b60048036038101906103969190612834565b6111ff565b6040516103a891906124b8565b60405180910390f35b3480156103bc575f80fd5b506103d760048036038101906103d2919061289c565b61124b565b005b3480156103e4575f80fd5b506103ff60048036038101906103fa9190612938565b6114b0565b60405161040c919061279b565b60405180910390f35b348015610420575f80fd5b5061043b600480360381019061043691906129d4565b61150e565b6040516104489190612305565b60405180910390f35b34801561045c575f80fd5b5061047760048036038101906104729190612a3c565b611807565b6040516104849190612538565b60405180910390f35b348015610498575f80fd5b506104b360048036038101906104ae9190612325565b611871565b005b3480156104c0575f80fd5b506104db60048036038101906104d69190612a96565b6119e0565b6040516104ea93929190612af8565b60405180910390f35b3480156104fe575f80fd5b5061051960048036038101906105149190612325565b611a45565b6040516105269190612538565b60405180910390f35b34801561053a575f80fd5b5061055560048036038101906105509190612325565b611add565b6040516105629190612b3c565b60405180910390f35b348015610576575f80fd5b50610591600480360381019061058c91906126d6565b611b56565b005b34801561059e575f80fd5b506105b960048036038101906105b491906126d6565b611c3a565b005b3480156105c6575f80fd5b506105e160048036038101906105dc9190612b55565b611d09565b6040516105ee91906124b8565b60405180910390f35b348015610602575f80fd5b5061061d60048036038101906106189190612b80565b611d38565b005b8260065f8281526020019081526020015f205f9054906101000a900460ff1661067d576040517f08c379a000000000000000000000000000000000000000000000000000000000815260040161067490612c9f565b60405180910390fd5b3073ffffffffffffffffffffffffffffffffffffffff1663b6c00a82856040518263ffffffff1660e01b81526004016106b69190612ccc565b602060405180830381865afa1580156106d1573d5f803e3d5ffd5b505050506040513d601f19601f820116820180604052508101906106f59190612cf9565b341015610737576040517f08c379a000000000000000000000000000000000000000000000000000000000815260040161072e90612d6e565b60405180910390fd5b3073ffffffffffffffffffffffffffffffffffffffff16635867f3a8338686866040518563ffffffff1660e01b81526004016107769493929190612dde565b602060405180830381865afa158015610791573d5f803e3d5ffd5b505050506040513d601f19601f820116820180604052508101906107b59190612e52565b6107f4576040517f08c379a00000000000000000000000000000000000000000000000000000000081526004016107eb90612ec7565b60405180910390fd5b5f3073ffffffffffffffffffffffffffffffffffffffff1663b6c00a82866040518263ffffffff1660e01b815260040161082e9190612ccc565b602060405180830381865afa158015610849573d5f803e3d5ffd5b505050506040513d601f19601f8201168201806040525081019061086d9190612cf9565b90505f3073ffffffffffffffffffffffffffffffffffffffff16631e7fd268876040518263ffffffff1660e01b81526004016108a99190612ccc565b602060405180830381865afa1580156108c4573d5f803e3d5ffd5b505050506040513d601f19601f820116820180604052508101906108e89190612ef9565b90505f8173ffffffffffffffffffffffffffffffffffffffff168360405161090f90612f51565b5f6040518083038185875af1925050503d805f8114610949576040519150601f19603f3d011682016040523d82523d5f602084013e61094e565b606091505b5050905080610992576040517f08c379a000000000000000000000000000000000000000000000000000000000815260040161098990612faf565b60405180910390fd5b42600a5f8981526020019081526020015f205f3373ffffffffffffffffffffffffffffffffffffffff1673ffffffffffffffffffffffffffffffffffffffff1681526020019081526020015f208190555050505050505050565b6040518060a0016040528060688152602001613afe6068913981565b5f8160065f8281526020019081526020015f205f9054906101000a900460ff16610a67576040517f08c379a0000000000000000000000000000000000000000000000000000000008152600401610a5e90612c9f565b60405180910390fd5b600260075f8581526020019081526020015f20604051610a8791906130c6565b90815260200160405180910390205f9054906101000a900473ffffffffffffffffffffffffffffffffffffffff16915050919050565b5f826040518060a0016040528060688152602001613a966068913983604051602001610aeb9392919061312c565b60405160208183030381529060405280519060200120905092915050565b5f600282604051610b1a9190613160565b90815260200160405180910390205f9054906101000a900473ffffffffffffffffffffffffffffffffffffffff169050919050565b60608160065f8281526020019081526020015f205f9054906101000a900460ff16610baf576040517f08c379a0000000000000000000000000000000000000000000000000000000008152600401610ba690612c9f565b60405180910390fd5b60075f8481526020019081526020015f208054610bcb90612ffa565b80601f0160208091040260200160405190810160405280929190818152602001828054610bf790612ffa565b8015610c425780601f10610c1957610100808354040283529160200191610c42565b820191905f5260205f20905b815481529060010190602001808311610c2557829003601f168201915b5050505050915050919050565b6060825f73ffffffffffffffffffffffffffffffffffffffff16600282604051610c799190613160565b90815260200160405180910390205f9054906101000a900473ffffffffffffffffffffffffffffffffffffffff1673ffffffffffffffffffffffffffffffffffffffff1603610cfd576040517f08c379a0000000000000000000000000000000000000000000000000000000008152600401610cf4906131c0565b60405180910390fd5b5f600385604051610d0e9190613160565b90815260200160405180910390205467ffffffffffffffff811115610d3657610d35612115565b5b604051908082528060200260200182016040528015610d645781602001602082028036833780820191505090505b5090505f5b600386604051610d799190613160565b908152602001604051809103902054811015610e42575f600487604051610da09190613160565b90815260200160405180910390205f8381526020019081526020015f205490505f600a5f8381526020019081526020015f205f8873ffffffffffffffffffffffffffffffffffffffff1673ffffffffffffffffffffffffffffffffffffffff1681526020019081526020015f205414610e345780838381518110610e2757610e266131de565b5b6020026020010181815250505b508080600101915050610d69565b50809250505092915050565b3373ffffffffffffffffffffffffffffffffffffffff165f8054906101000a900473ffffffffffffffffffffffffffffffffffffffff1673ffffffffffffffffffffffffffffffffffffffff1614610edb576040517f08c379a0000000000000000000000000000000000000000000000000000000008152600401610ed290613255565b60405180910390fd5b6001805f8373ffffffffffffffffffffffffffffffffffffffff1673ffffffffffffffffffffffffffffffffffffffff1681526020019081526020015f205f6101000a81548160ff02191690831515021790555050565b5f80610f3e85856111ff565b90505f610f4a82611d09565b90508673ffffffffffffffffffffffffffffffffffffffff16610f6d8286611807565b73ffffffffffffffffffffffffffffffffffffffff161492505050949350505050565b6040518060a0016040528060688152602001613a966068913981565b835f73ffffffffffffffffffffffffffffffffffffffff16600282604051610fd49190613160565b90815260200160405180910390205f9054906101000a900473ffffffffffffffffffffffffffffffffffffffff1673ffffffffffffffffffffffffffffffffffffffff1603611058576040517f08c379a000000000000000000000000000000000000000000000000000000000815260040161104f906131c0565b60405180910390fd5b8360015f8273ffffffffffffffffffffffffffffffffffffffff1673ffffffffffffffffffffffffffffffffffffffff1681526020019081526020015f205f9054906101000a900460ff166110e2576040517f08c379a00000000000000000000000000000000000000000000000000000000081526004016110d990612c9f565b60405180910390fd5b3373ffffffffffffffffffffffffffffffffffffffff166002876040516111099190613160565b90815260200160405180910390205f9054906101000a900473ffffffffffffffffffffffffffffffffffffffff1673ffffffffffffffffffffffffffffffffffffffff161461118d576040517f08c379a0000000000000000000000000000000000000000000000000000000008152600401611184906132bd565b60405180910390fd5b60055f8481526020019081526020015f205f9054906101000a900460ff16156111eb576040517f08c379a00000000000000000000000000000000000000000000000000000000081526004016111e290613325565b60405180910390fd5b6111f786868686611f2f565b505050505050565b5f826040518060a0016040528060688152602001613afe606891398360405160200161122d9392919061335a565b60405160208183030381529060405280519060200120905092915050565b3373ffffffffffffffffffffffffffffffffffffffff165f8054906101000a900473ffffffffffffffffffffffffffffffffffffffff1673ffffffffffffffffffffffffffffffffffffffff16146112d8576040517f08c379a00000000000000000000000000000000000000000000000000000000081526004016112cf90613255565b60405180910390fd5b5f8490505f81511161131f576040517f08c379a0000000000000000000000000000000000000000000000000000000008152600401611316906133dc565b60405180910390fd5b3073ffffffffffffffffffffffffffffffffffffffff166396fcc1ae858786866040518563ffffffff1660e01b815260040161135e949392919061344c565b602060405180830381865afa158015611379573d5f803e3d5ffd5b505050506040513d601f19601f8201168201806040525081019061139d9190612e52565b6113dc576040517f08c379a00000000000000000000000000000000000000000000000000000000081526004016113d3906134e7565b60405180910390fd5b5f73ffffffffffffffffffffffffffffffffffffffff166002866040516114039190613160565b90815260200160405180910390205f9054906101000a900473ffffffffffffffffffffffffffffffffffffffff1673ffffffffffffffffffffffffffffffffffffffff16036114a9578360028660405161145d9190613160565b90815260200160405180910390205f6101000a81548173ffffffffffffffffffffffffffffffffffffffff021916908373ffffffffffffffffffffffffffffffffffffffff1602179055505b5050505050565b5f806114bc8585610abd565b90505f6114c882611d09565b90508673ffffffffffffffffffffffffffffffffffffffff166114eb8286611807565b73ffffffffffffffffffffffffffffffffffffffff161492505050949350505050565b60608260065f8281526020019081526020015f205f9054906101000a900460ff1661156e576040517f08c379a000000000000000000000000000000000000000000000000000000000815260040161156590612c9f565b60405180910390fd5b5f600a5f8681526020019081526020015f205f8573ffffffffffffffffffffffffffffffffffffffff1673ffffffffffffffffffffffffffffffffffffffff1681526020019081526020015f2054036115fc576040517f08c379a00000000000000000000000000000000000000000000000000000000081526004016115f39061354f565b60405180910390fd5b5f60075f8681526020019081526020015f20805461161990612ffa565b80601f016020809104026020016040519081016040528092919081815260200182805461164590612ffa565b80156116905780601f1061166757610100808354040283529160200191611690565b820191905f5260205f20905b81548152906001019060200180831161167357829003601f168201915b505050505090505f6002826040516116a89190613160565b90815260200160405180910390205f9054906101000a900473ffffffffffffffffffffffffffffffffffffffff1690505f60095f8881526020019081526020015f205f9054906101000a900473ffffffffffffffffffffffffffffffffffffffff1690505f60085f8981526020019081526020015f205490505f600a5f8a81526020019081526020015f205f8973ffffffffffffffffffffffffffffffffffffffff1673ffffffffffffffffffffffffffffffffffffffff1681526020019081526020015f205490505f8390508073ffffffffffffffffffffffffffffffffffffffff1663483ced9887878c87876040518663ffffffff1660e01b81526004016117b695949392919061356d565b5f60405180830381865afa1580156117d0573d5f803e3d5ffd5b505050506040513d5f823e3d601f19601f820116820180604052508101906117f89190613633565b97505050505050505092915050565b5f805f80611814856119e0565b9250925092506001868285856040515f815260200160405260405161183c949392919061367a565b6020604051602081039080840390855afa15801561185c573d5f803e3d5ffd5b50505060206040510351935050505092915050565b8060065f8281526020019081526020015f205f9054906101000a900460ff166118cf576040517f08c379a00000000000000000000000000000000000000000000000000000000081526004016118c690612c9f565b60405180910390fd5b3373ffffffffffffffffffffffffffffffffffffffff163073ffffffffffffffffffffffffffffffffffffffff16631e7fd268846040518263ffffffff1660e01b815260040161191f9190612ccc565b602060405180830381865afa15801561193a573d5f803e3d5ffd5b505050506040513d601f19601f8201168201806040525081019061195e9190612ef9565b73ffffffffffffffffffffffffffffffffffffffff16146119b4576040517f08c379a00000000000000000000000000000000000000000000000000000000081526004016119ab906132bd565b60405180910390fd5b5f60065f8481526020019081526020015f205f6101000a81548160ff0219169083151502179055505050565b5f805f6041845114611a27576040517f08c379a0000000000000000000000000000000000000000000000000000000008152600401611a1e90613707565b60405180910390fd5b602084015192506040840151915060608401515f1a90509193909250565b5f8160065f8281526020019081526020015f205f9054906101000a900460ff16611aa4576040517f08c379a0000000000000000000000000000000000000000000000000000000008152600401611a9b90612c9f565b60405180910390fd5b60095f8481526020019081526020015f205f9054906101000a900473ffffffffffffffffffffffffffffffffffffffff16915050919050565b5f8160065f8281526020019081526020015f205f9054906101000a900460ff16611b3c576040517f08c379a0000000000000000000000000000000000000000000000000000000008152600401611b3390612c9f565b60405180910390fd5b60085f8481526020019081526020015f2054915050919050565b3373ffffffffffffffffffffffffffffffffffffffff165f8054906101000a900473ffffffffffffffffffffffffffffffffffffffff1673ffffffffffffffffffffffffffffffffffffffff1614611be3576040517f08c379a0000000000000000000000000000000000000000000000000000000008152600401611bda90613255565b60405180910390fd5b5f60015f8373ffffffffffffffffffffffffffffffffffffffff1673ffffffffffffffffffffffffffffffffffffffff1681526020019081526020015f205f6101000a81548160ff02191690831515021790555050565b3373ffffffffffffffffffffffffffffffffffffffff165f8054906101000a900473ffffffffffffffffffffffffffffffffffffffff1673ffffffffffffffffffffffffffffffffffffffff1614611cc7576040517f08c379a0000000000000000000000000000000000000000000000000000000008152600401611cbe90613255565b60405180910390fd5b805f806101000a81548173ffffffffffffffffffffffffffffffffffffffff021916908373ffffffffffffffffffffffffffffffffffffffff16021790555050565b5f81604051602001611d1b919061378f565b604051602081830303815290604052805190602001209050919050565b3373ffffffffffffffffffffffffffffffffffffffff165f8054906101000a900473ffffffffffffffffffffffffffffffffffffffff1673ffffffffffffffffffffffffffffffffffffffff1614611dc5576040517f08c379a0000000000000000000000000000000000000000000000000000000008152600401611dbc90613255565b60405180910390fd5b8260015f8273ffffffffffffffffffffffffffffffffffffffff1673ffffffffffffffffffffffffffffffffffffffff1681526020019081526020015f205f9054906101000a900460ff16611e4f576040517f08c379a0000000000000000000000000000000000000000000000000000000008152600401611e4690612c9f565b60405180910390fd5b60055f8381526020019081526020015f205f9054906101000a900460ff1615611ead576040517f08c379a0000000000000000000000000000000000000000000000000000000008152600401611ea490613325565b60405180910390fd5b3073ffffffffffffffffffffffffffffffffffffffff166376b1d966898989896040518563ffffffff1660e01b8152600401611eec94939291906137b4565b5f604051808303815f87803b158015611f03575f80fd5b505af1158015611f15573d5f803e3d5ffd5b50505050611f2588858585611f2f565b5050505050505050565b600160055f8381526020019081526020015f205f6101000a81548160ff021916908315150217905550600160065f8381526020019081526020015f205f6101000a81548160ff0219169083151502179055505f600385604051611f929190613160565b908152602001604051809103902054905081600486604051611fb49190613160565b90815260200160405180910390205f8381526020019081526020015f2081905550600181611fe29190613832565b600386604051611ff29190613160565b9081526020016040518091039020819055508460075f8481526020019081526020015f20908161202291906139c6565b508260085f8481526020019081526020015f20819055508360095f8481526020019081526020015f205f6101000a81548173ffffffffffffffffffffffffffffffffffffffff021916908373ffffffffffffffffffffffffffffffffffffffff1602179055505050505050565b5f604051905090565b5f80fd5b5f80fd5b5f819050919050565b6120b2816120a0565b81146120bc575f80fd5b50565b5f813590506120cd816120a9565b92915050565b6120dc816120a0565b81146120e6575f80fd5b50565b5f813590506120f7816120d3565b92915050565b5f80fd5b5f80fd5b5f601f19601f8301169050919050565b7f4e487b71000000000000000000000000000000000000000000000000000000005f52604160045260245ffd5b61214b82612105565b810181811067ffffffffffffffff8211171561216a57612169612115565b5b80604052505050565b5f61217c61208f565b90506121888282612142565b919050565b5f67ffffffffffffffff8211156121a7576121a6612115565b5b6121b082612105565b9050602081019050919050565b828183375f83830152505050565b5f6121dd6121d88461218d565b612173565b9050828152602081018484840111156121f9576121f8612101565b5b6122048482856121bd565b509392505050565b5f82601f8301126122205761221f6120fd565b5b81356122308482602086016121cb565b91505092915050565b5f805f606084860312156122505761224f612098565b5b5f61225d868287016120bf565b935050602061226e868287016120e9565b925050604084013567ffffffffffffffff81111561228f5761228e61209c565b5b61229b8682870161220c565b9150509250925092565b5f81519050919050565b5f82825260208201905092915050565b8281835e5f83830152505050565b5f6122d7826122a5565b6122e181856122af565b93506122f18185602086016122bf565b6122fa81612105565b840191505092915050565b5f6020820190508181035f83015261231d81846122cd565b905092915050565b5f6020828403121561233a57612339612098565b5b5f612347848285016120bf565b91505092915050565b5f73ffffffffffffffffffffffffffffffffffffffff82169050919050565b5f61237982612350565b9050919050565b6123898161236f565b82525050565b5f6020820190506123a25f830184612380565b92915050565b5f67ffffffffffffffff8211156123c2576123c1612115565b5b6123cb82612105565b9050602081019050919050565b5f6123ea6123e5846123a8565b612173565b90508281526020810184848401111561240657612405612101565b5b6124118482856121bd565b509392505050565b5f82601f83011261242d5761242c6120fd565b5b813561243d8482602086016123d8565b91505092915050565b5f806040838503121561245c5761245b612098565b5b5f83013567ffffffffffffffff8111156124795761247861209c565b5b61248585828601612419565b9250506020612496858286016120e9565b9150509250929050565b5f819050919050565b6124b2816124a0565b82525050565b5f6020820190506124cb5f8301846124a9565b92915050565b5f602082840312156124e6576124e5612098565b5b5f82013567ffffffffffffffff8111156125035761250261209c565b5b61250f84828501612419565b91505092915050565b5f61252282612350565b9050919050565b61253281612518565b82525050565b5f60208201905061254b5f830184612529565b92915050565b61255a81612518565b8114612564575f80fd5b50565b5f8135905061257581612551565b92915050565b5f806040838503121561259157612590612098565b5b5f83013567ffffffffffffffff8111156125ae576125ad61209c565b5b6125ba85828601612419565b92505060206125cb85828601612567565b9150509250929050565b5f81519050919050565b5f82825260208201905092915050565b5f819050602082019050919050565b5f819050919050565b5f61262161261c612617846120a0565b6125fe565b6120a0565b9050919050565b61263181612607565b82525050565b5f6126428383612628565b60208301905092915050565b5f602082019050919050565b5f612664826125d5565b61266e81856125df565b9350612679836125ef565b805f5b838110156126a95781516126908882612637565b975061269b8361264e565b92505060018101905061267c565b5085935050505092915050565b5f6020820190508181035f8301526126ce818461265a565b905092915050565b5f602082840312156126eb576126ea612098565b5b5f6126f884828501612567565b91505092915050565b5f805f806080858703121561271957612718612098565b5b5f61272687828801612567565b9450506020612737878288016120bf565b9350506040612748878288016120e9565b925050606085013567ffffffffffffffff8111156127695761276861209c565b5b6127758782880161220c565b91505092959194509250565b5f8115159050919050565b61279581612781565b82525050565b5f6020820190506127ae5f83018461278c565b92915050565b5f805f80608085870312156127cc576127cb612098565b5b5f85013567ffffffffffffffff8111156127e9576127e861209c565b5b6127f587828801612419565b945050602061280687828801612567565b9350506040612817878288016120e9565b9250506060612828878288016120bf565b91505092959194509250565b5f806040838503121561284a57612849612098565b5b5f612857858286016120bf565b9250506020612868858286016120e9565b9150509250929050565b61287b8161236f565b8114612885575f80fd5b50565b5f8135905061289681612872565b92915050565b5f805f80608085870312156128b4576128b3612098565b5b5f85013567ffffffffffffffff8111156128d1576128d061209c565b5b6128dd87828801612419565b94505060206128ee87828801612888565b93505060406128ff878288016120e9565b925050606085013567ffffffffffffffff8111156129205761291f61209c565b5b61292c8782880161220c565b91505092959194509250565b5f805f80608085870312156129505761294f612098565b5b5f61295d87828801612567565b945050602085013567ffffffffffffffff81111561297e5761297d61209c565b5b61298a87828801612419565b935050604061299b878288016120e9565b925050606085013567ffffffffffffffff8111156129bc576129bb61209c565b5b6129c88782880161220c565b91505092959194509250565b5f80604083850312156129ea576129e9612098565b5b5f6129f7858286016120bf565b9250506020612a0885828601612567565b9150509250929050565b612a1b816124a0565b8114612a25575f80fd5b50565b5f81359050612a3681612a12565b92915050565b5f8060408385031215612a5257612a51612098565b5b5f612a5f85828601612a28565b925050602083013567ffffffffffffffff811115612a8057612a7f61209c565b5b612a8c8582860161220c565b9150509250929050565b5f60208284031215612aab57612aaa612098565b5b5f82013567ffffffffffffffff811115612ac857612ac761209c565b5b612ad48482850161220c565b91505092915050565b5f60ff82169050919050565b612af281612add565b82525050565b5f606082019050612b0b5f8301866124a9565b612b1860208301856124a9565b612b256040830184612ae9565b949350505050565b612b36816120a0565b82525050565b5f602082019050612b4f5f830184612b2d565b92915050565b5f60208284031215612b6a57612b69612098565b5b5f612b7784828501612a28565b91505092915050565b5f805f805f805f60e0888a031215612b9b57612b9a612098565b5b5f88013567ffffffffffffffff811115612bb857612bb761209c565b5b612bc48a828b01612419565b9750506020612bd58a828b01612888565b9650506040612be68a828b016120e9565b955050606088013567ffffffffffffffff811115612c0757612c0661209c565b5b612c138a828b0161220c565b9450506080612c248a828b01612567565b93505060a0612c358a828b016120e9565b92505060c0612c468a828b016120bf565b91505092959891949750929550565b7f6c6963656e736520646f65736e277420657869737400000000000000000000005f82015250565b5f612c896015836122af565b9150612c9482612c55565b602082019050919050565b5f6020820190508181035f830152612cb681612c7d565b9050919050565b612cc681612607565b82525050565b5f602082019050612cdf5f830184612cbd565b92915050565b5f81519050612cf3816120d3565b92915050565b5f60208284031215612d0e57612d0d612098565b5b5f612d1b84828501612ce5565b91505092915050565b7f6e6f7420656e6f756768206574686572000000000000000000000000000000005f82015250565b5f612d586010836122af565b9150612d6382612d24565b602082019050919050565b5f6020820190508181035f830152612d8581612d4c565b9050919050565b5f81519050919050565b5f82825260208201905092915050565b5f612db082612d8c565b612dba8185612d96565b9350612dca8185602086016122bf565b612dd381612105565b840191505092915050565b5f608082019050612df15f830187612529565b612dfe6020830186612cbd565b612e0b6040830185612b2d565b8181036060830152612e1d8184612da6565b905095945050505050565b612e3181612781565b8114612e3b575f80fd5b50565b5f81519050612e4c81612e28565b92915050565b5f60208284031215612e6757612e66612098565b5b5f612e7484828501612e3e565b91505092915050565b7f696e76616c6964206c6963656e736565207369676e61747572650000000000005f82015250565b5f612eb1601a836122af565b9150612ebc82612e7d565b602082019050919050565b5f6020820190508181035f830152612ede81612ea5565b9050919050565b5f81519050612ef381612872565b92915050565b5f60208284031215612f0e57612f0d612098565b5b5f612f1b84828501612ee5565b91505092915050565b5f81905092915050565b50565b5f612f3c5f83612f24565b9150612f4782612f2e565b5f82019050919050565b5f612f5b82612f31565b9150819050919050565b7f6661696c656420746f2073656e642065746865720000000000000000000000005f82015250565b5f612f996014836122af565b9150612fa482612f65565b602082019050919050565b5f6020820190508181035f830152612fc681612f8d565b9050919050565b7f4e487b71000000000000000000000000000000000000000000000000000000005f52602260045260245ffd5b5f600282049050600182168061301157607f821691505b60208210810361302457613023612fcd565b5b50919050565b5f81905092915050565b5f819050815f5260205f209050919050565b5f815461305281612ffa565b61305c818661302a565b9450600182165f8114613076576001811461308b576130bd565b60ff19831686528115158202860193506130bd565b61309485613034565b5f5b838110156130b557815481890152600182019150602081019050613096565b838801955050505b50505092915050565b5f6130d18284613046565b915081905092915050565b5f6130e6826122a5565b6130f0818561302a565b93506131008185602086016122bf565b80840191505092915050565b5f819050919050565b613126613121826120a0565b61310c565b82525050565b5f61313782866130dc565b915061314382856130dc565b915061314f8284613115565b602082019150819050949350505050565b5f61316b82846130dc565b915081905092915050565b7f766964656f20646f65736e2774206578697374000000000000000000000000005f82015250565b5f6131aa6013836122af565b91506131b582613176565b602082019050919050565b5f6020820190508181035f8301526131d78161319e565b9050919050565b7f4e487b71000000000000000000000000000000000000000000000000000000005f52603260045260245ffd5b7f6f776e657220616363657373206f6e6c790000000000000000000000000000005f82015250565b5f61323f6011836122af565b915061324a8261320b565b602082019050919050565b5f6020820190508181035f83015261326c81613233565b9050919050565b7f696e76616c6964206c6963656e736f72000000000000000000000000000000005f82015250565b5f6132a76010836122af565b91506132b282613273565b602082019050919050565b5f6020820190508181035f8301526132d48161329b565b9050919050565b7f756e617661696c61626c65206c6963656e7365206964000000000000000000005f82015250565b5f61330f6016836122af565b915061331a826132db565b602082019050919050565b5f6020820190508181035f83015261333c81613303565b9050919050565b61335461334f82612607565b61310c565b82525050565b5f6133658286613343565b60208201915061337582856130dc565b91506133818284613115565b602082019150819050949350505050565b7f696e76616c696420766964656f206964000000000000000000000000000000005f82015250565b5f6133c66010836122af565b91506133d182613392565b602082019050919050565b5f6020820190508181035f8301526133f3816133ba565b9050919050565b5f61341461340f61340a84612350565b6125fe565b612350565b9050919050565b5f613425826133fa565b9050919050565b5f6134368261341b565b9050919050565b6134468161342c565b82525050565b5f60808201905061345f5f83018761343d565b818103602083015261347181866122cd565b90506134806040830185612b2d565b81810360608301526134928184612da6565b905095945050505050565b7f696e76616c6964206c6963656e736f72207369676e61747572650000000000005f82015250565b5f6134d1601a836122af565b91506134dc8261349d565b602082019050919050565b5f6020820190508181035f8301526134fe816134c5565b9050919050565b7f696e76616c6964206c6963656e736565000000000000000000000000000000005f82015250565b5f6135396010836122af565b915061354482613505565b602082019050919050565b5f6020820190508181035f8301526135668161352d565b9050919050565b5f60a0820190508181035f83015261358581886122cd565b90506135946020830187612529565b6135a16040830186612529565b6135ae6060830185612b2d565b6135bb6080830184612b2d565b9695505050505050565b5f6135d76135d2846123a8565b612173565b9050828152602081018484840111156135f3576135f2612101565b5b6135fe8482856122bf565b509392505050565b5f82601f83011261361a576136196120fd565b5b815161362a8482602086016135c5565b91505092915050565b5f6020828403121561364857613647612098565b5b5f82015167ffffffffffffffff8111156136655761366461209c565b5b61367184828501613606565b91505092915050565b5f60808201905061368d5f8301876124a9565b61369a6020830186612ae9565b6136a760408301856124a9565b6136b460608301846124a9565b95945050505050565b7f696e76616c6964207369676e6174757265206c656e67746800000000000000005f82015250565b5f6136f16018836122af565b91506136fc826136bd565b602082019050919050565b5f6020820190508181035f83015261371e816136e5565b9050919050565b7f19457468657265756d205369676e6564204d6573736167653a0a3332000000005f82015250565b5f613759601c8361302a565b915061376482613725565b601c82019050919050565b5f819050919050565b613789613784826124a0565b61376f565b82525050565b5f6137998261374d565b91506137a58284613778565b60208201915081905092915050565b5f6080820190508181035f8301526137cc81876122cd565b90506137db6020830186612380565b6137e86040830185612b2d565b81810360608301526137fa8184612da6565b905095945050505050565b7f4e487b71000000000000000000000000000000000000000000000000000000005f52601160045260245ffd5b5f61383c826120a0565b9150613847836120a0565b925082820190508082111561385f5761385e613805565b5b92915050565b5f6020601f8301049050919050565b5f82821b905092915050565b5f600883026138af7fffffffffffffffffffffffffffffffffffffffffffffffffffffffffffffffff82613874565b6138b98683613874565b95508019841693508086168417925050509392505050565b5f819050919050565b6138e383612607565b6138f76138ef826138d1565b848454613880565b825550505050565b5f90565b61390b6138ff565b6139168184846138da565b505050565b5b818110156139395761392e5f82613903565b60018101905061391c565b5050565b601f82111561397e5761394f81613034565b61395884613865565b81016020851015613967578190505b61397b61397385613865565b83018261391b565b50505b505050565b5f82821c905092915050565b5f61399e5f1984600802613983565b1980831691505092915050565b5f6139b6838361398f565b9150826002028217905092915050565b6139cf826122a5565b67ffffffffffffffff8111156139e8576139e7612115565b5b6139f28254612ffa565b6139fd82828561393d565b5f60209050601f831160018114613a2e575f8415613a1c578287015190505b613a2685826139ab565b865550613a8d565b601f198416613a3c86613034565b5f5b82811015613a6357848901518255600182019150602085019450602081019050613a3e565b86831015613a805784890151613a7c601f89168261398f565b8355505b6001600288020188555050505b50505050505056fe4920636572746966792074686174204920616d20746865206c6963656e736f72206f662074686520766964656f2061677265656d656e7420616e6420616772656520746f20616c6c207465726d7320646566696e656420696e207468652061677265656d656e742e4920636572746966792074686174204920616d20746865206c6963656e736565206f662074686520766964656f2061677265656d656e7420616e6420616772656520746f20616c6c207465726d7320646566696e656420696e207468652061677265656d656e742ea26469706673582212205afc77897a1eefee194b9bae7fcb14c9ce6a7eaa16879f0f32a61e41df5b7e3064736f6c63430008190033",
					"opcodes": "PUSH1 0x80 PUSH1 0x40 MSTORE CALLVALUE DUP1 ISZERO PUSH2 0xF JUMPI PUSH0 DUP1 REVERT JUMPDEST POP PUSH1 0x40 MLOAD PUSH2 0x3CA7 CODESIZE SUB DUP1 PUSH2 0x3CA7 DUP4 CODECOPY DUP2 DUP2 ADD PUSH1 0x40 MSTORE DUP2 ADD SWAP1 PUSH2 0x31 SWAP2 SWAP1 PUSH2 0xD4 JUMP JUMPDEST DUP1 PUSH0 DUP1 PUSH2 0x100 EXP DUP2 SLOAD DUP2 PUSH20 0xFFFFFFFFFFFFFFFFFFFFFFFFFFFFFFFFFFFFFFFF MUL NOT AND SWAP1 DUP4 PUSH20 0xFFFFFFFFFFFFFFFFFFFFFFFFFFFFFFFFFFFFFFFF AND MUL OR SWAP1 SSTORE POP POP PUSH2 0xFF JUMP JUMPDEST PUSH0 DUP1 REVERT JUMPDEST PUSH0 PUSH20 0xFFFFFFFFFFFFFFFFFFFFFFFFFFFFFFFFFFFFFFFF DUP3 AND SWAP1 POP SWAP2 SWAP1 POP JUMP JUMPDEST PUSH0 PUSH2 0xA3 DUP3 PUSH2 0x7A JUMP JUMPDEST SWAP1 POP SWAP2 SWAP1 POP JUMP JUMPDEST PUSH2 0xB3 DUP2 PUSH2 0x99 JUMP JUMPDEST DUP2 EQ PUSH2 0xBD JUMPI PUSH0 DUP1 REVERT JUMPDEST POP JUMP JUMPDEST PUSH0 DUP2 MLOAD SWAP1 POP PUSH2 0xCE DUP2 PUSH2 0xAA JUMP JUMPDEST SWAP3 SWAP2 POP POP JUMP JUMPDEST PUSH0 PUSH1 0x20 DUP3 DUP5 SUB SLT ISZERO PUSH2 0xE9 JUMPI PUSH2 0xE8 PUSH2 0x76 JUMP JUMPDEST JUMPDEST PUSH0 PUSH2 0xF6 DUP5 DUP3 DUP6 ADD PUSH2 0xC0 JUMP JUMPDEST SWAP2 POP POP SWAP3 SWAP2 POP POP JUMP JUMPDEST PUSH2 0x3B9B DUP1 PUSH2 0x10C PUSH0 CODECOPY PUSH0 RETURN INVALID PUSH1 0x80 PUSH1 0x40 MSTORE PUSH1 0x4 CALLDATASIZE LT PUSH2 0x149 JUMPI PUSH0 CALLDATALOAD PUSH1 0xE0 SHR DUP1 PUSH4 0x76B1D966 GT PUSH2 0xB5 JUMPI DUP1 PUSH4 0xB033C13A GT PUSH2 0x6E JUMPI DUP1 PUSH4 0xB033C13A EQ PUSH2 0x4F3 JUMPI DUP1 PUSH4 0xB6C00A82 EQ PUSH2 0x52F JUMPI DUP1 PUSH4 0xE946AF59 EQ PUSH2 0x56B JUMPI DUP1 PUSH4 0xF2FDE38B EQ PUSH2 0x593 JUMPI DUP1 PUSH4 0xFA540801 EQ PUSH2 0x5BB JUMPI DUP1 PUSH4 0xFE744A39 EQ PUSH2 0x5F7 JUMPI PUSH2 0x149 JUMP JUMPDEST DUP1 PUSH4 0x76B1D966 EQ PUSH2 0x3B1 JUMPI DUP1 PUSH4 0x96FCC1AE EQ PUSH2 0x3D9 JUMPI DUP1 PUSH4 0x976662B0 EQ PUSH2 0x415 JUMPI DUP1 PUSH4 0x97ABA7F9 EQ PUSH2 0x451 JUMPI DUP1 PUSH4 0x99911ABE EQ PUSH2 0x48D JUMPI DUP1 PUSH4 0xA7BB5803 EQ PUSH2 0x4B5 JUMPI PUSH2 0x149 JUMP JUMPDEST DUP1 PUSH4 0x45402A4D GT PUSH2 0x107 JUMPI DUP1 PUSH4 0x45402A4D EQ PUSH2 0x283 JUMPI DUP1 PUSH4 0x55B30266 EQ PUSH2 0x2BF JUMPI DUP1 PUSH4 0x5867F3A8 EQ PUSH2 0x2E7 JUMPI DUP1 PUSH4 0x66527F1C EQ PUSH2 0x323 JUMPI DUP1 PUSH4 0x70D8677F EQ PUSH2 0x34D JUMPI DUP1 PUSH4 0x73451439 EQ PUSH2 0x375 JUMPI PUSH2 0x149 JUMP JUMPDEST DUP1 PUSH3 0xF23FC1 EQ PUSH2 0x14D JUMPI DUP1 PUSH4 0xE15C62A EQ PUSH2 0x169 JUMPI DUP1 PUSH4 0x1E7FD268 EQ PUSH2 0x193 JUMPI DUP1 PUSH4 0x2437E7EB EQ PUSH2 0x1CF JUMPI DUP1 PUSH4 0x3E340E2D EQ PUSH2 0x20B JUMPI DUP1 PUSH4 0x41BEFBD1 EQ PUSH2 0x247 JUMPI JUMPDEST PUSH0 DUP1 REVERT JUMPDEST PUSH2 0x167 PUSH1 0x4 DUP1 CALLDATASIZE SUB DUP2 ADD SWAP1 PUSH2 0x162 SWAP2 SWAP1 PUSH2 0x2239 JUMP JUMPDEST PUSH2 0x61F JUMP JUMPDEST STOP JUMPDEST CALLVALUE DUP1 ISZERO PUSH2 0x174 JUMPI PUSH0 DUP1 REVERT JUMPDEST POP PUSH2 0x17D PUSH2 0x9EC JUMP JUMPDEST PUSH1 0x40 MLOAD PUSH2 0x18A SWAP2 SWAP1 PUSH2 0x2305 JUMP JUMPDEST PUSH1 0x40 MLOAD DUP1 SWAP2 SUB SWAP1 RETURN JUMPDEST CALLVALUE DUP1 ISZERO PUSH2 0x19E JUMPI PUSH0 DUP1 REVERT JUMPDEST POP PUSH2 0x1B9 PUSH1 0x4 DUP1 CALLDATASIZE SUB DUP2 ADD SWAP1 PUSH2 0x1B4 SWAP2 SWAP1 PUSH2 0x2325 JUMP JUMPDEST PUSH2 0xA08 JUMP JUMPDEST PUSH1 0x40 MLOAD PUSH2 0x1C6 SWAP2 SWAP1 PUSH2 0x238F JUMP JUMPDEST PUSH1 0x40 MLOAD DUP1 SWAP2 SUB SWAP1 RETURN JUMPDEST CALLVALUE DUP1 ISZERO PUSH2 0x1DA JUMPI PUSH0 DUP1 REVERT JUMPDEST POP PUSH2 0x1F5 PUSH1 0x4 DUP1 CALLDATASIZE SUB DUP2 ADD SWAP1 PUSH2 0x1F0 SWAP2 SWAP1 PUSH2 0x2446 JUMP JUMPDEST PUSH2 0xABD JUMP JUMPDEST PUSH1 0x40 MLOAD PUSH2 0x202 SWAP2 SWAP1 PUSH2 0x24B8 JUMP JUMPDEST PUSH1 0x40 MLOAD DUP1 SWAP2 SUB SWAP1 RETURN JUMPDEST CALLVALUE DUP1 ISZERO PUSH2 0x216 JUMPI PUSH0 DUP1 REVERT JUMPDEST POP PUSH2 0x231 PUSH1 0x4 DUP1 CALLDATASIZE SUB DUP2 ADD SWAP1 PUSH2 0x22C SWAP2 SWAP1 PUSH2 0x24D1 JUMP JUMPDEST PUSH2 0xB09 JUMP JUMPDEST PUSH1 0x40 MLOAD PUSH2 0x23E SWAP2 SWAP1 PUSH2 0x2538 JUMP JUMPDEST PUSH1 0x40 MLOAD DUP1 SWAP2 SUB SWAP1 RETURN JUMPDEST CALLVALUE DUP1 ISZERO PUSH2 0x252 JUMPI PUSH0 DUP1 REVERT JUMPDEST POP PUSH2 0x26D PUSH1 0x4 DUP1 CALLDATASIZE SUB DUP2 ADD SWAP1 PUSH2 0x268 SWAP2 SWAP1 PUSH2 0x2325 JUMP JUMPDEST PUSH2 0xB4F JUMP JUMPDEST PUSH1 0x40 MLOAD PUSH2 0x27A SWAP2 SWAP1 PUSH2 0x2305 JUMP JUMPDEST PUSH1 0x40 MLOAD DUP1 SWAP2 SUB SWAP1 RETURN JUMPDEST CALLVALUE DUP1 ISZERO PUSH2 0x28E JUMPI PUSH0 DUP1 REVERT JUMPDEST POP PUSH2 0x2A9 PUSH1 0x4 DUP1 CALLDATASIZE SUB DUP2 ADD SWAP1 PUSH2 0x2A4 SWAP2 SWAP1 PUSH2 0x257B JUMP JUMPDEST PUSH2 0xC4F JUMP JUMPDEST PUSH1 0x40 MLOAD PUSH2 0x2B6 SWAP2 SWAP1 PUSH2 0x26B6 JUMP JUMPDEST PUSH1 0x40 MLOAD DUP1 SWAP2 SUB SWAP1 RETURN JUMPDEST CALLVALUE DUP1 ISZERO PUSH2 0x2CA JUMPI PUSH0 DUP1 REVERT JUMPDEST POP PUSH2 0x2E5 PUSH1 0x4 DUP1 CALLDATASIZE SUB DUP2 ADD SWAP1 PUSH2 0x2E0 SWAP2 SWAP1 PUSH2 0x26D6 JUMP JUMPDEST PUSH2 0xE4E JUMP JUMPDEST STOP JUMPDEST CALLVALUE DUP1 ISZERO PUSH2 0x2F2 JUMPI PUSH0 DUP1 REVERT JUMPDEST POP PUSH2 0x30D PUSH1 0x4 DUP1 CALLDATASIZE SUB DUP2 ADD SWAP1 PUSH2 0x308 SWAP2 SWAP1 PUSH2 0x2701 JUMP JUMPDEST PUSH2 0xF32 JUMP JUMPDEST PUSH1 0x40 MLOAD PUSH2 0x31A SWAP2 SWAP1 PUSH2 0x279B JUMP JUMPDEST PUSH1 0x40 MLOAD DUP1 SWAP2 SUB SWAP1 RETURN JUMPDEST CALLVALUE DUP1 ISZERO PUSH2 0x32E JUMPI PUSH0 DUP1 REVERT JUMPDEST POP PUSH2 0x337 PUSH2 0xF90 JUMP JUMPDEST PUSH1 0x40 MLOAD PUSH2 0x344 SWAP2 SWAP1 PUSH2 0x2305 JUMP JUMPDEST PUSH1 0x40 MLOAD DUP1 SWAP2 SUB SWAP1 RETURN JUMPDEST CALLVALUE DUP1 ISZERO PUSH2 0x358 JUMPI PUSH0 DUP1 REVERT JUMPDEST POP PUSH2 0x373 PUSH1 0x4 DUP1 CALLDATASIZE SUB DUP2 ADD SWAP1 PUSH2 0x36E SWAP2 SWAP1 PUSH2 0x27B4 JUMP JUMPDEST PUSH2 0xFAC JUMP JUMPDEST STOP JUMPDEST CALLVALUE DUP1 ISZERO PUSH2 0x380 JUMPI PUSH0 DUP1 REVERT JUMPDEST POP PUSH2 0x39B PUSH1 0x4 DUP1 CALLDATASIZE SUB DUP2 ADD SWAP1 PUSH2 0x396 SWAP2 SWAP1 PUSH2 0x2834 JUMP JUMPDEST PUSH2 0x11FF JUMP JUMPDEST PUSH1 0x40 MLOAD PUSH2 0x3A8 SWAP2 SWAP1 PUSH2 0x24B8 JUMP JUMPDEST PUSH1 0x40 MLOAD DUP1 SWAP2 SUB SWAP1 RETURN JUMPDEST CALLVALUE DUP1 ISZERO PUSH2 0x3BC JUMPI PUSH0 DUP1 REVERT JUMPDEST POP PUSH2 0x3D7 PUSH1 0x4 DUP1 CALLDATASIZE SUB DUP2 ADD SWAP1 PUSH2 0x3D2 SWAP2 SWAP1 PUSH2 0x289C JUMP JUMPDEST PUSH2 0x124B JUMP JUMPDEST STOP JUMPDEST CALLVALUE DUP1 ISZERO PUSH2 0x3E4 JUMPI PUSH0 DUP1 REVERT JUMPDEST POP PUSH2 0x3FF PUSH1 0x4 DUP1 CALLDATASIZE SUB DUP2 ADD SWAP1 PUSH2 0x3FA SWAP2 SWAP1 PUSH2 0x2938 JUMP JUMPDEST PUSH2 0x14B0 JUMP JUMPDEST PUSH1 0x40 MLOAD PUSH2 0x40C SWAP2 SWAP1 PUSH2 0x279B JUMP JUMPDEST PUSH1 0x40 MLOAD DUP1 SWAP2 SUB SWAP1 RETURN JUMPDEST CALLVALUE DUP1 ISZERO PUSH2 0x420 JUMPI PUSH0 DUP1 REVERT JUMPDEST POP PUSH2 0x43B PUSH1 0x4 DUP1 CALLDATASIZE SUB DUP2 ADD SWAP1 PUSH2 0x436 SWAP2 SWAP1 PUSH2 0x29D4 JUMP JUMPDEST PUSH2 0x150E JUMP JUMPDEST PUSH1 0x40 MLOAD PUSH2 0x448 SWAP2 SWAP1 PUSH2 0x2305 JUMP JUMPDEST PUSH1 0x40 MLOAD DUP1 SWAP2 SUB SWAP1 RETURN JUMPDEST CALLVALUE DUP1 ISZERO PUSH2 0x45C JUMPI PUSH0 DUP1 REVERT JUMPDEST POP PUSH2 0x477 PUSH1 0x4 DUP1 CALLDATASIZE SUB DUP2 ADD SWAP1 PUSH2 0x472 SWAP2 SWAP1 PUSH2 0x2A3C JUMP JUMPDEST PUSH2 0x1807 JUMP JUMPDEST PUSH1 0x40 MLOAD PUSH2 0x484 SWAP2 SWAP1 PUSH2 0x2538 JUMP JUMPDEST PUSH1 0x40 MLOAD DUP1 SWAP2 SUB SWAP1 RETURN JUMPDEST CALLVALUE DUP1 ISZERO PUSH2 0x498 JUMPI PUSH0 DUP1 REVERT JUMPDEST POP PUSH2 0x4B3 PUSH1 0x4 DUP1 CALLDATASIZE SUB DUP2 ADD SWAP1 PUSH2 0x4AE SWAP2 SWAP1 PUSH2 0x2325 JUMP JUMPDEST PUSH2 0x1871 JUMP JUMPDEST STOP JUMPDEST CALLVALUE DUP1 ISZERO PUSH2 0x4C0 JUMPI PUSH0 DUP1 REVERT JUMPDEST POP PUSH2 0x4DB PUSH1 0x4 DUP1 CALLDATASIZE SUB DUP2 ADD SWAP1 PUSH2 0x4D6 SWAP2 SWAP1 PUSH2 0x2A96 JUMP JUMPDEST PUSH2 0x19E0 JUMP JUMPDEST PUSH1 0x40 MLOAD PUSH2 0x4EA SWAP4 SWAP3 SWAP2 SWAP1 PUSH2 0x2AF8 JUMP JUMPDEST PUSH1 0x40 MLOAD DUP1 SWAP2 SUB SWAP1 RETURN JUMPDEST CALLVALUE DUP1 ISZERO PUSH2 0x4FE JUMPI PUSH0 DUP1 REVERT JUMPDEST POP PUSH2 0x519 PUSH1 0x4 DUP1 CALLDATASIZE SUB DUP2 ADD SWAP1 PUSH2 0x514 SWAP2 SWAP1 PUSH2 0x2325 JUMP JUMPDEST PUSH2 0x1A45 JUMP JUMPDEST PUSH1 0x40 MLOAD PUSH2 0x526 SWAP2 SWAP1 PUSH2 0x2538 JUMP JUMPDEST PUSH1 0x40 MLOAD DUP1 SWAP2 SUB SWAP1 RETURN JUMPDEST CALLVALUE DUP1 ISZERO PUSH2 0x53A JUMPI PUSH0 DUP1 REVERT JUMPDEST POP PUSH2 0x555 PUSH1 0x4 DUP1 CALLDATASIZE SUB DUP2 ADD SWAP1 PUSH2 0x550 SWAP2 SWAP1 PUSH2 0x2325 JUMP JUMPDEST PUSH2 0x1ADD JUMP JUMPDEST PUSH1 0x40 MLOAD PUSH2 0x562 SWAP2 SWAP1 PUSH2 0x2B3C JUMP JUMPDEST PUSH1 0x40 MLOAD DUP1 SWAP2 SUB SWAP1 RETURN JUMPDEST CALLVALUE DUP1 ISZERO PUSH2 0x576 JUMPI PUSH0 DUP1 REVERT JUMPDEST POP PUSH2 0x591 PUSH1 0x4 DUP1 CALLDATASIZE SUB DUP2 ADD SWAP1 PUSH2 0x58C SWAP2 SWAP1 PUSH2 0x26D6 JUMP JUMPDEST PUSH2 0x1B56 JUMP JUMPDEST STOP JUMPDEST CALLVALUE DUP1 ISZERO PUSH2 0x59E JUMPI PUSH0 DUP1 REVERT JUMPDEST POP PUSH2 0x5B9 PUSH1 0x4 DUP1 CALLDATASIZE SUB DUP2 ADD SWAP1 PUSH2 0x5B4 SWAP2 SWAP1 PUSH2 0x26D6 JUMP JUMPDEST PUSH2 0x1C3A JUMP JUMPDEST STOP JUMPDEST CALLVALUE DUP1 ISZERO PUSH2 0x5C6 JUMPI PUSH0 DUP1 REVERT JUMPDEST POP PUSH2 0x5E1 PUSH1 0x4 DUP1 CALLDATASIZE SUB DUP2 ADD SWAP1 PUSH2 0x5DC SWAP2 SWAP1 PUSH2 0x2B55 JUMP JUMPDEST PUSH2 0x1D09 JUMP JUMPDEST PUSH1 0x40 MLOAD PUSH2 0x5EE SWAP2 SWAP1 PUSH2 0x24B8 JUMP JUMPDEST PUSH1 0x40 MLOAD DUP1 SWAP2 SUB SWAP1 RETURN JUMPDEST CALLVALUE DUP1 ISZERO PUSH2 0x602 JUMPI PUSH0 DUP1 REVERT JUMPDEST POP PUSH2 0x61D PUSH1 0x4 DUP1 CALLDATASIZE SUB DUP2 ADD SWAP1 PUSH2 0x618 SWAP2 SWAP1 PUSH2 0x2B80 JUMP JUMPDEST PUSH2 0x1D38 JUMP JUMPDEST STOP JUMPDEST DUP3 PUSH1 0x6 PUSH0 DUP3 DUP2 MSTORE PUSH1 0x20 ADD SWAP1 DUP2 MSTORE PUSH1 0x20 ADD PUSH0 KECCAK256 PUSH0 SWAP1 SLOAD SWAP1 PUSH2 0x100 EXP SWAP1 DIV PUSH1 0xFF AND PUSH2 0x67D JUMPI PUSH1 0x40 MLOAD PUSH32 0x8C379A000000000000000000000000000000000000000000000000000000000 DUP2 MSTORE PUSH1 0x4 ADD PUSH2 0x674 SWAP1 PUSH2 0x2C9F JUMP JUMPDEST PUSH1 0x40 MLOAD DUP1 SWAP2 SUB SWAP1 REVERT JUMPDEST ADDRESS PUSH20 0xFFFFFFFFFFFFFFFFFFFFFFFFFFFFFFFFFFFFFFFF AND PUSH4 0xB6C00A82 DUP6 PUSH1 0x40 MLOAD DUP3 PUSH4 0xFFFFFFFF AND PUSH1 0xE0 SHL DUP2 MSTORE PUSH1 0x4 ADD PUSH2 0x6B6 SWAP2 SWAP1 PUSH2 0x2CCC JUMP JUMPDEST PUSH1 0x20 PUSH1 0x40 MLOAD DUP1 DUP4 SUB DUP2 DUP7 GAS STATICCALL ISZERO DUP1 ISZERO PUSH2 0x6D1 JUMPI RETURNDATASIZE PUSH0 DUP1 RETURNDATACOPY RETURNDATASIZE PUSH0 REVERT JUMPDEST POP POP POP POP PUSH1 0x40 MLOAD RETURNDATASIZE PUSH1 0x1F NOT PUSH1 0x1F DUP3 ADD AND DUP3 ADD DUP1 PUSH1 0x40 MSTORE POP DUP2 ADD SWAP1 PUSH2 0x6F5 SWAP2 SWAP1 PUSH2 0x2CF9 JUMP JUMPDEST CALLVALUE LT ISZERO PUSH2 0x737 JUMPI PUSH1 0x40 MLOAD PUSH32 0x8C379A000000000000000000000000000000000000000000000000000000000 DUP2 MSTORE PUSH1 0x4 ADD PUSH2 0x72E SWAP1 PUSH2 0x2D6E JUMP JUMPDEST PUSH1 0x40 MLOAD DUP1 SWAP2 SUB SWAP1 REVERT JUMPDEST ADDRESS PUSH20 0xFFFFFFFFFFFFFFFFFFFFFFFFFFFFFFFFFFFFFFFF AND PUSH4 0x5867F3A8 CALLER DUP7 DUP7 DUP7 PUSH1 0x40 MLOAD DUP6 PUSH4 0xFFFFFFFF AND PUSH1 0xE0 SHL DUP2 MSTORE PUSH1 0x4 ADD PUSH2 0x776 SWAP5 SWAP4 SWAP3 SWAP2 SWAP1 PUSH2 0x2DDE JUMP JUMPDEST PUSH1 0x20 PUSH1 0x40 MLOAD DUP1 DUP4 SUB DUP2 DUP7 GAS STATICCALL ISZERO DUP1 ISZERO PUSH2 0x791 JUMPI RETURNDATASIZE PUSH0 DUP1 RETURNDATACOPY RETURNDATASIZE PUSH0 REVERT JUMPDEST POP POP POP POP PUSH1 0x40 MLOAD RETURNDATASIZE PUSH1 0x1F NOT PUSH1 0x1F DUP3 ADD AND DUP3 ADD DUP1 PUSH1 0x40 MSTORE POP DUP2 ADD SWAP1 PUSH2 0x7B5 SWAP2 SWAP1 PUSH2 0x2E52 JUMP JUMPDEST PUSH2 0x7F4 JUMPI PUSH1 0x40 MLOAD PUSH32 0x8C379A000000000000000000000000000000000000000000000000000000000 DUP2 MSTORE PUSH1 0x4 ADD PUSH2 0x7EB SWAP1 PUSH2 0x2EC7 JUMP JUMPDEST PUSH1 0x40 MLOAD DUP1 SWAP2 SUB SWAP1 REVERT JUMPDEST PUSH0 ADDRESS PUSH20 0xFFFFFFFFFFFFFFFFFFFFFFFFFFFFFFFFFFFFFFFF AND PUSH4 0xB6C00A82 DUP7 PUSH1 0x40 MLOAD DUP3 PUSH4 0xFFFFFFFF AND PUSH1 0xE0 SHL DUP2 MSTORE PUSH1 0x4 ADD PUSH2 0x82E SWAP2 SWAP1 PUSH2 0x2CCC JUMP JUMPDEST PUSH1 0x20 PUSH1 0x40 MLOAD DUP1 DUP4 SUB DUP2 DUP7 GAS STATICCALL ISZERO DUP1 ISZERO PUSH2 0x849 JUMPI RETURNDATASIZE PUSH0 DUP1 RETURNDATACOPY RETURNDATASIZE PUSH0 REVERT JUMPDEST POP POP POP POP PUSH1 0x40 MLOAD RETURNDATASIZE PUSH1 0x1F NOT PUSH1 0x1F DUP3 ADD AND DUP3 ADD DUP1 PUSH1 0x40 MSTORE POP DUP2 ADD SWAP1 PUSH2 0x86D SWAP2 SWAP1 PUSH2 0x2CF9 JUMP JUMPDEST SWAP1 POP PUSH0 ADDRESS PUSH20 0xFFFFFFFFFFFFFFFFFFFFFFFFFFFFFFFFFFFFFFFF AND PUSH4 0x1E7FD268 DUP8 PUSH1 0x40 MLOAD DUP3 PUSH4 0xFFFFFFFF AND PUSH1 0xE0 SHL DUP2 MSTORE PUSH1 0x4 ADD PUSH2 0x8A9 SWAP2 SWAP1 PUSH2 0x2CCC JUMP JUMPDEST PUSH1 0x20 PUSH1 0x40 MLOAD DUP1 DUP4 SUB DUP2 DUP7 GAS STATICCALL ISZERO DUP1 ISZERO PUSH2 0x8C4 JUMPI RETURNDATASIZE PUSH0 DUP1 RETURNDATACOPY RETURNDATASIZE PUSH0 REVERT JUMPDEST POP POP POP POP PUSH1 0x40 MLOAD RETURNDATASIZE PUSH1 0x1F NOT PUSH1 0x1F DUP3 ADD AND DUP3 ADD DUP1 PUSH1 0x40 MSTORE POP DUP2 ADD SWAP1 PUSH2 0x8E8 SWAP2 SWAP1 PUSH2 0x2EF9 JUMP JUMPDEST SWAP1 POP PUSH0 DUP2 PUSH20 0xFFFFFFFFFFFFFFFFFFFFFFFFFFFFFFFFFFFFFFFF AND DUP4 PUSH1 0x40 MLOAD PUSH2 0x90F SWAP1 PUSH2 0x2F51 JUMP JUMPDEST PUSH0 PUSH1 0x40 MLOAD DUP1 DUP4 SUB DUP2 DUP6 DUP8 GAS CALL SWAP3 POP POP POP RETURNDATASIZE DUP1 PUSH0 DUP2 EQ PUSH2 0x949 JUMPI PUSH1 0x40 MLOAD SWAP2 POP PUSH1 0x1F NOT PUSH1 0x3F RETURNDATASIZE ADD AND DUP3 ADD PUSH1 0x40 MSTORE RETURNDATASIZE DUP3 MSTORE RETURNDATASIZE PUSH0 PUSH1 0x20 DUP5 ADD RETURNDATACOPY PUSH2 0x94E JUMP JUMPDEST PUSH1 0x60 SWAP2 POP JUMPDEST POP POP SWAP1 POP DUP1 PUSH2 0x992 JUMPI PUSH1 0x40 MLOAD PUSH32 0x8C379A000000000000000000000000000000000000000000000000000000000 DUP2 MSTORE PUSH1 0x4 ADD PUSH2 0x989 SWAP1 PUSH2 0x2FAF JUMP JUMPDEST PUSH1 0x40 MLOAD DUP1 SWAP2 SUB SWAP1 REVERT JUMPDEST TIMESTAMP PUSH1 0xA PUSH0 DUP10 DUP2 MSTORE PUSH1 0x20 ADD SWAP1 DUP2 MSTORE PUSH1 0x20 ADD PUSH0 KECCAK256 PUSH0 CALLER PUSH20 0xFFFFFFFFFFFFFFFFFFFFFFFFFFFFFFFFFFFFFFFF AND PUSH20 0xFFFFFFFFFFFFFFFFFFFFFFFFFFFFFFFFFFFFFFFF AND DUP2 MSTORE PUSH1 0x20 ADD SWAP1 DUP2 MSTORE PUSH1 0x20 ADD PUSH0 KECCAK256 DUP2 SWAP1 SSTORE POP POP POP POP POP POP POP POP JUMP JUMPDEST PUSH1 0x40 MLOAD DUP1 PUSH1 0xA0 ADD PUSH1 0x40 MSTORE DUP1 PUSH1 0x68 DUP2 MSTORE PUSH1 0x20 ADD PUSH2 0x3AFE PUSH1 0x68 SWAP2 CODECOPY DUP2 JUMP JUMPDEST PUSH0 DUP2 PUSH1 0x6 PUSH0 DUP3 DUP2 MSTORE PUSH1 0x20 ADD SWAP1 DUP2 MSTORE PUSH1 0x20 ADD PUSH0 KECCAK256 PUSH0 SWAP1 SLOAD SWAP1 PUSH2 0x100 EXP SWAP1 DIV PUSH1 0xFF AND PUSH2 0xA67 JUMPI PUSH1 0x40 MLOAD PUSH32 0x8C379A000000000000000000000000000000000000000000000000000000000 DUP2 MSTORE PUSH1 0x4 ADD PUSH2 0xA5E SWAP1 PUSH2 0x2C9F JUMP JUMPDEST PUSH1 0x40 MLOAD DUP1 SWAP2 SUB SWAP1 REVERT JUMPDEST PUSH1 0x2 PUSH1 0x7 PUSH0 DUP6 DUP2 MSTORE PUSH1 0x20 ADD SWAP1 DUP2 MSTORE PUSH1 0x20 ADD PUSH0 KECCAK256 PUSH1 0x40 MLOAD PUSH2 0xA87 SWAP2 SWAP1 PUSH2 0x30C6 JUMP JUMPDEST SWAP1 DUP2 MSTORE PUSH1 0x20 ADD PUSH1 0x40 MLOAD DUP1 SWAP2 SUB SWAP1 KECCAK256 PUSH0 SWAP1 SLOAD SWAP1 PUSH2 0x100 EXP SWAP1 DIV PUSH20 0xFFFFFFFFFFFFFFFFFFFFFFFFFFFFFFFFFFFFFFFF AND SWAP2 POP POP SWAP2 SWAP1 POP JUMP JUMPDEST PUSH0 DUP3 PUSH1 0x40 MLOAD DUP1 PUSH1 0xA0 ADD PUSH1 0x40 MSTORE DUP1 PUSH1 0x68 DUP2 MSTORE PUSH1 0x20 ADD PUSH2 0x3A96 PUSH1 0x68 SWAP2 CODECOPY DUP4 PUSH1 0x40 MLOAD PUSH1 0x20 ADD PUSH2 0xAEB SWAP4 SWAP3 SWAP2 SWAP1 PUSH2 0x312C JUMP JUMPDEST PUSH1 0x40 MLOAD PUSH1 0x20 DUP2 DUP4 SUB SUB DUP2 MSTORE SWAP1 PUSH1 0x40 MSTORE DUP1 MLOAD SWAP1 PUSH1 0x20 ADD KECCAK256 SWAP1 POP SWAP3 SWAP2 POP POP JUMP JUMPDEST PUSH0 PUSH1 0x2 DUP3 PUSH1 0x40 MLOAD PUSH2 0xB1A SWAP2 SWAP1 PUSH2 0x3160 JUMP JUMPDEST SWAP1 DUP2 MSTORE PUSH1 0x20 ADD PUSH1 0x40 MLOAD DUP1 SWAP2 SUB SWAP1 KECCAK256 PUSH0 SWAP1 SLOAD SWAP1 PUSH2 0x100 EXP SWAP1 DIV PUSH20 0xFFFFFFFFFFFFFFFFFFFFFFFFFFFFFFFFFFFFFFFF AND SWAP1 POP SWAP2 SWAP1 POP JUMP JUMPDEST PUSH1 0x60 DUP2 PUSH1 0x6 PUSH0 DUP3 DUP2 MSTORE PUSH1 0x20 ADD SWAP1 DUP2 MSTORE PUSH1 0x20 ADD PUSH0 KECCAK256 PUSH0 SWAP1 SLOAD SWAP1 PUSH2 0x100 EXP SWAP1 DIV PUSH1 0xFF AND PUSH2 0xBAF JUMPI PUSH1 0x40 MLOAD PUSH32 0x8C379A000000000000000000000000000000000000000000000000000000000 DUP2 MSTORE PUSH1 0x4 ADD PUSH2 0xBA6 SWAP1 PUSH2 0x2C9F JUMP JUMPDEST PUSH1 0x40 MLOAD DUP1 SWAP2 SUB SWAP1 REVERT JUMPDEST PUSH1 0x7 PUSH0 DUP5 DUP2 MSTORE PUSH1 0x20 ADD SWAP1 DUP2 MSTORE PUSH1 0x20 ADD PUSH0 KECCAK256 DUP1 SLOAD PUSH2 0xBCB SWAP1 PUSH2 0x2FFA JUMP JUMPDEST DUP1 PUSH1 0x1F ADD PUSH1 0x20 DUP1 SWAP2 DIV MUL PUSH1 0x20 ADD PUSH1 0x40 MLOAD SWAP1 DUP2 ADD PUSH1 0x40 MSTORE DUP1 SWAP3 SWAP2 SWAP1 DUP2 DUP2 MSTORE PUSH1 0x20 ADD DUP3 DUP1 SLOAD PUSH2 0xBF7 SWAP1 PUSH2 0x2FFA JUMP JUMPDEST DUP1 ISZERO PUSH2 0xC42 JUMPI DUP1 PUSH1 0x1F LT PUSH2 0xC19 JUMPI PUSH2 0x100 DUP1 DUP4 SLOAD DIV MUL DUP4 MSTORE SWAP2 PUSH1 0x20 ADD SWAP2 PUSH2 0xC42 JUMP JUMPDEST DUP3 ADD SWAP2 SWAP1 PUSH0 MSTORE PUSH1 0x20 PUSH0 KECCAK256 SWAP1 JUMPDEST DUP2 SLOAD DUP2 MSTORE SWAP1 PUSH1 0x1 ADD SWAP1 PUSH1 0x20 ADD DUP1 DUP4 GT PUSH2 0xC25 JUMPI DUP3 SWAP1 SUB PUSH1 0x1F AND DUP3 ADD SWAP2 JUMPDEST POP POP POP POP POP SWAP2 POP POP SWAP2 SWAP1 POP JUMP JUMPDEST PUSH1 0x60 DUP3 PUSH0 PUSH20 0xFFFFFFFFFFFFFFFFFFFFFFFFFFFFFFFFFFFFFFFF AND PUSH1 0x2 DUP3 PUSH1 0x40 MLOAD PUSH2 0xC79 SWAP2 SWAP1 PUSH2 0x3160 JUMP JUMPDEST SWAP1 DUP2 MSTORE PUSH1 0x20 ADD PUSH1 0x40 MLOAD DUP1 SWAP2 SUB SWAP1 KECCAK256 PUSH0 SWAP1 SLOAD SWAP1 PUSH2 0x100 EXP SWAP1 DIV PUSH20 0xFFFFFFFFFFFFFFFFFFFFFFFFFFFFFFFFFFFFFFFF AND PUSH20 0xFFFFFFFFFFFFFFFFFFFFFFFFFFFFFFFFFFFFFFFF AND SUB PUSH2 0xCFD JUMPI PUSH1 0x40 MLOAD PUSH32 0x8C379A000000000000000000000000000000000000000000000000000000000 DUP2 MSTORE PUSH1 0x4 ADD PUSH2 0xCF4 SWAP1 PUSH2 0x31C0 JUMP JUMPDEST PUSH1 0x40 MLOAD DUP1 SWAP2 SUB SWAP1 REVERT JUMPDEST PUSH0 PUSH1 0x3 DUP6 PUSH1 0x40 MLOAD PUSH2 0xD0E SWAP2 SWAP1 PUSH2 0x3160 JUMP JUMPDEST SWAP1 DUP2 MSTORE PUSH1 0x20 ADD PUSH1 0x40 MLOAD DUP1 SWAP2 SUB SWAP1 KECCAK256 SLOAD PUSH8 0xFFFFFFFFFFFFFFFF DUP2 GT ISZERO PUSH2 0xD36 JUMPI PUSH2 0xD35 PUSH2 0x2115 JUMP JUMPDEST JUMPDEST PUSH1 0x40 MLOAD SWAP1 DUP1 DUP3 MSTORE DUP1 PUSH1 0x20 MUL PUSH1 0x20 ADD DUP3 ADD PUSH1 0x40 MSTORE DUP1 ISZERO PUSH2 0xD64 JUMPI DUP2 PUSH1 0x20 ADD PUSH1 0x20 DUP3 MUL DUP1 CALLDATASIZE DUP4 CALLDATACOPY DUP1 DUP3 ADD SWAP2 POP POP SWAP1 POP JUMPDEST POP SWAP1 POP PUSH0 JUMPDEST PUSH1 0x3 DUP7 PUSH1 0x40 MLOAD PUSH2 0xD79 SWAP2 SWAP1 PUSH2 0x3160 JUMP JUMPDEST SWAP1 DUP2 MSTORE PUSH1 0x20 ADD PUSH1 0x40 MLOAD DUP1 SWAP2 SUB SWAP1 KECCAK256 SLOAD DUP2 LT ISZERO PUSH2 0xE42 JUMPI PUSH0 PUSH1 0x4 DUP8 PUSH1 0x40 MLOAD PUSH2 0xDA0 SWAP2 SWAP1 PUSH2 0x3160 JUMP JUMPDEST SWAP1 DUP2 MSTORE PUSH1 0x20 ADD PUSH1 0x40 MLOAD DUP1 SWAP2 SUB SWAP1 KECCAK256 PUSH0 DUP4 DUP2 MSTORE PUSH1 0x20 ADD SWAP1 DUP2 MSTORE PUSH1 0x20 ADD PUSH0 KECCAK256 SLOAD SWAP1 POP PUSH0 PUSH1 0xA PUSH0 DUP4 DUP2 MSTORE PUSH1 0x20 ADD SWAP1 DUP2 MSTORE PUSH1 0x20 ADD PUSH0 KECCAK256 PUSH0 DUP9 PUSH20 0xFFFFFFFFFFFFFFFFFFFFFFFFFFFFFFFFFFFFFFFF AND PUSH20 0xFFFFFFFFFFFFFFFFFFFFFFFFFFFFFFFFFFFFFFFF AND DUP2 MSTORE PUSH1 0x20 ADD SWAP1 DUP2 MSTORE PUSH1 0x20 ADD PUSH0 KECCAK256 SLOAD EQ PUSH2 0xE34 JUMPI DUP1 DUP4 DUP4 DUP2 MLOAD DUP2 LT PUSH2 0xE27 JUMPI PUSH2 0xE26 PUSH2 0x31DE JUMP JUMPDEST JUMPDEST PUSH1 0x20 MUL PUSH1 0x20 ADD ADD DUP2 DUP2 MSTORE POP POP JUMPDEST POP DUP1 DUP1 PUSH1 0x1 ADD SWAP2 POP POP PUSH2 0xD69 JUMP JUMPDEST POP DUP1 SWAP3 POP POP POP SWAP3 SWAP2 POP POP JUMP JUMPDEST CALLER PUSH20 0xFFFFFFFFFFFFFFFFFFFFFFFFFFFFFFFFFFFFFFFF AND PUSH0 DUP1 SLOAD SWAP1 PUSH2 0x100 EXP SWAP1 DIV PUSH20 0xFFFFFFFFFFFFFFFFFFFFFFFFFFFFFFFFFFFFFFFF AND PUSH20 0xFFFFFFFFFFFFFFFFFFFFFFFFFFFFFFFFFFFFFFFF AND EQ PUSH2 0xEDB JUMPI PUSH1 0x40 MLOAD PUSH32 0x8C379A000000000000000000000000000000000000000000000000000000000 DUP2 MSTORE PUSH1 0x4 ADD PUSH2 0xED2 SWAP1 PUSH2 0x3255 JUMP JUMPDEST PUSH1 0x40 MLOAD DUP1 SWAP2 SUB SWAP1 REVERT JUMPDEST PUSH1 0x1 DUP1 PUSH0 DUP4 PUSH20 0xFFFFFFFFFFFFFFFFFFFFFFFFFFFFFFFFFFFFFFFF AND PUSH20 0xFFFFFFFFFFFFFFFFFFFFFFFFFFFFFFFFFFFFFFFF AND DUP2 MSTORE PUSH1 0x20 ADD SWAP1 DUP2 MSTORE PUSH1 0x20 ADD PUSH0 KECCAK256 PUSH0 PUSH2 0x100 EXP DUP2 SLOAD DUP2 PUSH1 0xFF MUL NOT AND SWAP1 DUP4 ISZERO ISZERO MUL OR SWAP1 SSTORE POP POP JUMP JUMPDEST PUSH0 DUP1 PUSH2 0xF3E DUP6 DUP6 PUSH2 0x11FF JUMP JUMPDEST SWAP1 POP PUSH0 PUSH2 0xF4A DUP3 PUSH2 0x1D09 JUMP JUMPDEST SWAP1 POP DUP7 PUSH20 0xFFFFFFFFFFFFFFFFFFFFFFFFFFFFFFFFFFFFFFFF AND PUSH2 0xF6D DUP3 DUP7 PUSH2 0x1807 JUMP JUMPDEST PUSH20 0xFFFFFFFFFFFFFFFFFFFFFFFFFFFFFFFFFFFFFFFF AND EQ SWAP3 POP POP POP SWAP5 SWAP4 POP POP POP POP JUMP JUMPDEST PUSH1 0x40 MLOAD DUP1 PUSH1 0xA0 ADD PUSH1 0x40 MSTORE DUP1 PUSH1 0x68 DUP2 MSTORE PUSH1 0x20 ADD PUSH2 0x3A96 PUSH1 0x68 SWAP2 CODECOPY DUP2 JUMP JUMPDEST DUP4 PUSH0 PUSH20 0xFFFFFFFFFFFFFFFFFFFFFFFFFFFFFFFFFFFFFFFF AND PUSH1 0x2 DUP3 PUSH1 0x40 MLOAD PUSH2 0xFD4 SWAP2 SWAP1 PUSH2 0x3160 JUMP JUMPDEST SWAP1 DUP2 MSTORE PUSH1 0x20 ADD PUSH1 0x40 MLOAD DUP1 SWAP2 SUB SWAP1 KECCAK256 PUSH0 SWAP1 SLOAD SWAP1 PUSH2 0x100 EXP SWAP1 DIV PUSH20 0xFFFFFFFFFFFFFFFFFFFFFFFFFFFFFFFFFFFFFFFF AND PUSH20 0xFFFFFFFFFFFFFFFFFFFFFFFFFFFFFFFFFFFFFFFF AND SUB PUSH2 0x1058 JUMPI PUSH1 0x40 MLOAD PUSH32 0x8C379A000000000000000000000000000000000000000000000000000000000 DUP2 MSTORE PUSH1 0x4 ADD PUSH2 0x104F SWAP1 PUSH2 0x31C0 JUMP JUMPDEST PUSH1 0x40 MLOAD DUP1 SWAP2 SUB SWAP1 REVERT JUMPDEST DUP4 PUSH1 0x1 PUSH0 DUP3 PUSH20 0xFFFFFFFFFFFFFFFFFFFFFFFFFFFFFFFFFFFFFFFF AND PUSH20 0xFFFFFFFFFFFFFFFFFFFFFFFFFFFFFFFFFFFFFFFF AND DUP2 MSTORE PUSH1 0x20 ADD SWAP1 DUP2 MSTORE PUSH1 0x20 ADD PUSH0 KECCAK256 PUSH0 SWAP1 SLOAD SWAP1 PUSH2 0x100 EXP SWAP1 DIV PUSH1 0xFF AND PUSH2 0x10E2 JUMPI PUSH1 0x40 MLOAD PUSH32 0x8C379A000000000000000000000000000000000000000000000000000000000 DUP2 MSTORE PUSH1 0x4 ADD PUSH2 0x10D9 SWAP1 PUSH2 0x2C9F JUMP JUMPDEST PUSH1 0x40 MLOAD DUP1 SWAP2 SUB SWAP1 REVERT JUMPDEST CALLER PUSH20 0xFFFFFFFFFFFFFFFFFFFFFFFFFFFFFFFFFFFFFFFF AND PUSH1 0x2 DUP8 PUSH1 0x40 MLOAD PUSH2 0x1109 SWAP2 SWAP1 PUSH2 0x3160 JUMP JUMPDEST SWAP1 DUP2 MSTORE PUSH1 0x20 ADD PUSH1 0x40 MLOAD DUP1 SWAP2 SUB SWAP1 KECCAK256 PUSH0 SWAP1 SLOAD SWAP1 PUSH2 0x100 EXP SWAP1 DIV PUSH20 0xFFFFFFFFFFFFFFFFFFFFFFFFFFFFFFFFFFFFFFFF AND PUSH20 0xFFFFFFFFFFFFFFFFFFFFFFFFFFFFFFFFFFFFFFFF AND EQ PUSH2 0x118D JUMPI PUSH1 0x40 MLOAD PUSH32 0x8C379A000000000000000000000000000000000000000000000000000000000 DUP2 MSTORE PUSH1 0x4 ADD PUSH2 0x1184 SWAP1 PUSH2 0x32BD JUMP JUMPDEST PUSH1 0x40 MLOAD DUP1 SWAP2 SUB SWAP1 REVERT JUMPDEST PUSH1 0x5 PUSH0 DUP5 DUP2 MSTORE PUSH1 0x20 ADD SWAP1 DUP2 MSTORE PUSH1 0x20 ADD PUSH0 KECCAK256 PUSH0 SWAP1 SLOAD SWAP1 PUSH2 0x100 EXP SWAP1 DIV PUSH1 0xFF AND ISZERO PUSH2 0x11EB JUMPI PUSH1 0x40 MLOAD PUSH32 0x8C379A000000000000000000000000000000000000000000000000000000000 DUP2 MSTORE PUSH1 0x4 ADD PUSH2 0x11E2 SWAP1 PUSH2 0x3325 JUMP JUMPDEST PUSH1 0x40 MLOAD DUP1 SWAP2 SUB SWAP1 REVERT JUMPDEST PUSH2 0x11F7 DUP7 DUP7 DUP7 DUP7 PUSH2 0x1F2F JUMP JUMPDEST POP POP POP POP POP POP JUMP JUMPDEST PUSH0 DUP3 PUSH1 0x40 MLOAD DUP1 PUSH1 0xA0 ADD PUSH1 0x40 MSTORE DUP1 PUSH1 0x68 DUP2 MSTORE PUSH1 0x20 ADD PUSH2 0x3AFE PUSH1 0x68 SWAP2 CODECOPY DUP4 PUSH1 0x40 MLOAD PUSH1 0x20 ADD PUSH2 0x122D SWAP4 SWAP3 SWAP2 SWAP1 PUSH2 0x335A JUMP JUMPDEST PUSH1 0x40 MLOAD PUSH1 0x20 DUP2 DUP4 SUB SUB DUP2 MSTORE SWAP1 PUSH1 0x40 MSTORE DUP1 MLOAD SWAP1 PUSH1 0x20 ADD KECCAK256 SWAP1 POP SWAP3 SWAP2 POP POP JUMP JUMPDEST CALLER PUSH20 0xFFFFFFFFFFFFFFFFFFFFFFFFFFFFFFFFFFFFFFFF AND PUSH0 DUP1 SLOAD SWAP1 PUSH2 0x100 EXP SWAP1 DIV PUSH20 0xFFFFFFFFFFFFFFFFFFFFFFFFFFFFFFFFFFFFFFFF AND PUSH20 0xFFFFFFFFFFFFFFFFFFFFFFFFFFFFFFFFFFFFFFFF AND EQ PUSH2 0x12D8 JUMPI PUSH1 0x40 MLOAD PUSH32 0x8C379A000000000000000000000000000000000000000000000000000000000 DUP2 MSTORE PUSH1 0x4 ADD PUSH2 0x12CF SWAP1 PUSH2 0x3255 JUMP JUMPDEST PUSH1 0x40 MLOAD DUP1 SWAP2 SUB SWAP1 REVERT JUMPDEST PUSH0 DUP5 SWAP1 POP PUSH0 DUP2 MLOAD GT PUSH2 0x131F JUMPI PUSH1 0x40 MLOAD PUSH32 0x8C379A000000000000000000000000000000000000000000000000000000000 DUP2 MSTORE PUSH1 0x4 ADD PUSH2 0x1316 SWAP1 PUSH2 0x33DC JUMP JUMPDEST PUSH1 0x40 MLOAD DUP1 SWAP2 SUB SWAP1 REVERT JUMPDEST ADDRESS PUSH20 0xFFFFFFFFFFFFFFFFFFFFFFFFFFFFFFFFFFFFFFFF AND PUSH4 0x96FCC1AE DUP6 DUP8 DUP7 DUP7 PUSH1 0x40 MLOAD DUP6 PUSH4 0xFFFFFFFF AND PUSH1 0xE0 SHL DUP2 MSTORE PUSH1 0x4 ADD PUSH2 0x135E SWAP5 SWAP4 SWAP3 SWAP2 SWAP1 PUSH2 0x344C JUMP JUMPDEST PUSH1 0x20 PUSH1 0x40 MLOAD DUP1 DUP4 SUB DUP2 DUP7 GAS STATICCALL ISZERO DUP1 ISZERO PUSH2 0x1379 JUMPI RETURNDATASIZE PUSH0 DUP1 RETURNDATACOPY RETURNDATASIZE PUSH0 REVERT JUMPDEST POP POP POP POP PUSH1 0x40 MLOAD RETURNDATASIZE PUSH1 0x1F NOT PUSH1 0x1F DUP3 ADD AND DUP3 ADD DUP1 PUSH1 0x40 MSTORE POP DUP2 ADD SWAP1 PUSH2 0x139D SWAP2 SWAP1 PUSH2 0x2E52 JUMP JUMPDEST PUSH2 0x13DC JUMPI PUSH1 0x40 MLOAD PUSH32 0x8C379A000000000000000000000000000000000000000000000000000000000 DUP2 MSTORE PUSH1 0x4 ADD PUSH2 0x13D3 SWAP1 PUSH2 0x34E7 JUMP JUMPDEST PUSH1 0x40 MLOAD DUP1 SWAP2 SUB SWAP1 REVERT JUMPDEST PUSH0 PUSH20 0xFFFFFFFFFFFFFFFFFFFFFFFFFFFFFFFFFFFFFFFF AND PUSH1 0x2 DUP7 PUSH1 0x40 MLOAD PUSH2 0x1403 SWAP2 SWAP1 PUSH2 0x3160 JUMP JUMPDEST SWAP1 DUP2 MSTORE PUSH1 0x20 ADD PUSH1 0x40 MLOAD DUP1 SWAP2 SUB SWAP1 KECCAK256 PUSH0 SWAP1 SLOAD SWAP1 PUSH2 0x100 EXP SWAP1 DIV PUSH20 0xFFFFFFFFFFFFFFFFFFFFFFFFFFFFFFFFFFFFFFFF AND PUSH20 0xFFFFFFFFFFFFFFFFFFFFFFFFFFFFFFFFFFFFFFFF AND SUB PUSH2 0x14A9 JUMPI DUP4 PUSH1 0x2 DUP7 PUSH1 0x40 MLOAD PUSH2 0x145D SWAP2 SWAP1 PUSH2 0x3160 JUMP JUMPDEST SWAP1 DUP2 MSTORE PUSH1 0x20 ADD PUSH1 0x40 MLOAD DUP1 SWAP2 SUB SWAP1 KECCAK256 PUSH0 PUSH2 0x100 EXP DUP2 SLOAD DUP2 PUSH20 0xFFFFFFFFFFFFFFFFFFFFFFFFFFFFFFFFFFFFFFFF MUL NOT AND SWAP1 DUP4 PUSH20 0xFFFFFFFFFFFFFFFFFFFFFFFFFFFFFFFFFFFFFFFF AND MUL OR SWAP1 SSTORE POP JUMPDEST POP POP POP POP POP JUMP JUMPDEST PUSH0 DUP1 PUSH2 0x14BC DUP6 DUP6 PUSH2 0xABD JUMP JUMPDEST SWAP1 POP PUSH0 PUSH2 0x14C8 DUP3 PUSH2 0x1D09 JUMP JUMPDEST SWAP1 POP DUP7 PUSH20 0xFFFFFFFFFFFFFFFFFFFFFFFFFFFFFFFFFFFFFFFF AND PUSH2 0x14EB DUP3 DUP7 PUSH2 0x1807 JUMP JUMPDEST PUSH20 0xFFFFFFFFFFFFFFFFFFFFFFFFFFFFFFFFFFFFFFFF AND EQ SWAP3 POP POP POP SWAP5 SWAP4 POP POP POP POP JUMP JUMPDEST PUSH1 0x60 DUP3 PUSH1 0x6 PUSH0 DUP3 DUP2 MSTORE PUSH1 0x20 ADD SWAP1 DUP2 MSTORE PUSH1 0x20 ADD PUSH0 KECCAK256 PUSH0 SWAP1 SLOAD SWAP1 PUSH2 0x100 EXP SWAP1 DIV PUSH1 0xFF AND PUSH2 0x156E JUMPI PUSH1 0x40 MLOAD PUSH32 0x8C379A000000000000000000000000000000000000000000000000000000000 DUP2 MSTORE PUSH1 0x4 ADD PUSH2 0x1565 SWAP1 PUSH2 0x2C9F JUMP JUMPDEST PUSH1 0x40 MLOAD DUP1 SWAP2 SUB SWAP1 REVERT JUMPDEST PUSH0 PUSH1 0xA PUSH0 DUP7 DUP2 MSTORE PUSH1 0x20 ADD SWAP1 DUP2 MSTORE PUSH1 0x20 ADD PUSH0 KECCAK256 PUSH0 DUP6 PUSH20 0xFFFFFFFFFFFFFFFFFFFFFFFFFFFFFFFFFFFFFFFF AND PUSH20 0xFFFFFFFFFFFFFFFFFFFFFFFFFFFFFFFFFFFFFFFF AND DUP2 MSTORE PUSH1 0x20 ADD SWAP1 DUP2 MSTORE PUSH1 0x20 ADD PUSH0 KECCAK256 SLOAD SUB PUSH2 0x15FC JUMPI PUSH1 0x40 MLOAD PUSH32 0x8C379A000000000000000000000000000000000000000000000000000000000 DUP2 MSTORE PUSH1 0x4 ADD PUSH2 0x15F3 SWAP1 PUSH2 0x354F JUMP JUMPDEST PUSH1 0x40 MLOAD DUP1 SWAP2 SUB SWAP1 REVERT JUMPDEST PUSH0 PUSH1 0x7 PUSH0 DUP7 DUP2 MSTORE PUSH1 0x20 ADD SWAP1 DUP2 MSTORE PUSH1 0x20 ADD PUSH0 KECCAK256 DUP1 SLOAD PUSH2 0x1619 SWAP1 PUSH2 0x2FFA JUMP JUMPDEST DUP1 PUSH1 0x1F ADD PUSH1 0x20 DUP1 SWAP2 DIV MUL PUSH1 0x20 ADD PUSH1 0x40 MLOAD SWAP1 DUP2 ADD PUSH1 0x40 MSTORE DUP1 SWAP3 SWAP2 SWAP1 DUP2 DUP2 MSTORE PUSH1 0x20 ADD DUP3 DUP1 SLOAD PUSH2 0x1645 SWAP1 PUSH2 0x2FFA JUMP JUMPDEST DUP1 ISZERO PUSH2 0x1690 JUMPI DUP1 PUSH1 0x1F LT PUSH2 0x1667 JUMPI PUSH2 0x100 DUP1 DUP4 SLOAD DIV MUL DUP4 MSTORE SWAP2 PUSH1 0x20 ADD SWAP2 PUSH2 0x1690 JUMP JUMPDEST DUP3 ADD SWAP2 SWAP1 PUSH0 MSTORE PUSH1 0x20 PUSH0 KECCAK256 SWAP1 JUMPDEST DUP2 SLOAD DUP2 MSTORE SWAP1 PUSH1 0x1 ADD SWAP1 PUSH1 0x20 ADD DUP1 DUP4 GT PUSH2 0x1673 JUMPI DUP3 SWAP1 SUB PUSH1 0x1F AND DUP3 ADD SWAP2 JUMPDEST POP POP POP POP POP SWAP1 POP PUSH0 PUSH1 0x2 DUP3 PUSH1 0x40 MLOAD PUSH2 0x16A8 SWAP2 SWAP1 PUSH2 0x3160 JUMP JUMPDEST SWAP1 DUP2 MSTORE PUSH1 0x20 ADD PUSH1 0x40 MLOAD DUP1 SWAP2 SUB SWAP1 KECCAK256 PUSH0 SWAP1 SLOAD SWAP1 PUSH2 0x100 EXP SWAP1 DIV PUSH20 0xFFFFFFFFFFFFFFFFFFFFFFFFFFFFFFFFFFFFFFFF AND SWAP1 POP PUSH0 PUSH1 0x9 PUSH0 DUP9 DUP2 MSTORE PUSH1 0x20 ADD SWAP1 DUP2 MSTORE PUSH1 0x20 ADD PUSH0 KECCAK256 PUSH0 SWAP1 SLOAD SWAP1 PUSH2 0x100 EXP SWAP1 DIV PUSH20 0xFFFFFFFFFFFFFFFFFFFFFFFFFFFFFFFFFFFFFFFF AND SWAP1 POP PUSH0 PUSH1 0x8 PUSH0 DUP10 DUP2 MSTORE PUSH1 0x20 ADD SWAP1 DUP2 MSTORE PUSH1 0x20 ADD PUSH0 KECCAK256 SLOAD SWAP1 POP PUSH0 PUSH1 0xA PUSH0 DUP11 DUP2 MSTORE PUSH1 0x20 ADD SWAP1 DUP2 MSTORE PUSH1 0x20 ADD PUSH0 KECCAK256 PUSH0 DUP10 PUSH20 0xFFFFFFFFFFFFFFFFFFFFFFFFFFFFFFFFFFFFFFFF AND PUSH20 0xFFFFFFFFFFFFFFFFFFFFFFFFFFFFFFFFFFFFFFFF AND DUP2 MSTORE PUSH1 0x20 ADD SWAP1 DUP2 MSTORE PUSH1 0x20 ADD PUSH0 KECCAK256 SLOAD SWAP1 POP PUSH0 DUP4 SWAP1 POP DUP1 PUSH20 0xFFFFFFFFFFFFFFFFFFFFFFFFFFFFFFFFFFFFFFFF AND PUSH4 0x483CED98 DUP8 DUP8 DUP13 DUP8 DUP8 PUSH1 0x40 MLOAD DUP7 PUSH4 0xFFFFFFFF AND PUSH1 0xE0 SHL DUP2 MSTORE PUSH1 0x4 ADD PUSH2 0x17B6 SWAP6 SWAP5 SWAP4 SWAP3 SWAP2 SWAP1 PUSH2 0x356D JUMP JUMPDEST PUSH0 PUSH1 0x40 MLOAD DUP1 DUP4 SUB DUP2 DUP7 GAS STATICCALL ISZERO DUP1 ISZERO PUSH2 0x17D0 JUMPI RETURNDATASIZE PUSH0 DUP1 RETURNDATACOPY RETURNDATASIZE PUSH0 REVERT JUMPDEST POP POP POP POP PUSH1 0x40 MLOAD RETURNDATASIZE PUSH0 DUP3 RETURNDATACOPY RETURNDATASIZE PUSH1 0x1F NOT PUSH1 0x1F DUP3 ADD AND DUP3 ADD DUP1 PUSH1 0x40 MSTORE POP DUP2 ADD SWAP1 PUSH2 0x17F8 SWAP2 SWAP1 PUSH2 0x3633 JUMP JUMPDEST SWAP8 POP POP POP POP POP POP POP POP SWAP3 SWAP2 POP POP JUMP JUMPDEST PUSH0 DUP1 PUSH0 DUP1 PUSH2 0x1814 DUP6 PUSH2 0x19E0 JUMP JUMPDEST SWAP3 POP SWAP3 POP SWAP3 POP PUSH1 0x1 DUP7 DUP3 DUP6 DUP6 PUSH1 0x40 MLOAD PUSH0 DUP2 MSTORE PUSH1 0x20 ADD PUSH1 0x40 MSTORE PUSH1 0x40 MLOAD PUSH2 0x183C SWAP5 SWAP4 SWAP3 SWAP2 SWAP1 PUSH2 0x367A JUMP JUMPDEST PUSH1 0x20 PUSH1 0x40 MLOAD PUSH1 0x20 DUP2 SUB SWAP1 DUP1 DUP5 SUB SWAP1 DUP6 GAS STATICCALL ISZERO DUP1 ISZERO PUSH2 0x185C JUMPI RETURNDATASIZE PUSH0 DUP1 RETURNDATACOPY RETURNDATASIZE PUSH0 REVERT JUMPDEST POP POP POP PUSH1 0x20 PUSH1 0x40 MLOAD SUB MLOAD SWAP4 POP POP POP POP SWAP3 SWAP2 POP POP JUMP JUMPDEST DUP1 PUSH1 0x6 PUSH0 DUP3 DUP2 MSTORE PUSH1 0x20 ADD SWAP1 DUP2 MSTORE PUSH1 0x20 ADD PUSH0 KECCAK256 PUSH0 SWAP1 SLOAD SWAP1 PUSH2 0x100 EXP SWAP1 DIV PUSH1 0xFF AND PUSH2 0x18CF JUMPI PUSH1 0x40 MLOAD PUSH32 0x8C379A000000000000000000000000000000000000000000000000000000000 DUP2 MSTORE PUSH1 0x4 ADD PUSH2 0x18C6 SWAP1 PUSH2 0x2C9F JUMP JUMPDEST PUSH1 0x40 MLOAD DUP1 SWAP2 SUB SWAP1 REVERT JUMPDEST CALLER PUSH20 0xFFFFFFFFFFFFFFFFFFFFFFFFFFFFFFFFFFFFFFFF AND ADDRESS PUSH20 0xFFFFFFFFFFFFFFFFFFFFFFFFFFFFFFFFFFFFFFFF AND PUSH4 0x1E7FD268 DUP5 PUSH1 0x40 MLOAD DUP3 PUSH4 0xFFFFFFFF AND PUSH1 0xE0 SHL DUP2 MSTORE PUSH1 0x4 ADD PUSH2 0x191F SWAP2 SWAP1 PUSH2 0x2CCC JUMP JUMPDEST PUSH1 0x20 PUSH1 0x40 MLOAD DUP1 DUP4 SUB DUP2 DUP7 GAS STATICCALL ISZERO DUP1 ISZERO PUSH2 0x193A JUMPI RETURNDATASIZE PUSH0 DUP1 RETURNDATACOPY RETURNDATASIZE PUSH0 REVERT JUMPDEST POP POP POP POP PUSH1 0x40 MLOAD RETURNDATASIZE PUSH1 0x1F NOT PUSH1 0x1F DUP3 ADD AND DUP3 ADD DUP1 PUSH1 0x40 MSTORE POP DUP2 ADD SWAP1 PUSH2 0x195E SWAP2 SWAP1 PUSH2 0x2EF9 JUMP JUMPDEST PUSH20 0xFFFFFFFFFFFFFFFFFFFFFFFFFFFFFFFFFFFFFFFF AND EQ PUSH2 0x19B4 JUMPI PUSH1 0x40 MLOAD PUSH32 0x8C379A000000000000000000000000000000000000000000000000000000000 DUP2 MSTORE PUSH1 0x4 ADD PUSH2 0x19AB SWAP1 PUSH2 0x32BD JUMP JUMPDEST PUSH1 0x40 MLOAD DUP1 SWAP2 SUB SWAP1 REVERT JUMPDEST PUSH0 PUSH1 0x6 PUSH0 DUP5 DUP2 MSTORE PUSH1 0x20 ADD SWAP1 DUP2 MSTORE PUSH1 0x20 ADD PUSH0 KECCAK256 PUSH0 PUSH2 0x100 EXP DUP2 SLOAD DUP2 PUSH1 0xFF MUL NOT AND SWAP1 DUP4 ISZERO ISZERO MUL OR SWAP1 SSTORE POP POP POP JUMP JUMPDEST PUSH0 DUP1 PUSH0 PUSH1 0x41 DUP5 MLOAD EQ PUSH2 0x1A27 JUMPI PUSH1 0x40 MLOAD PUSH32 0x8C379A000000000000000000000000000000000000000000000000000000000 DUP2 MSTORE PUSH1 0x4 ADD PUSH2 0x1A1E SWAP1 PUSH2 0x3707 JUMP JUMPDEST PUSH1 0x40 MLOAD DUP1 SWAP2 SUB SWAP1 REVERT JUMPDEST PUSH1 0x20 DUP5 ADD MLOAD SWAP3 POP PUSH1 0x40 DUP5 ADD MLOAD SWAP2 POP PUSH1 0x60 DUP5 ADD MLOAD PUSH0 BYTE SWAP1 POP SWAP2 SWAP4 SWAP1 SWAP3 POP JUMP JUMPDEST PUSH0 DUP2 PUSH1 0x6 PUSH0 DUP3 DUP2 MSTORE PUSH1 0x20 ADD SWAP1 DUP2 MSTORE PUSH1 0x20 ADD PUSH0 KECCAK256 PUSH0 SWAP1 SLOAD SWAP1 PUSH2 0x100 EXP SWAP1 DIV PUSH1 0xFF AND PUSH2 0x1AA4 JUMPI PUSH1 0x40 MLOAD PUSH32 0x8C379A000000000000000000000000000000000000000000000000000000000 DUP2 MSTORE PUSH1 0x4 ADD PUSH2 0x1A9B SWAP1 PUSH2 0x2C9F JUMP JUMPDEST PUSH1 0x40 MLOAD DUP1 SWAP2 SUB SWAP1 REVERT JUMPDEST PUSH1 0x9 PUSH0 DUP5 DUP2 MSTORE PUSH1 0x20 ADD SWAP1 DUP2 MSTORE PUSH1 0x20 ADD PUSH0 KECCAK256 PUSH0 SWAP1 SLOAD SWAP1 PUSH2 0x100 EXP SWAP1 DIV PUSH20 0xFFFFFFFFFFFFFFFFFFFFFFFFFFFFFFFFFFFFFFFF AND SWAP2 POP POP SWAP2 SWAP1 POP JUMP JUMPDEST PUSH0 DUP2 PUSH1 0x6 PUSH0 DUP3 DUP2 MSTORE PUSH1 0x20 ADD SWAP1 DUP2 MSTORE PUSH1 0x20 ADD PUSH0 KECCAK256 PUSH0 SWAP1 SLOAD SWAP1 PUSH2 0x100 EXP SWAP1 DIV PUSH1 0xFF AND PUSH2 0x1B3C JUMPI PUSH1 0x40 MLOAD PUSH32 0x8C379A000000000000000000000000000000000000000000000000000000000 DUP2 MSTORE PUSH1 0x4 ADD PUSH2 0x1B33 SWAP1 PUSH2 0x2C9F JUMP JUMPDEST PUSH1 0x40 MLOAD DUP1 SWAP2 SUB SWAP1 REVERT JUMPDEST PUSH1 0x8 PUSH0 DUP5 DUP2 MSTORE PUSH1 0x20 ADD SWAP1 DUP2 MSTORE PUSH1 0x20 ADD PUSH0 KECCAK256 SLOAD SWAP2 POP POP SWAP2 SWAP1 POP JUMP JUMPDEST CALLER PUSH20 0xFFFFFFFFFFFFFFFFFFFFFFFFFFFFFFFFFFFFFFFF AND PUSH0 DUP1 SLOAD SWAP1 PUSH2 0x100 EXP SWAP1 DIV PUSH20 0xFFFFFFFFFFFFFFFFFFFFFFFFFFFFFFFFFFFFFFFF AND PUSH20 0xFFFFFFFFFFFFFFFFFFFFFFFFFFFFFFFFFFFFFFFF AND EQ PUSH2 0x1BE3 JUMPI PUSH1 0x40 MLOAD PUSH32 0x8C379A000000000000000000000000000000000000000000000000000000000 DUP2 MSTORE PUSH1 0x4 ADD PUSH2 0x1BDA SWAP1 PUSH2 0x3255 JUMP JUMPDEST PUSH1 0x40 MLOAD DUP1 SWAP2 SUB SWAP1 REVERT JUMPDEST PUSH0 PUSH1 0x1 PUSH0 DUP4 PUSH20 0xFFFFFFFFFFFFFFFFFFFFFFFFFFFFFFFFFFFFFFFF AND PUSH20 0xFFFFFFFFFFFFFFFFFFFFFFFFFFFFFFFFFFFFFFFF AND DUP2 MSTORE PUSH1 0x20 ADD SWAP1 DUP2 MSTORE PUSH1 0x20 ADD PUSH0 KECCAK256 PUSH0 PUSH2 0x100 EXP DUP2 SLOAD DUP2 PUSH1 0xFF MUL NOT AND SWAP1 DUP4 ISZERO ISZERO MUL OR SWAP1 SSTORE POP POP JUMP JUMPDEST CALLER PUSH20 0xFFFFFFFFFFFFFFFFFFFFFFFFFFFFFFFFFFFFFFFF AND PUSH0 DUP1 SLOAD SWAP1 PUSH2 0x100 EXP SWAP1 DIV PUSH20 0xFFFFFFFFFFFFFFFFFFFFFFFFFFFFFFFFFFFFFFFF AND PUSH20 0xFFFFFFFFFFFFFFFFFFFFFFFFFFFFFFFFFFFFFFFF AND EQ PUSH2 0x1CC7 JUMPI PUSH1 0x40 MLOAD PUSH32 0x8C379A000000000000000000000000000000000000000000000000000000000 DUP2 MSTORE PUSH1 0x4 ADD PUSH2 0x1CBE SWAP1 PUSH2 0x3255 JUMP JUMPDEST PUSH1 0x40 MLOAD DUP1 SWAP2 SUB SWAP1 REVERT JUMPDEST DUP1 PUSH0 DUP1 PUSH2 0x100 EXP DUP2 SLOAD DUP2 PUSH20 0xFFFFFFFFFFFFFFFFFFFFFFFFFFFFFFFFFFFFFFFF MUL NOT AND SWAP1 DUP4 PUSH20 0xFFFFFFFFFFFFFFFFFFFFFFFFFFFFFFFFFFFFFFFF AND MUL OR SWAP1 SSTORE POP POP JUMP JUMPDEST PUSH0 DUP2 PUSH1 0x40 MLOAD PUSH1 0x20 ADD PUSH2 0x1D1B SWAP2 SWAP1 PUSH2 0x378F JUMP JUMPDEST PUSH1 0x40 MLOAD PUSH1 0x20 DUP2 DUP4 SUB SUB DUP2 MSTORE SWAP1 PUSH1 0x40 MSTORE DUP1 MLOAD SWAP1 PUSH1 0x20 ADD KECCAK256 SWAP1 POP SWAP2 SWAP1 POP JUMP JUMPDEST CALLER PUSH20 0xFFFFFFFFFFFFFFFFFFFFFFFFFFFFFFFFFFFFFFFF AND PUSH0 DUP1 SLOAD SWAP1 PUSH2 0x100 EXP SWAP1 DIV PUSH20 0xFFFFFFFFFFFFFFFFFFFFFFFFFFFFFFFFFFFFFFFF AND PUSH20 0xFFFFFFFFFFFFFFFFFFFFFFFFFFFFFFFFFFFFFFFF AND EQ PUSH2 0x1DC5 JUMPI PUSH1 0x40 MLOAD PUSH32 0x8C379A000000000000000000000000000000000000000000000000000000000 DUP2 MSTORE PUSH1 0x4 ADD PUSH2 0x1DBC SWAP1 PUSH2 0x3255 JUMP JUMPDEST PUSH1 0x40 MLOAD DUP1 SWAP2 SUB SWAP1 REVERT JUMPDEST DUP3 PUSH1 0x1 PUSH0 DUP3 PUSH20 0xFFFFFFFFFFFFFFFFFFFFFFFFFFFFFFFFFFFFFFFF AND PUSH20 0xFFFFFFFFFFFFFFFFFFFFFFFFFFFFFFFFFFFFFFFF AND DUP2 MSTORE PUSH1 0x20 ADD SWAP1 DUP2 MSTORE PUSH1 0x20 ADD PUSH0 KECCAK256 PUSH0 SWAP1 SLOAD SWAP1 PUSH2 0x100 EXP SWAP1 DIV PUSH1 0xFF AND PUSH2 0x1E4F JUMPI PUSH1 0x40 MLOAD PUSH32 0x8C379A000000000000000000000000000000000000000000000000000000000 DUP2 MSTORE PUSH1 0x4 ADD PUSH2 0x1E46 SWAP1 PUSH2 0x2C9F JUMP JUMPDEST PUSH1 0x40 MLOAD DUP1 SWAP2 SUB SWAP1 REVERT JUMPDEST PUSH1 0x5 PUSH0 DUP4 DUP2 MSTORE PUSH1 0x20 ADD SWAP1 DUP2 MSTORE PUSH1 0x20 ADD PUSH0 KECCAK256 PUSH0 SWAP1 SLOAD SWAP1 PUSH2 0x100 EXP SWAP1 DIV PUSH1 0xFF AND ISZERO PUSH2 0x1EAD JUMPI PUSH1 0x40 MLOAD PUSH32 0x8C379A000000000000000000000000000000000000000000000000000000000 DUP2 MSTORE PUSH1 0x4 ADD PUSH2 0x1EA4 SWAP1 PUSH2 0x3325 JUMP JUMPDEST PUSH1 0x40 MLOAD DUP1 SWAP2 SUB SWAP1 REVERT JUMPDEST ADDRESS PUSH20 0xFFFFFFFFFFFFFFFFFFFFFFFFFFFFFFFFFFFFFFFF AND PUSH4 0x76B1D966 DUP10 DUP10 DUP10 DUP10 PUSH1 0x40 MLOAD DUP6 PUSH4 0xFFFFFFFF AND PUSH1 0xE0 SHL DUP2 MSTORE PUSH1 0x4 ADD PUSH2 0x1EEC SWAP5 SWAP4 SWAP3 SWAP2 SWAP1 PUSH2 0x37B4 JUMP JUMPDEST PUSH0 PUSH1 0x40 MLOAD DUP1 DUP4 SUB DUP2 PUSH0 DUP8 DUP1 EXTCODESIZE ISZERO DUP1 ISZERO PUSH2 0x1F03 JUMPI PUSH0 DUP1 REVERT JUMPDEST POP GAS CALL ISZERO DUP1 ISZERO PUSH2 0x1F15 JUMPI RETURNDATASIZE PUSH0 DUP1 RETURNDATACOPY RETURNDATASIZE PUSH0 REVERT JUMPDEST POP POP POP POP PUSH2 0x1F25 DUP9 DUP6 DUP6 DUP6 PUSH2 0x1F2F JUMP JUMPDEST POP POP POP POP POP POP POP POP JUMP JUMPDEST PUSH1 0x1 PUSH1 0x5 PUSH0 DUP4 DUP2 MSTORE PUSH1 0x20 ADD SWAP1 DUP2 MSTORE PUSH1 0x20 ADD PUSH0 KECCAK256 PUSH0 PUSH2 0x100 EXP DUP2 SLOAD DUP2 PUSH1 0xFF MUL NOT AND SWAP1 DUP4 ISZERO ISZERO MUL OR SWAP1 SSTORE POP PUSH1 0x1 PUSH1 0x6 PUSH0 DUP4 DUP2 MSTORE PUSH1 0x20 ADD SWAP1 DUP2 MSTORE PUSH1 0x20 ADD PUSH0 KECCAK256 PUSH0 PUSH2 0x100 EXP DUP2 SLOAD DUP2 PUSH1 0xFF MUL NOT AND SWAP1 DUP4 ISZERO ISZERO MUL OR SWAP1 SSTORE POP PUSH0 PUSH1 0x3 DUP6 PUSH1 0x40 MLOAD PUSH2 0x1F92 SWAP2 SWAP1 PUSH2 0x3160 JUMP JUMPDEST SWAP1 DUP2 MSTORE PUSH1 0x20 ADD PUSH1 0x40 MLOAD DUP1 SWAP2 SUB SWAP1 KECCAK256 SLOAD SWAP1 POP DUP2 PUSH1 0x4 DUP7 PUSH1 0x40 MLOAD PUSH2 0x1FB4 SWAP2 SWAP1 PUSH2 0x3160 JUMP JUMPDEST SWAP1 DUP2 MSTORE PUSH1 0x20 ADD PUSH1 0x40 MLOAD DUP1 SWAP2 SUB SWAP1 KECCAK256 PUSH0 DUP4 DUP2 MSTORE PUSH1 0x20 ADD SWAP1 DUP2 MSTORE PUSH1 0x20 ADD PUSH0 KECCAK256 DUP2 SWAP1 SSTORE POP PUSH1 0x1 DUP2 PUSH2 0x1FE2 SWAP2 SWAP1 PUSH2 0x3832 JUMP JUMPDEST PUSH1 0x3 DUP7 PUSH1 0x40 MLOAD PUSH2 0x1FF2 SWAP2 SWAP1 PUSH2 0x3160 JUMP JUMPDEST SWAP1 DUP2 MSTORE PUSH1 0x20 ADD PUSH1 0x40 MLOAD DUP1 SWAP2 SUB SWAP1 KECCAK256 DUP2 SWAP1 SSTORE POP DUP5 PUSH1 0x7 PUSH0 DUP5 DUP2 MSTORE PUSH1 0x20 ADD SWAP1 DUP2 MSTORE PUSH1 0x20 ADD PUSH0 KECCAK256 SWAP1 DUP2 PUSH2 0x2022 SWAP2 SWAP1 PUSH2 0x39C6 JUMP JUMPDEST POP DUP3 PUSH1 0x8 PUSH0 DUP5 DUP2 MSTORE PUSH1 0x20 ADD SWAP1 DUP2 MSTORE PUSH1 0x20 ADD PUSH0 KECCAK256 DUP2 SWAP1 SSTORE POP DUP4 PUSH1 0x9 PUSH0 DUP5 DUP2 MSTORE PUSH1 0x20 ADD SWAP1 DUP2 MSTORE PUSH1 0x20 ADD PUSH0 KECCAK256 PUSH0 PUSH2 0x100 EXP DUP2 SLOAD DUP2 PUSH20 0xFFFFFFFFFFFFFFFFFFFFFFFFFFFFFFFFFFFFFFFF MUL NOT AND SWAP1 DUP4 PUSH20 0xFFFFFFFFFFFFFFFFFFFFFFFFFFFFFFFFFFFFFFFF AND MUL OR SWAP1 SSTORE POP POP POP POP POP POP JUMP JUMPDEST PUSH0 PUSH1 0x40 MLOAD SWAP1 POP SWAP1 JUMP JUMPDEST PUSH0 DUP1 REVERT JUMPDEST PUSH0 DUP1 REVERT JUMPDEST PUSH0 DUP2 SWAP1 POP SWAP2 SWAP1 POP JUMP JUMPDEST PUSH2 0x20B2 DUP2 PUSH2 0x20A0 JUMP JUMPDEST DUP2 EQ PUSH2 0x20BC JUMPI PUSH0 DUP1 REVERT JUMPDEST POP JUMP JUMPDEST PUSH0 DUP2 CALLDATALOAD SWAP1 POP PUSH2 0x20CD DUP2 PUSH2 0x20A9 JUMP JUMPDEST SWAP3 SWAP2 POP POP JUMP JUMPDEST PUSH2 0x20DC DUP2 PUSH2 0x20A0 JUMP JUMPDEST DUP2 EQ PUSH2 0x20E6 JUMPI PUSH0 DUP1 REVERT JUMPDEST POP JUMP JUMPDEST PUSH0 DUP2 CALLDATALOAD SWAP1 POP PUSH2 0x20F7 DUP2 PUSH2 0x20D3 JUMP JUMPDEST SWAP3 SWAP2 POP POP JUMP JUMPDEST PUSH0 DUP1 REVERT JUMPDEST PUSH0 DUP1 REVERT JUMPDEST PUSH0 PUSH1 0x1F NOT PUSH1 0x1F DUP4 ADD AND SWAP1 POP SWAP2 SWAP1 POP JUMP JUMPDEST PUSH32 0x4E487B7100000000000000000000000000000000000000000000000000000000 PUSH0 MSTORE PUSH1 0x41 PUSH1 0x4 MSTORE PUSH1 0x24 PUSH0 REVERT JUMPDEST PUSH2 0x214B DUP3 PUSH2 0x2105 JUMP JUMPDEST DUP2 ADD DUP2 DUP2 LT PUSH8 0xFFFFFFFFFFFFFFFF DUP3 GT OR ISZERO PUSH2 0x216A JUMPI PUSH2 0x2169 PUSH2 0x2115 JUMP JUMPDEST JUMPDEST DUP1 PUSH1 0x40 MSTORE POP POP POP JUMP JUMPDEST PUSH0 PUSH2 0x217C PUSH2 0x208F JUMP JUMPDEST SWAP1 POP PUSH2 0x2188 DUP3 DUP3 PUSH2 0x2142 JUMP JUMPDEST SWAP2 SWAP1 POP JUMP JUMPDEST PUSH0 PUSH8 0xFFFFFFFFFFFFFFFF DUP3 GT ISZERO PUSH2 0x21A7 JUMPI PUSH2 0x21A6 PUSH2 0x2115 JUMP JUMPDEST JUMPDEST PUSH2 0x21B0 DUP3 PUSH2 0x2105 JUMP JUMPDEST SWAP1 POP PUSH1 0x20 DUP2 ADD SWAP1 POP SWAP2 SWAP1 POP JUMP JUMPDEST DUP3 DUP2 DUP4 CALLDATACOPY PUSH0 DUP4 DUP4 ADD MSTORE POP POP POP JUMP JUMPDEST PUSH0 PUSH2 0x21DD PUSH2 0x21D8 DUP5 PUSH2 0x218D JUMP JUMPDEST PUSH2 0x2173 JUMP JUMPDEST SWAP1 POP DUP3 DUP2 MSTORE PUSH1 0x20 DUP2 ADD DUP5 DUP5 DUP5 ADD GT ISZERO PUSH2 0x21F9 JUMPI PUSH2 0x21F8 PUSH2 0x2101 JUMP JUMPDEST JUMPDEST PUSH2 0x2204 DUP5 DUP3 DUP6 PUSH2 0x21BD JUMP JUMPDEST POP SWAP4 SWAP3 POP POP POP JUMP JUMPDEST PUSH0 DUP3 PUSH1 0x1F DUP4 ADD SLT PUSH2 0x2220 JUMPI PUSH2 0x221F PUSH2 0x20FD JUMP JUMPDEST JUMPDEST DUP2 CALLDATALOAD PUSH2 0x2230 DUP5 DUP3 PUSH1 0x20 DUP7 ADD PUSH2 0x21CB JUMP JUMPDEST SWAP2 POP POP SWAP3 SWAP2 POP POP JUMP JUMPDEST PUSH0 DUP1 PUSH0 PUSH1 0x60 DUP5 DUP7 SUB SLT ISZERO PUSH2 0x2250 JUMPI PUSH2 0x224F PUSH2 0x2098 JUMP JUMPDEST JUMPDEST PUSH0 PUSH2 0x225D DUP7 DUP3 DUP8 ADD PUSH2 0x20BF JUMP JUMPDEST SWAP4 POP POP PUSH1 0x20 PUSH2 0x226E DUP7 DUP3 DUP8 ADD PUSH2 0x20E9 JUMP JUMPDEST SWAP3 POP POP PUSH1 0x40 DUP5 ADD CALLDATALOAD PUSH8 0xFFFFFFFFFFFFFFFF DUP2 GT ISZERO PUSH2 0x228F JUMPI PUSH2 0x228E PUSH2 0x209C JUMP JUMPDEST JUMPDEST PUSH2 0x229B DUP7 DUP3 DUP8 ADD PUSH2 0x220C JUMP JUMPDEST SWAP2 POP POP SWAP3 POP SWAP3 POP SWAP3 JUMP JUMPDEST PUSH0 DUP2 MLOAD SWAP1 POP SWAP2 SWAP1 POP JUMP JUMPDEST PUSH0 DUP3 DUP3 MSTORE PUSH1 0x20 DUP3 ADD SWAP1 POP SWAP3 SWAP2 POP POP JUMP JUMPDEST DUP3 DUP2 DUP4 MCOPY PUSH0 DUP4 DUP4 ADD MSTORE POP POP POP JUMP JUMPDEST PUSH0 PUSH2 0x22D7 DUP3 PUSH2 0x22A5 JUMP JUMPDEST PUSH2 0x22E1 DUP2 DUP6 PUSH2 0x22AF JUMP JUMPDEST SWAP4 POP PUSH2 0x22F1 DUP2 DUP6 PUSH1 0x20 DUP7 ADD PUSH2 0x22BF JUMP JUMPDEST PUSH2 0x22FA DUP2 PUSH2 0x2105 JUMP JUMPDEST DUP5 ADD SWAP2 POP POP SWAP3 SWAP2 POP POP JUMP JUMPDEST PUSH0 PUSH1 0x20 DUP3 ADD SWAP1 POP DUP2 DUP2 SUB PUSH0 DUP4 ADD MSTORE PUSH2 0x231D DUP2 DUP5 PUSH2 0x22CD JUMP JUMPDEST SWAP1 POP SWAP3 SWAP2 POP POP JUMP JUMPDEST PUSH0 PUSH1 0x20 DUP3 DUP5 SUB SLT ISZERO PUSH2 0x233A JUMPI PUSH2 0x2339 PUSH2 0x2098 JUMP JUMPDEST JUMPDEST PUSH0 PUSH2 0x2347 DUP5 DUP3 DUP6 ADD PUSH2 0x20BF JUMP JUMPDEST SWAP2 POP POP SWAP3 SWAP2 POP POP JUMP JUMPDEST PUSH0 PUSH20 0xFFFFFFFFFFFFFFFFFFFFFFFFFFFFFFFFFFFFFFFF DUP3 AND SWAP1 POP SWAP2 SWAP1 POP JUMP JUMPDEST PUSH0 PUSH2 0x2379 DUP3 PUSH2 0x2350 JUMP JUMPDEST SWAP1 POP SWAP2 SWAP1 POP JUMP JUMPDEST PUSH2 0x2389 DUP2 PUSH2 0x236F JUMP JUMPDEST DUP3 MSTORE POP POP JUMP JUMPDEST PUSH0 PUSH1 0x20 DUP3 ADD SWAP1 POP PUSH2 0x23A2 PUSH0 DUP4 ADD DUP5 PUSH2 0x2380 JUMP JUMPDEST SWAP3 SWAP2 POP POP JUMP JUMPDEST PUSH0 PUSH8 0xFFFFFFFFFFFFFFFF DUP3 GT ISZERO PUSH2 0x23C2 JUMPI PUSH2 0x23C1 PUSH2 0x2115 JUMP JUMPDEST JUMPDEST PUSH2 0x23CB DUP3 PUSH2 0x2105 JUMP JUMPDEST SWAP1 POP PUSH1 0x20 DUP2 ADD SWAP1 POP SWAP2 SWAP1 POP JUMP JUMPDEST PUSH0 PUSH2 0x23EA PUSH2 0x23E5 DUP5 PUSH2 0x23A8 JUMP JUMPDEST PUSH2 0x2173 JUMP JUMPDEST SWAP1 POP DUP3 DUP2 MSTORE PUSH1 0x20 DUP2 ADD DUP5 DUP5 DUP5 ADD GT ISZERO PUSH2 0x2406 JUMPI PUSH2 0x2405 PUSH2 0x2101 JUMP JUMPDEST JUMPDEST PUSH2 0x2411 DUP5 DUP3 DUP6 PUSH2 0x21BD JUMP JUMPDEST POP SWAP4 SWAP3 POP POP POP JUMP JUMPDEST PUSH0 DUP3 PUSH1 0x1F DUP4 ADD SLT PUSH2 0x242D JUMPI PUSH2 0x242C PUSH2 0x20FD JUMP JUMPDEST JUMPDEST DUP2 CALLDATALOAD PUSH2 0x243D DUP5 DUP3 PUSH1 0x20 DUP7 ADD PUSH2 0x23D8 JUMP JUMPDEST SWAP2 POP POP SWAP3 SWAP2 POP POP JUMP JUMPDEST PUSH0 DUP1 PUSH1 0x40 DUP4 DUP6 SUB SLT ISZERO PUSH2 0x245C JUMPI PUSH2 0x245B PUSH2 0x2098 JUMP JUMPDEST JUMPDEST PUSH0 DUP4 ADD CALLDATALOAD PUSH8 0xFFFFFFFFFFFFFFFF DUP2 GT ISZERO PUSH2 0x2479 JUMPI PUSH2 0x2478 PUSH2 0x209C JUMP JUMPDEST JUMPDEST PUSH2 0x2485 DUP6 DUP3 DUP7 ADD PUSH2 0x2419 JUMP JUMPDEST SWAP3 POP POP PUSH1 0x20 PUSH2 0x2496 DUP6 DUP3 DUP7 ADD PUSH2 0x20E9 JUMP JUMPDEST SWAP2 POP POP SWAP3 POP SWAP3 SWAP1 POP JUMP JUMPDEST PUSH0 DUP2 SWAP1 POP SWAP2 SWAP1 POP JUMP JUMPDEST PUSH2 0x24B2 DUP2 PUSH2 0x24A0 JUMP JUMPDEST DUP3 MSTORE POP POP JUMP JUMPDEST PUSH0 PUSH1 0x20 DUP3 ADD SWAP1 POP PUSH2 0x24CB PUSH0 DUP4 ADD DUP5 PUSH2 0x24A9 JUMP JUMPDEST SWAP3 SWAP2 POP POP JUMP JUMPDEST PUSH0 PUSH1 0x20 DUP3 DUP5 SUB SLT ISZERO PUSH2 0x24E6 JUMPI PUSH2 0x24E5 PUSH2 0x2098 JUMP JUMPDEST JUMPDEST PUSH0 DUP3 ADD CALLDATALOAD PUSH8 0xFFFFFFFFFFFFFFFF DUP2 GT ISZERO PUSH2 0x2503 JUMPI PUSH2 0x2502 PUSH2 0x209C JUMP JUMPDEST JUMPDEST PUSH2 0x250F DUP5 DUP3 DUP6 ADD PUSH2 0x2419 JUMP JUMPDEST SWAP2 POP POP SWAP3 SWAP2 POP POP JUMP JUMPDEST PUSH0 PUSH2 0x2522 DUP3 PUSH2 0x2350 JUMP JUMPDEST SWAP1 POP SWAP2 SWAP1 POP JUMP JUMPDEST PUSH2 0x2532 DUP2 PUSH2 0x2518 JUMP JUMPDEST DUP3 MSTORE POP POP JUMP JUMPDEST PUSH0 PUSH1 0x20 DUP3 ADD SWAP1 POP PUSH2 0x254B PUSH0 DUP4 ADD DUP5 PUSH2 0x2529 JUMP JUMPDEST SWAP3 SWAP2 POP POP JUMP JUMPDEST PUSH2 0x255A DUP2 PUSH2 0x2518 JUMP JUMPDEST DUP2 EQ PUSH2 0x2564 JUMPI PUSH0 DUP1 REVERT JUMPDEST POP JUMP JUMPDEST PUSH0 DUP2 CALLDATALOAD SWAP1 POP PUSH2 0x2575 DUP2 PUSH2 0x2551 JUMP JUMPDEST SWAP3 SWAP2 POP POP JUMP JUMPDEST PUSH0 DUP1 PUSH1 0x40 DUP4 DUP6 SUB SLT ISZERO PUSH2 0x2591 JUMPI PUSH2 0x2590 PUSH2 0x2098 JUMP JUMPDEST JUMPDEST PUSH0 DUP4 ADD CALLDATALOAD PUSH8 0xFFFFFFFFFFFFFFFF DUP2 GT ISZERO PUSH2 0x25AE JUMPI PUSH2 0x25AD PUSH2 0x209C JUMP JUMPDEST JUMPDEST PUSH2 0x25BA DUP6 DUP3 DUP7 ADD PUSH2 0x2419 JUMP JUMPDEST SWAP3 POP POP PUSH1 0x20 PUSH2 0x25CB DUP6 DUP3 DUP7 ADD PUSH2 0x2567 JUMP JUMPDEST SWAP2 POP POP SWAP3 POP SWAP3 SWAP1 POP JUMP JUMPDEST PUSH0 DUP2 MLOAD SWAP1 POP SWAP2 SWAP1 POP JUMP JUMPDEST PUSH0 DUP3 DUP3 MSTORE PUSH1 0x20 DUP3 ADD SWAP1 POP SWAP3 SWAP2 POP POP JUMP JUMPDEST PUSH0 DUP2 SWAP1 POP PUSH1 0x20 DUP3 ADD SWAP1 POP SWAP2 SWAP1 POP JUMP JUMPDEST PUSH0 DUP2 SWAP1 POP SWAP2 SWAP1 POP JUMP JUMPDEST PUSH0 PUSH2 0x2621 PUSH2 0x261C PUSH2 0x2617 DUP5 PUSH2 0x20A0 JUMP JUMPDEST PUSH2 0x25FE JUMP JUMPDEST PUSH2 0x20A0 JUMP JUMPDEST SWAP1 POP SWAP2 SWAP1 POP JUMP JUMPDEST PUSH2 0x2631 DUP2 PUSH2 0x2607 JUMP JUMPDEST DUP3 MSTORE POP POP JUMP JUMPDEST PUSH0 PUSH2 0x2642 DUP4 DUP4 PUSH2 0x2628 JUMP JUMPDEST PUSH1 0x20 DUP4 ADD SWAP1 POP SWAP3 SWAP2 POP POP JUMP JUMPDEST PUSH0 PUSH1 0x20 DUP3 ADD SWAP1 POP SWAP2 SWAP1 POP JUMP JUMPDEST PUSH0 PUSH2 0x2664 DUP3 PUSH2 0x25D5 JUMP JUMPDEST PUSH2 0x266E DUP2 DUP6 PUSH2 0x25DF JUMP JUMPDEST SWAP4 POP PUSH2 0x2679 DUP4 PUSH2 0x25EF JUMP JUMPDEST DUP1 PUSH0 JUMPDEST DUP4 DUP2 LT ISZERO PUSH2 0x26A9 JUMPI DUP2 MLOAD PUSH2 0x2690 DUP9 DUP3 PUSH2 0x2637 JUMP JUMPDEST SWAP8 POP PUSH2 0x269B DUP4 PUSH2 0x264E JUMP JUMPDEST SWAP3 POP POP PUSH1 0x1 DUP2 ADD SWAP1 POP PUSH2 0x267C JUMP JUMPDEST POP DUP6 SWAP4 POP POP POP POP SWAP3 SWAP2 POP POP JUMP JUMPDEST PUSH0 PUSH1 0x20 DUP3 ADD SWAP1 POP DUP2 DUP2 SUB PUSH0 DUP4 ADD MSTORE PUSH2 0x26CE DUP2 DUP5 PUSH2 0x265A JUMP JUMPDEST SWAP1 POP SWAP3 SWAP2 POP POP JUMP JUMPDEST PUSH0 PUSH1 0x20 DUP3 DUP5 SUB SLT ISZERO PUSH2 0x26EB JUMPI PUSH2 0x26EA PUSH2 0x2098 JUMP JUMPDEST JUMPDEST PUSH0 PUSH2 0x26F8 DUP5 DUP3 DUP6 ADD PUSH2 0x2567 JUMP JUMPDEST SWAP2 POP POP SWAP3 SWAP2 POP POP JUMP JUMPDEST PUSH0 DUP1 PUSH0 DUP1 PUSH1 0x80 DUP6 DUP8 SUB SLT ISZERO PUSH2 0x2719 JUMPI PUSH2 0x2718 PUSH2 0x2098 JUMP JUMPDEST JUMPDEST PUSH0 PUSH2 0x2726 DUP8 DUP3 DUP9 ADD PUSH2 0x2567 JUMP JUMPDEST SWAP5 POP POP PUSH1 0x20 PUSH2 0x2737 DUP8 DUP3 DUP9 ADD PUSH2 0x20BF JUMP JUMPDEST SWAP4 POP POP PUSH1 0x40 PUSH2 0x2748 DUP8 DUP3 DUP9 ADD PUSH2 0x20E9 JUMP JUMPDEST SWAP3 POP POP PUSH1 0x60 DUP6 ADD CALLDATALOAD PUSH8 0xFFFFFFFFFFFFFFFF DUP2 GT ISZERO PUSH2 0x2769 JUMPI PUSH2 0x2768 PUSH2 0x209C JUMP JUMPDEST JUMPDEST PUSH2 0x2775 DUP8 DUP3 DUP9 ADD PUSH2 0x220C JUMP JUMPDEST SWAP2 POP POP SWAP3 SWAP6 SWAP2 SWAP5 POP SWAP3 POP JUMP JUMPDEST PUSH0 DUP2 ISZERO ISZERO SWAP1 POP SWAP2 SWAP1 POP JUMP JUMPDEST PUSH2 0x2795 DUP2 PUSH2 0x2781 JUMP JUMPDEST DUP3 MSTORE POP POP JUMP JUMPDEST PUSH0 PUSH1 0x20 DUP3 ADD SWAP1 POP PUSH2 0x27AE PUSH0 DUP4 ADD DUP5 PUSH2 0x278C JUMP JUMPDEST SWAP3 SWAP2 POP POP JUMP JUMPDEST PUSH0 DUP1 PUSH0 DUP1 PUSH1 0x80 DUP6 DUP8 SUB SLT ISZERO PUSH2 0x27CC JUMPI PUSH2 0x27CB PUSH2 0x2098 JUMP JUMPDEST JUMPDEST PUSH0 DUP6 ADD CALLDATALOAD PUSH8 0xFFFFFFFFFFFFFFFF DUP2 GT ISZERO PUSH2 0x27E9 JUMPI PUSH2 0x27E8 PUSH2 0x209C JUMP JUMPDEST JUMPDEST PUSH2 0x27F5 DUP8 DUP3 DUP9 ADD PUSH2 0x2419 JUMP JUMPDEST SWAP5 POP POP PUSH1 0x20 PUSH2 0x2806 DUP8 DUP3 DUP9 ADD PUSH2 0x2567 JUMP JUMPDEST SWAP4 POP POP PUSH1 0x40 PUSH2 0x2817 DUP8 DUP3 DUP9 ADD PUSH2 0x20E9 JUMP JUMPDEST SWAP3 POP POP PUSH1 0x60 PUSH2 0x2828 DUP8 DUP3 DUP9 ADD PUSH2 0x20BF JUMP JUMPDEST SWAP2 POP POP SWAP3 SWAP6 SWAP2 SWAP5 POP SWAP3 POP JUMP JUMPDEST PUSH0 DUP1 PUSH1 0x40 DUP4 DUP6 SUB SLT ISZERO PUSH2 0x284A JUMPI PUSH2 0x2849 PUSH2 0x2098 JUMP JUMPDEST JUMPDEST PUSH0 PUSH2 0x2857 DUP6 DUP3 DUP7 ADD PUSH2 0x20BF JUMP JUMPDEST SWAP3 POP POP PUSH1 0x20 PUSH2 0x2868 DUP6 DUP3 DUP7 ADD PUSH2 0x20E9 JUMP JUMPDEST SWAP2 POP POP SWAP3 POP SWAP3 SWAP1 POP JUMP JUMPDEST PUSH2 0x287B DUP2 PUSH2 0x236F JUMP JUMPDEST DUP2 EQ PUSH2 0x2885 JUMPI PUSH0 DUP1 REVERT JUMPDEST POP JUMP JUMPDEST PUSH0 DUP2 CALLDATALOAD SWAP1 POP PUSH2 0x2896 DUP2 PUSH2 0x2872 JUMP JUMPDEST SWAP3 SWAP2 POP POP JUMP JUMPDEST PUSH0 DUP1 PUSH0 DUP1 PUSH1 0x80 DUP6 DUP8 SUB SLT ISZERO PUSH2 0x28B4 JUMPI PUSH2 0x28B3 PUSH2 0x2098 JUMP JUMPDEST JUMPDEST PUSH0 DUP6 ADD CALLDATALOAD PUSH8 0xFFFFFFFFFFFFFFFF DUP2 GT ISZERO PUSH2 0x28D1 JUMPI PUSH2 0x28D0 PUSH2 0x209C JUMP JUMPDEST JUMPDEST PUSH2 0x28DD DUP8 DUP3 DUP9 ADD PUSH2 0x2419 JUMP JUMPDEST SWAP5 POP POP PUSH1 0x20 PUSH2 0x28EE DUP8 DUP3 DUP9 ADD PUSH2 0x2888 JUMP JUMPDEST SWAP4 POP POP PUSH1 0x40 PUSH2 0x28FF DUP8 DUP3 DUP9 ADD PUSH2 0x20E9 JUMP JUMPDEST SWAP3 POP POP PUSH1 0x60 DUP6 ADD CALLDATALOAD PUSH8 0xFFFFFFFFFFFFFFFF DUP2 GT ISZERO PUSH2 0x2920 JUMPI PUSH2 0x291F PUSH2 0x209C JUMP JUMPDEST JUMPDEST PUSH2 0x292C DUP8 DUP3 DUP9 ADD PUSH2 0x220C JUMP JUMPDEST SWAP2 POP POP SWAP3 SWAP6 SWAP2 SWAP5 POP SWAP3 POP JUMP JUMPDEST PUSH0 DUP1 PUSH0 DUP1 PUSH1 0x80 DUP6 DUP8 SUB SLT ISZERO PUSH2 0x2950 JUMPI PUSH2 0x294F PUSH2 0x2098 JUMP JUMPDEST JUMPDEST PUSH0 PUSH2 0x295D DUP8 DUP3 DUP9 ADD PUSH2 0x2567 JUMP JUMPDEST SWAP5 POP POP PUSH1 0x20 DUP6 ADD CALLDATALOAD PUSH8 0xFFFFFFFFFFFFFFFF DUP2 GT ISZERO PUSH2 0x297E JUMPI PUSH2 0x297D PUSH2 0x209C JUMP JUMPDEST JUMPDEST PUSH2 0x298A DUP8 DUP3 DUP9 ADD PUSH2 0x2419 JUMP JUMPDEST SWAP4 POP POP PUSH1 0x40 PUSH2 0x299B DUP8 DUP3 DUP9 ADD PUSH2 0x20E9 JUMP JUMPDEST SWAP3 POP POP PUSH1 0x60 DUP6 ADD CALLDATALOAD PUSH8 0xFFFFFFFFFFFFFFFF DUP2 GT ISZERO PUSH2 0x29BC JUMPI PUSH2 0x29BB PUSH2 0x209C JUMP JUMPDEST JUMPDEST PUSH2 0x29C8 DUP8 DUP3 DUP9 ADD PUSH2 0x220C JUMP JUMPDEST SWAP2 POP POP SWAP3 SWAP6 SWAP2 SWAP5 POP SWAP3 POP JUMP JUMPDEST PUSH0 DUP1 PUSH1 0x40 DUP4 DUP6 SUB SLT ISZERO PUSH2 0x29EA JUMPI PUSH2 0x29E9 PUSH2 0x2098 JUMP JUMPDEST JUMPDEST PUSH0 PUSH2 0x29F7 DUP6 DUP3 DUP7 ADD PUSH2 0x20BF JUMP JUMPDEST SWAP3 POP POP PUSH1 0x20 PUSH2 0x2A08 DUP6 DUP3 DUP7 ADD PUSH2 0x2567 JUMP JUMPDEST SWAP2 POP POP SWAP3 POP SWAP3 SWAP1 POP JUMP JUMPDEST PUSH2 0x2A1B DUP2 PUSH2 0x24A0 JUMP JUMPDEST DUP2 EQ PUSH2 0x2A25 JUMPI PUSH0 DUP1 REVERT JUMPDEST POP JUMP JUMPDEST PUSH0 DUP2 CALLDATALOAD SWAP1 POP PUSH2 0x2A36 DUP2 PUSH2 0x2A12 JUMP JUMPDEST SWAP3 SWAP2 POP POP JUMP JUMPDEST PUSH0 DUP1 PUSH1 0x40 DUP4 DUP6 SUB SLT ISZERO PUSH2 0x2A52 JUMPI PUSH2 0x2A51 PUSH2 0x2098 JUMP JUMPDEST JUMPDEST PUSH0 PUSH2 0x2A5F DUP6 DUP3 DUP7 ADD PUSH2 0x2A28 JUMP JUMPDEST SWAP3 POP POP PUSH1 0x20 DUP4 ADD CALLDATALOAD PUSH8 0xFFFFFFFFFFFFFFFF DUP2 GT ISZERO PUSH2 0x2A80 JUMPI PUSH2 0x2A7F PUSH2 0x209C JUMP JUMPDEST JUMPDEST PUSH2 0x2A8C DUP6 DUP3 DUP7 ADD PUSH2 0x220C JUMP JUMPDEST SWAP2 POP POP SWAP3 POP SWAP3 SWAP1 POP JUMP JUMPDEST PUSH0 PUSH1 0x20 DUP3 DUP5 SUB SLT ISZERO PUSH2 0x2AAB JUMPI PUSH2 0x2AAA PUSH2 0x2098 JUMP JUMPDEST JUMPDEST PUSH0 DUP3 ADD CALLDATALOAD PUSH8 0xFFFFFFFFFFFFFFFF DUP2 GT ISZERO PUSH2 0x2AC8 JUMPI PUSH2 0x2AC7 PUSH2 0x209C JUMP JUMPDEST JUMPDEST PUSH2 0x2AD4 DUP5 DUP3 DUP6 ADD PUSH2 0x220C JUMP JUMPDEST SWAP2 POP POP SWAP3 SWAP2 POP POP JUMP JUMPDEST PUSH0 PUSH1 0xFF DUP3 AND SWAP1 POP SWAP2 SWAP1 POP JUMP JUMPDEST PUSH2 0x2AF2 DUP2 PUSH2 0x2ADD JUMP JUMPDEST DUP3 MSTORE POP POP JUMP JUMPDEST PUSH0 PUSH1 0x60 DUP3 ADD SWAP1 POP PUSH2 0x2B0B PUSH0 DUP4 ADD DUP7 PUSH2 0x24A9 JUMP JUMPDEST PUSH2 0x2B18 PUSH1 0x20 DUP4 ADD DUP6 PUSH2 0x24A9 JUMP JUMPDEST PUSH2 0x2B25 PUSH1 0x40 DUP4 ADD DUP5 PUSH2 0x2AE9 JUMP JUMPDEST SWAP5 SWAP4 POP POP POP POP JUMP JUMPDEST PUSH2 0x2B36 DUP2 PUSH2 0x20A0 JUMP JUMPDEST DUP3 MSTORE POP POP JUMP JUMPDEST PUSH0 PUSH1 0x20 DUP3 ADD SWAP1 POP PUSH2 0x2B4F PUSH0 DUP4 ADD DUP5 PUSH2 0x2B2D JUMP JUMPDEST SWAP3 SWAP2 POP POP JUMP JUMPDEST PUSH0 PUSH1 0x20 DUP3 DUP5 SUB SLT ISZERO PUSH2 0x2B6A JUMPI PUSH2 0x2B69 PUSH2 0x2098 JUMP JUMPDEST JUMPDEST PUSH0 PUSH2 0x2B77 DUP5 DUP3 DUP6 ADD PUSH2 0x2A28 JUMP JUMPDEST SWAP2 POP POP SWAP3 SWAP2 POP POP JUMP JUMPDEST PUSH0 DUP1 PUSH0 DUP1 PUSH0 DUP1 PUSH0 PUSH1 0xE0 DUP9 DUP11 SUB SLT ISZERO PUSH2 0x2B9B JUMPI PUSH2 0x2B9A PUSH2 0x2098 JUMP JUMPDEST JUMPDEST PUSH0 DUP9 ADD CALLDATALOAD PUSH8 0xFFFFFFFFFFFFFFFF DUP2 GT ISZERO PUSH2 0x2BB8 JUMPI PUSH2 0x2BB7 PUSH2 0x209C JUMP JUMPDEST JUMPDEST PUSH2 0x2BC4 DUP11 DUP3 DUP12 ADD PUSH2 0x2419 JUMP JUMPDEST SWAP8 POP POP PUSH1 0x20 PUSH2 0x2BD5 DUP11 DUP3 DUP12 ADD PUSH2 0x2888 JUMP JUMPDEST SWAP7 POP POP PUSH1 0x40 PUSH2 0x2BE6 DUP11 DUP3 DUP12 ADD PUSH2 0x20E9 JUMP JUMPDEST SWAP6 POP POP PUSH1 0x60 DUP9 ADD CALLDATALOAD PUSH8 0xFFFFFFFFFFFFFFFF DUP2 GT ISZERO PUSH2 0x2C07 JUMPI PUSH2 0x2C06 PUSH2 0x209C JUMP JUMPDEST JUMPDEST PUSH2 0x2C13 DUP11 DUP3 DUP12 ADD PUSH2 0x220C JUMP JUMPDEST SWAP5 POP POP PUSH1 0x80 PUSH2 0x2C24 DUP11 DUP3 DUP12 ADD PUSH2 0x2567 JUMP JUMPDEST SWAP4 POP POP PUSH1 0xA0 PUSH2 0x2C35 DUP11 DUP3 DUP12 ADD PUSH2 0x20E9 JUMP JUMPDEST SWAP3 POP POP PUSH1 0xC0 PUSH2 0x2C46 DUP11 DUP3 DUP12 ADD PUSH2 0x20BF JUMP JUMPDEST SWAP2 POP POP SWAP3 SWAP6 SWAP9 SWAP2 SWAP5 SWAP8 POP SWAP3 SWAP6 POP JUMP JUMPDEST PUSH32 0x6C6963656E736520646F65736E27742065786973740000000000000000000000 PUSH0 DUP3 ADD MSTORE POP JUMP JUMPDEST PUSH0 PUSH2 0x2C89 PUSH1 0x15 DUP4 PUSH2 0x22AF JUMP JUMPDEST SWAP2 POP PUSH2 0x2C94 DUP3 PUSH2 0x2C55 JUMP JUMPDEST PUSH1 0x20 DUP3 ADD SWAP1 POP SWAP2 SWAP1 POP JUMP JUMPDEST PUSH0 PUSH1 0x20 DUP3 ADD SWAP1 POP DUP2 DUP2 SUB PUSH0 DUP4 ADD MSTORE PUSH2 0x2CB6 DUP2 PUSH2 0x2C7D JUMP JUMPDEST SWAP1 POP SWAP2 SWAP1 POP JUMP JUMPDEST PUSH2 0x2CC6 DUP2 PUSH2 0x2607 JUMP JUMPDEST DUP3 MSTORE POP POP JUMP JUMPDEST PUSH0 PUSH1 0x20 DUP3 ADD SWAP1 POP PUSH2 0x2CDF PUSH0 DUP4 ADD DUP5 PUSH2 0x2CBD JUMP JUMPDEST SWAP3 SWAP2 POP POP JUMP JUMPDEST PUSH0 DUP2 MLOAD SWAP1 POP PUSH2 0x2CF3 DUP2 PUSH2 0x20D3 JUMP JUMPDEST SWAP3 SWAP2 POP POP JUMP JUMPDEST PUSH0 PUSH1 0x20 DUP3 DUP5 SUB SLT ISZERO PUSH2 0x2D0E JUMPI PUSH2 0x2D0D PUSH2 0x2098 JUMP JUMPDEST JUMPDEST PUSH0 PUSH2 0x2D1B DUP5 DUP3 DUP6 ADD PUSH2 0x2CE5 JUMP JUMPDEST SWAP2 POP POP SWAP3 SWAP2 POP POP JUMP JUMPDEST PUSH32 0x6E6F7420656E6F75676820657468657200000000000000000000000000000000 PUSH0 DUP3 ADD MSTORE POP JUMP JUMPDEST PUSH0 PUSH2 0x2D58 PUSH1 0x10 DUP4 PUSH2 0x22AF JUMP JUMPDEST SWAP2 POP PUSH2 0x2D63 DUP3 PUSH2 0x2D24 JUMP JUMPDEST PUSH1 0x20 DUP3 ADD SWAP1 POP SWAP2 SWAP1 POP JUMP JUMPDEST PUSH0 PUSH1 0x20 DUP3 ADD SWAP1 POP DUP2 DUP2 SUB PUSH0 DUP4 ADD MSTORE PUSH2 0x2D85 DUP2 PUSH2 0x2D4C JUMP JUMPDEST SWAP1 POP SWAP2 SWAP1 POP JUMP JUMPDEST PUSH0 DUP2 MLOAD SWAP1 POP SWAP2 SWAP1 POP JUMP JUMPDEST PUSH0 DUP3 DUP3 MSTORE PUSH1 0x20 DUP3 ADD SWAP1 POP SWAP3 SWAP2 POP POP JUMP JUMPDEST PUSH0 PUSH2 0x2DB0 DUP3 PUSH2 0x2D8C JUMP JUMPDEST PUSH2 0x2DBA DUP2 DUP6 PUSH2 0x2D96 JUMP JUMPDEST SWAP4 POP PUSH2 0x2DCA DUP2 DUP6 PUSH1 0x20 DUP7 ADD PUSH2 0x22BF JUMP JUMPDEST PUSH2 0x2DD3 DUP2 PUSH2 0x2105 JUMP JUMPDEST DUP5 ADD SWAP2 POP POP SWAP3 SWAP2 POP POP JUMP JUMPDEST PUSH0 PUSH1 0x80 DUP3 ADD SWAP1 POP PUSH2 0x2DF1 PUSH0 DUP4 ADD DUP8 PUSH2 0x2529 JUMP JUMPDEST PUSH2 0x2DFE PUSH1 0x20 DUP4 ADD DUP7 PUSH2 0x2CBD JUMP JUMPDEST PUSH2 0x2E0B PUSH1 0x40 DUP4 ADD DUP6 PUSH2 0x2B2D JUMP JUMPDEST DUP2 DUP2 SUB PUSH1 0x60 DUP4 ADD MSTORE PUSH2 0x2E1D DUP2 DUP5 PUSH2 0x2DA6 JUMP JUMPDEST SWAP1 POP SWAP6 SWAP5 POP POP POP POP POP JUMP JUMPDEST PUSH2 0x2E31 DUP2 PUSH2 0x2781 JUMP JUMPDEST DUP2 EQ PUSH2 0x2E3B JUMPI PUSH0 DUP1 REVERT JUMPDEST POP JUMP JUMPDEST PUSH0 DUP2 MLOAD SWAP1 POP PUSH2 0x2E4C DUP2 PUSH2 0x2E28 JUMP JUMPDEST SWAP3 SWAP2 POP POP JUMP JUMPDEST PUSH0 PUSH1 0x20 DUP3 DUP5 SUB SLT ISZERO PUSH2 0x2E67 JUMPI PUSH2 0x2E66 PUSH2 0x2098 JUMP JUMPDEST JUMPDEST PUSH0 PUSH2 0x2E74 DUP5 DUP3 DUP6 ADD PUSH2 0x2E3E JUMP JUMPDEST SWAP2 POP POP SWAP3 SWAP2 POP POP JUMP JUMPDEST PUSH32 0x696E76616C6964206C6963656E736565207369676E6174757265000000000000 PUSH0 DUP3 ADD MSTORE POP JUMP JUMPDEST PUSH0 PUSH2 0x2EB1 PUSH1 0x1A DUP4 PUSH2 0x22AF JUMP JUMPDEST SWAP2 POP PUSH2 0x2EBC DUP3 PUSH2 0x2E7D JUMP JUMPDEST PUSH1 0x20 DUP3 ADD SWAP1 POP SWAP2 SWAP1 POP JUMP JUMPDEST PUSH0 PUSH1 0x20 DUP3 ADD SWAP1 POP DUP2 DUP2 SUB PUSH0 DUP4 ADD MSTORE PUSH2 0x2EDE DUP2 PUSH2 0x2EA5 JUMP JUMPDEST SWAP1 POP SWAP2 SWAP1 POP JUMP JUMPDEST PUSH0 DUP2 MLOAD SWAP1 POP PUSH2 0x2EF3 DUP2 PUSH2 0x2872 JUMP JUMPDEST SWAP3 SWAP2 POP POP JUMP JUMPDEST PUSH0 PUSH1 0x20 DUP3 DUP5 SUB SLT ISZERO PUSH2 0x2F0E JUMPI PUSH2 0x2F0D PUSH2 0x2098 JUMP JUMPDEST JUMPDEST PUSH0 PUSH2 0x2F1B DUP5 DUP3 DUP6 ADD PUSH2 0x2EE5 JUMP JUMPDEST SWAP2 POP POP SWAP3 SWAP2 POP POP JUMP JUMPDEST PUSH0 DUP2 SWAP1 POP SWAP3 SWAP2 POP POP JUMP JUMPDEST POP JUMP JUMPDEST PUSH0 PUSH2 0x2F3C PUSH0 DUP4 PUSH2 0x2F24 JUMP JUMPDEST SWAP2 POP PUSH2 0x2F47 DUP3 PUSH2 0x2F2E JUMP JUMPDEST PUSH0 DUP3 ADD SWAP1 POP SWAP2 SWAP1 POP JUMP JUMPDEST PUSH0 PUSH2 0x2F5B DUP3 PUSH2 0x2F31 JUMP JUMPDEST SWAP2 POP DUP2 SWAP1 POP SWAP2 SWAP1 POP JUMP JUMPDEST PUSH32 0x6661696C656420746F2073656E64206574686572000000000000000000000000 PUSH0 DUP3 ADD MSTORE POP JUMP JUMPDEST PUSH0 PUSH2 0x2F99 PUSH1 0x14 DUP4 PUSH2 0x22AF JUMP JUMPDEST SWAP2 POP PUSH2 0x2FA4 DUP3 PUSH2 0x2F65 JUMP JUMPDEST PUSH1 0x20 DUP3 ADD SWAP1 POP SWAP2 SWAP1 POP JUMP JUMPDEST PUSH0 PUSH1 0x20 DUP3 ADD SWAP1 POP DUP2 DUP2 SUB PUSH0 DUP4 ADD MSTORE PUSH2 0x2FC6 DUP2 PUSH2 0x2F8D JUMP JUMPDEST SWAP1 POP SWAP2 SWAP1 POP JUMP JUMPDEST PUSH32 0x4E487B7100000000000000000000000000000000000000000000000000000000 PUSH0 MSTORE PUSH1 0x22 PUSH1 0x4 MSTORE PUSH1 0x24 PUSH0 REVERT JUMPDEST PUSH0 PUSH1 0x2 DUP3 DIV SWAP1 POP PUSH1 0x1 DUP3 AND DUP1 PUSH2 0x3011 JUMPI PUSH1 0x7F DUP3 AND SWAP2 POP JUMPDEST PUSH1 0x20 DUP3 LT DUP2 SUB PUSH2 0x3024 JUMPI PUSH2 0x3023 PUSH2 0x2FCD JUMP JUMPDEST JUMPDEST POP SWAP2 SWAP1 POP JUMP JUMPDEST PUSH0 DUP2 SWAP1 POP SWAP3 SWAP2 POP POP JUMP JUMPDEST PUSH0 DUP2 SWAP1 POP DUP2 PUSH0 MSTORE PUSH1 0x20 PUSH0 KECCAK256 SWAP1 POP SWAP2 SWAP1 POP JUMP JUMPDEST PUSH0 DUP2 SLOAD PUSH2 0x3052 DUP2 PUSH2 0x2FFA JUMP JUMPDEST PUSH2 0x305C DUP2 DUP7 PUSH2 0x302A JUMP JUMPDEST SWAP5 POP PUSH1 0x1 DUP3 AND PUSH0 DUP2 EQ PUSH2 0x3076 JUMPI PUSH1 0x1 DUP2 EQ PUSH2 0x308B JUMPI PUSH2 0x30BD JUMP JUMPDEST PUSH1 0xFF NOT DUP4 AND DUP7 MSTORE DUP2 ISZERO ISZERO DUP3 MUL DUP7 ADD SWAP4 POP PUSH2 0x30BD JUMP JUMPDEST PUSH2 0x3094 DUP6 PUSH2 0x3034 JUMP JUMPDEST PUSH0 JUMPDEST DUP4 DUP2 LT ISZERO PUSH2 0x30B5 JUMPI DUP2 SLOAD DUP2 DUP10 ADD MSTORE PUSH1 0x1 DUP3 ADD SWAP2 POP PUSH1 0x20 DUP2 ADD SWAP1 POP PUSH2 0x3096 JUMP JUMPDEST DUP4 DUP9 ADD SWAP6 POP POP POP JUMPDEST POP POP POP SWAP3 SWAP2 POP POP JUMP JUMPDEST PUSH0 PUSH2 0x30D1 DUP3 DUP5 PUSH2 0x3046 JUMP JUMPDEST SWAP2 POP DUP2 SWAP1 POP SWAP3 SWAP2 POP POP JUMP JUMPDEST PUSH0 PUSH2 0x30E6 DUP3 PUSH2 0x22A5 JUMP JUMPDEST PUSH2 0x30F0 DUP2 DUP6 PUSH2 0x302A JUMP JUMPDEST SWAP4 POP PUSH2 0x3100 DUP2 DUP6 PUSH1 0x20 DUP7 ADD PUSH2 0x22BF JUMP JUMPDEST DUP1 DUP5 ADD SWAP2 POP POP SWAP3 SWAP2 POP POP JUMP JUMPDEST PUSH0 DUP2 SWAP1 POP SWAP2 SWAP1 POP JUMP JUMPDEST PUSH2 0x3126 PUSH2 0x3121 DUP3 PUSH2 0x20A0 JUMP JUMPDEST PUSH2 0x310C JUMP JUMPDEST DUP3 MSTORE POP POP JUMP JUMPDEST PUSH0 PUSH2 0x3137 DUP3 DUP7 PUSH2 0x30DC JUMP JUMPDEST SWAP2 POP PUSH2 0x3143 DUP3 DUP6 PUSH2 0x30DC JUMP JUMPDEST SWAP2 POP PUSH2 0x314F DUP3 DUP5 PUSH2 0x3115 JUMP JUMPDEST PUSH1 0x20 DUP3 ADD SWAP2 POP DUP2 SWAP1 POP SWAP5 SWAP4 POP POP POP POP JUMP JUMPDEST PUSH0 PUSH2 0x316B DUP3 DUP5 PUSH2 0x30DC JUMP JUMPDEST SWAP2 POP DUP2 SWAP1 POP SWAP3 SWAP2 POP POP JUMP JUMPDEST PUSH32 0x766964656F20646F65736E277420657869737400000000000000000000000000 PUSH0 DUP3 ADD MSTORE POP JUMP JUMPDEST PUSH0 PUSH2 0x31AA PUSH1 0x13 DUP4 PUSH2 0x22AF JUMP JUMPDEST SWAP2 POP PUSH2 0x31B5 DUP3 PUSH2 0x3176 JUMP JUMPDEST PUSH1 0x20 DUP3 ADD SWAP1 POP SWAP2 SWAP1 POP JUMP JUMPDEST PUSH0 PUSH1 0x20 DUP3 ADD SWAP1 POP DUP2 DUP2 SUB PUSH0 DUP4 ADD MSTORE PUSH2 0x31D7 DUP2 PUSH2 0x319E JUMP JUMPDEST SWAP1 POP SWAP2 SWAP1 POP JUMP JUMPDEST PUSH32 0x4E487B7100000000000000000000000000000000000000000000000000000000 PUSH0 MSTORE PUSH1 0x32 PUSH1 0x4 MSTORE PUSH1 0x24 PUSH0 REVERT JUMPDEST PUSH32 0x6F776E657220616363657373206F6E6C79000000000000000000000000000000 PUSH0 DUP3 ADD MSTORE POP JUMP JUMPDEST PUSH0 PUSH2 0x323F PUSH1 0x11 DUP4 PUSH2 0x22AF JUMP JUMPDEST SWAP2 POP PUSH2 0x324A DUP3 PUSH2 0x320B JUMP JUMPDEST PUSH1 0x20 DUP3 ADD SWAP1 POP SWAP2 SWAP1 POP JUMP JUMPDEST PUSH0 PUSH1 0x20 DUP3 ADD SWAP1 POP DUP2 DUP2 SUB PUSH0 DUP4 ADD MSTORE PUSH2 0x326C DUP2 PUSH2 0x3233 JUMP JUMPDEST SWAP1 POP SWAP2 SWAP1 POP JUMP JUMPDEST PUSH32 0x696E76616C6964206C6963656E736F7200000000000000000000000000000000 PUSH0 DUP3 ADD MSTORE POP JUMP JUMPDEST PUSH0 PUSH2 0x32A7 PUSH1 0x10 DUP4 PUSH2 0x22AF JUMP JUMPDEST SWAP2 POP PUSH2 0x32B2 DUP3 PUSH2 0x3273 JUMP JUMPDEST PUSH1 0x20 DUP3 ADD SWAP1 POP SWAP2 SWAP1 POP JUMP JUMPDEST PUSH0 PUSH1 0x20 DUP3 ADD SWAP1 POP DUP2 DUP2 SUB PUSH0 DUP4 ADD MSTORE PUSH2 0x32D4 DUP2 PUSH2 0x329B JUMP JUMPDEST SWAP1 POP SWAP2 SWAP1 POP JUMP JUMPDEST PUSH32 0x756E617661696C61626C65206C6963656E736520696400000000000000000000 PUSH0 DUP3 ADD MSTORE POP JUMP JUMPDEST PUSH0 PUSH2 0x330F PUSH1 0x16 DUP4 PUSH2 0x22AF JUMP JUMPDEST SWAP2 POP PUSH2 0x331A DUP3 PUSH2 0x32DB JUMP JUMPDEST PUSH1 0x20 DUP3 ADD SWAP1 POP SWAP2 SWAP1 POP JUMP JUMPDEST PUSH0 PUSH1 0x20 DUP3 ADD SWAP1 POP DUP2 DUP2 SUB PUSH0 DUP4 ADD MSTORE PUSH2 0x333C DUP2 PUSH2 0x3303 JUMP JUMPDEST SWAP1 POP SWAP2 SWAP1 POP JUMP JUMPDEST PUSH2 0x3354 PUSH2 0x334F DUP3 PUSH2 0x2607 JUMP JUMPDEST PUSH2 0x310C JUMP JUMPDEST DUP3 MSTORE POP POP JUMP JUMPDEST PUSH0 PUSH2 0x3365 DUP3 DUP7 PUSH2 0x3343 JUMP JUMPDEST PUSH1 0x20 DUP3 ADD SWAP2 POP PUSH2 0x3375 DUP3 DUP6 PUSH2 0x30DC JUMP JUMPDEST SWAP2 POP PUSH2 0x3381 DUP3 DUP5 PUSH2 0x3115 JUMP JUMPDEST PUSH1 0x20 DUP3 ADD SWAP2 POP DUP2 SWAP1 POP SWAP5 SWAP4 POP POP POP POP JUMP JUMPDEST PUSH32 0x696E76616C696420766964656F20696400000000000000000000000000000000 PUSH0 DUP3 ADD MSTORE POP JUMP JUMPDEST PUSH0 PUSH2 0x33C6 PUSH1 0x10 DUP4 PUSH2 0x22AF JUMP JUMPDEST SWAP2 POP PUSH2 0x33D1 DUP3 PUSH2 0x3392 JUMP JUMPDEST PUSH1 0x20 DUP3 ADD SWAP1 POP SWAP2 SWAP1 POP JUMP JUMPDEST PUSH0 PUSH1 0x20 DUP3 ADD SWAP1 POP DUP2 DUP2 SUB PUSH0 DUP4 ADD MSTORE PUSH2 0x33F3 DUP2 PUSH2 0x33BA JUMP JUMPDEST SWAP1 POP SWAP2 SWAP1 POP JUMP JUMPDEST PUSH0 PUSH2 0x3414 PUSH2 0x340F PUSH2 0x340A DUP5 PUSH2 0x2350 JUMP JUMPDEST PUSH2 0x25FE JUMP JUMPDEST PUSH2 0x2350 JUMP JUMPDEST SWAP1 POP SWAP2 SWAP1 POP JUMP JUMPDEST PUSH0 PUSH2 0x3425 DUP3 PUSH2 0x33FA JUMP JUMPDEST SWAP1 POP SWAP2 SWAP1 POP JUMP JUMPDEST PUSH0 PUSH2 0x3436 DUP3 PUSH2 0x341B JUMP JUMPDEST SWAP1 POP SWAP2 SWAP1 POP JUMP JUMPDEST PUSH2 0x3446 DUP2 PUSH2 0x342C JUMP JUMPDEST DUP3 MSTORE POP POP JUMP JUMPDEST PUSH0 PUSH1 0x80 DUP3 ADD SWAP1 POP PUSH2 0x345F PUSH0 DUP4 ADD DUP8 PUSH2 0x343D JUMP JUMPDEST DUP2 DUP2 SUB PUSH1 0x20 DUP4 ADD MSTORE PUSH2 0x3471 DUP2 DUP7 PUSH2 0x22CD JUMP JUMPDEST SWAP1 POP PUSH2 0x3480 PUSH1 0x40 DUP4 ADD DUP6 PUSH2 0x2B2D JUMP JUMPDEST DUP2 DUP2 SUB PUSH1 0x60 DUP4 ADD MSTORE PUSH2 0x3492 DUP2 DUP5 PUSH2 0x2DA6 JUMP JUMPDEST SWAP1 POP SWAP6 SWAP5 POP POP POP POP POP JUMP JUMPDEST PUSH32 0x696E76616C6964206C6963656E736F72207369676E6174757265000000000000 PUSH0 DUP3 ADD MSTORE POP JUMP JUMPDEST PUSH0 PUSH2 0x34D1 PUSH1 0x1A DUP4 PUSH2 0x22AF JUMP JUMPDEST SWAP2 POP PUSH2 0x34DC DUP3 PUSH2 0x349D JUMP JUMPDEST PUSH1 0x20 DUP3 ADD SWAP1 POP SWAP2 SWAP1 POP JUMP JUMPDEST PUSH0 PUSH1 0x20 DUP3 ADD SWAP1 POP DUP2 DUP2 SUB PUSH0 DUP4 ADD MSTORE PUSH2 0x34FE DUP2 PUSH2 0x34C5 JUMP JUMPDEST SWAP1 POP SWAP2 SWAP1 POP JUMP JUMPDEST PUSH32 0x696E76616C6964206C6963656E73656500000000000000000000000000000000 PUSH0 DUP3 ADD MSTORE POP JUMP JUMPDEST PUSH0 PUSH2 0x3539 PUSH1 0x10 DUP4 PUSH2 0x22AF JUMP JUMPDEST SWAP2 POP PUSH2 0x3544 DUP3 PUSH2 0x3505 JUMP JUMPDEST PUSH1 0x20 DUP3 ADD SWAP1 POP SWAP2 SWAP1 POP JUMP JUMPDEST PUSH0 PUSH1 0x20 DUP3 ADD SWAP1 POP DUP2 DUP2 SUB PUSH0 DUP4 ADD MSTORE PUSH2 0x3566 DUP2 PUSH2 0x352D JUMP JUMPDEST SWAP1 POP SWAP2 SWAP1 POP JUMP JUMPDEST PUSH0 PUSH1 0xA0 DUP3 ADD SWAP1 POP DUP2 DUP2 SUB PUSH0 DUP4 ADD MSTORE PUSH2 0x3585 DUP2 DUP9 PUSH2 0x22CD JUMP JUMPDEST SWAP1 POP PUSH2 0x3594 PUSH1 0x20 DUP4 ADD DUP8 PUSH2 0x2529 JUMP JUMPDEST PUSH2 0x35A1 PUSH1 0x40 DUP4 ADD DUP7 PUSH2 0x2529 JUMP JUMPDEST PUSH2 0x35AE PUSH1 0x60 DUP4 ADD DUP6 PUSH2 0x2B2D JUMP JUMPDEST PUSH2 0x35BB PUSH1 0x80 DUP4 ADD DUP5 PUSH2 0x2B2D JUMP JUMPDEST SWAP7 SWAP6 POP POP POP POP POP POP JUMP JUMPDEST PUSH0 PUSH2 0x35D7 PUSH2 0x35D2 DUP5 PUSH2 0x23A8 JUMP JUMPDEST PUSH2 0x2173 JUMP JUMPDEST SWAP1 POP DUP3 DUP2 MSTORE PUSH1 0x20 DUP2 ADD DUP5 DUP5 DUP5 ADD GT ISZERO PUSH2 0x35F3 JUMPI PUSH2 0x35F2 PUSH2 0x2101 JUMP JUMPDEST JUMPDEST PUSH2 0x35FE DUP5 DUP3 DUP6 PUSH2 0x22BF JUMP JUMPDEST POP SWAP4 SWAP3 POP POP POP JUMP JUMPDEST PUSH0 DUP3 PUSH1 0x1F DUP4 ADD SLT PUSH2 0x361A JUMPI PUSH2 0x3619 PUSH2 0x20FD JUMP JUMPDEST JUMPDEST DUP2 MLOAD PUSH2 0x362A DUP5 DUP3 PUSH1 0x20 DUP7 ADD PUSH2 0x35C5 JUMP JUMPDEST SWAP2 POP POP SWAP3 SWAP2 POP POP JUMP JUMPDEST PUSH0 PUSH1 0x20 DUP3 DUP5 SUB SLT ISZERO PUSH2 0x3648 JUMPI PUSH2 0x3647 PUSH2 0x2098 JUMP JUMPDEST JUMPDEST PUSH0 DUP3 ADD MLOAD PUSH8 0xFFFFFFFFFFFFFFFF DUP2 GT ISZERO PUSH2 0x3665 JUMPI PUSH2 0x3664 PUSH2 0x209C JUMP JUMPDEST JUMPDEST PUSH2 0x3671 DUP5 DUP3 DUP6 ADD PUSH2 0x3606 JUMP JUMPDEST SWAP2 POP POP SWAP3 SWAP2 POP POP JUMP JUMPDEST PUSH0 PUSH1 0x80 DUP3 ADD SWAP1 POP PUSH2 0x368D PUSH0 DUP4 ADD DUP8 PUSH2 0x24A9 JUMP JUMPDEST PUSH2 0x369A PUSH1 0x20 DUP4 ADD DUP7 PUSH2 0x2AE9 JUMP JUMPDEST PUSH2 0x36A7 PUSH1 0x40 DUP4 ADD DUP6 PUSH2 0x24A9 JUMP JUMPDEST PUSH2 0x36B4 PUSH1 0x60 DUP4 ADD DUP5 PUSH2 0x24A9 JUMP JUMPDEST SWAP6 SWAP5 POP POP POP POP POP JUMP JUMPDEST PUSH32 0x696E76616C6964207369676E6174757265206C656E6774680000000000000000 PUSH0 DUP3 ADD MSTORE POP JUMP JUMPDEST PUSH0 PUSH2 0x36F1 PUSH1 0x18 DUP4 PUSH2 0x22AF JUMP JUMPDEST SWAP2 POP PUSH2 0x36FC DUP3 PUSH2 0x36BD JUMP JUMPDEST PUSH1 0x20 DUP3 ADD SWAP1 POP SWAP2 SWAP1 POP JUMP JUMPDEST PUSH0 PUSH1 0x20 DUP3 ADD SWAP1 POP DUP2 DUP2 SUB PUSH0 DUP4 ADD MSTORE PUSH2 0x371E DUP2 PUSH2 0x36E5 JUMP JUMPDEST SWAP1 POP SWAP2 SWAP1 POP JUMP JUMPDEST PUSH32 0x19457468657265756D205369676E6564204D6573736167653A0A333200000000 PUSH0 DUP3 ADD MSTORE POP JUMP JUMPDEST PUSH0 PUSH2 0x3759 PUSH1 0x1C DUP4 PUSH2 0x302A JUMP JUMPDEST SWAP2 POP PUSH2 0x3764 DUP3 PUSH2 0x3725 JUMP JUMPDEST PUSH1 0x1C DUP3 ADD SWAP1 POP SWAP2 SWAP1 POP JUMP JUMPDEST PUSH0 DUP2 SWAP1 POP SWAP2 SWAP1 POP JUMP JUMPDEST PUSH2 0x3789 PUSH2 0x3784 DUP3 PUSH2 0x24A0 JUMP JUMPDEST PUSH2 0x376F JUMP JUMPDEST DUP3 MSTORE POP POP JUMP JUMPDEST PUSH0 PUSH2 0x3799 DUP3 PUSH2 0x374D JUMP JUMPDEST SWAP2 POP PUSH2 0x37A5 DUP3 DUP5 PUSH2 0x3778 JUMP JUMPDEST PUSH1 0x20 DUP3 ADD SWAP2 POP DUP2 SWAP1 POP SWAP3 SWAP2 POP POP JUMP JUMPDEST PUSH0 PUSH1 0x80 DUP3 ADD SWAP1 POP DUP2 DUP2 SUB PUSH0 DUP4 ADD MSTORE PUSH2 0x37CC DUP2 DUP8 PUSH2 0x22CD JUMP JUMPDEST SWAP1 POP PUSH2 0x37DB PUSH1 0x20 DUP4 ADD DUP7 PUSH2 0x2380 JUMP JUMPDEST PUSH2 0x37E8 PUSH1 0x40 DUP4 ADD DUP6 PUSH2 0x2B2D JUMP JUMPDEST DUP2 DUP2 SUB PUSH1 0x60 DUP4 ADD MSTORE PUSH2 0x37FA DUP2 DUP5 PUSH2 0x2DA6 JUMP JUMPDEST SWAP1 POP SWAP6 SWAP5 POP POP POP POP POP JUMP JUMPDEST PUSH32 0x4E487B7100000000000000000000000000000000000000000000000000000000 PUSH0 MSTORE PUSH1 0x11 PUSH1 0x4 MSTORE PUSH1 0x24 PUSH0 REVERT JUMPDEST PUSH0 PUSH2 0x383C DUP3 PUSH2 0x20A0 JUMP JUMPDEST SWAP2 POP PUSH2 0x3847 DUP4 PUSH2 0x20A0 JUMP JUMPDEST SWAP3 POP DUP3 DUP3 ADD SWAP1 POP DUP1 DUP3 GT ISZERO PUSH2 0x385F JUMPI PUSH2 0x385E PUSH2 0x3805 JUMP JUMPDEST JUMPDEST SWAP3 SWAP2 POP POP JUMP JUMPDEST PUSH0 PUSH1 0x20 PUSH1 0x1F DUP4 ADD DIV SWAP1 POP SWAP2 SWAP1 POP JUMP JUMPDEST PUSH0 DUP3 DUP3 SHL SWAP1 POP SWAP3 SWAP2 POP POP JUMP JUMPDEST PUSH0 PUSH1 0x8 DUP4 MUL PUSH2 0x38AF PUSH32 0xFFFFFFFFFFFFFFFFFFFFFFFFFFFFFFFFFFFFFFFFFFFFFFFFFFFFFFFFFFFFFFFF DUP3 PUSH2 0x3874 JUMP JUMPDEST PUSH2 0x38B9 DUP7 DUP4 PUSH2 0x3874 JUMP JUMPDEST SWAP6 POP DUP1 NOT DUP5 AND SWAP4 POP DUP1 DUP7 AND DUP5 OR SWAP3 POP POP POP SWAP4 SWAP3 POP POP POP JUMP JUMPDEST PUSH0 DUP2 SWAP1 POP SWAP2 SWAP1 POP JUMP JUMPDEST PUSH2 0x38E3 DUP4 PUSH2 0x2607 JUMP JUMPDEST PUSH2 0x38F7 PUSH2 0x38EF DUP3 PUSH2 0x38D1 JUMP JUMPDEST DUP5 DUP5 SLOAD PUSH2 0x3880 JUMP JUMPDEST DUP3 SSTORE POP POP POP POP JUMP JUMPDEST PUSH0 SWAP1 JUMP JUMPDEST PUSH2 0x390B PUSH2 0x38FF JUMP JUMPDEST PUSH2 0x3916 DUP2 DUP5 DUP5 PUSH2 0x38DA JUMP JUMPDEST POP POP POP JUMP JUMPDEST JUMPDEST DUP2 DUP2 LT ISZERO PUSH2 0x3939 JUMPI PUSH2 0x392E PUSH0 DUP3 PUSH2 0x3903 JUMP JUMPDEST PUSH1 0x1 DUP2 ADD SWAP1 POP PUSH2 0x391C JUMP JUMPDEST POP POP JUMP JUMPDEST PUSH1 0x1F DUP3 GT ISZERO PUSH2 0x397E JUMPI PUSH2 0x394F DUP2 PUSH2 0x3034 JUMP JUMPDEST PUSH2 0x3958 DUP5 PUSH2 0x3865 JUMP JUMPDEST DUP2 ADD PUSH1 0x20 DUP6 LT ISZERO PUSH2 0x3967 JUMPI DUP2 SWAP1 POP JUMPDEST PUSH2 0x397B PUSH2 0x3973 DUP6 PUSH2 0x3865 JUMP JUMPDEST DUP4 ADD DUP3 PUSH2 0x391B JUMP JUMPDEST POP POP JUMPDEST POP POP POP JUMP JUMPDEST PUSH0 DUP3 DUP3 SHR SWAP1 POP SWAP3 SWAP2 POP POP JUMP JUMPDEST PUSH0 PUSH2 0x399E PUSH0 NOT DUP5 PUSH1 0x8 MUL PUSH2 0x3983 JUMP JUMPDEST NOT DUP1 DUP4 AND SWAP2 POP POP SWAP3 SWAP2 POP POP JUMP JUMPDEST PUSH0 PUSH2 0x39B6 DUP4 DUP4 PUSH2 0x398F JUMP JUMPDEST SWAP2 POP DUP3 PUSH1 0x2 MUL DUP3 OR SWAP1 POP SWAP3 SWAP2 POP POP JUMP JUMPDEST PUSH2 0x39CF DUP3 PUSH2 0x22A5 JUMP JUMPDEST PUSH8 0xFFFFFFFFFFFFFFFF DUP2 GT ISZERO PUSH2 0x39E8 JUMPI PUSH2 0x39E7 PUSH2 0x2115 JUMP JUMPDEST JUMPDEST PUSH2 0x39F2 DUP3 SLOAD PUSH2 0x2FFA JUMP JUMPDEST PUSH2 0x39FD DUP3 DUP3 DUP6 PUSH2 0x393D JUMP JUMPDEST PUSH0 PUSH1 0x20 SWAP1 POP PUSH1 0x1F DUP4 GT PUSH1 0x1 DUP2 EQ PUSH2 0x3A2E JUMPI PUSH0 DUP5 ISZERO PUSH2 0x3A1C JUMPI DUP3 DUP8 ADD MLOAD SWAP1 POP JUMPDEST PUSH2 0x3A26 DUP6 DUP3 PUSH2 0x39AB JUMP JUMPDEST DUP7 SSTORE POP PUSH2 0x3A8D JUMP JUMPDEST PUSH1 0x1F NOT DUP5 AND PUSH2 0x3A3C DUP7 PUSH2 0x3034 JUMP JUMPDEST PUSH0 JUMPDEST DUP3 DUP2 LT ISZERO PUSH2 0x3A63 JUMPI DUP5 DUP10 ADD MLOAD DUP3 SSTORE PUSH1 0x1 DUP3 ADD SWAP2 POP PUSH1 0x20 DUP6 ADD SWAP5 POP PUSH1 0x20 DUP2 ADD SWAP1 POP PUSH2 0x3A3E JUMP JUMPDEST DUP7 DUP4 LT ISZERO PUSH2 0x3A80 JUMPI DUP5 DUP10 ADD MLOAD PUSH2 0x3A7C PUSH1 0x1F DUP10 AND DUP3 PUSH2 0x398F JUMP JUMPDEST DUP4 SSTORE POP JUMPDEST PUSH1 0x1 PUSH1 0x2 DUP9 MUL ADD DUP9 SSTORE POP POP POP JUMPDEST POP POP POP POP POP POP JUMP INVALID BLOBHASH KECCAK256 PUSH4 0x65727469 PUSH7 0x79207468617420 BLOBHASH KECCAK256 PUSH2 0x6D20 PUSH21 0x6865206C6963656E736F72206F6620746865207669 PUSH5 0x656F206167 PUSH19 0x65656D656E7420616E6420616772656520746F KECCAK256 PUSH2 0x6C6C KECCAK256 PUSH21 0x65726D7320646566696E656420696E207468652061 PUSH8 0x7265656D656E742E BLOBHASH KECCAK256 PUSH4 0x65727469 PUSH7 0x79207468617420 BLOBHASH KECCAK256 PUSH2 0x6D20 PUSH21 0x6865206C6963656E736565206F6620746865207669 PUSH5 0x656F206167 PUSH19 0x65656D656E7420616E6420616772656520746F KECCAK256 PUSH2 0x6C6C KECCAK256 PUSH21 0x65726D7320646566696E656420696E207468652061 PUSH8 0x7265656D656E742E LOG2 PUSH5 0x6970667358 0x22 SLT KECCAK256 GAS 0xFC PUSH24 0x897A1EEFEE194B9BAE7FCB14C9CE6A7EAA16879F0F32A61E COINBASE 0xDF JUMPDEST PUSH31 0x3064736F6C6343000819003300000000000000000000000000000000000000 "
				},
				"gasEstimates": {
					"creation": {
						"codeDepositCost": "3051800",
						"executionCost": "infinite",
						"totalCost": "infinite"
					},
					"external": {
						"addLicense(string,address,uint256,uint256)": "infinite",
						"addTemplate(address)": "27014",
						"addVideo(string,address,uint256,bytes)": "infinite",
						"addVideoWithLicense(string,address,uint256,bytes,address,uint256,uint256)": "infinite",
						"buyLicense(uint256,uint256,bytes)": "infinite",
						"composeLicense(uint256,address)": "infinite",
						"getEthSignedMessageHash(bytes32)": "infinite",
						"getLicenseOwner(uint256)": "infinite",
						"getLicensePrice(uint256)": "infinite",
						"getLicenseTemplate(uint256)": "5107",
						"getLicenseVideo(uint256)": "infinite",
						"getLicenseeLicenses(string,address)": "infinite",
						"getLicenseeMessageHash(uint256,uint256)": "infinite",
						"getLicensorMessageHash(string,uint256)": "infinite",
						"getVideoOwner(string)": "infinite",
						"licenseeAgreement()": "infinite",
						"licensorAgreement()": "infinite",
						"recoverSigner(bytes32,bytes)": "infinite",
						"removeLicense(uint256)": "infinite",
						"removeTemplate(address)": "27034",
						"splitSignature(bytes)": "infinite",
						"transferOwnership(address)": "26969",
						"verifyLicensee(address,uint256,uint256,bytes)": "infinite",
						"verifyLicensor(address,string,uint256,bytes)": "infinite"
					},
					"internal": {
						"createLicense(string memory,address,uint256,LID)": "infinite"
					}
				},
				"methodIdentifiers": {
					"addLicense(string,address,uint256,uint256)": "70d8677f",
					"addTemplate(address)": "55b30266",
					"addVideo(string,address,uint256,bytes)": "76b1d966",
					"addVideoWithLicense(string,address,uint256,bytes,address,uint256,uint256)": "fe744a39",
					"buyLicense(uint256,uint256,bytes)": "00f23fc1",
					"composeLicense(uint256,address)": "976662b0",
					"getEthSignedMessageHash(bytes32)": "fa540801",
					"getLicenseOwner(uint256)": "1e7fd268",
					"getLicensePrice(uint256)": "b6c00a82",
					"getLicenseTemplate(uint256)": "b033c13a",
					"getLicenseVideo(uint256)": "41befbd1",
					"getLicenseeLicenses(string,address)": "45402a4d",
					"getLicenseeMessageHash(uint256,uint256)": "73451439",
					"getLicensorMessageHash(string,uint256)": "2437e7eb",
					"getVideoOwner(string)": "3e340e2d",
					"licenseeAgreement()": "0e15c62a",
					"licensorAgreement()": "66527f1c",
					"recoverSigner(bytes32,bytes)": "97aba7f9",
					"removeLicense(uint256)": "99911abe",
					"removeTemplate(address)": "e946af59",
					"splitSignature(bytes)": "a7bb5803",
					"transferOwnership(address)": "f2fde38b",
					"verifyLicensee(address,uint256,uint256,bytes)": "5867f3a8",
					"verifyLicensor(address,string,uint256,bytes)": "96fcc1ae"
				}
			},
			"storageLayout": {
				"storage": [
					{
						"astId": 40,
						"contract": "contracts/LicenseManager.sol:LicenseManager",
						"label": "_owner",
						"offset": 0,
						"slot": "0",
						"type": "t_address"
					},
					{
						"astId": 78,
						"contract": "contracts/LicenseManager.sol:LicenseManager",
						"label": "_templates",
						"offset": 0,
						"slot": "1",
						"type": "t_mapping(t_address,t_bool)"
					},
					{
						"astId": 126,
						"contract": "contracts/LicenseManager.sol:LicenseManager",
						"label": "_videoOwners",
						"offset": 0,
						"slot": "2",
						"type": "t_mapping(t_string_memory_ptr,t_address_payable)"
					},
					{
						"astId": 130,
						"contract": "contracts/LicenseManager.sol:LicenseManager",
						"label": "_videoLicenseCounts",
						"offset": 0,
						"slot": "3",
						"type": "t_mapping(t_string_memory_ptr,t_uint256)"
					},
					{
						"astId": 137,
						"contract": "contracts/LicenseManager.sol:LicenseManager",
						"label": "_videoLicenseIDs",
						"offset": 0,
						"slot": "4",
						"type": "t_mapping(t_string_memory_ptr,t_mapping(t_uint256,t_userDefinedValueType(LID)38))"
					},
					{
						"astId": 142,
						"contract": "contracts/LicenseManager.sol:LicenseManager",
						"label": "_licenseCreated",
						"offset": 0,
						"slot": "5",
						"type": "t_mapping(t_userDefinedValueType(LID)38,t_bool)"
					},
					{
						"astId": 147,
						"contract": "contracts/LicenseManager.sol:LicenseManager",
						"label": "_licenseActivated",
						"offset": 0,
						"slot": "6",
						"type": "t_mapping(t_userDefinedValueType(LID)38,t_bool)"
					},
					{
						"astId": 152,
						"contract": "contracts/LicenseManager.sol:LicenseManager",
						"label": "_licenseVideos",
						"offset": 0,
						"slot": "7",
						"type": "t_mapping(t_userDefinedValueType(LID)38,t_string_storage)"
					},
					{
						"astId": 157,
						"contract": "contracts/LicenseManager.sol:LicenseManager",
						"label": "_licensePrices",
						"offset": 0,
						"slot": "8",
						"type": "t_mapping(t_userDefinedValueType(LID)38,t_uint256)"
					},
					{
						"astId": 162,
						"contract": "contracts/LicenseManager.sol:LicenseManager",
						"label": "_licenseTemplates",
						"offset": 0,
						"slot": "9",
						"type": "t_mapping(t_userDefinedValueType(LID)38,t_address)"
					},
					{
						"astId": 522,
						"contract": "contracts/LicenseManager.sol:LicenseManager",
						"label": "_licenseLicensees",
						"offset": 0,
						"slot": "10",
						"type": "t_mapping(t_userDefinedValueType(LID)38,t_mapping(t_address,t_uint256))"
					}
				],
				"types": {
					"t_address": {
						"encoding": "inplace",
						"label": "address",
						"numberOfBytes": "20"
					},
					"t_address_payable": {
						"encoding": "inplace",
						"label": "address payable",
						"numberOfBytes": "20"
					},
					"t_bool": {
						"encoding": "inplace",
						"label": "bool",
						"numberOfBytes": "1"
					},
					"t_mapping(t_address,t_bool)": {
						"encoding": "mapping",
						"key": "t_address",
						"label": "mapping(address => bool)",
						"numberOfBytes": "32",
						"value": "t_bool"
					},
					"t_mapping(t_address,t_uint256)": {
						"encoding": "mapping",
						"key": "t_address",
						"label": "mapping(address => uint256)",
						"numberOfBytes": "32",
						"value": "t_uint256"
					},
					"t_mapping(t_string_memory_ptr,t_address_payable)": {
						"encoding": "mapping",
						"key": "t_string_memory_ptr",
						"label": "mapping(string => address payable)",
						"numberOfBytes": "32",
						"value": "t_address_payable"
					},
					"t_mapping(t_string_memory_ptr,t_mapping(t_uint256,t_userDefinedValueType(LID)38))": {
						"encoding": "mapping",
						"key": "t_string_memory_ptr",
						"label": "mapping(string => mapping(uint256 => LID))",
						"numberOfBytes": "32",
						"value": "t_mapping(t_uint256,t_userDefinedValueType(LID)38)"
					},
					"t_mapping(t_string_memory_ptr,t_uint256)": {
						"encoding": "mapping",
						"key": "t_string_memory_ptr",
						"label": "mapping(string => uint256)",
						"numberOfBytes": "32",
						"value": "t_uint256"
					},
					"t_mapping(t_uint256,t_userDefinedValueType(LID)38)": {
						"encoding": "mapping",
						"key": "t_uint256",
						"label": "mapping(uint256 => LID)",
						"numberOfBytes": "32",
						"value": "t_userDefinedValueType(LID)38"
					},
					"t_mapping(t_userDefinedValueType(LID)38,t_address)": {
						"encoding": "mapping",
						"key": "t_userDefinedValueType(LID)38",
						"label": "mapping(LID => address)",
						"numberOfBytes": "32",
						"value": "t_address"
					},
					"t_mapping(t_userDefinedValueType(LID)38,t_bool)": {
						"encoding": "mapping",
						"key": "t_userDefinedValueType(LID)38",
						"label": "mapping(LID => bool)",
						"numberOfBytes": "32",
						"value": "t_bool"
					},
					"t_mapping(t_userDefinedValueType(LID)38,t_mapping(t_address,t_uint256))": {
						"encoding": "mapping",
						"key": "t_userDefinedValueType(LID)38",
						"label": "mapping(LID => mapping(address => uint256))",
						"numberOfBytes": "32",
						"value": "t_mapping(t_address,t_uint256)"
					},
					"t_mapping(t_userDefinedValueType(LID)38,t_string_storage)": {
						"encoding": "mapping",
						"key": "t_userDefinedValueType(LID)38",
						"label": "mapping(LID => string)",
						"numberOfBytes": "32",
						"value": "t_string_storage"
					},
					"t_mapping(t_userDefinedValueType(LID)38,t_uint256)": {
						"encoding": "mapping",
						"key": "t_userDefinedValueType(LID)38",
						"label": "mapping(LID => uint256)",
						"numberOfBytes": "32",
						"value": "t_uint256"
					},
					"t_string_memory_ptr": {
						"encoding": "bytes",
						"label": "string",
						"numberOfBytes": "32"
					},
					"t_string_storage": {
						"encoding": "bytes",
						"label": "string",
						"numberOfBytes": "32"
					},
					"t_uint256": {
						"encoding": "inplace",
						"label": "uint256",
						"numberOfBytes": "32"
					},
					"t_userDefinedValueType(LID)38": {
						"encoding": "inplace",
						"label": "LID",
						"numberOfBytes": "32"
					}
				}
			},
			"userdoc": {
				"kind": "user",
				"methods": {},
				"version": 1
			}
		}
	}
}