{
	"contracts/LicenseManager.sol": {
		"LicenseManager": {
			"abi": [
				{
					"inputs": [
						{
							"internalType": "address",
							"name": "owner",
							"type": "address"
						}
					],
					"stateMutability": "nonpayable",
					"type": "constructor"
				},
				{
					"inputs": [
						{
							"internalType": "string",
							"name": "vid",
							"type": "string"
						},
						{
							"internalType": "address",
							"name": "template",
							"type": "address"
						},
						{
							"internalType": "uint256",
							"name": "price",
							"type": "uint256"
						},
						{
							"internalType": "LID",
							"name": "licenseId",
							"type": "uint256"
						}
					],
					"name": "addLicense",
					"outputs": [],
					"stateMutability": "nonpayable",
					"type": "function"
				},
				{
					"inputs": [
						{
							"internalType": "address",
							"name": "template",
							"type": "address"
						}
					],
					"name": "addTemplate",
					"outputs": [],
					"stateMutability": "nonpayable",
					"type": "function"
				},
				{
					"inputs": [
						{
							"internalType": "string",
							"name": "vid",
							"type": "string"
						},
						{
							"internalType": "address payable",
							"name": "licensor",
							"type": "address"
						},
						{
							"internalType": "bytes",
							"name": "signature",
							"type": "bytes"
						}
					],
					"name": "addVideo",
					"outputs": [],
					"stateMutability": "nonpayable",
					"type": "function"
				},
				{
					"inputs": [
						{
							"internalType": "string",
							"name": "vid",
							"type": "string"
						},
						{
							"internalType": "address payable",
							"name": "licensor",
							"type": "address"
						},
						{
							"internalType": "bytes",
							"name": "signature",
							"type": "bytes"
						},
						{
							"internalType": "address",
							"name": "template",
							"type": "address"
						},
						{
							"internalType": "uint256",
							"name": "price",
							"type": "uint256"
						},
						{
							"internalType": "LID",
							"name": "licenseId",
							"type": "uint256"
						}
					],
					"name": "addVideoWithLicense",
					"outputs": [],
					"stateMutability": "nonpayable",
					"type": "function"
				},
				{
					"inputs": [
						{
							"internalType": "LID",
							"name": "licenseId",
							"type": "uint256"
						},
						{
							"internalType": "bytes",
							"name": "signature",
							"type": "bytes"
						}
					],
					"name": "buyLicense",
					"outputs": [],
					"stateMutability": "payable",
					"type": "function"
				},
				{
					"inputs": [
						{
							"internalType": "LID",
							"name": "licenseId",
							"type": "uint256"
						},
						{
							"internalType": "address",
							"name": "licensee",
							"type": "address"
						}
					],
					"name": "composeLicense",
					"outputs": [
						{
							"internalType": "string",
							"name": "",
							"type": "string"
						}
					],
					"stateMutability": "view",
					"type": "function"
				},
				{
					"inputs": [
						{
							"internalType": "LID",
							"name": "licenseId",
							"type": "uint256"
						}
					],
					"name": "getLicenseOwner",
					"outputs": [
						{
							"internalType": "address payable",
							"name": "",
							"type": "address"
						}
					],
					"stateMutability": "view",
					"type": "function"
				},
				{
					"inputs": [
						{
							"internalType": "LID",
							"name": "licenseId",
							"type": "uint256"
						}
					],
					"name": "getLicensePrice",
					"outputs": [
						{
							"internalType": "uint256",
							"name": "",
							"type": "uint256"
						}
					],
					"stateMutability": "view",
					"type": "function"
				},
				{
					"inputs": [
						{
							"internalType": "LID",
							"name": "licenseId",
							"type": "uint256"
						}
					],
					"name": "getLicenseTemplate",
					"outputs": [
						{
							"internalType": "address",
							"name": "",
							"type": "address"
						}
					],
					"stateMutability": "view",
					"type": "function"
				},
				{
					"inputs": [
						{
							"internalType": "LID",
							"name": "licenseId",
							"type": "uint256"
						}
					],
					"name": "getLicenseVideo",
					"outputs": [
						{
							"internalType": "string",
							"name": "",
							"type": "string"
						}
					],
					"stateMutability": "view",
					"type": "function"
				},
				{
					"inputs": [
						{
							"internalType": "string",
							"name": "vid",
							"type": "string"
						},
						{
							"internalType": "address",
							"name": "licensee",
							"type": "address"
						}
					],
					"name": "getLicenseeLicenses",
					"outputs": [
						{
							"internalType": "LID[]",
							"name": "",
							"type": "uint256[]"
						}
					],
					"stateMutability": "view",
					"type": "function"
				},
				{
					"inputs": [
						{
							"internalType": "string",
							"name": "vid",
							"type": "string"
						}
					],
					"name": "getVideoOwner",
					"outputs": [
						{
							"internalType": "address",
							"name": "",
							"type": "address"
						}
					],
					"stateMutability": "view",
					"type": "function"
				},
				{
					"inputs": [],
					"name": "licenseeAgreement",
					"outputs": [
						{
							"internalType": "string",
							"name": "",
							"type": "string"
						}
					],
					"stateMutability": "view",
					"type": "function"
				},
				{
					"inputs": [],
					"name": "licensorAgreement",
					"outputs": [
						{
							"internalType": "string",
							"name": "",
							"type": "string"
						}
					],
					"stateMutability": "view",
					"type": "function"
				},
				{
					"inputs": [
						{
							"internalType": "string",
							"name": "message",
							"type": "string"
						},
						{
							"internalType": "bytes",
							"name": "sig",
							"type": "bytes"
						}
					],
					"name": "recoverSigner",
					"outputs": [
						{
							"internalType": "address",
							"name": "",
							"type": "address"
						}
					],
					"stateMutability": "pure",
					"type": "function"
				},
				{
					"inputs": [
						{
							"internalType": "LID",
							"name": "licenseId",
							"type": "uint256"
						}
					],
					"name": "removeLicense",
					"outputs": [],
					"stateMutability": "nonpayable",
					"type": "function"
				},
				{
					"inputs": [
						{
							"internalType": "address",
							"name": "template",
							"type": "address"
						}
					],
					"name": "removeTemplate",
					"outputs": [],
					"stateMutability": "nonpayable",
					"type": "function"
				},
				{
					"inputs": [
						{
							"internalType": "address",
							"name": "owner",
							"type": "address"
						}
					],
					"name": "transferOwnership",
					"outputs": [],
					"stateMutability": "nonpayable",
					"type": "function"
				},
				{
					"inputs": [
						{
							"internalType": "address",
							"name": "signer",
							"type": "address"
						},
						{
							"internalType": "LID",
							"name": "licenseId",
							"type": "uint256"
						},
						{
							"internalType": "bytes",
							"name": "signature",
							"type": "bytes"
						}
					],
					"name": "verifyLicensee",
					"outputs": [
						{
							"internalType": "bool",
							"name": "",
							"type": "bool"
						}
					],
					"stateMutability": "pure",
					"type": "function"
				},
				{
					"inputs": [
						{
							"internalType": "address",
							"name": "signer",
							"type": "address"
						},
						{
							"internalType": "string",
							"name": "vid",
							"type": "string"
						},
						{
							"internalType": "bytes",
							"name": "signature",
							"type": "bytes"
						}
					],
					"name": "verifyLicensor",
					"outputs": [
						{
							"internalType": "bool",
							"name": "",
							"type": "bool"
						}
					],
					"stateMutability": "pure",
					"type": "function"
				}
			],
			"devdoc": {
				"kind": "dev",
				"methods": {},
				"version": 1
			},
			"evm": {
				"assembly": "    /* \"contracts/LicenseManager.sol\":868:9367  contract LicenseManager {... */\n  mstore(0x40, 0x80)\n    /* \"contracts/LicenseManager.sol\":927:985  constructor(address owner) {... */\n  callvalue\n  dup1\n  iszero\n  tag_1\n  jumpi\n  0x00\n  dup1\n  revert\ntag_1:\n  pop\n  mload(0x40)\n  sub(codesize, bytecodeSize)\n  dup1\n  bytecodeSize\n  dup4\n  codecopy\n  dup2\n  dup2\n  add\n  0x40\n  mstore\n  dup2\n  add\n  swap1\n  tag_2\n  swap2\n  swap1\n  tag_3\n  jump\t// in\ntag_2:\n    /* \"contracts/LicenseManager.sol\":973:978  owner */\n  dup1\n    /* \"contracts/LicenseManager.sol\":964:970  _owner */\n  0x00\n  dup1\n    /* \"contracts/LicenseManager.sol\":964:978  _owner = owner */\n  0x0100\n  exp\n  dup2\n  sload\n  dup2\n  0xffffffffffffffffffffffffffffffffffffffff\n  mul\n  not\n  and\n  swap1\n  dup4\n  0xffffffffffffffffffffffffffffffffffffffff\n  and\n  mul\n  or\n  swap1\n  sstore\n  pop\n    /* \"contracts/LicenseManager.sol\":927:985  constructor(address owner) {... */\n  pop\n    /* \"contracts/LicenseManager.sol\":868:9367  contract LicenseManager {... */\n  jump(tag_6)\n    /* \"#utility.yul\":88:205   */\ntag_8:\n    /* \"#utility.yul\":197:198   */\n  0x00\n    /* \"#utility.yul\":194:195   */\n  dup1\n    /* \"#utility.yul\":187:199   */\n  revert\n    /* \"#utility.yul\":334:460   */\ntag_10:\n    /* \"#utility.yul\":371:378   */\n  0x00\n    /* \"#utility.yul\":411:453   */\n  0xffffffffffffffffffffffffffffffffffffffff\n    /* \"#utility.yul\":404:409   */\n  dup3\n    /* \"#utility.yul\":400:454   */\n  and\n    /* \"#utility.yul\":389:454   */\n  swap1\n  pop\n    /* \"#utility.yul\":334:460   */\n  swap2\n  swap1\n  pop\n  jump\t// out\n    /* \"#utility.yul\":466:562   */\ntag_11:\n    /* \"#utility.yul\":503:510   */\n  0x00\n    /* \"#utility.yul\":532:556   */\n  tag_20\n    /* \"#utility.yul\":550:555   */\n  dup3\n    /* \"#utility.yul\":532:556   */\n  tag_10\n  jump\t// in\ntag_20:\n    /* \"#utility.yul\":521:556   */\n  swap1\n  pop\n    /* \"#utility.yul\":466:562   */\n  swap2\n  swap1\n  pop\n  jump\t// out\n    /* \"#utility.yul\":568:690   */\ntag_12:\n    /* \"#utility.yul\":641:665   */\n  tag_22\n    /* \"#utility.yul\":659:664   */\n  dup2\n    /* \"#utility.yul\":641:665   */\n  tag_11\n  jump\t// in\ntag_22:\n    /* \"#utility.yul\":634:639   */\n  dup2\n    /* \"#utility.yul\":631:666   */\n  eq\n    /* \"#utility.yul\":621:684   */\n  tag_23\n  jumpi\n    /* \"#utility.yul\":680:681   */\n  0x00\n    /* \"#utility.yul\":677:678   */\n  dup1\n    /* \"#utility.yul\":670:682   */\n  revert\n    /* \"#utility.yul\":621:684   */\ntag_23:\n    /* \"#utility.yul\":568:690   */\n  pop\n  jump\t// out\n    /* \"#utility.yul\":696:839   */\ntag_13:\n    /* \"#utility.yul\":753:758   */\n  0x00\n    /* \"#utility.yul\":784:790   */\n  dup2\n    /* \"#utility.yul\":778:791   */\n  mload\n    /* \"#utility.yul\":769:791   */\n  swap1\n  pop\n    /* \"#utility.yul\":800:833   */\n  tag_25\n    /* \"#utility.yul\":827:832   */\n  dup2\n    /* \"#utility.yul\":800:833   */\n  tag_12\n  jump\t// in\ntag_25:\n    /* \"#utility.yul\":696:839   */\n  swap3\n  swap2\n  pop\n  pop\n  jump\t// out\n    /* \"#utility.yul\":845:1196   */\ntag_3:\n    /* \"#utility.yul\":915:921   */\n  0x00\n    /* \"#utility.yul\":964:966   */\n  0x20\n    /* \"#utility.yul\":952:961   */\n  dup3\n    /* \"#utility.yul\":943:950   */\n  dup5\n    /* \"#utility.yul\":939:962   */\n  sub\n    /* \"#utility.yul\":935:967   */\n  slt\n    /* \"#utility.yul\":932:1051   */\n  iszero\n  tag_27\n  jumpi\n    /* \"#utility.yul\":970:1049   */\n  tag_28\n  tag_8\n  jump\t// in\ntag_28:\n    /* \"#utility.yul\":932:1051   */\ntag_27:\n    /* \"#utility.yul\":1090:1091   */\n  0x00\n    /* \"#utility.yul\":1115:1179   */\n  tag_29\n    /* \"#utility.yul\":1171:1178   */\n  dup5\n    /* \"#utility.yul\":1162:1168   */\n  dup3\n    /* \"#utility.yul\":1151:1160   */\n  dup6\n    /* \"#utility.yul\":1147:1169   */\n  add\n    /* \"#utility.yul\":1115:1179   */\n  tag_13\n  jump\t// in\ntag_29:\n    /* \"#utility.yul\":1105:1179   */\n  swap2\n  pop\n    /* \"#utility.yul\":1061:1189   */\n  pop\n    /* \"#utility.yul\":845:1196   */\n  swap3\n  swap2\n  pop\n  pop\n  jump\t// out\n    /* \"contracts/LicenseManager.sol\":868:9367  contract LicenseManager {... */\ntag_6:\n  dataSize(sub_0)\n  dup1\n  dataOffset(sub_0)\n  0x00\n  codecopy\n  0x00\n  return\nstop\n\nsub_0: assembly {\n        /* \"contracts/LicenseManager.sol\":868:9367  contract LicenseManager {... */\n      mstore(0x40, 0x80)\n      jumpi(tag_1, lt(calldatasize, 0x04))\n      shr(0xe0, calldataload(0x00))\n      dup1\n      0x976662b0\n      gt\n      tag_22\n      jumpi\n      dup1\n      0xe946af59\n      gt\n      tag_23\n      jumpi\n      dup1\n      0xe946af59\n      eq\n      tag_17\n      jumpi\n      dup1\n      0xea80a847\n      eq\n      tag_18\n      jumpi\n      dup1\n      0xed120e4c\n      eq\n      tag_19\n      jumpi\n      dup1\n      0xeeb9509b\n      eq\n      tag_20\n      jumpi\n      dup1\n      0xf2fde38b\n      eq\n      tag_21\n      jumpi\n      jump(tag_1)\n    tag_23:\n      dup1\n      0x976662b0\n      eq\n      tag_12\n      jumpi\n      dup1\n      0x99911abe\n      eq\n      tag_13\n      jumpi\n      dup1\n      0xb033c13a\n      eq\n      tag_14\n      jumpi\n      dup1\n      0xb6c00a82\n      eq\n      tag_15\n      jumpi\n      dup1\n      0xb8b5e111\n      eq\n      tag_16\n      jumpi\n      jump(tag_1)\n    tag_22:\n      dup1\n      0x41befbd1\n      gt\n      tag_24\n      jumpi\n      dup1\n      0x41befbd1\n      eq\n      tag_7\n      jumpi\n      dup1\n      0x45402a4d\n      eq\n      tag_8\n      jumpi\n      dup1\n      0x55b30266\n      eq\n      tag_9\n      jumpi\n      dup1\n      0x66527f1c\n      eq\n      tag_10\n      jumpi\n      dup1\n      0x70d8677f\n      eq\n      tag_11\n      jumpi\n      jump(tag_1)\n    tag_24:\n      dup1\n      0xfd4984\n      eq\n      tag_2\n      jumpi\n      dup1\n      0x0e15c62a\n      eq\n      tag_3\n      jumpi\n      dup1\n      0x1e7fd268\n      eq\n      tag_4\n      jumpi\n      dup1\n      0x2b35d062\n      eq\n      tag_5\n      jumpi\n      dup1\n      0x3e340e2d\n      eq\n      tag_6\n      jumpi\n    tag_1:\n      0x00\n      dup1\n      revert\n        /* \"contracts/LicenseManager.sol\":8781:9365  function recoverSigner(string memory message, bytes calldata sig)... */\n    tag_2:\n      callvalue\n      dup1\n      iszero\n      tag_25\n      jumpi\n      0x00\n      dup1\n      revert\n    tag_25:\n      pop\n      tag_26\n      0x04\n      dup1\n      calldatasize\n      sub\n      dup2\n      add\n      swap1\n      tag_27\n      swap2\n      swap1\n      tag_28\n      jump\t// in\n    tag_27:\n      tag_29\n      jump\t// in\n    tag_26:\n      mload(0x40)\n      tag_30\n      swap2\n      swap1\n      tag_31\n      jump\t// in\n    tag_30:\n      mload(0x40)\n      dup1\n      swap2\n      sub\n      swap1\n      return\n        /* \"contracts/LicenseManager.sol\":5622:5779  string public constant licenseeAgreement =... */\n    tag_3:\n      callvalue\n      dup1\n      iszero\n      tag_32\n      jumpi\n      0x00\n      dup1\n      revert\n    tag_32:\n      pop\n      tag_33\n      tag_34\n      jump\t// in\n    tag_33:\n      mload(0x40)\n      tag_35\n      swap2\n      swap1\n      tag_36\n      jump\t// in\n    tag_35:\n      mload(0x40)\n      dup1\n      swap2\n      sub\n      swap1\n      return\n        /* \"contracts/LicenseManager.sol\":5019:5221  function getLicenseOwner(LID licenseId)... */\n    tag_4:\n      callvalue\n      dup1\n      iszero\n      tag_37\n      jumpi\n      0x00\n      dup1\n      revert\n    tag_37:\n      pop\n      tag_38\n      0x04\n      dup1\n      calldatasize\n      sub\n      dup2\n      add\n      swap1\n      tag_39\n      swap2\n      swap1\n      tag_40\n      jump\t// in\n    tag_39:\n      tag_41\n      jump\t// in\n    tag_38:\n      mload(0x40)\n      tag_42\n      swap2\n      swap1\n      tag_43\n      jump\t// in\n    tag_42:\n      mload(0x40)\n      dup1\n      swap2\n      sub\n      swap1\n      return\n        /* \"contracts/LicenseManager.sol\":2661:3144  function addVideo(... */\n    tag_5:\n      callvalue\n      dup1\n      iszero\n      tag_44\n      jumpi\n      0x00\n      dup1\n      revert\n    tag_44:\n      pop\n      tag_45\n      0x04\n      dup1\n      calldatasize\n      sub\n      dup2\n      add\n      swap1\n      tag_46\n      swap2\n      swap1\n      tag_47\n      jump\t// in\n    tag_46:\n      tag_48\n      jump\t// in\n    tag_45:\n      stop\n        /* \"contracts/LicenseManager.sol\":2542:2655  function getVideoOwner(string memory vid) public view returns (address) {... */\n    tag_6:\n      callvalue\n      dup1\n      iszero\n      tag_49\n      jumpi\n      0x00\n      dup1\n      revert\n    tag_49:\n      pop\n      tag_50\n      0x04\n      dup1\n      calldatasize\n      sub\n      dup2\n      add\n      swap1\n      tag_51\n      swap2\n      swap1\n      tag_52\n      jump\t// in\n    tag_51:\n      tag_53\n      jump\t// in\n    tag_50:\n      mload(0x40)\n      tag_54\n      swap2\n      swap1\n      tag_31\n      jump\t// in\n    tag_54:\n      mload(0x40)\n      dup1\n      swap2\n      sub\n      swap1\n      return\n        /* \"contracts/LicenseManager.sol\":4827:5013  function getLicenseVideo(LID licenseId)... */\n    tag_7:\n      callvalue\n      dup1\n      iszero\n      tag_55\n      jumpi\n      0x00\n      dup1\n      revert\n    tag_55:\n      pop\n      tag_56\n      0x04\n      dup1\n      calldatasize\n      sub\n      dup2\n      add\n      swap1\n      tag_57\n      swap2\n      swap1\n      tag_40\n      jump\t// in\n    tag_57:\n      tag_58\n      jump\t// in\n    tag_56:\n      mload(0x40)\n      tag_59\n      swap2\n      swap1\n      tag_36\n      jump\t// in\n    tag_59:\n      mload(0x40)\n      dup1\n      swap2\n      sub\n      swap1\n      return\n        /* \"contracts/LicenseManager.sol\":6533:7040  function getLicenseeLicenses(string memory vid, address licensee)... */\n    tag_8:\n      callvalue\n      dup1\n      iszero\n      tag_60\n      jumpi\n      0x00\n      dup1\n      revert\n    tag_60:\n      pop\n      tag_61\n      0x04\n      dup1\n      calldatasize\n      sub\n      dup2\n      add\n      swap1\n      tag_62\n      swap2\n      swap1\n      tag_63\n      jump\t// in\n    tag_62:\n      tag_64\n      jump\t// in\n    tag_61:\n      mload(0x40)\n      tag_65\n      swap2\n      swap1\n      tag_66\n      jump\t// in\n    tag_65:\n      mload(0x40)\n      dup1\n      swap2\n      sub\n      swap1\n      return\n        /* \"contracts/LicenseManager.sol\":1403:1503  function addTemplate(address template) public onlyOwner {... */\n    tag_9:\n      callvalue\n      dup1\n      iszero\n      tag_67\n      jumpi\n      0x00\n      dup1\n      revert\n    tag_67:\n      pop\n      tag_68\n      0x04\n      dup1\n      calldatasize\n      sub\n      dup2\n      add\n      swap1\n      tag_69\n      swap2\n      swap1\n      tag_70\n      jump\t// in\n    tag_69:\n      tag_71\n      jump\t// in\n    tag_68:\n      stop\n        /* \"contracts/LicenseManager.sol\":1619:1776  string public constant licensorAgreement =... */\n    tag_10:\n      callvalue\n      dup1\n      iszero\n      tag_72\n      jumpi\n      0x00\n      dup1\n      revert\n    tag_72:\n      pop\n      tag_73\n      tag_74\n      jump\t// in\n    tag_73:\n      mload(0x40)\n      tag_75\n      swap2\n      swap1\n      tag_36\n      jump\t// in\n    tag_75:\n      mload(0x40)\n      dup1\n      swap2\n      sub\n      swap1\n      return\n        /* \"contracts/LicenseManager.sol\":3741:4120  function addLicense(... */\n    tag_11:\n      callvalue\n      dup1\n      iszero\n      tag_76\n      jumpi\n      0x00\n      dup1\n      revert\n    tag_76:\n      pop\n      tag_77\n      0x04\n      dup1\n      calldatasize\n      sub\n      dup2\n      add\n      swap1\n      tag_78\n      swap2\n      swap1\n      tag_79\n      jump\t// in\n    tag_78:\n      tag_80\n      jump\t// in\n    tag_77:\n      stop\n        /* \"contracts/LicenseManager.sol\":7046:7725  function composeLicense(LID licenseId, address licensee)... */\n    tag_12:\n      callvalue\n      dup1\n      iszero\n      tag_81\n      jumpi\n      0x00\n      dup1\n      revert\n    tag_81:\n      pop\n      tag_82\n      0x04\n      dup1\n      calldatasize\n      sub\n      dup2\n      add\n      swap1\n      tag_83\n      swap2\n      swap1\n      tag_84\n      jump\t// in\n    tag_83:\n      tag_85\n      jump\t// in\n    tag_82:\n      mload(0x40)\n      tag_86\n      swap2\n      swap1\n      tag_36\n      jump\t// in\n    tag_86:\n      mload(0x40)\n      dup1\n      swap2\n      sub\n      swap1\n      return\n        /* \"contracts/LicenseManager.sol\":4556:4797  function removeLicense(LID licenseId) public licenseActive(licenseId) {... */\n    tag_13:\n      callvalue\n      dup1\n      iszero\n      tag_87\n      jumpi\n      0x00\n      dup1\n      revert\n    tag_87:\n      pop\n      tag_88\n      0x04\n      dup1\n      calldatasize\n      sub\n      dup2\n      add\n      swap1\n      tag_89\n      swap2\n      swap1\n      tag_40\n      jump\t// in\n    tag_89:\n      tag_90\n      jump\t// in\n    tag_88:\n      stop\n        /* \"contracts/LicenseManager.sol\":5413:5599  function getLicenseTemplate(LID licenseId)... */\n    tag_14:\n      callvalue\n      dup1\n      iszero\n      tag_91\n      jumpi\n      0x00\n      dup1\n      revert\n    tag_91:\n      pop\n      tag_92\n      0x04\n      dup1\n      calldatasize\n      sub\n      dup2\n      add\n      swap1\n      tag_93\n      swap2\n      swap1\n      tag_40\n      jump\t// in\n    tag_93:\n      tag_94\n      jump\t// in\n    tag_92:\n      mload(0x40)\n      tag_95\n      swap2\n      swap1\n      tag_31\n      jump\t// in\n    tag_95:\n      mload(0x40)\n      dup1\n      swap2\n      sub\n      swap1\n      return\n        /* \"contracts/LicenseManager.sol\":5227:5407  function getLicensePrice(LID licenseId)... */\n    tag_15:\n      callvalue\n      dup1\n      iszero\n      tag_96\n      jumpi\n      0x00\n      dup1\n      revert\n    tag_96:\n      pop\n      tag_97\n      0x04\n      dup1\n      calldatasize\n      sub\n      dup2\n      add\n      swap1\n      tag_98\n      swap2\n      swap1\n      tag_40\n      jump\t// in\n    tag_98:\n      tag_99\n      jump\t// in\n    tag_97:\n      mload(0x40)\n      tag_100\n      swap2\n      swap1\n      tag_101\n      jump\t// in\n    tag_100:\n      mload(0x40)\n      dup1\n      swap2\n      sub\n      swap1\n      return\n        /* \"contracts/LicenseManager.sol\":7731:7937  function verifyLicensor(... */\n    tag_16:\n      callvalue\n      dup1\n      iszero\n      tag_102\n      jumpi\n      0x00\n      dup1\n      revert\n    tag_102:\n      pop\n      tag_103\n      0x04\n      dup1\n      calldatasize\n      sub\n      dup2\n      add\n      swap1\n      tag_104\n      swap2\n      swap1\n      tag_105\n      jump\t// in\n    tag_104:\n      tag_106\n      jump\t// in\n    tag_103:\n      mload(0x40)\n      tag_107\n      swap2\n      swap1\n      tag_108\n      jump\t// in\n    tag_107:\n      mload(0x40)\n      dup1\n      swap2\n      sub\n      swap1\n      return\n        /* \"contracts/LicenseManager.sol\":1509:1613  function removeTemplate(address template) public onlyOwner {... */\n    tag_17:\n      callvalue\n      dup1\n      iszero\n      tag_109\n      jumpi\n      0x00\n      dup1\n      revert\n    tag_109:\n      pop\n      tag_110\n      0x04\n      dup1\n      calldatasize\n      sub\n      dup2\n      add\n      swap1\n      tag_111\n      swap2\n      swap1\n      tag_70\n      jump\t// in\n    tag_111:\n      tag_112\n      jump\t// in\n    tag_110:\n      stop\n        /* \"contracts/LicenseManager.sol\":5862:6527  function buyLicense(... */\n    tag_18:\n      tag_113\n      0x04\n      dup1\n      calldatasize\n      sub\n      dup2\n      add\n      swap1\n      tag_114\n      swap2\n      swap1\n      tag_115\n      jump\t// in\n    tag_114:\n      tag_116\n      jump\t// in\n    tag_113:\n      stop\n        /* \"contracts/LicenseManager.sol\":7943:8180  function verifyLicensee(... */\n    tag_19:\n      callvalue\n      dup1\n      iszero\n      tag_117\n      jumpi\n      0x00\n      dup1\n      revert\n    tag_117:\n      pop\n      tag_118\n      0x04\n      dup1\n      calldatasize\n      sub\n      dup2\n      add\n      swap1\n      tag_119\n      swap2\n      swap1\n      tag_120\n      jump\t// in\n    tag_119:\n      tag_121\n      jump\t// in\n    tag_118:\n      mload(0x40)\n      tag_122\n      swap2\n      swap1\n      tag_108\n      jump\t// in\n    tag_122:\n      mload(0x40)\n      dup1\n      swap2\n      sub\n      swap1\n      return\n        /* \"contracts/LicenseManager.sol\":4126:4550  function addVideoWithLicense(... */\n    tag_20:\n      callvalue\n      dup1\n      iszero\n      tag_123\n      jumpi\n      0x00\n      dup1\n      revert\n    tag_123:\n      pop\n      tag_124\n      0x04\n      dup1\n      calldatasize\n      sub\n      dup2\n      add\n      swap1\n      tag_125\n      swap2\n      swap1\n      tag_126\n      jump\t// in\n    tag_125:\n      tag_127\n      jump\t// in\n    tag_124:\n      stop\n        /* \"contracts/LicenseManager.sol\":1097:1187  function transferOwnership(address owner) public onlyOwner {... */\n    tag_21:\n      callvalue\n      dup1\n      iszero\n      tag_128\n      jumpi\n      0x00\n      dup1\n      revert\n    tag_128:\n      pop\n      tag_129\n      0x04\n      dup1\n      calldatasize\n      sub\n      dup2\n      add\n      swap1\n      tag_130\n      swap2\n      swap1\n      tag_70\n      jump\t// in\n    tag_130:\n      tag_131\n      jump\t// in\n    tag_129:\n      stop\n        /* \"contracts/LicenseManager.sol\":8781:9365  function recoverSigner(string memory message, bytes calldata sig)... */\n    tag_29:\n        /* \"contracts/LicenseManager.sol\":8892:8899  address */\n      0x00\n        /* \"contracts/LicenseManager.sol\":8983:8985  65 */\n      0x41\n        /* \"contracts/LicenseManager.sol\":8969:8972  sig */\n      dup4\n      dup4\n        /* \"contracts/LicenseManager.sol\":8969:8979  sig.length */\n      swap1\n      pop\n        /* \"contracts/LicenseManager.sol\":8969:8985  sig.length == 65 */\n      eq\n        /* \"contracts/LicenseManager.sol\":8961:9007  require(sig.length == 65, \"invalid signature\") */\n      tag_133\n      jumpi\n      mload(0x40)\n      0x08c379a000000000000000000000000000000000000000000000000000000000\n      dup2\n      mstore\n      0x04\n      add\n      tag_134\n      swap1\n      tag_135\n      jump\t// in\n    tag_134:\n      mload(0x40)\n      dup1\n      swap2\n      sub\n      swap1\n      revert\n    tag_133:\n        /* \"contracts/LicenseManager.sol\":9090:9097  uint8 v */\n      0x00\n        /* \"contracts/LicenseManager.sol\":9107:9116  bytes32 r */\n      dup1\n        /* \"contracts/LicenseManager.sol\":9126:9135  bytes32 s */\n      0x00\n        /* \"contracts/LicenseManager.sol\":9186:9196  sig.offset */\n      dup6\n        /* \"contracts/LicenseManager.sol\":9173:9197  calldataload(sig.offset) */\n      calldataload\n        /* \"contracts/LicenseManager.sol\":9168:9197  r := calldataload(sig.offset) */\n      swap2\n      pop\n        /* \"contracts/LicenseManager.sol\":9244:9248  0x20 */\n      0x20\n        /* \"contracts/LicenseManager.sol\":9232:9242  sig.offset */\n      dup7\n        /* \"contracts/LicenseManager.sol\":9228:9249  add(sig.offset, 0x20) */\n      add\n        /* \"contracts/LicenseManager.sol\":9215:9250  calldataload(add(sig.offset, 0x20)) */\n      calldataload\n        /* \"contracts/LicenseManager.sol\":9210:9250  s := calldataload(add(sig.offset, 0x20)) */\n      swap1\n      pop\n        /* \"contracts/LicenseManager.sol\":9297:9301  0x21 */\n      0x21\n        /* \"contracts/LicenseManager.sol\":9285:9295  sig.offset */\n      dup7\n        /* \"contracts/LicenseManager.sol\":9281:9302  add(sig.offset, 0x21) */\n      add\n        /* \"contracts/LicenseManager.sol\":9268:9303  calldataload(add(sig.offset, 0x21)) */\n      calldataload\n        /* \"contracts/LicenseManager.sol\":9263:9303  v := calldataload(add(sig.offset, 0x21)) */\n      swap3\n      pop\n        /* \"contracts/LicenseManager.sol\":9330:9358  _ecrecover(message, v, r, s) */\n      tag_136\n        /* \"contracts/LicenseManager.sol\":9341:9348  message */\n      dup8\n        /* \"contracts/LicenseManager.sol\":9350:9351  v */\n      dup5\n        /* \"contracts/LicenseManager.sol\":9353:9354  r */\n      dup5\n        /* \"contracts/LicenseManager.sol\":9356:9357  s */\n      dup5\n        /* \"contracts/LicenseManager.sol\":9330:9340  _ecrecover */\n      tag_137\n        /* \"contracts/LicenseManager.sol\":9330:9358  _ecrecover(message, v, r, s) */\n      jump\t// in\n    tag_136:\n        /* \"contracts/LicenseManager.sol\":9323:9358  return _ecrecover(message, v, r, s) */\n      swap4\n      pop\n      pop\n      pop\n      pop\n        /* \"contracts/LicenseManager.sol\":8781:9365  function recoverSigner(string memory message, bytes calldata sig)... */\n      swap4\n      swap3\n      pop\n      pop\n      pop\n      jump\t// out\n        /* \"contracts/LicenseManager.sol\":5622:5779  string public constant licenseeAgreement =... */\n    tag_34:\n      mload(0x40)\n      dup1\n      0xa0\n      add\n      0x40\n      mstore\n      dup1\n      0x68\n      dup2\n      mstore\n      0x20\n      add\n      data_947495800a19c75b349554c37b44e0820cfe4e72bb09a80ed436e10673d6e5c6\n      0x68\n      swap2\n      codecopy\n      dup2\n      jump\t// out\n        /* \"contracts/LicenseManager.sol\":5019:5221  function getLicenseOwner(LID licenseId)... */\n    tag_41:\n        /* \"contracts/LicenseManager.sol\":5137:5152  address payable */\n      0x00\n        /* \"contracts/LicenseManager.sol\":5109:5118  licenseId */\n      dup2\n        /* \"contracts/LicenseManager.sol\":2463:2480  _licenseActivated */\n      0x06\n        /* \"contracts/LicenseManager.sol\":2463:2491  _licenseActivated[licenseId] */\n      0x00\n        /* \"contracts/LicenseManager.sol\":2481:2490  licenseId */\n      dup3\n        /* \"contracts/LicenseManager.sol\":2463:2491  _licenseActivated[licenseId] */\n      dup2\n      mstore\n      0x20\n      add\n      swap1\n      dup2\n      mstore\n      0x20\n      add\n      0x00\n      keccak256\n      0x00\n      swap1\n      sload\n      swap1\n      0x0100\n      exp\n      swap1\n      div\n      0xff\n      and\n        /* \"contracts/LicenseManager.sol\":2455:2517  require(_licenseActivated[licenseId], \"license doesn't exist\") */\n      tag_139\n      jumpi\n      mload(0x40)\n      0x08c379a000000000000000000000000000000000000000000000000000000000\n      dup2\n      mstore\n      0x04\n      add\n      tag_140\n      swap1\n      tag_141\n      jump\t// in\n    tag_140:\n      mload(0x40)\n      dup1\n      swap2\n      sub\n      swap1\n      revert\n    tag_139:\n        /* \"contracts/LicenseManager.sol\":5175:5187  _videoOwners */\n      0x02\n        /* \"contracts/LicenseManager.sol\":5188:5202  _licenseVideos */\n      0x07\n        /* \"contracts/LicenseManager.sol\":5188:5213  _licenseVideos[licenseId] */\n      0x00\n        /* \"contracts/LicenseManager.sol\":5203:5212  licenseId */\n      dup6\n        /* \"contracts/LicenseManager.sol\":5188:5213  _licenseVideos[licenseId] */\n      dup2\n      mstore\n      0x20\n      add\n      swap1\n      dup2\n      mstore\n      0x20\n      add\n      0x00\n      keccak256\n        /* \"contracts/LicenseManager.sol\":5175:5214  _videoOwners[_licenseVideos[licenseId]] */\n      mload(0x40)\n      tag_143\n      swap2\n      swap1\n      tag_144\n      jump\t// in\n    tag_143:\n      swap1\n      dup2\n      mstore\n      0x20\n      add\n      mload(0x40)\n      dup1\n      swap2\n      sub\n      swap1\n      keccak256\n      0x00\n      swap1\n      sload\n      swap1\n      0x0100\n      exp\n      swap1\n      div\n      0xffffffffffffffffffffffffffffffffffffffff\n      and\n        /* \"contracts/LicenseManager.sol\":5168:5214  return _videoOwners[_licenseVideos[licenseId]] */\n      swap2\n      pop\n        /* \"contracts/LicenseManager.sol\":5019:5221  function getLicenseOwner(LID licenseId)... */\n      pop\n      swap2\n      swap1\n      pop\n      jump\t// out\n        /* \"contracts/LicenseManager.sol\":2661:3144  function addVideo(... */\n    tag_48:\n        /* \"contracts/LicenseManager.sol\":1040:1050  msg.sender */\n      caller\n        /* \"contracts/LicenseManager.sol\":1030:1050  _owner == msg.sender */\n      0xffffffffffffffffffffffffffffffffffffffff\n      and\n        /* \"contracts/LicenseManager.sol\":1030:1036  _owner */\n      0x00\n      dup1\n      sload\n      swap1\n      0x0100\n      exp\n      swap1\n      div\n      0xffffffffffffffffffffffffffffffffffffffff\n      and\n        /* \"contracts/LicenseManager.sol\":1030:1050  _owner == msg.sender */\n      0xffffffffffffffffffffffffffffffffffffffff\n      and\n      eq\n        /* \"contracts/LicenseManager.sol\":1022:1072  require(_owner == msg.sender, \"owner access only\") */\n      tag_146\n      jumpi\n      mload(0x40)\n      0x08c379a000000000000000000000000000000000000000000000000000000000\n      dup2\n      mstore\n      0x04\n      add\n      tag_147\n      swap1\n      tag_148\n      jump\t// in\n    tag_147:\n      mload(0x40)\n      dup1\n      swap2\n      sub\n      swap1\n      revert\n    tag_146:\n        /* \"contracts/LicenseManager.sol\":2807:2828  bytes memory vidBytes */\n      0x00\n        /* \"contracts/LicenseManager.sol\":2837:2840  vid */\n      dup5\n        /* \"contracts/LicenseManager.sol\":2807:2841  bytes memory vidBytes = bytes(vid) */\n      swap1\n      pop\n        /* \"contracts/LicenseManager.sol\":2892:2893  0 */\n      0x00\n        /* \"contracts/LicenseManager.sol\":2874:2882  vidBytes */\n      dup2\n        /* \"contracts/LicenseManager.sol\":2874:2889  vidBytes.length */\n      mload\n        /* \"contracts/LicenseManager.sol\":2874:2893  vidBytes.length > 0 */\n      gt\n        /* \"contracts/LicenseManager.sol\":2866:2914  require(vidBytes.length > 0, \"invalid video id\") */\n      tag_150\n      jumpi\n      mload(0x40)\n      0x08c379a000000000000000000000000000000000000000000000000000000000\n      dup2\n      mstore\n      0x04\n      add\n      tag_151\n      swap1\n      tag_152\n      jump\t// in\n    tag_151:\n      mload(0x40)\n      dup1\n      swap2\n      sub\n      swap1\n      revert\n    tag_150:\n        /* \"contracts/LicenseManager.sol\":2945:2985  verifyLicensor(licensor, vid, signature) */\n      tag_153\n        /* \"contracts/LicenseManager.sol\":2960:2968  licensor */\n      dup5\n        /* \"contracts/LicenseManager.sol\":2970:2973  vid */\n      dup7\n        /* \"contracts/LicenseManager.sol\":2975:2984  signature */\n      dup6\n      dup6\n        /* \"contracts/LicenseManager.sol\":2945:2959  verifyLicensor */\n      tag_106\n        /* \"contracts/LicenseManager.sol\":2945:2985  verifyLicensor(licensor, vid, signature) */\n      jump\t// in\n    tag_153:\n        /* \"contracts/LicenseManager.sol\":2924:3037  require(... */\n      tag_154\n      jumpi\n      mload(0x40)\n      0x08c379a000000000000000000000000000000000000000000000000000000000\n      dup2\n      mstore\n      0x04\n      add\n      tag_155\n      swap1\n      tag_156\n      jump\t// in\n    tag_155:\n      mload(0x40)\n      dup1\n      swap2\n      sub\n      swap1\n      revert\n    tag_154:\n        /* \"contracts/LicenseManager.sol\":3081:3082  0 */\n      0x00\n        /* \"contracts/LicenseManager.sol\":3052:3083  _videoOwners[vid] == address(0) */\n      0xffffffffffffffffffffffffffffffffffffffff\n      and\n        /* \"contracts/LicenseManager.sol\":3052:3064  _videoOwners */\n      0x02\n        /* \"contracts/LicenseManager.sol\":3065:3068  vid */\n      dup7\n        /* \"contracts/LicenseManager.sol\":3052:3069  _videoOwners[vid] */\n      mload(0x40)\n      tag_157\n      swap2\n      swap1\n      tag_158\n      jump\t// in\n    tag_157:\n      swap1\n      dup2\n      mstore\n      0x20\n      add\n      mload(0x40)\n      dup1\n      swap2\n      sub\n      swap1\n      keccak256\n      0x00\n      swap1\n      sload\n      swap1\n      0x0100\n      exp\n      swap1\n      div\n      0xffffffffffffffffffffffffffffffffffffffff\n      and\n        /* \"contracts/LicenseManager.sol\":3052:3083  _videoOwners[vid] == address(0) */\n      0xffffffffffffffffffffffffffffffffffffffff\n      and\n      sub\n        /* \"contracts/LicenseManager.sol\":3048:3138  if (_videoOwners[vid] == address(0)) {... */\n      tag_159\n      jumpi\n        /* \"contracts/LicenseManager.sol\":3119:3127  licensor */\n      dup4\n        /* \"contracts/LicenseManager.sol\":3099:3111  _videoOwners */\n      0x02\n        /* \"contracts/LicenseManager.sol\":3112:3115  vid */\n      dup7\n        /* \"contracts/LicenseManager.sol\":3099:3116  _videoOwners[vid] */\n      mload(0x40)\n      tag_160\n      swap2\n      swap1\n      tag_158\n      jump\t// in\n    tag_160:\n      swap1\n      dup2\n      mstore\n      0x20\n      add\n      mload(0x40)\n      dup1\n      swap2\n      sub\n      swap1\n      keccak256\n      0x00\n        /* \"contracts/LicenseManager.sol\":3099:3127  _videoOwners[vid] = licensor */\n      0x0100\n      exp\n      dup2\n      sload\n      dup2\n      0xffffffffffffffffffffffffffffffffffffffff\n      mul\n      not\n      and\n      swap1\n      dup4\n      0xffffffffffffffffffffffffffffffffffffffff\n      and\n      mul\n      or\n      swap1\n      sstore\n      pop\n        /* \"contracts/LicenseManager.sol\":3048:3138  if (_videoOwners[vid] == address(0)) {... */\n    tag_159:\n        /* \"contracts/LicenseManager.sol\":2797:3144  {... */\n      pop\n        /* \"contracts/LicenseManager.sol\":2661:3144  function addVideo(... */\n      pop\n      pop\n      pop\n      pop\n      jump\t// out\n        /* \"contracts/LicenseManager.sol\":2542:2655  function getVideoOwner(string memory vid) public view returns (address) {... */\n    tag_53:\n        /* \"contracts/LicenseManager.sol\":2605:2612  address */\n      0x00\n        /* \"contracts/LicenseManager.sol\":2631:2643  _videoOwners */\n      0x02\n        /* \"contracts/LicenseManager.sol\":2644:2647  vid */\n      dup3\n        /* \"contracts/LicenseManager.sol\":2631:2648  _videoOwners[vid] */\n      mload(0x40)\n      tag_162\n      swap2\n      swap1\n      tag_158\n      jump\t// in\n    tag_162:\n      swap1\n      dup2\n      mstore\n      0x20\n      add\n      mload(0x40)\n      dup1\n      swap2\n      sub\n      swap1\n      keccak256\n      0x00\n      swap1\n      sload\n      swap1\n      0x0100\n      exp\n      swap1\n      div\n      0xffffffffffffffffffffffffffffffffffffffff\n      and\n        /* \"contracts/LicenseManager.sol\":2624:2648  return _videoOwners[vid] */\n      swap1\n      pop\n        /* \"contracts/LicenseManager.sol\":2542:2655  function getVideoOwner(string memory vid) public view returns (address) {... */\n      swap2\n      swap1\n      pop\n      jump\t// out\n        /* \"contracts/LicenseManager.sol\":4827:5013  function getLicenseVideo(LID licenseId)... */\n    tag_58:\n        /* \"contracts/LicenseManager.sol\":4945:4958  string memory */\n      0x60\n        /* \"contracts/LicenseManager.sol\":4917:4926  licenseId */\n      dup2\n        /* \"contracts/LicenseManager.sol\":2463:2480  _licenseActivated */\n      0x06\n        /* \"contracts/LicenseManager.sol\":2463:2491  _licenseActivated[licenseId] */\n      0x00\n        /* \"contracts/LicenseManager.sol\":2481:2490  licenseId */\n      dup3\n        /* \"contracts/LicenseManager.sol\":2463:2491  _licenseActivated[licenseId] */\n      dup2\n      mstore\n      0x20\n      add\n      swap1\n      dup2\n      mstore\n      0x20\n      add\n      0x00\n      keccak256\n      0x00\n      swap1\n      sload\n      swap1\n      0x0100\n      exp\n      swap1\n      div\n      0xff\n      and\n        /* \"contracts/LicenseManager.sol\":2455:2517  require(_licenseActivated[licenseId], \"license doesn't exist\") */\n      tag_164\n      jumpi\n      mload(0x40)\n      0x08c379a000000000000000000000000000000000000000000000000000000000\n      dup2\n      mstore\n      0x04\n      add\n      tag_165\n      swap1\n      tag_141\n      jump\t// in\n    tag_165:\n      mload(0x40)\n      dup1\n      swap2\n      sub\n      swap1\n      revert\n    tag_164:\n        /* \"contracts/LicenseManager.sol\":4981:4995  _licenseVideos */\n      0x07\n        /* \"contracts/LicenseManager.sol\":4981:5006  _licenseVideos[licenseId] */\n      0x00\n        /* \"contracts/LicenseManager.sol\":4996:5005  licenseId */\n      dup5\n        /* \"contracts/LicenseManager.sol\":4981:5006  _licenseVideos[licenseId] */\n      dup2\n      mstore\n      0x20\n      add\n      swap1\n      dup2\n      mstore\n      0x20\n      add\n      0x00\n      keccak256\n        /* \"contracts/LicenseManager.sol\":4974:5006  return _licenseVideos[licenseId] */\n      dup1\n      sload\n      tag_167\n      swap1\n      tag_168\n      jump\t// in\n    tag_167:\n      dup1\n      0x1f\n      add\n      0x20\n      dup1\n      swap2\n      div\n      mul\n      0x20\n      add\n      mload(0x40)\n      swap1\n      dup2\n      add\n      0x40\n      mstore\n      dup1\n      swap3\n      swap2\n      swap1\n      dup2\n      dup2\n      mstore\n      0x20\n      add\n      dup3\n      dup1\n      sload\n      tag_169\n      swap1\n      tag_168\n      jump\t// in\n    tag_169:\n      dup1\n      iszero\n      tag_170\n      jumpi\n      dup1\n      0x1f\n      lt\n      tag_171\n      jumpi\n      0x0100\n      dup1\n      dup4\n      sload\n      div\n      mul\n      dup4\n      mstore\n      swap2\n      0x20\n      add\n      swap2\n      jump(tag_170)\n    tag_171:\n      dup3\n      add\n      swap2\n      swap1\n      0x00\n      mstore\n      keccak256(0x00, 0x20)\n      swap1\n    tag_172:\n      dup2\n      sload\n      dup2\n      mstore\n      swap1\n      0x01\n      add\n      swap1\n      0x20\n      add\n      dup1\n      dup4\n      gt\n      tag_172\n      jumpi\n      dup3\n      swap1\n      sub\n      0x1f\n      and\n      dup3\n      add\n      swap2\n    tag_170:\n      pop\n      pop\n      pop\n      pop\n      pop\n      swap2\n      pop\n        /* \"contracts/LicenseManager.sol\":4827:5013  function getLicenseVideo(LID licenseId)... */\n      pop\n      swap2\n      swap1\n      pop\n      jump\t// out\n        /* \"contracts/LicenseManager.sol\":6533:7040  function getLicenseeLicenses(string memory vid, address licensee)... */\n    tag_64:\n        /* \"contracts/LicenseManager.sol\":6668:6680  LID[] memory */\n      0x60\n        /* \"contracts/LicenseManager.sol\":6646:6649  vid */\n      dup3\n        /* \"contracts/LicenseManager.sol\":2356:2357  0 */\n      0x00\n        /* \"contracts/LicenseManager.sol\":2327:2358  _videoOwners[vid] != address(0) */\n      0xffffffffffffffffffffffffffffffffffffffff\n      and\n        /* \"contracts/LicenseManager.sol\":2327:2339  _videoOwners */\n      0x02\n        /* \"contracts/LicenseManager.sol\":2340:2343  vid */\n      dup3\n        /* \"contracts/LicenseManager.sol\":2327:2344  _videoOwners[vid] */\n      mload(0x40)\n      tag_174\n      swap2\n      swap1\n      tag_158\n      jump\t// in\n    tag_174:\n      swap1\n      dup2\n      mstore\n      0x20\n      add\n      mload(0x40)\n      dup1\n      swap2\n      sub\n      swap1\n      keccak256\n      0x00\n      swap1\n      sload\n      swap1\n      0x0100\n      exp\n      swap1\n      div\n      0xffffffffffffffffffffffffffffffffffffffff\n      and\n        /* \"contracts/LicenseManager.sol\":2327:2358  _videoOwners[vid] != address(0) */\n      0xffffffffffffffffffffffffffffffffffffffff\n      and\n      sub\n        /* \"contracts/LicenseManager.sol\":2319:2382  require(_videoOwners[vid] != address(0), \"video doesn't exist\") */\n      tag_175\n      jumpi\n      mload(0x40)\n      0x08c379a000000000000000000000000000000000000000000000000000000000\n      dup2\n      mstore\n      0x04\n      add\n      tag_176\n      swap1\n      tag_177\n      jump\t// in\n    tag_176:\n      mload(0x40)\n      dup1\n      swap2\n      sub\n      swap1\n      revert\n    tag_175:\n        /* \"contracts/LicenseManager.sol\":6696:6718  LID[] memory purchased */\n      0x00\n        /* \"contracts/LicenseManager.sol\":6731:6750  _videoLicenseCounts */\n      0x03\n        /* \"contracts/LicenseManager.sol\":6751:6754  vid */\n      dup6\n        /* \"contracts/LicenseManager.sol\":6731:6755  _videoLicenseCounts[vid] */\n      mload(0x40)\n      tag_179\n      swap2\n      swap1\n      tag_158\n      jump\t// in\n    tag_179:\n      swap1\n      dup2\n      mstore\n      0x20\n      add\n      mload(0x40)\n      dup1\n      swap2\n      sub\n      swap1\n      keccak256\n      sload\n        /* \"contracts/LicenseManager.sol\":6721:6756  new LID[](_videoLicenseCounts[vid]) */\n      0xffffffffffffffff\n      dup2\n      gt\n      iszero\n      tag_180\n      jumpi\n      tag_181\n      tag_182\n      jump\t// in\n    tag_181:\n    tag_180:\n      mload(0x40)\n      swap1\n      dup1\n      dup3\n      mstore\n      dup1\n      0x20\n      mul\n      0x20\n      add\n      dup3\n      add\n      0x40\n      mstore\n      dup1\n      iszero\n      tag_183\n      jumpi\n      dup2\n      0x20\n      add\n      0x20\n      dup3\n      mul\n      dup1\n      calldatasize\n      dup4\n      calldatacopy\n      dup1\n      dup3\n      add\n      swap2\n      pop\n      pop\n      swap1\n      pop\n    tag_183:\n      pop\n        /* \"contracts/LicenseManager.sol\":6696:6756  LID[] memory purchased = new LID[](_videoLicenseCounts[vid]) */\n      swap1\n      pop\n        /* \"contracts/LicenseManager.sol\":6772:6781  uint256 i */\n      0x00\n        /* \"contracts/LicenseManager.sol\":6767:7007  for (uint256 i = 0; i < _videoLicenseCounts[vid]; i++) {... */\n    tag_184:\n        /* \"contracts/LicenseManager.sol\":6791:6810  _videoLicenseCounts */\n      0x03\n        /* \"contracts/LicenseManager.sol\":6811:6814  vid */\n      dup7\n        /* \"contracts/LicenseManager.sol\":6791:6815  _videoLicenseCounts[vid] */\n      mload(0x40)\n      tag_187\n      swap2\n      swap1\n      tag_158\n      jump\t// in\n    tag_187:\n      swap1\n      dup2\n      mstore\n      0x20\n      add\n      mload(0x40)\n      dup1\n      swap2\n      sub\n      swap1\n      keccak256\n      sload\n        /* \"contracts/LicenseManager.sol\":6787:6788  i */\n      dup2\n        /* \"contracts/LicenseManager.sol\":6787:6815  i < _videoLicenseCounts[vid] */\n      lt\n        /* \"contracts/LicenseManager.sol\":6767:7007  for (uint256 i = 0; i < _videoLicenseCounts[vid]; i++) {... */\n      iszero\n      tag_185\n      jumpi\n        /* \"contracts/LicenseManager.sol\":6836:6849  LID licenseId */\n      0x00\n        /* \"contracts/LicenseManager.sol\":6852:6868  _videoLicenseIDs */\n      0x04\n        /* \"contracts/LicenseManager.sol\":6869:6872  vid */\n      dup8\n        /* \"contracts/LicenseManager.sol\":6852:6873  _videoLicenseIDs[vid] */\n      mload(0x40)\n      tag_188\n      swap2\n      swap1\n      tag_158\n      jump\t// in\n    tag_188:\n      swap1\n      dup2\n      mstore\n      0x20\n      add\n      mload(0x40)\n      dup1\n      swap2\n      sub\n      swap1\n      keccak256\n        /* \"contracts/LicenseManager.sol\":6852:6876  _videoLicenseIDs[vid][i] */\n      0x00\n        /* \"contracts/LicenseManager.sol\":6874:6875  i */\n      dup4\n        /* \"contracts/LicenseManager.sol\":6852:6876  _videoLicenseIDs[vid][i] */\n      dup2\n      mstore\n      0x20\n      add\n      swap1\n      dup2\n      mstore\n      0x20\n      add\n      0x00\n      keccak256\n      sload\n        /* \"contracts/LicenseManager.sol\":6836:6876  LID licenseId = _videoLicenseIDs[vid][i] */\n      swap1\n      pop\n        /* \"contracts/LicenseManager.sol\":6937:6938  0 */\n      0x00\n        /* \"contracts/LicenseManager.sol\":6895:6912  _licenseLicensees */\n      0x0a\n        /* \"contracts/LicenseManager.sol\":6895:6923  _licenseLicensees[licenseId] */\n      0x00\n        /* \"contracts/LicenseManager.sol\":6913:6922  licenseId */\n      dup4\n        /* \"contracts/LicenseManager.sol\":6895:6923  _licenseLicensees[licenseId] */\n      dup2\n      mstore\n      0x20\n      add\n      swap1\n      dup2\n      mstore\n      0x20\n      add\n      0x00\n      keccak256\n        /* \"contracts/LicenseManager.sol\":6895:6933  _licenseLicensees[licenseId][licensee] */\n      0x00\n        /* \"contracts/LicenseManager.sol\":6924:6932  licensee */\n      dup9\n        /* \"contracts/LicenseManager.sol\":6895:6933  _licenseLicensees[licenseId][licensee] */\n      0xffffffffffffffffffffffffffffffffffffffff\n      and\n      0xffffffffffffffffffffffffffffffffffffffff\n      and\n      dup2\n      mstore\n      0x20\n      add\n      swap1\n      dup2\n      mstore\n      0x20\n      add\n      0x00\n      keccak256\n      sload\n        /* \"contracts/LicenseManager.sol\":6895:6938  _licenseLicensees[licenseId][licensee] != 0 */\n      eq\n        /* \"contracts/LicenseManager.sol\":6891:6997  if (_licenseLicensees[licenseId][licensee] != 0) {... */\n      tag_189\n      jumpi\n        /* \"contracts/LicenseManager.sol\":6973:6982  licenseId */\n      dup1\n        /* \"contracts/LicenseManager.sol\":6958:6967  purchased */\n      dup4\n        /* \"contracts/LicenseManager.sol\":6968:6969  i */\n      dup4\n        /* \"contracts/LicenseManager.sol\":6958:6970  purchased[i] */\n      dup2\n      mload\n      dup2\n      lt\n      tag_190\n      jumpi\n      tag_191\n      tag_192\n      jump\t// in\n    tag_191:\n    tag_190:\n      0x20\n      mul\n      0x20\n      add\n      add\n        /* \"contracts/LicenseManager.sol\":6958:6982  purchased[i] = licenseId */\n      dup2\n      dup2\n      mstore\n      pop\n      pop\n        /* \"contracts/LicenseManager.sol\":6891:6997  if (_licenseLicensees[licenseId][licensee] != 0) {... */\n    tag_189:\n        /* \"contracts/LicenseManager.sol\":6822:7007  {... */\n      pop\n        /* \"contracts/LicenseManager.sol\":6817:6820  i++ */\n      dup1\n      dup1\n      0x01\n      add\n      swap2\n      pop\n      pop\n        /* \"contracts/LicenseManager.sol\":6767:7007  for (uint256 i = 0; i < _videoLicenseCounts[vid]; i++) {... */\n      jump(tag_184)\n    tag_185:\n      pop\n        /* \"contracts/LicenseManager.sol\":7024:7033  purchased */\n      dup1\n        /* \"contracts/LicenseManager.sol\":7017:7033  return purchased */\n      swap3\n      pop\n      pop\n        /* \"contracts/LicenseManager.sol\":6533:7040  function getLicenseeLicenses(string memory vid, address licensee)... */\n      pop\n      swap3\n      swap2\n      pop\n      pop\n      jump\t// out\n        /* \"contracts/LicenseManager.sol\":1403:1503  function addTemplate(address template) public onlyOwner {... */\n    tag_71:\n        /* \"contracts/LicenseManager.sol\":1040:1050  msg.sender */\n      caller\n        /* \"contracts/LicenseManager.sol\":1030:1050  _owner == msg.sender */\n      0xffffffffffffffffffffffffffffffffffffffff\n      and\n        /* \"contracts/LicenseManager.sol\":1030:1036  _owner */\n      0x00\n      dup1\n      sload\n      swap1\n      0x0100\n      exp\n      swap1\n      div\n      0xffffffffffffffffffffffffffffffffffffffff\n      and\n        /* \"contracts/LicenseManager.sol\":1030:1050  _owner == msg.sender */\n      0xffffffffffffffffffffffffffffffffffffffff\n      and\n      eq\n        /* \"contracts/LicenseManager.sol\":1022:1072  require(_owner == msg.sender, \"owner access only\") */\n      tag_194\n      jumpi\n      mload(0x40)\n      0x08c379a000000000000000000000000000000000000000000000000000000000\n      dup2\n      mstore\n      0x04\n      add\n      tag_195\n      swap1\n      tag_148\n      jump\t// in\n    tag_195:\n      mload(0x40)\n      dup1\n      swap2\n      sub\n      swap1\n      revert\n    tag_194:\n        /* \"contracts/LicenseManager.sol\":1492:1496  true */\n      0x01\n        /* \"contracts/LicenseManager.sol\":1469:1479  _templates */\n      dup1\n        /* \"contracts/LicenseManager.sol\":1469:1489  _templates[template] */\n      0x00\n        /* \"contracts/LicenseManager.sol\":1480:1488  template */\n      dup4\n        /* \"contracts/LicenseManager.sol\":1469:1489  _templates[template] */\n      0xffffffffffffffffffffffffffffffffffffffff\n      and\n      0xffffffffffffffffffffffffffffffffffffffff\n      and\n      dup2\n      mstore\n      0x20\n      add\n      swap1\n      dup2\n      mstore\n      0x20\n      add\n      0x00\n      keccak256\n      0x00\n        /* \"contracts/LicenseManager.sol\":1469:1496  _templates[template] = true */\n      0x0100\n      exp\n      dup2\n      sload\n      dup2\n      0xff\n      mul\n      not\n      and\n      swap1\n      dup4\n      iszero\n      iszero\n      mul\n      or\n      swap1\n      sstore\n      pop\n        /* \"contracts/LicenseManager.sol\":1403:1503  function addTemplate(address template) public onlyOwner {... */\n      pop\n      jump\t// out\n        /* \"contracts/LicenseManager.sol\":1619:1776  string public constant licensorAgreement =... */\n    tag_74:\n      mload(0x40)\n      dup1\n      0xa0\n      add\n      0x40\n      mstore\n      dup1\n      0x68\n      dup2\n      mstore\n      0x20\n      add\n      data_0cd1ae3e4dc389c213191dc2019beca568e06b7e2e62f57ac23af9c3de086300\n      0x68\n      swap2\n      codecopy\n      dup2\n      jump\t// out\n        /* \"contracts/LicenseManager.sol\":3741:4120  function addLicense(... */\n    tag_80:\n        /* \"contracts/LicenseManager.sol\":3884:3887  vid */\n      dup4\n        /* \"contracts/LicenseManager.sol\":2356:2357  0 */\n      0x00\n        /* \"contracts/LicenseManager.sol\":2327:2358  _videoOwners[vid] != address(0) */\n      0xffffffffffffffffffffffffffffffffffffffff\n      and\n        /* \"contracts/LicenseManager.sol\":2327:2339  _videoOwners */\n      0x02\n        /* \"contracts/LicenseManager.sol\":2340:2343  vid */\n      dup3\n        /* \"contracts/LicenseManager.sol\":2327:2344  _videoOwners[vid] */\n      mload(0x40)\n      tag_198\n      swap2\n      swap1\n      tag_158\n      jump\t// in\n    tag_198:\n      swap1\n      dup2\n      mstore\n      0x20\n      add\n      mload(0x40)\n      dup1\n      swap2\n      sub\n      swap1\n      keccak256\n      0x00\n      swap1\n      sload\n      swap1\n      0x0100\n      exp\n      swap1\n      div\n      0xffffffffffffffffffffffffffffffffffffffff\n      and\n        /* \"contracts/LicenseManager.sol\":2327:2358  _videoOwners[vid] != address(0) */\n      0xffffffffffffffffffffffffffffffffffffffff\n      and\n      sub\n        /* \"contracts/LicenseManager.sol\":2319:2382  require(_videoOwners[vid] != address(0), \"video doesn't exist\") */\n      tag_199\n      jumpi\n      mload(0x40)\n      0x08c379a000000000000000000000000000000000000000000000000000000000\n      dup2\n      mstore\n      0x04\n      add\n      tag_200\n      swap1\n      tag_177\n      jump\t// in\n    tag_200:\n      mload(0x40)\n      dup1\n      swap2\n      sub\n      swap1\n      revert\n    tag_199:\n        /* \"contracts/LicenseManager.sol\":3904:3912  template */\n      dup4\n        /* \"contracts/LicenseManager.sol\":1332:1342  _templates */\n      0x01\n        /* \"contracts/LicenseManager.sol\":1332:1352  _templates[template] */\n      0x00\n        /* \"contracts/LicenseManager.sol\":1343:1351  template */\n      dup3\n        /* \"contracts/LicenseManager.sol\":1332:1352  _templates[template] */\n      0xffffffffffffffffffffffffffffffffffffffff\n      and\n      0xffffffffffffffffffffffffffffffffffffffff\n      and\n      dup2\n      mstore\n      0x20\n      add\n      swap1\n      dup2\n      mstore\n      0x20\n      add\n      0x00\n      keccak256\n      0x00\n      swap1\n      sload\n      swap1\n      0x0100\n      exp\n      swap1\n      div\n      0xff\n      and\n        /* \"contracts/LicenseManager.sol\":1324:1378  require(_templates[template], \"license doesn't exist\") */\n      tag_202\n      jumpi\n      mload(0x40)\n      0x08c379a000000000000000000000000000000000000000000000000000000000\n      dup2\n      mstore\n      0x04\n      add\n      tag_203\n      swap1\n      tag_141\n      jump\t// in\n    tag_203:\n      mload(0x40)\n      dup1\n      swap2\n      sub\n      swap1\n      revert\n    tag_202:\n        /* \"contracts/LicenseManager.sol\":3953:3963  msg.sender */\n      caller\n        /* \"contracts/LicenseManager.sol\":3932:3963  _videoOwners[vid] == msg.sender */\n      0xffffffffffffffffffffffffffffffffffffffff\n      and\n        /* \"contracts/LicenseManager.sol\":3932:3944  _videoOwners */\n      0x02\n        /* \"contracts/LicenseManager.sol\":3945:3948  vid */\n      dup8\n        /* \"contracts/LicenseManager.sol\":3932:3949  _videoOwners[vid] */\n      mload(0x40)\n      tag_205\n      swap2\n      swap1\n      tag_158\n      jump\t// in\n    tag_205:\n      swap1\n      dup2\n      mstore\n      0x20\n      add\n      mload(0x40)\n      dup1\n      swap2\n      sub\n      swap1\n      keccak256\n      0x00\n      swap1\n      sload\n      swap1\n      0x0100\n      exp\n      swap1\n      div\n      0xffffffffffffffffffffffffffffffffffffffff\n      and\n        /* \"contracts/LicenseManager.sol\":3932:3963  _videoOwners[vid] == msg.sender */\n      0xffffffffffffffffffffffffffffffffffffffff\n      and\n      eq\n        /* \"contracts/LicenseManager.sol\":3924:3984  require(_videoOwners[vid] == msg.sender, \"invalid licensor\") */\n      tag_206\n      jumpi\n      mload(0x40)\n      0x08c379a000000000000000000000000000000000000000000000000000000000\n      dup2\n      mstore\n      0x04\n      add\n      tag_207\n      swap1\n      tag_208\n      jump\t// in\n    tag_207:\n      mload(0x40)\n      dup1\n      swap2\n      sub\n      swap1\n      revert\n    tag_206:\n        /* \"contracts/LicenseManager.sol\":4003:4018  _licenseCreated */\n      0x05\n        /* \"contracts/LicenseManager.sol\":4003:4029  _licenseCreated[licenseId] */\n      0x00\n        /* \"contracts/LicenseManager.sol\":4019:4028  licenseId */\n      dup5\n        /* \"contracts/LicenseManager.sol\":4003:4029  _licenseCreated[licenseId] */\n      dup2\n      mstore\n      0x20\n      add\n      swap1\n      dup2\n      mstore\n      0x20\n      add\n      0x00\n      keccak256\n      0x00\n      swap1\n      sload\n      swap1\n      0x0100\n      exp\n      swap1\n      div\n      0xff\n      and\n        /* \"contracts/LicenseManager.sol\":4002:4029  !_licenseCreated[licenseId] */\n      iszero\n        /* \"contracts/LicenseManager.sol\":3994:4056  require(!_licenseCreated[licenseId], \"unavailable license id\") */\n      tag_209\n      jumpi\n      mload(0x40)\n      0x08c379a000000000000000000000000000000000000000000000000000000000\n      dup2\n      mstore\n      0x04\n      add\n      tag_210\n      swap1\n      tag_211\n      jump\t// in\n    tag_210:\n      mload(0x40)\n      dup1\n      swap2\n      sub\n      swap1\n      revert\n    tag_209:\n        /* \"contracts/LicenseManager.sol\":4067:4113  createLicense(vid, template, price, licenseId) */\n      tag_212\n        /* \"contracts/LicenseManager.sol\":4081:4084  vid */\n      dup7\n        /* \"contracts/LicenseManager.sol\":4086:4094  template */\n      dup7\n        /* \"contracts/LicenseManager.sol\":4096:4101  price */\n      dup7\n        /* \"contracts/LicenseManager.sol\":4103:4112  licenseId */\n      dup7\n        /* \"contracts/LicenseManager.sol\":4067:4080  createLicense */\n      tag_213\n        /* \"contracts/LicenseManager.sol\":4067:4113  createLicense(vid, template, price, licenseId) */\n      jump\t// in\n    tag_212:\n        /* \"contracts/LicenseManager.sol\":2393:2394  _ */\n      pop\n        /* \"contracts/LicenseManager.sol\":3741:4120  function addLicense(... */\n      pop\n      pop\n      pop\n      pop\n      pop\n      jump\t// out\n        /* \"contracts/LicenseManager.sol\":7046:7725  function composeLicense(LID licenseId, address licensee)... */\n    tag_85:\n        /* \"contracts/LicenseManager.sol\":7181:7194  string memory */\n      0x60\n        /* \"contracts/LicenseManager.sol\":7153:7162  licenseId */\n      dup3\n        /* \"contracts/LicenseManager.sol\":2463:2480  _licenseActivated */\n      0x06\n        /* \"contracts/LicenseManager.sol\":2463:2491  _licenseActivated[licenseId] */\n      0x00\n        /* \"contracts/LicenseManager.sol\":2481:2490  licenseId */\n      dup3\n        /* \"contracts/LicenseManager.sol\":2463:2491  _licenseActivated[licenseId] */\n      dup2\n      mstore\n      0x20\n      add\n      swap1\n      dup2\n      mstore\n      0x20\n      add\n      0x00\n      keccak256\n      0x00\n      swap1\n      sload\n      swap1\n      0x0100\n      exp\n      swap1\n      div\n      0xff\n      and\n        /* \"contracts/LicenseManager.sol\":2455:2517  require(_licenseActivated[licenseId], \"license doesn't exist\") */\n      tag_215\n      jumpi\n      mload(0x40)\n      0x08c379a000000000000000000000000000000000000000000000000000000000\n      dup2\n      mstore\n      0x04\n      add\n      tag_216\n      swap1\n      tag_141\n      jump\t// in\n    tag_216:\n      mload(0x40)\n      dup1\n      swap2\n      sub\n      swap1\n      revert\n    tag_215:\n        /* \"contracts/LicenseManager.sol\":7273:7274  0 */\n      0x00\n        /* \"contracts/LicenseManager.sol\":7231:7248  _licenseLicensees */\n      0x0a\n        /* \"contracts/LicenseManager.sol\":7231:7259  _licenseLicensees[licenseId] */\n      0x00\n        /* \"contracts/LicenseManager.sol\":7249:7258  licenseId */\n      dup7\n        /* \"contracts/LicenseManager.sol\":7231:7259  _licenseLicensees[licenseId] */\n      dup2\n      mstore\n      0x20\n      add\n      swap1\n      dup2\n      mstore\n      0x20\n      add\n      0x00\n      keccak256\n        /* \"contracts/LicenseManager.sol\":7231:7269  _licenseLicensees[licenseId][licensee] */\n      0x00\n        /* \"contracts/LicenseManager.sol\":7260:7268  licensee */\n      dup6\n        /* \"contracts/LicenseManager.sol\":7231:7269  _licenseLicensees[licenseId][licensee] */\n      0xffffffffffffffffffffffffffffffffffffffff\n      and\n      0xffffffffffffffffffffffffffffffffffffffff\n      and\n      dup2\n      mstore\n      0x20\n      add\n      swap1\n      dup2\n      mstore\n      0x20\n      add\n      0x00\n      keccak256\n      sload\n        /* \"contracts/LicenseManager.sol\":7231:7274  _licenseLicensees[licenseId][licensee] != 0 */\n      sub\n        /* \"contracts/LicenseManager.sol\":7210:7316  require(... */\n      tag_218\n      jumpi\n      mload(0x40)\n      0x08c379a000000000000000000000000000000000000000000000000000000000\n      dup2\n      mstore\n      0x04\n      add\n      tag_219\n      swap1\n      tag_220\n      jump\t// in\n    tag_219:\n      mload(0x40)\n      dup1\n      swap2\n      sub\n      swap1\n      revert\n    tag_218:\n        /* \"contracts/LicenseManager.sol\":7327:7344  string memory vid */\n      0x00\n        /* \"contracts/LicenseManager.sol\":7347:7361  _licenseVideos */\n      0x07\n        /* \"contracts/LicenseManager.sol\":7347:7372  _licenseVideos[licenseId] */\n      0x00\n        /* \"contracts/LicenseManager.sol\":7362:7371  licenseId */\n      dup7\n        /* \"contracts/LicenseManager.sol\":7347:7372  _licenseVideos[licenseId] */\n      dup2\n      mstore\n      0x20\n      add\n      swap1\n      dup2\n      mstore\n      0x20\n      add\n      0x00\n      keccak256\n        /* \"contracts/LicenseManager.sol\":7327:7372  string memory vid = _licenseVideos[licenseId] */\n      dup1\n      sload\n      tag_221\n      swap1\n      tag_168\n      jump\t// in\n    tag_221:\n      dup1\n      0x1f\n      add\n      0x20\n      dup1\n      swap2\n      div\n      mul\n      0x20\n      add\n      mload(0x40)\n      swap1\n      dup2\n      add\n      0x40\n      mstore\n      dup1\n      swap3\n      swap2\n      swap1\n      dup2\n      dup2\n      mstore\n      0x20\n      add\n      dup3\n      dup1\n      sload\n      tag_222\n      swap1\n      tag_168\n      jump\t// in\n    tag_222:\n      dup1\n      iszero\n      tag_223\n      jumpi\n      dup1\n      0x1f\n      lt\n      tag_224\n      jumpi\n      0x0100\n      dup1\n      dup4\n      sload\n      div\n      mul\n      dup4\n      mstore\n      swap2\n      0x20\n      add\n      swap2\n      jump(tag_223)\n    tag_224:\n      dup3\n      add\n      swap2\n      swap1\n      0x00\n      mstore\n      keccak256(0x00, 0x20)\n      swap1\n    tag_225:\n      dup2\n      sload\n      dup2\n      mstore\n      swap1\n      0x01\n      add\n      swap1\n      0x20\n      add\n      dup1\n      dup4\n      gt\n      tag_225\n      jumpi\n      dup3\n      swap1\n      sub\n      0x1f\n      and\n      dup3\n      add\n      swap2\n    tag_223:\n      pop\n      pop\n      pop\n      pop\n      pop\n      swap1\n      pop\n        /* \"contracts/LicenseManager.sol\":7382:7398  address licensor */\n      0x00\n        /* \"contracts/LicenseManager.sol\":7401:7413  _videoOwners */\n      0x02\n        /* \"contracts/LicenseManager.sol\":7414:7417  vid */\n      dup3\n        /* \"contracts/LicenseManager.sol\":7401:7418  _videoOwners[vid] */\n      mload(0x40)\n      tag_226\n      swap2\n      swap1\n      tag_158\n      jump\t// in\n    tag_226:\n      swap1\n      dup2\n      mstore\n      0x20\n      add\n      mload(0x40)\n      dup1\n      swap2\n      sub\n      swap1\n      keccak256\n      0x00\n      swap1\n      sload\n      swap1\n      0x0100\n      exp\n      swap1\n      div\n      0xffffffffffffffffffffffffffffffffffffffff\n      and\n        /* \"contracts/LicenseManager.sol\":7382:7418  address licensor = _videoOwners[vid] */\n      swap1\n      pop\n        /* \"contracts/LicenseManager.sol\":7428:7444  address template */\n      0x00\n        /* \"contracts/LicenseManager.sol\":7447:7464  _licenseTemplates */\n      0x09\n        /* \"contracts/LicenseManager.sol\":7447:7475  _licenseTemplates[licenseId] */\n      0x00\n        /* \"contracts/LicenseManager.sol\":7465:7474  licenseId */\n      dup9\n        /* \"contracts/LicenseManager.sol\":7447:7475  _licenseTemplates[licenseId] */\n      dup2\n      mstore\n      0x20\n      add\n      swap1\n      dup2\n      mstore\n      0x20\n      add\n      0x00\n      keccak256\n      0x00\n      swap1\n      sload\n      swap1\n      0x0100\n      exp\n      swap1\n      div\n      0xffffffffffffffffffffffffffffffffffffffff\n      and\n        /* \"contracts/LicenseManager.sol\":7428:7475  address template = _licenseTemplates[licenseId] */\n      swap1\n      pop\n        /* \"contracts/LicenseManager.sol\":7486:7499  uint256 price */\n      0x00\n        /* \"contracts/LicenseManager.sol\":7502:7516  _licensePrices */\n      0x08\n        /* \"contracts/LicenseManager.sol\":7502:7527  _licensePrices[licenseId] */\n      0x00\n        /* \"contracts/LicenseManager.sol\":7517:7526  licenseId */\n      dup10\n        /* \"contracts/LicenseManager.sol\":7502:7527  _licensePrices[licenseId] */\n      dup2\n      mstore\n      0x20\n      add\n      swap1\n      dup2\n      mstore\n      0x20\n      add\n      0x00\n      keccak256\n      sload\n        /* \"contracts/LicenseManager.sol\":7486:7527  uint256 price = _licensePrices[licenseId] */\n      swap1\n      pop\n        /* \"contracts/LicenseManager.sol\":7537:7554  uint256 timestamp */\n      0x00\n        /* \"contracts/LicenseManager.sol\":7557:7574  _licenseLicensees */\n      0x0a\n        /* \"contracts/LicenseManager.sol\":7557:7585  _licenseLicensees[licenseId] */\n      0x00\n        /* \"contracts/LicenseManager.sol\":7575:7584  licenseId */\n      dup11\n        /* \"contracts/LicenseManager.sol\":7557:7585  _licenseLicensees[licenseId] */\n      dup2\n      mstore\n      0x20\n      add\n      swap1\n      dup2\n      mstore\n      0x20\n      add\n      0x00\n      keccak256\n        /* \"contracts/LicenseManager.sol\":7557:7595  _licenseLicensees[licenseId][licensee] */\n      0x00\n        /* \"contracts/LicenseManager.sol\":7586:7594  licensee */\n      dup10\n        /* \"contracts/LicenseManager.sol\":7557:7595  _licenseLicensees[licenseId][licensee] */\n      0xffffffffffffffffffffffffffffffffffffffff\n      and\n      0xffffffffffffffffffffffffffffffffffffffff\n      and\n      dup2\n      mstore\n      0x20\n      add\n      swap1\n      dup2\n      mstore\n      0x20\n      add\n      0x00\n      keccak256\n      sload\n        /* \"contracts/LicenseManager.sol\":7537:7595  uint256 timestamp = _licenseLicensees[licenseId][licensee] */\n      swap1\n      pop\n        /* \"contracts/LicenseManager.sol\":7606:7622  ILicense license */\n      0x00\n        /* \"contracts/LicenseManager.sol\":7634:7642  template */\n      dup4\n        /* \"contracts/LicenseManager.sol\":7606:7643  ILicense license = ILicense(template) */\n      swap1\n      pop\n        /* \"contracts/LicenseManager.sol\":7660:7667  license */\n      dup1\n        /* \"contracts/LicenseManager.sol\":7660:7675  license.compose */\n      0xffffffffffffffffffffffffffffffffffffffff\n      and\n      0x483ced98\n        /* \"contracts/LicenseManager.sol\":7676:7679  vid */\n      dup8\n        /* \"contracts/LicenseManager.sol\":7681:7689  licensor */\n      dup8\n        /* \"contracts/LicenseManager.sol\":7691:7699  licensee */\n      dup13\n        /* \"contracts/LicenseManager.sol\":7701:7706  price */\n      dup8\n        /* \"contracts/LicenseManager.sol\":7708:7717  timestamp */\n      dup8\n        /* \"contracts/LicenseManager.sol\":7660:7718  license.compose(vid, licensor, licensee, price, timestamp) */\n      mload(0x40)\n      dup7\n      0xffffffff\n      and\n      0xe0\n      shl\n      dup2\n      mstore\n      0x04\n      add\n      tag_227\n      swap6\n      swap5\n      swap4\n      swap3\n      swap2\n      swap1\n      tag_228\n      jump\t// in\n    tag_227:\n      0x00\n      mload(0x40)\n      dup1\n      dup4\n      sub\n      dup2\n      dup7\n      gas\n      staticcall\n      iszero\n      dup1\n      iszero\n      tag_230\n      jumpi\n      returndatasize\n      0x00\n      dup1\n      returndatacopy\n      revert(0x00, returndatasize)\n    tag_230:\n      pop\n      pop\n      pop\n      pop\n      mload(0x40)\n      returndatasize\n      0x00\n      dup3\n      returndatacopy\n      returndatasize\n      not(0x1f)\n      0x1f\n      dup3\n      add\n      and\n      dup3\n      add\n      dup1\n      0x40\n      mstore\n      pop\n      dup2\n      add\n      swap1\n      tag_231\n      swap2\n      swap1\n      tag_232\n      jump\t// in\n    tag_231:\n        /* \"contracts/LicenseManager.sol\":7653:7718  return license.compose(vid, licensor, licensee, price, timestamp) */\n      swap8\n      pop\n      pop\n      pop\n      pop\n      pop\n      pop\n      pop\n        /* \"contracts/LicenseManager.sol\":7046:7725  function composeLicense(LID licenseId, address licensee)... */\n      pop\n      swap3\n      swap2\n      pop\n      pop\n      jump\t// out\n        /* \"contracts/LicenseManager.sol\":4556:4797  function removeLicense(LID licenseId) public licenseActive(licenseId) {... */\n    tag_90:\n        /* \"contracts/LicenseManager.sol\":4615:4624  licenseId */\n      dup1\n        /* \"contracts/LicenseManager.sol\":2463:2480  _licenseActivated */\n      0x06\n        /* \"contracts/LicenseManager.sol\":2463:2491  _licenseActivated[licenseId] */\n      0x00\n        /* \"contracts/LicenseManager.sol\":2481:2490  licenseId */\n      dup3\n        /* \"contracts/LicenseManager.sol\":2463:2491  _licenseActivated[licenseId] */\n      dup2\n      mstore\n      0x20\n      add\n      swap1\n      dup2\n      mstore\n      0x20\n      add\n      0x00\n      keccak256\n      0x00\n      swap1\n      sload\n      swap1\n      0x0100\n      exp\n      swap1\n      div\n      0xff\n      and\n        /* \"contracts/LicenseManager.sol\":2455:2517  require(_licenseActivated[licenseId], \"license doesn't exist\") */\n      tag_234\n      jumpi\n      mload(0x40)\n      0x08c379a000000000000000000000000000000000000000000000000000000000\n      dup2\n      mstore\n      0x04\n      add\n      tag_235\n      swap1\n      tag_141\n      jump\t// in\n    tag_235:\n      mload(0x40)\n      dup1\n      swap2\n      sub\n      swap1\n      revert\n    tag_234:\n        /* \"contracts/LicenseManager.sol\":4692:4702  msg.sender */\n      caller\n        /* \"contracts/LicenseManager.sol\":4657:4702  this.getLicenseOwner(licenseId) == msg.sender */\n      0xffffffffffffffffffffffffffffffffffffffff\n      and\n        /* \"contracts/LicenseManager.sol\":4657:4661  this */\n      address\n        /* \"contracts/LicenseManager.sol\":4657:4677  this.getLicenseOwner */\n      0xffffffffffffffffffffffffffffffffffffffff\n      and\n      0x1e7fd268\n        /* \"contracts/LicenseManager.sol\":4678:4687  licenseId */\n      dup5\n        /* \"contracts/LicenseManager.sol\":4657:4688  this.getLicenseOwner(licenseId) */\n      mload(0x40)\n      dup3\n      0xffffffff\n      and\n      0xe0\n      shl\n      dup2\n      mstore\n      0x04\n      add\n      tag_237\n      swap2\n      swap1\n      tag_238\n      jump\t// in\n    tag_237:\n      0x20\n      mload(0x40)\n      dup1\n      dup4\n      sub\n      dup2\n      dup7\n      gas\n      staticcall\n      iszero\n      dup1\n      iszero\n      tag_240\n      jumpi\n      returndatasize\n      0x00\n      dup1\n      returndatacopy\n      revert(0x00, returndatasize)\n    tag_240:\n      pop\n      pop\n      pop\n      pop\n      mload(0x40)\n      returndatasize\n      not(0x1f)\n      0x1f\n      dup3\n      add\n      and\n      dup3\n      add\n      dup1\n      0x40\n      mstore\n      pop\n      dup2\n      add\n      swap1\n      tag_241\n      swap2\n      swap1\n      tag_242\n      jump\t// in\n    tag_241:\n        /* \"contracts/LicenseManager.sol\":4657:4702  this.getLicenseOwner(licenseId) == msg.sender */\n      0xffffffffffffffffffffffffffffffffffffffff\n      and\n      eq\n        /* \"contracts/LicenseManager.sol\":4636:4744  require(... */\n      tag_243\n      jumpi\n      mload(0x40)\n      0x08c379a000000000000000000000000000000000000000000000000000000000\n      dup2\n      mstore\n      0x04\n      add\n      tag_244\n      swap1\n      tag_208\n      jump\t// in\n    tag_244:\n      mload(0x40)\n      dup1\n      swap2\n      sub\n      swap1\n      revert\n    tag_243:\n        /* \"contracts/LicenseManager.sol\":4785:4790  false */\n      0x00\n        /* \"contracts/LicenseManager.sol\":4754:4771  _licenseActivated */\n      0x06\n        /* \"contracts/LicenseManager.sol\":4754:4782  _licenseActivated[licenseId] */\n      0x00\n        /* \"contracts/LicenseManager.sol\":4772:4781  licenseId */\n      dup5\n        /* \"contracts/LicenseManager.sol\":4754:4782  _licenseActivated[licenseId] */\n      dup2\n      mstore\n      0x20\n      add\n      swap1\n      dup2\n      mstore\n      0x20\n      add\n      0x00\n      keccak256\n      0x00\n        /* \"contracts/LicenseManager.sol\":4754:4790  _licenseActivated[licenseId] = false */\n      0x0100\n      exp\n      dup2\n      sload\n      dup2\n      0xff\n      mul\n      not\n      and\n      swap1\n      dup4\n      iszero\n      iszero\n      mul\n      or\n      swap1\n      sstore\n      pop\n        /* \"contracts/LicenseManager.sol\":4556:4797  function removeLicense(LID licenseId) public licenseActive(licenseId) {... */\n      pop\n      pop\n      jump\t// out\n        /* \"contracts/LicenseManager.sol\":5413:5599  function getLicenseTemplate(LID licenseId)... */\n    tag_94:\n        /* \"contracts/LicenseManager.sol\":5534:5541  address */\n      0x00\n        /* \"contracts/LicenseManager.sol\":5506:5515  licenseId */\n      dup2\n        /* \"contracts/LicenseManager.sol\":2463:2480  _licenseActivated */\n      0x06\n        /* \"contracts/LicenseManager.sol\":2463:2491  _licenseActivated[licenseId] */\n      0x00\n        /* \"contracts/LicenseManager.sol\":2481:2490  licenseId */\n      dup3\n        /* \"contracts/LicenseManager.sol\":2463:2491  _licenseActivated[licenseId] */\n      dup2\n      mstore\n      0x20\n      add\n      swap1\n      dup2\n      mstore\n      0x20\n      add\n      0x00\n      keccak256\n      0x00\n      swap1\n      sload\n      swap1\n      0x0100\n      exp\n      swap1\n      div\n      0xff\n      and\n        /* \"contracts/LicenseManager.sol\":2455:2517  require(_licenseActivated[licenseId], \"license doesn't exist\") */\n      tag_246\n      jumpi\n      mload(0x40)\n      0x08c379a000000000000000000000000000000000000000000000000000000000\n      dup2\n      mstore\n      0x04\n      add\n      tag_247\n      swap1\n      tag_141\n      jump\t// in\n    tag_247:\n      mload(0x40)\n      dup1\n      swap2\n      sub\n      swap1\n      revert\n    tag_246:\n        /* \"contracts/LicenseManager.sol\":5564:5581  _licenseTemplates */\n      0x09\n        /* \"contracts/LicenseManager.sol\":5564:5592  _licenseTemplates[licenseId] */\n      0x00\n        /* \"contracts/LicenseManager.sol\":5582:5591  licenseId */\n      dup5\n        /* \"contracts/LicenseManager.sol\":5564:5592  _licenseTemplates[licenseId] */\n      dup2\n      mstore\n      0x20\n      add\n      swap1\n      dup2\n      mstore\n      0x20\n      add\n      0x00\n      keccak256\n      0x00\n      swap1\n      sload\n      swap1\n      0x0100\n      exp\n      swap1\n      div\n      0xffffffffffffffffffffffffffffffffffffffff\n      and\n        /* \"contracts/LicenseManager.sol\":5557:5592  return _licenseTemplates[licenseId] */\n      swap2\n      pop\n        /* \"contracts/LicenseManager.sol\":5413:5599  function getLicenseTemplate(LID licenseId)... */\n      pop\n      swap2\n      swap1\n      pop\n      jump\t// out\n        /* \"contracts/LicenseManager.sol\":5227:5407  function getLicensePrice(LID licenseId)... */\n    tag_99:\n        /* \"contracts/LicenseManager.sol\":5345:5352  uint256 */\n      0x00\n        /* \"contracts/LicenseManager.sol\":5317:5326  licenseId */\n      dup2\n        /* \"contracts/LicenseManager.sol\":2463:2480  _licenseActivated */\n      0x06\n        /* \"contracts/LicenseManager.sol\":2463:2491  _licenseActivated[licenseId] */\n      0x00\n        /* \"contracts/LicenseManager.sol\":2481:2490  licenseId */\n      dup3\n        /* \"contracts/LicenseManager.sol\":2463:2491  _licenseActivated[licenseId] */\n      dup2\n      mstore\n      0x20\n      add\n      swap1\n      dup2\n      mstore\n      0x20\n      add\n      0x00\n      keccak256\n      0x00\n      swap1\n      sload\n      swap1\n      0x0100\n      exp\n      swap1\n      div\n      0xff\n      and\n        /* \"contracts/LicenseManager.sol\":2455:2517  require(_licenseActivated[licenseId], \"license doesn't exist\") */\n      tag_250\n      jumpi\n      mload(0x40)\n      0x08c379a000000000000000000000000000000000000000000000000000000000\n      dup2\n      mstore\n      0x04\n      add\n      tag_251\n      swap1\n      tag_141\n      jump\t// in\n    tag_251:\n      mload(0x40)\n      dup1\n      swap2\n      sub\n      swap1\n      revert\n    tag_250:\n        /* \"contracts/LicenseManager.sol\":5375:5389  _licensePrices */\n      0x08\n        /* \"contracts/LicenseManager.sol\":5375:5400  _licensePrices[licenseId] */\n      0x00\n        /* \"contracts/LicenseManager.sol\":5390:5399  licenseId */\n      dup5\n        /* \"contracts/LicenseManager.sol\":5375:5400  _licensePrices[licenseId] */\n      dup2\n      mstore\n      0x20\n      add\n      swap1\n      dup2\n      mstore\n      0x20\n      add\n      0x00\n      keccak256\n      sload\n        /* \"contracts/LicenseManager.sol\":5368:5400  return _licensePrices[licenseId] */\n      swap2\n      pop\n        /* \"contracts/LicenseManager.sol\":5227:5407  function getLicensePrice(LID licenseId)... */\n      pop\n      swap2\n      swap1\n      pop\n      jump\t// out\n        /* \"contracts/LicenseManager.sol\":7731:7937  function verifyLicensor(... */\n    tag_106:\n        /* \"contracts/LicenseManager.sol\":7867:7871  bool */\n      0x00\n        /* \"contracts/LicenseManager.sol\":7924:7930  signer */\n      dup5\n        /* \"contracts/LicenseManager.sol\":7891:7930  recoverSigner(vid, signature) == signer */\n      0xffffffffffffffffffffffffffffffffffffffff\n      and\n        /* \"contracts/LicenseManager.sol\":7891:7920  recoverSigner(vid, signature) */\n      tag_254\n        /* \"contracts/LicenseManager.sol\":7905:7908  vid */\n      dup6\n        /* \"contracts/LicenseManager.sol\":7910:7919  signature */\n      dup6\n      dup6\n        /* \"contracts/LicenseManager.sol\":7891:7904  recoverSigner */\n      tag_29\n        /* \"contracts/LicenseManager.sol\":7891:7920  recoverSigner(vid, signature) */\n      jump\t// in\n    tag_254:\n        /* \"contracts/LicenseManager.sol\":7891:7930  recoverSigner(vid, signature) == signer */\n      0xffffffffffffffffffffffffffffffffffffffff\n      and\n      eq\n        /* \"contracts/LicenseManager.sol\":7884:7930  return recoverSigner(vid, signature) == signer */\n      swap1\n      pop\n        /* \"contracts/LicenseManager.sol\":7731:7937  function verifyLicensor(... */\n      swap5\n      swap4\n      pop\n      pop\n      pop\n      pop\n      jump\t// out\n        /* \"contracts/LicenseManager.sol\":1509:1613  function removeTemplate(address template) public onlyOwner {... */\n    tag_112:\n        /* \"contracts/LicenseManager.sol\":1040:1050  msg.sender */\n      caller\n        /* \"contracts/LicenseManager.sol\":1030:1050  _owner == msg.sender */\n      0xffffffffffffffffffffffffffffffffffffffff\n      and\n        /* \"contracts/LicenseManager.sol\":1030:1036  _owner */\n      0x00\n      dup1\n      sload\n      swap1\n      0x0100\n      exp\n      swap1\n      div\n      0xffffffffffffffffffffffffffffffffffffffff\n      and\n        /* \"contracts/LicenseManager.sol\":1030:1050  _owner == msg.sender */\n      0xffffffffffffffffffffffffffffffffffffffff\n      and\n      eq\n        /* \"contracts/LicenseManager.sol\":1022:1072  require(_owner == msg.sender, \"owner access only\") */\n      tag_256\n      jumpi\n      mload(0x40)\n      0x08c379a000000000000000000000000000000000000000000000000000000000\n      dup2\n      mstore\n      0x04\n      add\n      tag_257\n      swap1\n      tag_148\n      jump\t// in\n    tag_257:\n      mload(0x40)\n      dup1\n      swap2\n      sub\n      swap1\n      revert\n    tag_256:\n        /* \"contracts/LicenseManager.sol\":1601:1606  false */\n      0x00\n        /* \"contracts/LicenseManager.sol\":1578:1588  _templates */\n      0x01\n        /* \"contracts/LicenseManager.sol\":1578:1598  _templates[template] */\n      0x00\n        /* \"contracts/LicenseManager.sol\":1589:1597  template */\n      dup4\n        /* \"contracts/LicenseManager.sol\":1578:1598  _templates[template] */\n      0xffffffffffffffffffffffffffffffffffffffff\n      and\n      0xffffffffffffffffffffffffffffffffffffffff\n      and\n      dup2\n      mstore\n      0x20\n      add\n      swap1\n      dup2\n      mstore\n      0x20\n      add\n      0x00\n      keccak256\n      0x00\n        /* \"contracts/LicenseManager.sol\":1578:1606  _templates[template] = false */\n      0x0100\n      exp\n      dup2\n      sload\n      dup2\n      0xff\n      mul\n      not\n      and\n      swap1\n      dup4\n      iszero\n      iszero\n      mul\n      or\n      swap1\n      sstore\n      pop\n        /* \"contracts/LicenseManager.sol\":1509:1613  function removeTemplate(address template) public onlyOwner {... */\n      pop\n      jump\t// out\n        /* \"contracts/LicenseManager.sol\":5862:6527  function buyLicense(... */\n    tag_116:\n        /* \"contracts/LicenseManager.sol\":5974:5983  licenseId */\n      dup3\n        /* \"contracts/LicenseManager.sol\":2463:2480  _licenseActivated */\n      0x06\n        /* \"contracts/LicenseManager.sol\":2463:2491  _licenseActivated[licenseId] */\n      0x00\n        /* \"contracts/LicenseManager.sol\":2481:2490  licenseId */\n      dup3\n        /* \"contracts/LicenseManager.sol\":2463:2491  _licenseActivated[licenseId] */\n      dup2\n      mstore\n      0x20\n      add\n      swap1\n      dup2\n      mstore\n      0x20\n      add\n      0x00\n      keccak256\n      0x00\n      swap1\n      sload\n      swap1\n      0x0100\n      exp\n      swap1\n      div\n      0xff\n      and\n        /* \"contracts/LicenseManager.sol\":2455:2517  require(_licenseActivated[licenseId], \"license doesn't exist\") */\n      tag_260\n      jumpi\n      mload(0x40)\n      0x08c379a000000000000000000000000000000000000000000000000000000000\n      dup2\n      mstore\n      0x04\n      add\n      tag_261\n      swap1\n      tag_141\n      jump\t// in\n    tag_261:\n      mload(0x40)\n      dup1\n      swap2\n      sub\n      swap1\n      revert\n    tag_260:\n        /* \"contracts/LicenseManager.sol\":6029:6033  this */\n      address\n        /* \"contracts/LicenseManager.sol\":6029:6049  this.getLicensePrice */\n      0xffffffffffffffffffffffffffffffffffffffff\n      and\n      0xb6c00a82\n        /* \"contracts/LicenseManager.sol\":6050:6059  licenseId */\n      dup6\n        /* \"contracts/LicenseManager.sol\":6029:6060  this.getLicensePrice(licenseId) */\n      mload(0x40)\n      dup3\n      0xffffffff\n      and\n      0xe0\n      shl\n      dup2\n      mstore\n      0x04\n      add\n      tag_263\n      swap2\n      swap1\n      tag_238\n      jump\t// in\n    tag_263:\n      0x20\n      mload(0x40)\n      dup1\n      dup4\n      sub\n      dup2\n      dup7\n      gas\n      staticcall\n      iszero\n      dup1\n      iszero\n      tag_265\n      jumpi\n      returndatasize\n      0x00\n      dup1\n      returndatacopy\n      revert(0x00, returndatasize)\n    tag_265:\n      pop\n      pop\n      pop\n      pop\n      mload(0x40)\n      returndatasize\n      not(0x1f)\n      0x1f\n      dup3\n      add\n      and\n      dup3\n      add\n      dup1\n      0x40\n      mstore\n      pop\n      dup2\n      add\n      swap1\n      tag_266\n      swap2\n      swap1\n      tag_267\n      jump\t// in\n    tag_266:\n        /* \"contracts/LicenseManager.sol\":6016:6025  msg.value */\n      callvalue\n        /* \"contracts/LicenseManager.sol\":6016:6060  msg.value >= this.getLicensePrice(licenseId) */\n      lt\n      iszero\n        /* \"contracts/LicenseManager.sol\":5995:6102  require(... */\n      tag_268\n      jumpi\n      mload(0x40)\n      0x08c379a000000000000000000000000000000000000000000000000000000000\n      dup2\n      mstore\n      0x04\n      add\n      tag_269\n      swap1\n      tag_270\n      jump\t// in\n    tag_269:\n      mload(0x40)\n      dup1\n      swap2\n      sub\n      swap1\n      revert\n    tag_268:\n        /* \"contracts/LicenseManager.sol\":6133:6181  verifyLicensee(msg.sender, licenseId, signature) */\n      tag_271\n        /* \"contracts/LicenseManager.sol\":6148:6158  msg.sender */\n      caller\n        /* \"contracts/LicenseManager.sol\":6160:6169  licenseId */\n      dup6\n        /* \"contracts/LicenseManager.sol\":6171:6180  signature */\n      dup6\n      dup6\n        /* \"contracts/LicenseManager.sol\":6133:6147  verifyLicensee */\n      tag_121\n        /* \"contracts/LicenseManager.sol\":6133:6181  verifyLicensee(msg.sender, licenseId, signature) */\n      jump\t// in\n    tag_271:\n        /* \"contracts/LicenseManager.sol\":6112:6233  require(... */\n      tag_272\n      jumpi\n      mload(0x40)\n      0x08c379a000000000000000000000000000000000000000000000000000000000\n      dup2\n      mstore\n      0x04\n      add\n      tag_273\n      swap1\n      tag_274\n      jump\t// in\n    tag_273:\n      mload(0x40)\n      dup1\n      swap2\n      sub\n      swap1\n      revert\n    tag_272:\n        /* \"contracts/LicenseManager.sol\":6244:6257  uint256 price */\n      0x00\n        /* \"contracts/LicenseManager.sol\":6260:6264  this */\n      address\n        /* \"contracts/LicenseManager.sol\":6260:6280  this.getLicensePrice */\n      0xffffffffffffffffffffffffffffffffffffffff\n      and\n      0xb6c00a82\n        /* \"contracts/LicenseManager.sol\":6281:6290  licenseId */\n      dup7\n        /* \"contracts/LicenseManager.sol\":6260:6291  this.getLicensePrice(licenseId) */\n      mload(0x40)\n      dup3\n      0xffffffff\n      and\n      0xe0\n      shl\n      dup2\n      mstore\n      0x04\n      add\n      tag_275\n      swap2\n      swap1\n      tag_238\n      jump\t// in\n    tag_275:\n      0x20\n      mload(0x40)\n      dup1\n      dup4\n      sub\n      dup2\n      dup7\n      gas\n      staticcall\n      iszero\n      dup1\n      iszero\n      tag_277\n      jumpi\n      returndatasize\n      0x00\n      dup1\n      returndatacopy\n      revert(0x00, returndatasize)\n    tag_277:\n      pop\n      pop\n      pop\n      pop\n      mload(0x40)\n      returndatasize\n      not(0x1f)\n      0x1f\n      dup3\n      add\n      and\n      dup3\n      add\n      dup1\n      0x40\n      mstore\n      pop\n      dup2\n      add\n      swap1\n      tag_278\n      swap2\n      swap1\n      tag_267\n      jump\t// in\n    tag_278:\n        /* \"contracts/LicenseManager.sol\":6244:6291  uint256 price = this.getLicensePrice(licenseId) */\n      swap1\n      pop\n        /* \"contracts/LicenseManager.sol\":6301:6319  address payable to */\n      0x00\n        /* \"contracts/LicenseManager.sol\":6322:6326  this */\n      address\n        /* \"contracts/LicenseManager.sol\":6322:6342  this.getLicenseOwner */\n      0xffffffffffffffffffffffffffffffffffffffff\n      and\n      0x1e7fd268\n        /* \"contracts/LicenseManager.sol\":6343:6352  licenseId */\n      dup8\n        /* \"contracts/LicenseManager.sol\":6322:6353  this.getLicenseOwner(licenseId) */\n      mload(0x40)\n      dup3\n      0xffffffff\n      and\n      0xe0\n      shl\n      dup2\n      mstore\n      0x04\n      add\n      tag_279\n      swap2\n      swap1\n      tag_238\n      jump\t// in\n    tag_279:\n      0x20\n      mload(0x40)\n      dup1\n      dup4\n      sub\n      dup2\n      dup7\n      gas\n      staticcall\n      iszero\n      dup1\n      iszero\n      tag_281\n      jumpi\n      returndatasize\n      0x00\n      dup1\n      returndatacopy\n      revert(0x00, returndatasize)\n    tag_281:\n      pop\n      pop\n      pop\n      pop\n      mload(0x40)\n      returndatasize\n      not(0x1f)\n      0x1f\n      dup3\n      add\n      and\n      dup3\n      add\n      dup1\n      0x40\n      mstore\n      pop\n      dup2\n      add\n      swap1\n      tag_282\n      swap2\n      swap1\n      tag_242\n      jump\t// in\n    tag_282:\n        /* \"contracts/LicenseManager.sol\":6301:6353  address payable to = this.getLicenseOwner(licenseId) */\n      swap1\n      pop\n        /* \"contracts/LicenseManager.sol\":6364:6373  bool sent */\n      0x00\n        /* \"contracts/LicenseManager.sol\":6379:6381  to */\n      dup2\n        /* \"contracts/LicenseManager.sol\":6379:6386  to.call */\n      0xffffffffffffffffffffffffffffffffffffffff\n      and\n        /* \"contracts/LicenseManager.sol\":6394:6399  price */\n      dup4\n        /* \"contracts/LicenseManager.sol\":6379:6404  to.call{value: price}(\"\") */\n      mload(0x40)\n      tag_283\n      swap1\n      tag_284\n      jump\t// in\n    tag_283:\n      0x00\n      mload(0x40)\n      dup1\n      dup4\n      sub\n      dup2\n      dup6\n      dup8\n      gas\n      call\n      swap3\n      pop\n      pop\n      pop\n      returndatasize\n      dup1\n      0x00\n      dup2\n      eq\n      tag_287\n      jumpi\n      mload(0x40)\n      swap2\n      pop\n      and(add(returndatasize, 0x3f), not(0x1f))\n      dup3\n      add\n      0x40\n      mstore\n      returndatasize\n      dup3\n      mstore\n      returndatasize\n      0x00\n      0x20\n      dup5\n      add\n      returndatacopy\n      jump(tag_286)\n    tag_287:\n      0x60\n      swap2\n      pop\n    tag_286:\n      pop\n        /* \"contracts/LicenseManager.sol\":6363:6404  (bool sent, ) = to.call{value: price}(\"\") */\n      pop\n      swap1\n      pop\n        /* \"contracts/LicenseManager.sol\":6422:6426  sent */\n      dup1\n        /* \"contracts/LicenseManager.sol\":6414:6451  require(sent, \"failed to send ether\") */\n      tag_288\n      jumpi\n      mload(0x40)\n      0x08c379a000000000000000000000000000000000000000000000000000000000\n      dup2\n      mstore\n      0x04\n      add\n      tag_289\n      swap1\n      tag_290\n      jump\t// in\n    tag_289:\n      mload(0x40)\n      dup1\n      swap2\n      sub\n      swap1\n      revert\n    tag_288:\n        /* \"contracts/LicenseManager.sol\":6505:6520  block.timestamp */\n      timestamp\n        /* \"contracts/LicenseManager.sol\":6462:6479  _licenseLicensees */\n      0x0a\n        /* \"contracts/LicenseManager.sol\":6462:6490  _licenseLicensees[licenseId] */\n      0x00\n        /* \"contracts/LicenseManager.sol\":6480:6489  licenseId */\n      dup10\n        /* \"contracts/LicenseManager.sol\":6462:6490  _licenseLicensees[licenseId] */\n      dup2\n      mstore\n      0x20\n      add\n      swap1\n      dup2\n      mstore\n      0x20\n      add\n      0x00\n      keccak256\n        /* \"contracts/LicenseManager.sol\":6462:6502  _licenseLicensees[licenseId][msg.sender] */\n      0x00\n        /* \"contracts/LicenseManager.sol\":6491:6501  msg.sender */\n      caller\n        /* \"contracts/LicenseManager.sol\":6462:6502  _licenseLicensees[licenseId][msg.sender] */\n      0xffffffffffffffffffffffffffffffffffffffff\n      and\n      0xffffffffffffffffffffffffffffffffffffffff\n      and\n      dup2\n      mstore\n      0x20\n      add\n      swap1\n      dup2\n      mstore\n      0x20\n      add\n      0x00\n      keccak256\n        /* \"contracts/LicenseManager.sol\":6462:6520  _licenseLicensees[licenseId][msg.sender] = block.timestamp */\n      dup2\n      swap1\n      sstore\n      pop\n        /* \"contracts/LicenseManager.sol\":5985:6527  {... */\n      pop\n      pop\n      pop\n        /* \"contracts/LicenseManager.sol\":5862:6527  function buyLicense(... */\n      pop\n      pop\n      pop\n      pop\n      jump\t// out\n        /* \"contracts/LicenseManager.sol\":7943:8180  function verifyLicensee(... */\n    tag_121:\n        /* \"contracts/LicenseManager.sol\":8075:8079  bool */\n      0x00\n        /* \"contracts/LicenseManager.sol\":8167:8173  signer */\n      dup5\n        /* \"contracts/LicenseManager.sol\":8098:8173  recoverSigner(Strings.toString(LID.unwrap(licenseId)), signature) == signer */\n      0xffffffffffffffffffffffffffffffffffffffff\n      and\n        /* \"contracts/LicenseManager.sol\":8098:8163  recoverSigner(Strings.toString(LID.unwrap(licenseId)), signature) */\n      tag_292\n        /* \"contracts/LicenseManager.sol\":8112:8151  Strings.toString(LID.unwrap(licenseId)) */\n      tag_293\n        /* \"contracts/LicenseManager.sol\":8140:8149  licenseId */\n      dup7\n        /* \"contracts/LicenseManager.sol\":8112:8128  Strings.toString */\n      tag_294\n        /* \"contracts/LicenseManager.sol\":8112:8151  Strings.toString(LID.unwrap(licenseId)) */\n      jump\t// in\n    tag_293:\n        /* \"contracts/LicenseManager.sol\":8153:8162  signature */\n      dup6\n      dup6\n        /* \"contracts/LicenseManager.sol\":8098:8111  recoverSigner */\n      tag_29\n        /* \"contracts/LicenseManager.sol\":8098:8163  recoverSigner(Strings.toString(LID.unwrap(licenseId)), signature) */\n      jump\t// in\n    tag_292:\n        /* \"contracts/LicenseManager.sol\":8098:8173  recoverSigner(Strings.toString(LID.unwrap(licenseId)), signature) == signer */\n      0xffffffffffffffffffffffffffffffffffffffff\n      and\n      eq\n        /* \"contracts/LicenseManager.sol\":8091:8173  return recoverSigner(Strings.toString(LID.unwrap(licenseId)), signature) == signer */\n      swap1\n      pop\n        /* \"contracts/LicenseManager.sol\":7943:8180  function verifyLicensee(... */\n      swap5\n      swap4\n      pop\n      pop\n      pop\n      pop\n      jump\t// out\n        /* \"contracts/LicenseManager.sol\":4126:4550  function addVideoWithLicense(... */\n    tag_127:\n        /* \"contracts/LicenseManager.sol\":1040:1050  msg.sender */\n      caller\n        /* \"contracts/LicenseManager.sol\":1030:1050  _owner == msg.sender */\n      0xffffffffffffffffffffffffffffffffffffffff\n      and\n        /* \"contracts/LicenseManager.sol\":1030:1036  _owner */\n      0x00\n      dup1\n      sload\n      swap1\n      0x0100\n      exp\n      swap1\n      div\n      0xffffffffffffffffffffffffffffffffffffffff\n      and\n        /* \"contracts/LicenseManager.sol\":1030:1050  _owner == msg.sender */\n      0xffffffffffffffffffffffffffffffffffffffff\n      and\n      eq\n        /* \"contracts/LicenseManager.sol\":1022:1072  require(_owner == msg.sender, \"owner access only\") */\n      tag_296\n      jumpi\n      mload(0x40)\n      0x08c379a000000000000000000000000000000000000000000000000000000000\n      dup2\n      mstore\n      0x04\n      add\n      tag_297\n      swap1\n      tag_148\n      jump\t// in\n    tag_297:\n      mload(0x40)\n      dup1\n      swap2\n      sub\n      swap1\n      revert\n    tag_296:\n        /* \"contracts/LicenseManager.sol\":4360:4368  template */\n      dup3\n        /* \"contracts/LicenseManager.sol\":1332:1342  _templates */\n      0x01\n        /* \"contracts/LicenseManager.sol\":1332:1352  _templates[template] */\n      0x00\n        /* \"contracts/LicenseManager.sol\":1343:1351  template */\n      dup3\n        /* \"contracts/LicenseManager.sol\":1332:1352  _templates[template] */\n      0xffffffffffffffffffffffffffffffffffffffff\n      and\n      0xffffffffffffffffffffffffffffffffffffffff\n      and\n      dup2\n      mstore\n      0x20\n      add\n      swap1\n      dup2\n      mstore\n      0x20\n      add\n      0x00\n      keccak256\n      0x00\n      swap1\n      sload\n      swap1\n      0x0100\n      exp\n      swap1\n      div\n      0xff\n      and\n        /* \"contracts/LicenseManager.sol\":1324:1378  require(_templates[template], \"license doesn't exist\") */\n      tag_299\n      jumpi\n      mload(0x40)\n      0x08c379a000000000000000000000000000000000000000000000000000000000\n      dup2\n      mstore\n      0x04\n      add\n      tag_300\n      swap1\n      tag_141\n      jump\t// in\n    tag_300:\n      mload(0x40)\n      dup1\n      swap2\n      sub\n      swap1\n      revert\n    tag_299:\n        /* \"contracts/LicenseManager.sol\":4389:4404  _licenseCreated */\n      0x05\n        /* \"contracts/LicenseManager.sol\":4389:4415  _licenseCreated[licenseId] */\n      0x00\n        /* \"contracts/LicenseManager.sol\":4405:4414  licenseId */\n      dup4\n        /* \"contracts/LicenseManager.sol\":4389:4415  _licenseCreated[licenseId] */\n      dup2\n      mstore\n      0x20\n      add\n      swap1\n      dup2\n      mstore\n      0x20\n      add\n      0x00\n      keccak256\n      0x00\n      swap1\n      sload\n      swap1\n      0x0100\n      exp\n      swap1\n      div\n      0xff\n      and\n        /* \"contracts/LicenseManager.sol\":4388:4415  !_licenseCreated[licenseId] */\n      iszero\n        /* \"contracts/LicenseManager.sol\":4380:4442  require(!_licenseCreated[licenseId], \"unavailable license id\") */\n      tag_302\n      jumpi\n      mload(0x40)\n      0x08c379a000000000000000000000000000000000000000000000000000000000\n      dup2\n      mstore\n      0x04\n      add\n      tag_303\n      swap1\n      tag_211\n      jump\t// in\n    tag_303:\n      mload(0x40)\n      dup1\n      swap2\n      sub\n      swap1\n      revert\n    tag_302:\n        /* \"contracts/LicenseManager.sol\":4453:4487  addVideo(vid, licensor, signature) */\n      tag_304\n        /* \"contracts/LicenseManager.sol\":4462:4465  vid */\n      dup9\n        /* \"contracts/LicenseManager.sol\":4467:4475  licensor */\n      dup9\n        /* \"contracts/LicenseManager.sol\":4477:4486  signature */\n      dup9\n      dup9\n        /* \"contracts/LicenseManager.sol\":4453:4461  addVideo */\n      tag_48\n        /* \"contracts/LicenseManager.sol\":4453:4487  addVideo(vid, licensor, signature) */\n      jump\t// in\n    tag_304:\n        /* \"contracts/LicenseManager.sol\":4497:4543  createLicense(vid, template, price, licenseId) */\n      tag_305\n        /* \"contracts/LicenseManager.sol\":4511:4514  vid */\n      dup9\n        /* \"contracts/LicenseManager.sol\":4516:4524  template */\n      dup6\n        /* \"contracts/LicenseManager.sol\":4526:4531  price */\n      dup6\n        /* \"contracts/LicenseManager.sol\":4533:4542  licenseId */\n      dup6\n        /* \"contracts/LicenseManager.sol\":4497:4510  createLicense */\n      tag_213\n        /* \"contracts/LicenseManager.sol\":4497:4543  createLicense(vid, template, price, licenseId) */\n      jump\t// in\n    tag_305:\n        /* \"contracts/LicenseManager.sol\":1083:1084  _ */\n      pop\n        /* \"contracts/LicenseManager.sol\":4126:4550  function addVideoWithLicense(... */\n      pop\n      pop\n      pop\n      pop\n      pop\n      pop\n      pop\n      jump\t// out\n        /* \"contracts/LicenseManager.sol\":1097:1187  function transferOwnership(address owner) public onlyOwner {... */\n    tag_131:\n        /* \"contracts/LicenseManager.sol\":1040:1050  msg.sender */\n      caller\n        /* \"contracts/LicenseManager.sol\":1030:1050  _owner == msg.sender */\n      0xffffffffffffffffffffffffffffffffffffffff\n      and\n        /* \"contracts/LicenseManager.sol\":1030:1036  _owner */\n      0x00\n      dup1\n      sload\n      swap1\n      0x0100\n      exp\n      swap1\n      div\n      0xffffffffffffffffffffffffffffffffffffffff\n      and\n        /* \"contracts/LicenseManager.sol\":1030:1050  _owner == msg.sender */\n      0xffffffffffffffffffffffffffffffffffffffff\n      and\n      eq\n        /* \"contracts/LicenseManager.sol\":1022:1072  require(_owner == msg.sender, \"owner access only\") */\n      tag_307\n      jumpi\n      mload(0x40)\n      0x08c379a000000000000000000000000000000000000000000000000000000000\n      dup2\n      mstore\n      0x04\n      add\n      tag_308\n      swap1\n      tag_148\n      jump\t// in\n    tag_308:\n      mload(0x40)\n      dup1\n      swap2\n      sub\n      swap1\n      revert\n    tag_307:\n        /* \"contracts/LicenseManager.sol\":1175:1180  owner */\n      dup1\n        /* \"contracts/LicenseManager.sol\":1166:1172  _owner */\n      0x00\n      dup1\n        /* \"contracts/LicenseManager.sol\":1166:1180  _owner = owner */\n      0x0100\n      exp\n      dup2\n      sload\n      dup2\n      0xffffffffffffffffffffffffffffffffffffffff\n      mul\n      not\n      and\n      swap1\n      dup4\n      0xffffffffffffffffffffffffffffffffffffffff\n      and\n      mul\n      or\n      swap1\n      sstore\n      pop\n        /* \"contracts/LicenseManager.sol\":1097:1187  function transferOwnership(address owner) public onlyOwner {... */\n      pop\n      jump\t// out\n        /* \"contracts/LicenseManager.sol\":8209:8775  function _ecrecover(... */\n    tag_137:\n        /* \"contracts/LicenseManager.sol\":8344:8351  address */\n      0x00\n        /* \"contracts/LicenseManager.sol\":8411:8439  bytes memory prefixedMessage */\n      dup1\n        /* \"contracts/LicenseManager.sol\":8518:8545  itoa(bytes(message).length) */\n      tag_311\n        /* \"contracts/LicenseManager.sol\":8529:8536  message */\n      dup7\n        /* \"contracts/LicenseManager.sol\":8523:8544  bytes(message).length */\n      mload\n        /* \"contracts/LicenseManager.sol\":8518:8522  itoa */\n      tag_312\n        /* \"contracts/LicenseManager.sol\":8518:8545  itoa(bytes(message).length) */\n      jump\t// in\n    tag_311:\n        /* \"contracts/LicenseManager.sol\":8559:8566  message */\n      dup7\n        /* \"contracts/LicenseManager.sol\":8442:8576  abi.encodePacked(... */\n      add(0x20, mload(0x40))\n      tag_313\n      swap3\n      swap2\n      swap1\n      tag_314\n      jump\t// in\n    tag_313:\n      mload(0x40)\n      0x20\n      dup2\n      dup4\n      sub\n      sub\n      dup2\n      mstore\n      swap1\n      0x40\n      mstore\n        /* \"contracts/LicenseManager.sol\":8411:8576  bytes memory prefixedMessage = abi.encodePacked(... */\n      swap1\n      pop\n        /* \"contracts/LicenseManager.sol\":8625:8639  bytes32 digest */\n      0x00\n        /* \"contracts/LicenseManager.sol\":8652:8667  prefixedMessage */\n      dup2\n        /* \"contracts/LicenseManager.sol\":8642:8668  keccak256(prefixedMessage) */\n      dup1\n      mload\n      swap1\n      0x20\n      add\n      keccak256\n        /* \"contracts/LicenseManager.sol\":8625:8668  bytes32 digest = keccak256(prefixedMessage) */\n      swap1\n      pop\n        /* \"contracts/LicenseManager.sol\":8742:8768  ecrecover(digest, v, r, s) */\n      0x01\n        /* \"contracts/LicenseManager.sol\":8752:8758  digest */\n      dup2\n        /* \"contracts/LicenseManager.sol\":8760:8761  v */\n      dup8\n        /* \"contracts/LicenseManager.sol\":8763:8764  r */\n      dup8\n        /* \"contracts/LicenseManager.sol\":8766:8767  s */\n      dup8\n        /* \"contracts/LicenseManager.sol\":8742:8768  ecrecover(digest, v, r, s) */\n      mload(0x40)\n      0x00\n      dup2\n      mstore\n      0x20\n      add\n      0x40\n      mstore\n      mload(0x40)\n      tag_315\n      swap5\n      swap4\n      swap3\n      swap2\n      swap1\n      tag_316\n      jump\t// in\n    tag_315:\n      0x20\n      mload(0x40)\n      0x20\n      dup2\n      sub\n      swap1\n      dup1\n      dup5\n      sub\n      swap1\n      dup6\n      gas\n      staticcall\n      iszero\n      dup1\n      iszero\n      tag_318\n      jumpi\n      returndatasize\n      0x00\n      dup1\n      returndatacopy\n      revert(0x00, returndatasize)\n    tag_318:\n      pop\n      pop\n      pop\n      mload(sub(mload(0x40), 0x20))\n        /* \"contracts/LicenseManager.sol\":8735:8768  return ecrecover(digest, v, r, s) */\n      swap3\n      pop\n      pop\n      pop\n        /* \"contracts/LicenseManager.sol\":8209:8775  function _ecrecover(... */\n      swap5\n      swap4\n      pop\n      pop\n      pop\n      pop\n      jump\t// out\n        /* \"contracts/LicenseManager.sol\":3150:3735  function createLicense(... */\n    tag_213:\n        /* \"contracts/LicenseManager.sol\":3325:3329  true */\n      0x01\n        /* \"contracts/LicenseManager.sol\":3296:3311  _licenseCreated */\n      0x05\n        /* \"contracts/LicenseManager.sol\":3296:3322  _licenseCreated[licenseId] */\n      0x00\n        /* \"contracts/LicenseManager.sol\":3312:3321  licenseId */\n      dup4\n        /* \"contracts/LicenseManager.sol\":3296:3322  _licenseCreated[licenseId] */\n      dup2\n      mstore\n      0x20\n      add\n      swap1\n      dup2\n      mstore\n      0x20\n      add\n      0x00\n      keccak256\n      0x00\n        /* \"contracts/LicenseManager.sol\":3296:3329  _licenseCreated[licenseId] = true */\n      0x0100\n      exp\n      dup2\n      sload\n      dup2\n      0xff\n      mul\n      not\n      and\n      swap1\n      dup4\n      iszero\n      iszero\n      mul\n      or\n      swap1\n      sstore\n      pop\n        /* \"contracts/LicenseManager.sol\":3370:3374  true */\n      0x01\n        /* \"contracts/LicenseManager.sol\":3339:3356  _licenseActivated */\n      0x06\n        /* \"contracts/LicenseManager.sol\":3339:3367  _licenseActivated[licenseId] */\n      0x00\n        /* \"contracts/LicenseManager.sol\":3357:3366  licenseId */\n      dup4\n        /* \"contracts/LicenseManager.sol\":3339:3367  _licenseActivated[licenseId] */\n      dup2\n      mstore\n      0x20\n      add\n      swap1\n      dup2\n      mstore\n      0x20\n      add\n      0x00\n      keccak256\n      0x00\n        /* \"contracts/LicenseManager.sol\":3339:3374  _licenseActivated[licenseId] = true */\n      0x0100\n      exp\n      dup2\n      sload\n      dup2\n      0xff\n      mul\n      not\n      and\n      swap1\n      dup4\n      iszero\n      iszero\n      mul\n      or\n      swap1\n      sstore\n      pop\n        /* \"contracts/LicenseManager.sol\":3428:3441  uint256 count */\n      0x00\n        /* \"contracts/LicenseManager.sol\":3444:3463  _videoLicenseCounts */\n      0x03\n        /* \"contracts/LicenseManager.sol\":3464:3467  vid */\n      dup6\n        /* \"contracts/LicenseManager.sol\":3444:3468  _videoLicenseCounts[vid] */\n      mload(0x40)\n      tag_320\n      swap2\n      swap1\n      tag_158\n      jump\t// in\n    tag_320:\n      swap1\n      dup2\n      mstore\n      0x20\n      add\n      mload(0x40)\n      dup1\n      swap2\n      sub\n      swap1\n      keccak256\n      sload\n        /* \"contracts/LicenseManager.sol\":3428:3468  uint256 count = _videoLicenseCounts[vid] */\n      swap1\n      pop\n        /* \"contracts/LicenseManager.sol\":3509:3518  licenseId */\n      dup2\n        /* \"contracts/LicenseManager.sol\":3478:3494  _videoLicenseIDs */\n      0x04\n        /* \"contracts/LicenseManager.sol\":3495:3498  vid */\n      dup7\n        /* \"contracts/LicenseManager.sol\":3478:3499  _videoLicenseIDs[vid] */\n      mload(0x40)\n      tag_321\n      swap2\n      swap1\n      tag_158\n      jump\t// in\n    tag_321:\n      swap1\n      dup2\n      mstore\n      0x20\n      add\n      mload(0x40)\n      dup1\n      swap2\n      sub\n      swap1\n      keccak256\n        /* \"contracts/LicenseManager.sol\":3478:3506  _videoLicenseIDs[vid][count] */\n      0x00\n        /* \"contracts/LicenseManager.sol\":3500:3505  count */\n      dup4\n        /* \"contracts/LicenseManager.sol\":3478:3506  _videoLicenseIDs[vid][count] */\n      dup2\n      mstore\n      0x20\n      add\n      swap1\n      dup2\n      mstore\n      0x20\n      add\n      0x00\n      keccak256\n        /* \"contracts/LicenseManager.sol\":3478:3518  _videoLicenseIDs[vid][count] = licenseId */\n      dup2\n      swap1\n      sstore\n      pop\n        /* \"contracts/LicenseManager.sol\":3563:3564  1 */\n      0x01\n        /* \"contracts/LicenseManager.sol\":3555:3560  count */\n      dup2\n        /* \"contracts/LicenseManager.sol\":3555:3564  count + 1 */\n      tag_322\n      swap2\n      swap1\n      tag_323\n      jump\t// in\n    tag_322:\n        /* \"contracts/LicenseManager.sol\":3528:3547  _videoLicenseCounts */\n      0x03\n        /* \"contracts/LicenseManager.sol\":3548:3551  vid */\n      dup7\n        /* \"contracts/LicenseManager.sol\":3528:3552  _videoLicenseCounts[vid] */\n      mload(0x40)\n      tag_324\n      swap2\n      swap1\n      tag_158\n      jump\t// in\n    tag_324:\n      swap1\n      dup2\n      mstore\n      0x20\n      add\n      mload(0x40)\n      dup1\n      swap2\n      sub\n      swap1\n      keccak256\n        /* \"contracts/LicenseManager.sol\":3528:3564  _videoLicenseCounts[vid] = count + 1 */\n      dup2\n      swap1\n      sstore\n      pop\n        /* \"contracts/LicenseManager.sol\":3633:3636  vid */\n      dup5\n        /* \"contracts/LicenseManager.sol\":3605:3619  _licenseVideos */\n      0x07\n        /* \"contracts/LicenseManager.sol\":3605:3630  _licenseVideos[licenseId] */\n      0x00\n        /* \"contracts/LicenseManager.sol\":3620:3629  licenseId */\n      dup5\n        /* \"contracts/LicenseManager.sol\":3605:3630  _licenseVideos[licenseId] */\n      dup2\n      mstore\n      0x20\n      add\n      swap1\n      dup2\n      mstore\n      0x20\n      add\n      0x00\n      keccak256\n        /* \"contracts/LicenseManager.sol\":3605:3636  _licenseVideos[licenseId] = vid */\n      swap1\n      dup2\n      tag_325\n      swap2\n      swap1\n      tag_326\n      jump\t// in\n    tag_325:\n      pop\n        /* \"contracts/LicenseManager.sol\":3674:3679  price */\n      dup3\n        /* \"contracts/LicenseManager.sol\":3646:3660  _licensePrices */\n      0x08\n        /* \"contracts/LicenseManager.sol\":3646:3671  _licensePrices[licenseId] */\n      0x00\n        /* \"contracts/LicenseManager.sol\":3661:3670  licenseId */\n      dup5\n        /* \"contracts/LicenseManager.sol\":3646:3671  _licensePrices[licenseId] */\n      dup2\n      mstore\n      0x20\n      add\n      swap1\n      dup2\n      mstore\n      0x20\n      add\n      0x00\n      keccak256\n        /* \"contracts/LicenseManager.sol\":3646:3679  _licensePrices[licenseId] = price */\n      dup2\n      swap1\n      sstore\n      pop\n        /* \"contracts/LicenseManager.sol\":3720:3728  template */\n      dup4\n        /* \"contracts/LicenseManager.sol\":3689:3706  _licenseTemplates */\n      0x09\n        /* \"contracts/LicenseManager.sol\":3689:3717  _licenseTemplates[licenseId] */\n      0x00\n        /* \"contracts/LicenseManager.sol\":3707:3716  licenseId */\n      dup5\n        /* \"contracts/LicenseManager.sol\":3689:3717  _licenseTemplates[licenseId] */\n      dup2\n      mstore\n      0x20\n      add\n      swap1\n      dup2\n      mstore\n      0x20\n      add\n      0x00\n      keccak256\n      0x00\n        /* \"contracts/LicenseManager.sol\":3689:3728  _licenseTemplates[licenseId] = template */\n      0x0100\n      exp\n      dup2\n      sload\n      dup2\n      0xffffffffffffffffffffffffffffffffffffffff\n      mul\n      not\n      and\n      swap1\n      dup4\n      0xffffffffffffffffffffffffffffffffffffffff\n      and\n      mul\n      or\n      swap1\n      sstore\n      pop\n        /* \"contracts/LicenseManager.sol\":3286:3735  {... */\n      pop\n        /* \"contracts/LicenseManager.sol\":3150:3735  function createLicense(... */\n      pop\n      pop\n      pop\n      pop\n      jump\t// out\n        /* \"@openzeppelin/contracts/utils/Strings.sol\":637:1335  function toString(uint256 value) internal pure returns (string memory) {... */\n    tag_294:\n        /* \"@openzeppelin/contracts/utils/Strings.sol\":693:706  string memory */\n      0x60\n        /* \"@openzeppelin/contracts/utils/Strings.sol\":742:756  uint256 length */\n      0x00\n        /* \"@openzeppelin/contracts/utils/Strings.sol\":779:780  1 */\n      0x01\n        /* \"@openzeppelin/contracts/utils/Strings.sol\":759:776  Math.log10(value) */\n      tag_328\n        /* \"@openzeppelin/contracts/utils/Strings.sol\":770:775  value */\n      dup5\n        /* \"@openzeppelin/contracts/utils/Strings.sol\":759:769  Math.log10 */\n      tag_329\n        /* \"@openzeppelin/contracts/utils/Strings.sol\":759:776  Math.log10(value) */\n      jump\t// in\n    tag_328:\n        /* \"@openzeppelin/contracts/utils/Strings.sol\":759:780  Math.log10(value) + 1 */\n      add\n        /* \"@openzeppelin/contracts/utils/Strings.sol\":742:780  uint256 length = Math.log10(value) + 1 */\n      swap1\n      pop\n        /* \"@openzeppelin/contracts/utils/Strings.sol\":794:814  string memory buffer */\n      0x00\n        /* \"@openzeppelin/contracts/utils/Strings.sol\":828:834  length */\n      dup2\n        /* \"@openzeppelin/contracts/utils/Strings.sol\":817:835  new string(length) */\n      0xffffffffffffffff\n      dup2\n      gt\n      iszero\n      tag_330\n      jumpi\n      tag_331\n      tag_182\n      jump\t// in\n    tag_331:\n    tag_330:\n      mload(0x40)\n      swap1\n      dup1\n      dup3\n      mstore\n      dup1\n      0x1f\n      add\n      not(0x1f)\n      and\n      0x20\n      add\n      dup3\n      add\n      0x40\n      mstore\n      dup1\n      iszero\n      tag_332\n      jumpi\n      dup2\n      0x20\n      add\n      0x01\n      dup3\n      mul\n      dup1\n      calldatasize\n      dup4\n      calldatacopy\n      dup1\n      dup3\n      add\n      swap2\n      pop\n      pop\n      swap1\n      pop\n    tag_332:\n      pop\n        /* \"@openzeppelin/contracts/utils/Strings.sol\":794:835  string memory buffer = new string(length) */\n      swap1\n      pop\n        /* \"@openzeppelin/contracts/utils/Strings.sol\":849:860  uint256 ptr */\n      0x00\n        /* \"@openzeppelin/contracts/utils/Strings.sol\":975:981  length */\n      dup3\n        /* \"@openzeppelin/contracts/utils/Strings.sol\":971:973  32 */\n      0x20\n        /* \"@openzeppelin/contracts/utils/Strings.sol\":967:982  add(32, length) */\n      add\n        /* \"@openzeppelin/contracts/utils/Strings.sol\":959:965  buffer */\n      dup3\n        /* \"@openzeppelin/contracts/utils/Strings.sol\":955:983  add(buffer, add(32, length)) */\n      add\n        /* \"@openzeppelin/contracts/utils/Strings.sol\":948:983  ptr := add(buffer, add(32, length)) */\n      swap1\n      pop\n        /* \"@openzeppelin/contracts/utils/Strings.sol\":1010:1292  while (true) {... */\n    tag_333:\n        /* \"@openzeppelin/contracts/utils/Strings.sol\":1017:1021  true */\n      0x01\n        /* \"@openzeppelin/contracts/utils/Strings.sol\":1010:1292  while (true) {... */\n      iszero\n      tag_334\n      jumpi\n        /* \"@openzeppelin/contracts/utils/Strings.sol\":1041:1046  ptr-- */\n      dup1\n      dup1\n      0x01\n      swap1\n      sub\n      swap2\n      pop\n      pop\n        /* \"@openzeppelin/contracts/utils/Strings.sol\":1180:1190  HEX_DIGITS */\n      0x3031323334353637383961626364656600000000000000000000000000000000\n        /* \"@openzeppelin/contracts/utils/Strings.sol\":1175:1177  10 */\n      0x0a\n        /* \"@openzeppelin/contracts/utils/Strings.sol\":1168:1173  value */\n      dup7\n        /* \"@openzeppelin/contracts/utils/Strings.sol\":1164:1178  mod(value, 10) */\n      mod\n        /* \"@openzeppelin/contracts/utils/Strings.sol\":1159:1191  byte(mod(value, 10), HEX_DIGITS) */\n      byte\n        /* \"@openzeppelin/contracts/utils/Strings.sol\":1154:1157  ptr */\n      dup2\n        /* \"@openzeppelin/contracts/utils/Strings.sol\":1146:1192  mstore8(ptr, byte(mod(value, 10), HEX_DIGITS)) */\n      mstore8\n        /* \"@openzeppelin/contracts/utils/Strings.sol\":1236:1238  10 */\n      0x0a\n        /* \"@openzeppelin/contracts/utils/Strings.sol\":1227:1238  value /= 10 */\n      dup6\n      dup2\n      tag_335\n      jumpi\n      tag_336\n      tag_337\n      jump\t// in\n    tag_336:\n    tag_335:\n      div\n      swap5\n      pop\n        /* \"@openzeppelin/contracts/utils/Strings.sol\":1269:1270  0 */\n      0x00\n        /* \"@openzeppelin/contracts/utils/Strings.sol\":1260:1265  value */\n      dup6\n        /* \"@openzeppelin/contracts/utils/Strings.sol\":1260:1270  value == 0 */\n      sub\n        /* \"@openzeppelin/contracts/utils/Strings.sol\":1010:1292  while (true) {... */\n      tag_333\n        /* \"@openzeppelin/contracts/utils/Strings.sol\":1256:1277  if (value == 0) break */\n      jumpi\n        /* \"@openzeppelin/contracts/utils/Strings.sol\":1010:1292  while (true) {... */\n    tag_334:\n        /* \"@openzeppelin/contracts/utils/Strings.sol\":1312:1318  buffer */\n      dup2\n        /* \"@openzeppelin/contracts/utils/Strings.sol\":1305:1318  return buffer */\n      swap4\n      pop\n      pop\n      pop\n      pop\n        /* \"@openzeppelin/contracts/utils/Strings.sol\":637:1335  function toString(uint256 value) internal pure returns (string memory) {... */\n      swap2\n      swap1\n      pop\n      jump\t// out\n        /* \"contracts/LicenseManager.sol\":206:844  function itoa(uint256 value) pure returns (string memory) {... */\n    tag_312:\n        /* \"contracts/LicenseManager.sol\":249:262  string memory */\n      0x60\n        /* \"contracts/LicenseManager.sol\":331:345  uint256 length */\n      0x00\n        /* \"contracts/LicenseManager.sol\":348:349  1 */\n      0x01\n        /* \"contracts/LicenseManager.sol\":331:349  uint256 length = 1 */\n      swap1\n      pop\n        /* \"contracts/LicenseManager.sol\":355:364  uint256 v */\n      0x00\n        /* \"contracts/LicenseManager.sol\":367:372  value */\n      dup4\n        /* \"contracts/LicenseManager.sol\":355:372  uint256 v = value */\n      swap1\n      pop\n        /* \"contracts/LicenseManager.sol\":378:426  while ((v /= 10) != 0) {... */\n    tag_340:\n        /* \"contracts/LicenseManager.sol\":398:399  0 */\n      0x00\n        /* \"contracts/LicenseManager.sol\":391:393  10 */\n      0x0a\n        /* \"contracts/LicenseManager.sol\":386:393  v /= 10 */\n      dup3\n      tag_342\n      swap2\n      swap1\n      tag_343\n      jump\t// in\n    tag_342:\n      swap2\n      pop\n      dup2\n        /* \"contracts/LicenseManager.sol\":385:399  (v /= 10) != 0 */\n      eq\n        /* \"contracts/LicenseManager.sol\":378:426  while ((v /= 10) != 0) {... */\n      tag_341\n      jumpi\n        /* \"contracts/LicenseManager.sol\":411:419  length++ */\n      dup2\n      dup1\n      tag_344\n      swap1\n      tag_345\n      jump\t// in\n    tag_344:\n      swap3\n      pop\n      pop\n        /* \"contracts/LicenseManager.sol\":378:426  while ((v /= 10) != 0) {... */\n      jump(tag_340)\n    tag_341:\n        /* \"contracts/LicenseManager.sol\":462:481  bytes memory result */\n      0x00\n        /* \"contracts/LicenseManager.sol\":494:500  length */\n      dup3\n        /* \"contracts/LicenseManager.sol\":484:501  new bytes(length) */\n      0xffffffffffffffff\n      dup2\n      gt\n      iszero\n      tag_346\n      jumpi\n      tag_347\n      tag_182\n      jump\t// in\n    tag_347:\n    tag_346:\n      mload(0x40)\n      swap1\n      dup1\n      dup3\n      mstore\n      dup1\n      0x1f\n      add\n      not(0x1f)\n      and\n      0x20\n      add\n      dup3\n      add\n      0x40\n      mstore\n      dup1\n      iszero\n      tag_348\n      jumpi\n      dup2\n      0x20\n      add\n      0x01\n      dup3\n      mul\n      dup1\n      calldatasize\n      dup4\n      calldatacopy\n      dup1\n      dup3\n      add\n      swap2\n      pop\n      pop\n      swap1\n      pop\n    tag_348:\n      pop\n        /* \"contracts/LicenseManager.sol\":462:501  bytes memory result = new bytes(length) */\n      swap1\n      pop\n        /* \"contracts/LicenseManager.sol\":585:814  while (true) {... */\n    tag_349:\n        /* \"contracts/LicenseManager.sol\":592:596  true */\n      0x01\n        /* \"contracts/LicenseManager.sol\":585:814  while (true) {... */\n      iszero\n      tag_350\n      jumpi\n        /* \"contracts/LicenseManager.sol\":608:616  length-- */\n      dup3\n      dup1\n      tag_351\n      swap1\n      tag_352\n      jump\t// in\n    tag_351:\n      swap4\n      pop\n      pop\n        /* \"contracts/LicenseManager.sol\":723:725  10 */\n      0x0a\n        /* \"contracts/LicenseManager.sol\":715:720  value */\n      dup6\n        /* \"contracts/LicenseManager.sol\":715:725  value % 10 */\n      tag_353\n      swap2\n      swap1\n      tag_354\n      jump\t// in\n    tag_353:\n        /* \"contracts/LicenseManager.sol\":707:711  0x30 */\n      0x30\n        /* \"contracts/LicenseManager.sol\":707:726  0x30 + (value % 10) */\n      tag_355\n      swap2\n      swap1\n      tag_323\n      jump\t// in\n    tag_355:\n        /* \"contracts/LicenseManager.sol\":694:728  bytes1(uint8(0x30 + (value % 10))) */\n      0xf8\n      shl\n        /* \"contracts/LicenseManager.sol\":677:683  result */\n      dup2\n        /* \"contracts/LicenseManager.sol\":684:690  length */\n      dup5\n        /* \"contracts/LicenseManager.sol\":677:691  result[length] */\n      dup2\n      mload\n      dup2\n      lt\n      tag_356\n      jumpi\n      tag_357\n      tag_192\n      jump\t// in\n    tag_357:\n    tag_356:\n      0x20\n      add\n      add\n        /* \"contracts/LicenseManager.sol\":677:728  result[length] = bytes1(uint8(0x30 + (value % 10))) */\n      swap1\n      not(0xffffffffffffffffffffffffffffffffffffffffffffffffffffffffffffff)\n      and\n      swap1\n      dup2\n      0x00\n      byte\n      swap1\n      mstore8\n      pop\n        /* \"contracts/LicenseManager.sol\":748:750  10 */\n      0x0a\n        /* \"contracts/LicenseManager.sol\":739:750  value /= 10 */\n      dup6\n      tag_358\n      swap2\n      swap1\n      tag_343\n      jump\t// in\n    tag_358:\n      swap5\n      pop\n        /* \"contracts/LicenseManager.sol\":775:776  0 */\n      0x00\n        /* \"contracts/LicenseManager.sol\":765:771  length */\n      dup4\n        /* \"contracts/LicenseManager.sol\":765:776  length == 0 */\n      sub\n        /* \"contracts/LicenseManager.sol\":585:814  while (true) {... */\n      tag_349\n        /* \"contracts/LicenseManager.sol\":761:808  if (length == 0) {... */\n      jumpi\n        /* \"contracts/LicenseManager.sol\":585:814  while (true) {... */\n    tag_350:\n        /* \"contracts/LicenseManager.sol\":834:840  result */\n      dup1\n        /* \"contracts/LicenseManager.sol\":820:841  return string(result) */\n      swap4\n      pop\n      pop\n      pop\n      pop\n        /* \"contracts/LicenseManager.sol\":206:844  function itoa(uint256 value) pure returns (string memory) {... */\n      swap2\n      swap1\n      pop\n      jump\t// out\n        /* \"@openzeppelin/contracts/utils/math/Math.sol\":12214:13130  function log10(uint256 value) internal pure returns (uint256) {... */\n    tag_329:\n        /* \"@openzeppelin/contracts/utils/math/Math.sol\":12267:12274  uint256 */\n      0x00\n        /* \"@openzeppelin/contracts/utils/math/Math.sol\":12286:12300  uint256 result */\n      dup1\n        /* \"@openzeppelin/contracts/utils/math/Math.sol\":12303:12304  0 */\n      0x00\n        /* \"@openzeppelin/contracts/utils/math/Math.sol\":12286:12304  uint256 result = 0 */\n      swap1\n      pop\n        /* \"@openzeppelin/contracts/utils/math/Math.sol\":12351:12359  10 ** 64 */\n      0x184f03e93ff9f4daa797ed6e38ed64bf6a1f010000000000000000\n        /* \"@openzeppelin/contracts/utils/math/Math.sol\":12342:12347  value */\n      dup4\n        /* \"@openzeppelin/contracts/utils/math/Math.sol\":12342:12359  value >= 10 ** 64 */\n      lt\n        /* \"@openzeppelin/contracts/utils/math/Math.sol\":12338:12441  if (value >= 10 ** 64) {... */\n      tag_361\n      jumpi\n        /* \"@openzeppelin/contracts/utils/math/Math.sol\":12388:12396  10 ** 64 */\n      0x184f03e93ff9f4daa797ed6e38ed64bf6a1f010000000000000000\n        /* \"@openzeppelin/contracts/utils/math/Math.sol\":12379:12396  value /= 10 ** 64 */\n      dup4\n      dup2\n      tag_362\n      jumpi\n      tag_363\n      tag_337\n      jump\t// in\n    tag_363:\n    tag_362:\n      div\n      swap3\n      pop\n        /* \"@openzeppelin/contracts/utils/math/Math.sol\":12424:12426  64 */\n      0x40\n        /* \"@openzeppelin/contracts/utils/math/Math.sol\":12414:12426  result += 64 */\n      dup2\n      add\n      swap1\n      pop\n        /* \"@openzeppelin/contracts/utils/math/Math.sol\":12338:12441  if (value >= 10 ** 64) {... */\n    tag_361:\n        /* \"@openzeppelin/contracts/utils/math/Math.sol\":12467:12475  10 ** 32 */\n      0x04ee2d6d415b85acef8100000000\n        /* \"@openzeppelin/contracts/utils/math/Math.sol\":12458:12463  value */\n      dup4\n        /* \"@openzeppelin/contracts/utils/math/Math.sol\":12458:12475  value >= 10 ** 32 */\n      lt\n        /* \"@openzeppelin/contracts/utils/math/Math.sol\":12454:12557  if (value >= 10 ** 32) {... */\n      tag_364\n      jumpi\n        /* \"@openzeppelin/contracts/utils/math/Math.sol\":12504:12512  10 ** 32 */\n      0x04ee2d6d415b85acef8100000000\n        /* \"@openzeppelin/contracts/utils/math/Math.sol\":12495:12512  value /= 10 ** 32 */\n      dup4\n      dup2\n      tag_365\n      jumpi\n      tag_366\n      tag_337\n      jump\t// in\n    tag_366:\n    tag_365:\n      div\n      swap3\n      pop\n        /* \"@openzeppelin/contracts/utils/math/Math.sol\":12540:12542  32 */\n      0x20\n        /* \"@openzeppelin/contracts/utils/math/Math.sol\":12530:12542  result += 32 */\n      dup2\n      add\n      swap1\n      pop\n        /* \"@openzeppelin/contracts/utils/math/Math.sol\":12454:12557  if (value >= 10 ** 32) {... */\n    tag_364:\n        /* \"@openzeppelin/contracts/utils/math/Math.sol\":12583:12591  10 ** 16 */\n      0x2386f26fc10000\n        /* \"@openzeppelin/contracts/utils/math/Math.sol\":12574:12579  value */\n      dup4\n        /* \"@openzeppelin/contracts/utils/math/Math.sol\":12574:12591  value >= 10 ** 16 */\n      lt\n        /* \"@openzeppelin/contracts/utils/math/Math.sol\":12570:12673  if (value >= 10 ** 16) {... */\n      tag_367\n      jumpi\n        /* \"@openzeppelin/contracts/utils/math/Math.sol\":12620:12628  10 ** 16 */\n      0x2386f26fc10000\n        /* \"@openzeppelin/contracts/utils/math/Math.sol\":12611:12628  value /= 10 ** 16 */\n      dup4\n      dup2\n      tag_368\n      jumpi\n      tag_369\n      tag_337\n      jump\t// in\n    tag_369:\n    tag_368:\n      div\n      swap3\n      pop\n        /* \"@openzeppelin/contracts/utils/math/Math.sol\":12656:12658  16 */\n      0x10\n        /* \"@openzeppelin/contracts/utils/math/Math.sol\":12646:12658  result += 16 */\n      dup2\n      add\n      swap1\n      pop\n        /* \"@openzeppelin/contracts/utils/math/Math.sol\":12570:12673  if (value >= 10 ** 16) {... */\n    tag_367:\n        /* \"@openzeppelin/contracts/utils/math/Math.sol\":12699:12706  10 ** 8 */\n      0x05f5e100\n        /* \"@openzeppelin/contracts/utils/math/Math.sol\":12690:12695  value */\n      dup4\n        /* \"@openzeppelin/contracts/utils/math/Math.sol\":12690:12706  value >= 10 ** 8 */\n      lt\n        /* \"@openzeppelin/contracts/utils/math/Math.sol\":12686:12786  if (value >= 10 ** 8) {... */\n      tag_370\n      jumpi\n        /* \"@openzeppelin/contracts/utils/math/Math.sol\":12735:12742  10 ** 8 */\n      0x05f5e100\n        /* \"@openzeppelin/contracts/utils/math/Math.sol\":12726:12742  value /= 10 ** 8 */\n      dup4\n      dup2\n      tag_371\n      jumpi\n      tag_372\n      tag_337\n      jump\t// in\n    tag_372:\n    tag_371:\n      div\n      swap3\n      pop\n        /* \"@openzeppelin/contracts/utils/math/Math.sol\":12770:12771  8 */\n      0x08\n        /* \"@openzeppelin/contracts/utils/math/Math.sol\":12760:12771  result += 8 */\n      dup2\n      add\n      swap1\n      pop\n        /* \"@openzeppelin/contracts/utils/math/Math.sol\":12686:12786  if (value >= 10 ** 8) {... */\n    tag_370:\n        /* \"@openzeppelin/contracts/utils/math/Math.sol\":12812:12819  10 ** 4 */\n      0x2710\n        /* \"@openzeppelin/contracts/utils/math/Math.sol\":12803:12808  value */\n      dup4\n        /* \"@openzeppelin/contracts/utils/math/Math.sol\":12803:12819  value >= 10 ** 4 */\n      lt\n        /* \"@openzeppelin/contracts/utils/math/Math.sol\":12799:12899  if (value >= 10 ** 4) {... */\n      tag_373\n      jumpi\n        /* \"@openzeppelin/contracts/utils/math/Math.sol\":12848:12855  10 ** 4 */\n      0x2710\n        /* \"@openzeppelin/contracts/utils/math/Math.sol\":12839:12855  value /= 10 ** 4 */\n      dup4\n      dup2\n      tag_374\n      jumpi\n      tag_375\n      tag_337\n      jump\t// in\n    tag_375:\n    tag_374:\n      div\n      swap3\n      pop\n        /* \"@openzeppelin/contracts/utils/math/Math.sol\":12883:12884  4 */\n      0x04\n        /* \"@openzeppelin/contracts/utils/math/Math.sol\":12873:12884  result += 4 */\n      dup2\n      add\n      swap1\n      pop\n        /* \"@openzeppelin/contracts/utils/math/Math.sol\":12799:12899  if (value >= 10 ** 4) {... */\n    tag_373:\n        /* \"@openzeppelin/contracts/utils/math/Math.sol\":12925:12932  10 ** 2 */\n      0x64\n        /* \"@openzeppelin/contracts/utils/math/Math.sol\":12916:12921  value */\n      dup4\n        /* \"@openzeppelin/contracts/utils/math/Math.sol\":12916:12932  value >= 10 ** 2 */\n      lt\n        /* \"@openzeppelin/contracts/utils/math/Math.sol\":12912:13012  if (value >= 10 ** 2) {... */\n      tag_376\n      jumpi\n        /* \"@openzeppelin/contracts/utils/math/Math.sol\":12961:12968  10 ** 2 */\n      0x64\n        /* \"@openzeppelin/contracts/utils/math/Math.sol\":12952:12968  value /= 10 ** 2 */\n      dup4\n      dup2\n      tag_377\n      jumpi\n      tag_378\n      tag_337\n      jump\t// in\n    tag_378:\n    tag_377:\n      div\n      swap3\n      pop\n        /* \"@openzeppelin/contracts/utils/math/Math.sol\":12996:12997  2 */\n      0x02\n        /* \"@openzeppelin/contracts/utils/math/Math.sol\":12986:12997  result += 2 */\n      dup2\n      add\n      swap1\n      pop\n        /* \"@openzeppelin/contracts/utils/math/Math.sol\":12912:13012  if (value >= 10 ** 2) {... */\n    tag_376:\n        /* \"@openzeppelin/contracts/utils/math/Math.sol\":13038:13045  10 ** 1 */\n      0x0a\n        /* \"@openzeppelin/contracts/utils/math/Math.sol\":13029:13034  value */\n      dup4\n        /* \"@openzeppelin/contracts/utils/math/Math.sol\":13029:13045  value >= 10 ** 1 */\n      lt\n        /* \"@openzeppelin/contracts/utils/math/Math.sol\":13025:13091  if (value >= 10 ** 1) {... */\n      tag_379\n      jumpi\n        /* \"@openzeppelin/contracts/utils/math/Math.sol\":13075:13076  1 */\n      0x01\n        /* \"@openzeppelin/contracts/utils/math/Math.sol\":13065:13076  result += 1 */\n      dup2\n      add\n      swap1\n      pop\n        /* \"@openzeppelin/contracts/utils/math/Math.sol\":13025:13091  if (value >= 10 ** 1) {... */\n    tag_379:\n        /* \"@openzeppelin/contracts/utils/math/Math.sol\":13117:13123  result */\n      dup1\n        /* \"@openzeppelin/contracts/utils/math/Math.sol\":13110:13123  return result */\n      swap2\n      pop\n      pop\n        /* \"@openzeppelin/contracts/utils/math/Math.sol\":12214:13130  function log10(uint256 value) internal pure returns (uint256) {... */\n      swap2\n      swap1\n      pop\n      jump\t// out\n        /* \"#utility.yul\":7:82   */\n    tag_380:\n        /* \"#utility.yul\":40:46   */\n      0x00\n        /* \"#utility.yul\":73:75   */\n      0x40\n        /* \"#utility.yul\":67:76   */\n      mload\n        /* \"#utility.yul\":57:76   */\n      swap1\n      pop\n        /* \"#utility.yul\":7:82   */\n      swap1\n      jump\t// out\n        /* \"#utility.yul\":88:205   */\n    tag_381:\n        /* \"#utility.yul\":197:198   */\n      0x00\n        /* \"#utility.yul\":194:195   */\n      dup1\n        /* \"#utility.yul\":187:199   */\n      revert\n        /* \"#utility.yul\":211:328   */\n    tag_382:\n        /* \"#utility.yul\":320:321   */\n      0x00\n        /* \"#utility.yul\":317:318   */\n      dup1\n        /* \"#utility.yul\":310:322   */\n      revert\n        /* \"#utility.yul\":334:451   */\n    tag_383:\n        /* \"#utility.yul\":443:444   */\n      0x00\n        /* \"#utility.yul\":440:441   */\n      dup1\n        /* \"#utility.yul\":433:445   */\n      revert\n        /* \"#utility.yul\":457:574   */\n    tag_384:\n        /* \"#utility.yul\":566:567   */\n      0x00\n        /* \"#utility.yul\":563:564   */\n      dup1\n        /* \"#utility.yul\":556:568   */\n      revert\n        /* \"#utility.yul\":580:682   */\n    tag_385:\n        /* \"#utility.yul\":621:627   */\n      0x00\n        /* \"#utility.yul\":672:674   */\n      0x1f\n        /* \"#utility.yul\":668:675   */\n      not\n        /* \"#utility.yul\":663:665   */\n      0x1f\n        /* \"#utility.yul\":656:661   */\n      dup4\n        /* \"#utility.yul\":652:666   */\n      add\n        /* \"#utility.yul\":648:676   */\n      and\n        /* \"#utility.yul\":638:676   */\n      swap1\n      pop\n        /* \"#utility.yul\":580:682   */\n      swap2\n      swap1\n      pop\n      jump\t// out\n        /* \"#utility.yul\":688:868   */\n    tag_182:\n        /* \"#utility.yul\":736:813   */\n      0x4e487b7100000000000000000000000000000000000000000000000000000000\n        /* \"#utility.yul\":733:734   */\n      0x00\n        /* \"#utility.yul\":726:814   */\n      mstore\n        /* \"#utility.yul\":833:837   */\n      0x41\n        /* \"#utility.yul\":830:831   */\n      0x04\n        /* \"#utility.yul\":823:838   */\n      mstore\n        /* \"#utility.yul\":857:861   */\n      0x24\n        /* \"#utility.yul\":854:855   */\n      0x00\n        /* \"#utility.yul\":847:862   */\n      revert\n        /* \"#utility.yul\":874:1155   */\n    tag_386:\n        /* \"#utility.yul\":957:984   */\n      tag_490\n        /* \"#utility.yul\":979:983   */\n      dup3\n        /* \"#utility.yul\":957:984   */\n      tag_385\n      jump\t// in\n    tag_490:\n        /* \"#utility.yul\":949:955   */\n      dup2\n        /* \"#utility.yul\":945:985   */\n      add\n        /* \"#utility.yul\":1087:1093   */\n      dup2\n        /* \"#utility.yul\":1075:1085   */\n      dup2\n        /* \"#utility.yul\":1072:1094   */\n      lt\n        /* \"#utility.yul\":1051:1069   */\n      0xffffffffffffffff\n        /* \"#utility.yul\":1039:1049   */\n      dup3\n        /* \"#utility.yul\":1036:1070   */\n      gt\n        /* \"#utility.yul\":1033:1095   */\n      or\n        /* \"#utility.yul\":1030:1118   */\n      iszero\n      tag_491\n      jumpi\n        /* \"#utility.yul\":1098:1116   */\n      tag_492\n      tag_182\n      jump\t// in\n    tag_492:\n        /* \"#utility.yul\":1030:1118   */\n    tag_491:\n        /* \"#utility.yul\":1138:1148   */\n      dup1\n        /* \"#utility.yul\":1134:1136   */\n      0x40\n        /* \"#utility.yul\":1127:1149   */\n      mstore\n        /* \"#utility.yul\":917:1155   */\n      pop\n        /* \"#utility.yul\":874:1155   */\n      pop\n      pop\n      jump\t// out\n        /* \"#utility.yul\":1161:1290   */\n    tag_387:\n        /* \"#utility.yul\":1195:1201   */\n      0x00\n        /* \"#utility.yul\":1222:1242   */\n      tag_494\n      tag_380\n      jump\t// in\n    tag_494:\n        /* \"#utility.yul\":1212:1242   */\n      swap1\n      pop\n        /* \"#utility.yul\":1251:1284   */\n      tag_495\n        /* \"#utility.yul\":1279:1283   */\n      dup3\n        /* \"#utility.yul\":1271:1277   */\n      dup3\n        /* \"#utility.yul\":1251:1284   */\n      tag_386\n      jump\t// in\n    tag_495:\n        /* \"#utility.yul\":1161:1290   */\n      swap2\n      swap1\n      pop\n      jump\t// out\n        /* \"#utility.yul\":1296:1604   */\n    tag_388:\n        /* \"#utility.yul\":1358:1362   */\n      0x00\n        /* \"#utility.yul\":1448:1466   */\n      0xffffffffffffffff\n        /* \"#utility.yul\":1440:1446   */\n      dup3\n        /* \"#utility.yul\":1437:1467   */\n      gt\n        /* \"#utility.yul\":1434:1490   */\n      iszero\n      tag_497\n      jumpi\n        /* \"#utility.yul\":1470:1488   */\n      tag_498\n      tag_182\n      jump\t// in\n    tag_498:\n        /* \"#utility.yul\":1434:1490   */\n    tag_497:\n        /* \"#utility.yul\":1508:1537   */\n      tag_499\n        /* \"#utility.yul\":1530:1536   */\n      dup3\n        /* \"#utility.yul\":1508:1537   */\n      tag_385\n      jump\t// in\n    tag_499:\n        /* \"#utility.yul\":1500:1537   */\n      swap1\n      pop\n        /* \"#utility.yul\":1592:1596   */\n      0x20\n        /* \"#utility.yul\":1586:1590   */\n      dup2\n        /* \"#utility.yul\":1582:1597   */\n      add\n        /* \"#utility.yul\":1574:1597   */\n      swap1\n      pop\n        /* \"#utility.yul\":1296:1604   */\n      swap2\n      swap1\n      pop\n      jump\t// out\n        /* \"#utility.yul\":1610:1758   */\n    tag_389:\n        /* \"#utility.yul\":1708:1714   */\n      dup3\n        /* \"#utility.yul\":1703:1706   */\n      dup2\n        /* \"#utility.yul\":1698:1701   */\n      dup4\n        /* \"#utility.yul\":1685:1715   */\n      calldatacopy\n        /* \"#utility.yul\":1749:1750   */\n      0x00\n        /* \"#utility.yul\":1740:1746   */\n      dup4\n        /* \"#utility.yul\":1735:1738   */\n      dup4\n        /* \"#utility.yul\":1731:1747   */\n      add\n        /* \"#utility.yul\":1724:1751   */\n      mstore\n        /* \"#utility.yul\":1610:1758   */\n      pop\n      pop\n      pop\n      jump\t// out\n        /* \"#utility.yul\":1764:2189   */\n    tag_390:\n        /* \"#utility.yul\":1842:1847   */\n      0x00\n        /* \"#utility.yul\":1867:1933   */\n      tag_502\n        /* \"#utility.yul\":1883:1932   */\n      tag_503\n        /* \"#utility.yul\":1925:1931   */\n      dup5\n        /* \"#utility.yul\":1883:1932   */\n      tag_388\n      jump\t// in\n    tag_503:\n        /* \"#utility.yul\":1867:1933   */\n      tag_387\n      jump\t// in\n    tag_502:\n        /* \"#utility.yul\":1858:1933   */\n      swap1\n      pop\n        /* \"#utility.yul\":1956:1962   */\n      dup3\n        /* \"#utility.yul\":1949:1954   */\n      dup2\n        /* \"#utility.yul\":1942:1963   */\n      mstore\n        /* \"#utility.yul\":1994:1998   */\n      0x20\n        /* \"#utility.yul\":1987:1992   */\n      dup2\n        /* \"#utility.yul\":1983:1999   */\n      add\n        /* \"#utility.yul\":2032:2035   */\n      dup5\n        /* \"#utility.yul\":2023:2029   */\n      dup5\n        /* \"#utility.yul\":2018:2021   */\n      dup5\n        /* \"#utility.yul\":2014:2030   */\n      add\n        /* \"#utility.yul\":2011:2036   */\n      gt\n        /* \"#utility.yul\":2008:2120   */\n      iszero\n      tag_504\n      jumpi\n        /* \"#utility.yul\":2039:2118   */\n      tag_505\n      tag_384\n      jump\t// in\n    tag_505:\n        /* \"#utility.yul\":2008:2120   */\n    tag_504:\n        /* \"#utility.yul\":2129:2183   */\n      tag_506\n        /* \"#utility.yul\":2176:2182   */\n      dup5\n        /* \"#utility.yul\":2171:2174   */\n      dup3\n        /* \"#utility.yul\":2166:2169   */\n      dup6\n        /* \"#utility.yul\":2129:2183   */\n      tag_389\n      jump\t// in\n    tag_506:\n        /* \"#utility.yul\":1848:2189   */\n      pop\n        /* \"#utility.yul\":1764:2189   */\n      swap4\n      swap3\n      pop\n      pop\n      pop\n      jump\t// out\n        /* \"#utility.yul\":2209:2549   */\n    tag_391:\n        /* \"#utility.yul\":2265:2270   */\n      0x00\n        /* \"#utility.yul\":2314:2317   */\n      dup3\n        /* \"#utility.yul\":2307:2311   */\n      0x1f\n        /* \"#utility.yul\":2299:2305   */\n      dup4\n        /* \"#utility.yul\":2295:2312   */\n      add\n        /* \"#utility.yul\":2291:2318   */\n      slt\n        /* \"#utility.yul\":2281:2403   */\n      tag_508\n      jumpi\n        /* \"#utility.yul\":2322:2401   */\n      tag_509\n      tag_383\n      jump\t// in\n    tag_509:\n        /* \"#utility.yul\":2281:2403   */\n    tag_508:\n        /* \"#utility.yul\":2439:2445   */\n      dup2\n        /* \"#utility.yul\":2426:2446   */\n      calldataload\n        /* \"#utility.yul\":2464:2543   */\n      tag_510\n        /* \"#utility.yul\":2539:2542   */\n      dup5\n        /* \"#utility.yul\":2531:2537   */\n      dup3\n        /* \"#utility.yul\":2524:2528   */\n      0x20\n        /* \"#utility.yul\":2516:2522   */\n      dup7\n        /* \"#utility.yul\":2512:2529   */\n      add\n        /* \"#utility.yul\":2464:2543   */\n      tag_390\n      jump\t// in\n    tag_510:\n        /* \"#utility.yul\":2455:2543   */\n      swap2\n      pop\n        /* \"#utility.yul\":2271:2549   */\n      pop\n        /* \"#utility.yul\":2209:2549   */\n      swap3\n      swap2\n      pop\n      pop\n      jump\t// out\n        /* \"#utility.yul\":2555:2672   */\n    tag_392:\n        /* \"#utility.yul\":2664:2665   */\n      0x00\n        /* \"#utility.yul\":2661:2662   */\n      dup1\n        /* \"#utility.yul\":2654:2666   */\n      revert\n        /* \"#utility.yul\":2678:2795   */\n    tag_393:\n        /* \"#utility.yul\":2787:2788   */\n      0x00\n        /* \"#utility.yul\":2784:2785   */\n      dup1\n        /* \"#utility.yul\":2777:2789   */\n      revert\n        /* \"#utility.yul\":2814:3366   */\n    tag_394:\n        /* \"#utility.yul\":2871:2879   */\n      0x00\n        /* \"#utility.yul\":2881:2887   */\n      dup1\n        /* \"#utility.yul\":2931:2934   */\n      dup4\n        /* \"#utility.yul\":2924:2928   */\n      0x1f\n        /* \"#utility.yul\":2916:2922   */\n      dup5\n        /* \"#utility.yul\":2912:2929   */\n      add\n        /* \"#utility.yul\":2908:2935   */\n      slt\n        /* \"#utility.yul\":2898:3020   */\n      tag_514\n      jumpi\n        /* \"#utility.yul\":2939:3018   */\n      tag_515\n      tag_383\n      jump\t// in\n    tag_515:\n        /* \"#utility.yul\":2898:3020   */\n    tag_514:\n        /* \"#utility.yul\":3052:3058   */\n      dup3\n        /* \"#utility.yul\":3039:3059   */\n      calldataload\n        /* \"#utility.yul\":3029:3059   */\n      swap1\n      pop\n        /* \"#utility.yul\":3082:3100   */\n      0xffffffffffffffff\n        /* \"#utility.yul\":3074:3080   */\n      dup2\n        /* \"#utility.yul\":3071:3101   */\n      gt\n        /* \"#utility.yul\":3068:3185   */\n      iszero\n      tag_516\n      jumpi\n        /* \"#utility.yul\":3104:3183   */\n      tag_517\n      tag_392\n      jump\t// in\n    tag_517:\n        /* \"#utility.yul\":3068:3185   */\n    tag_516:\n        /* \"#utility.yul\":3218:3222   */\n      0x20\n        /* \"#utility.yul\":3210:3216   */\n      dup4\n        /* \"#utility.yul\":3206:3223   */\n      add\n        /* \"#utility.yul\":3194:3223   */\n      swap2\n      pop\n        /* \"#utility.yul\":3272:3275   */\n      dup4\n        /* \"#utility.yul\":3264:3268   */\n      0x01\n        /* \"#utility.yul\":3256:3262   */\n      dup3\n        /* \"#utility.yul\":3252:3269   */\n      mul\n        /* \"#utility.yul\":3242:3250   */\n      dup4\n        /* \"#utility.yul\":3238:3270   */\n      add\n        /* \"#utility.yul\":3235:3276   */\n      gt\n        /* \"#utility.yul\":3232:3360   */\n      iszero\n      tag_518\n      jumpi\n        /* \"#utility.yul\":3279:3358   */\n      tag_519\n      tag_393\n      jump\t// in\n    tag_519:\n        /* \"#utility.yul\":3232:3360   */\n    tag_518:\n        /* \"#utility.yul\":2814:3366   */\n      swap3\n      pop\n      swap3\n      swap1\n      pop\n      jump\t// out\n        /* \"#utility.yul\":3372:4224   */\n    tag_28:\n        /* \"#utility.yul\":3461:3467   */\n      0x00\n        /* \"#utility.yul\":3469:3475   */\n      dup1\n        /* \"#utility.yul\":3477:3483   */\n      0x00\n        /* \"#utility.yul\":3526:3528   */\n      0x40\n        /* \"#utility.yul\":3514:3523   */\n      dup5\n        /* \"#utility.yul\":3505:3512   */\n      dup7\n        /* \"#utility.yul\":3501:3524   */\n      sub\n        /* \"#utility.yul\":3497:3529   */\n      slt\n        /* \"#utility.yul\":3494:3613   */\n      iszero\n      tag_521\n      jumpi\n        /* \"#utility.yul\":3532:3611   */\n      tag_522\n      tag_381\n      jump\t// in\n    tag_522:\n        /* \"#utility.yul\":3494:3613   */\n    tag_521:\n        /* \"#utility.yul\":3680:3681   */\n      0x00\n        /* \"#utility.yul\":3669:3678   */\n      dup5\n        /* \"#utility.yul\":3665:3682   */\n      add\n        /* \"#utility.yul\":3652:3683   */\n      calldataload\n        /* \"#utility.yul\":3710:3728   */\n      0xffffffffffffffff\n        /* \"#utility.yul\":3702:3708   */\n      dup2\n        /* \"#utility.yul\":3699:3729   */\n      gt\n        /* \"#utility.yul\":3696:3813   */\n      iszero\n      tag_523\n      jumpi\n        /* \"#utility.yul\":3732:3811   */\n      tag_524\n      tag_382\n      jump\t// in\n    tag_524:\n        /* \"#utility.yul\":3696:3813   */\n    tag_523:\n        /* \"#utility.yul\":3837:3900   */\n      tag_525\n        /* \"#utility.yul\":3892:3899   */\n      dup7\n        /* \"#utility.yul\":3883:3889   */\n      dup3\n        /* \"#utility.yul\":3872:3881   */\n      dup8\n        /* \"#utility.yul\":3868:3890   */\n      add\n        /* \"#utility.yul\":3837:3900   */\n      tag_391\n      jump\t// in\n    tag_525:\n        /* \"#utility.yul\":3827:3900   */\n      swap4\n      pop\n        /* \"#utility.yul\":3623:3910   */\n      pop\n        /* \"#utility.yul\":3977:3979   */\n      0x20\n        /* \"#utility.yul\":3966:3975   */\n      dup5\n        /* \"#utility.yul\":3962:3980   */\n      add\n        /* \"#utility.yul\":3949:3981   */\n      calldataload\n        /* \"#utility.yul\":4008:4026   */\n      0xffffffffffffffff\n        /* \"#utility.yul\":4000:4006   */\n      dup2\n        /* \"#utility.yul\":3997:4027   */\n      gt\n        /* \"#utility.yul\":3994:4111   */\n      iszero\n      tag_526\n      jumpi\n        /* \"#utility.yul\":4030:4109   */\n      tag_527\n      tag_382\n      jump\t// in\n    tag_527:\n        /* \"#utility.yul\":3994:4111   */\n    tag_526:\n        /* \"#utility.yul\":4143:4207   */\n      tag_528\n        /* \"#utility.yul\":4199:4206   */\n      dup7\n        /* \"#utility.yul\":4190:4196   */\n      dup3\n        /* \"#utility.yul\":4179:4188   */\n      dup8\n        /* \"#utility.yul\":4175:4197   */\n      add\n        /* \"#utility.yul\":4143:4207   */\n      tag_394\n      jump\t// in\n    tag_528:\n        /* \"#utility.yul\":4125:4207   */\n      swap3\n      pop\n      swap3\n      pop\n        /* \"#utility.yul\":3920:4217   */\n      pop\n        /* \"#utility.yul\":3372:4224   */\n      swap3\n      pop\n      swap3\n      pop\n      swap3\n      jump\t// out\n        /* \"#utility.yul\":4230:4356   */\n    tag_395:\n        /* \"#utility.yul\":4267:4274   */\n      0x00\n        /* \"#utility.yul\":4307:4349   */\n      0xffffffffffffffffffffffffffffffffffffffff\n        /* \"#utility.yul\":4300:4305   */\n      dup3\n        /* \"#utility.yul\":4296:4350   */\n      and\n        /* \"#utility.yul\":4285:4350   */\n      swap1\n      pop\n        /* \"#utility.yul\":4230:4356   */\n      swap2\n      swap1\n      pop\n      jump\t// out\n        /* \"#utility.yul\":4362:4458   */\n    tag_396:\n        /* \"#utility.yul\":4399:4406   */\n      0x00\n        /* \"#utility.yul\":4428:4452   */\n      tag_531\n        /* \"#utility.yul\":4446:4451   */\n      dup3\n        /* \"#utility.yul\":4428:4452   */\n      tag_395\n      jump\t// in\n    tag_531:\n        /* \"#utility.yul\":4417:4452   */\n      swap1\n      pop\n        /* \"#utility.yul\":4362:4458   */\n      swap2\n      swap1\n      pop\n      jump\t// out\n        /* \"#utility.yul\":4464:4582   */\n    tag_397:\n        /* \"#utility.yul\":4551:4575   */\n      tag_533\n        /* \"#utility.yul\":4569:4574   */\n      dup2\n        /* \"#utility.yul\":4551:4575   */\n      tag_396\n      jump\t// in\n    tag_533:\n        /* \"#utility.yul\":4546:4549   */\n      dup3\n        /* \"#utility.yul\":4539:4576   */\n      mstore\n        /* \"#utility.yul\":4464:4582   */\n      pop\n      pop\n      jump\t// out\n        /* \"#utility.yul\":4588:4810   */\n    tag_31:\n        /* \"#utility.yul\":4681:4685   */\n      0x00\n        /* \"#utility.yul\":4719:4721   */\n      0x20\n        /* \"#utility.yul\":4708:4717   */\n      dup3\n        /* \"#utility.yul\":4704:4722   */\n      add\n        /* \"#utility.yul\":4696:4722   */\n      swap1\n      pop\n        /* \"#utility.yul\":4732:4803   */\n      tag_535\n        /* \"#utility.yul\":4800:4801   */\n      0x00\n        /* \"#utility.yul\":4789:4798   */\n      dup4\n        /* \"#utility.yul\":4785:4802   */\n      add\n        /* \"#utility.yul\":4776:4782   */\n      dup5\n        /* \"#utility.yul\":4732:4803   */\n      tag_397\n      jump\t// in\n    tag_535:\n        /* \"#utility.yul\":4588:4810   */\n      swap3\n      swap2\n      pop\n      pop\n      jump\t// out\n        /* \"#utility.yul\":4816:4915   */\n    tag_398:\n        /* \"#utility.yul\":4868:4874   */\n      0x00\n        /* \"#utility.yul\":4902:4907   */\n      dup2\n        /* \"#utility.yul\":4896:4908   */\n      mload\n        /* \"#utility.yul\":4886:4908   */\n      swap1\n      pop\n        /* \"#utility.yul\":4816:4915   */\n      swap2\n      swap1\n      pop\n      jump\t// out\n        /* \"#utility.yul\":4921:5090   */\n    tag_399:\n        /* \"#utility.yul\":5005:5016   */\n      0x00\n        /* \"#utility.yul\":5039:5045   */\n      dup3\n        /* \"#utility.yul\":5034:5037   */\n      dup3\n        /* \"#utility.yul\":5027:5046   */\n      mstore\n        /* \"#utility.yul\":5079:5083   */\n      0x20\n        /* \"#utility.yul\":5074:5077   */\n      dup3\n        /* \"#utility.yul\":5070:5084   */\n      add\n        /* \"#utility.yul\":5055:5084   */\n      swap1\n      pop\n        /* \"#utility.yul\":4921:5090   */\n      swap3\n      swap2\n      pop\n      pop\n      jump\t// out\n        /* \"#utility.yul\":5096:5235   */\n    tag_400:\n        /* \"#utility.yul\":5185:5191   */\n      dup3\n        /* \"#utility.yul\":5180:5183   */\n      dup2\n        /* \"#utility.yul\":5175:5178   */\n      dup4\n        /* \"#utility.yul\":5169:5192   */\n      mcopy\n        /* \"#utility.yul\":5226:5227   */\n      0x00\n        /* \"#utility.yul\":5217:5223   */\n      dup4\n        /* \"#utility.yul\":5212:5215   */\n      dup4\n        /* \"#utility.yul\":5208:5224   */\n      add\n        /* \"#utility.yul\":5201:5228   */\n      mstore\n        /* \"#utility.yul\":5096:5235   */\n      pop\n      pop\n      pop\n      jump\t// out\n        /* \"#utility.yul\":5241:5618   */\n    tag_401:\n        /* \"#utility.yul\":5329:5332   */\n      0x00\n        /* \"#utility.yul\":5357:5396   */\n      tag_540\n        /* \"#utility.yul\":5390:5395   */\n      dup3\n        /* \"#utility.yul\":5357:5396   */\n      tag_398\n      jump\t// in\n    tag_540:\n        /* \"#utility.yul\":5412:5483   */\n      tag_541\n        /* \"#utility.yul\":5476:5482   */\n      dup2\n        /* \"#utility.yul\":5471:5474   */\n      dup6\n        /* \"#utility.yul\":5412:5483   */\n      tag_399\n      jump\t// in\n    tag_541:\n        /* \"#utility.yul\":5405:5483   */\n      swap4\n      pop\n        /* \"#utility.yul\":5492:5557   */\n      tag_542\n        /* \"#utility.yul\":5550:5556   */\n      dup2\n        /* \"#utility.yul\":5545:5548   */\n      dup6\n        /* \"#utility.yul\":5538:5542   */\n      0x20\n        /* \"#utility.yul\":5531:5536   */\n      dup7\n        /* \"#utility.yul\":5527:5543   */\n      add\n        /* \"#utility.yul\":5492:5557   */\n      tag_400\n      jump\t// in\n    tag_542:\n        /* \"#utility.yul\":5582:5611   */\n      tag_543\n        /* \"#utility.yul\":5604:5610   */\n      dup2\n        /* \"#utility.yul\":5582:5611   */\n      tag_385\n      jump\t// in\n    tag_543:\n        /* \"#utility.yul\":5577:5580   */\n      dup5\n        /* \"#utility.yul\":5573:5612   */\n      add\n        /* \"#utility.yul\":5566:5612   */\n      swap2\n      pop\n        /* \"#utility.yul\":5333:5618   */\n      pop\n        /* \"#utility.yul\":5241:5618   */\n      swap3\n      swap2\n      pop\n      pop\n      jump\t// out\n        /* \"#utility.yul\":5624:5937   */\n    tag_36:\n        /* \"#utility.yul\":5737:5741   */\n      0x00\n        /* \"#utility.yul\":5775:5777   */\n      0x20\n        /* \"#utility.yul\":5764:5773   */\n      dup3\n        /* \"#utility.yul\":5760:5778   */\n      add\n        /* \"#utility.yul\":5752:5778   */\n      swap1\n      pop\n        /* \"#utility.yul\":5824:5833   */\n      dup2\n        /* \"#utility.yul\":5818:5822   */\n      dup2\n        /* \"#utility.yul\":5814:5834   */\n      sub\n        /* \"#utility.yul\":5810:5811   */\n      0x00\n        /* \"#utility.yul\":5799:5808   */\n      dup4\n        /* \"#utility.yul\":5795:5812   */\n      add\n        /* \"#utility.yul\":5788:5835   */\n      mstore\n        /* \"#utility.yul\":5852:5930   */\n      tag_545\n        /* \"#utility.yul\":5925:5929   */\n      dup2\n        /* \"#utility.yul\":5916:5922   */\n      dup5\n        /* \"#utility.yul\":5852:5930   */\n      tag_401\n      jump\t// in\n    tag_545:\n        /* \"#utility.yul\":5844:5930   */\n      swap1\n      pop\n        /* \"#utility.yul\":5624:5937   */\n      swap3\n      swap2\n      pop\n      pop\n      jump\t// out\n        /* \"#utility.yul\":5943:6020   */\n    tag_402:\n        /* \"#utility.yul\":5980:5987   */\n      0x00\n        /* \"#utility.yul\":6009:6014   */\n      dup2\n        /* \"#utility.yul\":5998:6014   */\n      swap1\n      pop\n        /* \"#utility.yul\":5943:6020   */\n      swap2\n      swap1\n      pop\n      jump\t// out\n        /* \"#utility.yul\":6026:6172   */\n    tag_403:\n        /* \"#utility.yul\":6123:6147   */\n      tag_548\n        /* \"#utility.yul\":6141:6146   */\n      dup2\n        /* \"#utility.yul\":6123:6147   */\n      tag_402\n      jump\t// in\n    tag_548:\n        /* \"#utility.yul\":6116:6121   */\n      dup2\n        /* \"#utility.yul\":6113:6148   */\n      eq\n        /* \"#utility.yul\":6103:6166   */\n      tag_549\n      jumpi\n        /* \"#utility.yul\":6162:6163   */\n      0x00\n        /* \"#utility.yul\":6159:6160   */\n      dup1\n        /* \"#utility.yul\":6152:6164   */\n      revert\n        /* \"#utility.yul\":6103:6166   */\n    tag_549:\n        /* \"#utility.yul\":6026:6172   */\n      pop\n      jump\t// out\n        /* \"#utility.yul\":6178:6365   */\n    tag_404:\n        /* \"#utility.yul\":6248:6253   */\n      0x00\n        /* \"#utility.yul\":6286:6292   */\n      dup2\n        /* \"#utility.yul\":6273:6293   */\n      calldataload\n        /* \"#utility.yul\":6264:6293   */\n      swap1\n      pop\n        /* \"#utility.yul\":6302:6359   */\n      tag_551\n        /* \"#utility.yul\":6353:6358   */\n      dup2\n        /* \"#utility.yul\":6302:6359   */\n      tag_403\n      jump\t// in\n    tag_551:\n        /* \"#utility.yul\":6178:6365   */\n      swap3\n      swap2\n      pop\n      pop\n      jump\t// out\n        /* \"#utility.yul\":6371:6748   */\n    tag_40:\n        /* \"#utility.yul\":6454:6460   */\n      0x00\n        /* \"#utility.yul\":6503:6505   */\n      0x20\n        /* \"#utility.yul\":6491:6500   */\n      dup3\n        /* \"#utility.yul\":6482:6489   */\n      dup5\n        /* \"#utility.yul\":6478:6501   */\n      sub\n        /* \"#utility.yul\":6474:6506   */\n      slt\n        /* \"#utility.yul\":6471:6590   */\n      iszero\n      tag_553\n      jumpi\n        /* \"#utility.yul\":6509:6588   */\n      tag_554\n      tag_381\n      jump\t// in\n    tag_554:\n        /* \"#utility.yul\":6471:6590   */\n    tag_553:\n        /* \"#utility.yul\":6629:6630   */\n      0x00\n        /* \"#utility.yul\":6654:6731   */\n      tag_555\n        /* \"#utility.yul\":6723:6730   */\n      dup5\n        /* \"#utility.yul\":6714:6720   */\n      dup3\n        /* \"#utility.yul\":6703:6712   */\n      dup6\n        /* \"#utility.yul\":6699:6721   */\n      add\n        /* \"#utility.yul\":6654:6731   */\n      tag_404\n      jump\t// in\n    tag_555:\n        /* \"#utility.yul\":6644:6731   */\n      swap2\n      pop\n        /* \"#utility.yul\":6600:6741   */\n      pop\n        /* \"#utility.yul\":6371:6748   */\n      swap3\n      swap2\n      pop\n      pop\n      jump\t// out\n        /* \"#utility.yul\":6754:6858   */\n    tag_405:\n        /* \"#utility.yul\":6799:6806   */\n      0x00\n        /* \"#utility.yul\":6828:6852   */\n      tag_557\n        /* \"#utility.yul\":6846:6851   */\n      dup3\n        /* \"#utility.yul\":6828:6852   */\n      tag_395\n      jump\t// in\n    tag_557:\n        /* \"#utility.yul\":6817:6852   */\n      swap1\n      pop\n        /* \"#utility.yul\":6754:6858   */\n      swap2\n      swap1\n      pop\n      jump\t// out\n        /* \"#utility.yul\":6864:7006   */\n    tag_406:\n        /* \"#utility.yul\":6967:6999   */\n      tag_559\n        /* \"#utility.yul\":6993:6998   */\n      dup2\n        /* \"#utility.yul\":6967:6999   */\n      tag_405\n      jump\t// in\n    tag_559:\n        /* \"#utility.yul\":6962:6965   */\n      dup3\n        /* \"#utility.yul\":6955:7000   */\n      mstore\n        /* \"#utility.yul\":6864:7006   */\n      pop\n      pop\n      jump\t// out\n        /* \"#utility.yul\":7012:7266   */\n    tag_43:\n        /* \"#utility.yul\":7121:7125   */\n      0x00\n        /* \"#utility.yul\":7159:7161   */\n      0x20\n        /* \"#utility.yul\":7148:7157   */\n      dup3\n        /* \"#utility.yul\":7144:7162   */\n      add\n        /* \"#utility.yul\":7136:7162   */\n      swap1\n      pop\n        /* \"#utility.yul\":7172:7259   */\n      tag_561\n        /* \"#utility.yul\":7256:7257   */\n      0x00\n        /* \"#utility.yul\":7245:7254   */\n      dup4\n        /* \"#utility.yul\":7241:7258   */\n      add\n        /* \"#utility.yul\":7232:7238   */\n      dup5\n        /* \"#utility.yul\":7172:7259   */\n      tag_406\n      jump\t// in\n    tag_561:\n        /* \"#utility.yul\":7012:7266   */\n      swap3\n      swap2\n      pop\n      pop\n      jump\t// out\n        /* \"#utility.yul\":7272:7410   */\n    tag_407:\n        /* \"#utility.yul\":7353:7385   */\n      tag_563\n        /* \"#utility.yul\":7379:7384   */\n      dup2\n        /* \"#utility.yul\":7353:7385   */\n      tag_405\n      jump\t// in\n    tag_563:\n        /* \"#utility.yul\":7346:7351   */\n      dup2\n        /* \"#utility.yul\":7343:7386   */\n      eq\n        /* \"#utility.yul\":7333:7404   */\n      tag_564\n      jumpi\n        /* \"#utility.yul\":7400:7401   */\n      0x00\n        /* \"#utility.yul\":7397:7398   */\n      dup1\n        /* \"#utility.yul\":7390:7402   */\n      revert\n        /* \"#utility.yul\":7333:7404   */\n    tag_564:\n        /* \"#utility.yul\":7272:7410   */\n      pop\n      jump\t// out\n        /* \"#utility.yul\":7416:7571   */\n    tag_408:\n        /* \"#utility.yul\":7470:7475   */\n      0x00\n        /* \"#utility.yul\":7508:7514   */\n      dup2\n        /* \"#utility.yul\":7495:7515   */\n      calldataload\n        /* \"#utility.yul\":7486:7515   */\n      swap1\n      pop\n        /* \"#utility.yul\":7524:7565   */\n      tag_566\n        /* \"#utility.yul\":7559:7564   */\n      dup2\n        /* \"#utility.yul\":7524:7565   */\n      tag_407\n      jump\t// in\n    tag_566:\n        /* \"#utility.yul\":7416:7571   */\n      swap3\n      swap2\n      pop\n      pop\n      jump\t// out\n        /* \"#utility.yul\":7577:8590   */\n    tag_47:\n        /* \"#utility.yul\":7683:7689   */\n      0x00\n        /* \"#utility.yul\":7691:7697   */\n      dup1\n        /* \"#utility.yul\":7699:7705   */\n      0x00\n        /* \"#utility.yul\":7707:7713   */\n      dup1\n        /* \"#utility.yul\":7756:7758   */\n      0x60\n        /* \"#utility.yul\":7744:7753   */\n      dup6\n        /* \"#utility.yul\":7735:7742   */\n      dup8\n        /* \"#utility.yul\":7731:7754   */\n      sub\n        /* \"#utility.yul\":7727:7759   */\n      slt\n        /* \"#utility.yul\":7724:7843   */\n      iszero\n      tag_568\n      jumpi\n        /* \"#utility.yul\":7762:7841   */\n      tag_569\n      tag_381\n      jump\t// in\n    tag_569:\n        /* \"#utility.yul\":7724:7843   */\n    tag_568:\n        /* \"#utility.yul\":7910:7911   */\n      0x00\n        /* \"#utility.yul\":7899:7908   */\n      dup6\n        /* \"#utility.yul\":7895:7912   */\n      add\n        /* \"#utility.yul\":7882:7913   */\n      calldataload\n        /* \"#utility.yul\":7940:7958   */\n      0xffffffffffffffff\n        /* \"#utility.yul\":7932:7938   */\n      dup2\n        /* \"#utility.yul\":7929:7959   */\n      gt\n        /* \"#utility.yul\":7926:8043   */\n      iszero\n      tag_570\n      jumpi\n        /* \"#utility.yul\":7962:8041   */\n      tag_571\n      tag_382\n      jump\t// in\n    tag_571:\n        /* \"#utility.yul\":7926:8043   */\n    tag_570:\n        /* \"#utility.yul\":8067:8130   */\n      tag_572\n        /* \"#utility.yul\":8122:8129   */\n      dup8\n        /* \"#utility.yul\":8113:8119   */\n      dup3\n        /* \"#utility.yul\":8102:8111   */\n      dup9\n        /* \"#utility.yul\":8098:8120   */\n      add\n        /* \"#utility.yul\":8067:8130   */\n      tag_391\n      jump\t// in\n    tag_572:\n        /* \"#utility.yul\":8057:8130   */\n      swap5\n      pop\n        /* \"#utility.yul\":7853:8140   */\n      pop\n        /* \"#utility.yul\":8179:8181   */\n      0x20\n        /* \"#utility.yul\":8205:8266   */\n      tag_573\n        /* \"#utility.yul\":8258:8265   */\n      dup8\n        /* \"#utility.yul\":8249:8255   */\n      dup3\n        /* \"#utility.yul\":8238:8247   */\n      dup9\n        /* \"#utility.yul\":8234:8256   */\n      add\n        /* \"#utility.yul\":8205:8266   */\n      tag_408\n      jump\t// in\n    tag_573:\n        /* \"#utility.yul\":8195:8266   */\n      swap4\n      pop\n        /* \"#utility.yul\":8150:8276   */\n      pop\n        /* \"#utility.yul\":8343:8345   */\n      0x40\n        /* \"#utility.yul\":8332:8341   */\n      dup6\n        /* \"#utility.yul\":8328:8346   */\n      add\n        /* \"#utility.yul\":8315:8347   */\n      calldataload\n        /* \"#utility.yul\":8374:8392   */\n      0xffffffffffffffff\n        /* \"#utility.yul\":8366:8372   */\n      dup2\n        /* \"#utility.yul\":8363:8393   */\n      gt\n        /* \"#utility.yul\":8360:8477   */\n      iszero\n      tag_574\n      jumpi\n        /* \"#utility.yul\":8396:8475   */\n      tag_575\n      tag_382\n      jump\t// in\n    tag_575:\n        /* \"#utility.yul\":8360:8477   */\n    tag_574:\n        /* \"#utility.yul\":8509:8573   */\n      tag_576\n        /* \"#utility.yul\":8565:8572   */\n      dup8\n        /* \"#utility.yul\":8556:8562   */\n      dup3\n        /* \"#utility.yul\":8545:8554   */\n      dup9\n        /* \"#utility.yul\":8541:8563   */\n      add\n        /* \"#utility.yul\":8509:8573   */\n      tag_394\n      jump\t// in\n    tag_576:\n        /* \"#utility.yul\":8491:8573   */\n      swap3\n      pop\n      swap3\n      pop\n        /* \"#utility.yul\":8286:8583   */\n      pop\n        /* \"#utility.yul\":7577:8590   */\n      swap3\n      swap6\n      swap2\n      swap5\n      pop\n      swap3\n      pop\n      jump\t// out\n        /* \"#utility.yul\":8596:9105   */\n    tag_52:\n        /* \"#utility.yul\":8665:8671   */\n      0x00\n        /* \"#utility.yul\":8714:8716   */\n      0x20\n        /* \"#utility.yul\":8702:8711   */\n      dup3\n        /* \"#utility.yul\":8693:8700   */\n      dup5\n        /* \"#utility.yul\":8689:8712   */\n      sub\n        /* \"#utility.yul\":8685:8717   */\n      slt\n        /* \"#utility.yul\":8682:8801   */\n      iszero\n      tag_578\n      jumpi\n        /* \"#utility.yul\":8720:8799   */\n      tag_579\n      tag_381\n      jump\t// in\n    tag_579:\n        /* \"#utility.yul\":8682:8801   */\n    tag_578:\n        /* \"#utility.yul\":8868:8869   */\n      0x00\n        /* \"#utility.yul\":8857:8866   */\n      dup3\n        /* \"#utility.yul\":8853:8870   */\n      add\n        /* \"#utility.yul\":8840:8871   */\n      calldataload\n        /* \"#utility.yul\":8898:8916   */\n      0xffffffffffffffff\n        /* \"#utility.yul\":8890:8896   */\n      dup2\n        /* \"#utility.yul\":8887:8917   */\n      gt\n        /* \"#utility.yul\":8884:9001   */\n      iszero\n      tag_580\n      jumpi\n        /* \"#utility.yul\":8920:8999   */\n      tag_581\n      tag_382\n      jump\t// in\n    tag_581:\n        /* \"#utility.yul\":8884:9001   */\n    tag_580:\n        /* \"#utility.yul\":9025:9088   */\n      tag_582\n        /* \"#utility.yul\":9080:9087   */\n      dup5\n        /* \"#utility.yul\":9071:9077   */\n      dup3\n        /* \"#utility.yul\":9060:9069   */\n      dup6\n        /* \"#utility.yul\":9056:9078   */\n      add\n        /* \"#utility.yul\":9025:9088   */\n      tag_391\n      jump\t// in\n    tag_582:\n        /* \"#utility.yul\":9015:9088   */\n      swap2\n      pop\n        /* \"#utility.yul\":8811:9098   */\n      pop\n        /* \"#utility.yul\":8596:9105   */\n      swap3\n      swap2\n      pop\n      pop\n      jump\t// out\n        /* \"#utility.yul\":9111:9233   */\n    tag_409:\n        /* \"#utility.yul\":9184:9208   */\n      tag_584\n        /* \"#utility.yul\":9202:9207   */\n      dup2\n        /* \"#utility.yul\":9184:9208   */\n      tag_396\n      jump\t// in\n    tag_584:\n        /* \"#utility.yul\":9177:9182   */\n      dup2\n        /* \"#utility.yul\":9174:9209   */\n      eq\n        /* \"#utility.yul\":9164:9227   */\n      tag_585\n      jumpi\n        /* \"#utility.yul\":9223:9224   */\n      0x00\n        /* \"#utility.yul\":9220:9221   */\n      dup1\n        /* \"#utility.yul\":9213:9225   */\n      revert\n        /* \"#utility.yul\":9164:9227   */\n    tag_585:\n        /* \"#utility.yul\":9111:9233   */\n      pop\n      jump\t// out\n        /* \"#utility.yul\":9239:9378   */\n    tag_410:\n        /* \"#utility.yul\":9285:9290   */\n      0x00\n        /* \"#utility.yul\":9323:9329   */\n      dup2\n        /* \"#utility.yul\":9310:9330   */\n      calldataload\n        /* \"#utility.yul\":9301:9330   */\n      swap1\n      pop\n        /* \"#utility.yul\":9339:9372   */\n      tag_587\n        /* \"#utility.yul\":9366:9371   */\n      dup2\n        /* \"#utility.yul\":9339:9372   */\n      tag_409\n      jump\t// in\n    tag_587:\n        /* \"#utility.yul\":9239:9378   */\n      swap3\n      swap2\n      pop\n      pop\n      jump\t// out\n        /* \"#utility.yul\":9384:10038   */\n    tag_63:\n        /* \"#utility.yul\":9462:9468   */\n      0x00\n        /* \"#utility.yul\":9470:9476   */\n      dup1\n        /* \"#utility.yul\":9519:9521   */\n      0x40\n        /* \"#utility.yul\":9507:9516   */\n      dup4\n        /* \"#utility.yul\":9498:9505   */\n      dup6\n        /* \"#utility.yul\":9494:9517   */\n      sub\n        /* \"#utility.yul\":9490:9522   */\n      slt\n        /* \"#utility.yul\":9487:9606   */\n      iszero\n      tag_589\n      jumpi\n        /* \"#utility.yul\":9525:9604   */\n      tag_590\n      tag_381\n      jump\t// in\n    tag_590:\n        /* \"#utility.yul\":9487:9606   */\n    tag_589:\n        /* \"#utility.yul\":9673:9674   */\n      0x00\n        /* \"#utility.yul\":9662:9671   */\n      dup4\n        /* \"#utility.yul\":9658:9675   */\n      add\n        /* \"#utility.yul\":9645:9676   */\n      calldataload\n        /* \"#utility.yul\":9703:9721   */\n      0xffffffffffffffff\n        /* \"#utility.yul\":9695:9701   */\n      dup2\n        /* \"#utility.yul\":9692:9722   */\n      gt\n        /* \"#utility.yul\":9689:9806   */\n      iszero\n      tag_591\n      jumpi\n        /* \"#utility.yul\":9725:9804   */\n      tag_592\n      tag_382\n      jump\t// in\n    tag_592:\n        /* \"#utility.yul\":9689:9806   */\n    tag_591:\n        /* \"#utility.yul\":9830:9893   */\n      tag_593\n        /* \"#utility.yul\":9885:9892   */\n      dup6\n        /* \"#utility.yul\":9876:9882   */\n      dup3\n        /* \"#utility.yul\":9865:9874   */\n      dup7\n        /* \"#utility.yul\":9861:9883   */\n      add\n        /* \"#utility.yul\":9830:9893   */\n      tag_391\n      jump\t// in\n    tag_593:\n        /* \"#utility.yul\":9820:9893   */\n      swap3\n      pop\n        /* \"#utility.yul\":9616:9903   */\n      pop\n        /* \"#utility.yul\":9942:9944   */\n      0x20\n        /* \"#utility.yul\":9968:10021   */\n      tag_594\n        /* \"#utility.yul\":10013:10020   */\n      dup6\n        /* \"#utility.yul\":10004:10010   */\n      dup3\n        /* \"#utility.yul\":9993:10002   */\n      dup7\n        /* \"#utility.yul\":9989:10011   */\n      add\n        /* \"#utility.yul\":9968:10021   */\n      tag_410\n      jump\t// in\n    tag_594:\n        /* \"#utility.yul\":9958:10021   */\n      swap2\n      pop\n        /* \"#utility.yul\":9913:10031   */\n      pop\n        /* \"#utility.yul\":9384:10038   */\n      swap3\n      pop\n      swap3\n      swap1\n      pop\n      jump\t// out\n        /* \"#utility.yul\":10044:10182   */\n    tag_411:\n        /* \"#utility.yul\":10135:10141   */\n      0x00\n        /* \"#utility.yul\":10169:10174   */\n      dup2\n        /* \"#utility.yul\":10163:10175   */\n      mload\n        /* \"#utility.yul\":10153:10175   */\n      swap1\n      pop\n        /* \"#utility.yul\":10044:10182   */\n      swap2\n      swap1\n      pop\n      jump\t// out\n        /* \"#utility.yul\":10188:10372   */\n    tag_412:\n        /* \"#utility.yul\":10287:10298   */\n      0x00\n        /* \"#utility.yul\":10321:10327   */\n      dup3\n        /* \"#utility.yul\":10316:10319   */\n      dup3\n        /* \"#utility.yul\":10309:10328   */\n      mstore\n        /* \"#utility.yul\":10361:10365   */\n      0x20\n        /* \"#utility.yul\":10356:10359   */\n      dup3\n        /* \"#utility.yul\":10352:10366   */\n      add\n        /* \"#utility.yul\":10337:10366   */\n      swap1\n      pop\n        /* \"#utility.yul\":10188:10372   */\n      swap3\n      swap2\n      pop\n      pop\n      jump\t// out\n        /* \"#utility.yul\":10378:10534   */\n    tag_413:\n        /* \"#utility.yul\":10469:10473   */\n      0x00\n        /* \"#utility.yul\":10492:10495   */\n      dup2\n        /* \"#utility.yul\":10484:10495   */\n      swap1\n      pop\n        /* \"#utility.yul\":10522:10526   */\n      0x20\n        /* \"#utility.yul\":10517:10520   */\n      dup3\n        /* \"#utility.yul\":10513:10527   */\n      add\n        /* \"#utility.yul\":10505:10527   */\n      swap1\n      pop\n        /* \"#utility.yul\":10378:10534   */\n      swap2\n      swap1\n      pop\n      jump\t// out\n        /* \"#utility.yul\":10540:10600   */\n    tag_414:\n        /* \"#utility.yul\":10568:10571   */\n      0x00\n        /* \"#utility.yul\":10589:10594   */\n      dup2\n        /* \"#utility.yul\":10582:10594   */\n      swap1\n      pop\n        /* \"#utility.yul\":10540:10600   */\n      swap2\n      swap1\n      pop\n      jump\t// out\n        /* \"#utility.yul\":10606:10748   */\n    tag_415:\n        /* \"#utility.yul\":10656:10665   */\n      0x00\n        /* \"#utility.yul\":10689:10742   */\n      tag_600\n        /* \"#utility.yul\":10707:10741   */\n      tag_601\n        /* \"#utility.yul\":10716:10740   */\n      tag_602\n        /* \"#utility.yul\":10734:10739   */\n      dup5\n        /* \"#utility.yul\":10716:10740   */\n      tag_402\n      jump\t// in\n    tag_602:\n        /* \"#utility.yul\":10707:10741   */\n      tag_414\n      jump\t// in\n    tag_601:\n        /* \"#utility.yul\":10689:10742   */\n      tag_402\n      jump\t// in\n    tag_600:\n        /* \"#utility.yul\":10676:10742   */\n      swap1\n      pop\n        /* \"#utility.yul\":10606:10748   */\n      swap2\n      swap1\n      pop\n      jump\t// out\n        /* \"#utility.yul\":10754:10899   */\n    tag_416:\n        /* \"#utility.yul\":10855:10892   */\n      tag_604\n        /* \"#utility.yul\":10886:10891   */\n      dup2\n        /* \"#utility.yul\":10855:10892   */\n      tag_415\n      jump\t// in\n    tag_604:\n        /* \"#utility.yul\":10850:10853   */\n      dup3\n        /* \"#utility.yul\":10843:10893   */\n      mstore\n        /* \"#utility.yul\":10754:10899   */\n      pop\n      pop\n      jump\t// out\n        /* \"#utility.yul\":10905:11132   */\n    tag_417:\n        /* \"#utility.yul\":10998:11008   */\n      0x00\n        /* \"#utility.yul\":11019:11089   */\n      tag_606\n        /* \"#utility.yul\":11085:11088   */\n      dup4\n        /* \"#utility.yul\":11077:11083   */\n      dup4\n        /* \"#utility.yul\":11019:11089   */\n      tag_416\n      jump\t// in\n    tag_606:\n        /* \"#utility.yul\":11121:11125   */\n      0x20\n        /* \"#utility.yul\":11116:11119   */\n      dup4\n        /* \"#utility.yul\":11112:11126   */\n      add\n        /* \"#utility.yul\":11098:11126   */\n      swap1\n      pop\n        /* \"#utility.yul\":10905:11132   */\n      swap3\n      swap2\n      pop\n      pop\n      jump\t// out\n        /* \"#utility.yul\":11138:11275   */\n    tag_418:\n        /* \"#utility.yul\":11232:11236   */\n      0x00\n        /* \"#utility.yul\":11264:11268   */\n      0x20\n        /* \"#utility.yul\":11259:11262   */\n      dup3\n        /* \"#utility.yul\":11255:11269   */\n      add\n        /* \"#utility.yul\":11247:11269   */\n      swap1\n      pop\n        /* \"#utility.yul\":11138:11275   */\n      swap2\n      swap1\n      pop\n      jump\t// out\n        /* \"#utility.yul\":11307:12159   */\n    tag_419:\n        /* \"#utility.yul\":11450:11453   */\n      0x00\n        /* \"#utility.yul\":11479:11557   */\n      tag_609\n        /* \"#utility.yul\":11551:11556   */\n      dup3\n        /* \"#utility.yul\":11479:11557   */\n      tag_411\n      jump\t// in\n    tag_609:\n        /* \"#utility.yul\":11573:11659   */\n      tag_610\n        /* \"#utility.yul\":11652:11658   */\n      dup2\n        /* \"#utility.yul\":11647:11650   */\n      dup6\n        /* \"#utility.yul\":11573:11659   */\n      tag_412\n      jump\t// in\n    tag_610:\n        /* \"#utility.yul\":11566:11659   */\n      swap4\n      pop\n        /* \"#utility.yul\":11683:11763   */\n      tag_611\n        /* \"#utility.yul\":11757:11762   */\n      dup4\n        /* \"#utility.yul\":11683:11763   */\n      tag_413\n      jump\t// in\n    tag_611:\n        /* \"#utility.yul\":11786:11793   */\n      dup1\n        /* \"#utility.yul\":11817:11818   */\n      0x00\n        /* \"#utility.yul\":11802:12134   */\n    tag_612:\n        /* \"#utility.yul\":11827:11833   */\n      dup4\n        /* \"#utility.yul\":11824:11825   */\n      dup2\n        /* \"#utility.yul\":11821:11834   */\n      lt\n        /* \"#utility.yul\":11802:12134   */\n      iszero\n      tag_614\n      jumpi\n        /* \"#utility.yul\":11903:11909   */\n      dup2\n        /* \"#utility.yul\":11897:11910   */\n      mload\n        /* \"#utility.yul\":11930:12017   */\n      tag_615\n        /* \"#utility.yul\":12013:12016   */\n      dup9\n        /* \"#utility.yul\":11998:12011   */\n      dup3\n        /* \"#utility.yul\":11930:12017   */\n      tag_417\n      jump\t// in\n    tag_615:\n        /* \"#utility.yul\":11923:12017   */\n      swap8\n      pop\n        /* \"#utility.yul\":12040:12124   */\n      tag_616\n        /* \"#utility.yul\":12117:12123   */\n      dup4\n        /* \"#utility.yul\":12040:12124   */\n      tag_418\n      jump\t// in\n    tag_616:\n        /* \"#utility.yul\":12030:12124   */\n      swap3\n      pop\n        /* \"#utility.yul\":11862:12134   */\n      pop\n        /* \"#utility.yul\":11849:11850   */\n      0x01\n        /* \"#utility.yul\":11846:11847   */\n      dup2\n        /* \"#utility.yul\":11842:11851   */\n      add\n        /* \"#utility.yul\":11837:11851   */\n      swap1\n      pop\n        /* \"#utility.yul\":11802:12134   */\n      jump(tag_612)\n    tag_614:\n        /* \"#utility.yul\":11806:11820   */\n      pop\n        /* \"#utility.yul\":12150:12153   */\n      dup6\n        /* \"#utility.yul\":12143:12153   */\n      swap4\n      pop\n        /* \"#utility.yul\":11455:12159   */\n      pop\n      pop\n      pop\n        /* \"#utility.yul\":11307:12159   */\n      swap3\n      swap2\n      pop\n      pop\n      jump\t// out\n        /* \"#utility.yul\":12165:12586   */\n    tag_66:\n        /* \"#utility.yul\":12332:12336   */\n      0x00\n        /* \"#utility.yul\":12370:12372   */\n      0x20\n        /* \"#utility.yul\":12359:12368   */\n      dup3\n        /* \"#utility.yul\":12355:12373   */\n      add\n        /* \"#utility.yul\":12347:12373   */\n      swap1\n      pop\n        /* \"#utility.yul\":12419:12428   */\n      dup2\n        /* \"#utility.yul\":12413:12417   */\n      dup2\n        /* \"#utility.yul\":12409:12429   */\n      sub\n        /* \"#utility.yul\":12405:12406   */\n      0x00\n        /* \"#utility.yul\":12394:12403   */\n      dup4\n        /* \"#utility.yul\":12390:12407   */\n      add\n        /* \"#utility.yul\":12383:12430   */\n      mstore\n        /* \"#utility.yul\":12447:12579   */\n      tag_618\n        /* \"#utility.yul\":12574:12578   */\n      dup2\n        /* \"#utility.yul\":12565:12571   */\n      dup5\n        /* \"#utility.yul\":12447:12579   */\n      tag_419\n      jump\t// in\n    tag_618:\n        /* \"#utility.yul\":12439:12579   */\n      swap1\n      pop\n        /* \"#utility.yul\":12165:12586   */\n      swap3\n      swap2\n      pop\n      pop\n      jump\t// out\n        /* \"#utility.yul\":12592:12921   */\n    tag_70:\n        /* \"#utility.yul\":12651:12657   */\n      0x00\n        /* \"#utility.yul\":12700:12702   */\n      0x20\n        /* \"#utility.yul\":12688:12697   */\n      dup3\n        /* \"#utility.yul\":12679:12686   */\n      dup5\n        /* \"#utility.yul\":12675:12698   */\n      sub\n        /* \"#utility.yul\":12671:12703   */\n      slt\n        /* \"#utility.yul\":12668:12787   */\n      iszero\n      tag_620\n      jumpi\n        /* \"#utility.yul\":12706:12785   */\n      tag_621\n      tag_381\n      jump\t// in\n    tag_621:\n        /* \"#utility.yul\":12668:12787   */\n    tag_620:\n        /* \"#utility.yul\":12826:12827   */\n      0x00\n        /* \"#utility.yul\":12851:12904   */\n      tag_622\n        /* \"#utility.yul\":12896:12903   */\n      dup5\n        /* \"#utility.yul\":12887:12893   */\n      dup3\n        /* \"#utility.yul\":12876:12885   */\n      dup6\n        /* \"#utility.yul\":12872:12894   */\n      add\n        /* \"#utility.yul\":12851:12904   */\n      tag_410\n      jump\t// in\n    tag_622:\n        /* \"#utility.yul\":12841:12904   */\n      swap2\n      pop\n        /* \"#utility.yul\":12797:12914   */\n      pop\n        /* \"#utility.yul\":12592:12921   */\n      swap3\n      swap2\n      pop\n      pop\n      jump\t// out\n        /* \"#utility.yul\":12927:13049   */\n    tag_420:\n        /* \"#utility.yul\":13000:13024   */\n      tag_624\n        /* \"#utility.yul\":13018:13023   */\n      dup2\n        /* \"#utility.yul\":13000:13024   */\n      tag_402\n      jump\t// in\n    tag_624:\n        /* \"#utility.yul\":12993:12998   */\n      dup2\n        /* \"#utility.yul\":12990:13025   */\n      eq\n        /* \"#utility.yul\":12980:13043   */\n      tag_625\n      jumpi\n        /* \"#utility.yul\":13039:13040   */\n      0x00\n        /* \"#utility.yul\":13036:13037   */\n      dup1\n        /* \"#utility.yul\":13029:13041   */\n      revert\n        /* \"#utility.yul\":12980:13043   */\n    tag_625:\n        /* \"#utility.yul\":12927:13049   */\n      pop\n      jump\t// out\n        /* \"#utility.yul\":13055:13194   */\n    tag_421:\n        /* \"#utility.yul\":13101:13106   */\n      0x00\n        /* \"#utility.yul\":13139:13145   */\n      dup2\n        /* \"#utility.yul\":13126:13146   */\n      calldataload\n        /* \"#utility.yul\":13117:13146   */\n      swap1\n      pop\n        /* \"#utility.yul\":13155:13188   */\n      tag_627\n        /* \"#utility.yul\":13182:13187   */\n      dup2\n        /* \"#utility.yul\":13155:13188   */\n      tag_420\n      jump\t// in\n    tag_627:\n        /* \"#utility.yul\":13055:13194   */\n      swap3\n      swap2\n      pop\n      pop\n      jump\t// out\n        /* \"#utility.yul\":13200:14193   */\n    tag_79:\n        /* \"#utility.yul\":13320:13326   */\n      0x00\n        /* \"#utility.yul\":13328:13334   */\n      dup1\n        /* \"#utility.yul\":13336:13342   */\n      0x00\n        /* \"#utility.yul\":13344:13350   */\n      dup1\n        /* \"#utility.yul\":13393:13396   */\n      0x80\n        /* \"#utility.yul\":13381:13390   */\n      dup6\n        /* \"#utility.yul\":13372:13379   */\n      dup8\n        /* \"#utility.yul\":13368:13391   */\n      sub\n        /* \"#utility.yul\":13364:13397   */\n      slt\n        /* \"#utility.yul\":13361:13481   */\n      iszero\n      tag_629\n      jumpi\n        /* \"#utility.yul\":13400:13479   */\n      tag_630\n      tag_381\n      jump\t// in\n    tag_630:\n        /* \"#utility.yul\":13361:13481   */\n    tag_629:\n        /* \"#utility.yul\":13548:13549   */\n      0x00\n        /* \"#utility.yul\":13537:13546   */\n      dup6\n        /* \"#utility.yul\":13533:13550   */\n      add\n        /* \"#utility.yul\":13520:13551   */\n      calldataload\n        /* \"#utility.yul\":13578:13596   */\n      0xffffffffffffffff\n        /* \"#utility.yul\":13570:13576   */\n      dup2\n        /* \"#utility.yul\":13567:13597   */\n      gt\n        /* \"#utility.yul\":13564:13681   */\n      iszero\n      tag_631\n      jumpi\n        /* \"#utility.yul\":13600:13679   */\n      tag_632\n      tag_382\n      jump\t// in\n    tag_632:\n        /* \"#utility.yul\":13564:13681   */\n    tag_631:\n        /* \"#utility.yul\":13705:13768   */\n      tag_633\n        /* \"#utility.yul\":13760:13767   */\n      dup8\n        /* \"#utility.yul\":13751:13757   */\n      dup3\n        /* \"#utility.yul\":13740:13749   */\n      dup9\n        /* \"#utility.yul\":13736:13758   */\n      add\n        /* \"#utility.yul\":13705:13768   */\n      tag_391\n      jump\t// in\n    tag_633:\n        /* \"#utility.yul\":13695:13768   */\n      swap5\n      pop\n        /* \"#utility.yul\":13491:13778   */\n      pop\n        /* \"#utility.yul\":13817:13819   */\n      0x20\n        /* \"#utility.yul\":13843:13896   */\n      tag_634\n        /* \"#utility.yul\":13888:13895   */\n      dup8\n        /* \"#utility.yul\":13879:13885   */\n      dup3\n        /* \"#utility.yul\":13868:13877   */\n      dup9\n        /* \"#utility.yul\":13864:13886   */\n      add\n        /* \"#utility.yul\":13843:13896   */\n      tag_410\n      jump\t// in\n    tag_634:\n        /* \"#utility.yul\":13833:13896   */\n      swap4\n      pop\n        /* \"#utility.yul\":13788:13906   */\n      pop\n        /* \"#utility.yul\":13945:13947   */\n      0x40\n        /* \"#utility.yul\":13971:14024   */\n      tag_635\n        /* \"#utility.yul\":14016:14023   */\n      dup8\n        /* \"#utility.yul\":14007:14013   */\n      dup3\n        /* \"#utility.yul\":13996:14005   */\n      dup9\n        /* \"#utility.yul\":13992:14014   */\n      add\n        /* \"#utility.yul\":13971:14024   */\n      tag_421\n      jump\t// in\n    tag_635:\n        /* \"#utility.yul\":13961:14024   */\n      swap3\n      pop\n        /* \"#utility.yul\":13916:14034   */\n      pop\n        /* \"#utility.yul\":14073:14075   */\n      0x60\n        /* \"#utility.yul\":14099:14176   */\n      tag_636\n        /* \"#utility.yul\":14168:14175   */\n      dup8\n        /* \"#utility.yul\":14159:14165   */\n      dup3\n        /* \"#utility.yul\":14148:14157   */\n      dup9\n        /* \"#utility.yul\":14144:14166   */\n      add\n        /* \"#utility.yul\":14099:14176   */\n      tag_404\n      jump\t// in\n    tag_636:\n        /* \"#utility.yul\":14089:14176   */\n      swap2\n      pop\n        /* \"#utility.yul\":14044:14186   */\n      pop\n        /* \"#utility.yul\":13200:14193   */\n      swap3\n      swap6\n      swap2\n      swap5\n      pop\n      swap3\n      pop\n      jump\t// out\n        /* \"#utility.yul\":14199:14721   */\n    tag_84:\n        /* \"#utility.yul\":14291:14297   */\n      0x00\n        /* \"#utility.yul\":14299:14305   */\n      dup1\n        /* \"#utility.yul\":14348:14350   */\n      0x40\n        /* \"#utility.yul\":14336:14345   */\n      dup4\n        /* \"#utility.yul\":14327:14334   */\n      dup6\n        /* \"#utility.yul\":14323:14346   */\n      sub\n        /* \"#utility.yul\":14319:14351   */\n      slt\n        /* \"#utility.yul\":14316:14435   */\n      iszero\n      tag_638\n      jumpi\n        /* \"#utility.yul\":14354:14433   */\n      tag_639\n      tag_381\n      jump\t// in\n    tag_639:\n        /* \"#utility.yul\":14316:14435   */\n    tag_638:\n        /* \"#utility.yul\":14474:14475   */\n      0x00\n        /* \"#utility.yul\":14499:14576   */\n      tag_640\n        /* \"#utility.yul\":14568:14575   */\n      dup6\n        /* \"#utility.yul\":14559:14565   */\n      dup3\n        /* \"#utility.yul\":14548:14557   */\n      dup7\n        /* \"#utility.yul\":14544:14566   */\n      add\n        /* \"#utility.yul\":14499:14576   */\n      tag_404\n      jump\t// in\n    tag_640:\n        /* \"#utility.yul\":14489:14576   */\n      swap3\n      pop\n        /* \"#utility.yul\":14445:14586   */\n      pop\n        /* \"#utility.yul\":14625:14627   */\n      0x20\n        /* \"#utility.yul\":14651:14704   */\n      tag_641\n        /* \"#utility.yul\":14696:14703   */\n      dup6\n        /* \"#utility.yul\":14687:14693   */\n      dup3\n        /* \"#utility.yul\":14676:14685   */\n      dup7\n        /* \"#utility.yul\":14672:14694   */\n      add\n        /* \"#utility.yul\":14651:14704   */\n      tag_410\n      jump\t// in\n    tag_641:\n        /* \"#utility.yul\":14641:14704   */\n      swap2\n      pop\n        /* \"#utility.yul\":14596:14714   */\n      pop\n        /* \"#utility.yul\":14199:14721   */\n      swap3\n      pop\n      swap3\n      swap1\n      pop\n      jump\t// out\n        /* \"#utility.yul\":14727:14845   */\n    tag_422:\n        /* \"#utility.yul\":14814:14838   */\n      tag_643\n        /* \"#utility.yul\":14832:14837   */\n      dup2\n        /* \"#utility.yul\":14814:14838   */\n      tag_402\n      jump\t// in\n    tag_643:\n        /* \"#utility.yul\":14809:14812   */\n      dup3\n        /* \"#utility.yul\":14802:14839   */\n      mstore\n        /* \"#utility.yul\":14727:14845   */\n      pop\n      pop\n      jump\t// out\n        /* \"#utility.yul\":14851:15073   */\n    tag_101:\n        /* \"#utility.yul\":14944:14948   */\n      0x00\n        /* \"#utility.yul\":14982:14984   */\n      0x20\n        /* \"#utility.yul\":14971:14980   */\n      dup3\n        /* \"#utility.yul\":14967:14985   */\n      add\n        /* \"#utility.yul\":14959:14985   */\n      swap1\n      pop\n        /* \"#utility.yul\":14995:15066   */\n      tag_645\n        /* \"#utility.yul\":15063:15064   */\n      0x00\n        /* \"#utility.yul\":15052:15061   */\n      dup4\n        /* \"#utility.yul\":15048:15065   */\n      add\n        /* \"#utility.yul\":15039:15045   */\n      dup5\n        /* \"#utility.yul\":14995:15066   */\n      tag_422\n      jump\t// in\n    tag_645:\n        /* \"#utility.yul\":14851:15073   */\n      swap3\n      swap2\n      pop\n      pop\n      jump\t// out\n        /* \"#utility.yul\":15079:16076   */\n    tag_105:\n        /* \"#utility.yul\":15177:15183   */\n      0x00\n        /* \"#utility.yul\":15185:15191   */\n      dup1\n        /* \"#utility.yul\":15193:15199   */\n      0x00\n        /* \"#utility.yul\":15201:15207   */\n      dup1\n        /* \"#utility.yul\":15250:15252   */\n      0x60\n        /* \"#utility.yul\":15238:15247   */\n      dup6\n        /* \"#utility.yul\":15229:15236   */\n      dup8\n        /* \"#utility.yul\":15225:15248   */\n      sub\n        /* \"#utility.yul\":15221:15253   */\n      slt\n        /* \"#utility.yul\":15218:15337   */\n      iszero\n      tag_647\n      jumpi\n        /* \"#utility.yul\":15256:15335   */\n      tag_648\n      tag_381\n      jump\t// in\n    tag_648:\n        /* \"#utility.yul\":15218:15337   */\n    tag_647:\n        /* \"#utility.yul\":15376:15377   */\n      0x00\n        /* \"#utility.yul\":15401:15454   */\n      tag_649\n        /* \"#utility.yul\":15446:15453   */\n      dup8\n        /* \"#utility.yul\":15437:15443   */\n      dup3\n        /* \"#utility.yul\":15426:15435   */\n      dup9\n        /* \"#utility.yul\":15422:15444   */\n      add\n        /* \"#utility.yul\":15401:15454   */\n      tag_410\n      jump\t// in\n    tag_649:\n        /* \"#utility.yul\":15391:15454   */\n      swap5\n      pop\n        /* \"#utility.yul\":15347:15464   */\n      pop\n        /* \"#utility.yul\":15531:15533   */\n      0x20\n        /* \"#utility.yul\":15520:15529   */\n      dup6\n        /* \"#utility.yul\":15516:15534   */\n      add\n        /* \"#utility.yul\":15503:15535   */\n      calldataload\n        /* \"#utility.yul\":15562:15580   */\n      0xffffffffffffffff\n        /* \"#utility.yul\":15554:15560   */\n      dup2\n        /* \"#utility.yul\":15551:15581   */\n      gt\n        /* \"#utility.yul\":15548:15665   */\n      iszero\n      tag_650\n      jumpi\n        /* \"#utility.yul\":15584:15663   */\n      tag_651\n      tag_382\n      jump\t// in\n    tag_651:\n        /* \"#utility.yul\":15548:15665   */\n    tag_650:\n        /* \"#utility.yul\":15689:15752   */\n      tag_652\n        /* \"#utility.yul\":15744:15751   */\n      dup8\n        /* \"#utility.yul\":15735:15741   */\n      dup3\n        /* \"#utility.yul\":15724:15733   */\n      dup9\n        /* \"#utility.yul\":15720:15742   */\n      add\n        /* \"#utility.yul\":15689:15752   */\n      tag_391\n      jump\t// in\n    tag_652:\n        /* \"#utility.yul\":15679:15752   */\n      swap4\n      pop\n        /* \"#utility.yul\":15474:15762   */\n      pop\n        /* \"#utility.yul\":15829:15831   */\n      0x40\n        /* \"#utility.yul\":15818:15827   */\n      dup6\n        /* \"#utility.yul\":15814:15832   */\n      add\n        /* \"#utility.yul\":15801:15833   */\n      calldataload\n        /* \"#utility.yul\":15860:15878   */\n      0xffffffffffffffff\n        /* \"#utility.yul\":15852:15858   */\n      dup2\n        /* \"#utility.yul\":15849:15879   */\n      gt\n        /* \"#utility.yul\":15846:15963   */\n      iszero\n      tag_653\n      jumpi\n        /* \"#utility.yul\":15882:15961   */\n      tag_654\n      tag_382\n      jump\t// in\n    tag_654:\n        /* \"#utility.yul\":15846:15963   */\n    tag_653:\n        /* \"#utility.yul\":15995:16059   */\n      tag_655\n        /* \"#utility.yul\":16051:16058   */\n      dup8\n        /* \"#utility.yul\":16042:16048   */\n      dup3\n        /* \"#utility.yul\":16031:16040   */\n      dup9\n        /* \"#utility.yul\":16027:16049   */\n      add\n        /* \"#utility.yul\":15995:16059   */\n      tag_394\n      jump\t// in\n    tag_655:\n        /* \"#utility.yul\":15977:16059   */\n      swap3\n      pop\n      swap3\n      pop\n        /* \"#utility.yul\":15772:16069   */\n      pop\n        /* \"#utility.yul\":15079:16076   */\n      swap3\n      swap6\n      swap2\n      swap5\n      pop\n      swap3\n      pop\n      jump\t// out\n        /* \"#utility.yul\":16082:16172   */\n    tag_423:\n        /* \"#utility.yul\":16116:16123   */\n      0x00\n        /* \"#utility.yul\":16159:16164   */\n      dup2\n        /* \"#utility.yul\":16152:16165   */\n      iszero\n        /* \"#utility.yul\":16145:16166   */\n      iszero\n        /* \"#utility.yul\":16134:16166   */\n      swap1\n      pop\n        /* \"#utility.yul\":16082:16172   */\n      swap2\n      swap1\n      pop\n      jump\t// out\n        /* \"#utility.yul\":16178:16287   */\n    tag_424:\n        /* \"#utility.yul\":16259:16280   */\n      tag_658\n        /* \"#utility.yul\":16274:16279   */\n      dup2\n        /* \"#utility.yul\":16259:16280   */\n      tag_423\n      jump\t// in\n    tag_658:\n        /* \"#utility.yul\":16254:16257   */\n      dup3\n        /* \"#utility.yul\":16247:16281   */\n      mstore\n        /* \"#utility.yul\":16178:16287   */\n      pop\n      pop\n      jump\t// out\n        /* \"#utility.yul\":16293:16503   */\n    tag_108:\n        /* \"#utility.yul\":16380:16384   */\n      0x00\n        /* \"#utility.yul\":16418:16420   */\n      0x20\n        /* \"#utility.yul\":16407:16416   */\n      dup3\n        /* \"#utility.yul\":16403:16421   */\n      add\n        /* \"#utility.yul\":16395:16421   */\n      swap1\n      pop\n        /* \"#utility.yul\":16431:16496   */\n      tag_660\n        /* \"#utility.yul\":16493:16494   */\n      0x00\n        /* \"#utility.yul\":16482:16491   */\n      dup4\n        /* \"#utility.yul\":16478:16495   */\n      add\n        /* \"#utility.yul\":16469:16475   */\n      dup5\n        /* \"#utility.yul\":16431:16496   */\n      tag_424\n      jump\t// in\n    tag_660:\n        /* \"#utility.yul\":16293:16503   */\n      swap3\n      swap2\n      pop\n      pop\n      jump\t// out\n        /* \"#utility.yul\":16509:17229   */\n    tag_115:\n        /* \"#utility.yul\":16612:16618   */\n      0x00\n        /* \"#utility.yul\":16620:16626   */\n      dup1\n        /* \"#utility.yul\":16628:16634   */\n      0x00\n        /* \"#utility.yul\":16677:16679   */\n      0x40\n        /* \"#utility.yul\":16665:16674   */\n      dup5\n        /* \"#utility.yul\":16656:16663   */\n      dup7\n        /* \"#utility.yul\":16652:16675   */\n      sub\n        /* \"#utility.yul\":16648:16680   */\n      slt\n        /* \"#utility.yul\":16645:16764   */\n      iszero\n      tag_662\n      jumpi\n        /* \"#utility.yul\":16683:16762   */\n      tag_663\n      tag_381\n      jump\t// in\n    tag_663:\n        /* \"#utility.yul\":16645:16764   */\n    tag_662:\n        /* \"#utility.yul\":16803:16804   */\n      0x00\n        /* \"#utility.yul\":16828:16905   */\n      tag_664\n        /* \"#utility.yul\":16897:16904   */\n      dup7\n        /* \"#utility.yul\":16888:16894   */\n      dup3\n        /* \"#utility.yul\":16877:16886   */\n      dup8\n        /* \"#utility.yul\":16873:16895   */\n      add\n        /* \"#utility.yul\":16828:16905   */\n      tag_404\n      jump\t// in\n    tag_664:\n        /* \"#utility.yul\":16818:16905   */\n      swap4\n      pop\n        /* \"#utility.yul\":16774:16915   */\n      pop\n        /* \"#utility.yul\":16982:16984   */\n      0x20\n        /* \"#utility.yul\":16971:16980   */\n      dup5\n        /* \"#utility.yul\":16967:16985   */\n      add\n        /* \"#utility.yul\":16954:16986   */\n      calldataload\n        /* \"#utility.yul\":17013:17031   */\n      0xffffffffffffffff\n        /* \"#utility.yul\":17005:17011   */\n      dup2\n        /* \"#utility.yul\":17002:17032   */\n      gt\n        /* \"#utility.yul\":16999:17116   */\n      iszero\n      tag_665\n      jumpi\n        /* \"#utility.yul\":17035:17114   */\n      tag_666\n      tag_382\n      jump\t// in\n    tag_666:\n        /* \"#utility.yul\":16999:17116   */\n    tag_665:\n        /* \"#utility.yul\":17148:17212   */\n      tag_667\n        /* \"#utility.yul\":17204:17211   */\n      dup7\n        /* \"#utility.yul\":17195:17201   */\n      dup3\n        /* \"#utility.yul\":17184:17193   */\n      dup8\n        /* \"#utility.yul\":17180:17202   */\n      add\n        /* \"#utility.yul\":17148:17212   */\n      tag_394\n      jump\t// in\n    tag_667:\n        /* \"#utility.yul\":17130:17212   */\n      swap3\n      pop\n      swap3\n      pop\n        /* \"#utility.yul\":16925:17222   */\n      pop\n        /* \"#utility.yul\":16509:17229   */\n      swap3\n      pop\n      swap3\n      pop\n      swap3\n      jump\t// out\n        /* \"#utility.yul\":17235:18100   */\n    tag_120:\n        /* \"#utility.yul\":17347:17353   */\n      0x00\n        /* \"#utility.yul\":17355:17361   */\n      dup1\n        /* \"#utility.yul\":17363:17369   */\n      0x00\n        /* \"#utility.yul\":17371:17377   */\n      dup1\n        /* \"#utility.yul\":17420:17422   */\n      0x60\n        /* \"#utility.yul\":17408:17417   */\n      dup6\n        /* \"#utility.yul\":17399:17406   */\n      dup8\n        /* \"#utility.yul\":17395:17418   */\n      sub\n        /* \"#utility.yul\":17391:17423   */\n      slt\n        /* \"#utility.yul\":17388:17507   */\n      iszero\n      tag_669\n      jumpi\n        /* \"#utility.yul\":17426:17505   */\n      tag_670\n      tag_381\n      jump\t// in\n    tag_670:\n        /* \"#utility.yul\":17388:17507   */\n    tag_669:\n        /* \"#utility.yul\":17546:17547   */\n      0x00\n        /* \"#utility.yul\":17571:17624   */\n      tag_671\n        /* \"#utility.yul\":17616:17623   */\n      dup8\n        /* \"#utility.yul\":17607:17613   */\n      dup3\n        /* \"#utility.yul\":17596:17605   */\n      dup9\n        /* \"#utility.yul\":17592:17614   */\n      add\n        /* \"#utility.yul\":17571:17624   */\n      tag_410\n      jump\t// in\n    tag_671:\n        /* \"#utility.yul\":17561:17624   */\n      swap5\n      pop\n        /* \"#utility.yul\":17517:17634   */\n      pop\n        /* \"#utility.yul\":17673:17675   */\n      0x20\n        /* \"#utility.yul\":17699:17776   */\n      tag_672\n        /* \"#utility.yul\":17768:17775   */\n      dup8\n        /* \"#utility.yul\":17759:17765   */\n      dup3\n        /* \"#utility.yul\":17748:17757   */\n      dup9\n        /* \"#utility.yul\":17744:17766   */\n      add\n        /* \"#utility.yul\":17699:17776   */\n      tag_404\n      jump\t// in\n    tag_672:\n        /* \"#utility.yul\":17689:17776   */\n      swap4\n      pop\n        /* \"#utility.yul\":17644:17786   */\n      pop\n        /* \"#utility.yul\":17853:17855   */\n      0x40\n        /* \"#utility.yul\":17842:17851   */\n      dup6\n        /* \"#utility.yul\":17838:17856   */\n      add\n        /* \"#utility.yul\":17825:17857   */\n      calldataload\n        /* \"#utility.yul\":17884:17902   */\n      0xffffffffffffffff\n        /* \"#utility.yul\":17876:17882   */\n      dup2\n        /* \"#utility.yul\":17873:17903   */\n      gt\n        /* \"#utility.yul\":17870:17987   */\n      iszero\n      tag_673\n      jumpi\n        /* \"#utility.yul\":17906:17985   */\n      tag_674\n      tag_382\n      jump\t// in\n    tag_674:\n        /* \"#utility.yul\":17870:17987   */\n    tag_673:\n        /* \"#utility.yul\":18019:18083   */\n      tag_675\n        /* \"#utility.yul\":18075:18082   */\n      dup8\n        /* \"#utility.yul\":18066:18072   */\n      dup3\n        /* \"#utility.yul\":18055:18064   */\n      dup9\n        /* \"#utility.yul\":18051:18073   */\n      add\n        /* \"#utility.yul\":18019:18083   */\n      tag_394\n      jump\t// in\n    tag_675:\n        /* \"#utility.yul\":18001:18083   */\n      swap3\n      pop\n      swap3\n      pop\n        /* \"#utility.yul\":17796:18093   */\n      pop\n        /* \"#utility.yul\":17235:18100   */\n      swap3\n      swap6\n      swap2\n      swap5\n      pop\n      swap3\n      pop\n      jump\t// out\n        /* \"#utility.yul\":18106:19605   */\n    tag_126:\n        /* \"#utility.yul\":18263:18269   */\n      0x00\n        /* \"#utility.yul\":18271:18277   */\n      dup1\n        /* \"#utility.yul\":18279:18285   */\n      0x00\n        /* \"#utility.yul\":18287:18293   */\n      dup1\n        /* \"#utility.yul\":18295:18301   */\n      0x00\n        /* \"#utility.yul\":18303:18309   */\n      dup1\n        /* \"#utility.yul\":18311:18317   */\n      0x00\n        /* \"#utility.yul\":18360:18363   */\n      0xc0\n        /* \"#utility.yul\":18348:18357   */\n      dup9\n        /* \"#utility.yul\":18339:18346   */\n      dup11\n        /* \"#utility.yul\":18335:18358   */\n      sub\n        /* \"#utility.yul\":18331:18364   */\n      slt\n        /* \"#utility.yul\":18328:18448   */\n      iszero\n      tag_677\n      jumpi\n        /* \"#utility.yul\":18367:18446   */\n      tag_678\n      tag_381\n      jump\t// in\n    tag_678:\n        /* \"#utility.yul\":18328:18448   */\n    tag_677:\n        /* \"#utility.yul\":18515:18516   */\n      0x00\n        /* \"#utility.yul\":18504:18513   */\n      dup9\n        /* \"#utility.yul\":18500:18517   */\n      add\n        /* \"#utility.yul\":18487:18518   */\n      calldataload\n        /* \"#utility.yul\":18545:18563   */\n      0xffffffffffffffff\n        /* \"#utility.yul\":18537:18543   */\n      dup2\n        /* \"#utility.yul\":18534:18564   */\n      gt\n        /* \"#utility.yul\":18531:18648   */\n      iszero\n      tag_679\n      jumpi\n        /* \"#utility.yul\":18567:18646   */\n      tag_680\n      tag_382\n      jump\t// in\n    tag_680:\n        /* \"#utility.yul\":18531:18648   */\n    tag_679:\n        /* \"#utility.yul\":18672:18735   */\n      tag_681\n        /* \"#utility.yul\":18727:18734   */\n      dup11\n        /* \"#utility.yul\":18718:18724   */\n      dup3\n        /* \"#utility.yul\":18707:18716   */\n      dup12\n        /* \"#utility.yul\":18703:18725   */\n      add\n        /* \"#utility.yul\":18672:18735   */\n      tag_391\n      jump\t// in\n    tag_681:\n        /* \"#utility.yul\":18662:18735   */\n      swap8\n      pop\n        /* \"#utility.yul\":18458:18745   */\n      pop\n        /* \"#utility.yul\":18784:18786   */\n      0x20\n        /* \"#utility.yul\":18810:18871   */\n      tag_682\n        /* \"#utility.yul\":18863:18870   */\n      dup11\n        /* \"#utility.yul\":18854:18860   */\n      dup3\n        /* \"#utility.yul\":18843:18852   */\n      dup12\n        /* \"#utility.yul\":18839:18861   */\n      add\n        /* \"#utility.yul\":18810:18871   */\n      tag_408\n      jump\t// in\n    tag_682:\n        /* \"#utility.yul\":18800:18871   */\n      swap7\n      pop\n        /* \"#utility.yul\":18755:18881   */\n      pop\n        /* \"#utility.yul\":18948:18950   */\n      0x40\n        /* \"#utility.yul\":18937:18946   */\n      dup9\n        /* \"#utility.yul\":18933:18951   */\n      add\n        /* \"#utility.yul\":18920:18952   */\n      calldataload\n        /* \"#utility.yul\":18979:18997   */\n      0xffffffffffffffff\n        /* \"#utility.yul\":18971:18977   */\n      dup2\n        /* \"#utility.yul\":18968:18998   */\n      gt\n        /* \"#utility.yul\":18965:19082   */\n      iszero\n      tag_683\n      jumpi\n        /* \"#utility.yul\":19001:19080   */\n      tag_684\n      tag_382\n      jump\t// in\n    tag_684:\n        /* \"#utility.yul\":18965:19082   */\n    tag_683:\n        /* \"#utility.yul\":19114:19178   */\n      tag_685\n        /* \"#utility.yul\":19170:19177   */\n      dup11\n        /* \"#utility.yul\":19161:19167   */\n      dup3\n        /* \"#utility.yul\":19150:19159   */\n      dup12\n        /* \"#utility.yul\":19146:19168   */\n      add\n        /* \"#utility.yul\":19114:19178   */\n      tag_394\n      jump\t// in\n    tag_685:\n        /* \"#utility.yul\":19096:19178   */\n      swap6\n      pop\n      swap6\n      pop\n        /* \"#utility.yul\":18891:19188   */\n      pop\n        /* \"#utility.yul\":19227:19229   */\n      0x60\n        /* \"#utility.yul\":19253:19306   */\n      tag_686\n        /* \"#utility.yul\":19298:19305   */\n      dup11\n        /* \"#utility.yul\":19289:19295   */\n      dup3\n        /* \"#utility.yul\":19278:19287   */\n      dup12\n        /* \"#utility.yul\":19274:19296   */\n      add\n        /* \"#utility.yul\":19253:19306   */\n      tag_410\n      jump\t// in\n    tag_686:\n        /* \"#utility.yul\":19243:19306   */\n      swap4\n      pop\n        /* \"#utility.yul\":19198:19316   */\n      pop\n        /* \"#utility.yul\":19355:19358   */\n      0x80\n        /* \"#utility.yul\":19382:19435   */\n      tag_687\n        /* \"#utility.yul\":19427:19434   */\n      dup11\n        /* \"#utility.yul\":19418:19424   */\n      dup3\n        /* \"#utility.yul\":19407:19416   */\n      dup12\n        /* \"#utility.yul\":19403:19425   */\n      add\n        /* \"#utility.yul\":19382:19435   */\n      tag_421\n      jump\t// in\n    tag_687:\n        /* \"#utility.yul\":19372:19435   */\n      swap3\n      pop\n        /* \"#utility.yul\":19326:19445   */\n      pop\n        /* \"#utility.yul\":19484:19487   */\n      0xa0\n        /* \"#utility.yul\":19511:19588   */\n      tag_688\n        /* \"#utility.yul\":19580:19587   */\n      dup11\n        /* \"#utility.yul\":19571:19577   */\n      dup3\n        /* \"#utility.yul\":19560:19569   */\n      dup12\n        /* \"#utility.yul\":19556:19578   */\n      add\n        /* \"#utility.yul\":19511:19588   */\n      tag_404\n      jump\t// in\n    tag_688:\n        /* \"#utility.yul\":19501:19588   */\n      swap2\n      pop\n        /* \"#utility.yul\":19455:19598   */\n      pop\n        /* \"#utility.yul\":18106:19605   */\n      swap3\n      swap6\n      swap9\n      swap2\n      swap5\n      swap8\n      pop\n      swap3\n      swap6\n      pop\n      jump\t// out\n        /* \"#utility.yul\":19611:19778   */\n    tag_425:\n        /* \"#utility.yul\":19751:19770   */\n      0x696e76616c6964207369676e6174757265000000000000000000000000000000\n        /* \"#utility.yul\":19747:19748   */\n      0x00\n        /* \"#utility.yul\":19739:19745   */\n      dup3\n        /* \"#utility.yul\":19735:19749   */\n      add\n        /* \"#utility.yul\":19728:19771   */\n      mstore\n        /* \"#utility.yul\":19611:19778   */\n      pop\n      jump\t// out\n        /* \"#utility.yul\":19784:20150   */\n    tag_426:\n        /* \"#utility.yul\":19926:19929   */\n      0x00\n        /* \"#utility.yul\":19947:20014   */\n      tag_691\n        /* \"#utility.yul\":20011:20013   */\n      0x11\n        /* \"#utility.yul\":20006:20009   */\n      dup4\n        /* \"#utility.yul\":19947:20014   */\n      tag_399\n      jump\t// in\n    tag_691:\n        /* \"#utility.yul\":19940:20014   */\n      swap2\n      pop\n        /* \"#utility.yul\":20023:20116   */\n      tag_692\n        /* \"#utility.yul\":20112:20115   */\n      dup3\n        /* \"#utility.yul\":20023:20116   */\n      tag_425\n      jump\t// in\n    tag_692:\n        /* \"#utility.yul\":20141:20143   */\n      0x20\n        /* \"#utility.yul\":20136:20139   */\n      dup3\n        /* \"#utility.yul\":20132:20144   */\n      add\n        /* \"#utility.yul\":20125:20144   */\n      swap1\n      pop\n        /* \"#utility.yul\":19784:20150   */\n      swap2\n      swap1\n      pop\n      jump\t// out\n        /* \"#utility.yul\":20156:20575   */\n    tag_135:\n        /* \"#utility.yul\":20322:20326   */\n      0x00\n        /* \"#utility.yul\":20360:20362   */\n      0x20\n        /* \"#utility.yul\":20349:20358   */\n      dup3\n        /* \"#utility.yul\":20345:20363   */\n      add\n        /* \"#utility.yul\":20337:20363   */\n      swap1\n      pop\n        /* \"#utility.yul\":20409:20418   */\n      dup2\n        /* \"#utility.yul\":20403:20407   */\n      dup2\n        /* \"#utility.yul\":20399:20419   */\n      sub\n        /* \"#utility.yul\":20395:20396   */\n      0x00\n        /* \"#utility.yul\":20384:20393   */\n      dup4\n        /* \"#utility.yul\":20380:20397   */\n      add\n        /* \"#utility.yul\":20373:20420   */\n      mstore\n        /* \"#utility.yul\":20437:20568   */\n      tag_694\n        /* \"#utility.yul\":20563:20567   */\n      dup2\n        /* \"#utility.yul\":20437:20568   */\n      tag_426\n      jump\t// in\n    tag_694:\n        /* \"#utility.yul\":20429:20568   */\n      swap1\n      pop\n        /* \"#utility.yul\":20156:20575   */\n      swap2\n      swap1\n      pop\n      jump\t// out\n        /* \"#utility.yul\":20581:20752   */\n    tag_427:\n        /* \"#utility.yul\":20721:20744   */\n      0x6c6963656e736520646f65736e27742065786973740000000000000000000000\n        /* \"#utility.yul\":20717:20718   */\n      0x00\n        /* \"#utility.yul\":20709:20715   */\n      dup3\n        /* \"#utility.yul\":20705:20719   */\n      add\n        /* \"#utility.yul\":20698:20745   */\n      mstore\n        /* \"#utility.yul\":20581:20752   */\n      pop\n      jump\t// out\n        /* \"#utility.yul\":20758:21124   */\n    tag_428:\n        /* \"#utility.yul\":20900:20903   */\n      0x00\n        /* \"#utility.yul\":20921:20988   */\n      tag_697\n        /* \"#utility.yul\":20985:20987   */\n      0x15\n        /* \"#utility.yul\":20980:20983   */\n      dup4\n        /* \"#utility.yul\":20921:20988   */\n      tag_399\n      jump\t// in\n    tag_697:\n        /* \"#utility.yul\":20914:20988   */\n      swap2\n      pop\n        /* \"#utility.yul\":20997:21090   */\n      tag_698\n        /* \"#utility.yul\":21086:21089   */\n      dup3\n        /* \"#utility.yul\":20997:21090   */\n      tag_427\n      jump\t// in\n    tag_698:\n        /* \"#utility.yul\":21115:21117   */\n      0x20\n        /* \"#utility.yul\":21110:21113   */\n      dup3\n        /* \"#utility.yul\":21106:21118   */\n      add\n        /* \"#utility.yul\":21099:21118   */\n      swap1\n      pop\n        /* \"#utility.yul\":20758:21124   */\n      swap2\n      swap1\n      pop\n      jump\t// out\n        /* \"#utility.yul\":21130:21549   */\n    tag_141:\n        /* \"#utility.yul\":21296:21300   */\n      0x00\n        /* \"#utility.yul\":21334:21336   */\n      0x20\n        /* \"#utility.yul\":21323:21332   */\n      dup3\n        /* \"#utility.yul\":21319:21337   */\n      add\n        /* \"#utility.yul\":21311:21337   */\n      swap1\n      pop\n        /* \"#utility.yul\":21383:21392   */\n      dup2\n        /* \"#utility.yul\":21377:21381   */\n      dup2\n        /* \"#utility.yul\":21373:21393   */\n      sub\n        /* \"#utility.yul\":21369:21370   */\n      0x00\n        /* \"#utility.yul\":21358:21367   */\n      dup4\n        /* \"#utility.yul\":21354:21371   */\n      add\n        /* \"#utility.yul\":21347:21394   */\n      mstore\n        /* \"#utility.yul\":21411:21542   */\n      tag_700\n        /* \"#utility.yul\":21537:21541   */\n      dup2\n        /* \"#utility.yul\":21411:21542   */\n      tag_428\n      jump\t// in\n    tag_700:\n        /* \"#utility.yul\":21403:21542   */\n      swap1\n      pop\n        /* \"#utility.yul\":21130:21549   */\n      swap2\n      swap1\n      pop\n      jump\t// out\n        /* \"#utility.yul\":21555:21735   */\n    tag_429:\n        /* \"#utility.yul\":21603:21680   */\n      0x4e487b7100000000000000000000000000000000000000000000000000000000\n        /* \"#utility.yul\":21600:21601   */\n      0x00\n        /* \"#utility.yul\":21593:21681   */\n      mstore\n        /* \"#utility.yul\":21700:21704   */\n      0x22\n        /* \"#utility.yul\":21697:21698   */\n      0x04\n        /* \"#utility.yul\":21690:21705   */\n      mstore\n        /* \"#utility.yul\":21724:21728   */\n      0x24\n        /* \"#utility.yul\":21721:21722   */\n      0x00\n        /* \"#utility.yul\":21714:21729   */\n      revert\n        /* \"#utility.yul\":21741:22061   */\n    tag_168:\n        /* \"#utility.yul\":21785:21791   */\n      0x00\n        /* \"#utility.yul\":21822:21823   */\n      0x02\n        /* \"#utility.yul\":21816:21820   */\n      dup3\n        /* \"#utility.yul\":21812:21824   */\n      div\n        /* \"#utility.yul\":21802:21824   */\n      swap1\n      pop\n        /* \"#utility.yul\":21869:21870   */\n      0x01\n        /* \"#utility.yul\":21863:21867   */\n      dup3\n        /* \"#utility.yul\":21859:21871   */\n      and\n        /* \"#utility.yul\":21890:21908   */\n      dup1\n        /* \"#utility.yul\":21880:21961   */\n      tag_703\n      jumpi\n        /* \"#utility.yul\":21946:21950   */\n      0x7f\n        /* \"#utility.yul\":21938:21944   */\n      dup3\n        /* \"#utility.yul\":21934:21951   */\n      and\n        /* \"#utility.yul\":21924:21951   */\n      swap2\n      pop\n        /* \"#utility.yul\":21880:21961   */\n    tag_703:\n        /* \"#utility.yul\":22008:22010   */\n      0x20\n        /* \"#utility.yul\":22000:22006   */\n      dup3\n        /* \"#utility.yul\":21997:22011   */\n      lt\n        /* \"#utility.yul\":21977:21995   */\n      dup2\n        /* \"#utility.yul\":21974:22012   */\n      sub\n        /* \"#utility.yul\":21971:22055   */\n      tag_704\n      jumpi\n        /* \"#utility.yul\":22027:22045   */\n      tag_705\n      tag_429\n      jump\t// in\n    tag_705:\n        /* \"#utility.yul\":21971:22055   */\n    tag_704:\n        /* \"#utility.yul\":21792:22061   */\n      pop\n        /* \"#utility.yul\":21741:22061   */\n      swap2\n      swap1\n      pop\n      jump\t// out\n        /* \"#utility.yul\":22067:22215   */\n    tag_430:\n        /* \"#utility.yul\":22169:22180   */\n      0x00\n        /* \"#utility.yul\":22206:22209   */\n      dup2\n        /* \"#utility.yul\":22191:22209   */\n      swap1\n      pop\n        /* \"#utility.yul\":22067:22215   */\n      swap3\n      swap2\n      pop\n      pop\n      jump\t// out\n        /* \"#utility.yul\":22221:22362   */\n    tag_431:\n        /* \"#utility.yul\":22270:22274   */\n      0x00\n        /* \"#utility.yul\":22293:22296   */\n      dup2\n        /* \"#utility.yul\":22285:22296   */\n      swap1\n      pop\n        /* \"#utility.yul\":22316:22319   */\n      dup2\n        /* \"#utility.yul\":22313:22314   */\n      0x00\n        /* \"#utility.yul\":22306:22320   */\n      mstore\n        /* \"#utility.yul\":22350:22354   */\n      0x20\n        /* \"#utility.yul\":22347:22348   */\n      0x00\n        /* \"#utility.yul\":22337:22355   */\n      keccak256\n        /* \"#utility.yul\":22329:22355   */\n      swap1\n      pop\n        /* \"#utility.yul\":22221:22362   */\n      swap2\n      swap1\n      pop\n      jump\t// out\n        /* \"#utility.yul\":22392:23266   */\n    tag_432:\n        /* \"#utility.yul\":22495:22498   */\n      0x00\n        /* \"#utility.yul\":22532:22537   */\n      dup2\n        /* \"#utility.yul\":22526:22538   */\n      sload\n        /* \"#utility.yul\":22561:22597   */\n      tag_709\n        /* \"#utility.yul\":22587:22596   */\n      dup2\n        /* \"#utility.yul\":22561:22597   */\n      tag_168\n      jump\t// in\n    tag_709:\n        /* \"#utility.yul\":22613:22702   */\n      tag_710\n        /* \"#utility.yul\":22695:22701   */\n      dup2\n        /* \"#utility.yul\":22690:22693   */\n      dup7\n        /* \"#utility.yul\":22613:22702   */\n      tag_430\n      jump\t// in\n    tag_710:\n        /* \"#utility.yul\":22606:22702   */\n      swap5\n      pop\n        /* \"#utility.yul\":22733:22734   */\n      0x01\n        /* \"#utility.yul\":22722:22731   */\n      dup3\n        /* \"#utility.yul\":22718:22735   */\n      and\n        /* \"#utility.yul\":22749:22750   */\n      0x00\n        /* \"#utility.yul\":22744:22910   */\n      dup2\n      eq\n      tag_712\n      jumpi\n        /* \"#utility.yul\":22924:22925   */\n      0x01\n        /* \"#utility.yul\":22919:23260   */\n      dup2\n      eq\n      tag_713\n      jumpi\n        /* \"#utility.yul\":22711:23260   */\n      jump(tag_711)\n        /* \"#utility.yul\":22744:22910   */\n    tag_712:\n        /* \"#utility.yul\":22828:22832   */\n      0xff\n        /* \"#utility.yul\":22824:22833   */\n      not\n        /* \"#utility.yul\":22813:22822   */\n      dup4\n        /* \"#utility.yul\":22809:22834   */\n      and\n        /* \"#utility.yul\":22804:22807   */\n      dup7\n        /* \"#utility.yul\":22797:22835   */\n      mstore\n        /* \"#utility.yul\":22890:22896   */\n      dup2\n        /* \"#utility.yul\":22883:22897   */\n      iszero\n        /* \"#utility.yul\":22876:22898   */\n      iszero\n        /* \"#utility.yul\":22868:22874   */\n      dup3\n        /* \"#utility.yul\":22864:22899   */\n      mul\n        /* \"#utility.yul\":22859:22862   */\n      dup7\n        /* \"#utility.yul\":22855:22900   */\n      add\n        /* \"#utility.yul\":22848:22900   */\n      swap4\n      pop\n        /* \"#utility.yul\":22744:22910   */\n      jump(tag_711)\n        /* \"#utility.yul\":22919:23260   */\n    tag_713:\n        /* \"#utility.yul\":22986:23024   */\n      tag_714\n        /* \"#utility.yul\":23018:23023   */\n      dup6\n        /* \"#utility.yul\":22986:23024   */\n      tag_431\n      jump\t// in\n    tag_714:\n        /* \"#utility.yul\":23046:23047   */\n      0x00\n        /* \"#utility.yul\":23060:23214   */\n    tag_715:\n        /* \"#utility.yul\":23074:23080   */\n      dup4\n        /* \"#utility.yul\":23071:23072   */\n      dup2\n        /* \"#utility.yul\":23068:23081   */\n      lt\n        /* \"#utility.yul\":23060:23214   */\n      iszero\n      tag_717\n      jumpi\n        /* \"#utility.yul\":23148:23155   */\n      dup2\n        /* \"#utility.yul\":23142:23156   */\n      sload\n        /* \"#utility.yul\":23138:23139   */\n      dup2\n        /* \"#utility.yul\":23133:23136   */\n      dup10\n        /* \"#utility.yul\":23129:23140   */\n      add\n        /* \"#utility.yul\":23122:23157   */\n      mstore\n        /* \"#utility.yul\":23198:23199   */\n      0x01\n        /* \"#utility.yul\":23189:23196   */\n      dup3\n        /* \"#utility.yul\":23185:23200   */\n      add\n        /* \"#utility.yul\":23174:23200   */\n      swap2\n      pop\n        /* \"#utility.yul\":23096:23100   */\n      0x20\n        /* \"#utility.yul\":23093:23094   */\n      dup2\n        /* \"#utility.yul\":23089:23101   */\n      add\n        /* \"#utility.yul\":23084:23101   */\n      swap1\n      pop\n        /* \"#utility.yul\":23060:23214   */\n      jump(tag_715)\n    tag_717:\n        /* \"#utility.yul\":23243:23249   */\n      dup4\n        /* \"#utility.yul\":23238:23241   */\n      dup9\n        /* \"#utility.yul\":23234:23250   */\n      add\n        /* \"#utility.yul\":23227:23250   */\n      swap6\n      pop\n        /* \"#utility.yul\":22926:23260   */\n      pop\n      pop\n        /* \"#utility.yul\":22711:23260   */\n    tag_711:\n      pop\n        /* \"#utility.yul\":22499:23266   */\n      pop\n      pop\n        /* \"#utility.yul\":22392:23266   */\n      swap3\n      swap2\n      pop\n      pop\n      jump\t// out\n        /* \"#utility.yul\":23272:23541   */\n    tag_144:\n        /* \"#utility.yul\":23401:23404   */\n      0x00\n        /* \"#utility.yul\":23423:23515   */\n      tag_719\n        /* \"#utility.yul\":23511:23514   */\n      dup3\n        /* \"#utility.yul\":23502:23508   */\n      dup5\n        /* \"#utility.yul\":23423:23515   */\n      tag_432\n      jump\t// in\n    tag_719:\n        /* \"#utility.yul\":23416:23515   */\n      swap2\n      pop\n        /* \"#utility.yul\":23532:23535   */\n      dup2\n        /* \"#utility.yul\":23525:23535   */\n      swap1\n      pop\n        /* \"#utility.yul\":23272:23541   */\n      swap3\n      swap2\n      pop\n      pop\n      jump\t// out\n        /* \"#utility.yul\":23547:23714   */\n    tag_433:\n        /* \"#utility.yul\":23687:23706   */\n      0x6f776e657220616363657373206f6e6c79000000000000000000000000000000\n        /* \"#utility.yul\":23683:23684   */\n      0x00\n        /* \"#utility.yul\":23675:23681   */\n      dup3\n        /* \"#utility.yul\":23671:23685   */\n      add\n        /* \"#utility.yul\":23664:23707   */\n      mstore\n        /* \"#utility.yul\":23547:23714   */\n      pop\n      jump\t// out\n        /* \"#utility.yul\":23720:24086   */\n    tag_434:\n        /* \"#utility.yul\":23862:23865   */\n      0x00\n        /* \"#utility.yul\":23883:23950   */\n      tag_722\n        /* \"#utility.yul\":23947:23949   */\n      0x11\n        /* \"#utility.yul\":23942:23945   */\n      dup4\n        /* \"#utility.yul\":23883:23950   */\n      tag_399\n      jump\t// in\n    tag_722:\n        /* \"#utility.yul\":23876:23950   */\n      swap2\n      pop\n        /* \"#utility.yul\":23959:24052   */\n      tag_723\n        /* \"#utility.yul\":24048:24051   */\n      dup3\n        /* \"#utility.yul\":23959:24052   */\n      tag_433\n      jump\t// in\n    tag_723:\n        /* \"#utility.yul\":24077:24079   */\n      0x20\n        /* \"#utility.yul\":24072:24075   */\n      dup3\n        /* \"#utility.yul\":24068:24080   */\n      add\n        /* \"#utility.yul\":24061:24080   */\n      swap1\n      pop\n        /* \"#utility.yul\":23720:24086   */\n      swap2\n      swap1\n      pop\n      jump\t// out\n        /* \"#utility.yul\":24092:24511   */\n    tag_148:\n        /* \"#utility.yul\":24258:24262   */\n      0x00\n        /* \"#utility.yul\":24296:24298   */\n      0x20\n        /* \"#utility.yul\":24285:24294   */\n      dup3\n        /* \"#utility.yul\":24281:24299   */\n      add\n        /* \"#utility.yul\":24273:24299   */\n      swap1\n      pop\n        /* \"#utility.yul\":24345:24354   */\n      dup2\n        /* \"#utility.yul\":24339:24343   */\n      dup2\n        /* \"#utility.yul\":24335:24355   */\n      sub\n        /* \"#utility.yul\":24331:24332   */\n      0x00\n        /* \"#utility.yul\":24320:24329   */\n      dup4\n        /* \"#utility.yul\":24316:24333   */\n      add\n        /* \"#utility.yul\":24309:24356   */\n      mstore\n        /* \"#utility.yul\":24373:24504   */\n      tag_725\n        /* \"#utility.yul\":24499:24503   */\n      dup2\n        /* \"#utility.yul\":24373:24504   */\n      tag_434\n      jump\t// in\n    tag_725:\n        /* \"#utility.yul\":24365:24504   */\n      swap1\n      pop\n        /* \"#utility.yul\":24092:24511   */\n      swap2\n      swap1\n      pop\n      jump\t// out\n        /* \"#utility.yul\":24517:24683   */\n    tag_435:\n        /* \"#utility.yul\":24657:24675   */\n      0x696e76616c696420766964656f20696400000000000000000000000000000000\n        /* \"#utility.yul\":24653:24654   */\n      0x00\n        /* \"#utility.yul\":24645:24651   */\n      dup3\n        /* \"#utility.yul\":24641:24655   */\n      add\n        /* \"#utility.yul\":24634:24676   */\n      mstore\n        /* \"#utility.yul\":24517:24683   */\n      pop\n      jump\t// out\n        /* \"#utility.yul\":24689:25055   */\n    tag_436:\n        /* \"#utility.yul\":24831:24834   */\n      0x00\n        /* \"#utility.yul\":24852:24919   */\n      tag_728\n        /* \"#utility.yul\":24916:24918   */\n      0x10\n        /* \"#utility.yul\":24911:24914   */\n      dup4\n        /* \"#utility.yul\":24852:24919   */\n      tag_399\n      jump\t// in\n    tag_728:\n        /* \"#utility.yul\":24845:24919   */\n      swap2\n      pop\n        /* \"#utility.yul\":24928:25021   */\n      tag_729\n        /* \"#utility.yul\":25017:25020   */\n      dup3\n        /* \"#utility.yul\":24928:25021   */\n      tag_435\n      jump\t// in\n    tag_729:\n        /* \"#utility.yul\":25046:25048   */\n      0x20\n        /* \"#utility.yul\":25041:25044   */\n      dup3\n        /* \"#utility.yul\":25037:25049   */\n      add\n        /* \"#utility.yul\":25030:25049   */\n      swap1\n      pop\n        /* \"#utility.yul\":24689:25055   */\n      swap2\n      swap1\n      pop\n      jump\t// out\n        /* \"#utility.yul\":25061:25480   */\n    tag_152:\n        /* \"#utility.yul\":25227:25231   */\n      0x00\n        /* \"#utility.yul\":25265:25267   */\n      0x20\n        /* \"#utility.yul\":25254:25263   */\n      dup3\n        /* \"#utility.yul\":25250:25268   */\n      add\n        /* \"#utility.yul\":25242:25268   */\n      swap1\n      pop\n        /* \"#utility.yul\":25314:25323   */\n      dup2\n        /* \"#utility.yul\":25308:25312   */\n      dup2\n        /* \"#utility.yul\":25304:25324   */\n      sub\n        /* \"#utility.yul\":25300:25301   */\n      0x00\n        /* \"#utility.yul\":25289:25298   */\n      dup4\n        /* \"#utility.yul\":25285:25302   */\n      add\n        /* \"#utility.yul\":25278:25325   */\n      mstore\n        /* \"#utility.yul\":25342:25473   */\n      tag_731\n        /* \"#utility.yul\":25468:25472   */\n      dup2\n        /* \"#utility.yul\":25342:25473   */\n      tag_436\n      jump\t// in\n    tag_731:\n        /* \"#utility.yul\":25334:25473   */\n      swap1\n      pop\n        /* \"#utility.yul\":25061:25480   */\n      swap2\n      swap1\n      pop\n      jump\t// out\n        /* \"#utility.yul\":25486:25662   */\n    tag_437:\n        /* \"#utility.yul\":25626:25654   */\n      0x696e76616c6964206c6963656e736f72207369676e6174757265000000000000\n        /* \"#utility.yul\":25622:25623   */\n      0x00\n        /* \"#utility.yul\":25614:25620   */\n      dup3\n        /* \"#utility.yul\":25610:25624   */\n      add\n        /* \"#utility.yul\":25603:25655   */\n      mstore\n        /* \"#utility.yul\":25486:25662   */\n      pop\n      jump\t// out\n        /* \"#utility.yul\":25668:26034   */\n    tag_438:\n        /* \"#utility.yul\":25810:25813   */\n      0x00\n        /* \"#utility.yul\":25831:25898   */\n      tag_734\n        /* \"#utility.yul\":25895:25897   */\n      0x1a\n        /* \"#utility.yul\":25890:25893   */\n      dup4\n        /* \"#utility.yul\":25831:25898   */\n      tag_399\n      jump\t// in\n    tag_734:\n        /* \"#utility.yul\":25824:25898   */\n      swap2\n      pop\n        /* \"#utility.yul\":25907:26000   */\n      tag_735\n        /* \"#utility.yul\":25996:25999   */\n      dup3\n        /* \"#utility.yul\":25907:26000   */\n      tag_437\n      jump\t// in\n    tag_735:\n        /* \"#utility.yul\":26025:26027   */\n      0x20\n        /* \"#utility.yul\":26020:26023   */\n      dup3\n        /* \"#utility.yul\":26016:26028   */\n      add\n        /* \"#utility.yul\":26009:26028   */\n      swap1\n      pop\n        /* \"#utility.yul\":25668:26034   */\n      swap2\n      swap1\n      pop\n      jump\t// out\n        /* \"#utility.yul\":26040:26459   */\n    tag_156:\n        /* \"#utility.yul\":26206:26210   */\n      0x00\n        /* \"#utility.yul\":26244:26246   */\n      0x20\n        /* \"#utility.yul\":26233:26242   */\n      dup3\n        /* \"#utility.yul\":26229:26247   */\n      add\n        /* \"#utility.yul\":26221:26247   */\n      swap1\n      pop\n        /* \"#utility.yul\":26293:26302   */\n      dup2\n        /* \"#utility.yul\":26287:26291   */\n      dup2\n        /* \"#utility.yul\":26283:26303   */\n      sub\n        /* \"#utility.yul\":26279:26280   */\n      0x00\n        /* \"#utility.yul\":26268:26277   */\n      dup4\n        /* \"#utility.yul\":26264:26281   */\n      add\n        /* \"#utility.yul\":26257:26304   */\n      mstore\n        /* \"#utility.yul\":26321:26452   */\n      tag_737\n        /* \"#utility.yul\":26447:26451   */\n      dup2\n        /* \"#utility.yul\":26321:26452   */\n      tag_438\n      jump\t// in\n    tag_737:\n        /* \"#utility.yul\":26313:26452   */\n      swap1\n      pop\n        /* \"#utility.yul\":26040:26459   */\n      swap2\n      swap1\n      pop\n      jump\t// out\n        /* \"#utility.yul\":26465:26855   */\n    tag_439:\n        /* \"#utility.yul\":26571:26574   */\n      0x00\n        /* \"#utility.yul\":26599:26638   */\n      tag_739\n        /* \"#utility.yul\":26632:26637   */\n      dup3\n        /* \"#utility.yul\":26599:26638   */\n      tag_398\n      jump\t// in\n    tag_739:\n        /* \"#utility.yul\":26654:26743   */\n      tag_740\n        /* \"#utility.yul\":26736:26742   */\n      dup2\n        /* \"#utility.yul\":26731:26734   */\n      dup6\n        /* \"#utility.yul\":26654:26743   */\n      tag_430\n      jump\t// in\n    tag_740:\n        /* \"#utility.yul\":26647:26743   */\n      swap4\n      pop\n        /* \"#utility.yul\":26752:26817   */\n      tag_741\n        /* \"#utility.yul\":26810:26816   */\n      dup2\n        /* \"#utility.yul\":26805:26808   */\n      dup6\n        /* \"#utility.yul\":26798:26802   */\n      0x20\n        /* \"#utility.yul\":26791:26796   */\n      dup7\n        /* \"#utility.yul\":26787:26803   */\n      add\n        /* \"#utility.yul\":26752:26817   */\n      tag_400\n      jump\t// in\n    tag_741:\n        /* \"#utility.yul\":26842:26848   */\n      dup1\n        /* \"#utility.yul\":26837:26840   */\n      dup5\n        /* \"#utility.yul\":26833:26849   */\n      add\n        /* \"#utility.yul\":26826:26849   */\n      swap2\n      pop\n        /* \"#utility.yul\":26575:26855   */\n      pop\n        /* \"#utility.yul\":26465:26855   */\n      swap3\n      swap2\n      pop\n      pop\n      jump\t// out\n        /* \"#utility.yul\":26861:27136   */\n    tag_158:\n        /* \"#utility.yul\":26993:26996   */\n      0x00\n        /* \"#utility.yul\":27015:27110   */\n      tag_743\n        /* \"#utility.yul\":27106:27109   */\n      dup3\n        /* \"#utility.yul\":27097:27103   */\n      dup5\n        /* \"#utility.yul\":27015:27110   */\n      tag_439\n      jump\t// in\n    tag_743:\n        /* \"#utility.yul\":27008:27110   */\n      swap2\n      pop\n        /* \"#utility.yul\":27127:27130   */\n      dup2\n        /* \"#utility.yul\":27120:27130   */\n      swap1\n      pop\n        /* \"#utility.yul\":26861:27136   */\n      swap3\n      swap2\n      pop\n      pop\n      jump\t// out\n        /* \"#utility.yul\":27142:27311   */\n    tag_440:\n        /* \"#utility.yul\":27282:27303   */\n      0x766964656f20646f65736e277420657869737400000000000000000000000000\n        /* \"#utility.yul\":27278:27279   */\n      0x00\n        /* \"#utility.yul\":27270:27276   */\n      dup3\n        /* \"#utility.yul\":27266:27280   */\n      add\n        /* \"#utility.yul\":27259:27304   */\n      mstore\n        /* \"#utility.yul\":27142:27311   */\n      pop\n      jump\t// out\n        /* \"#utility.yul\":27317:27683   */\n    tag_441:\n        /* \"#utility.yul\":27459:27462   */\n      0x00\n        /* \"#utility.yul\":27480:27547   */\n      tag_746\n        /* \"#utility.yul\":27544:27546   */\n      0x13\n        /* \"#utility.yul\":27539:27542   */\n      dup4\n        /* \"#utility.yul\":27480:27547   */\n      tag_399\n      jump\t// in\n    tag_746:\n        /* \"#utility.yul\":27473:27547   */\n      swap2\n      pop\n        /* \"#utility.yul\":27556:27649   */\n      tag_747\n        /* \"#utility.yul\":27645:27648   */\n      dup3\n        /* \"#utility.yul\":27556:27649   */\n      tag_440\n      jump\t// in\n    tag_747:\n        /* \"#utility.yul\":27674:27676   */\n      0x20\n        /* \"#utility.yul\":27669:27672   */\n      dup3\n        /* \"#utility.yul\":27665:27677   */\n      add\n        /* \"#utility.yul\":27658:27677   */\n      swap1\n      pop\n        /* \"#utility.yul\":27317:27683   */\n      swap2\n      swap1\n      pop\n      jump\t// out\n        /* \"#utility.yul\":27689:28108   */\n    tag_177:\n        /* \"#utility.yul\":27855:27859   */\n      0x00\n        /* \"#utility.yul\":27893:27895   */\n      0x20\n        /* \"#utility.yul\":27882:27891   */\n      dup3\n        /* \"#utility.yul\":27878:27896   */\n      add\n        /* \"#utility.yul\":27870:27896   */\n      swap1\n      pop\n        /* \"#utility.yul\":27942:27951   */\n      dup2\n        /* \"#utility.yul\":27936:27940   */\n      dup2\n        /* \"#utility.yul\":27932:27952   */\n      sub\n        /* \"#utility.yul\":27928:27929   */\n      0x00\n        /* \"#utility.yul\":27917:27926   */\n      dup4\n        /* \"#utility.yul\":27913:27930   */\n      add\n        /* \"#utility.yul\":27906:27953   */\n      mstore\n        /* \"#utility.yul\":27970:28101   */\n      tag_749\n        /* \"#utility.yul\":28096:28100   */\n      dup2\n        /* \"#utility.yul\":27970:28101   */\n      tag_441\n      jump\t// in\n    tag_749:\n        /* \"#utility.yul\":27962:28101   */\n      swap1\n      pop\n        /* \"#utility.yul\":27689:28108   */\n      swap2\n      swap1\n      pop\n      jump\t// out\n        /* \"#utility.yul\":28114:28294   */\n    tag_192:\n        /* \"#utility.yul\":28162:28239   */\n      0x4e487b7100000000000000000000000000000000000000000000000000000000\n        /* \"#utility.yul\":28159:28160   */\n      0x00\n        /* \"#utility.yul\":28152:28240   */\n      mstore\n        /* \"#utility.yul\":28259:28263   */\n      0x32\n        /* \"#utility.yul\":28256:28257   */\n      0x04\n        /* \"#utility.yul\":28249:28264   */\n      mstore\n        /* \"#utility.yul\":28283:28287   */\n      0x24\n        /* \"#utility.yul\":28280:28281   */\n      0x00\n        /* \"#utility.yul\":28273:28288   */\n      revert\n        /* \"#utility.yul\":28300:28466   */\n    tag_442:\n        /* \"#utility.yul\":28440:28458   */\n      0x696e76616c6964206c6963656e736f7200000000000000000000000000000000\n        /* \"#utility.yul\":28436:28437   */\n      0x00\n        /* \"#utility.yul\":28428:28434   */\n      dup3\n        /* \"#utility.yul\":28424:28438   */\n      add\n        /* \"#utility.yul\":28417:28459   */\n      mstore\n        /* \"#utility.yul\":28300:28466   */\n      pop\n      jump\t// out\n        /* \"#utility.yul\":28472:28838   */\n    tag_443:\n        /* \"#utility.yul\":28614:28617   */\n      0x00\n        /* \"#utility.yul\":28635:28702   */\n      tag_753\n        /* \"#utility.yul\":28699:28701   */\n      0x10\n        /* \"#utility.yul\":28694:28697   */\n      dup4\n        /* \"#utility.yul\":28635:28702   */\n      tag_399\n      jump\t// in\n    tag_753:\n        /* \"#utility.yul\":28628:28702   */\n      swap2\n      pop\n        /* \"#utility.yul\":28711:28804   */\n      tag_754\n        /* \"#utility.yul\":28800:28803   */\n      dup3\n        /* \"#utility.yul\":28711:28804   */\n      tag_442\n      jump\t// in\n    tag_754:\n        /* \"#utility.yul\":28829:28831   */\n      0x20\n        /* \"#utility.yul\":28824:28827   */\n      dup3\n        /* \"#utility.yul\":28820:28832   */\n      add\n        /* \"#utility.yul\":28813:28832   */\n      swap1\n      pop\n        /* \"#utility.yul\":28472:28838   */\n      swap2\n      swap1\n      pop\n      jump\t// out\n        /* \"#utility.yul\":28844:29263   */\n    tag_208:\n        /* \"#utility.yul\":29010:29014   */\n      0x00\n        /* \"#utility.yul\":29048:29050   */\n      0x20\n        /* \"#utility.yul\":29037:29046   */\n      dup3\n        /* \"#utility.yul\":29033:29051   */\n      add\n        /* \"#utility.yul\":29025:29051   */\n      swap1\n      pop\n        /* \"#utility.yul\":29097:29106   */\n      dup2\n        /* \"#utility.yul\":29091:29095   */\n      dup2\n        /* \"#utility.yul\":29087:29107   */\n      sub\n        /* \"#utility.yul\":29083:29084   */\n      0x00\n        /* \"#utility.yul\":29072:29081   */\n      dup4\n        /* \"#utility.yul\":29068:29085   */\n      add\n        /* \"#utility.yul\":29061:29108   */\n      mstore\n        /* \"#utility.yul\":29125:29256   */\n      tag_756\n        /* \"#utility.yul\":29251:29255   */\n      dup2\n        /* \"#utility.yul\":29125:29256   */\n      tag_443\n      jump\t// in\n    tag_756:\n        /* \"#utility.yul\":29117:29256   */\n      swap1\n      pop\n        /* \"#utility.yul\":28844:29263   */\n      swap2\n      swap1\n      pop\n      jump\t// out\n        /* \"#utility.yul\":29269:29441   */\n    tag_444:\n        /* \"#utility.yul\":29409:29433   */\n      0x756e617661696c61626c65206c6963656e736520696400000000000000000000\n        /* \"#utility.yul\":29405:29406   */\n      0x00\n        /* \"#utility.yul\":29397:29403   */\n      dup3\n        /* \"#utility.yul\":29393:29407   */\n      add\n        /* \"#utility.yul\":29386:29434   */\n      mstore\n        /* \"#utility.yul\":29269:29441   */\n      pop\n      jump\t// out\n        /* \"#utility.yul\":29447:29813   */\n    tag_445:\n        /* \"#utility.yul\":29589:29592   */\n      0x00\n        /* \"#utility.yul\":29610:29677   */\n      tag_759\n        /* \"#utility.yul\":29674:29676   */\n      0x16\n        /* \"#utility.yul\":29669:29672   */\n      dup4\n        /* \"#utility.yul\":29610:29677   */\n      tag_399\n      jump\t// in\n    tag_759:\n        /* \"#utility.yul\":29603:29677   */\n      swap2\n      pop\n        /* \"#utility.yul\":29686:29779   */\n      tag_760\n        /* \"#utility.yul\":29775:29778   */\n      dup3\n        /* \"#utility.yul\":29686:29779   */\n      tag_444\n      jump\t// in\n    tag_760:\n        /* \"#utility.yul\":29804:29806   */\n      0x20\n        /* \"#utility.yul\":29799:29802   */\n      dup3\n        /* \"#utility.yul\":29795:29807   */\n      add\n        /* \"#utility.yul\":29788:29807   */\n      swap1\n      pop\n        /* \"#utility.yul\":29447:29813   */\n      swap2\n      swap1\n      pop\n      jump\t// out\n        /* \"#utility.yul\":29819:30238   */\n    tag_211:\n        /* \"#utility.yul\":29985:29989   */\n      0x00\n        /* \"#utility.yul\":30023:30025   */\n      0x20\n        /* \"#utility.yul\":30012:30021   */\n      dup3\n        /* \"#utility.yul\":30008:30026   */\n      add\n        /* \"#utility.yul\":30000:30026   */\n      swap1\n      pop\n        /* \"#utility.yul\":30072:30081   */\n      dup2\n        /* \"#utility.yul\":30066:30070   */\n      dup2\n        /* \"#utility.yul\":30062:30082   */\n      sub\n        /* \"#utility.yul\":30058:30059   */\n      0x00\n        /* \"#utility.yul\":30047:30056   */\n      dup4\n        /* \"#utility.yul\":30043:30060   */\n      add\n        /* \"#utility.yul\":30036:30083   */\n      mstore\n        /* \"#utility.yul\":30100:30231   */\n      tag_762\n        /* \"#utility.yul\":30226:30230   */\n      dup2\n        /* \"#utility.yul\":30100:30231   */\n      tag_445\n      jump\t// in\n    tag_762:\n        /* \"#utility.yul\":30092:30231   */\n      swap1\n      pop\n        /* \"#utility.yul\":29819:30238   */\n      swap2\n      swap1\n      pop\n      jump\t// out\n        /* \"#utility.yul\":30244:30410   */\n    tag_446:\n        /* \"#utility.yul\":30384:30402   */\n      0x696e76616c6964206c6963656e73656500000000000000000000000000000000\n        /* \"#utility.yul\":30380:30381   */\n      0x00\n        /* \"#utility.yul\":30372:30378   */\n      dup3\n        /* \"#utility.yul\":30368:30382   */\n      add\n        /* \"#utility.yul\":30361:30403   */\n      mstore\n        /* \"#utility.yul\":30244:30410   */\n      pop\n      jump\t// out\n        /* \"#utility.yul\":30416:30782   */\n    tag_447:\n        /* \"#utility.yul\":30558:30561   */\n      0x00\n        /* \"#utility.yul\":30579:30646   */\n      tag_765\n        /* \"#utility.yul\":30643:30645   */\n      0x10\n        /* \"#utility.yul\":30638:30641   */\n      dup4\n        /* \"#utility.yul\":30579:30646   */\n      tag_399\n      jump\t// in\n    tag_765:\n        /* \"#utility.yul\":30572:30646   */\n      swap2\n      pop\n        /* \"#utility.yul\":30655:30748   */\n      tag_766\n        /* \"#utility.yul\":30744:30747   */\n      dup3\n        /* \"#utility.yul\":30655:30748   */\n      tag_446\n      jump\t// in\n    tag_766:\n        /* \"#utility.yul\":30773:30775   */\n      0x20\n        /* \"#utility.yul\":30768:30771   */\n      dup3\n        /* \"#utility.yul\":30764:30776   */\n      add\n        /* \"#utility.yul\":30757:30776   */\n      swap1\n      pop\n        /* \"#utility.yul\":30416:30782   */\n      swap2\n      swap1\n      pop\n      jump\t// out\n        /* \"#utility.yul\":30788:31207   */\n    tag_220:\n        /* \"#utility.yul\":30954:30958   */\n      0x00\n        /* \"#utility.yul\":30992:30994   */\n      0x20\n        /* \"#utility.yul\":30981:30990   */\n      dup3\n        /* \"#utility.yul\":30977:30995   */\n      add\n        /* \"#utility.yul\":30969:30995   */\n      swap1\n      pop\n        /* \"#utility.yul\":31041:31050   */\n      dup2\n        /* \"#utility.yul\":31035:31039   */\n      dup2\n        /* \"#utility.yul\":31031:31051   */\n      sub\n        /* \"#utility.yul\":31027:31028   */\n      0x00\n        /* \"#utility.yul\":31016:31025   */\n      dup4\n        /* \"#utility.yul\":31012:31029   */\n      add\n        /* \"#utility.yul\":31005:31052   */\n      mstore\n        /* \"#utility.yul\":31069:31200   */\n      tag_768\n        /* \"#utility.yul\":31195:31199   */\n      dup2\n        /* \"#utility.yul\":31069:31200   */\n      tag_447\n      jump\t// in\n    tag_768:\n        /* \"#utility.yul\":31061:31200   */\n      swap1\n      pop\n        /* \"#utility.yul\":30788:31207   */\n      swap2\n      swap1\n      pop\n      jump\t// out\n        /* \"#utility.yul\":31213:31968   */\n    tag_228:\n        /* \"#utility.yul\":31438:31442   */\n      0x00\n        /* \"#utility.yul\":31476:31479   */\n      0xa0\n        /* \"#utility.yul\":31465:31474   */\n      dup3\n        /* \"#utility.yul\":31461:31480   */\n      add\n        /* \"#utility.yul\":31453:31480   */\n      swap1\n      pop\n        /* \"#utility.yul\":31526:31535   */\n      dup2\n        /* \"#utility.yul\":31520:31524   */\n      dup2\n        /* \"#utility.yul\":31516:31536   */\n      sub\n        /* \"#utility.yul\":31512:31513   */\n      0x00\n        /* \"#utility.yul\":31501:31510   */\n      dup4\n        /* \"#utility.yul\":31497:31514   */\n      add\n        /* \"#utility.yul\":31490:31537   */\n      mstore\n        /* \"#utility.yul\":31554:31632   */\n      tag_770\n        /* \"#utility.yul\":31627:31631   */\n      dup2\n        /* \"#utility.yul\":31618:31624   */\n      dup9\n        /* \"#utility.yul\":31554:31632   */\n      tag_401\n      jump\t// in\n    tag_770:\n        /* \"#utility.yul\":31546:31632   */\n      swap1\n      pop\n        /* \"#utility.yul\":31642:31714   */\n      tag_771\n        /* \"#utility.yul\":31710:31712   */\n      0x20\n        /* \"#utility.yul\":31699:31708   */\n      dup4\n        /* \"#utility.yul\":31695:31713   */\n      add\n        /* \"#utility.yul\":31686:31692   */\n      dup8\n        /* \"#utility.yul\":31642:31714   */\n      tag_397\n      jump\t// in\n    tag_771:\n        /* \"#utility.yul\":31724:31796   */\n      tag_772\n        /* \"#utility.yul\":31792:31794   */\n      0x40\n        /* \"#utility.yul\":31781:31790   */\n      dup4\n        /* \"#utility.yul\":31777:31795   */\n      add\n        /* \"#utility.yul\":31768:31774   */\n      dup7\n        /* \"#utility.yul\":31724:31796   */\n      tag_397\n      jump\t// in\n    tag_772:\n        /* \"#utility.yul\":31806:31878   */\n      tag_773\n        /* \"#utility.yul\":31874:31876   */\n      0x60\n        /* \"#utility.yul\":31863:31872   */\n      dup4\n        /* \"#utility.yul\":31859:31877   */\n      add\n        /* \"#utility.yul\":31850:31856   */\n      dup6\n        /* \"#utility.yul\":31806:31878   */\n      tag_422\n      jump\t// in\n    tag_773:\n        /* \"#utility.yul\":31888:31961   */\n      tag_774\n        /* \"#utility.yul\":31956:31959   */\n      0x80\n        /* \"#utility.yul\":31945:31954   */\n      dup4\n        /* \"#utility.yul\":31941:31960   */\n      add\n        /* \"#utility.yul\":31932:31938   */\n      dup5\n        /* \"#utility.yul\":31888:31961   */\n      tag_422\n      jump\t// in\n    tag_774:\n        /* \"#utility.yul\":31213:31968   */\n      swap7\n      swap6\n      pop\n      pop\n      pop\n      pop\n      pop\n      pop\n      jump\t// out\n        /* \"#utility.yul\":31974:32408   */\n    tag_448:\n        /* \"#utility.yul\":32063:32068   */\n      0x00\n        /* \"#utility.yul\":32088:32154   */\n      tag_776\n        /* \"#utility.yul\":32104:32153   */\n      tag_777\n        /* \"#utility.yul\":32146:32152   */\n      dup5\n        /* \"#utility.yul\":32104:32153   */\n      tag_388\n      jump\t// in\n    tag_777:\n        /* \"#utility.yul\":32088:32154   */\n      tag_387\n      jump\t// in\n    tag_776:\n        /* \"#utility.yul\":32079:32154   */\n      swap1\n      pop\n        /* \"#utility.yul\":32177:32183   */\n      dup3\n        /* \"#utility.yul\":32170:32175   */\n      dup2\n        /* \"#utility.yul\":32163:32184   */\n      mstore\n        /* \"#utility.yul\":32215:32219   */\n      0x20\n        /* \"#utility.yul\":32208:32213   */\n      dup2\n        /* \"#utility.yul\":32204:32220   */\n      add\n        /* \"#utility.yul\":32253:32256   */\n      dup5\n        /* \"#utility.yul\":32244:32250   */\n      dup5\n        /* \"#utility.yul\":32239:32242   */\n      dup5\n        /* \"#utility.yul\":32235:32251   */\n      add\n        /* \"#utility.yul\":32232:32257   */\n      gt\n        /* \"#utility.yul\":32229:32341   */\n      iszero\n      tag_778\n      jumpi\n        /* \"#utility.yul\":32260:32339   */\n      tag_779\n      tag_384\n      jump\t// in\n    tag_779:\n        /* \"#utility.yul\":32229:32341   */\n    tag_778:\n        /* \"#utility.yul\":32350:32402   */\n      tag_780\n        /* \"#utility.yul\":32395:32401   */\n      dup5\n        /* \"#utility.yul\":32390:32393   */\n      dup3\n        /* \"#utility.yul\":32385:32388   */\n      dup6\n        /* \"#utility.yul\":32350:32402   */\n      tag_400\n      jump\t// in\n    tag_780:\n        /* \"#utility.yul\":32069:32408   */\n      pop\n        /* \"#utility.yul\":31974:32408   */\n      swap4\n      swap3\n      pop\n      pop\n      pop\n      jump\t// out\n        /* \"#utility.yul\":32428:32783   */\n    tag_449:\n        /* \"#utility.yul\":32495:32500   */\n      0x00\n        /* \"#utility.yul\":32544:32547   */\n      dup3\n        /* \"#utility.yul\":32537:32541   */\n      0x1f\n        /* \"#utility.yul\":32529:32535   */\n      dup4\n        /* \"#utility.yul\":32525:32542   */\n      add\n        /* \"#utility.yul\":32521:32548   */\n      slt\n        /* \"#utility.yul\":32511:32633   */\n      tag_782\n      jumpi\n        /* \"#utility.yul\":32552:32631   */\n      tag_783\n      tag_383\n      jump\t// in\n    tag_783:\n        /* \"#utility.yul\":32511:32633   */\n    tag_782:\n        /* \"#utility.yul\":32662:32668   */\n      dup2\n        /* \"#utility.yul\":32656:32669   */\n      mload\n        /* \"#utility.yul\":32687:32777   */\n      tag_784\n        /* \"#utility.yul\":32773:32776   */\n      dup5\n        /* \"#utility.yul\":32765:32771   */\n      dup3\n        /* \"#utility.yul\":32758:32762   */\n      0x20\n        /* \"#utility.yul\":32750:32756   */\n      dup7\n        /* \"#utility.yul\":32746:32763   */\n      add\n        /* \"#utility.yul\":32687:32777   */\n      tag_448\n      jump\t// in\n    tag_784:\n        /* \"#utility.yul\":32678:32777   */\n      swap2\n      pop\n        /* \"#utility.yul\":32501:32783   */\n      pop\n        /* \"#utility.yul\":32428:32783   */\n      swap3\n      swap2\n      pop\n      pop\n      jump\t// out\n        /* \"#utility.yul\":32789:33313   */\n    tag_232:\n        /* \"#utility.yul\":32869:32875   */\n      0x00\n        /* \"#utility.yul\":32918:32920   */\n      0x20\n        /* \"#utility.yul\":32906:32915   */\n      dup3\n        /* \"#utility.yul\":32897:32904   */\n      dup5\n        /* \"#utility.yul\":32893:32916   */\n      sub\n        /* \"#utility.yul\":32889:32921   */\n      slt\n        /* \"#utility.yul\":32886:33005   */\n      iszero\n      tag_786\n      jumpi\n        /* \"#utility.yul\":32924:33003   */\n      tag_787\n      tag_381\n      jump\t// in\n    tag_787:\n        /* \"#utility.yul\":32886:33005   */\n    tag_786:\n        /* \"#utility.yul\":33065:33066   */\n      0x00\n        /* \"#utility.yul\":33054:33063   */\n      dup3\n        /* \"#utility.yul\":33050:33067   */\n      add\n        /* \"#utility.yul\":33044:33068   */\n      mload\n        /* \"#utility.yul\":33095:33113   */\n      0xffffffffffffffff\n        /* \"#utility.yul\":33087:33093   */\n      dup2\n        /* \"#utility.yul\":33084:33114   */\n      gt\n        /* \"#utility.yul\":33081:33198   */\n      iszero\n      tag_788\n      jumpi\n        /* \"#utility.yul\":33117:33196   */\n      tag_789\n      tag_382\n      jump\t// in\n    tag_789:\n        /* \"#utility.yul\":33081:33198   */\n    tag_788:\n        /* \"#utility.yul\":33222:33296   */\n      tag_790\n        /* \"#utility.yul\":33288:33295   */\n      dup5\n        /* \"#utility.yul\":33279:33285   */\n      dup3\n        /* \"#utility.yul\":33268:33277   */\n      dup6\n        /* \"#utility.yul\":33264:33286   */\n      add\n        /* \"#utility.yul\":33222:33296   */\n      tag_449\n      jump\t// in\n    tag_790:\n        /* \"#utility.yul\":33212:33296   */\n      swap2\n      pop\n        /* \"#utility.yul\":33015:33306   */\n      pop\n        /* \"#utility.yul\":32789:33313   */\n      swap3\n      swap2\n      pop\n      pop\n      jump\t// out\n        /* \"#utility.yul\":33319:33474   */\n    tag_450:\n        /* \"#utility.yul\":33430:33467   */\n      tag_792\n        /* \"#utility.yul\":33461:33466   */\n      dup2\n        /* \"#utility.yul\":33430:33467   */\n      tag_415\n      jump\t// in\n    tag_792:\n        /* \"#utility.yul\":33425:33428   */\n      dup3\n        /* \"#utility.yul\":33418:33468   */\n      mstore\n        /* \"#utility.yul\":33319:33474   */\n      pop\n      pop\n      jump\t// out\n        /* \"#utility.yul\":33480:33750   */\n    tag_238:\n        /* \"#utility.yul\":33597:33601   */\n      0x00\n        /* \"#utility.yul\":33635:33637   */\n      0x20\n        /* \"#utility.yul\":33624:33633   */\n      dup3\n        /* \"#utility.yul\":33620:33638   */\n      add\n        /* \"#utility.yul\":33612:33638   */\n      swap1\n      pop\n        /* \"#utility.yul\":33648:33743   */\n      tag_794\n        /* \"#utility.yul\":33740:33741   */\n      0x00\n        /* \"#utility.yul\":33729:33738   */\n      dup4\n        /* \"#utility.yul\":33725:33742   */\n      add\n        /* \"#utility.yul\":33716:33722   */\n      dup5\n        /* \"#utility.yul\":33648:33743   */\n      tag_450\n      jump\t// in\n    tag_794:\n        /* \"#utility.yul\":33480:33750   */\n      swap3\n      swap2\n      pop\n      pop\n      jump\t// out\n        /* \"#utility.yul\":33756:33915   */\n    tag_451:\n        /* \"#utility.yul\":33821:33826   */\n      0x00\n        /* \"#utility.yul\":33852:33858   */\n      dup2\n        /* \"#utility.yul\":33846:33859   */\n      mload\n        /* \"#utility.yul\":33837:33859   */\n      swap1\n      pop\n        /* \"#utility.yul\":33868:33909   */\n      tag_796\n        /* \"#utility.yul\":33903:33908   */\n      dup2\n        /* \"#utility.yul\":33868:33909   */\n      tag_407\n      jump\t// in\n    tag_796:\n        /* \"#utility.yul\":33756:33915   */\n      swap3\n      swap2\n      pop\n      pop\n      jump\t// out\n        /* \"#utility.yul\":33921:34288   */\n    tag_242:\n        /* \"#utility.yul\":33999:34005   */\n      0x00\n        /* \"#utility.yul\":34048:34050   */\n      0x20\n        /* \"#utility.yul\":34036:34045   */\n      dup3\n        /* \"#utility.yul\":34027:34034   */\n      dup5\n        /* \"#utility.yul\":34023:34046   */\n      sub\n        /* \"#utility.yul\":34019:34051   */\n      slt\n        /* \"#utility.yul\":34016:34135   */\n      iszero\n      tag_798\n      jumpi\n        /* \"#utility.yul\":34054:34133   */\n      tag_799\n      tag_381\n      jump\t// in\n    tag_799:\n        /* \"#utility.yul\":34016:34135   */\n    tag_798:\n        /* \"#utility.yul\":34174:34175   */\n      0x00\n        /* \"#utility.yul\":34199:34271   */\n      tag_800\n        /* \"#utility.yul\":34263:34270   */\n      dup5\n        /* \"#utility.yul\":34254:34260   */\n      dup3\n        /* \"#utility.yul\":34243:34252   */\n      dup6\n        /* \"#utility.yul\":34239:34261   */\n      add\n        /* \"#utility.yul\":34199:34271   */\n      tag_451\n      jump\t// in\n    tag_800:\n        /* \"#utility.yul\":34189:34271   */\n      swap2\n      pop\n        /* \"#utility.yul\":34145:34281   */\n      pop\n        /* \"#utility.yul\":33921:34288   */\n      swap3\n      swap2\n      pop\n      pop\n      jump\t// out\n        /* \"#utility.yul\":34294:34437   */\n    tag_452:\n        /* \"#utility.yul\":34351:34356   */\n      0x00\n        /* \"#utility.yul\":34382:34388   */\n      dup2\n        /* \"#utility.yul\":34376:34389   */\n      mload\n        /* \"#utility.yul\":34367:34389   */\n      swap1\n      pop\n        /* \"#utility.yul\":34398:34431   */\n      tag_802\n        /* \"#utility.yul\":34425:34430   */\n      dup2\n        /* \"#utility.yul\":34398:34431   */\n      tag_420\n      jump\t// in\n    tag_802:\n        /* \"#utility.yul\":34294:34437   */\n      swap3\n      swap2\n      pop\n      pop\n      jump\t// out\n        /* \"#utility.yul\":34443:34794   */\n    tag_267:\n        /* \"#utility.yul\":34513:34519   */\n      0x00\n        /* \"#utility.yul\":34562:34564   */\n      0x20\n        /* \"#utility.yul\":34550:34559   */\n      dup3\n        /* \"#utility.yul\":34541:34548   */\n      dup5\n        /* \"#utility.yul\":34537:34560   */\n      sub\n        /* \"#utility.yul\":34533:34565   */\n      slt\n        /* \"#utility.yul\":34530:34649   */\n      iszero\n      tag_804\n      jumpi\n        /* \"#utility.yul\":34568:34647   */\n      tag_805\n      tag_381\n      jump\t// in\n    tag_805:\n        /* \"#utility.yul\":34530:34649   */\n    tag_804:\n        /* \"#utility.yul\":34688:34689   */\n      0x00\n        /* \"#utility.yul\":34713:34777   */\n      tag_806\n        /* \"#utility.yul\":34769:34776   */\n      dup5\n        /* \"#utility.yul\":34760:34766   */\n      dup3\n        /* \"#utility.yul\":34749:34758   */\n      dup6\n        /* \"#utility.yul\":34745:34767   */\n      add\n        /* \"#utility.yul\":34713:34777   */\n      tag_452\n      jump\t// in\n    tag_806:\n        /* \"#utility.yul\":34703:34777   */\n      swap2\n      pop\n        /* \"#utility.yul\":34659:34787   */\n      pop\n        /* \"#utility.yul\":34443:34794   */\n      swap3\n      swap2\n      pop\n      pop\n      jump\t// out\n        /* \"#utility.yul\":34800:34966   */\n    tag_453:\n        /* \"#utility.yul\":34940:34958   */\n      0x6e6f7420656e6f75676820657468657200000000000000000000000000000000\n        /* \"#utility.yul\":34936:34937   */\n      0x00\n        /* \"#utility.yul\":34928:34934   */\n      dup3\n        /* \"#utility.yul\":34924:34938   */\n      add\n        /* \"#utility.yul\":34917:34959   */\n      mstore\n        /* \"#utility.yul\":34800:34966   */\n      pop\n      jump\t// out\n        /* \"#utility.yul\":34972:35338   */\n    tag_454:\n        /* \"#utility.yul\":35114:35117   */\n      0x00\n        /* \"#utility.yul\":35135:35202   */\n      tag_809\n        /* \"#utility.yul\":35199:35201   */\n      0x10\n        /* \"#utility.yul\":35194:35197   */\n      dup4\n        /* \"#utility.yul\":35135:35202   */\n      tag_399\n      jump\t// in\n    tag_809:\n        /* \"#utility.yul\":35128:35202   */\n      swap2\n      pop\n        /* \"#utility.yul\":35211:35304   */\n      tag_810\n        /* \"#utility.yul\":35300:35303   */\n      dup3\n        /* \"#utility.yul\":35211:35304   */\n      tag_453\n      jump\t// in\n    tag_810:\n        /* \"#utility.yul\":35329:35331   */\n      0x20\n        /* \"#utility.yul\":35324:35327   */\n      dup3\n        /* \"#utility.yul\":35320:35332   */\n      add\n        /* \"#utility.yul\":35313:35332   */\n      swap1\n      pop\n        /* \"#utility.yul\":34972:35338   */\n      swap2\n      swap1\n      pop\n      jump\t// out\n        /* \"#utility.yul\":35344:35763   */\n    tag_270:\n        /* \"#utility.yul\":35510:35514   */\n      0x00\n        /* \"#utility.yul\":35548:35550   */\n      0x20\n        /* \"#utility.yul\":35537:35546   */\n      dup3\n        /* \"#utility.yul\":35533:35551   */\n      add\n        /* \"#utility.yul\":35525:35551   */\n      swap1\n      pop\n        /* \"#utility.yul\":35597:35606   */\n      dup2\n        /* \"#utility.yul\":35591:35595   */\n      dup2\n        /* \"#utility.yul\":35587:35607   */\n      sub\n        /* \"#utility.yul\":35583:35584   */\n      0x00\n        /* \"#utility.yul\":35572:35581   */\n      dup4\n        /* \"#utility.yul\":35568:35585   */\n      add\n        /* \"#utility.yul\":35561:35608   */\n      mstore\n        /* \"#utility.yul\":35625:35756   */\n      tag_812\n        /* \"#utility.yul\":35751:35755   */\n      dup2\n        /* \"#utility.yul\":35625:35756   */\n      tag_454\n      jump\t// in\n    tag_812:\n        /* \"#utility.yul\":35617:35756   */\n      swap1\n      pop\n        /* \"#utility.yul\":35344:35763   */\n      swap2\n      swap1\n      pop\n      jump\t// out\n        /* \"#utility.yul\":35769:35945   */\n    tag_455:\n        /* \"#utility.yul\":35909:35937   */\n      0x696e76616c6964206c6963656e736565207369676e6174757265000000000000\n        /* \"#utility.yul\":35905:35906   */\n      0x00\n        /* \"#utility.yul\":35897:35903   */\n      dup3\n        /* \"#utility.yul\":35893:35907   */\n      add\n        /* \"#utility.yul\":35886:35938   */\n      mstore\n        /* \"#utility.yul\":35769:35945   */\n      pop\n      jump\t// out\n        /* \"#utility.yul\":35951:36317   */\n    tag_456:\n        /* \"#utility.yul\":36093:36096   */\n      0x00\n        /* \"#utility.yul\":36114:36181   */\n      tag_815\n        /* \"#utility.yul\":36178:36180   */\n      0x1a\n        /* \"#utility.yul\":36173:36176   */\n      dup4\n        /* \"#utility.yul\":36114:36181   */\n      tag_399\n      jump\t// in\n    tag_815:\n        /* \"#utility.yul\":36107:36181   */\n      swap2\n      pop\n        /* \"#utility.yul\":36190:36283   */\n      tag_816\n        /* \"#utility.yul\":36279:36282   */\n      dup3\n        /* \"#utility.yul\":36190:36283   */\n      tag_455\n      jump\t// in\n    tag_816:\n        /* \"#utility.yul\":36308:36310   */\n      0x20\n        /* \"#utility.yul\":36303:36306   */\n      dup3\n        /* \"#utility.yul\":36299:36311   */\n      add\n        /* \"#utility.yul\":36292:36311   */\n      swap1\n      pop\n        /* \"#utility.yul\":35951:36317   */\n      swap2\n      swap1\n      pop\n      jump\t// out\n        /* \"#utility.yul\":36323:36742   */\n    tag_274:\n        /* \"#utility.yul\":36489:36493   */\n      0x00\n        /* \"#utility.yul\":36527:36529   */\n      0x20\n        /* \"#utility.yul\":36516:36525   */\n      dup3\n        /* \"#utility.yul\":36512:36530   */\n      add\n        /* \"#utility.yul\":36504:36530   */\n      swap1\n      pop\n        /* \"#utility.yul\":36576:36585   */\n      dup2\n        /* \"#utility.yul\":36570:36574   */\n      dup2\n        /* \"#utility.yul\":36566:36586   */\n      sub\n        /* \"#utility.yul\":36562:36563   */\n      0x00\n        /* \"#utility.yul\":36551:36560   */\n      dup4\n        /* \"#utility.yul\":36547:36564   */\n      add\n        /* \"#utility.yul\":36540:36587   */\n      mstore\n        /* \"#utility.yul\":36604:36735   */\n      tag_818\n        /* \"#utility.yul\":36730:36734   */\n      dup2\n        /* \"#utility.yul\":36604:36735   */\n      tag_456\n      jump\t// in\n    tag_818:\n        /* \"#utility.yul\":36596:36735   */\n      swap1\n      pop\n        /* \"#utility.yul\":36323:36742   */\n      swap2\n      swap1\n      pop\n      jump\t// out\n        /* \"#utility.yul\":36748:36895   */\n    tag_457:\n        /* \"#utility.yul\":36849:36860   */\n      0x00\n        /* \"#utility.yul\":36886:36889   */\n      dup2\n        /* \"#utility.yul\":36871:36889   */\n      swap1\n      pop\n        /* \"#utility.yul\":36748:36895   */\n      swap3\n      swap2\n      pop\n      pop\n      jump\t// out\n        /* \"#utility.yul\":36901:37015   */\n    tag_458:\n      pop\n      jump\t// out\n        /* \"#utility.yul\":37021:37419   */\n    tag_459:\n        /* \"#utility.yul\":37180:37183   */\n      0x00\n        /* \"#utility.yul\":37201:37284   */\n      tag_822\n        /* \"#utility.yul\":37282:37283   */\n      0x00\n        /* \"#utility.yul\":37277:37280   */\n      dup4\n        /* \"#utility.yul\":37201:37284   */\n      tag_457\n      jump\t// in\n    tag_822:\n        /* \"#utility.yul\":37194:37284   */\n      swap2\n      pop\n        /* \"#utility.yul\":37293:37386   */\n      tag_823\n        /* \"#utility.yul\":37382:37385   */\n      dup3\n        /* \"#utility.yul\":37293:37386   */\n      tag_458\n      jump\t// in\n    tag_823:\n        /* \"#utility.yul\":37411:37412   */\n      0x00\n        /* \"#utility.yul\":37406:37409   */\n      dup3\n        /* \"#utility.yul\":37402:37413   */\n      add\n        /* \"#utility.yul\":37395:37413   */\n      swap1\n      pop\n        /* \"#utility.yul\":37021:37419   */\n      swap2\n      swap1\n      pop\n      jump\t// out\n        /* \"#utility.yul\":37425:37804   */\n    tag_284:\n        /* \"#utility.yul\":37609:37612   */\n      0x00\n        /* \"#utility.yul\":37631:37778   */\n      tag_825\n        /* \"#utility.yul\":37774:37777   */\n      dup3\n        /* \"#utility.yul\":37631:37778   */\n      tag_459\n      jump\t// in\n    tag_825:\n        /* \"#utility.yul\":37624:37778   */\n      swap2\n      pop\n        /* \"#utility.yul\":37795:37798   */\n      dup2\n        /* \"#utility.yul\":37788:37798   */\n      swap1\n      pop\n        /* \"#utility.yul\":37425:37804   */\n      swap2\n      swap1\n      pop\n      jump\t// out\n        /* \"#utility.yul\":37810:37980   */\n    tag_460:\n        /* \"#utility.yul\":37950:37972   */\n      0x6661696c656420746f2073656e64206574686572000000000000000000000000\n        /* \"#utility.yul\":37946:37947   */\n      0x00\n        /* \"#utility.yul\":37938:37944   */\n      dup3\n        /* \"#utility.yul\":37934:37948   */\n      add\n        /* \"#utility.yul\":37927:37973   */\n      mstore\n        /* \"#utility.yul\":37810:37980   */\n      pop\n      jump\t// out\n        /* \"#utility.yul\":37986:38352   */\n    tag_461:\n        /* \"#utility.yul\":38128:38131   */\n      0x00\n        /* \"#utility.yul\":38149:38216   */\n      tag_828\n        /* \"#utility.yul\":38213:38215   */\n      0x14\n        /* \"#utility.yul\":38208:38211   */\n      dup4\n        /* \"#utility.yul\":38149:38216   */\n      tag_399\n      jump\t// in\n    tag_828:\n        /* \"#utility.yul\":38142:38216   */\n      swap2\n      pop\n        /* \"#utility.yul\":38225:38318   */\n      tag_829\n        /* \"#utility.yul\":38314:38317   */\n      dup3\n        /* \"#utility.yul\":38225:38318   */\n      tag_460\n      jump\t// in\n    tag_829:\n        /* \"#utility.yul\":38343:38345   */\n      0x20\n        /* \"#utility.yul\":38338:38341   */\n      dup3\n        /* \"#utility.yul\":38334:38346   */\n      add\n        /* \"#utility.yul\":38327:38346   */\n      swap1\n      pop\n        /* \"#utility.yul\":37986:38352   */\n      swap2\n      swap1\n      pop\n      jump\t// out\n        /* \"#utility.yul\":38358:38777   */\n    tag_290:\n        /* \"#utility.yul\":38524:38528   */\n      0x00\n        /* \"#utility.yul\":38562:38564   */\n      0x20\n        /* \"#utility.yul\":38551:38560   */\n      dup3\n        /* \"#utility.yul\":38547:38565   */\n      add\n        /* \"#utility.yul\":38539:38565   */\n      swap1\n      pop\n        /* \"#utility.yul\":38611:38620   */\n      dup2\n        /* \"#utility.yul\":38605:38609   */\n      dup2\n        /* \"#utility.yul\":38601:38621   */\n      sub\n        /* \"#utility.yul\":38597:38598   */\n      0x00\n        /* \"#utility.yul\":38586:38595   */\n      dup4\n        /* \"#utility.yul\":38582:38599   */\n      add\n        /* \"#utility.yul\":38575:38622   */\n      mstore\n        /* \"#utility.yul\":38639:38770   */\n      tag_831\n        /* \"#utility.yul\":38765:38769   */\n      dup2\n        /* \"#utility.yul\":38639:38770   */\n      tag_461\n      jump\t// in\n    tag_831:\n        /* \"#utility.yul\":38631:38770   */\n      swap1\n      pop\n        /* \"#utility.yul\":38358:38777   */\n      swap2\n      swap1\n      pop\n      jump\t// out\n        /* \"#utility.yul\":38783:38997   */\n    tag_462:\n        /* \"#utility.yul\":38923:38989   */\n      0x19457468657265756d205369676e6564204d6573736167653a0a000000000000\n        /* \"#utility.yul\":38919:38920   */\n      0x00\n        /* \"#utility.yul\":38911:38917   */\n      dup3\n        /* \"#utility.yul\":38907:38921   */\n      add\n        /* \"#utility.yul\":38900:38990   */\n      mstore\n        /* \"#utility.yul\":38783:38997   */\n      pop\n      jump\t// out\n        /* \"#utility.yul\":39003:39405   */\n    tag_463:\n        /* \"#utility.yul\":39163:39166   */\n      0x00\n        /* \"#utility.yul\":39184:39269   */\n      tag_834\n        /* \"#utility.yul\":39266:39268   */\n      0x1a\n        /* \"#utility.yul\":39261:39264   */\n      dup4\n        /* \"#utility.yul\":39184:39269   */\n      tag_430\n      jump\t// in\n    tag_834:\n        /* \"#utility.yul\":39177:39269   */\n      swap2\n      pop\n        /* \"#utility.yul\":39278:39371   */\n      tag_835\n        /* \"#utility.yul\":39367:39370   */\n      dup3\n        /* \"#utility.yul\":39278:39371   */\n      tag_462\n      jump\t// in\n    tag_835:\n        /* \"#utility.yul\":39396:39398   */\n      0x1a\n        /* \"#utility.yul\":39391:39394   */\n      dup3\n        /* \"#utility.yul\":39387:39399   */\n      add\n        /* \"#utility.yul\":39380:39399   */\n      swap1\n      pop\n        /* \"#utility.yul\":39003:39405   */\n      swap2\n      swap1\n      pop\n      jump\t// out\n        /* \"#utility.yul\":39411:40112   */\n    tag_314:\n        /* \"#utility.yul\":39692:39695   */\n      0x00\n        /* \"#utility.yul\":39714:39862   */\n      tag_837\n        /* \"#utility.yul\":39858:39861   */\n      dup3\n        /* \"#utility.yul\":39714:39862   */\n      tag_463\n      jump\t// in\n    tag_837:\n        /* \"#utility.yul\":39707:39862   */\n      swap2\n      pop\n        /* \"#utility.yul\":39879:39974   */\n      tag_838\n        /* \"#utility.yul\":39970:39973   */\n      dup3\n        /* \"#utility.yul\":39961:39967   */\n      dup6\n        /* \"#utility.yul\":39879:39974   */\n      tag_439\n      jump\t// in\n    tag_838:\n        /* \"#utility.yul\":39872:39974   */\n      swap2\n      pop\n        /* \"#utility.yul\":39991:40086   */\n      tag_839\n        /* \"#utility.yul\":40082:40085   */\n      dup3\n        /* \"#utility.yul\":40073:40079   */\n      dup5\n        /* \"#utility.yul\":39991:40086   */\n      tag_439\n      jump\t// in\n    tag_839:\n        /* \"#utility.yul\":39984:40086   */\n      swap2\n      pop\n        /* \"#utility.yul\":40103:40106   */\n      dup2\n        /* \"#utility.yul\":40096:40106   */\n      swap1\n      pop\n        /* \"#utility.yul\":39411:40112   */\n      swap4\n      swap3\n      pop\n      pop\n      pop\n      jump\t// out\n        /* \"#utility.yul\":40118:40195   */\n    tag_464:\n        /* \"#utility.yul\":40155:40162   */\n      0x00\n        /* \"#utility.yul\":40184:40189   */\n      dup2\n        /* \"#utility.yul\":40173:40189   */\n      swap1\n      pop\n        /* \"#utility.yul\":40118:40195   */\n      swap2\n      swap1\n      pop\n      jump\t// out\n        /* \"#utility.yul\":40201:40319   */\n    tag_465:\n        /* \"#utility.yul\":40288:40312   */\n      tag_842\n        /* \"#utility.yul\":40306:40311   */\n      dup2\n        /* \"#utility.yul\":40288:40312   */\n      tag_464\n      jump\t// in\n    tag_842:\n        /* \"#utility.yul\":40283:40286   */\n      dup3\n        /* \"#utility.yul\":40276:40313   */\n      mstore\n        /* \"#utility.yul\":40201:40319   */\n      pop\n      pop\n      jump\t// out\n        /* \"#utility.yul\":40325:40411   */\n    tag_466:\n        /* \"#utility.yul\":40360:40367   */\n      0x00\n        /* \"#utility.yul\":40400:40404   */\n      0xff\n        /* \"#utility.yul\":40393:40398   */\n      dup3\n        /* \"#utility.yul\":40389:40405   */\n      and\n        /* \"#utility.yul\":40378:40405   */\n      swap1\n      pop\n        /* \"#utility.yul\":40325:40411   */\n      swap2\n      swap1\n      pop\n      jump\t// out\n        /* \"#utility.yul\":40417:40529   */\n    tag_467:\n        /* \"#utility.yul\":40500:40522   */\n      tag_845\n        /* \"#utility.yul\":40516:40521   */\n      dup2\n        /* \"#utility.yul\":40500:40522   */\n      tag_466\n      jump\t// in\n    tag_845:\n        /* \"#utility.yul\":40495:40498   */\n      dup3\n        /* \"#utility.yul\":40488:40523   */\n      mstore\n        /* \"#utility.yul\":40417:40529   */\n      pop\n      pop\n      jump\t// out\n        /* \"#utility.yul\":40535:41080   */\n    tag_316:\n        /* \"#utility.yul\":40708:40712   */\n      0x00\n        /* \"#utility.yul\":40746:40749   */\n      0x80\n        /* \"#utility.yul\":40735:40744   */\n      dup3\n        /* \"#utility.yul\":40731:40750   */\n      add\n        /* \"#utility.yul\":40723:40750   */\n      swap1\n      pop\n        /* \"#utility.yul\":40760:40831   */\n      tag_847\n        /* \"#utility.yul\":40828:40829   */\n      0x00\n        /* \"#utility.yul\":40817:40826   */\n      dup4\n        /* \"#utility.yul\":40813:40830   */\n      add\n        /* \"#utility.yul\":40804:40810   */\n      dup8\n        /* \"#utility.yul\":40760:40831   */\n      tag_465\n      jump\t// in\n    tag_847:\n        /* \"#utility.yul\":40841:40909   */\n      tag_848\n        /* \"#utility.yul\":40905:40907   */\n      0x20\n        /* \"#utility.yul\":40894:40903   */\n      dup4\n        /* \"#utility.yul\":40890:40908   */\n      add\n        /* \"#utility.yul\":40881:40887   */\n      dup7\n        /* \"#utility.yul\":40841:40909   */\n      tag_467\n      jump\t// in\n    tag_848:\n        /* \"#utility.yul\":40919:40991   */\n      tag_849\n        /* \"#utility.yul\":40987:40989   */\n      0x40\n        /* \"#utility.yul\":40976:40985   */\n      dup4\n        /* \"#utility.yul\":40972:40990   */\n      add\n        /* \"#utility.yul\":40963:40969   */\n      dup6\n        /* \"#utility.yul\":40919:40991   */\n      tag_465\n      jump\t// in\n    tag_849:\n        /* \"#utility.yul\":41001:41073   */\n      tag_850\n        /* \"#utility.yul\":41069:41071   */\n      0x60\n        /* \"#utility.yul\":41058:41067   */\n      dup4\n        /* \"#utility.yul\":41054:41072   */\n      add\n        /* \"#utility.yul\":41045:41051   */\n      dup5\n        /* \"#utility.yul\":41001:41073   */\n      tag_465\n      jump\t// in\n    tag_850:\n        /* \"#utility.yul\":40535:41080   */\n      swap6\n      swap5\n      pop\n      pop\n      pop\n      pop\n      pop\n      jump\t// out\n        /* \"#utility.yul\":41086:41266   */\n    tag_468:\n        /* \"#utility.yul\":41134:41211   */\n      0x4e487b7100000000000000000000000000000000000000000000000000000000\n        /* \"#utility.yul\":41131:41132   */\n      0x00\n        /* \"#utility.yul\":41124:41212   */\n      mstore\n        /* \"#utility.yul\":41231:41235   */\n      0x11\n        /* \"#utility.yul\":41228:41229   */\n      0x04\n        /* \"#utility.yul\":41221:41236   */\n      mstore\n        /* \"#utility.yul\":41255:41259   */\n      0x24\n        /* \"#utility.yul\":41252:41253   */\n      0x00\n        /* \"#utility.yul\":41245:41260   */\n      revert\n        /* \"#utility.yul\":41272:41463   */\n    tag_323:\n        /* \"#utility.yul\":41312:41315   */\n      0x00\n        /* \"#utility.yul\":41331:41351   */\n      tag_853\n        /* \"#utility.yul\":41349:41350   */\n      dup3\n        /* \"#utility.yul\":41331:41351   */\n      tag_402\n      jump\t// in\n    tag_853:\n        /* \"#utility.yul\":41326:41351   */\n      swap2\n      pop\n        /* \"#utility.yul\":41365:41385   */\n      tag_854\n        /* \"#utility.yul\":41383:41384   */\n      dup4\n        /* \"#utility.yul\":41365:41385   */\n      tag_402\n      jump\t// in\n    tag_854:\n        /* \"#utility.yul\":41360:41385   */\n      swap3\n      pop\n        /* \"#utility.yul\":41408:41409   */\n      dup3\n        /* \"#utility.yul\":41405:41406   */\n      dup3\n        /* \"#utility.yul\":41401:41410   */\n      add\n        /* \"#utility.yul\":41394:41410   */\n      swap1\n      pop\n        /* \"#utility.yul\":41429:41432   */\n      dup1\n        /* \"#utility.yul\":41426:41427   */\n      dup3\n        /* \"#utility.yul\":41423:41433   */\n      gt\n        /* \"#utility.yul\":41420:41456   */\n      iszero\n      tag_855\n      jumpi\n        /* \"#utility.yul\":41436:41454   */\n      tag_856\n      tag_468\n      jump\t// in\n    tag_856:\n        /* \"#utility.yul\":41420:41456   */\n    tag_855:\n        /* \"#utility.yul\":41272:41463   */\n      swap3\n      swap2\n      pop\n      pop\n      jump\t// out\n        /* \"#utility.yul\":41469:41562   */\n    tag_469:\n        /* \"#utility.yul\":41506:41512   */\n      0x00\n        /* \"#utility.yul\":41553:41555   */\n      0x20\n        /* \"#utility.yul\":41548:41550   */\n      0x1f\n        /* \"#utility.yul\":41541:41546   */\n      dup4\n        /* \"#utility.yul\":41537:41551   */\n      add\n        /* \"#utility.yul\":41533:41556   */\n      div\n        /* \"#utility.yul\":41523:41556   */\n      swap1\n      pop\n        /* \"#utility.yul\":41469:41562   */\n      swap2\n      swap1\n      pop\n      jump\t// out\n        /* \"#utility.yul\":41568:41675   */\n    tag_470:\n        /* \"#utility.yul\":41612:41620   */\n      0x00\n        /* \"#utility.yul\":41662:41667   */\n      dup3\n        /* \"#utility.yul\":41656:41660   */\n      dup3\n        /* \"#utility.yul\":41652:41668   */\n      shl\n        /* \"#utility.yul\":41631:41668   */\n      swap1\n      pop\n        /* \"#utility.yul\":41568:41675   */\n      swap3\n      swap2\n      pop\n      pop\n      jump\t// out\n        /* \"#utility.yul\":41681:42074   */\n    tag_471:\n        /* \"#utility.yul\":41750:41756   */\n      0x00\n        /* \"#utility.yul\":41800:41801   */\n      0x08\n        /* \"#utility.yul\":41788:41798   */\n      dup4\n        /* \"#utility.yul\":41784:41802   */\n      mul\n        /* \"#utility.yul\":41823:41920   */\n      tag_860\n        /* \"#utility.yul\":41853:41919   */\n      0xffffffffffffffffffffffffffffffffffffffffffffffffffffffffffffffff\n        /* \"#utility.yul\":41842:41851   */\n      dup3\n        /* \"#utility.yul\":41823:41920   */\n      tag_470\n      jump\t// in\n    tag_860:\n        /* \"#utility.yul\":41941:41980   */\n      tag_861\n        /* \"#utility.yul\":41971:41979   */\n      dup7\n        /* \"#utility.yul\":41960:41969   */\n      dup4\n        /* \"#utility.yul\":41941:41980   */\n      tag_470\n      jump\t// in\n    tag_861:\n        /* \"#utility.yul\":41929:41980   */\n      swap6\n      pop\n        /* \"#utility.yul\":42013:42017   */\n      dup1\n        /* \"#utility.yul\":42009:42018   */\n      not\n        /* \"#utility.yul\":42002:42007   */\n      dup5\n        /* \"#utility.yul\":41998:42019   */\n      and\n        /* \"#utility.yul\":41989:42019   */\n      swap4\n      pop\n        /* \"#utility.yul\":42062:42066   */\n      dup1\n        /* \"#utility.yul\":42052:42060   */\n      dup7\n        /* \"#utility.yul\":42048:42067   */\n      and\n        /* \"#utility.yul\":42041:42046   */\n      dup5\n        /* \"#utility.yul\":42038:42068   */\n      or\n        /* \"#utility.yul\":42028:42068   */\n      swap3\n      pop\n        /* \"#utility.yul\":41757:42074   */\n      pop\n      pop\n        /* \"#utility.yul\":41681:42074   */\n      swap4\n      swap3\n      pop\n      pop\n      pop\n      jump\t// out\n        /* \"#utility.yul\":42080:42155   */\n    tag_472:\n        /* \"#utility.yul\":42123:42126   */\n      0x00\n        /* \"#utility.yul\":42144:42149   */\n      dup2\n        /* \"#utility.yul\":42137:42149   */\n      swap1\n      pop\n        /* \"#utility.yul\":42080:42155   */\n      swap2\n      swap1\n      pop\n      jump\t// out\n        /* \"#utility.yul\":42161:42430   */\n    tag_473:\n        /* \"#utility.yul\":42271:42310   */\n      tag_864\n        /* \"#utility.yul\":42302:42309   */\n      dup4\n        /* \"#utility.yul\":42271:42310   */\n      tag_415\n      jump\t// in\n    tag_864:\n        /* \"#utility.yul\":42332:42423   */\n      tag_865\n        /* \"#utility.yul\":42381:42422   */\n      tag_866\n        /* \"#utility.yul\":42405:42421   */\n      dup3\n        /* \"#utility.yul\":42381:42422   */\n      tag_472\n      jump\t// in\n    tag_866:\n        /* \"#utility.yul\":42373:42379   */\n      dup5\n        /* \"#utility.yul\":42366:42370   */\n      dup5\n        /* \"#utility.yul\":42360:42371   */\n      sload\n        /* \"#utility.yul\":42332:42423   */\n      tag_471\n      jump\t// in\n    tag_865:\n        /* \"#utility.yul\":42326:42330   */\n      dup3\n        /* \"#utility.yul\":42319:42424   */\n      sstore\n        /* \"#utility.yul\":42237:42430   */\n      pop\n        /* \"#utility.yul\":42161:42430   */\n      pop\n      pop\n      pop\n      jump\t// out\n        /* \"#utility.yul\":42436:42509   */\n    tag_474:\n        /* \"#utility.yul\":42481:42484   */\n      0x00\n        /* \"#utility.yul\":42436:42509   */\n      swap1\n      jump\t// out\n        /* \"#utility.yul\":42515:42704   */\n    tag_475:\n        /* \"#utility.yul\":42592:42624   */\n      tag_869\n      tag_474\n      jump\t// in\n    tag_869:\n        /* \"#utility.yul\":42633:42698   */\n      tag_870\n        /* \"#utility.yul\":42691:42697   */\n      dup2\n        /* \"#utility.yul\":42683:42689   */\n      dup5\n        /* \"#utility.yul\":42677:42681   */\n      dup5\n        /* \"#utility.yul\":42633:42698   */\n      tag_473\n      jump\t// in\n    tag_870:\n        /* \"#utility.yul\":42568:42704   */\n      pop\n        /* \"#utility.yul\":42515:42704   */\n      pop\n      pop\n      jump\t// out\n        /* \"#utility.yul\":42710:42896   */\n    tag_476:\n        /* \"#utility.yul\":42770:42890   */\n    tag_872:\n        /* \"#utility.yul\":42787:42790   */\n      dup2\n        /* \"#utility.yul\":42780:42785   */\n      dup2\n        /* \"#utility.yul\":42777:42791   */\n      lt\n        /* \"#utility.yul\":42770:42890   */\n      iszero\n      tag_874\n      jumpi\n        /* \"#utility.yul\":42841:42880   */\n      tag_875\n        /* \"#utility.yul\":42878:42879   */\n      0x00\n        /* \"#utility.yul\":42871:42876   */\n      dup3\n        /* \"#utility.yul\":42841:42880   */\n      tag_475\n      jump\t// in\n    tag_875:\n        /* \"#utility.yul\":42814:42815   */\n      0x01\n        /* \"#utility.yul\":42807:42812   */\n      dup2\n        /* \"#utility.yul\":42803:42816   */\n      add\n        /* \"#utility.yul\":42794:42816   */\n      swap1\n      pop\n        /* \"#utility.yul\":42770:42890   */\n      jump(tag_872)\n    tag_874:\n        /* \"#utility.yul\":42710:42896   */\n      pop\n      pop\n      jump\t// out\n        /* \"#utility.yul\":42902:43445   */\n    tag_477:\n        /* \"#utility.yul\":43003:43005   */\n      0x1f\n        /* \"#utility.yul\":42998:43001   */\n      dup3\n        /* \"#utility.yul\":42995:43006   */\n      gt\n        /* \"#utility.yul\":42992:43438   */\n      iszero\n      tag_877\n      jumpi\n        /* \"#utility.yul\":43037:43075   */\n      tag_878\n        /* \"#utility.yul\":43069:43074   */\n      dup2\n        /* \"#utility.yul\":43037:43075   */\n      tag_431\n      jump\t// in\n    tag_878:\n        /* \"#utility.yul\":43121:43150   */\n      tag_879\n        /* \"#utility.yul\":43139:43149   */\n      dup5\n        /* \"#utility.yul\":43121:43150   */\n      tag_469\n      jump\t// in\n    tag_879:\n        /* \"#utility.yul\":43111:43119   */\n      dup2\n        /* \"#utility.yul\":43107:43151   */\n      add\n        /* \"#utility.yul\":43304:43306   */\n      0x20\n        /* \"#utility.yul\":43292:43302   */\n      dup6\n        /* \"#utility.yul\":43289:43307   */\n      lt\n        /* \"#utility.yul\":43286:43335   */\n      iszero\n      tag_880\n      jumpi\n        /* \"#utility.yul\":43325:43333   */\n      dup2\n        /* \"#utility.yul\":43310:43333   */\n      swap1\n      pop\n        /* \"#utility.yul\":43286:43335   */\n    tag_880:\n        /* \"#utility.yul\":43348:43428   */\n      tag_881\n        /* \"#utility.yul\":43404:43426   */\n      tag_882\n        /* \"#utility.yul\":43422:43425   */\n      dup6\n        /* \"#utility.yul\":43404:43426   */\n      tag_469\n      jump\t// in\n    tag_882:\n        /* \"#utility.yul\":43394:43402   */\n      dup4\n        /* \"#utility.yul\":43390:43427   */\n      add\n        /* \"#utility.yul\":43377:43388   */\n      dup3\n        /* \"#utility.yul\":43348:43428   */\n      tag_476\n      jump\t// in\n    tag_881:\n        /* \"#utility.yul\":43007:43438   */\n      pop\n      pop\n        /* \"#utility.yul\":42992:43438   */\n    tag_877:\n        /* \"#utility.yul\":42902:43445   */\n      pop\n      pop\n      pop\n      jump\t// out\n        /* \"#utility.yul\":43451:43568   */\n    tag_478:\n        /* \"#utility.yul\":43505:43513   */\n      0x00\n        /* \"#utility.yul\":43555:43560   */\n      dup3\n        /* \"#utility.yul\":43549:43553   */\n      dup3\n        /* \"#utility.yul\":43545:43561   */\n      shr\n        /* \"#utility.yul\":43524:43561   */\n      swap1\n      pop\n        /* \"#utility.yul\":43451:43568   */\n      swap3\n      swap2\n      pop\n      pop\n      jump\t// out\n        /* \"#utility.yul\":43574:43743   */\n    tag_479:\n        /* \"#utility.yul\":43618:43624   */\n      0x00\n        /* \"#utility.yul\":43651:43702   */\n      tag_885\n        /* \"#utility.yul\":43699:43700   */\n      0x00\n        /* \"#utility.yul\":43695:43701   */\n      not\n        /* \"#utility.yul\":43687:43692   */\n      dup5\n        /* \"#utility.yul\":43684:43685   */\n      0x08\n        /* \"#utility.yul\":43680:43693   */\n      mul\n        /* \"#utility.yul\":43651:43702   */\n      tag_478\n      jump\t// in\n    tag_885:\n        /* \"#utility.yul\":43647:43703   */\n      not\n        /* \"#utility.yul\":43732:43736   */\n      dup1\n        /* \"#utility.yul\":43726:43730   */\n      dup4\n        /* \"#utility.yul\":43722:43737   */\n      and\n        /* \"#utility.yul\":43712:43737   */\n      swap2\n      pop\n        /* \"#utility.yul\":43625:43743   */\n      pop\n        /* \"#utility.yul\":43574:43743   */\n      swap3\n      swap2\n      pop\n      pop\n      jump\t// out\n        /* \"#utility.yul\":43748:44043   */\n    tag_480:\n        /* \"#utility.yul\":43824:43828   */\n      0x00\n        /* \"#utility.yul\":43970:43999   */\n      tag_887\n        /* \"#utility.yul\":43995:43998   */\n      dup4\n        /* \"#utility.yul\":43989:43993   */\n      dup4\n        /* \"#utility.yul\":43970:43999   */\n      tag_479\n      jump\t// in\n    tag_887:\n        /* \"#utility.yul\":43962:43999   */\n      swap2\n      pop\n        /* \"#utility.yul\":44032:44035   */\n      dup3\n        /* \"#utility.yul\":44029:44030   */\n      0x02\n        /* \"#utility.yul\":44025:44036   */\n      mul\n        /* \"#utility.yul\":44019:44023   */\n      dup3\n        /* \"#utility.yul\":44016:44037   */\n      or\n        /* \"#utility.yul\":44008:44037   */\n      swap1\n      pop\n        /* \"#utility.yul\":43748:44043   */\n      swap3\n      swap2\n      pop\n      pop\n      jump\t// out\n        /* \"#utility.yul\":44048:45443   */\n    tag_326:\n        /* \"#utility.yul\":44165:44202   */\n      tag_889\n        /* \"#utility.yul\":44198:44201   */\n      dup3\n        /* \"#utility.yul\":44165:44202   */\n      tag_398\n      jump\t// in\n    tag_889:\n        /* \"#utility.yul\":44267:44285   */\n      0xffffffffffffffff\n        /* \"#utility.yul\":44259:44265   */\n      dup2\n        /* \"#utility.yul\":44256:44286   */\n      gt\n        /* \"#utility.yul\":44253:44309   */\n      iszero\n      tag_890\n      jumpi\n        /* \"#utility.yul\":44289:44307   */\n      tag_891\n      tag_182\n      jump\t// in\n    tag_891:\n        /* \"#utility.yul\":44253:44309   */\n    tag_890:\n        /* \"#utility.yul\":44333:44371   */\n      tag_892\n        /* \"#utility.yul\":44365:44369   */\n      dup3\n        /* \"#utility.yul\":44359:44370   */\n      sload\n        /* \"#utility.yul\":44333:44371   */\n      tag_168\n      jump\t// in\n    tag_892:\n        /* \"#utility.yul\":44418:44485   */\n      tag_893\n        /* \"#utility.yul\":44478:44484   */\n      dup3\n        /* \"#utility.yul\":44470:44476   */\n      dup3\n        /* \"#utility.yul\":44464:44468   */\n      dup6\n        /* \"#utility.yul\":44418:44485   */\n      tag_477\n      jump\t// in\n    tag_893:\n        /* \"#utility.yul\":44512:44513   */\n      0x00\n        /* \"#utility.yul\":44536:44540   */\n      0x20\n        /* \"#utility.yul\":44523:44540   */\n      swap1\n      pop\n        /* \"#utility.yul\":44568:44570   */\n      0x1f\n        /* \"#utility.yul\":44560:44566   */\n      dup4\n        /* \"#utility.yul\":44557:44571   */\n      gt\n        /* \"#utility.yul\":44585:44586   */\n      0x01\n        /* \"#utility.yul\":44580:45198   */\n      dup2\n      eq\n      tag_895\n      jumpi\n        /* \"#utility.yul\":45242:45243   */\n      0x00\n        /* \"#utility.yul\":45259:45265   */\n      dup5\n        /* \"#utility.yul\":45256:45333   */\n      iszero\n      tag_896\n      jumpi\n        /* \"#utility.yul\":45308:45317   */\n      dup3\n        /* \"#utility.yul\":45303:45306   */\n      dup8\n        /* \"#utility.yul\":45299:45318   */\n      add\n        /* \"#utility.yul\":45293:45319   */\n      mload\n        /* \"#utility.yul\":45284:45319   */\n      swap1\n      pop\n        /* \"#utility.yul\":45256:45333   */\n    tag_896:\n        /* \"#utility.yul\":45359:45426   */\n      tag_897\n        /* \"#utility.yul\":45419:45425   */\n      dup6\n        /* \"#utility.yul\":45412:45417   */\n      dup3\n        /* \"#utility.yul\":45359:45426   */\n      tag_480\n      jump\t// in\n    tag_897:\n        /* \"#utility.yul\":45353:45357   */\n      dup7\n        /* \"#utility.yul\":45346:45427   */\n      sstore\n        /* \"#utility.yul\":45215:45437   */\n      pop\n        /* \"#utility.yul\":44550:45437   */\n      jump(tag_894)\n        /* \"#utility.yul\":44580:45198   */\n    tag_895:\n        /* \"#utility.yul\":44632:44636   */\n      0x1f\n        /* \"#utility.yul\":44628:44637   */\n      not\n        /* \"#utility.yul\":44620:44626   */\n      dup5\n        /* \"#utility.yul\":44616:44638   */\n      and\n        /* \"#utility.yul\":44666:44703   */\n      tag_898\n        /* \"#utility.yul\":44698:44702   */\n      dup7\n        /* \"#utility.yul\":44666:44703   */\n      tag_431\n      jump\t// in\n    tag_898:\n        /* \"#utility.yul\":44725:44726   */\n      0x00\n        /* \"#utility.yul\":44739:44947   */\n    tag_899:\n        /* \"#utility.yul\":44753:44760   */\n      dup3\n        /* \"#utility.yul\":44750:44751   */\n      dup2\n        /* \"#utility.yul\":44747:44761   */\n      lt\n        /* \"#utility.yul\":44739:44947   */\n      iszero\n      tag_901\n      jumpi\n        /* \"#utility.yul\":44832:44841   */\n      dup5\n        /* \"#utility.yul\":44827:44830   */\n      dup10\n        /* \"#utility.yul\":44823:44842   */\n      add\n        /* \"#utility.yul\":44817:44843   */\n      mload\n        /* \"#utility.yul\":44809:44815   */\n      dup3\n        /* \"#utility.yul\":44802:44844   */\n      sstore\n        /* \"#utility.yul\":44883:44884   */\n      0x01\n        /* \"#utility.yul\":44875:44881   */\n      dup3\n        /* \"#utility.yul\":44871:44885   */\n      add\n        /* \"#utility.yul\":44861:44885   */\n      swap2\n      pop\n        /* \"#utility.yul\":44930:44932   */\n      0x20\n        /* \"#utility.yul\":44919:44928   */\n      dup6\n        /* \"#utility.yul\":44915:44933   */\n      add\n        /* \"#utility.yul\":44902:44933   */\n      swap5\n      pop\n        /* \"#utility.yul\":44776:44780   */\n      0x20\n        /* \"#utility.yul\":44773:44774   */\n      dup2\n        /* \"#utility.yul\":44769:44781   */\n      add\n        /* \"#utility.yul\":44764:44781   */\n      swap1\n      pop\n        /* \"#utility.yul\":44739:44947   */\n      jump(tag_899)\n    tag_901:\n        /* \"#utility.yul\":44975:44981   */\n      dup7\n        /* \"#utility.yul\":44966:44973   */\n      dup4\n        /* \"#utility.yul\":44963:44982   */\n      lt\n        /* \"#utility.yul\":44960:45139   */\n      iszero\n      tag_902\n      jumpi\n        /* \"#utility.yul\":45033:45042   */\n      dup5\n        /* \"#utility.yul\":45028:45031   */\n      dup10\n        /* \"#utility.yul\":45024:45043   */\n      add\n        /* \"#utility.yul\":45018:45044   */\n      mload\n        /* \"#utility.yul\":45076:45124   */\n      tag_903\n        /* \"#utility.yul\":45118:45122   */\n      0x1f\n        /* \"#utility.yul\":45110:45116   */\n      dup10\n        /* \"#utility.yul\":45106:45123   */\n      and\n        /* \"#utility.yul\":45095:45104   */\n      dup3\n        /* \"#utility.yul\":45076:45124   */\n      tag_479\n      jump\t// in\n    tag_903:\n        /* \"#utility.yul\":45068:45074   */\n      dup4\n        /* \"#utility.yul\":45061:45125   */\n      sstore\n        /* \"#utility.yul\":44983:45139   */\n      pop\n        /* \"#utility.yul\":44960:45139   */\n    tag_902:\n        /* \"#utility.yul\":45185:45186   */\n      0x01\n        /* \"#utility.yul\":45181:45182   */\n      0x02\n        /* \"#utility.yul\":45173:45179   */\n      dup9\n        /* \"#utility.yul\":45169:45183   */\n      mul\n        /* \"#utility.yul\":45165:45187   */\n      add\n        /* \"#utility.yul\":45159:45163   */\n      dup9\n        /* \"#utility.yul\":45152:45188   */\n      sstore\n        /* \"#utility.yul\":44587:45198   */\n      pop\n      pop\n      pop\n        /* \"#utility.yul\":44550:45437   */\n    tag_894:\n      pop\n        /* \"#utility.yul\":44140:45443   */\n      pop\n      pop\n      pop\n        /* \"#utility.yul\":44048:45443   */\n      pop\n      pop\n      jump\t// out\n        /* \"#utility.yul\":45449:45629   */\n    tag_337:\n        /* \"#utility.yul\":45497:45574   */\n      0x4e487b7100000000000000000000000000000000000000000000000000000000\n        /* \"#utility.yul\":45494:45495   */\n      0x00\n        /* \"#utility.yul\":45487:45575   */\n      mstore\n        /* \"#utility.yul\":45594:45598   */\n      0x12\n        /* \"#utility.yul\":45591:45592   */\n      0x04\n        /* \"#utility.yul\":45584:45599   */\n      mstore\n        /* \"#utility.yul\":45618:45622   */\n      0x24\n        /* \"#utility.yul\":45615:45616   */\n      0x00\n        /* \"#utility.yul\":45608:45623   */\n      revert\n        /* \"#utility.yul\":45635:45820   */\n    tag_343:\n        /* \"#utility.yul\":45675:45676   */\n      0x00\n        /* \"#utility.yul\":45692:45712   */\n      tag_906\n        /* \"#utility.yul\":45710:45711   */\n      dup3\n        /* \"#utility.yul\":45692:45712   */\n      tag_402\n      jump\t// in\n    tag_906:\n        /* \"#utility.yul\":45687:45712   */\n      swap2\n      pop\n        /* \"#utility.yul\":45726:45746   */\n      tag_907\n        /* \"#utility.yul\":45744:45745   */\n      dup4\n        /* \"#utility.yul\":45726:45746   */\n      tag_402\n      jump\t// in\n    tag_907:\n        /* \"#utility.yul\":45721:45746   */\n      swap3\n      pop\n        /* \"#utility.yul\":45765:45766   */\n      dup3\n        /* \"#utility.yul\":45755:45790   */\n      tag_908\n      jumpi\n        /* \"#utility.yul\":45770:45788   */\n      tag_909\n      tag_337\n      jump\t// in\n    tag_909:\n        /* \"#utility.yul\":45755:45790   */\n    tag_908:\n        /* \"#utility.yul\":45812:45813   */\n      dup3\n        /* \"#utility.yul\":45809:45810   */\n      dup3\n        /* \"#utility.yul\":45805:45814   */\n      div\n        /* \"#utility.yul\":45800:45814   */\n      swap1\n      pop\n        /* \"#utility.yul\":45635:45820   */\n      swap3\n      swap2\n      pop\n      pop\n      jump\t// out\n        /* \"#utility.yul\":45826:46059   */\n    tag_345:\n        /* \"#utility.yul\":45865:45868   */\n      0x00\n        /* \"#utility.yul\":45888:45912   */\n      tag_911\n        /* \"#utility.yul\":45906:45911   */\n      dup3\n        /* \"#utility.yul\":45888:45912   */\n      tag_402\n      jump\t// in\n    tag_911:\n        /* \"#utility.yul\":45879:45912   */\n      swap2\n      pop\n        /* \"#utility.yul\":45934:46000   */\n      0xffffffffffffffffffffffffffffffffffffffffffffffffffffffffffffffff\n        /* \"#utility.yul\":45927:45932   */\n      dup3\n        /* \"#utility.yul\":45924:46001   */\n      sub\n        /* \"#utility.yul\":45921:46024   */\n      tag_912\n      jumpi\n        /* \"#utility.yul\":46004:46022   */\n      tag_913\n      tag_468\n      jump\t// in\n    tag_913:\n        /* \"#utility.yul\":45921:46024   */\n    tag_912:\n        /* \"#utility.yul\":46051:46052   */\n      0x01\n        /* \"#utility.yul\":46044:46049   */\n      dup3\n        /* \"#utility.yul\":46040:46053   */\n      add\n        /* \"#utility.yul\":46033:46053   */\n      swap1\n      pop\n        /* \"#utility.yul\":45826:46059   */\n      swap2\n      swap1\n      pop\n      jump\t// out\n        /* \"#utility.yul\":46065:46236   */\n    tag_352:\n        /* \"#utility.yul\":46104:46107   */\n      0x00\n        /* \"#utility.yul\":46127:46151   */\n      tag_915\n        /* \"#utility.yul\":46145:46150   */\n      dup3\n        /* \"#utility.yul\":46127:46151   */\n      tag_402\n      jump\t// in\n    tag_915:\n        /* \"#utility.yul\":46118:46151   */\n      swap2\n      pop\n        /* \"#utility.yul\":46173:46177   */\n      0x00\n        /* \"#utility.yul\":46166:46171   */\n      dup3\n        /* \"#utility.yul\":46163:46178   */\n      sub\n        /* \"#utility.yul\":46160:46201   */\n      tag_916\n      jumpi\n        /* \"#utility.yul\":46181:46199   */\n      tag_917\n      tag_468\n      jump\t// in\n    tag_917:\n        /* \"#utility.yul\":46160:46201   */\n    tag_916:\n        /* \"#utility.yul\":46228:46229   */\n      0x01\n        /* \"#utility.yul\":46221:46226   */\n      dup3\n        /* \"#utility.yul\":46217:46230   */\n      sub\n        /* \"#utility.yul\":46210:46230   */\n      swap1\n      pop\n        /* \"#utility.yul\":46065:46236   */\n      swap2\n      swap1\n      pop\n      jump\t// out\n        /* \"#utility.yul\":46242:46418   */\n    tag_354:\n        /* \"#utility.yul\":46274:46275   */\n      0x00\n        /* \"#utility.yul\":46291:46311   */\n      tag_919\n        /* \"#utility.yul\":46309:46310   */\n      dup3\n        /* \"#utility.yul\":46291:46311   */\n      tag_402\n      jump\t// in\n    tag_919:\n        /* \"#utility.yul\":46286:46311   */\n      swap2\n      pop\n        /* \"#utility.yul\":46325:46345   */\n      tag_920\n        /* \"#utility.yul\":46343:46344   */\n      dup4\n        /* \"#utility.yul\":46325:46345   */\n      tag_402\n      jump\t// in\n    tag_920:\n        /* \"#utility.yul\":46320:46345   */\n      swap3\n      pop\n        /* \"#utility.yul\":46364:46365   */\n      dup3\n        /* \"#utility.yul\":46354:46389   */\n      tag_921\n      jumpi\n        /* \"#utility.yul\":46369:46387   */\n      tag_922\n      tag_337\n      jump\t// in\n    tag_922:\n        /* \"#utility.yul\":46354:46389   */\n    tag_921:\n        /* \"#utility.yul\":46410:46411   */\n      dup3\n        /* \"#utility.yul\":46407:46408   */\n      dup3\n        /* \"#utility.yul\":46403:46412   */\n      mod\n        /* \"#utility.yul\":46398:46412   */\n      swap1\n      pop\n        /* \"#utility.yul\":46242:46418   */\n      swap3\n      swap2\n      pop\n      pop\n      jump\t// out\n    stop\n    data_0cd1ae3e4dc389c213191dc2019beca568e06b7e2e62f57ac23af9c3de086300 4920636572746966792074686174204920616d20746865206c6963656e736f72206f662074686520766964656f2061677265656d656e7420616e6420616772656520746f20616c6c207465726d7320646566696e656420696e207468652061677265656d656e742e\n    data_947495800a19c75b349554c37b44e0820cfe4e72bb09a80ed436e10673d6e5c6 4920636572746966792074686174204920616d20746865206c6963656e736565206f662074686520766964656f2061677265656d656e7420616e6420616772656520746f20616c6c207465726d7320646566696e656420696e207468652061677265656d656e742e\n\n    auxdata: 0xa2646970667358221220207f24c59df178598c69703bbd9adb581e005012fcf91c0c9373773ebde45b1f64736f6c63430008190033\n}\n",
				"bytecode": {
					"linkReferences": {},
					"object": "608060405234801561000f575f80fd5b5060405161392b38038061392b833981810160405281019061003191906100d4565b805f806101000a81548173ffffffffffffffffffffffffffffffffffffffff021916908373ffffffffffffffffffffffffffffffffffffffff160217905550506100ff565b5f80fd5b5f73ffffffffffffffffffffffffffffffffffffffff82169050919050565b5f6100a38261007a565b9050919050565b6100b381610099565b81146100bd575f80fd5b50565b5f815190506100ce816100aa565b92915050565b5f602082840312156100e9576100e8610076565b5b5f6100f6848285016100c0565b91505092915050565b61381f8061010c5f395ff3fe60806040526004361061011d575f3560e01c8063976662b01161009f578063e946af5911610063578063e946af5914610431578063ea80a84714610459578063ed120e4c14610475578063eeb9509b146104b1578063f2fde38b146104d95761011d565b8063976662b01461031957806399911abe14610355578063b033c13a1461037d578063b6c00a82146103b9578063b8b5e111146103f55761011d565b806341befbd1116100e657806341befbd11461022757806345402a4d1461026357806355b302661461029f57806366527f1c146102c757806370d8677f146102f15761011d565b8062fd4984146101215780630e15c62a1461015d5780631e7fd268146101875780632b35d062146101c35780633e340e2d146101eb575b5f80fd5b34801561012c575f80fd5b5061014760048036038101906101429190612250565b610501565b6040516101549190612308565b60405180910390f35b348015610168575f80fd5b50610171610575565b60405161017e9190612381565b60405180910390f35b348015610192575f80fd5b506101ad60048036038101906101a891906123d4565b610591565b6040516101ba919061241f565b60405180910390f35b3480156101ce575f80fd5b506101e960048036038101906101e49190612462565b610646565b005b3480156101f6575f80fd5b50610211600480360381019061020c91906124ef565b610839565b60405161021e9190612308565b60405180910390f35b348015610232575f80fd5b5061024d600480360381019061024891906123d4565b61087f565b60405161025a9190612381565b60405180910390f35b34801561026e575f80fd5b5061028960048036038101906102849190612560565b61097f565b604051610296919061269b565b60405180910390f35b3480156102aa575f80fd5b506102c560048036038101906102c091906126bb565b610b7e565b005b3480156102d2575f80fd5b506102db610c62565b6040516102e89190612381565b60405180910390f35b3480156102fc575f80fd5b5061031760048036038101906103129190612710565b610c7e565b005b348015610324575f80fd5b5061033f600480360381019061033a9190612790565b610ed1565b60405161034c9190612381565b60405180910390f35b348015610360575f80fd5b5061037b600480360381019061037691906123d4565b6111ca565b005b348015610388575f80fd5b506103a3600480360381019061039e91906123d4565b611339565b6040516103b09190612308565b60405180910390f35b3480156103c4575f80fd5b506103df60048036038101906103da91906123d4565b6113d1565b6040516103ec91906127dd565b60405180910390f35b348015610400575f80fd5b5061041b600480360381019061041691906127f6565b61144a565b604051610428919061289d565b60405180910390f35b34801561043c575f80fd5b50610457600480360381019061045291906126bb565b61148e565b005b610473600480360381019061046e91906128b6565b611572565b005b348015610480575f80fd5b5061049b60048036038101906104969190612913565b6118cd565b6040516104a8919061289d565b60405180910390f35b3480156104bc575f80fd5b506104d760048036038101906104d29190612984565b611919565b005b3480156104e4575f80fd5b506104ff60048036038101906104fa91906126bb565b611ab0565b005b5f60418383905014610548576040517f08c379a000000000000000000000000000000000000000000000000000000000815260040161053f90612a94565b60405180910390fd5b5f805f85359150602086013590506021860135925061056987848484611b7f565b93505050509392505050565b6040518060a00160405280606881526020016137826068913981565b5f8160065f8281526020019081526020015f205f9054906101000a900460ff166105f0576040517f08c379a00000000000000000000000000000000000000000000000000000000081526004016105e790612afc565b60405180910390fd5b600260075f8581526020019081526020015f206040516106109190612c13565b90815260200160405180910390205f9054906101000a900473ffffffffffffffffffffffffffffffffffffffff16915050919050565b3373ffffffffffffffffffffffffffffffffffffffff165f8054906101000a900473ffffffffffffffffffffffffffffffffffffffff1673ffffffffffffffffffffffffffffffffffffffff16146106d3576040517f08c379a00000000000000000000000000000000000000000000000000000000081526004016106ca90612c73565b60405180910390fd5b5f8490505f81511161071a576040517f08c379a000000000000000000000000000000000000000000000000000000000815260040161071190612cdb565b60405180910390fd5b6107268486858561144a565b610765576040517f08c379a000000000000000000000000000000000000000000000000000000000815260040161075c90612d43565b60405180910390fd5b5f73ffffffffffffffffffffffffffffffffffffffff1660028660405161078c9190612d91565b90815260200160405180910390205f9054906101000a900473ffffffffffffffffffffffffffffffffffffffff1673ffffffffffffffffffffffffffffffffffffffff160361083257836002866040516107e69190612d91565b90815260200160405180910390205f6101000a81548173ffffffffffffffffffffffffffffffffffffffff021916908373ffffffffffffffffffffffffffffffffffffffff1602179055505b5050505050565b5f60028260405161084a9190612d91565b90815260200160405180910390205f9054906101000a900473ffffffffffffffffffffffffffffffffffffffff169050919050565b60608160065f8281526020019081526020015f205f9054906101000a900460ff166108df576040517f08c379a00000000000000000000000000000000000000000000000000000000081526004016108d690612afc565b60405180910390fd5b60075f8481526020019081526020015f2080546108fb90612b47565b80601f016020809104026020016040519081016040528092919081815260200182805461092790612b47565b80156109725780601f1061094957610100808354040283529160200191610972565b820191905f5260205f20905b81548152906001019060200180831161095557829003601f168201915b5050505050915050919050565b6060825f73ffffffffffffffffffffffffffffffffffffffff166002826040516109a99190612d91565b90815260200160405180910390205f9054906101000a900473ffffffffffffffffffffffffffffffffffffffff1673ffffffffffffffffffffffffffffffffffffffff1603610a2d576040517f08c379a0000000000000000000000000000000000000000000000000000000008152600401610a2490612df1565b60405180910390fd5b5f600385604051610a3e9190612d91565b90815260200160405180910390205467ffffffffffffffff811115610a6657610a656120cf565b5b604051908082528060200260200182016040528015610a945781602001602082028036833780820191505090505b5090505f5b600386604051610aa99190612d91565b908152602001604051809103902054811015610b72575f600487604051610ad09190612d91565b90815260200160405180910390205f8381526020019081526020015f205490505f600a5f8381526020019081526020015f205f8873ffffffffffffffffffffffffffffffffffffffff1673ffffffffffffffffffffffffffffffffffffffff1681526020019081526020015f205414610b645780838381518110610b5757610b56612e0f565b5b6020026020010181815250505b508080600101915050610a99565b50809250505092915050565b3373ffffffffffffffffffffffffffffffffffffffff165f8054906101000a900473ffffffffffffffffffffffffffffffffffffffff1673ffffffffffffffffffffffffffffffffffffffff1614610c0b576040517f08c379a0000000000000000000000000000000000000000000000000000000008152600401610c0290612c73565b60405180910390fd5b6001805f8373ffffffffffffffffffffffffffffffffffffffff1673ffffffffffffffffffffffffffffffffffffffff1681526020019081526020015f205f6101000a81548160ff02191690831515021790555050565b6040518060a001604052806068815260200161371a6068913981565b835f73ffffffffffffffffffffffffffffffffffffffff16600282604051610ca69190612d91565b90815260200160405180910390205f9054906101000a900473ffffffffffffffffffffffffffffffffffffffff1673ffffffffffffffffffffffffffffffffffffffff1603610d2a576040517f08c379a0000000000000000000000000000000000000000000000000000000008152600401610d2190612df1565b60405180910390fd5b8360015f8273ffffffffffffffffffffffffffffffffffffffff1673ffffffffffffffffffffffffffffffffffffffff1681526020019081526020015f205f9054906101000a900460ff16610db4576040517f08c379a0000000000000000000000000000000000000000000000000000000008152600401610dab90612afc565b60405180910390fd5b3373ffffffffffffffffffffffffffffffffffffffff16600287604051610ddb9190612d91565b90815260200160405180910390205f9054906101000a900473ffffffffffffffffffffffffffffffffffffffff1673ffffffffffffffffffffffffffffffffffffffff1614610e5f576040517f08c379a0000000000000000000000000000000000000000000000000000000008152600401610e5690612e86565b60405180910390fd5b60055f8481526020019081526020015f205f9054906101000a900460ff1615610ebd576040517f08c379a0000000000000000000000000000000000000000000000000000000008152600401610eb490612eee565b60405180910390fd5b610ec986868686611c11565b505050505050565b60608260065f8281526020019081526020015f205f9054906101000a900460ff16610f31576040517f08c379a0000000000000000000000000000000000000000000000000000000008152600401610f2890612afc565b60405180910390fd5b5f600a5f8681526020019081526020015f205f8573ffffffffffffffffffffffffffffffffffffffff1673ffffffffffffffffffffffffffffffffffffffff1681526020019081526020015f205403610fbf576040517f08c379a0000000000000000000000000000000000000000000000000000000008152600401610fb690612f56565b60405180910390fd5b5f60075f8681526020019081526020015f208054610fdc90612b47565b80601f016020809104026020016040519081016040528092919081815260200182805461100890612b47565b80156110535780601f1061102a57610100808354040283529160200191611053565b820191905f5260205f20905b81548152906001019060200180831161103657829003601f168201915b505050505090505f60028260405161106b9190612d91565b90815260200160405180910390205f9054906101000a900473ffffffffffffffffffffffffffffffffffffffff1690505f60095f8881526020019081526020015f205f9054906101000a900473ffffffffffffffffffffffffffffffffffffffff1690505f60085f8981526020019081526020015f205490505f600a5f8a81526020019081526020015f205f8973ffffffffffffffffffffffffffffffffffffffff1673ffffffffffffffffffffffffffffffffffffffff1681526020019081526020015f205490505f8390508073ffffffffffffffffffffffffffffffffffffffff1663483ced9887878c87876040518663ffffffff1660e01b8152600401611179959493929190612f74565b5f60405180830381865afa158015611193573d5f803e3d5ffd5b505050506040513d5f823e3d601f19601f820116820180604052508101906111bb919061303a565b97505050505050505092915050565b8060065f8281526020019081526020015f205f9054906101000a900460ff16611228576040517f08c379a000000000000000000000000000000000000000000000000000000000815260040161121f90612afc565b60405180910390fd5b3373ffffffffffffffffffffffffffffffffffffffff163073ffffffffffffffffffffffffffffffffffffffff16631e7fd268846040518263ffffffff1660e01b81526004016112789190613090565b602060405180830381865afa158015611293573d5f803e3d5ffd5b505050506040513d601f19601f820116820180604052508101906112b791906130bd565b73ffffffffffffffffffffffffffffffffffffffff161461130d576040517f08c379a000000000000000000000000000000000000000000000000000000000815260040161130490612e86565b60405180910390fd5b5f60065f8481526020019081526020015f205f6101000a81548160ff0219169083151502179055505050565b5f8160065f8281526020019081526020015f205f9054906101000a900460ff16611398576040517f08c379a000000000000000000000000000000000000000000000000000000000815260040161138f90612afc565b60405180910390fd5b60095f8481526020019081526020015f205f9054906101000a900473ffffffffffffffffffffffffffffffffffffffff16915050919050565b5f8160065f8281526020019081526020015f205f9054906101000a900460ff16611430576040517f08c379a000000000000000000000000000000000000000000000000000000000815260040161142790612afc565b60405180910390fd5b60085f8481526020019081526020015f2054915050919050565b5f8473ffffffffffffffffffffffffffffffffffffffff1661146d858585610501565b73ffffffffffffffffffffffffffffffffffffffff16149050949350505050565b3373ffffffffffffffffffffffffffffffffffffffff165f8054906101000a900473ffffffffffffffffffffffffffffffffffffffff1673ffffffffffffffffffffffffffffffffffffffff161461151b576040517f08c379a000000000000000000000000000000000000000000000000000000000815260040161151290612c73565b60405180910390fd5b5f60015f8373ffffffffffffffffffffffffffffffffffffffff1673ffffffffffffffffffffffffffffffffffffffff1681526020019081526020015f205f6101000a81548160ff02191690831515021790555050565b8260065f8281526020019081526020015f205f9054906101000a900460ff166115d0576040517f08c379a00000000000000000000000000000000000000000000000000000000081526004016115c790612afc565b60405180910390fd5b3073ffffffffffffffffffffffffffffffffffffffff1663b6c00a82856040518263ffffffff1660e01b81526004016116099190613090565b602060405180830381865afa158015611624573d5f803e3d5ffd5b505050506040513d601f19601f8201168201806040525081019061164891906130fc565b34101561168a576040517f08c379a000000000000000000000000000000000000000000000000000000000815260040161168190613171565b60405180910390fd5b611696338585856118cd565b6116d5576040517f08c379a00000000000000000000000000000000000000000000000000000000081526004016116cc906131d9565b60405180910390fd5b5f3073ffffffffffffffffffffffffffffffffffffffff1663b6c00a82866040518263ffffffff1660e01b815260040161170f9190613090565b602060405180830381865afa15801561172a573d5f803e3d5ffd5b505050506040513d601f19601f8201168201806040525081019061174e91906130fc565b90505f3073ffffffffffffffffffffffffffffffffffffffff16631e7fd268876040518263ffffffff1660e01b815260040161178a9190613090565b602060405180830381865afa1580156117a5573d5f803e3d5ffd5b505050506040513d601f19601f820116820180604052508101906117c991906130bd565b90505f8173ffffffffffffffffffffffffffffffffffffffff16836040516117f090613224565b5f6040518083038185875af1925050503d805f811461182a576040519150601f19603f3d011682016040523d82523d5f602084013e61182f565b606091505b5050905080611873576040517f08c379a000000000000000000000000000000000000000000000000000000000815260040161186a90613282565b60405180910390fd5b42600a5f8981526020019081526020015f205f3373ffffffffffffffffffffffffffffffffffffffff1673ffffffffffffffffffffffffffffffffffffffff1681526020019081526020015f208190555050505050505050565b5f8473ffffffffffffffffffffffffffffffffffffffff166118f86118f186611d71565b8585610501565b73ffffffffffffffffffffffffffffffffffffffff16149050949350505050565b3373ffffffffffffffffffffffffffffffffffffffff165f8054906101000a900473ffffffffffffffffffffffffffffffffffffffff1673ffffffffffffffffffffffffffffffffffffffff16146119a6576040517f08c379a000000000000000000000000000000000000000000000000000000000815260040161199d90612c73565b60405180910390fd5b8260015f8273ffffffffffffffffffffffffffffffffffffffff1673ffffffffffffffffffffffffffffffffffffffff1681526020019081526020015f205f9054906101000a900460ff16611a30576040517f08c379a0000000000000000000000000000000000000000000000000000000008152600401611a2790612afc565b60405180910390fd5b60055f8381526020019081526020015f205f9054906101000a900460ff1615611a8e576040517f08c379a0000000000000000000000000000000000000000000000000000000008152600401611a8590612eee565b60405180910390fd5b611a9a88888888610646565b611aa688858585611c11565b5050505050505050565b3373ffffffffffffffffffffffffffffffffffffffff165f8054906101000a900473ffffffffffffffffffffffffffffffffffffffff1673ffffffffffffffffffffffffffffffffffffffff1614611b3d576040517f08c379a0000000000000000000000000000000000000000000000000000000008152600401611b3490612c73565b60405180910390fd5b805f806101000a81548173ffffffffffffffffffffffffffffffffffffffff021916908373ffffffffffffffffffffffffffffffffffffffff16021790555050565b5f80611b8b8651611e3b565b86604051602001611b9d9291906132ea565b60405160208183030381529060405290505f818051906020012090506001818787876040515f8152602001604052604051611bdb949392919061334b565b6020604051602081039080840390855afa158015611bfb573d5f803e3d5ffd5b5050506020604051035192505050949350505050565b600160055f8381526020019081526020015f205f6101000a81548160ff021916908315150217905550600160065f8381526020019081526020015f205f6101000a81548160ff0219169083151502179055505f600385604051611c749190612d91565b908152602001604051809103902054905081600486604051611c969190612d91565b90815260200160405180910390205f8381526020019081526020015f2081905550600181611cc491906133bb565b600386604051611cd49190612d91565b9081526020016040518091039020819055508460075f8481526020019081526020015f209081611d04919061354f565b508260085f8481526020019081526020015f20819055508360095f8481526020019081526020015f205f6101000a81548173ffffffffffffffffffffffffffffffffffffffff021916908373ffffffffffffffffffffffffffffffffffffffff1602179055505050505050565b60605f6001611d7f84611f55565b0190505f8167ffffffffffffffff811115611d9d57611d9c6120cf565b5b6040519080825280601f01601f191660200182016040528015611dcf5781602001600182028036833780820191505090505b5090505f82602001820190505b600115611e30578080600190039150507f3031323334353637383961626364656600000000000000000000000000000000600a86061a8153600a8581611e2557611e2461361e565b5b0494505f8503611ddc575b819350505050919050565b60605f600190505f8390505b5f600a82611e55919061364b565b91508114611e70578180611e689061367b565b925050611e47565b5f8267ffffffffffffffff811115611e8b57611e8a6120cf565b5b6040519080825280601f01601f191660200182016040528015611ebd5781602001600182028036833780820191505090505b5090505b600115611f4a578280611ed3906136c2565b935050600a85611ee391906136e9565b6030611eef91906133bb565b60f81b818481518110611f0557611f04612e0f565b5b60200101907effffffffffffffffffffffffffffffffffffffffffffffffffffffffffffff191690815f1a905350600a85611f40919061364b565b94505f8303611ec1575b809350505050919050565b5f805f90507a184f03e93ff9f4daa797ed6e38ed64bf6a1f0100000000000000008310611fb1577a184f03e93ff9f4daa797ed6e38ed64bf6a1f0100000000000000008381611fa757611fa661361e565b5b0492506040810190505b6d04ee2d6d415b85acef81000000008310611fee576d04ee2d6d415b85acef81000000008381611fe457611fe361361e565b5b0492506020810190505b662386f26fc10000831061201d57662386f26fc1000083816120135761201261361e565b5b0492506010810190505b6305f5e1008310612046576305f5e100838161203c5761203b61361e565b5b0492506008810190505b612710831061206b5761271083816120615761206061361e565b5b0492506004810190505b6064831061208e57606483816120845761208361361e565b5b0492506002810190505b600a831061209d576001810190505b80915050919050565b5f604051905090565b5f80fd5b5f80fd5b5f80fd5b5f80fd5b5f601f19601f8301169050919050565b7f4e487b71000000000000000000000000000000000000000000000000000000005f52604160045260245ffd5b612105826120bf565b810181811067ffffffffffffffff82111715612124576121236120cf565b5b80604052505050565b5f6121366120a6565b905061214282826120fc565b919050565b5f67ffffffffffffffff821115612161576121606120cf565b5b61216a826120bf565b9050602081019050919050565b828183375f83830152505050565b5f61219761219284612147565b61212d565b9050828152602081018484840111156121b3576121b26120bb565b5b6121be848285612177565b509392505050565b5f82601f8301126121da576121d96120b7565b5b81356121ea848260208601612185565b91505092915050565b5f80fd5b5f80fd5b5f8083601f8401126122105761220f6120b7565b5b8235905067ffffffffffffffff81111561222d5761222c6121f3565b5b602083019150836001820283011115612249576122486121f7565b5b9250929050565b5f805f60408486031215612267576122666120af565b5b5f84013567ffffffffffffffff811115612284576122836120b3565b5b612290868287016121c6565b935050602084013567ffffffffffffffff8111156122b1576122b06120b3565b5b6122bd868287016121fb565b92509250509250925092565b5f73ffffffffffffffffffffffffffffffffffffffff82169050919050565b5f6122f2826122c9565b9050919050565b612302816122e8565b82525050565b5f60208201905061231b5f8301846122f9565b92915050565b5f81519050919050565b5f82825260208201905092915050565b8281835e5f83830152505050565b5f61235382612321565b61235d818561232b565b935061236d81856020860161233b565b612376816120bf565b840191505092915050565b5f6020820190508181035f8301526123998184612349565b905092915050565b5f819050919050565b6123b3816123a1565b81146123bd575f80fd5b50565b5f813590506123ce816123aa565b92915050565b5f602082840312156123e9576123e86120af565b5b5f6123f6848285016123c0565b91505092915050565b5f612409826122c9565b9050919050565b612419816123ff565b82525050565b5f6020820190506124325f830184612410565b92915050565b612441816123ff565b811461244b575f80fd5b50565b5f8135905061245c81612438565b92915050565b5f805f806060858703121561247a576124796120af565b5b5f85013567ffffffffffffffff811115612497576124966120b3565b5b6124a3878288016121c6565b94505060206124b48782880161244e565b935050604085013567ffffffffffffffff8111156124d5576124d46120b3565b5b6124e1878288016121fb565b925092505092959194509250565b5f60208284031215612504576125036120af565b5b5f82013567ffffffffffffffff811115612521576125206120b3565b5b61252d848285016121c6565b91505092915050565b61253f816122e8565b8114612549575f80fd5b50565b5f8135905061255a81612536565b92915050565b5f8060408385031215612576576125756120af565b5b5f83013567ffffffffffffffff811115612593576125926120b3565b5b61259f858286016121c6565b92505060206125b08582860161254c565b9150509250929050565b5f81519050919050565b5f82825260208201905092915050565b5f819050602082019050919050565b5f819050919050565b5f6126066126016125fc846123a1565b6125e3565b6123a1565b9050919050565b612616816125ec565b82525050565b5f612627838361260d565b60208301905092915050565b5f602082019050919050565b5f612649826125ba565b61265381856125c4565b935061265e836125d4565b805f5b8381101561268e578151612675888261261c565b975061268083612633565b925050600181019050612661565b5085935050505092915050565b5f6020820190508181035f8301526126b3818461263f565b905092915050565b5f602082840312156126d0576126cf6120af565b5b5f6126dd8482850161254c565b91505092915050565b6126ef816123a1565b81146126f9575f80fd5b50565b5f8135905061270a816126e6565b92915050565b5f805f8060808587031215612728576127276120af565b5b5f85013567ffffffffffffffff811115612745576127446120b3565b5b612751878288016121c6565b94505060206127628782880161254c565b9350506040612773878288016126fc565b9250506060612784878288016123c0565b91505092959194509250565b5f80604083850312156127a6576127a56120af565b5b5f6127b3858286016123c0565b92505060206127c48582860161254c565b9150509250929050565b6127d7816123a1565b82525050565b5f6020820190506127f05f8301846127ce565b92915050565b5f805f806060858703121561280e5761280d6120af565b5b5f61281b8782880161254c565b945050602085013567ffffffffffffffff81111561283c5761283b6120b3565b5b612848878288016121c6565b935050604085013567ffffffffffffffff811115612869576128686120b3565b5b612875878288016121fb565b925092505092959194509250565b5f8115159050919050565b61289781612883565b82525050565b5f6020820190506128b05f83018461288e565b92915050565b5f805f604084860312156128cd576128cc6120af565b5b5f6128da868287016123c0565b935050602084013567ffffffffffffffff8111156128fb576128fa6120b3565b5b612907868287016121fb565b92509250509250925092565b5f805f806060858703121561292b5761292a6120af565b5b5f6129388782880161254c565b9450506020612949878288016123c0565b935050604085013567ffffffffffffffff81111561296a576129696120b3565b5b612976878288016121fb565b925092505092959194509250565b5f805f805f805f60c0888a03121561299f5761299e6120af565b5b5f88013567ffffffffffffffff8111156129bc576129bb6120b3565b5b6129c88a828b016121c6565b97505060206129d98a828b0161244e565b965050604088013567ffffffffffffffff8111156129fa576129f96120b3565b5b612a068a828b016121fb565b95509550506060612a198a828b0161254c565b9350506080612a2a8a828b016126fc565b92505060a0612a3b8a828b016123c0565b91505092959891949750929550565b7f696e76616c6964207369676e61747572650000000000000000000000000000005f82015250565b5f612a7e60118361232b565b9150612a8982612a4a565b602082019050919050565b5f6020820190508181035f830152612aab81612a72565b9050919050565b7f6c6963656e736520646f65736e277420657869737400000000000000000000005f82015250565b5f612ae660158361232b565b9150612af182612ab2565b602082019050919050565b5f6020820190508181035f830152612b1381612ada565b9050919050565b7f4e487b71000000000000000000000000000000000000000000000000000000005f52602260045260245ffd5b5f6002820490506001821680612b5e57607f821691505b602082108103612b7157612b70612b1a565b5b50919050565b5f81905092915050565b5f819050815f5260205f209050919050565b5f8154612b9f81612b47565b612ba98186612b77565b9450600182165f8114612bc35760018114612bd857612c0a565b60ff1983168652811515820286019350612c0a565b612be185612b81565b5f5b83811015612c0257815481890152600182019150602081019050612be3565b838801955050505b50505092915050565b5f612c1e8284612b93565b915081905092915050565b7f6f776e657220616363657373206f6e6c790000000000000000000000000000005f82015250565b5f612c5d60118361232b565b9150612c6882612c29565b602082019050919050565b5f6020820190508181035f830152612c8a81612c51565b9050919050565b7f696e76616c696420766964656f206964000000000000000000000000000000005f82015250565b5f612cc560108361232b565b9150612cd082612c91565b602082019050919050565b5f6020820190508181035f830152612cf281612cb9565b9050919050565b7f696e76616c6964206c6963656e736f72207369676e61747572650000000000005f82015250565b5f612d2d601a8361232b565b9150612d3882612cf9565b602082019050919050565b5f6020820190508181035f830152612d5a81612d21565b9050919050565b5f612d6b82612321565b612d758185612b77565b9350612d8581856020860161233b565b80840191505092915050565b5f612d9c8284612d61565b915081905092915050565b7f766964656f20646f65736e2774206578697374000000000000000000000000005f82015250565b5f612ddb60138361232b565b9150612de682612da7565b602082019050919050565b5f6020820190508181035f830152612e0881612dcf565b9050919050565b7f4e487b71000000000000000000000000000000000000000000000000000000005f52603260045260245ffd5b7f696e76616c6964206c6963656e736f72000000000000000000000000000000005f82015250565b5f612e7060108361232b565b9150612e7b82612e3c565b602082019050919050565b5f6020820190508181035f830152612e9d81612e64565b9050919050565b7f756e617661696c61626c65206c6963656e7365206964000000000000000000005f82015250565b5f612ed860168361232b565b9150612ee382612ea4565b602082019050919050565b5f6020820190508181035f830152612f0581612ecc565b9050919050565b7f696e76616c6964206c6963656e736565000000000000000000000000000000005f82015250565b5f612f4060108361232b565b9150612f4b82612f0c565b602082019050919050565b5f6020820190508181035f830152612f6d81612f34565b9050919050565b5f60a0820190508181035f830152612f8c8188612349565b9050612f9b60208301876122f9565b612fa860408301866122f9565b612fb560608301856127ce565b612fc260808301846127ce565b9695505050505050565b5f612fde612fd984612147565b61212d565b905082815260208101848484011115612ffa57612ff96120bb565b5b61300584828561233b565b509392505050565b5f82601f830112613021576130206120b7565b5b8151613031848260208601612fcc565b91505092915050565b5f6020828403121561304f5761304e6120af565b5b5f82015167ffffffffffffffff81111561306c5761306b6120b3565b5b6130788482850161300d565b91505092915050565b61308a816125ec565b82525050565b5f6020820190506130a35f830184613081565b92915050565b5f815190506130b781612438565b92915050565b5f602082840312156130d2576130d16120af565b5b5f6130df848285016130a9565b91505092915050565b5f815190506130f6816126e6565b92915050565b5f60208284031215613111576131106120af565b5b5f61311e848285016130e8565b91505092915050565b7f6e6f7420656e6f756768206574686572000000000000000000000000000000005f82015250565b5f61315b60108361232b565b915061316682613127565b602082019050919050565b5f6020820190508181035f8301526131888161314f565b9050919050565b7f696e76616c6964206c6963656e736565207369676e61747572650000000000005f82015250565b5f6131c3601a8361232b565b91506131ce8261318f565b602082019050919050565b5f6020820190508181035f8301526131f0816131b7565b9050919050565b5f81905092915050565b50565b5f61320f5f836131f7565b915061321a82613201565b5f82019050919050565b5f61322e82613204565b9150819050919050565b7f6661696c656420746f2073656e642065746865720000000000000000000000005f82015250565b5f61326c60148361232b565b915061327782613238565b602082019050919050565b5f6020820190508181035f83015261329981613260565b9050919050565b7f19457468657265756d205369676e6564204d6573736167653a0a0000000000005f82015250565b5f6132d4601a83612b77565b91506132df826132a0565b601a82019050919050565b5f6132f4826132c8565b91506133008285612d61565b915061330c8284612d61565b91508190509392505050565b5f819050919050565b61332a81613318565b82525050565b5f60ff82169050919050565b61334581613330565b82525050565b5f60808201905061335e5f830187613321565b61336b602083018661333c565b6133786040830185613321565b6133856060830184613321565b95945050505050565b7f4e487b71000000000000000000000000000000000000000000000000000000005f52601160045260245ffd5b5f6133c5826123a1565b91506133d0836123a1565b92508282019050808211156133e8576133e761338e565b5b92915050565b5f6020601f8301049050919050565b5f82821b905092915050565b5f600883026134387fffffffffffffffffffffffffffffffffffffffffffffffffffffffffffffffff826133fd565b61344286836133fd565b95508019841693508086168417925050509392505050565b5f819050919050565b61346c836125ec565b6134806134788261345a565b848454613409565b825550505050565b5f90565b613494613488565b61349f818484613463565b505050565b5b818110156134c2576134b75f8261348c565b6001810190506134a5565b5050565b601f821115613507576134d881612b81565b6134e1846133ee565b810160208510156134f0578190505b6135046134fc856133ee565b8301826134a4565b50505b505050565b5f82821c905092915050565b5f6135275f198460080261350c565b1980831691505092915050565b5f61353f8383613518565b9150826002028217905092915050565b61355882612321565b67ffffffffffffffff811115613571576135706120cf565b5b61357b8254612b47565b6135868282856134c6565b5f60209050601f8311600181146135b7575f84156135a5578287015190505b6135af8582613534565b865550613616565b601f1984166135c586612b81565b5f5b828110156135ec578489015182556001820191506020850194506020810190506135c7565b868310156136095784890151613605601f891682613518565b8355505b6001600288020188555050505b505050505050565b7f4e487b71000000000000000000000000000000000000000000000000000000005f52601260045260245ffd5b5f613655826123a1565b9150613660836123a1565b9250826136705761366f61361e565b5b828204905092915050565b5f613685826123a1565b91507fffffffffffffffffffffffffffffffffffffffffffffffffffffffffffffffff82036136b7576136b661338e565b5b600182019050919050565b5f6136cc826123a1565b91505f82036136de576136dd61338e565b5b600182039050919050565b5f6136f3826123a1565b91506136fe836123a1565b92508261370e5761370d61361e565b5b82820690509291505056fe4920636572746966792074686174204920616d20746865206c6963656e736f72206f662074686520766964656f2061677265656d656e7420616e6420616772656520746f20616c6c207465726d7320646566696e656420696e207468652061677265656d656e742e4920636572746966792074686174204920616d20746865206c6963656e736565206f662074686520766964656f2061677265656d656e7420616e6420616772656520746f20616c6c207465726d7320646566696e656420696e207468652061677265656d656e742ea2646970667358221220207f24c59df178598c69703bbd9adb581e005012fcf91c0c9373773ebde45b1f64736f6c63430008190033",
					"opcodes": "PUSH1 0x80 PUSH1 0x40 MSTORE CALLVALUE DUP1 ISZERO PUSH2 0xF JUMPI PUSH0 DUP1 REVERT JUMPDEST POP PUSH1 0x40 MLOAD PUSH2 0x392B CODESIZE SUB DUP1 PUSH2 0x392B DUP4 CODECOPY DUP2 DUP2 ADD PUSH1 0x40 MSTORE DUP2 ADD SWAP1 PUSH2 0x31 SWAP2 SWAP1 PUSH2 0xD4 JUMP JUMPDEST DUP1 PUSH0 DUP1 PUSH2 0x100 EXP DUP2 SLOAD DUP2 PUSH20 0xFFFFFFFFFFFFFFFFFFFFFFFFFFFFFFFFFFFFFFFF MUL NOT AND SWAP1 DUP4 PUSH20 0xFFFFFFFFFFFFFFFFFFFFFFFFFFFFFFFFFFFFFFFF AND MUL OR SWAP1 SSTORE POP POP PUSH2 0xFF JUMP JUMPDEST PUSH0 DUP1 REVERT JUMPDEST PUSH0 PUSH20 0xFFFFFFFFFFFFFFFFFFFFFFFFFFFFFFFFFFFFFFFF DUP3 AND SWAP1 POP SWAP2 SWAP1 POP JUMP JUMPDEST PUSH0 PUSH2 0xA3 DUP3 PUSH2 0x7A JUMP JUMPDEST SWAP1 POP SWAP2 SWAP1 POP JUMP JUMPDEST PUSH2 0xB3 DUP2 PUSH2 0x99 JUMP JUMPDEST DUP2 EQ PUSH2 0xBD JUMPI PUSH0 DUP1 REVERT JUMPDEST POP JUMP JUMPDEST PUSH0 DUP2 MLOAD SWAP1 POP PUSH2 0xCE DUP2 PUSH2 0xAA JUMP JUMPDEST SWAP3 SWAP2 POP POP JUMP JUMPDEST PUSH0 PUSH1 0x20 DUP3 DUP5 SUB SLT ISZERO PUSH2 0xE9 JUMPI PUSH2 0xE8 PUSH2 0x76 JUMP JUMPDEST JUMPDEST PUSH0 PUSH2 0xF6 DUP5 DUP3 DUP6 ADD PUSH2 0xC0 JUMP JUMPDEST SWAP2 POP POP SWAP3 SWAP2 POP POP JUMP JUMPDEST PUSH2 0x381F DUP1 PUSH2 0x10C PUSH0 CODECOPY PUSH0 RETURN INVALID PUSH1 0x80 PUSH1 0x40 MSTORE PUSH1 0x4 CALLDATASIZE LT PUSH2 0x11D JUMPI PUSH0 CALLDATALOAD PUSH1 0xE0 SHR DUP1 PUSH4 0x976662B0 GT PUSH2 0x9F JUMPI DUP1 PUSH4 0xE946AF59 GT PUSH2 0x63 JUMPI DUP1 PUSH4 0xE946AF59 EQ PUSH2 0x431 JUMPI DUP1 PUSH4 0xEA80A847 EQ PUSH2 0x459 JUMPI DUP1 PUSH4 0xED120E4C EQ PUSH2 0x475 JUMPI DUP1 PUSH4 0xEEB9509B EQ PUSH2 0x4B1 JUMPI DUP1 PUSH4 0xF2FDE38B EQ PUSH2 0x4D9 JUMPI PUSH2 0x11D JUMP JUMPDEST DUP1 PUSH4 0x976662B0 EQ PUSH2 0x319 JUMPI DUP1 PUSH4 0x99911ABE EQ PUSH2 0x355 JUMPI DUP1 PUSH4 0xB033C13A EQ PUSH2 0x37D JUMPI DUP1 PUSH4 0xB6C00A82 EQ PUSH2 0x3B9 JUMPI DUP1 PUSH4 0xB8B5E111 EQ PUSH2 0x3F5 JUMPI PUSH2 0x11D JUMP JUMPDEST DUP1 PUSH4 0x41BEFBD1 GT PUSH2 0xE6 JUMPI DUP1 PUSH4 0x41BEFBD1 EQ PUSH2 0x227 JUMPI DUP1 PUSH4 0x45402A4D EQ PUSH2 0x263 JUMPI DUP1 PUSH4 0x55B30266 EQ PUSH2 0x29F JUMPI DUP1 PUSH4 0x66527F1C EQ PUSH2 0x2C7 JUMPI DUP1 PUSH4 0x70D8677F EQ PUSH2 0x2F1 JUMPI PUSH2 0x11D JUMP JUMPDEST DUP1 PUSH3 0xFD4984 EQ PUSH2 0x121 JUMPI DUP1 PUSH4 0xE15C62A EQ PUSH2 0x15D JUMPI DUP1 PUSH4 0x1E7FD268 EQ PUSH2 0x187 JUMPI DUP1 PUSH4 0x2B35D062 EQ PUSH2 0x1C3 JUMPI DUP1 PUSH4 0x3E340E2D EQ PUSH2 0x1EB JUMPI JUMPDEST PUSH0 DUP1 REVERT JUMPDEST CALLVALUE DUP1 ISZERO PUSH2 0x12C JUMPI PUSH0 DUP1 REVERT JUMPDEST POP PUSH2 0x147 PUSH1 0x4 DUP1 CALLDATASIZE SUB DUP2 ADD SWAP1 PUSH2 0x142 SWAP2 SWAP1 PUSH2 0x2250 JUMP JUMPDEST PUSH2 0x501 JUMP JUMPDEST PUSH1 0x40 MLOAD PUSH2 0x154 SWAP2 SWAP1 PUSH2 0x2308 JUMP JUMPDEST PUSH1 0x40 MLOAD DUP1 SWAP2 SUB SWAP1 RETURN JUMPDEST CALLVALUE DUP1 ISZERO PUSH2 0x168 JUMPI PUSH0 DUP1 REVERT JUMPDEST POP PUSH2 0x171 PUSH2 0x575 JUMP JUMPDEST PUSH1 0x40 MLOAD PUSH2 0x17E SWAP2 SWAP1 PUSH2 0x2381 JUMP JUMPDEST PUSH1 0x40 MLOAD DUP1 SWAP2 SUB SWAP1 RETURN JUMPDEST CALLVALUE DUP1 ISZERO PUSH2 0x192 JUMPI PUSH0 DUP1 REVERT JUMPDEST POP PUSH2 0x1AD PUSH1 0x4 DUP1 CALLDATASIZE SUB DUP2 ADD SWAP1 PUSH2 0x1A8 SWAP2 SWAP1 PUSH2 0x23D4 JUMP JUMPDEST PUSH2 0x591 JUMP JUMPDEST PUSH1 0x40 MLOAD PUSH2 0x1BA SWAP2 SWAP1 PUSH2 0x241F JUMP JUMPDEST PUSH1 0x40 MLOAD DUP1 SWAP2 SUB SWAP1 RETURN JUMPDEST CALLVALUE DUP1 ISZERO PUSH2 0x1CE JUMPI PUSH0 DUP1 REVERT JUMPDEST POP PUSH2 0x1E9 PUSH1 0x4 DUP1 CALLDATASIZE SUB DUP2 ADD SWAP1 PUSH2 0x1E4 SWAP2 SWAP1 PUSH2 0x2462 JUMP JUMPDEST PUSH2 0x646 JUMP JUMPDEST STOP JUMPDEST CALLVALUE DUP1 ISZERO PUSH2 0x1F6 JUMPI PUSH0 DUP1 REVERT JUMPDEST POP PUSH2 0x211 PUSH1 0x4 DUP1 CALLDATASIZE SUB DUP2 ADD SWAP1 PUSH2 0x20C SWAP2 SWAP1 PUSH2 0x24EF JUMP JUMPDEST PUSH2 0x839 JUMP JUMPDEST PUSH1 0x40 MLOAD PUSH2 0x21E SWAP2 SWAP1 PUSH2 0x2308 JUMP JUMPDEST PUSH1 0x40 MLOAD DUP1 SWAP2 SUB SWAP1 RETURN JUMPDEST CALLVALUE DUP1 ISZERO PUSH2 0x232 JUMPI PUSH0 DUP1 REVERT JUMPDEST POP PUSH2 0x24D PUSH1 0x4 DUP1 CALLDATASIZE SUB DUP2 ADD SWAP1 PUSH2 0x248 SWAP2 SWAP1 PUSH2 0x23D4 JUMP JUMPDEST PUSH2 0x87F JUMP JUMPDEST PUSH1 0x40 MLOAD PUSH2 0x25A SWAP2 SWAP1 PUSH2 0x2381 JUMP JUMPDEST PUSH1 0x40 MLOAD DUP1 SWAP2 SUB SWAP1 RETURN JUMPDEST CALLVALUE DUP1 ISZERO PUSH2 0x26E JUMPI PUSH0 DUP1 REVERT JUMPDEST POP PUSH2 0x289 PUSH1 0x4 DUP1 CALLDATASIZE SUB DUP2 ADD SWAP1 PUSH2 0x284 SWAP2 SWAP1 PUSH2 0x2560 JUMP JUMPDEST PUSH2 0x97F JUMP JUMPDEST PUSH1 0x40 MLOAD PUSH2 0x296 SWAP2 SWAP1 PUSH2 0x269B JUMP JUMPDEST PUSH1 0x40 MLOAD DUP1 SWAP2 SUB SWAP1 RETURN JUMPDEST CALLVALUE DUP1 ISZERO PUSH2 0x2AA JUMPI PUSH0 DUP1 REVERT JUMPDEST POP PUSH2 0x2C5 PUSH1 0x4 DUP1 CALLDATASIZE SUB DUP2 ADD SWAP1 PUSH2 0x2C0 SWAP2 SWAP1 PUSH2 0x26BB JUMP JUMPDEST PUSH2 0xB7E JUMP JUMPDEST STOP JUMPDEST CALLVALUE DUP1 ISZERO PUSH2 0x2D2 JUMPI PUSH0 DUP1 REVERT JUMPDEST POP PUSH2 0x2DB PUSH2 0xC62 JUMP JUMPDEST PUSH1 0x40 MLOAD PUSH2 0x2E8 SWAP2 SWAP1 PUSH2 0x2381 JUMP JUMPDEST PUSH1 0x40 MLOAD DUP1 SWAP2 SUB SWAP1 RETURN JUMPDEST CALLVALUE DUP1 ISZERO PUSH2 0x2FC JUMPI PUSH0 DUP1 REVERT JUMPDEST POP PUSH2 0x317 PUSH1 0x4 DUP1 CALLDATASIZE SUB DUP2 ADD SWAP1 PUSH2 0x312 SWAP2 SWAP1 PUSH2 0x2710 JUMP JUMPDEST PUSH2 0xC7E JUMP JUMPDEST STOP JUMPDEST CALLVALUE DUP1 ISZERO PUSH2 0x324 JUMPI PUSH0 DUP1 REVERT JUMPDEST POP PUSH2 0x33F PUSH1 0x4 DUP1 CALLDATASIZE SUB DUP2 ADD SWAP1 PUSH2 0x33A SWAP2 SWAP1 PUSH2 0x2790 JUMP JUMPDEST PUSH2 0xED1 JUMP JUMPDEST PUSH1 0x40 MLOAD PUSH2 0x34C SWAP2 SWAP1 PUSH2 0x2381 JUMP JUMPDEST PUSH1 0x40 MLOAD DUP1 SWAP2 SUB SWAP1 RETURN JUMPDEST CALLVALUE DUP1 ISZERO PUSH2 0x360 JUMPI PUSH0 DUP1 REVERT JUMPDEST POP PUSH2 0x37B PUSH1 0x4 DUP1 CALLDATASIZE SUB DUP2 ADD SWAP1 PUSH2 0x376 SWAP2 SWAP1 PUSH2 0x23D4 JUMP JUMPDEST PUSH2 0x11CA JUMP JUMPDEST STOP JUMPDEST CALLVALUE DUP1 ISZERO PUSH2 0x388 JUMPI PUSH0 DUP1 REVERT JUMPDEST POP PUSH2 0x3A3 PUSH1 0x4 DUP1 CALLDATASIZE SUB DUP2 ADD SWAP1 PUSH2 0x39E SWAP2 SWAP1 PUSH2 0x23D4 JUMP JUMPDEST PUSH2 0x1339 JUMP JUMPDEST PUSH1 0x40 MLOAD PUSH2 0x3B0 SWAP2 SWAP1 PUSH2 0x2308 JUMP JUMPDEST PUSH1 0x40 MLOAD DUP1 SWAP2 SUB SWAP1 RETURN JUMPDEST CALLVALUE DUP1 ISZERO PUSH2 0x3C4 JUMPI PUSH0 DUP1 REVERT JUMPDEST POP PUSH2 0x3DF PUSH1 0x4 DUP1 CALLDATASIZE SUB DUP2 ADD SWAP1 PUSH2 0x3DA SWAP2 SWAP1 PUSH2 0x23D4 JUMP JUMPDEST PUSH2 0x13D1 JUMP JUMPDEST PUSH1 0x40 MLOAD PUSH2 0x3EC SWAP2 SWAP1 PUSH2 0x27DD JUMP JUMPDEST PUSH1 0x40 MLOAD DUP1 SWAP2 SUB SWAP1 RETURN JUMPDEST CALLVALUE DUP1 ISZERO PUSH2 0x400 JUMPI PUSH0 DUP1 REVERT JUMPDEST POP PUSH2 0x41B PUSH1 0x4 DUP1 CALLDATASIZE SUB DUP2 ADD SWAP1 PUSH2 0x416 SWAP2 SWAP1 PUSH2 0x27F6 JUMP JUMPDEST PUSH2 0x144A JUMP JUMPDEST PUSH1 0x40 MLOAD PUSH2 0x428 SWAP2 SWAP1 PUSH2 0x289D JUMP JUMPDEST PUSH1 0x40 MLOAD DUP1 SWAP2 SUB SWAP1 RETURN JUMPDEST CALLVALUE DUP1 ISZERO PUSH2 0x43C JUMPI PUSH0 DUP1 REVERT JUMPDEST POP PUSH2 0x457 PUSH1 0x4 DUP1 CALLDATASIZE SUB DUP2 ADD SWAP1 PUSH2 0x452 SWAP2 SWAP1 PUSH2 0x26BB JUMP JUMPDEST PUSH2 0x148E JUMP JUMPDEST STOP JUMPDEST PUSH2 0x473 PUSH1 0x4 DUP1 CALLDATASIZE SUB DUP2 ADD SWAP1 PUSH2 0x46E SWAP2 SWAP1 PUSH2 0x28B6 JUMP JUMPDEST PUSH2 0x1572 JUMP JUMPDEST STOP JUMPDEST CALLVALUE DUP1 ISZERO PUSH2 0x480 JUMPI PUSH0 DUP1 REVERT JUMPDEST POP PUSH2 0x49B PUSH1 0x4 DUP1 CALLDATASIZE SUB DUP2 ADD SWAP1 PUSH2 0x496 SWAP2 SWAP1 PUSH2 0x2913 JUMP JUMPDEST PUSH2 0x18CD JUMP JUMPDEST PUSH1 0x40 MLOAD PUSH2 0x4A8 SWAP2 SWAP1 PUSH2 0x289D JUMP JUMPDEST PUSH1 0x40 MLOAD DUP1 SWAP2 SUB SWAP1 RETURN JUMPDEST CALLVALUE DUP1 ISZERO PUSH2 0x4BC JUMPI PUSH0 DUP1 REVERT JUMPDEST POP PUSH2 0x4D7 PUSH1 0x4 DUP1 CALLDATASIZE SUB DUP2 ADD SWAP1 PUSH2 0x4D2 SWAP2 SWAP1 PUSH2 0x2984 JUMP JUMPDEST PUSH2 0x1919 JUMP JUMPDEST STOP JUMPDEST CALLVALUE DUP1 ISZERO PUSH2 0x4E4 JUMPI PUSH0 DUP1 REVERT JUMPDEST POP PUSH2 0x4FF PUSH1 0x4 DUP1 CALLDATASIZE SUB DUP2 ADD SWAP1 PUSH2 0x4FA SWAP2 SWAP1 PUSH2 0x26BB JUMP JUMPDEST PUSH2 0x1AB0 JUMP JUMPDEST STOP JUMPDEST PUSH0 PUSH1 0x41 DUP4 DUP4 SWAP1 POP EQ PUSH2 0x548 JUMPI PUSH1 0x40 MLOAD PUSH32 0x8C379A000000000000000000000000000000000000000000000000000000000 DUP2 MSTORE PUSH1 0x4 ADD PUSH2 0x53F SWAP1 PUSH2 0x2A94 JUMP JUMPDEST PUSH1 0x40 MLOAD DUP1 SWAP2 SUB SWAP1 REVERT JUMPDEST PUSH0 DUP1 PUSH0 DUP6 CALLDATALOAD SWAP2 POP PUSH1 0x20 DUP7 ADD CALLDATALOAD SWAP1 POP PUSH1 0x21 DUP7 ADD CALLDATALOAD SWAP3 POP PUSH2 0x569 DUP8 DUP5 DUP5 DUP5 PUSH2 0x1B7F JUMP JUMPDEST SWAP4 POP POP POP POP SWAP4 SWAP3 POP POP POP JUMP JUMPDEST PUSH1 0x40 MLOAD DUP1 PUSH1 0xA0 ADD PUSH1 0x40 MSTORE DUP1 PUSH1 0x68 DUP2 MSTORE PUSH1 0x20 ADD PUSH2 0x3782 PUSH1 0x68 SWAP2 CODECOPY DUP2 JUMP JUMPDEST PUSH0 DUP2 PUSH1 0x6 PUSH0 DUP3 DUP2 MSTORE PUSH1 0x20 ADD SWAP1 DUP2 MSTORE PUSH1 0x20 ADD PUSH0 KECCAK256 PUSH0 SWAP1 SLOAD SWAP1 PUSH2 0x100 EXP SWAP1 DIV PUSH1 0xFF AND PUSH2 0x5F0 JUMPI PUSH1 0x40 MLOAD PUSH32 0x8C379A000000000000000000000000000000000000000000000000000000000 DUP2 MSTORE PUSH1 0x4 ADD PUSH2 0x5E7 SWAP1 PUSH2 0x2AFC JUMP JUMPDEST PUSH1 0x40 MLOAD DUP1 SWAP2 SUB SWAP1 REVERT JUMPDEST PUSH1 0x2 PUSH1 0x7 PUSH0 DUP6 DUP2 MSTORE PUSH1 0x20 ADD SWAP1 DUP2 MSTORE PUSH1 0x20 ADD PUSH0 KECCAK256 PUSH1 0x40 MLOAD PUSH2 0x610 SWAP2 SWAP1 PUSH2 0x2C13 JUMP JUMPDEST SWAP1 DUP2 MSTORE PUSH1 0x20 ADD PUSH1 0x40 MLOAD DUP1 SWAP2 SUB SWAP1 KECCAK256 PUSH0 SWAP1 SLOAD SWAP1 PUSH2 0x100 EXP SWAP1 DIV PUSH20 0xFFFFFFFFFFFFFFFFFFFFFFFFFFFFFFFFFFFFFFFF AND SWAP2 POP POP SWAP2 SWAP1 POP JUMP JUMPDEST CALLER PUSH20 0xFFFFFFFFFFFFFFFFFFFFFFFFFFFFFFFFFFFFFFFF AND PUSH0 DUP1 SLOAD SWAP1 PUSH2 0x100 EXP SWAP1 DIV PUSH20 0xFFFFFFFFFFFFFFFFFFFFFFFFFFFFFFFFFFFFFFFF AND PUSH20 0xFFFFFFFFFFFFFFFFFFFFFFFFFFFFFFFFFFFFFFFF AND EQ PUSH2 0x6D3 JUMPI PUSH1 0x40 MLOAD PUSH32 0x8C379A000000000000000000000000000000000000000000000000000000000 DUP2 MSTORE PUSH1 0x4 ADD PUSH2 0x6CA SWAP1 PUSH2 0x2C73 JUMP JUMPDEST PUSH1 0x40 MLOAD DUP1 SWAP2 SUB SWAP1 REVERT JUMPDEST PUSH0 DUP5 SWAP1 POP PUSH0 DUP2 MLOAD GT PUSH2 0x71A JUMPI PUSH1 0x40 MLOAD PUSH32 0x8C379A000000000000000000000000000000000000000000000000000000000 DUP2 MSTORE PUSH1 0x4 ADD PUSH2 0x711 SWAP1 PUSH2 0x2CDB JUMP JUMPDEST PUSH1 0x40 MLOAD DUP1 SWAP2 SUB SWAP1 REVERT JUMPDEST PUSH2 0x726 DUP5 DUP7 DUP6 DUP6 PUSH2 0x144A JUMP JUMPDEST PUSH2 0x765 JUMPI PUSH1 0x40 MLOAD PUSH32 0x8C379A000000000000000000000000000000000000000000000000000000000 DUP2 MSTORE PUSH1 0x4 ADD PUSH2 0x75C SWAP1 PUSH2 0x2D43 JUMP JUMPDEST PUSH1 0x40 MLOAD DUP1 SWAP2 SUB SWAP1 REVERT JUMPDEST PUSH0 PUSH20 0xFFFFFFFFFFFFFFFFFFFFFFFFFFFFFFFFFFFFFFFF AND PUSH1 0x2 DUP7 PUSH1 0x40 MLOAD PUSH2 0x78C SWAP2 SWAP1 PUSH2 0x2D91 JUMP JUMPDEST SWAP1 DUP2 MSTORE PUSH1 0x20 ADD PUSH1 0x40 MLOAD DUP1 SWAP2 SUB SWAP1 KECCAK256 PUSH0 SWAP1 SLOAD SWAP1 PUSH2 0x100 EXP SWAP1 DIV PUSH20 0xFFFFFFFFFFFFFFFFFFFFFFFFFFFFFFFFFFFFFFFF AND PUSH20 0xFFFFFFFFFFFFFFFFFFFFFFFFFFFFFFFFFFFFFFFF AND SUB PUSH2 0x832 JUMPI DUP4 PUSH1 0x2 DUP7 PUSH1 0x40 MLOAD PUSH2 0x7E6 SWAP2 SWAP1 PUSH2 0x2D91 JUMP JUMPDEST SWAP1 DUP2 MSTORE PUSH1 0x20 ADD PUSH1 0x40 MLOAD DUP1 SWAP2 SUB SWAP1 KECCAK256 PUSH0 PUSH2 0x100 EXP DUP2 SLOAD DUP2 PUSH20 0xFFFFFFFFFFFFFFFFFFFFFFFFFFFFFFFFFFFFFFFF MUL NOT AND SWAP1 DUP4 PUSH20 0xFFFFFFFFFFFFFFFFFFFFFFFFFFFFFFFFFFFFFFFF AND MUL OR SWAP1 SSTORE POP JUMPDEST POP POP POP POP POP JUMP JUMPDEST PUSH0 PUSH1 0x2 DUP3 PUSH1 0x40 MLOAD PUSH2 0x84A SWAP2 SWAP1 PUSH2 0x2D91 JUMP JUMPDEST SWAP1 DUP2 MSTORE PUSH1 0x20 ADD PUSH1 0x40 MLOAD DUP1 SWAP2 SUB SWAP1 KECCAK256 PUSH0 SWAP1 SLOAD SWAP1 PUSH2 0x100 EXP SWAP1 DIV PUSH20 0xFFFFFFFFFFFFFFFFFFFFFFFFFFFFFFFFFFFFFFFF AND SWAP1 POP SWAP2 SWAP1 POP JUMP JUMPDEST PUSH1 0x60 DUP2 PUSH1 0x6 PUSH0 DUP3 DUP2 MSTORE PUSH1 0x20 ADD SWAP1 DUP2 MSTORE PUSH1 0x20 ADD PUSH0 KECCAK256 PUSH0 SWAP1 SLOAD SWAP1 PUSH2 0x100 EXP SWAP1 DIV PUSH1 0xFF AND PUSH2 0x8DF JUMPI PUSH1 0x40 MLOAD PUSH32 0x8C379A000000000000000000000000000000000000000000000000000000000 DUP2 MSTORE PUSH1 0x4 ADD PUSH2 0x8D6 SWAP1 PUSH2 0x2AFC JUMP JUMPDEST PUSH1 0x40 MLOAD DUP1 SWAP2 SUB SWAP1 REVERT JUMPDEST PUSH1 0x7 PUSH0 DUP5 DUP2 MSTORE PUSH1 0x20 ADD SWAP1 DUP2 MSTORE PUSH1 0x20 ADD PUSH0 KECCAK256 DUP1 SLOAD PUSH2 0x8FB SWAP1 PUSH2 0x2B47 JUMP JUMPDEST DUP1 PUSH1 0x1F ADD PUSH1 0x20 DUP1 SWAP2 DIV MUL PUSH1 0x20 ADD PUSH1 0x40 MLOAD SWAP1 DUP2 ADD PUSH1 0x40 MSTORE DUP1 SWAP3 SWAP2 SWAP1 DUP2 DUP2 MSTORE PUSH1 0x20 ADD DUP3 DUP1 SLOAD PUSH2 0x927 SWAP1 PUSH2 0x2B47 JUMP JUMPDEST DUP1 ISZERO PUSH2 0x972 JUMPI DUP1 PUSH1 0x1F LT PUSH2 0x949 JUMPI PUSH2 0x100 DUP1 DUP4 SLOAD DIV MUL DUP4 MSTORE SWAP2 PUSH1 0x20 ADD SWAP2 PUSH2 0x972 JUMP JUMPDEST DUP3 ADD SWAP2 SWAP1 PUSH0 MSTORE PUSH1 0x20 PUSH0 KECCAK256 SWAP1 JUMPDEST DUP2 SLOAD DUP2 MSTORE SWAP1 PUSH1 0x1 ADD SWAP1 PUSH1 0x20 ADD DUP1 DUP4 GT PUSH2 0x955 JUMPI DUP3 SWAP1 SUB PUSH1 0x1F AND DUP3 ADD SWAP2 JUMPDEST POP POP POP POP POP SWAP2 POP POP SWAP2 SWAP1 POP JUMP JUMPDEST PUSH1 0x60 DUP3 PUSH0 PUSH20 0xFFFFFFFFFFFFFFFFFFFFFFFFFFFFFFFFFFFFFFFF AND PUSH1 0x2 DUP3 PUSH1 0x40 MLOAD PUSH2 0x9A9 SWAP2 SWAP1 PUSH2 0x2D91 JUMP JUMPDEST SWAP1 DUP2 MSTORE PUSH1 0x20 ADD PUSH1 0x40 MLOAD DUP1 SWAP2 SUB SWAP1 KECCAK256 PUSH0 SWAP1 SLOAD SWAP1 PUSH2 0x100 EXP SWAP1 DIV PUSH20 0xFFFFFFFFFFFFFFFFFFFFFFFFFFFFFFFFFFFFFFFF AND PUSH20 0xFFFFFFFFFFFFFFFFFFFFFFFFFFFFFFFFFFFFFFFF AND SUB PUSH2 0xA2D JUMPI PUSH1 0x40 MLOAD PUSH32 0x8C379A000000000000000000000000000000000000000000000000000000000 DUP2 MSTORE PUSH1 0x4 ADD PUSH2 0xA24 SWAP1 PUSH2 0x2DF1 JUMP JUMPDEST PUSH1 0x40 MLOAD DUP1 SWAP2 SUB SWAP1 REVERT JUMPDEST PUSH0 PUSH1 0x3 DUP6 PUSH1 0x40 MLOAD PUSH2 0xA3E SWAP2 SWAP1 PUSH2 0x2D91 JUMP JUMPDEST SWAP1 DUP2 MSTORE PUSH1 0x20 ADD PUSH1 0x40 MLOAD DUP1 SWAP2 SUB SWAP1 KECCAK256 SLOAD PUSH8 0xFFFFFFFFFFFFFFFF DUP2 GT ISZERO PUSH2 0xA66 JUMPI PUSH2 0xA65 PUSH2 0x20CF JUMP JUMPDEST JUMPDEST PUSH1 0x40 MLOAD SWAP1 DUP1 DUP3 MSTORE DUP1 PUSH1 0x20 MUL PUSH1 0x20 ADD DUP3 ADD PUSH1 0x40 MSTORE DUP1 ISZERO PUSH2 0xA94 JUMPI DUP2 PUSH1 0x20 ADD PUSH1 0x20 DUP3 MUL DUP1 CALLDATASIZE DUP4 CALLDATACOPY DUP1 DUP3 ADD SWAP2 POP POP SWAP1 POP JUMPDEST POP SWAP1 POP PUSH0 JUMPDEST PUSH1 0x3 DUP7 PUSH1 0x40 MLOAD PUSH2 0xAA9 SWAP2 SWAP1 PUSH2 0x2D91 JUMP JUMPDEST SWAP1 DUP2 MSTORE PUSH1 0x20 ADD PUSH1 0x40 MLOAD DUP1 SWAP2 SUB SWAP1 KECCAK256 SLOAD DUP2 LT ISZERO PUSH2 0xB72 JUMPI PUSH0 PUSH1 0x4 DUP8 PUSH1 0x40 MLOAD PUSH2 0xAD0 SWAP2 SWAP1 PUSH2 0x2D91 JUMP JUMPDEST SWAP1 DUP2 MSTORE PUSH1 0x20 ADD PUSH1 0x40 MLOAD DUP1 SWAP2 SUB SWAP1 KECCAK256 PUSH0 DUP4 DUP2 MSTORE PUSH1 0x20 ADD SWAP1 DUP2 MSTORE PUSH1 0x20 ADD PUSH0 KECCAK256 SLOAD SWAP1 POP PUSH0 PUSH1 0xA PUSH0 DUP4 DUP2 MSTORE PUSH1 0x20 ADD SWAP1 DUP2 MSTORE PUSH1 0x20 ADD PUSH0 KECCAK256 PUSH0 DUP9 PUSH20 0xFFFFFFFFFFFFFFFFFFFFFFFFFFFFFFFFFFFFFFFF AND PUSH20 0xFFFFFFFFFFFFFFFFFFFFFFFFFFFFFFFFFFFFFFFF AND DUP2 MSTORE PUSH1 0x20 ADD SWAP1 DUP2 MSTORE PUSH1 0x20 ADD PUSH0 KECCAK256 SLOAD EQ PUSH2 0xB64 JUMPI DUP1 DUP4 DUP4 DUP2 MLOAD DUP2 LT PUSH2 0xB57 JUMPI PUSH2 0xB56 PUSH2 0x2E0F JUMP JUMPDEST JUMPDEST PUSH1 0x20 MUL PUSH1 0x20 ADD ADD DUP2 DUP2 MSTORE POP POP JUMPDEST POP DUP1 DUP1 PUSH1 0x1 ADD SWAP2 POP POP PUSH2 0xA99 JUMP JUMPDEST POP DUP1 SWAP3 POP POP POP SWAP3 SWAP2 POP POP JUMP JUMPDEST CALLER PUSH20 0xFFFFFFFFFFFFFFFFFFFFFFFFFFFFFFFFFFFFFFFF AND PUSH0 DUP1 SLOAD SWAP1 PUSH2 0x100 EXP SWAP1 DIV PUSH20 0xFFFFFFFFFFFFFFFFFFFFFFFFFFFFFFFFFFFFFFFF AND PUSH20 0xFFFFFFFFFFFFFFFFFFFFFFFFFFFFFFFFFFFFFFFF AND EQ PUSH2 0xC0B JUMPI PUSH1 0x40 MLOAD PUSH32 0x8C379A000000000000000000000000000000000000000000000000000000000 DUP2 MSTORE PUSH1 0x4 ADD PUSH2 0xC02 SWAP1 PUSH2 0x2C73 JUMP JUMPDEST PUSH1 0x40 MLOAD DUP1 SWAP2 SUB SWAP1 REVERT JUMPDEST PUSH1 0x1 DUP1 PUSH0 DUP4 PUSH20 0xFFFFFFFFFFFFFFFFFFFFFFFFFFFFFFFFFFFFFFFF AND PUSH20 0xFFFFFFFFFFFFFFFFFFFFFFFFFFFFFFFFFFFFFFFF AND DUP2 MSTORE PUSH1 0x20 ADD SWAP1 DUP2 MSTORE PUSH1 0x20 ADD PUSH0 KECCAK256 PUSH0 PUSH2 0x100 EXP DUP2 SLOAD DUP2 PUSH1 0xFF MUL NOT AND SWAP1 DUP4 ISZERO ISZERO MUL OR SWAP1 SSTORE POP POP JUMP JUMPDEST PUSH1 0x40 MLOAD DUP1 PUSH1 0xA0 ADD PUSH1 0x40 MSTORE DUP1 PUSH1 0x68 DUP2 MSTORE PUSH1 0x20 ADD PUSH2 0x371A PUSH1 0x68 SWAP2 CODECOPY DUP2 JUMP JUMPDEST DUP4 PUSH0 PUSH20 0xFFFFFFFFFFFFFFFFFFFFFFFFFFFFFFFFFFFFFFFF AND PUSH1 0x2 DUP3 PUSH1 0x40 MLOAD PUSH2 0xCA6 SWAP2 SWAP1 PUSH2 0x2D91 JUMP JUMPDEST SWAP1 DUP2 MSTORE PUSH1 0x20 ADD PUSH1 0x40 MLOAD DUP1 SWAP2 SUB SWAP1 KECCAK256 PUSH0 SWAP1 SLOAD SWAP1 PUSH2 0x100 EXP SWAP1 DIV PUSH20 0xFFFFFFFFFFFFFFFFFFFFFFFFFFFFFFFFFFFFFFFF AND PUSH20 0xFFFFFFFFFFFFFFFFFFFFFFFFFFFFFFFFFFFFFFFF AND SUB PUSH2 0xD2A JUMPI PUSH1 0x40 MLOAD PUSH32 0x8C379A000000000000000000000000000000000000000000000000000000000 DUP2 MSTORE PUSH1 0x4 ADD PUSH2 0xD21 SWAP1 PUSH2 0x2DF1 JUMP JUMPDEST PUSH1 0x40 MLOAD DUP1 SWAP2 SUB SWAP1 REVERT JUMPDEST DUP4 PUSH1 0x1 PUSH0 DUP3 PUSH20 0xFFFFFFFFFFFFFFFFFFFFFFFFFFFFFFFFFFFFFFFF AND PUSH20 0xFFFFFFFFFFFFFFFFFFFFFFFFFFFFFFFFFFFFFFFF AND DUP2 MSTORE PUSH1 0x20 ADD SWAP1 DUP2 MSTORE PUSH1 0x20 ADD PUSH0 KECCAK256 PUSH0 SWAP1 SLOAD SWAP1 PUSH2 0x100 EXP SWAP1 DIV PUSH1 0xFF AND PUSH2 0xDB4 JUMPI PUSH1 0x40 MLOAD PUSH32 0x8C379A000000000000000000000000000000000000000000000000000000000 DUP2 MSTORE PUSH1 0x4 ADD PUSH2 0xDAB SWAP1 PUSH2 0x2AFC JUMP JUMPDEST PUSH1 0x40 MLOAD DUP1 SWAP2 SUB SWAP1 REVERT JUMPDEST CALLER PUSH20 0xFFFFFFFFFFFFFFFFFFFFFFFFFFFFFFFFFFFFFFFF AND PUSH1 0x2 DUP8 PUSH1 0x40 MLOAD PUSH2 0xDDB SWAP2 SWAP1 PUSH2 0x2D91 JUMP JUMPDEST SWAP1 DUP2 MSTORE PUSH1 0x20 ADD PUSH1 0x40 MLOAD DUP1 SWAP2 SUB SWAP1 KECCAK256 PUSH0 SWAP1 SLOAD SWAP1 PUSH2 0x100 EXP SWAP1 DIV PUSH20 0xFFFFFFFFFFFFFFFFFFFFFFFFFFFFFFFFFFFFFFFF AND PUSH20 0xFFFFFFFFFFFFFFFFFFFFFFFFFFFFFFFFFFFFFFFF AND EQ PUSH2 0xE5F JUMPI PUSH1 0x40 MLOAD PUSH32 0x8C379A000000000000000000000000000000000000000000000000000000000 DUP2 MSTORE PUSH1 0x4 ADD PUSH2 0xE56 SWAP1 PUSH2 0x2E86 JUMP JUMPDEST PUSH1 0x40 MLOAD DUP1 SWAP2 SUB SWAP1 REVERT JUMPDEST PUSH1 0x5 PUSH0 DUP5 DUP2 MSTORE PUSH1 0x20 ADD SWAP1 DUP2 MSTORE PUSH1 0x20 ADD PUSH0 KECCAK256 PUSH0 SWAP1 SLOAD SWAP1 PUSH2 0x100 EXP SWAP1 DIV PUSH1 0xFF AND ISZERO PUSH2 0xEBD JUMPI PUSH1 0x40 MLOAD PUSH32 0x8C379A000000000000000000000000000000000000000000000000000000000 DUP2 MSTORE PUSH1 0x4 ADD PUSH2 0xEB4 SWAP1 PUSH2 0x2EEE JUMP JUMPDEST PUSH1 0x40 MLOAD DUP1 SWAP2 SUB SWAP1 REVERT JUMPDEST PUSH2 0xEC9 DUP7 DUP7 DUP7 DUP7 PUSH2 0x1C11 JUMP JUMPDEST POP POP POP POP POP POP JUMP JUMPDEST PUSH1 0x60 DUP3 PUSH1 0x6 PUSH0 DUP3 DUP2 MSTORE PUSH1 0x20 ADD SWAP1 DUP2 MSTORE PUSH1 0x20 ADD PUSH0 KECCAK256 PUSH0 SWAP1 SLOAD SWAP1 PUSH2 0x100 EXP SWAP1 DIV PUSH1 0xFF AND PUSH2 0xF31 JUMPI PUSH1 0x40 MLOAD PUSH32 0x8C379A000000000000000000000000000000000000000000000000000000000 DUP2 MSTORE PUSH1 0x4 ADD PUSH2 0xF28 SWAP1 PUSH2 0x2AFC JUMP JUMPDEST PUSH1 0x40 MLOAD DUP1 SWAP2 SUB SWAP1 REVERT JUMPDEST PUSH0 PUSH1 0xA PUSH0 DUP7 DUP2 MSTORE PUSH1 0x20 ADD SWAP1 DUP2 MSTORE PUSH1 0x20 ADD PUSH0 KECCAK256 PUSH0 DUP6 PUSH20 0xFFFFFFFFFFFFFFFFFFFFFFFFFFFFFFFFFFFFFFFF AND PUSH20 0xFFFFFFFFFFFFFFFFFFFFFFFFFFFFFFFFFFFFFFFF AND DUP2 MSTORE PUSH1 0x20 ADD SWAP1 DUP2 MSTORE PUSH1 0x20 ADD PUSH0 KECCAK256 SLOAD SUB PUSH2 0xFBF JUMPI PUSH1 0x40 MLOAD PUSH32 0x8C379A000000000000000000000000000000000000000000000000000000000 DUP2 MSTORE PUSH1 0x4 ADD PUSH2 0xFB6 SWAP1 PUSH2 0x2F56 JUMP JUMPDEST PUSH1 0x40 MLOAD DUP1 SWAP2 SUB SWAP1 REVERT JUMPDEST PUSH0 PUSH1 0x7 PUSH0 DUP7 DUP2 MSTORE PUSH1 0x20 ADD SWAP1 DUP2 MSTORE PUSH1 0x20 ADD PUSH0 KECCAK256 DUP1 SLOAD PUSH2 0xFDC SWAP1 PUSH2 0x2B47 JUMP JUMPDEST DUP1 PUSH1 0x1F ADD PUSH1 0x20 DUP1 SWAP2 DIV MUL PUSH1 0x20 ADD PUSH1 0x40 MLOAD SWAP1 DUP2 ADD PUSH1 0x40 MSTORE DUP1 SWAP3 SWAP2 SWAP1 DUP2 DUP2 MSTORE PUSH1 0x20 ADD DUP3 DUP1 SLOAD PUSH2 0x1008 SWAP1 PUSH2 0x2B47 JUMP JUMPDEST DUP1 ISZERO PUSH2 0x1053 JUMPI DUP1 PUSH1 0x1F LT PUSH2 0x102A JUMPI PUSH2 0x100 DUP1 DUP4 SLOAD DIV MUL DUP4 MSTORE SWAP2 PUSH1 0x20 ADD SWAP2 PUSH2 0x1053 JUMP JUMPDEST DUP3 ADD SWAP2 SWAP1 PUSH0 MSTORE PUSH1 0x20 PUSH0 KECCAK256 SWAP1 JUMPDEST DUP2 SLOAD DUP2 MSTORE SWAP1 PUSH1 0x1 ADD SWAP1 PUSH1 0x20 ADD DUP1 DUP4 GT PUSH2 0x1036 JUMPI DUP3 SWAP1 SUB PUSH1 0x1F AND DUP3 ADD SWAP2 JUMPDEST POP POP POP POP POP SWAP1 POP PUSH0 PUSH1 0x2 DUP3 PUSH1 0x40 MLOAD PUSH2 0x106B SWAP2 SWAP1 PUSH2 0x2D91 JUMP JUMPDEST SWAP1 DUP2 MSTORE PUSH1 0x20 ADD PUSH1 0x40 MLOAD DUP1 SWAP2 SUB SWAP1 KECCAK256 PUSH0 SWAP1 SLOAD SWAP1 PUSH2 0x100 EXP SWAP1 DIV PUSH20 0xFFFFFFFFFFFFFFFFFFFFFFFFFFFFFFFFFFFFFFFF AND SWAP1 POP PUSH0 PUSH1 0x9 PUSH0 DUP9 DUP2 MSTORE PUSH1 0x20 ADD SWAP1 DUP2 MSTORE PUSH1 0x20 ADD PUSH0 KECCAK256 PUSH0 SWAP1 SLOAD SWAP1 PUSH2 0x100 EXP SWAP1 DIV PUSH20 0xFFFFFFFFFFFFFFFFFFFFFFFFFFFFFFFFFFFFFFFF AND SWAP1 POP PUSH0 PUSH1 0x8 PUSH0 DUP10 DUP2 MSTORE PUSH1 0x20 ADD SWAP1 DUP2 MSTORE PUSH1 0x20 ADD PUSH0 KECCAK256 SLOAD SWAP1 POP PUSH0 PUSH1 0xA PUSH0 DUP11 DUP2 MSTORE PUSH1 0x20 ADD SWAP1 DUP2 MSTORE PUSH1 0x20 ADD PUSH0 KECCAK256 PUSH0 DUP10 PUSH20 0xFFFFFFFFFFFFFFFFFFFFFFFFFFFFFFFFFFFFFFFF AND PUSH20 0xFFFFFFFFFFFFFFFFFFFFFFFFFFFFFFFFFFFFFFFF AND DUP2 MSTORE PUSH1 0x20 ADD SWAP1 DUP2 MSTORE PUSH1 0x20 ADD PUSH0 KECCAK256 SLOAD SWAP1 POP PUSH0 DUP4 SWAP1 POP DUP1 PUSH20 0xFFFFFFFFFFFFFFFFFFFFFFFFFFFFFFFFFFFFFFFF AND PUSH4 0x483CED98 DUP8 DUP8 DUP13 DUP8 DUP8 PUSH1 0x40 MLOAD DUP7 PUSH4 0xFFFFFFFF AND PUSH1 0xE0 SHL DUP2 MSTORE PUSH1 0x4 ADD PUSH2 0x1179 SWAP6 SWAP5 SWAP4 SWAP3 SWAP2 SWAP1 PUSH2 0x2F74 JUMP JUMPDEST PUSH0 PUSH1 0x40 MLOAD DUP1 DUP4 SUB DUP2 DUP7 GAS STATICCALL ISZERO DUP1 ISZERO PUSH2 0x1193 JUMPI RETURNDATASIZE PUSH0 DUP1 RETURNDATACOPY RETURNDATASIZE PUSH0 REVERT JUMPDEST POP POP POP POP PUSH1 0x40 MLOAD RETURNDATASIZE PUSH0 DUP3 RETURNDATACOPY RETURNDATASIZE PUSH1 0x1F NOT PUSH1 0x1F DUP3 ADD AND DUP3 ADD DUP1 PUSH1 0x40 MSTORE POP DUP2 ADD SWAP1 PUSH2 0x11BB SWAP2 SWAP1 PUSH2 0x303A JUMP JUMPDEST SWAP8 POP POP POP POP POP POP POP POP SWAP3 SWAP2 POP POP JUMP JUMPDEST DUP1 PUSH1 0x6 PUSH0 DUP3 DUP2 MSTORE PUSH1 0x20 ADD SWAP1 DUP2 MSTORE PUSH1 0x20 ADD PUSH0 KECCAK256 PUSH0 SWAP1 SLOAD SWAP1 PUSH2 0x100 EXP SWAP1 DIV PUSH1 0xFF AND PUSH2 0x1228 JUMPI PUSH1 0x40 MLOAD PUSH32 0x8C379A000000000000000000000000000000000000000000000000000000000 DUP2 MSTORE PUSH1 0x4 ADD PUSH2 0x121F SWAP1 PUSH2 0x2AFC JUMP JUMPDEST PUSH1 0x40 MLOAD DUP1 SWAP2 SUB SWAP1 REVERT JUMPDEST CALLER PUSH20 0xFFFFFFFFFFFFFFFFFFFFFFFFFFFFFFFFFFFFFFFF AND ADDRESS PUSH20 0xFFFFFFFFFFFFFFFFFFFFFFFFFFFFFFFFFFFFFFFF AND PUSH4 0x1E7FD268 DUP5 PUSH1 0x40 MLOAD DUP3 PUSH4 0xFFFFFFFF AND PUSH1 0xE0 SHL DUP2 MSTORE PUSH1 0x4 ADD PUSH2 0x1278 SWAP2 SWAP1 PUSH2 0x3090 JUMP JUMPDEST PUSH1 0x20 PUSH1 0x40 MLOAD DUP1 DUP4 SUB DUP2 DUP7 GAS STATICCALL ISZERO DUP1 ISZERO PUSH2 0x1293 JUMPI RETURNDATASIZE PUSH0 DUP1 RETURNDATACOPY RETURNDATASIZE PUSH0 REVERT JUMPDEST POP POP POP POP PUSH1 0x40 MLOAD RETURNDATASIZE PUSH1 0x1F NOT PUSH1 0x1F DUP3 ADD AND DUP3 ADD DUP1 PUSH1 0x40 MSTORE POP DUP2 ADD SWAP1 PUSH2 0x12B7 SWAP2 SWAP1 PUSH2 0x30BD JUMP JUMPDEST PUSH20 0xFFFFFFFFFFFFFFFFFFFFFFFFFFFFFFFFFFFFFFFF AND EQ PUSH2 0x130D JUMPI PUSH1 0x40 MLOAD PUSH32 0x8C379A000000000000000000000000000000000000000000000000000000000 DUP2 MSTORE PUSH1 0x4 ADD PUSH2 0x1304 SWAP1 PUSH2 0x2E86 JUMP JUMPDEST PUSH1 0x40 MLOAD DUP1 SWAP2 SUB SWAP1 REVERT JUMPDEST PUSH0 PUSH1 0x6 PUSH0 DUP5 DUP2 MSTORE PUSH1 0x20 ADD SWAP1 DUP2 MSTORE PUSH1 0x20 ADD PUSH0 KECCAK256 PUSH0 PUSH2 0x100 EXP DUP2 SLOAD DUP2 PUSH1 0xFF MUL NOT AND SWAP1 DUP4 ISZERO ISZERO MUL OR SWAP1 SSTORE POP POP POP JUMP JUMPDEST PUSH0 DUP2 PUSH1 0x6 PUSH0 DUP3 DUP2 MSTORE PUSH1 0x20 ADD SWAP1 DUP2 MSTORE PUSH1 0x20 ADD PUSH0 KECCAK256 PUSH0 SWAP1 SLOAD SWAP1 PUSH2 0x100 EXP SWAP1 DIV PUSH1 0xFF AND PUSH2 0x1398 JUMPI PUSH1 0x40 MLOAD PUSH32 0x8C379A000000000000000000000000000000000000000000000000000000000 DUP2 MSTORE PUSH1 0x4 ADD PUSH2 0x138F SWAP1 PUSH2 0x2AFC JUMP JUMPDEST PUSH1 0x40 MLOAD DUP1 SWAP2 SUB SWAP1 REVERT JUMPDEST PUSH1 0x9 PUSH0 DUP5 DUP2 MSTORE PUSH1 0x20 ADD SWAP1 DUP2 MSTORE PUSH1 0x20 ADD PUSH0 KECCAK256 PUSH0 SWAP1 SLOAD SWAP1 PUSH2 0x100 EXP SWAP1 DIV PUSH20 0xFFFFFFFFFFFFFFFFFFFFFFFFFFFFFFFFFFFFFFFF AND SWAP2 POP POP SWAP2 SWAP1 POP JUMP JUMPDEST PUSH0 DUP2 PUSH1 0x6 PUSH0 DUP3 DUP2 MSTORE PUSH1 0x20 ADD SWAP1 DUP2 MSTORE PUSH1 0x20 ADD PUSH0 KECCAK256 PUSH0 SWAP1 SLOAD SWAP1 PUSH2 0x100 EXP SWAP1 DIV PUSH1 0xFF AND PUSH2 0x1430 JUMPI PUSH1 0x40 MLOAD PUSH32 0x8C379A000000000000000000000000000000000000000000000000000000000 DUP2 MSTORE PUSH1 0x4 ADD PUSH2 0x1427 SWAP1 PUSH2 0x2AFC JUMP JUMPDEST PUSH1 0x40 MLOAD DUP1 SWAP2 SUB SWAP1 REVERT JUMPDEST PUSH1 0x8 PUSH0 DUP5 DUP2 MSTORE PUSH1 0x20 ADD SWAP1 DUP2 MSTORE PUSH1 0x20 ADD PUSH0 KECCAK256 SLOAD SWAP2 POP POP SWAP2 SWAP1 POP JUMP JUMPDEST PUSH0 DUP5 PUSH20 0xFFFFFFFFFFFFFFFFFFFFFFFFFFFFFFFFFFFFFFFF AND PUSH2 0x146D DUP6 DUP6 DUP6 PUSH2 0x501 JUMP JUMPDEST PUSH20 0xFFFFFFFFFFFFFFFFFFFFFFFFFFFFFFFFFFFFFFFF AND EQ SWAP1 POP SWAP5 SWAP4 POP POP POP POP JUMP JUMPDEST CALLER PUSH20 0xFFFFFFFFFFFFFFFFFFFFFFFFFFFFFFFFFFFFFFFF AND PUSH0 DUP1 SLOAD SWAP1 PUSH2 0x100 EXP SWAP1 DIV PUSH20 0xFFFFFFFFFFFFFFFFFFFFFFFFFFFFFFFFFFFFFFFF AND PUSH20 0xFFFFFFFFFFFFFFFFFFFFFFFFFFFFFFFFFFFFFFFF AND EQ PUSH2 0x151B JUMPI PUSH1 0x40 MLOAD PUSH32 0x8C379A000000000000000000000000000000000000000000000000000000000 DUP2 MSTORE PUSH1 0x4 ADD PUSH2 0x1512 SWAP1 PUSH2 0x2C73 JUMP JUMPDEST PUSH1 0x40 MLOAD DUP1 SWAP2 SUB SWAP1 REVERT JUMPDEST PUSH0 PUSH1 0x1 PUSH0 DUP4 PUSH20 0xFFFFFFFFFFFFFFFFFFFFFFFFFFFFFFFFFFFFFFFF AND PUSH20 0xFFFFFFFFFFFFFFFFFFFFFFFFFFFFFFFFFFFFFFFF AND DUP2 MSTORE PUSH1 0x20 ADD SWAP1 DUP2 MSTORE PUSH1 0x20 ADD PUSH0 KECCAK256 PUSH0 PUSH2 0x100 EXP DUP2 SLOAD DUP2 PUSH1 0xFF MUL NOT AND SWAP1 DUP4 ISZERO ISZERO MUL OR SWAP1 SSTORE POP POP JUMP JUMPDEST DUP3 PUSH1 0x6 PUSH0 DUP3 DUP2 MSTORE PUSH1 0x20 ADD SWAP1 DUP2 MSTORE PUSH1 0x20 ADD PUSH0 KECCAK256 PUSH0 SWAP1 SLOAD SWAP1 PUSH2 0x100 EXP SWAP1 DIV PUSH1 0xFF AND PUSH2 0x15D0 JUMPI PUSH1 0x40 MLOAD PUSH32 0x8C379A000000000000000000000000000000000000000000000000000000000 DUP2 MSTORE PUSH1 0x4 ADD PUSH2 0x15C7 SWAP1 PUSH2 0x2AFC JUMP JUMPDEST PUSH1 0x40 MLOAD DUP1 SWAP2 SUB SWAP1 REVERT JUMPDEST ADDRESS PUSH20 0xFFFFFFFFFFFFFFFFFFFFFFFFFFFFFFFFFFFFFFFF AND PUSH4 0xB6C00A82 DUP6 PUSH1 0x40 MLOAD DUP3 PUSH4 0xFFFFFFFF AND PUSH1 0xE0 SHL DUP2 MSTORE PUSH1 0x4 ADD PUSH2 0x1609 SWAP2 SWAP1 PUSH2 0x3090 JUMP JUMPDEST PUSH1 0x20 PUSH1 0x40 MLOAD DUP1 DUP4 SUB DUP2 DUP7 GAS STATICCALL ISZERO DUP1 ISZERO PUSH2 0x1624 JUMPI RETURNDATASIZE PUSH0 DUP1 RETURNDATACOPY RETURNDATASIZE PUSH0 REVERT JUMPDEST POP POP POP POP PUSH1 0x40 MLOAD RETURNDATASIZE PUSH1 0x1F NOT PUSH1 0x1F DUP3 ADD AND DUP3 ADD DUP1 PUSH1 0x40 MSTORE POP DUP2 ADD SWAP1 PUSH2 0x1648 SWAP2 SWAP1 PUSH2 0x30FC JUMP JUMPDEST CALLVALUE LT ISZERO PUSH2 0x168A JUMPI PUSH1 0x40 MLOAD PUSH32 0x8C379A000000000000000000000000000000000000000000000000000000000 DUP2 MSTORE PUSH1 0x4 ADD PUSH2 0x1681 SWAP1 PUSH2 0x3171 JUMP JUMPDEST PUSH1 0x40 MLOAD DUP1 SWAP2 SUB SWAP1 REVERT JUMPDEST PUSH2 0x1696 CALLER DUP6 DUP6 DUP6 PUSH2 0x18CD JUMP JUMPDEST PUSH2 0x16D5 JUMPI PUSH1 0x40 MLOAD PUSH32 0x8C379A000000000000000000000000000000000000000000000000000000000 DUP2 MSTORE PUSH1 0x4 ADD PUSH2 0x16CC SWAP1 PUSH2 0x31D9 JUMP JUMPDEST PUSH1 0x40 MLOAD DUP1 SWAP2 SUB SWAP1 REVERT JUMPDEST PUSH0 ADDRESS PUSH20 0xFFFFFFFFFFFFFFFFFFFFFFFFFFFFFFFFFFFFFFFF AND PUSH4 0xB6C00A82 DUP7 PUSH1 0x40 MLOAD DUP3 PUSH4 0xFFFFFFFF AND PUSH1 0xE0 SHL DUP2 MSTORE PUSH1 0x4 ADD PUSH2 0x170F SWAP2 SWAP1 PUSH2 0x3090 JUMP JUMPDEST PUSH1 0x20 PUSH1 0x40 MLOAD DUP1 DUP4 SUB DUP2 DUP7 GAS STATICCALL ISZERO DUP1 ISZERO PUSH2 0x172A JUMPI RETURNDATASIZE PUSH0 DUP1 RETURNDATACOPY RETURNDATASIZE PUSH0 REVERT JUMPDEST POP POP POP POP PUSH1 0x40 MLOAD RETURNDATASIZE PUSH1 0x1F NOT PUSH1 0x1F DUP3 ADD AND DUP3 ADD DUP1 PUSH1 0x40 MSTORE POP DUP2 ADD SWAP1 PUSH2 0x174E SWAP2 SWAP1 PUSH2 0x30FC JUMP JUMPDEST SWAP1 POP PUSH0 ADDRESS PUSH20 0xFFFFFFFFFFFFFFFFFFFFFFFFFFFFFFFFFFFFFFFF AND PUSH4 0x1E7FD268 DUP8 PUSH1 0x40 MLOAD DUP3 PUSH4 0xFFFFFFFF AND PUSH1 0xE0 SHL DUP2 MSTORE PUSH1 0x4 ADD PUSH2 0x178A SWAP2 SWAP1 PUSH2 0x3090 JUMP JUMPDEST PUSH1 0x20 PUSH1 0x40 MLOAD DUP1 DUP4 SUB DUP2 DUP7 GAS STATICCALL ISZERO DUP1 ISZERO PUSH2 0x17A5 JUMPI RETURNDATASIZE PUSH0 DUP1 RETURNDATACOPY RETURNDATASIZE PUSH0 REVERT JUMPDEST POP POP POP POP PUSH1 0x40 MLOAD RETURNDATASIZE PUSH1 0x1F NOT PUSH1 0x1F DUP3 ADD AND DUP3 ADD DUP1 PUSH1 0x40 MSTORE POP DUP2 ADD SWAP1 PUSH2 0x17C9 SWAP2 SWAP1 PUSH2 0x30BD JUMP JUMPDEST SWAP1 POP PUSH0 DUP2 PUSH20 0xFFFFFFFFFFFFFFFFFFFFFFFFFFFFFFFFFFFFFFFF AND DUP4 PUSH1 0x40 MLOAD PUSH2 0x17F0 SWAP1 PUSH2 0x3224 JUMP JUMPDEST PUSH0 PUSH1 0x40 MLOAD DUP1 DUP4 SUB DUP2 DUP6 DUP8 GAS CALL SWAP3 POP POP POP RETURNDATASIZE DUP1 PUSH0 DUP2 EQ PUSH2 0x182A JUMPI PUSH1 0x40 MLOAD SWAP2 POP PUSH1 0x1F NOT PUSH1 0x3F RETURNDATASIZE ADD AND DUP3 ADD PUSH1 0x40 MSTORE RETURNDATASIZE DUP3 MSTORE RETURNDATASIZE PUSH0 PUSH1 0x20 DUP5 ADD RETURNDATACOPY PUSH2 0x182F JUMP JUMPDEST PUSH1 0x60 SWAP2 POP JUMPDEST POP POP SWAP1 POP DUP1 PUSH2 0x1873 JUMPI PUSH1 0x40 MLOAD PUSH32 0x8C379A000000000000000000000000000000000000000000000000000000000 DUP2 MSTORE PUSH1 0x4 ADD PUSH2 0x186A SWAP1 PUSH2 0x3282 JUMP JUMPDEST PUSH1 0x40 MLOAD DUP1 SWAP2 SUB SWAP1 REVERT JUMPDEST TIMESTAMP PUSH1 0xA PUSH0 DUP10 DUP2 MSTORE PUSH1 0x20 ADD SWAP1 DUP2 MSTORE PUSH1 0x20 ADD PUSH0 KECCAK256 PUSH0 CALLER PUSH20 0xFFFFFFFFFFFFFFFFFFFFFFFFFFFFFFFFFFFFFFFF AND PUSH20 0xFFFFFFFFFFFFFFFFFFFFFFFFFFFFFFFFFFFFFFFF AND DUP2 MSTORE PUSH1 0x20 ADD SWAP1 DUP2 MSTORE PUSH1 0x20 ADD PUSH0 KECCAK256 DUP2 SWAP1 SSTORE POP POP POP POP POP POP POP POP JUMP JUMPDEST PUSH0 DUP5 PUSH20 0xFFFFFFFFFFFFFFFFFFFFFFFFFFFFFFFFFFFFFFFF AND PUSH2 0x18F8 PUSH2 0x18F1 DUP7 PUSH2 0x1D71 JUMP JUMPDEST DUP6 DUP6 PUSH2 0x501 JUMP JUMPDEST PUSH20 0xFFFFFFFFFFFFFFFFFFFFFFFFFFFFFFFFFFFFFFFF AND EQ SWAP1 POP SWAP5 SWAP4 POP POP POP POP JUMP JUMPDEST CALLER PUSH20 0xFFFFFFFFFFFFFFFFFFFFFFFFFFFFFFFFFFFFFFFF AND PUSH0 DUP1 SLOAD SWAP1 PUSH2 0x100 EXP SWAP1 DIV PUSH20 0xFFFFFFFFFFFFFFFFFFFFFFFFFFFFFFFFFFFFFFFF AND PUSH20 0xFFFFFFFFFFFFFFFFFFFFFFFFFFFFFFFFFFFFFFFF AND EQ PUSH2 0x19A6 JUMPI PUSH1 0x40 MLOAD PUSH32 0x8C379A000000000000000000000000000000000000000000000000000000000 DUP2 MSTORE PUSH1 0x4 ADD PUSH2 0x199D SWAP1 PUSH2 0x2C73 JUMP JUMPDEST PUSH1 0x40 MLOAD DUP1 SWAP2 SUB SWAP1 REVERT JUMPDEST DUP3 PUSH1 0x1 PUSH0 DUP3 PUSH20 0xFFFFFFFFFFFFFFFFFFFFFFFFFFFFFFFFFFFFFFFF AND PUSH20 0xFFFFFFFFFFFFFFFFFFFFFFFFFFFFFFFFFFFFFFFF AND DUP2 MSTORE PUSH1 0x20 ADD SWAP1 DUP2 MSTORE PUSH1 0x20 ADD PUSH0 KECCAK256 PUSH0 SWAP1 SLOAD SWAP1 PUSH2 0x100 EXP SWAP1 DIV PUSH1 0xFF AND PUSH2 0x1A30 JUMPI PUSH1 0x40 MLOAD PUSH32 0x8C379A000000000000000000000000000000000000000000000000000000000 DUP2 MSTORE PUSH1 0x4 ADD PUSH2 0x1A27 SWAP1 PUSH2 0x2AFC JUMP JUMPDEST PUSH1 0x40 MLOAD DUP1 SWAP2 SUB SWAP1 REVERT JUMPDEST PUSH1 0x5 PUSH0 DUP4 DUP2 MSTORE PUSH1 0x20 ADD SWAP1 DUP2 MSTORE PUSH1 0x20 ADD PUSH0 KECCAK256 PUSH0 SWAP1 SLOAD SWAP1 PUSH2 0x100 EXP SWAP1 DIV PUSH1 0xFF AND ISZERO PUSH2 0x1A8E JUMPI PUSH1 0x40 MLOAD PUSH32 0x8C379A000000000000000000000000000000000000000000000000000000000 DUP2 MSTORE PUSH1 0x4 ADD PUSH2 0x1A85 SWAP1 PUSH2 0x2EEE JUMP JUMPDEST PUSH1 0x40 MLOAD DUP1 SWAP2 SUB SWAP1 REVERT JUMPDEST PUSH2 0x1A9A DUP9 DUP9 DUP9 DUP9 PUSH2 0x646 JUMP JUMPDEST PUSH2 0x1AA6 DUP9 DUP6 DUP6 DUP6 PUSH2 0x1C11 JUMP JUMPDEST POP POP POP POP POP POP POP POP JUMP JUMPDEST CALLER PUSH20 0xFFFFFFFFFFFFFFFFFFFFFFFFFFFFFFFFFFFFFFFF AND PUSH0 DUP1 SLOAD SWAP1 PUSH2 0x100 EXP SWAP1 DIV PUSH20 0xFFFFFFFFFFFFFFFFFFFFFFFFFFFFFFFFFFFFFFFF AND PUSH20 0xFFFFFFFFFFFFFFFFFFFFFFFFFFFFFFFFFFFFFFFF AND EQ PUSH2 0x1B3D JUMPI PUSH1 0x40 MLOAD PUSH32 0x8C379A000000000000000000000000000000000000000000000000000000000 DUP2 MSTORE PUSH1 0x4 ADD PUSH2 0x1B34 SWAP1 PUSH2 0x2C73 JUMP JUMPDEST PUSH1 0x40 MLOAD DUP1 SWAP2 SUB SWAP1 REVERT JUMPDEST DUP1 PUSH0 DUP1 PUSH2 0x100 EXP DUP2 SLOAD DUP2 PUSH20 0xFFFFFFFFFFFFFFFFFFFFFFFFFFFFFFFFFFFFFFFF MUL NOT AND SWAP1 DUP4 PUSH20 0xFFFFFFFFFFFFFFFFFFFFFFFFFFFFFFFFFFFFFFFF AND MUL OR SWAP1 SSTORE POP POP JUMP JUMPDEST PUSH0 DUP1 PUSH2 0x1B8B DUP7 MLOAD PUSH2 0x1E3B JUMP JUMPDEST DUP7 PUSH1 0x40 MLOAD PUSH1 0x20 ADD PUSH2 0x1B9D SWAP3 SWAP2 SWAP1 PUSH2 0x32EA JUMP JUMPDEST PUSH1 0x40 MLOAD PUSH1 0x20 DUP2 DUP4 SUB SUB DUP2 MSTORE SWAP1 PUSH1 0x40 MSTORE SWAP1 POP PUSH0 DUP2 DUP1 MLOAD SWAP1 PUSH1 0x20 ADD KECCAK256 SWAP1 POP PUSH1 0x1 DUP2 DUP8 DUP8 DUP8 PUSH1 0x40 MLOAD PUSH0 DUP2 MSTORE PUSH1 0x20 ADD PUSH1 0x40 MSTORE PUSH1 0x40 MLOAD PUSH2 0x1BDB SWAP5 SWAP4 SWAP3 SWAP2 SWAP1 PUSH2 0x334B JUMP JUMPDEST PUSH1 0x20 PUSH1 0x40 MLOAD PUSH1 0x20 DUP2 SUB SWAP1 DUP1 DUP5 SUB SWAP1 DUP6 GAS STATICCALL ISZERO DUP1 ISZERO PUSH2 0x1BFB JUMPI RETURNDATASIZE PUSH0 DUP1 RETURNDATACOPY RETURNDATASIZE PUSH0 REVERT JUMPDEST POP POP POP PUSH1 0x20 PUSH1 0x40 MLOAD SUB MLOAD SWAP3 POP POP POP SWAP5 SWAP4 POP POP POP POP JUMP JUMPDEST PUSH1 0x1 PUSH1 0x5 PUSH0 DUP4 DUP2 MSTORE PUSH1 0x20 ADD SWAP1 DUP2 MSTORE PUSH1 0x20 ADD PUSH0 KECCAK256 PUSH0 PUSH2 0x100 EXP DUP2 SLOAD DUP2 PUSH1 0xFF MUL NOT AND SWAP1 DUP4 ISZERO ISZERO MUL OR SWAP1 SSTORE POP PUSH1 0x1 PUSH1 0x6 PUSH0 DUP4 DUP2 MSTORE PUSH1 0x20 ADD SWAP1 DUP2 MSTORE PUSH1 0x20 ADD PUSH0 KECCAK256 PUSH0 PUSH2 0x100 EXP DUP2 SLOAD DUP2 PUSH1 0xFF MUL NOT AND SWAP1 DUP4 ISZERO ISZERO MUL OR SWAP1 SSTORE POP PUSH0 PUSH1 0x3 DUP6 PUSH1 0x40 MLOAD PUSH2 0x1C74 SWAP2 SWAP1 PUSH2 0x2D91 JUMP JUMPDEST SWAP1 DUP2 MSTORE PUSH1 0x20 ADD PUSH1 0x40 MLOAD DUP1 SWAP2 SUB SWAP1 KECCAK256 SLOAD SWAP1 POP DUP2 PUSH1 0x4 DUP7 PUSH1 0x40 MLOAD PUSH2 0x1C96 SWAP2 SWAP1 PUSH2 0x2D91 JUMP JUMPDEST SWAP1 DUP2 MSTORE PUSH1 0x20 ADD PUSH1 0x40 MLOAD DUP1 SWAP2 SUB SWAP1 KECCAK256 PUSH0 DUP4 DUP2 MSTORE PUSH1 0x20 ADD SWAP1 DUP2 MSTORE PUSH1 0x20 ADD PUSH0 KECCAK256 DUP2 SWAP1 SSTORE POP PUSH1 0x1 DUP2 PUSH2 0x1CC4 SWAP2 SWAP1 PUSH2 0x33BB JUMP JUMPDEST PUSH1 0x3 DUP7 PUSH1 0x40 MLOAD PUSH2 0x1CD4 SWAP2 SWAP1 PUSH2 0x2D91 JUMP JUMPDEST SWAP1 DUP2 MSTORE PUSH1 0x20 ADD PUSH1 0x40 MLOAD DUP1 SWAP2 SUB SWAP1 KECCAK256 DUP2 SWAP1 SSTORE POP DUP5 PUSH1 0x7 PUSH0 DUP5 DUP2 MSTORE PUSH1 0x20 ADD SWAP1 DUP2 MSTORE PUSH1 0x20 ADD PUSH0 KECCAK256 SWAP1 DUP2 PUSH2 0x1D04 SWAP2 SWAP1 PUSH2 0x354F JUMP JUMPDEST POP DUP3 PUSH1 0x8 PUSH0 DUP5 DUP2 MSTORE PUSH1 0x20 ADD SWAP1 DUP2 MSTORE PUSH1 0x20 ADD PUSH0 KECCAK256 DUP2 SWAP1 SSTORE POP DUP4 PUSH1 0x9 PUSH0 DUP5 DUP2 MSTORE PUSH1 0x20 ADD SWAP1 DUP2 MSTORE PUSH1 0x20 ADD PUSH0 KECCAK256 PUSH0 PUSH2 0x100 EXP DUP2 SLOAD DUP2 PUSH20 0xFFFFFFFFFFFFFFFFFFFFFFFFFFFFFFFFFFFFFFFF MUL NOT AND SWAP1 DUP4 PUSH20 0xFFFFFFFFFFFFFFFFFFFFFFFFFFFFFFFFFFFFFFFF AND MUL OR SWAP1 SSTORE POP POP POP POP POP POP JUMP JUMPDEST PUSH1 0x60 PUSH0 PUSH1 0x1 PUSH2 0x1D7F DUP5 PUSH2 0x1F55 JUMP JUMPDEST ADD SWAP1 POP PUSH0 DUP2 PUSH8 0xFFFFFFFFFFFFFFFF DUP2 GT ISZERO PUSH2 0x1D9D JUMPI PUSH2 0x1D9C PUSH2 0x20CF JUMP JUMPDEST JUMPDEST PUSH1 0x40 MLOAD SWAP1 DUP1 DUP3 MSTORE DUP1 PUSH1 0x1F ADD PUSH1 0x1F NOT AND PUSH1 0x20 ADD DUP3 ADD PUSH1 0x40 MSTORE DUP1 ISZERO PUSH2 0x1DCF JUMPI DUP2 PUSH1 0x20 ADD PUSH1 0x1 DUP3 MUL DUP1 CALLDATASIZE DUP4 CALLDATACOPY DUP1 DUP3 ADD SWAP2 POP POP SWAP1 POP JUMPDEST POP SWAP1 POP PUSH0 DUP3 PUSH1 0x20 ADD DUP3 ADD SWAP1 POP JUMPDEST PUSH1 0x1 ISZERO PUSH2 0x1E30 JUMPI DUP1 DUP1 PUSH1 0x1 SWAP1 SUB SWAP2 POP POP PUSH32 0x3031323334353637383961626364656600000000000000000000000000000000 PUSH1 0xA DUP7 MOD BYTE DUP2 MSTORE8 PUSH1 0xA DUP6 DUP2 PUSH2 0x1E25 JUMPI PUSH2 0x1E24 PUSH2 0x361E JUMP JUMPDEST JUMPDEST DIV SWAP5 POP PUSH0 DUP6 SUB PUSH2 0x1DDC JUMPI JUMPDEST DUP2 SWAP4 POP POP POP POP SWAP2 SWAP1 POP JUMP JUMPDEST PUSH1 0x60 PUSH0 PUSH1 0x1 SWAP1 POP PUSH0 DUP4 SWAP1 POP JUMPDEST PUSH0 PUSH1 0xA DUP3 PUSH2 0x1E55 SWAP2 SWAP1 PUSH2 0x364B JUMP JUMPDEST SWAP2 POP DUP2 EQ PUSH2 0x1E70 JUMPI DUP2 DUP1 PUSH2 0x1E68 SWAP1 PUSH2 0x367B JUMP JUMPDEST SWAP3 POP POP PUSH2 0x1E47 JUMP JUMPDEST PUSH0 DUP3 PUSH8 0xFFFFFFFFFFFFFFFF DUP2 GT ISZERO PUSH2 0x1E8B JUMPI PUSH2 0x1E8A PUSH2 0x20CF JUMP JUMPDEST JUMPDEST PUSH1 0x40 MLOAD SWAP1 DUP1 DUP3 MSTORE DUP1 PUSH1 0x1F ADD PUSH1 0x1F NOT AND PUSH1 0x20 ADD DUP3 ADD PUSH1 0x40 MSTORE DUP1 ISZERO PUSH2 0x1EBD JUMPI DUP2 PUSH1 0x20 ADD PUSH1 0x1 DUP3 MUL DUP1 CALLDATASIZE DUP4 CALLDATACOPY DUP1 DUP3 ADD SWAP2 POP POP SWAP1 POP JUMPDEST POP SWAP1 POP JUMPDEST PUSH1 0x1 ISZERO PUSH2 0x1F4A JUMPI DUP3 DUP1 PUSH2 0x1ED3 SWAP1 PUSH2 0x36C2 JUMP JUMPDEST SWAP4 POP POP PUSH1 0xA DUP6 PUSH2 0x1EE3 SWAP2 SWAP1 PUSH2 0x36E9 JUMP JUMPDEST PUSH1 0x30 PUSH2 0x1EEF SWAP2 SWAP1 PUSH2 0x33BB JUMP JUMPDEST PUSH1 0xF8 SHL DUP2 DUP5 DUP2 MLOAD DUP2 LT PUSH2 0x1F05 JUMPI PUSH2 0x1F04 PUSH2 0x2E0F JUMP JUMPDEST JUMPDEST PUSH1 0x20 ADD ADD SWAP1 PUSH31 0xFFFFFFFFFFFFFFFFFFFFFFFFFFFFFFFFFFFFFFFFFFFFFFFFFFFFFFFFFFFFFF NOT AND SWAP1 DUP2 PUSH0 BYTE SWAP1 MSTORE8 POP PUSH1 0xA DUP6 PUSH2 0x1F40 SWAP2 SWAP1 PUSH2 0x364B JUMP JUMPDEST SWAP5 POP PUSH0 DUP4 SUB PUSH2 0x1EC1 JUMPI JUMPDEST DUP1 SWAP4 POP POP POP POP SWAP2 SWAP1 POP JUMP JUMPDEST PUSH0 DUP1 PUSH0 SWAP1 POP PUSH27 0x184F03E93FF9F4DAA797ED6E38ED64BF6A1F010000000000000000 DUP4 LT PUSH2 0x1FB1 JUMPI PUSH27 0x184F03E93FF9F4DAA797ED6E38ED64BF6A1F010000000000000000 DUP4 DUP2 PUSH2 0x1FA7 JUMPI PUSH2 0x1FA6 PUSH2 0x361E JUMP JUMPDEST JUMPDEST DIV SWAP3 POP PUSH1 0x40 DUP2 ADD SWAP1 POP JUMPDEST PUSH14 0x4EE2D6D415B85ACEF8100000000 DUP4 LT PUSH2 0x1FEE JUMPI PUSH14 0x4EE2D6D415B85ACEF8100000000 DUP4 DUP2 PUSH2 0x1FE4 JUMPI PUSH2 0x1FE3 PUSH2 0x361E JUMP JUMPDEST JUMPDEST DIV SWAP3 POP PUSH1 0x20 DUP2 ADD SWAP1 POP JUMPDEST PUSH7 0x2386F26FC10000 DUP4 LT PUSH2 0x201D JUMPI PUSH7 0x2386F26FC10000 DUP4 DUP2 PUSH2 0x2013 JUMPI PUSH2 0x2012 PUSH2 0x361E JUMP JUMPDEST JUMPDEST DIV SWAP3 POP PUSH1 0x10 DUP2 ADD SWAP1 POP JUMPDEST PUSH4 0x5F5E100 DUP4 LT PUSH2 0x2046 JUMPI PUSH4 0x5F5E100 DUP4 DUP2 PUSH2 0x203C JUMPI PUSH2 0x203B PUSH2 0x361E JUMP JUMPDEST JUMPDEST DIV SWAP3 POP PUSH1 0x8 DUP2 ADD SWAP1 POP JUMPDEST PUSH2 0x2710 DUP4 LT PUSH2 0x206B JUMPI PUSH2 0x2710 DUP4 DUP2 PUSH2 0x2061 JUMPI PUSH2 0x2060 PUSH2 0x361E JUMP JUMPDEST JUMPDEST DIV SWAP3 POP PUSH1 0x4 DUP2 ADD SWAP1 POP JUMPDEST PUSH1 0x64 DUP4 LT PUSH2 0x208E JUMPI PUSH1 0x64 DUP4 DUP2 PUSH2 0x2084 JUMPI PUSH2 0x2083 PUSH2 0x361E JUMP JUMPDEST JUMPDEST DIV SWAP3 POP PUSH1 0x2 DUP2 ADD SWAP1 POP JUMPDEST PUSH1 0xA DUP4 LT PUSH2 0x209D JUMPI PUSH1 0x1 DUP2 ADD SWAP1 POP JUMPDEST DUP1 SWAP2 POP POP SWAP2 SWAP1 POP JUMP JUMPDEST PUSH0 PUSH1 0x40 MLOAD SWAP1 POP SWAP1 JUMP JUMPDEST PUSH0 DUP1 REVERT JUMPDEST PUSH0 DUP1 REVERT JUMPDEST PUSH0 DUP1 REVERT JUMPDEST PUSH0 DUP1 REVERT JUMPDEST PUSH0 PUSH1 0x1F NOT PUSH1 0x1F DUP4 ADD AND SWAP1 POP SWAP2 SWAP1 POP JUMP JUMPDEST PUSH32 0x4E487B7100000000000000000000000000000000000000000000000000000000 PUSH0 MSTORE PUSH1 0x41 PUSH1 0x4 MSTORE PUSH1 0x24 PUSH0 REVERT JUMPDEST PUSH2 0x2105 DUP3 PUSH2 0x20BF JUMP JUMPDEST DUP2 ADD DUP2 DUP2 LT PUSH8 0xFFFFFFFFFFFFFFFF DUP3 GT OR ISZERO PUSH2 0x2124 JUMPI PUSH2 0x2123 PUSH2 0x20CF JUMP JUMPDEST JUMPDEST DUP1 PUSH1 0x40 MSTORE POP POP POP JUMP JUMPDEST PUSH0 PUSH2 0x2136 PUSH2 0x20A6 JUMP JUMPDEST SWAP1 POP PUSH2 0x2142 DUP3 DUP3 PUSH2 0x20FC JUMP JUMPDEST SWAP2 SWAP1 POP JUMP JUMPDEST PUSH0 PUSH8 0xFFFFFFFFFFFFFFFF DUP3 GT ISZERO PUSH2 0x2161 JUMPI PUSH2 0x2160 PUSH2 0x20CF JUMP JUMPDEST JUMPDEST PUSH2 0x216A DUP3 PUSH2 0x20BF JUMP JUMPDEST SWAP1 POP PUSH1 0x20 DUP2 ADD SWAP1 POP SWAP2 SWAP1 POP JUMP JUMPDEST DUP3 DUP2 DUP4 CALLDATACOPY PUSH0 DUP4 DUP4 ADD MSTORE POP POP POP JUMP JUMPDEST PUSH0 PUSH2 0x2197 PUSH2 0x2192 DUP5 PUSH2 0x2147 JUMP JUMPDEST PUSH2 0x212D JUMP JUMPDEST SWAP1 POP DUP3 DUP2 MSTORE PUSH1 0x20 DUP2 ADD DUP5 DUP5 DUP5 ADD GT ISZERO PUSH2 0x21B3 JUMPI PUSH2 0x21B2 PUSH2 0x20BB JUMP JUMPDEST JUMPDEST PUSH2 0x21BE DUP5 DUP3 DUP6 PUSH2 0x2177 JUMP JUMPDEST POP SWAP4 SWAP3 POP POP POP JUMP JUMPDEST PUSH0 DUP3 PUSH1 0x1F DUP4 ADD SLT PUSH2 0x21DA JUMPI PUSH2 0x21D9 PUSH2 0x20B7 JUMP JUMPDEST JUMPDEST DUP2 CALLDATALOAD PUSH2 0x21EA DUP5 DUP3 PUSH1 0x20 DUP7 ADD PUSH2 0x2185 JUMP JUMPDEST SWAP2 POP POP SWAP3 SWAP2 POP POP JUMP JUMPDEST PUSH0 DUP1 REVERT JUMPDEST PUSH0 DUP1 REVERT JUMPDEST PUSH0 DUP1 DUP4 PUSH1 0x1F DUP5 ADD SLT PUSH2 0x2210 JUMPI PUSH2 0x220F PUSH2 0x20B7 JUMP JUMPDEST JUMPDEST DUP3 CALLDATALOAD SWAP1 POP PUSH8 0xFFFFFFFFFFFFFFFF DUP2 GT ISZERO PUSH2 0x222D JUMPI PUSH2 0x222C PUSH2 0x21F3 JUMP JUMPDEST JUMPDEST PUSH1 0x20 DUP4 ADD SWAP2 POP DUP4 PUSH1 0x1 DUP3 MUL DUP4 ADD GT ISZERO PUSH2 0x2249 JUMPI PUSH2 0x2248 PUSH2 0x21F7 JUMP JUMPDEST JUMPDEST SWAP3 POP SWAP3 SWAP1 POP JUMP JUMPDEST PUSH0 DUP1 PUSH0 PUSH1 0x40 DUP5 DUP7 SUB SLT ISZERO PUSH2 0x2267 JUMPI PUSH2 0x2266 PUSH2 0x20AF JUMP JUMPDEST JUMPDEST PUSH0 DUP5 ADD CALLDATALOAD PUSH8 0xFFFFFFFFFFFFFFFF DUP2 GT ISZERO PUSH2 0x2284 JUMPI PUSH2 0x2283 PUSH2 0x20B3 JUMP JUMPDEST JUMPDEST PUSH2 0x2290 DUP7 DUP3 DUP8 ADD PUSH2 0x21C6 JUMP JUMPDEST SWAP4 POP POP PUSH1 0x20 DUP5 ADD CALLDATALOAD PUSH8 0xFFFFFFFFFFFFFFFF DUP2 GT ISZERO PUSH2 0x22B1 JUMPI PUSH2 0x22B0 PUSH2 0x20B3 JUMP JUMPDEST JUMPDEST PUSH2 0x22BD DUP7 DUP3 DUP8 ADD PUSH2 0x21FB JUMP JUMPDEST SWAP3 POP SWAP3 POP POP SWAP3 POP SWAP3 POP SWAP3 JUMP JUMPDEST PUSH0 PUSH20 0xFFFFFFFFFFFFFFFFFFFFFFFFFFFFFFFFFFFFFFFF DUP3 AND SWAP1 POP SWAP2 SWAP1 POP JUMP JUMPDEST PUSH0 PUSH2 0x22F2 DUP3 PUSH2 0x22C9 JUMP JUMPDEST SWAP1 POP SWAP2 SWAP1 POP JUMP JUMPDEST PUSH2 0x2302 DUP2 PUSH2 0x22E8 JUMP JUMPDEST DUP3 MSTORE POP POP JUMP JUMPDEST PUSH0 PUSH1 0x20 DUP3 ADD SWAP1 POP PUSH2 0x231B PUSH0 DUP4 ADD DUP5 PUSH2 0x22F9 JUMP JUMPDEST SWAP3 SWAP2 POP POP JUMP JUMPDEST PUSH0 DUP2 MLOAD SWAP1 POP SWAP2 SWAP1 POP JUMP JUMPDEST PUSH0 DUP3 DUP3 MSTORE PUSH1 0x20 DUP3 ADD SWAP1 POP SWAP3 SWAP2 POP POP JUMP JUMPDEST DUP3 DUP2 DUP4 MCOPY PUSH0 DUP4 DUP4 ADD MSTORE POP POP POP JUMP JUMPDEST PUSH0 PUSH2 0x2353 DUP3 PUSH2 0x2321 JUMP JUMPDEST PUSH2 0x235D DUP2 DUP6 PUSH2 0x232B JUMP JUMPDEST SWAP4 POP PUSH2 0x236D DUP2 DUP6 PUSH1 0x20 DUP7 ADD PUSH2 0x233B JUMP JUMPDEST PUSH2 0x2376 DUP2 PUSH2 0x20BF JUMP JUMPDEST DUP5 ADD SWAP2 POP POP SWAP3 SWAP2 POP POP JUMP JUMPDEST PUSH0 PUSH1 0x20 DUP3 ADD SWAP1 POP DUP2 DUP2 SUB PUSH0 DUP4 ADD MSTORE PUSH2 0x2399 DUP2 DUP5 PUSH2 0x2349 JUMP JUMPDEST SWAP1 POP SWAP3 SWAP2 POP POP JUMP JUMPDEST PUSH0 DUP2 SWAP1 POP SWAP2 SWAP1 POP JUMP JUMPDEST PUSH2 0x23B3 DUP2 PUSH2 0x23A1 JUMP JUMPDEST DUP2 EQ PUSH2 0x23BD JUMPI PUSH0 DUP1 REVERT JUMPDEST POP JUMP JUMPDEST PUSH0 DUP2 CALLDATALOAD SWAP1 POP PUSH2 0x23CE DUP2 PUSH2 0x23AA JUMP JUMPDEST SWAP3 SWAP2 POP POP JUMP JUMPDEST PUSH0 PUSH1 0x20 DUP3 DUP5 SUB SLT ISZERO PUSH2 0x23E9 JUMPI PUSH2 0x23E8 PUSH2 0x20AF JUMP JUMPDEST JUMPDEST PUSH0 PUSH2 0x23F6 DUP5 DUP3 DUP6 ADD PUSH2 0x23C0 JUMP JUMPDEST SWAP2 POP POP SWAP3 SWAP2 POP POP JUMP JUMPDEST PUSH0 PUSH2 0x2409 DUP3 PUSH2 0x22C9 JUMP JUMPDEST SWAP1 POP SWAP2 SWAP1 POP JUMP JUMPDEST PUSH2 0x2419 DUP2 PUSH2 0x23FF JUMP JUMPDEST DUP3 MSTORE POP POP JUMP JUMPDEST PUSH0 PUSH1 0x20 DUP3 ADD SWAP1 POP PUSH2 0x2432 PUSH0 DUP4 ADD DUP5 PUSH2 0x2410 JUMP JUMPDEST SWAP3 SWAP2 POP POP JUMP JUMPDEST PUSH2 0x2441 DUP2 PUSH2 0x23FF JUMP JUMPDEST DUP2 EQ PUSH2 0x244B JUMPI PUSH0 DUP1 REVERT JUMPDEST POP JUMP JUMPDEST PUSH0 DUP2 CALLDATALOAD SWAP1 POP PUSH2 0x245C DUP2 PUSH2 0x2438 JUMP JUMPDEST SWAP3 SWAP2 POP POP JUMP JUMPDEST PUSH0 DUP1 PUSH0 DUP1 PUSH1 0x60 DUP6 DUP8 SUB SLT ISZERO PUSH2 0x247A JUMPI PUSH2 0x2479 PUSH2 0x20AF JUMP JUMPDEST JUMPDEST PUSH0 DUP6 ADD CALLDATALOAD PUSH8 0xFFFFFFFFFFFFFFFF DUP2 GT ISZERO PUSH2 0x2497 JUMPI PUSH2 0x2496 PUSH2 0x20B3 JUMP JUMPDEST JUMPDEST PUSH2 0x24A3 DUP8 DUP3 DUP9 ADD PUSH2 0x21C6 JUMP JUMPDEST SWAP5 POP POP PUSH1 0x20 PUSH2 0x24B4 DUP8 DUP3 DUP9 ADD PUSH2 0x244E JUMP JUMPDEST SWAP4 POP POP PUSH1 0x40 DUP6 ADD CALLDATALOAD PUSH8 0xFFFFFFFFFFFFFFFF DUP2 GT ISZERO PUSH2 0x24D5 JUMPI PUSH2 0x24D4 PUSH2 0x20B3 JUMP JUMPDEST JUMPDEST PUSH2 0x24E1 DUP8 DUP3 DUP9 ADD PUSH2 0x21FB JUMP JUMPDEST SWAP3 POP SWAP3 POP POP SWAP3 SWAP6 SWAP2 SWAP5 POP SWAP3 POP JUMP JUMPDEST PUSH0 PUSH1 0x20 DUP3 DUP5 SUB SLT ISZERO PUSH2 0x2504 JUMPI PUSH2 0x2503 PUSH2 0x20AF JUMP JUMPDEST JUMPDEST PUSH0 DUP3 ADD CALLDATALOAD PUSH8 0xFFFFFFFFFFFFFFFF DUP2 GT ISZERO PUSH2 0x2521 JUMPI PUSH2 0x2520 PUSH2 0x20B3 JUMP JUMPDEST JUMPDEST PUSH2 0x252D DUP5 DUP3 DUP6 ADD PUSH2 0x21C6 JUMP JUMPDEST SWAP2 POP POP SWAP3 SWAP2 POP POP JUMP JUMPDEST PUSH2 0x253F DUP2 PUSH2 0x22E8 JUMP JUMPDEST DUP2 EQ PUSH2 0x2549 JUMPI PUSH0 DUP1 REVERT JUMPDEST POP JUMP JUMPDEST PUSH0 DUP2 CALLDATALOAD SWAP1 POP PUSH2 0x255A DUP2 PUSH2 0x2536 JUMP JUMPDEST SWAP3 SWAP2 POP POP JUMP JUMPDEST PUSH0 DUP1 PUSH1 0x40 DUP4 DUP6 SUB SLT ISZERO PUSH2 0x2576 JUMPI PUSH2 0x2575 PUSH2 0x20AF JUMP JUMPDEST JUMPDEST PUSH0 DUP4 ADD CALLDATALOAD PUSH8 0xFFFFFFFFFFFFFFFF DUP2 GT ISZERO PUSH2 0x2593 JUMPI PUSH2 0x2592 PUSH2 0x20B3 JUMP JUMPDEST JUMPDEST PUSH2 0x259F DUP6 DUP3 DUP7 ADD PUSH2 0x21C6 JUMP JUMPDEST SWAP3 POP POP PUSH1 0x20 PUSH2 0x25B0 DUP6 DUP3 DUP7 ADD PUSH2 0x254C JUMP JUMPDEST SWAP2 POP POP SWAP3 POP SWAP3 SWAP1 POP JUMP JUMPDEST PUSH0 DUP2 MLOAD SWAP1 POP SWAP2 SWAP1 POP JUMP JUMPDEST PUSH0 DUP3 DUP3 MSTORE PUSH1 0x20 DUP3 ADD SWAP1 POP SWAP3 SWAP2 POP POP JUMP JUMPDEST PUSH0 DUP2 SWAP1 POP PUSH1 0x20 DUP3 ADD SWAP1 POP SWAP2 SWAP1 POP JUMP JUMPDEST PUSH0 DUP2 SWAP1 POP SWAP2 SWAP1 POP JUMP JUMPDEST PUSH0 PUSH2 0x2606 PUSH2 0x2601 PUSH2 0x25FC DUP5 PUSH2 0x23A1 JUMP JUMPDEST PUSH2 0x25E3 JUMP JUMPDEST PUSH2 0x23A1 JUMP JUMPDEST SWAP1 POP SWAP2 SWAP1 POP JUMP JUMPDEST PUSH2 0x2616 DUP2 PUSH2 0x25EC JUMP JUMPDEST DUP3 MSTORE POP POP JUMP JUMPDEST PUSH0 PUSH2 0x2627 DUP4 DUP4 PUSH2 0x260D JUMP JUMPDEST PUSH1 0x20 DUP4 ADD SWAP1 POP SWAP3 SWAP2 POP POP JUMP JUMPDEST PUSH0 PUSH1 0x20 DUP3 ADD SWAP1 POP SWAP2 SWAP1 POP JUMP JUMPDEST PUSH0 PUSH2 0x2649 DUP3 PUSH2 0x25BA JUMP JUMPDEST PUSH2 0x2653 DUP2 DUP6 PUSH2 0x25C4 JUMP JUMPDEST SWAP4 POP PUSH2 0x265E DUP4 PUSH2 0x25D4 JUMP JUMPDEST DUP1 PUSH0 JUMPDEST DUP4 DUP2 LT ISZERO PUSH2 0x268E JUMPI DUP2 MLOAD PUSH2 0x2675 DUP9 DUP3 PUSH2 0x261C JUMP JUMPDEST SWAP8 POP PUSH2 0x2680 DUP4 PUSH2 0x2633 JUMP JUMPDEST SWAP3 POP POP PUSH1 0x1 DUP2 ADD SWAP1 POP PUSH2 0x2661 JUMP JUMPDEST POP DUP6 SWAP4 POP POP POP POP SWAP3 SWAP2 POP POP JUMP JUMPDEST PUSH0 PUSH1 0x20 DUP3 ADD SWAP1 POP DUP2 DUP2 SUB PUSH0 DUP4 ADD MSTORE PUSH2 0x26B3 DUP2 DUP5 PUSH2 0x263F JUMP JUMPDEST SWAP1 POP SWAP3 SWAP2 POP POP JUMP JUMPDEST PUSH0 PUSH1 0x20 DUP3 DUP5 SUB SLT ISZERO PUSH2 0x26D0 JUMPI PUSH2 0x26CF PUSH2 0x20AF JUMP JUMPDEST JUMPDEST PUSH0 PUSH2 0x26DD DUP5 DUP3 DUP6 ADD PUSH2 0x254C JUMP JUMPDEST SWAP2 POP POP SWAP3 SWAP2 POP POP JUMP JUMPDEST PUSH2 0x26EF DUP2 PUSH2 0x23A1 JUMP JUMPDEST DUP2 EQ PUSH2 0x26F9 JUMPI PUSH0 DUP1 REVERT JUMPDEST POP JUMP JUMPDEST PUSH0 DUP2 CALLDATALOAD SWAP1 POP PUSH2 0x270A DUP2 PUSH2 0x26E6 JUMP JUMPDEST SWAP3 SWAP2 POP POP JUMP JUMPDEST PUSH0 DUP1 PUSH0 DUP1 PUSH1 0x80 DUP6 DUP8 SUB SLT ISZERO PUSH2 0x2728 JUMPI PUSH2 0x2727 PUSH2 0x20AF JUMP JUMPDEST JUMPDEST PUSH0 DUP6 ADD CALLDATALOAD PUSH8 0xFFFFFFFFFFFFFFFF DUP2 GT ISZERO PUSH2 0x2745 JUMPI PUSH2 0x2744 PUSH2 0x20B3 JUMP JUMPDEST JUMPDEST PUSH2 0x2751 DUP8 DUP3 DUP9 ADD PUSH2 0x21C6 JUMP JUMPDEST SWAP5 POP POP PUSH1 0x20 PUSH2 0x2762 DUP8 DUP3 DUP9 ADD PUSH2 0x254C JUMP JUMPDEST SWAP4 POP POP PUSH1 0x40 PUSH2 0x2773 DUP8 DUP3 DUP9 ADD PUSH2 0x26FC JUMP JUMPDEST SWAP3 POP POP PUSH1 0x60 PUSH2 0x2784 DUP8 DUP3 DUP9 ADD PUSH2 0x23C0 JUMP JUMPDEST SWAP2 POP POP SWAP3 SWAP6 SWAP2 SWAP5 POP SWAP3 POP JUMP JUMPDEST PUSH0 DUP1 PUSH1 0x40 DUP4 DUP6 SUB SLT ISZERO PUSH2 0x27A6 JUMPI PUSH2 0x27A5 PUSH2 0x20AF JUMP JUMPDEST JUMPDEST PUSH0 PUSH2 0x27B3 DUP6 DUP3 DUP7 ADD PUSH2 0x23C0 JUMP JUMPDEST SWAP3 POP POP PUSH1 0x20 PUSH2 0x27C4 DUP6 DUP3 DUP7 ADD PUSH2 0x254C JUMP JUMPDEST SWAP2 POP POP SWAP3 POP SWAP3 SWAP1 POP JUMP JUMPDEST PUSH2 0x27D7 DUP2 PUSH2 0x23A1 JUMP JUMPDEST DUP3 MSTORE POP POP JUMP JUMPDEST PUSH0 PUSH1 0x20 DUP3 ADD SWAP1 POP PUSH2 0x27F0 PUSH0 DUP4 ADD DUP5 PUSH2 0x27CE JUMP JUMPDEST SWAP3 SWAP2 POP POP JUMP JUMPDEST PUSH0 DUP1 PUSH0 DUP1 PUSH1 0x60 DUP6 DUP8 SUB SLT ISZERO PUSH2 0x280E JUMPI PUSH2 0x280D PUSH2 0x20AF JUMP JUMPDEST JUMPDEST PUSH0 PUSH2 0x281B DUP8 DUP3 DUP9 ADD PUSH2 0x254C JUMP JUMPDEST SWAP5 POP POP PUSH1 0x20 DUP6 ADD CALLDATALOAD PUSH8 0xFFFFFFFFFFFFFFFF DUP2 GT ISZERO PUSH2 0x283C JUMPI PUSH2 0x283B PUSH2 0x20B3 JUMP JUMPDEST JUMPDEST PUSH2 0x2848 DUP8 DUP3 DUP9 ADD PUSH2 0x21C6 JUMP JUMPDEST SWAP4 POP POP PUSH1 0x40 DUP6 ADD CALLDATALOAD PUSH8 0xFFFFFFFFFFFFFFFF DUP2 GT ISZERO PUSH2 0x2869 JUMPI PUSH2 0x2868 PUSH2 0x20B3 JUMP JUMPDEST JUMPDEST PUSH2 0x2875 DUP8 DUP3 DUP9 ADD PUSH2 0x21FB JUMP JUMPDEST SWAP3 POP SWAP3 POP POP SWAP3 SWAP6 SWAP2 SWAP5 POP SWAP3 POP JUMP JUMPDEST PUSH0 DUP2 ISZERO ISZERO SWAP1 POP SWAP2 SWAP1 POP JUMP JUMPDEST PUSH2 0x2897 DUP2 PUSH2 0x2883 JUMP JUMPDEST DUP3 MSTORE POP POP JUMP JUMPDEST PUSH0 PUSH1 0x20 DUP3 ADD SWAP1 POP PUSH2 0x28B0 PUSH0 DUP4 ADD DUP5 PUSH2 0x288E JUMP JUMPDEST SWAP3 SWAP2 POP POP JUMP JUMPDEST PUSH0 DUP1 PUSH0 PUSH1 0x40 DUP5 DUP7 SUB SLT ISZERO PUSH2 0x28CD JUMPI PUSH2 0x28CC PUSH2 0x20AF JUMP JUMPDEST JUMPDEST PUSH0 PUSH2 0x28DA DUP7 DUP3 DUP8 ADD PUSH2 0x23C0 JUMP JUMPDEST SWAP4 POP POP PUSH1 0x20 DUP5 ADD CALLDATALOAD PUSH8 0xFFFFFFFFFFFFFFFF DUP2 GT ISZERO PUSH2 0x28FB JUMPI PUSH2 0x28FA PUSH2 0x20B3 JUMP JUMPDEST JUMPDEST PUSH2 0x2907 DUP7 DUP3 DUP8 ADD PUSH2 0x21FB JUMP JUMPDEST SWAP3 POP SWAP3 POP POP SWAP3 POP SWAP3 POP SWAP3 JUMP JUMPDEST PUSH0 DUP1 PUSH0 DUP1 PUSH1 0x60 DUP6 DUP8 SUB SLT ISZERO PUSH2 0x292B JUMPI PUSH2 0x292A PUSH2 0x20AF JUMP JUMPDEST JUMPDEST PUSH0 PUSH2 0x2938 DUP8 DUP3 DUP9 ADD PUSH2 0x254C JUMP JUMPDEST SWAP5 POP POP PUSH1 0x20 PUSH2 0x2949 DUP8 DUP3 DUP9 ADD PUSH2 0x23C0 JUMP JUMPDEST SWAP4 POP POP PUSH1 0x40 DUP6 ADD CALLDATALOAD PUSH8 0xFFFFFFFFFFFFFFFF DUP2 GT ISZERO PUSH2 0x296A JUMPI PUSH2 0x2969 PUSH2 0x20B3 JUMP JUMPDEST JUMPDEST PUSH2 0x2976 DUP8 DUP3 DUP9 ADD PUSH2 0x21FB JUMP JUMPDEST SWAP3 POP SWAP3 POP POP SWAP3 SWAP6 SWAP2 SWAP5 POP SWAP3 POP JUMP JUMPDEST PUSH0 DUP1 PUSH0 DUP1 PUSH0 DUP1 PUSH0 PUSH1 0xC0 DUP9 DUP11 SUB SLT ISZERO PUSH2 0x299F JUMPI PUSH2 0x299E PUSH2 0x20AF JUMP JUMPDEST JUMPDEST PUSH0 DUP9 ADD CALLDATALOAD PUSH8 0xFFFFFFFFFFFFFFFF DUP2 GT ISZERO PUSH2 0x29BC JUMPI PUSH2 0x29BB PUSH2 0x20B3 JUMP JUMPDEST JUMPDEST PUSH2 0x29C8 DUP11 DUP3 DUP12 ADD PUSH2 0x21C6 JUMP JUMPDEST SWAP8 POP POP PUSH1 0x20 PUSH2 0x29D9 DUP11 DUP3 DUP12 ADD PUSH2 0x244E JUMP JUMPDEST SWAP7 POP POP PUSH1 0x40 DUP9 ADD CALLDATALOAD PUSH8 0xFFFFFFFFFFFFFFFF DUP2 GT ISZERO PUSH2 0x29FA JUMPI PUSH2 0x29F9 PUSH2 0x20B3 JUMP JUMPDEST JUMPDEST PUSH2 0x2A06 DUP11 DUP3 DUP12 ADD PUSH2 0x21FB JUMP JUMPDEST SWAP6 POP SWAP6 POP POP PUSH1 0x60 PUSH2 0x2A19 DUP11 DUP3 DUP12 ADD PUSH2 0x254C JUMP JUMPDEST SWAP4 POP POP PUSH1 0x80 PUSH2 0x2A2A DUP11 DUP3 DUP12 ADD PUSH2 0x26FC JUMP JUMPDEST SWAP3 POP POP PUSH1 0xA0 PUSH2 0x2A3B DUP11 DUP3 DUP12 ADD PUSH2 0x23C0 JUMP JUMPDEST SWAP2 POP POP SWAP3 SWAP6 SWAP9 SWAP2 SWAP5 SWAP8 POP SWAP3 SWAP6 POP JUMP JUMPDEST PUSH32 0x696E76616C6964207369676E6174757265000000000000000000000000000000 PUSH0 DUP3 ADD MSTORE POP JUMP JUMPDEST PUSH0 PUSH2 0x2A7E PUSH1 0x11 DUP4 PUSH2 0x232B JUMP JUMPDEST SWAP2 POP PUSH2 0x2A89 DUP3 PUSH2 0x2A4A JUMP JUMPDEST PUSH1 0x20 DUP3 ADD SWAP1 POP SWAP2 SWAP1 POP JUMP JUMPDEST PUSH0 PUSH1 0x20 DUP3 ADD SWAP1 POP DUP2 DUP2 SUB PUSH0 DUP4 ADD MSTORE PUSH2 0x2AAB DUP2 PUSH2 0x2A72 JUMP JUMPDEST SWAP1 POP SWAP2 SWAP1 POP JUMP JUMPDEST PUSH32 0x6C6963656E736520646F65736E27742065786973740000000000000000000000 PUSH0 DUP3 ADD MSTORE POP JUMP JUMPDEST PUSH0 PUSH2 0x2AE6 PUSH1 0x15 DUP4 PUSH2 0x232B JUMP JUMPDEST SWAP2 POP PUSH2 0x2AF1 DUP3 PUSH2 0x2AB2 JUMP JUMPDEST PUSH1 0x20 DUP3 ADD SWAP1 POP SWAP2 SWAP1 POP JUMP JUMPDEST PUSH0 PUSH1 0x20 DUP3 ADD SWAP1 POP DUP2 DUP2 SUB PUSH0 DUP4 ADD MSTORE PUSH2 0x2B13 DUP2 PUSH2 0x2ADA JUMP JUMPDEST SWAP1 POP SWAP2 SWAP1 POP JUMP JUMPDEST PUSH32 0x4E487B7100000000000000000000000000000000000000000000000000000000 PUSH0 MSTORE PUSH1 0x22 PUSH1 0x4 MSTORE PUSH1 0x24 PUSH0 REVERT JUMPDEST PUSH0 PUSH1 0x2 DUP3 DIV SWAP1 POP PUSH1 0x1 DUP3 AND DUP1 PUSH2 0x2B5E JUMPI PUSH1 0x7F DUP3 AND SWAP2 POP JUMPDEST PUSH1 0x20 DUP3 LT DUP2 SUB PUSH2 0x2B71 JUMPI PUSH2 0x2B70 PUSH2 0x2B1A JUMP JUMPDEST JUMPDEST POP SWAP2 SWAP1 POP JUMP JUMPDEST PUSH0 DUP2 SWAP1 POP SWAP3 SWAP2 POP POP JUMP JUMPDEST PUSH0 DUP2 SWAP1 POP DUP2 PUSH0 MSTORE PUSH1 0x20 PUSH0 KECCAK256 SWAP1 POP SWAP2 SWAP1 POP JUMP JUMPDEST PUSH0 DUP2 SLOAD PUSH2 0x2B9F DUP2 PUSH2 0x2B47 JUMP JUMPDEST PUSH2 0x2BA9 DUP2 DUP7 PUSH2 0x2B77 JUMP JUMPDEST SWAP5 POP PUSH1 0x1 DUP3 AND PUSH0 DUP2 EQ PUSH2 0x2BC3 JUMPI PUSH1 0x1 DUP2 EQ PUSH2 0x2BD8 JUMPI PUSH2 0x2C0A JUMP JUMPDEST PUSH1 0xFF NOT DUP4 AND DUP7 MSTORE DUP2 ISZERO ISZERO DUP3 MUL DUP7 ADD SWAP4 POP PUSH2 0x2C0A JUMP JUMPDEST PUSH2 0x2BE1 DUP6 PUSH2 0x2B81 JUMP JUMPDEST PUSH0 JUMPDEST DUP4 DUP2 LT ISZERO PUSH2 0x2C02 JUMPI DUP2 SLOAD DUP2 DUP10 ADD MSTORE PUSH1 0x1 DUP3 ADD SWAP2 POP PUSH1 0x20 DUP2 ADD SWAP1 POP PUSH2 0x2BE3 JUMP JUMPDEST DUP4 DUP9 ADD SWAP6 POP POP POP JUMPDEST POP POP POP SWAP3 SWAP2 POP POP JUMP JUMPDEST PUSH0 PUSH2 0x2C1E DUP3 DUP5 PUSH2 0x2B93 JUMP JUMPDEST SWAP2 POP DUP2 SWAP1 POP SWAP3 SWAP2 POP POP JUMP JUMPDEST PUSH32 0x6F776E657220616363657373206F6E6C79000000000000000000000000000000 PUSH0 DUP3 ADD MSTORE POP JUMP JUMPDEST PUSH0 PUSH2 0x2C5D PUSH1 0x11 DUP4 PUSH2 0x232B JUMP JUMPDEST SWAP2 POP PUSH2 0x2C68 DUP3 PUSH2 0x2C29 JUMP JUMPDEST PUSH1 0x20 DUP3 ADD SWAP1 POP SWAP2 SWAP1 POP JUMP JUMPDEST PUSH0 PUSH1 0x20 DUP3 ADD SWAP1 POP DUP2 DUP2 SUB PUSH0 DUP4 ADD MSTORE PUSH2 0x2C8A DUP2 PUSH2 0x2C51 JUMP JUMPDEST SWAP1 POP SWAP2 SWAP1 POP JUMP JUMPDEST PUSH32 0x696E76616C696420766964656F20696400000000000000000000000000000000 PUSH0 DUP3 ADD MSTORE POP JUMP JUMPDEST PUSH0 PUSH2 0x2CC5 PUSH1 0x10 DUP4 PUSH2 0x232B JUMP JUMPDEST SWAP2 POP PUSH2 0x2CD0 DUP3 PUSH2 0x2C91 JUMP JUMPDEST PUSH1 0x20 DUP3 ADD SWAP1 POP SWAP2 SWAP1 POP JUMP JUMPDEST PUSH0 PUSH1 0x20 DUP3 ADD SWAP1 POP DUP2 DUP2 SUB PUSH0 DUP4 ADD MSTORE PUSH2 0x2CF2 DUP2 PUSH2 0x2CB9 JUMP JUMPDEST SWAP1 POP SWAP2 SWAP1 POP JUMP JUMPDEST PUSH32 0x696E76616C6964206C6963656E736F72207369676E6174757265000000000000 PUSH0 DUP3 ADD MSTORE POP JUMP JUMPDEST PUSH0 PUSH2 0x2D2D PUSH1 0x1A DUP4 PUSH2 0x232B JUMP JUMPDEST SWAP2 POP PUSH2 0x2D38 DUP3 PUSH2 0x2CF9 JUMP JUMPDEST PUSH1 0x20 DUP3 ADD SWAP1 POP SWAP2 SWAP1 POP JUMP JUMPDEST PUSH0 PUSH1 0x20 DUP3 ADD SWAP1 POP DUP2 DUP2 SUB PUSH0 DUP4 ADD MSTORE PUSH2 0x2D5A DUP2 PUSH2 0x2D21 JUMP JUMPDEST SWAP1 POP SWAP2 SWAP1 POP JUMP JUMPDEST PUSH0 PUSH2 0x2D6B DUP3 PUSH2 0x2321 JUMP JUMPDEST PUSH2 0x2D75 DUP2 DUP6 PUSH2 0x2B77 JUMP JUMPDEST SWAP4 POP PUSH2 0x2D85 DUP2 DUP6 PUSH1 0x20 DUP7 ADD PUSH2 0x233B JUMP JUMPDEST DUP1 DUP5 ADD SWAP2 POP POP SWAP3 SWAP2 POP POP JUMP JUMPDEST PUSH0 PUSH2 0x2D9C DUP3 DUP5 PUSH2 0x2D61 JUMP JUMPDEST SWAP2 POP DUP2 SWAP1 POP SWAP3 SWAP2 POP POP JUMP JUMPDEST PUSH32 0x766964656F20646F65736E277420657869737400000000000000000000000000 PUSH0 DUP3 ADD MSTORE POP JUMP JUMPDEST PUSH0 PUSH2 0x2DDB PUSH1 0x13 DUP4 PUSH2 0x232B JUMP JUMPDEST SWAP2 POP PUSH2 0x2DE6 DUP3 PUSH2 0x2DA7 JUMP JUMPDEST PUSH1 0x20 DUP3 ADD SWAP1 POP SWAP2 SWAP1 POP JUMP JUMPDEST PUSH0 PUSH1 0x20 DUP3 ADD SWAP1 POP DUP2 DUP2 SUB PUSH0 DUP4 ADD MSTORE PUSH2 0x2E08 DUP2 PUSH2 0x2DCF JUMP JUMPDEST SWAP1 POP SWAP2 SWAP1 POP JUMP JUMPDEST PUSH32 0x4E487B7100000000000000000000000000000000000000000000000000000000 PUSH0 MSTORE PUSH1 0x32 PUSH1 0x4 MSTORE PUSH1 0x24 PUSH0 REVERT JUMPDEST PUSH32 0x696E76616C6964206C6963656E736F7200000000000000000000000000000000 PUSH0 DUP3 ADD MSTORE POP JUMP JUMPDEST PUSH0 PUSH2 0x2E70 PUSH1 0x10 DUP4 PUSH2 0x232B JUMP JUMPDEST SWAP2 POP PUSH2 0x2E7B DUP3 PUSH2 0x2E3C JUMP JUMPDEST PUSH1 0x20 DUP3 ADD SWAP1 POP SWAP2 SWAP1 POP JUMP JUMPDEST PUSH0 PUSH1 0x20 DUP3 ADD SWAP1 POP DUP2 DUP2 SUB PUSH0 DUP4 ADD MSTORE PUSH2 0x2E9D DUP2 PUSH2 0x2E64 JUMP JUMPDEST SWAP1 POP SWAP2 SWAP1 POP JUMP JUMPDEST PUSH32 0x756E617661696C61626C65206C6963656E736520696400000000000000000000 PUSH0 DUP3 ADD MSTORE POP JUMP JUMPDEST PUSH0 PUSH2 0x2ED8 PUSH1 0x16 DUP4 PUSH2 0x232B JUMP JUMPDEST SWAP2 POP PUSH2 0x2EE3 DUP3 PUSH2 0x2EA4 JUMP JUMPDEST PUSH1 0x20 DUP3 ADD SWAP1 POP SWAP2 SWAP1 POP JUMP JUMPDEST PUSH0 PUSH1 0x20 DUP3 ADD SWAP1 POP DUP2 DUP2 SUB PUSH0 DUP4 ADD MSTORE PUSH2 0x2F05 DUP2 PUSH2 0x2ECC JUMP JUMPDEST SWAP1 POP SWAP2 SWAP1 POP JUMP JUMPDEST PUSH32 0x696E76616C6964206C6963656E73656500000000000000000000000000000000 PUSH0 DUP3 ADD MSTORE POP JUMP JUMPDEST PUSH0 PUSH2 0x2F40 PUSH1 0x10 DUP4 PUSH2 0x232B JUMP JUMPDEST SWAP2 POP PUSH2 0x2F4B DUP3 PUSH2 0x2F0C JUMP JUMPDEST PUSH1 0x20 DUP3 ADD SWAP1 POP SWAP2 SWAP1 POP JUMP JUMPDEST PUSH0 PUSH1 0x20 DUP3 ADD SWAP1 POP DUP2 DUP2 SUB PUSH0 DUP4 ADD MSTORE PUSH2 0x2F6D DUP2 PUSH2 0x2F34 JUMP JUMPDEST SWAP1 POP SWAP2 SWAP1 POP JUMP JUMPDEST PUSH0 PUSH1 0xA0 DUP3 ADD SWAP1 POP DUP2 DUP2 SUB PUSH0 DUP4 ADD MSTORE PUSH2 0x2F8C DUP2 DUP9 PUSH2 0x2349 JUMP JUMPDEST SWAP1 POP PUSH2 0x2F9B PUSH1 0x20 DUP4 ADD DUP8 PUSH2 0x22F9 JUMP JUMPDEST PUSH2 0x2FA8 PUSH1 0x40 DUP4 ADD DUP7 PUSH2 0x22F9 JUMP JUMPDEST PUSH2 0x2FB5 PUSH1 0x60 DUP4 ADD DUP6 PUSH2 0x27CE JUMP JUMPDEST PUSH2 0x2FC2 PUSH1 0x80 DUP4 ADD DUP5 PUSH2 0x27CE JUMP JUMPDEST SWAP7 SWAP6 POP POP POP POP POP POP JUMP JUMPDEST PUSH0 PUSH2 0x2FDE PUSH2 0x2FD9 DUP5 PUSH2 0x2147 JUMP JUMPDEST PUSH2 0x212D JUMP JUMPDEST SWAP1 POP DUP3 DUP2 MSTORE PUSH1 0x20 DUP2 ADD DUP5 DUP5 DUP5 ADD GT ISZERO PUSH2 0x2FFA JUMPI PUSH2 0x2FF9 PUSH2 0x20BB JUMP JUMPDEST JUMPDEST PUSH2 0x3005 DUP5 DUP3 DUP6 PUSH2 0x233B JUMP JUMPDEST POP SWAP4 SWAP3 POP POP POP JUMP JUMPDEST PUSH0 DUP3 PUSH1 0x1F DUP4 ADD SLT PUSH2 0x3021 JUMPI PUSH2 0x3020 PUSH2 0x20B7 JUMP JUMPDEST JUMPDEST DUP2 MLOAD PUSH2 0x3031 DUP5 DUP3 PUSH1 0x20 DUP7 ADD PUSH2 0x2FCC JUMP JUMPDEST SWAP2 POP POP SWAP3 SWAP2 POP POP JUMP JUMPDEST PUSH0 PUSH1 0x20 DUP3 DUP5 SUB SLT ISZERO PUSH2 0x304F JUMPI PUSH2 0x304E PUSH2 0x20AF JUMP JUMPDEST JUMPDEST PUSH0 DUP3 ADD MLOAD PUSH8 0xFFFFFFFFFFFFFFFF DUP2 GT ISZERO PUSH2 0x306C JUMPI PUSH2 0x306B PUSH2 0x20B3 JUMP JUMPDEST JUMPDEST PUSH2 0x3078 DUP5 DUP3 DUP6 ADD PUSH2 0x300D JUMP JUMPDEST SWAP2 POP POP SWAP3 SWAP2 POP POP JUMP JUMPDEST PUSH2 0x308A DUP2 PUSH2 0x25EC JUMP JUMPDEST DUP3 MSTORE POP POP JUMP JUMPDEST PUSH0 PUSH1 0x20 DUP3 ADD SWAP1 POP PUSH2 0x30A3 PUSH0 DUP4 ADD DUP5 PUSH2 0x3081 JUMP JUMPDEST SWAP3 SWAP2 POP POP JUMP JUMPDEST PUSH0 DUP2 MLOAD SWAP1 POP PUSH2 0x30B7 DUP2 PUSH2 0x2438 JUMP JUMPDEST SWAP3 SWAP2 POP POP JUMP JUMPDEST PUSH0 PUSH1 0x20 DUP3 DUP5 SUB SLT ISZERO PUSH2 0x30D2 JUMPI PUSH2 0x30D1 PUSH2 0x20AF JUMP JUMPDEST JUMPDEST PUSH0 PUSH2 0x30DF DUP5 DUP3 DUP6 ADD PUSH2 0x30A9 JUMP JUMPDEST SWAP2 POP POP SWAP3 SWAP2 POP POP JUMP JUMPDEST PUSH0 DUP2 MLOAD SWAP1 POP PUSH2 0x30F6 DUP2 PUSH2 0x26E6 JUMP JUMPDEST SWAP3 SWAP2 POP POP JUMP JUMPDEST PUSH0 PUSH1 0x20 DUP3 DUP5 SUB SLT ISZERO PUSH2 0x3111 JUMPI PUSH2 0x3110 PUSH2 0x20AF JUMP JUMPDEST JUMPDEST PUSH0 PUSH2 0x311E DUP5 DUP3 DUP6 ADD PUSH2 0x30E8 JUMP JUMPDEST SWAP2 POP POP SWAP3 SWAP2 POP POP JUMP JUMPDEST PUSH32 0x6E6F7420656E6F75676820657468657200000000000000000000000000000000 PUSH0 DUP3 ADD MSTORE POP JUMP JUMPDEST PUSH0 PUSH2 0x315B PUSH1 0x10 DUP4 PUSH2 0x232B JUMP JUMPDEST SWAP2 POP PUSH2 0x3166 DUP3 PUSH2 0x3127 JUMP JUMPDEST PUSH1 0x20 DUP3 ADD SWAP1 POP SWAP2 SWAP1 POP JUMP JUMPDEST PUSH0 PUSH1 0x20 DUP3 ADD SWAP1 POP DUP2 DUP2 SUB PUSH0 DUP4 ADD MSTORE PUSH2 0x3188 DUP2 PUSH2 0x314F JUMP JUMPDEST SWAP1 POP SWAP2 SWAP1 POP JUMP JUMPDEST PUSH32 0x696E76616C6964206C6963656E736565207369676E6174757265000000000000 PUSH0 DUP3 ADD MSTORE POP JUMP JUMPDEST PUSH0 PUSH2 0x31C3 PUSH1 0x1A DUP4 PUSH2 0x232B JUMP JUMPDEST SWAP2 POP PUSH2 0x31CE DUP3 PUSH2 0x318F JUMP JUMPDEST PUSH1 0x20 DUP3 ADD SWAP1 POP SWAP2 SWAP1 POP JUMP JUMPDEST PUSH0 PUSH1 0x20 DUP3 ADD SWAP1 POP DUP2 DUP2 SUB PUSH0 DUP4 ADD MSTORE PUSH2 0x31F0 DUP2 PUSH2 0x31B7 JUMP JUMPDEST SWAP1 POP SWAP2 SWAP1 POP JUMP JUMPDEST PUSH0 DUP2 SWAP1 POP SWAP3 SWAP2 POP POP JUMP JUMPDEST POP JUMP JUMPDEST PUSH0 PUSH2 0x320F PUSH0 DUP4 PUSH2 0x31F7 JUMP JUMPDEST SWAP2 POP PUSH2 0x321A DUP3 PUSH2 0x3201 JUMP JUMPDEST PUSH0 DUP3 ADD SWAP1 POP SWAP2 SWAP1 POP JUMP JUMPDEST PUSH0 PUSH2 0x322E DUP3 PUSH2 0x3204 JUMP JUMPDEST SWAP2 POP DUP2 SWAP1 POP SWAP2 SWAP1 POP JUMP JUMPDEST PUSH32 0x6661696C656420746F2073656E64206574686572000000000000000000000000 PUSH0 DUP3 ADD MSTORE POP JUMP JUMPDEST PUSH0 PUSH2 0x326C PUSH1 0x14 DUP4 PUSH2 0x232B JUMP JUMPDEST SWAP2 POP PUSH2 0x3277 DUP3 PUSH2 0x3238 JUMP JUMPDEST PUSH1 0x20 DUP3 ADD SWAP1 POP SWAP2 SWAP1 POP JUMP JUMPDEST PUSH0 PUSH1 0x20 DUP3 ADD SWAP1 POP DUP2 DUP2 SUB PUSH0 DUP4 ADD MSTORE PUSH2 0x3299 DUP2 PUSH2 0x3260 JUMP JUMPDEST SWAP1 POP SWAP2 SWAP1 POP JUMP JUMPDEST PUSH32 0x19457468657265756D205369676E6564204D6573736167653A0A000000000000 PUSH0 DUP3 ADD MSTORE POP JUMP JUMPDEST PUSH0 PUSH2 0x32D4 PUSH1 0x1A DUP4 PUSH2 0x2B77 JUMP JUMPDEST SWAP2 POP PUSH2 0x32DF DUP3 PUSH2 0x32A0 JUMP JUMPDEST PUSH1 0x1A DUP3 ADD SWAP1 POP SWAP2 SWAP1 POP JUMP JUMPDEST PUSH0 PUSH2 0x32F4 DUP3 PUSH2 0x32C8 JUMP JUMPDEST SWAP2 POP PUSH2 0x3300 DUP3 DUP6 PUSH2 0x2D61 JUMP JUMPDEST SWAP2 POP PUSH2 0x330C DUP3 DUP5 PUSH2 0x2D61 JUMP JUMPDEST SWAP2 POP DUP2 SWAP1 POP SWAP4 SWAP3 POP POP POP JUMP JUMPDEST PUSH0 DUP2 SWAP1 POP SWAP2 SWAP1 POP JUMP JUMPDEST PUSH2 0x332A DUP2 PUSH2 0x3318 JUMP JUMPDEST DUP3 MSTORE POP POP JUMP JUMPDEST PUSH0 PUSH1 0xFF DUP3 AND SWAP1 POP SWAP2 SWAP1 POP JUMP JUMPDEST PUSH2 0x3345 DUP2 PUSH2 0x3330 JUMP JUMPDEST DUP3 MSTORE POP POP JUMP JUMPDEST PUSH0 PUSH1 0x80 DUP3 ADD SWAP1 POP PUSH2 0x335E PUSH0 DUP4 ADD DUP8 PUSH2 0x3321 JUMP JUMPDEST PUSH2 0x336B PUSH1 0x20 DUP4 ADD DUP7 PUSH2 0x333C JUMP JUMPDEST PUSH2 0x3378 PUSH1 0x40 DUP4 ADD DUP6 PUSH2 0x3321 JUMP JUMPDEST PUSH2 0x3385 PUSH1 0x60 DUP4 ADD DUP5 PUSH2 0x3321 JUMP JUMPDEST SWAP6 SWAP5 POP POP POP POP POP JUMP JUMPDEST PUSH32 0x4E487B7100000000000000000000000000000000000000000000000000000000 PUSH0 MSTORE PUSH1 0x11 PUSH1 0x4 MSTORE PUSH1 0x24 PUSH0 REVERT JUMPDEST PUSH0 PUSH2 0x33C5 DUP3 PUSH2 0x23A1 JUMP JUMPDEST SWAP2 POP PUSH2 0x33D0 DUP4 PUSH2 0x23A1 JUMP JUMPDEST SWAP3 POP DUP3 DUP3 ADD SWAP1 POP DUP1 DUP3 GT ISZERO PUSH2 0x33E8 JUMPI PUSH2 0x33E7 PUSH2 0x338E JUMP JUMPDEST JUMPDEST SWAP3 SWAP2 POP POP JUMP JUMPDEST PUSH0 PUSH1 0x20 PUSH1 0x1F DUP4 ADD DIV SWAP1 POP SWAP2 SWAP1 POP JUMP JUMPDEST PUSH0 DUP3 DUP3 SHL SWAP1 POP SWAP3 SWAP2 POP POP JUMP JUMPDEST PUSH0 PUSH1 0x8 DUP4 MUL PUSH2 0x3438 PUSH32 0xFFFFFFFFFFFFFFFFFFFFFFFFFFFFFFFFFFFFFFFFFFFFFFFFFFFFFFFFFFFFFFFF DUP3 PUSH2 0x33FD JUMP JUMPDEST PUSH2 0x3442 DUP7 DUP4 PUSH2 0x33FD JUMP JUMPDEST SWAP6 POP DUP1 NOT DUP5 AND SWAP4 POP DUP1 DUP7 AND DUP5 OR SWAP3 POP POP POP SWAP4 SWAP3 POP POP POP JUMP JUMPDEST PUSH0 DUP2 SWAP1 POP SWAP2 SWAP1 POP JUMP JUMPDEST PUSH2 0x346C DUP4 PUSH2 0x25EC JUMP JUMPDEST PUSH2 0x3480 PUSH2 0x3478 DUP3 PUSH2 0x345A JUMP JUMPDEST DUP5 DUP5 SLOAD PUSH2 0x3409 JUMP JUMPDEST DUP3 SSTORE POP POP POP POP JUMP JUMPDEST PUSH0 SWAP1 JUMP JUMPDEST PUSH2 0x3494 PUSH2 0x3488 JUMP JUMPDEST PUSH2 0x349F DUP2 DUP5 DUP5 PUSH2 0x3463 JUMP JUMPDEST POP POP POP JUMP JUMPDEST JUMPDEST DUP2 DUP2 LT ISZERO PUSH2 0x34C2 JUMPI PUSH2 0x34B7 PUSH0 DUP3 PUSH2 0x348C JUMP JUMPDEST PUSH1 0x1 DUP2 ADD SWAP1 POP PUSH2 0x34A5 JUMP JUMPDEST POP POP JUMP JUMPDEST PUSH1 0x1F DUP3 GT ISZERO PUSH2 0x3507 JUMPI PUSH2 0x34D8 DUP2 PUSH2 0x2B81 JUMP JUMPDEST PUSH2 0x34E1 DUP5 PUSH2 0x33EE JUMP JUMPDEST DUP2 ADD PUSH1 0x20 DUP6 LT ISZERO PUSH2 0x34F0 JUMPI DUP2 SWAP1 POP JUMPDEST PUSH2 0x3504 PUSH2 0x34FC DUP6 PUSH2 0x33EE JUMP JUMPDEST DUP4 ADD DUP3 PUSH2 0x34A4 JUMP JUMPDEST POP POP JUMPDEST POP POP POP JUMP JUMPDEST PUSH0 DUP3 DUP3 SHR SWAP1 POP SWAP3 SWAP2 POP POP JUMP JUMPDEST PUSH0 PUSH2 0x3527 PUSH0 NOT DUP5 PUSH1 0x8 MUL PUSH2 0x350C JUMP JUMPDEST NOT DUP1 DUP4 AND SWAP2 POP POP SWAP3 SWAP2 POP POP JUMP JUMPDEST PUSH0 PUSH2 0x353F DUP4 DUP4 PUSH2 0x3518 JUMP JUMPDEST SWAP2 POP DUP3 PUSH1 0x2 MUL DUP3 OR SWAP1 POP SWAP3 SWAP2 POP POP JUMP JUMPDEST PUSH2 0x3558 DUP3 PUSH2 0x2321 JUMP JUMPDEST PUSH8 0xFFFFFFFFFFFFFFFF DUP2 GT ISZERO PUSH2 0x3571 JUMPI PUSH2 0x3570 PUSH2 0x20CF JUMP JUMPDEST JUMPDEST PUSH2 0x357B DUP3 SLOAD PUSH2 0x2B47 JUMP JUMPDEST PUSH2 0x3586 DUP3 DUP3 DUP6 PUSH2 0x34C6 JUMP JUMPDEST PUSH0 PUSH1 0x20 SWAP1 POP PUSH1 0x1F DUP4 GT PUSH1 0x1 DUP2 EQ PUSH2 0x35B7 JUMPI PUSH0 DUP5 ISZERO PUSH2 0x35A5 JUMPI DUP3 DUP8 ADD MLOAD SWAP1 POP JUMPDEST PUSH2 0x35AF DUP6 DUP3 PUSH2 0x3534 JUMP JUMPDEST DUP7 SSTORE POP PUSH2 0x3616 JUMP JUMPDEST PUSH1 0x1F NOT DUP5 AND PUSH2 0x35C5 DUP7 PUSH2 0x2B81 JUMP JUMPDEST PUSH0 JUMPDEST DUP3 DUP2 LT ISZERO PUSH2 0x35EC JUMPI DUP5 DUP10 ADD MLOAD DUP3 SSTORE PUSH1 0x1 DUP3 ADD SWAP2 POP PUSH1 0x20 DUP6 ADD SWAP5 POP PUSH1 0x20 DUP2 ADD SWAP1 POP PUSH2 0x35C7 JUMP JUMPDEST DUP7 DUP4 LT ISZERO PUSH2 0x3609 JUMPI DUP5 DUP10 ADD MLOAD PUSH2 0x3605 PUSH1 0x1F DUP10 AND DUP3 PUSH2 0x3518 JUMP JUMPDEST DUP4 SSTORE POP JUMPDEST PUSH1 0x1 PUSH1 0x2 DUP9 MUL ADD DUP9 SSTORE POP POP POP JUMPDEST POP POP POP POP POP POP JUMP JUMPDEST PUSH32 0x4E487B7100000000000000000000000000000000000000000000000000000000 PUSH0 MSTORE PUSH1 0x12 PUSH1 0x4 MSTORE PUSH1 0x24 PUSH0 REVERT JUMPDEST PUSH0 PUSH2 0x3655 DUP3 PUSH2 0x23A1 JUMP JUMPDEST SWAP2 POP PUSH2 0x3660 DUP4 PUSH2 0x23A1 JUMP JUMPDEST SWAP3 POP DUP3 PUSH2 0x3670 JUMPI PUSH2 0x366F PUSH2 0x361E JUMP JUMPDEST JUMPDEST DUP3 DUP3 DIV SWAP1 POP SWAP3 SWAP2 POP POP JUMP JUMPDEST PUSH0 PUSH2 0x3685 DUP3 PUSH2 0x23A1 JUMP JUMPDEST SWAP2 POP PUSH32 0xFFFFFFFFFFFFFFFFFFFFFFFFFFFFFFFFFFFFFFFFFFFFFFFFFFFFFFFFFFFFFFFF DUP3 SUB PUSH2 0x36B7 JUMPI PUSH2 0x36B6 PUSH2 0x338E JUMP JUMPDEST JUMPDEST PUSH1 0x1 DUP3 ADD SWAP1 POP SWAP2 SWAP1 POP JUMP JUMPDEST PUSH0 PUSH2 0x36CC DUP3 PUSH2 0x23A1 JUMP JUMPDEST SWAP2 POP PUSH0 DUP3 SUB PUSH2 0x36DE JUMPI PUSH2 0x36DD PUSH2 0x338E JUMP JUMPDEST JUMPDEST PUSH1 0x1 DUP3 SUB SWAP1 POP SWAP2 SWAP1 POP JUMP JUMPDEST PUSH0 PUSH2 0x36F3 DUP3 PUSH2 0x23A1 JUMP JUMPDEST SWAP2 POP PUSH2 0x36FE DUP4 PUSH2 0x23A1 JUMP JUMPDEST SWAP3 POP DUP3 PUSH2 0x370E JUMPI PUSH2 0x370D PUSH2 0x361E JUMP JUMPDEST JUMPDEST DUP3 DUP3 MOD SWAP1 POP SWAP3 SWAP2 POP POP JUMP INVALID BLOBHASH KECCAK256 PUSH4 0x65727469 PUSH7 0x79207468617420 BLOBHASH KECCAK256 PUSH2 0x6D20 PUSH21 0x6865206C6963656E736F72206F6620746865207669 PUSH5 0x656F206167 PUSH19 0x65656D656E7420616E6420616772656520746F KECCAK256 PUSH2 0x6C6C KECCAK256 PUSH21 0x65726D7320646566696E656420696E207468652061 PUSH8 0x7265656D656E742E BLOBHASH KECCAK256 PUSH4 0x65727469 PUSH7 0x79207468617420 BLOBHASH KECCAK256 PUSH2 0x6D20 PUSH21 0x6865206C6963656E736565206F6620746865207669 PUSH5 0x656F206167 PUSH19 0x65656D656E7420616E6420616772656520746F KECCAK256 PUSH2 0x6C6C KECCAK256 PUSH21 0x65726D7320646566696E656420696E207468652061 PUSH8 0x7265656D656E742E LOG2 PUSH5 0x6970667358 0x22 SLT KECCAK256 KECCAK256 PUSH32 0x24C59DF178598C69703BBD9ADB581E005012FCF91C0C9373773EBDE45B1F6473 PUSH16 0x6C634300081900330000000000000000 "
				},
				"gasEstimates": {
					"creation": {
						"codeDepositCost": "2873400",
						"executionCost": "infinite",
						"totalCost": "infinite"
					},
					"external": {
						"addLicense(string,address,uint256,uint256)": "infinite",
						"addTemplate(address)": "27036",
						"addVideo(string,address,bytes)": "infinite",
						"addVideoWithLicense(string,address,bytes,address,uint256,uint256)": "infinite",
						"buyLicense(uint256,bytes)": "infinite",
						"composeLicense(uint256,address)": "infinite",
						"getLicenseOwner(uint256)": "infinite",
						"getLicensePrice(uint256)": "infinite",
						"getLicenseTemplate(uint256)": "5152",
						"getLicenseVideo(uint256)": "infinite",
						"getLicenseeLicenses(string,address)": "infinite",
						"getVideoOwner(string)": "infinite",
						"licenseeAgreement()": "infinite",
						"licensorAgreement()": "infinite",
						"recoverSigner(string,bytes)": "infinite",
						"removeLicense(uint256)": "infinite",
						"removeTemplate(address)": "26990",
						"transferOwnership(address)": "26991",
						"verifyLicensee(address,uint256,bytes)": "infinite",
						"verifyLicensor(address,string,bytes)": "infinite"
					},
					"internal": {
						"_ecrecover(string memory,uint8,bytes32,bytes32)": "infinite",
						"createLicense(string memory,address,uint256,LID)": "infinite"
					}
				},
				"methodIdentifiers": {
					"addLicense(string,address,uint256,uint256)": "70d8677f",
					"addTemplate(address)": "55b30266",
					"addVideo(string,address,bytes)": "2b35d062",
					"addVideoWithLicense(string,address,bytes,address,uint256,uint256)": "eeb9509b",
					"buyLicense(uint256,bytes)": "ea80a847",
					"composeLicense(uint256,address)": "976662b0",
					"getLicenseOwner(uint256)": "1e7fd268",
					"getLicensePrice(uint256)": "b6c00a82",
					"getLicenseTemplate(uint256)": "b033c13a",
					"getLicenseVideo(uint256)": "41befbd1",
					"getLicenseeLicenses(string,address)": "45402a4d",
					"getVideoOwner(string)": "3e340e2d",
					"licenseeAgreement()": "0e15c62a",
					"licensorAgreement()": "66527f1c",
					"recoverSigner(string,bytes)": "00fd4984",
					"removeLicense(uint256)": "99911abe",
					"removeTemplate(address)": "e946af59",
					"transferOwnership(address)": "f2fde38b",
					"verifyLicensee(address,uint256,bytes)": "ed120e4c",
					"verifyLicensor(address,string,bytes)": "b8b5e111"
				}
			},
			"storageLayout": {
				"storage": [
					{
						"astId": 1527,
						"contract": "contracts/LicenseManager.sol:LicenseManager",
						"label": "_owner",
						"offset": 0,
						"slot": "0",
						"type": "t_address"
					},
					{
						"astId": 1565,
						"contract": "contracts/LicenseManager.sol:LicenseManager",
						"label": "_templates",
						"offset": 0,
						"slot": "1",
						"type": "t_mapping(t_address,t_bool)"
					},
					{
						"astId": 1613,
						"contract": "contracts/LicenseManager.sol:LicenseManager",
						"label": "_videoOwners",
						"offset": 0,
						"slot": "2",
						"type": "t_mapping(t_string_memory_ptr,t_address_payable)"
					},
					{
						"astId": 1617,
						"contract": "contracts/LicenseManager.sol:LicenseManager",
						"label": "_videoLicenseCounts",
						"offset": 0,
						"slot": "3",
						"type": "t_mapping(t_string_memory_ptr,t_uint256)"
					},
					{
						"astId": 1624,
						"contract": "contracts/LicenseManager.sol:LicenseManager",
						"label": "_videoLicenseIDs",
						"offset": 0,
						"slot": "4",
						"type": "t_mapping(t_string_memory_ptr,t_mapping(t_uint256,t_userDefinedValueType(LID)1525))"
					},
					{
						"astId": 1629,
						"contract": "contracts/LicenseManager.sol:LicenseManager",
						"label": "_licenseCreated",
						"offset": 0,
						"slot": "5",
						"type": "t_mapping(t_userDefinedValueType(LID)1525,t_bool)"
					},
					{
						"astId": 1634,
						"contract": "contracts/LicenseManager.sol:LicenseManager",
						"label": "_licenseActivated",
						"offset": 0,
						"slot": "6",
						"type": "t_mapping(t_userDefinedValueType(LID)1525,t_bool)"
					},
					{
						"astId": 1639,
						"contract": "contracts/LicenseManager.sol:LicenseManager",
						"label": "_licenseVideos",
						"offset": 0,
						"slot": "7",
						"type": "t_mapping(t_userDefinedValueType(LID)1525,t_string_storage)"
					},
					{
						"astId": 1644,
						"contract": "contracts/LicenseManager.sol:LicenseManager",
						"label": "_licensePrices",
						"offset": 0,
						"slot": "8",
						"type": "t_mapping(t_userDefinedValueType(LID)1525,t_uint256)"
					},
					{
						"astId": 1649,
						"contract": "contracts/LicenseManager.sol:LicenseManager",
						"label": "_licenseTemplates",
						"offset": 0,
						"slot": "9",
						"type": "t_mapping(t_userDefinedValueType(LID)1525,t_address)"
					},
					{
						"astId": 2000,
						"contract": "contracts/LicenseManager.sol:LicenseManager",
						"label": "_licenseLicensees",
						"offset": 0,
						"slot": "10",
						"type": "t_mapping(t_userDefinedValueType(LID)1525,t_mapping(t_address,t_uint256))"
					}
				],
				"types": {
					"t_address": {
						"encoding": "inplace",
						"label": "address",
						"numberOfBytes": "20"
					},
					"t_address_payable": {
						"encoding": "inplace",
						"label": "address payable",
						"numberOfBytes": "20"
					},
					"t_bool": {
						"encoding": "inplace",
						"label": "bool",
						"numberOfBytes": "1"
					},
					"t_mapping(t_address,t_bool)": {
						"encoding": "mapping",
						"key": "t_address",
						"label": "mapping(address => bool)",
						"numberOfBytes": "32",
						"value": "t_bool"
					},
					"t_mapping(t_address,t_uint256)": {
						"encoding": "mapping",
						"key": "t_address",
						"label": "mapping(address => uint256)",
						"numberOfBytes": "32",
						"value": "t_uint256"
					},
					"t_mapping(t_string_memory_ptr,t_address_payable)": {
						"encoding": "mapping",
						"key": "t_string_memory_ptr",
						"label": "mapping(string => address payable)",
						"numberOfBytes": "32",
						"value": "t_address_payable"
					},
					"t_mapping(t_string_memory_ptr,t_mapping(t_uint256,t_userDefinedValueType(LID)1525))": {
						"encoding": "mapping",
						"key": "t_string_memory_ptr",
						"label": "mapping(string => mapping(uint256 => LID))",
						"numberOfBytes": "32",
						"value": "t_mapping(t_uint256,t_userDefinedValueType(LID)1525)"
					},
					"t_mapping(t_string_memory_ptr,t_uint256)": {
						"encoding": "mapping",
						"key": "t_string_memory_ptr",
						"label": "mapping(string => uint256)",
						"numberOfBytes": "32",
						"value": "t_uint256"
					},
					"t_mapping(t_uint256,t_userDefinedValueType(LID)1525)": {
						"encoding": "mapping",
						"key": "t_uint256",
						"label": "mapping(uint256 => LID)",
						"numberOfBytes": "32",
						"value": "t_userDefinedValueType(LID)1525"
					},
					"t_mapping(t_userDefinedValueType(LID)1525,t_address)": {
						"encoding": "mapping",
						"key": "t_userDefinedValueType(LID)1525",
						"label": "mapping(LID => address)",
						"numberOfBytes": "32",
						"value": "t_address"
					},
					"t_mapping(t_userDefinedValueType(LID)1525,t_bool)": {
						"encoding": "mapping",
						"key": "t_userDefinedValueType(LID)1525",
						"label": "mapping(LID => bool)",
						"numberOfBytes": "32",
						"value": "t_bool"
					},
					"t_mapping(t_userDefinedValueType(LID)1525,t_mapping(t_address,t_uint256))": {
						"encoding": "mapping",
						"key": "t_userDefinedValueType(LID)1525",
						"label": "mapping(LID => mapping(address => uint256))",
						"numberOfBytes": "32",
						"value": "t_mapping(t_address,t_uint256)"
					},
					"t_mapping(t_userDefinedValueType(LID)1525,t_string_storage)": {
						"encoding": "mapping",
						"key": "t_userDefinedValueType(LID)1525",
						"label": "mapping(LID => string)",
						"numberOfBytes": "32",
						"value": "t_string_storage"
					},
					"t_mapping(t_userDefinedValueType(LID)1525,t_uint256)": {
						"encoding": "mapping",
						"key": "t_userDefinedValueType(LID)1525",
						"label": "mapping(LID => uint256)",
						"numberOfBytes": "32",
						"value": "t_uint256"
					},
					"t_string_memory_ptr": {
						"encoding": "bytes",
						"label": "string",
						"numberOfBytes": "32"
					},
					"t_string_storage": {
						"encoding": "bytes",
						"label": "string",
						"numberOfBytes": "32"
					},
					"t_uint256": {
						"encoding": "inplace",
						"label": "uint256",
						"numberOfBytes": "32"
					},
					"t_userDefinedValueType(LID)1525": {
						"encoding": "inplace",
						"label": "LID",
						"numberOfBytes": "32"
					}
				}
			},
			"userdoc": {
				"kind": "user",
				"methods": {},
				"version": 1
			}
		}
	}
}