{
	"data": {
		"bytecode": {
			"linkReferences": {},
			"object": "6080604052348015600e575f80fd5b50611c768061001c5f395ff3fe608060405234801561000f575f80fd5b5060043610610055575f3560e01c806317d7de7c14610059578063321c48f214610077578063483ced98146100955780637db3a946146100c5578063ad2e8c9b146100e3575b5f80fd5b610061610101565b60405161006e9190610764565b60405180910390f35b61007f610121565b60405161008c9190610764565b60405180910390f35b6100af60048036038101906100aa919061094e565b610144565b6040516100bc9190610764565b60405180910390f35b6100cd61024b565b6040516100da9190610764565b60405180910390f35b6100eb61026a565b6040516100f891906109f0565b60405180910390f35b6060604051806080016040528060428152602001610bfe60429139905090565b606060405180610860016040528061083081526020016114116108309139905090565b60605f6040518061018001604052806101608152602001610c40610160913990505f604051806106a001604052806106718152602001610da0610671913990505f6040518060400160405280600d81526020017f0a2d204c6963656e7365653a200000000000000000000000000000000000000081525090505f6040518060400160405280601181526020017f0a2d205369676e696e6720446174653a200000000000000000000000000000008152509050838a846102028c61026e565b8561020c8d61026e565b866102168d61029b565b60405160200161022d989796959493929190610a43565b60405160208183030381529060405294505050505095945050505050565b6040518061086001604052806108308152602001611411610830913981565b5f90565b60606102948273ffffffffffffffffffffffffffffffffffffffff16601460ff16610365565b9050919050565b60605f60016102a9846105a3565b0190505f8167ffffffffffffffff8111156102c7576102c661079d565b5b6040519080825280601f01601f1916602001820160405280156102f95781602001600182028036833780820191505090505b5090505f82602001820190505b60011561035a578080600190039150507f3031323334353637383961626364656600000000000000000000000000000000600a86061a8153600a858161034f5761034e610ab4565b5b0494505f8503610306575b819350505050919050565b60605f8390505f600284600261037b9190610b0e565b6103859190610b4f565b67ffffffffffffffff81111561039e5761039d61079d565b5b6040519080825280601f01601f1916602001820160405280156103d05781602001600182028036833780820191505090505b5090507f3000000000000000000000000000000000000000000000000000000000000000815f8151811061040757610406610b82565b5b60200101907effffffffffffffffffffffffffffffffffffffffffffffffffffffffffffff191690815f1a9053507f78000000000000000000000000000000000000000000000000000000000000008160018151811061046a57610469610b82565b5b60200101907effffffffffffffffffffffffffffffffffffffffffffffffffffffffffffff191690815f1a9053505f60018560026104a89190610b0e565b6104b29190610b4f565b90505b6001811115610551577f3031323334353637383961626364656600000000000000000000000000000000600f8416601081106104f4576104f3610b82565b5b1a60f81b82828151811061050b5761050a610b82565b5b60200101907effffffffffffffffffffffffffffffffffffffffffffffffffffffffffffff191690815f1a905350600483901c92508061054a90610baf565b90506104b5565b505f82146105985784846040517fe22e27eb00000000000000000000000000000000000000000000000000000000815260040161058f929190610bd6565b60405180910390fd5b809250505092915050565b5f805f90507a184f03e93ff9f4daa797ed6e38ed64bf6a1f01000000000000000083106105ff577a184f03e93ff9f4daa797ed6e38ed64bf6a1f01000000000000000083816105f5576105f4610ab4565b5b0492506040810190505b6d04ee2d6d415b85acef8100000000831061063c576d04ee2d6d415b85acef8100000000838161063257610631610ab4565b5b0492506020810190505b662386f26fc10000831061066b57662386f26fc10000838161066157610660610ab4565b5b0492506010810190505b6305f5e1008310610694576305f5e100838161068a57610689610ab4565b5b0492506008810190505b61271083106106b95761271083816106af576106ae610ab4565b5b0492506004810190505b606483106106dc57606483816106d2576106d1610ab4565b5b0492506002810190505b600a83106106eb576001810190505b80915050919050565b5f81519050919050565b5f82825260208201905092915050565b8281835e5f83830152505050565b5f601f19601f8301169050919050565b5f610736826106f4565b61074081856106fe565b935061075081856020860161070e565b6107598161071c565b840191505092915050565b5f6020820190508181035f83015261077c818461072c565b905092915050565b5f604051905090565b5f80fd5b5f80fd5b5f80fd5b5f80fd5b7f4e487b71000000000000000000000000000000000000000000000000000000005f52604160045260245ffd5b6107d38261071c565b810181811067ffffffffffffffff821117156107f2576107f161079d565b5b80604052505050565b5f610804610784565b905061081082826107ca565b919050565b5f67ffffffffffffffff82111561082f5761082e61079d565b5b6108388261071c565b9050602081019050919050565b828183375f83830152505050565b5f61086561086084610815565b6107fb565b90508281526020810184848401111561088157610880610799565b5b61088c848285610845565b509392505050565b5f82601f8301126108a8576108a7610795565b5b81356108b8848260208601610853565b91505092915050565b5f73ffffffffffffffffffffffffffffffffffffffff82169050919050565b5f6108ea826108c1565b9050919050565b6108fa816108e0565b8114610904575f80fd5b50565b5f81359050610915816108f1565b92915050565b5f819050919050565b61092d8161091b565b8114610937575f80fd5b50565b5f8135905061094881610924565b92915050565b5f805f805f60a086880312156109675761096661078d565b5b5f86013567ffffffffffffffff81111561098457610983610791565b5b61099088828901610894565b95505060206109a188828901610907565b94505060406109b288828901610907565b93505060606109c38882890161093a565b92505060806109d48882890161093a565b9150509295509295909350565b6109ea8161091b565b82525050565b5f602082019050610a035f8301846109e1565b92915050565b5f81905092915050565b5f610a1d826106f4565b610a278185610a09565b9350610a3781856020860161070e565b80840191505092915050565b5f610a4e828b610a13565b9150610a5a828a610a13565b9150610a668289610a13565b9150610a728288610a13565b9150610a7e8287610a13565b9150610a8a8286610a13565b9150610a968285610a13565b9150610aa28284610a13565b91508190509998505050505050505050565b7f4e487b71000000000000000000000000000000000000000000000000000000005f52601260045260245ffd5b7f4e487b71000000000000000000000000000000000000000000000000000000005f52601160045260245ffd5b5f610b188261091b565b9150610b238361091b565b9250828202610b318161091b565b91508282048414831517610b4857610b47610ae1565b5b5092915050565b5f610b598261091b565b9150610b648361091b565b9250828201905080821115610b7c57610b7b610ae1565b5b92915050565b7f4e487b71000000000000000000000000000000000000000000000000000000005f52603260045260245ffd5b5f610bb98261091b565b91505f8203610bcb57610bca610ae1565b5b600182039050919050565b5f604082019050610be95f8301856109e1565b610bf660208301846109e1565b939250505056fe437265617469766520436f6d6d6f6e73204174747269627574696f6e20342e3020496e7465726e6174696f6e616c204c6963656e73652028434320425920342e30294c6963656e73696e672041677265656d656e740a0a54686973204c6963656e73652041677265656d656e7420282241677265656d656e74222920697320656e746572656420696e746f20627920616e64206265747765656e3a0a2d204c6963656e736f723a2054686520696e646976696475616c206f7220656e74697479207468617420686f6c64732074686520636f7079726967687420666f722074686520766964656f206964656e7469666965642062656c6f772028224c6963656e736f7222292e0a2d204c6963656e7365653a2054686520696e646976696475616c206f7220656e7469747920746861742077696c6c2075736520746865206c6963656e736564206d6174657269616c20756e64657220746865207465726d73206f6620746869732041677265656d656e742028224c6963656e73656522292e0a0a312e204c6963656e736564204d6174657269616c0a2d20566964656f2049443a200a546869732041677265656d656e74206170706c69657320746f2074686520766964656f206964656e7469666965642062792074686520566964656f204944206c69737465642061626f76652c20617320686f73746564206f6e20596f7554756265206f7220616e79206f7468657220706c6174666f726d2e0a0a322e204c6963656e7365204772616e740a546865204c6963656e736f7220686572656279206772616e747320746865204c6963656e7365652061206e6f6e2d6578636c75736976652c20776f726c64776964652c20726f79616c74792d66726565206c6963656e736520746f3a0a2d2053686172652028636f707920616e642072656469737472696275746520746865206d6174657269616c20696e20616e79206d656469756d206f7220666f726d6174290a2d204164617074202872656d69782c207472616e73666f726d2c20616e64206275696c642075706f6e20746865206d6174657269616c20666f7220616e7920707572706f73652c206576656e20636f6d6d65726369616c6c79290a556e64657220746865207465726d73206f6620746869732041677265656d656e742c2070726f766964656420746861743a0a2d20546865204c6963656e736565206d757374206769766520617070726f7072696174652063726564697420746f20746865204c6963656e736f722c2070726f766964652061206c696e6b20746f20746865206c6963656e73652c20616e6420696e646963617465206966206368616e6765732077657265206d6164652e20546865204c6963656e736565206d617920646f20736f20696e20616e7920726561736f6e61626c65206d616e6e65722c20627574206e6f7420696e20616e7920776179207468617420737567676573747320746865204c6963656e736f7220656e646f7273657320746865204c6963656e736565206f722074686520757365206f6620746865206d6174657269616c2e0a0a332e204c6963656e7365204475726174696f6e0a2d204c6963656e7365204475726174696f6e3a2056616c696420666f722061206c69666574696d650a546869732041677265656d656e742069732065666665637469766520666f7220746865206475726174696f6e207370656369666965642061626f76652c207374617274696e672066726f6d20746865205369676e696e6720446174652e0a0a342e204174747269627574696f6e20526571756972656d656e74730a546865204c6963656e736565206d757374206769766520617070726f7072696174652063726564697420746f20746865204c6963656e736f722c20617320666f6c6c6f77733a0a2d2050726f76696465207468652077616c6c65742061646472657373206f6620746865204c6963656e736f722e0a2d2050726f766964652061206c696e6b20746f2074686520766964656f2e0a2d2050726f766964652061206c696e6b20746f2074686973206c6963656e73652e0a2d20496e646963617465206966206368616e6765732077657265206d61646520746f20746865206f726967696e616c206d6174657269616c2e0a0a352e204e6f204164646974696f6e616c205265737472696374696f6e730a546865204c6963656e736565206d6179206e6f74206170706c79206c6567616c207465726d73206f7220746563686e6f6c6f676963616c206d656173757265732074686174206c6567616c6c79207265737472696374206f74686572732066726f6d20646f696e6720616e797468696e6720746865206c6963656e7365207065726d6974732e0a0a362e205465726d696e6174696f6e0a546869732041677265656d656e742077696c6c206175746f6d61746963616c6c79207465726d696e61746520696620746865204c6963656e736565206661696c7320746f20636f6d706c79207769746820746865207465726d732068657265696e2e20486f77657665722c20746865206c6963656e73652077696c6c206e6f74207465726d696e617465206173206120726573756c74206f66206d696e6f7220616e6420726561736f6e61626c6520646576696174696f6e73207468617420646f206e6f742066756e64616d656e74616c6c792061666665637420746865207465726d73206f66207468652041677265656d656e742e0a0a372e205369676e6174757265730a546869732041677265656d656e742069732065786563757465642062792074686520666f6c6c6f77696e6720706172746965733a0a2d204c6963656e736f723a204c6963656e73696e672041677265656d656e740a0a54686973204c6963656e73652041677265656d656e7420282241677265656d656e74222920697320656e746572656420696e746f20627920616e64206265747765656e3a0a2d204c6963656e736f723a2054686520696e646976696475616c206f7220656e74697479207468617420686f6c64732074686520636f7079726967687420666f722074686520766964656f206964656e7469666965642062656c6f772028224c6963656e736f7222292e0a2d204c6963656e7365653a2054686520696e646976696475616c206f7220656e7469747920746861742077696c6c2075736520746865206c6963656e736564206d6174657269616c20756e64657220746865207465726d73206f6620746869732041677265656d656e742028224c6963656e73656522292e0a0a312e204c6963656e736564204d6174657269616c0a2d20566964656f2049443a205b766964656f2069645d0a546869732041677265656d656e74206170706c69657320746f2074686520766964656f206964656e7469666965642062792074686520566964656f204944206c69737465642061626f76652c20617320686f73746564206f6e20596f7554756265206f7220616e79206f7468657220706c6174666f726d2e0a0a322e204c6963656e7365204772616e740a546865204c6963656e736f7220686572656279206772616e747320746865204c6963656e7365652061206e6f6e2d6578636c75736976652c20776f726c64776964652c20726f79616c74792d66726565206c6963656e736520746f3a0a2d2053686172652028636f707920616e642072656469737472696275746520746865206d6174657269616c20696e20616e79206d656469756d206f7220666f726d6174290a2d204164617074202872656d69782c207472616e73666f726d2c20616e64206275696c642075706f6e20746865206d6174657269616c20666f7220616e7920707572706f73652c206576656e20636f6d6d65726369616c6c79290a556e64657220746865207465726d73206f6620746869732041677265656d656e742c2070726f766964656420746861743a0a2d20546865204c6963656e736565206d757374206769766520617070726f7072696174652063726564697420746f20746865204c6963656e736f722c2070726f766964652061206c696e6b20746f20746865206c6963656e73652c20616e6420696e646963617465206966206368616e6765732077657265206d6164652e20546865204c6963656e736565206d617920646f20736f20696e20616e7920726561736f6e61626c65206d616e6e65722c20627574206e6f7420696e20616e7920776179207468617420737567676573747320746865204c6963656e736f7220656e646f7273657320746865204c6963656e736565206f722074686520757365206f6620746865206d6174657269616c2e0a0a332e204c6963656e7365204475726174696f6e0a2d204c6963656e7365204475726174696f6e3a2056616c696420666f722061206c69666574696d650a546869732041677265656d656e742069732065666665637469766520666f7220746865206475726174696f6e207370656369666965642061626f76652c207374617274696e672066726f6d20746865205369676e696e6720446174652e0a0a342e204174747269627574696f6e20526571756972656d656e74730a546865204c6963656e736565206d757374206769766520617070726f7072696174652063726564697420746f20746865204c6963656e736f722c20617320666f6c6c6f77733a0a2d2050726f76696465207468652077616c6c65742061646472657373206f6620746865204c6963656e736f722e0a2d2050726f766964652061206c696e6b20746f2074686520766964656f2e0a2d2050726f766964652061206c696e6b20746f2074686973206c6963656e73652e0a2d20496e646963617465206966206368616e6765732077657265206d61646520746f20746865206f726967696e616c206d6174657269616c2e0a0a352e204e6f204164646974696f6e616c205265737472696374696f6e730a546865204c6963656e736565206d6179206e6f74206170706c79206c6567616c207465726d73206f7220746563686e6f6c6f676963616c206d656173757265732074686174206c6567616c6c79207265737472696374206f74686572732066726f6d20646f696e6720616e797468696e6720746865206c6963656e7365207065726d6974732e0a0a362e205465726d696e6174696f6e0a546869732041677265656d656e742077696c6c206175746f6d61746963616c6c79207465726d696e61746520696620746865204c6963656e736565206661696c7320746f20636f6d706c79207769746820746865207465726d732068657265696e2e20486f77657665722c20746865206c6963656e73652077696c6c206e6f74207465726d696e617465206173206120726573756c74206f66206d696e6f7220616e6420726561736f6e61626c6520646576696174696f6e73207468617420646f206e6f742066756e64616d656e74616c6c792061666665637420746865207465726d73206f66207468652041677265656d656e742e0a0a372e205369676e6174757265730a546869732041677265656d656e742069732065786563757465642062792074686520666f6c6c6f77696e6720706172746965733a0a2d204c6963656e736f723a205b6c6963656e736f7220616464726573735d0a2d204c6963656e7365653a205b6c6963656e73656520616464726573735d0a2d205369676e696e6720446174653a205b7369676e696e672074696d657374616d705da264697066735822122065954e728e1a6959c7e980bd8a626cc9cb6ea3947c96ce5cd428241de5f041f264736f6c63430008190033",
			"opcodes": "PUSH1 0x80 PUSH1 0x40 MSTORE CALLVALUE DUP1 ISZERO PUSH1 0xE JUMPI PUSH0 DUP1 REVERT JUMPDEST POP PUSH2 0x1C76 DUP1 PUSH2 0x1C PUSH0 CODECOPY PUSH0 RETURN INVALID PUSH1 0x80 PUSH1 0x40 MSTORE CALLVALUE DUP1 ISZERO PUSH2 0xF JUMPI PUSH0 DUP1 REVERT JUMPDEST POP PUSH1 0x4 CALLDATASIZE LT PUSH2 0x55 JUMPI PUSH0 CALLDATALOAD PUSH1 0xE0 SHR DUP1 PUSH4 0x17D7DE7C EQ PUSH2 0x59 JUMPI DUP1 PUSH4 0x321C48F2 EQ PUSH2 0x77 JUMPI DUP1 PUSH4 0x483CED98 EQ PUSH2 0x95 JUMPI DUP1 PUSH4 0x7DB3A946 EQ PUSH2 0xC5 JUMPI DUP1 PUSH4 0xAD2E8C9B EQ PUSH2 0xE3 JUMPI JUMPDEST PUSH0 DUP1 REVERT JUMPDEST PUSH2 0x61 PUSH2 0x101 JUMP JUMPDEST PUSH1 0x40 MLOAD PUSH2 0x6E SWAP2 SWAP1 PUSH2 0x764 JUMP JUMPDEST PUSH1 0x40 MLOAD DUP1 SWAP2 SUB SWAP1 RETURN JUMPDEST PUSH2 0x7F PUSH2 0x121 JUMP JUMPDEST PUSH1 0x40 MLOAD PUSH2 0x8C SWAP2 SWAP1 PUSH2 0x764 JUMP JUMPDEST PUSH1 0x40 MLOAD DUP1 SWAP2 SUB SWAP1 RETURN JUMPDEST PUSH2 0xAF PUSH1 0x4 DUP1 CALLDATASIZE SUB DUP2 ADD SWAP1 PUSH2 0xAA SWAP2 SWAP1 PUSH2 0x94E JUMP JUMPDEST PUSH2 0x144 JUMP JUMPDEST PUSH1 0x40 MLOAD PUSH2 0xBC SWAP2 SWAP1 PUSH2 0x764 JUMP JUMPDEST PUSH1 0x40 MLOAD DUP1 SWAP2 SUB SWAP1 RETURN JUMPDEST PUSH2 0xCD PUSH2 0x24B JUMP JUMPDEST PUSH1 0x40 MLOAD PUSH2 0xDA SWAP2 SWAP1 PUSH2 0x764 JUMP JUMPDEST PUSH1 0x40 MLOAD DUP1 SWAP2 SUB SWAP1 RETURN JUMPDEST PUSH2 0xEB PUSH2 0x26A JUMP JUMPDEST PUSH1 0x40 MLOAD PUSH2 0xF8 SWAP2 SWAP1 PUSH2 0x9F0 JUMP JUMPDEST PUSH1 0x40 MLOAD DUP1 SWAP2 SUB SWAP1 RETURN JUMPDEST PUSH1 0x60 PUSH1 0x40 MLOAD DUP1 PUSH1 0x80 ADD PUSH1 0x40 MSTORE DUP1 PUSH1 0x42 DUP2 MSTORE PUSH1 0x20 ADD PUSH2 0xBFE PUSH1 0x42 SWAP2 CODECOPY SWAP1 POP SWAP1 JUMP JUMPDEST PUSH1 0x60 PUSH1 0x40 MLOAD DUP1 PUSH2 0x860 ADD PUSH1 0x40 MSTORE DUP1 PUSH2 0x830 DUP2 MSTORE PUSH1 0x20 ADD PUSH2 0x1411 PUSH2 0x830 SWAP2 CODECOPY SWAP1 POP SWAP1 JUMP JUMPDEST PUSH1 0x60 PUSH0 PUSH1 0x40 MLOAD DUP1 PUSH2 0x180 ADD PUSH1 0x40 MSTORE DUP1 PUSH2 0x160 DUP2 MSTORE PUSH1 0x20 ADD PUSH2 0xC40 PUSH2 0x160 SWAP2 CODECOPY SWAP1 POP PUSH0 PUSH1 0x40 MLOAD DUP1 PUSH2 0x6A0 ADD PUSH1 0x40 MSTORE DUP1 PUSH2 0x671 DUP2 MSTORE PUSH1 0x20 ADD PUSH2 0xDA0 PUSH2 0x671 SWAP2 CODECOPY SWAP1 POP PUSH0 PUSH1 0x40 MLOAD DUP1 PUSH1 0x40 ADD PUSH1 0x40 MSTORE DUP1 PUSH1 0xD DUP2 MSTORE PUSH1 0x20 ADD PUSH32 0xA2D204C6963656E7365653A2000000000000000000000000000000000000000 DUP2 MSTORE POP SWAP1 POP PUSH0 PUSH1 0x40 MLOAD DUP1 PUSH1 0x40 ADD PUSH1 0x40 MSTORE DUP1 PUSH1 0x11 DUP2 MSTORE PUSH1 0x20 ADD PUSH32 0xA2D205369676E696E6720446174653A20000000000000000000000000000000 DUP2 MSTORE POP SWAP1 POP DUP4 DUP11 DUP5 PUSH2 0x202 DUP13 PUSH2 0x26E JUMP JUMPDEST DUP6 PUSH2 0x20C DUP14 PUSH2 0x26E JUMP JUMPDEST DUP7 PUSH2 0x216 DUP14 PUSH2 0x29B JUMP JUMPDEST PUSH1 0x40 MLOAD PUSH1 0x20 ADD PUSH2 0x22D SWAP9 SWAP8 SWAP7 SWAP6 SWAP5 SWAP4 SWAP3 SWAP2 SWAP1 PUSH2 0xA43 JUMP JUMPDEST PUSH1 0x40 MLOAD PUSH1 0x20 DUP2 DUP4 SUB SUB DUP2 MSTORE SWAP1 PUSH1 0x40 MSTORE SWAP5 POP POP POP POP POP SWAP6 SWAP5 POP POP POP POP POP JUMP JUMPDEST PUSH1 0x40 MLOAD DUP1 PUSH2 0x860 ADD PUSH1 0x40 MSTORE DUP1 PUSH2 0x830 DUP2 MSTORE PUSH1 0x20 ADD PUSH2 0x1411 PUSH2 0x830 SWAP2 CODECOPY DUP2 JUMP JUMPDEST PUSH0 SWAP1 JUMP JUMPDEST PUSH1 0x60 PUSH2 0x294 DUP3 PUSH20 0xFFFFFFFFFFFFFFFFFFFFFFFFFFFFFFFFFFFFFFFF AND PUSH1 0x14 PUSH1 0xFF AND PUSH2 0x365 JUMP JUMPDEST SWAP1 POP SWAP2 SWAP1 POP JUMP JUMPDEST PUSH1 0x60 PUSH0 PUSH1 0x1 PUSH2 0x2A9 DUP5 PUSH2 0x5A3 JUMP JUMPDEST ADD SWAP1 POP PUSH0 DUP2 PUSH8 0xFFFFFFFFFFFFFFFF DUP2 GT ISZERO PUSH2 0x2C7 JUMPI PUSH2 0x2C6 PUSH2 0x79D JUMP JUMPDEST JUMPDEST PUSH1 0x40 MLOAD SWAP1 DUP1 DUP3 MSTORE DUP1 PUSH1 0x1F ADD PUSH1 0x1F NOT AND PUSH1 0x20 ADD DUP3 ADD PUSH1 0x40 MSTORE DUP1 ISZERO PUSH2 0x2F9 JUMPI DUP2 PUSH1 0x20 ADD PUSH1 0x1 DUP3 MUL DUP1 CALLDATASIZE DUP4 CALLDATACOPY DUP1 DUP3 ADD SWAP2 POP POP SWAP1 POP JUMPDEST POP SWAP1 POP PUSH0 DUP3 PUSH1 0x20 ADD DUP3 ADD SWAP1 POP JUMPDEST PUSH1 0x1 ISZERO PUSH2 0x35A JUMPI DUP1 DUP1 PUSH1 0x1 SWAP1 SUB SWAP2 POP POP PUSH32 0x3031323334353637383961626364656600000000000000000000000000000000 PUSH1 0xA DUP7 MOD BYTE DUP2 MSTORE8 PUSH1 0xA DUP6 DUP2 PUSH2 0x34F JUMPI PUSH2 0x34E PUSH2 0xAB4 JUMP JUMPDEST JUMPDEST DIV SWAP5 POP PUSH0 DUP6 SUB PUSH2 0x306 JUMPI JUMPDEST DUP2 SWAP4 POP POP POP POP SWAP2 SWAP1 POP JUMP JUMPDEST PUSH1 0x60 PUSH0 DUP4 SWAP1 POP PUSH0 PUSH1 0x2 DUP5 PUSH1 0x2 PUSH2 0x37B SWAP2 SWAP1 PUSH2 0xB0E JUMP JUMPDEST PUSH2 0x385 SWAP2 SWAP1 PUSH2 0xB4F JUMP JUMPDEST PUSH8 0xFFFFFFFFFFFFFFFF DUP2 GT ISZERO PUSH2 0x39E JUMPI PUSH2 0x39D PUSH2 0x79D JUMP JUMPDEST JUMPDEST PUSH1 0x40 MLOAD SWAP1 DUP1 DUP3 MSTORE DUP1 PUSH1 0x1F ADD PUSH1 0x1F NOT AND PUSH1 0x20 ADD DUP3 ADD PUSH1 0x40 MSTORE DUP1 ISZERO PUSH2 0x3D0 JUMPI DUP2 PUSH1 0x20 ADD PUSH1 0x1 DUP3 MUL DUP1 CALLDATASIZE DUP4 CALLDATACOPY DUP1 DUP3 ADD SWAP2 POP POP SWAP1 POP JUMPDEST POP SWAP1 POP PUSH32 0x3000000000000000000000000000000000000000000000000000000000000000 DUP2 PUSH0 DUP2 MLOAD DUP2 LT PUSH2 0x407 JUMPI PUSH2 0x406 PUSH2 0xB82 JUMP JUMPDEST JUMPDEST PUSH1 0x20 ADD ADD SWAP1 PUSH31 0xFFFFFFFFFFFFFFFFFFFFFFFFFFFFFFFFFFFFFFFFFFFFFFFFFFFFFFFFFFFFFF NOT AND SWAP1 DUP2 PUSH0 BYTE SWAP1 MSTORE8 POP PUSH32 0x7800000000000000000000000000000000000000000000000000000000000000 DUP2 PUSH1 0x1 DUP2 MLOAD DUP2 LT PUSH2 0x46A JUMPI PUSH2 0x469 PUSH2 0xB82 JUMP JUMPDEST JUMPDEST PUSH1 0x20 ADD ADD SWAP1 PUSH31 0xFFFFFFFFFFFFFFFFFFFFFFFFFFFFFFFFFFFFFFFFFFFFFFFFFFFFFFFFFFFFFF NOT AND SWAP1 DUP2 PUSH0 BYTE SWAP1 MSTORE8 POP PUSH0 PUSH1 0x1 DUP6 PUSH1 0x2 PUSH2 0x4A8 SWAP2 SWAP1 PUSH2 0xB0E JUMP JUMPDEST PUSH2 0x4B2 SWAP2 SWAP1 PUSH2 0xB4F JUMP JUMPDEST SWAP1 POP JUMPDEST PUSH1 0x1 DUP2 GT ISZERO PUSH2 0x551 JUMPI PUSH32 0x3031323334353637383961626364656600000000000000000000000000000000 PUSH1 0xF DUP5 AND PUSH1 0x10 DUP2 LT PUSH2 0x4F4 JUMPI PUSH2 0x4F3 PUSH2 0xB82 JUMP JUMPDEST JUMPDEST BYTE PUSH1 0xF8 SHL DUP3 DUP3 DUP2 MLOAD DUP2 LT PUSH2 0x50B JUMPI PUSH2 0x50A PUSH2 0xB82 JUMP JUMPDEST JUMPDEST PUSH1 0x20 ADD ADD SWAP1 PUSH31 0xFFFFFFFFFFFFFFFFFFFFFFFFFFFFFFFFFFFFFFFFFFFFFFFFFFFFFFFFFFFFFF NOT AND SWAP1 DUP2 PUSH0 BYTE SWAP1 MSTORE8 POP PUSH1 0x4 DUP4 SWAP1 SHR SWAP3 POP DUP1 PUSH2 0x54A SWAP1 PUSH2 0xBAF JUMP JUMPDEST SWAP1 POP PUSH2 0x4B5 JUMP JUMPDEST POP PUSH0 DUP3 EQ PUSH2 0x598 JUMPI DUP5 DUP5 PUSH1 0x40 MLOAD PUSH32 0xE22E27EB00000000000000000000000000000000000000000000000000000000 DUP2 MSTORE PUSH1 0x4 ADD PUSH2 0x58F SWAP3 SWAP2 SWAP1 PUSH2 0xBD6 JUMP JUMPDEST PUSH1 0x40 MLOAD DUP1 SWAP2 SUB SWAP1 REVERT JUMPDEST DUP1 SWAP3 POP POP POP SWAP3 SWAP2 POP POP JUMP JUMPDEST PUSH0 DUP1 PUSH0 SWAP1 POP PUSH27 0x184F03E93FF9F4DAA797ED6E38ED64BF6A1F010000000000000000 DUP4 LT PUSH2 0x5FF JUMPI PUSH27 0x184F03E93FF9F4DAA797ED6E38ED64BF6A1F010000000000000000 DUP4 DUP2 PUSH2 0x5F5 JUMPI PUSH2 0x5F4 PUSH2 0xAB4 JUMP JUMPDEST JUMPDEST DIV SWAP3 POP PUSH1 0x40 DUP2 ADD SWAP1 POP JUMPDEST PUSH14 0x4EE2D6D415B85ACEF8100000000 DUP4 LT PUSH2 0x63C JUMPI PUSH14 0x4EE2D6D415B85ACEF8100000000 DUP4 DUP2 PUSH2 0x632 JUMPI PUSH2 0x631 PUSH2 0xAB4 JUMP JUMPDEST JUMPDEST DIV SWAP3 POP PUSH1 0x20 DUP2 ADD SWAP1 POP JUMPDEST PUSH7 0x2386F26FC10000 DUP4 LT PUSH2 0x66B JUMPI PUSH7 0x2386F26FC10000 DUP4 DUP2 PUSH2 0x661 JUMPI PUSH2 0x660 PUSH2 0xAB4 JUMP JUMPDEST JUMPDEST DIV SWAP3 POP PUSH1 0x10 DUP2 ADD SWAP1 POP JUMPDEST PUSH4 0x5F5E100 DUP4 LT PUSH2 0x694 JUMPI PUSH4 0x5F5E100 DUP4 DUP2 PUSH2 0x68A JUMPI PUSH2 0x689 PUSH2 0xAB4 JUMP JUMPDEST JUMPDEST DIV SWAP3 POP PUSH1 0x8 DUP2 ADD SWAP1 POP JUMPDEST PUSH2 0x2710 DUP4 LT PUSH2 0x6B9 JUMPI PUSH2 0x2710 DUP4 DUP2 PUSH2 0x6AF JUMPI PUSH2 0x6AE PUSH2 0xAB4 JUMP JUMPDEST JUMPDEST DIV SWAP3 POP PUSH1 0x4 DUP2 ADD SWAP1 POP JUMPDEST PUSH1 0x64 DUP4 LT PUSH2 0x6DC JUMPI PUSH1 0x64 DUP4 DUP2 PUSH2 0x6D2 JUMPI PUSH2 0x6D1 PUSH2 0xAB4 JUMP JUMPDEST JUMPDEST DIV SWAP3 POP PUSH1 0x2 DUP2 ADD SWAP1 POP JUMPDEST PUSH1 0xA DUP4 LT PUSH2 0x6EB JUMPI PUSH1 0x1 DUP2 ADD SWAP1 POP JUMPDEST DUP1 SWAP2 POP POP SWAP2 SWAP1 POP JUMP JUMPDEST PUSH0 DUP2 MLOAD SWAP1 POP SWAP2 SWAP1 POP JUMP JUMPDEST PUSH0 DUP3 DUP3 MSTORE PUSH1 0x20 DUP3 ADD SWAP1 POP SWAP3 SWAP2 POP POP JUMP JUMPDEST DUP3 DUP2 DUP4 MCOPY PUSH0 DUP4 DUP4 ADD MSTORE POP POP POP JUMP JUMPDEST PUSH0 PUSH1 0x1F NOT PUSH1 0x1F DUP4 ADD AND SWAP1 POP SWAP2 SWAP1 POP JUMP JUMPDEST PUSH0 PUSH2 0x736 DUP3 PUSH2 0x6F4 JUMP JUMPDEST PUSH2 0x740 DUP2 DUP6 PUSH2 0x6FE JUMP JUMPDEST SWAP4 POP PUSH2 0x750 DUP2 DUP6 PUSH1 0x20 DUP7 ADD PUSH2 0x70E JUMP JUMPDEST PUSH2 0x759 DUP2 PUSH2 0x71C JUMP JUMPDEST DUP5 ADD SWAP2 POP POP SWAP3 SWAP2 POP POP JUMP JUMPDEST PUSH0 PUSH1 0x20 DUP3 ADD SWAP1 POP DUP2 DUP2 SUB PUSH0 DUP4 ADD MSTORE PUSH2 0x77C DUP2 DUP5 PUSH2 0x72C JUMP JUMPDEST SWAP1 POP SWAP3 SWAP2 POP POP JUMP JUMPDEST PUSH0 PUSH1 0x40 MLOAD SWAP1 POP SWAP1 JUMP JUMPDEST PUSH0 DUP1 REVERT JUMPDEST PUSH0 DUP1 REVERT JUMPDEST PUSH0 DUP1 REVERT JUMPDEST PUSH0 DUP1 REVERT JUMPDEST PUSH32 0x4E487B7100000000000000000000000000000000000000000000000000000000 PUSH0 MSTORE PUSH1 0x41 PUSH1 0x4 MSTORE PUSH1 0x24 PUSH0 REVERT JUMPDEST PUSH2 0x7D3 DUP3 PUSH2 0x71C JUMP JUMPDEST DUP2 ADD DUP2 DUP2 LT PUSH8 0xFFFFFFFFFFFFFFFF DUP3 GT OR ISZERO PUSH2 0x7F2 JUMPI PUSH2 0x7F1 PUSH2 0x79D JUMP JUMPDEST JUMPDEST DUP1 PUSH1 0x40 MSTORE POP POP POP JUMP JUMPDEST PUSH0 PUSH2 0x804 PUSH2 0x784 JUMP JUMPDEST SWAP1 POP PUSH2 0x810 DUP3 DUP3 PUSH2 0x7CA JUMP JUMPDEST SWAP2 SWAP1 POP JUMP JUMPDEST PUSH0 PUSH8 0xFFFFFFFFFFFFFFFF DUP3 GT ISZERO PUSH2 0x82F JUMPI PUSH2 0x82E PUSH2 0x79D JUMP JUMPDEST JUMPDEST PUSH2 0x838 DUP3 PUSH2 0x71C JUMP JUMPDEST SWAP1 POP PUSH1 0x20 DUP2 ADD SWAP1 POP SWAP2 SWAP1 POP JUMP JUMPDEST DUP3 DUP2 DUP4 CALLDATACOPY PUSH0 DUP4 DUP4 ADD MSTORE POP POP POP JUMP JUMPDEST PUSH0 PUSH2 0x865 PUSH2 0x860 DUP5 PUSH2 0x815 JUMP JUMPDEST PUSH2 0x7FB JUMP JUMPDEST SWAP1 POP DUP3 DUP2 MSTORE PUSH1 0x20 DUP2 ADD DUP5 DUP5 DUP5 ADD GT ISZERO PUSH2 0x881 JUMPI PUSH2 0x880 PUSH2 0x799 JUMP JUMPDEST JUMPDEST PUSH2 0x88C DUP5 DUP3 DUP6 PUSH2 0x845 JUMP JUMPDEST POP SWAP4 SWAP3 POP POP POP JUMP JUMPDEST PUSH0 DUP3 PUSH1 0x1F DUP4 ADD SLT PUSH2 0x8A8 JUMPI PUSH2 0x8A7 PUSH2 0x795 JUMP JUMPDEST JUMPDEST DUP2 CALLDATALOAD PUSH2 0x8B8 DUP5 DUP3 PUSH1 0x20 DUP7 ADD PUSH2 0x853 JUMP JUMPDEST SWAP2 POP POP SWAP3 SWAP2 POP POP JUMP JUMPDEST PUSH0 PUSH20 0xFFFFFFFFFFFFFFFFFFFFFFFFFFFFFFFFFFFFFFFF DUP3 AND SWAP1 POP SWAP2 SWAP1 POP JUMP JUMPDEST PUSH0 PUSH2 0x8EA DUP3 PUSH2 0x8C1 JUMP JUMPDEST SWAP1 POP SWAP2 SWAP1 POP JUMP JUMPDEST PUSH2 0x8FA DUP2 PUSH2 0x8E0 JUMP JUMPDEST DUP2 EQ PUSH2 0x904 JUMPI PUSH0 DUP1 REVERT JUMPDEST POP JUMP JUMPDEST PUSH0 DUP2 CALLDATALOAD SWAP1 POP PUSH2 0x915 DUP2 PUSH2 0x8F1 JUMP JUMPDEST SWAP3 SWAP2 POP POP JUMP JUMPDEST PUSH0 DUP2 SWAP1 POP SWAP2 SWAP1 POP JUMP JUMPDEST PUSH2 0x92D DUP2 PUSH2 0x91B JUMP JUMPDEST DUP2 EQ PUSH2 0x937 JUMPI PUSH0 DUP1 REVERT JUMPDEST POP JUMP JUMPDEST PUSH0 DUP2 CALLDATALOAD SWAP1 POP PUSH2 0x948 DUP2 PUSH2 0x924 JUMP JUMPDEST SWAP3 SWAP2 POP POP JUMP JUMPDEST PUSH0 DUP1 PUSH0 DUP1 PUSH0 PUSH1 0xA0 DUP7 DUP9 SUB SLT ISZERO PUSH2 0x967 JUMPI PUSH2 0x966 PUSH2 0x78D JUMP JUMPDEST JUMPDEST PUSH0 DUP7 ADD CALLDATALOAD PUSH8 0xFFFFFFFFFFFFFFFF DUP2 GT ISZERO PUSH2 0x984 JUMPI PUSH2 0x983 PUSH2 0x791 JUMP JUMPDEST JUMPDEST PUSH2 0x990 DUP9 DUP3 DUP10 ADD PUSH2 0x894 JUMP JUMPDEST SWAP6 POP POP PUSH1 0x20 PUSH2 0x9A1 DUP9 DUP3 DUP10 ADD PUSH2 0x907 JUMP JUMPDEST SWAP5 POP POP PUSH1 0x40 PUSH2 0x9B2 DUP9 DUP3 DUP10 ADD PUSH2 0x907 JUMP JUMPDEST SWAP4 POP POP PUSH1 0x60 PUSH2 0x9C3 DUP9 DUP3 DUP10 ADD PUSH2 0x93A JUMP JUMPDEST SWAP3 POP POP PUSH1 0x80 PUSH2 0x9D4 DUP9 DUP3 DUP10 ADD PUSH2 0x93A JUMP JUMPDEST SWAP2 POP POP SWAP3 SWAP6 POP SWAP3 SWAP6 SWAP1 SWAP4 POP JUMP JUMPDEST PUSH2 0x9EA DUP2 PUSH2 0x91B JUMP JUMPDEST DUP3 MSTORE POP POP JUMP JUMPDEST PUSH0 PUSH1 0x20 DUP3 ADD SWAP1 POP PUSH2 0xA03 PUSH0 DUP4 ADD DUP5 PUSH2 0x9E1 JUMP JUMPDEST SWAP3 SWAP2 POP POP JUMP JUMPDEST PUSH0 DUP2 SWAP1 POP SWAP3 SWAP2 POP POP JUMP JUMPDEST PUSH0 PUSH2 0xA1D DUP3 PUSH2 0x6F4 JUMP JUMPDEST PUSH2 0xA27 DUP2 DUP6 PUSH2 0xA09 JUMP JUMPDEST SWAP4 POP PUSH2 0xA37 DUP2 DUP6 PUSH1 0x20 DUP7 ADD PUSH2 0x70E JUMP JUMPDEST DUP1 DUP5 ADD SWAP2 POP POP SWAP3 SWAP2 POP POP JUMP JUMPDEST PUSH0 PUSH2 0xA4E DUP3 DUP12 PUSH2 0xA13 JUMP JUMPDEST SWAP2 POP PUSH2 0xA5A DUP3 DUP11 PUSH2 0xA13 JUMP JUMPDEST SWAP2 POP PUSH2 0xA66 DUP3 DUP10 PUSH2 0xA13 JUMP JUMPDEST SWAP2 POP PUSH2 0xA72 DUP3 DUP9 PUSH2 0xA13 JUMP JUMPDEST SWAP2 POP PUSH2 0xA7E DUP3 DUP8 PUSH2 0xA13 JUMP JUMPDEST SWAP2 POP PUSH2 0xA8A DUP3 DUP7 PUSH2 0xA13 JUMP JUMPDEST SWAP2 POP PUSH2 0xA96 DUP3 DUP6 PUSH2 0xA13 JUMP JUMPDEST SWAP2 POP PUSH2 0xAA2 DUP3 DUP5 PUSH2 0xA13 JUMP JUMPDEST SWAP2 POP DUP2 SWAP1 POP SWAP10 SWAP9 POP POP POP POP POP POP POP POP POP JUMP JUMPDEST PUSH32 0x4E487B7100000000000000000000000000000000000000000000000000000000 PUSH0 MSTORE PUSH1 0x12 PUSH1 0x4 MSTORE PUSH1 0x24 PUSH0 REVERT JUMPDEST PUSH32 0x4E487B7100000000000000000000000000000000000000000000000000000000 PUSH0 MSTORE PUSH1 0x11 PUSH1 0x4 MSTORE PUSH1 0x24 PUSH0 REVERT JUMPDEST PUSH0 PUSH2 0xB18 DUP3 PUSH2 0x91B JUMP JUMPDEST SWAP2 POP PUSH2 0xB23 DUP4 PUSH2 0x91B JUMP JUMPDEST SWAP3 POP DUP3 DUP3 MUL PUSH2 0xB31 DUP2 PUSH2 0x91B JUMP JUMPDEST SWAP2 POP DUP3 DUP3 DIV DUP5 EQ DUP4 ISZERO OR PUSH2 0xB48 JUMPI PUSH2 0xB47 PUSH2 0xAE1 JUMP JUMPDEST JUMPDEST POP SWAP3 SWAP2 POP POP JUMP JUMPDEST PUSH0 PUSH2 0xB59 DUP3 PUSH2 0x91B JUMP JUMPDEST SWAP2 POP PUSH2 0xB64 DUP4 PUSH2 0x91B JUMP JUMPDEST SWAP3 POP DUP3 DUP3 ADD SWAP1 POP DUP1 DUP3 GT ISZERO PUSH2 0xB7C JUMPI PUSH2 0xB7B PUSH2 0xAE1 JUMP JUMPDEST JUMPDEST SWAP3 SWAP2 POP POP JUMP JUMPDEST PUSH32 0x4E487B7100000000000000000000000000000000000000000000000000000000 PUSH0 MSTORE PUSH1 0x32 PUSH1 0x4 MSTORE PUSH1 0x24 PUSH0 REVERT JUMPDEST PUSH0 PUSH2 0xBB9 DUP3 PUSH2 0x91B JUMP JUMPDEST SWAP2 POP PUSH0 DUP3 SUB PUSH2 0xBCB JUMPI PUSH2 0xBCA PUSH2 0xAE1 JUMP JUMPDEST JUMPDEST PUSH1 0x1 DUP3 SUB SWAP1 POP SWAP2 SWAP1 POP JUMP JUMPDEST PUSH0 PUSH1 0x40 DUP3 ADD SWAP1 POP PUSH2 0xBE9 PUSH0 DUP4 ADD DUP6 PUSH2 0x9E1 JUMP JUMPDEST PUSH2 0xBF6 PUSH1 0x20 DUP4 ADD DUP5 PUSH2 0x9E1 JUMP JUMPDEST SWAP4 SWAP3 POP POP POP JUMP INVALID NUMBER PUSH19 0x65617469766520436F6D6D6F6E732041747472 PUSH10 0x627574696F6E20342E30 KECCAK256 BLOBHASH PUSH15 0x7465726E6174696F6E616C204C6963 PUSH6 0x6E7365202843 NUMBER KECCAK256 TIMESTAMP MSIZE KECCAK256 CALLVALUE 0x2E ADDRESS 0x29 0x4C PUSH10 0x63656E73696E67204167 PUSH19 0x65656D656E740A0A54686973204C6963656E73 PUSH6 0x204167726565 PUSH14 0x656E7420282241677265656D656E PUSH21 0x222920697320656E746572656420696E746F206279 KECCAK256 PUSH2 0x6E64 KECCAK256 PUSH3 0x657477 PUSH6 0x656E3A0A2D20 0x4C PUSH10 0x63656E736F723A205468 PUSH6 0x20696E646976 PUSH10 0x6475616C206F7220656E PUSH21 0x697479207468617420686F6C64732074686520636F PUSH17 0x79726967687420666F7220746865207669 PUSH5 0x656F206964 PUSH6 0x6E7469666965 PUSH5 0x2062656C6F PUSH24 0x2028224C6963656E736F7222292E0A2D204C6963656E7365 PUSH6 0x3A2054686520 PUSH10 0x6E646976696475616C20 PUSH16 0x7220656E746974792074686174207769 PUSH13 0x6C2075736520746865206C6963 PUSH6 0x6E736564206D PUSH2 0x7465 PUSH19 0x69616C20756E64657220746865207465726D73 KECCAK256 PUSH16 0x6620746869732041677265656D656E74 KECCAK256 0x28 0x22 0x4C PUSH10 0x63656E73656522292E0A EXP BALANCE 0x2E KECCAK256 0x4C PUSH10 0x63656E736564204D6174 PUSH6 0x7269616C0A2D KECCAK256 JUMP PUSH10 0x64656F2049443A200A54 PUSH9 0x69732041677265656D PUSH6 0x6E7420617070 PUSH13 0x69657320746F20746865207669 PUSH5 0x656F206964 PUSH6 0x6E7469666965 PUSH5 0x2062792074 PUSH9 0x6520566964656F2049 PREVRANDAO KECCAK256 PUSH13 0x69737465642061626F76652C20 PUSH2 0x7320 PUSH9 0x6F73746564206F6E20 MSIZE PUSH16 0x7554756265206F7220616E79206F7468 PUSH6 0x7220706C6174 PUSH7 0x6F726D2E0A0A32 0x2E KECCAK256 0x4C PUSH10 0x63656E7365204772616E PUSH21 0xA546865204C6963656E736F722068657265627920 PUSH8 0x72616E7473207468 PUSH6 0x204C6963656E PUSH20 0x65652061206E6F6E2D6578636C75736976652C20 PUSH24 0x6F726C64776964652C20726F79616C74792D66726565206C PUSH10 0x63656E736520746F3A0A 0x2D KECCAK256 MSTORE8 PUSH9 0x6172652028636F7079 KECCAK256 PUSH2 0x6E64 KECCAK256 PUSH19 0x656469737472696275746520746865206D6174 PUSH6 0x7269616C2069 PUSH15 0x20616E79206D656469756D206F7220 PUSH7 0x6F726D6174290A 0x2D KECCAK256 COINBASE PUSH5 0x6170742028 PUSH19 0x656D69782C207472616E73666F726D2C20616E PUSH5 0x206275696C PUSH5 0x2075706F6E KECCAK256 PUSH21 0x6865206D6174657269616C20666F7220616E792070 PUSH22 0x72706F73652C206576656E20636F6D6D65726369616C PUSH13 0x79290A556E6465722074686520 PUSH21 0x65726D73206F6620746869732041677265656D656E PUSH21 0x2C2070726F766964656420746861743A0A2D205468 PUSH6 0x204C6963656E PUSH20 0x6565206D757374206769766520617070726F7072 PUSH10 0x61746520637265646974 KECCAK256 PUSH21 0x6F20746865204C6963656E736F722C2070726F7669 PUSH5 0x652061206C PUSH10 0x6E6B20746F2074686520 PUSH13 0x6963656E73652C20616E642069 PUSH15 0x646963617465206966206368616E67 PUSH6 0x732077657265 KECCAK256 PUSH14 0x6164652E20546865204C6963656E PUSH20 0x6565206D617920646F20736F20696E20616E7920 PUSH19 0x6561736F6E61626C65206D616E6E65722C2062 PUSH22 0x74206E6F7420696E20616E7920776179207468617420 PUSH20 0x7567676573747320746865204C6963656E736F72 KECCAK256 PUSH6 0x6E646F727365 PUSH20 0x20746865204C6963656E736565206F7220746865 KECCAK256 PUSH22 0x7365206F6620746865206D6174657269616C2E0A0A33 0x2E KECCAK256 0x4C PUSH10 0x63656E73652044757261 PUSH21 0x696F6E0A2D204C6963656E7365204475726174696F PUSH15 0x3A2056616C696420666F722061206C PUSH10 0x666574696D650A546869 PUSH20 0x2041677265656D656E7420697320656666656374 PUSH10 0x766520666F7220746865 KECCAK256 PUSH5 0x7572617469 PUSH16 0x6E207370656369666965642061626F76 PUSH6 0x2C2073746172 PUSH21 0x696E672066726F6D20746865205369676E696E6720 PREVRANDAO PUSH2 0x7465 0x2E EXP EXP CALLVALUE 0x2E KECCAK256 COINBASE PUSH21 0x747269627574696F6E20526571756972656D656E74 PUSH20 0xA546865204C6963656E736565206D7573742067 PUSH10 0x766520617070726F7072 PUSH10 0x61746520637265646974 KECCAK256 PUSH21 0x6F20746865204C6963656E736F722C20617320666F PUSH13 0x6C6F77733A0A2D2050726F7669 PUSH5 0x6520746865 KECCAK256 PUSH24 0x616C6C65742061646472657373206F6620746865204C6963 PUSH6 0x6E736F722E0A 0x2D KECCAK256 POP PUSH19 0x6F766964652061206C696E6B20746F20746865 KECCAK256 PUSH23 0x6964656F2E0A2D2050726F766964652061206C696E6B20 PUSH21 0x6F2074686973206C6963656E73652E0A2D20496E64 PUSH10 0x63617465206966206368 PUSH2 0x6E67 PUSH6 0x732077657265 KECCAK256 PUSH14 0x61646520746F20746865206F7269 PUSH8 0x696E616C206D6174 PUSH6 0x7269616C2E0A EXP CALLDATALOAD 0x2E KECCAK256 0x4E PUSH16 0x204164646974696F6E616C2052657374 PUSH19 0x696374696F6E730A546865204C6963656E7365 PUSH6 0x206D6179206E PUSH16 0x74206170706C79206C6567616C207465 PUSH19 0x6D73206F7220746563686E6F6C6F676963616C KECCAK256 PUSH14 0x656173757265732074686174206C PUSH6 0x67616C6C7920 PUSH19 0x65737472696374206F74686572732066726F6D KECCAK256 PUSH5 0x6F696E6720 PUSH2 0x6E79 PUSH21 0x68696E6720746865206C6963656E7365207065726D PUSH10 0x74732E0A0A362E205465 PUSH19 0x6D696E6174696F6E0A54686973204167726565 PUSH14 0x656E742077696C6C206175746F6D PUSH2 0x7469 PUSH4 0x616C6C79 KECCAK256 PUSH21 0x65726D696E61746520696620746865204C6963656E PUSH20 0x6565206661696C7320746F20636F6D706C792077 PUSH10 0x74682074686520746572 PUSH14 0x732068657265696E2E20486F7765 PUSH23 0x65722C20746865206C6963656E73652077696C6C206E6F PUSH21 0x207465726D696E617465206173206120726573756C PUSH21 0x206F66206D696E6F7220616E6420726561736F6E61 PUSH3 0x6C6520 PUSH5 0x6576696174 PUSH10 0x6F6E7320746861742064 PUSH16 0x206E6F742066756E64616D656E74616C PUSH13 0x79206166666563742074686520 PUSH21 0x65726D73206F66207468652041677265656D656E74 0x2E EXP EXP CALLDATACOPY 0x2E KECCAK256 MSTORE8 PUSH10 0x676E6174757265730A54 PUSH9 0x69732041677265656D PUSH6 0x6E7420697320 PUSH6 0x786563757465 PUSH5 0x2062792074 PUSH9 0x6520666F6C6C6F7769 PUSH15 0x6720706172746965733A0A2D204C69 PUSH4 0x656E736F PUSH19 0x3A204C6963656E73696E672041677265656D65 PUSH15 0x740A0A54686973204C6963656E7365 KECCAK256 COINBASE PUSH8 0x7265656D656E7420 0x28 0x22 COINBASE PUSH8 0x7265656D656E7422 0x29 KECCAK256 PUSH10 0x7320656E746572656420 PUSH10 0x6E746F20627920616E64 KECCAK256 PUSH3 0x657477 PUSH6 0x656E3A0A2D20 0x4C PUSH10 0x63656E736F723A205468 PUSH6 0x20696E646976 PUSH10 0x6475616C206F7220656E PUSH21 0x697479207468617420686F6C64732074686520636F PUSH17 0x79726967687420666F7220746865207669 PUSH5 0x656F206964 PUSH6 0x6E7469666965 PUSH5 0x2062656C6F PUSH24 0x2028224C6963656E736F7222292E0A2D204C6963656E7365 PUSH6 0x3A2054686520 PUSH10 0x6E646976696475616C20 PUSH16 0x7220656E746974792074686174207769 PUSH13 0x6C2075736520746865206C6963 PUSH6 0x6E736564206D PUSH2 0x7465 PUSH19 0x69616C20756E64657220746865207465726D73 KECCAK256 PUSH16 0x6620746869732041677265656D656E74 KECCAK256 0x28 0x22 0x4C PUSH10 0x63656E73656522292E0A EXP BALANCE 0x2E KECCAK256 0x4C PUSH10 0x63656E736564204D6174 PUSH6 0x7269616C0A2D KECCAK256 JUMP PUSH10 0x64656F2049443A205B76 PUSH10 0x64656F2069645D0A5468 PUSH10 0x732041677265656D656E PUSH21 0x206170706C69657320746F2074686520766964656F KECCAK256 PUSH10 0x64656E74696669656420 PUSH3 0x792074 PUSH9 0x6520566964656F2049 PREVRANDAO KECCAK256 PUSH13 0x69737465642061626F76652C20 PUSH2 0x7320 PUSH9 0x6F73746564206F6E20 MSIZE PUSH16 0x7554756265206F7220616E79206F7468 PUSH6 0x7220706C6174 PUSH7 0x6F726D2E0A0A32 0x2E KECCAK256 0x4C PUSH10 0x63656E7365204772616E PUSH21 0xA546865204C6963656E736F722068657265627920 PUSH8 0x72616E7473207468 PUSH6 0x204C6963656E PUSH20 0x65652061206E6F6E2D6578636C75736976652C20 PUSH24 0x6F726C64776964652C20726F79616C74792D66726565206C PUSH10 0x63656E736520746F3A0A 0x2D KECCAK256 MSTORE8 PUSH9 0x6172652028636F7079 KECCAK256 PUSH2 0x6E64 KECCAK256 PUSH19 0x656469737472696275746520746865206D6174 PUSH6 0x7269616C2069 PUSH15 0x20616E79206D656469756D206F7220 PUSH7 0x6F726D6174290A 0x2D KECCAK256 COINBASE PUSH5 0x6170742028 PUSH19 0x656D69782C207472616E73666F726D2C20616E PUSH5 0x206275696C PUSH5 0x2075706F6E KECCAK256 PUSH21 0x6865206D6174657269616C20666F7220616E792070 PUSH22 0x72706F73652C206576656E20636F6D6D65726369616C PUSH13 0x79290A556E6465722074686520 PUSH21 0x65726D73206F6620746869732041677265656D656E PUSH21 0x2C2070726F766964656420746861743A0A2D205468 PUSH6 0x204C6963656E PUSH20 0x6565206D757374206769766520617070726F7072 PUSH10 0x61746520637265646974 KECCAK256 PUSH21 0x6F20746865204C6963656E736F722C2070726F7669 PUSH5 0x652061206C PUSH10 0x6E6B20746F2074686520 PUSH13 0x6963656E73652C20616E642069 PUSH15 0x646963617465206966206368616E67 PUSH6 0x732077657265 KECCAK256 PUSH14 0x6164652E20546865204C6963656E PUSH20 0x6565206D617920646F20736F20696E20616E7920 PUSH19 0x6561736F6E61626C65206D616E6E65722C2062 PUSH22 0x74206E6F7420696E20616E7920776179207468617420 PUSH20 0x7567676573747320746865204C6963656E736F72 KECCAK256 PUSH6 0x6E646F727365 PUSH20 0x20746865204C6963656E736565206F7220746865 KECCAK256 PUSH22 0x7365206F6620746865206D6174657269616C2E0A0A33 0x2E KECCAK256 0x4C PUSH10 0x63656E73652044757261 PUSH21 0x696F6E0A2D204C6963656E7365204475726174696F PUSH15 0x3A2056616C696420666F722061206C PUSH10 0x666574696D650A546869 PUSH20 0x2041677265656D656E7420697320656666656374 PUSH10 0x766520666F7220746865 KECCAK256 PUSH5 0x7572617469 PUSH16 0x6E207370656369666965642061626F76 PUSH6 0x2C2073746172 PUSH21 0x696E672066726F6D20746865205369676E696E6720 PREVRANDAO PUSH2 0x7465 0x2E EXP EXP CALLVALUE 0x2E KECCAK256 COINBASE PUSH21 0x747269627574696F6E20526571756972656D656E74 PUSH20 0xA546865204C6963656E736565206D7573742067 PUSH10 0x766520617070726F7072 PUSH10 0x61746520637265646974 KECCAK256 PUSH21 0x6F20746865204C6963656E736F722C20617320666F PUSH13 0x6C6F77733A0A2D2050726F7669 PUSH5 0x6520746865 KECCAK256 PUSH24 0x616C6C65742061646472657373206F6620746865204C6963 PUSH6 0x6E736F722E0A 0x2D KECCAK256 POP PUSH19 0x6F766964652061206C696E6B20746F20746865 KECCAK256 PUSH23 0x6964656F2E0A2D2050726F766964652061206C696E6B20 PUSH21 0x6F2074686973206C6963656E73652E0A2D20496E64 PUSH10 0x63617465206966206368 PUSH2 0x6E67 PUSH6 0x732077657265 KECCAK256 PUSH14 0x61646520746F20746865206F7269 PUSH8 0x696E616C206D6174 PUSH6 0x7269616C2E0A EXP CALLDATALOAD 0x2E KECCAK256 0x4E PUSH16 0x204164646974696F6E616C2052657374 PUSH19 0x696374696F6E730A546865204C6963656E7365 PUSH6 0x206D6179206E PUSH16 0x74206170706C79206C6567616C207465 PUSH19 0x6D73206F7220746563686E6F6C6F676963616C KECCAK256 PUSH14 0x656173757265732074686174206C PUSH6 0x67616C6C7920 PUSH19 0x65737472696374206F74686572732066726F6D KECCAK256 PUSH5 0x6F696E6720 PUSH2 0x6E79 PUSH21 0x68696E6720746865206C6963656E7365207065726D PUSH10 0x74732E0A0A362E205465 PUSH19 0x6D696E6174696F6E0A54686973204167726565 PUSH14 0x656E742077696C6C206175746F6D PUSH2 0x7469 PUSH4 0x616C6C79 KECCAK256 PUSH21 0x65726D696E61746520696620746865204C6963656E PUSH20 0x6565206661696C7320746F20636F6D706C792077 PUSH10 0x74682074686520746572 PUSH14 0x732068657265696E2E20486F7765 PUSH23 0x65722C20746865206C6963656E73652077696C6C206E6F PUSH21 0x207465726D696E617465206173206120726573756C PUSH21 0x206F66206D696E6F7220616E6420726561736F6E61 PUSH3 0x6C6520 PUSH5 0x6576696174 PUSH10 0x6F6E7320746861742064 PUSH16 0x206E6F742066756E64616D656E74616C PUSH13 0x79206166666563742074686520 PUSH21 0x65726D73206F66207468652041677265656D656E74 0x2E EXP EXP CALLDATACOPY 0x2E KECCAK256 MSTORE8 PUSH10 0x676E6174757265730A54 PUSH9 0x69732041677265656D PUSH6 0x6E7420697320 PUSH6 0x786563757465 PUSH5 0x2062792074 PUSH9 0x6520666F6C6C6F7769 PUSH15 0x6720706172746965733A0A2D204C69 PUSH4 0x656E736F PUSH19 0x3A205B6C6963656E736F722061646472657373 TSTORE EXP 0x2D KECCAK256 0x4C PUSH10 0x63656E7365653A205B6C PUSH10 0x63656E73656520616464 PUSH19 0x6573735D0A2D205369676E696E672044617465 GASPRICE KECCAK256 JUMPDEST PUSH20 0x69676E696E672074696D657374616D705DA26469 PUSH17 0x66735822122065954E728E1A6959C7E980 0xBD DUP11 PUSH3 0x6CC9CB PUSH15 0xA3947C96CE5CD428241DE5F041F264 PUSH20 0x6F6C634300081900330000000000000000000000 "
		},
		"gasEstimates": {
			"creation": {
				"codeDepositCost": "1457200",
				"executionCost": "1518",
				"totalCost": "1458718"
			},
			"external": {
				"agreement()": "infinite",
				"compose(string,address,address,uint256,uint256)": "infinite",
				"getDuration()": "390",
				"getName()": "infinite",
				"getTemplate()": "infinite"
			}
		},
		"methodIdentifiers": {
			"agreement()": "7db3a946",
			"compose(string,address,address,uint256,uint256)": "483ced98",
			"getDuration()": "ad2e8c9b",
			"getName()": "17d7de7c",
			"getTemplate()": "321c48f2"
		}
	},
	"abi": [
		{
			"inputs": [],
			"stateMutability": "nonpayable",
			"type": "constructor"
		},
		{
			"inputs": [
				{
					"internalType": "uint256",
					"name": "value",
					"type": "uint256"
				},
				{
					"internalType": "uint256",
					"name": "length",
					"type": "uint256"
				}
			],
			"name": "StringsInsufficientHexLength",
			"type": "error"
		},
		{
			"inputs": [],
			"name": "agreement",
			"outputs": [
				{
					"internalType": "string",
					"name": "",
					"type": "string"
				}
			],
			"stateMutability": "view",
			"type": "function"
		},
		{
			"inputs": [
				{
					"internalType": "string",
					"name": "identifier",
					"type": "string"
				},
				{
					"internalType": "address",
					"name": "licensor",
					"type": "address"
				},
				{
					"internalType": "address",
					"name": "licensee",
					"type": "address"
				},
				{
					"internalType": "uint256",
					"name": "price",
					"type": "uint256"
				},
				{
					"internalType": "uint256",
					"name": "signTimestamp",
					"type": "uint256"
				}
			],
			"name": "compose",
			"outputs": [
				{
					"internalType": "string",
					"name": "",
					"type": "string"
				}
			],
			"stateMutability": "pure",
			"type": "function"
		},
		{
			"inputs": [],
			"name": "getDuration",
			"outputs": [
				{
					"internalType": "uint256",
					"name": "",
					"type": "uint256"
				}
			],
			"stateMutability": "pure",
			"type": "function"
		},
		{
			"inputs": [],
			"name": "getName",
			"outputs": [
				{
					"internalType": "string",
					"name": "",
					"type": "string"
				}
			],
			"stateMutability": "pure",
			"type": "function"
		},
		{
			"inputs": [],
			"name": "getTemplate",
			"outputs": [
				{
					"internalType": "string",
					"name": "",
					"type": "string"
				}
			],
			"stateMutability": "pure",
			"type": "function"
		}
	]
}