{
	"data": {
		"bytecode": {
			"linkReferences": {},
			"object": "6080604052348015600e575f80fd5b506102d18061001c5f395ff3fe608060405234801561000f575f80fd5b5060043610610029575f3560e01c80631626ba7e1461002d575b5f80fd5b610047600480360381019061004291906101ee565b61005d565b6040516100549190610282565b60405180910390f35b5f631626ba7e60e01b905092915050565b5f604051905090565b5f80fd5b5f80fd5b5f819050919050565b6100918161007f565b811461009b575f80fd5b50565b5f813590506100ac81610088565b92915050565b5f80fd5b5f80fd5b5f601f19601f8301169050919050565b7f4e487b71000000000000000000000000000000000000000000000000000000005f52604160045260245ffd5b610100826100ba565b810181811067ffffffffffffffff8211171561011f5761011e6100ca565b5b80604052505050565b5f61013161006e565b905061013d82826100f7565b919050565b5f67ffffffffffffffff82111561015c5761015b6100ca565b5b610165826100ba565b9050602081019050919050565b828183375f83830152505050565b5f61019261018d84610142565b610128565b9050828152602081018484840111156101ae576101ad6100b6565b5b6101b9848285610172565b509392505050565b5f82601f8301126101d5576101d46100b2565b5b81356101e5848260208601610180565b91505092915050565b5f806040838503121561020457610203610077565b5b5f6102118582860161009e565b925050602083013567ffffffffffffffff8111156102325761023161007b565b5b61023e858286016101c1565b9150509250929050565b5f7fffffffff0000000000000000000000000000000000000000000000000000000082169050919050565b61027c81610248565b82525050565b5f6020820190506102955f830184610273565b9291505056fea2646970667358221220e422aa79c33f153e66c20fdc601069d363cd99d73b569ed98c17d80f78ab4ffb64736f6c63430008190033",
			"opcodes": "PUSH1 0x80 PUSH1 0x40 MSTORE CALLVALUE DUP1 ISZERO PUSH1 0xE JUMPI PUSH0 DUP1 REVERT JUMPDEST POP PUSH2 0x2D1 DUP1 PUSH2 0x1C PUSH0 CODECOPY PUSH0 RETURN INVALID PUSH1 0x80 PUSH1 0x40 MSTORE CALLVALUE DUP1 ISZERO PUSH2 0xF JUMPI PUSH0 DUP1 REVERT JUMPDEST POP PUSH1 0x4 CALLDATASIZE LT PUSH2 0x29 JUMPI PUSH0 CALLDATALOAD PUSH1 0xE0 SHR DUP1 PUSH4 0x1626BA7E EQ PUSH2 0x2D JUMPI JUMPDEST PUSH0 DUP1 REVERT JUMPDEST PUSH2 0x47 PUSH1 0x4 DUP1 CALLDATASIZE SUB DUP2 ADD SWAP1 PUSH2 0x42 SWAP2 SWAP1 PUSH2 0x1EE JUMP JUMPDEST PUSH2 0x5D JUMP JUMPDEST PUSH1 0x40 MLOAD PUSH2 0x54 SWAP2 SWAP1 PUSH2 0x282 JUMP JUMPDEST PUSH1 0x40 MLOAD DUP1 SWAP2 SUB SWAP1 RETURN JUMPDEST PUSH0 PUSH4 0x1626BA7E PUSH1 0xE0 SHL SWAP1 POP SWAP3 SWAP2 POP POP JUMP JUMPDEST PUSH0 PUSH1 0x40 MLOAD SWAP1 POP SWAP1 JUMP JUMPDEST PUSH0 DUP1 REVERT JUMPDEST PUSH0 DUP1 REVERT JUMPDEST PUSH0 DUP2 SWAP1 POP SWAP2 SWAP1 POP JUMP JUMPDEST PUSH2 0x91 DUP2 PUSH2 0x7F JUMP JUMPDEST DUP2 EQ PUSH2 0x9B JUMPI PUSH0 DUP1 REVERT JUMPDEST POP JUMP JUMPDEST PUSH0 DUP2 CALLDATALOAD SWAP1 POP PUSH2 0xAC DUP2 PUSH2 0x88 JUMP JUMPDEST SWAP3 SWAP2 POP POP JUMP JUMPDEST PUSH0 DUP1 REVERT JUMPDEST PUSH0 DUP1 REVERT JUMPDEST PUSH0 PUSH1 0x1F NOT PUSH1 0x1F DUP4 ADD AND SWAP1 POP SWAP2 SWAP1 POP JUMP JUMPDEST PUSH32 0x4E487B7100000000000000000000000000000000000000000000000000000000 PUSH0 MSTORE PUSH1 0x41 PUSH1 0x4 MSTORE PUSH1 0x24 PUSH0 REVERT JUMPDEST PUSH2 0x100 DUP3 PUSH2 0xBA JUMP JUMPDEST DUP2 ADD DUP2 DUP2 LT PUSH8 0xFFFFFFFFFFFFFFFF DUP3 GT OR ISZERO PUSH2 0x11F JUMPI PUSH2 0x11E PUSH2 0xCA JUMP JUMPDEST JUMPDEST DUP1 PUSH1 0x40 MSTORE POP POP POP JUMP JUMPDEST PUSH0 PUSH2 0x131 PUSH2 0x6E JUMP JUMPDEST SWAP1 POP PUSH2 0x13D DUP3 DUP3 PUSH2 0xF7 JUMP JUMPDEST SWAP2 SWAP1 POP JUMP JUMPDEST PUSH0 PUSH8 0xFFFFFFFFFFFFFFFF DUP3 GT ISZERO PUSH2 0x15C JUMPI PUSH2 0x15B PUSH2 0xCA JUMP JUMPDEST JUMPDEST PUSH2 0x165 DUP3 PUSH2 0xBA JUMP JUMPDEST SWAP1 POP PUSH1 0x20 DUP2 ADD SWAP1 POP SWAP2 SWAP1 POP JUMP JUMPDEST DUP3 DUP2 DUP4 CALLDATACOPY PUSH0 DUP4 DUP4 ADD MSTORE POP POP POP JUMP JUMPDEST PUSH0 PUSH2 0x192 PUSH2 0x18D DUP5 PUSH2 0x142 JUMP JUMPDEST PUSH2 0x128 JUMP JUMPDEST SWAP1 POP DUP3 DUP2 MSTORE PUSH1 0x20 DUP2 ADD DUP5 DUP5 DUP5 ADD GT ISZERO PUSH2 0x1AE JUMPI PUSH2 0x1AD PUSH2 0xB6 JUMP JUMPDEST JUMPDEST PUSH2 0x1B9 DUP5 DUP3 DUP6 PUSH2 0x172 JUMP JUMPDEST POP SWAP4 SWAP3 POP POP POP JUMP JUMPDEST PUSH0 DUP3 PUSH1 0x1F DUP4 ADD SLT PUSH2 0x1D5 JUMPI PUSH2 0x1D4 PUSH2 0xB2 JUMP JUMPDEST JUMPDEST DUP2 CALLDATALOAD PUSH2 0x1E5 DUP5 DUP3 PUSH1 0x20 DUP7 ADD PUSH2 0x180 JUMP JUMPDEST SWAP2 POP POP SWAP3 SWAP2 POP POP JUMP JUMPDEST PUSH0 DUP1 PUSH1 0x40 DUP4 DUP6 SUB SLT ISZERO PUSH2 0x204 JUMPI PUSH2 0x203 PUSH2 0x77 JUMP JUMPDEST JUMPDEST PUSH0 PUSH2 0x211 DUP6 DUP3 DUP7 ADD PUSH2 0x9E JUMP JUMPDEST SWAP3 POP POP PUSH1 0x20 DUP4 ADD CALLDATALOAD PUSH8 0xFFFFFFFFFFFFFFFF DUP2 GT ISZERO PUSH2 0x232 JUMPI PUSH2 0x231 PUSH2 0x7B JUMP JUMPDEST JUMPDEST PUSH2 0x23E DUP6 DUP3 DUP7 ADD PUSH2 0x1C1 JUMP JUMPDEST SWAP2 POP POP SWAP3 POP SWAP3 SWAP1 POP JUMP JUMPDEST PUSH0 PUSH32 0xFFFFFFFF00000000000000000000000000000000000000000000000000000000 DUP3 AND SWAP1 POP SWAP2 SWAP1 POP JUMP JUMPDEST PUSH2 0x27C DUP2 PUSH2 0x248 JUMP JUMPDEST DUP3 MSTORE POP POP JUMP JUMPDEST PUSH0 PUSH1 0x20 DUP3 ADD SWAP1 POP PUSH2 0x295 PUSH0 DUP4 ADD DUP5 PUSH2 0x273 JUMP JUMPDEST SWAP3 SWAP2 POP POP JUMP INVALID LOG2 PUSH5 0x6970667358 0x22 SLT KECCAK256 0xE4 0x22 0xAA PUSH26 0xC33F153E66C20FDC601069D363CD99D73B569ED98C17D80F78AB 0x4F 0xFB PUSH5 0x736F6C6343 STOP ADDMOD NOT STOP CALLER "
		},
		"gasEstimates": {
			"creation": {
				"codeDepositCost": "144200",
				"executionCost": "188",
				"totalCost": "144388"
			},
			"external": {
				"isValidSignature(bytes32,bytes)": "infinite"
			}
		},
		"methodIdentifiers": {
			"isValidSignature(bytes32,bytes)": "1626ba7e"
		}
	},
	"abi": [
		{
			"inputs": [
				{
					"internalType": "bytes32",
					"name": "hash",
					"type": "bytes32"
				},
				{
					"internalType": "bytes",
					"name": "signature",
					"type": "bytes"
				}
			],
			"name": "isValidSignature",
			"outputs": [
				{
					"internalType": "bytes4",
					"name": "magicValue",
					"type": "bytes4"
				}
			],
			"stateMutability": "pure",
			"type": "function"
		}
	]
}