{
	"data": {
		"bytecode": {
			"linkReferences": {},
			"object": "6080604052348015600e575f80fd5b50335f806101000a81548173ffffffffffffffffffffffffffffffffffffffff021916908373ffffffffffffffffffffffffffffffffffffffff160217905550613ac78061005b5f395ff3fe60806040526004361061013e575f3560e01c806376b1d966116100b5578063b033c13a1161006e578063b033c13a146104ac578063b6c00a82146104e8578063e946af5914610524578063f2fde38b1461054c578063fa54080114610574578063fe744a39146105b05761013e565b806376b1d9661461036a57806396fcc1ae14610392578063976662b0146103ce57806397aba7f91461040a57806399911abe14610446578063a7bb58031461046e5761013e565b806345402a4d1161010757806345402a4d1461023c57806355b30266146102785780635867f3a8146102a057806366527f1c146102dc57806370d8677f14610306578063734514391461032e5761013e565b8062f23fc1146101425780630e15c62a1461015e5780631e7fd268146101885780632437e7eb146101c457806341befbd114610200575b5f80fd5b61015c600480360381019061015791906121ac565b6105d8565b005b348015610169575f80fd5b506101726109a5565b60405161017f9190612278565b60405180910390f35b348015610193575f80fd5b506101ae60048036038101906101a99190612298565b6109c1565b6040516101bb9190612302565b60405180910390f35b3480156101cf575f80fd5b506101ea60048036038101906101e591906123b9565b610a76565b6040516101f7919061242b565b60405180910390f35b34801561020b575f80fd5b5061022660048036038101906102219190612298565b610ac2565b6040516102339190612278565b60405180910390f35b348015610247575f80fd5b50610262600480360381019061025d919061247f565b610bc2565b60405161026f91906125ba565b60405180910390f35b348015610283575f80fd5b5061029e600480360381019061029991906125da565b610dc1565b005b3480156102ab575f80fd5b506102c660048036038101906102c19190612605565b610ea5565b6040516102d3919061269f565b60405180910390f35b3480156102e7575f80fd5b506102f0610f03565b6040516102fd9190612278565b60405180910390f35b348015610311575f80fd5b5061032c600480360381019061032791906126b8565b610f1f565b005b348015610339575f80fd5b50610354600480360381019061034f9190612738565b611172565b604051610361919061242b565b60405180910390f35b348015610375575f80fd5b50610390600480360381019061038b91906127a0565b6111be565b005b34801561039d575f80fd5b506103b860048036038101906103b3919061283c565b611423565b6040516103c5919061269f565b60405180910390f35b3480156103d9575f80fd5b506103f460048036038101906103ef91906128d8565b611481565b6040516104019190612278565b60405180910390f35b348015610415575f80fd5b50610430600480360381019061042b9190612940565b61177a565b60405161043d91906129a9565b60405180910390f35b348015610451575f80fd5b5061046c60048036038101906104679190612298565b6117e4565b005b348015610479575f80fd5b50610494600480360381019061048f91906129c2565b611953565b6040516104a393929190612a24565b60405180910390f35b3480156104b7575f80fd5b506104d260048036038101906104cd9190612298565b6119b8565b6040516104df91906129a9565b60405180910390f35b3480156104f3575f80fd5b5061050e60048036038101906105099190612298565b611a50565b60405161051b9190612a68565b60405180910390f35b34801561052f575f80fd5b5061054a600480360381019061054591906125da565b611ac9565b005b348015610557575f80fd5b50610572600480360381019061056d91906125da565b611bad565b005b34801561057f575f80fd5b5061059a60048036038101906105959190612a81565b611c7c565b6040516105a7919061242b565b60405180910390f35b3480156105bb575f80fd5b506105d660048036038101906105d19190612aac565b611cab565b005b8260065f8281526020019081526020015f205f9054906101000a900460ff16610636576040517f08c379a000000000000000000000000000000000000000000000000000000000815260040161062d90612bcb565b60405180910390fd5b3073ffffffffffffffffffffffffffffffffffffffff1663b6c00a82856040518263ffffffff1660e01b815260040161066f9190612bf8565b602060405180830381865afa15801561068a573d5f803e3d5ffd5b505050506040513d601f19601f820116820180604052508101906106ae9190612c25565b3410156106f0576040517f08c379a00000000000000000000000000000000000000000000000000000000081526004016106e790612c9a565b60405180910390fd5b3073ffffffffffffffffffffffffffffffffffffffff16635867f3a8338686866040518563ffffffff1660e01b815260040161072f9493929190612d0a565b602060405180830381865afa15801561074a573d5f803e3d5ffd5b505050506040513d601f19601f8201168201806040525081019061076e9190612d7e565b6107ad576040517f08c379a00000000000000000000000000000000000000000000000000000000081526004016107a490612df3565b60405180910390fd5b5f3073ffffffffffffffffffffffffffffffffffffffff1663b6c00a82866040518263ffffffff1660e01b81526004016107e79190612bf8565b602060405180830381865afa158015610802573d5f803e3d5ffd5b505050506040513d601f19601f820116820180604052508101906108269190612c25565b90505f3073ffffffffffffffffffffffffffffffffffffffff16631e7fd268876040518263ffffffff1660e01b81526004016108629190612bf8565b602060405180830381865afa15801561087d573d5f803e3d5ffd5b505050506040513d601f19601f820116820180604052508101906108a19190612e25565b90505f8173ffffffffffffffffffffffffffffffffffffffff16836040516108c890612e7d565b5f6040518083038185875af1925050503d805f8114610902576040519150601f19603f3d011682016040523d82523d5f602084013e610907565b606091505b505090508061094b576040517f08c379a000000000000000000000000000000000000000000000000000000000815260040161094290612edb565b60405180910390fd5b42600a5f8981526020019081526020015f205f3373ffffffffffffffffffffffffffffffffffffffff1673ffffffffffffffffffffffffffffffffffffffff1681526020019081526020015f208190555050505050505050565b6040518060a0016040528060688152602001613a2a6068913981565b5f8160065f8281526020019081526020015f205f9054906101000a900460ff16610a20576040517f08c379a0000000000000000000000000000000000000000000000000000000008152600401610a1790612bcb565b60405180910390fd5b600260075f8581526020019081526020015f20604051610a409190612ff2565b90815260200160405180910390205f9054906101000a900473ffffffffffffffffffffffffffffffffffffffff16915050919050565b5f826040518060a00160405280606881526020016139c26068913983604051602001610aa493929190613058565b60405160208183030381529060405280519060200120905092915050565b60608160065f8281526020019081526020015f205f9054906101000a900460ff16610b22576040517f08c379a0000000000000000000000000000000000000000000000000000000008152600401610b1990612bcb565b60405180910390fd5b60075f8481526020019081526020015f208054610b3e90612f26565b80601f0160208091040260200160405190810160405280929190818152602001828054610b6a90612f26565b8015610bb55780601f10610b8c57610100808354040283529160200191610bb5565b820191905f5260205f20905b815481529060010190602001808311610b9857829003601f168201915b5050505050915050919050565b6060825f73ffffffffffffffffffffffffffffffffffffffff16600282604051610bec919061308c565b90815260200160405180910390205f9054906101000a900473ffffffffffffffffffffffffffffffffffffffff1673ffffffffffffffffffffffffffffffffffffffff1603610c70576040517f08c379a0000000000000000000000000000000000000000000000000000000008152600401610c67906130ec565b60405180910390fd5b5f600385604051610c81919061308c565b90815260200160405180910390205467ffffffffffffffff811115610ca957610ca8612088565b5b604051908082528060200260200182016040528015610cd75781602001602082028036833780820191505090505b5090505f5b600386604051610cec919061308c565b908152602001604051809103902054811015610db5575f600487604051610d13919061308c565b90815260200160405180910390205f8381526020019081526020015f205490505f600a5f8381526020019081526020015f205f8873ffffffffffffffffffffffffffffffffffffffff1673ffffffffffffffffffffffffffffffffffffffff1681526020019081526020015f205414610da75780838381518110610d9a57610d9961310a565b5b6020026020010181815250505b508080600101915050610cdc565b50809250505092915050565b3373ffffffffffffffffffffffffffffffffffffffff165f8054906101000a900473ffffffffffffffffffffffffffffffffffffffff1673ffffffffffffffffffffffffffffffffffffffff1614610e4e576040517f08c379a0000000000000000000000000000000000000000000000000000000008152600401610e4590613181565b60405180910390fd5b6001805f8373ffffffffffffffffffffffffffffffffffffffff1673ffffffffffffffffffffffffffffffffffffffff1681526020019081526020015f205f6101000a81548160ff02191690831515021790555050565b5f80610eb18585611172565b90505f610ebd82611c7c565b90508673ffffffffffffffffffffffffffffffffffffffff16610ee0828661177a565b73ffffffffffffffffffffffffffffffffffffffff161492505050949350505050565b6040518060a00160405280606881526020016139c26068913981565b835f73ffffffffffffffffffffffffffffffffffffffff16600282604051610f47919061308c565b90815260200160405180910390205f9054906101000a900473ffffffffffffffffffffffffffffffffffffffff1673ffffffffffffffffffffffffffffffffffffffff1603610fcb576040517f08c379a0000000000000000000000000000000000000000000000000000000008152600401610fc2906130ec565b60405180910390fd5b8360015f8273ffffffffffffffffffffffffffffffffffffffff1673ffffffffffffffffffffffffffffffffffffffff1681526020019081526020015f205f9054906101000a900460ff16611055576040517f08c379a000000000000000000000000000000000000000000000000000000000815260040161104c90612bcb565b60405180910390fd5b3373ffffffffffffffffffffffffffffffffffffffff1660028760405161107c919061308c565b90815260200160405180910390205f9054906101000a900473ffffffffffffffffffffffffffffffffffffffff1673ffffffffffffffffffffffffffffffffffffffff1614611100576040517f08c379a00000000000000000000000000000000000000000000000000000000081526004016110f7906131e9565b60405180910390fd5b60055f8481526020019081526020015f205f9054906101000a900460ff161561115e576040517f08c379a000000000000000000000000000000000000000000000000000000000815260040161115590613251565b60405180910390fd5b61116a86868686611ea2565b505050505050565b5f826040518060a0016040528060688152602001613a2a60689139836040516020016111a093929190613286565b60405160208183030381529060405280519060200120905092915050565b3373ffffffffffffffffffffffffffffffffffffffff165f8054906101000a900473ffffffffffffffffffffffffffffffffffffffff1673ffffffffffffffffffffffffffffffffffffffff161461124b576040517f08c379a000000000000000000000000000000000000000000000000000000000815260040161124290613181565b60405180910390fd5b5f8490505f815111611292576040517f08c379a000000000000000000000000000000000000000000000000000000000815260040161128990613308565b60405180910390fd5b3073ffffffffffffffffffffffffffffffffffffffff166396fcc1ae858786866040518563ffffffff1660e01b81526004016112d19493929190613378565b602060405180830381865afa1580156112ec573d5f803e3d5ffd5b505050506040513d601f19601f820116820180604052508101906113109190612d7e565b61134f576040517f08c379a000000000000000000000000000000000000000000000000000000000815260040161134690613413565b60405180910390fd5b5f73ffffffffffffffffffffffffffffffffffffffff16600286604051611376919061308c565b90815260200160405180910390205f9054906101000a900473ffffffffffffffffffffffffffffffffffffffff1673ffffffffffffffffffffffffffffffffffffffff160361141c57836002866040516113d0919061308c565b90815260200160405180910390205f6101000a81548173ffffffffffffffffffffffffffffffffffffffff021916908373ffffffffffffffffffffffffffffffffffffffff1602179055505b5050505050565b5f8061142f8585610a76565b90505f61143b82611c7c565b90508673ffffffffffffffffffffffffffffffffffffffff1661145e828661177a565b73ffffffffffffffffffffffffffffffffffffffff161492505050949350505050565b60608260065f8281526020019081526020015f205f9054906101000a900460ff166114e1576040517f08c379a00000000000000000000000000000000000000000000000000000000081526004016114d890612bcb565b60405180910390fd5b5f600a5f8681526020019081526020015f205f8573ffffffffffffffffffffffffffffffffffffffff1673ffffffffffffffffffffffffffffffffffffffff1681526020019081526020015f20540361156f576040517f08c379a00000000000000000000000000000000000000000000000000000000081526004016115669061347b565b60405180910390fd5b5f60075f8681526020019081526020015f20805461158c90612f26565b80601f01602080910402602001604051908101604052809291908181526020018280546115b890612f26565b80156116035780601f106115da57610100808354040283529160200191611603565b820191905f5260205f20905b8154815290600101906020018083116115e657829003601f168201915b505050505090505f60028260405161161b919061308c565b90815260200160405180910390205f9054906101000a900473ffffffffffffffffffffffffffffffffffffffff1690505f60095f8881526020019081526020015f205f9054906101000a900473ffffffffffffffffffffffffffffffffffffffff1690505f60085f8981526020019081526020015f205490505f600a5f8a81526020019081526020015f205f8973ffffffffffffffffffffffffffffffffffffffff1673ffffffffffffffffffffffffffffffffffffffff1681526020019081526020015f205490505f8390508073ffffffffffffffffffffffffffffffffffffffff1663483ced9887878c87876040518663ffffffff1660e01b8152600401611729959493929190613499565b5f60405180830381865afa158015611743573d5f803e3d5ffd5b505050506040513d5f823e3d601f19601f8201168201806040525081019061176b919061355f565b97505050505050505092915050565b5f805f8061178785611953565b9250925092506001868285856040515f81526020016040526040516117af94939291906135a6565b6020604051602081039080840390855afa1580156117cf573d5f803e3d5ffd5b50505060206040510351935050505092915050565b8060065f8281526020019081526020015f205f9054906101000a900460ff16611842576040517f08c379a000000000000000000000000000000000000000000000000000000000815260040161183990612bcb565b60405180910390fd5b3373ffffffffffffffffffffffffffffffffffffffff163073ffffffffffffffffffffffffffffffffffffffff16631e7fd268846040518263ffffffff1660e01b81526004016118929190612bf8565b602060405180830381865afa1580156118ad573d5f803e3d5ffd5b505050506040513d601f19601f820116820180604052508101906118d19190612e25565b73ffffffffffffffffffffffffffffffffffffffff1614611927576040517f08c379a000000000000000000000000000000000000000000000000000000000815260040161191e906131e9565b60405180910390fd5b5f60065f8481526020019081526020015f205f6101000a81548160ff0219169083151502179055505050565b5f805f604184511461199a576040517f08c379a000000000000000000000000000000000000000000000000000000000815260040161199190613633565b60405180910390fd5b602084015192506040840151915060608401515f1a90509193909250565b5f8160065f8281526020019081526020015f205f9054906101000a900460ff16611a17576040517f08c379a0000000000000000000000000000000000000000000000000000000008152600401611a0e90612bcb565b60405180910390fd5b60095f8481526020019081526020015f205f9054906101000a900473ffffffffffffffffffffffffffffffffffffffff16915050919050565b5f8160065f8281526020019081526020015f205f9054906101000a900460ff16611aaf576040517f08c379a0000000000000000000000000000000000000000000000000000000008152600401611aa690612bcb565b60405180910390fd5b60085f8481526020019081526020015f2054915050919050565b3373ffffffffffffffffffffffffffffffffffffffff165f8054906101000a900473ffffffffffffffffffffffffffffffffffffffff1673ffffffffffffffffffffffffffffffffffffffff1614611b56576040517f08c379a0000000000000000000000000000000000000000000000000000000008152600401611b4d90613181565b60405180910390fd5b5f60015f8373ffffffffffffffffffffffffffffffffffffffff1673ffffffffffffffffffffffffffffffffffffffff1681526020019081526020015f205f6101000a81548160ff02191690831515021790555050565b3373ffffffffffffffffffffffffffffffffffffffff165f8054906101000a900473ffffffffffffffffffffffffffffffffffffffff1673ffffffffffffffffffffffffffffffffffffffff1614611c3a576040517f08c379a0000000000000000000000000000000000000000000000000000000008152600401611c3190613181565b60405180910390fd5b805f806101000a81548173ffffffffffffffffffffffffffffffffffffffff021916908373ffffffffffffffffffffffffffffffffffffffff16021790555050565b5f81604051602001611c8e91906136bb565b604051602081830303815290604052805190602001209050919050565b3373ffffffffffffffffffffffffffffffffffffffff165f8054906101000a900473ffffffffffffffffffffffffffffffffffffffff1673ffffffffffffffffffffffffffffffffffffffff1614611d38576040517f08c379a0000000000000000000000000000000000000000000000000000000008152600401611d2f90613181565b60405180910390fd5b8260015f8273ffffffffffffffffffffffffffffffffffffffff1673ffffffffffffffffffffffffffffffffffffffff1681526020019081526020015f205f9054906101000a900460ff16611dc2576040517f08c379a0000000000000000000000000000000000000000000000000000000008152600401611db990612bcb565b60405180910390fd5b60055f8381526020019081526020015f205f9054906101000a900460ff1615611e20576040517f08c379a0000000000000000000000000000000000000000000000000000000008152600401611e1790613251565b60405180910390fd5b3073ffffffffffffffffffffffffffffffffffffffff166376b1d966898989896040518563ffffffff1660e01b8152600401611e5f94939291906136e0565b5f604051808303815f87803b158015611e76575f80fd5b505af1158015611e88573d5f803e3d5ffd5b50505050611e9888858585611ea2565b5050505050505050565b600160055f8381526020019081526020015f205f6101000a81548160ff021916908315150217905550600160065f8381526020019081526020015f205f6101000a81548160ff0219169083151502179055505f600385604051611f05919061308c565b908152602001604051809103902054905081600486604051611f27919061308c565b90815260200160405180910390205f8381526020019081526020015f2081905550600181611f55919061375e565b600386604051611f65919061308c565b9081526020016040518091039020819055508460075f8481526020019081526020015f209081611f9591906138f2565b508260085f8481526020019081526020015f20819055508360095f8481526020019081526020015f205f6101000a81548173ffffffffffffffffffffffffffffffffffffffff021916908373ffffffffffffffffffffffffffffffffffffffff1602179055505050505050565b5f604051905090565b5f80fd5b5f80fd5b5f819050919050565b61202581612013565b811461202f575f80fd5b50565b5f813590506120408161201c565b92915050565b61204f81612013565b8114612059575f80fd5b50565b5f8135905061206a81612046565b92915050565b5f80fd5b5f80fd5b5f601f19601f8301169050919050565b7f4e487b71000000000000000000000000000000000000000000000000000000005f52604160045260245ffd5b6120be82612078565b810181811067ffffffffffffffff821117156120dd576120dc612088565b5b80604052505050565b5f6120ef612002565b90506120fb82826120b5565b919050565b5f67ffffffffffffffff82111561211a57612119612088565b5b61212382612078565b9050602081019050919050565b828183375f83830152505050565b5f61215061214b84612100565b6120e6565b90508281526020810184848401111561216c5761216b612074565b5b612177848285612130565b509392505050565b5f82601f83011261219357612192612070565b5b81356121a384826020860161213e565b91505092915050565b5f805f606084860312156121c3576121c261200b565b5b5f6121d086828701612032565b93505060206121e18682870161205c565b925050604084013567ffffffffffffffff8111156122025761220161200f565b5b61220e8682870161217f565b9150509250925092565b5f81519050919050565b5f82825260208201905092915050565b8281835e5f83830152505050565b5f61224a82612218565b6122548185612222565b9350612264818560208601612232565b61226d81612078565b840191505092915050565b5f6020820190508181035f8301526122908184612240565b905092915050565b5f602082840312156122ad576122ac61200b565b5b5f6122ba84828501612032565b91505092915050565b5f73ffffffffffffffffffffffffffffffffffffffff82169050919050565b5f6122ec826122c3565b9050919050565b6122fc816122e2565b82525050565b5f6020820190506123155f8301846122f3565b92915050565b5f67ffffffffffffffff82111561233557612334612088565b5b61233e82612078565b9050602081019050919050565b5f61235d6123588461231b565b6120e6565b90508281526020810184848401111561237957612378612074565b5b612384848285612130565b509392505050565b5f82601f8301126123a05761239f612070565b5b81356123b084826020860161234b565b91505092915050565b5f80604083850312156123cf576123ce61200b565b5b5f83013567ffffffffffffffff8111156123ec576123eb61200f565b5b6123f88582860161238c565b92505060206124098582860161205c565b9150509250929050565b5f819050919050565b61242581612413565b82525050565b5f60208201905061243e5f83018461241c565b92915050565b5f61244e826122c3565b9050919050565b61245e81612444565b8114612468575f80fd5b50565b5f8135905061247981612455565b92915050565b5f80604083850312156124955761249461200b565b5b5f83013567ffffffffffffffff8111156124b2576124b161200f565b5b6124be8582860161238c565b92505060206124cf8582860161246b565b9150509250929050565b5f81519050919050565b5f82825260208201905092915050565b5f819050602082019050919050565b5f819050919050565b5f61252561252061251b84612013565b612502565b612013565b9050919050565b6125358161250b565b82525050565b5f612546838361252c565b60208301905092915050565b5f602082019050919050565b5f612568826124d9565b61257281856124e3565b935061257d836124f3565b805f5b838110156125ad578151612594888261253b565b975061259f83612552565b925050600181019050612580565b5085935050505092915050565b5f6020820190508181035f8301526125d2818461255e565b905092915050565b5f602082840312156125ef576125ee61200b565b5b5f6125fc8482850161246b565b91505092915050565b5f805f806080858703121561261d5761261c61200b565b5b5f61262a8782880161246b565b945050602061263b87828801612032565b935050604061264c8782880161205c565b925050606085013567ffffffffffffffff81111561266d5761266c61200f565b5b6126798782880161217f565b91505092959194509250565b5f8115159050919050565b61269981612685565b82525050565b5f6020820190506126b25f830184612690565b92915050565b5f805f80608085870312156126d0576126cf61200b565b5b5f85013567ffffffffffffffff8111156126ed576126ec61200f565b5b6126f98782880161238c565b945050602061270a8782880161246b565b935050604061271b8782880161205c565b925050606061272c87828801612032565b91505092959194509250565b5f806040838503121561274e5761274d61200b565b5b5f61275b85828601612032565b925050602061276c8582860161205c565b9150509250929050565b61277f816122e2565b8114612789575f80fd5b50565b5f8135905061279a81612776565b92915050565b5f805f80608085870312156127b8576127b761200b565b5b5f85013567ffffffffffffffff8111156127d5576127d461200f565b5b6127e18782880161238c565b94505060206127f28782880161278c565b93505060406128038782880161205c565b925050606085013567ffffffffffffffff8111156128245761282361200f565b5b6128308782880161217f565b91505092959194509250565b5f805f80608085870312156128545761285361200b565b5b5f6128618782880161246b565b945050602085013567ffffffffffffffff8111156128825761288161200f565b5b61288e8782880161238c565b935050604061289f8782880161205c565b925050606085013567ffffffffffffffff8111156128c0576128bf61200f565b5b6128cc8782880161217f565b91505092959194509250565b5f80604083850312156128ee576128ed61200b565b5b5f6128fb85828601612032565b925050602061290c8582860161246b565b9150509250929050565b61291f81612413565b8114612929575f80fd5b50565b5f8135905061293a81612916565b92915050565b5f80604083850312156129565761295561200b565b5b5f6129638582860161292c565b925050602083013567ffffffffffffffff8111156129845761298361200f565b5b6129908582860161217f565b9150509250929050565b6129a381612444565b82525050565b5f6020820190506129bc5f83018461299a565b92915050565b5f602082840312156129d7576129d661200b565b5b5f82013567ffffffffffffffff8111156129f4576129f361200f565b5b612a008482850161217f565b91505092915050565b5f60ff82169050919050565b612a1e81612a09565b82525050565b5f606082019050612a375f83018661241c565b612a44602083018561241c565b612a516040830184612a15565b949350505050565b612a6281612013565b82525050565b5f602082019050612a7b5f830184612a59565b92915050565b5f60208284031215612a9657612a9561200b565b5b5f612aa38482850161292c565b91505092915050565b5f805f805f805f60e0888a031215612ac757612ac661200b565b5b5f88013567ffffffffffffffff811115612ae457612ae361200f565b5b612af08a828b0161238c565b9750506020612b018a828b0161278c565b9650506040612b128a828b0161205c565b955050606088013567ffffffffffffffff811115612b3357612b3261200f565b5b612b3f8a828b0161217f565b9450506080612b508a828b0161246b565b93505060a0612b618a828b0161205c565b92505060c0612b728a828b01612032565b91505092959891949750929550565b7f6c6963656e736520646f65736e277420657869737400000000000000000000005f82015250565b5f612bb5601583612222565b9150612bc082612b81565b602082019050919050565b5f6020820190508181035f830152612be281612ba9565b9050919050565b612bf28161250b565b82525050565b5f602082019050612c0b5f830184612be9565b92915050565b5f81519050612c1f81612046565b92915050565b5f60208284031215612c3a57612c3961200b565b5b5f612c4784828501612c11565b91505092915050565b7f6e6f7420656e6f756768206574686572000000000000000000000000000000005f82015250565b5f612c84601083612222565b9150612c8f82612c50565b602082019050919050565b5f6020820190508181035f830152612cb181612c78565b9050919050565b5f81519050919050565b5f82825260208201905092915050565b5f612cdc82612cb8565b612ce68185612cc2565b9350612cf6818560208601612232565b612cff81612078565b840191505092915050565b5f608082019050612d1d5f83018761299a565b612d2a6020830186612be9565b612d376040830185612a59565b8181036060830152612d498184612cd2565b905095945050505050565b612d5d81612685565b8114612d67575f80fd5b50565b5f81519050612d7881612d54565b92915050565b5f60208284031215612d9357612d9261200b565b5b5f612da084828501612d6a565b91505092915050565b7f696e76616c6964206c6963656e736565207369676e61747572650000000000005f82015250565b5f612ddd601a83612222565b9150612de882612da9565b602082019050919050565b5f6020820190508181035f830152612e0a81612dd1565b9050919050565b5f81519050612e1f81612776565b92915050565b5f60208284031215612e3a57612e3961200b565b5b5f612e4784828501612e11565b91505092915050565b5f81905092915050565b50565b5f612e685f83612e50565b9150612e7382612e5a565b5f82019050919050565b5f612e8782612e5d565b9150819050919050565b7f6661696c656420746f2073656e642065746865720000000000000000000000005f82015250565b5f612ec5601483612222565b9150612ed082612e91565b602082019050919050565b5f6020820190508181035f830152612ef281612eb9565b9050919050565b7f4e487b71000000000000000000000000000000000000000000000000000000005f52602260045260245ffd5b5f6002820490506001821680612f3d57607f821691505b602082108103612f5057612f4f612ef9565b5b50919050565b5f81905092915050565b5f819050815f5260205f209050919050565b5f8154612f7e81612f26565b612f888186612f56565b9450600182165f8114612fa25760018114612fb757612fe9565b60ff1983168652811515820286019350612fe9565b612fc085612f60565b5f5b83811015612fe157815481890152600182019150602081019050612fc2565b838801955050505b50505092915050565b5f612ffd8284612f72565b915081905092915050565b5f61301282612218565b61301c8185612f56565b935061302c818560208601612232565b80840191505092915050565b5f819050919050565b61305261304d82612013565b613038565b82525050565b5f6130638286613008565b915061306f8285613008565b915061307b8284613041565b602082019150819050949350505050565b5f6130978284613008565b915081905092915050565b7f766964656f20646f65736e2774206578697374000000000000000000000000005f82015250565b5f6130d6601383612222565b91506130e1826130a2565b602082019050919050565b5f6020820190508181035f830152613103816130ca565b9050919050565b7f4e487b71000000000000000000000000000000000000000000000000000000005f52603260045260245ffd5b7f6f776e657220616363657373206f6e6c790000000000000000000000000000005f82015250565b5f61316b601183612222565b915061317682613137565b602082019050919050565b5f6020820190508181035f8301526131988161315f565b9050919050565b7f696e76616c6964206c6963656e736f72000000000000000000000000000000005f82015250565b5f6131d3601083612222565b91506131de8261319f565b602082019050919050565b5f6020820190508181035f830152613200816131c7565b9050919050565b7f756e617661696c61626c65206c6963656e7365206964000000000000000000005f82015250565b5f61323b601683612222565b915061324682613207565b602082019050919050565b5f6020820190508181035f8301526132688161322f565b9050919050565b61328061327b8261250b565b613038565b82525050565b5f613291828661326f565b6020820191506132a18285613008565b91506132ad8284613041565b602082019150819050949350505050565b7f696e76616c696420766964656f206964000000000000000000000000000000005f82015250565b5f6132f2601083612222565b91506132fd826132be565b602082019050919050565b5f6020820190508181035f83015261331f816132e6565b9050919050565b5f61334061333b613336846122c3565b612502565b6122c3565b9050919050565b5f61335182613326565b9050919050565b5f61336282613347565b9050919050565b61337281613358565b82525050565b5f60808201905061338b5f830187613369565b818103602083015261339d8186612240565b90506133ac6040830185612a59565b81810360608301526133be8184612cd2565b905095945050505050565b7f696e76616c6964206c6963656e736f72207369676e61747572650000000000005f82015250565b5f6133fd601a83612222565b9150613408826133c9565b602082019050919050565b5f6020820190508181035f83015261342a816133f1565b9050919050565b7f696e76616c6964206c6963656e736565000000000000000000000000000000005f82015250565b5f613465601083612222565b915061347082613431565b602082019050919050565b5f6020820190508181035f83015261349281613459565b9050919050565b5f60a0820190508181035f8301526134b18188612240565b90506134c0602083018761299a565b6134cd604083018661299a565b6134da6060830185612a59565b6134e76080830184612a59565b9695505050505050565b5f6135036134fe8461231b565b6120e6565b90508281526020810184848401111561351f5761351e612074565b5b61352a848285612232565b509392505050565b5f82601f83011261354657613545612070565b5b81516135568482602086016134f1565b91505092915050565b5f602082840312156135745761357361200b565b5b5f82015167ffffffffffffffff8111156135915761359061200f565b5b61359d84828501613532565b91505092915050565b5f6080820190506135b95f83018761241c565b6135c66020830186612a15565b6135d3604083018561241c565b6135e0606083018461241c565b95945050505050565b7f696e76616c6964207369676e6174757265206c656e67746800000000000000005f82015250565b5f61361d601883612222565b9150613628826135e9565b602082019050919050565b5f6020820190508181035f83015261364a81613611565b9050919050565b7f19457468657265756d205369676e6564204d6573736167653a0a3332000000005f82015250565b5f613685601c83612f56565b915061369082613651565b601c82019050919050565b5f819050919050565b6136b56136b082612413565b61369b565b82525050565b5f6136c582613679565b91506136d182846136a4565b60208201915081905092915050565b5f6080820190508181035f8301526136f88187612240565b905061370760208301866122f3565b6137146040830185612a59565b81810360608301526137268184612cd2565b905095945050505050565b7f4e487b71000000000000000000000000000000000000000000000000000000005f52601160045260245ffd5b5f61376882612013565b915061377383612013565b925082820190508082111561378b5761378a613731565b5b92915050565b5f6020601f8301049050919050565b5f82821b905092915050565b5f600883026137db7fffffffffffffffffffffffffffffffffffffffffffffffffffffffffffffffff826137a0565b6137e586836137a0565b95508019841693508086168417925050509392505050565b5f819050919050565b61380f8361250b565b61382361381b826137fd565b8484546137ac565b825550505050565b5f90565b61383761382b565b613842818484613806565b505050565b5b818110156138655761385a5f8261382f565b600181019050613848565b5050565b601f8211156138aa5761387b81612f60565b61388484613791565b81016020851015613893578190505b6138a761389f85613791565b830182613847565b50505b505050565b5f82821c905092915050565b5f6138ca5f19846008026138af565b1980831691505092915050565b5f6138e283836138bb565b9150826002028217905092915050565b6138fb82612218565b67ffffffffffffffff81111561391457613913612088565b5b61391e8254612f26565b613929828285613869565b5f60209050601f83116001811461395a575f8415613948578287015190505b61395285826138d7565b8655506139b9565b601f19841661396886612f60565b5f5b8281101561398f5784890151825560018201915060208501945060208101905061396a565b868310156139ac57848901516139a8601f8916826138bb565b8355505b6001600288020188555050505b50505050505056fe4920636572746966792074686174204920616d20746865206c6963656e736f72206f662074686520766964656f2061677265656d656e7420616e6420616772656520746f20616c6c207465726d7320646566696e656420696e207468652061677265656d656e742e4920636572746966792074686174204920616d20746865206c6963656e736565206f662074686520766964656f2061677265656d656e7420616e6420616772656520746f20616c6c207465726d7320646566696e656420696e207468652061677265656d656e742ea2646970667358221220f0dc9be92030d6c3aea3188b28957f284ee94084d131a03114cf52a90b35bf7564736f6c63430008190033",
			"opcodes": "PUSH1 0x80 PUSH1 0x40 MSTORE CALLVALUE DUP1 ISZERO PUSH1 0xE JUMPI PUSH0 DUP1 REVERT JUMPDEST POP CALLER PUSH0 DUP1 PUSH2 0x100 EXP DUP2 SLOAD DUP2 PUSH20 0xFFFFFFFFFFFFFFFFFFFFFFFFFFFFFFFFFFFFFFFF MUL NOT AND SWAP1 DUP4 PUSH20 0xFFFFFFFFFFFFFFFFFFFFFFFFFFFFFFFFFFFFFFFF AND MUL OR SWAP1 SSTORE POP PUSH2 0x3AC7 DUP1 PUSH2 0x5B PUSH0 CODECOPY PUSH0 RETURN INVALID PUSH1 0x80 PUSH1 0x40 MSTORE PUSH1 0x4 CALLDATASIZE LT PUSH2 0x13E JUMPI PUSH0 CALLDATALOAD PUSH1 0xE0 SHR DUP1 PUSH4 0x76B1D966 GT PUSH2 0xB5 JUMPI DUP1 PUSH4 0xB033C13A GT PUSH2 0x6E JUMPI DUP1 PUSH4 0xB033C13A EQ PUSH2 0x4AC JUMPI DUP1 PUSH4 0xB6C00A82 EQ PUSH2 0x4E8 JUMPI DUP1 PUSH4 0xE946AF59 EQ PUSH2 0x524 JUMPI DUP1 PUSH4 0xF2FDE38B EQ PUSH2 0x54C JUMPI DUP1 PUSH4 0xFA540801 EQ PUSH2 0x574 JUMPI DUP1 PUSH4 0xFE744A39 EQ PUSH2 0x5B0 JUMPI PUSH2 0x13E JUMP JUMPDEST DUP1 PUSH4 0x76B1D966 EQ PUSH2 0x36A JUMPI DUP1 PUSH4 0x96FCC1AE EQ PUSH2 0x392 JUMPI DUP1 PUSH4 0x976662B0 EQ PUSH2 0x3CE JUMPI DUP1 PUSH4 0x97ABA7F9 EQ PUSH2 0x40A JUMPI DUP1 PUSH4 0x99911ABE EQ PUSH2 0x446 JUMPI DUP1 PUSH4 0xA7BB5803 EQ PUSH2 0x46E JUMPI PUSH2 0x13E JUMP JUMPDEST DUP1 PUSH4 0x45402A4D GT PUSH2 0x107 JUMPI DUP1 PUSH4 0x45402A4D EQ PUSH2 0x23C JUMPI DUP1 PUSH4 0x55B30266 EQ PUSH2 0x278 JUMPI DUP1 PUSH4 0x5867F3A8 EQ PUSH2 0x2A0 JUMPI DUP1 PUSH4 0x66527F1C EQ PUSH2 0x2DC JUMPI DUP1 PUSH4 0x70D8677F EQ PUSH2 0x306 JUMPI DUP1 PUSH4 0x73451439 EQ PUSH2 0x32E JUMPI PUSH2 0x13E JUMP JUMPDEST DUP1 PUSH3 0xF23FC1 EQ PUSH2 0x142 JUMPI DUP1 PUSH4 0xE15C62A EQ PUSH2 0x15E JUMPI DUP1 PUSH4 0x1E7FD268 EQ PUSH2 0x188 JUMPI DUP1 PUSH4 0x2437E7EB EQ PUSH2 0x1C4 JUMPI DUP1 PUSH4 0x41BEFBD1 EQ PUSH2 0x200 JUMPI JUMPDEST PUSH0 DUP1 REVERT JUMPDEST PUSH2 0x15C PUSH1 0x4 DUP1 CALLDATASIZE SUB DUP2 ADD SWAP1 PUSH2 0x157 SWAP2 SWAP1 PUSH2 0x21AC JUMP JUMPDEST PUSH2 0x5D8 JUMP JUMPDEST STOP JUMPDEST CALLVALUE DUP1 ISZERO PUSH2 0x169 JUMPI PUSH0 DUP1 REVERT JUMPDEST POP PUSH2 0x172 PUSH2 0x9A5 JUMP JUMPDEST PUSH1 0x40 MLOAD PUSH2 0x17F SWAP2 SWAP1 PUSH2 0x2278 JUMP JUMPDEST PUSH1 0x40 MLOAD DUP1 SWAP2 SUB SWAP1 RETURN JUMPDEST CALLVALUE DUP1 ISZERO PUSH2 0x193 JUMPI PUSH0 DUP1 REVERT JUMPDEST POP PUSH2 0x1AE PUSH1 0x4 DUP1 CALLDATASIZE SUB DUP2 ADD SWAP1 PUSH2 0x1A9 SWAP2 SWAP1 PUSH2 0x2298 JUMP JUMPDEST PUSH2 0x9C1 JUMP JUMPDEST PUSH1 0x40 MLOAD PUSH2 0x1BB SWAP2 SWAP1 PUSH2 0x2302 JUMP JUMPDEST PUSH1 0x40 MLOAD DUP1 SWAP2 SUB SWAP1 RETURN JUMPDEST CALLVALUE DUP1 ISZERO PUSH2 0x1CF JUMPI PUSH0 DUP1 REVERT JUMPDEST POP PUSH2 0x1EA PUSH1 0x4 DUP1 CALLDATASIZE SUB DUP2 ADD SWAP1 PUSH2 0x1E5 SWAP2 SWAP1 PUSH2 0x23B9 JUMP JUMPDEST PUSH2 0xA76 JUMP JUMPDEST PUSH1 0x40 MLOAD PUSH2 0x1F7 SWAP2 SWAP1 PUSH2 0x242B JUMP JUMPDEST PUSH1 0x40 MLOAD DUP1 SWAP2 SUB SWAP1 RETURN JUMPDEST CALLVALUE DUP1 ISZERO PUSH2 0x20B JUMPI PUSH0 DUP1 REVERT JUMPDEST POP PUSH2 0x226 PUSH1 0x4 DUP1 CALLDATASIZE SUB DUP2 ADD SWAP1 PUSH2 0x221 SWAP2 SWAP1 PUSH2 0x2298 JUMP JUMPDEST PUSH2 0xAC2 JUMP JUMPDEST PUSH1 0x40 MLOAD PUSH2 0x233 SWAP2 SWAP1 PUSH2 0x2278 JUMP JUMPDEST PUSH1 0x40 MLOAD DUP1 SWAP2 SUB SWAP1 RETURN JUMPDEST CALLVALUE DUP1 ISZERO PUSH2 0x247 JUMPI PUSH0 DUP1 REVERT JUMPDEST POP PUSH2 0x262 PUSH1 0x4 DUP1 CALLDATASIZE SUB DUP2 ADD SWAP1 PUSH2 0x25D SWAP2 SWAP1 PUSH2 0x247F JUMP JUMPDEST PUSH2 0xBC2 JUMP JUMPDEST PUSH1 0x40 MLOAD PUSH2 0x26F SWAP2 SWAP1 PUSH2 0x25BA JUMP JUMPDEST PUSH1 0x40 MLOAD DUP1 SWAP2 SUB SWAP1 RETURN JUMPDEST CALLVALUE DUP1 ISZERO PUSH2 0x283 JUMPI PUSH0 DUP1 REVERT JUMPDEST POP PUSH2 0x29E PUSH1 0x4 DUP1 CALLDATASIZE SUB DUP2 ADD SWAP1 PUSH2 0x299 SWAP2 SWAP1 PUSH2 0x25DA JUMP JUMPDEST PUSH2 0xDC1 JUMP JUMPDEST STOP JUMPDEST CALLVALUE DUP1 ISZERO PUSH2 0x2AB JUMPI PUSH0 DUP1 REVERT JUMPDEST POP PUSH2 0x2C6 PUSH1 0x4 DUP1 CALLDATASIZE SUB DUP2 ADD SWAP1 PUSH2 0x2C1 SWAP2 SWAP1 PUSH2 0x2605 JUMP JUMPDEST PUSH2 0xEA5 JUMP JUMPDEST PUSH1 0x40 MLOAD PUSH2 0x2D3 SWAP2 SWAP1 PUSH2 0x269F JUMP JUMPDEST PUSH1 0x40 MLOAD DUP1 SWAP2 SUB SWAP1 RETURN JUMPDEST CALLVALUE DUP1 ISZERO PUSH2 0x2E7 JUMPI PUSH0 DUP1 REVERT JUMPDEST POP PUSH2 0x2F0 PUSH2 0xF03 JUMP JUMPDEST PUSH1 0x40 MLOAD PUSH2 0x2FD SWAP2 SWAP1 PUSH2 0x2278 JUMP JUMPDEST PUSH1 0x40 MLOAD DUP1 SWAP2 SUB SWAP1 RETURN JUMPDEST CALLVALUE DUP1 ISZERO PUSH2 0x311 JUMPI PUSH0 DUP1 REVERT JUMPDEST POP PUSH2 0x32C PUSH1 0x4 DUP1 CALLDATASIZE SUB DUP2 ADD SWAP1 PUSH2 0x327 SWAP2 SWAP1 PUSH2 0x26B8 JUMP JUMPDEST PUSH2 0xF1F JUMP JUMPDEST STOP JUMPDEST CALLVALUE DUP1 ISZERO PUSH2 0x339 JUMPI PUSH0 DUP1 REVERT JUMPDEST POP PUSH2 0x354 PUSH1 0x4 DUP1 CALLDATASIZE SUB DUP2 ADD SWAP1 PUSH2 0x34F SWAP2 SWAP1 PUSH2 0x2738 JUMP JUMPDEST PUSH2 0x1172 JUMP JUMPDEST PUSH1 0x40 MLOAD PUSH2 0x361 SWAP2 SWAP1 PUSH2 0x242B JUMP JUMPDEST PUSH1 0x40 MLOAD DUP1 SWAP2 SUB SWAP1 RETURN JUMPDEST CALLVALUE DUP1 ISZERO PUSH2 0x375 JUMPI PUSH0 DUP1 REVERT JUMPDEST POP PUSH2 0x390 PUSH1 0x4 DUP1 CALLDATASIZE SUB DUP2 ADD SWAP1 PUSH2 0x38B SWAP2 SWAP1 PUSH2 0x27A0 JUMP JUMPDEST PUSH2 0x11BE JUMP JUMPDEST STOP JUMPDEST CALLVALUE DUP1 ISZERO PUSH2 0x39D JUMPI PUSH0 DUP1 REVERT JUMPDEST POP PUSH2 0x3B8 PUSH1 0x4 DUP1 CALLDATASIZE SUB DUP2 ADD SWAP1 PUSH2 0x3B3 SWAP2 SWAP1 PUSH2 0x283C JUMP JUMPDEST PUSH2 0x1423 JUMP JUMPDEST PUSH1 0x40 MLOAD PUSH2 0x3C5 SWAP2 SWAP1 PUSH2 0x269F JUMP JUMPDEST PUSH1 0x40 MLOAD DUP1 SWAP2 SUB SWAP1 RETURN JUMPDEST CALLVALUE DUP1 ISZERO PUSH2 0x3D9 JUMPI PUSH0 DUP1 REVERT JUMPDEST POP PUSH2 0x3F4 PUSH1 0x4 DUP1 CALLDATASIZE SUB DUP2 ADD SWAP1 PUSH2 0x3EF SWAP2 SWAP1 PUSH2 0x28D8 JUMP JUMPDEST PUSH2 0x1481 JUMP JUMPDEST PUSH1 0x40 MLOAD PUSH2 0x401 SWAP2 SWAP1 PUSH2 0x2278 JUMP JUMPDEST PUSH1 0x40 MLOAD DUP1 SWAP2 SUB SWAP1 RETURN JUMPDEST CALLVALUE DUP1 ISZERO PUSH2 0x415 JUMPI PUSH0 DUP1 REVERT JUMPDEST POP PUSH2 0x430 PUSH1 0x4 DUP1 CALLDATASIZE SUB DUP2 ADD SWAP1 PUSH2 0x42B SWAP2 SWAP1 PUSH2 0x2940 JUMP JUMPDEST PUSH2 0x177A JUMP JUMPDEST PUSH1 0x40 MLOAD PUSH2 0x43D SWAP2 SWAP1 PUSH2 0x29A9 JUMP JUMPDEST PUSH1 0x40 MLOAD DUP1 SWAP2 SUB SWAP1 RETURN JUMPDEST CALLVALUE DUP1 ISZERO PUSH2 0x451 JUMPI PUSH0 DUP1 REVERT JUMPDEST POP PUSH2 0x46C PUSH1 0x4 DUP1 CALLDATASIZE SUB DUP2 ADD SWAP1 PUSH2 0x467 SWAP2 SWAP1 PUSH2 0x2298 JUMP JUMPDEST PUSH2 0x17E4 JUMP JUMPDEST STOP JUMPDEST CALLVALUE DUP1 ISZERO PUSH2 0x479 JUMPI PUSH0 DUP1 REVERT JUMPDEST POP PUSH2 0x494 PUSH1 0x4 DUP1 CALLDATASIZE SUB DUP2 ADD SWAP1 PUSH2 0x48F SWAP2 SWAP1 PUSH2 0x29C2 JUMP JUMPDEST PUSH2 0x1953 JUMP JUMPDEST PUSH1 0x40 MLOAD PUSH2 0x4A3 SWAP4 SWAP3 SWAP2 SWAP1 PUSH2 0x2A24 JUMP JUMPDEST PUSH1 0x40 MLOAD DUP1 SWAP2 SUB SWAP1 RETURN JUMPDEST CALLVALUE DUP1 ISZERO PUSH2 0x4B7 JUMPI PUSH0 DUP1 REVERT JUMPDEST POP PUSH2 0x4D2 PUSH1 0x4 DUP1 CALLDATASIZE SUB DUP2 ADD SWAP1 PUSH2 0x4CD SWAP2 SWAP1 PUSH2 0x2298 JUMP JUMPDEST PUSH2 0x19B8 JUMP JUMPDEST PUSH1 0x40 MLOAD PUSH2 0x4DF SWAP2 SWAP1 PUSH2 0x29A9 JUMP JUMPDEST PUSH1 0x40 MLOAD DUP1 SWAP2 SUB SWAP1 RETURN JUMPDEST CALLVALUE DUP1 ISZERO PUSH2 0x4F3 JUMPI PUSH0 DUP1 REVERT JUMPDEST POP PUSH2 0x50E PUSH1 0x4 DUP1 CALLDATASIZE SUB DUP2 ADD SWAP1 PUSH2 0x509 SWAP2 SWAP1 PUSH2 0x2298 JUMP JUMPDEST PUSH2 0x1A50 JUMP JUMPDEST PUSH1 0x40 MLOAD PUSH2 0x51B SWAP2 SWAP1 PUSH2 0x2A68 JUMP JUMPDEST PUSH1 0x40 MLOAD DUP1 SWAP2 SUB SWAP1 RETURN JUMPDEST CALLVALUE DUP1 ISZERO PUSH2 0x52F JUMPI PUSH0 DUP1 REVERT JUMPDEST POP PUSH2 0x54A PUSH1 0x4 DUP1 CALLDATASIZE SUB DUP2 ADD SWAP1 PUSH2 0x545 SWAP2 SWAP1 PUSH2 0x25DA JUMP JUMPDEST PUSH2 0x1AC9 JUMP JUMPDEST STOP JUMPDEST CALLVALUE DUP1 ISZERO PUSH2 0x557 JUMPI PUSH0 DUP1 REVERT JUMPDEST POP PUSH2 0x572 PUSH1 0x4 DUP1 CALLDATASIZE SUB DUP2 ADD SWAP1 PUSH2 0x56D SWAP2 SWAP1 PUSH2 0x25DA JUMP JUMPDEST PUSH2 0x1BAD JUMP JUMPDEST STOP JUMPDEST CALLVALUE DUP1 ISZERO PUSH2 0x57F JUMPI PUSH0 DUP1 REVERT JUMPDEST POP PUSH2 0x59A PUSH1 0x4 DUP1 CALLDATASIZE SUB DUP2 ADD SWAP1 PUSH2 0x595 SWAP2 SWAP1 PUSH2 0x2A81 JUMP JUMPDEST PUSH2 0x1C7C JUMP JUMPDEST PUSH1 0x40 MLOAD PUSH2 0x5A7 SWAP2 SWAP1 PUSH2 0x242B JUMP JUMPDEST PUSH1 0x40 MLOAD DUP1 SWAP2 SUB SWAP1 RETURN JUMPDEST CALLVALUE DUP1 ISZERO PUSH2 0x5BB JUMPI PUSH0 DUP1 REVERT JUMPDEST POP PUSH2 0x5D6 PUSH1 0x4 DUP1 CALLDATASIZE SUB DUP2 ADD SWAP1 PUSH2 0x5D1 SWAP2 SWAP1 PUSH2 0x2AAC JUMP JUMPDEST PUSH2 0x1CAB JUMP JUMPDEST STOP JUMPDEST DUP3 PUSH1 0x6 PUSH0 DUP3 DUP2 MSTORE PUSH1 0x20 ADD SWAP1 DUP2 MSTORE PUSH1 0x20 ADD PUSH0 KECCAK256 PUSH0 SWAP1 SLOAD SWAP1 PUSH2 0x100 EXP SWAP1 DIV PUSH1 0xFF AND PUSH2 0x636 JUMPI PUSH1 0x40 MLOAD PUSH32 0x8C379A000000000000000000000000000000000000000000000000000000000 DUP2 MSTORE PUSH1 0x4 ADD PUSH2 0x62D SWAP1 PUSH2 0x2BCB JUMP JUMPDEST PUSH1 0x40 MLOAD DUP1 SWAP2 SUB SWAP1 REVERT JUMPDEST ADDRESS PUSH20 0xFFFFFFFFFFFFFFFFFFFFFFFFFFFFFFFFFFFFFFFF AND PUSH4 0xB6C00A82 DUP6 PUSH1 0x40 MLOAD DUP3 PUSH4 0xFFFFFFFF AND PUSH1 0xE0 SHL DUP2 MSTORE PUSH1 0x4 ADD PUSH2 0x66F SWAP2 SWAP1 PUSH2 0x2BF8 JUMP JUMPDEST PUSH1 0x20 PUSH1 0x40 MLOAD DUP1 DUP4 SUB DUP2 DUP7 GAS STATICCALL ISZERO DUP1 ISZERO PUSH2 0x68A JUMPI RETURNDATASIZE PUSH0 DUP1 RETURNDATACOPY RETURNDATASIZE PUSH0 REVERT JUMPDEST POP POP POP POP PUSH1 0x40 MLOAD RETURNDATASIZE PUSH1 0x1F NOT PUSH1 0x1F DUP3 ADD AND DUP3 ADD DUP1 PUSH1 0x40 MSTORE POP DUP2 ADD SWAP1 PUSH2 0x6AE SWAP2 SWAP1 PUSH2 0x2C25 JUMP JUMPDEST CALLVALUE LT ISZERO PUSH2 0x6F0 JUMPI PUSH1 0x40 MLOAD PUSH32 0x8C379A000000000000000000000000000000000000000000000000000000000 DUP2 MSTORE PUSH1 0x4 ADD PUSH2 0x6E7 SWAP1 PUSH2 0x2C9A JUMP JUMPDEST PUSH1 0x40 MLOAD DUP1 SWAP2 SUB SWAP1 REVERT JUMPDEST ADDRESS PUSH20 0xFFFFFFFFFFFFFFFFFFFFFFFFFFFFFFFFFFFFFFFF AND PUSH4 0x5867F3A8 CALLER DUP7 DUP7 DUP7 PUSH1 0x40 MLOAD DUP6 PUSH4 0xFFFFFFFF AND PUSH1 0xE0 SHL DUP2 MSTORE PUSH1 0x4 ADD PUSH2 0x72F SWAP5 SWAP4 SWAP3 SWAP2 SWAP1 PUSH2 0x2D0A JUMP JUMPDEST PUSH1 0x20 PUSH1 0x40 MLOAD DUP1 DUP4 SUB DUP2 DUP7 GAS STATICCALL ISZERO DUP1 ISZERO PUSH2 0x74A JUMPI RETURNDATASIZE PUSH0 DUP1 RETURNDATACOPY RETURNDATASIZE PUSH0 REVERT JUMPDEST POP POP POP POP PUSH1 0x40 MLOAD RETURNDATASIZE PUSH1 0x1F NOT PUSH1 0x1F DUP3 ADD AND DUP3 ADD DUP1 PUSH1 0x40 MSTORE POP DUP2 ADD SWAP1 PUSH2 0x76E SWAP2 SWAP1 PUSH2 0x2D7E JUMP JUMPDEST PUSH2 0x7AD JUMPI PUSH1 0x40 MLOAD PUSH32 0x8C379A000000000000000000000000000000000000000000000000000000000 DUP2 MSTORE PUSH1 0x4 ADD PUSH2 0x7A4 SWAP1 PUSH2 0x2DF3 JUMP JUMPDEST PUSH1 0x40 MLOAD DUP1 SWAP2 SUB SWAP1 REVERT JUMPDEST PUSH0 ADDRESS PUSH20 0xFFFFFFFFFFFFFFFFFFFFFFFFFFFFFFFFFFFFFFFF AND PUSH4 0xB6C00A82 DUP7 PUSH1 0x40 MLOAD DUP3 PUSH4 0xFFFFFFFF AND PUSH1 0xE0 SHL DUP2 MSTORE PUSH1 0x4 ADD PUSH2 0x7E7 SWAP2 SWAP1 PUSH2 0x2BF8 JUMP JUMPDEST PUSH1 0x20 PUSH1 0x40 MLOAD DUP1 DUP4 SUB DUP2 DUP7 GAS STATICCALL ISZERO DUP1 ISZERO PUSH2 0x802 JUMPI RETURNDATASIZE PUSH0 DUP1 RETURNDATACOPY RETURNDATASIZE PUSH0 REVERT JUMPDEST POP POP POP POP PUSH1 0x40 MLOAD RETURNDATASIZE PUSH1 0x1F NOT PUSH1 0x1F DUP3 ADD AND DUP3 ADD DUP1 PUSH1 0x40 MSTORE POP DUP2 ADD SWAP1 PUSH2 0x826 SWAP2 SWAP1 PUSH2 0x2C25 JUMP JUMPDEST SWAP1 POP PUSH0 ADDRESS PUSH20 0xFFFFFFFFFFFFFFFFFFFFFFFFFFFFFFFFFFFFFFFF AND PUSH4 0x1E7FD268 DUP8 PUSH1 0x40 MLOAD DUP3 PUSH4 0xFFFFFFFF AND PUSH1 0xE0 SHL DUP2 MSTORE PUSH1 0x4 ADD PUSH2 0x862 SWAP2 SWAP1 PUSH2 0x2BF8 JUMP JUMPDEST PUSH1 0x20 PUSH1 0x40 MLOAD DUP1 DUP4 SUB DUP2 DUP7 GAS STATICCALL ISZERO DUP1 ISZERO PUSH2 0x87D JUMPI RETURNDATASIZE PUSH0 DUP1 RETURNDATACOPY RETURNDATASIZE PUSH0 REVERT JUMPDEST POP POP POP POP PUSH1 0x40 MLOAD RETURNDATASIZE PUSH1 0x1F NOT PUSH1 0x1F DUP3 ADD AND DUP3 ADD DUP1 PUSH1 0x40 MSTORE POP DUP2 ADD SWAP1 PUSH2 0x8A1 SWAP2 SWAP1 PUSH2 0x2E25 JUMP JUMPDEST SWAP1 POP PUSH0 DUP2 PUSH20 0xFFFFFFFFFFFFFFFFFFFFFFFFFFFFFFFFFFFFFFFF AND DUP4 PUSH1 0x40 MLOAD PUSH2 0x8C8 SWAP1 PUSH2 0x2E7D JUMP JUMPDEST PUSH0 PUSH1 0x40 MLOAD DUP1 DUP4 SUB DUP2 DUP6 DUP8 GAS CALL SWAP3 POP POP POP RETURNDATASIZE DUP1 PUSH0 DUP2 EQ PUSH2 0x902 JUMPI PUSH1 0x40 MLOAD SWAP2 POP PUSH1 0x1F NOT PUSH1 0x3F RETURNDATASIZE ADD AND DUP3 ADD PUSH1 0x40 MSTORE RETURNDATASIZE DUP3 MSTORE RETURNDATASIZE PUSH0 PUSH1 0x20 DUP5 ADD RETURNDATACOPY PUSH2 0x907 JUMP JUMPDEST PUSH1 0x60 SWAP2 POP JUMPDEST POP POP SWAP1 POP DUP1 PUSH2 0x94B JUMPI PUSH1 0x40 MLOAD PUSH32 0x8C379A000000000000000000000000000000000000000000000000000000000 DUP2 MSTORE PUSH1 0x4 ADD PUSH2 0x942 SWAP1 PUSH2 0x2EDB JUMP JUMPDEST PUSH1 0x40 MLOAD DUP1 SWAP2 SUB SWAP1 REVERT JUMPDEST TIMESTAMP PUSH1 0xA PUSH0 DUP10 DUP2 MSTORE PUSH1 0x20 ADD SWAP1 DUP2 MSTORE PUSH1 0x20 ADD PUSH0 KECCAK256 PUSH0 CALLER PUSH20 0xFFFFFFFFFFFFFFFFFFFFFFFFFFFFFFFFFFFFFFFF AND PUSH20 0xFFFFFFFFFFFFFFFFFFFFFFFFFFFFFFFFFFFFFFFF AND DUP2 MSTORE PUSH1 0x20 ADD SWAP1 DUP2 MSTORE PUSH1 0x20 ADD PUSH0 KECCAK256 DUP2 SWAP1 SSTORE POP POP POP POP POP POP POP POP JUMP JUMPDEST PUSH1 0x40 MLOAD DUP1 PUSH1 0xA0 ADD PUSH1 0x40 MSTORE DUP1 PUSH1 0x68 DUP2 MSTORE PUSH1 0x20 ADD PUSH2 0x3A2A PUSH1 0x68 SWAP2 CODECOPY DUP2 JUMP JUMPDEST PUSH0 DUP2 PUSH1 0x6 PUSH0 DUP3 DUP2 MSTORE PUSH1 0x20 ADD SWAP1 DUP2 MSTORE PUSH1 0x20 ADD PUSH0 KECCAK256 PUSH0 SWAP1 SLOAD SWAP1 PUSH2 0x100 EXP SWAP1 DIV PUSH1 0xFF AND PUSH2 0xA20 JUMPI PUSH1 0x40 MLOAD PUSH32 0x8C379A000000000000000000000000000000000000000000000000000000000 DUP2 MSTORE PUSH1 0x4 ADD PUSH2 0xA17 SWAP1 PUSH2 0x2BCB JUMP JUMPDEST PUSH1 0x40 MLOAD DUP1 SWAP2 SUB SWAP1 REVERT JUMPDEST PUSH1 0x2 PUSH1 0x7 PUSH0 DUP6 DUP2 MSTORE PUSH1 0x20 ADD SWAP1 DUP2 MSTORE PUSH1 0x20 ADD PUSH0 KECCAK256 PUSH1 0x40 MLOAD PUSH2 0xA40 SWAP2 SWAP1 PUSH2 0x2FF2 JUMP JUMPDEST SWAP1 DUP2 MSTORE PUSH1 0x20 ADD PUSH1 0x40 MLOAD DUP1 SWAP2 SUB SWAP1 KECCAK256 PUSH0 SWAP1 SLOAD SWAP1 PUSH2 0x100 EXP SWAP1 DIV PUSH20 0xFFFFFFFFFFFFFFFFFFFFFFFFFFFFFFFFFFFFFFFF AND SWAP2 POP POP SWAP2 SWAP1 POP JUMP JUMPDEST PUSH0 DUP3 PUSH1 0x40 MLOAD DUP1 PUSH1 0xA0 ADD PUSH1 0x40 MSTORE DUP1 PUSH1 0x68 DUP2 MSTORE PUSH1 0x20 ADD PUSH2 0x39C2 PUSH1 0x68 SWAP2 CODECOPY DUP4 PUSH1 0x40 MLOAD PUSH1 0x20 ADD PUSH2 0xAA4 SWAP4 SWAP3 SWAP2 SWAP1 PUSH2 0x3058 JUMP JUMPDEST PUSH1 0x40 MLOAD PUSH1 0x20 DUP2 DUP4 SUB SUB DUP2 MSTORE SWAP1 PUSH1 0x40 MSTORE DUP1 MLOAD SWAP1 PUSH1 0x20 ADD KECCAK256 SWAP1 POP SWAP3 SWAP2 POP POP JUMP JUMPDEST PUSH1 0x60 DUP2 PUSH1 0x6 PUSH0 DUP3 DUP2 MSTORE PUSH1 0x20 ADD SWAP1 DUP2 MSTORE PUSH1 0x20 ADD PUSH0 KECCAK256 PUSH0 SWAP1 SLOAD SWAP1 PUSH2 0x100 EXP SWAP1 DIV PUSH1 0xFF AND PUSH2 0xB22 JUMPI PUSH1 0x40 MLOAD PUSH32 0x8C379A000000000000000000000000000000000000000000000000000000000 DUP2 MSTORE PUSH1 0x4 ADD PUSH2 0xB19 SWAP1 PUSH2 0x2BCB JUMP JUMPDEST PUSH1 0x40 MLOAD DUP1 SWAP2 SUB SWAP1 REVERT JUMPDEST PUSH1 0x7 PUSH0 DUP5 DUP2 MSTORE PUSH1 0x20 ADD SWAP1 DUP2 MSTORE PUSH1 0x20 ADD PUSH0 KECCAK256 DUP1 SLOAD PUSH2 0xB3E SWAP1 PUSH2 0x2F26 JUMP JUMPDEST DUP1 PUSH1 0x1F ADD PUSH1 0x20 DUP1 SWAP2 DIV MUL PUSH1 0x20 ADD PUSH1 0x40 MLOAD SWAP1 DUP2 ADD PUSH1 0x40 MSTORE DUP1 SWAP3 SWAP2 SWAP1 DUP2 DUP2 MSTORE PUSH1 0x20 ADD DUP3 DUP1 SLOAD PUSH2 0xB6A SWAP1 PUSH2 0x2F26 JUMP JUMPDEST DUP1 ISZERO PUSH2 0xBB5 JUMPI DUP1 PUSH1 0x1F LT PUSH2 0xB8C JUMPI PUSH2 0x100 DUP1 DUP4 SLOAD DIV MUL DUP4 MSTORE SWAP2 PUSH1 0x20 ADD SWAP2 PUSH2 0xBB5 JUMP JUMPDEST DUP3 ADD SWAP2 SWAP1 PUSH0 MSTORE PUSH1 0x20 PUSH0 KECCAK256 SWAP1 JUMPDEST DUP2 SLOAD DUP2 MSTORE SWAP1 PUSH1 0x1 ADD SWAP1 PUSH1 0x20 ADD DUP1 DUP4 GT PUSH2 0xB98 JUMPI DUP3 SWAP1 SUB PUSH1 0x1F AND DUP3 ADD SWAP2 JUMPDEST POP POP POP POP POP SWAP2 POP POP SWAP2 SWAP1 POP JUMP JUMPDEST PUSH1 0x60 DUP3 PUSH0 PUSH20 0xFFFFFFFFFFFFFFFFFFFFFFFFFFFFFFFFFFFFFFFF AND PUSH1 0x2 DUP3 PUSH1 0x40 MLOAD PUSH2 0xBEC SWAP2 SWAP1 PUSH2 0x308C JUMP JUMPDEST SWAP1 DUP2 MSTORE PUSH1 0x20 ADD PUSH1 0x40 MLOAD DUP1 SWAP2 SUB SWAP1 KECCAK256 PUSH0 SWAP1 SLOAD SWAP1 PUSH2 0x100 EXP SWAP1 DIV PUSH20 0xFFFFFFFFFFFFFFFFFFFFFFFFFFFFFFFFFFFFFFFF AND PUSH20 0xFFFFFFFFFFFFFFFFFFFFFFFFFFFFFFFFFFFFFFFF AND SUB PUSH2 0xC70 JUMPI PUSH1 0x40 MLOAD PUSH32 0x8C379A000000000000000000000000000000000000000000000000000000000 DUP2 MSTORE PUSH1 0x4 ADD PUSH2 0xC67 SWAP1 PUSH2 0x30EC JUMP JUMPDEST PUSH1 0x40 MLOAD DUP1 SWAP2 SUB SWAP1 REVERT JUMPDEST PUSH0 PUSH1 0x3 DUP6 PUSH1 0x40 MLOAD PUSH2 0xC81 SWAP2 SWAP1 PUSH2 0x308C JUMP JUMPDEST SWAP1 DUP2 MSTORE PUSH1 0x20 ADD PUSH1 0x40 MLOAD DUP1 SWAP2 SUB SWAP1 KECCAK256 SLOAD PUSH8 0xFFFFFFFFFFFFFFFF DUP2 GT ISZERO PUSH2 0xCA9 JUMPI PUSH2 0xCA8 PUSH2 0x2088 JUMP JUMPDEST JUMPDEST PUSH1 0x40 MLOAD SWAP1 DUP1 DUP3 MSTORE DUP1 PUSH1 0x20 MUL PUSH1 0x20 ADD DUP3 ADD PUSH1 0x40 MSTORE DUP1 ISZERO PUSH2 0xCD7 JUMPI DUP2 PUSH1 0x20 ADD PUSH1 0x20 DUP3 MUL DUP1 CALLDATASIZE DUP4 CALLDATACOPY DUP1 DUP3 ADD SWAP2 POP POP SWAP1 POP JUMPDEST POP SWAP1 POP PUSH0 JUMPDEST PUSH1 0x3 DUP7 PUSH1 0x40 MLOAD PUSH2 0xCEC SWAP2 SWAP1 PUSH2 0x308C JUMP JUMPDEST SWAP1 DUP2 MSTORE PUSH1 0x20 ADD PUSH1 0x40 MLOAD DUP1 SWAP2 SUB SWAP1 KECCAK256 SLOAD DUP2 LT ISZERO PUSH2 0xDB5 JUMPI PUSH0 PUSH1 0x4 DUP8 PUSH1 0x40 MLOAD PUSH2 0xD13 SWAP2 SWAP1 PUSH2 0x308C JUMP JUMPDEST SWAP1 DUP2 MSTORE PUSH1 0x20 ADD PUSH1 0x40 MLOAD DUP1 SWAP2 SUB SWAP1 KECCAK256 PUSH0 DUP4 DUP2 MSTORE PUSH1 0x20 ADD SWAP1 DUP2 MSTORE PUSH1 0x20 ADD PUSH0 KECCAK256 SLOAD SWAP1 POP PUSH0 PUSH1 0xA PUSH0 DUP4 DUP2 MSTORE PUSH1 0x20 ADD SWAP1 DUP2 MSTORE PUSH1 0x20 ADD PUSH0 KECCAK256 PUSH0 DUP9 PUSH20 0xFFFFFFFFFFFFFFFFFFFFFFFFFFFFFFFFFFFFFFFF AND PUSH20 0xFFFFFFFFFFFFFFFFFFFFFFFFFFFFFFFFFFFFFFFF AND DUP2 MSTORE PUSH1 0x20 ADD SWAP1 DUP2 MSTORE PUSH1 0x20 ADD PUSH0 KECCAK256 SLOAD EQ PUSH2 0xDA7 JUMPI DUP1 DUP4 DUP4 DUP2 MLOAD DUP2 LT PUSH2 0xD9A JUMPI PUSH2 0xD99 PUSH2 0x310A JUMP JUMPDEST JUMPDEST PUSH1 0x20 MUL PUSH1 0x20 ADD ADD DUP2 DUP2 MSTORE POP POP JUMPDEST POP DUP1 DUP1 PUSH1 0x1 ADD SWAP2 POP POP PUSH2 0xCDC JUMP JUMPDEST POP DUP1 SWAP3 POP POP POP SWAP3 SWAP2 POP POP JUMP JUMPDEST CALLER PUSH20 0xFFFFFFFFFFFFFFFFFFFFFFFFFFFFFFFFFFFFFFFF AND PUSH0 DUP1 SLOAD SWAP1 PUSH2 0x100 EXP SWAP1 DIV PUSH20 0xFFFFFFFFFFFFFFFFFFFFFFFFFFFFFFFFFFFFFFFF AND PUSH20 0xFFFFFFFFFFFFFFFFFFFFFFFFFFFFFFFFFFFFFFFF AND EQ PUSH2 0xE4E JUMPI PUSH1 0x40 MLOAD PUSH32 0x8C379A000000000000000000000000000000000000000000000000000000000 DUP2 MSTORE PUSH1 0x4 ADD PUSH2 0xE45 SWAP1 PUSH2 0x3181 JUMP JUMPDEST PUSH1 0x40 MLOAD DUP1 SWAP2 SUB SWAP1 REVERT JUMPDEST PUSH1 0x1 DUP1 PUSH0 DUP4 PUSH20 0xFFFFFFFFFFFFFFFFFFFFFFFFFFFFFFFFFFFFFFFF AND PUSH20 0xFFFFFFFFFFFFFFFFFFFFFFFFFFFFFFFFFFFFFFFF AND DUP2 MSTORE PUSH1 0x20 ADD SWAP1 DUP2 MSTORE PUSH1 0x20 ADD PUSH0 KECCAK256 PUSH0 PUSH2 0x100 EXP DUP2 SLOAD DUP2 PUSH1 0xFF MUL NOT AND SWAP1 DUP4 ISZERO ISZERO MUL OR SWAP1 SSTORE POP POP JUMP JUMPDEST PUSH0 DUP1 PUSH2 0xEB1 DUP6 DUP6 PUSH2 0x1172 JUMP JUMPDEST SWAP1 POP PUSH0 PUSH2 0xEBD DUP3 PUSH2 0x1C7C JUMP JUMPDEST SWAP1 POP DUP7 PUSH20 0xFFFFFFFFFFFFFFFFFFFFFFFFFFFFFFFFFFFFFFFF AND PUSH2 0xEE0 DUP3 DUP7 PUSH2 0x177A JUMP JUMPDEST PUSH20 0xFFFFFFFFFFFFFFFFFFFFFFFFFFFFFFFFFFFFFFFF AND EQ SWAP3 POP POP POP SWAP5 SWAP4 POP POP POP POP JUMP JUMPDEST PUSH1 0x40 MLOAD DUP1 PUSH1 0xA0 ADD PUSH1 0x40 MSTORE DUP1 PUSH1 0x68 DUP2 MSTORE PUSH1 0x20 ADD PUSH2 0x39C2 PUSH1 0x68 SWAP2 CODECOPY DUP2 JUMP JUMPDEST DUP4 PUSH0 PUSH20 0xFFFFFFFFFFFFFFFFFFFFFFFFFFFFFFFFFFFFFFFF AND PUSH1 0x2 DUP3 PUSH1 0x40 MLOAD PUSH2 0xF47 SWAP2 SWAP1 PUSH2 0x308C JUMP JUMPDEST SWAP1 DUP2 MSTORE PUSH1 0x20 ADD PUSH1 0x40 MLOAD DUP1 SWAP2 SUB SWAP1 KECCAK256 PUSH0 SWAP1 SLOAD SWAP1 PUSH2 0x100 EXP SWAP1 DIV PUSH20 0xFFFFFFFFFFFFFFFFFFFFFFFFFFFFFFFFFFFFFFFF AND PUSH20 0xFFFFFFFFFFFFFFFFFFFFFFFFFFFFFFFFFFFFFFFF AND SUB PUSH2 0xFCB JUMPI PUSH1 0x40 MLOAD PUSH32 0x8C379A000000000000000000000000000000000000000000000000000000000 DUP2 MSTORE PUSH1 0x4 ADD PUSH2 0xFC2 SWAP1 PUSH2 0x30EC JUMP JUMPDEST PUSH1 0x40 MLOAD DUP1 SWAP2 SUB SWAP1 REVERT JUMPDEST DUP4 PUSH1 0x1 PUSH0 DUP3 PUSH20 0xFFFFFFFFFFFFFFFFFFFFFFFFFFFFFFFFFFFFFFFF AND PUSH20 0xFFFFFFFFFFFFFFFFFFFFFFFFFFFFFFFFFFFFFFFF AND DUP2 MSTORE PUSH1 0x20 ADD SWAP1 DUP2 MSTORE PUSH1 0x20 ADD PUSH0 KECCAK256 PUSH0 SWAP1 SLOAD SWAP1 PUSH2 0x100 EXP SWAP1 DIV PUSH1 0xFF AND PUSH2 0x1055 JUMPI PUSH1 0x40 MLOAD PUSH32 0x8C379A000000000000000000000000000000000000000000000000000000000 DUP2 MSTORE PUSH1 0x4 ADD PUSH2 0x104C SWAP1 PUSH2 0x2BCB JUMP JUMPDEST PUSH1 0x40 MLOAD DUP1 SWAP2 SUB SWAP1 REVERT JUMPDEST CALLER PUSH20 0xFFFFFFFFFFFFFFFFFFFFFFFFFFFFFFFFFFFFFFFF AND PUSH1 0x2 DUP8 PUSH1 0x40 MLOAD PUSH2 0x107C SWAP2 SWAP1 PUSH2 0x308C JUMP JUMPDEST SWAP1 DUP2 MSTORE PUSH1 0x20 ADD PUSH1 0x40 MLOAD DUP1 SWAP2 SUB SWAP1 KECCAK256 PUSH0 SWAP1 SLOAD SWAP1 PUSH2 0x100 EXP SWAP1 DIV PUSH20 0xFFFFFFFFFFFFFFFFFFFFFFFFFFFFFFFFFFFFFFFF AND PUSH20 0xFFFFFFFFFFFFFFFFFFFFFFFFFFFFFFFFFFFFFFFF AND EQ PUSH2 0x1100 JUMPI PUSH1 0x40 MLOAD PUSH32 0x8C379A000000000000000000000000000000000000000000000000000000000 DUP2 MSTORE PUSH1 0x4 ADD PUSH2 0x10F7 SWAP1 PUSH2 0x31E9 JUMP JUMPDEST PUSH1 0x40 MLOAD DUP1 SWAP2 SUB SWAP1 REVERT JUMPDEST PUSH1 0x5 PUSH0 DUP5 DUP2 MSTORE PUSH1 0x20 ADD SWAP1 DUP2 MSTORE PUSH1 0x20 ADD PUSH0 KECCAK256 PUSH0 SWAP1 SLOAD SWAP1 PUSH2 0x100 EXP SWAP1 DIV PUSH1 0xFF AND ISZERO PUSH2 0x115E JUMPI PUSH1 0x40 MLOAD PUSH32 0x8C379A000000000000000000000000000000000000000000000000000000000 DUP2 MSTORE PUSH1 0x4 ADD PUSH2 0x1155 SWAP1 PUSH2 0x3251 JUMP JUMPDEST PUSH1 0x40 MLOAD DUP1 SWAP2 SUB SWAP1 REVERT JUMPDEST PUSH2 0x116A DUP7 DUP7 DUP7 DUP7 PUSH2 0x1EA2 JUMP JUMPDEST POP POP POP POP POP POP JUMP JUMPDEST PUSH0 DUP3 PUSH1 0x40 MLOAD DUP1 PUSH1 0xA0 ADD PUSH1 0x40 MSTORE DUP1 PUSH1 0x68 DUP2 MSTORE PUSH1 0x20 ADD PUSH2 0x3A2A PUSH1 0x68 SWAP2 CODECOPY DUP4 PUSH1 0x40 MLOAD PUSH1 0x20 ADD PUSH2 0x11A0 SWAP4 SWAP3 SWAP2 SWAP1 PUSH2 0x3286 JUMP JUMPDEST PUSH1 0x40 MLOAD PUSH1 0x20 DUP2 DUP4 SUB SUB DUP2 MSTORE SWAP1 PUSH1 0x40 MSTORE DUP1 MLOAD SWAP1 PUSH1 0x20 ADD KECCAK256 SWAP1 POP SWAP3 SWAP2 POP POP JUMP JUMPDEST CALLER PUSH20 0xFFFFFFFFFFFFFFFFFFFFFFFFFFFFFFFFFFFFFFFF AND PUSH0 DUP1 SLOAD SWAP1 PUSH2 0x100 EXP SWAP1 DIV PUSH20 0xFFFFFFFFFFFFFFFFFFFFFFFFFFFFFFFFFFFFFFFF AND PUSH20 0xFFFFFFFFFFFFFFFFFFFFFFFFFFFFFFFFFFFFFFFF AND EQ PUSH2 0x124B JUMPI PUSH1 0x40 MLOAD PUSH32 0x8C379A000000000000000000000000000000000000000000000000000000000 DUP2 MSTORE PUSH1 0x4 ADD PUSH2 0x1242 SWAP1 PUSH2 0x3181 JUMP JUMPDEST PUSH1 0x40 MLOAD DUP1 SWAP2 SUB SWAP1 REVERT JUMPDEST PUSH0 DUP5 SWAP1 POP PUSH0 DUP2 MLOAD GT PUSH2 0x1292 JUMPI PUSH1 0x40 MLOAD PUSH32 0x8C379A000000000000000000000000000000000000000000000000000000000 DUP2 MSTORE PUSH1 0x4 ADD PUSH2 0x1289 SWAP1 PUSH2 0x3308 JUMP JUMPDEST PUSH1 0x40 MLOAD DUP1 SWAP2 SUB SWAP1 REVERT JUMPDEST ADDRESS PUSH20 0xFFFFFFFFFFFFFFFFFFFFFFFFFFFFFFFFFFFFFFFF AND PUSH4 0x96FCC1AE DUP6 DUP8 DUP7 DUP7 PUSH1 0x40 MLOAD DUP6 PUSH4 0xFFFFFFFF AND PUSH1 0xE0 SHL DUP2 MSTORE PUSH1 0x4 ADD PUSH2 0x12D1 SWAP5 SWAP4 SWAP3 SWAP2 SWAP1 PUSH2 0x3378 JUMP JUMPDEST PUSH1 0x20 PUSH1 0x40 MLOAD DUP1 DUP4 SUB DUP2 DUP7 GAS STATICCALL ISZERO DUP1 ISZERO PUSH2 0x12EC JUMPI RETURNDATASIZE PUSH0 DUP1 RETURNDATACOPY RETURNDATASIZE PUSH0 REVERT JUMPDEST POP POP POP POP PUSH1 0x40 MLOAD RETURNDATASIZE PUSH1 0x1F NOT PUSH1 0x1F DUP3 ADD AND DUP3 ADD DUP1 PUSH1 0x40 MSTORE POP DUP2 ADD SWAP1 PUSH2 0x1310 SWAP2 SWAP1 PUSH2 0x2D7E JUMP JUMPDEST PUSH2 0x134F JUMPI PUSH1 0x40 MLOAD PUSH32 0x8C379A000000000000000000000000000000000000000000000000000000000 DUP2 MSTORE PUSH1 0x4 ADD PUSH2 0x1346 SWAP1 PUSH2 0x3413 JUMP JUMPDEST PUSH1 0x40 MLOAD DUP1 SWAP2 SUB SWAP1 REVERT JUMPDEST PUSH0 PUSH20 0xFFFFFFFFFFFFFFFFFFFFFFFFFFFFFFFFFFFFFFFF AND PUSH1 0x2 DUP7 PUSH1 0x40 MLOAD PUSH2 0x1376 SWAP2 SWAP1 PUSH2 0x308C JUMP JUMPDEST SWAP1 DUP2 MSTORE PUSH1 0x20 ADD PUSH1 0x40 MLOAD DUP1 SWAP2 SUB SWAP1 KECCAK256 PUSH0 SWAP1 SLOAD SWAP1 PUSH2 0x100 EXP SWAP1 DIV PUSH20 0xFFFFFFFFFFFFFFFFFFFFFFFFFFFFFFFFFFFFFFFF AND PUSH20 0xFFFFFFFFFFFFFFFFFFFFFFFFFFFFFFFFFFFFFFFF AND SUB PUSH2 0x141C JUMPI DUP4 PUSH1 0x2 DUP7 PUSH1 0x40 MLOAD PUSH2 0x13D0 SWAP2 SWAP1 PUSH2 0x308C JUMP JUMPDEST SWAP1 DUP2 MSTORE PUSH1 0x20 ADD PUSH1 0x40 MLOAD DUP1 SWAP2 SUB SWAP1 KECCAK256 PUSH0 PUSH2 0x100 EXP DUP2 SLOAD DUP2 PUSH20 0xFFFFFFFFFFFFFFFFFFFFFFFFFFFFFFFFFFFFFFFF MUL NOT AND SWAP1 DUP4 PUSH20 0xFFFFFFFFFFFFFFFFFFFFFFFFFFFFFFFFFFFFFFFF AND MUL OR SWAP1 SSTORE POP JUMPDEST POP POP POP POP POP JUMP JUMPDEST PUSH0 DUP1 PUSH2 0x142F DUP6 DUP6 PUSH2 0xA76 JUMP JUMPDEST SWAP1 POP PUSH0 PUSH2 0x143B DUP3 PUSH2 0x1C7C JUMP JUMPDEST SWAP1 POP DUP7 PUSH20 0xFFFFFFFFFFFFFFFFFFFFFFFFFFFFFFFFFFFFFFFF AND PUSH2 0x145E DUP3 DUP7 PUSH2 0x177A JUMP JUMPDEST PUSH20 0xFFFFFFFFFFFFFFFFFFFFFFFFFFFFFFFFFFFFFFFF AND EQ SWAP3 POP POP POP SWAP5 SWAP4 POP POP POP POP JUMP JUMPDEST PUSH1 0x60 DUP3 PUSH1 0x6 PUSH0 DUP3 DUP2 MSTORE PUSH1 0x20 ADD SWAP1 DUP2 MSTORE PUSH1 0x20 ADD PUSH0 KECCAK256 PUSH0 SWAP1 SLOAD SWAP1 PUSH2 0x100 EXP SWAP1 DIV PUSH1 0xFF AND PUSH2 0x14E1 JUMPI PUSH1 0x40 MLOAD PUSH32 0x8C379A000000000000000000000000000000000000000000000000000000000 DUP2 MSTORE PUSH1 0x4 ADD PUSH2 0x14D8 SWAP1 PUSH2 0x2BCB JUMP JUMPDEST PUSH1 0x40 MLOAD DUP1 SWAP2 SUB SWAP1 REVERT JUMPDEST PUSH0 PUSH1 0xA PUSH0 DUP7 DUP2 MSTORE PUSH1 0x20 ADD SWAP1 DUP2 MSTORE PUSH1 0x20 ADD PUSH0 KECCAK256 PUSH0 DUP6 PUSH20 0xFFFFFFFFFFFFFFFFFFFFFFFFFFFFFFFFFFFFFFFF AND PUSH20 0xFFFFFFFFFFFFFFFFFFFFFFFFFFFFFFFFFFFFFFFF AND DUP2 MSTORE PUSH1 0x20 ADD SWAP1 DUP2 MSTORE PUSH1 0x20 ADD PUSH0 KECCAK256 SLOAD SUB PUSH2 0x156F JUMPI PUSH1 0x40 MLOAD PUSH32 0x8C379A000000000000000000000000000000000000000000000000000000000 DUP2 MSTORE PUSH1 0x4 ADD PUSH2 0x1566 SWAP1 PUSH2 0x347B JUMP JUMPDEST PUSH1 0x40 MLOAD DUP1 SWAP2 SUB SWAP1 REVERT JUMPDEST PUSH0 PUSH1 0x7 PUSH0 DUP7 DUP2 MSTORE PUSH1 0x20 ADD SWAP1 DUP2 MSTORE PUSH1 0x20 ADD PUSH0 KECCAK256 DUP1 SLOAD PUSH2 0x158C SWAP1 PUSH2 0x2F26 JUMP JUMPDEST DUP1 PUSH1 0x1F ADD PUSH1 0x20 DUP1 SWAP2 DIV MUL PUSH1 0x20 ADD PUSH1 0x40 MLOAD SWAP1 DUP2 ADD PUSH1 0x40 MSTORE DUP1 SWAP3 SWAP2 SWAP1 DUP2 DUP2 MSTORE PUSH1 0x20 ADD DUP3 DUP1 SLOAD PUSH2 0x15B8 SWAP1 PUSH2 0x2F26 JUMP JUMPDEST DUP1 ISZERO PUSH2 0x1603 JUMPI DUP1 PUSH1 0x1F LT PUSH2 0x15DA JUMPI PUSH2 0x100 DUP1 DUP4 SLOAD DIV MUL DUP4 MSTORE SWAP2 PUSH1 0x20 ADD SWAP2 PUSH2 0x1603 JUMP JUMPDEST DUP3 ADD SWAP2 SWAP1 PUSH0 MSTORE PUSH1 0x20 PUSH0 KECCAK256 SWAP1 JUMPDEST DUP2 SLOAD DUP2 MSTORE SWAP1 PUSH1 0x1 ADD SWAP1 PUSH1 0x20 ADD DUP1 DUP4 GT PUSH2 0x15E6 JUMPI DUP3 SWAP1 SUB PUSH1 0x1F AND DUP3 ADD SWAP2 JUMPDEST POP POP POP POP POP SWAP1 POP PUSH0 PUSH1 0x2 DUP3 PUSH1 0x40 MLOAD PUSH2 0x161B SWAP2 SWAP1 PUSH2 0x308C JUMP JUMPDEST SWAP1 DUP2 MSTORE PUSH1 0x20 ADD PUSH1 0x40 MLOAD DUP1 SWAP2 SUB SWAP1 KECCAK256 PUSH0 SWAP1 SLOAD SWAP1 PUSH2 0x100 EXP SWAP1 DIV PUSH20 0xFFFFFFFFFFFFFFFFFFFFFFFFFFFFFFFFFFFFFFFF AND SWAP1 POP PUSH0 PUSH1 0x9 PUSH0 DUP9 DUP2 MSTORE PUSH1 0x20 ADD SWAP1 DUP2 MSTORE PUSH1 0x20 ADD PUSH0 KECCAK256 PUSH0 SWAP1 SLOAD SWAP1 PUSH2 0x100 EXP SWAP1 DIV PUSH20 0xFFFFFFFFFFFFFFFFFFFFFFFFFFFFFFFFFFFFFFFF AND SWAP1 POP PUSH0 PUSH1 0x8 PUSH0 DUP10 DUP2 MSTORE PUSH1 0x20 ADD SWAP1 DUP2 MSTORE PUSH1 0x20 ADD PUSH0 KECCAK256 SLOAD SWAP1 POP PUSH0 PUSH1 0xA PUSH0 DUP11 DUP2 MSTORE PUSH1 0x20 ADD SWAP1 DUP2 MSTORE PUSH1 0x20 ADD PUSH0 KECCAK256 PUSH0 DUP10 PUSH20 0xFFFFFFFFFFFFFFFFFFFFFFFFFFFFFFFFFFFFFFFF AND PUSH20 0xFFFFFFFFFFFFFFFFFFFFFFFFFFFFFFFFFFFFFFFF AND DUP2 MSTORE PUSH1 0x20 ADD SWAP1 DUP2 MSTORE PUSH1 0x20 ADD PUSH0 KECCAK256 SLOAD SWAP1 POP PUSH0 DUP4 SWAP1 POP DUP1 PUSH20 0xFFFFFFFFFFFFFFFFFFFFFFFFFFFFFFFFFFFFFFFF AND PUSH4 0x483CED98 DUP8 DUP8 DUP13 DUP8 DUP8 PUSH1 0x40 MLOAD DUP7 PUSH4 0xFFFFFFFF AND PUSH1 0xE0 SHL DUP2 MSTORE PUSH1 0x4 ADD PUSH2 0x1729 SWAP6 SWAP5 SWAP4 SWAP3 SWAP2 SWAP1 PUSH2 0x3499 JUMP JUMPDEST PUSH0 PUSH1 0x40 MLOAD DUP1 DUP4 SUB DUP2 DUP7 GAS STATICCALL ISZERO DUP1 ISZERO PUSH2 0x1743 JUMPI RETURNDATASIZE PUSH0 DUP1 RETURNDATACOPY RETURNDATASIZE PUSH0 REVERT JUMPDEST POP POP POP POP PUSH1 0x40 MLOAD RETURNDATASIZE PUSH0 DUP3 RETURNDATACOPY RETURNDATASIZE PUSH1 0x1F NOT PUSH1 0x1F DUP3 ADD AND DUP3 ADD DUP1 PUSH1 0x40 MSTORE POP DUP2 ADD SWAP1 PUSH2 0x176B SWAP2 SWAP1 PUSH2 0x355F JUMP JUMPDEST SWAP8 POP POP POP POP POP POP POP POP SWAP3 SWAP2 POP POP JUMP JUMPDEST PUSH0 DUP1 PUSH0 DUP1 PUSH2 0x1787 DUP6 PUSH2 0x1953 JUMP JUMPDEST SWAP3 POP SWAP3 POP SWAP3 POP PUSH1 0x1 DUP7 DUP3 DUP6 DUP6 PUSH1 0x40 MLOAD PUSH0 DUP2 MSTORE PUSH1 0x20 ADD PUSH1 0x40 MSTORE PUSH1 0x40 MLOAD PUSH2 0x17AF SWAP5 SWAP4 SWAP3 SWAP2 SWAP1 PUSH2 0x35A6 JUMP JUMPDEST PUSH1 0x20 PUSH1 0x40 MLOAD PUSH1 0x20 DUP2 SUB SWAP1 DUP1 DUP5 SUB SWAP1 DUP6 GAS STATICCALL ISZERO DUP1 ISZERO PUSH2 0x17CF JUMPI RETURNDATASIZE PUSH0 DUP1 RETURNDATACOPY RETURNDATASIZE PUSH0 REVERT JUMPDEST POP POP POP PUSH1 0x20 PUSH1 0x40 MLOAD SUB MLOAD SWAP4 POP POP POP POP SWAP3 SWAP2 POP POP JUMP JUMPDEST DUP1 PUSH1 0x6 PUSH0 DUP3 DUP2 MSTORE PUSH1 0x20 ADD SWAP1 DUP2 MSTORE PUSH1 0x20 ADD PUSH0 KECCAK256 PUSH0 SWAP1 SLOAD SWAP1 PUSH2 0x100 EXP SWAP1 DIV PUSH1 0xFF AND PUSH2 0x1842 JUMPI PUSH1 0x40 MLOAD PUSH32 0x8C379A000000000000000000000000000000000000000000000000000000000 DUP2 MSTORE PUSH1 0x4 ADD PUSH2 0x1839 SWAP1 PUSH2 0x2BCB JUMP JUMPDEST PUSH1 0x40 MLOAD DUP1 SWAP2 SUB SWAP1 REVERT JUMPDEST CALLER PUSH20 0xFFFFFFFFFFFFFFFFFFFFFFFFFFFFFFFFFFFFFFFF AND ADDRESS PUSH20 0xFFFFFFFFFFFFFFFFFFFFFFFFFFFFFFFFFFFFFFFF AND PUSH4 0x1E7FD268 DUP5 PUSH1 0x40 MLOAD DUP3 PUSH4 0xFFFFFFFF AND PUSH1 0xE0 SHL DUP2 MSTORE PUSH1 0x4 ADD PUSH2 0x1892 SWAP2 SWAP1 PUSH2 0x2BF8 JUMP JUMPDEST PUSH1 0x20 PUSH1 0x40 MLOAD DUP1 DUP4 SUB DUP2 DUP7 GAS STATICCALL ISZERO DUP1 ISZERO PUSH2 0x18AD JUMPI RETURNDATASIZE PUSH0 DUP1 RETURNDATACOPY RETURNDATASIZE PUSH0 REVERT JUMPDEST POP POP POP POP PUSH1 0x40 MLOAD RETURNDATASIZE PUSH1 0x1F NOT PUSH1 0x1F DUP3 ADD AND DUP3 ADD DUP1 PUSH1 0x40 MSTORE POP DUP2 ADD SWAP1 PUSH2 0x18D1 SWAP2 SWAP1 PUSH2 0x2E25 JUMP JUMPDEST PUSH20 0xFFFFFFFFFFFFFFFFFFFFFFFFFFFFFFFFFFFFFFFF AND EQ PUSH2 0x1927 JUMPI PUSH1 0x40 MLOAD PUSH32 0x8C379A000000000000000000000000000000000000000000000000000000000 DUP2 MSTORE PUSH1 0x4 ADD PUSH2 0x191E SWAP1 PUSH2 0x31E9 JUMP JUMPDEST PUSH1 0x40 MLOAD DUP1 SWAP2 SUB SWAP1 REVERT JUMPDEST PUSH0 PUSH1 0x6 PUSH0 DUP5 DUP2 MSTORE PUSH1 0x20 ADD SWAP1 DUP2 MSTORE PUSH1 0x20 ADD PUSH0 KECCAK256 PUSH0 PUSH2 0x100 EXP DUP2 SLOAD DUP2 PUSH1 0xFF MUL NOT AND SWAP1 DUP4 ISZERO ISZERO MUL OR SWAP1 SSTORE POP POP POP JUMP JUMPDEST PUSH0 DUP1 PUSH0 PUSH1 0x41 DUP5 MLOAD EQ PUSH2 0x199A JUMPI PUSH1 0x40 MLOAD PUSH32 0x8C379A000000000000000000000000000000000000000000000000000000000 DUP2 MSTORE PUSH1 0x4 ADD PUSH2 0x1991 SWAP1 PUSH2 0x3633 JUMP JUMPDEST PUSH1 0x40 MLOAD DUP1 SWAP2 SUB SWAP1 REVERT JUMPDEST PUSH1 0x20 DUP5 ADD MLOAD SWAP3 POP PUSH1 0x40 DUP5 ADD MLOAD SWAP2 POP PUSH1 0x60 DUP5 ADD MLOAD PUSH0 BYTE SWAP1 POP SWAP2 SWAP4 SWAP1 SWAP3 POP JUMP JUMPDEST PUSH0 DUP2 PUSH1 0x6 PUSH0 DUP3 DUP2 MSTORE PUSH1 0x20 ADD SWAP1 DUP2 MSTORE PUSH1 0x20 ADD PUSH0 KECCAK256 PUSH0 SWAP1 SLOAD SWAP1 PUSH2 0x100 EXP SWAP1 DIV PUSH1 0xFF AND PUSH2 0x1A17 JUMPI PUSH1 0x40 MLOAD PUSH32 0x8C379A000000000000000000000000000000000000000000000000000000000 DUP2 MSTORE PUSH1 0x4 ADD PUSH2 0x1A0E SWAP1 PUSH2 0x2BCB JUMP JUMPDEST PUSH1 0x40 MLOAD DUP1 SWAP2 SUB SWAP1 REVERT JUMPDEST PUSH1 0x9 PUSH0 DUP5 DUP2 MSTORE PUSH1 0x20 ADD SWAP1 DUP2 MSTORE PUSH1 0x20 ADD PUSH0 KECCAK256 PUSH0 SWAP1 SLOAD SWAP1 PUSH2 0x100 EXP SWAP1 DIV PUSH20 0xFFFFFFFFFFFFFFFFFFFFFFFFFFFFFFFFFFFFFFFF AND SWAP2 POP POP SWAP2 SWAP1 POP JUMP JUMPDEST PUSH0 DUP2 PUSH1 0x6 PUSH0 DUP3 DUP2 MSTORE PUSH1 0x20 ADD SWAP1 DUP2 MSTORE PUSH1 0x20 ADD PUSH0 KECCAK256 PUSH0 SWAP1 SLOAD SWAP1 PUSH2 0x100 EXP SWAP1 DIV PUSH1 0xFF AND PUSH2 0x1AAF JUMPI PUSH1 0x40 MLOAD PUSH32 0x8C379A000000000000000000000000000000000000000000000000000000000 DUP2 MSTORE PUSH1 0x4 ADD PUSH2 0x1AA6 SWAP1 PUSH2 0x2BCB JUMP JUMPDEST PUSH1 0x40 MLOAD DUP1 SWAP2 SUB SWAP1 REVERT JUMPDEST PUSH1 0x8 PUSH0 DUP5 DUP2 MSTORE PUSH1 0x20 ADD SWAP1 DUP2 MSTORE PUSH1 0x20 ADD PUSH0 KECCAK256 SLOAD SWAP2 POP POP SWAP2 SWAP1 POP JUMP JUMPDEST CALLER PUSH20 0xFFFFFFFFFFFFFFFFFFFFFFFFFFFFFFFFFFFFFFFF AND PUSH0 DUP1 SLOAD SWAP1 PUSH2 0x100 EXP SWAP1 DIV PUSH20 0xFFFFFFFFFFFFFFFFFFFFFFFFFFFFFFFFFFFFFFFF AND PUSH20 0xFFFFFFFFFFFFFFFFFFFFFFFFFFFFFFFFFFFFFFFF AND EQ PUSH2 0x1B56 JUMPI PUSH1 0x40 MLOAD PUSH32 0x8C379A000000000000000000000000000000000000000000000000000000000 DUP2 MSTORE PUSH1 0x4 ADD PUSH2 0x1B4D SWAP1 PUSH2 0x3181 JUMP JUMPDEST PUSH1 0x40 MLOAD DUP1 SWAP2 SUB SWAP1 REVERT JUMPDEST PUSH0 PUSH1 0x1 PUSH0 DUP4 PUSH20 0xFFFFFFFFFFFFFFFFFFFFFFFFFFFFFFFFFFFFFFFF AND PUSH20 0xFFFFFFFFFFFFFFFFFFFFFFFFFFFFFFFFFFFFFFFF AND DUP2 MSTORE PUSH1 0x20 ADD SWAP1 DUP2 MSTORE PUSH1 0x20 ADD PUSH0 KECCAK256 PUSH0 PUSH2 0x100 EXP DUP2 SLOAD DUP2 PUSH1 0xFF MUL NOT AND SWAP1 DUP4 ISZERO ISZERO MUL OR SWAP1 SSTORE POP POP JUMP JUMPDEST CALLER PUSH20 0xFFFFFFFFFFFFFFFFFFFFFFFFFFFFFFFFFFFFFFFF AND PUSH0 DUP1 SLOAD SWAP1 PUSH2 0x100 EXP SWAP1 DIV PUSH20 0xFFFFFFFFFFFFFFFFFFFFFFFFFFFFFFFFFFFFFFFF AND PUSH20 0xFFFFFFFFFFFFFFFFFFFFFFFFFFFFFFFFFFFFFFFF AND EQ PUSH2 0x1C3A JUMPI PUSH1 0x40 MLOAD PUSH32 0x8C379A000000000000000000000000000000000000000000000000000000000 DUP2 MSTORE PUSH1 0x4 ADD PUSH2 0x1C31 SWAP1 PUSH2 0x3181 JUMP JUMPDEST PUSH1 0x40 MLOAD DUP1 SWAP2 SUB SWAP1 REVERT JUMPDEST DUP1 PUSH0 DUP1 PUSH2 0x100 EXP DUP2 SLOAD DUP2 PUSH20 0xFFFFFFFFFFFFFFFFFFFFFFFFFFFFFFFFFFFFFFFF MUL NOT AND SWAP1 DUP4 PUSH20 0xFFFFFFFFFFFFFFFFFFFFFFFFFFFFFFFFFFFFFFFF AND MUL OR SWAP1 SSTORE POP POP JUMP JUMPDEST PUSH0 DUP2 PUSH1 0x40 MLOAD PUSH1 0x20 ADD PUSH2 0x1C8E SWAP2 SWAP1 PUSH2 0x36BB JUMP JUMPDEST PUSH1 0x40 MLOAD PUSH1 0x20 DUP2 DUP4 SUB SUB DUP2 MSTORE SWAP1 PUSH1 0x40 MSTORE DUP1 MLOAD SWAP1 PUSH1 0x20 ADD KECCAK256 SWAP1 POP SWAP2 SWAP1 POP JUMP JUMPDEST CALLER PUSH20 0xFFFFFFFFFFFFFFFFFFFFFFFFFFFFFFFFFFFFFFFF AND PUSH0 DUP1 SLOAD SWAP1 PUSH2 0x100 EXP SWAP1 DIV PUSH20 0xFFFFFFFFFFFFFFFFFFFFFFFFFFFFFFFFFFFFFFFF AND PUSH20 0xFFFFFFFFFFFFFFFFFFFFFFFFFFFFFFFFFFFFFFFF AND EQ PUSH2 0x1D38 JUMPI PUSH1 0x40 MLOAD PUSH32 0x8C379A000000000000000000000000000000000000000000000000000000000 DUP2 MSTORE PUSH1 0x4 ADD PUSH2 0x1D2F SWAP1 PUSH2 0x3181 JUMP JUMPDEST PUSH1 0x40 MLOAD DUP1 SWAP2 SUB SWAP1 REVERT JUMPDEST DUP3 PUSH1 0x1 PUSH0 DUP3 PUSH20 0xFFFFFFFFFFFFFFFFFFFFFFFFFFFFFFFFFFFFFFFF AND PUSH20 0xFFFFFFFFFFFFFFFFFFFFFFFFFFFFFFFFFFFFFFFF AND DUP2 MSTORE PUSH1 0x20 ADD SWAP1 DUP2 MSTORE PUSH1 0x20 ADD PUSH0 KECCAK256 PUSH0 SWAP1 SLOAD SWAP1 PUSH2 0x100 EXP SWAP1 DIV PUSH1 0xFF AND PUSH2 0x1DC2 JUMPI PUSH1 0x40 MLOAD PUSH32 0x8C379A000000000000000000000000000000000000000000000000000000000 DUP2 MSTORE PUSH1 0x4 ADD PUSH2 0x1DB9 SWAP1 PUSH2 0x2BCB JUMP JUMPDEST PUSH1 0x40 MLOAD DUP1 SWAP2 SUB SWAP1 REVERT JUMPDEST PUSH1 0x5 PUSH0 DUP4 DUP2 MSTORE PUSH1 0x20 ADD SWAP1 DUP2 MSTORE PUSH1 0x20 ADD PUSH0 KECCAK256 PUSH0 SWAP1 SLOAD SWAP1 PUSH2 0x100 EXP SWAP1 DIV PUSH1 0xFF AND ISZERO PUSH2 0x1E20 JUMPI PUSH1 0x40 MLOAD PUSH32 0x8C379A000000000000000000000000000000000000000000000000000000000 DUP2 MSTORE PUSH1 0x4 ADD PUSH2 0x1E17 SWAP1 PUSH2 0x3251 JUMP JUMPDEST PUSH1 0x40 MLOAD DUP1 SWAP2 SUB SWAP1 REVERT JUMPDEST ADDRESS PUSH20 0xFFFFFFFFFFFFFFFFFFFFFFFFFFFFFFFFFFFFFFFF AND PUSH4 0x76B1D966 DUP10 DUP10 DUP10 DUP10 PUSH1 0x40 MLOAD DUP6 PUSH4 0xFFFFFFFF AND PUSH1 0xE0 SHL DUP2 MSTORE PUSH1 0x4 ADD PUSH2 0x1E5F SWAP5 SWAP4 SWAP3 SWAP2 SWAP1 PUSH2 0x36E0 JUMP JUMPDEST PUSH0 PUSH1 0x40 MLOAD DUP1 DUP4 SUB DUP2 PUSH0 DUP8 DUP1 EXTCODESIZE ISZERO DUP1 ISZERO PUSH2 0x1E76 JUMPI PUSH0 DUP1 REVERT JUMPDEST POP GAS CALL ISZERO DUP1 ISZERO PUSH2 0x1E88 JUMPI RETURNDATASIZE PUSH0 DUP1 RETURNDATACOPY RETURNDATASIZE PUSH0 REVERT JUMPDEST POP POP POP POP PUSH2 0x1E98 DUP9 DUP6 DUP6 DUP6 PUSH2 0x1EA2 JUMP JUMPDEST POP POP POP POP POP POP POP POP JUMP JUMPDEST PUSH1 0x1 PUSH1 0x5 PUSH0 DUP4 DUP2 MSTORE PUSH1 0x20 ADD SWAP1 DUP2 MSTORE PUSH1 0x20 ADD PUSH0 KECCAK256 PUSH0 PUSH2 0x100 EXP DUP2 SLOAD DUP2 PUSH1 0xFF MUL NOT AND SWAP1 DUP4 ISZERO ISZERO MUL OR SWAP1 SSTORE POP PUSH1 0x1 PUSH1 0x6 PUSH0 DUP4 DUP2 MSTORE PUSH1 0x20 ADD SWAP1 DUP2 MSTORE PUSH1 0x20 ADD PUSH0 KECCAK256 PUSH0 PUSH2 0x100 EXP DUP2 SLOAD DUP2 PUSH1 0xFF MUL NOT AND SWAP1 DUP4 ISZERO ISZERO MUL OR SWAP1 SSTORE POP PUSH0 PUSH1 0x3 DUP6 PUSH1 0x40 MLOAD PUSH2 0x1F05 SWAP2 SWAP1 PUSH2 0x308C JUMP JUMPDEST SWAP1 DUP2 MSTORE PUSH1 0x20 ADD PUSH1 0x40 MLOAD DUP1 SWAP2 SUB SWAP1 KECCAK256 SLOAD SWAP1 POP DUP2 PUSH1 0x4 DUP7 PUSH1 0x40 MLOAD PUSH2 0x1F27 SWAP2 SWAP1 PUSH2 0x308C JUMP JUMPDEST SWAP1 DUP2 MSTORE PUSH1 0x20 ADD PUSH1 0x40 MLOAD DUP1 SWAP2 SUB SWAP1 KECCAK256 PUSH0 DUP4 DUP2 MSTORE PUSH1 0x20 ADD SWAP1 DUP2 MSTORE PUSH1 0x20 ADD PUSH0 KECCAK256 DUP2 SWAP1 SSTORE POP PUSH1 0x1 DUP2 PUSH2 0x1F55 SWAP2 SWAP1 PUSH2 0x375E JUMP JUMPDEST PUSH1 0x3 DUP7 PUSH1 0x40 MLOAD PUSH2 0x1F65 SWAP2 SWAP1 PUSH2 0x308C JUMP JUMPDEST SWAP1 DUP2 MSTORE PUSH1 0x20 ADD PUSH1 0x40 MLOAD DUP1 SWAP2 SUB SWAP1 KECCAK256 DUP2 SWAP1 SSTORE POP DUP5 PUSH1 0x7 PUSH0 DUP5 DUP2 MSTORE PUSH1 0x20 ADD SWAP1 DUP2 MSTORE PUSH1 0x20 ADD PUSH0 KECCAK256 SWAP1 DUP2 PUSH2 0x1F95 SWAP2 SWAP1 PUSH2 0x38F2 JUMP JUMPDEST POP DUP3 PUSH1 0x8 PUSH0 DUP5 DUP2 MSTORE PUSH1 0x20 ADD SWAP1 DUP2 MSTORE PUSH1 0x20 ADD PUSH0 KECCAK256 DUP2 SWAP1 SSTORE POP DUP4 PUSH1 0x9 PUSH0 DUP5 DUP2 MSTORE PUSH1 0x20 ADD SWAP1 DUP2 MSTORE PUSH1 0x20 ADD PUSH0 KECCAK256 PUSH0 PUSH2 0x100 EXP DUP2 SLOAD DUP2 PUSH20 0xFFFFFFFFFFFFFFFFFFFFFFFFFFFFFFFFFFFFFFFF MUL NOT AND SWAP1 DUP4 PUSH20 0xFFFFFFFFFFFFFFFFFFFFFFFFFFFFFFFFFFFFFFFF AND MUL OR SWAP1 SSTORE POP POP POP POP POP POP JUMP JUMPDEST PUSH0 PUSH1 0x40 MLOAD SWAP1 POP SWAP1 JUMP JUMPDEST PUSH0 DUP1 REVERT JUMPDEST PUSH0 DUP1 REVERT JUMPDEST PUSH0 DUP2 SWAP1 POP SWAP2 SWAP1 POP JUMP JUMPDEST PUSH2 0x2025 DUP2 PUSH2 0x2013 JUMP JUMPDEST DUP2 EQ PUSH2 0x202F JUMPI PUSH0 DUP1 REVERT JUMPDEST POP JUMP JUMPDEST PUSH0 DUP2 CALLDATALOAD SWAP1 POP PUSH2 0x2040 DUP2 PUSH2 0x201C JUMP JUMPDEST SWAP3 SWAP2 POP POP JUMP JUMPDEST PUSH2 0x204F DUP2 PUSH2 0x2013 JUMP JUMPDEST DUP2 EQ PUSH2 0x2059 JUMPI PUSH0 DUP1 REVERT JUMPDEST POP JUMP JUMPDEST PUSH0 DUP2 CALLDATALOAD SWAP1 POP PUSH2 0x206A DUP2 PUSH2 0x2046 JUMP JUMPDEST SWAP3 SWAP2 POP POP JUMP JUMPDEST PUSH0 DUP1 REVERT JUMPDEST PUSH0 DUP1 REVERT JUMPDEST PUSH0 PUSH1 0x1F NOT PUSH1 0x1F DUP4 ADD AND SWAP1 POP SWAP2 SWAP1 POP JUMP JUMPDEST PUSH32 0x4E487B7100000000000000000000000000000000000000000000000000000000 PUSH0 MSTORE PUSH1 0x41 PUSH1 0x4 MSTORE PUSH1 0x24 PUSH0 REVERT JUMPDEST PUSH2 0x20BE DUP3 PUSH2 0x2078 JUMP JUMPDEST DUP2 ADD DUP2 DUP2 LT PUSH8 0xFFFFFFFFFFFFFFFF DUP3 GT OR ISZERO PUSH2 0x20DD JUMPI PUSH2 0x20DC PUSH2 0x2088 JUMP JUMPDEST JUMPDEST DUP1 PUSH1 0x40 MSTORE POP POP POP JUMP JUMPDEST PUSH0 PUSH2 0x20EF PUSH2 0x2002 JUMP JUMPDEST SWAP1 POP PUSH2 0x20FB DUP3 DUP3 PUSH2 0x20B5 JUMP JUMPDEST SWAP2 SWAP1 POP JUMP JUMPDEST PUSH0 PUSH8 0xFFFFFFFFFFFFFFFF DUP3 GT ISZERO PUSH2 0x211A JUMPI PUSH2 0x2119 PUSH2 0x2088 JUMP JUMPDEST JUMPDEST PUSH2 0x2123 DUP3 PUSH2 0x2078 JUMP JUMPDEST SWAP1 POP PUSH1 0x20 DUP2 ADD SWAP1 POP SWAP2 SWAP1 POP JUMP JUMPDEST DUP3 DUP2 DUP4 CALLDATACOPY PUSH0 DUP4 DUP4 ADD MSTORE POP POP POP JUMP JUMPDEST PUSH0 PUSH2 0x2150 PUSH2 0x214B DUP5 PUSH2 0x2100 JUMP JUMPDEST PUSH2 0x20E6 JUMP JUMPDEST SWAP1 POP DUP3 DUP2 MSTORE PUSH1 0x20 DUP2 ADD DUP5 DUP5 DUP5 ADD GT ISZERO PUSH2 0x216C JUMPI PUSH2 0x216B PUSH2 0x2074 JUMP JUMPDEST JUMPDEST PUSH2 0x2177 DUP5 DUP3 DUP6 PUSH2 0x2130 JUMP JUMPDEST POP SWAP4 SWAP3 POP POP POP JUMP JUMPDEST PUSH0 DUP3 PUSH1 0x1F DUP4 ADD SLT PUSH2 0x2193 JUMPI PUSH2 0x2192 PUSH2 0x2070 JUMP JUMPDEST JUMPDEST DUP2 CALLDATALOAD PUSH2 0x21A3 DUP5 DUP3 PUSH1 0x20 DUP7 ADD PUSH2 0x213E JUMP JUMPDEST SWAP2 POP POP SWAP3 SWAP2 POP POP JUMP JUMPDEST PUSH0 DUP1 PUSH0 PUSH1 0x60 DUP5 DUP7 SUB SLT ISZERO PUSH2 0x21C3 JUMPI PUSH2 0x21C2 PUSH2 0x200B JUMP JUMPDEST JUMPDEST PUSH0 PUSH2 0x21D0 DUP7 DUP3 DUP8 ADD PUSH2 0x2032 JUMP JUMPDEST SWAP4 POP POP PUSH1 0x20 PUSH2 0x21E1 DUP7 DUP3 DUP8 ADD PUSH2 0x205C JUMP JUMPDEST SWAP3 POP POP PUSH1 0x40 DUP5 ADD CALLDATALOAD PUSH8 0xFFFFFFFFFFFFFFFF DUP2 GT ISZERO PUSH2 0x2202 JUMPI PUSH2 0x2201 PUSH2 0x200F JUMP JUMPDEST JUMPDEST PUSH2 0x220E DUP7 DUP3 DUP8 ADD PUSH2 0x217F JUMP JUMPDEST SWAP2 POP POP SWAP3 POP SWAP3 POP SWAP3 JUMP JUMPDEST PUSH0 DUP2 MLOAD SWAP1 POP SWAP2 SWAP1 POP JUMP JUMPDEST PUSH0 DUP3 DUP3 MSTORE PUSH1 0x20 DUP3 ADD SWAP1 POP SWAP3 SWAP2 POP POP JUMP JUMPDEST DUP3 DUP2 DUP4 MCOPY PUSH0 DUP4 DUP4 ADD MSTORE POP POP POP JUMP JUMPDEST PUSH0 PUSH2 0x224A DUP3 PUSH2 0x2218 JUMP JUMPDEST PUSH2 0x2254 DUP2 DUP6 PUSH2 0x2222 JUMP JUMPDEST SWAP4 POP PUSH2 0x2264 DUP2 DUP6 PUSH1 0x20 DUP7 ADD PUSH2 0x2232 JUMP JUMPDEST PUSH2 0x226D DUP2 PUSH2 0x2078 JUMP JUMPDEST DUP5 ADD SWAP2 POP POP SWAP3 SWAP2 POP POP JUMP JUMPDEST PUSH0 PUSH1 0x20 DUP3 ADD SWAP1 POP DUP2 DUP2 SUB PUSH0 DUP4 ADD MSTORE PUSH2 0x2290 DUP2 DUP5 PUSH2 0x2240 JUMP JUMPDEST SWAP1 POP SWAP3 SWAP2 POP POP JUMP JUMPDEST PUSH0 PUSH1 0x20 DUP3 DUP5 SUB SLT ISZERO PUSH2 0x22AD JUMPI PUSH2 0x22AC PUSH2 0x200B JUMP JUMPDEST JUMPDEST PUSH0 PUSH2 0x22BA DUP5 DUP3 DUP6 ADD PUSH2 0x2032 JUMP JUMPDEST SWAP2 POP POP SWAP3 SWAP2 POP POP JUMP JUMPDEST PUSH0 PUSH20 0xFFFFFFFFFFFFFFFFFFFFFFFFFFFFFFFFFFFFFFFF DUP3 AND SWAP1 POP SWAP2 SWAP1 POP JUMP JUMPDEST PUSH0 PUSH2 0x22EC DUP3 PUSH2 0x22C3 JUMP JUMPDEST SWAP1 POP SWAP2 SWAP1 POP JUMP JUMPDEST PUSH2 0x22FC DUP2 PUSH2 0x22E2 JUMP JUMPDEST DUP3 MSTORE POP POP JUMP JUMPDEST PUSH0 PUSH1 0x20 DUP3 ADD SWAP1 POP PUSH2 0x2315 PUSH0 DUP4 ADD DUP5 PUSH2 0x22F3 JUMP JUMPDEST SWAP3 SWAP2 POP POP JUMP JUMPDEST PUSH0 PUSH8 0xFFFFFFFFFFFFFFFF DUP3 GT ISZERO PUSH2 0x2335 JUMPI PUSH2 0x2334 PUSH2 0x2088 JUMP JUMPDEST JUMPDEST PUSH2 0x233E DUP3 PUSH2 0x2078 JUMP JUMPDEST SWAP1 POP PUSH1 0x20 DUP2 ADD SWAP1 POP SWAP2 SWAP1 POP JUMP JUMPDEST PUSH0 PUSH2 0x235D PUSH2 0x2358 DUP5 PUSH2 0x231B JUMP JUMPDEST PUSH2 0x20E6 JUMP JUMPDEST SWAP1 POP DUP3 DUP2 MSTORE PUSH1 0x20 DUP2 ADD DUP5 DUP5 DUP5 ADD GT ISZERO PUSH2 0x2379 JUMPI PUSH2 0x2378 PUSH2 0x2074 JUMP JUMPDEST JUMPDEST PUSH2 0x2384 DUP5 DUP3 DUP6 PUSH2 0x2130 JUMP JUMPDEST POP SWAP4 SWAP3 POP POP POP JUMP JUMPDEST PUSH0 DUP3 PUSH1 0x1F DUP4 ADD SLT PUSH2 0x23A0 JUMPI PUSH2 0x239F PUSH2 0x2070 JUMP JUMPDEST JUMPDEST DUP2 CALLDATALOAD PUSH2 0x23B0 DUP5 DUP3 PUSH1 0x20 DUP7 ADD PUSH2 0x234B JUMP JUMPDEST SWAP2 POP POP SWAP3 SWAP2 POP POP JUMP JUMPDEST PUSH0 DUP1 PUSH1 0x40 DUP4 DUP6 SUB SLT ISZERO PUSH2 0x23CF JUMPI PUSH2 0x23CE PUSH2 0x200B JUMP JUMPDEST JUMPDEST PUSH0 DUP4 ADD CALLDATALOAD PUSH8 0xFFFFFFFFFFFFFFFF DUP2 GT ISZERO PUSH2 0x23EC JUMPI PUSH2 0x23EB PUSH2 0x200F JUMP JUMPDEST JUMPDEST PUSH2 0x23F8 DUP6 DUP3 DUP7 ADD PUSH2 0x238C JUMP JUMPDEST SWAP3 POP POP PUSH1 0x20 PUSH2 0x2409 DUP6 DUP3 DUP7 ADD PUSH2 0x205C JUMP JUMPDEST SWAP2 POP POP SWAP3 POP SWAP3 SWAP1 POP JUMP JUMPDEST PUSH0 DUP2 SWAP1 POP SWAP2 SWAP1 POP JUMP JUMPDEST PUSH2 0x2425 DUP2 PUSH2 0x2413 JUMP JUMPDEST DUP3 MSTORE POP POP JUMP JUMPDEST PUSH0 PUSH1 0x20 DUP3 ADD SWAP1 POP PUSH2 0x243E PUSH0 DUP4 ADD DUP5 PUSH2 0x241C JUMP JUMPDEST SWAP3 SWAP2 POP POP JUMP JUMPDEST PUSH0 PUSH2 0x244E DUP3 PUSH2 0x22C3 JUMP JUMPDEST SWAP1 POP SWAP2 SWAP1 POP JUMP JUMPDEST PUSH2 0x245E DUP2 PUSH2 0x2444 JUMP JUMPDEST DUP2 EQ PUSH2 0x2468 JUMPI PUSH0 DUP1 REVERT JUMPDEST POP JUMP JUMPDEST PUSH0 DUP2 CALLDATALOAD SWAP1 POP PUSH2 0x2479 DUP2 PUSH2 0x2455 JUMP JUMPDEST SWAP3 SWAP2 POP POP JUMP JUMPDEST PUSH0 DUP1 PUSH1 0x40 DUP4 DUP6 SUB SLT ISZERO PUSH2 0x2495 JUMPI PUSH2 0x2494 PUSH2 0x200B JUMP JUMPDEST JUMPDEST PUSH0 DUP4 ADD CALLDATALOAD PUSH8 0xFFFFFFFFFFFFFFFF DUP2 GT ISZERO PUSH2 0x24B2 JUMPI PUSH2 0x24B1 PUSH2 0x200F JUMP JUMPDEST JUMPDEST PUSH2 0x24BE DUP6 DUP3 DUP7 ADD PUSH2 0x238C JUMP JUMPDEST SWAP3 POP POP PUSH1 0x20 PUSH2 0x24CF DUP6 DUP3 DUP7 ADD PUSH2 0x246B JUMP JUMPDEST SWAP2 POP POP SWAP3 POP SWAP3 SWAP1 POP JUMP JUMPDEST PUSH0 DUP2 MLOAD SWAP1 POP SWAP2 SWAP1 POP JUMP JUMPDEST PUSH0 DUP3 DUP3 MSTORE PUSH1 0x20 DUP3 ADD SWAP1 POP SWAP3 SWAP2 POP POP JUMP JUMPDEST PUSH0 DUP2 SWAP1 POP PUSH1 0x20 DUP3 ADD SWAP1 POP SWAP2 SWAP1 POP JUMP JUMPDEST PUSH0 DUP2 SWAP1 POP SWAP2 SWAP1 POP JUMP JUMPDEST PUSH0 PUSH2 0x2525 PUSH2 0x2520 PUSH2 0x251B DUP5 PUSH2 0x2013 JUMP JUMPDEST PUSH2 0x2502 JUMP JUMPDEST PUSH2 0x2013 JUMP JUMPDEST SWAP1 POP SWAP2 SWAP1 POP JUMP JUMPDEST PUSH2 0x2535 DUP2 PUSH2 0x250B JUMP JUMPDEST DUP3 MSTORE POP POP JUMP JUMPDEST PUSH0 PUSH2 0x2546 DUP4 DUP4 PUSH2 0x252C JUMP JUMPDEST PUSH1 0x20 DUP4 ADD SWAP1 POP SWAP3 SWAP2 POP POP JUMP JUMPDEST PUSH0 PUSH1 0x20 DUP3 ADD SWAP1 POP SWAP2 SWAP1 POP JUMP JUMPDEST PUSH0 PUSH2 0x2568 DUP3 PUSH2 0x24D9 JUMP JUMPDEST PUSH2 0x2572 DUP2 DUP6 PUSH2 0x24E3 JUMP JUMPDEST SWAP4 POP PUSH2 0x257D DUP4 PUSH2 0x24F3 JUMP JUMPDEST DUP1 PUSH0 JUMPDEST DUP4 DUP2 LT ISZERO PUSH2 0x25AD JUMPI DUP2 MLOAD PUSH2 0x2594 DUP9 DUP3 PUSH2 0x253B JUMP JUMPDEST SWAP8 POP PUSH2 0x259F DUP4 PUSH2 0x2552 JUMP JUMPDEST SWAP3 POP POP PUSH1 0x1 DUP2 ADD SWAP1 POP PUSH2 0x2580 JUMP JUMPDEST POP DUP6 SWAP4 POP POP POP POP SWAP3 SWAP2 POP POP JUMP JUMPDEST PUSH0 PUSH1 0x20 DUP3 ADD SWAP1 POP DUP2 DUP2 SUB PUSH0 DUP4 ADD MSTORE PUSH2 0x25D2 DUP2 DUP5 PUSH2 0x255E JUMP JUMPDEST SWAP1 POP SWAP3 SWAP2 POP POP JUMP JUMPDEST PUSH0 PUSH1 0x20 DUP3 DUP5 SUB SLT ISZERO PUSH2 0x25EF JUMPI PUSH2 0x25EE PUSH2 0x200B JUMP JUMPDEST JUMPDEST PUSH0 PUSH2 0x25FC DUP5 DUP3 DUP6 ADD PUSH2 0x246B JUMP JUMPDEST SWAP2 POP POP SWAP3 SWAP2 POP POP JUMP JUMPDEST PUSH0 DUP1 PUSH0 DUP1 PUSH1 0x80 DUP6 DUP8 SUB SLT ISZERO PUSH2 0x261D JUMPI PUSH2 0x261C PUSH2 0x200B JUMP JUMPDEST JUMPDEST PUSH0 PUSH2 0x262A DUP8 DUP3 DUP9 ADD PUSH2 0x246B JUMP JUMPDEST SWAP5 POP POP PUSH1 0x20 PUSH2 0x263B DUP8 DUP3 DUP9 ADD PUSH2 0x2032 JUMP JUMPDEST SWAP4 POP POP PUSH1 0x40 PUSH2 0x264C DUP8 DUP3 DUP9 ADD PUSH2 0x205C JUMP JUMPDEST SWAP3 POP POP PUSH1 0x60 DUP6 ADD CALLDATALOAD PUSH8 0xFFFFFFFFFFFFFFFF DUP2 GT ISZERO PUSH2 0x266D JUMPI PUSH2 0x266C PUSH2 0x200F JUMP JUMPDEST JUMPDEST PUSH2 0x2679 DUP8 DUP3 DUP9 ADD PUSH2 0x217F JUMP JUMPDEST SWAP2 POP POP SWAP3 SWAP6 SWAP2 SWAP5 POP SWAP3 POP JUMP JUMPDEST PUSH0 DUP2 ISZERO ISZERO SWAP1 POP SWAP2 SWAP1 POP JUMP JUMPDEST PUSH2 0x2699 DUP2 PUSH2 0x2685 JUMP JUMPDEST DUP3 MSTORE POP POP JUMP JUMPDEST PUSH0 PUSH1 0x20 DUP3 ADD SWAP1 POP PUSH2 0x26B2 PUSH0 DUP4 ADD DUP5 PUSH2 0x2690 JUMP JUMPDEST SWAP3 SWAP2 POP POP JUMP JUMPDEST PUSH0 DUP1 PUSH0 DUP1 PUSH1 0x80 DUP6 DUP8 SUB SLT ISZERO PUSH2 0x26D0 JUMPI PUSH2 0x26CF PUSH2 0x200B JUMP JUMPDEST JUMPDEST PUSH0 DUP6 ADD CALLDATALOAD PUSH8 0xFFFFFFFFFFFFFFFF DUP2 GT ISZERO PUSH2 0x26ED JUMPI PUSH2 0x26EC PUSH2 0x200F JUMP JUMPDEST JUMPDEST PUSH2 0x26F9 DUP8 DUP3 DUP9 ADD PUSH2 0x238C JUMP JUMPDEST SWAP5 POP POP PUSH1 0x20 PUSH2 0x270A DUP8 DUP3 DUP9 ADD PUSH2 0x246B JUMP JUMPDEST SWAP4 POP POP PUSH1 0x40 PUSH2 0x271B DUP8 DUP3 DUP9 ADD PUSH2 0x205C JUMP JUMPDEST SWAP3 POP POP PUSH1 0x60 PUSH2 0x272C DUP8 DUP3 DUP9 ADD PUSH2 0x2032 JUMP JUMPDEST SWAP2 POP POP SWAP3 SWAP6 SWAP2 SWAP5 POP SWAP3 POP JUMP JUMPDEST PUSH0 DUP1 PUSH1 0x40 DUP4 DUP6 SUB SLT ISZERO PUSH2 0x274E JUMPI PUSH2 0x274D PUSH2 0x200B JUMP JUMPDEST JUMPDEST PUSH0 PUSH2 0x275B DUP6 DUP3 DUP7 ADD PUSH2 0x2032 JUMP JUMPDEST SWAP3 POP POP PUSH1 0x20 PUSH2 0x276C DUP6 DUP3 DUP7 ADD PUSH2 0x205C JUMP JUMPDEST SWAP2 POP POP SWAP3 POP SWAP3 SWAP1 POP JUMP JUMPDEST PUSH2 0x277F DUP2 PUSH2 0x22E2 JUMP JUMPDEST DUP2 EQ PUSH2 0x2789 JUMPI PUSH0 DUP1 REVERT JUMPDEST POP JUMP JUMPDEST PUSH0 DUP2 CALLDATALOAD SWAP1 POP PUSH2 0x279A DUP2 PUSH2 0x2776 JUMP JUMPDEST SWAP3 SWAP2 POP POP JUMP JUMPDEST PUSH0 DUP1 PUSH0 DUP1 PUSH1 0x80 DUP6 DUP8 SUB SLT ISZERO PUSH2 0x27B8 JUMPI PUSH2 0x27B7 PUSH2 0x200B JUMP JUMPDEST JUMPDEST PUSH0 DUP6 ADD CALLDATALOAD PUSH8 0xFFFFFFFFFFFFFFFF DUP2 GT ISZERO PUSH2 0x27D5 JUMPI PUSH2 0x27D4 PUSH2 0x200F JUMP JUMPDEST JUMPDEST PUSH2 0x27E1 DUP8 DUP3 DUP9 ADD PUSH2 0x238C JUMP JUMPDEST SWAP5 POP POP PUSH1 0x20 PUSH2 0x27F2 DUP8 DUP3 DUP9 ADD PUSH2 0x278C JUMP JUMPDEST SWAP4 POP POP PUSH1 0x40 PUSH2 0x2803 DUP8 DUP3 DUP9 ADD PUSH2 0x205C JUMP JUMPDEST SWAP3 POP POP PUSH1 0x60 DUP6 ADD CALLDATALOAD PUSH8 0xFFFFFFFFFFFFFFFF DUP2 GT ISZERO PUSH2 0x2824 JUMPI PUSH2 0x2823 PUSH2 0x200F JUMP JUMPDEST JUMPDEST PUSH2 0x2830 DUP8 DUP3 DUP9 ADD PUSH2 0x217F JUMP JUMPDEST SWAP2 POP POP SWAP3 SWAP6 SWAP2 SWAP5 POP SWAP3 POP JUMP JUMPDEST PUSH0 DUP1 PUSH0 DUP1 PUSH1 0x80 DUP6 DUP8 SUB SLT ISZERO PUSH2 0x2854 JUMPI PUSH2 0x2853 PUSH2 0x200B JUMP JUMPDEST JUMPDEST PUSH0 PUSH2 0x2861 DUP8 DUP3 DUP9 ADD PUSH2 0x246B JUMP JUMPDEST SWAP5 POP POP PUSH1 0x20 DUP6 ADD CALLDATALOAD PUSH8 0xFFFFFFFFFFFFFFFF DUP2 GT ISZERO PUSH2 0x2882 JUMPI PUSH2 0x2881 PUSH2 0x200F JUMP JUMPDEST JUMPDEST PUSH2 0x288E DUP8 DUP3 DUP9 ADD PUSH2 0x238C JUMP JUMPDEST SWAP4 POP POP PUSH1 0x40 PUSH2 0x289F DUP8 DUP3 DUP9 ADD PUSH2 0x205C JUMP JUMPDEST SWAP3 POP POP PUSH1 0x60 DUP6 ADD CALLDATALOAD PUSH8 0xFFFFFFFFFFFFFFFF DUP2 GT ISZERO PUSH2 0x28C0 JUMPI PUSH2 0x28BF PUSH2 0x200F JUMP JUMPDEST JUMPDEST PUSH2 0x28CC DUP8 DUP3 DUP9 ADD PUSH2 0x217F JUMP JUMPDEST SWAP2 POP POP SWAP3 SWAP6 SWAP2 SWAP5 POP SWAP3 POP JUMP JUMPDEST PUSH0 DUP1 PUSH1 0x40 DUP4 DUP6 SUB SLT ISZERO PUSH2 0x28EE JUMPI PUSH2 0x28ED PUSH2 0x200B JUMP JUMPDEST JUMPDEST PUSH0 PUSH2 0x28FB DUP6 DUP3 DUP7 ADD PUSH2 0x2032 JUMP JUMPDEST SWAP3 POP POP PUSH1 0x20 PUSH2 0x290C DUP6 DUP3 DUP7 ADD PUSH2 0x246B JUMP JUMPDEST SWAP2 POP POP SWAP3 POP SWAP3 SWAP1 POP JUMP JUMPDEST PUSH2 0x291F DUP2 PUSH2 0x2413 JUMP JUMPDEST DUP2 EQ PUSH2 0x2929 JUMPI PUSH0 DUP1 REVERT JUMPDEST POP JUMP JUMPDEST PUSH0 DUP2 CALLDATALOAD SWAP1 POP PUSH2 0x293A DUP2 PUSH2 0x2916 JUMP JUMPDEST SWAP3 SWAP2 POP POP JUMP JUMPDEST PUSH0 DUP1 PUSH1 0x40 DUP4 DUP6 SUB SLT ISZERO PUSH2 0x2956 JUMPI PUSH2 0x2955 PUSH2 0x200B JUMP JUMPDEST JUMPDEST PUSH0 PUSH2 0x2963 DUP6 DUP3 DUP7 ADD PUSH2 0x292C JUMP JUMPDEST SWAP3 POP POP PUSH1 0x20 DUP4 ADD CALLDATALOAD PUSH8 0xFFFFFFFFFFFFFFFF DUP2 GT ISZERO PUSH2 0x2984 JUMPI PUSH2 0x2983 PUSH2 0x200F JUMP JUMPDEST JUMPDEST PUSH2 0x2990 DUP6 DUP3 DUP7 ADD PUSH2 0x217F JUMP JUMPDEST SWAP2 POP POP SWAP3 POP SWAP3 SWAP1 POP JUMP JUMPDEST PUSH2 0x29A3 DUP2 PUSH2 0x2444 JUMP JUMPDEST DUP3 MSTORE POP POP JUMP JUMPDEST PUSH0 PUSH1 0x20 DUP3 ADD SWAP1 POP PUSH2 0x29BC PUSH0 DUP4 ADD DUP5 PUSH2 0x299A JUMP JUMPDEST SWAP3 SWAP2 POP POP JUMP JUMPDEST PUSH0 PUSH1 0x20 DUP3 DUP5 SUB SLT ISZERO PUSH2 0x29D7 JUMPI PUSH2 0x29D6 PUSH2 0x200B JUMP JUMPDEST JUMPDEST PUSH0 DUP3 ADD CALLDATALOAD PUSH8 0xFFFFFFFFFFFFFFFF DUP2 GT ISZERO PUSH2 0x29F4 JUMPI PUSH2 0x29F3 PUSH2 0x200F JUMP JUMPDEST JUMPDEST PUSH2 0x2A00 DUP5 DUP3 DUP6 ADD PUSH2 0x217F JUMP JUMPDEST SWAP2 POP POP SWAP3 SWAP2 POP POP JUMP JUMPDEST PUSH0 PUSH1 0xFF DUP3 AND SWAP1 POP SWAP2 SWAP1 POP JUMP JUMPDEST PUSH2 0x2A1E DUP2 PUSH2 0x2A09 JUMP JUMPDEST DUP3 MSTORE POP POP JUMP JUMPDEST PUSH0 PUSH1 0x60 DUP3 ADD SWAP1 POP PUSH2 0x2A37 PUSH0 DUP4 ADD DUP7 PUSH2 0x241C JUMP JUMPDEST PUSH2 0x2A44 PUSH1 0x20 DUP4 ADD DUP6 PUSH2 0x241C JUMP JUMPDEST PUSH2 0x2A51 PUSH1 0x40 DUP4 ADD DUP5 PUSH2 0x2A15 JUMP JUMPDEST SWAP5 SWAP4 POP POP POP POP JUMP JUMPDEST PUSH2 0x2A62 DUP2 PUSH2 0x2013 JUMP JUMPDEST DUP3 MSTORE POP POP JUMP JUMPDEST PUSH0 PUSH1 0x20 DUP3 ADD SWAP1 POP PUSH2 0x2A7B PUSH0 DUP4 ADD DUP5 PUSH2 0x2A59 JUMP JUMPDEST SWAP3 SWAP2 POP POP JUMP JUMPDEST PUSH0 PUSH1 0x20 DUP3 DUP5 SUB SLT ISZERO PUSH2 0x2A96 JUMPI PUSH2 0x2A95 PUSH2 0x200B JUMP JUMPDEST JUMPDEST PUSH0 PUSH2 0x2AA3 DUP5 DUP3 DUP6 ADD PUSH2 0x292C JUMP JUMPDEST SWAP2 POP POP SWAP3 SWAP2 POP POP JUMP JUMPDEST PUSH0 DUP1 PUSH0 DUP1 PUSH0 DUP1 PUSH0 PUSH1 0xE0 DUP9 DUP11 SUB SLT ISZERO PUSH2 0x2AC7 JUMPI PUSH2 0x2AC6 PUSH2 0x200B JUMP JUMPDEST JUMPDEST PUSH0 DUP9 ADD CALLDATALOAD PUSH8 0xFFFFFFFFFFFFFFFF DUP2 GT ISZERO PUSH2 0x2AE4 JUMPI PUSH2 0x2AE3 PUSH2 0x200F JUMP JUMPDEST JUMPDEST PUSH2 0x2AF0 DUP11 DUP3 DUP12 ADD PUSH2 0x238C JUMP JUMPDEST SWAP8 POP POP PUSH1 0x20 PUSH2 0x2B01 DUP11 DUP3 DUP12 ADD PUSH2 0x278C JUMP JUMPDEST SWAP7 POP POP PUSH1 0x40 PUSH2 0x2B12 DUP11 DUP3 DUP12 ADD PUSH2 0x205C JUMP JUMPDEST SWAP6 POP POP PUSH1 0x60 DUP9 ADD CALLDATALOAD PUSH8 0xFFFFFFFFFFFFFFFF DUP2 GT ISZERO PUSH2 0x2B33 JUMPI PUSH2 0x2B32 PUSH2 0x200F JUMP JUMPDEST JUMPDEST PUSH2 0x2B3F DUP11 DUP3 DUP12 ADD PUSH2 0x217F JUMP JUMPDEST SWAP5 POP POP PUSH1 0x80 PUSH2 0x2B50 DUP11 DUP3 DUP12 ADD PUSH2 0x246B JUMP JUMPDEST SWAP4 POP POP PUSH1 0xA0 PUSH2 0x2B61 DUP11 DUP3 DUP12 ADD PUSH2 0x205C JUMP JUMPDEST SWAP3 POP POP PUSH1 0xC0 PUSH2 0x2B72 DUP11 DUP3 DUP12 ADD PUSH2 0x2032 JUMP JUMPDEST SWAP2 POP POP SWAP3 SWAP6 SWAP9 SWAP2 SWAP5 SWAP8 POP SWAP3 SWAP6 POP JUMP JUMPDEST PUSH32 0x6C6963656E736520646F65736E27742065786973740000000000000000000000 PUSH0 DUP3 ADD MSTORE POP JUMP JUMPDEST PUSH0 PUSH2 0x2BB5 PUSH1 0x15 DUP4 PUSH2 0x2222 JUMP JUMPDEST SWAP2 POP PUSH2 0x2BC0 DUP3 PUSH2 0x2B81 JUMP JUMPDEST PUSH1 0x20 DUP3 ADD SWAP1 POP SWAP2 SWAP1 POP JUMP JUMPDEST PUSH0 PUSH1 0x20 DUP3 ADD SWAP1 POP DUP2 DUP2 SUB PUSH0 DUP4 ADD MSTORE PUSH2 0x2BE2 DUP2 PUSH2 0x2BA9 JUMP JUMPDEST SWAP1 POP SWAP2 SWAP1 POP JUMP JUMPDEST PUSH2 0x2BF2 DUP2 PUSH2 0x250B JUMP JUMPDEST DUP3 MSTORE POP POP JUMP JUMPDEST PUSH0 PUSH1 0x20 DUP3 ADD SWAP1 POP PUSH2 0x2C0B PUSH0 DUP4 ADD DUP5 PUSH2 0x2BE9 JUMP JUMPDEST SWAP3 SWAP2 POP POP JUMP JUMPDEST PUSH0 DUP2 MLOAD SWAP1 POP PUSH2 0x2C1F DUP2 PUSH2 0x2046 JUMP JUMPDEST SWAP3 SWAP2 POP POP JUMP JUMPDEST PUSH0 PUSH1 0x20 DUP3 DUP5 SUB SLT ISZERO PUSH2 0x2C3A JUMPI PUSH2 0x2C39 PUSH2 0x200B JUMP JUMPDEST JUMPDEST PUSH0 PUSH2 0x2C47 DUP5 DUP3 DUP6 ADD PUSH2 0x2C11 JUMP JUMPDEST SWAP2 POP POP SWAP3 SWAP2 POP POP JUMP JUMPDEST PUSH32 0x6E6F7420656E6F75676820657468657200000000000000000000000000000000 PUSH0 DUP3 ADD MSTORE POP JUMP JUMPDEST PUSH0 PUSH2 0x2C84 PUSH1 0x10 DUP4 PUSH2 0x2222 JUMP JUMPDEST SWAP2 POP PUSH2 0x2C8F DUP3 PUSH2 0x2C50 JUMP JUMPDEST PUSH1 0x20 DUP3 ADD SWAP1 POP SWAP2 SWAP1 POP JUMP JUMPDEST PUSH0 PUSH1 0x20 DUP3 ADD SWAP1 POP DUP2 DUP2 SUB PUSH0 DUP4 ADD MSTORE PUSH2 0x2CB1 DUP2 PUSH2 0x2C78 JUMP JUMPDEST SWAP1 POP SWAP2 SWAP1 POP JUMP JUMPDEST PUSH0 DUP2 MLOAD SWAP1 POP SWAP2 SWAP1 POP JUMP JUMPDEST PUSH0 DUP3 DUP3 MSTORE PUSH1 0x20 DUP3 ADD SWAP1 POP SWAP3 SWAP2 POP POP JUMP JUMPDEST PUSH0 PUSH2 0x2CDC DUP3 PUSH2 0x2CB8 JUMP JUMPDEST PUSH2 0x2CE6 DUP2 DUP6 PUSH2 0x2CC2 JUMP JUMPDEST SWAP4 POP PUSH2 0x2CF6 DUP2 DUP6 PUSH1 0x20 DUP7 ADD PUSH2 0x2232 JUMP JUMPDEST PUSH2 0x2CFF DUP2 PUSH2 0x2078 JUMP JUMPDEST DUP5 ADD SWAP2 POP POP SWAP3 SWAP2 POP POP JUMP JUMPDEST PUSH0 PUSH1 0x80 DUP3 ADD SWAP1 POP PUSH2 0x2D1D PUSH0 DUP4 ADD DUP8 PUSH2 0x299A JUMP JUMPDEST PUSH2 0x2D2A PUSH1 0x20 DUP4 ADD DUP7 PUSH2 0x2BE9 JUMP JUMPDEST PUSH2 0x2D37 PUSH1 0x40 DUP4 ADD DUP6 PUSH2 0x2A59 JUMP JUMPDEST DUP2 DUP2 SUB PUSH1 0x60 DUP4 ADD MSTORE PUSH2 0x2D49 DUP2 DUP5 PUSH2 0x2CD2 JUMP JUMPDEST SWAP1 POP SWAP6 SWAP5 POP POP POP POP POP JUMP JUMPDEST PUSH2 0x2D5D DUP2 PUSH2 0x2685 JUMP JUMPDEST DUP2 EQ PUSH2 0x2D67 JUMPI PUSH0 DUP1 REVERT JUMPDEST POP JUMP JUMPDEST PUSH0 DUP2 MLOAD SWAP1 POP PUSH2 0x2D78 DUP2 PUSH2 0x2D54 JUMP JUMPDEST SWAP3 SWAP2 POP POP JUMP JUMPDEST PUSH0 PUSH1 0x20 DUP3 DUP5 SUB SLT ISZERO PUSH2 0x2D93 JUMPI PUSH2 0x2D92 PUSH2 0x200B JUMP JUMPDEST JUMPDEST PUSH0 PUSH2 0x2DA0 DUP5 DUP3 DUP6 ADD PUSH2 0x2D6A JUMP JUMPDEST SWAP2 POP POP SWAP3 SWAP2 POP POP JUMP JUMPDEST PUSH32 0x696E76616C6964206C6963656E736565207369676E6174757265000000000000 PUSH0 DUP3 ADD MSTORE POP JUMP JUMPDEST PUSH0 PUSH2 0x2DDD PUSH1 0x1A DUP4 PUSH2 0x2222 JUMP JUMPDEST SWAP2 POP PUSH2 0x2DE8 DUP3 PUSH2 0x2DA9 JUMP JUMPDEST PUSH1 0x20 DUP3 ADD SWAP1 POP SWAP2 SWAP1 POP JUMP JUMPDEST PUSH0 PUSH1 0x20 DUP3 ADD SWAP1 POP DUP2 DUP2 SUB PUSH0 DUP4 ADD MSTORE PUSH2 0x2E0A DUP2 PUSH2 0x2DD1 JUMP JUMPDEST SWAP1 POP SWAP2 SWAP1 POP JUMP JUMPDEST PUSH0 DUP2 MLOAD SWAP1 POP PUSH2 0x2E1F DUP2 PUSH2 0x2776 JUMP JUMPDEST SWAP3 SWAP2 POP POP JUMP JUMPDEST PUSH0 PUSH1 0x20 DUP3 DUP5 SUB SLT ISZERO PUSH2 0x2E3A JUMPI PUSH2 0x2E39 PUSH2 0x200B JUMP JUMPDEST JUMPDEST PUSH0 PUSH2 0x2E47 DUP5 DUP3 DUP6 ADD PUSH2 0x2E11 JUMP JUMPDEST SWAP2 POP POP SWAP3 SWAP2 POP POP JUMP JUMPDEST PUSH0 DUP2 SWAP1 POP SWAP3 SWAP2 POP POP JUMP JUMPDEST POP JUMP JUMPDEST PUSH0 PUSH2 0x2E68 PUSH0 DUP4 PUSH2 0x2E50 JUMP JUMPDEST SWAP2 POP PUSH2 0x2E73 DUP3 PUSH2 0x2E5A JUMP JUMPDEST PUSH0 DUP3 ADD SWAP1 POP SWAP2 SWAP1 POP JUMP JUMPDEST PUSH0 PUSH2 0x2E87 DUP3 PUSH2 0x2E5D JUMP JUMPDEST SWAP2 POP DUP2 SWAP1 POP SWAP2 SWAP1 POP JUMP JUMPDEST PUSH32 0x6661696C656420746F2073656E64206574686572000000000000000000000000 PUSH0 DUP3 ADD MSTORE POP JUMP JUMPDEST PUSH0 PUSH2 0x2EC5 PUSH1 0x14 DUP4 PUSH2 0x2222 JUMP JUMPDEST SWAP2 POP PUSH2 0x2ED0 DUP3 PUSH2 0x2E91 JUMP JUMPDEST PUSH1 0x20 DUP3 ADD SWAP1 POP SWAP2 SWAP1 POP JUMP JUMPDEST PUSH0 PUSH1 0x20 DUP3 ADD SWAP1 POP DUP2 DUP2 SUB PUSH0 DUP4 ADD MSTORE PUSH2 0x2EF2 DUP2 PUSH2 0x2EB9 JUMP JUMPDEST SWAP1 POP SWAP2 SWAP1 POP JUMP JUMPDEST PUSH32 0x4E487B7100000000000000000000000000000000000000000000000000000000 PUSH0 MSTORE PUSH1 0x22 PUSH1 0x4 MSTORE PUSH1 0x24 PUSH0 REVERT JUMPDEST PUSH0 PUSH1 0x2 DUP3 DIV SWAP1 POP PUSH1 0x1 DUP3 AND DUP1 PUSH2 0x2F3D JUMPI PUSH1 0x7F DUP3 AND SWAP2 POP JUMPDEST PUSH1 0x20 DUP3 LT DUP2 SUB PUSH2 0x2F50 JUMPI PUSH2 0x2F4F PUSH2 0x2EF9 JUMP JUMPDEST JUMPDEST POP SWAP2 SWAP1 POP JUMP JUMPDEST PUSH0 DUP2 SWAP1 POP SWAP3 SWAP2 POP POP JUMP JUMPDEST PUSH0 DUP2 SWAP1 POP DUP2 PUSH0 MSTORE PUSH1 0x20 PUSH0 KECCAK256 SWAP1 POP SWAP2 SWAP1 POP JUMP JUMPDEST PUSH0 DUP2 SLOAD PUSH2 0x2F7E DUP2 PUSH2 0x2F26 JUMP JUMPDEST PUSH2 0x2F88 DUP2 DUP7 PUSH2 0x2F56 JUMP JUMPDEST SWAP5 POP PUSH1 0x1 DUP3 AND PUSH0 DUP2 EQ PUSH2 0x2FA2 JUMPI PUSH1 0x1 DUP2 EQ PUSH2 0x2FB7 JUMPI PUSH2 0x2FE9 JUMP JUMPDEST PUSH1 0xFF NOT DUP4 AND DUP7 MSTORE DUP2 ISZERO ISZERO DUP3 MUL DUP7 ADD SWAP4 POP PUSH2 0x2FE9 JUMP JUMPDEST PUSH2 0x2FC0 DUP6 PUSH2 0x2F60 JUMP JUMPDEST PUSH0 JUMPDEST DUP4 DUP2 LT ISZERO PUSH2 0x2FE1 JUMPI DUP2 SLOAD DUP2 DUP10 ADD MSTORE PUSH1 0x1 DUP3 ADD SWAP2 POP PUSH1 0x20 DUP2 ADD SWAP1 POP PUSH2 0x2FC2 JUMP JUMPDEST DUP4 DUP9 ADD SWAP6 POP POP POP JUMPDEST POP POP POP SWAP3 SWAP2 POP POP JUMP JUMPDEST PUSH0 PUSH2 0x2FFD DUP3 DUP5 PUSH2 0x2F72 JUMP JUMPDEST SWAP2 POP DUP2 SWAP1 POP SWAP3 SWAP2 POP POP JUMP JUMPDEST PUSH0 PUSH2 0x3012 DUP3 PUSH2 0x2218 JUMP JUMPDEST PUSH2 0x301C DUP2 DUP6 PUSH2 0x2F56 JUMP JUMPDEST SWAP4 POP PUSH2 0x302C DUP2 DUP6 PUSH1 0x20 DUP7 ADD PUSH2 0x2232 JUMP JUMPDEST DUP1 DUP5 ADD SWAP2 POP POP SWAP3 SWAP2 POP POP JUMP JUMPDEST PUSH0 DUP2 SWAP1 POP SWAP2 SWAP1 POP JUMP JUMPDEST PUSH2 0x3052 PUSH2 0x304D DUP3 PUSH2 0x2013 JUMP JUMPDEST PUSH2 0x3038 JUMP JUMPDEST DUP3 MSTORE POP POP JUMP JUMPDEST PUSH0 PUSH2 0x3063 DUP3 DUP7 PUSH2 0x3008 JUMP JUMPDEST SWAP2 POP PUSH2 0x306F DUP3 DUP6 PUSH2 0x3008 JUMP JUMPDEST SWAP2 POP PUSH2 0x307B DUP3 DUP5 PUSH2 0x3041 JUMP JUMPDEST PUSH1 0x20 DUP3 ADD SWAP2 POP DUP2 SWAP1 POP SWAP5 SWAP4 POP POP POP POP JUMP JUMPDEST PUSH0 PUSH2 0x3097 DUP3 DUP5 PUSH2 0x3008 JUMP JUMPDEST SWAP2 POP DUP2 SWAP1 POP SWAP3 SWAP2 POP POP JUMP JUMPDEST PUSH32 0x766964656F20646F65736E277420657869737400000000000000000000000000 PUSH0 DUP3 ADD MSTORE POP JUMP JUMPDEST PUSH0 PUSH2 0x30D6 PUSH1 0x13 DUP4 PUSH2 0x2222 JUMP JUMPDEST SWAP2 POP PUSH2 0x30E1 DUP3 PUSH2 0x30A2 JUMP JUMPDEST PUSH1 0x20 DUP3 ADD SWAP1 POP SWAP2 SWAP1 POP JUMP JUMPDEST PUSH0 PUSH1 0x20 DUP3 ADD SWAP1 POP DUP2 DUP2 SUB PUSH0 DUP4 ADD MSTORE PUSH2 0x3103 DUP2 PUSH2 0x30CA JUMP JUMPDEST SWAP1 POP SWAP2 SWAP1 POP JUMP JUMPDEST PUSH32 0x4E487B7100000000000000000000000000000000000000000000000000000000 PUSH0 MSTORE PUSH1 0x32 PUSH1 0x4 MSTORE PUSH1 0x24 PUSH0 REVERT JUMPDEST PUSH32 0x6F776E657220616363657373206F6E6C79000000000000000000000000000000 PUSH0 DUP3 ADD MSTORE POP JUMP JUMPDEST PUSH0 PUSH2 0x316B PUSH1 0x11 DUP4 PUSH2 0x2222 JUMP JUMPDEST SWAP2 POP PUSH2 0x3176 DUP3 PUSH2 0x3137 JUMP JUMPDEST PUSH1 0x20 DUP3 ADD SWAP1 POP SWAP2 SWAP1 POP JUMP JUMPDEST PUSH0 PUSH1 0x20 DUP3 ADD SWAP1 POP DUP2 DUP2 SUB PUSH0 DUP4 ADD MSTORE PUSH2 0x3198 DUP2 PUSH2 0x315F JUMP JUMPDEST SWAP1 POP SWAP2 SWAP1 POP JUMP JUMPDEST PUSH32 0x696E76616C6964206C6963656E736F7200000000000000000000000000000000 PUSH0 DUP3 ADD MSTORE POP JUMP JUMPDEST PUSH0 PUSH2 0x31D3 PUSH1 0x10 DUP4 PUSH2 0x2222 JUMP JUMPDEST SWAP2 POP PUSH2 0x31DE DUP3 PUSH2 0x319F JUMP JUMPDEST PUSH1 0x20 DUP3 ADD SWAP1 POP SWAP2 SWAP1 POP JUMP JUMPDEST PUSH0 PUSH1 0x20 DUP3 ADD SWAP1 POP DUP2 DUP2 SUB PUSH0 DUP4 ADD MSTORE PUSH2 0x3200 DUP2 PUSH2 0x31C7 JUMP JUMPDEST SWAP1 POP SWAP2 SWAP1 POP JUMP JUMPDEST PUSH32 0x756E617661696C61626C65206C6963656E736520696400000000000000000000 PUSH0 DUP3 ADD MSTORE POP JUMP JUMPDEST PUSH0 PUSH2 0x323B PUSH1 0x16 DUP4 PUSH2 0x2222 JUMP JUMPDEST SWAP2 POP PUSH2 0x3246 DUP3 PUSH2 0x3207 JUMP JUMPDEST PUSH1 0x20 DUP3 ADD SWAP1 POP SWAP2 SWAP1 POP JUMP JUMPDEST PUSH0 PUSH1 0x20 DUP3 ADD SWAP1 POP DUP2 DUP2 SUB PUSH0 DUP4 ADD MSTORE PUSH2 0x3268 DUP2 PUSH2 0x322F JUMP JUMPDEST SWAP1 POP SWAP2 SWAP1 POP JUMP JUMPDEST PUSH2 0x3280 PUSH2 0x327B DUP3 PUSH2 0x250B JUMP JUMPDEST PUSH2 0x3038 JUMP JUMPDEST DUP3 MSTORE POP POP JUMP JUMPDEST PUSH0 PUSH2 0x3291 DUP3 DUP7 PUSH2 0x326F JUMP JUMPDEST PUSH1 0x20 DUP3 ADD SWAP2 POP PUSH2 0x32A1 DUP3 DUP6 PUSH2 0x3008 JUMP JUMPDEST SWAP2 POP PUSH2 0x32AD DUP3 DUP5 PUSH2 0x3041 JUMP JUMPDEST PUSH1 0x20 DUP3 ADD SWAP2 POP DUP2 SWAP1 POP SWAP5 SWAP4 POP POP POP POP JUMP JUMPDEST PUSH32 0x696E76616C696420766964656F20696400000000000000000000000000000000 PUSH0 DUP3 ADD MSTORE POP JUMP JUMPDEST PUSH0 PUSH2 0x32F2 PUSH1 0x10 DUP4 PUSH2 0x2222 JUMP JUMPDEST SWAP2 POP PUSH2 0x32FD DUP3 PUSH2 0x32BE JUMP JUMPDEST PUSH1 0x20 DUP3 ADD SWAP1 POP SWAP2 SWAP1 POP JUMP JUMPDEST PUSH0 PUSH1 0x20 DUP3 ADD SWAP1 POP DUP2 DUP2 SUB PUSH0 DUP4 ADD MSTORE PUSH2 0x331F DUP2 PUSH2 0x32E6 JUMP JUMPDEST SWAP1 POP SWAP2 SWAP1 POP JUMP JUMPDEST PUSH0 PUSH2 0x3340 PUSH2 0x333B PUSH2 0x3336 DUP5 PUSH2 0x22C3 JUMP JUMPDEST PUSH2 0x2502 JUMP JUMPDEST PUSH2 0x22C3 JUMP JUMPDEST SWAP1 POP SWAP2 SWAP1 POP JUMP JUMPDEST PUSH0 PUSH2 0x3351 DUP3 PUSH2 0x3326 JUMP JUMPDEST SWAP1 POP SWAP2 SWAP1 POP JUMP JUMPDEST PUSH0 PUSH2 0x3362 DUP3 PUSH2 0x3347 JUMP JUMPDEST SWAP1 POP SWAP2 SWAP1 POP JUMP JUMPDEST PUSH2 0x3372 DUP2 PUSH2 0x3358 JUMP JUMPDEST DUP3 MSTORE POP POP JUMP JUMPDEST PUSH0 PUSH1 0x80 DUP3 ADD SWAP1 POP PUSH2 0x338B PUSH0 DUP4 ADD DUP8 PUSH2 0x3369 JUMP JUMPDEST DUP2 DUP2 SUB PUSH1 0x20 DUP4 ADD MSTORE PUSH2 0x339D DUP2 DUP7 PUSH2 0x2240 JUMP JUMPDEST SWAP1 POP PUSH2 0x33AC PUSH1 0x40 DUP4 ADD DUP6 PUSH2 0x2A59 JUMP JUMPDEST DUP2 DUP2 SUB PUSH1 0x60 DUP4 ADD MSTORE PUSH2 0x33BE DUP2 DUP5 PUSH2 0x2CD2 JUMP JUMPDEST SWAP1 POP SWAP6 SWAP5 POP POP POP POP POP JUMP JUMPDEST PUSH32 0x696E76616C6964206C6963656E736F72207369676E6174757265000000000000 PUSH0 DUP3 ADD MSTORE POP JUMP JUMPDEST PUSH0 PUSH2 0x33FD PUSH1 0x1A DUP4 PUSH2 0x2222 JUMP JUMPDEST SWAP2 POP PUSH2 0x3408 DUP3 PUSH2 0x33C9 JUMP JUMPDEST PUSH1 0x20 DUP3 ADD SWAP1 POP SWAP2 SWAP1 POP JUMP JUMPDEST PUSH0 PUSH1 0x20 DUP3 ADD SWAP1 POP DUP2 DUP2 SUB PUSH0 DUP4 ADD MSTORE PUSH2 0x342A DUP2 PUSH2 0x33F1 JUMP JUMPDEST SWAP1 POP SWAP2 SWAP1 POP JUMP JUMPDEST PUSH32 0x696E76616C6964206C6963656E73656500000000000000000000000000000000 PUSH0 DUP3 ADD MSTORE POP JUMP JUMPDEST PUSH0 PUSH2 0x3465 PUSH1 0x10 DUP4 PUSH2 0x2222 JUMP JUMPDEST SWAP2 POP PUSH2 0x3470 DUP3 PUSH2 0x3431 JUMP JUMPDEST PUSH1 0x20 DUP3 ADD SWAP1 POP SWAP2 SWAP1 POP JUMP JUMPDEST PUSH0 PUSH1 0x20 DUP3 ADD SWAP1 POP DUP2 DUP2 SUB PUSH0 DUP4 ADD MSTORE PUSH2 0x3492 DUP2 PUSH2 0x3459 JUMP JUMPDEST SWAP1 POP SWAP2 SWAP1 POP JUMP JUMPDEST PUSH0 PUSH1 0xA0 DUP3 ADD SWAP1 POP DUP2 DUP2 SUB PUSH0 DUP4 ADD MSTORE PUSH2 0x34B1 DUP2 DUP9 PUSH2 0x2240 JUMP JUMPDEST SWAP1 POP PUSH2 0x34C0 PUSH1 0x20 DUP4 ADD DUP8 PUSH2 0x299A JUMP JUMPDEST PUSH2 0x34CD PUSH1 0x40 DUP4 ADD DUP7 PUSH2 0x299A JUMP JUMPDEST PUSH2 0x34DA PUSH1 0x60 DUP4 ADD DUP6 PUSH2 0x2A59 JUMP JUMPDEST PUSH2 0x34E7 PUSH1 0x80 DUP4 ADD DUP5 PUSH2 0x2A59 JUMP JUMPDEST SWAP7 SWAP6 POP POP POP POP POP POP JUMP JUMPDEST PUSH0 PUSH2 0x3503 PUSH2 0x34FE DUP5 PUSH2 0x231B JUMP JUMPDEST PUSH2 0x20E6 JUMP JUMPDEST SWAP1 POP DUP3 DUP2 MSTORE PUSH1 0x20 DUP2 ADD DUP5 DUP5 DUP5 ADD GT ISZERO PUSH2 0x351F JUMPI PUSH2 0x351E PUSH2 0x2074 JUMP JUMPDEST JUMPDEST PUSH2 0x352A DUP5 DUP3 DUP6 PUSH2 0x2232 JUMP JUMPDEST POP SWAP4 SWAP3 POP POP POP JUMP JUMPDEST PUSH0 DUP3 PUSH1 0x1F DUP4 ADD SLT PUSH2 0x3546 JUMPI PUSH2 0x3545 PUSH2 0x2070 JUMP JUMPDEST JUMPDEST DUP2 MLOAD PUSH2 0x3556 DUP5 DUP3 PUSH1 0x20 DUP7 ADD PUSH2 0x34F1 JUMP JUMPDEST SWAP2 POP POP SWAP3 SWAP2 POP POP JUMP JUMPDEST PUSH0 PUSH1 0x20 DUP3 DUP5 SUB SLT ISZERO PUSH2 0x3574 JUMPI PUSH2 0x3573 PUSH2 0x200B JUMP JUMPDEST JUMPDEST PUSH0 DUP3 ADD MLOAD PUSH8 0xFFFFFFFFFFFFFFFF DUP2 GT ISZERO PUSH2 0x3591 JUMPI PUSH2 0x3590 PUSH2 0x200F JUMP JUMPDEST JUMPDEST PUSH2 0x359D DUP5 DUP3 DUP6 ADD PUSH2 0x3532 JUMP JUMPDEST SWAP2 POP POP SWAP3 SWAP2 POP POP JUMP JUMPDEST PUSH0 PUSH1 0x80 DUP3 ADD SWAP1 POP PUSH2 0x35B9 PUSH0 DUP4 ADD DUP8 PUSH2 0x241C JUMP JUMPDEST PUSH2 0x35C6 PUSH1 0x20 DUP4 ADD DUP7 PUSH2 0x2A15 JUMP JUMPDEST PUSH2 0x35D3 PUSH1 0x40 DUP4 ADD DUP6 PUSH2 0x241C JUMP JUMPDEST PUSH2 0x35E0 PUSH1 0x60 DUP4 ADD DUP5 PUSH2 0x241C JUMP JUMPDEST SWAP6 SWAP5 POP POP POP POP POP JUMP JUMPDEST PUSH32 0x696E76616C6964207369676E6174757265206C656E6774680000000000000000 PUSH0 DUP3 ADD MSTORE POP JUMP JUMPDEST PUSH0 PUSH2 0x361D PUSH1 0x18 DUP4 PUSH2 0x2222 JUMP JUMPDEST SWAP2 POP PUSH2 0x3628 DUP3 PUSH2 0x35E9 JUMP JUMPDEST PUSH1 0x20 DUP3 ADD SWAP1 POP SWAP2 SWAP1 POP JUMP JUMPDEST PUSH0 PUSH1 0x20 DUP3 ADD SWAP1 POP DUP2 DUP2 SUB PUSH0 DUP4 ADD MSTORE PUSH2 0x364A DUP2 PUSH2 0x3611 JUMP JUMPDEST SWAP1 POP SWAP2 SWAP1 POP JUMP JUMPDEST PUSH32 0x19457468657265756D205369676E6564204D6573736167653A0A333200000000 PUSH0 DUP3 ADD MSTORE POP JUMP JUMPDEST PUSH0 PUSH2 0x3685 PUSH1 0x1C DUP4 PUSH2 0x2F56 JUMP JUMPDEST SWAP2 POP PUSH2 0x3690 DUP3 PUSH2 0x3651 JUMP JUMPDEST PUSH1 0x1C DUP3 ADD SWAP1 POP SWAP2 SWAP1 POP JUMP JUMPDEST PUSH0 DUP2 SWAP1 POP SWAP2 SWAP1 POP JUMP JUMPDEST PUSH2 0x36B5 PUSH2 0x36B0 DUP3 PUSH2 0x2413 JUMP JUMPDEST PUSH2 0x369B JUMP JUMPDEST DUP3 MSTORE POP POP JUMP JUMPDEST PUSH0 PUSH2 0x36C5 DUP3 PUSH2 0x3679 JUMP JUMPDEST SWAP2 POP PUSH2 0x36D1 DUP3 DUP5 PUSH2 0x36A4 JUMP JUMPDEST PUSH1 0x20 DUP3 ADD SWAP2 POP DUP2 SWAP1 POP SWAP3 SWAP2 POP POP JUMP JUMPDEST PUSH0 PUSH1 0x80 DUP3 ADD SWAP1 POP DUP2 DUP2 SUB PUSH0 DUP4 ADD MSTORE PUSH2 0x36F8 DUP2 DUP8 PUSH2 0x2240 JUMP JUMPDEST SWAP1 POP PUSH2 0x3707 PUSH1 0x20 DUP4 ADD DUP7 PUSH2 0x22F3 JUMP JUMPDEST PUSH2 0x3714 PUSH1 0x40 DUP4 ADD DUP6 PUSH2 0x2A59 JUMP JUMPDEST DUP2 DUP2 SUB PUSH1 0x60 DUP4 ADD MSTORE PUSH2 0x3726 DUP2 DUP5 PUSH2 0x2CD2 JUMP JUMPDEST SWAP1 POP SWAP6 SWAP5 POP POP POP POP POP JUMP JUMPDEST PUSH32 0x4E487B7100000000000000000000000000000000000000000000000000000000 PUSH0 MSTORE PUSH1 0x11 PUSH1 0x4 MSTORE PUSH1 0x24 PUSH0 REVERT JUMPDEST PUSH0 PUSH2 0x3768 DUP3 PUSH2 0x2013 JUMP JUMPDEST SWAP2 POP PUSH2 0x3773 DUP4 PUSH2 0x2013 JUMP JUMPDEST SWAP3 POP DUP3 DUP3 ADD SWAP1 POP DUP1 DUP3 GT ISZERO PUSH2 0x378B JUMPI PUSH2 0x378A PUSH2 0x3731 JUMP JUMPDEST JUMPDEST SWAP3 SWAP2 POP POP JUMP JUMPDEST PUSH0 PUSH1 0x20 PUSH1 0x1F DUP4 ADD DIV SWAP1 POP SWAP2 SWAP1 POP JUMP JUMPDEST PUSH0 DUP3 DUP3 SHL SWAP1 POP SWAP3 SWAP2 POP POP JUMP JUMPDEST PUSH0 PUSH1 0x8 DUP4 MUL PUSH2 0x37DB PUSH32 0xFFFFFFFFFFFFFFFFFFFFFFFFFFFFFFFFFFFFFFFFFFFFFFFFFFFFFFFFFFFFFFFF DUP3 PUSH2 0x37A0 JUMP JUMPDEST PUSH2 0x37E5 DUP7 DUP4 PUSH2 0x37A0 JUMP JUMPDEST SWAP6 POP DUP1 NOT DUP5 AND SWAP4 POP DUP1 DUP7 AND DUP5 OR SWAP3 POP POP POP SWAP4 SWAP3 POP POP POP JUMP JUMPDEST PUSH0 DUP2 SWAP1 POP SWAP2 SWAP1 POP JUMP JUMPDEST PUSH2 0x380F DUP4 PUSH2 0x250B JUMP JUMPDEST PUSH2 0x3823 PUSH2 0x381B DUP3 PUSH2 0x37FD JUMP JUMPDEST DUP5 DUP5 SLOAD PUSH2 0x37AC JUMP JUMPDEST DUP3 SSTORE POP POP POP POP JUMP JUMPDEST PUSH0 SWAP1 JUMP JUMPDEST PUSH2 0x3837 PUSH2 0x382B JUMP JUMPDEST PUSH2 0x3842 DUP2 DUP5 DUP5 PUSH2 0x3806 JUMP JUMPDEST POP POP POP JUMP JUMPDEST JUMPDEST DUP2 DUP2 LT ISZERO PUSH2 0x3865 JUMPI PUSH2 0x385A PUSH0 DUP3 PUSH2 0x382F JUMP JUMPDEST PUSH1 0x1 DUP2 ADD SWAP1 POP PUSH2 0x3848 JUMP JUMPDEST POP POP JUMP JUMPDEST PUSH1 0x1F DUP3 GT ISZERO PUSH2 0x38AA JUMPI PUSH2 0x387B DUP2 PUSH2 0x2F60 JUMP JUMPDEST PUSH2 0x3884 DUP5 PUSH2 0x3791 JUMP JUMPDEST DUP2 ADD PUSH1 0x20 DUP6 LT ISZERO PUSH2 0x3893 JUMPI DUP2 SWAP1 POP JUMPDEST PUSH2 0x38A7 PUSH2 0x389F DUP6 PUSH2 0x3791 JUMP JUMPDEST DUP4 ADD DUP3 PUSH2 0x3847 JUMP JUMPDEST POP POP JUMPDEST POP POP POP JUMP JUMPDEST PUSH0 DUP3 DUP3 SHR SWAP1 POP SWAP3 SWAP2 POP POP JUMP JUMPDEST PUSH0 PUSH2 0x38CA PUSH0 NOT DUP5 PUSH1 0x8 MUL PUSH2 0x38AF JUMP JUMPDEST NOT DUP1 DUP4 AND SWAP2 POP POP SWAP3 SWAP2 POP POP JUMP JUMPDEST PUSH0 PUSH2 0x38E2 DUP4 DUP4 PUSH2 0x38BB JUMP JUMPDEST SWAP2 POP DUP3 PUSH1 0x2 MUL DUP3 OR SWAP1 POP SWAP3 SWAP2 POP POP JUMP JUMPDEST PUSH2 0x38FB DUP3 PUSH2 0x2218 JUMP JUMPDEST PUSH8 0xFFFFFFFFFFFFFFFF DUP2 GT ISZERO PUSH2 0x3914 JUMPI PUSH2 0x3913 PUSH2 0x2088 JUMP JUMPDEST JUMPDEST PUSH2 0x391E DUP3 SLOAD PUSH2 0x2F26 JUMP JUMPDEST PUSH2 0x3929 DUP3 DUP3 DUP6 PUSH2 0x3869 JUMP JUMPDEST PUSH0 PUSH1 0x20 SWAP1 POP PUSH1 0x1F DUP4 GT PUSH1 0x1 DUP2 EQ PUSH2 0x395A JUMPI PUSH0 DUP5 ISZERO PUSH2 0x3948 JUMPI DUP3 DUP8 ADD MLOAD SWAP1 POP JUMPDEST PUSH2 0x3952 DUP6 DUP3 PUSH2 0x38D7 JUMP JUMPDEST DUP7 SSTORE POP PUSH2 0x39B9 JUMP JUMPDEST PUSH1 0x1F NOT DUP5 AND PUSH2 0x3968 DUP7 PUSH2 0x2F60 JUMP JUMPDEST PUSH0 JUMPDEST DUP3 DUP2 LT ISZERO PUSH2 0x398F JUMPI DUP5 DUP10 ADD MLOAD DUP3 SSTORE PUSH1 0x1 DUP3 ADD SWAP2 POP PUSH1 0x20 DUP6 ADD SWAP5 POP PUSH1 0x20 DUP2 ADD SWAP1 POP PUSH2 0x396A JUMP JUMPDEST DUP7 DUP4 LT ISZERO PUSH2 0x39AC JUMPI DUP5 DUP10 ADD MLOAD PUSH2 0x39A8 PUSH1 0x1F DUP10 AND DUP3 PUSH2 0x38BB JUMP JUMPDEST DUP4 SSTORE POP JUMPDEST PUSH1 0x1 PUSH1 0x2 DUP9 MUL ADD DUP9 SSTORE POP POP POP JUMPDEST POP POP POP POP POP POP JUMP INVALID BLOBHASH KECCAK256 PUSH4 0x65727469 PUSH7 0x79207468617420 BLOBHASH KECCAK256 PUSH2 0x6D20 PUSH21 0x6865206C6963656E736F72206F6620746865207669 PUSH5 0x656F206167 PUSH19 0x65656D656E7420616E6420616772656520746F KECCAK256 PUSH2 0x6C6C KECCAK256 PUSH21 0x65726D7320646566696E656420696E207468652061 PUSH8 0x7265656D656E742E BLOBHASH KECCAK256 PUSH4 0x65727469 PUSH7 0x79207468617420 BLOBHASH KECCAK256 PUSH2 0x6D20 PUSH21 0x6865206C6963656E736565206F6620746865207669 PUSH5 0x656F206167 PUSH19 0x65656D656E7420616E6420616772656520746F KECCAK256 PUSH2 0x6C6C KECCAK256 PUSH21 0x65726D7320646566696E656420696E207468652061 PUSH8 0x7265656D656E742E LOG2 PUSH5 0x6970667358 0x22 SLT KECCAK256 CREATE 0xDC SWAP12 0xE9 KECCAK256 ADDRESS 0xD6 0xC3 0xAE LOG3 XOR DUP12 0x28 SWAP6 PUSH32 0x284EE94084D131A03114CF52A90B35BF7564736F6C6343000819003300000000 "
		},
		"gasEstimates": {
			"creation": {
				"codeDepositCost": "3009400",
				"executionCost": "27573",
				"totalCost": "3036973"
			},
			"external": {
				"addLicense(string,address,uint256,uint256)": "infinite",
				"addTemplate(address)": "27014",
				"addVideo(string,address,uint256,bytes)": "infinite",
				"addVideoWithLicense(string,address,uint256,bytes,address,uint256,uint256)": "infinite",
				"buyLicense(uint256,uint256,bytes)": "infinite",
				"composeLicense(uint256,address)": "infinite",
				"getEthSignedMessageHash(bytes32)": "infinite",
				"getLicenseOwner(uint256)": "infinite",
				"getLicensePrice(uint256)": "infinite",
				"getLicenseTemplate(uint256)": "5107",
				"getLicenseVideo(uint256)": "infinite",
				"getLicenseeLicenses(string,address)": "infinite",
				"getLicenseeMessageHash(uint256,uint256)": "infinite",
				"getLicensorMessageHash(string,uint256)": "infinite",
				"licenseeAgreement()": "infinite",
				"licensorAgreement()": "infinite",
				"recoverSigner(bytes32,bytes)": "infinite",
				"removeLicense(uint256)": "infinite",
				"removeTemplate(address)": "27034",
				"splitSignature(bytes)": "infinite",
				"transferOwnership(address)": "26969",
				"verifyLicensee(address,uint256,uint256,bytes)": "infinite",
				"verifyLicensor(address,string,uint256,bytes)": "infinite"
			},
			"internal": {
				"createLicense(string memory,address,uint256,LID)": "infinite"
			}
		},
		"methodIdentifiers": {
			"addLicense(string,address,uint256,uint256)": "70d8677f",
			"addTemplate(address)": "55b30266",
			"addVideo(string,address,uint256,bytes)": "76b1d966",
			"addVideoWithLicense(string,address,uint256,bytes,address,uint256,uint256)": "fe744a39",
			"buyLicense(uint256,uint256,bytes)": "00f23fc1",
			"composeLicense(uint256,address)": "976662b0",
			"getEthSignedMessageHash(bytes32)": "fa540801",
			"getLicenseOwner(uint256)": "1e7fd268",
			"getLicensePrice(uint256)": "b6c00a82",
			"getLicenseTemplate(uint256)": "b033c13a",
			"getLicenseVideo(uint256)": "41befbd1",
			"getLicenseeLicenses(string,address)": "45402a4d",
			"getLicenseeMessageHash(uint256,uint256)": "73451439",
			"getLicensorMessageHash(string,uint256)": "2437e7eb",
			"licenseeAgreement()": "0e15c62a",
			"licensorAgreement()": "66527f1c",
			"recoverSigner(bytes32,bytes)": "97aba7f9",
			"removeLicense(uint256)": "99911abe",
			"removeTemplate(address)": "e946af59",
			"splitSignature(bytes)": "a7bb5803",
			"transferOwnership(address)": "f2fde38b",
			"verifyLicensee(address,uint256,uint256,bytes)": "5867f3a8",
			"verifyLicensor(address,string,uint256,bytes)": "96fcc1ae"
		}
	},
	"abi": [
		{
			"inputs": [],
			"stateMutability": "nonpayable",
			"type": "constructor"
		},
		{
			"inputs": [
				{
					"internalType": "string",
					"name": "vid",
					"type": "string"
				},
				{
					"internalType": "address",
					"name": "template",
					"type": "address"
				},
				{
					"internalType": "uint256",
					"name": "price",
					"type": "uint256"
				},
				{
					"internalType": "LID",
					"name": "licenseId",
					"type": "uint256"
				}
			],
			"name": "addLicense",
			"outputs": [],
			"stateMutability": "nonpayable",
			"type": "function"
		},
		{
			"inputs": [
				{
					"internalType": "address",
					"name": "template",
					"type": "address"
				}
			],
			"name": "addTemplate",
			"outputs": [],
			"stateMutability": "nonpayable",
			"type": "function"
		},
		{
			"inputs": [
				{
					"internalType": "string",
					"name": "vid",
					"type": "string"
				},
				{
					"internalType": "address payable",
					"name": "licensor",
					"type": "address"
				},
				{
					"internalType": "uint256",
					"name": "nonce",
					"type": "uint256"
				},
				{
					"internalType": "bytes",
					"name": "signature",
					"type": "bytes"
				}
			],
			"name": "addVideo",
			"outputs": [],
			"stateMutability": "nonpayable",
			"type": "function"
		},
		{
			"inputs": [
				{
					"internalType": "string",
					"name": "vid",
					"type": "string"
				},
				{
					"internalType": "address payable",
					"name": "licensor",
					"type": "address"
				},
				{
					"internalType": "uint256",
					"name": "nonce",
					"type": "uint256"
				},
				{
					"internalType": "bytes",
					"name": "signature",
					"type": "bytes"
				},
				{
					"internalType": "address",
					"name": "template",
					"type": "address"
				},
				{
					"internalType": "uint256",
					"name": "price",
					"type": "uint256"
				},
				{
					"internalType": "LID",
					"name": "licenseId",
					"type": "uint256"
				}
			],
			"name": "addVideoWithLicense",
			"outputs": [],
			"stateMutability": "nonpayable",
			"type": "function"
		},
		{
			"inputs": [
				{
					"internalType": "LID",
					"name": "licenseId",
					"type": "uint256"
				},
				{
					"internalType": "uint256",
					"name": "nonce",
					"type": "uint256"
				},
				{
					"internalType": "bytes",
					"name": "signature",
					"type": "bytes"
				}
			],
			"name": "buyLicense",
			"outputs": [],
			"stateMutability": "payable",
			"type": "function"
		},
		{
			"inputs": [
				{
					"internalType": "LID",
					"name": "licenseId",
					"type": "uint256"
				},
				{
					"internalType": "address",
					"name": "licensee",
					"type": "address"
				}
			],
			"name": "composeLicense",
			"outputs": [
				{
					"internalType": "string",
					"name": "",
					"type": "string"
				}
			],
			"stateMutability": "view",
			"type": "function"
		},
		{
			"inputs": [
				{
					"internalType": "bytes32",
					"name": "_messageHash",
					"type": "bytes32"
				}
			],
			"name": "getEthSignedMessageHash",
			"outputs": [
				{
					"internalType": "bytes32",
					"name": "",
					"type": "bytes32"
				}
			],
			"stateMutability": "pure",
			"type": "function"
		},
		{
			"inputs": [
				{
					"internalType": "LID",
					"name": "licenseId",
					"type": "uint256"
				}
			],
			"name": "getLicenseOwner",
			"outputs": [
				{
					"internalType": "address payable",
					"name": "",
					"type": "address"
				}
			],
			"stateMutability": "view",
			"type": "function"
		},
		{
			"inputs": [
				{
					"internalType": "LID",
					"name": "licenseId",
					"type": "uint256"
				}
			],
			"name": "getLicensePrice",
			"outputs": [
				{
					"internalType": "uint256",
					"name": "",
					"type": "uint256"
				}
			],
			"stateMutability": "view",
			"type": "function"
		},
		{
			"inputs": [
				{
					"internalType": "LID",
					"name": "licenseId",
					"type": "uint256"
				}
			],
			"name": "getLicenseTemplate",
			"outputs": [
				{
					"internalType": "address",
					"name": "",
					"type": "address"
				}
			],
			"stateMutability": "view",
			"type": "function"
		},
		{
			"inputs": [
				{
					"internalType": "LID",
					"name": "licenseId",
					"type": "uint256"
				}
			],
			"name": "getLicenseVideo",
			"outputs": [
				{
					"internalType": "string",
					"name": "",
					"type": "string"
				}
			],
			"stateMutability": "view",
			"type": "function"
		},
		{
			"inputs": [
				{
					"internalType": "string",
					"name": "vid",
					"type": "string"
				},
				{
					"internalType": "address",
					"name": "licensee",
					"type": "address"
				}
			],
			"name": "getLicenseeLicenses",
			"outputs": [
				{
					"internalType": "LID[]",
					"name": "",
					"type": "uint256[]"
				}
			],
			"stateMutability": "view",
			"type": "function"
		},
		{
			"inputs": [
				{
					"internalType": "LID",
					"name": "licenseId",
					"type": "uint256"
				},
				{
					"internalType": "uint256",
					"name": "nonce",
					"type": "uint256"
				}
			],
			"name": "getLicenseeMessageHash",
			"outputs": [
				{
					"internalType": "bytes32",
					"name": "",
					"type": "bytes32"
				}
			],
			"stateMutability": "pure",
			"type": "function"
		},
		{
			"inputs": [
				{
					"internalType": "string",
					"name": "vid",
					"type": "string"
				},
				{
					"internalType": "uint256",
					"name": "nonce",
					"type": "uint256"
				}
			],
			"name": "getLicensorMessageHash",
			"outputs": [
				{
					"internalType": "bytes32",
					"name": "",
					"type": "bytes32"
				}
			],
			"stateMutability": "pure",
			"type": "function"
		},
		{
			"inputs": [],
			"name": "licenseeAgreement",
			"outputs": [
				{
					"internalType": "string",
					"name": "",
					"type": "string"
				}
			],
			"stateMutability": "view",
			"type": "function"
		},
		{
			"inputs": [],
			"name": "licensorAgreement",
			"outputs": [
				{
					"internalType": "string",
					"name": "",
					"type": "string"
				}
			],
			"stateMutability": "view",
			"type": "function"
		},
		{
			"inputs": [
				{
					"internalType": "bytes32",
					"name": "_ethSignedMessageHash",
					"type": "bytes32"
				},
				{
					"internalType": "bytes",
					"name": "_signature",
					"type": "bytes"
				}
			],
			"name": "recoverSigner",
			"outputs": [
				{
					"internalType": "address",
					"name": "",
					"type": "address"
				}
			],
			"stateMutability": "pure",
			"type": "function"
		},
		{
			"inputs": [
				{
					"internalType": "LID",
					"name": "licenseId",
					"type": "uint256"
				}
			],
			"name": "removeLicense",
			"outputs": [],
			"stateMutability": "nonpayable",
			"type": "function"
		},
		{
			"inputs": [
				{
					"internalType": "address",
					"name": "template",
					"type": "address"
				}
			],
			"name": "removeTemplate",
			"outputs": [],
			"stateMutability": "nonpayable",
			"type": "function"
		},
		{
			"inputs": [
				{
					"internalType": "bytes",
					"name": "sig",
					"type": "bytes"
				}
			],
			"name": "splitSignature",
			"outputs": [
				{
					"internalType": "bytes32",
					"name": "r",
					"type": "bytes32"
				},
				{
					"internalType": "bytes32",
					"name": "s",
					"type": "bytes32"
				},
				{
					"internalType": "uint8",
					"name": "v",
					"type": "uint8"
				}
			],
			"stateMutability": "pure",
			"type": "function"
		},
		{
			"inputs": [
				{
					"internalType": "address",
					"name": "owner",
					"type": "address"
				}
			],
			"name": "transferOwnership",
			"outputs": [],
			"stateMutability": "nonpayable",
			"type": "function"
		},
		{
			"inputs": [
				{
					"internalType": "address",
					"name": "signer",
					"type": "address"
				},
				{
					"internalType": "LID",
					"name": "licenseId",
					"type": "uint256"
				},
				{
					"internalType": "uint256",
					"name": "nonce",
					"type": "uint256"
				},
				{
					"internalType": "bytes",
					"name": "signature",
					"type": "bytes"
				}
			],
			"name": "verifyLicensee",
			"outputs": [
				{
					"internalType": "bool",
					"name": "",
					"type": "bool"
				}
			],
			"stateMutability": "pure",
			"type": "function"
		},
		{
			"inputs": [
				{
					"internalType": "address",
					"name": "signer",
					"type": "address"
				},
				{
					"internalType": "string",
					"name": "vid",
					"type": "string"
				},
				{
					"internalType": "uint256",
					"name": "nonce",
					"type": "uint256"
				},
				{
					"internalType": "bytes",
					"name": "signature",
					"type": "bytes"
				}
			],
			"name": "verifyLicensor",
			"outputs": [
				{
					"internalType": "bool",
					"name": "",
					"type": "bool"
				}
			],
			"stateMutability": "pure",
			"type": "function"
		}
	]
}