{
	"data": {
		"bytecode": {
			"linkReferences": {},
			"object": "6080604052348015600e575f80fd5b506108f88061001c5f395ff3fe608060405234801561000f575f80fd5b5060043610610055575f3560e01c806317d7de7c14610059578063321c48f214610077578063483ced98146100955780637db3a946146100c5578063ad2e8c9b146100e3575b5f80fd5b610061610101565b60405161006e919061021d565b60405180910390f35b61007f61013e565b60405161008c919061021d565b60405180910390f35b6100af60048036038101906100aa9190610407565b610161565b6040516100bc919061021d565b60405180910390f35b6100cd61018a565b6040516100da919061021d565b60405180910390f35b6100eb6101a9565b6040516100f891906104a9565b60405180910390f35b60606040518060400160405280600c81526020017f54657374204c6963656e73650000000000000000000000000000000000000000815250905090565b606060405180610420016040528061040081526020016104c36104009139905090565b606060405180610420016040528061040081526020016104c36104009139905095945050505050565b60405180610420016040528061040081526020016104c3610400913981565b5f90565b5f81519050919050565b5f82825260208201905092915050565b8281835e5f83830152505050565b5f601f19601f8301169050919050565b5f6101ef826101ad565b6101f981856101b7565b93506102098185602086016101c7565b610212816101d5565b840191505092915050565b5f6020820190508181035f83015261023581846101e5565b905092915050565b5f604051905090565b5f80fd5b5f80fd5b5f80fd5b5f80fd5b7f4e487b71000000000000000000000000000000000000000000000000000000005f52604160045260245ffd5b61028c826101d5565b810181811067ffffffffffffffff821117156102ab576102aa610256565b5b80604052505050565b5f6102bd61023d565b90506102c98282610283565b919050565b5f67ffffffffffffffff8211156102e8576102e7610256565b5b6102f1826101d5565b9050602081019050919050565b828183375f83830152505050565b5f61031e610319846102ce565b6102b4565b90508281526020810184848401111561033a57610339610252565b5b6103458482856102fe565b509392505050565b5f82601f8301126103615761036061024e565b5b813561037184826020860161030c565b91505092915050565b5f73ffffffffffffffffffffffffffffffffffffffff82169050919050565b5f6103a38261037a565b9050919050565b6103b381610399565b81146103bd575f80fd5b50565b5f813590506103ce816103aa565b92915050565b5f819050919050565b6103e6816103d4565b81146103f0575f80fd5b50565b5f81359050610401816103dd565b92915050565b5f805f805f60a086880312156104205761041f610246565b5b5f86013567ffffffffffffffff81111561043d5761043c61024a565b5b6104498882890161034d565b955050602061045a888289016103c0565b945050604061046b888289016103c0565b935050606061047c888289016103f3565b925050608061048d888289016103f3565b9150509295509295909350565b6104a3816103d4565b82525050565b5f6020820190506104bc5f83018461049a565b9291505056fe4c6963656e73696e672041677265656d656e740a0a312e204772616e74206f66204c6963656e73650a2d20596f7520617265206772616e7465642061206e6f6e2d6578636c75736976652c206e6f6e2d7472616e7366657261626c65206c6963656e736520746f207573652074686520766964656f205b564944454f5f49445d20666f722074686520707572706f7365206f66206372656174696e67206465726976617469766520766964656f20636f6e74656e742e0a0a322e205573616765204c696d69746174696f6e730a2d2054686973206c6963656e736520697320666f72206e6f6e2d636f6d6d65726369616c20757365206f6e6c792e0a2d20596f75206d7573742070726f76696465206174747269627574696f6e20746f20746865206f726967696e616c20766964656f20696e20616e79206465726976617469766520776f726b732e0a0a332e204475726174696f6e0a2d20546865206c6963656e73652069732076616c696420666f72205b4475726174696f6e5d2066726f6d207468652064617465206f662070757263686173652e0a0a342e205061796d656e74205465726d730a2d20546865206c6963656e736520666565206973205b416d6f756e745d2c2070617961626c6520766961205b5061796d656e74204d6574686f645d2e0a0a352e2050726f6869626974656420557365730a2d20596f75206d6179206e6f74207265646973747269627574652c207375626c6963656e73652c206f7220726573656c6c2074686520766964656f2e0a2d2054686520766964656f206d6179206e6f74206265207573656420696e20616e7920636f6e74656e7420746861742070726f6d6f7465732068617465207370656563682c2076696f6c656e63652c206f7220696c6c6567616c20616374697669746965732e0a0a362e205465726d696e6174696f6e0a2d20546869732061677265656d656e742077696c6c207465726d696e617465206175746f6d61746963616c6c7920696620796f752062726561636820616e79206f6620697473207465726d732e0a0a372e20476f7665726e696e67204c61770a2d20546869732061677265656d656e74207368616c6c20626520676f7665726e656420627920746865206c617773206f66205b596f757220436f756e7472792f53746174655d2e0a0a382e20436f6e7461637420496e666f726d6174696f6e0a2d20466f7220616e79207175657374696f6e7320726567617264696e6720746869732061677265656d656e742c20706c6561736520636f6e74616374205b596f757220436f6e7461637420496e666f726d6174696f6e5d2e0a0a5369676e61747572650a2d205b596f7572205369676e61747572652f596f757220436f6d70616e792773205369676e61747572655d0a0aa26469706673582212205b250370ff593f33723b396f1a987b7a8a5df2228e7a270430433b19f11645fc64736f6c63430008190033",
			"opcodes": "PUSH1 0x80 PUSH1 0x40 MSTORE CALLVALUE DUP1 ISZERO PUSH1 0xE JUMPI PUSH0 DUP1 REVERT JUMPDEST POP PUSH2 0x8F8 DUP1 PUSH2 0x1C PUSH0 CODECOPY PUSH0 RETURN INVALID PUSH1 0x80 PUSH1 0x40 MSTORE CALLVALUE DUP1 ISZERO PUSH2 0xF JUMPI PUSH0 DUP1 REVERT JUMPDEST POP PUSH1 0x4 CALLDATASIZE LT PUSH2 0x55 JUMPI PUSH0 CALLDATALOAD PUSH1 0xE0 SHR DUP1 PUSH4 0x17D7DE7C EQ PUSH2 0x59 JUMPI DUP1 PUSH4 0x321C48F2 EQ PUSH2 0x77 JUMPI DUP1 PUSH4 0x483CED98 EQ PUSH2 0x95 JUMPI DUP1 PUSH4 0x7DB3A946 EQ PUSH2 0xC5 JUMPI DUP1 PUSH4 0xAD2E8C9B EQ PUSH2 0xE3 JUMPI JUMPDEST PUSH0 DUP1 REVERT JUMPDEST PUSH2 0x61 PUSH2 0x101 JUMP JUMPDEST PUSH1 0x40 MLOAD PUSH2 0x6E SWAP2 SWAP1 PUSH2 0x21D JUMP JUMPDEST PUSH1 0x40 MLOAD DUP1 SWAP2 SUB SWAP1 RETURN JUMPDEST PUSH2 0x7F PUSH2 0x13E JUMP JUMPDEST PUSH1 0x40 MLOAD PUSH2 0x8C SWAP2 SWAP1 PUSH2 0x21D JUMP JUMPDEST PUSH1 0x40 MLOAD DUP1 SWAP2 SUB SWAP1 RETURN JUMPDEST PUSH2 0xAF PUSH1 0x4 DUP1 CALLDATASIZE SUB DUP2 ADD SWAP1 PUSH2 0xAA SWAP2 SWAP1 PUSH2 0x407 JUMP JUMPDEST PUSH2 0x161 JUMP JUMPDEST PUSH1 0x40 MLOAD PUSH2 0xBC SWAP2 SWAP1 PUSH2 0x21D JUMP JUMPDEST PUSH1 0x40 MLOAD DUP1 SWAP2 SUB SWAP1 RETURN JUMPDEST PUSH2 0xCD PUSH2 0x18A JUMP JUMPDEST PUSH1 0x40 MLOAD PUSH2 0xDA SWAP2 SWAP1 PUSH2 0x21D JUMP JUMPDEST PUSH1 0x40 MLOAD DUP1 SWAP2 SUB SWAP1 RETURN JUMPDEST PUSH2 0xEB PUSH2 0x1A9 JUMP JUMPDEST PUSH1 0x40 MLOAD PUSH2 0xF8 SWAP2 SWAP1 PUSH2 0x4A9 JUMP JUMPDEST PUSH1 0x40 MLOAD DUP1 SWAP2 SUB SWAP1 RETURN JUMPDEST PUSH1 0x60 PUSH1 0x40 MLOAD DUP1 PUSH1 0x40 ADD PUSH1 0x40 MSTORE DUP1 PUSH1 0xC DUP2 MSTORE PUSH1 0x20 ADD PUSH32 0x54657374204C6963656E73650000000000000000000000000000000000000000 DUP2 MSTORE POP SWAP1 POP SWAP1 JUMP JUMPDEST PUSH1 0x60 PUSH1 0x40 MLOAD DUP1 PUSH2 0x420 ADD PUSH1 0x40 MSTORE DUP1 PUSH2 0x400 DUP2 MSTORE PUSH1 0x20 ADD PUSH2 0x4C3 PUSH2 0x400 SWAP2 CODECOPY SWAP1 POP SWAP1 JUMP JUMPDEST PUSH1 0x60 PUSH1 0x40 MLOAD DUP1 PUSH2 0x420 ADD PUSH1 0x40 MSTORE DUP1 PUSH2 0x400 DUP2 MSTORE PUSH1 0x20 ADD PUSH2 0x4C3 PUSH2 0x400 SWAP2 CODECOPY SWAP1 POP SWAP6 SWAP5 POP POP POP POP POP JUMP JUMPDEST PUSH1 0x40 MLOAD DUP1 PUSH2 0x420 ADD PUSH1 0x40 MSTORE DUP1 PUSH2 0x400 DUP2 MSTORE PUSH1 0x20 ADD PUSH2 0x4C3 PUSH2 0x400 SWAP2 CODECOPY DUP2 JUMP JUMPDEST PUSH0 SWAP1 JUMP JUMPDEST PUSH0 DUP2 MLOAD SWAP1 POP SWAP2 SWAP1 POP JUMP JUMPDEST PUSH0 DUP3 DUP3 MSTORE PUSH1 0x20 DUP3 ADD SWAP1 POP SWAP3 SWAP2 POP POP JUMP JUMPDEST DUP3 DUP2 DUP4 MCOPY PUSH0 DUP4 DUP4 ADD MSTORE POP POP POP JUMP JUMPDEST PUSH0 PUSH1 0x1F NOT PUSH1 0x1F DUP4 ADD AND SWAP1 POP SWAP2 SWAP1 POP JUMP JUMPDEST PUSH0 PUSH2 0x1EF DUP3 PUSH2 0x1AD JUMP JUMPDEST PUSH2 0x1F9 DUP2 DUP6 PUSH2 0x1B7 JUMP JUMPDEST SWAP4 POP PUSH2 0x209 DUP2 DUP6 PUSH1 0x20 DUP7 ADD PUSH2 0x1C7 JUMP JUMPDEST PUSH2 0x212 DUP2 PUSH2 0x1D5 JUMP JUMPDEST DUP5 ADD SWAP2 POP POP SWAP3 SWAP2 POP POP JUMP JUMPDEST PUSH0 PUSH1 0x20 DUP3 ADD SWAP1 POP DUP2 DUP2 SUB PUSH0 DUP4 ADD MSTORE PUSH2 0x235 DUP2 DUP5 PUSH2 0x1E5 JUMP JUMPDEST SWAP1 POP SWAP3 SWAP2 POP POP JUMP JUMPDEST PUSH0 PUSH1 0x40 MLOAD SWAP1 POP SWAP1 JUMP JUMPDEST PUSH0 DUP1 REVERT JUMPDEST PUSH0 DUP1 REVERT JUMPDEST PUSH0 DUP1 REVERT JUMPDEST PUSH0 DUP1 REVERT JUMPDEST PUSH32 0x4E487B7100000000000000000000000000000000000000000000000000000000 PUSH0 MSTORE PUSH1 0x41 PUSH1 0x4 MSTORE PUSH1 0x24 PUSH0 REVERT JUMPDEST PUSH2 0x28C DUP3 PUSH2 0x1D5 JUMP JUMPDEST DUP2 ADD DUP2 DUP2 LT PUSH8 0xFFFFFFFFFFFFFFFF DUP3 GT OR ISZERO PUSH2 0x2AB JUMPI PUSH2 0x2AA PUSH2 0x256 JUMP JUMPDEST JUMPDEST DUP1 PUSH1 0x40 MSTORE POP POP POP JUMP JUMPDEST PUSH0 PUSH2 0x2BD PUSH2 0x23D JUMP JUMPDEST SWAP1 POP PUSH2 0x2C9 DUP3 DUP3 PUSH2 0x283 JUMP JUMPDEST SWAP2 SWAP1 POP JUMP JUMPDEST PUSH0 PUSH8 0xFFFFFFFFFFFFFFFF DUP3 GT ISZERO PUSH2 0x2E8 JUMPI PUSH2 0x2E7 PUSH2 0x256 JUMP JUMPDEST JUMPDEST PUSH2 0x2F1 DUP3 PUSH2 0x1D5 JUMP JUMPDEST SWAP1 POP PUSH1 0x20 DUP2 ADD SWAP1 POP SWAP2 SWAP1 POP JUMP JUMPDEST DUP3 DUP2 DUP4 CALLDATACOPY PUSH0 DUP4 DUP4 ADD MSTORE POP POP POP JUMP JUMPDEST PUSH0 PUSH2 0x31E PUSH2 0x319 DUP5 PUSH2 0x2CE JUMP JUMPDEST PUSH2 0x2B4 JUMP JUMPDEST SWAP1 POP DUP3 DUP2 MSTORE PUSH1 0x20 DUP2 ADD DUP5 DUP5 DUP5 ADD GT ISZERO PUSH2 0x33A JUMPI PUSH2 0x339 PUSH2 0x252 JUMP JUMPDEST JUMPDEST PUSH2 0x345 DUP5 DUP3 DUP6 PUSH2 0x2FE JUMP JUMPDEST POP SWAP4 SWAP3 POP POP POP JUMP JUMPDEST PUSH0 DUP3 PUSH1 0x1F DUP4 ADD SLT PUSH2 0x361 JUMPI PUSH2 0x360 PUSH2 0x24E JUMP JUMPDEST JUMPDEST DUP2 CALLDATALOAD PUSH2 0x371 DUP5 DUP3 PUSH1 0x20 DUP7 ADD PUSH2 0x30C JUMP JUMPDEST SWAP2 POP POP SWAP3 SWAP2 POP POP JUMP JUMPDEST PUSH0 PUSH20 0xFFFFFFFFFFFFFFFFFFFFFFFFFFFFFFFFFFFFFFFF DUP3 AND SWAP1 POP SWAP2 SWAP1 POP JUMP JUMPDEST PUSH0 PUSH2 0x3A3 DUP3 PUSH2 0x37A JUMP JUMPDEST SWAP1 POP SWAP2 SWAP1 POP JUMP JUMPDEST PUSH2 0x3B3 DUP2 PUSH2 0x399 JUMP JUMPDEST DUP2 EQ PUSH2 0x3BD JUMPI PUSH0 DUP1 REVERT JUMPDEST POP JUMP JUMPDEST PUSH0 DUP2 CALLDATALOAD SWAP1 POP PUSH2 0x3CE DUP2 PUSH2 0x3AA JUMP JUMPDEST SWAP3 SWAP2 POP POP JUMP JUMPDEST PUSH0 DUP2 SWAP1 POP SWAP2 SWAP1 POP JUMP JUMPDEST PUSH2 0x3E6 DUP2 PUSH2 0x3D4 JUMP JUMPDEST DUP2 EQ PUSH2 0x3F0 JUMPI PUSH0 DUP1 REVERT JUMPDEST POP JUMP JUMPDEST PUSH0 DUP2 CALLDATALOAD SWAP1 POP PUSH2 0x401 DUP2 PUSH2 0x3DD JUMP JUMPDEST SWAP3 SWAP2 POP POP JUMP JUMPDEST PUSH0 DUP1 PUSH0 DUP1 PUSH0 PUSH1 0xA0 DUP7 DUP9 SUB SLT ISZERO PUSH2 0x420 JUMPI PUSH2 0x41F PUSH2 0x246 JUMP JUMPDEST JUMPDEST PUSH0 DUP7 ADD CALLDATALOAD PUSH8 0xFFFFFFFFFFFFFFFF DUP2 GT ISZERO PUSH2 0x43D JUMPI PUSH2 0x43C PUSH2 0x24A JUMP JUMPDEST JUMPDEST PUSH2 0x449 DUP9 DUP3 DUP10 ADD PUSH2 0x34D JUMP JUMPDEST SWAP6 POP POP PUSH1 0x20 PUSH2 0x45A DUP9 DUP3 DUP10 ADD PUSH2 0x3C0 JUMP JUMPDEST SWAP5 POP POP PUSH1 0x40 PUSH2 0x46B DUP9 DUP3 DUP10 ADD PUSH2 0x3C0 JUMP JUMPDEST SWAP4 POP POP PUSH1 0x60 PUSH2 0x47C DUP9 DUP3 DUP10 ADD PUSH2 0x3F3 JUMP JUMPDEST SWAP3 POP POP PUSH1 0x80 PUSH2 0x48D DUP9 DUP3 DUP10 ADD PUSH2 0x3F3 JUMP JUMPDEST SWAP2 POP POP SWAP3 SWAP6 POP SWAP3 SWAP6 SWAP1 SWAP4 POP JUMP JUMPDEST PUSH2 0x4A3 DUP2 PUSH2 0x3D4 JUMP JUMPDEST DUP3 MSTORE POP POP JUMP JUMPDEST PUSH0 PUSH1 0x20 DUP3 ADD SWAP1 POP PUSH2 0x4BC PUSH0 DUP4 ADD DUP5 PUSH2 0x49A JUMP JUMPDEST SWAP3 SWAP2 POP POP JUMP INVALID 0x4C PUSH10 0x63656E73696E67204167 PUSH19 0x65656D656E740A0A312E204772616E74206F66 KECCAK256 0x4C PUSH10 0x63656E73650A2D20596F PUSH22 0x20617265206772616E7465642061206E6F6E2D657863 PUSH13 0x75736976652C206E6F6E2D7472 PUSH2 0x6E73 PUSH7 0x657261626C6520 PUSH13 0x6963656E736520746F20757365 KECCAK256 PUSH21 0x686520766964656F205B564944454F5F49445D2066 PUSH16 0x722074686520707572706F7365206F66 KECCAK256 PUSH4 0x72656174 PUSH10 0x6E672064657269766174 PUSH10 0x766520766964656F2063 PUSH16 0x6E74656E742E0A0A322E205573616765 KECCAK256 0x4C PUSH10 0x6D69746174696F6E730A 0x2D KECCAK256 SLOAD PUSH9 0x6973206C6963656E73 PUSH6 0x20697320666F PUSH19 0x206E6F6E2D636F6D6D65726369616C20757365 KECCAK256 PUSH16 0x6E6C792E0A2D20596F75206D75737420 PUSH17 0x726F76696465206174747269627574696F PUSH15 0x20746F20746865206F726967696E61 PUSH13 0x20766964656F20696E20616E79 KECCAK256 PUSH5 0x6572697661 PUSH21 0x69766520776F726B732E0A0A332E20447572617469 PUSH16 0x6E0A2D20546865206C6963656E736520 PUSH10 0x732076616C696420666F PUSH19 0x205B4475726174696F6E5D2066726F6D207468 PUSH6 0x206461746520 PUSH16 0x662070757263686173652E0A0A342E20 POP PUSH2 0x796D PUSH6 0x6E7420546572 PUSH14 0x730A2D20546865206C6963656E73 PUSH6 0x206665652069 PUSH20 0x205B416D6F756E745D2C2070617961626C652076 PUSH10 0x61205B5061796D656E74 KECCAK256 0x4D PUSH6 0x74686F645D2E EXP EXP CALLDATALOAD 0x2E KECCAK256 POP PUSH19 0x6F6869626974656420557365730A2D20596F75 KECCAK256 PUSH14 0x6179206E6F742072656469737472 PUSH10 0x627574652C207375626C PUSH10 0x63656E73652C206F7220 PUSH19 0x6573656C6C2074686520766964656F2E0A2D20 SLOAD PUSH9 0x6520766964656F206D PUSH2 0x7920 PUSH15 0x6F74206265207573656420696E2061 PUSH15 0x7920636F6E74656E74207468617420 PUSH17 0x726F6D6F74657320686174652073706565 PUSH4 0x682C2076 PUSH10 0x6F6C656E63652C206F72 KECCAK256 PUSH10 0x6C6C6567616C20616374 PUSH10 0x7669746965732E0A0A36 0x2E KECCAK256 SLOAD PUSH6 0x726D696E6174 PUSH10 0x6F6E0A2D205468697320 PUSH2 0x6772 PUSH6 0x656D656E7420 PUSH24 0x696C6C207465726D696E617465206175746F6D6174696361 PUSH13 0x6C7920696620796F7520627265 PUSH2 0x6368 KECCAK256 PUSH2 0x6E79 KECCAK256 PUSH16 0x6620697473207465726D732E0A0A372E KECCAK256 SELFBALANCE PUSH16 0x7665726E696E67204C61770A2D205468 PUSH10 0x732061677265656D656E PUSH21 0x207368616C6C20626520676F7665726E6564206279 KECCAK256 PUSH21 0x6865206C617773206F66205B596F757220436F756E PUSH21 0x72792F53746174655D2E0A0A382E20436F6E746163 PUSH21 0x20496E666F726D6174696F6E0A2D20466F7220616E PUSH26 0x207175657374696F6E7320726567617264696E67207468697320 PUSH2 0x6772 PUSH6 0x656D656E742C KECCAK256 PUSH17 0x6C6561736520636F6E74616374205B596F PUSH22 0x7220436F6E7461637420496E666F726D6174696F6E5D 0x2E EXP EXP MSTORE8 PUSH10 0x676E61747572650A2D20 JUMPDEST MSIZE PUSH16 0x7572205369676E61747572652F596F75 PUSH19 0x20436F6D70616E792773205369676E61747572 PUSH6 0x5D0A0AA26469 PUSH17 0x6673582212205B250370FF593F33723B39 PUSH16 0x1A987B7A8A5DF2228E7A270430433B19 CALL AND GASLIMIT 0xFC PUSH5 0x736F6C6343 STOP ADDMOD NOT STOP CALLER "
		},
		"gasEstimates": {
			"creation": {
				"codeDepositCost": "459200",
				"executionCost": "491",
				"totalCost": "459691"
			},
			"external": {
				"agreement()": "infinite",
				"compose(string,address,address,uint256,uint256)": "infinite",
				"getDuration()": "390",
				"getName()": "infinite",
				"getTemplate()": "infinite"
			}
		},
		"methodIdentifiers": {
			"agreement()": "7db3a946",
			"compose(string,address,address,uint256,uint256)": "483ced98",
			"getDuration()": "ad2e8c9b",
			"getName()": "17d7de7c",
			"getTemplate()": "321c48f2"
		}
	},
	"abi": [
		{
			"inputs": [],
			"stateMutability": "nonpayable",
			"type": "constructor"
		},
		{
			"inputs": [],
			"name": "agreement",
			"outputs": [
				{
					"internalType": "string",
					"name": "",
					"type": "string"
				}
			],
			"stateMutability": "view",
			"type": "function"
		},
		{
			"inputs": [
				{
					"internalType": "string",
					"name": "identifier",
					"type": "string"
				},
				{
					"internalType": "address",
					"name": "licensor",
					"type": "address"
				},
				{
					"internalType": "address",
					"name": "licensee",
					"type": "address"
				},
				{
					"internalType": "uint256",
					"name": "price",
					"type": "uint256"
				},
				{
					"internalType": "uint256",
					"name": "signTimestamp",
					"type": "uint256"
				}
			],
			"name": "compose",
			"outputs": [
				{
					"internalType": "string",
					"name": "",
					"type": "string"
				}
			],
			"stateMutability": "pure",
			"type": "function"
		},
		{
			"inputs": [],
			"name": "getDuration",
			"outputs": [
				{
					"internalType": "uint256",
					"name": "",
					"type": "uint256"
				}
			],
			"stateMutability": "pure",
			"type": "function"
		},
		{
			"inputs": [],
			"name": "getName",
			"outputs": [
				{
					"internalType": "string",
					"name": "",
					"type": "string"
				}
			],
			"stateMutability": "pure",
			"type": "function"
		},
		{
			"inputs": [],
			"name": "getTemplate",
			"outputs": [
				{
					"internalType": "string",
					"name": "",
					"type": "string"
				}
			],
			"stateMutability": "pure",
			"type": "function"
		}
	]
}