{
	"data": {
		"bytecode": {
			"linkReferences": {},
			"object": "6080604052348015600e575f80fd5b506105398061001c5f395ff3fe608060405234801561000f575f80fd5b5060043610610029575f3560e01c80637db3a9461461002d575b5f80fd5b61003561004b565b60405161004291906100da565b60405180910390f35b60405180610440016040528061040981526020016100fb610409913981565b5f81519050919050565b5f82825260208201905092915050565b8281835e5f83830152505050565b5f601f19601f8301169050919050565b5f6100ac8261006a565b6100b68185610074565b93506100c6818560208601610084565b6100cf81610092565b840191505092915050565b5f6020820190508181035f8301526100f281846100a2565b90509291505056fe4c6963656e73696e672041677265656d656e740a0a312e204772616e74206f66204c6963656e73650a2d20596f7520617265206772616e7465642061206e6f6e2d6578636c75736976652c206e6f6e2d7472616e7366657261626c65206c6963656e736520746f207573652074686520766964656f205b566964656f205469746c655d20666f722074686520707572706f7365206f66206372656174696e67206465726976617469766520766964656f20636f6e74656e742e0a0a322e205573616765204c696d69746174696f6e730a2d2054686973206c6963656e736520697320666f72206e6f6e2d636f6d6d65726369616c20757365206f6e6c792e0a2d20596f75206d7573742070726f76696465206174747269627574696f6e20746f205b596f7572204e616d652f596f7572204368616e6e656c5d20696e20616e79206465726976617469766520776f726b732e0a0a332e204475726174696f6e0a2d20546865206c6963656e73652069732076616c696420666f72205b4475726174696f6e5d2066726f6d207468652064617465206f662070757263686173652e0a0a342e205061796d656e74205465726d730a2d20546865206c6963656e736520666565206973205b416d6f756e745d2c2070617961626c6520766961205b5061796d656e74204d6574686f645d2e0a0a352e2050726f6869626974656420557365730a2d20596f75206d6179206e6f74207265646973747269627574652c207375626c6963656e73652c206f7220726573656c6c2074686520766964656f2e0a2d2054686520766964656f206d6179206e6f74206265207573656420696e20616e7920636f6e74656e7420746861742070726f6d6f7465732068617465207370656563682c2076696f6c656e63652c206f7220696c6c6567616c20616374697669746965732e0a0a362e205465726d696e6174696f6e0a2d20546869732061677265656d656e742077696c6c207465726d696e617465206175746f6d61746963616c6c7920696620796f752062726561636820616e79206f6620697473207465726d732e0a0a372e20476f7665726e696e67204c61770a2d20546869732061677265656d656e74207368616c6c20626520676f7665726e656420627920746865206c617773206f66205b596f757220436f756e7472792f53746174655d2e0a0a382e20436f6e7461637420496e666f726d6174696f6e0a2d20466f7220616e79207175657374696f6e7320726567617264696e6720746869732061677265656d656e742c20706c6561736520636f6e74616374205b596f757220436f6e7461637420496e666f726d6174696f6e5d2e0a0a5369676e61747572650a2d205b596f7572205369676e61747572652f596f757220436f6d70616e792773205369676e61747572655d0a0aa2646970667358221220cb8f6b40f9817890ce572b177c4ced15a1190c7ecf164d6c777c0ae04dd5635564736f6c63430008190033",
			"opcodes": "PUSH1 0x80 PUSH1 0x40 MSTORE CALLVALUE DUP1 ISZERO PUSH1 0xE JUMPI PUSH0 DUP1 REVERT JUMPDEST POP PUSH2 0x539 DUP1 PUSH2 0x1C PUSH0 CODECOPY PUSH0 RETURN INVALID PUSH1 0x80 PUSH1 0x40 MSTORE CALLVALUE DUP1 ISZERO PUSH2 0xF JUMPI PUSH0 DUP1 REVERT JUMPDEST POP PUSH1 0x4 CALLDATASIZE LT PUSH2 0x29 JUMPI PUSH0 CALLDATALOAD PUSH1 0xE0 SHR DUP1 PUSH4 0x7DB3A946 EQ PUSH2 0x2D JUMPI JUMPDEST PUSH0 DUP1 REVERT JUMPDEST PUSH2 0x35 PUSH2 0x4B JUMP JUMPDEST PUSH1 0x40 MLOAD PUSH2 0x42 SWAP2 SWAP1 PUSH2 0xDA JUMP JUMPDEST PUSH1 0x40 MLOAD DUP1 SWAP2 SUB SWAP1 RETURN JUMPDEST PUSH1 0x40 MLOAD DUP1 PUSH2 0x440 ADD PUSH1 0x40 MSTORE DUP1 PUSH2 0x409 DUP2 MSTORE PUSH1 0x20 ADD PUSH2 0xFB PUSH2 0x409 SWAP2 CODECOPY DUP2 JUMP JUMPDEST PUSH0 DUP2 MLOAD SWAP1 POP SWAP2 SWAP1 POP JUMP JUMPDEST PUSH0 DUP3 DUP3 MSTORE PUSH1 0x20 DUP3 ADD SWAP1 POP SWAP3 SWAP2 POP POP JUMP JUMPDEST DUP3 DUP2 DUP4 MCOPY PUSH0 DUP4 DUP4 ADD MSTORE POP POP POP JUMP JUMPDEST PUSH0 PUSH1 0x1F NOT PUSH1 0x1F DUP4 ADD AND SWAP1 POP SWAP2 SWAP1 POP JUMP JUMPDEST PUSH0 PUSH2 0xAC DUP3 PUSH2 0x6A JUMP JUMPDEST PUSH2 0xB6 DUP2 DUP6 PUSH2 0x74 JUMP JUMPDEST SWAP4 POP PUSH2 0xC6 DUP2 DUP6 PUSH1 0x20 DUP7 ADD PUSH2 0x84 JUMP JUMPDEST PUSH2 0xCF DUP2 PUSH2 0x92 JUMP JUMPDEST DUP5 ADD SWAP2 POP POP SWAP3 SWAP2 POP POP JUMP JUMPDEST PUSH0 PUSH1 0x20 DUP3 ADD SWAP1 POP DUP2 DUP2 SUB PUSH0 DUP4 ADD MSTORE PUSH2 0xF2 DUP2 DUP5 PUSH2 0xA2 JUMP JUMPDEST SWAP1 POP SWAP3 SWAP2 POP POP JUMP INVALID 0x4C PUSH10 0x63656E73696E67204167 PUSH19 0x65656D656E740A0A312E204772616E74206F66 KECCAK256 0x4C PUSH10 0x63656E73650A2D20596F PUSH22 0x20617265206772616E7465642061206E6F6E2D657863 PUSH13 0x75736976652C206E6F6E2D7472 PUSH2 0x6E73 PUSH7 0x657261626C6520 PUSH13 0x6963656E736520746F20757365 KECCAK256 PUSH21 0x686520766964656F205B566964656F205469746C65 TSTORE KECCAK256 PUSH7 0x6F722074686520 PUSH17 0x7572706F7365206F66206372656174696E PUSH8 0x2064657269766174 PUSH10 0x766520766964656F2063 PUSH16 0x6E74656E742E0A0A322E205573616765 KECCAK256 0x4C PUSH10 0x6D69746174696F6E730A 0x2D KECCAK256 SLOAD PUSH9 0x6973206C6963656E73 PUSH6 0x20697320666F PUSH19 0x206E6F6E2D636F6D6D65726369616C20757365 KECCAK256 PUSH16 0x6E6C792E0A2D20596F75206D75737420 PUSH17 0x726F76696465206174747269627574696F PUSH15 0x20746F205B596F7572204E616D652F MSIZE PUSH16 0x7572204368616E6E656C5D20696E2061 PUSH15 0x79206465726976617469766520776F PUSH19 0x6B732E0A0A332E204475726174696F6E0A2D20 SLOAD PUSH9 0x65206C6963656E7365 KECCAK256 PUSH10 0x732076616C696420666F PUSH19 0x205B4475726174696F6E5D2066726F6D207468 PUSH6 0x206461746520 PUSH16 0x662070757263686173652E0A0A342E20 POP PUSH2 0x796D PUSH6 0x6E7420546572 PUSH14 0x730A2D20546865206C6963656E73 PUSH6 0x206665652069 PUSH20 0x205B416D6F756E745D2C2070617961626C652076 PUSH10 0x61205B5061796D656E74 KECCAK256 0x4D PUSH6 0x74686F645D2E EXP EXP CALLDATALOAD 0x2E KECCAK256 POP PUSH19 0x6F6869626974656420557365730A2D20596F75 KECCAK256 PUSH14 0x6179206E6F742072656469737472 PUSH10 0x627574652C207375626C PUSH10 0x63656E73652C206F7220 PUSH19 0x6573656C6C2074686520766964656F2E0A2D20 SLOAD PUSH9 0x6520766964656F206D PUSH2 0x7920 PUSH15 0x6F74206265207573656420696E2061 PUSH15 0x7920636F6E74656E74207468617420 PUSH17 0x726F6D6F74657320686174652073706565 PUSH4 0x682C2076 PUSH10 0x6F6C656E63652C206F72 KECCAK256 PUSH10 0x6C6C6567616C20616374 PUSH10 0x7669746965732E0A0A36 0x2E KECCAK256 SLOAD PUSH6 0x726D696E6174 PUSH10 0x6F6E0A2D205468697320 PUSH2 0x6772 PUSH6 0x656D656E7420 PUSH24 0x696C6C207465726D696E617465206175746F6D6174696361 PUSH13 0x6C7920696620796F7520627265 PUSH2 0x6368 KECCAK256 PUSH2 0x6E79 KECCAK256 PUSH16 0x6620697473207465726D732E0A0A372E KECCAK256 SELFBALANCE PUSH16 0x7665726E696E67204C61770A2D205468 PUSH10 0x732061677265656D656E PUSH21 0x207368616C6C20626520676F7665726E6564206279 KECCAK256 PUSH21 0x6865206C617773206F66205B596F757220436F756E PUSH21 0x72792F53746174655D2E0A0A382E20436F6E746163 PUSH21 0x20496E666F726D6174696F6E0A2D20466F7220616E PUSH26 0x207175657374696F6E7320726567617264696E67207468697320 PUSH2 0x6772 PUSH6 0x656D656E742C KECCAK256 PUSH17 0x6C6561736520636F6E74616374205B596F PUSH22 0x7220436F6E7461637420496E666F726D6174696F6E5D 0x2E EXP EXP MSTORE8 PUSH10 0x676E61747572650A2D20 JUMPDEST MSIZE PUSH16 0x7572205369676E61747572652F596F75 PUSH19 0x20436F6D70616E792773205369676E61747572 PUSH6 0x5D0A0AA26469 PUSH17 0x667358221220CB8F6B40F9817890CE572B OR PUSH29 0x4CED15A1190C7ECF164D6C777C0AE04DD5635564736F6C634300081900 CALLER "
		},
		"gasEstimates": {
			"creation": {
				"codeDepositCost": "267400",
				"executionCost": "304",
				"totalCost": "267704"
			},
			"external": {
				"agreement()": "infinite"
			}
		},
		"methodIdentifiers": {
			"agreement()": "7db3a946"
		}
	},
	"abi": [
		{
			"inputs": [],
			"stateMutability": "nonpayable",
			"type": "constructor"
		},
		{
			"inputs": [],
			"name": "agreement",
			"outputs": [
				{
					"internalType": "string",
					"name": "",
					"type": "string"
				}
			],
			"stateMutability": "view",
			"type": "function"
		}
	]
}